{
  "_format": "hh-sol-artifact-1",
  "contractName": "EDuCoinMerkleClaimMock",
  "sourceName": "contracts/mocks/payment/EDuCoinMerkleClaimMock.sol",
  "abi": [
    {
      "inputs": [
        {
          "internalType": "contract IERC20SafeTransfers",
          "name": "erc20_",
          "type": "address"
        },
        {
          "internalType": "address",
          "name": "messageSigner_",
          "type": "address"
        },
        {
          "internalType": "contract IForwarderRegistry",
          "name": "forwarderRegistry_",
          "type": "address"
        }
      ],
      "stateMutability": "nonpayable",
      "type": "constructor"
    },
    {
      "inputs": [
        {
          "internalType": "address",
          "name": "recipient",
          "type": "address"
        },
        {
          "internalType": "uint256",
          "name": "amount",
          "type": "uint256"
        },
        {
          "internalType": "uint256",
          "name": "nonce",
          "type": "uint256"
        }
      ],
      "name": "AlreadyClaimed",
      "type": "error"
    },
    {
      "inputs": [
        {
          "internalType": "address",
          "name": "recipient",
          "type": "address"
        },
        {
          "internalType": "bytes",
          "name": "signature",
          "type": "bytes"
        },
        {
          "internalType": "uint256",
          "name": "expireAt",
          "type": "uint256"
        }
      ],
      "name": "ExpiredSignature",
      "type": "error"
    },
    {
      "inputs": [],
      "name": "IllegalInterfaceId",
      "type": "error"
    },
    {
      "inputs": [
        {
          "internalType": "address",
          "name": "recipient",
          "type": "address"
        },
        {
          "internalType": "uint256",
          "name": "amount",
          "type": "uint256"
        },
        {
          "internalType": "uint256",
          "name": "nonce",
          "type": "uint256"
        }
      ],
      "name": "InvalidProof",
      "type": "error"
    },
    {
      "inputs": [
        {
          "internalType": "address",
          "name": "recipient",
          "type": "address"
        },
        {
          "internalType": "bytes",
          "name": "signature",
          "type": "bytes"
        },
        {
          "internalType": "uint256",
          "name": "expireAt",
          "type": "uint256"
        }
      ],
      "name": "InvalidSignature",
      "type": "error"
    },
    {
      "inputs": [
        {
          "internalType": "address",
          "name": "account",
          "type": "address"
        }
      ],
      "name": "NotContractOwner",
      "type": "error"
    },
    {
      "inputs": [],
      "name": "NotPaused",
      "type": "error"
    },
    {
      "inputs": [],
      "name": "Paused",
      "type": "error"
    },
    {
      "anonymous": false,
      "inputs": [
        {
          "indexed": false,
          "internalType": "bytes32",
          "name": "root",
          "type": "bytes32"
        }
      ],
      "name": "MerkleRootSet",
      "type": "event"
    },
    {
      "anonymous": false,
      "inputs": [
        {
          "indexed": false,
          "internalType": "address",
          "name": "messageSigner",
          "type": "address"
        }
      ],
      "name": "MessageSignerSet",
      "type": "event"
    },
    {
      "anonymous": false,
      "inputs": [
        {
          "indexed": true,
          "internalType": "address",
          "name": "previousOwner",
          "type": "address"
        },
        {
          "indexed": true,
          "internalType": "address",
          "name": "newOwner",
          "type": "address"
        }
      ],
      "name": "OwnershipTransferred",
      "type": "event"
    },
    {
      "anonymous": false,
      "inputs": [],
      "name": "Pause",
      "type": "event"
    },
    {
      "anonymous": false,
      "inputs": [
        {
          "indexed": true,
          "internalType": "bytes32",
          "name": "root",
          "type": "bytes32"
        },
        {
          "indexed": true,
          "internalType": "address",
          "name": "recipient",
          "type": "address"
        },
        {
          "indexed": false,
          "internalType": "uint256",
          "name": "amount",
          "type": "uint256"
        },
        {
          "indexed": false,
          "internalType": "uint256",
          "name": "nonce",
          "type": "uint256"
        }
      ],
      "name": "PayoutClaimed",
      "type": "event"
    },
    {
      "anonymous": false,
      "inputs": [],
      "name": "Unpause",
      "type": "event"
    },
    {
      "inputs": [],
      "name": "ERC20",
      "outputs": [
        {
          "internalType": "contract IERC20SafeTransfers",
          "name": "",
          "type": "address"
        }
      ],
      "stateMutability": "view",
      "type": "function"
    },
    {
      "inputs": [],
      "name": "__msgData",
      "outputs": [
        {
          "internalType": "bytes",
          "name": "",
          "type": "bytes"
        }
      ],
      "stateMutability": "view",
      "type": "function"
    },
    {
      "inputs": [
        {
          "internalType": "address",
          "name": "recipient",
          "type": "address"
        },
        {
          "internalType": "uint256",
          "name": "amount",
          "type": "uint256"
        },
        {
          "internalType": "bytes32[]",
          "name": "proof",
          "type": "bytes32[]"
        },
        {
          "internalType": "bytes",
          "name": "signature",
          "type": "bytes"
        },
        {
          "internalType": "uint256",
          "name": "expireAt",
          "type": "uint256"
        }
      ],
      "name": "claimPayout",
      "outputs": [],
      "stateMutability": "nonpayable",
      "type": "function"
    },
    {
      "inputs": [
        {
          "internalType": "bytes32",
          "name": "",
          "type": "bytes32"
        }
      ],
      "name": "claimed",
      "outputs": [
        {
          "internalType": "bool",
          "name": "",
          "type": "bool"
        }
      ],
      "stateMutability": "view",
      "type": "function"
    },
    {
      "inputs": [],
      "name": "forwarderRegistry",
      "outputs": [
        {
          "internalType": "contract IForwarderRegistry",
          "name": "",
          "type": "address"
        }
      ],
      "stateMutability": "view",
      "type": "function"
    },
    {
      "inputs": [
        {
          "internalType": "address",
          "name": "forwarder",
          "type": "address"
        }
      ],
      "name": "isTrustedForwarder",
      "outputs": [
        {
          "internalType": "bool",
          "name": "",
          "type": "bool"
        }
      ],
      "stateMutability": "view",
      "type": "function"
    },
    {
      "inputs": [],
      "name": "messageSigner",
      "outputs": [
        {
          "internalType": "address",
          "name": "",
          "type": "address"
        }
      ],
      "stateMutability": "view",
      "type": "function"
    },
    {
      "inputs": [],
      "name": "msgData",
      "outputs": [
        {
          "internalType": "bytes",
          "name": "",
          "type": "bytes"
        }
      ],
      "stateMutability": "view",
      "type": "function"
    },
    {
      "inputs": [],
      "name": "nonce",
      "outputs": [
        {
          "internalType": "uint256",
          "name": "",
          "type": "uint256"
        }
      ],
      "stateMutability": "view",
      "type": "function"
    },
    {
      "inputs": [],
      "name": "owner",
      "outputs": [
        {
          "internalType": "address",
          "name": "",
          "type": "address"
        }
      ],
      "stateMutability": "view",
      "type": "function"
    },
    {
      "inputs": [],
      "name": "pause",
      "outputs": [],
      "stateMutability": "nonpayable",
      "type": "function"
    },
    {
      "inputs": [],
      "name": "paused",
      "outputs": [
        {
          "internalType": "bool",
          "name": "",
          "type": "bool"
        }
      ],
      "stateMutability": "view",
      "type": "function"
    },
    {
      "inputs": [],
      "name": "root",
      "outputs": [
        {
          "internalType": "bytes32",
          "name": "",
          "type": "bytes32"
        }
      ],
      "stateMutability": "view",
      "type": "function"
    },
    {
      "inputs": [
        {
          "internalType": "bytes32",
          "name": "merkleRoot",
          "type": "bytes32"
        }
      ],
      "name": "setMerkleRoot",
      "outputs": [],
      "stateMutability": "nonpayable",
      "type": "function"
    },
    {
      "inputs": [
        {
          "internalType": "address",
          "name": "messageSigner_",
          "type": "address"
        }
      ],
      "name": "setMessageSigner",
      "outputs": [],
      "stateMutability": "nonpayable",
      "type": "function"
    },
    {
      "inputs": [
        {
          "internalType": "bytes4",
          "name": "interfaceId",
          "type": "bytes4"
        }
      ],
      "name": "supportsInterface",
      "outputs": [
        {
          "internalType": "bool",
          "name": "",
          "type": "bool"
        }
      ],
      "stateMutability": "view",
      "type": "function"
    },
    {
      "inputs": [
        {
          "internalType": "address",
          "name": "newOwner",
          "type": "address"
        }
      ],
      "name": "transferOwnership",
      "outputs": [],
      "stateMutability": "nonpayable",
      "type": "function"
    },
    {
      "inputs": [],
      "name": "unpause",
      "outputs": [],
      "stateMutability": "nonpayable",
      "type": "function"
    }
  ],
  "bytecode": "0x60c06040523480156200001157600080fd5b5060405162001d6938038062001d69833981016040819052620000349162000378565b8282828080600162000045620000dd565b6200005b8162000054620000ee565b9062000124565b5062000072816200006b6200019f565b90620001cf565b506001600160a01b0390811660805284811660a052600080546001600160a01b03191691851691821790556040519081527f66b8dbbd7f4a59921c0e0f594b6fb8434e778851611f323b7c3d00d07a74b120915060200160405180910390a150505050505062000419565b6000620000e96200020e565b905090565b6000806200011e60017fc9ed16f33ab3a66c84bfd83099ccb2a8845871e2e1c1928f63797152f0fd54cd620003cc565b92915050565b6001600160a01b038116156200017b5781546001600160a01b0319166001600160a01b03821690811783556040516000907f8be0079c531659141344cd1fd0a4f28419497f9722a3daafe3b4186f6b6457e0908290a35b6200019b6307f5828d60e41b600162000193620002d2565b919062000302565b5050565b6000806200011e60017f0186a05f63b1553398ad5ea3233c0ce68b8c9eecc47717f123c5c2b42fbd6d9f620003cc565b80156200019b57815460ff191660011782556040517f6985a02210a168e66602d3235cb6db0e70f92b3ba4d376a33c0f3d9434bff62590600090a15050565b6000333214806200021f5750601836105b156200022a57503390565b60805136601319013560601c906001600160a01b0316331480620002c05750608051604051634494d46560e11b81526001600160a01b03838116600483015233602483015290911690638929a8ca90604401602060405180830381865afa1580156200029a573d6000803e3d6000fd5b505050506040513d601f19601f82011682018060405250810190620002c09190620003ee565b15620002cb57919050565b3391505090565b6000806200011e60017fca9d3e17f264b0f3984e2634e94adb37fa3e6a8103f06aeae6fa59e21c769f5e620003cc565b600160e01b6001600160e01b031983160162000331576040516372c683bb60e01b815260040160405180910390fd5b6001600160e01b03199190911660009081526020929092526040909120805460ff1916911515919091179055565b6001600160a01b03811681146200037557600080fd5b50565b6000806000606084860312156200038e57600080fd5b83516200039b816200035f565b6020850151909350620003ae816200035f565b6040850151909250620003c1816200035f565b809150509250925092565b818103818111156200011e57634e487b7160e01b600052601160045260246000fd5b6000602082840312156200040157600080fd5b815180151581146200041257600080fd5b9392505050565b60805160a05161190062000469600039600081816102cd01526108d00152600081816101aa0152818161021101528181610e4701528181610e8501528181610fbd015261104501526119006000f3fe608060405234801561001057600080fd5b50600436106101365760003560e01c80638456cb59116100b2578063cc3c0f0611610081578063ebf0c71711610066578063ebf0c717146102ef578063f2fde38b146102f8578063f5276d821461030b57600080fd5b8063cc3c0f06146102a5578063cc4aa204146102c857600080fd5b80638456cb59146102695780638da5cb5b14610271578063affed0e014610279578063c4c2bfdc1461029057600080fd5b80633f4ba83a11610109578063572b6c05116100ee578063572b6c05146102015780635c975abb1461024e5780637cb647591461025657600080fd5b80633f4ba83a146101e45780634b36df53146101ee57600080fd5b806301ffc9a71461013b578063080387b4146101635780632b4c9f16146101a857806331e66e1e146101ce575b600080fd5b61014e610149366004611488565b61031e565b60405190151581526020015b60405180910390f35b6000546101839073ffffffffffffffffffffffffffffffffffffffff1681565b60405173ffffffffffffffffffffffffffffffffffffffff909116815260200161015a565b7f0000000000000000000000000000000000000000000000000000000000000000610183565b6101d6610338565b60405161015a929190611513565b6101ec61034b565b005b6101ec6101fc366004611558565b610376565b61014e61020f366004611558565b7f000000000000000000000000000000000000000000000000000000000000000073ffffffffffffffffffffffffffffffffffffffff90811691161490565b61014e6103fb565b6101ec610264366004611573565b610414565b6101ec610468565b610183610483565b61028260025481565b60405190815260200161015a565b6102986104aa565b60405161015a91906115f0565b61014e6102b3366004611573565b60036020526000908152604090205460ff1681565b6101837f000000000000000000000000000000000000000000000000000000000000000081565b61028260015481565b6101ec610306366004611558565b610538565b6101ec610319366004611645565b610556565b60006103328261032c6109af565b906109dd565b92915050565b366000610343610ab7565b915091509091565b610364610356610ac2565b61035e610acc565b90610afa565b61037461036f610b69565b610b97565b565b610381610356610ac2565b600080547fffffffffffffffffffffffff00000000000000000000000000000000000000001673ffffffffffffffffffffffffffffffffffffffff83169081179091556040519081527f66b8dbbd7f4a59921c0e0f594b6fb8434e778851611f323b7c3d00d07a74b120906020015b60405180910390a150565b600061040f610408610b69565b5460ff1690565b905090565b61041f610356610ac2565b61042a61036f610b69565b60018181556002805490910190556040518181527f42cbc405e4dbf1b691e85b9a34b08ecfcf7a9ad9078bf4d645ccfa1fac11c10b906020016103f0565b610473610356610ac2565b61037461047e610b69565b610bf2565b600061040f610490610acc565b5473ffffffffffffffffffffffffffffffffffffffff1690565b600480546104b790611709565b80601f01602080910402602001604051908101604052809291908181526020018280546104e390611709565b80156105305780601f1061050557610100808354040283529160200191610530565b820191906000526020600020905b81548152906001019060200180831161051357829003601f168201915b505050505081565b610553610543610ac2565b8261054c610acc565b9190610c50565b50565b610566610561610b69565b610d65565b6002546001544283116105b657888585856040517f86f1d6f80000000000000000000000000000000000000000000000000000000081526004016105ad949392919061175c565b60405180910390fd5b6040517fffffffffffffffffffffffffffffffffffffffff00000000000000000000000030606090811b821660208401528b901b16603482015260488101849052600090606801604080517fffffffffffffffffffffffffffffffffffffffffffffffffffffffffffffffe08184030181528282528051602091820120600054601f8a01839004830285018301909352888452935073ffffffffffffffffffffffffffffffffffffffff9091169161069491899089908190840183828082843760009201919091525061068e9250869150610da19050565b90610dd4565b73ffffffffffffffffffffffffffffffffffffffff16146106e957898686866040517f860713f90000000000000000000000000000000000000000000000000000000081526004016105ad949392919061175c565b6040517fffffffffffffffffffffffffffffffffffffffff00000000000000000000000060608c901b166020820152603481018a905260548101849052600090607401604080517fffffffffffffffffffffffffffffffffffffffffffffffffffffffffffffffe081840301815291815281516020928301206000818152600390935291205490915060ff16156107d2576040517f6508823200000000000000000000000000000000000000000000000000000000815273ffffffffffffffffffffffffffffffffffffffff8c166004820152602481018b9052604481018590526064016105ad565b6107de89898584610df8565b61083a576040517f3c6ee01b00000000000000000000000000000000000000000000000000000000815273ffffffffffffffffffffffffffffffffffffffff8c166004820152602481018b9052604481018590526064016105ad565b6000818152600360205260409081902080547fffffffffffffffffffffffffffffffffffffffffffffffffffffffffffffff001660011790555173ffffffffffffffffffffffffffffffffffffffff8c169084907fa68c079189004e3175c636199e3e4d2aae420ce461ed29f670552b3eba9d2a03906108c6908e908990918252602082015260400190565b60405180910390a37f000000000000000000000000000000000000000000000000000000000000000073ffffffffffffffffffffffffffffffffffffffff1663b88d4fde610912610483565b604080516000815260208101918290527fffffffff0000000000000000000000000000000000000000000000000000000060e085901b1690915261095e91908f908f906024810161179d565b6020604051808303816000875af115801561097d573d6000803e3d6000fd5b505050506040513d601f19601f820116820180604052508101906109a191906117e6565b505050505050505050505050565b60008061033260017fca9d3e17f264b0f3984e2634e94adb37fa3e6a8103f06aeae6fa59e21c769f5e611808565b60007c01000000000000000000000000000000000000000000000000000000007fffffffff00000000000000000000000000000000000000000000000000000000831601610a2d57506000610332565b7ffe003659000000000000000000000000000000000000000000000000000000007fffffffff00000000000000000000000000000000000000000000000000000000831601610a7e57506001610332565b507fffffffff00000000000000000000000000000000000000000000000000000000166000908152602091909152604090205460ff1690565b366000610343610e10565b600061040f610f7a565b60008061033260017fc9ed16f33ab3a66c84bfd83099ccb2a8845871e2e1c1928f63797152f0fd54cd611808565b815473ffffffffffffffffffffffffffffffffffffffff828116911614610b65576040517f2ef4875e00000000000000000000000000000000000000000000000000000000815273ffffffffffffffffffffffffffffffffffffffff821660048201526024016105ad565b5050565b60008061033260017f0186a05f63b1553398ad5ea3233c0ce68b8c9eecc47717f123c5c2b42fbd6d9f611808565b610ba0816110c1565b80547fffffffffffffffffffffffffffffffffffffffffffffffffffffffffffffff001681556040517f7805862f689e2f13df9f062ff482ad3ad112aca9e0847911ed832e158c525b3390600090a150565b610bfb81610d65565b80547fffffffffffffffffffffffffffffffffffffffffffffffffffffffffffffff001660011781556040517f6985a02210a168e66602d3235cb6db0e70f92b3ba4d376a33c0f3d9434bff62590600090a150565b825473ffffffffffffffffffffffffffffffffffffffff9081169083168114610cbd576040517f2ef4875e00000000000000000000000000000000000000000000000000000000815273ffffffffffffffffffffffffffffffffffffffff841660048201526024016105ad565b8173ffffffffffffffffffffffffffffffffffffffff168173ffffffffffffffffffffffffffffffffffffffff1614610d5f5783547fffffffffffffffffffffffff00000000000000000000000000000000000000001673ffffffffffffffffffffffffffffffffffffffff8381169182178655604051908316907f8be0079c531659141344cd1fd0a4f28419497f9722a3daafe3b4186f6b6457e090600090a35b50505050565b805460ff1615610553576040517f9e87fac800000000000000000000000000000000000000000000000000000000815260040160405180910390fd5b7f19457468657265756d205369676e6564204d6573736167653a0a3332000000006000908152601c91909152603c902090565b6000806000610de385856110fc565b91509150610df081611141565b509392505050565b600082610e068686856112f4565b1495945050505050565b36600033321480610e215750601836105b15610e2f5750600091369150565b3373ffffffffffffffffffffffffffffffffffffffff7f0000000000000000000000000000000000000000000000000000000000000000161480610f64575073ffffffffffffffffffffffffffffffffffffffff7f000000000000000000000000000000000000000000000000000000000000000016638929a8ca367fffffffffffffffffffffffffffffffffffffffffffffffffffffffffffffffec013560601c6040517fffffffff0000000000000000000000000000000000000000000000000000000060e084901b16815273ffffffffffffffffffffffffffffffffffffffff9091166004820152336024820152604401602060405180830381865afa158015610f40573d6000803e3d6000fd5b505050506040513d601f19601f82011682018060405250810190610f6491906117e6565b15610f7157610343611336565b50600091369150565b600033321480610f8a5750601836105b15610f9457503390565b7fffffffffffffffffffffffffffffffffffffffffffffffffffffffffffffffec36013560601c7f000000000000000000000000000000000000000000000000000000000000000073ffffffffffffffffffffffffffffffffffffffff163314806110b057506040517f8929a8ca00000000000000000000000000000000000000000000000000000000815273ffffffffffffffffffffffffffffffffffffffff82811660048301523360248301527f00000000000000000000000000000000000000000000000000000000000000001690638929a8ca90604401602060405180830381865afa15801561108c573d6000803e3d6000fd5b505050506040513d601f19601f820116820180604052508101906110b091906117e6565b156110ba57919050565b3391505090565b805460ff16610553576040517f6cd6020100000000000000000000000000000000000000000000000000000000815260040160405180910390fd5b60008082516041036111325760208301516040840151606085015160001a61112687828585611367565b9450945050505061113a565b506000905060025b9250929050565b600081600481111561115557611155611842565b0361115d5750565b600181600481111561117157611171611842565b036111d8576040517f08c379a000000000000000000000000000000000000000000000000000000000815260206004820152601860248201527f45434453413a20696e76616c6964207369676e6174757265000000000000000060448201526064016105ad565b60028160048111156111ec576111ec611842565b03611253576040517f08c379a000000000000000000000000000000000000000000000000000000000815260206004820152601f60248201527f45434453413a20696e76616c6964207369676e6174757265206c656e6774680060448201526064016105ad565b600381600481111561126757611267611842565b03610553576040517f08c379a000000000000000000000000000000000000000000000000000000000815260206004820152602260248201527f45434453413a20696e76616c6964207369676e6174757265202773272076616c60448201527f756500000000000000000000000000000000000000000000000000000000000060648201526084016105ad565b600081815b8481101561132d576113238287878481811061131757611317611871565b90506020020135611456565b91506001016112f9565b50949350505050565b3660006103437fffffffffffffffffffffffffffffffffffffffffffffffffffffffffffffffec83018284816118a0565b6000807f7fffffffffffffffffffffffffffffff5d576e7357a4501ddfe92f46681b20a083111561139e575060009050600361144d565b6040805160008082526020820180845289905260ff881692820192909252606081018690526080810185905260019060a0016020604051602081039080840390855afa1580156113f2573d6000803e3d6000fd5b50506040517fffffffffffffffffffffffffffffffffffffffffffffffffffffffffffffffe0015191505073ffffffffffffffffffffffffffffffffffffffff81166114465760006001925092505061144d565b9150600090505b94509492505050565b6000818310611472576000828152602084905260409020611481565b60008381526020839052604090205b9392505050565b60006020828403121561149a57600080fd5b81357fffffffff000000000000000000000000000000000000000000000000000000008116811461148157600080fd5b8183528181602085013750600060208284010152600060207fffffffffffffffffffffffffffffffffffffffffffffffffffffffffffffffe0601f840116840101905092915050565b6020815260006115276020830184866114ca565b949350505050565b803573ffffffffffffffffffffffffffffffffffffffff8116811461155357600080fd5b919050565b60006020828403121561156a57600080fd5b6114818261152f565b60006020828403121561158557600080fd5b5035919050565b6000815180845260005b818110156115b257602081850181015186830182015201611596565b5060006020828601015260207fffffffffffffffffffffffffffffffffffffffffffffffffffffffffffffffe0601f83011685010191505092915050565b602081526000611481602083018461158c565b60008083601f84011261161557600080fd5b50813567ffffffffffffffff81111561162d57600080fd5b60208301915083602082850101111561113a57600080fd5b600080600080600080600060a0888a03121561166057600080fd5b6116698861152f565b965060208801359550604088013567ffffffffffffffff8082111561168d57600080fd5b818a0191508a601f8301126116a157600080fd5b8135818111156116b057600080fd5b8b60208260051b85010111156116c557600080fd5b6020830197508096505060608a01359150808211156116e357600080fd5b506116f08a828b01611603565b989b979a50959894979596608090950135949350505050565b600181811c9082168061171d57607f821691505b602082108103611756577f4e487b7100000000000000000000000000000000000000000000000000000000600052602260045260246000fd5b50919050565b73ffffffffffffffffffffffffffffffffffffffff8516815260606020820152600061178c6060830185876114ca565b905082604083015295945050505050565b600073ffffffffffffffffffffffffffffffffffffffff8087168352808616602084015250836040830152608060608301526117dc608083018461158c565b9695505050505050565b6000602082840312156117f857600080fd5b8151801515811461148157600080fd5b81810381811115610332577f4e487b7100000000000000000000000000000000000000000000000000000000600052601160045260246000fd5b7f4e487b7100000000000000000000000000000000000000000000000000000000600052602160045260246000fd5b7f4e487b7100000000000000000000000000000000000000000000000000000000600052603260045260246000fd5b600080858511156118b057600080fd5b838611156118bd57600080fd5b505082019391909203915056fea2646970667358221220c7207bb4e26d43b7ef5bc93ec2e1bd739b1f6b825353e5b1156acf4f362ea82264736f6c63430008160033",
  "linkReferences": {},
  "deployedLinkReferences": {}
}