{
  "_format": "hh-sol-artifact-1",
  "contractName": "EDuCoinMerkleClaimMock",
  "sourceName": "contracts/mocks/payment/EDuCoinMerkleClaimMock.sol",
  "abi": [
    {
      "inputs": [
        {
          "internalType": "contract IERC20",
          "name": "erc20_",
          "type": "address"
        },
        {
          "internalType": "address",
          "name": "messageSigner_",
          "type": "address"
        },
        {
          "internalType": "address",
          "name": "tokenHolder_",
          "type": "address"
        },
        {
          "internalType": "contract IForwarderRegistry",
          "name": "forwarderRegistry_",
          "type": "address"
        }
      ],
      "stateMutability": "nonpayable",
      "type": "constructor"
    },
    {
      "inputs": [
        {
          "internalType": "address",
          "name": "recipient",
          "type": "address"
        },
        {
          "internalType": "uint256",
          "name": "amount",
          "type": "uint256"
        },
        {
          "internalType": "uint256",
          "name": "treeCounter",
          "type": "uint256"
        }
      ],
      "name": "AlreadyClaimed",
      "type": "error"
    },
    {
      "inputs": [
        {
          "internalType": "address",
          "name": "recipient",
          "type": "address"
        },
        {
          "internalType": "bytes",
          "name": "signature",
          "type": "bytes"
        },
        {
          "internalType": "uint256",
          "name": "expireAt",
          "type": "uint256"
        }
      ],
      "name": "ExpiredSignature",
      "type": "error"
    },
    {
      "inputs": [],
      "name": "IllegalInterfaceId",
      "type": "error"
    },
    {
      "inputs": [],
      "name": "InconsistentArrayLengths",
      "type": "error"
    },
    {
      "inputs": [
        {
          "internalType": "address",
          "name": "recipient",
          "type": "address"
        },
        {
          "internalType": "uint256",
          "name": "amount",
          "type": "uint256"
        },
        {
          "internalType": "uint256",
          "name": "treeCounter",
          "type": "uint256"
        }
      ],
      "name": "InvalidProof",
      "type": "error"
    },
    {
      "inputs": [
        {
          "internalType": "address",
          "name": "recipient",
          "type": "address"
        },
        {
          "internalType": "bytes",
          "name": "signature",
          "type": "bytes"
        },
        {
          "internalType": "uint256",
          "name": "expireAt",
          "type": "uint256"
        }
      ],
      "name": "InvalidSignature",
      "type": "error"
    },
    {
      "inputs": [
        {
          "internalType": "address",
          "name": "account",
          "type": "address"
        }
      ],
      "name": "NotContractOwner",
      "type": "error"
    },
    {
      "inputs": [],
      "name": "NotPaused",
      "type": "error"
    },
    {
      "inputs": [],
      "name": "Paused",
      "type": "error"
    },
    {
      "anonymous": false,
      "inputs": [
        {
          "indexed": false,
          "internalType": "bytes32",
          "name": "root",
          "type": "bytes32"
        }
      ],
      "name": "MerkleRootSet",
      "type": "event"
    },
    {
      "anonymous": false,
      "inputs": [
        {
          "indexed": false,
          "internalType": "address",
          "name": "messageSigner",
          "type": "address"
        }
      ],
      "name": "MessageSignerSet",
      "type": "event"
    },
    {
      "anonymous": false,
      "inputs": [
        {
          "indexed": true,
          "internalType": "address",
          "name": "previousOwner",
          "type": "address"
        },
        {
          "indexed": true,
          "internalType": "address",
          "name": "newOwner",
          "type": "address"
        }
      ],
      "name": "OwnershipTransferred",
      "type": "event"
    },
    {
      "anonymous": false,
      "inputs": [],
      "name": "Pause",
      "type": "event"
    },
    {
      "anonymous": false,
      "inputs": [
        {
          "indexed": true,
          "internalType": "bytes32",
          "name": "root",
          "type": "bytes32"
        },
        {
          "indexed": true,
          "internalType": "address",
          "name": "recipient",
          "type": "address"
        },
        {
          "indexed": false,
          "internalType": "uint256",
          "name": "amount",
          "type": "uint256"
        },
        {
          "indexed": false,
          "internalType": "uint256",
          "name": "treeCounter",
          "type": "uint256"
        }
      ],
      "name": "PayoutClaimed",
      "type": "event"
    },
    {
      "anonymous": false,
      "inputs": [
        {
          "indexed": false,
          "internalType": "address",
          "name": "tokenHolder",
          "type": "address"
        }
      ],
      "name": "TokenHolderSet",
      "type": "event"
    },
    {
      "anonymous": false,
      "inputs": [],
      "name": "Unpause",
      "type": "event"
    },
    {
      "inputs": [],
      "name": "ERC20",
      "outputs": [
        {
          "internalType": "contract IERC20",
          "name": "",
          "type": "address"
        }
      ],
      "stateMutability": "view",
      "type": "function"
    },
    {
      "inputs": [],
      "name": "__msgData",
      "outputs": [
        {
          "internalType": "bytes",
          "name": "",
          "type": "bytes"
        }
      ],
      "stateMutability": "view",
      "type": "function"
    },
    {
      "inputs": [
        {
          "internalType": "address",
          "name": "recipient",
          "type": "address"
        },
        {
          "internalType": "uint256",
          "name": "amount",
          "type": "uint256"
        },
        {
          "internalType": "bytes32[]",
          "name": "proof",
          "type": "bytes32[]"
        },
        {
          "internalType": "bytes",
          "name": "signature",
          "type": "bytes"
        },
        {
          "internalType": "uint256",
          "name": "expireAt",
          "type": "uint256"
        }
      ],
      "name": "claimPayout",
      "outputs": [],
      "stateMutability": "nonpayable",
      "type": "function"
    },
    {
      "inputs": [
        {
          "internalType": "bytes32",
          "name": "",
          "type": "bytes32"
        }
      ],
      "name": "claimed",
      "outputs": [
        {
          "internalType": "bool",
          "name": "",
          "type": "bool"
        }
      ],
      "stateMutability": "view",
      "type": "function"
    },
    {
      "inputs": [],
      "name": "forwarderRegistry",
      "outputs": [
        {
          "internalType": "contract IForwarderRegistry",
          "name": "",
          "type": "address"
        }
      ],
      "stateMutability": "view",
      "type": "function"
    },
    {
      "inputs": [
        {
          "internalType": "address",
          "name": "forwarder",
          "type": "address"
        }
      ],
      "name": "isTrustedForwarder",
      "outputs": [
        {
          "internalType": "bool",
          "name": "",
          "type": "bool"
        }
      ],
      "stateMutability": "view",
      "type": "function"
    },
    {
      "inputs": [],
      "name": "messageSigner",
      "outputs": [
        {
          "internalType": "address",
          "name": "",
          "type": "address"
        }
      ],
      "stateMutability": "view",
      "type": "function"
    },
    {
      "inputs": [],
      "name": "msgData",
      "outputs": [
        {
          "internalType": "bytes",
          "name": "",
          "type": "bytes"
        }
      ],
      "stateMutability": "view",
      "type": "function"
    },
    {
      "inputs": [],
      "name": "owner",
      "outputs": [
        {
          "internalType": "address",
          "name": "",
          "type": "address"
        }
      ],
      "stateMutability": "view",
      "type": "function"
    },
    {
      "inputs": [],
      "name": "pause",
      "outputs": [],
      "stateMutability": "nonpayable",
      "type": "function"
    },
    {
      "inputs": [],
      "name": "paused",
      "outputs": [
        {
          "internalType": "bool",
          "name": "",
          "type": "bool"
        }
      ],
      "stateMutability": "view",
      "type": "function"
    },
    {
      "inputs": [
        {
          "internalType": "address[]",
          "name": "accounts",
          "type": "address[]"
        },
        {
          "internalType": "contract IERC20[]",
          "name": "tokens",
          "type": "address[]"
        },
        {
          "internalType": "uint256[]",
          "name": "amounts",
          "type": "uint256[]"
        }
      ],
      "name": "recoverERC20s",
      "outputs": [],
      "stateMutability": "nonpayable",
      "type": "function"
    },
    {
      "inputs": [
        {
          "internalType": "address[]",
          "name": "accounts",
          "type": "address[]"
        },
        {
          "internalType": "contract IERC721[]",
          "name": "contracts",
          "type": "address[]"
        },
        {
          "internalType": "uint256[]",
          "name": "tokenIds",
          "type": "uint256[]"
        }
      ],
      "name": "recoverERC721s",
      "outputs": [],
      "stateMutability": "nonpayable",
      "type": "function"
    },
    {
      "inputs": [
        {
          "internalType": "address payable[]",
          "name": "accounts",
          "type": "address[]"
        },
        {
          "internalType": "uint256[]",
          "name": "amounts",
          "type": "uint256[]"
        }
      ],
      "name": "recoverETH",
      "outputs": [],
      "stateMutability": "nonpayable",
      "type": "function"
    },
    {
      "inputs": [],
      "name": "root",
      "outputs": [
        {
          "internalType": "bytes32",
          "name": "",
          "type": "bytes32"
        }
      ],
      "stateMutability": "view",
      "type": "function"
    },
    {
      "inputs": [
        {
          "internalType": "bytes32",
          "name": "merkleRoot",
          "type": "bytes32"
        }
      ],
      "name": "setMerkleRoot",
      "outputs": [],
      "stateMutability": "nonpayable",
      "type": "function"
    },
    {
      "inputs": [
        {
          "internalType": "address",
          "name": "messageSigner_",
          "type": "address"
        }
      ],
      "name": "setMessageSigner",
      "outputs": [],
      "stateMutability": "nonpayable",
      "type": "function"
    },
    {
      "inputs": [
        {
          "internalType": "address",
          "name": "tokenHolder_",
          "type": "address"
        }
      ],
      "name": "setTokenHolder",
      "outputs": [],
      "stateMutability": "nonpayable",
      "type": "function"
    },
    {
      "inputs": [
        {
          "internalType": "bytes4",
          "name": "interfaceId",
          "type": "bytes4"
        }
      ],
      "name": "supportsInterface",
      "outputs": [
        {
          "internalType": "bool",
          "name": "",
          "type": "bool"
        }
      ],
      "stateMutability": "view",
      "type": "function"
    },
    {
      "inputs": [],
      "name": "tokenHolder",
      "outputs": [
        {
          "internalType": "address",
          "name": "",
          "type": "address"
        }
      ],
      "stateMutability": "view",
      "type": "function"
    },
    {
      "inputs": [
        {
          "internalType": "address",
          "name": "newOwner",
          "type": "address"
        }
      ],
      "name": "transferOwnership",
      "outputs": [],
      "stateMutability": "nonpayable",
      "type": "function"
    },
    {
      "inputs": [],
      "name": "treeCounter",
      "outputs": [
        {
          "internalType": "uint256",
          "name": "",
          "type": "uint256"
        }
      ],
      "stateMutability": "view",
      "type": "function"
    },
    {
      "inputs": [],
      "name": "unpause",
      "outputs": [],
      "stateMutability": "nonpayable",
      "type": "function"
    }
  ],
  "bytecode": "0x60c06040523480156200001157600080fd5b506040516200280e3803806200280e8339810160408190526200003491620003cc565b83838383808060016200004662000131565b6200005c816200005562000142565b9062000178565b5062000073816200006c620001f3565b9062000223565b506001600160a01b0390811660805285811660a052600080546001600160a01b03191691861691821790556040519081527f66b8dbbd7f4a59921c0e0f594b6fb8434e778851611f323b7c3d00d07a74b120915060200160405180910390a1600180546001600160a01b0319166001600160a01b0384169081179091556040519081527ff4f258c9c2ba29a8ac62258935b47c1060456ae57d24667002ea715b9c5e85969060200160405180910390a1505050505050505062000481565b60006200013d62000262565b905090565b6000806200017260017fc9ed16f33ab3a66c84bfd83099ccb2a8845871e2e1c1928f63797152f0fd54cd62000434565b92915050565b6001600160a01b03811615620001cf5781546001600160a01b0319166001600160a01b03821690811783556040516000907f8be0079c531659141344cd1fd0a4f28419497f9722a3daafe3b4186f6b6457e0908290a35b620001ef6307f5828d60e41b6001620001e762000326565b919062000356565b5050565b6000806200017260017f0186a05f63b1553398ad5ea3233c0ce68b8c9eecc47717f123c5c2b42fbd6d9f62000434565b8015620001ef57815460ff191660011782556040517f6985a02210a168e66602d3235cb6db0e70f92b3ba4d376a33c0f3d9434bff62590600090a15050565b600033321480620002735750601836105b156200027e57503390565b60805136601319013560601c906001600160a01b0316331480620003145750608051604051634494d46560e11b81526001600160a01b03838116600483015233602483015290911690638929a8ca90604401602060405180830381865afa158015620002ee573d6000803e3d6000fd5b505050506040513d601f19601f8201168201806040525081019062000314919062000456565b156200031f57919050565b3391505090565b6000806200017260017fca9d3e17f264b0f3984e2634e94adb37fa3e6a8103f06aeae6fa59e21c769f5e62000434565b600160e01b6001600160e01b031983160162000385576040516372c683bb60e01b815260040160405180910390fd5b6001600160e01b03199190911660009081526020929092526040909120805460ff1916911515919091179055565b6001600160a01b0381168114620003c957600080fd5b50565b60008060008060808587031215620003e357600080fd5b8451620003f081620003b3565b60208601519094506200040381620003b3565b60408601519093506200041681620003b3565b60608601519092506200042981620003b3565b939692955090935050565b818103818111156200017257634e487b7160e01b600052601160045260246000fd5b6000602082840312156200046957600080fd5b815180151581146200047a57600080fd5b9392505050565b60805160a05161233d620004d16000396000818161036a0152610cd40152600081816102180152818161029f01528181611496015281816114d40152818161160c0152611694015261233d6000f3fe608060405234801561001057600080fd5b506004361061018d5760003560e01c80637cb64759116100e3578063cc4aa2041161008c578063f2fde38b11610066578063f2fde38b146103a8578063f5276d82146103bb578063f7ba94bd146103ce57600080fd5b8063cc4aa20414610365578063ebf0c7171461038c578063f29d2f281461039557600080fd5b8063c3666c36116100bd578063c3666c361461031a578063c4c2bfdc1461032d578063cc3c0f061461034257600080fd5b80637cb64759146102f75780638456cb591461030a5780638da5cb5b1461031257600080fd5b80633f4ba83a11610145578063572b6c051161011f578063572b6c051461028f5780635c975abb146102dc57806373c8a958146102e457600080fd5b80633f4ba83a14610252578063420a83e71461025c5780634b36df531461027c57600080fd5b80632a5d085d116101765780632a5d085d146101ff5780632b4c9f161461021657806331e66e1e1461023c57600080fd5b806301ffc9a714610192578063080387b4146101ba575b600080fd5b6101a56101a0366004611ded565b6103e1565b60405190151581526020015b60405180910390f35b6000546101da9073ffffffffffffffffffffffffffffffffffffffff1681565b60405173ffffffffffffffffffffffffffffffffffffffff90911681526020016101b1565b61020860035481565b6040519081526020016101b1565b7f00000000000000000000000000000000000000000000000000000000000000006101da565b6102446103fb565b6040516101b1929190611e78565b61025a61040e565b005b6001546101da9073ffffffffffffffffffffffffffffffffffffffff1681565b61025a61028a366004611eae565b610439565b6101a561029d366004611eae565b7f000000000000000000000000000000000000000000000000000000000000000073ffffffffffffffffffffffffffffffffffffffff90811691161490565b6101a56104be565b61025a6102f2366004611f10565b6104d7565b61025a610305366004611faa565b6105cd565b61025a610621565b6101da61063c565b61025a610328366004611f10565b610663565b6103356107db565b6040516101b19190612031565b6101a5610350366004611faa565b60046020526000908152604090205460ff1681565b6101da7f000000000000000000000000000000000000000000000000000000000000000081565b61020860025481565b61025a6103a3366004611eae565b610869565b61025a6103b6366004611eae565b6108e7565b61025a6103c9366004612044565b610905565b61025a6103dc366004612107565b610d51565b60006103f5826103ef610e10565b90610e3e565b92915050565b366000610406610f18565b915091509091565b610427610419610f23565b610421610f2d565b90610f5b565b610437610432610fca565b610ff8565b565b610444610419610f23565b600080547fffffffffffffffffffffffff00000000000000000000000000000000000000001673ffffffffffffffffffffffffffffffffffffffff83169081179091556040519081527f66b8dbbd7f4a59921c0e0f594b6fb8434e778851611f323b7c3d00d07a74b120906020015b60405180910390a150565b60006104d26104cb610fca565b5460ff1690565b905090565b6104e2610419610f23565b8483811415806104f25750808214155b15610529576040517f6582533600000000000000000000000000000000000000000000000000000000815260040160405180910390fd5b60005b818110156105c3576105bb88888381811061054957610549612173565b905060200201602081019061055e9190611eae565b85858481811061057057610570612173565b9050602002013588888581811061058957610589612173565b905060200201602081019061059e9190611eae565b73ffffffffffffffffffffffffffffffffffffffff169190611053565b60010161052c565b5050505050505050565b6105d8610419610f23565b6105e3610432610fca565b60028190556003805460010190556040518181527f42cbc405e4dbf1b691e85b9a34b08ecfcf7a9ad9078bf4d645ccfa1fac11c10b906020016104b3565b61062c610419610f23565b610437610637610fca565b6110e5565b60006104d2610649610f2d565b5473ffffffffffffffffffffffffffffffffffffffff1690565b61066e610419610f23565b84838114158061067e5750808214155b156106b5576040517f6582533600000000000000000000000000000000000000000000000000000000815260040160405180910390fd5b60005b818110156105c3578585828181106106d2576106d2612173565b90506020020160208101906106e79190611eae565b73ffffffffffffffffffffffffffffffffffffffff166323b872dd308a8a8581811061071557610715612173565b905060200201602081019061072a9190611eae565b87878681811061073c5761073c612173565b6040517fffffffff0000000000000000000000000000000000000000000000000000000060e088901b16815273ffffffffffffffffffffffffffffffffffffffff958616600482015294909316602485015250602090910201356044820152606401600060405180830381600087803b1580156107b857600080fd5b505af11580156107cc573d6000803e3d6000fd5b505050508060010190506106b8565b600580546107e8906121a2565b80601f0160208091040260200160405190810160405280929190818152602001828054610814906121a2565b80156108615780601f1061083657610100808354040283529160200191610861565b820191906000526020600020905b81548152906001019060200180831161084457829003601f168201915b505050505081565b610874610419610f23565b600180547fffffffffffffffffffffffff00000000000000000000000000000000000000001673ffffffffffffffffffffffffffffffffffffffff83169081179091556040519081527ff4f258c9c2ba29a8ac62258935b47c1060456ae57d24667002ea715b9c5e8596906020016104b3565b6109026108f2610f23565b826108fb610f2d565b9190611143565b50565b610915610910610fca565b611258565b60035460025442831161096557888585856040517f86f1d6f800000000000000000000000000000000000000000000000000000000815260040161095c94939291906121f5565b60405180910390fd5b6040517fffffffffffffffffffffffffffffffffffffffff00000000000000000000000030606090811b821660208401528b901b16603482015260488101849052600090606801604080517fffffffffffffffffffffffffffffffffffffffffffffffffffffffffffffffe08184030181528282528051602091820120600054601f8a01839004830285018301909352888452935073ffffffffffffffffffffffffffffffffffffffff90911691610a43918990899081908401838280828437600092019190915250610a3d92508691506112949050565b906112c7565b73ffffffffffffffffffffffffffffffffffffffff1614610a9857898686866040517f860713f900000000000000000000000000000000000000000000000000000000815260040161095c94939291906121f5565b6040517fffffffffffffffffffffffffffffffffffffffff00000000000000000000000060608c901b166020820152603481018a905260548101849052600090607401604080517fffffffffffffffffffffffffffffffffffffffffffffffffffffffffffffffe081840301815291815281516020928301206000818152600490935291205490915060ff1615610b81576040517f6508823200000000000000000000000000000000000000000000000000000000815273ffffffffffffffffffffffffffffffffffffffff8c166004820152602481018b90526044810185905260640161095c565b610b8d898985846112eb565b610be9576040517f3c6ee01b00000000000000000000000000000000000000000000000000000000815273ffffffffffffffffffffffffffffffffffffffff8c166004820152602481018b90526044810185905260640161095c565b6000818152600460205260409081902080547fffffffffffffffffffffffffffffffffffffffffffffffffffffffffffffff001660011790555173ffffffffffffffffffffffffffffffffffffffff8c169084907fa68c079189004e3175c636199e3e4d2aae420ce461ed29f670552b3eba9d2a0390610c75908e908990918252602082015260400190565b60405180910390a36001546040517f23b872dd00000000000000000000000000000000000000000000000000000000815273ffffffffffffffffffffffffffffffffffffffff91821660048201528c82166024820152604481018c90527f0000000000000000000000000000000000000000000000000000000000000000909116906323b872dd906064016020604051808303816000875af1158015610d1f573d6000803e3d6000fd5b505050506040513d601f19601f82011682018060405250810190610d439190612236565b505050505050505050505050565b610d5c610419610f23565b82818114610d96576040517f6582533600000000000000000000000000000000000000000000000000000000815260040160405180910390fd5b60005b81811015610e0857610e00848483818110610db657610db6612173565b90506020020135878784818110610dcf57610dcf612173565b9050602002016020810190610de49190611eae565b73ffffffffffffffffffffffffffffffffffffffff1690611305565b600101610d99565b505050505050565b6000806103f560017fca9d3e17f264b0f3984e2634e94adb37fa3e6a8103f06aeae6fa59e21c769f5e612258565b60007c01000000000000000000000000000000000000000000000000000000007fffffffff00000000000000000000000000000000000000000000000000000000831601610e8e575060006103f5565b7ffe003659000000000000000000000000000000000000000000000000000000007fffffffff00000000000000000000000000000000000000000000000000000000831601610edf575060016103f5565b507fffffffff00000000000000000000000000000000000000000000000000000000166000908152602091909152604090205460ff1690565b36600061040661145f565b60006104d26115c9565b6000806103f560017fc9ed16f33ab3a66c84bfd83099ccb2a8845871e2e1c1928f63797152f0fd54cd612258565b815473ffffffffffffffffffffffffffffffffffffffff828116911614610fc6576040517f2ef4875e00000000000000000000000000000000000000000000000000000000815273ffffffffffffffffffffffffffffffffffffffff8216600482015260240161095c565b5050565b6000806103f560017f0186a05f63b1553398ad5ea3233c0ce68b8c9eecc47717f123c5c2b42fbd6d9f612258565b61100181611710565b80547fffffffffffffffffffffffffffffffffffffffffffffffffffffffffffffff001681556040517f7805862f689e2f13df9f062ff482ad3ad112aca9e0847911ed832e158c525b3390600090a150565b6040805173ffffffffffffffffffffffffffffffffffffffff8416602482015260448082018490528251808303909101815260649091019091526020810180517bffffffffffffffffffffffffffffffffffffffffffffffffffffffff167fa9059cbb000000000000000000000000000000000000000000000000000000001790526110e090849061174b565b505050565b6110ee81611258565b80547fffffffffffffffffffffffffffffffffffffffffffffffffffffffffffffff001660011781556040517f6985a02210a168e66602d3235cb6db0e70f92b3ba4d376a33c0f3d9434bff62590600090a150565b825473ffffffffffffffffffffffffffffffffffffffff90811690831681146111b0576040517f2ef4875e00000000000000000000000000000000000000000000000000000000815273ffffffffffffffffffffffffffffffffffffffff8416600482015260240161095c565b8173ffffffffffffffffffffffffffffffffffffffff168173ffffffffffffffffffffffffffffffffffffffff16146112525783547fffffffffffffffffffffffff00000000000000000000000000000000000000001673ffffffffffffffffffffffffffffffffffffffff8381169182178655604051908316907f8be0079c531659141344cd1fd0a4f28419497f9722a3daafe3b4186f6b6457e090600090a35b50505050565b805460ff1615610902576040517f9e87fac800000000000000000000000000000000000000000000000000000000815260040160405180910390fd5b7f19457468657265756d205369676e6564204d6573736167653a0a3332000000006000908152601c91909152603c902090565b60008060006112d6858561185a565b915091506112e38161189f565b509392505050565b6000826112f9868685611a52565b1490505b949350505050565b8047101561136f576040517f08c379a000000000000000000000000000000000000000000000000000000000815260206004820152601d60248201527f416464726573733a20696e73756666696369656e742062616c616e6365000000604482015260640161095c565b60008273ffffffffffffffffffffffffffffffffffffffff168260405160006040518083038185875af1925050503d80600081146113c9576040519150601f19603f3d011682016040523d82523d6000602084013e6113ce565b606091505b50509050806110e0576040517f08c379a000000000000000000000000000000000000000000000000000000000815260206004820152603a60248201527f416464726573733a20756e61626c6520746f2073656e642076616c75652c207260448201527f6563697069656e74206d61792068617665207265766572746564000000000000606482015260840161095c565b366000333214806114705750601836105b1561147e5750600091369150565b3373ffffffffffffffffffffffffffffffffffffffff7f00000000000000000000000000000000000000000000000000000000000000001614806115b3575073ffffffffffffffffffffffffffffffffffffffff7f000000000000000000000000000000000000000000000000000000000000000016638929a8ca367fffffffffffffffffffffffffffffffffffffffffffffffffffffffffffffffec013560601c6040517fffffffff0000000000000000000000000000000000000000000000000000000060e084901b16815273ffffffffffffffffffffffffffffffffffffffff9091166004820152336024820152604401602060405180830381865afa15801561158f573d6000803e3d6000fd5b505050506040513d601f19601f820116820180604052508101906115b39190612236565b156115c057610406611a94565b50600091369150565b6000333214806115d95750601836105b156115e357503390565b7fffffffffffffffffffffffffffffffffffffffffffffffffffffffffffffffec36013560601c7f000000000000000000000000000000000000000000000000000000000000000073ffffffffffffffffffffffffffffffffffffffff163314806116ff57506040517f8929a8ca00000000000000000000000000000000000000000000000000000000815273ffffffffffffffffffffffffffffffffffffffff82811660048301523360248301527f00000000000000000000000000000000000000000000000000000000000000001690638929a8ca90604401602060405180830381865afa1580156116db573d6000803e3d6000fd5b505050506040513d601f19601f820116820180604052508101906116ff9190612236565b1561170957919050565b3391505090565b805460ff16610902576040517f6cd6020100000000000000000000000000000000000000000000000000000000815260040160405180910390fd5b60006117ad826040518060400160405280602081526020017f5361666545524332303a206c6f772d6c6576656c2063616c6c206661696c65648152508573ffffffffffffffffffffffffffffffffffffffff16611ac59092919063ffffffff16565b90508051600014806117ce5750808060200190518101906117ce9190612236565b6110e0576040517f08c379a000000000000000000000000000000000000000000000000000000000815260206004820152602a60248201527f5361666545524332303a204552433230206f7065726174696f6e20646964206e60448201527f6f74207375636365656400000000000000000000000000000000000000000000606482015260840161095c565b60008082516041036118905760208301516040840151606085015160001a61188487828585611ad4565b94509450505050611898565b506000905060025b9250929050565b60008160048111156118b3576118b3612292565b036118bb5750565b60018160048111156118cf576118cf612292565b03611936576040517f08c379a000000000000000000000000000000000000000000000000000000000815260206004820152601860248201527f45434453413a20696e76616c6964207369676e61747572650000000000000000604482015260640161095c565b600281600481111561194a5761194a612292565b036119b1576040517f08c379a000000000000000000000000000000000000000000000000000000000815260206004820152601f60248201527f45434453413a20696e76616c6964207369676e6174757265206c656e67746800604482015260640161095c565b60038160048111156119c5576119c5612292565b03610902576040517f08c379a000000000000000000000000000000000000000000000000000000000815260206004820152602260248201527f45434453413a20696e76616c6964207369676e6174757265202773272076616c60448201527f7565000000000000000000000000000000000000000000000000000000000000606482015260840161095c565b600081815b84811015611a8b57611a8182878784818110611a7557611a75612173565b90506020020135611bc3565b9150600101611a57565b50949350505050565b3660006104067fffffffffffffffffffffffffffffffffffffffffffffffffffffffffffffffec83018284816122c1565b60606112fd8484600085611bf5565b6000807f7fffffffffffffffffffffffffffffff5d576e7357a4501ddfe92f46681b20a0831115611b0b5750600090506003611bba565b6040805160008082526020820180845289905260ff881692820192909252606081018690526080810185905260019060a0016020604051602081039080840390855afa158015611b5f573d6000803e3d6000fd5b50506040517fffffffffffffffffffffffffffffffffffffffffffffffffffffffffffffffe0015191505073ffffffffffffffffffffffffffffffffffffffff8116611bb357600060019250925050611bba565b9150600090505b94509492505050565b6000818310611bdf576000828152602084905260409020611bee565b60008381526020839052604090205b9392505050565b606082471015611c87576040517f08c379a000000000000000000000000000000000000000000000000000000000815260206004820152602660248201527f416464726573733a20696e73756666696369656e742062616c616e636520666f60448201527f722063616c6c0000000000000000000000000000000000000000000000000000606482015260840161095c565b6000808673ffffffffffffffffffffffffffffffffffffffff168587604051611cb091906122eb565b60006040518083038185875af1925050503d8060008114611ced576040519150601f19603f3d011682016040523d82523d6000602084013e611cf2565b606091505b5091509150611d0387838387611d0e565b979650505050505050565b60608315611da4578251600003611d9d5773ffffffffffffffffffffffffffffffffffffffff85163b611d9d576040517f08c379a000000000000000000000000000000000000000000000000000000000815260206004820152601d60248201527f416464726573733a2063616c6c20746f206e6f6e2d636f6e7472616374000000604482015260640161095c565b50816112fd565b6112fd8383815115611db95781518083602001fd5b806040517f08c379a000000000000000000000000000000000000000000000000000000000815260040161095c9190612031565b600060208284031215611dff57600080fd5b81357fffffffff0000000000000000000000000000000000000000000000000000000081168114611bee57600080fd5b8183528181602085013750600060208284010152600060207fffffffffffffffffffffffffffffffffffffffffffffffffffffffffffffffe0601f840116840101905092915050565b6020815260006112fd602083018486611e2f565b73ffffffffffffffffffffffffffffffffffffffff8116811461090257600080fd5b600060208284031215611ec057600080fd5b8135611bee81611e8c565b60008083601f840112611edd57600080fd5b50813567ffffffffffffffff811115611ef557600080fd5b6020830191508360208260051b850101111561189857600080fd5b60008060008060008060608789031215611f2957600080fd5b863567ffffffffffffffff80821115611f4157600080fd5b611f4d8a838b01611ecb565b90985096506020890135915080821115611f6657600080fd5b611f728a838b01611ecb565b90965094506040890135915080821115611f8b57600080fd5b50611f9889828a01611ecb565b979a9699509497509295939492505050565b600060208284031215611fbc57600080fd5b5035919050565b60005b83811015611fde578181015183820152602001611fc6565b50506000910152565b60008151808452611fff816020860160208601611fc3565b601f017fffffffffffffffffffffffffffffffffffffffffffffffffffffffffffffffe0169290920160200192915050565b602081526000611bee6020830184611fe7565b600080600080600080600060a0888a03121561205f57600080fd5b873561206a81611e8c565b965060208801359550604088013567ffffffffffffffff8082111561208e57600080fd5b61209a8b838c01611ecb565b909750955060608a01359150808211156120b357600080fd5b818a0191508a601f8301126120c757600080fd5b8135818111156120d657600080fd5b8b60208285010111156120e857600080fd5b6020830195508094505050506080880135905092959891949750929550565b6000806000806040858703121561211d57600080fd5b843567ffffffffffffffff8082111561213557600080fd5b61214188838901611ecb565b9096509450602087013591508082111561215a57600080fd5b5061216787828801611ecb565b95989497509550505050565b7f4e487b7100000000000000000000000000000000000000000000000000000000600052603260045260246000fd5b600181811c908216806121b657607f821691505b6020821081036121ef577f4e487b7100000000000000000000000000000000000000000000000000000000600052602260045260246000fd5b50919050565b73ffffffffffffffffffffffffffffffffffffffff85168152606060208201526000612225606083018587611e2f565b905082604083015295945050505050565b60006020828403121561224857600080fd5b81518015158114611bee57600080fd5b818103818111156103f5577f4e487b7100000000000000000000000000000000000000000000000000000000600052601160045260246000fd5b7f4e487b7100000000000000000000000000000000000000000000000000000000600052602160045260246000fd5b600080858511156122d157600080fd5b838611156122de57600080fd5b5050820193919092039150565b600082516122fd818460208701611fc3565b919091019291505056fea26469706673582212202568382cb6b40d91ab4726a30770e3d96b033efe683850111995c006b0fa69cf64736f6c63430008160033",
  "linkReferences": {},
  "deployedLinkReferences": {}
}