{
  "_format": "hh-sol-artifact-1",
  "contractName": "GenesisTokenEscrow",
  "sourceName": "contracts/escrow/GenesisTokenEscrow.sol",
  "abi": [
    {
      "inputs": [
        {
          "internalType": "address",
          "name": "genesisToken_",
          "type": "address"
        },
        {
          "internalType": "contract IForwarderRegistry",
          "name": "forwarderRegistry",
          "type": "address"
        }
      ],
      "stateMutability": "nonpayable",
      "type": "constructor"
    },
    {
      "inputs": [
        {
          "internalType": "uint256",
          "name": "tokenId",
          "type": "uint256"
        }
      ],
      "name": "ExcessiveGenesisToken",
      "type": "error"
    },
    {
      "inputs": [],
      "name": "IllegalInterfaceId",
      "type": "error"
    },
    {
      "inputs": [],
      "name": "InconsistentArrayLengths",
      "type": "error"
    },
    {
      "inputs": [
        {
          "internalType": "uint256",
          "name": "tokenId",
          "type": "uint256"
        }
      ],
      "name": "InsufficientGenesisToken",
      "type": "error"
    },
    {
      "inputs": [
        {
          "internalType": "address",
          "name": "inventory",
          "type": "address"
        }
      ],
      "name": "InvalidInventory",
      "type": "error"
    },
    {
      "inputs": [
        {
          "internalType": "address",
          "name": "account",
          "type": "address"
        }
      ],
      "name": "NotContractOwner",
      "type": "error"
    },
    {
      "inputs": [
        {
          "internalType": "address",
          "name": "account",
          "type": "address"
        },
        {
          "internalType": "address",
          "name": "publisherTokenAddress",
          "type": "address"
        },
        {
          "internalType": "uint256",
          "name": "publisherTokenId",
          "type": "uint256"
        }
      ],
      "name": "NotEscrowed",
      "type": "error"
    },
    {
      "inputs": [
        {
          "internalType": "uint256",
          "name": "tokenId",
          "type": "uint256"
        }
      ],
      "name": "UnsupportedGenesisTokenId",
      "type": "error"
    },
    {
      "anonymous": false,
      "inputs": [
        {
          "indexed": true,
          "internalType": "address",
          "name": "account",
          "type": "address"
        },
        {
          "indexed": false,
          "internalType": "address[]",
          "name": "publisherTokenAddresses",
          "type": "address[]"
        },
        {
          "indexed": false,
          "internalType": "uint256[]",
          "name": "publisherTokenIds",
          "type": "uint256[]"
        },
        {
          "components": [
            {
              "internalType": "uint128",
              "name": "genesis1Quantity",
              "type": "uint128"
            },
            {
              "internalType": "uint128",
              "name": "genesis2Quantity",
              "type": "uint128"
            }
          ],
          "indexed": false,
          "internalType": "struct GenesisTokenEscrow.Escrow[]",
          "name": "escrows",
          "type": "tuple[]"
        }
      ],
      "name": "Deposited",
      "type": "event"
    },
    {
      "anonymous": false,
      "inputs": [
        {
          "indexed": true,
          "internalType": "address",
          "name": "previousOwner",
          "type": "address"
        },
        {
          "indexed": true,
          "internalType": "address",
          "name": "newOwner",
          "type": "address"
        }
      ],
      "name": "OwnershipTransferred",
      "type": "event"
    },
    {
      "anonymous": false,
      "inputs": [
        {
          "indexed": true,
          "internalType": "address",
          "name": "account",
          "type": "address"
        },
        {
          "indexed": false,
          "internalType": "address[]",
          "name": "publisherTokenAddresses",
          "type": "address[]"
        },
        {
          "indexed": false,
          "internalType": "uint256[]",
          "name": "publisherTokenIds",
          "type": "uint256[]"
        }
      ],
      "name": "Withdrawn",
      "type": "event"
    },
    {
      "inputs": [],
      "name": "GENESIS_TOKEN",
      "outputs": [
        {
          "internalType": "contract IERC1155",
          "name": "",
          "type": "address"
        }
      ],
      "stateMutability": "view",
      "type": "function"
    },
    {
      "inputs": [
        {
          "internalType": "address",
          "name": "",
          "type": "address"
        },
        {
          "internalType": "address",
          "name": "",
          "type": "address"
        },
        {
          "internalType": "uint256",
          "name": "",
          "type": "uint256"
        }
      ],
      "name": "escrowed",
      "outputs": [
        {
          "internalType": "uint128",
          "name": "genesis1Quantity",
          "type": "uint128"
        },
        {
          "internalType": "uint128",
          "name": "genesis2Quantity",
          "type": "uint128"
        }
      ],
      "stateMutability": "view",
      "type": "function"
    },
    {
      "inputs": [],
      "name": "forwarderRegistry",
      "outputs": [
        {
          "internalType": "contract IForwarderRegistry",
          "name": "",
          "type": "address"
        }
      ],
      "stateMutability": "view",
      "type": "function"
    },
    {
      "inputs": [
        {
          "internalType": "address",
          "name": "forwarder",
          "type": "address"
        }
      ],
      "name": "isTrustedForwarder",
      "outputs": [
        {
          "internalType": "bool",
          "name": "",
          "type": "bool"
        }
      ],
      "stateMutability": "view",
      "type": "function"
    },
    {
      "inputs": [
        {
          "internalType": "address",
          "name": "",
          "type": "address"
        },
        {
          "internalType": "address",
          "name": "from",
          "type": "address"
        },
        {
          "internalType": "uint256[]",
          "name": "ids",
          "type": "uint256[]"
        },
        {
          "internalType": "uint256[]",
          "name": "quantities",
          "type": "uint256[]"
        },
        {
          "internalType": "bytes",
          "name": "data",
          "type": "bytes"
        }
      ],
      "name": "onERC1155BatchReceived",
      "outputs": [
        {
          "internalType": "bytes4",
          "name": "",
          "type": "bytes4"
        }
      ],
      "stateMutability": "nonpayable",
      "type": "function"
    },
    {
      "inputs": [
        {
          "internalType": "address",
          "name": "",
          "type": "address"
        },
        {
          "internalType": "address",
          "name": "from",
          "type": "address"
        },
        {
          "internalType": "uint256",
          "name": "id",
          "type": "uint256"
        },
        {
          "internalType": "uint256",
          "name": "quantity",
          "type": "uint256"
        },
        {
          "internalType": "bytes",
          "name": "data",
          "type": "bytes"
        }
      ],
      "name": "onERC1155Received",
      "outputs": [
        {
          "internalType": "bytes4",
          "name": "",
          "type": "bytes4"
        }
      ],
      "stateMutability": "nonpayable",
      "type": "function"
    },
    {
      "inputs": [],
      "name": "owner",
      "outputs": [
        {
          "internalType": "address",
          "name": "",
          "type": "address"
        }
      ],
      "stateMutability": "view",
      "type": "function"
    },
    {
      "inputs": [
        {
          "internalType": "address[]",
          "name": "accounts",
          "type": "address[]"
        },
        {
          "internalType": "contract IERC20[]",
          "name": "tokens",
          "type": "address[]"
        },
        {
          "internalType": "uint256[]",
          "name": "amounts",
          "type": "uint256[]"
        }
      ],
      "name": "recoverERC20s",
      "outputs": [],
      "stateMutability": "nonpayable",
      "type": "function"
    },
    {
      "inputs": [
        {
          "internalType": "address[]",
          "name": "accounts",
          "type": "address[]"
        },
        {
          "internalType": "contract IERC721[]",
          "name": "contracts",
          "type": "address[]"
        },
        {
          "internalType": "uint256[]",
          "name": "tokenIds",
          "type": "uint256[]"
        }
      ],
      "name": "recoverERC721s",
      "outputs": [],
      "stateMutability": "nonpayable",
      "type": "function"
    },
    {
      "inputs": [
        {
          "internalType": "address payable[]",
          "name": "accounts",
          "type": "address[]"
        },
        {
          "internalType": "uint256[]",
          "name": "amounts",
          "type": "uint256[]"
        }
      ],
      "name": "recoverETH",
      "outputs": [],
      "stateMutability": "nonpayable",
      "type": "function"
    },
    {
      "inputs": [
        {
          "internalType": "bytes4",
          "name": "interfaceId",
          "type": "bytes4"
        }
      ],
      "name": "supportsInterface",
      "outputs": [
        {
          "internalType": "bool",
          "name": "",
          "type": "bool"
        }
      ],
      "stateMutability": "view",
      "type": "function"
    },
    {
      "inputs": [
        {
          "internalType": "address",
          "name": "newOwner",
          "type": "address"
        }
      ],
      "name": "transferOwnership",
      "outputs": [],
      "stateMutability": "nonpayable",
      "type": "function"
    },
    {
      "inputs": [
        {
          "internalType": "address[]",
          "name": "publisherTokenAddresses",
          "type": "address[]"
        },
        {
          "internalType": "uint256[]",
          "name": "publisherTokenIds",
          "type": "uint256[]"
        }
      ],
      "name": "withdraw",
      "outputs": [],
      "stateMutability": "nonpayable",
      "type": "function"
    }
  ],
  "bytecode": "0x60c06040523480156200001157600080fd5b5060405162002bb938038062002bb983398101604081905262000034916200020f565b8080336200004d8162000046620000c0565b90620000f6565b506200006e630271189760e51b60016200006662000169565b919062000199565b6001600160a01b0390811660805283169050620000ad57604051630912efb360e41b81526001600160a01b038316600482015260240160405180910390fd5b506001600160a01b031660a05262000270565b600080620000f060017fc9ed16f33ab3a66c84bfd83099ccb2a8845871e2e1c1928f63797152f0fd54cd6200024e565b92915050565b6001600160a01b038116156200014d5781546001600160a01b0319166001600160a01b03821690811783556040516000907f8be0079c531659141344cd1fd0a4f28419497f9722a3daafe3b4186f6b6457e0908290a35b620001656307f5828d60e41b60016200006662000169565b5050565b600080620000f060017fca9d3e17f264b0f3984e2634e94adb37fa3e6a8103f06aeae6fa59e21c769f5e6200024e565b600160e01b6001600160e01b0319831601620001c8576040516372c683bb60e01b815260040160405180910390fd5b6001600160e01b03199190911660009081526020929092526040909120805460ff1916911515919091179055565b6001600160a01b03811681146200020c57600080fd5b50565b600080604083850312156200022357600080fd5b82516200023081620001f6565b60208401519092506200024381620001f6565b809150509250929050565b81810381811115620000f057634e487b7160e01b600052601160045260246000fd5b60805160a0516128f9620002c0600039600081816102af0152818161046e01528181610da50152610e6001526000818161010e015281816101e601528181611ada0152611b6201526128f96000f3fe608060405234801561001057600080fd5b50600436106100df5760003560e01c8063bc197c811161008c578063ef59df2711610066578063ef59df27146102aa578063f23a6e61146102d1578063f2fde38b146102e4578063f7ba94bd146102f757600080fd5b8063bc197c8114610240578063c3666c3614610284578063de6d6d961461029757600080fd5b8063572b6c05116100bd578063572b6c05146101d657806373c8a958146102235780638da5cb5b1461023857600080fd5b806301ffc9a7146100e45780632b4c9f161461010c578063529b35f314610153575b600080fd5b6100f76100f2366004611efc565b61030a565b60405190151581526020015b60405180910390f35b7f00000000000000000000000000000000000000000000000000000000000000005b60405173ffffffffffffffffffffffffffffffffffffffff9091168152602001610103565b6101ad610161366004611f67565b600060208181529381526040808220855292815282812090935282529020546fffffffffffffffffffffffffffffffff8082169170010000000000000000000000000000000090041682565b604080516fffffffffffffffffffffffffffffffff938416815292909116602083015201610103565b6100f76101e4366004611fa8565b7f000000000000000000000000000000000000000000000000000000000000000073ffffffffffffffffffffffffffffffffffffffff90811691161490565b610236610231366004612011565b610324565b005b61012e610428565b61025361024e3660046120ed565b610454565b6040517fffffffff000000000000000000000000000000000000000000000000000000009091168152602001610103565b610236610292366004612011565b6107ee565b6102366102a53660046121ac565b610966565b61012e7f000000000000000000000000000000000000000000000000000000000000000081565b6102536102df366004612218565b610e46565b6102366102f2366004611fa8565b6111d6565b6102366103053660046121ac565b6111f4565b600061031e826103186112b3565b906112e1565b92915050565b61033d61032f6113bb565b6103376113c5565b906113f3565b84838114158061034d5750808214155b15610384576040517f6582533600000000000000000000000000000000000000000000000000000000815260040160405180910390fd5b60005b8181101561041e576104168888838181106103a4576103a4612282565b90506020020160208101906103b99190611fa8565b8585848181106103cb576103cb612282565b905060200201358888858181106103e4576103e4612282565b90506020020160208101906103f99190611fa8565b73ffffffffffffffffffffffffffffffffffffffff169190611462565b600101610387565b5050505050505050565b600061044f6104356113c5565b5473ffffffffffffffffffffffffffffffffffffffff1690565b905090565b60003373ffffffffffffffffffffffffffffffffffffffff7f00000000000000000000000000000000000000000000000000000000000000001681146104e3576040517f912efb3000000000000000000000000000000000000000000000000000000000815273ffffffffffffffffffffffffffffffffffffffff821660048201526024015b60405180910390fd5b60008080806104f487890189612440565b935093509350935061050c8c8c8c8c888888886114f4565b6000845167ffffffffffffffff811115610528576105286122b1565b60405190808252806020026020018201604052801561056d57816020015b60408051808201909152600080825260208201528152602001906001900390816105465790505b5090508d60005b86518110156107665773ffffffffffffffffffffffffffffffffffffffff82166000908152602081905260408120885182908a90859081106105b8576105b8612282565b602002602001015173ffffffffffffffffffffffffffffffffffffffff1673ffffffffffffffffffffffffffffffffffffffff168152602001908152602001600020600088848151811061060e5761060e612282565b60200260200101518152602001908152602001600020905085828151811061063857610638612282565b6020908102919091010151815482906000906106679084906fffffffffffffffffffffffffffffffff1661257a565b92506101000a8154816fffffffffffffffffffffffffffffffff02191690836fffffffffffffffffffffffffffffffff1602179055508482815181106106af576106af612282565b60200260200101518160000160108282829054906101000a90046fffffffffffffffffffffffffffffffff166106e5919061257a565b82546101009290920a6fffffffffffffffffffffffffffffffff818102199093169183160217909155604080518082019091528354808316825270010000000000000000000000000000000090049091166020820152855190915085908490811061075257610752612282565b602090810291909101015250600101610574565b508073ffffffffffffffffffffffffffffffffffffffff167f0e66c6a6cd97f4ba167ce0fcd0c4ddc5a6bc715d604f363be7bc2f056945eae18787856040516107b1939291906125e6565b60405180910390a2507fbc197c81000000000000000000000000000000000000000000000000000000009f9e505050505050505050505050505050565b6107f961032f6113bb565b8483811415806108095750808214155b15610840576040517f6582533600000000000000000000000000000000000000000000000000000000815260040160405180910390fd5b60005b8181101561041e5785858281811061085d5761085d612282565b90506020020160208101906108729190611fa8565b73ffffffffffffffffffffffffffffffffffffffff166323b872dd308a8a858181106108a0576108a0612282565b90506020020160208101906108b59190611fa8565b8787868181106108c7576108c7612282565b6040517fffffffff0000000000000000000000000000000000000000000000000000000060e088901b16815273ffffffffffffffffffffffffffffffffffffffff958616600482015294909316602485015250602090910201356044820152606401600060405180830381600087803b15801561094357600080fd5b505af1158015610957573d6000803e3d6000fd5b50505050806001019050610843565b82811461099f576040517f6582533600000000000000000000000000000000000000000000000000000000815260040160405180910390fd5b60006109a96113bb565b60408051600280825260608201835292935060009290916020830190803683370190505090506001816000815181106109e4576109e4612282565b602002602001018181525050600281600181518110610a0557610a05612282565b60200260200101818152505060008060005b87811015610cc9576000898983818110610a3357610a33612282565b9050602002016020810190610a489190611fa8565b90506000888884818110610a5e57610a5e612282565b73ffffffffffffffffffffffffffffffffffffffff808b1660009081526020818152604080832093891683529281528282209381029590950135808252929094529092208054929350916fffffffffffffffffffffffffffffffff80821692507001000000000000000000000000000000009091041681151580610af357506fffffffffffffffffffffffffffffffff811615155b15610c5f57604051806040016040528060006fffffffffffffffffffffffffffffffff16815260200160006fffffffffffffffffffffffffffffffff168152506000808c73ffffffffffffffffffffffffffffffffffffffff1673ffffffffffffffffffffffffffffffffffffffff16815260200190815260200160002060008773ffffffffffffffffffffffffffffffffffffffff1673ffffffffffffffffffffffffffffffffffffffff168152602001908152602001600020600086815260200190815260200160002060008201518160000160006101000a8154816fffffffffffffffffffffffffffffffff02191690836fffffffffffffffffffffffffffffffff16021790555060208201518160000160106101000a8154816fffffffffffffffffffffffffffffffff02191690836fffffffffffffffffffffffffffffffff1602179055509050508188610c4c919061257a565b9750610c58818861257a565b9650610cb8565b6040517fd91fd18700000000000000000000000000000000000000000000000000000000815273ffffffffffffffffffffffffffffffffffffffff808c16600483015286166024820152604481018590526064016104da565b505060019093019250610a17915050565b508373ffffffffffffffffffffffffffffffffffffffff167f78c340d4ad128ce699aee749013d7fa1512cfb434be2b83c3ce5d99069e026f689898989604051610d1694939291906126b2565b60405180910390a2604080516002808252606082018352600092602083019080368337019050509050826fffffffffffffffffffffffffffffffff1681600081518110610d6557610d65612282565b602002602001018181525050816fffffffffffffffffffffffffffffffff1681600181518110610d9757610d97612282565b6020026020010181815250507f000000000000000000000000000000000000000000000000000000000000000073ffffffffffffffffffffffffffffffffffffffff16632eb2c2d630610de86113bb565b87856040518563ffffffff1660e01b8152600401610e099493929190612756565b600060405180830381600087803b158015610e2357600080fd5b505af1158015610e37573d6000803e3d6000fd5b50505050505050505050505050565b60003373ffffffffffffffffffffffffffffffffffffffff7f0000000000000000000000000000000000000000000000000000000000000000168114610ed0576040517f912efb3000000000000000000000000000000000000000000000000000000000815273ffffffffffffffffffffffffffffffffffffffff821660048201526024016104da565b600080610edf858701876127be565b73ffffffffffffffffffffffffffffffffffffffff808c16600090815260208181526040808320938616835292815282822084835290522091935091506001899003610f8657805488908290600090610f4b9084906fffffffffffffffffffffffffffffffff1661257a565b92506101000a8154816fffffffffffffffffffffffffffffffff02191690836fffffffffffffffffffffffffffffffff160217905550610ffd565b88600203610fc857805488908290601090610f4b90849070010000000000000000000000000000000090046fffffffffffffffffffffffffffffffff1661257a565b6040517f8be93f4f000000000000000000000000000000000000000000000000000000008152600481018a90526024016104da565b60408051600180825281830190925260009160208083019080368337505060408051600180825281830190925292935060009291506020808301908036833750506040805160018082528183019092529293506000929150602082015b604080518082019091526000808252602082015281526020019060019003908161105a579050509050858360008151811061109757611097612282565b602002602001019073ffffffffffffffffffffffffffffffffffffffff16908173ffffffffffffffffffffffffffffffffffffffff168152505084826000815181106110e5576110e5612282565b6020908102919091018101919091526040805180820190915285546fffffffffffffffffffffffffffffffff808216835270010000000000000000000000000000000090910416918101919091528151829060009061114657611146612282565b60200260200101819052508c73ffffffffffffffffffffffffffffffffffffffff167f0e66c6a6cd97f4ba167ce0fcd0c4ddc5a6bc715d604f363be7bc2f056945eae184848460405161119b939291906125e6565b60405180910390a2507ff23a6e61000000000000000000000000000000000000000000000000000000009d9c50505050505050505050505050565b6111f16111e16113bb565b826111ea6113c5565b9190611828565b50565b6111ff61032f6113bb565b82818114611239576040517f6582533600000000000000000000000000000000000000000000000000000000815260040160405180910390fd5b60005b818110156112ab576112a384848381811061125957611259612282565b9050602002013587878481811061127257611272612282565b90506020020160208101906112879190611fa8565b73ffffffffffffffffffffffffffffffffffffffff169061193d565b60010161123c565b505050505050565b60008061031e60017fca9d3e17f264b0f3984e2634e94adb37fa3e6a8103f06aeae6fa59e21c769f5e6127ea565b60007c01000000000000000000000000000000000000000000000000000000007fffffffff000000000000000000000000000000000000000000000000000000008316016113315750600061031e565b7ffe003659000000000000000000000000000000000000000000000000000000007fffffffff000000000000000000000000000000000000000000000000000000008316016113825750600161031e565b507fffffffff00000000000000000000000000000000000000000000000000000000166000908152602091909152604090205460ff1690565b600061044f611a97565b60008061031e60017fc9ed16f33ab3a66c84bfd83099ccb2a8845871e2e1c1928f63797152f0fd54cd6127ea565b815473ffffffffffffffffffffffffffffffffffffffff82811691161461145e576040517f2ef4875e00000000000000000000000000000000000000000000000000000000815273ffffffffffffffffffffffffffffffffffffffff821660048201526024016104da565b5050565b6040805173ffffffffffffffffffffffffffffffffffffffff8416602482015260448082018490528251808303909101815260649091019091526020810180517bffffffffffffffffffffffffffffffffffffffffffffffffffffffff167fa9059cbb000000000000000000000000000000000000000000000000000000001790526114ef908490611bde565b505050565b825184511461152f576040517f6582533600000000000000000000000000000000000000000000000000000000815260040160405180910390fd5b815184511461156a576040517f6582533600000000000000000000000000000000000000000000000000000000815260040160405180910390fd5b80518451146115a5576040517f6582533600000000000000000000000000000000000000000000000000000000815260040160405180910390fd5b60008060005b865181101561162e578481815181106115c6576115c6612282565b60200260200101516fffffffffffffffffffffffffffffffff16836115eb91906127fd565b92508381815181106115ff576115ff612282565b60200260200101516fffffffffffffffffffffffffffffffff168261162491906127fd565b91506001016115ab565b5060005b898110156117a55760008b8b8381811061164e5761164e612282565b905060200201359050806001036116df5789898381811061167157611671612282565b905060200201358410156116b4576040517f07060a1f000000000000000000000000000000000000000000000000000000008152600160048201526024016104da565b8989838181106116c6576116c6612282565b90506020020135846116d891906127ea565b935061179c565b80600203611767578989838181106116f9576116f9612282565b9050602002013583101561173c576040517f07060a1f000000000000000000000000000000000000000000000000000000008152600260048201526024016104da565b89898381811061174e5761174e612282565b905060200201358361176091906127ea565b925061179c565b6040517f8be93f4f000000000000000000000000000000000000000000000000000000008152600481018290526024016104da565b50600101611632565b5081156117e1576040517f6cc11657000000000000000000000000000000000000000000000000000000008152600160048201526024016104da565b801561181c576040517f6cc11657000000000000000000000000000000000000000000000000000000008152600260048201526024016104da565b50505050505050505050565b825473ffffffffffffffffffffffffffffffffffffffff9081169083168114611895576040517f2ef4875e00000000000000000000000000000000000000000000000000000000815273ffffffffffffffffffffffffffffffffffffffff841660048201526024016104da565b8173ffffffffffffffffffffffffffffffffffffffff168173ffffffffffffffffffffffffffffffffffffffff16146119375783547fffffffffffffffffffffffff00000000000000000000000000000000000000001673ffffffffffffffffffffffffffffffffffffffff8381169182178655604051908316907f8be0079c531659141344cd1fd0a4f28419497f9722a3daafe3b4186f6b6457e090600090a35b50505050565b804710156119a7576040517f08c379a000000000000000000000000000000000000000000000000000000000815260206004820152601d60248201527f416464726573733a20696e73756666696369656e742062616c616e636500000060448201526064016104da565b60008273ffffffffffffffffffffffffffffffffffffffff168260405160006040518083038185875af1925050503d8060008114611a01576040519150601f19603f3d011682016040523d82523d6000602084013e611a06565b606091505b50509050806114ef576040517f08c379a000000000000000000000000000000000000000000000000000000000815260206004820152603a60248201527f416464726573733a20756e61626c6520746f2073656e642076616c75652c207260448201527f6563697069656e74206d6179206861766520726576657274656400000000000060648201526084016104da565b600033321480611aa75750601836105b15611ab157503390565b7fffffffffffffffffffffffffffffffffffffffffffffffffffffffffffffffec36013560601c7f000000000000000000000000000000000000000000000000000000000000000073ffffffffffffffffffffffffffffffffffffffff16331480611bcd57506040517f8929a8ca00000000000000000000000000000000000000000000000000000000815273ffffffffffffffffffffffffffffffffffffffff82811660048301523360248301527f00000000000000000000000000000000000000000000000000000000000000001690638929a8ca90604401602060405180830381865afa158015611ba9573d6000803e3d6000fd5b505050506040513d601f19601f82011682018060405250810190611bcd9190612810565b15611bd757919050565b3391505090565b6000611c40826040518060400160405280602081526020017f5361666545524332303a206c6f772d6c6576656c2063616c6c206661696c65648152508573ffffffffffffffffffffffffffffffffffffffff16611ced9092919063ffffffff16565b9050805160001480611c61575080806020019051810190611c619190612810565b6114ef576040517f08c379a000000000000000000000000000000000000000000000000000000000815260206004820152602a60248201527f5361666545524332303a204552433230206f7065726174696f6e20646964206e60448201527f6f7420737563636565640000000000000000000000000000000000000000000060648201526084016104da565b6060611cfc8484600085611d04565b949350505050565b606082471015611d96576040517f08c379a000000000000000000000000000000000000000000000000000000000815260206004820152602660248201527f416464726573733a20696e73756666696369656e742062616c616e636520666f60448201527f722063616c6c000000000000000000000000000000000000000000000000000060648201526084016104da565b6000808673ffffffffffffffffffffffffffffffffffffffff168587604051611dbf9190612856565b60006040518083038185875af1925050503d8060008114611dfc576040519150601f19603f3d011682016040523d82523d6000602084013e611e01565b606091505b5091509150611e1287838387611e1d565b979650505050505050565b60608315611eb3578251600003611eac5773ffffffffffffffffffffffffffffffffffffffff85163b611eac576040517f08c379a000000000000000000000000000000000000000000000000000000000815260206004820152601d60248201527f416464726573733a2063616c6c20746f206e6f6e2d636f6e747261637400000060448201526064016104da565b5081611cfc565b611cfc8383815115611ec85781518083602001fd5b806040517f08c379a00000000000000000000000000000000000000000000000000000000081526004016104da9190612872565b600060208284031215611f0e57600080fd5b81357fffffffff0000000000000000000000000000000000000000000000000000000081168114611f3e57600080fd5b9392505050565b73ffffffffffffffffffffffffffffffffffffffff811681146111f157600080fd5b600080600060608486031215611f7c57600080fd5b8335611f8781611f45565b92506020840135611f9781611f45565b929592945050506040919091013590565b600060208284031215611fba57600080fd5b8135611f3e81611f45565b60008083601f840112611fd757600080fd5b50813567ffffffffffffffff811115611fef57600080fd5b6020830191508360208260051b850101111561200a57600080fd5b9250929050565b6000806000806000806060878903121561202a57600080fd5b863567ffffffffffffffff8082111561204257600080fd5b61204e8a838b01611fc5565b9098509650602089013591508082111561206757600080fd5b6120738a838b01611fc5565b9096509450604089013591508082111561208c57600080fd5b5061209989828a01611fc5565b979a9699509497509295939492505050565b60008083601f8401126120bd57600080fd5b50813567ffffffffffffffff8111156120d557600080fd5b60208301915083602082850101111561200a57600080fd5b60008060008060008060008060a0898b03121561210957600080fd5b883561211481611f45565b9750602089013561212481611f45565b9650604089013567ffffffffffffffff8082111561214157600080fd5b61214d8c838d01611fc5565b909850965060608b013591508082111561216657600080fd5b6121728c838d01611fc5565b909650945060808b013591508082111561218b57600080fd5b506121988b828c016120ab565b999c989b5096995094979396929594505050565b600080600080604085870312156121c257600080fd5b843567ffffffffffffffff808211156121da57600080fd5b6121e688838901611fc5565b909650945060208701359150808211156121ff57600080fd5b5061220c87828801611fc5565b95989497509550505050565b60008060008060008060a0878903121561223157600080fd5b863561223c81611f45565b9550602087013561224c81611f45565b94506040870135935060608701359250608087013567ffffffffffffffff81111561227657600080fd5b61209989828a016120ab565b7f4e487b7100000000000000000000000000000000000000000000000000000000600052603260045260246000fd5b7f4e487b7100000000000000000000000000000000000000000000000000000000600052604160045260246000fd5b604051601f82017fffffffffffffffffffffffffffffffffffffffffffffffffffffffffffffffe016810167ffffffffffffffff81118282101715612327576123276122b1565b604052919050565b600067ffffffffffffffff821115612349576123496122b1565b5060051b60200190565b600082601f83011261236457600080fd5b813560206123796123748361232f565b6122e0565b8083825260208201915060208460051b87010193508684111561239b57600080fd5b602086015b848110156123b757803583529183019183016123a0565b509695505050505050565b600082601f8301126123d357600080fd5b813560206123e36123748361232f565b8083825260208201915060208460051b87010193508684111561240557600080fd5b602086015b848110156123b75780356fffffffffffffffffffffffffffffffff811681146124335760008081fd5b835291830191830161240a565b6000806000806080858703121561245657600080fd5b843567ffffffffffffffff8082111561246e57600080fd5b818701915087601f83011261248257600080fd5b813560206124926123748361232f565b82815260059290921b8401810191818101908b8411156124b157600080fd5b948201945b838610156124d85785356124c981611f45565b825294820194908201906124b6565b985050880135925050808211156124ee57600080fd5b6124fa88838901612353565b9450604087013591508082111561251057600080fd5b61251c888389016123c2565b9350606087013591508082111561253257600080fd5b5061253f878288016123c2565b91505092959194509250565b7f4e487b7100000000000000000000000000000000000000000000000000000000600052601160045260246000fd5b6fffffffffffffffffffffffffffffffff8181168382160190808211156125a3576125a361254b565b5092915050565b60008151808452602080850194506020840160005b838110156125db578151875295820195908201906001016125bf565b509495945050505050565b606080825284519082018190526000906020906080840190828801845b8281101561263557815173ffffffffffffffffffffffffffffffffffffffff1684529284019290840190600101612603565b5050508381038285015261264981876125aa565b9050604084820360408601528186518084528484019150848801935060005b818110156126a357845180516fffffffffffffffffffffffffffffffff90811685529087015116868401529385019391830191600101612668565b50909998505050505050505050565b6040808252810184905260008560608301825b878110156127025782356126d881611f45565b73ffffffffffffffffffffffffffffffffffffffff168252602092830192909101906001016126c5565b5083810360208501528481527f07ffffffffffffffffffffffffffffffffffffffffffffffffffffffffffffff85111561273b57600080fd5b8460051b915081866020830137016020019695505050505050565b600073ffffffffffffffffffffffffffffffffffffffff808716835280861660208401525060a0604083015261278f60a08301856125aa565b82810360608401526127a181856125aa565b838103608090940193909352505060008152602001949350505050565b600080604083850312156127d157600080fd5b82356127dc81611f45565b946020939093013593505050565b8181038181111561031e5761031e61254b565b8082018082111561031e5761031e61254b565b60006020828403121561282257600080fd5b81518015158114611f3e57600080fd5b60005b8381101561284d578181015183820152602001612835565b50506000910152565b60008251612868818460208701612832565b9190910192915050565b6020815260008251806020840152612891816040850160208701612832565b601f017fffffffffffffffffffffffffffffffffffffffffffffffffffffffffffffffe016919091016040019291505056fea264697066735822122012152d029af4312575669d083c5d9c300bd1789431f33eb3f333b369ee85b3cc64736f6c63430008160033",
  "linkReferences": {},
  "deployedLinkReferences": {}
}