{
  "_format": "hh-sol-artifact-1",
  "contractName": "GenesisTokenEscrow",
  "sourceName": "contracts/escrow/GenesisTokenEscrow.sol",
  "abi": [
    {
      "inputs": [
        {
          "internalType": "address",
          "name": "genesisToken_",
          "type": "address"
        },
        {
          "internalType": "contract IForwarderRegistry",
          "name": "forwarderRegistry",
          "type": "address"
        }
      ],
      "stateMutability": "nonpayable",
      "type": "constructor"
    },
    {
      "inputs": [
        {
          "internalType": "uint256",
          "name": "tokenId",
          "type": "uint256"
        }
      ],
      "name": "ExcessiveGenesisToken",
      "type": "error"
    },
    {
      "inputs": [],
      "name": "IllegalInterfaceId",
      "type": "error"
    },
    {
      "inputs": [],
      "name": "InconsistentArrayLengths",
      "type": "error"
    },
    {
      "inputs": [
        {
          "internalType": "uint256",
          "name": "tokenId",
          "type": "uint256"
        }
      ],
      "name": "InsufficientGenesisToken",
      "type": "error"
    },
    {
      "inputs": [
        {
          "internalType": "address",
          "name": "inventory",
          "type": "address"
        }
      ],
      "name": "InvalidInventory",
      "type": "error"
    },
    {
      "inputs": [
        {
          "internalType": "address",
          "name": "account",
          "type": "address"
        }
      ],
      "name": "NotContractOwner",
      "type": "error"
    },
    {
      "inputs": [
        {
          "internalType": "address",
          "name": "account",
          "type": "address"
        },
        {
          "internalType": "address",
          "name": "publisherTokenAddress",
          "type": "address"
        },
        {
          "internalType": "uint256",
          "name": "publisherTokenId",
          "type": "uint256"
        }
      ],
      "name": "NotEscrowed",
      "type": "error"
    },
    {
      "inputs": [
        {
          "internalType": "uint256",
          "name": "tokenId",
          "type": "uint256"
        }
      ],
      "name": "UnsupportedGenesisTokenId",
      "type": "error"
    },
    {
      "anonymous": false,
      "inputs": [
        {
          "indexed": true,
          "internalType": "address",
          "name": "account",
          "type": "address"
        },
        {
          "indexed": false,
          "internalType": "address[]",
          "name": "publisherTokenAddresses",
          "type": "address[]"
        },
        {
          "indexed": false,
          "internalType": "uint256[]",
          "name": "publisherTokenIds",
          "type": "uint256[]"
        },
        {
          "components": [
            {
              "internalType": "uint128",
              "name": "genesis1Quantity",
              "type": "uint128"
            },
            {
              "internalType": "uint128",
              "name": "genesis2Quantity",
              "type": "uint128"
            }
          ],
          "indexed": false,
          "internalType": "struct GenesisTokenEscrow.Escrow[]",
          "name": "escrows",
          "type": "tuple[]"
        }
      ],
      "name": "Deposited",
      "type": "event"
    },
    {
      "anonymous": false,
      "inputs": [
        {
          "indexed": true,
          "internalType": "address",
          "name": "previousOwner",
          "type": "address"
        },
        {
          "indexed": true,
          "internalType": "address",
          "name": "newOwner",
          "type": "address"
        }
      ],
      "name": "OwnershipTransferred",
      "type": "event"
    },
    {
      "anonymous": false,
      "inputs": [
        {
          "indexed": true,
          "internalType": "address",
          "name": "account",
          "type": "address"
        },
        {
          "indexed": false,
          "internalType": "address[]",
          "name": "publisherTokenAddresses",
          "type": "address[]"
        },
        {
          "indexed": false,
          "internalType": "uint256[]",
          "name": "publisherTokenIds",
          "type": "uint256[]"
        }
      ],
      "name": "Withdrawn",
      "type": "event"
    },
    {
      "inputs": [],
      "name": "GENESIS_TOKEN",
      "outputs": [
        {
          "internalType": "contract IERC1155",
          "name": "",
          "type": "address"
        }
      ],
      "stateMutability": "view",
      "type": "function"
    },
    {
      "inputs": [
        {
          "internalType": "address",
          "name": "",
          "type": "address"
        },
        {
          "internalType": "address",
          "name": "",
          "type": "address"
        },
        {
          "internalType": "uint256",
          "name": "",
          "type": "uint256"
        }
      ],
      "name": "escrowed",
      "outputs": [
        {
          "internalType": "uint128",
          "name": "genesis1Quantity",
          "type": "uint128"
        },
        {
          "internalType": "uint128",
          "name": "genesis2Quantity",
          "type": "uint128"
        }
      ],
      "stateMutability": "view",
      "type": "function"
    },
    {
      "inputs": [],
      "name": "forwarderRegistry",
      "outputs": [
        {
          "internalType": "contract IForwarderRegistry",
          "name": "",
          "type": "address"
        }
      ],
      "stateMutability": "view",
      "type": "function"
    },
    {
      "inputs": [
        {
          "internalType": "address",
          "name": "forwarder",
          "type": "address"
        }
      ],
      "name": "isTrustedForwarder",
      "outputs": [
        {
          "internalType": "bool",
          "name": "",
          "type": "bool"
        }
      ],
      "stateMutability": "view",
      "type": "function"
    },
    {
      "inputs": [
        {
          "internalType": "address",
          "name": "",
          "type": "address"
        },
        {
          "internalType": "address",
          "name": "from",
          "type": "address"
        },
        {
          "internalType": "uint256[]",
          "name": "ids",
          "type": "uint256[]"
        },
        {
          "internalType": "uint256[]",
          "name": "quantities",
          "type": "uint256[]"
        },
        {
          "internalType": "bytes",
          "name": "data",
          "type": "bytes"
        }
      ],
      "name": "onERC1155BatchReceived",
      "outputs": [
        {
          "internalType": "bytes4",
          "name": "",
          "type": "bytes4"
        }
      ],
      "stateMutability": "nonpayable",
      "type": "function"
    },
    {
      "inputs": [
        {
          "internalType": "address",
          "name": "",
          "type": "address"
        },
        {
          "internalType": "address",
          "name": "from",
          "type": "address"
        },
        {
          "internalType": "uint256",
          "name": "id",
          "type": "uint256"
        },
        {
          "internalType": "uint256",
          "name": "quantity",
          "type": "uint256"
        },
        {
          "internalType": "bytes",
          "name": "data",
          "type": "bytes"
        }
      ],
      "name": "onERC1155Received",
      "outputs": [
        {
          "internalType": "bytes4",
          "name": "",
          "type": "bytes4"
        }
      ],
      "stateMutability": "nonpayable",
      "type": "function"
    },
    {
      "inputs": [],
      "name": "owner",
      "outputs": [
        {
          "internalType": "address",
          "name": "",
          "type": "address"
        }
      ],
      "stateMutability": "view",
      "type": "function"
    },
    {
      "inputs": [
        {
          "internalType": "address[]",
          "name": "accounts",
          "type": "address[]"
        },
        {
          "internalType": "contract IERC20[]",
          "name": "tokens",
          "type": "address[]"
        },
        {
          "internalType": "uint256[]",
          "name": "amounts",
          "type": "uint256[]"
        }
      ],
      "name": "recoverERC20s",
      "outputs": [],
      "stateMutability": "nonpayable",
      "type": "function"
    },
    {
      "inputs": [
        {
          "internalType": "address[]",
          "name": "accounts",
          "type": "address[]"
        },
        {
          "internalType": "contract IERC721[]",
          "name": "contracts",
          "type": "address[]"
        },
        {
          "internalType": "uint256[]",
          "name": "tokenIds",
          "type": "uint256[]"
        }
      ],
      "name": "recoverERC721s",
      "outputs": [],
      "stateMutability": "nonpayable",
      "type": "function"
    },
    {
      "inputs": [
        {
          "internalType": "address payable[]",
          "name": "accounts",
          "type": "address[]"
        },
        {
          "internalType": "uint256[]",
          "name": "amounts",
          "type": "uint256[]"
        }
      ],
      "name": "recoverETH",
      "outputs": [],
      "stateMutability": "nonpayable",
      "type": "function"
    },
    {
      "inputs": [
        {
          "internalType": "bytes4",
          "name": "interfaceId",
          "type": "bytes4"
        }
      ],
      "name": "supportsInterface",
      "outputs": [
        {
          "internalType": "bool",
          "name": "",
          "type": "bool"
        }
      ],
      "stateMutability": "view",
      "type": "function"
    },
    {
      "inputs": [
        {
          "internalType": "address",
          "name": "newOwner",
          "type": "address"
        }
      ],
      "name": "transferOwnership",
      "outputs": [],
      "stateMutability": "nonpayable",
      "type": "function"
    },
    {
      "inputs": [
        {
          "internalType": "address[]",
          "name": "publisherTokenAddresses",
          "type": "address[]"
        },
        {
          "internalType": "uint256[]",
          "name": "publisherTokenIds",
          "type": "uint256[]"
        }
      ],
      "name": "withdraw",
      "outputs": [],
      "stateMutability": "nonpayable",
      "type": "function"
    }
  ],
  "bytecode": "0x60c06040523480156200001157600080fd5b5060405162002b7c38038062002b7c83398101604081905262000034916200020f565b8080336200004d8162000046620000c0565b90620000f6565b506200006e630271189760e51b60016200006662000169565b919062000199565b6001600160a01b0390811660805283169050620000ad57604051630912efb360e41b81526001600160a01b038316600482015260240160405180910390fd5b506001600160a01b031660a05262000270565b600080620000f060017fc9ed16f33ab3a66c84bfd83099ccb2a8845871e2e1c1928f63797152f0fd54cd6200024e565b92915050565b6001600160a01b038116156200014d5781546001600160a01b0319166001600160a01b03821690811783556040516000907f8be0079c531659141344cd1fd0a4f28419497f9722a3daafe3b4186f6b6457e0908290a35b620001656307f5828d60e41b60016200006662000169565b5050565b600080620000f060017fca9d3e17f264b0f3984e2634e94adb37fa3e6a8103f06aeae6fa59e21c769f5e6200024e565b600160e01b6001600160e01b0319831601620001c8576040516372c683bb60e01b815260040160405180910390fd5b6001600160e01b03199190911660009081526020929092526040909120805460ff1916911515919091179055565b6001600160a01b03811681146200020c57600080fd5b50565b600080604083850312156200022357600080fd5b82516200023081620001f6565b60208401519092506200024381620001f6565b809150509250929050565b81810381811115620000f057634e487b7160e01b600052601160045260246000fd5b60805160a0516128bc620002c0600039600081816102af0152818161046e01528181610d6e0152610e2901526000818161010e015281816101e601528181611a9d0152611b2501526128bc6000f3fe608060405234801561001057600080fd5b50600436106100df5760003560e01c8063bc197c811161008c578063ef59df2711610066578063ef59df27146102aa578063f23a6e61146102d1578063f2fde38b146102e4578063f7ba94bd146102f757600080fd5b8063bc197c8114610240578063c3666c3614610284578063de6d6d961461029757600080fd5b8063572b6c05116100bd578063572b6c05146101d657806373c8a958146102235780638da5cb5b1461023857600080fd5b806301ffc9a7146100e45780632b4c9f161461010c578063529b35f314610153575b600080fd5b6100f76100f2366004611ebf565b61030a565b60405190151581526020015b60405180910390f35b7f00000000000000000000000000000000000000000000000000000000000000005b60405173ffffffffffffffffffffffffffffffffffffffff9091168152602001610103565b6101ad610161366004611f2a565b600060208181529381526040808220855292815282812090935282529020546fffffffffffffffffffffffffffffffff8082169170010000000000000000000000000000000090041682565b604080516fffffffffffffffffffffffffffffffff938416815292909116602083015201610103565b6100f76101e4366004611f6b565b7f000000000000000000000000000000000000000000000000000000000000000073ffffffffffffffffffffffffffffffffffffffff90811691161490565b610236610231366004611fd4565b610324565b005b61012e610428565b61025361024e3660046120b0565b610454565b6040517fffffffff000000000000000000000000000000000000000000000000000000009091168152602001610103565b610236610292366004611fd4565b610862565b6102366102a536600461216f565b6109da565b61012e7f000000000000000000000000000000000000000000000000000000000000000081565b6102536102df3660046121db565b610e0f565b6102366102f2366004611f6b565b61119f565b61023661030536600461216f565b6111bd565b600061031e8261031861127c565b906112aa565b92915050565b61033d61032f611384565b61033761138e565b906113bc565b84838114158061034d5750808214155b15610384576040517f6582533600000000000000000000000000000000000000000000000000000000815260040160405180910390fd5b60005b8181101561041e576104168888838181106103a4576103a4612245565b90506020020160208101906103b99190611f6b565b8585848181106103cb576103cb612245565b905060200201358888858181106103e4576103e4612245565b90506020020160208101906103f99190611f6b565b73ffffffffffffffffffffffffffffffffffffffff16919061142b565b600101610387565b5050505050505050565b600061044f61043561138e565b5473ffffffffffffffffffffffffffffffffffffffff1690565b905090565b60003373ffffffffffffffffffffffffffffffffffffffff7f00000000000000000000000000000000000000000000000000000000000000001681146104e3576040517f912efb3000000000000000000000000000000000000000000000000000000000815273ffffffffffffffffffffffffffffffffffffffff821660048201526024015b60405180910390fd5b60008080806104f487890189612403565b93509350935093506105808c8c80806020026020016040519081016040528093929190818152602001838360200280828437600081840152601f19601f820116905080830192505050505050508b8b80806020026020016040519081016040528093929190818152602001838360200280828437600092019190915250899250889150879050866114bd565b6000845167ffffffffffffffff81111561059c5761059c612274565b6040519080825280602002602001820160405280156105e157816020015b60408051808201909152600080825260208201528152602001906001900390816105ba5790505b5090508d60005b86518110156107da5773ffffffffffffffffffffffffffffffffffffffff82166000908152602081905260408120885182908a908590811061062c5761062c612245565b602002602001015173ffffffffffffffffffffffffffffffffffffffff1673ffffffffffffffffffffffffffffffffffffffff168152602001908152602001600020600088848151811061068257610682612245565b6020026020010151815260200190815260200160002090508582815181106106ac576106ac612245565b6020908102919091010151815482906000906106db9084906fffffffffffffffffffffffffffffffff1661253d565b92506101000a8154816fffffffffffffffffffffffffffffffff02191690836fffffffffffffffffffffffffffffffff16021790555084828151811061072357610723612245565b60200260200101518160000160108282829054906101000a90046fffffffffffffffffffffffffffffffff16610759919061253d565b82546101009290920a6fffffffffffffffffffffffffffffffff81810219909316918316021790915560408051808201909152835480831682527001000000000000000000000000000000009004909116602082015285519091508590849081106107c6576107c6612245565b6020908102919091010152506001016105e8565b508073ffffffffffffffffffffffffffffffffffffffff167f0e66c6a6cd97f4ba167ce0fcd0c4ddc5a6bc715d604f363be7bc2f056945eae1878785604051610825939291906125a9565b60405180910390a2507fbc197c81000000000000000000000000000000000000000000000000000000009f9e505050505050505050505050505050565b61086d61032f611384565b84838114158061087d5750808214155b156108b4576040517f6582533600000000000000000000000000000000000000000000000000000000815260040160405180910390fd5b60005b8181101561041e578585828181106108d1576108d1612245565b90506020020160208101906108e69190611f6b565b73ffffffffffffffffffffffffffffffffffffffff166323b872dd308a8a8581811061091457610914612245565b90506020020160208101906109299190611f6b565b87878681811061093b5761093b612245565b6040517fffffffff0000000000000000000000000000000000000000000000000000000060e088901b16815273ffffffffffffffffffffffffffffffffffffffff958616600482015294909316602485015250602090910201356044820152606401600060405180830381600087803b1580156109b757600080fd5b505af11580156109cb573d6000803e3d6000fd5b505050508060010190506108b7565b828114610a13576040517f6582533600000000000000000000000000000000000000000000000000000000815260040160405180910390fd5b6000610a1d611384565b6040805160028082526060820183529293506000929091602083019080368337019050509050600181600081518110610a5857610a58612245565b602002602001018181525050600281600181518110610a7957610a79612245565b60200260200101818152505060008060005b87811015610c92576000898983818110610aa757610aa7612245565b9050602002016020810190610abc9190611f6b565b90506000888884818110610ad257610ad2612245565b73ffffffffffffffffffffffffffffffffffffffff808b1660009081526020818152604080832093891683529281528282209381029590950135808252929094529092208054929350916fffffffffffffffffffffffffffffffff161515905080610b635750805470010000000000000000000000000000000090046fffffffffffffffffffffffffffffffff1615155b15610c2e576040805180820182526000808252602080830182815273ffffffffffffffffffffffffffffffffffffffff808e16845283835285842090891684528252848320878452909152929020905191516fffffffffffffffffffffffffffffffff908116700100000000000000000000000000000000029281169290921790558154610bf291168761253d565b8154909650610c279070010000000000000000000000000000000090046fffffffffffffffffffffffffffffffff168661253d565b9450610c87565b6040517fd91fd18700000000000000000000000000000000000000000000000000000000815273ffffffffffffffffffffffffffffffffffffffff808a16600483015284166024820152604481018390526064016104da565b505050600101610a8b565b508373ffffffffffffffffffffffffffffffffffffffff167f78c340d4ad128ce699aee749013d7fa1512cfb434be2b83c3ce5d99069e026f689898989604051610cdf9493929190612675565b60405180910390a2604080516002808252606082018352600092602083019080368337019050509050826fffffffffffffffffffffffffffffffff1681600081518110610d2e57610d2e612245565b602002602001018181525050816fffffffffffffffffffffffffffffffff1681600181518110610d6057610d60612245565b6020026020010181815250507f000000000000000000000000000000000000000000000000000000000000000073ffffffffffffffffffffffffffffffffffffffff16632eb2c2d630610db1611384565b87856040518563ffffffff1660e01b8152600401610dd29493929190612719565b600060405180830381600087803b158015610dec57600080fd5b505af1158015610e00573d6000803e3d6000fd5b50505050505050505050505050565b60003373ffffffffffffffffffffffffffffffffffffffff7f0000000000000000000000000000000000000000000000000000000000000000168114610e99576040517f912efb3000000000000000000000000000000000000000000000000000000000815273ffffffffffffffffffffffffffffffffffffffff821660048201526024016104da565b600080610ea885870187612781565b73ffffffffffffffffffffffffffffffffffffffff808c16600090815260208181526040808320938616835292815282822084835290522091935091506001899003610f4f57805488908290600090610f149084906fffffffffffffffffffffffffffffffff1661253d565b92506101000a8154816fffffffffffffffffffffffffffffffff02191690836fffffffffffffffffffffffffffffffff160217905550610fc6565b88600203610f9157805488908290601090610f1490849070010000000000000000000000000000000090046fffffffffffffffffffffffffffffffff1661253d565b6040517f8be93f4f000000000000000000000000000000000000000000000000000000008152600481018a90526024016104da565b60408051600180825281830190925260009160208083019080368337505060408051600180825281830190925292935060009291506020808301908036833750506040805160018082528183019092529293506000929150602082015b6040805180820190915260008082526020820152815260200190600190039081611023579050509050858360008151811061106057611060612245565b602002602001019073ffffffffffffffffffffffffffffffffffffffff16908173ffffffffffffffffffffffffffffffffffffffff168152505084826000815181106110ae576110ae612245565b6020908102919091018101919091526040805180820190915285546fffffffffffffffffffffffffffffffff808216835270010000000000000000000000000000000090910416918101919091528151829060009061110f5761110f612245565b60200260200101819052508c73ffffffffffffffffffffffffffffffffffffffff167f0e66c6a6cd97f4ba167ce0fcd0c4ddc5a6bc715d604f363be7bc2f056945eae1848484604051611164939291906125a9565b60405180910390a2507ff23a6e61000000000000000000000000000000000000000000000000000000009d9c50505050505050505050505050565b6111ba6111aa611384565b826111b361138e565b91906117eb565b50565b6111c861032f611384565b82818114611202576040517f6582533600000000000000000000000000000000000000000000000000000000815260040160405180910390fd5b60005b818110156112745761126c84848381811061122257611222612245565b9050602002013587878481811061123b5761123b612245565b90506020020160208101906112509190611f6b565b73ffffffffffffffffffffffffffffffffffffffff1690611900565b600101611205565b505050505050565b60008061031e60017fca9d3e17f264b0f3984e2634e94adb37fa3e6a8103f06aeae6fa59e21c769f5e6127ad565b60007c01000000000000000000000000000000000000000000000000000000007fffffffff000000000000000000000000000000000000000000000000000000008316016112fa5750600061031e565b7ffe003659000000000000000000000000000000000000000000000000000000007fffffffff0000000000000000000000000000000000000000000000000000000083160161134b5750600161031e565b507fffffffff00000000000000000000000000000000000000000000000000000000166000908152602091909152604090205460ff1690565b600061044f611a5a565b60008061031e60017fc9ed16f33ab3a66c84bfd83099ccb2a8845871e2e1c1928f63797152f0fd54cd6127ad565b815473ffffffffffffffffffffffffffffffffffffffff828116911614611427576040517f2ef4875e00000000000000000000000000000000000000000000000000000000815273ffffffffffffffffffffffffffffffffffffffff821660048201526024016104da565b5050565b6040805173ffffffffffffffffffffffffffffffffffffffff8416602482015260448082018490528251808303909101815260649091019091526020810180517bffffffffffffffffffffffffffffffffffffffffffffffffffffffff167fa9059cbb000000000000000000000000000000000000000000000000000000001790526114b8908490611ba1565b505050565b82518451146114f8576040517f6582533600000000000000000000000000000000000000000000000000000000815260040160405180910390fd5b8151845114611533576040517f6582533600000000000000000000000000000000000000000000000000000000815260040160405180910390fd5b805184511461156e576040517f6582533600000000000000000000000000000000000000000000000000000000815260040160405180910390fd5b60008060005b86518110156115f75784818151811061158f5761158f612245565b60200260200101516fffffffffffffffffffffffffffffffff16836115b491906127c0565b92508381815181106115c8576115c8612245565b60200260200101516fffffffffffffffffffffffffffffffff16826115ed91906127c0565b9150600101611574565b5060005b885181101561177457600089828151811061161857611618612245565b60200260200101519050806001036116ac5788828151811061163c5761163c612245565b6020026020010151841015611680576040517f07060a1f000000000000000000000000000000000000000000000000000000008152600160048201526024016104da565b88828151811061169257611692612245565b6020026020010151846116a591906127ad565b935061176b565b80600203611736578882815181106116c6576116c6612245565b602002602001015183101561170a576040517f07060a1f000000000000000000000000000000000000000000000000000000008152600260048201526024016104da565b88828151811061171c5761171c612245565b60200260200101518361172f91906127ad565b925061176b565b6040517f8be93f4f000000000000000000000000000000000000000000000000000000008152600481018290526024016104da565b506001016115fb565b5081156117b0576040517f6cc11657000000000000000000000000000000000000000000000000000000008152600160048201526024016104da565b801561041e576040517f6cc11657000000000000000000000000000000000000000000000000000000008152600260048201526024016104da565b825473ffffffffffffffffffffffffffffffffffffffff9081169083168114611858576040517f2ef4875e00000000000000000000000000000000000000000000000000000000815273ffffffffffffffffffffffffffffffffffffffff841660048201526024016104da565b8173ffffffffffffffffffffffffffffffffffffffff168173ffffffffffffffffffffffffffffffffffffffff16146118fa5783547fffffffffffffffffffffffff00000000000000000000000000000000000000001673ffffffffffffffffffffffffffffffffffffffff8381169182178655604051908316907f8be0079c531659141344cd1fd0a4f28419497f9722a3daafe3b4186f6b6457e090600090a35b50505050565b8047101561196a576040517f08c379a000000000000000000000000000000000000000000000000000000000815260206004820152601d60248201527f416464726573733a20696e73756666696369656e742062616c616e636500000060448201526064016104da565b60008273ffffffffffffffffffffffffffffffffffffffff168260405160006040518083038185875af1925050503d80600081146119c4576040519150601f19603f3d011682016040523d82523d6000602084013e6119c9565b606091505b50509050806114b8576040517f08c379a000000000000000000000000000000000000000000000000000000000815260206004820152603a60248201527f416464726573733a20756e61626c6520746f2073656e642076616c75652c207260448201527f6563697069656e74206d6179206861766520726576657274656400000000000060648201526084016104da565b600033321480611a6a5750601836105b15611a7457503390565b7fffffffffffffffffffffffffffffffffffffffffffffffffffffffffffffffec36013560601c7f000000000000000000000000000000000000000000000000000000000000000073ffffffffffffffffffffffffffffffffffffffff16331480611b9057506040517f8929a8ca00000000000000000000000000000000000000000000000000000000815273ffffffffffffffffffffffffffffffffffffffff82811660048301523360248301527f00000000000000000000000000000000000000000000000000000000000000001690638929a8ca90604401602060405180830381865afa158015611b6c573d6000803e3d6000fd5b505050506040513d601f19601f82011682018060405250810190611b9091906127d3565b15611b9a57919050565b3391505090565b6000611c03826040518060400160405280602081526020017f5361666545524332303a206c6f772d6c6576656c2063616c6c206661696c65648152508573ffffffffffffffffffffffffffffffffffffffff16611cb09092919063ffffffff16565b9050805160001480611c24575080806020019051810190611c2491906127d3565b6114b8576040517f08c379a000000000000000000000000000000000000000000000000000000000815260206004820152602a60248201527f5361666545524332303a204552433230206f7065726174696f6e20646964206e60448201527f6f7420737563636565640000000000000000000000000000000000000000000060648201526084016104da565b6060611cbf8484600085611cc7565b949350505050565b606082471015611d59576040517f08c379a000000000000000000000000000000000000000000000000000000000815260206004820152602660248201527f416464726573733a20696e73756666696369656e742062616c616e636520666f60448201527f722063616c6c000000000000000000000000000000000000000000000000000060648201526084016104da565b6000808673ffffffffffffffffffffffffffffffffffffffff168587604051611d829190612819565b60006040518083038185875af1925050503d8060008114611dbf576040519150601f19603f3d011682016040523d82523d6000602084013e611dc4565b606091505b5091509150611dd587838387611de0565b979650505050505050565b60608315611e76578251600003611e6f5773ffffffffffffffffffffffffffffffffffffffff85163b611e6f576040517f08c379a000000000000000000000000000000000000000000000000000000000815260206004820152601d60248201527f416464726573733a2063616c6c20746f206e6f6e2d636f6e747261637400000060448201526064016104da565b5081611cbf565b611cbf8383815115611e8b5781518083602001fd5b806040517f08c379a00000000000000000000000000000000000000000000000000000000081526004016104da9190612835565b600060208284031215611ed157600080fd5b81357fffffffff0000000000000000000000000000000000000000000000000000000081168114611f0157600080fd5b9392505050565b73ffffffffffffffffffffffffffffffffffffffff811681146111ba57600080fd5b600080600060608486031215611f3f57600080fd5b8335611f4a81611f08565b92506020840135611f5a81611f08565b929592945050506040919091013590565b600060208284031215611f7d57600080fd5b8135611f0181611f08565b60008083601f840112611f9a57600080fd5b50813567ffffffffffffffff811115611fb257600080fd5b6020830191508360208260051b8501011115611fcd57600080fd5b9250929050565b60008060008060008060608789031215611fed57600080fd5b863567ffffffffffffffff8082111561200557600080fd5b6120118a838b01611f88565b9098509650602089013591508082111561202a57600080fd5b6120368a838b01611f88565b9096509450604089013591508082111561204f57600080fd5b5061205c89828a01611f88565b979a9699509497509295939492505050565b60008083601f84011261208057600080fd5b50813567ffffffffffffffff81111561209857600080fd5b602083019150836020828501011115611fcd57600080fd5b60008060008060008060008060a0898b0312156120cc57600080fd5b88356120d781611f08565b975060208901356120e781611f08565b9650604089013567ffffffffffffffff8082111561210457600080fd5b6121108c838d01611f88565b909850965060608b013591508082111561212957600080fd5b6121358c838d01611f88565b909650945060808b013591508082111561214e57600080fd5b5061215b8b828c0161206e565b999c989b5096995094979396929594505050565b6000806000806040858703121561218557600080fd5b843567ffffffffffffffff8082111561219d57600080fd5b6121a988838901611f88565b909650945060208701359150808211156121c257600080fd5b506121cf87828801611f88565b95989497509550505050565b60008060008060008060a087890312156121f457600080fd5b86356121ff81611f08565b9550602087013561220f81611f08565b94506040870135935060608701359250608087013567ffffffffffffffff81111561223957600080fd5b61205c89828a0161206e565b7f4e487b7100000000000000000000000000000000000000000000000000000000600052603260045260246000fd5b7f4e487b7100000000000000000000000000000000000000000000000000000000600052604160045260246000fd5b604051601f82017fffffffffffffffffffffffffffffffffffffffffffffffffffffffffffffffe016810167ffffffffffffffff811182821017156122ea576122ea612274565b604052919050565b600067ffffffffffffffff82111561230c5761230c612274565b5060051b60200190565b600082601f83011261232757600080fd5b8135602061233c612337836122f2565b6122a3565b8083825260208201915060208460051b87010193508684111561235e57600080fd5b602086015b8481101561237a5780358352918301918301612363565b509695505050505050565b600082601f83011261239657600080fd5b813560206123a6612337836122f2565b8083825260208201915060208460051b8701019350868411156123c857600080fd5b602086015b8481101561237a5780356fffffffffffffffffffffffffffffffff811681146123f65760008081fd5b83529183019183016123cd565b6000806000806080858703121561241957600080fd5b843567ffffffffffffffff8082111561243157600080fd5b818701915087601f83011261244557600080fd5b81356020612455612337836122f2565b82815260059290921b8401810191818101908b84111561247457600080fd5b948201945b8386101561249b57853561248c81611f08565b82529482019490820190612479565b985050880135925050808211156124b157600080fd5b6124bd88838901612316565b945060408701359150808211156124d357600080fd5b6124df88838901612385565b935060608701359150808211156124f557600080fd5b5061250287828801612385565b91505092959194509250565b7f4e487b7100000000000000000000000000000000000000000000000000000000600052601160045260246000fd5b6fffffffffffffffffffffffffffffffff8181168382160190808211156125665761256661250e565b5092915050565b60008151808452602080850194506020840160005b8381101561259e57815187529582019590820190600101612582565b509495945050505050565b606080825284519082018190526000906020906080840190828801845b828110156125f857815173ffffffffffffffffffffffffffffffffffffffff16845292840192908401906001016125c6565b5050508381038285015261260c818761256d565b9050604084820360408601528186518084528484019150848801935060005b8181101561266657845180516fffffffffffffffffffffffffffffffff9081168552908701511686840152938501939183019160010161262b565b50909998505050505050505050565b6040808252810184905260008560608301825b878110156126c557823561269b81611f08565b73ffffffffffffffffffffffffffffffffffffffff16825260209283019290910190600101612688565b5083810360208501528481527f07ffffffffffffffffffffffffffffffffffffffffffffffffffffffffffffff8511156126fe57600080fd5b8460051b915081866020830137016020019695505050505050565b600073ffffffffffffffffffffffffffffffffffffffff808716835280861660208401525060a0604083015261275260a083018561256d565b8281036060840152612764818561256d565b838103608090940193909352505060008152602001949350505050565b6000806040838503121561279457600080fd5b823561279f81611f08565b946020939093013593505050565b8181038181111561031e5761031e61250e565b8082018082111561031e5761031e61250e565b6000602082840312156127e557600080fd5b81518015158114611f0157600080fd5b60005b838110156128105781810151838201526020016127f8565b50506000910152565b6000825161282b8184602087016127f5565b9190910192915050565b60208152600082518060208401526128548160408501602087016127f5565b601f017fffffffffffffffffffffffffffffffffffffffffffffffffffffffffffffffe016919091016040019291505056fea264697066735822122075eb2cd5c73b6105c7ebc00d071382c844cce7f53a924d1caf109d057f21017c64736f6c63430008160033",
  "linkReferences": {},
  "deployedLinkReferences": {}
}