{"contracts/payment/LimitedOCPointsMerkleClaim.sol":{"LimitedOCPointsMerkleClaim":{"abi":[{"inputs":[{"internalType":"address","name":"rewardContractAddress","type":"address"},{"internalType":"contract IForwarderRegistry","name":"forwarderRegistry","type":"address"}],"stateMutability":"nonpayable","type":"constructor"},{"inputs":[{"internalType":"address","name":"recipient","type":"address"},{"internalType":"uint256","name":"amount","type":"uint256"},{"internalType":"bytes32","name":"reasonCode","type":"bytes32"},{"internalType":"uint256","name":"epochId","type":"uint256"}],"name":"AlreadyClaimed","type":"error"},{"inputs":[{"internalType":"uint256","name":"epochId","type":"uint256"}],"name":"ClaimEpochNotFound","type":"error"},{"inputs":[{"internalType":"uint256","name":"currentTime","type":"uint256"},{"internalType":"uint256","name":"startTime","type":"uint256"},{"internalType":"uint256","name":"endTime","type":"uint256"}],"name":"ClaimingEpochNotActive","type":"error"},{"inputs":[],"name":"IllegalInterfaceId","type":"error"},{"inputs":[],"name":"InconsistentArrayLengths","type":"error"},{"inputs":[{"internalType":"uint256","name":"amountRequested","type":"uint256"},{"internalType":"uint256","name":"amountAvailable","type":"uint256"}],"name":"InsufficientPoolAmount","type":"error"},{"inputs":[{"internalType":"uint256","name":"startTime","type":"uint256"},{"internalType":"uint256","name":"endTime","type":"uint256"}],"name":"InvalidClaimWindow","type":"error"},{"inputs":[{"internalType":"address","name":"recipient","type":"address"},{"internalType":"uint256","name":"amount","type":"uint256"},{"internalType":"bytes32","name":"reasonCode","type":"bytes32"},{"internalType":"uint256","name":"epochId","type":"uint256"}],"name":"InvalidProof","type":"error"},{"inputs":[{"internalType":"address","name":"InvalidRewardContractAddress","type":"address"}],"name":"InvalidRewardContractAddress","type":"error"},{"inputs":[{"internalType":"address","name":"account","type":"address"}],"name":"NotContractOwner","type":"error"},{"anonymous":false,"inputs":[{"indexed":true,"internalType":"uint256","name":"epochId","type":"uint256"},{"indexed":false,"internalType":"bytes32","name":"merkleRoot","type":"bytes32"},{"indexed":false,"internalType":"uint256","name":"totalAmount","type":"uint256"},{"indexed":false,"internalType":"uint256","name":"startTime","type":"uint256"},{"indexed":false,"internalType":"uint256","name":"endTime","type":"uint256"}],"name":"MerkleRootSet","type":"event"},{"anonymous":false,"inputs":[{"indexed":true,"internalType":"address","name":"previousOwner","type":"address"},{"indexed":true,"internalType":"address","name":"newOwner","type":"address"}],"name":"OwnershipTransferred","type":"event"},{"anonymous":false,"inputs":[{"indexed":true,"internalType":"uint256","name":"epochId","type":"uint256"},{"indexed":true,"internalType":"address","name":"recipient","type":"address"},{"indexed":false,"internalType":"uint256","name":"amount","type":"uint256"},{"indexed":false,"internalType":"uint256","name":"amountLeft","type":"uint256"}],"name":"RewardClaimed","type":"event"},{"inputs":[],"name":"OPERATOR_ROLE","outputs":[{"internalType":"bytes32","name":"","type":"bytes32"}],"stateMutability":"view","type":"function"},{"inputs":[],"name":"POINTS_CONTRACT","outputs":[{"internalType":"contract IPoints","name":"","type":"address"}],"stateMutability":"view","type":"function"},{"inputs":[{"internalType":"uint256","name":"epochId","type":"uint256"},{"internalType":"address","name":"recipient","type":"address"},{"internalType":"uint256","name":"amount","type":"uint256"}],"name":"canClaim","outputs":[{"internalType":"enum LimitedOCPointsMerkleClaim.ClaimError","name":"error","type":"uint8"}],"stateMutability":"view","type":"function"},{"inputs":[{"internalType":"uint256","name":"epochId","type":"uint256"},{"internalType":"address","name":"recipient","type":"address"},{"internalType":"uint256","name":"amount","type":"uint256"},{"internalType":"bytes32","name":"reasonCode","type":"bytes32"},{"internalType":"bytes32[]","name":"proof","type":"bytes32[]"}],"name":"claim","outputs":[],"stateMutability":"nonpayable","type":"function"},{"inputs":[{"internalType":"uint256","name":"","type":"uint256"}],"name":"claimEpochs","outputs":[{"internalType":"bytes32","name":"merkleRoot","type":"bytes32"},{"internalType":"uint256","name":"totalAmount","type":"uint256"},{"internalType":"uint256","name":"amountLeft","type":"uint256"},{"internalType":"uint256","name":"startTime","type":"uint256"},{"internalType":"uint256","name":"endTime","type":"uint256"}],"stateMutability":"view","type":"function"},{"inputs":[{"internalType":"uint256","name":"","type":"uint256"},{"internalType":"address","name":"","type":"address"}],"name":"claimed","outputs":[{"internalType":"bool","name":"","type":"bool"}],"stateMutability":"view","type":"function"},{"inputs":[],"name":"currentEpochId","outputs":[{"internalType":"uint256","name":"","type":"uint256"}],"stateMutability":"view","type":"function"},{"inputs":[],"name":"forwarderRegistry","outputs":[{"internalType":"contract IForwarderRegistry","name":"","type":"address"}],"stateMutability":"view","type":"function"},{"inputs":[{"internalType":"address","name":"forwarder","type":"address"}],"name":"isTrustedForwarder","outputs":[{"internalType":"bool","name":"","type":"bool"}],"stateMutability":"view","type":"function"},{"inputs":[],"name":"owner","outputs":[{"internalType":"address","name":"","type":"address"}],"stateMutability":"view","type":"function"},{"inputs":[{"internalType":"address[]","name":"accounts","type":"address[]"},{"internalType":"contract IERC20[]","name":"tokens","type":"address[]"},{"internalType":"uint256[]","name":"amounts","type":"uint256[]"}],"name":"recoverERC20s","outputs":[],"stateMutability":"nonpayable","type":"function"},{"inputs":[{"internalType":"address[]","name":"accounts","type":"address[]"},{"internalType":"contract IERC721[]","name":"contracts","type":"address[]"},{"internalType":"uint256[]","name":"tokenIds","type":"uint256[]"}],"name":"recoverERC721s","outputs":[],"stateMutability":"nonpayable","type":"function"},{"inputs":[{"internalType":"address payable[]","name":"accounts","type":"address[]"},{"internalType":"uint256[]","name":"amounts","type":"uint256[]"}],"name":"recoverETH","outputs":[],"stateMutability":"nonpayable","type":"function"},{"inputs":[{"internalType":"bytes32","name":"merkleRoot","type":"bytes32"},{"internalType":"uint256","name":"totalAmount","type":"uint256"},{"internalType":"uint256","name":"startTime","type":"uint256"},{"internalType":"uint256","name":"endTime","type":"uint256"}],"name":"setMerkleRoot","outputs":[],"stateMutability":"nonpayable","type":"function"},{"inputs":[{"internalType":"bytes4","name":"interfaceId","type":"bytes4"}],"name":"supportsInterface","outputs":[{"internalType":"bool","name":"","type":"bool"}],"stateMutability":"view","type":"function"},{"inputs":[{"internalType":"address","name":"newOwner","type":"address"}],"name":"transferOwnership","outputs":[],"stateMutability":"nonpayable","type":"function"}],"devdoc":{"errors":{"AlreadyClaimed(address,uint256,bytes32,uint256)":[{"params":{"amount":"The amount being claimed.","epochId":"The epoch identifier.","reasonCode":"The reason code for the deposit.","recipient":"The recipient of the claim."}}],"ClaimEpochNotFound(uint256)":[{"params":{"epochId":"The epoch identifier."}}],"ClaimingEpochNotActive(uint256,uint256,uint256)":[{"params":{"currentTime":"The current block timestamp.","endTime":"The end time of the claiming epoch.","startTime":"The start time of the claiming epoch."}}],"InsufficientPoolAmount(uint256,uint256)":[{"params":{"amountAvailable":"The amount available in the pool.","amountRequested":"The amount requested to claim."}}],"InvalidClaimWindow(uint256,uint256)":[{"params":{"endTime":"The end time.","startTime":"The start time."}}],"InvalidProof(address,uint256,bytes32,uint256)":[{"params":{"amount":"The amount being claimed.","epochId":"The epoch identifier.","reasonCode":"The reason code for the deposit.","recipient":"The recipient of the claim."}}],"InvalidRewardContractAddress(address)":[{"params":{"InvalidRewardContractAddress":"The address of the invalid reward contract."}}],"NotContractOwner(address)":[{"params":{"account":"The account that was checked."}}]},"events":{"MerkleRootSet(uint256,bytes32,uint256,uint256,uint256)":{"params":{"endTime":"The end time for claiming.","epochId":"The epoch identifier.","merkleRoot":"The merkle root for this epoch.","startTime":"The start time for claiming.","totalAmount":"The total amount available for claiming."}},"OwnershipTransferred(address,address)":{"params":{"newOwner":"the new contract owner.","previousOwner":"the previous contract owner."}},"RewardClaimed(uint256,address,uint256,uint256)":{"params":{"amount":"The amount claimed.","amountLeft":"The amount left in the pool after this claim.","epochId":"The epoch identifier.","recipient":"The recipient of the claim."}}},"kind":"dev","methods":{"canClaim(uint256,address,uint256)":{"details":"Returns ClaimError.ClaimEpochNotFound if the epoch doesn't exist.Returns ClaimError.ClaimingEpochNotActive if the current time is outside the claiming epoch.Returns ClaimError.AlreadyClaimed if the user has already claimed for this epoch.Returns ClaimError.InsufficientPoolAmount if the pool doesn't have enough tokens.Returns ClaimError.NoError if basic validation passes.","params":{"amount":"The amount to be claimed.","epochId":"The epoch identifier.","recipient":"The recipient address."},"returns":{"error":"The claim validation result."}},"claim(uint256,address,uint256,bytes32,bytes32[])":{"details":"Reverts with {ClaimEpochNotFound} if the epoch doesn't exist.Reverts with {ClaimingEpochNotActive} if the current time is outside the claiming epoch.Reverts with {AlreadyClaimed} if the user has already claimed for this epoch.Reverts with {InvalidProof} if the merkle proof verification fails.Reverts with {InsufficientPoolAmount} if the pool doesn't have enough tokens.Emits a {RewardClaimed} event.","params":{"amount":"The amount to be claimed.","epochId":"The epoch identifier.","proof":"The merkle proof for verification.","reasonCode":"The reason code for the deposit.","recipient":"The recipient for this claim."}},"constructor":{"details":"Reverts with {InvalidRewardContractAddress} if the reward contract address is the zero address.","params":{"forwarderRegistry":"The address of the forwarder registry.","rewardContractAddress":"The address of the reward contract."}},"isTrustedForwarder(address)":{"params":{"forwarder":"The forwarder to check."},"returns":{"_0":"True if `forwarder` is trusted, false if not."}},"owner()":{"returns":{"_0":"The address of the contract owner."}},"recoverERC20s(address[],address[],uint256[])":{"details":"Warning: this function should be overriden for contracts which are supposed to hold ERC20 tokens  so that the extraction is limited to only amounts sent accidentally.Reverts with {NotContractOwner} if the sender is not the contract owner.Reverts with {InconsistentArrayLengths} if `accounts`, `tokens` and `amounts` do not have the same length.Reverts if one of the ERC20 transfers fails for any reason.","params":{"accounts":"the list of accounts to transfer the tokens to.","amounts":"the list of token amounts to transfer.","tokens":"the list of ERC20 token addresses."}},"recoverERC721s(address[],address[],uint256[])":{"details":"Warning: this function should be overriden for contracts which are supposed to hold ERC721 tokens  so that the extraction is limited to only tokens sent accidentally.Reverts with {NotContractOwner} if the sender is not the contract owner.Reverts with {InconsistentArrayLengths} if `accounts`, `contracts` and `amounts` do not have the same length.Reverts if one of the ERC721 transfers fails for any reason.","params":{"accounts":"the list of accounts to transfer the tokens to.","contracts":"the list of ERC721 contract addresses.","tokenIds":"the list of token ids to transfer."}},"recoverETH(address[],uint256[])":{"details":"Note: While contracts can generally prevent accidental ETH transfer by implementating a reverting  `receive()` function, this can still be bypassed in a `selfdestruct(address)` scenario.Warning: this function should be overriden for contracts which are supposed to hold ETH tokens  so that the extraction is limited to only amounts sent accidentally.Reverts with {NotContractOwner} if the sender is not the contract owner.Reverts with {InconsistentArrayLengths} `accounts` and `amounts` do not have the same length.Reverts if one of the ETH transfers fails for any reason.","params":{"accounts":"the list of accounts to transfer the tokens to.","amounts":"the list of token amounts to transfer."}},"setMerkleRoot(bytes32,uint256,uint256,uint256)":{"details":"Reverts with {NotContractOwner} if the sender is not the contract owner.Reverts with {InvalidClaimWindow} if startTime is not before endTime.Emits a {MerkleRootSet} event.","params":{"endTime":"The end time for claiming.","merkleRoot":"The merkle root for this epoch.","startTime":"The start time for claiming.","totalAmount":"The total amount available for claiming in this epoch."}},"supportsInterface(bytes4)":{"details":"Note: This function call must use less than 30 000 gas.","params":{"interfaceId":"the interface identifier to test."},"returns":{"_0":"True if the interface is supported, false if `interfaceId` is `0xffffffff` or if the interface is not supported."}},"transferOwnership(address)":{"details":"Reverts if the sender is not the contract owner.Emits an {OwnershipTransferred} event if `newOwner` is different from the current contract owner.","params":{"newOwner":"The address of the new contract owner. Using the zero address means renouncing ownership."}}},"title":"LimitedOCPointsMerkleClaim","version":1},"evm":{"bytecode":{"linkReferences":{},"object":"60c06040523480156200001157600080fd5b5060405162001ccd38038062001ccd8339810160408190526200003491620001f7565b8080336200004d8162000046620000a0565b90620000d6565b506001600160a01b03908116608052831690506200008d57604051631aa6c2cd60e31b81526001600160a01b038316600482015260240160405180910390fd5b506001600160a01b031660a05262000258565b600080620000d060017fc9ed16f33ab3a66c84bfd83099ccb2a8845871e2e1c1928f63797152f0fd54cd62000236565b92915050565b6001600160a01b038116156200012d5781546001600160a01b0319166001600160a01b03821690811783556040516000907f8be0079c531659141344cd1fd0a4f28419497f9722a3daafe3b4186f6b6457e0908290a35b6200014d6307f5828d60e41b60016200014562000151565b919062000181565b5050565b600080620000d060017fca9d3e17f264b0f3984e2634e94adb37fa3e6a8103f06aeae6fa59e21c769f5e62000236565b600160e01b6001600160e01b0319831601620001b0576040516372c683bb60e01b815260040160405180910390fd5b6001600160e01b03199190911660009081526020929092526040909120805460ff1916911515919091179055565b6001600160a01b0381168114620001f457600080fd5b50565b600080604083850312156200020b57600080fd5b82516200021881620001de565b60208401519092506200022b81620001de565b809150509250929050565b81810381811115620000d057634e487b7160e01b600052601160045260246000fd5b60805160a051611a336200029a600039600081816101bc01526106c4015260008181610172015281816101ee0152818161120901526112910152611a336000f3fe608060405234801561001057600080fd5b50600436106101005760003560e01c806373c8a95811610097578063eacdc5ff11610066578063eacdc5ff146102f0578063f2fde38b14610307578063f5b541a61461031a578063f7ba94bd1461034157600080fd5b806373c8a958146102af578063833d47b6146102c25780638da5cb5b146102d5578063c3666c36146102dd57600080fd5b80632d4c2f93116100d35780632d4c2f93146101b7578063572b6c05146101de5780635c9a509b1461022b5780637124094f1461028f57600080fd5b806301ffc9a714610105578063120aa8771461012d5780632035a4dd1461015b5780632b4c9f1614610170575b600080fd5b6101186101133660046115b9565b610354565b60405190151581526020015b60405180910390f35b61011861013b36600461161d565b600260209081526000928352604080842090915290825290205460ff1681565b61016e610169366004611699565b61036e565b005b7f00000000000000000000000000000000000000000000000000000000000000005b60405173ffffffffffffffffffffffffffffffffffffffff9091168152602001610124565b6101927f000000000000000000000000000000000000000000000000000000000000000081565b6101186101ec36600461170c565b7f000000000000000000000000000000000000000000000000000000000000000073ffffffffffffffffffffffffffffffffffffffff90811691161490565b610267610239366004611729565b6001602081905260009182526040909120805491810154600282015460038301546004909301549192909185565b604080519586526020860194909452928401919091526060830152608082015260a001610124565b6102a261029d366004611742565b610789565b604051610124919061177a565b61016e6102bd3660046117bb565b610836565b61016e6102d0366004611843565b61093a565b610192610a39565b61016e6102eb3660046117bb565b610a65565b6102f960005481565b604051908152602001610124565b61016e61031536600461170c565b610bdd565b6102f97f97667070c54ef182b0f5858b034beac1b6f3089aa2d3188bb1e8929f4fa9b92981565b61016e61034f366004611875565b610bfb565b600061036882610362610cba565b90610ce8565b92915050565b600086815260016020526040902080546103bc576040517f07cba261000000000000000000000000000000000000000000000000000000008152600481018890526024015b60405180910390fd5b600381015442908110806103d35750816004015481115b156104275760038201546004808401546040517fc06e9f3a000000000000000000000000000000000000000000000000000000008152918201849052602482019290925260448101919091526064016103b3565b600088815260026020908152604080832073ffffffffffffffffffffffffffffffffffffffff8b16845290915290205460ff16156104be576040517f7635807d00000000000000000000000000000000000000000000000000000000815273ffffffffffffffffffffffffffffffffffffffff881660048201526024810187905260448101869052606481018990526084016103b3565b858260020154101561050c5760028201546040517f23090a310000000000000000000000000000000000000000000000000000000081526103b3918891600401918252602082015260400190565b6040517fffffffffffffffffffffffffffffffffffffffff000000000000000000000000606089901b166020820152603481018790526054810186905260748101899052600090609401604080517fffffffffffffffffffffffffffffffffffffffffffffffffffffffffffffffe08184030181529190528051602090910120835490915061059f908690869084610dc2565b610602576040517fa041b52e00000000000000000000000000000000000000000000000000000000815273ffffffffffffffffffffffffffffffffffffffff891660048201526024810188905260448101879052606481018a90526084016103b3565b600089815260026020818152604080842073ffffffffffffffffffffffffffffffffffffffff8d168552909152822080547fffffffffffffffffffffffffffffffffffffffffffffffffffffffffffffff001660011790558401805489929061066c9084906118e1565b90915550506040517f26b3293f00000000000000000000000000000000000000000000000000000000815273ffffffffffffffffffffffffffffffffffffffff898116600483015260248201899052604482018890527f000000000000000000000000000000000000000000000000000000000000000016906326b3293f90606401600060405180830381600087803b15801561070857600080fd5b505af115801561071c573d6000803e3d6000fd5b505050508773ffffffffffffffffffffffffffffffffffffffff16897ffc6ecd966b430510beae9124efe7dd517ed5286d7ed0ae258f8556c7a9765a44898660020154604051610776929190918252602082015260400190565b60405180910390a3505050505050505050565b600083815260016020526040812080546107a757600191505061082f565b600381015442908110806107be5750816004015481115b156107ce5760029250505061082f565b600086815260026020908152604080832073ffffffffffffffffffffffffffffffffffffffff8916845290915290205460ff16156108115760039250505061082f565b83826002015410156108285760049250505061082f565b6000925050505b9392505050565b61084f610841610ddc565b610849610de6565b90610e14565b84838114158061085f5750808214155b15610896576040517f6582533600000000000000000000000000000000000000000000000000000000815260040160405180910390fd5b60005b81811015610930576109288888838181106108b6576108b661191b565b90506020020160208101906108cb919061170c565b8585848181106108dd576108dd61191b565b905060200201358888858181106108f6576108f661191b565b905060200201602081019061090b919061170c565b73ffffffffffffffffffffffffffffffffffffffff169190610e83565b600101610899565b5050505050505050565b610945610841610ddc565b808210610988576040517f779acdff00000000000000000000000000000000000000000000000000000000815260048101839052602481018290526044016103b3565b600080546040805160a081018252878152602080820188815282840189815260608085018a815260808087018b8152898b526001808852898c209851895595518887015593516002880155905160038701559151600490950194909455865490910190955582518981529081018890529182018690528101849052909182917f331c648136af10432045d8cc15dfaee6ca9568922f85cab02d96d5f5286c8920910160405180910390a25050505050565b6000610a60610a46610de6565b5473ffffffffffffffffffffffffffffffffffffffff1690565b905090565b610a70610841610ddc565b848381141580610a805750808214155b15610ab7576040517f6582533600000000000000000000000000000000000000000000000000000000815260040160405180910390fd5b60005b8181101561093057858582818110610ad457610ad461191b565b9050602002016020810190610ae9919061170c565b73ffffffffffffffffffffffffffffffffffffffff166323b872dd308a8a85818110610b1757610b1761191b565b9050602002016020810190610b2c919061170c565b878786818110610b3e57610b3e61191b565b6040517fffffffff0000000000000000000000000000000000000000000000000000000060e088901b16815273ffffffffffffffffffffffffffffffffffffffff958616600482015294909316602485015250602090910201356044820152606401600060405180830381600087803b158015610bba57600080fd5b505af1158015610bce573d6000803e3d6000fd5b50505050806001019050610aba565b610bf8610be8610ddc565b82610bf1610de6565b9190610f15565b50565b610c06610841610ddc565b82818114610c40576040517f6582533600000000000000000000000000000000000000000000000000000000815260040160405180910390fd5b60005b81811015610cb257610caa848483818110610c6057610c6061191b565b90506020020135878784818110610c7957610c7961191b565b9050602002016020810190610c8e919061170c565b73ffffffffffffffffffffffffffffffffffffffff169061102a565b600101610c43565b505050505050565b60008061036860017fca9d3e17f264b0f3984e2634e94adb37fa3e6a8103f06aeae6fa59e21c769f5e6118e1565b60007c01000000000000000000000000000000000000000000000000000000007fffffffff00000000000000000000000000000000000000000000000000000000831601610d3857506000610368565b7ffe003659000000000000000000000000000000000000000000000000000000007fffffffff00000000000000000000000000000000000000000000000000000000831601610d8957506001610368565b507fffffffff00000000000000000000000000000000000000000000000000000000166000908152602091909152604090205460ff1690565b600082610dd0868685611184565b1490505b949350505050565b6000610a606111c6565b60008061036860017fc9ed16f33ab3a66c84bfd83099ccb2a8845871e2e1c1928f63797152f0fd54cd6118e1565b815473ffffffffffffffffffffffffffffffffffffffff828116911614610e7f576040517f2ef4875e00000000000000000000000000000000000000000000000000000000815273ffffffffffffffffffffffffffffffffffffffff821660048201526024016103b3565b5050565b6040805173ffffffffffffffffffffffffffffffffffffffff8416602482015260448082018490528251808303909101815260649091019091526020810180517bffffffffffffffffffffffffffffffffffffffffffffffffffffffff167fa9059cbb00000000000000000000000000000000000000000000000000000000179052610f1090849061130d565b505050565b825473ffffffffffffffffffffffffffffffffffffffff9081169083168114610f82576040517f2ef4875e00000000000000000000000000000000000000000000000000000000815273ffffffffffffffffffffffffffffffffffffffff841660048201526024016103b3565b8173ffffffffffffffffffffffffffffffffffffffff168173ffffffffffffffffffffffffffffffffffffffff16146110245783547fffffffffffffffffffffffff00000000000000000000000000000000000000001673ffffffffffffffffffffffffffffffffffffffff8381169182178655604051908316907f8be0079c531659141344cd1fd0a4f28419497f9722a3daafe3b4186f6b6457e090600090a35b50505050565b80471015611094576040517f08c379a000000000000000000000000000000000000000000000000000000000815260206004820152601d60248201527f416464726573733a20696e73756666696369656e742062616c616e636500000060448201526064016103b3565b60008273ffffffffffffffffffffffffffffffffffffffff168260405160006040518083038185875af1925050503d80600081146110ee576040519150601f19603f3d011682016040523d82523d6000602084013e6110f3565b606091505b5050905080610f10576040517f08c379a000000000000000000000000000000000000000000000000000000000815260206004820152603a60248201527f416464726573733a20756e61626c6520746f2073656e642076616c75652c207260448201527f6563697069656e74206d6179206861766520726576657274656400000000000060648201526084016103b3565b600081815b848110156111bd576111b3828787848181106111a7576111a761191b565b9050602002013561141c565b9150600101611189565b50949350505050565b6000333214806111d65750601836105b156111e057503390565b7fffffffffffffffffffffffffffffffffffffffffffffffffffffffffffffffec36013560601c7f000000000000000000000000000000000000000000000000000000000000000073ffffffffffffffffffffffffffffffffffffffff163314806112fc57506040517f8929a8ca00000000000000000000000000000000000000000000000000000000815273ffffffffffffffffffffffffffffffffffffffff82811660048301523360248301527f00000000000000000000000000000000000000000000000000000000000000001690638929a8ca90604401602060405180830381865afa1580156112d8573d6000803e3d6000fd5b505050506040513d601f19601f820116820180604052508101906112fc919061194a565b1561130657919050565b3391505090565b600061136f826040518060400160405280602081526020017f5361666545524332303a206c6f772d6c6576656c2063616c6c206661696c65648152508573ffffffffffffffffffffffffffffffffffffffff166114489092919063ffffffff16565b9050805160001480611390575080806020019051810190611390919061194a565b610f10576040517f08c379a000000000000000000000000000000000000000000000000000000000815260206004820152602a60248201527f5361666545524332303a204552433230206f7065726174696f6e20646964206e60448201527f6f7420737563636565640000000000000000000000000000000000000000000060648201526084016103b3565b600081831061143857600082815260208490526040902061082f565b5060009182526020526040902090565b6060610dd48484600085856000808673ffffffffffffffffffffffffffffffffffffffff16858760405161147c9190611990565b60006040518083038185875af1925050503d80600081146114b9576040519150601f19603f3d011682016040523d82523d6000602084013e6114be565b606091505b50915091506114cf878383876114da565b979650505050505050565b606083156115705782516000036115695773ffffffffffffffffffffffffffffffffffffffff85163b611569576040517f08c379a000000000000000000000000000000000000000000000000000000000815260206004820152601d60248201527f416464726573733a2063616c6c20746f206e6f6e2d636f6e747261637400000060448201526064016103b3565b5081610dd4565b610dd483838151156115855781518083602001fd5b806040517f08c379a00000000000000000000000000000000000000000000000000000000081526004016103b391906119ac565b6000602082840312156115cb57600080fd5b81357fffffffff000000000000000000000000000000000000000000000000000000008116811461082f57600080fd5b73ffffffffffffffffffffffffffffffffffffffff81168114610bf857600080fd5b6000806040838503121561163057600080fd5b823591506020830135611642816115fb565b809150509250929050565b60008083601f84011261165f57600080fd5b50813567ffffffffffffffff81111561167757600080fd5b6020830191508360208260051b850101111561169257600080fd5b9250929050565b60008060008060008060a087890312156116b257600080fd5b8635955060208701356116c4816115fb565b94506040870135935060608701359250608087013567ffffffffffffffff8111156116ee57600080fd5b6116fa89828a0161164d565b979a9699509497509295939492505050565b60006020828403121561171e57600080fd5b813561082f816115fb565b60006020828403121561173b57600080fd5b5035919050565b60008060006060848603121561175757600080fd5b833592506020840135611769816115fb565b929592945050506040919091013590565b60208101600583106117b5577f4e487b7100000000000000000000000000000000000000000000000000000000600052602160045260246000fd5b91905290565b600080600080600080606087890312156117d457600080fd5b863567ffffffffffffffff808211156117ec57600080fd5b6117f88a838b0161164d565b9098509650602089013591508082111561181157600080fd5b61181d8a838b0161164d565b9096509450604089013591508082111561183657600080fd5b506116fa89828a0161164d565b6000806000806080858703121561185957600080fd5b5050823594602084013594506040840135936060013592509050565b6000806000806040858703121561188b57600080fd5b843567ffffffffffffffff808211156118a357600080fd5b6118af8883890161164d565b909650945060208701359150808211156118c857600080fd5b506118d58782880161164d565b95989497509550505050565b81810381811115610368577f4e487b7100000000000000000000000000000000000000000000000000000000600052601160045260246000fd5b7f4e487b7100000000000000000000000000000000000000000000000000000000600052603260045260246000fd5b60006020828403121561195c57600080fd5b8151801515811461082f57600080fd5b60005b8381101561198757818101518382015260200161196f565b50506000910152565b600082516119a281846020870161196c565b9190910192915050565b60208152600082518060208401526119cb81604085016020870161196c565b601f017fffffffffffffffffffffffffffffffffffffffffffffffffffffffffffffffe016919091016040019291505056fea26469706673582212206ee7aab44c30204e4f7b7d9e66b4675709345a66aee48233cb2f837d8fb9f40664736f6c63430008160033","opcodes":"PUSH1 0xC0 PUSH1 0x40 MSTORE CALLVALUE DUP1 ISZERO PUSH3 0x11 JUMPI PUSH1 0x0 DUP1 REVERT JUMPDEST POP PUSH1 0x40 MLOAD PUSH3 0x1CCD CODESIZE SUB DUP1 PUSH3 0x1CCD DUP4 CODECOPY DUP2 ADD PUSH1 0x40 DUP2 SWAP1 MSTORE PUSH3 0x34 SWAP2 PUSH3 0x1F7 JUMP JUMPDEST DUP1 DUP1 CALLER PUSH3 0x4D DUP2 PUSH3 0x46 PUSH3 0xA0 JUMP JUMPDEST SWAP1 PUSH3 0xD6 JUMP JUMPDEST POP PUSH1 0x1 PUSH1 0x1 PUSH1 0xA0 SHL SUB SWAP1 DUP2 AND PUSH1 0x80 MSTORE DUP4 AND SWAP1 POP PUSH3 0x8D JUMPI PUSH1 0x40 MLOAD PUSH4 0x1AA6C2CD PUSH1 0xE3 SHL DUP2 MSTORE PUSH1 0x1 PUSH1 0x1 PUSH1 0xA0 SHL SUB DUP4 AND PUSH1 0x4 DUP3 ADD MSTORE PUSH1 0x24 ADD PUSH1 0x40 MLOAD DUP1 SWAP2 SUB SWAP1 REVERT JUMPDEST POP PUSH1 0x1 PUSH1 0x1 PUSH1 0xA0 SHL SUB AND PUSH1 0xA0 MSTORE PUSH3 0x258 JUMP JUMPDEST PUSH1 0x0 DUP1 PUSH3 0xD0 PUSH1 0x1 PUSH32 0xC9ED16F33AB3A66C84BFD83099CCB2A8845871E2E1C1928F63797152F0FD54CD PUSH3 0x236 JUMP JUMPDEST SWAP3 SWAP2 POP POP JUMP JUMPDEST PUSH1 0x1 PUSH1 0x1 PUSH1 0xA0 SHL SUB DUP2 AND ISZERO PUSH3 0x12D JUMPI DUP2 SLOAD PUSH1 0x1 PUSH1 0x1 PUSH1 0xA0 SHL SUB NOT AND PUSH1 0x1 PUSH1 0x1 PUSH1 0xA0 SHL SUB DUP3 AND SWAP1 DUP2 OR DUP4 SSTORE PUSH1 0x40 MLOAD PUSH1 0x0 SWAP1 PUSH32 0x8BE0079C531659141344CD1FD0A4F28419497F9722A3DAAFE3B4186F6B6457E0 SWAP1 DUP3 SWAP1 LOG3 JUMPDEST PUSH3 0x14D PUSH4 0x7F5828D PUSH1 0xE4 SHL PUSH1 0x1 PUSH3 0x145 PUSH3 0x151 JUMP JUMPDEST SWAP2 SWAP1 PUSH3 0x181 JUMP JUMPDEST POP POP JUMP JUMPDEST PUSH1 0x0 DUP1 PUSH3 0xD0 PUSH1 0x1 PUSH32 0xCA9D3E17F264B0F3984E2634E94ADB37FA3E6A8103F06AEAE6FA59E21C769F5E PUSH3 0x236 JUMP JUMPDEST PUSH1 0x1 PUSH1 0xE0 SHL PUSH1 0x1 PUSH1 0x1 PUSH1 0xE0 SHL SUB NOT DUP4 AND ADD PUSH3 0x1B0 JUMPI PUSH1 0x40 MLOAD PUSH4 0x72C683BB PUSH1 0xE0 SHL DUP2 MSTORE PUSH1 0x4 ADD PUSH1 0x40 MLOAD DUP1 SWAP2 SUB SWAP1 REVERT JUMPDEST PUSH1 0x1 PUSH1 0x1 PUSH1 0xE0 SHL SUB NOT SWAP2 SWAP1 SWAP2 AND PUSH1 0x0 SWAP1 DUP2 MSTORE PUSH1 0x20 SWAP3 SWAP1 SWAP3 MSTORE PUSH1 0x40 SWAP1 SWAP2 KECCAK256 DUP1 SLOAD PUSH1 0xFF NOT AND SWAP2 ISZERO ISZERO SWAP2 SWAP1 SWAP2 OR SWAP1 SSTORE JUMP JUMPDEST PUSH1 0x1 PUSH1 0x1 PUSH1 0xA0 SHL SUB DUP2 AND DUP2 EQ PUSH3 0x1F4 JUMPI PUSH1 0x0 DUP1 REVERT JUMPDEST POP JUMP JUMPDEST PUSH1 0x0 DUP1 PUSH1 0x40 DUP4 DUP6 SUB SLT ISZERO PUSH3 0x20B JUMPI PUSH1 0x0 DUP1 REVERT JUMPDEST DUP3 MLOAD PUSH3 0x218 DUP2 PUSH3 0x1DE JUMP JUMPDEST PUSH1 0x20 DUP5 ADD MLOAD SWAP1 SWAP3 POP PUSH3 0x22B DUP2 PUSH3 0x1DE JUMP JUMPDEST DUP1 SWAP2 POP POP SWAP3 POP SWAP3 SWAP1 POP JUMP JUMPDEST DUP2 DUP2 SUB DUP2 DUP2 GT ISZERO PUSH3 0xD0 JUMPI PUSH4 0x4E487B71 PUSH1 0xE0 SHL PUSH1 0x0 MSTORE PUSH1 0x11 PUSH1 0x4 MSTORE PUSH1 0x24 PUSH1 0x0 REVERT JUMPDEST PUSH1 0x80 MLOAD PUSH1 0xA0 MLOAD PUSH2 0x1A33 PUSH3 0x29A PUSH1 0x0 CODECOPY PUSH1 0x0 DUP2 DUP2 PUSH2 0x1BC ADD MSTORE PUSH2 0x6C4 ADD MSTORE PUSH1 0x0 DUP2 DUP2 PUSH2 0x172 ADD MSTORE DUP2 DUP2 PUSH2 0x1EE ADD MSTORE DUP2 DUP2 PUSH2 0x1209 ADD MSTORE PUSH2 0x1291 ADD MSTORE PUSH2 0x1A33 PUSH1 0x0 RETURN INVALID PUSH1 0x80 PUSH1 0x40 MSTORE CALLVALUE DUP1 ISZERO PUSH2 0x10 JUMPI PUSH1 0x0 DUP1 REVERT JUMPDEST POP PUSH1 0x4 CALLDATASIZE LT PUSH2 0x100 JUMPI PUSH1 0x0 CALLDATALOAD PUSH1 0xE0 SHR DUP1 PUSH4 0x73C8A958 GT PUSH2 0x97 JUMPI DUP1 PUSH4 0xEACDC5FF GT PUSH2 0x66 JUMPI DUP1 PUSH4 0xEACDC5FF EQ PUSH2 0x2F0 JUMPI DUP1 PUSH4 0xF2FDE38B EQ PUSH2 0x307 JUMPI DUP1 PUSH4 0xF5B541A6 EQ PUSH2 0x31A JUMPI DUP1 PUSH4 0xF7BA94BD EQ PUSH2 0x341 JUMPI PUSH1 0x0 DUP1 REVERT JUMPDEST DUP1 PUSH4 0x73C8A958 EQ PUSH2 0x2AF JUMPI DUP1 PUSH4 0x833D47B6 EQ PUSH2 0x2C2 JUMPI DUP1 PUSH4 0x8DA5CB5B EQ PUSH2 0x2D5 JUMPI DUP1 PUSH4 0xC3666C36 EQ PUSH2 0x2DD JUMPI PUSH1 0x0 DUP1 REVERT JUMPDEST DUP1 PUSH4 0x2D4C2F93 GT PUSH2 0xD3 JUMPI DUP1 PUSH4 0x2D4C2F93 EQ PUSH2 0x1B7 JUMPI DUP1 PUSH4 0x572B6C05 EQ PUSH2 0x1DE JUMPI DUP1 PUSH4 0x5C9A509B EQ PUSH2 0x22B JUMPI DUP1 PUSH4 0x7124094F EQ PUSH2 0x28F JUMPI PUSH1 0x0 DUP1 REVERT JUMPDEST DUP1 PUSH4 0x1FFC9A7 EQ PUSH2 0x105 JUMPI DUP1 PUSH4 0x120AA877 EQ PUSH2 0x12D JUMPI DUP1 PUSH4 0x2035A4DD EQ PUSH2 0x15B JUMPI DUP1 PUSH4 0x2B4C9F16 EQ PUSH2 0x170 JUMPI JUMPDEST PUSH1 0x0 DUP1 REVERT JUMPDEST PUSH2 0x118 PUSH2 0x113 CALLDATASIZE PUSH1 0x4 PUSH2 0x15B9 JUMP JUMPDEST PUSH2 0x354 JUMP JUMPDEST PUSH1 0x40 MLOAD SWAP1 ISZERO ISZERO DUP2 MSTORE PUSH1 0x20 ADD JUMPDEST PUSH1 0x40 MLOAD DUP1 SWAP2 SUB SWAP1 RETURN JUMPDEST PUSH2 0x118 PUSH2 0x13B CALLDATASIZE PUSH1 0x4 PUSH2 0x161D JUMP JUMPDEST PUSH1 0x2 PUSH1 0x20 SWAP1 DUP2 MSTORE PUSH1 0x0 SWAP3 DUP4 MSTORE PUSH1 0x40 DUP1 DUP5 KECCAK256 SWAP1 SWAP2 MSTORE SWAP1 DUP3 MSTORE SWAP1 KECCAK256 SLOAD PUSH1 0xFF AND DUP2 JUMP JUMPDEST PUSH2 0x16E PUSH2 0x169 CALLDATASIZE PUSH1 0x4 PUSH2 0x1699 JUMP JUMPDEST PUSH2 0x36E JUMP JUMPDEST STOP JUMPDEST PUSH32 0x0 JUMPDEST PUSH1 0x40 MLOAD PUSH20 0xFFFFFFFFFFFFFFFFFFFFFFFFFFFFFFFFFFFFFFFF SWAP1 SWAP2 AND DUP2 MSTORE PUSH1 0x20 ADD PUSH2 0x124 JUMP JUMPDEST PUSH2 0x192 PUSH32 0x0 DUP2 JUMP JUMPDEST PUSH2 0x118 PUSH2 0x1EC CALLDATASIZE PUSH1 0x4 PUSH2 0x170C JUMP JUMPDEST PUSH32 0x0 PUSH20 0xFFFFFFFFFFFFFFFFFFFFFFFFFFFFFFFFFFFFFFFF SWAP1 DUP2 AND SWAP2 AND EQ SWAP1 JUMP JUMPDEST PUSH2 0x267 PUSH2 0x239 CALLDATASIZE PUSH1 0x4 PUSH2 0x1729 JUMP JUMPDEST PUSH1 0x1 PUSH1 0x20 DUP2 SWAP1 MSTORE PUSH1 0x0 SWAP2 DUP3 MSTORE PUSH1 0x40 SWAP1 SWAP2 KECCAK256 DUP1 SLOAD SWAP2 DUP2 ADD SLOAD PUSH1 0x2 DUP3 ADD SLOAD PUSH1 0x3 DUP4 ADD SLOAD PUSH1 0x4 SWAP1 SWAP4 ADD SLOAD SWAP2 SWAP3 SWAP1 SWAP2 DUP6 JUMP JUMPDEST PUSH1 0x40 DUP1 MLOAD SWAP6 DUP7 MSTORE PUSH1 0x20 DUP7 ADD SWAP5 SWAP1 SWAP5 MSTORE SWAP3 DUP5 ADD SWAP2 SWAP1 SWAP2 MSTORE PUSH1 0x60 DUP4 ADD MSTORE PUSH1 0x80 DUP3 ADD MSTORE PUSH1 0xA0 ADD PUSH2 0x124 JUMP JUMPDEST PUSH2 0x2A2 PUSH2 0x29D CALLDATASIZE PUSH1 0x4 PUSH2 0x1742 JUMP JUMPDEST PUSH2 0x789 JUMP JUMPDEST PUSH1 0x40 MLOAD PUSH2 0x124 SWAP2 SWAP1 PUSH2 0x177A JUMP JUMPDEST PUSH2 0x16E PUSH2 0x2BD CALLDATASIZE PUSH1 0x4 PUSH2 0x17BB JUMP JUMPDEST PUSH2 0x836 JUMP JUMPDEST PUSH2 0x16E PUSH2 0x2D0 CALLDATASIZE PUSH1 0x4 PUSH2 0x1843 JUMP JUMPDEST PUSH2 0x93A JUMP JUMPDEST PUSH2 0x192 PUSH2 0xA39 JUMP JUMPDEST PUSH2 0x16E PUSH2 0x2EB CALLDATASIZE PUSH1 0x4 PUSH2 0x17BB JUMP JUMPDEST PUSH2 0xA65 JUMP JUMPDEST PUSH2 0x2F9 PUSH1 0x0 SLOAD DUP2 JUMP JUMPDEST PUSH1 0x40 MLOAD SWAP1 DUP2 MSTORE PUSH1 0x20 ADD PUSH2 0x124 JUMP JUMPDEST PUSH2 0x16E PUSH2 0x315 CALLDATASIZE PUSH1 0x4 PUSH2 0x170C JUMP JUMPDEST PUSH2 0xBDD JUMP JUMPDEST PUSH2 0x2F9 PUSH32 0x97667070C54EF182B0F5858B034BEAC1B6F3089AA2D3188BB1E8929F4FA9B929 DUP2 JUMP JUMPDEST PUSH2 0x16E PUSH2 0x34F CALLDATASIZE PUSH1 0x4 PUSH2 0x1875 JUMP JUMPDEST PUSH2 0xBFB JUMP JUMPDEST PUSH1 0x0 PUSH2 0x368 DUP3 PUSH2 0x362 PUSH2 0xCBA JUMP JUMPDEST SWAP1 PUSH2 0xCE8 JUMP JUMPDEST SWAP3 SWAP2 POP POP JUMP JUMPDEST PUSH1 0x0 DUP7 DUP2 MSTORE PUSH1 0x1 PUSH1 0x20 MSTORE PUSH1 0x40 SWAP1 KECCAK256 DUP1 SLOAD PUSH2 0x3BC JUMPI PUSH1 0x40 MLOAD PUSH32 0x7CBA26100000000000000000000000000000000000000000000000000000000 DUP2 MSTORE PUSH1 0x4 DUP2 ADD DUP9 SWAP1 MSTORE PUSH1 0x24 ADD JUMPDEST PUSH1 0x40 MLOAD DUP1 SWAP2 SUB SWAP1 REVERT JUMPDEST PUSH1 0x3 DUP2 ADD SLOAD TIMESTAMP SWAP1 DUP2 LT DUP1 PUSH2 0x3D3 JUMPI POP DUP2 PUSH1 0x4 ADD SLOAD DUP2 GT JUMPDEST ISZERO PUSH2 0x427 JUMPI PUSH1 0x3 DUP3 ADD SLOAD PUSH1 0x4 DUP1 DUP5 ADD SLOAD PUSH1 0x40 MLOAD PUSH32 0xC06E9F3A00000000000000000000000000000000000000000000000000000000 DUP2 MSTORE SWAP2 DUP3 ADD DUP5 SWAP1 MSTORE PUSH1 0x24 DUP3 ADD SWAP3 SWAP1 SWAP3 MSTORE PUSH1 0x44 DUP2 ADD SWAP2 SWAP1 SWAP2 MSTORE PUSH1 0x64 ADD PUSH2 0x3B3 JUMP JUMPDEST PUSH1 0x0 DUP9 DUP2 MSTORE PUSH1 0x2 PUSH1 0x20 SWAP1 DUP2 MSTORE PUSH1 0x40 DUP1 DUP4 KECCAK256 PUSH20 0xFFFFFFFFFFFFFFFFFFFFFFFFFFFFFFFFFFFFFFFF DUP12 AND DUP5 MSTORE SWAP1 SWAP2 MSTORE SWAP1 KECCAK256 SLOAD PUSH1 0xFF AND ISZERO PUSH2 0x4BE JUMPI PUSH1 0x40 MLOAD PUSH32 0x7635807D00000000000000000000000000000000000000000000000000000000 DUP2 MSTORE PUSH20 0xFFFFFFFFFFFFFFFFFFFFFFFFFFFFFFFFFFFFFFFF DUP9 AND PUSH1 0x4 DUP3 ADD MSTORE PUSH1 0x24 DUP2 ADD DUP8 SWAP1 MSTORE PUSH1 0x44 DUP2 ADD DUP7 SWAP1 MSTORE PUSH1 0x64 DUP2 ADD DUP10 SWAP1 MSTORE PUSH1 0x84 ADD PUSH2 0x3B3 JUMP JUMPDEST DUP6 DUP3 PUSH1 0x2 ADD SLOAD LT ISZERO PUSH2 0x50C JUMPI PUSH1 0x2 DUP3 ADD SLOAD PUSH1 0x40 MLOAD PUSH32 0x23090A3100000000000000000000000000000000000000000000000000000000 DUP2 MSTORE PUSH2 0x3B3 SWAP2 DUP9 SWAP2 PUSH1 0x4 ADD SWAP2 DUP3 MSTORE PUSH1 0x20 DUP3 ADD MSTORE PUSH1 0x40 ADD SWAP1 JUMP JUMPDEST PUSH1 0x40 MLOAD PUSH32 0xFFFFFFFFFFFFFFFFFFFFFFFFFFFFFFFFFFFFFFFF000000000000000000000000 PUSH1 0x60 DUP10 SWAP1 SHL AND PUSH1 0x20 DUP3 ADD MSTORE PUSH1 0x34 DUP2 ADD DUP8 SWAP1 MSTORE PUSH1 0x54 DUP2 ADD DUP7 SWAP1 MSTORE PUSH1 0x74 DUP2 ADD DUP10 SWAP1 MSTORE PUSH1 0x0 SWAP1 PUSH1 0x94 ADD PUSH1 0x40 DUP1 MLOAD PUSH32 0xFFFFFFFFFFFFFFFFFFFFFFFFFFFFFFFFFFFFFFFFFFFFFFFFFFFFFFFFFFFFFFE0 DUP2 DUP5 SUB ADD DUP2 MSTORE SWAP2 SWAP1 MSTORE DUP1 MLOAD PUSH1 0x20 SWAP1 SWAP2 ADD KECCAK256 DUP4 SLOAD SWAP1 SWAP2 POP PUSH2 0x59F SWAP1 DUP7 SWAP1 DUP7 SWAP1 DUP5 PUSH2 0xDC2 JUMP JUMPDEST PUSH2 0x602 JUMPI PUSH1 0x40 MLOAD PUSH32 0xA041B52E00000000000000000000000000000000000000000000000000000000 DUP2 MSTORE PUSH20 0xFFFFFFFFFFFFFFFFFFFFFFFFFFFFFFFFFFFFFFFF DUP10 AND PUSH1 0x4 DUP3 ADD MSTORE PUSH1 0x24 DUP2 ADD DUP9 SWAP1 MSTORE PUSH1 0x44 DUP2 ADD DUP8 SWAP1 MSTORE PUSH1 0x64 DUP2 ADD DUP11 SWAP1 MSTORE PUSH1 0x84 ADD PUSH2 0x3B3 JUMP JUMPDEST PUSH1 0x0 DUP10 DUP2 MSTORE PUSH1 0x2 PUSH1 0x20 DUP2 DUP2 MSTORE PUSH1 0x40 DUP1 DUP5 KECCAK256 PUSH20 0xFFFFFFFFFFFFFFFFFFFFFFFFFFFFFFFFFFFFFFFF DUP14 AND DUP6 MSTORE SWAP1 SWAP2 MSTORE DUP3 KECCAK256 DUP1 SLOAD PUSH32 0xFFFFFFFFFFFFFFFFFFFFFFFFFFFFFFFFFFFFFFFFFFFFFFFFFFFFFFFFFFFFFF00 AND PUSH1 0x1 OR SWAP1 SSTORE DUP5 ADD DUP1 SLOAD DUP10 SWAP3 SWAP1 PUSH2 0x66C SWAP1 DUP5 SWAP1 PUSH2 0x18E1 JUMP JUMPDEST SWAP1 SWAP2 SSTORE POP POP PUSH1 0x40 MLOAD PUSH32 0x26B3293F00000000000000000000000000000000000000000000000000000000 DUP2 MSTORE PUSH20 0xFFFFFFFFFFFFFFFFFFFFFFFFFFFFFFFFFFFFFFFF DUP10 DUP2 AND PUSH1 0x4 DUP4 ADD MSTORE PUSH1 0x24 DUP3 ADD DUP10 SWAP1 MSTORE PUSH1 0x44 DUP3 ADD DUP9 SWAP1 MSTORE PUSH32 0x0 AND SWAP1 PUSH4 0x26B3293F SWAP1 PUSH1 0x64 ADD PUSH1 0x0 PUSH1 0x40 MLOAD DUP1 DUP4 SUB DUP2 PUSH1 0x0 DUP8 DUP1 EXTCODESIZE ISZERO DUP1 ISZERO PUSH2 0x708 JUMPI PUSH1 0x0 DUP1 REVERT JUMPDEST POP GAS CALL ISZERO DUP1 ISZERO PUSH2 0x71C JUMPI RETURNDATASIZE PUSH1 0x0 DUP1 RETURNDATACOPY RETURNDATASIZE PUSH1 0x0 REVERT JUMPDEST POP POP POP POP DUP8 PUSH20 0xFFFFFFFFFFFFFFFFFFFFFFFFFFFFFFFFFFFFFFFF AND DUP10 PUSH32 0xFC6ECD966B430510BEAE9124EFE7DD517ED5286D7ED0AE258F8556C7A9765A44 DUP10 DUP7 PUSH1 0x2 ADD SLOAD PUSH1 0x40 MLOAD PUSH2 0x776 SWAP3 SWAP2 SWAP1 SWAP2 DUP3 MSTORE PUSH1 0x20 DUP3 ADD MSTORE PUSH1 0x40 ADD SWAP1 JUMP JUMPDEST PUSH1 0x40 MLOAD DUP1 SWAP2 SUB SWAP1 LOG3 POP POP POP POP POP POP POP POP POP JUMP JUMPDEST PUSH1 0x0 DUP4 DUP2 MSTORE PUSH1 0x1 PUSH1 0x20 MSTORE PUSH1 0x40 DUP2 KECCAK256 DUP1 SLOAD PUSH2 0x7A7 JUMPI PUSH1 0x1 SWAP2 POP POP PUSH2 0x82F JUMP JUMPDEST PUSH1 0x3 DUP2 ADD SLOAD TIMESTAMP SWAP1 DUP2 LT DUP1 PUSH2 0x7BE JUMPI POP DUP2 PUSH1 0x4 ADD SLOAD DUP2 GT JUMPDEST ISZERO PUSH2 0x7CE JUMPI PUSH1 0x2 SWAP3 POP POP POP PUSH2 0x82F JUMP JUMPDEST PUSH1 0x0 DUP7 DUP2 MSTORE PUSH1 0x2 PUSH1 0x20 SWAP1 DUP2 MSTORE PUSH1 0x40 DUP1 DUP4 KECCAK256 PUSH20 0xFFFFFFFFFFFFFFFFFFFFFFFFFFFFFFFFFFFFFFFF DUP10 AND DUP5 MSTORE SWAP1 SWAP2 MSTORE SWAP1 KECCAK256 SLOAD PUSH1 0xFF AND ISZERO PUSH2 0x811 JUMPI PUSH1 0x3 SWAP3 POP POP POP PUSH2 0x82F JUMP JUMPDEST DUP4 DUP3 PUSH1 0x2 ADD SLOAD LT ISZERO PUSH2 0x828 JUMPI PUSH1 0x4 SWAP3 POP POP POP PUSH2 0x82F JUMP JUMPDEST PUSH1 0x0 SWAP3 POP POP POP JUMPDEST SWAP4 SWAP3 POP POP POP JUMP JUMPDEST PUSH2 0x84F PUSH2 0x841 PUSH2 0xDDC JUMP JUMPDEST PUSH2 0x849 PUSH2 0xDE6 JUMP JUMPDEST SWAP1 PUSH2 0xE14 JUMP JUMPDEST DUP5 DUP4 DUP2 EQ ISZERO DUP1 PUSH2 0x85F JUMPI POP DUP1 DUP3 EQ ISZERO JUMPDEST ISZERO PUSH2 0x896 JUMPI PUSH1 0x40 MLOAD PUSH32 0x6582533600000000000000000000000000000000000000000000000000000000 DUP2 MSTORE PUSH1 0x4 ADD PUSH1 0x40 MLOAD DUP1 SWAP2 SUB SWAP1 REVERT JUMPDEST PUSH1 0x0 JUMPDEST DUP2 DUP2 LT ISZERO PUSH2 0x930 JUMPI PUSH2 0x928 DUP9 DUP9 DUP4 DUP2 DUP2 LT PUSH2 0x8B6 JUMPI PUSH2 0x8B6 PUSH2 0x191B JUMP JUMPDEST SWAP1 POP PUSH1 0x20 MUL ADD PUSH1 0x20 DUP2 ADD SWAP1 PUSH2 0x8CB SWAP2 SWAP1 PUSH2 0x170C JUMP JUMPDEST DUP6 DUP6 DUP5 DUP2 DUP2 LT PUSH2 0x8DD JUMPI PUSH2 0x8DD PUSH2 0x191B JUMP JUMPDEST SWAP1 POP PUSH1 0x20 MUL ADD CALLDATALOAD DUP9 DUP9 DUP6 DUP2 DUP2 LT PUSH2 0x8F6 JUMPI PUSH2 0x8F6 PUSH2 0x191B JUMP JUMPDEST SWAP1 POP PUSH1 0x20 MUL ADD PUSH1 0x20 DUP2 ADD SWAP1 PUSH2 0x90B SWAP2 SWAP1 PUSH2 0x170C JUMP JUMPDEST PUSH20 0xFFFFFFFFFFFFFFFFFFFFFFFFFFFFFFFFFFFFFFFF AND SWAP2 SWAP1 PUSH2 0xE83 JUMP JUMPDEST PUSH1 0x1 ADD PUSH2 0x899 JUMP JUMPDEST POP POP POP POP POP POP POP POP JUMP JUMPDEST PUSH2 0x945 PUSH2 0x841 PUSH2 0xDDC JUMP JUMPDEST DUP1 DUP3 LT PUSH2 0x988 JUMPI PUSH1 0x40 MLOAD PUSH32 0x779ACDFF00000000000000000000000000000000000000000000000000000000 DUP2 MSTORE PUSH1 0x4 DUP2 ADD DUP4 SWAP1 MSTORE PUSH1 0x24 DUP2 ADD DUP3 SWAP1 MSTORE PUSH1 0x44 ADD PUSH2 0x3B3 JUMP JUMPDEST PUSH1 0x0 DUP1 SLOAD PUSH1 0x40 DUP1 MLOAD PUSH1 0xA0 DUP2 ADD DUP3 MSTORE DUP8 DUP2 MSTORE PUSH1 0x20 DUP1 DUP3 ADD DUP9 DUP2 MSTORE DUP3 DUP5 ADD DUP10 DUP2 MSTORE PUSH1 0x60 DUP1 DUP6 ADD DUP11 DUP2 MSTORE PUSH1 0x80 DUP1 DUP8 ADD DUP12 DUP2 MSTORE DUP10 DUP12 MSTORE PUSH1 0x1 DUP1 DUP9 MSTORE DUP10 DUP13 KECCAK256 SWAP9 MLOAD DUP10 SSTORE SWAP6 MLOAD DUP9 DUP8 ADD SSTORE SWAP4 MLOAD PUSH1 0x2 DUP9 ADD SSTORE SWAP1 MLOAD PUSH1 0x3 DUP8 ADD SSTORE SWAP2 MLOAD PUSH1 0x4 SWAP1 SWAP6 ADD SWAP5 SWAP1 SWAP5 SSTORE DUP7 SLOAD SWAP1 SWAP2 ADD SWAP1 SWAP6 SSTORE DUP3 MLOAD DUP10 DUP2 MSTORE SWAP1 DUP2 ADD DUP9 SWAP1 MSTORE SWAP2 DUP3 ADD DUP7 SWAP1 MSTORE DUP2 ADD DUP5 SWAP1 MSTORE SWAP1 SWAP2 DUP3 SWAP2 PUSH32 0x331C648136AF10432045D8CC15DFAEE6CA9568922F85CAB02D96D5F5286C8920 SWAP2 ADD PUSH1 0x40 MLOAD DUP1 SWAP2 SUB SWAP1 LOG2 POP POP POP POP POP JUMP JUMPDEST PUSH1 0x0 PUSH2 0xA60 PUSH2 0xA46 PUSH2 0xDE6 JUMP JUMPDEST SLOAD PUSH20 0xFFFFFFFFFFFFFFFFFFFFFFFFFFFFFFFFFFFFFFFF AND SWAP1 JUMP JUMPDEST SWAP1 POP SWAP1 JUMP JUMPDEST PUSH2 0xA70 PUSH2 0x841 PUSH2 0xDDC JUMP JUMPDEST DUP5 DUP4 DUP2 EQ ISZERO DUP1 PUSH2 0xA80 JUMPI POP DUP1 DUP3 EQ ISZERO JUMPDEST ISZERO PUSH2 0xAB7 JUMPI PUSH1 0x40 MLOAD PUSH32 0x6582533600000000000000000000000000000000000000000000000000000000 DUP2 MSTORE PUSH1 0x4 ADD PUSH1 0x40 MLOAD DUP1 SWAP2 SUB SWAP1 REVERT JUMPDEST PUSH1 0x0 JUMPDEST DUP2 DUP2 LT ISZERO PUSH2 0x930 JUMPI DUP6 DUP6 DUP3 DUP2 DUP2 LT PUSH2 0xAD4 JUMPI PUSH2 0xAD4 PUSH2 0x191B JUMP JUMPDEST SWAP1 POP PUSH1 0x20 MUL ADD PUSH1 0x20 DUP2 ADD SWAP1 PUSH2 0xAE9 SWAP2 SWAP1 PUSH2 0x170C JUMP JUMPDEST PUSH20 0xFFFFFFFFFFFFFFFFFFFFFFFFFFFFFFFFFFFFFFFF AND PUSH4 0x23B872DD ADDRESS DUP11 DUP11 DUP6 DUP2 DUP2 LT PUSH2 0xB17 JUMPI PUSH2 0xB17 PUSH2 0x191B JUMP JUMPDEST SWAP1 POP PUSH1 0x20 MUL ADD PUSH1 0x20 DUP2 ADD SWAP1 PUSH2 0xB2C SWAP2 SWAP1 PUSH2 0x170C JUMP JUMPDEST DUP8 DUP8 DUP7 DUP2 DUP2 LT PUSH2 0xB3E JUMPI PUSH2 0xB3E PUSH2 0x191B JUMP JUMPDEST PUSH1 0x40 MLOAD PUSH32 0xFFFFFFFF00000000000000000000000000000000000000000000000000000000 PUSH1 0xE0 DUP9 SWAP1 SHL AND DUP2 MSTORE PUSH20 0xFFFFFFFFFFFFFFFFFFFFFFFFFFFFFFFFFFFFFFFF SWAP6 DUP7 AND PUSH1 0x4 DUP3 ADD MSTORE SWAP5 SWAP1 SWAP4 AND PUSH1 0x24 DUP6 ADD MSTORE POP PUSH1 0x20 SWAP1 SWAP2 MUL ADD CALLDATALOAD PUSH1 0x44 DUP3 ADD MSTORE PUSH1 0x64 ADD PUSH1 0x0 PUSH1 0x40 MLOAD DUP1 DUP4 SUB DUP2 PUSH1 0x0 DUP8 DUP1 EXTCODESIZE ISZERO DUP1 ISZERO PUSH2 0xBBA JUMPI PUSH1 0x0 DUP1 REVERT JUMPDEST POP GAS CALL ISZERO DUP1 ISZERO PUSH2 0xBCE JUMPI RETURNDATASIZE PUSH1 0x0 DUP1 RETURNDATACOPY RETURNDATASIZE PUSH1 0x0 REVERT JUMPDEST POP POP POP POP DUP1 PUSH1 0x1 ADD SWAP1 POP PUSH2 0xABA JUMP JUMPDEST PUSH2 0xBF8 PUSH2 0xBE8 PUSH2 0xDDC JUMP JUMPDEST DUP3 PUSH2 0xBF1 PUSH2 0xDE6 JUMP JUMPDEST SWAP2 SWAP1 PUSH2 0xF15 JUMP JUMPDEST POP JUMP JUMPDEST PUSH2 0xC06 PUSH2 0x841 PUSH2 0xDDC JUMP JUMPDEST DUP3 DUP2 DUP2 EQ PUSH2 0xC40 JUMPI PUSH1 0x40 MLOAD PUSH32 0x6582533600000000000000000000000000000000000000000000000000000000 DUP2 MSTORE PUSH1 0x4 ADD PUSH1 0x40 MLOAD DUP1 SWAP2 SUB SWAP1 REVERT JUMPDEST PUSH1 0x0 JUMPDEST DUP2 DUP2 LT ISZERO PUSH2 0xCB2 JUMPI PUSH2 0xCAA DUP5 DUP5 DUP4 DUP2 DUP2 LT PUSH2 0xC60 JUMPI PUSH2 0xC60 PUSH2 0x191B JUMP JUMPDEST SWAP1 POP PUSH1 0x20 MUL ADD CALLDATALOAD DUP8 DUP8 DUP5 DUP2 DUP2 LT PUSH2 0xC79 JUMPI PUSH2 0xC79 PUSH2 0x191B JUMP JUMPDEST SWAP1 POP PUSH1 0x20 MUL ADD PUSH1 0x20 DUP2 ADD SWAP1 PUSH2 0xC8E SWAP2 SWAP1 PUSH2 0x170C JUMP JUMPDEST PUSH20 0xFFFFFFFFFFFFFFFFFFFFFFFFFFFFFFFFFFFFFFFF AND SWAP1 PUSH2 0x102A JUMP JUMPDEST PUSH1 0x1 ADD PUSH2 0xC43 JUMP JUMPDEST POP POP POP POP POP POP JUMP JUMPDEST PUSH1 0x0 DUP1 PUSH2 0x368 PUSH1 0x1 PUSH32 0xCA9D3E17F264B0F3984E2634E94ADB37FA3E6A8103F06AEAE6FA59E21C769F5E PUSH2 0x18E1 JUMP JUMPDEST PUSH1 0x0 PUSH29 0x100000000000000000000000000000000000000000000000000000000 PUSH32 0xFFFFFFFF00000000000000000000000000000000000000000000000000000000 DUP4 AND ADD PUSH2 0xD38 JUMPI POP PUSH1 0x0 PUSH2 0x368 JUMP JUMPDEST PUSH32 0xFE00365900000000000000000000000000000000000000000000000000000000 PUSH32 0xFFFFFFFF00000000000000000000000000000000000000000000000000000000 DUP4 AND ADD PUSH2 0xD89 JUMPI POP PUSH1 0x1 PUSH2 0x368 JUMP JUMPDEST POP PUSH32 0xFFFFFFFF00000000000000000000000000000000000000000000000000000000 AND PUSH1 0x0 SWAP1 DUP2 MSTORE PUSH1 0x20 SWAP2 SWAP1 SWAP2 MSTORE PUSH1 0x40 SWAP1 KECCAK256 SLOAD PUSH1 0xFF AND SWAP1 JUMP JUMPDEST PUSH1 0x0 DUP3 PUSH2 0xDD0 DUP7 DUP7 DUP6 PUSH2 0x1184 JUMP JUMPDEST EQ SWAP1 POP JUMPDEST SWAP5 SWAP4 POP POP POP POP JUMP JUMPDEST PUSH1 0x0 PUSH2 0xA60 PUSH2 0x11C6 JUMP JUMPDEST PUSH1 0x0 DUP1 PUSH2 0x368 PUSH1 0x1 PUSH32 0xC9ED16F33AB3A66C84BFD83099CCB2A8845871E2E1C1928F63797152F0FD54CD PUSH2 0x18E1 JUMP JUMPDEST DUP2 SLOAD PUSH20 0xFFFFFFFFFFFFFFFFFFFFFFFFFFFFFFFFFFFFFFFF DUP3 DUP2 AND SWAP2 AND EQ PUSH2 0xE7F JUMPI PUSH1 0x40 MLOAD PUSH32 0x2EF4875E00000000000000000000000000000000000000000000000000000000 DUP2 MSTORE PUSH20 0xFFFFFFFFFFFFFFFFFFFFFFFFFFFFFFFFFFFFFFFF DUP3 AND PUSH1 0x4 DUP3 ADD MSTORE PUSH1 0x24 ADD PUSH2 0x3B3 JUMP JUMPDEST POP POP JUMP JUMPDEST PUSH1 0x40 DUP1 MLOAD PUSH20 0xFFFFFFFFFFFFFFFFFFFFFFFFFFFFFFFFFFFFFFFF DUP5 AND PUSH1 0x24 DUP3 ADD MSTORE PUSH1 0x44 DUP1 DUP3 ADD DUP5 SWAP1 MSTORE DUP3 MLOAD DUP1 DUP4 SUB SWAP1 SWAP2 ADD DUP2 MSTORE PUSH1 0x64 SWAP1 SWAP2 ADD SWAP1 SWAP2 MSTORE PUSH1 0x20 DUP2 ADD DUP1 MLOAD PUSH28 0xFFFFFFFFFFFFFFFFFFFFFFFFFFFFFFFFFFFFFFFFFFFFFFFFFFFFFFFF AND PUSH32 0xA9059CBB00000000000000000000000000000000000000000000000000000000 OR SWAP1 MSTORE PUSH2 0xF10 SWAP1 DUP5 SWAP1 PUSH2 0x130D JUMP JUMPDEST POP POP POP JUMP JUMPDEST DUP3 SLOAD PUSH20 0xFFFFFFFFFFFFFFFFFFFFFFFFFFFFFFFFFFFFFFFF SWAP1 DUP2 AND SWAP1 DUP4 AND DUP2 EQ PUSH2 0xF82 JUMPI PUSH1 0x40 MLOAD PUSH32 0x2EF4875E00000000000000000000000000000000000000000000000000000000 DUP2 MSTORE PUSH20 0xFFFFFFFFFFFFFFFFFFFFFFFFFFFFFFFFFFFFFFFF DUP5 AND PUSH1 0x4 DUP3 ADD MSTORE PUSH1 0x24 ADD PUSH2 0x3B3 JUMP JUMPDEST DUP2 PUSH20 0xFFFFFFFFFFFFFFFFFFFFFFFFFFFFFFFFFFFFFFFF AND DUP2 PUSH20 0xFFFFFFFFFFFFFFFFFFFFFFFFFFFFFFFFFFFFFFFF AND EQ PUSH2 0x1024 JUMPI DUP4 SLOAD PUSH32 0xFFFFFFFFFFFFFFFFFFFFFFFF0000000000000000000000000000000000000000 AND PUSH20 0xFFFFFFFFFFFFFFFFFFFFFFFFFFFFFFFFFFFFFFFF DUP4 DUP2 AND SWAP2 DUP3 OR DUP7 SSTORE PUSH1 0x40 MLOAD SWAP1 DUP4 AND SWAP1 PUSH32 0x8BE0079C531659141344CD1FD0A4F28419497F9722A3DAAFE3B4186F6B6457E0 SWAP1 PUSH1 0x0 SWAP1 LOG3 JUMPDEST POP POP POP POP JUMP JUMPDEST DUP1 SELFBALANCE LT ISZERO PUSH2 0x1094 JUMPI PUSH1 0x40 MLOAD PUSH32 0x8C379A000000000000000000000000000000000000000000000000000000000 DUP2 MSTORE PUSH1 0x20 PUSH1 0x4 DUP3 ADD MSTORE PUSH1 0x1D PUSH1 0x24 DUP3 ADD MSTORE PUSH32 0x416464726573733A20696E73756666696369656E742062616C616E6365000000 PUSH1 0x44 DUP3 ADD MSTORE PUSH1 0x64 ADD PUSH2 0x3B3 JUMP JUMPDEST PUSH1 0x0 DUP3 PUSH20 0xFFFFFFFFFFFFFFFFFFFFFFFFFFFFFFFFFFFFFFFF AND DUP3 PUSH1 0x40 MLOAD PUSH1 0x0 PUSH1 0x40 MLOAD DUP1 DUP4 SUB DUP2 DUP6 DUP8 GAS CALL SWAP3 POP POP POP RETURNDATASIZE DUP1 PUSH1 0x0 DUP2 EQ PUSH2 0x10EE JUMPI PUSH1 0x40 MLOAD SWAP2 POP PUSH1 0x1F NOT PUSH1 0x3F RETURNDATASIZE ADD AND DUP3 ADD PUSH1 0x40 MSTORE RETURNDATASIZE DUP3 MSTORE RETURNDATASIZE PUSH1 0x0 PUSH1 0x20 DUP5 ADD RETURNDATACOPY PUSH2 0x10F3 JUMP JUMPDEST PUSH1 0x60 SWAP2 POP JUMPDEST POP POP SWAP1 POP DUP1 PUSH2 0xF10 JUMPI PUSH1 0x40 MLOAD PUSH32 0x8C379A000000000000000000000000000000000000000000000000000000000 DUP2 MSTORE PUSH1 0x20 PUSH1 0x4 DUP3 ADD MSTORE PUSH1 0x3A PUSH1 0x24 DUP3 ADD MSTORE PUSH32 0x416464726573733A20756E61626C6520746F2073656E642076616C75652C2072 PUSH1 0x44 DUP3 ADD MSTORE PUSH32 0x6563697069656E74206D61792068617665207265766572746564000000000000 PUSH1 0x64 DUP3 ADD MSTORE PUSH1 0x84 ADD PUSH2 0x3B3 JUMP JUMPDEST PUSH1 0x0 DUP2 DUP2 JUMPDEST DUP5 DUP2 LT ISZERO PUSH2 0x11BD JUMPI PUSH2 0x11B3 DUP3 DUP8 DUP8 DUP5 DUP2 DUP2 LT PUSH2 0x11A7 JUMPI PUSH2 0x11A7 PUSH2 0x191B JUMP JUMPDEST SWAP1 POP PUSH1 0x20 MUL ADD CALLDATALOAD PUSH2 0x141C JUMP JUMPDEST SWAP2 POP PUSH1 0x1 ADD PUSH2 0x1189 JUMP JUMPDEST POP SWAP5 SWAP4 POP POP POP POP JUMP JUMPDEST PUSH1 0x0 CALLER ORIGIN EQ DUP1 PUSH2 0x11D6 JUMPI POP PUSH1 0x18 CALLDATASIZE LT JUMPDEST ISZERO PUSH2 0x11E0 JUMPI POP CALLER SWAP1 JUMP JUMPDEST PUSH32 0xFFFFFFFFFFFFFFFFFFFFFFFFFFFFFFFFFFFFFFFFFFFFFFFFFFFFFFFFFFFFFFEC CALLDATASIZE ADD CALLDATALOAD PUSH1 0x60 SHR PUSH32 0x0 PUSH20 0xFFFFFFFFFFFFFFFFFFFFFFFFFFFFFFFFFFFFFFFF AND CALLER EQ DUP1 PUSH2 0x12FC JUMPI POP PUSH1 0x40 MLOAD PUSH32 0x8929A8CA00000000000000000000000000000000000000000000000000000000 DUP2 MSTORE PUSH20 0xFFFFFFFFFFFFFFFFFFFFFFFFFFFFFFFFFFFFFFFF DUP3 DUP2 AND PUSH1 0x4 DUP4 ADD MSTORE CALLER PUSH1 0x24 DUP4 ADD MSTORE PUSH32 0x0 AND SWAP1 PUSH4 0x8929A8CA SWAP1 PUSH1 0x44 ADD PUSH1 0x20 PUSH1 0x40 MLOAD DUP1 DUP4 SUB DUP2 DUP7 GAS STATICCALL ISZERO DUP1 ISZERO PUSH2 0x12D8 JUMPI RETURNDATASIZE PUSH1 0x0 DUP1 RETURNDATACOPY RETURNDATASIZE PUSH1 0x0 REVERT JUMPDEST POP POP POP POP PUSH1 0x40 MLOAD RETURNDATASIZE PUSH1 0x1F NOT PUSH1 0x1F DUP3 ADD AND DUP3 ADD DUP1 PUSH1 0x40 MSTORE POP DUP2 ADD SWAP1 PUSH2 0x12FC SWAP2 SWAP1 PUSH2 0x194A JUMP JUMPDEST ISZERO PUSH2 0x1306 JUMPI SWAP2 SWAP1 POP JUMP JUMPDEST CALLER SWAP2 POP POP SWAP1 JUMP JUMPDEST PUSH1 0x0 PUSH2 0x136F DUP3 PUSH1 0x40 MLOAD DUP1 PUSH1 0x40 ADD PUSH1 0x40 MSTORE DUP1 PUSH1 0x20 DUP2 MSTORE PUSH1 0x20 ADD PUSH32 0x5361666545524332303A206C6F772D6C6576656C2063616C6C206661696C6564 DUP2 MSTORE POP DUP6 PUSH20 0xFFFFFFFFFFFFFFFFFFFFFFFFFFFFFFFFFFFFFFFF AND PUSH2 0x1448 SWAP1 SWAP3 SWAP2 SWAP1 PUSH4 0xFFFFFFFF AND JUMP JUMPDEST SWAP1 POP DUP1 MLOAD PUSH1 0x0 EQ DUP1 PUSH2 0x1390 JUMPI POP DUP1 DUP1 PUSH1 0x20 ADD SWAP1 MLOAD DUP2 ADD SWAP1 PUSH2 0x1390 SWAP2 SWAP1 PUSH2 0x194A JUMP JUMPDEST PUSH2 0xF10 JUMPI PUSH1 0x40 MLOAD PUSH32 0x8C379A000000000000000000000000000000000000000000000000000000000 DUP2 MSTORE PUSH1 0x20 PUSH1 0x4 DUP3 ADD MSTORE PUSH1 0x2A PUSH1 0x24 DUP3 ADD MSTORE PUSH32 0x5361666545524332303A204552433230206F7065726174696F6E20646964206E PUSH1 0x44 DUP3 ADD MSTORE PUSH32 0x6F74207375636365656400000000000000000000000000000000000000000000 PUSH1 0x64 DUP3 ADD MSTORE PUSH1 0x84 ADD PUSH2 0x3B3 JUMP JUMPDEST PUSH1 0x0 DUP2 DUP4 LT PUSH2 0x1438 JUMPI PUSH1 0x0 DUP3 DUP2 MSTORE PUSH1 0x20 DUP5 SWAP1 MSTORE PUSH1 0x40 SWAP1 KECCAK256 PUSH2 0x82F JUMP JUMPDEST POP PUSH1 0x0 SWAP2 DUP3 MSTORE PUSH1 0x20 MSTORE PUSH1 0x40 SWAP1 KECCAK256 SWAP1 JUMP JUMPDEST PUSH1 0x60 PUSH2 0xDD4 DUP5 DUP5 PUSH1 0x0 DUP6 DUP6 PUSH1 0x0 DUP1 DUP7 PUSH20 0xFFFFFFFFFFFFFFFFFFFFFFFFFFFFFFFFFFFFFFFF AND DUP6 DUP8 PUSH1 0x40 MLOAD PUSH2 0x147C SWAP2 SWAP1 PUSH2 0x1990 JUMP JUMPDEST PUSH1 0x0 PUSH1 0x40 MLOAD DUP1 DUP4 SUB DUP2 DUP6 DUP8 GAS CALL SWAP3 POP POP POP RETURNDATASIZE DUP1 PUSH1 0x0 DUP2 EQ PUSH2 0x14B9 JUMPI PUSH1 0x40 MLOAD SWAP2 POP PUSH1 0x1F NOT PUSH1 0x3F RETURNDATASIZE ADD AND DUP3 ADD PUSH1 0x40 MSTORE RETURNDATASIZE DUP3 MSTORE RETURNDATASIZE PUSH1 0x0 PUSH1 0x20 DUP5 ADD RETURNDATACOPY PUSH2 0x14BE JUMP JUMPDEST PUSH1 0x60 SWAP2 POP JUMPDEST POP SWAP2 POP SWAP2 POP PUSH2 0x14CF DUP8 DUP4 DUP4 DUP8 PUSH2 0x14DA JUMP JUMPDEST SWAP8 SWAP7 POP POP POP POP POP POP POP JUMP JUMPDEST PUSH1 0x60 DUP4 ISZERO PUSH2 0x1570 JUMPI DUP3 MLOAD PUSH1 0x0 SUB PUSH2 0x1569 JUMPI PUSH20 0xFFFFFFFFFFFFFFFFFFFFFFFFFFFFFFFFFFFFFFFF DUP6 AND EXTCODESIZE PUSH2 0x1569 JUMPI PUSH1 0x40 MLOAD PUSH32 0x8C379A000000000000000000000000000000000000000000000000000000000 DUP2 MSTORE PUSH1 0x20 PUSH1 0x4 DUP3 ADD MSTORE PUSH1 0x1D PUSH1 0x24 DUP3 ADD MSTORE PUSH32 0x416464726573733A2063616C6C20746F206E6F6E2D636F6E7472616374000000 PUSH1 0x44 DUP3 ADD MSTORE PUSH1 0x64 ADD PUSH2 0x3B3 JUMP JUMPDEST POP DUP2 PUSH2 0xDD4 JUMP JUMPDEST PUSH2 0xDD4 DUP4 DUP4 DUP2 MLOAD ISZERO PUSH2 0x1585 JUMPI DUP2 MLOAD DUP1 DUP4 PUSH1 0x20 ADD REVERT JUMPDEST DUP1 PUSH1 0x40 MLOAD PUSH32 0x8C379A000000000000000000000000000000000000000000000000000000000 DUP2 MSTORE PUSH1 0x4 ADD PUSH2 0x3B3 SWAP2 SWAP1 PUSH2 0x19AC JUMP JUMPDEST PUSH1 0x0 PUSH1 0x20 DUP3 DUP5 SUB SLT ISZERO PUSH2 0x15CB JUMPI PUSH1 0x0 DUP1 REVERT JUMPDEST DUP2 CALLDATALOAD PUSH32 0xFFFFFFFF00000000000000000000000000000000000000000000000000000000 DUP2 AND DUP2 EQ PUSH2 0x82F JUMPI PUSH1 0x0 DUP1 REVERT JUMPDEST PUSH20 0xFFFFFFFFFFFFFFFFFFFFFFFFFFFFFFFFFFFFFFFF DUP2 AND DUP2 EQ PUSH2 0xBF8 JUMPI PUSH1 0x0 DUP1 REVERT JUMPDEST PUSH1 0x0 DUP1 PUSH1 0x40 DUP4 DUP6 SUB SLT ISZERO PUSH2 0x1630 JUMPI PUSH1 0x0 DUP1 REVERT JUMPDEST DUP3 CALLDATALOAD SWAP2 POP PUSH1 0x20 DUP4 ADD CALLDATALOAD PUSH2 0x1642 DUP2 PUSH2 0x15FB JUMP JUMPDEST DUP1 SWAP2 POP POP SWAP3 POP SWAP3 SWAP1 POP JUMP JUMPDEST PUSH1 0x0 DUP1 DUP4 PUSH1 0x1F DUP5 ADD SLT PUSH2 0x165F JUMPI PUSH1 0x0 DUP1 REVERT JUMPDEST POP DUP2 CALLDATALOAD PUSH8 0xFFFFFFFFFFFFFFFF DUP2 GT ISZERO PUSH2 0x1677 JUMPI PUSH1 0x0 DUP1 REVERT JUMPDEST PUSH1 0x20 DUP4 ADD SWAP2 POP DUP4 PUSH1 0x20 DUP3 PUSH1 0x5 SHL DUP6 ADD ADD GT ISZERO PUSH2 0x1692 JUMPI PUSH1 0x0 DUP1 REVERT JUMPDEST SWAP3 POP SWAP3 SWAP1 POP JUMP JUMPDEST PUSH1 0x0 DUP1 PUSH1 0x0 DUP1 PUSH1 0x0 DUP1 PUSH1 0xA0 DUP8 DUP10 SUB SLT ISZERO PUSH2 0x16B2 JUMPI PUSH1 0x0 DUP1 REVERT JUMPDEST DUP7 CALLDATALOAD SWAP6 POP PUSH1 0x20 DUP8 ADD CALLDATALOAD PUSH2 0x16C4 DUP2 PUSH2 0x15FB JUMP JUMPDEST SWAP5 POP PUSH1 0x40 DUP8 ADD CALLDATALOAD SWAP4 POP PUSH1 0x60 DUP8 ADD CALLDATALOAD SWAP3 POP PUSH1 0x80 DUP8 ADD CALLDATALOAD PUSH8 0xFFFFFFFFFFFFFFFF DUP2 GT ISZERO PUSH2 0x16EE JUMPI PUSH1 0x0 DUP1 REVERT JUMPDEST PUSH2 0x16FA DUP10 DUP3 DUP11 ADD PUSH2 0x164D JUMP JUMPDEST SWAP8 SWAP11 SWAP7 SWAP10 POP SWAP5 SWAP8 POP SWAP3 SWAP6 SWAP4 SWAP5 SWAP3 POP POP POP JUMP JUMPDEST PUSH1 0x0 PUSH1 0x20 DUP3 DUP5 SUB SLT ISZERO PUSH2 0x171E JUMPI PUSH1 0x0 DUP1 REVERT JUMPDEST DUP2 CALLDATALOAD PUSH2 0x82F DUP2 PUSH2 0x15FB JUMP JUMPDEST PUSH1 0x0 PUSH1 0x20 DUP3 DUP5 SUB SLT ISZERO PUSH2 0x173B JUMPI PUSH1 0x0 DUP1 REVERT JUMPDEST POP CALLDATALOAD SWAP2 SWAP1 POP JUMP JUMPDEST PUSH1 0x0 DUP1 PUSH1 0x0 PUSH1 0x60 DUP5 DUP7 SUB SLT ISZERO PUSH2 0x1757 JUMPI PUSH1 0x0 DUP1 REVERT JUMPDEST DUP4 CALLDATALOAD SWAP3 POP PUSH1 0x20 DUP5 ADD CALLDATALOAD PUSH2 0x1769 DUP2 PUSH2 0x15FB JUMP JUMPDEST SWAP3 SWAP6 SWAP3 SWAP5 POP POP POP PUSH1 0x40 SWAP2 SWAP1 SWAP2 ADD CALLDATALOAD SWAP1 JUMP JUMPDEST PUSH1 0x20 DUP2 ADD PUSH1 0x5 DUP4 LT PUSH2 0x17B5 JUMPI PUSH32 0x4E487B7100000000000000000000000000000000000000000000000000000000 PUSH1 0x0 MSTORE PUSH1 0x21 PUSH1 0x4 MSTORE PUSH1 0x24 PUSH1 0x0 REVERT JUMPDEST SWAP2 SWAP1 MSTORE SWAP1 JUMP JUMPDEST PUSH1 0x0 DUP1 PUSH1 0x0 DUP1 PUSH1 0x0 DUP1 PUSH1 0x60 DUP8 DUP10 SUB SLT ISZERO PUSH2 0x17D4 JUMPI PUSH1 0x0 DUP1 REVERT JUMPDEST DUP7 CALLDATALOAD PUSH8 0xFFFFFFFFFFFFFFFF DUP1 DUP3 GT ISZERO PUSH2 0x17EC JUMPI PUSH1 0x0 DUP1 REVERT JUMPDEST PUSH2 0x17F8 DUP11 DUP4 DUP12 ADD PUSH2 0x164D JUMP JUMPDEST SWAP1 SWAP9 POP SWAP7 POP PUSH1 0x20 DUP10 ADD CALLDATALOAD SWAP2 POP DUP1 DUP3 GT ISZERO PUSH2 0x1811 JUMPI PUSH1 0x0 DUP1 REVERT JUMPDEST PUSH2 0x181D DUP11 DUP4 DUP12 ADD PUSH2 0x164D JUMP JUMPDEST SWAP1 SWAP7 POP SWAP5 POP PUSH1 0x40 DUP10 ADD CALLDATALOAD SWAP2 POP DUP1 DUP3 GT ISZERO PUSH2 0x1836 JUMPI PUSH1 0x0 DUP1 REVERT JUMPDEST POP PUSH2 0x16FA DUP10 DUP3 DUP11 ADD PUSH2 0x164D JUMP JUMPDEST PUSH1 0x0 DUP1 PUSH1 0x0 DUP1 PUSH1 0x80 DUP6 DUP8 SUB SLT ISZERO PUSH2 0x1859 JUMPI PUSH1 0x0 DUP1 REVERT JUMPDEST POP POP DUP3 CALLDATALOAD SWAP5 PUSH1 0x20 DUP5 ADD CALLDATALOAD SWAP5 POP PUSH1 0x40 DUP5 ADD CALLDATALOAD SWAP4 PUSH1 0x60 ADD CALLDATALOAD SWAP3 POP SWAP1 POP JUMP JUMPDEST PUSH1 0x0 DUP1 PUSH1 0x0 DUP1 PUSH1 0x40 DUP6 DUP8 SUB SLT ISZERO PUSH2 0x188B JUMPI PUSH1 0x0 DUP1 REVERT JUMPDEST DUP5 CALLDATALOAD PUSH8 0xFFFFFFFFFFFFFFFF DUP1 DUP3 GT ISZERO PUSH2 0x18A3 JUMPI PUSH1 0x0 DUP1 REVERT JUMPDEST PUSH2 0x18AF DUP9 DUP4 DUP10 ADD PUSH2 0x164D JUMP JUMPDEST SWAP1 SWAP7 POP SWAP5 POP PUSH1 0x20 DUP8 ADD CALLDATALOAD SWAP2 POP DUP1 DUP3 GT ISZERO PUSH2 0x18C8 JUMPI PUSH1 0x0 DUP1 REVERT JUMPDEST POP PUSH2 0x18D5 DUP8 DUP3 DUP9 ADD PUSH2 0x164D JUMP JUMPDEST SWAP6 SWAP9 SWAP5 SWAP8 POP SWAP6 POP POP POP POP JUMP JUMPDEST DUP2 DUP2 SUB DUP2 DUP2 GT ISZERO PUSH2 0x368 JUMPI PUSH32 0x4E487B7100000000000000000000000000000000000000000000000000000000 PUSH1 0x0 MSTORE PUSH1 0x11 PUSH1 0x4 MSTORE PUSH1 0x24 PUSH1 0x0 REVERT JUMPDEST PUSH32 0x4E487B7100000000000000000000000000000000000000000000000000000000 PUSH1 0x0 MSTORE PUSH1 0x32 PUSH1 0x4 MSTORE PUSH1 0x24 PUSH1 0x0 REVERT JUMPDEST PUSH1 0x0 PUSH1 0x20 DUP3 DUP5 SUB SLT ISZERO PUSH2 0x195C JUMPI PUSH1 0x0 DUP1 REVERT JUMPDEST DUP2 MLOAD DUP1 ISZERO ISZERO DUP2 EQ PUSH2 0x82F JUMPI PUSH1 0x0 DUP1 REVERT JUMPDEST PUSH1 0x0 JUMPDEST DUP4 DUP2 LT ISZERO PUSH2 0x1987 JUMPI DUP2 DUP2 ADD MLOAD DUP4 DUP3 ADD MSTORE PUSH1 0x20 ADD PUSH2 0x196F JUMP JUMPDEST POP POP PUSH1 0x0 SWAP2 ADD MSTORE JUMP JUMPDEST PUSH1 0x0 DUP3 MLOAD PUSH2 0x19A2 DUP2 DUP5 PUSH1 0x20 DUP8 ADD PUSH2 0x196C JUMP JUMPDEST SWAP2 SWAP1 SWAP2 ADD SWAP3 SWAP2 POP POP JUMP JUMPDEST PUSH1 0x20 DUP2 MSTORE PUSH1 0x0 DUP3 MLOAD DUP1 PUSH1 0x20 DUP5 ADD MSTORE PUSH2 0x19CB DUP2 PUSH1 0x40 DUP6 ADD PUSH1 0x20 DUP8 ADD PUSH2 0x196C JUMP JUMPDEST PUSH1 0x1F ADD PUSH32 0xFFFFFFFFFFFFFFFFFFFFFFFFFFFFFFFFFFFFFFFFFFFFFFFFFFFFFFFFFFFFFFE0 AND SWAP2 SWAP1 SWAP2 ADD PUSH1 0x40 ADD SWAP3 SWAP2 POP POP JUMP INVALID LOG2 PUSH5 0x6970667358 0x22 SLT KECCAK256 PUSH15 0xE7AAB44C30204E4F7B7D9E66B46757 MULMOD CALLVALUE GAS PUSH7 0xAEE48233CB2F83 PUSH30 0x8FB9F40664736F6C63430008160033000000000000000000000000000000 "},"gasEstimates":{"creation":{"codeDepositCost":"1341400","executionCost":"infinite","totalCost":"infinite"},"external":{"OPERATOR_ROLE()":"261","POINTS_CONTRACT()":"infinite","canClaim(uint256,address,uint256)":"11421","claim(uint256,address,uint256,bytes32,bytes32[])":"infinite","claimEpochs(uint256)":"11049","claimed(uint256,address)":"2651","currentEpochId()":"2317","forwarderRegistry()":"infinite","isTrustedForwarder(address)":"infinite","owner()":"infinite","recoverERC20s(address[],address[],uint256[])":"infinite","recoverERC721s(address[],address[],uint256[])":"infinite","recoverETH(address[],uint256[])":"infinite","setMerkleRoot(bytes32,uint256,uint256,uint256)":"infinite","supportsInterface(bytes4)":"infinite","transferOwnership(address)":"infinite"},"internal":{"_msgData()":"infinite","_msgSender()":"infinite"}},"methodIdentifiers":{"OPERATOR_ROLE()":"f5b541a6","POINTS_CONTRACT()":"2d4c2f93","canClaim(uint256,address,uint256)":"7124094f","claim(uint256,address,uint256,bytes32,bytes32[])":"2035a4dd","claimEpochs(uint256)":"5c9a509b","claimed(uint256,address)":"120aa877","currentEpochId()":"eacdc5ff","forwarderRegistry()":"2b4c9f16","isTrustedForwarder(address)":"572b6c05","owner()":"8da5cb5b","recoverERC20s(address[],address[],uint256[])":"73c8a958","recoverERC721s(address[],address[],uint256[])":"c3666c36","recoverETH(address[],uint256[])":"f7ba94bd","setMerkleRoot(bytes32,uint256,uint256,uint256)":"833d47b6","supportsInterface(bytes4)":"01ffc9a7","transferOwnership(address)":"f2fde38b"}},"storageLayout":{"storage":[{"astId":2798,"contract":"contracts/payment/LimitedOCPointsMerkleClaim.sol:LimitedOCPointsMerkleClaim","label":"currentEpochId","offset":0,"slot":"0","type":"t_uint256"},{"astId":2804,"contract":"contracts/payment/LimitedOCPointsMerkleClaim.sol:LimitedOCPointsMerkleClaim","label":"claimEpochs","offset":0,"slot":"1","type":"t_mapping(t_uint256,t_struct(ClaimEpoch)2795_storage)"},{"astId":2811,"contract":"contracts/payment/LimitedOCPointsMerkleClaim.sol:LimitedOCPointsMerkleClaim","label":"claimed","offset":0,"slot":"2","type":"t_mapping(t_uint256,t_mapping(t_address,t_bool))"}],"types":{"t_address":{"encoding":"inplace","label":"address","numberOfBytes":"20"},"t_bool":{"encoding":"inplace","label":"bool","numberOfBytes":"1"},"t_bytes32":{"encoding":"inplace","label":"bytes32","numberOfBytes":"32"},"t_mapping(t_address,t_bool)":{"encoding":"mapping","key":"t_address","label":"mapping(address => bool)","numberOfBytes":"32","value":"t_bool"},"t_mapping(t_uint256,t_mapping(t_address,t_bool))":{"encoding":"mapping","key":"t_uint256","label":"mapping(uint256 => mapping(address => bool))","numberOfBytes":"32","value":"t_mapping(t_address,t_bool)"},"t_mapping(t_uint256,t_struct(ClaimEpoch)2795_storage)":{"encoding":"mapping","key":"t_uint256","label":"mapping(uint256 => struct LimitedOCPointsMerkleClaim.ClaimEpoch)","numberOfBytes":"32","value":"t_struct(ClaimEpoch)2795_storage"},"t_struct(ClaimEpoch)2795_storage":{"encoding":"inplace","label":"struct LimitedOCPointsMerkleClaim.ClaimEpoch","members":[{"astId":2786,"contract":"contracts/payment/LimitedOCPointsMerkleClaim.sol:LimitedOCPointsMerkleClaim","label":"merkleRoot","offset":0,"slot":"0","type":"t_bytes32"},{"astId":2788,"contract":"contracts/payment/LimitedOCPointsMerkleClaim.sol:LimitedOCPointsMerkleClaim","label":"totalAmount","offset":0,"slot":"1","type":"t_uint256"},{"astId":2790,"contract":"contracts/payment/LimitedOCPointsMerkleClaim.sol:LimitedOCPointsMerkleClaim","label":"amountLeft","offset":0,"slot":"2","type":"t_uint256"},{"astId":2792,"contract":"contracts/payment/LimitedOCPointsMerkleClaim.sol:LimitedOCPointsMerkleClaim","label":"startTime","offset":0,"slot":"3","type":"t_uint256"},{"astId":2794,"contract":"contracts/payment/LimitedOCPointsMerkleClaim.sol:LimitedOCPointsMerkleClaim","label":"endTime","offset":0,"slot":"4","type":"t_uint256"}],"numberOfBytes":"160"},"t_uint256":{"encoding":"inplace","label":"uint256","numberOfBytes":"32"}}},"userdoc":{"errors":{"AlreadyClaimed(address,uint256,bytes32,uint256)":[{"notice":"Thrown when trying to claim the same allocation more than once."}],"ClaimEpochNotFound(uint256)":[{"notice":"Thrown when trying to access a non-existent epoch."}],"ClaimingEpochNotActive(uint256,uint256,uint256)":[{"notice":"Thrown when trying to claim outside the valid time epoch."}],"IllegalInterfaceId()":[{"notice":"Thrown when setting the illegal interfaceId 0xffffffff."}],"InconsistentArrayLengths()":[{"notice":"Thrown when the multiple related arrays have different lengths."}],"InsufficientPoolAmount(uint256,uint256)":[{"notice":"Thrown when the pool doesn't have enough tokens for the claim."}],"InvalidClaimWindow(uint256,uint256)":[{"notice":"Thrown when the start time is not before the end time."}],"InvalidProof(address,uint256,bytes32,uint256)":[{"notice":"Thrown when a proof cannot be verified."}],"InvalidRewardContractAddress(address)":[{"notice":"Thrown when the reward contract address is invalid."}],"NotContractOwner(address)":[{"notice":"Thrown when an account is not the contract owner but is required to."}]},"events":{"MerkleRootSet(uint256,bytes32,uint256,uint256,uint256)":{"notice":"Emitted when a new merkle root is set for an epoch."},"OwnershipTransferred(address,address)":{"notice":"Emitted when the contract ownership changes."},"RewardClaimed(uint256,address,uint256,uint256)":{"notice":"Emitted when a reward is claimed."}},"kind":"user","methods":{"OPERATOR_ROLE()":{"notice":"The role identifier for the operator role."},"POINTS_CONTRACT()":{"notice":"A reference to the reward contract."},"canClaim(uint256,address,uint256)":{"notice":"Checks if a user can claim rewards for a given epoch."},"claim(uint256,address,uint256,bytes32,bytes32[])":{"notice":"Claims rewards for a given recipient address."},"claimEpochs(uint256)":{"notice":"Mapping from epoch ID to claiming epoch data."},"claimed(uint256,address)":{"notice":"Mapping from epoch ID to user address to claimed status."},"constructor":{"notice":"Constructor"},"currentEpochId()":{"notice":"Current epoch counter."},"isTrustedForwarder(address)":{"notice":"Checks whether a forwarder is trusted."},"owner()":{"notice":"Gets the address of the contract owner."},"recoverERC20s(address[],address[],uint256[])":{"notice":"Extract ERC20 tokens which were accidentally sent to the contract to a list of accounts."},"recoverERC721s(address[],address[],uint256[])":{"notice":"Extract ERC721 tokens which were accidentally sent to the contract to a list of accounts."},"recoverETH(address[],uint256[])":{"notice":"Extract ETH tokens which were accidentally sent to the contract to a list of accounts."},"setMerkleRoot(bytes32,uint256,uint256,uint256)":{"notice":"Sets a new merkle root for a claiming epoch."},"supportsInterface(bytes4)":{"notice":"Returns whether this contract implements a given interface."},"transferOwnership(address)":{"notice":"Sets the address of the new contract owner."}},"notice":"This contract is designed for claiming reward tokens from a limited pool within fixed time epochs.Each epoch has a fixed total amount that gets depleted as users claim their allocations.Claims are based on merkle proofs and are subject to time constraints and pool availability.","version":1}}}}