{"contracts/mocks/payment/LimitedOCPointsMerkleClaimMock.sol":{"LimitedOCPointsMerkleClaimMock":{"abi":[{"inputs":[{"internalType":"address","name":"ecpContractAddress","type":"address"},{"internalType":"contract IForwarderRegistry","name":"forwarderRegistry","type":"address"}],"stateMutability":"nonpayable","type":"constructor"},{"inputs":[{"internalType":"address","name":"recipient","type":"address"},{"internalType":"uint256","name":"amount","type":"uint256"},{"internalType":"bytes32","name":"reasonCode","type":"bytes32"},{"internalType":"uint256","name":"epochId","type":"uint256"}],"name":"AlreadyClaimed","type":"error"},{"inputs":[{"internalType":"uint256","name":"epochId","type":"uint256"}],"name":"ClaimEpochNotFound","type":"error"},{"inputs":[{"internalType":"uint256","name":"currentTime","type":"uint256"},{"internalType":"uint256","name":"startTime","type":"uint256"},{"internalType":"uint256","name":"endTime","type":"uint256"}],"name":"ClaimingEpochNotActive","type":"error"},{"inputs":[],"name":"IllegalInterfaceId","type":"error"},{"inputs":[],"name":"InconsistentArrayLengths","type":"error"},{"inputs":[{"internalType":"uint256","name":"amountRequested","type":"uint256"},{"internalType":"uint256","name":"amountAvailable","type":"uint256"}],"name":"InsufficientPoolAmount","type":"error"},{"inputs":[{"internalType":"uint256","name":"startTime","type":"uint256"},{"internalType":"uint256","name":"endTime","type":"uint256"}],"name":"InvalidClaimWindow","type":"error"},{"inputs":[{"internalType":"address","name":"recipient","type":"address"},{"internalType":"uint256","name":"amount","type":"uint256"},{"internalType":"bytes32","name":"reasonCode","type":"bytes32"},{"internalType":"uint256","name":"epochId","type":"uint256"}],"name":"InvalidProof","type":"error"},{"inputs":[{"internalType":"address","name":"InvalidRewardContractAddress","type":"address"}],"name":"InvalidRewardContractAddress","type":"error"},{"inputs":[{"internalType":"address","name":"account","type":"address"}],"name":"NotContractOwner","type":"error"},{"anonymous":false,"inputs":[{"indexed":true,"internalType":"uint256","name":"epochId","type":"uint256"},{"indexed":false,"internalType":"bytes32","name":"merkleRoot","type":"bytes32"},{"indexed":false,"internalType":"uint256","name":"totalAmount","type":"uint256"},{"indexed":false,"internalType":"uint256","name":"startTime","type":"uint256"},{"indexed":false,"internalType":"uint256","name":"endTime","type":"uint256"}],"name":"MerkleRootSet","type":"event"},{"anonymous":false,"inputs":[{"indexed":true,"internalType":"address","name":"previousOwner","type":"address"},{"indexed":true,"internalType":"address","name":"newOwner","type":"address"}],"name":"OwnershipTransferred","type":"event"},{"anonymous":false,"inputs":[{"indexed":true,"internalType":"uint256","name":"epochId","type":"uint256"},{"indexed":true,"internalType":"address","name":"recipient","type":"address"},{"indexed":false,"internalType":"uint256","name":"amount","type":"uint256"},{"indexed":false,"internalType":"uint256","name":"amountLeft","type":"uint256"}],"name":"RewardClaimed","type":"event"},{"inputs":[],"name":"OPERATOR_ROLE","outputs":[{"internalType":"bytes32","name":"","type":"bytes32"}],"stateMutability":"view","type":"function"},{"inputs":[],"name":"POINTS_CONTRACT","outputs":[{"internalType":"contract IPoints","name":"","type":"address"}],"stateMutability":"view","type":"function"},{"inputs":[],"name":"__msgData","outputs":[{"internalType":"bytes","name":"","type":"bytes"}],"stateMutability":"view","type":"function"},{"inputs":[],"name":"__msgSender","outputs":[{"internalType":"address","name":"","type":"address"}],"stateMutability":"view","type":"function"},{"inputs":[{"internalType":"uint256","name":"epochId","type":"uint256"},{"internalType":"address","name":"recipient","type":"address"},{"internalType":"uint256","name":"amount","type":"uint256"}],"name":"canClaim","outputs":[{"internalType":"enum LimitedOCPointsMerkleClaim.ClaimError","name":"error","type":"uint8"}],"stateMutability":"view","type":"function"},{"inputs":[{"internalType":"uint256","name":"epochId","type":"uint256"},{"internalType":"address","name":"recipient","type":"address"},{"internalType":"uint256","name":"amount","type":"uint256"},{"internalType":"bytes32","name":"reasonCode","type":"bytes32"},{"internalType":"bytes32[]","name":"proof","type":"bytes32[]"}],"name":"claim","outputs":[],"stateMutability":"nonpayable","type":"function"},{"inputs":[{"internalType":"uint256","name":"","type":"uint256"}],"name":"claimEpochs","outputs":[{"internalType":"bytes32","name":"merkleRoot","type":"bytes32"},{"internalType":"uint256","name":"totalAmount","type":"uint256"},{"internalType":"uint256","name":"amountLeft","type":"uint256"},{"internalType":"uint256","name":"startTime","type":"uint256"},{"internalType":"uint256","name":"endTime","type":"uint256"}],"stateMutability":"view","type":"function"},{"inputs":[{"internalType":"uint256","name":"","type":"uint256"},{"internalType":"address","name":"","type":"address"}],"name":"claimed","outputs":[{"internalType":"bool","name":"","type":"bool"}],"stateMutability":"view","type":"function"},{"inputs":[],"name":"currentEpochId","outputs":[{"internalType":"uint256","name":"","type":"uint256"}],"stateMutability":"view","type":"function"},{"inputs":[],"name":"forwarderRegistry","outputs":[{"internalType":"contract IForwarderRegistry","name":"","type":"address"}],"stateMutability":"view","type":"function"},{"inputs":[{"internalType":"address","name":"forwarder","type":"address"}],"name":"isTrustedForwarder","outputs":[{"internalType":"bool","name":"","type":"bool"}],"stateMutability":"view","type":"function"},{"inputs":[],"name":"owner","outputs":[{"internalType":"address","name":"","type":"address"}],"stateMutability":"view","type":"function"},{"inputs":[{"internalType":"address[]","name":"accounts","type":"address[]"},{"internalType":"contract IERC20[]","name":"tokens","type":"address[]"},{"internalType":"uint256[]","name":"amounts","type":"uint256[]"}],"name":"recoverERC20s","outputs":[],"stateMutability":"nonpayable","type":"function"},{"inputs":[{"internalType":"address[]","name":"accounts","type":"address[]"},{"internalType":"contract IERC721[]","name":"contracts","type":"address[]"},{"internalType":"uint256[]","name":"tokenIds","type":"uint256[]"}],"name":"recoverERC721s","outputs":[],"stateMutability":"nonpayable","type":"function"},{"inputs":[{"internalType":"address payable[]","name":"accounts","type":"address[]"},{"internalType":"uint256[]","name":"amounts","type":"uint256[]"}],"name":"recoverETH","outputs":[],"stateMutability":"nonpayable","type":"function"},{"inputs":[{"internalType":"bytes32","name":"merkleRoot","type":"bytes32"},{"internalType":"uint256","name":"totalAmount","type":"uint256"},{"internalType":"uint256","name":"startTime","type":"uint256"},{"internalType":"uint256","name":"endTime","type":"uint256"}],"name":"setMerkleRoot","outputs":[],"stateMutability":"nonpayable","type":"function"},{"inputs":[{"internalType":"bytes4","name":"interfaceId","type":"bytes4"}],"name":"supportsInterface","outputs":[{"internalType":"bool","name":"","type":"bool"}],"stateMutability":"view","type":"function"},{"inputs":[{"internalType":"address","name":"newOwner","type":"address"}],"name":"transferOwnership","outputs":[],"stateMutability":"nonpayable","type":"function"}],"devdoc":{"errors":{"AlreadyClaimed(address,uint256,bytes32,uint256)":[{"params":{"amount":"The amount being claimed.","epochId":"The epoch identifier.","reasonCode":"The reason code for the deposit.","recipient":"The recipient of the claim."}}],"ClaimEpochNotFound(uint256)":[{"params":{"epochId":"The epoch identifier."}}],"ClaimingEpochNotActive(uint256,uint256,uint256)":[{"params":{"currentTime":"The current block timestamp.","endTime":"The end time of the claiming epoch.","startTime":"The start time of the claiming epoch."}}],"InsufficientPoolAmount(uint256,uint256)":[{"params":{"amountAvailable":"The amount available in the pool.","amountRequested":"The amount requested to claim."}}],"InvalidClaimWindow(uint256,uint256)":[{"params":{"endTime":"The end time.","startTime":"The start time."}}],"InvalidProof(address,uint256,bytes32,uint256)":[{"params":{"amount":"The amount being claimed.","epochId":"The epoch identifier.","reasonCode":"The reason code for the deposit.","recipient":"The recipient of the claim."}}],"InvalidRewardContractAddress(address)":[{"params":{"InvalidRewardContractAddress":"The address of the invalid reward contract."}}],"NotContractOwner(address)":[{"params":{"account":"The account that was checked."}}]},"events":{"MerkleRootSet(uint256,bytes32,uint256,uint256,uint256)":{"params":{"endTime":"The end time for claiming.","epochId":"The epoch identifier.","merkleRoot":"The merkle root for this epoch.","startTime":"The start time for claiming.","totalAmount":"The total amount available for claiming."}},"OwnershipTransferred(address,address)":{"params":{"newOwner":"the new contract owner.","previousOwner":"the previous contract owner."}},"RewardClaimed(uint256,address,uint256,uint256)":{"params":{"amount":"The amount claimed.","amountLeft":"The amount left in the pool after this claim.","epochId":"The epoch identifier.","recipient":"The recipient of the claim."}}},"kind":"dev","methods":{"__msgData()":{"returns":{"_0":"The current msg.data value."}},"__msgSender()":{"returns":{"_0":"The current msg.sender value."}},"canClaim(uint256,address,uint256)":{"details":"Returns ClaimError.ClaimEpochNotFound if the epoch doesn't exist.Returns ClaimError.ClaimingEpochNotActive if the current time is outside the claiming epoch.Returns ClaimError.AlreadyClaimed if the user has already claimed for this epoch.Returns ClaimError.InsufficientPoolAmount if the pool doesn't have enough tokens.Returns ClaimError.NoError if basic validation passes.","params":{"amount":"The amount to be claimed.","epochId":"The epoch identifier.","recipient":"The recipient address."},"returns":{"error":"The claim validation result."}},"claim(uint256,address,uint256,bytes32,bytes32[])":{"details":"Reverts with {ClaimEpochNotFound} if the epoch doesn't exist.Reverts with {ClaimingEpochNotActive} if the current time is outside the claiming epoch.Reverts with {AlreadyClaimed} if the user has already claimed for this epoch.Reverts with {InvalidProof} if the merkle proof verification fails.Reverts with {InsufficientPoolAmount} if the pool doesn't have enough tokens.Emits a {RewardClaimed} event.","params":{"amount":"The amount to be claimed.","epochId":"The epoch identifier.","proof":"The merkle proof for verification.","reasonCode":"The reason code for the deposit.","recipient":"The recipient for this claim."}},"isTrustedForwarder(address)":{"params":{"forwarder":"The forwarder to check."},"returns":{"_0":"True if `forwarder` is trusted, false if not."}},"owner()":{"returns":{"_0":"The address of the contract owner."}},"recoverERC20s(address[],address[],uint256[])":{"details":"Warning: this function should be overriden for contracts which are supposed to hold ERC20 tokens  so that the extraction is limited to only amounts sent accidentally.Reverts with {NotContractOwner} if the sender is not the contract owner.Reverts with {InconsistentArrayLengths} if `accounts`, `tokens` and `amounts` do not have the same length.Reverts if one of the ERC20 transfers fails for any reason.","params":{"accounts":"the list of accounts to transfer the tokens to.","amounts":"the list of token amounts to transfer.","tokens":"the list of ERC20 token addresses."}},"recoverERC721s(address[],address[],uint256[])":{"details":"Warning: this function should be overriden for contracts which are supposed to hold ERC721 tokens  so that the extraction is limited to only tokens sent accidentally.Reverts with {NotContractOwner} if the sender is not the contract owner.Reverts with {InconsistentArrayLengths} if `accounts`, `contracts` and `amounts` do not have the same length.Reverts if one of the ERC721 transfers fails for any reason.","params":{"accounts":"the list of accounts to transfer the tokens to.","contracts":"the list of ERC721 contract addresses.","tokenIds":"the list of token ids to transfer."}},"recoverETH(address[],uint256[])":{"details":"Note: While contracts can generally prevent accidental ETH transfer by implementating a reverting  `receive()` function, this can still be bypassed in a `selfdestruct(address)` scenario.Warning: this function should be overriden for contracts which are supposed to hold ETH tokens  so that the extraction is limited to only amounts sent accidentally.Reverts with {NotContractOwner} if the sender is not the contract owner.Reverts with {InconsistentArrayLengths} `accounts` and `amounts` do not have the same length.Reverts if one of the ETH transfers fails for any reason.","params":{"accounts":"the list of accounts to transfer the tokens to.","amounts":"the list of token amounts to transfer."}},"setMerkleRoot(bytes32,uint256,uint256,uint256)":{"details":"Reverts with {NotContractOwner} if the sender is not the contract owner.Reverts with {InvalidClaimWindow} if startTime is not before endTime.Emits a {MerkleRootSet} event.","params":{"endTime":"The end time for claiming.","merkleRoot":"The merkle root for this epoch.","startTime":"The start time for claiming.","totalAmount":"The total amount available for claiming in this epoch."}},"supportsInterface(bytes4)":{"details":"Note: This function call must use less than 30 000 gas.","params":{"interfaceId":"the interface identifier to test."},"returns":{"_0":"True if the interface is supported, false if `interfaceId` is `0xffffffff` or if the interface is not supported."}},"transferOwnership(address)":{"details":"Reverts if the sender is not the contract owner.Emits an {OwnershipTransferred} event if `newOwner` is different from the current contract owner.","params":{"newOwner":"The address of the new contract owner. Using the zero address means renouncing ownership."}}},"version":1},"evm":{"bytecode":{"linkReferences":{},"object":"60c06040523480156200001157600080fd5b5060405162001f6e38038062001f6e8339810160408190526200003491620001fc565b81818080336200004f8162000048620000a5565b90620000db565b506001600160a01b03908116608052831690506200008f57604051631aa6c2cd60e31b81526001600160a01b038316600482015260240160405180910390fd5b506001600160a01b031660a052506200025d9050565b600080620000d560017fc9ed16f33ab3a66c84bfd83099ccb2a8845871e2e1c1928f63797152f0fd54cd6200023b565b92915050565b6001600160a01b03811615620001325781546001600160a01b0319166001600160a01b03821690811783556040516000907f8be0079c531659141344cd1fd0a4f28419497f9722a3daafe3b4186f6b6457e0908290a35b620001526307f5828d60e41b60016200014a62000156565b919062000186565b5050565b600080620000d560017fca9d3e17f264b0f3984e2634e94adb37fa3e6a8103f06aeae6fa59e21c769f5e6200023b565b600160e01b6001600160e01b0319831601620001b5576040516372c683bb60e01b815260040160405180910390fd5b6001600160e01b03199190911660009081526020929092526040909120805460ff1916911515919091179055565b6001600160a01b0381168114620001f957600080fd5b50565b600080604083850312156200021057600080fd5b82516200021d81620001e3565b60208401519092506200023081620001e3565b809150509250929050565b81810381811115620000d557634e487b7160e01b600052601160045260246000fd5b60805160a051611cc1620002ad600039600081816101f201526107180152600081816101a80152818161023a01528181611279015281816112b7015281816113ef01526114770152611cc16000f3fe608060405234801561001057600080fd5b50600436106101365760003560e01c806373c8a958116100b2578063d1a91ff211610081578063f2fde38b11610066578063f2fde38b1461035b578063f5b541a61461036e578063f7ba94bd1461039557600080fd5b8063d1a91ff21461033c578063eacdc5ff1461034457600080fd5b806373c8a958146102fb578063833d47b61461030e5780638da5cb5b14610321578063c3666c361461032957600080fd5b80632d4c2f9311610109578063572b6c05116100ee578063572b6c051461022a5780635c9a509b146102775780637124094f146102db57600080fd5b80632d4c2f93146101ed57806331e66e1e1461021457600080fd5b806301ffc9a71461013b578063120aa877146101635780632035a4dd146101915780632b4c9f16146101a6575b600080fd5b61014e6101493660046117d0565b6103a8565b60405190151581526020015b60405180910390f35b61014e610171366004611834565b600260209081526000928352604080842090915290825290205460ff1681565b6101a461019f3660046118b0565b6103c2565b005b7f00000000000000000000000000000000000000000000000000000000000000005b60405173ffffffffffffffffffffffffffffffffffffffff909116815260200161015a565b6101c87f000000000000000000000000000000000000000000000000000000000000000081565b61021c6107dd565b60405161015a929190611923565b61014e610238366004611970565b7f000000000000000000000000000000000000000000000000000000000000000073ffffffffffffffffffffffffffffffffffffffff90811691161490565b6102b361028536600461198d565b6001602081905260009182526040909120805491810154600282015460038301546004909301549192909185565b604080519586526020860194909452928401919091526060830152608082015260a00161015a565b6102ee6102e93660046119a6565b6107f0565b60405161015a91906119de565b6101a4610309366004611a1f565b61089d565b6101a461031c366004611aa7565b6109a1565b6101c8610aa0565b6101a4610337366004611a1f565b610acc565b6101c8610c44565b61034d60005481565b60405190815260200161015a565b6101a4610369366004611970565b610c4e565b61034d7f97667070c54ef182b0f5858b034beac1b6f3089aa2d3188bb1e8929f4fa9b92981565b6101a46103a3366004611ad9565b610c6c565b60006103bc826103b6610d2b565b90610d59565b92915050565b60008681526001602052604090208054610410576040517f07cba261000000000000000000000000000000000000000000000000000000008152600481018890526024015b60405180910390fd5b600381015442908110806104275750816004015481115b1561047b5760038201546004808401546040517fc06e9f3a00000000000000000000000000000000000000000000000000000000815291820184905260248201929092526044810191909152606401610407565b600088815260026020908152604080832073ffffffffffffffffffffffffffffffffffffffff8b16845290915290205460ff1615610512576040517f7635807d00000000000000000000000000000000000000000000000000000000815273ffffffffffffffffffffffffffffffffffffffff88166004820152602481018790526044810186905260648101899052608401610407565b85826002015410156105605760028201546040517f23090a31000000000000000000000000000000000000000000000000000000008152610407918891600401918252602082015260400190565b6040517fffffffffffffffffffffffffffffffffffffffff000000000000000000000000606089901b166020820152603481018790526054810186905260748101899052600090609401604080517fffffffffffffffffffffffffffffffffffffffffffffffffffffffffffffffe0818403018152919052805160209091012083549091506105f3908690869084610e33565b610656576040517fa041b52e00000000000000000000000000000000000000000000000000000000815273ffffffffffffffffffffffffffffffffffffffff891660048201526024810188905260448101879052606481018a9052608401610407565b600089815260026020818152604080842073ffffffffffffffffffffffffffffffffffffffff8d168552909152822080547fffffffffffffffffffffffffffffffffffffffffffffffffffffffffffffff00166001179055840180548992906106c0908490611b45565b90915550506040517f26b3293f00000000000000000000000000000000000000000000000000000000815273ffffffffffffffffffffffffffffffffffffffff898116600483015260248201899052604482018890527f000000000000000000000000000000000000000000000000000000000000000016906326b3293f90606401600060405180830381600087803b15801561075c57600080fd5b505af1158015610770573d6000803e3d6000fd5b505050508773ffffffffffffffffffffffffffffffffffffffff16897ffc6ecd966b430510beae9124efe7dd517ed5286d7ed0ae258f8556c7a9765a448986600201546040516107ca929190918252602082015260400190565b60405180910390a3505050505050505050565b3660006107e8610e4d565b915091509091565b6000838152600160205260408120805461080e576001915050610896565b600381015442908110806108255750816004015481115b1561083557600292505050610896565b600086815260026020908152604080832073ffffffffffffffffffffffffffffffffffffffff8916845290915290205460ff161561087857600392505050610896565b838260020154101561088f57600492505050610896565b6000925050505b9392505050565b6108b66108a8610e58565b6108b0610e62565b90610e90565b8483811415806108c65750808214155b156108fd576040517f6582533600000000000000000000000000000000000000000000000000000000815260040160405180910390fd5b60005b818110156109975761098f88888381811061091d5761091d611b7f565b90506020020160208101906109329190611970565b85858481811061094457610944611b7f565b9050602002013588888581811061095d5761095d611b7f565b90506020020160208101906109729190611970565b73ffffffffffffffffffffffffffffffffffffffff169190610eff565b600101610900565b5050505050505050565b6109ac6108a8610e58565b8082106109ef576040517f779acdff0000000000000000000000000000000000000000000000000000000081526004810183905260248101829052604401610407565b600080546040805160a081018252878152602080820188815282840189815260608085018a815260808087018b8152898b526001808852898c209851895595518887015593516002880155905160038701559151600490950194909455865490910190955582518981529081018890529182018690528101849052909182917f331c648136af10432045d8cc15dfaee6ca9568922f85cab02d96d5f5286c8920910160405180910390a25050505050565b6000610ac7610aad610e62565b5473ffffffffffffffffffffffffffffffffffffffff1690565b905090565b610ad76108a8610e58565b848381141580610ae75750808214155b15610b1e576040517f6582533600000000000000000000000000000000000000000000000000000000815260040160405180910390fd5b60005b8181101561099757858582818110610b3b57610b3b611b7f565b9050602002016020810190610b509190611970565b73ffffffffffffffffffffffffffffffffffffffff166323b872dd308a8a85818110610b7e57610b7e611b7f565b9050602002016020810190610b939190611970565b878786818110610ba557610ba5611b7f565b6040517fffffffff0000000000000000000000000000000000000000000000000000000060e088901b16815273ffffffffffffffffffffffffffffffffffffffff958616600482015294909316602485015250602090910201356044820152606401600060405180830381600087803b158015610c2157600080fd5b505af1158015610c35573d6000803e3d6000fd5b50505050806001019050610b21565b6000610ac7610e58565b610c69610c59610e58565b82610c62610e62565b9190610f91565b50565b610c776108a8610e58565b82818114610cb1576040517f6582533600000000000000000000000000000000000000000000000000000000815260040160405180910390fd5b60005b81811015610d2357610d1b848483818110610cd157610cd1611b7f565b90506020020135878784818110610cea57610cea611b7f565b9050602002016020810190610cff9190611970565b73ffffffffffffffffffffffffffffffffffffffff16906110a6565b600101610cb4565b505050505050565b6000806103bc60017fca9d3e17f264b0f3984e2634e94adb37fa3e6a8103f06aeae6fa59e21c769f5e611b45565b60007c01000000000000000000000000000000000000000000000000000000007fffffffff00000000000000000000000000000000000000000000000000000000831601610da9575060006103bc565b7ffe003659000000000000000000000000000000000000000000000000000000007fffffffff00000000000000000000000000000000000000000000000000000000831601610dfa575060016103bc565b507fffffffff00000000000000000000000000000000000000000000000000000000166000908152602091909152604090205460ff1690565b600082610e41868685611200565b1490505b949350505050565b3660006107e8611242565b6000610ac76113ac565b6000806103bc60017fc9ed16f33ab3a66c84bfd83099ccb2a8845871e2e1c1928f63797152f0fd54cd611b45565b815473ffffffffffffffffffffffffffffffffffffffff828116911614610efb576040517f2ef4875e00000000000000000000000000000000000000000000000000000000815273ffffffffffffffffffffffffffffffffffffffff82166004820152602401610407565b5050565b6040805173ffffffffffffffffffffffffffffffffffffffff8416602482015260448082018490528251808303909101815260649091019091526020810180517bffffffffffffffffffffffffffffffffffffffffffffffffffffffff167fa9059cbb00000000000000000000000000000000000000000000000000000000179052610f8c9084906114f3565b505050565b825473ffffffffffffffffffffffffffffffffffffffff9081169083168114610ffe576040517f2ef4875e00000000000000000000000000000000000000000000000000000000815273ffffffffffffffffffffffffffffffffffffffff84166004820152602401610407565b8173ffffffffffffffffffffffffffffffffffffffff168173ffffffffffffffffffffffffffffffffffffffff16146110a05783547fffffffffffffffffffffffff00000000000000000000000000000000000000001673ffffffffffffffffffffffffffffffffffffffff8381169182178655604051908316907f8be0079c531659141344cd1fd0a4f28419497f9722a3daafe3b4186f6b6457e090600090a35b50505050565b80471015611110576040517f08c379a000000000000000000000000000000000000000000000000000000000815260206004820152601d60248201527f416464726573733a20696e73756666696369656e742062616c616e63650000006044820152606401610407565b60008273ffffffffffffffffffffffffffffffffffffffff168260405160006040518083038185875af1925050503d806000811461116a576040519150601f19603f3d011682016040523d82523d6000602084013e61116f565b606091505b5050905080610f8c576040517f08c379a000000000000000000000000000000000000000000000000000000000815260206004820152603a60248201527f416464726573733a20756e61626c6520746f2073656e642076616c75652c207260448201527f6563697069656e74206d617920686176652072657665727465640000000000006064820152608401610407565b600081815b848110156112395761122f8287878481811061122357611223611b7f565b90506020020135611602565b9150600101611205565b50949350505050565b366000333214806112535750601836105b156112615750600091369150565b3373ffffffffffffffffffffffffffffffffffffffff7f0000000000000000000000000000000000000000000000000000000000000000161480611396575073ffffffffffffffffffffffffffffffffffffffff7f000000000000000000000000000000000000000000000000000000000000000016638929a8ca367fffffffffffffffffffffffffffffffffffffffffffffffffffffffffffffffec013560601c6040517fffffffff0000000000000000000000000000000000000000000000000000000060e084901b16815273ffffffffffffffffffffffffffffffffffffffff9091166004820152336024820152604401602060405180830381865afa158015611372573d6000803e3d6000fd5b505050506040513d601f19601f820116820180604052508101906113969190611bae565b156113a3576107e861162e565b50600091369150565b6000333214806113bc5750601836105b156113c657503390565b7fffffffffffffffffffffffffffffffffffffffffffffffffffffffffffffffec36013560601c7f000000000000000000000000000000000000000000000000000000000000000073ffffffffffffffffffffffffffffffffffffffff163314806114e257506040517f8929a8ca00000000000000000000000000000000000000000000000000000000815273ffffffffffffffffffffffffffffffffffffffff82811660048301523360248301527f00000000000000000000000000000000000000000000000000000000000000001690638929a8ca90604401602060405180830381865afa1580156114be573d6000803e3d6000fd5b505050506040513d601f19601f820116820180604052508101906114e29190611bae565b156114ec57919050565b3391505090565b6000611555826040518060400160405280602081526020017f5361666545524332303a206c6f772d6c6576656c2063616c6c206661696c65648152508573ffffffffffffffffffffffffffffffffffffffff1661165f9092919063ffffffff16565b90508051600014806115765750808060200190518101906115769190611bae565b610f8c576040517f08c379a000000000000000000000000000000000000000000000000000000000815260206004820152602a60248201527f5361666545524332303a204552433230206f7065726174696f6e20646964206e60448201527f6f742073756363656564000000000000000000000000000000000000000000006064820152608401610407565b600081831061161e576000828152602084905260409020610896565b5060009182526020526040902090565b3660006107e87fffffffffffffffffffffffffffffffffffffffffffffffffffffffffffffffec8301828481611bd0565b6060610e458484600085856000808673ffffffffffffffffffffffffffffffffffffffff1685876040516116939190611c1e565b60006040518083038185875af1925050503d80600081146116d0576040519150601f19603f3d011682016040523d82523d6000602084013e6116d5565b606091505b50915091506116e6878383876116f1565b979650505050505050565b606083156117875782516000036117805773ffffffffffffffffffffffffffffffffffffffff85163b611780576040517f08c379a000000000000000000000000000000000000000000000000000000000815260206004820152601d60248201527f416464726573733a2063616c6c20746f206e6f6e2d636f6e74726163740000006044820152606401610407565b5081610e45565b610e45838381511561179c5781518083602001fd5b806040517f08c379a00000000000000000000000000000000000000000000000000000000081526004016104079190611c3a565b6000602082840312156117e257600080fd5b81357fffffffff000000000000000000000000000000000000000000000000000000008116811461089657600080fd5b73ffffffffffffffffffffffffffffffffffffffff81168114610c6957600080fd5b6000806040838503121561184757600080fd5b82359150602083013561185981611812565b809150509250929050565b60008083601f84011261187657600080fd5b50813567ffffffffffffffff81111561188e57600080fd5b6020830191508360208260051b85010111156118a957600080fd5b9250929050565b60008060008060008060a087890312156118c957600080fd5b8635955060208701356118db81611812565b94506040870135935060608701359250608087013567ffffffffffffffff81111561190557600080fd5b61191189828a01611864565b979a9699509497509295939492505050565b60208152816020820152818360408301376000818301604090810191909152601f9092017fffffffffffffffffffffffffffffffffffffffffffffffffffffffffffffffe0160101919050565b60006020828403121561198257600080fd5b813561089681611812565b60006020828403121561199f57600080fd5b5035919050565b6000806000606084860312156119bb57600080fd5b8335925060208401356119cd81611812565b929592945050506040919091013590565b6020810160058310611a19577f4e487b7100000000000000000000000000000000000000000000000000000000600052602160045260246000fd5b91905290565b60008060008060008060608789031215611a3857600080fd5b863567ffffffffffffffff80821115611a5057600080fd5b611a5c8a838b01611864565b90985096506020890135915080821115611a7557600080fd5b611a818a838b01611864565b90965094506040890135915080821115611a9a57600080fd5b5061191189828a01611864565b60008060008060808587031215611abd57600080fd5b5050823594602084013594506040840135936060013592509050565b60008060008060408587031215611aef57600080fd5b843567ffffffffffffffff80821115611b0757600080fd5b611b1388838901611864565b90965094506020870135915080821115611b2c57600080fd5b50611b3987828801611864565b95989497509550505050565b818103818111156103bc577f4e487b7100000000000000000000000000000000000000000000000000000000600052601160045260246000fd5b7f4e487b7100000000000000000000000000000000000000000000000000000000600052603260045260246000fd5b600060208284031215611bc057600080fd5b8151801515811461089657600080fd5b60008085851115611be057600080fd5b83861115611bed57600080fd5b5050820193919092039150565b60005b83811015611c15578181015183820152602001611bfd565b50506000910152565b60008251611c30818460208701611bfa565b9190910192915050565b6020815260008251806020840152611c59816040850160208701611bfa565b601f017fffffffffffffffffffffffffffffffffffffffffffffffffffffffffffffffe016919091016040019291505056fea2646970667358221220c9df6d329720fe94f582008bba2e067a5159761f2f7a3d53ffc40cbf24e3540264736f6c63430008160033","opcodes":"PUSH1 0xC0 PUSH1 0x40 MSTORE CALLVALUE DUP1 ISZERO PUSH3 0x11 JUMPI PUSH1 0x0 DUP1 REVERT JUMPDEST POP PUSH1 0x40 MLOAD PUSH3 0x1F6E CODESIZE SUB DUP1 PUSH3 0x1F6E DUP4 CODECOPY DUP2 ADD PUSH1 0x40 DUP2 SWAP1 MSTORE PUSH3 0x34 SWAP2 PUSH3 0x1FC JUMP JUMPDEST DUP2 DUP2 DUP1 DUP1 CALLER PUSH3 0x4F DUP2 PUSH3 0x48 PUSH3 0xA5 JUMP JUMPDEST SWAP1 PUSH3 0xDB JUMP JUMPDEST POP PUSH1 0x1 PUSH1 0x1 PUSH1 0xA0 SHL SUB SWAP1 DUP2 AND PUSH1 0x80 MSTORE DUP4 AND SWAP1 POP PUSH3 0x8F JUMPI PUSH1 0x40 MLOAD PUSH4 0x1AA6C2CD PUSH1 0xE3 SHL DUP2 MSTORE PUSH1 0x1 PUSH1 0x1 PUSH1 0xA0 SHL SUB DUP4 AND PUSH1 0x4 DUP3 ADD MSTORE PUSH1 0x24 ADD PUSH1 0x40 MLOAD DUP1 SWAP2 SUB SWAP1 REVERT JUMPDEST POP PUSH1 0x1 PUSH1 0x1 PUSH1 0xA0 SHL SUB AND PUSH1 0xA0 MSTORE POP PUSH3 0x25D SWAP1 POP JUMP JUMPDEST PUSH1 0x0 DUP1 PUSH3 0xD5 PUSH1 0x1 PUSH32 0xC9ED16F33AB3A66C84BFD83099CCB2A8845871E2E1C1928F63797152F0FD54CD PUSH3 0x23B JUMP JUMPDEST SWAP3 SWAP2 POP POP JUMP JUMPDEST PUSH1 0x1 PUSH1 0x1 PUSH1 0xA0 SHL SUB DUP2 AND ISZERO PUSH3 0x132 JUMPI DUP2 SLOAD PUSH1 0x1 PUSH1 0x1 PUSH1 0xA0 SHL SUB NOT AND PUSH1 0x1 PUSH1 0x1 PUSH1 0xA0 SHL SUB DUP3 AND SWAP1 DUP2 OR DUP4 SSTORE PUSH1 0x40 MLOAD PUSH1 0x0 SWAP1 PUSH32 0x8BE0079C531659141344CD1FD0A4F28419497F9722A3DAAFE3B4186F6B6457E0 SWAP1 DUP3 SWAP1 LOG3 JUMPDEST PUSH3 0x152 PUSH4 0x7F5828D PUSH1 0xE4 SHL PUSH1 0x1 PUSH3 0x14A PUSH3 0x156 JUMP JUMPDEST SWAP2 SWAP1 PUSH3 0x186 JUMP JUMPDEST POP POP JUMP JUMPDEST PUSH1 0x0 DUP1 PUSH3 0xD5 PUSH1 0x1 PUSH32 0xCA9D3E17F264B0F3984E2634E94ADB37FA3E6A8103F06AEAE6FA59E21C769F5E PUSH3 0x23B JUMP JUMPDEST PUSH1 0x1 PUSH1 0xE0 SHL PUSH1 0x1 PUSH1 0x1 PUSH1 0xE0 SHL SUB NOT DUP4 AND ADD PUSH3 0x1B5 JUMPI PUSH1 0x40 MLOAD PUSH4 0x72C683BB PUSH1 0xE0 SHL DUP2 MSTORE PUSH1 0x4 ADD PUSH1 0x40 MLOAD DUP1 SWAP2 SUB SWAP1 REVERT JUMPDEST PUSH1 0x1 PUSH1 0x1 PUSH1 0xE0 SHL SUB NOT SWAP2 SWAP1 SWAP2 AND PUSH1 0x0 SWAP1 DUP2 MSTORE PUSH1 0x20 SWAP3 SWAP1 SWAP3 MSTORE PUSH1 0x40 SWAP1 SWAP2 KECCAK256 DUP1 SLOAD PUSH1 0xFF NOT AND SWAP2 ISZERO ISZERO SWAP2 SWAP1 SWAP2 OR SWAP1 SSTORE JUMP JUMPDEST PUSH1 0x1 PUSH1 0x1 PUSH1 0xA0 SHL SUB DUP2 AND DUP2 EQ PUSH3 0x1F9 JUMPI PUSH1 0x0 DUP1 REVERT JUMPDEST POP JUMP JUMPDEST PUSH1 0x0 DUP1 PUSH1 0x40 DUP4 DUP6 SUB SLT ISZERO PUSH3 0x210 JUMPI PUSH1 0x0 DUP1 REVERT JUMPDEST DUP3 MLOAD PUSH3 0x21D DUP2 PUSH3 0x1E3 JUMP JUMPDEST PUSH1 0x20 DUP5 ADD MLOAD SWAP1 SWAP3 POP PUSH3 0x230 DUP2 PUSH3 0x1E3 JUMP JUMPDEST DUP1 SWAP2 POP POP SWAP3 POP SWAP3 SWAP1 POP JUMP JUMPDEST DUP2 DUP2 SUB DUP2 DUP2 GT ISZERO PUSH3 0xD5 JUMPI PUSH4 0x4E487B71 PUSH1 0xE0 SHL PUSH1 0x0 MSTORE PUSH1 0x11 PUSH1 0x4 MSTORE PUSH1 0x24 PUSH1 0x0 REVERT JUMPDEST PUSH1 0x80 MLOAD PUSH1 0xA0 MLOAD PUSH2 0x1CC1 PUSH3 0x2AD PUSH1 0x0 CODECOPY PUSH1 0x0 DUP2 DUP2 PUSH2 0x1F2 ADD MSTORE PUSH2 0x718 ADD MSTORE PUSH1 0x0 DUP2 DUP2 PUSH2 0x1A8 ADD MSTORE DUP2 DUP2 PUSH2 0x23A ADD MSTORE DUP2 DUP2 PUSH2 0x1279 ADD MSTORE DUP2 DUP2 PUSH2 0x12B7 ADD MSTORE DUP2 DUP2 PUSH2 0x13EF ADD MSTORE PUSH2 0x1477 ADD MSTORE PUSH2 0x1CC1 PUSH1 0x0 RETURN INVALID PUSH1 0x80 PUSH1 0x40 MSTORE CALLVALUE DUP1 ISZERO PUSH2 0x10 JUMPI PUSH1 0x0 DUP1 REVERT JUMPDEST POP PUSH1 0x4 CALLDATASIZE LT PUSH2 0x136 JUMPI PUSH1 0x0 CALLDATALOAD PUSH1 0xE0 SHR DUP1 PUSH4 0x73C8A958 GT PUSH2 0xB2 JUMPI DUP1 PUSH4 0xD1A91FF2 GT PUSH2 0x81 JUMPI DUP1 PUSH4 0xF2FDE38B GT PUSH2 0x66 JUMPI DUP1 PUSH4 0xF2FDE38B EQ PUSH2 0x35B JUMPI DUP1 PUSH4 0xF5B541A6 EQ PUSH2 0x36E JUMPI DUP1 PUSH4 0xF7BA94BD EQ PUSH2 0x395 JUMPI PUSH1 0x0 DUP1 REVERT JUMPDEST DUP1 PUSH4 0xD1A91FF2 EQ PUSH2 0x33C JUMPI DUP1 PUSH4 0xEACDC5FF EQ PUSH2 0x344 JUMPI PUSH1 0x0 DUP1 REVERT JUMPDEST DUP1 PUSH4 0x73C8A958 EQ PUSH2 0x2FB JUMPI DUP1 PUSH4 0x833D47B6 EQ PUSH2 0x30E JUMPI DUP1 PUSH4 0x8DA5CB5B EQ PUSH2 0x321 JUMPI DUP1 PUSH4 0xC3666C36 EQ PUSH2 0x329 JUMPI PUSH1 0x0 DUP1 REVERT JUMPDEST DUP1 PUSH4 0x2D4C2F93 GT PUSH2 0x109 JUMPI DUP1 PUSH4 0x572B6C05 GT PUSH2 0xEE JUMPI DUP1 PUSH4 0x572B6C05 EQ PUSH2 0x22A JUMPI DUP1 PUSH4 0x5C9A509B EQ PUSH2 0x277 JUMPI DUP1 PUSH4 0x7124094F EQ PUSH2 0x2DB JUMPI PUSH1 0x0 DUP1 REVERT JUMPDEST DUP1 PUSH4 0x2D4C2F93 EQ PUSH2 0x1ED JUMPI DUP1 PUSH4 0x31E66E1E EQ PUSH2 0x214 JUMPI PUSH1 0x0 DUP1 REVERT JUMPDEST DUP1 PUSH4 0x1FFC9A7 EQ PUSH2 0x13B JUMPI DUP1 PUSH4 0x120AA877 EQ PUSH2 0x163 JUMPI DUP1 PUSH4 0x2035A4DD EQ PUSH2 0x191 JUMPI DUP1 PUSH4 0x2B4C9F16 EQ PUSH2 0x1A6 JUMPI JUMPDEST PUSH1 0x0 DUP1 REVERT JUMPDEST PUSH2 0x14E PUSH2 0x149 CALLDATASIZE PUSH1 0x4 PUSH2 0x17D0 JUMP JUMPDEST PUSH2 0x3A8 JUMP JUMPDEST PUSH1 0x40 MLOAD SWAP1 ISZERO ISZERO DUP2 MSTORE PUSH1 0x20 ADD JUMPDEST PUSH1 0x40 MLOAD DUP1 SWAP2 SUB SWAP1 RETURN JUMPDEST PUSH2 0x14E PUSH2 0x171 CALLDATASIZE PUSH1 0x4 PUSH2 0x1834 JUMP JUMPDEST PUSH1 0x2 PUSH1 0x20 SWAP1 DUP2 MSTORE PUSH1 0x0 SWAP3 DUP4 MSTORE PUSH1 0x40 DUP1 DUP5 KECCAK256 SWAP1 SWAP2 MSTORE SWAP1 DUP3 MSTORE SWAP1 KECCAK256 SLOAD PUSH1 0xFF AND DUP2 JUMP JUMPDEST PUSH2 0x1A4 PUSH2 0x19F CALLDATASIZE PUSH1 0x4 PUSH2 0x18B0 JUMP JUMPDEST PUSH2 0x3C2 JUMP JUMPDEST STOP JUMPDEST PUSH32 0x0 JUMPDEST PUSH1 0x40 MLOAD PUSH20 0xFFFFFFFFFFFFFFFFFFFFFFFFFFFFFFFFFFFFFFFF SWAP1 SWAP2 AND DUP2 MSTORE PUSH1 0x20 ADD PUSH2 0x15A JUMP JUMPDEST PUSH2 0x1C8 PUSH32 0x0 DUP2 JUMP JUMPDEST PUSH2 0x21C PUSH2 0x7DD JUMP JUMPDEST PUSH1 0x40 MLOAD PUSH2 0x15A SWAP3 SWAP2 SWAP1 PUSH2 0x1923 JUMP JUMPDEST PUSH2 0x14E PUSH2 0x238 CALLDATASIZE PUSH1 0x4 PUSH2 0x1970 JUMP JUMPDEST PUSH32 0x0 PUSH20 0xFFFFFFFFFFFFFFFFFFFFFFFFFFFFFFFFFFFFFFFF SWAP1 DUP2 AND SWAP2 AND EQ SWAP1 JUMP JUMPDEST PUSH2 0x2B3 PUSH2 0x285 CALLDATASIZE PUSH1 0x4 PUSH2 0x198D JUMP JUMPDEST PUSH1 0x1 PUSH1 0x20 DUP2 SWAP1 MSTORE PUSH1 0x0 SWAP2 DUP3 MSTORE PUSH1 0x40 SWAP1 SWAP2 KECCAK256 DUP1 SLOAD SWAP2 DUP2 ADD SLOAD PUSH1 0x2 DUP3 ADD SLOAD PUSH1 0x3 DUP4 ADD SLOAD PUSH1 0x4 SWAP1 SWAP4 ADD SLOAD SWAP2 SWAP3 SWAP1 SWAP2 DUP6 JUMP JUMPDEST PUSH1 0x40 DUP1 MLOAD SWAP6 DUP7 MSTORE PUSH1 0x20 DUP7 ADD SWAP5 SWAP1 SWAP5 MSTORE SWAP3 DUP5 ADD SWAP2 SWAP1 SWAP2 MSTORE PUSH1 0x60 DUP4 ADD MSTORE PUSH1 0x80 DUP3 ADD MSTORE PUSH1 0xA0 ADD PUSH2 0x15A JUMP JUMPDEST PUSH2 0x2EE PUSH2 0x2E9 CALLDATASIZE PUSH1 0x4 PUSH2 0x19A6 JUMP JUMPDEST PUSH2 0x7F0 JUMP JUMPDEST PUSH1 0x40 MLOAD PUSH2 0x15A SWAP2 SWAP1 PUSH2 0x19DE JUMP JUMPDEST PUSH2 0x1A4 PUSH2 0x309 CALLDATASIZE PUSH1 0x4 PUSH2 0x1A1F JUMP JUMPDEST PUSH2 0x89D JUMP JUMPDEST PUSH2 0x1A4 PUSH2 0x31C CALLDATASIZE PUSH1 0x4 PUSH2 0x1AA7 JUMP JUMPDEST PUSH2 0x9A1 JUMP JUMPDEST PUSH2 0x1C8 PUSH2 0xAA0 JUMP JUMPDEST PUSH2 0x1A4 PUSH2 0x337 CALLDATASIZE PUSH1 0x4 PUSH2 0x1A1F JUMP JUMPDEST PUSH2 0xACC JUMP JUMPDEST PUSH2 0x1C8 PUSH2 0xC44 JUMP JUMPDEST PUSH2 0x34D PUSH1 0x0 SLOAD DUP2 JUMP JUMPDEST PUSH1 0x40 MLOAD SWAP1 DUP2 MSTORE PUSH1 0x20 ADD PUSH2 0x15A JUMP JUMPDEST PUSH2 0x1A4 PUSH2 0x369 CALLDATASIZE PUSH1 0x4 PUSH2 0x1970 JUMP JUMPDEST PUSH2 0xC4E JUMP JUMPDEST PUSH2 0x34D PUSH32 0x97667070C54EF182B0F5858B034BEAC1B6F3089AA2D3188BB1E8929F4FA9B929 DUP2 JUMP JUMPDEST PUSH2 0x1A4 PUSH2 0x3A3 CALLDATASIZE PUSH1 0x4 PUSH2 0x1AD9 JUMP JUMPDEST PUSH2 0xC6C JUMP JUMPDEST PUSH1 0x0 PUSH2 0x3BC DUP3 PUSH2 0x3B6 PUSH2 0xD2B JUMP JUMPDEST SWAP1 PUSH2 0xD59 JUMP JUMPDEST SWAP3 SWAP2 POP POP JUMP JUMPDEST PUSH1 0x0 DUP7 DUP2 MSTORE PUSH1 0x1 PUSH1 0x20 MSTORE PUSH1 0x40 SWAP1 KECCAK256 DUP1 SLOAD PUSH2 0x410 JUMPI PUSH1 0x40 MLOAD PUSH32 0x7CBA26100000000000000000000000000000000000000000000000000000000 DUP2 MSTORE PUSH1 0x4 DUP2 ADD DUP9 SWAP1 MSTORE PUSH1 0x24 ADD JUMPDEST PUSH1 0x40 MLOAD DUP1 SWAP2 SUB SWAP1 REVERT JUMPDEST PUSH1 0x3 DUP2 ADD SLOAD TIMESTAMP SWAP1 DUP2 LT DUP1 PUSH2 0x427 JUMPI POP DUP2 PUSH1 0x4 ADD SLOAD DUP2 GT JUMPDEST ISZERO PUSH2 0x47B JUMPI PUSH1 0x3 DUP3 ADD SLOAD PUSH1 0x4 DUP1 DUP5 ADD SLOAD PUSH1 0x40 MLOAD PUSH32 0xC06E9F3A00000000000000000000000000000000000000000000000000000000 DUP2 MSTORE SWAP2 DUP3 ADD DUP5 SWAP1 MSTORE PUSH1 0x24 DUP3 ADD SWAP3 SWAP1 SWAP3 MSTORE PUSH1 0x44 DUP2 ADD SWAP2 SWAP1 SWAP2 MSTORE PUSH1 0x64 ADD PUSH2 0x407 JUMP JUMPDEST PUSH1 0x0 DUP9 DUP2 MSTORE PUSH1 0x2 PUSH1 0x20 SWAP1 DUP2 MSTORE PUSH1 0x40 DUP1 DUP4 KECCAK256 PUSH20 0xFFFFFFFFFFFFFFFFFFFFFFFFFFFFFFFFFFFFFFFF DUP12 AND DUP5 MSTORE SWAP1 SWAP2 MSTORE SWAP1 KECCAK256 SLOAD PUSH1 0xFF AND ISZERO PUSH2 0x512 JUMPI PUSH1 0x40 MLOAD PUSH32 0x7635807D00000000000000000000000000000000000000000000000000000000 DUP2 MSTORE PUSH20 0xFFFFFFFFFFFFFFFFFFFFFFFFFFFFFFFFFFFFFFFF DUP9 AND PUSH1 0x4 DUP3 ADD MSTORE PUSH1 0x24 DUP2 ADD DUP8 SWAP1 MSTORE PUSH1 0x44 DUP2 ADD DUP7 SWAP1 MSTORE PUSH1 0x64 DUP2 ADD DUP10 SWAP1 MSTORE PUSH1 0x84 ADD PUSH2 0x407 JUMP JUMPDEST DUP6 DUP3 PUSH1 0x2 ADD SLOAD LT ISZERO PUSH2 0x560 JUMPI PUSH1 0x2 DUP3 ADD SLOAD PUSH1 0x40 MLOAD PUSH32 0x23090A3100000000000000000000000000000000000000000000000000000000 DUP2 MSTORE PUSH2 0x407 SWAP2 DUP9 SWAP2 PUSH1 0x4 ADD SWAP2 DUP3 MSTORE PUSH1 0x20 DUP3 ADD MSTORE PUSH1 0x40 ADD SWAP1 JUMP JUMPDEST PUSH1 0x40 MLOAD PUSH32 0xFFFFFFFFFFFFFFFFFFFFFFFFFFFFFFFFFFFFFFFF000000000000000000000000 PUSH1 0x60 DUP10 SWAP1 SHL AND PUSH1 0x20 DUP3 ADD MSTORE PUSH1 0x34 DUP2 ADD DUP8 SWAP1 MSTORE PUSH1 0x54 DUP2 ADD DUP7 SWAP1 MSTORE PUSH1 0x74 DUP2 ADD DUP10 SWAP1 MSTORE PUSH1 0x0 SWAP1 PUSH1 0x94 ADD PUSH1 0x40 DUP1 MLOAD PUSH32 0xFFFFFFFFFFFFFFFFFFFFFFFFFFFFFFFFFFFFFFFFFFFFFFFFFFFFFFFFFFFFFFE0 DUP2 DUP5 SUB ADD DUP2 MSTORE SWAP2 SWAP1 MSTORE DUP1 MLOAD PUSH1 0x20 SWAP1 SWAP2 ADD KECCAK256 DUP4 SLOAD SWAP1 SWAP2 POP PUSH2 0x5F3 SWAP1 DUP7 SWAP1 DUP7 SWAP1 DUP5 PUSH2 0xE33 JUMP JUMPDEST PUSH2 0x656 JUMPI PUSH1 0x40 MLOAD PUSH32 0xA041B52E00000000000000000000000000000000000000000000000000000000 DUP2 MSTORE PUSH20 0xFFFFFFFFFFFFFFFFFFFFFFFFFFFFFFFFFFFFFFFF DUP10 AND PUSH1 0x4 DUP3 ADD MSTORE PUSH1 0x24 DUP2 ADD DUP9 SWAP1 MSTORE PUSH1 0x44 DUP2 ADD DUP8 SWAP1 MSTORE PUSH1 0x64 DUP2 ADD DUP11 SWAP1 MSTORE PUSH1 0x84 ADD PUSH2 0x407 JUMP JUMPDEST PUSH1 0x0 DUP10 DUP2 MSTORE PUSH1 0x2 PUSH1 0x20 DUP2 DUP2 MSTORE PUSH1 0x40 DUP1 DUP5 KECCAK256 PUSH20 0xFFFFFFFFFFFFFFFFFFFFFFFFFFFFFFFFFFFFFFFF DUP14 AND DUP6 MSTORE SWAP1 SWAP2 MSTORE DUP3 KECCAK256 DUP1 SLOAD PUSH32 0xFFFFFFFFFFFFFFFFFFFFFFFFFFFFFFFFFFFFFFFFFFFFFFFFFFFFFFFFFFFFFF00 AND PUSH1 0x1 OR SWAP1 SSTORE DUP5 ADD DUP1 SLOAD DUP10 SWAP3 SWAP1 PUSH2 0x6C0 SWAP1 DUP5 SWAP1 PUSH2 0x1B45 JUMP JUMPDEST SWAP1 SWAP2 SSTORE POP POP PUSH1 0x40 MLOAD PUSH32 0x26B3293F00000000000000000000000000000000000000000000000000000000 DUP2 MSTORE PUSH20 0xFFFFFFFFFFFFFFFFFFFFFFFFFFFFFFFFFFFFFFFF DUP10 DUP2 AND PUSH1 0x4 DUP4 ADD MSTORE PUSH1 0x24 DUP3 ADD DUP10 SWAP1 MSTORE PUSH1 0x44 DUP3 ADD DUP9 SWAP1 MSTORE PUSH32 0x0 AND SWAP1 PUSH4 0x26B3293F SWAP1 PUSH1 0x64 ADD PUSH1 0x0 PUSH1 0x40 MLOAD DUP1 DUP4 SUB DUP2 PUSH1 0x0 DUP8 DUP1 EXTCODESIZE ISZERO DUP1 ISZERO PUSH2 0x75C JUMPI PUSH1 0x0 DUP1 REVERT JUMPDEST POP GAS CALL ISZERO DUP1 ISZERO PUSH2 0x770 JUMPI RETURNDATASIZE PUSH1 0x0 DUP1 RETURNDATACOPY RETURNDATASIZE PUSH1 0x0 REVERT JUMPDEST POP POP POP POP DUP8 PUSH20 0xFFFFFFFFFFFFFFFFFFFFFFFFFFFFFFFFFFFFFFFF AND DUP10 PUSH32 0xFC6ECD966B430510BEAE9124EFE7DD517ED5286D7ED0AE258F8556C7A9765A44 DUP10 DUP7 PUSH1 0x2 ADD SLOAD PUSH1 0x40 MLOAD PUSH2 0x7CA SWAP3 SWAP2 SWAP1 SWAP2 DUP3 MSTORE PUSH1 0x20 DUP3 ADD MSTORE PUSH1 0x40 ADD SWAP1 JUMP JUMPDEST PUSH1 0x40 MLOAD DUP1 SWAP2 SUB SWAP1 LOG3 POP POP POP POP POP POP POP POP POP JUMP JUMPDEST CALLDATASIZE PUSH1 0x0 PUSH2 0x7E8 PUSH2 0xE4D JUMP JUMPDEST SWAP2 POP SWAP2 POP SWAP1 SWAP2 JUMP JUMPDEST PUSH1 0x0 DUP4 DUP2 MSTORE PUSH1 0x1 PUSH1 0x20 MSTORE PUSH1 0x40 DUP2 KECCAK256 DUP1 SLOAD PUSH2 0x80E JUMPI PUSH1 0x1 SWAP2 POP POP PUSH2 0x896 JUMP JUMPDEST PUSH1 0x3 DUP2 ADD SLOAD TIMESTAMP SWAP1 DUP2 LT DUP1 PUSH2 0x825 JUMPI POP DUP2 PUSH1 0x4 ADD SLOAD DUP2 GT JUMPDEST ISZERO PUSH2 0x835 JUMPI PUSH1 0x2 SWAP3 POP POP POP PUSH2 0x896 JUMP JUMPDEST PUSH1 0x0 DUP7 DUP2 MSTORE PUSH1 0x2 PUSH1 0x20 SWAP1 DUP2 MSTORE PUSH1 0x40 DUP1 DUP4 KECCAK256 PUSH20 0xFFFFFFFFFFFFFFFFFFFFFFFFFFFFFFFFFFFFFFFF DUP10 AND DUP5 MSTORE SWAP1 SWAP2 MSTORE SWAP1 KECCAK256 SLOAD PUSH1 0xFF AND ISZERO PUSH2 0x878 JUMPI PUSH1 0x3 SWAP3 POP POP POP PUSH2 0x896 JUMP JUMPDEST DUP4 DUP3 PUSH1 0x2 ADD SLOAD LT ISZERO PUSH2 0x88F JUMPI PUSH1 0x4 SWAP3 POP POP POP PUSH2 0x896 JUMP JUMPDEST PUSH1 0x0 SWAP3 POP POP POP JUMPDEST SWAP4 SWAP3 POP POP POP JUMP JUMPDEST PUSH2 0x8B6 PUSH2 0x8A8 PUSH2 0xE58 JUMP JUMPDEST PUSH2 0x8B0 PUSH2 0xE62 JUMP JUMPDEST SWAP1 PUSH2 0xE90 JUMP JUMPDEST DUP5 DUP4 DUP2 EQ ISZERO DUP1 PUSH2 0x8C6 JUMPI POP DUP1 DUP3 EQ ISZERO JUMPDEST ISZERO PUSH2 0x8FD JUMPI PUSH1 0x40 MLOAD PUSH32 0x6582533600000000000000000000000000000000000000000000000000000000 DUP2 MSTORE PUSH1 0x4 ADD PUSH1 0x40 MLOAD DUP1 SWAP2 SUB SWAP1 REVERT JUMPDEST PUSH1 0x0 JUMPDEST DUP2 DUP2 LT ISZERO PUSH2 0x997 JUMPI PUSH2 0x98F DUP9 DUP9 DUP4 DUP2 DUP2 LT PUSH2 0x91D JUMPI PUSH2 0x91D PUSH2 0x1B7F JUMP JUMPDEST SWAP1 POP PUSH1 0x20 MUL ADD PUSH1 0x20 DUP2 ADD SWAP1 PUSH2 0x932 SWAP2 SWAP1 PUSH2 0x1970 JUMP JUMPDEST DUP6 DUP6 DUP5 DUP2 DUP2 LT PUSH2 0x944 JUMPI PUSH2 0x944 PUSH2 0x1B7F JUMP JUMPDEST SWAP1 POP PUSH1 0x20 MUL ADD CALLDATALOAD DUP9 DUP9 DUP6 DUP2 DUP2 LT PUSH2 0x95D JUMPI PUSH2 0x95D PUSH2 0x1B7F JUMP JUMPDEST SWAP1 POP PUSH1 0x20 MUL ADD PUSH1 0x20 DUP2 ADD SWAP1 PUSH2 0x972 SWAP2 SWAP1 PUSH2 0x1970 JUMP JUMPDEST PUSH20 0xFFFFFFFFFFFFFFFFFFFFFFFFFFFFFFFFFFFFFFFF AND SWAP2 SWAP1 PUSH2 0xEFF JUMP JUMPDEST PUSH1 0x1 ADD PUSH2 0x900 JUMP JUMPDEST POP POP POP POP POP POP POP POP JUMP JUMPDEST PUSH2 0x9AC PUSH2 0x8A8 PUSH2 0xE58 JUMP JUMPDEST DUP1 DUP3 LT PUSH2 0x9EF JUMPI PUSH1 0x40 MLOAD PUSH32 0x779ACDFF00000000000000000000000000000000000000000000000000000000 DUP2 MSTORE PUSH1 0x4 DUP2 ADD DUP4 SWAP1 MSTORE PUSH1 0x24 DUP2 ADD DUP3 SWAP1 MSTORE PUSH1 0x44 ADD PUSH2 0x407 JUMP JUMPDEST PUSH1 0x0 DUP1 SLOAD PUSH1 0x40 DUP1 MLOAD PUSH1 0xA0 DUP2 ADD DUP3 MSTORE DUP8 DUP2 MSTORE PUSH1 0x20 DUP1 DUP3 ADD DUP9 DUP2 MSTORE DUP3 DUP5 ADD DUP10 DUP2 MSTORE PUSH1 0x60 DUP1 DUP6 ADD DUP11 DUP2 MSTORE PUSH1 0x80 DUP1 DUP8 ADD DUP12 DUP2 MSTORE DUP10 DUP12 MSTORE PUSH1 0x1 DUP1 DUP9 MSTORE DUP10 DUP13 KECCAK256 SWAP9 MLOAD DUP10 SSTORE SWAP6 MLOAD DUP9 DUP8 ADD SSTORE SWAP4 MLOAD PUSH1 0x2 DUP9 ADD SSTORE SWAP1 MLOAD PUSH1 0x3 DUP8 ADD SSTORE SWAP2 MLOAD PUSH1 0x4 SWAP1 SWAP6 ADD SWAP5 SWAP1 SWAP5 SSTORE DUP7 SLOAD SWAP1 SWAP2 ADD SWAP1 SWAP6 SSTORE DUP3 MLOAD DUP10 DUP2 MSTORE SWAP1 DUP2 ADD DUP9 SWAP1 MSTORE SWAP2 DUP3 ADD DUP7 SWAP1 MSTORE DUP2 ADD DUP5 SWAP1 MSTORE SWAP1 SWAP2 DUP3 SWAP2 PUSH32 0x331C648136AF10432045D8CC15DFAEE6CA9568922F85CAB02D96D5F5286C8920 SWAP2 ADD PUSH1 0x40 MLOAD DUP1 SWAP2 SUB SWAP1 LOG2 POP POP POP POP POP JUMP JUMPDEST PUSH1 0x0 PUSH2 0xAC7 PUSH2 0xAAD PUSH2 0xE62 JUMP JUMPDEST SLOAD PUSH20 0xFFFFFFFFFFFFFFFFFFFFFFFFFFFFFFFFFFFFFFFF AND SWAP1 JUMP JUMPDEST SWAP1 POP SWAP1 JUMP JUMPDEST PUSH2 0xAD7 PUSH2 0x8A8 PUSH2 0xE58 JUMP JUMPDEST DUP5 DUP4 DUP2 EQ ISZERO DUP1 PUSH2 0xAE7 JUMPI POP DUP1 DUP3 EQ ISZERO JUMPDEST ISZERO PUSH2 0xB1E JUMPI PUSH1 0x40 MLOAD PUSH32 0x6582533600000000000000000000000000000000000000000000000000000000 DUP2 MSTORE PUSH1 0x4 ADD PUSH1 0x40 MLOAD DUP1 SWAP2 SUB SWAP1 REVERT JUMPDEST PUSH1 0x0 JUMPDEST DUP2 DUP2 LT ISZERO PUSH2 0x997 JUMPI DUP6 DUP6 DUP3 DUP2 DUP2 LT PUSH2 0xB3B JUMPI PUSH2 0xB3B PUSH2 0x1B7F JUMP JUMPDEST SWAP1 POP PUSH1 0x20 MUL ADD PUSH1 0x20 DUP2 ADD SWAP1 PUSH2 0xB50 SWAP2 SWAP1 PUSH2 0x1970 JUMP JUMPDEST PUSH20 0xFFFFFFFFFFFFFFFFFFFFFFFFFFFFFFFFFFFFFFFF AND PUSH4 0x23B872DD ADDRESS DUP11 DUP11 DUP6 DUP2 DUP2 LT PUSH2 0xB7E JUMPI PUSH2 0xB7E PUSH2 0x1B7F JUMP JUMPDEST SWAP1 POP PUSH1 0x20 MUL ADD PUSH1 0x20 DUP2 ADD SWAP1 PUSH2 0xB93 SWAP2 SWAP1 PUSH2 0x1970 JUMP JUMPDEST DUP8 DUP8 DUP7 DUP2 DUP2 LT PUSH2 0xBA5 JUMPI PUSH2 0xBA5 PUSH2 0x1B7F JUMP JUMPDEST PUSH1 0x40 MLOAD PUSH32 0xFFFFFFFF00000000000000000000000000000000000000000000000000000000 PUSH1 0xE0 DUP9 SWAP1 SHL AND DUP2 MSTORE PUSH20 0xFFFFFFFFFFFFFFFFFFFFFFFFFFFFFFFFFFFFFFFF SWAP6 DUP7 AND PUSH1 0x4 DUP3 ADD MSTORE SWAP5 SWAP1 SWAP4 AND PUSH1 0x24 DUP6 ADD MSTORE POP PUSH1 0x20 SWAP1 SWAP2 MUL ADD CALLDATALOAD PUSH1 0x44 DUP3 ADD MSTORE PUSH1 0x64 ADD PUSH1 0x0 PUSH1 0x40 MLOAD DUP1 DUP4 SUB DUP2 PUSH1 0x0 DUP8 DUP1 EXTCODESIZE ISZERO DUP1 ISZERO PUSH2 0xC21 JUMPI PUSH1 0x0 DUP1 REVERT JUMPDEST POP GAS CALL ISZERO DUP1 ISZERO PUSH2 0xC35 JUMPI RETURNDATASIZE PUSH1 0x0 DUP1 RETURNDATACOPY RETURNDATASIZE PUSH1 0x0 REVERT JUMPDEST POP POP POP POP DUP1 PUSH1 0x1 ADD SWAP1 POP PUSH2 0xB21 JUMP JUMPDEST PUSH1 0x0 PUSH2 0xAC7 PUSH2 0xE58 JUMP JUMPDEST PUSH2 0xC69 PUSH2 0xC59 PUSH2 0xE58 JUMP JUMPDEST DUP3 PUSH2 0xC62 PUSH2 0xE62 JUMP JUMPDEST SWAP2 SWAP1 PUSH2 0xF91 JUMP JUMPDEST POP JUMP JUMPDEST PUSH2 0xC77 PUSH2 0x8A8 PUSH2 0xE58 JUMP JUMPDEST DUP3 DUP2 DUP2 EQ PUSH2 0xCB1 JUMPI PUSH1 0x40 MLOAD PUSH32 0x6582533600000000000000000000000000000000000000000000000000000000 DUP2 MSTORE PUSH1 0x4 ADD PUSH1 0x40 MLOAD DUP1 SWAP2 SUB SWAP1 REVERT JUMPDEST PUSH1 0x0 JUMPDEST DUP2 DUP2 LT ISZERO PUSH2 0xD23 JUMPI PUSH2 0xD1B DUP5 DUP5 DUP4 DUP2 DUP2 LT PUSH2 0xCD1 JUMPI PUSH2 0xCD1 PUSH2 0x1B7F JUMP JUMPDEST SWAP1 POP PUSH1 0x20 MUL ADD CALLDATALOAD DUP8 DUP8 DUP5 DUP2 DUP2 LT PUSH2 0xCEA JUMPI PUSH2 0xCEA PUSH2 0x1B7F JUMP JUMPDEST SWAP1 POP PUSH1 0x20 MUL ADD PUSH1 0x20 DUP2 ADD SWAP1 PUSH2 0xCFF SWAP2 SWAP1 PUSH2 0x1970 JUMP JUMPDEST PUSH20 0xFFFFFFFFFFFFFFFFFFFFFFFFFFFFFFFFFFFFFFFF AND SWAP1 PUSH2 0x10A6 JUMP JUMPDEST PUSH1 0x1 ADD PUSH2 0xCB4 JUMP JUMPDEST POP POP POP POP POP POP JUMP JUMPDEST PUSH1 0x0 DUP1 PUSH2 0x3BC PUSH1 0x1 PUSH32 0xCA9D3E17F264B0F3984E2634E94ADB37FA3E6A8103F06AEAE6FA59E21C769F5E PUSH2 0x1B45 JUMP JUMPDEST PUSH1 0x0 PUSH29 0x100000000000000000000000000000000000000000000000000000000 PUSH32 0xFFFFFFFF00000000000000000000000000000000000000000000000000000000 DUP4 AND ADD PUSH2 0xDA9 JUMPI POP PUSH1 0x0 PUSH2 0x3BC JUMP JUMPDEST PUSH32 0xFE00365900000000000000000000000000000000000000000000000000000000 PUSH32 0xFFFFFFFF00000000000000000000000000000000000000000000000000000000 DUP4 AND ADD PUSH2 0xDFA JUMPI POP PUSH1 0x1 PUSH2 0x3BC JUMP JUMPDEST POP PUSH32 0xFFFFFFFF00000000000000000000000000000000000000000000000000000000 AND PUSH1 0x0 SWAP1 DUP2 MSTORE PUSH1 0x20 SWAP2 SWAP1 SWAP2 MSTORE PUSH1 0x40 SWAP1 KECCAK256 SLOAD PUSH1 0xFF AND SWAP1 JUMP JUMPDEST PUSH1 0x0 DUP3 PUSH2 0xE41 DUP7 DUP7 DUP6 PUSH2 0x1200 JUMP JUMPDEST EQ SWAP1 POP JUMPDEST SWAP5 SWAP4 POP POP POP POP JUMP JUMPDEST CALLDATASIZE PUSH1 0x0 PUSH2 0x7E8 PUSH2 0x1242 JUMP JUMPDEST PUSH1 0x0 PUSH2 0xAC7 PUSH2 0x13AC JUMP JUMPDEST PUSH1 0x0 DUP1 PUSH2 0x3BC PUSH1 0x1 PUSH32 0xC9ED16F33AB3A66C84BFD83099CCB2A8845871E2E1C1928F63797152F0FD54CD PUSH2 0x1B45 JUMP JUMPDEST DUP2 SLOAD PUSH20 0xFFFFFFFFFFFFFFFFFFFFFFFFFFFFFFFFFFFFFFFF DUP3 DUP2 AND SWAP2 AND EQ PUSH2 0xEFB JUMPI PUSH1 0x40 MLOAD PUSH32 0x2EF4875E00000000000000000000000000000000000000000000000000000000 DUP2 MSTORE PUSH20 0xFFFFFFFFFFFFFFFFFFFFFFFFFFFFFFFFFFFFFFFF DUP3 AND PUSH1 0x4 DUP3 ADD MSTORE PUSH1 0x24 ADD PUSH2 0x407 JUMP JUMPDEST POP POP JUMP JUMPDEST PUSH1 0x40 DUP1 MLOAD PUSH20 0xFFFFFFFFFFFFFFFFFFFFFFFFFFFFFFFFFFFFFFFF DUP5 AND PUSH1 0x24 DUP3 ADD MSTORE PUSH1 0x44 DUP1 DUP3 ADD DUP5 SWAP1 MSTORE DUP3 MLOAD DUP1 DUP4 SUB SWAP1 SWAP2 ADD DUP2 MSTORE PUSH1 0x64 SWAP1 SWAP2 ADD SWAP1 SWAP2 MSTORE PUSH1 0x20 DUP2 ADD DUP1 MLOAD PUSH28 0xFFFFFFFFFFFFFFFFFFFFFFFFFFFFFFFFFFFFFFFFFFFFFFFFFFFFFFFF AND PUSH32 0xA9059CBB00000000000000000000000000000000000000000000000000000000 OR SWAP1 MSTORE PUSH2 0xF8C SWAP1 DUP5 SWAP1 PUSH2 0x14F3 JUMP JUMPDEST POP POP POP JUMP JUMPDEST DUP3 SLOAD PUSH20 0xFFFFFFFFFFFFFFFFFFFFFFFFFFFFFFFFFFFFFFFF SWAP1 DUP2 AND SWAP1 DUP4 AND DUP2 EQ PUSH2 0xFFE JUMPI PUSH1 0x40 MLOAD PUSH32 0x2EF4875E00000000000000000000000000000000000000000000000000000000 DUP2 MSTORE PUSH20 0xFFFFFFFFFFFFFFFFFFFFFFFFFFFFFFFFFFFFFFFF DUP5 AND PUSH1 0x4 DUP3 ADD MSTORE PUSH1 0x24 ADD PUSH2 0x407 JUMP JUMPDEST DUP2 PUSH20 0xFFFFFFFFFFFFFFFFFFFFFFFFFFFFFFFFFFFFFFFF AND DUP2 PUSH20 0xFFFFFFFFFFFFFFFFFFFFFFFFFFFFFFFFFFFFFFFF AND EQ PUSH2 0x10A0 JUMPI DUP4 SLOAD PUSH32 0xFFFFFFFFFFFFFFFFFFFFFFFF0000000000000000000000000000000000000000 AND PUSH20 0xFFFFFFFFFFFFFFFFFFFFFFFFFFFFFFFFFFFFFFFF DUP4 DUP2 AND SWAP2 DUP3 OR DUP7 SSTORE PUSH1 0x40 MLOAD SWAP1 DUP4 AND SWAP1 PUSH32 0x8BE0079C531659141344CD1FD0A4F28419497F9722A3DAAFE3B4186F6B6457E0 SWAP1 PUSH1 0x0 SWAP1 LOG3 JUMPDEST POP POP POP POP JUMP JUMPDEST DUP1 SELFBALANCE LT ISZERO PUSH2 0x1110 JUMPI PUSH1 0x40 MLOAD PUSH32 0x8C379A000000000000000000000000000000000000000000000000000000000 DUP2 MSTORE PUSH1 0x20 PUSH1 0x4 DUP3 ADD MSTORE PUSH1 0x1D PUSH1 0x24 DUP3 ADD MSTORE PUSH32 0x416464726573733A20696E73756666696369656E742062616C616E6365000000 PUSH1 0x44 DUP3 ADD MSTORE PUSH1 0x64 ADD PUSH2 0x407 JUMP JUMPDEST PUSH1 0x0 DUP3 PUSH20 0xFFFFFFFFFFFFFFFFFFFFFFFFFFFFFFFFFFFFFFFF AND DUP3 PUSH1 0x40 MLOAD PUSH1 0x0 PUSH1 0x40 MLOAD DUP1 DUP4 SUB DUP2 DUP6 DUP8 GAS CALL SWAP3 POP POP POP RETURNDATASIZE DUP1 PUSH1 0x0 DUP2 EQ PUSH2 0x116A JUMPI PUSH1 0x40 MLOAD SWAP2 POP PUSH1 0x1F NOT PUSH1 0x3F RETURNDATASIZE ADD AND DUP3 ADD PUSH1 0x40 MSTORE RETURNDATASIZE DUP3 MSTORE RETURNDATASIZE PUSH1 0x0 PUSH1 0x20 DUP5 ADD RETURNDATACOPY PUSH2 0x116F JUMP JUMPDEST PUSH1 0x60 SWAP2 POP JUMPDEST POP POP SWAP1 POP DUP1 PUSH2 0xF8C JUMPI PUSH1 0x40 MLOAD PUSH32 0x8C379A000000000000000000000000000000000000000000000000000000000 DUP2 MSTORE PUSH1 0x20 PUSH1 0x4 DUP3 ADD MSTORE PUSH1 0x3A PUSH1 0x24 DUP3 ADD MSTORE PUSH32 0x416464726573733A20756E61626C6520746F2073656E642076616C75652C2072 PUSH1 0x44 DUP3 ADD MSTORE PUSH32 0x6563697069656E74206D61792068617665207265766572746564000000000000 PUSH1 0x64 DUP3 ADD MSTORE PUSH1 0x84 ADD PUSH2 0x407 JUMP JUMPDEST PUSH1 0x0 DUP2 DUP2 JUMPDEST DUP5 DUP2 LT ISZERO PUSH2 0x1239 JUMPI PUSH2 0x122F DUP3 DUP8 DUP8 DUP5 DUP2 DUP2 LT PUSH2 0x1223 JUMPI PUSH2 0x1223 PUSH2 0x1B7F JUMP JUMPDEST SWAP1 POP PUSH1 0x20 MUL ADD CALLDATALOAD PUSH2 0x1602 JUMP JUMPDEST SWAP2 POP PUSH1 0x1 ADD PUSH2 0x1205 JUMP JUMPDEST POP SWAP5 SWAP4 POP POP POP POP JUMP JUMPDEST CALLDATASIZE PUSH1 0x0 CALLER ORIGIN EQ DUP1 PUSH2 0x1253 JUMPI POP PUSH1 0x18 CALLDATASIZE LT JUMPDEST ISZERO PUSH2 0x1261 JUMPI POP PUSH1 0x0 SWAP2 CALLDATASIZE SWAP2 POP JUMP JUMPDEST CALLER PUSH20 0xFFFFFFFFFFFFFFFFFFFFFFFFFFFFFFFFFFFFFFFF PUSH32 0x0 AND EQ DUP1 PUSH2 0x1396 JUMPI POP PUSH20 0xFFFFFFFFFFFFFFFFFFFFFFFFFFFFFFFFFFFFFFFF PUSH32 0x0 AND PUSH4 0x8929A8CA CALLDATASIZE PUSH32 0xFFFFFFFFFFFFFFFFFFFFFFFFFFFFFFFFFFFFFFFFFFFFFFFFFFFFFFFFFFFFFFEC ADD CALLDATALOAD PUSH1 0x60 SHR PUSH1 0x40 MLOAD PUSH32 0xFFFFFFFF00000000000000000000000000000000000000000000000000000000 PUSH1 0xE0 DUP5 SWAP1 SHL AND DUP2 MSTORE PUSH20 0xFFFFFFFFFFFFFFFFFFFFFFFFFFFFFFFFFFFFFFFF SWAP1 SWAP2 AND PUSH1 0x4 DUP3 ADD MSTORE CALLER PUSH1 0x24 DUP3 ADD MSTORE PUSH1 0x44 ADD PUSH1 0x20 PUSH1 0x40 MLOAD DUP1 DUP4 SUB DUP2 DUP7 GAS STATICCALL ISZERO DUP1 ISZERO PUSH2 0x1372 JUMPI RETURNDATASIZE PUSH1 0x0 DUP1 RETURNDATACOPY RETURNDATASIZE PUSH1 0x0 REVERT JUMPDEST POP POP POP POP PUSH1 0x40 MLOAD RETURNDATASIZE PUSH1 0x1F NOT PUSH1 0x1F DUP3 ADD AND DUP3 ADD DUP1 PUSH1 0x40 MSTORE POP DUP2 ADD SWAP1 PUSH2 0x1396 SWAP2 SWAP1 PUSH2 0x1BAE JUMP JUMPDEST ISZERO PUSH2 0x13A3 JUMPI PUSH2 0x7E8 PUSH2 0x162E JUMP JUMPDEST POP PUSH1 0x0 SWAP2 CALLDATASIZE SWAP2 POP JUMP JUMPDEST PUSH1 0x0 CALLER ORIGIN EQ DUP1 PUSH2 0x13BC JUMPI POP PUSH1 0x18 CALLDATASIZE LT JUMPDEST ISZERO PUSH2 0x13C6 JUMPI POP CALLER SWAP1 JUMP JUMPDEST PUSH32 0xFFFFFFFFFFFFFFFFFFFFFFFFFFFFFFFFFFFFFFFFFFFFFFFFFFFFFFFFFFFFFFEC CALLDATASIZE ADD CALLDATALOAD PUSH1 0x60 SHR PUSH32 0x0 PUSH20 0xFFFFFFFFFFFFFFFFFFFFFFFFFFFFFFFFFFFFFFFF AND CALLER EQ DUP1 PUSH2 0x14E2 JUMPI POP PUSH1 0x40 MLOAD PUSH32 0x8929A8CA00000000000000000000000000000000000000000000000000000000 DUP2 MSTORE PUSH20 0xFFFFFFFFFFFFFFFFFFFFFFFFFFFFFFFFFFFFFFFF DUP3 DUP2 AND PUSH1 0x4 DUP4 ADD MSTORE CALLER PUSH1 0x24 DUP4 ADD MSTORE PUSH32 0x0 AND SWAP1 PUSH4 0x8929A8CA SWAP1 PUSH1 0x44 ADD PUSH1 0x20 PUSH1 0x40 MLOAD DUP1 DUP4 SUB DUP2 DUP7 GAS STATICCALL ISZERO DUP1 ISZERO PUSH2 0x14BE JUMPI RETURNDATASIZE PUSH1 0x0 DUP1 RETURNDATACOPY RETURNDATASIZE PUSH1 0x0 REVERT JUMPDEST POP POP POP POP PUSH1 0x40 MLOAD RETURNDATASIZE PUSH1 0x1F NOT PUSH1 0x1F DUP3 ADD AND DUP3 ADD DUP1 PUSH1 0x40 MSTORE POP DUP2 ADD SWAP1 PUSH2 0x14E2 SWAP2 SWAP1 PUSH2 0x1BAE JUMP JUMPDEST ISZERO PUSH2 0x14EC JUMPI SWAP2 SWAP1 POP JUMP JUMPDEST CALLER SWAP2 POP POP SWAP1 JUMP JUMPDEST PUSH1 0x0 PUSH2 0x1555 DUP3 PUSH1 0x40 MLOAD DUP1 PUSH1 0x40 ADD PUSH1 0x40 MSTORE DUP1 PUSH1 0x20 DUP2 MSTORE PUSH1 0x20 ADD PUSH32 0x5361666545524332303A206C6F772D6C6576656C2063616C6C206661696C6564 DUP2 MSTORE POP DUP6 PUSH20 0xFFFFFFFFFFFFFFFFFFFFFFFFFFFFFFFFFFFFFFFF AND PUSH2 0x165F SWAP1 SWAP3 SWAP2 SWAP1 PUSH4 0xFFFFFFFF AND JUMP JUMPDEST SWAP1 POP DUP1 MLOAD PUSH1 0x0 EQ DUP1 PUSH2 0x1576 JUMPI POP DUP1 DUP1 PUSH1 0x20 ADD SWAP1 MLOAD DUP2 ADD SWAP1 PUSH2 0x1576 SWAP2 SWAP1 PUSH2 0x1BAE JUMP JUMPDEST PUSH2 0xF8C JUMPI PUSH1 0x40 MLOAD PUSH32 0x8C379A000000000000000000000000000000000000000000000000000000000 DUP2 MSTORE PUSH1 0x20 PUSH1 0x4 DUP3 ADD MSTORE PUSH1 0x2A PUSH1 0x24 DUP3 ADD MSTORE PUSH32 0x5361666545524332303A204552433230206F7065726174696F6E20646964206E PUSH1 0x44 DUP3 ADD MSTORE PUSH32 0x6F74207375636365656400000000000000000000000000000000000000000000 PUSH1 0x64 DUP3 ADD MSTORE PUSH1 0x84 ADD PUSH2 0x407 JUMP JUMPDEST PUSH1 0x0 DUP2 DUP4 LT PUSH2 0x161E JUMPI PUSH1 0x0 DUP3 DUP2 MSTORE PUSH1 0x20 DUP5 SWAP1 MSTORE PUSH1 0x40 SWAP1 KECCAK256 PUSH2 0x896 JUMP JUMPDEST POP PUSH1 0x0 SWAP2 DUP3 MSTORE PUSH1 0x20 MSTORE PUSH1 0x40 SWAP1 KECCAK256 SWAP1 JUMP JUMPDEST CALLDATASIZE PUSH1 0x0 PUSH2 0x7E8 PUSH32 0xFFFFFFFFFFFFFFFFFFFFFFFFFFFFFFFFFFFFFFFFFFFFFFFFFFFFFFFFFFFFFFEC DUP4 ADD DUP3 DUP5 DUP2 PUSH2 0x1BD0 JUMP JUMPDEST PUSH1 0x60 PUSH2 0xE45 DUP5 DUP5 PUSH1 0x0 DUP6 DUP6 PUSH1 0x0 DUP1 DUP7 PUSH20 0xFFFFFFFFFFFFFFFFFFFFFFFFFFFFFFFFFFFFFFFF AND DUP6 DUP8 PUSH1 0x40 MLOAD PUSH2 0x1693 SWAP2 SWAP1 PUSH2 0x1C1E JUMP JUMPDEST PUSH1 0x0 PUSH1 0x40 MLOAD DUP1 DUP4 SUB DUP2 DUP6 DUP8 GAS CALL SWAP3 POP POP POP RETURNDATASIZE DUP1 PUSH1 0x0 DUP2 EQ PUSH2 0x16D0 JUMPI PUSH1 0x40 MLOAD SWAP2 POP PUSH1 0x1F NOT PUSH1 0x3F RETURNDATASIZE ADD AND DUP3 ADD PUSH1 0x40 MSTORE RETURNDATASIZE DUP3 MSTORE RETURNDATASIZE PUSH1 0x0 PUSH1 0x20 DUP5 ADD RETURNDATACOPY PUSH2 0x16D5 JUMP JUMPDEST PUSH1 0x60 SWAP2 POP JUMPDEST POP SWAP2 POP SWAP2 POP PUSH2 0x16E6 DUP8 DUP4 DUP4 DUP8 PUSH2 0x16F1 JUMP JUMPDEST SWAP8 SWAP7 POP POP POP POP POP POP POP JUMP JUMPDEST PUSH1 0x60 DUP4 ISZERO PUSH2 0x1787 JUMPI DUP3 MLOAD PUSH1 0x0 SUB PUSH2 0x1780 JUMPI PUSH20 0xFFFFFFFFFFFFFFFFFFFFFFFFFFFFFFFFFFFFFFFF DUP6 AND EXTCODESIZE PUSH2 0x1780 JUMPI PUSH1 0x40 MLOAD PUSH32 0x8C379A000000000000000000000000000000000000000000000000000000000 DUP2 MSTORE PUSH1 0x20 PUSH1 0x4 DUP3 ADD MSTORE PUSH1 0x1D PUSH1 0x24 DUP3 ADD MSTORE PUSH32 0x416464726573733A2063616C6C20746F206E6F6E2D636F6E7472616374000000 PUSH1 0x44 DUP3 ADD MSTORE PUSH1 0x64 ADD PUSH2 0x407 JUMP JUMPDEST POP DUP2 PUSH2 0xE45 JUMP JUMPDEST PUSH2 0xE45 DUP4 DUP4 DUP2 MLOAD ISZERO PUSH2 0x179C JUMPI DUP2 MLOAD DUP1 DUP4 PUSH1 0x20 ADD REVERT JUMPDEST DUP1 PUSH1 0x40 MLOAD PUSH32 0x8C379A000000000000000000000000000000000000000000000000000000000 DUP2 MSTORE PUSH1 0x4 ADD PUSH2 0x407 SWAP2 SWAP1 PUSH2 0x1C3A JUMP JUMPDEST PUSH1 0x0 PUSH1 0x20 DUP3 DUP5 SUB SLT ISZERO PUSH2 0x17E2 JUMPI PUSH1 0x0 DUP1 REVERT JUMPDEST DUP2 CALLDATALOAD PUSH32 0xFFFFFFFF00000000000000000000000000000000000000000000000000000000 DUP2 AND DUP2 EQ PUSH2 0x896 JUMPI PUSH1 0x0 DUP1 REVERT JUMPDEST PUSH20 0xFFFFFFFFFFFFFFFFFFFFFFFFFFFFFFFFFFFFFFFF DUP2 AND DUP2 EQ PUSH2 0xC69 JUMPI PUSH1 0x0 DUP1 REVERT JUMPDEST PUSH1 0x0 DUP1 PUSH1 0x40 DUP4 DUP6 SUB SLT ISZERO PUSH2 0x1847 JUMPI PUSH1 0x0 DUP1 REVERT JUMPDEST DUP3 CALLDATALOAD SWAP2 POP PUSH1 0x20 DUP4 ADD CALLDATALOAD PUSH2 0x1859 DUP2 PUSH2 0x1812 JUMP JUMPDEST DUP1 SWAP2 POP POP SWAP3 POP SWAP3 SWAP1 POP JUMP JUMPDEST PUSH1 0x0 DUP1 DUP4 PUSH1 0x1F DUP5 ADD SLT PUSH2 0x1876 JUMPI PUSH1 0x0 DUP1 REVERT JUMPDEST POP DUP2 CALLDATALOAD PUSH8 0xFFFFFFFFFFFFFFFF DUP2 GT ISZERO PUSH2 0x188E JUMPI PUSH1 0x0 DUP1 REVERT JUMPDEST PUSH1 0x20 DUP4 ADD SWAP2 POP DUP4 PUSH1 0x20 DUP3 PUSH1 0x5 SHL DUP6 ADD ADD GT ISZERO PUSH2 0x18A9 JUMPI PUSH1 0x0 DUP1 REVERT JUMPDEST SWAP3 POP SWAP3 SWAP1 POP JUMP JUMPDEST PUSH1 0x0 DUP1 PUSH1 0x0 DUP1 PUSH1 0x0 DUP1 PUSH1 0xA0 DUP8 DUP10 SUB SLT ISZERO PUSH2 0x18C9 JUMPI PUSH1 0x0 DUP1 REVERT JUMPDEST DUP7 CALLDATALOAD SWAP6 POP PUSH1 0x20 DUP8 ADD CALLDATALOAD PUSH2 0x18DB DUP2 PUSH2 0x1812 JUMP JUMPDEST SWAP5 POP PUSH1 0x40 DUP8 ADD CALLDATALOAD SWAP4 POP PUSH1 0x60 DUP8 ADD CALLDATALOAD SWAP3 POP PUSH1 0x80 DUP8 ADD CALLDATALOAD PUSH8 0xFFFFFFFFFFFFFFFF DUP2 GT ISZERO PUSH2 0x1905 JUMPI PUSH1 0x0 DUP1 REVERT JUMPDEST PUSH2 0x1911 DUP10 DUP3 DUP11 ADD PUSH2 0x1864 JUMP JUMPDEST SWAP8 SWAP11 SWAP7 SWAP10 POP SWAP5 SWAP8 POP SWAP3 SWAP6 SWAP4 SWAP5 SWAP3 POP POP POP JUMP JUMPDEST PUSH1 0x20 DUP2 MSTORE DUP2 PUSH1 0x20 DUP3 ADD MSTORE DUP2 DUP4 PUSH1 0x40 DUP4 ADD CALLDATACOPY PUSH1 0x0 DUP2 DUP4 ADD PUSH1 0x40 SWAP1 DUP2 ADD SWAP2 SWAP1 SWAP2 MSTORE PUSH1 0x1F SWAP1 SWAP3 ADD PUSH32 0xFFFFFFFFFFFFFFFFFFFFFFFFFFFFFFFFFFFFFFFFFFFFFFFFFFFFFFFFFFFFFFE0 AND ADD ADD SWAP2 SWAP1 POP JUMP JUMPDEST PUSH1 0x0 PUSH1 0x20 DUP3 DUP5 SUB SLT ISZERO PUSH2 0x1982 JUMPI PUSH1 0x0 DUP1 REVERT JUMPDEST DUP2 CALLDATALOAD PUSH2 0x896 DUP2 PUSH2 0x1812 JUMP JUMPDEST PUSH1 0x0 PUSH1 0x20 DUP3 DUP5 SUB SLT ISZERO PUSH2 0x199F JUMPI PUSH1 0x0 DUP1 REVERT JUMPDEST POP CALLDATALOAD SWAP2 SWAP1 POP JUMP JUMPDEST PUSH1 0x0 DUP1 PUSH1 0x0 PUSH1 0x60 DUP5 DUP7 SUB SLT ISZERO PUSH2 0x19BB JUMPI PUSH1 0x0 DUP1 REVERT JUMPDEST DUP4 CALLDATALOAD SWAP3 POP PUSH1 0x20 DUP5 ADD CALLDATALOAD PUSH2 0x19CD DUP2 PUSH2 0x1812 JUMP JUMPDEST SWAP3 SWAP6 SWAP3 SWAP5 POP POP POP PUSH1 0x40 SWAP2 SWAP1 SWAP2 ADD CALLDATALOAD SWAP1 JUMP JUMPDEST PUSH1 0x20 DUP2 ADD PUSH1 0x5 DUP4 LT PUSH2 0x1A19 JUMPI PUSH32 0x4E487B7100000000000000000000000000000000000000000000000000000000 PUSH1 0x0 MSTORE PUSH1 0x21 PUSH1 0x4 MSTORE PUSH1 0x24 PUSH1 0x0 REVERT JUMPDEST SWAP2 SWAP1 MSTORE SWAP1 JUMP JUMPDEST PUSH1 0x0 DUP1 PUSH1 0x0 DUP1 PUSH1 0x0 DUP1 PUSH1 0x60 DUP8 DUP10 SUB SLT ISZERO PUSH2 0x1A38 JUMPI PUSH1 0x0 DUP1 REVERT JUMPDEST DUP7 CALLDATALOAD PUSH8 0xFFFFFFFFFFFFFFFF DUP1 DUP3 GT ISZERO PUSH2 0x1A50 JUMPI PUSH1 0x0 DUP1 REVERT JUMPDEST PUSH2 0x1A5C DUP11 DUP4 DUP12 ADD PUSH2 0x1864 JUMP JUMPDEST SWAP1 SWAP9 POP SWAP7 POP PUSH1 0x20 DUP10 ADD CALLDATALOAD SWAP2 POP DUP1 DUP3 GT ISZERO PUSH2 0x1A75 JUMPI PUSH1 0x0 DUP1 REVERT JUMPDEST PUSH2 0x1A81 DUP11 DUP4 DUP12 ADD PUSH2 0x1864 JUMP JUMPDEST SWAP1 SWAP7 POP SWAP5 POP PUSH1 0x40 DUP10 ADD CALLDATALOAD SWAP2 POP DUP1 DUP3 GT ISZERO PUSH2 0x1A9A JUMPI PUSH1 0x0 DUP1 REVERT JUMPDEST POP PUSH2 0x1911 DUP10 DUP3 DUP11 ADD PUSH2 0x1864 JUMP JUMPDEST PUSH1 0x0 DUP1 PUSH1 0x0 DUP1 PUSH1 0x80 DUP6 DUP8 SUB SLT ISZERO PUSH2 0x1ABD JUMPI PUSH1 0x0 DUP1 REVERT JUMPDEST POP POP DUP3 CALLDATALOAD SWAP5 PUSH1 0x20 DUP5 ADD CALLDATALOAD SWAP5 POP PUSH1 0x40 DUP5 ADD CALLDATALOAD SWAP4 PUSH1 0x60 ADD CALLDATALOAD SWAP3 POP SWAP1 POP JUMP JUMPDEST PUSH1 0x0 DUP1 PUSH1 0x0 DUP1 PUSH1 0x40 DUP6 DUP8 SUB SLT ISZERO PUSH2 0x1AEF JUMPI PUSH1 0x0 DUP1 REVERT JUMPDEST DUP5 CALLDATALOAD PUSH8 0xFFFFFFFFFFFFFFFF DUP1 DUP3 GT ISZERO PUSH2 0x1B07 JUMPI PUSH1 0x0 DUP1 REVERT JUMPDEST PUSH2 0x1B13 DUP9 DUP4 DUP10 ADD PUSH2 0x1864 JUMP JUMPDEST SWAP1 SWAP7 POP SWAP5 POP PUSH1 0x20 DUP8 ADD CALLDATALOAD SWAP2 POP DUP1 DUP3 GT ISZERO PUSH2 0x1B2C JUMPI PUSH1 0x0 DUP1 REVERT JUMPDEST POP PUSH2 0x1B39 DUP8 DUP3 DUP9 ADD PUSH2 0x1864 JUMP JUMPDEST SWAP6 SWAP9 SWAP5 SWAP8 POP SWAP6 POP POP POP POP JUMP JUMPDEST DUP2 DUP2 SUB DUP2 DUP2 GT ISZERO PUSH2 0x3BC JUMPI PUSH32 0x4E487B7100000000000000000000000000000000000000000000000000000000 PUSH1 0x0 MSTORE PUSH1 0x11 PUSH1 0x4 MSTORE PUSH1 0x24 PUSH1 0x0 REVERT JUMPDEST PUSH32 0x4E487B7100000000000000000000000000000000000000000000000000000000 PUSH1 0x0 MSTORE PUSH1 0x32 PUSH1 0x4 MSTORE PUSH1 0x24 PUSH1 0x0 REVERT JUMPDEST PUSH1 0x0 PUSH1 0x20 DUP3 DUP5 SUB SLT ISZERO PUSH2 0x1BC0 JUMPI PUSH1 0x0 DUP1 REVERT JUMPDEST DUP2 MLOAD DUP1 ISZERO ISZERO DUP2 EQ PUSH2 0x896 JUMPI PUSH1 0x0 DUP1 REVERT JUMPDEST PUSH1 0x0 DUP1 DUP6 DUP6 GT ISZERO PUSH2 0x1BE0 JUMPI PUSH1 0x0 DUP1 REVERT JUMPDEST DUP4 DUP7 GT ISZERO PUSH2 0x1BED JUMPI PUSH1 0x0 DUP1 REVERT JUMPDEST POP POP DUP3 ADD SWAP4 SWAP2 SWAP1 SWAP3 SUB SWAP2 POP JUMP JUMPDEST PUSH1 0x0 JUMPDEST DUP4 DUP2 LT ISZERO PUSH2 0x1C15 JUMPI DUP2 DUP2 ADD MLOAD DUP4 DUP3 ADD MSTORE PUSH1 0x20 ADD PUSH2 0x1BFD JUMP JUMPDEST POP POP PUSH1 0x0 SWAP2 ADD MSTORE JUMP JUMPDEST PUSH1 0x0 DUP3 MLOAD PUSH2 0x1C30 DUP2 DUP5 PUSH1 0x20 DUP8 ADD PUSH2 0x1BFA JUMP JUMPDEST SWAP2 SWAP1 SWAP2 ADD SWAP3 SWAP2 POP POP JUMP JUMPDEST PUSH1 0x20 DUP2 MSTORE PUSH1 0x0 DUP3 MLOAD DUP1 PUSH1 0x20 DUP5 ADD MSTORE PUSH2 0x1C59 DUP2 PUSH1 0x40 DUP6 ADD PUSH1 0x20 DUP8 ADD PUSH2 0x1BFA JUMP JUMPDEST PUSH1 0x1F ADD PUSH32 0xFFFFFFFFFFFFFFFFFFFFFFFFFFFFFFFFFFFFFFFFFFFFFFFFFFFFFFFFFFFFFFE0 AND SWAP2 SWAP1 SWAP2 ADD PUSH1 0x40 ADD SWAP3 SWAP2 POP POP JUMP INVALID LOG2 PUSH5 0x6970667358 0x22 SLT KECCAK256 0xC9 0xDF PUSH14 0x329720FE94F582008BBA2E067A51 MSIZE PUSH23 0x1F2F7A3D53FFC40CBF24E3540264736F6C634300081600 CALLER "},"gasEstimates":{"creation":{"codeDepositCost":"1472200","executionCost":"infinite","totalCost":"infinite"},"external":{"OPERATOR_ROLE()":"261","POINTS_CONTRACT()":"infinite","__msgData()":"infinite","__msgSender()":"infinite","canClaim(uint256,address,uint256)":"11421","claim(uint256,address,uint256,bytes32,bytes32[])":"infinite","claimEpochs(uint256)":"11049","claimed(uint256,address)":"2651","currentEpochId()":"2362","forwarderRegistry()":"infinite","isTrustedForwarder(address)":"infinite","owner()":"infinite","recoverERC20s(address[],address[],uint256[])":"infinite","recoverERC721s(address[],address[],uint256[])":"infinite","recoverETH(address[],uint256[])":"infinite","setMerkleRoot(bytes32,uint256,uint256,uint256)":"infinite","supportsInterface(bytes4)":"infinite","transferOwnership(address)":"infinite"}},"methodIdentifiers":{"OPERATOR_ROLE()":"f5b541a6","POINTS_CONTRACT()":"2d4c2f93","__msgData()":"31e66e1e","__msgSender()":"d1a91ff2","canClaim(uint256,address,uint256)":"7124094f","claim(uint256,address,uint256,bytes32,bytes32[])":"2035a4dd","claimEpochs(uint256)":"5c9a509b","claimed(uint256,address)":"120aa877","currentEpochId()":"eacdc5ff","forwarderRegistry()":"2b4c9f16","isTrustedForwarder(address)":"572b6c05","owner()":"8da5cb5b","recoverERC20s(address[],address[],uint256[])":"73c8a958","recoverERC721s(address[],address[],uint256[])":"c3666c36","recoverETH(address[],uint256[])":"f7ba94bd","setMerkleRoot(bytes32,uint256,uint256,uint256)":"833d47b6","supportsInterface(bytes4)":"01ffc9a7","transferOwnership(address)":"f2fde38b"}},"storageLayout":{"storage":[{"astId":2798,"contract":"contracts/mocks/payment/LimitedOCPointsMerkleClaimMock.sol:LimitedOCPointsMerkleClaimMock","label":"currentEpochId","offset":0,"slot":"0","type":"t_uint256"},{"astId":2804,"contract":"contracts/mocks/payment/LimitedOCPointsMerkleClaimMock.sol:LimitedOCPointsMerkleClaimMock","label":"claimEpochs","offset":0,"slot":"1","type":"t_mapping(t_uint256,t_struct(ClaimEpoch)2795_storage)"},{"astId":2811,"contract":"contracts/mocks/payment/LimitedOCPointsMerkleClaimMock.sol:LimitedOCPointsMerkleClaimMock","label":"claimed","offset":0,"slot":"2","type":"t_mapping(t_uint256,t_mapping(t_address,t_bool))"}],"types":{"t_address":{"encoding":"inplace","label":"address","numberOfBytes":"20"},"t_bool":{"encoding":"inplace","label":"bool","numberOfBytes":"1"},"t_bytes32":{"encoding":"inplace","label":"bytes32","numberOfBytes":"32"},"t_mapping(t_address,t_bool)":{"encoding":"mapping","key":"t_address","label":"mapping(address => bool)","numberOfBytes":"32","value":"t_bool"},"t_mapping(t_uint256,t_mapping(t_address,t_bool))":{"encoding":"mapping","key":"t_uint256","label":"mapping(uint256 => mapping(address => bool))","numberOfBytes":"32","value":"t_mapping(t_address,t_bool)"},"t_mapping(t_uint256,t_struct(ClaimEpoch)2795_storage)":{"encoding":"mapping","key":"t_uint256","label":"mapping(uint256 => struct LimitedOCPointsMerkleClaim.ClaimEpoch)","numberOfBytes":"32","value":"t_struct(ClaimEpoch)2795_storage"},"t_struct(ClaimEpoch)2795_storage":{"encoding":"inplace","label":"struct LimitedOCPointsMerkleClaim.ClaimEpoch","members":[{"astId":2786,"contract":"contracts/mocks/payment/LimitedOCPointsMerkleClaimMock.sol:LimitedOCPointsMerkleClaimMock","label":"merkleRoot","offset":0,"slot":"0","type":"t_bytes32"},{"astId":2788,"contract":"contracts/mocks/payment/LimitedOCPointsMerkleClaimMock.sol:LimitedOCPointsMerkleClaimMock","label":"totalAmount","offset":0,"slot":"1","type":"t_uint256"},{"astId":2790,"contract":"contracts/mocks/payment/LimitedOCPointsMerkleClaimMock.sol:LimitedOCPointsMerkleClaimMock","label":"amountLeft","offset":0,"slot":"2","type":"t_uint256"},{"astId":2792,"contract":"contracts/mocks/payment/LimitedOCPointsMerkleClaimMock.sol:LimitedOCPointsMerkleClaimMock","label":"startTime","offset":0,"slot":"3","type":"t_uint256"},{"astId":2794,"contract":"contracts/mocks/payment/LimitedOCPointsMerkleClaimMock.sol:LimitedOCPointsMerkleClaimMock","label":"endTime","offset":0,"slot":"4","type":"t_uint256"}],"numberOfBytes":"160"},"t_uint256":{"encoding":"inplace","label":"uint256","numberOfBytes":"32"}}},"userdoc":{"errors":{"AlreadyClaimed(address,uint256,bytes32,uint256)":[{"notice":"Thrown when trying to claim the same allocation more than once."}],"ClaimEpochNotFound(uint256)":[{"notice":"Thrown when trying to access a non-existent epoch."}],"ClaimingEpochNotActive(uint256,uint256,uint256)":[{"notice":"Thrown when trying to claim outside the valid time epoch."}],"IllegalInterfaceId()":[{"notice":"Thrown when setting the illegal interfaceId 0xffffffff."}],"InconsistentArrayLengths()":[{"notice":"Thrown when the multiple related arrays have different lengths."}],"InsufficientPoolAmount(uint256,uint256)":[{"notice":"Thrown when the pool doesn't have enough tokens for the claim."}],"InvalidClaimWindow(uint256,uint256)":[{"notice":"Thrown when the start time is not before the end time."}],"InvalidProof(address,uint256,bytes32,uint256)":[{"notice":"Thrown when a proof cannot be verified."}],"InvalidRewardContractAddress(address)":[{"notice":"Thrown when the reward contract address is invalid."}],"NotContractOwner(address)":[{"notice":"Thrown when an account is not the contract owner but is required to."}]},"events":{"MerkleRootSet(uint256,bytes32,uint256,uint256,uint256)":{"notice":"Emitted when a new merkle root is set for an epoch."},"OwnershipTransferred(address,address)":{"notice":"Emitted when the contract ownership changes."},"RewardClaimed(uint256,address,uint256,uint256)":{"notice":"Emitted when a reward is claimed."}},"kind":"user","methods":{"OPERATOR_ROLE()":{"notice":"The role identifier for the operator role."},"POINTS_CONTRACT()":{"notice":"A reference to the reward contract."},"__msgData()":{"notice":"Internal function to access the current msg.data."},"__msgSender()":{"notice":"Internal function to access the current msg.sender."},"canClaim(uint256,address,uint256)":{"notice":"Checks if a user can claim rewards for a given epoch."},"claim(uint256,address,uint256,bytes32,bytes32[])":{"notice":"Claims rewards for a given recipient address."},"claimEpochs(uint256)":{"notice":"Mapping from epoch ID to claiming epoch data."},"claimed(uint256,address)":{"notice":"Mapping from epoch ID to user address to claimed status."},"currentEpochId()":{"notice":"Current epoch counter."},"isTrustedForwarder(address)":{"notice":"Checks whether a forwarder is trusted."},"owner()":{"notice":"Gets the address of the contract owner."},"recoverERC20s(address[],address[],uint256[])":{"notice":"Extract ERC20 tokens which were accidentally sent to the contract to a list of accounts."},"recoverERC721s(address[],address[],uint256[])":{"notice":"Extract ERC721 tokens which were accidentally sent to the contract to a list of accounts."},"recoverETH(address[],uint256[])":{"notice":"Extract ETH tokens which were accidentally sent to the contract to a list of accounts."},"setMerkleRoot(bytes32,uint256,uint256,uint256)":{"notice":"Sets a new merkle root for a claiming epoch."},"supportsInterface(bytes4)":{"notice":"Returns whether this contract implements a given interface."},"transferOwnership(address)":{"notice":"Sets the address of the new contract owner."}},"version":1}}}}