{"contracts/payment/LimitedOCPointsMerkleClaim.sol":{"LimitedOCPointsMerkleClaim":{"abi":[{"inputs":[{"internalType":"address","name":"pointsContractAddress","type":"address"},{"internalType":"contract IForwarderRegistry","name":"forwarderRegistry","type":"address"}],"stateMutability":"nonpayable","type":"constructor"},{"inputs":[{"internalType":"address","name":"recipient","type":"address"},{"internalType":"uint256","name":"amount","type":"uint256"},{"internalType":"bytes32","name":"reasonCode","type":"bytes32"},{"internalType":"bytes32","name":"epochId","type":"bytes32"}],"name":"AlreadyClaimed","type":"error"},{"inputs":[{"internalType":"bytes32","name":"epochId","type":"bytes32"}],"name":"ClaimEpochNotFound","type":"error"},{"inputs":[{"internalType":"uint256","name":"currentTime","type":"uint256"},{"internalType":"uint256","name":"startTime","type":"uint256"},{"internalType":"uint256","name":"endTime","type":"uint256"}],"name":"ClaimingEpochNotActive","type":"error"},{"inputs":[{"internalType":"bytes32","name":"epochId","type":"bytes32"}],"name":"EpochIdAlreadyExists","type":"error"},{"inputs":[],"name":"IllegalInterfaceId","type":"error"},{"inputs":[],"name":"InconsistentArrayLengths","type":"error"},{"inputs":[{"internalType":"uint256","name":"amountRequested","type":"uint256"},{"internalType":"uint256","name":"amountAvailable","type":"uint256"}],"name":"InsufficientPoolAmount","type":"error"},{"inputs":[{"internalType":"uint256","name":"startTime","type":"uint256"},{"internalType":"uint256","name":"endTime","type":"uint256"}],"name":"InvalidClaimWindow","type":"error"},{"inputs":[{"internalType":"address","name":"InvalidPointsContractAddress","type":"address"}],"name":"InvalidPointsContractAddress","type":"error"},{"inputs":[{"internalType":"address","name":"recipient","type":"address"},{"internalType":"uint256","name":"amount","type":"uint256"},{"internalType":"bytes32","name":"reasonCode","type":"bytes32"},{"internalType":"bytes32","name":"epochId","type":"bytes32"}],"name":"InvalidProof","type":"error"},{"inputs":[{"internalType":"address","name":"account","type":"address"}],"name":"NotContractOwner","type":"error"},{"anonymous":false,"inputs":[{"indexed":true,"internalType":"bytes32","name":"epochId","type":"bytes32"},{"indexed":true,"internalType":"bytes32","name":"merkleRoot","type":"bytes32"},{"indexed":false,"internalType":"uint256","name":"totalAmount","type":"uint256"},{"indexed":false,"internalType":"uint256","name":"startTime","type":"uint256"},{"indexed":false,"internalType":"uint256","name":"endTime","type":"uint256"}],"name":"MerkleRootSet","type":"event"},{"anonymous":false,"inputs":[{"indexed":true,"internalType":"address","name":"previousOwner","type":"address"},{"indexed":true,"internalType":"address","name":"newOwner","type":"address"}],"name":"OwnershipTransferred","type":"event"},{"anonymous":false,"inputs":[{"indexed":true,"internalType":"bytes32","name":"epochId","type":"bytes32"},{"indexed":true,"internalType":"bytes32","name":"merkleRoot","type":"bytes32"},{"indexed":true,"internalType":"address","name":"recipient","type":"address"},{"indexed":false,"internalType":"uint256","name":"amount","type":"uint256"},{"indexed":false,"internalType":"uint256","name":"amountLeft","type":"uint256"}],"name":"PointsClaimed","type":"event"},{"inputs":[],"name":"POINTS_CONTRACT","outputs":[{"internalType":"contract IPoints","name":"","type":"address"}],"stateMutability":"view","type":"function"},{"inputs":[{"internalType":"bytes32","name":"epochId","type":"bytes32"},{"internalType":"address","name":"recipient","type":"address"},{"internalType":"uint256","name":"amount","type":"uint256"},{"internalType":"bytes32","name":"reasonCode","type":"bytes32"}],"name":"canClaim","outputs":[{"internalType":"enum LimitedOCPointsMerkleClaim.ClaimError","name":"","type":"uint8"}],"stateMutability":"view","type":"function"},{"inputs":[{"internalType":"bytes32","name":"epochId","type":"bytes32"},{"internalType":"address","name":"recipient","type":"address"},{"internalType":"uint256","name":"amount","type":"uint256"},{"internalType":"bytes32","name":"reasonCode","type":"bytes32"},{"internalType":"bytes32[]","name":"proof","type":"bytes32[]"}],"name":"claim","outputs":[],"stateMutability":"nonpayable","type":"function"},{"inputs":[{"internalType":"bytes32","name":"","type":"bytes32"}],"name":"claimEpochs","outputs":[{"internalType":"bytes32","name":"merkleRoot","type":"bytes32"},{"internalType":"uint256","name":"totalAmount","type":"uint256"},{"internalType":"uint256","name":"amountLeft","type":"uint256"},{"internalType":"uint256","name":"startTime","type":"uint256"},{"internalType":"uint256","name":"endTime","type":"uint256"}],"stateMutability":"view","type":"function"},{"inputs":[{"internalType":"bytes32","name":"","type":"bytes32"}],"name":"claimed","outputs":[{"internalType":"bool","name":"","type":"bool"}],"stateMutability":"view","type":"function"},{"inputs":[],"name":"forwarderRegistry","outputs":[{"internalType":"contract IForwarderRegistry","name":"","type":"address"}],"stateMutability":"view","type":"function"},{"inputs":[{"internalType":"address","name":"forwarder","type":"address"}],"name":"isTrustedForwarder","outputs":[{"internalType":"bool","name":"","type":"bool"}],"stateMutability":"view","type":"function"},{"inputs":[],"name":"owner","outputs":[{"internalType":"address","name":"","type":"address"}],"stateMutability":"view","type":"function"},{"inputs":[{"internalType":"address[]","name":"accounts","type":"address[]"},{"internalType":"contract IERC20[]","name":"tokens","type":"address[]"},{"internalType":"uint256[]","name":"amounts","type":"uint256[]"}],"name":"recoverERC20s","outputs":[],"stateMutability":"nonpayable","type":"function"},{"inputs":[{"internalType":"address[]","name":"accounts","type":"address[]"},{"internalType":"contract IERC721[]","name":"contracts","type":"address[]"},{"internalType":"uint256[]","name":"tokenIds","type":"uint256[]"}],"name":"recoverERC721s","outputs":[],"stateMutability":"nonpayable","type":"function"},{"inputs":[{"internalType":"address payable[]","name":"accounts","type":"address[]"},{"internalType":"uint256[]","name":"amounts","type":"uint256[]"}],"name":"recoverETH","outputs":[],"stateMutability":"nonpayable","type":"function"},{"inputs":[{"internalType":"bytes32","name":"epochId","type":"bytes32"},{"internalType":"bytes32","name":"merkleRoot","type":"bytes32"},{"internalType":"uint256","name":"totalAmount","type":"uint256"},{"internalType":"uint256","name":"startTime","type":"uint256"},{"internalType":"uint256","name":"endTime","type":"uint256"}],"name":"setMerkleRoot","outputs":[],"stateMutability":"nonpayable","type":"function"},{"inputs":[{"internalType":"bytes4","name":"interfaceId","type":"bytes4"}],"name":"supportsInterface","outputs":[{"internalType":"bool","name":"","type":"bool"}],"stateMutability":"view","type":"function"},{"inputs":[{"internalType":"address","name":"newOwner","type":"address"}],"name":"transferOwnership","outputs":[],"stateMutability":"nonpayable","type":"function"}],"devdoc":{"errors":{"AlreadyClaimed(address,uint256,bytes32,bytes32)":[{"params":{"amount":"The amount being claimed.","epochId":"The epoch identifier for a specific claiming epoch.","reasonCode":"The reason code for the deposit.","recipient":"The recipient of the claim."}}],"ClaimEpochNotFound(bytes32)":[{"params":{"epochId":"The epoch identifier for a specific claiming epoch."}}],"ClaimingEpochNotActive(uint256,uint256,uint256)":[{"params":{"currentTime":"The current block timestamp.","endTime":"The end time of the claiming epoch.","startTime":"The start time of the claiming epoch."}}],"EpochIdAlreadyExists(bytes32)":[{"params":{"epochId":"The epoch identifier that already exists."}}],"InsufficientPoolAmount(uint256,uint256)":[{"params":{"amountAvailable":"The amount available in the pool.","amountRequested":"The amount requested to claim."}}],"InvalidClaimWindow(uint256,uint256)":[{"params":{"endTime":"The end time.","startTime":"The start time."}}],"InvalidPointsContractAddress(address)":[{"params":{"InvalidPointsContractAddress":"The address of the invalid points contract."}}],"InvalidProof(address,uint256,bytes32,bytes32)":[{"params":{"amount":"The amount being claimed.","epochId":"The epoch identifier for a specific claiming epoch.","reasonCode":"The reason code for the deposit.","recipient":"The recipient of the claim."}}],"NotContractOwner(address)":[{"params":{"account":"The account that was checked."}}]},"events":{"MerkleRootSet(bytes32,bytes32,uint256,uint256,uint256)":{"params":{"endTime":"The end time for claiming.","epochId":"The epoch identifier for a specific claiming epoch.","merkleRoot":"The merkle root for this epoch.","startTime":"The start time for claiming.","totalAmount":"The total amount available for claiming."}},"OwnershipTransferred(address,address)":{"params":{"newOwner":"the new contract owner.","previousOwner":"the previous contract owner."}},"PointsClaimed(bytes32,bytes32,address,uint256,uint256)":{"params":{"amount":"The amount claimed.","amountLeft":"The amount left in the pool after this claim.","epochId":"The epoch identifier for a specific claiming epoch.","merkleRoot":"The merkle root for this epoch.","recipient":"The recipient of the claim."}}},"kind":"dev","methods":{"canClaim(bytes32,address,uint256,bytes32)":{"details":"Returns ClaimError.ClaimEpochNotFound if the epoch doesn't exist.Returns ClaimError.ClaimingEpochNotActive if the current time is outside the claiming epoch.Returns ClaimError.AlreadyClaimed if the user has already claimed for this epoch.Returns ClaimError.InsufficientPoolAmount if the pool doesn't have enough tokens.Returns ClaimError.NoError if basic validation passes.","params":{"amount":"The amount to be claimed.","epochId":"The epoch identifier for a specific claiming epoch.","reasonCode":"The reason code for the deposit.","recipient":"The recipient address."},"returns":{"_0":"error The claim validation result."}},"claim(bytes32,address,uint256,bytes32,bytes32[])":{"details":"Reverts with {ClaimEpochNotFound} if the epoch doesn't exist.Reverts with {ClaimingEpochNotActive} if the current time is outside the claiming epoch.Reverts with {AlreadyClaimed} if the user has already claimed for this epoch.Reverts with {InvalidProof} if the merkle proof verification fails.Reverts with {InsufficientPoolAmount} if the pool doesn't have enough tokens.Emits a {PointsClaimed} event.","params":{"amount":"The amount of points to be claimed.","epochId":"The epoch identifier for a specific claiming epoch.","proof":"The merkle proof for verification.","reasonCode":"The reason code for the deposit.","recipient":"The recipient for the points."}},"constructor":{"details":"Reverts with {InvalidPointsContractAddress} if the points contract address is the zero address.","params":{"forwarderRegistry":"The address of the forwarder registry.","pointsContractAddress":"The address of the points contract."}},"isTrustedForwarder(address)":{"params":{"forwarder":"The forwarder to check."},"returns":{"_0":"True if `forwarder` is trusted, false if not."}},"owner()":{"returns":{"_0":"The address of the contract owner."}},"recoverERC20s(address[],address[],uint256[])":{"details":"Warning: this function should be overriden for contracts which are supposed to hold ERC20 tokens  so that the extraction is limited to only amounts sent accidentally.Reverts with {NotContractOwner} if the sender is not the contract owner.Reverts with {InconsistentArrayLengths} if `accounts`, `tokens` and `amounts` do not have the same length.Reverts if one of the ERC20 transfers fails for any reason.","params":{"accounts":"the list of accounts to transfer the tokens to.","amounts":"the list of token amounts to transfer.","tokens":"the list of ERC20 token addresses."}},"recoverERC721s(address[],address[],uint256[])":{"details":"Warning: this function should be overriden for contracts which are supposed to hold ERC721 tokens  so that the extraction is limited to only tokens sent accidentally.Reverts with {NotContractOwner} if the sender is not the contract owner.Reverts with {InconsistentArrayLengths} if `accounts`, `contracts` and `amounts` do not have the same length.Reverts if one of the ERC721 transfers fails for any reason.","params":{"accounts":"the list of accounts to transfer the tokens to.","contracts":"the list of ERC721 contract addresses.","tokenIds":"the list of token ids to transfer."}},"recoverETH(address[],uint256[])":{"details":"Note: While contracts can generally prevent accidental ETH transfer by implementating a reverting  `receive()` function, this can still be bypassed in a `selfdestruct(address)` scenario.Warning: this function should be overriden for contracts which are supposed to hold ETH tokens  so that the extraction is limited to only amounts sent accidentally.Reverts with {NotContractOwner} if the sender is not the contract owner.Reverts with {InconsistentArrayLengths} `accounts` and `amounts` do not have the same length.Reverts if one of the ETH transfers fails for any reason.","params":{"accounts":"the list of accounts to transfer the tokens to.","amounts":"the list of token amounts to transfer."}},"setMerkleRoot(bytes32,bytes32,uint256,uint256,uint256)":{"details":"Reverts with {NotContractOwner} if the sender is not the contract owner.Reverts with {EpochIdAlreadyExists} if the epochId has already been set.Reverts with {InvalidClaimWindow} if the end time is not after the start time and the end time is in the past.Emits a {MerkleRootSet} event.","params":{"endTime":"The end time for claiming.","epochId":"The epoch identifier for this epoch.","merkleRoot":"The merkle root for this epoch.","startTime":"The start time for claiming.","totalAmount":"The total amount available for claiming in this epoch."}},"supportsInterface(bytes4)":{"details":"Note: This function call must use less than 30 000 gas.","params":{"interfaceId":"the interface identifier to test."},"returns":{"_0":"True if the interface is supported, false if `interfaceId` is `0xffffffff` or if the interface is not supported."}},"transferOwnership(address)":{"details":"Reverts if the sender is not the contract owner.Emits an {OwnershipTransferred} event if `newOwner` is different from the current contract owner.","params":{"newOwner":"The address of the new contract owner. Using the zero address means renouncing ownership."}}},"title":"LimitedOCPointsMerkleClaim","version":1},"evm":{"bytecode":{"linkReferences":{},"object":"60c06040523480156200001157600080fd5b5060405162001cc238038062001cc28339810160408190526200003491620001f7565b8080336200004d8162000046620000a0565b90620000d6565b506001600160a01b03908116608052831690506200008d576040516302caf95f60e61b81526001600160a01b038316600482015260240160405180910390fd5b506001600160a01b031660a05262000258565b600080620000d060017fc9ed16f33ab3a66c84bfd83099ccb2a8845871e2e1c1928f63797152f0fd54cd62000236565b92915050565b6001600160a01b038116156200012d5781546001600160a01b0319166001600160a01b03821690811783556040516000907f8be0079c531659141344cd1fd0a4f28419497f9722a3daafe3b4186f6b6457e0908290a35b6200014d6307f5828d60e41b60016200014562000151565b919062000181565b5050565b600080620000d060017fca9d3e17f264b0f3984e2634e94adb37fa3e6a8103f06aeae6fa59e21c769f5e62000236565b600160e01b6001600160e01b0319831601620001b0576040516372c683bb60e01b815260040160405180910390fd5b6001600160e01b03199190911660009081526020929092526040909120805460ff1916911515919091179055565b6001600160a01b0381168114620001f457600080fd5b50565b600080604083850312156200020b57600080fd5b82516200021881620001de565b60208401519092506200022b81620001de565b809150509250929050565b81810381811115620000d057634e487b7160e01b600052601160045260246000fd5b60805160a051611a286200029a60003960008181610186015261088c01526000818161013c015281816101cd015281816111d801526112600152611a286000f3fe608060405234801561001057600080fd5b50600436106100e95760003560e01c806373c8a9581161008c578063cc3c0f0611610066578063cc3c0f061461024b578063e5ada41e1461026e578063f2fde38b146102d3578063f7ba94bd146102e657600080fd5b806373c8a9581461021d5780638da5cb5b14610230578063c3666c361461023857600080fd5b80632d4c2f93116100c85780632d4c2f93146101815780634488a6b8146101a8578063572b6c05146101bd57806365c6ca3d1461020a57600080fd5b8062de5116146100ee57806301ffc9a7146101175780632b4c9f161461013a575b600080fd5b6101016100fc3660046115f2565b6102f9565b60405161010e919061162f565b60405180910390f35b61012a610125366004611670565b61040a565b604051901515815260200161010e565b7f00000000000000000000000000000000000000000000000000000000000000005b60405173ffffffffffffffffffffffffffffffffffffffff909116815260200161010e565b61015c7f000000000000000000000000000000000000000000000000000000000000000081565b6101bb6101b63660046116b2565b610424565b005b61012a6101cb3660046116ed565b7f000000000000000000000000000000000000000000000000000000000000000073ffffffffffffffffffffffffffffffffffffffff90811691161490565b6101bb610218366004611756565b61057b565b6101bb61022b3660046117c9565b610956565b61015c610a4c565b6101bb6102463660046117c9565b610a78565b61012a610259366004611851565b60016020526000908152604090205460ff1681565b6102ab61027c366004611851565b600060208190529081526040902080546001820154600283015460038401546004909401549293919290919085565b604080519586526020860194909452928401919091526060830152608082015260a00161010e565b6101bb6102e13660046116ed565b610bf0565b6101bb6102f436600461186a565b610c0e565b60008481526020819052604081208054610317576001915050610402565b6003810154429081108061032e5750816004015481115b1561033e57600292505050610402565b6040517fffffffffffffffffffffffffffffffffffffffff000000000000000000000000606088901b166020820152603481018690526054810185905260748101889052600090609401604080517fffffffffffffffffffffffffffffffffffffffffffffffffffffffffffffffe081840301815291815281516020928301206000818152600190935291205490915060ff16156103e25760039350505050610402565b85836002015410156103fa5760049350505050610402565b600093505050505b949350505050565b600061041e82610418610ccd565b90610cfb565b92915050565b61043d61042f610dd5565b610437610ddf565b90610e0d565b6000858152602081905260409020541561048b576040517fed10979d000000000000000000000000000000000000000000000000000000008152600481018690526024015b60405180910390fd5b808210158061049a5750428111155b156104db576040517f779acdff0000000000000000000000000000000000000000000000000000000081526004810183905260248101829052604401610482565b6040805160a081018252858152602080820186815282840187815260608085018881526080860188815260008d81528087528890209651875593516001870155915160028601559051600385015590516004909301929092558251868152908101859052918201839052859187917fcc91ec9ab2c849ab9ed4203144656ae28b914032c6e761d1d35ed0421a783e6c910160405180910390a35050505050565b600086815260208190526040902080546105c4576040517f30a77e8c00000000000000000000000000000000000000000000000000000000815260048101889052602401610482565b600381015442908110806105db5750816004015481115b1561062f5760038201546004808401546040517fc06e9f3a00000000000000000000000000000000000000000000000000000000815291820184905260248201929092526044810191909152606401610482565b6040517fffffffffffffffffffffffffffffffffffffffff000000000000000000000000606089901b166020820152603481018790526054810186905260748101899052600090609401604080517fffffffffffffffffffffffffffffffffffffffffffffffffffffffffffffffe081840301815291815281516020928301206000818152600190935291205490915060ff1615610726576040517f46578bab00000000000000000000000000000000000000000000000000000000815273ffffffffffffffffffffffffffffffffffffffff891660048201526024810188905260448101879052606481018a9052608401610482565b86836002015410156107745760028301546040517f23090a31000000000000000000000000000000000000000000000000000000008152610482918991600401918252602082015260400190565b8254610784908690869084610e7c565b6107e7576040517f6f6b5e9900000000000000000000000000000000000000000000000000000000815273ffffffffffffffffffffffffffffffffffffffff891660048201526024810188905260448101879052606481018a9052608401610482565b6000818152600160208190526040822080547fffffffffffffffffffffffffffffffffffffffffffffffffffffffffffffff001690911790556002840180548992906108349084906118d6565b90915550506040517f26b3293f00000000000000000000000000000000000000000000000000000000815273ffffffffffffffffffffffffffffffffffffffff898116600483015260248201899052604482018890527f000000000000000000000000000000000000000000000000000000000000000016906326b3293f90606401600060405180830381600087803b1580156108d057600080fd5b505af11580156108e4573d6000803e3d6000fd5b505050508773ffffffffffffffffffffffffffffffffffffffff1683600001548a7f7a8a3a03f1a8f44d6b65d40675acf5adb01d7f9d2ebdeb499f624945ddd04b8f8a8760020154604051610943929190918252602082015260400190565b60405180910390a4505050505050505050565b61096161042f610dd5565b8483811415806109715750808214155b156109a8576040517f6582533600000000000000000000000000000000000000000000000000000000815260040160405180910390fd5b60005b81811015610a4257610a3a8888838181106109c8576109c8611910565b90506020020160208101906109dd91906116ed565b8585848181106109ef576109ef611910565b90506020020135888885818110610a0857610a08611910565b9050602002016020810190610a1d91906116ed565b73ffffffffffffffffffffffffffffffffffffffff169190610e94565b6001016109ab565b5050505050505050565b6000610a73610a59610ddf565b5473ffffffffffffffffffffffffffffffffffffffff1690565b905090565b610a8361042f610dd5565b848381141580610a935750808214155b15610aca576040517f6582533600000000000000000000000000000000000000000000000000000000815260040160405180910390fd5b60005b81811015610a4257858582818110610ae757610ae7611910565b9050602002016020810190610afc91906116ed565b73ffffffffffffffffffffffffffffffffffffffff166323b872dd308a8a85818110610b2a57610b2a611910565b9050602002016020810190610b3f91906116ed565b878786818110610b5157610b51611910565b6040517fffffffff0000000000000000000000000000000000000000000000000000000060e088901b16815273ffffffffffffffffffffffffffffffffffffffff958616600482015294909316602485015250602090910201356044820152606401600060405180830381600087803b158015610bcd57600080fd5b505af1158015610be1573d6000803e3d6000fd5b50505050806001019050610acd565b610c0b610bfb610dd5565b82610c04610ddf565b9190610f26565b50565b610c1961042f610dd5565b82818114610c53576040517f6582533600000000000000000000000000000000000000000000000000000000815260040160405180910390fd5b60005b81811015610cc557610cbd848483818110610c7357610c73611910565b90506020020135878784818110610c8c57610c8c611910565b9050602002016020810190610ca191906116ed565b73ffffffffffffffffffffffffffffffffffffffff169061103b565b600101610c56565b505050505050565b60008061041e60017fca9d3e17f264b0f3984e2634e94adb37fa3e6a8103f06aeae6fa59e21c769f5e6118d6565b60007c01000000000000000000000000000000000000000000000000000000007fffffffff00000000000000000000000000000000000000000000000000000000831601610d4b5750600061041e565b7ffe003659000000000000000000000000000000000000000000000000000000007fffffffff00000000000000000000000000000000000000000000000000000000831601610d9c5750600161041e565b507fffffffff00000000000000000000000000000000000000000000000000000000166000908152602091909152604090205460ff1690565b6000610a73611195565b60008061041e60017fc9ed16f33ab3a66c84bfd83099ccb2a8845871e2e1c1928f63797152f0fd54cd6118d6565b815473ffffffffffffffffffffffffffffffffffffffff828116911614610e78576040517f2ef4875e00000000000000000000000000000000000000000000000000000000815273ffffffffffffffffffffffffffffffffffffffff82166004820152602401610482565b5050565b600082610e8a8686856112dc565b1495945050505050565b6040805173ffffffffffffffffffffffffffffffffffffffff8416602482015260448082018490528251808303909101815260649091019091526020810180517bffffffffffffffffffffffffffffffffffffffffffffffffffffffff167fa9059cbb00000000000000000000000000000000000000000000000000000000179052610f2190849061131e565b505050565b825473ffffffffffffffffffffffffffffffffffffffff9081169083168114610f93576040517f2ef4875e00000000000000000000000000000000000000000000000000000000815273ffffffffffffffffffffffffffffffffffffffff84166004820152602401610482565b8173ffffffffffffffffffffffffffffffffffffffff168173ffffffffffffffffffffffffffffffffffffffff16146110355783547fffffffffffffffffffffffff00000000000000000000000000000000000000001673ffffffffffffffffffffffffffffffffffffffff8381169182178655604051908316907f8be0079c531659141344cd1fd0a4f28419497f9722a3daafe3b4186f6b6457e090600090a35b50505050565b804710156110a5576040517f08c379a000000000000000000000000000000000000000000000000000000000815260206004820152601d60248201527f416464726573733a20696e73756666696369656e742062616c616e63650000006044820152606401610482565b60008273ffffffffffffffffffffffffffffffffffffffff168260405160006040518083038185875af1925050503d80600081146110ff576040519150601f19603f3d011682016040523d82523d6000602084013e611104565b606091505b5050905080610f21576040517f08c379a000000000000000000000000000000000000000000000000000000000815260206004820152603a60248201527f416464726573733a20756e61626c6520746f2073656e642076616c75652c207260448201527f6563697069656e74206d617920686176652072657665727465640000000000006064820152608401610482565b6000333214806111a55750601836105b156111af57503390565b7fffffffffffffffffffffffffffffffffffffffffffffffffffffffffffffffec36013560601c7f000000000000000000000000000000000000000000000000000000000000000073ffffffffffffffffffffffffffffffffffffffff163314806112cb57506040517f8929a8ca00000000000000000000000000000000000000000000000000000000815273ffffffffffffffffffffffffffffffffffffffff82811660048301523360248301527f00000000000000000000000000000000000000000000000000000000000000001690638929a8ca90604401602060405180830381865afa1580156112a7573d6000803e3d6000fd5b505050506040513d601f19601f820116820180604052508101906112cb919061193f565b156112d557919050565b3391505090565b600081815b848110156113155761130b828787848181106112ff576112ff611910565b9050602002013561142d565b91506001016112e1565b50949350505050565b6000611380826040518060400160405280602081526020017f5361666545524332303a206c6f772d6c6576656c2063616c6c206661696c65648152508573ffffffffffffffffffffffffffffffffffffffff1661145f9092919063ffffffff16565b90508051600014806113a15750808060200190518101906113a1919061193f565b610f21576040517f08c379a000000000000000000000000000000000000000000000000000000000815260206004820152602a60248201527f5361666545524332303a204552433230206f7065726174696f6e20646964206e60448201527f6f742073756363656564000000000000000000000000000000000000000000006064820152608401610482565b6000818310611449576000828152602084905260409020611458565b60008381526020839052604090205b9392505050565b60606104028484600085856000808673ffffffffffffffffffffffffffffffffffffffff1685876040516114939190611985565b60006040518083038185875af1925050503d80600081146114d0576040519150601f19603f3d011682016040523d82523d6000602084013e6114d5565b606091505b50915091506114e6878383876114f1565b979650505050505050565b606083156115875782516000036115805773ffffffffffffffffffffffffffffffffffffffff85163b611580576040517f08c379a000000000000000000000000000000000000000000000000000000000815260206004820152601d60248201527f416464726573733a2063616c6c20746f206e6f6e2d636f6e74726163740000006044820152606401610482565b5081610402565b610402838381511561159c5781518083602001fd5b806040517f08c379a000000000000000000000000000000000000000000000000000000000815260040161048291906119a1565b73ffffffffffffffffffffffffffffffffffffffff81168114610c0b57600080fd5b6000806000806080858703121561160857600080fd5b84359350602085013561161a816115d0565b93969395505050506040820135916060013590565b602081016005831061166a577f4e487b7100000000000000000000000000000000000000000000000000000000600052602160045260246000fd5b91905290565b60006020828403121561168257600080fd5b81357fffffffff000000000000000000000000000000000000000000000000000000008116811461145857600080fd5b600080600080600060a086880312156116ca57600080fd5b505083359560208501359550604085013594606081013594506080013592509050565b6000602082840312156116ff57600080fd5b8135611458816115d0565b60008083601f84011261171c57600080fd5b50813567ffffffffffffffff81111561173457600080fd5b6020830191508360208260051b850101111561174f57600080fd5b9250929050565b60008060008060008060a0878903121561176f57600080fd5b863595506020870135611781816115d0565b94506040870135935060608701359250608087013567ffffffffffffffff8111156117ab57600080fd5b6117b789828a0161170a565b979a9699509497509295939492505050565b600080600080600080606087890312156117e257600080fd5b863567ffffffffffffffff808211156117fa57600080fd5b6118068a838b0161170a565b9098509650602089013591508082111561181f57600080fd5b61182b8a838b0161170a565b9096509450604089013591508082111561184457600080fd5b506117b789828a0161170a565b60006020828403121561186357600080fd5b5035919050565b6000806000806040858703121561188057600080fd5b843567ffffffffffffffff8082111561189857600080fd5b6118a48883890161170a565b909650945060208701359150808211156118bd57600080fd5b506118ca8782880161170a565b95989497509550505050565b8181038181111561041e577f4e487b7100000000000000000000000000000000000000000000000000000000600052601160045260246000fd5b7f4e487b7100000000000000000000000000000000000000000000000000000000600052603260045260246000fd5b60006020828403121561195157600080fd5b8151801515811461145857600080fd5b60005b8381101561197c578181015183820152602001611964565b50506000910152565b60008251611997818460208701611961565b9190910192915050565b60208152600082518060208401526119c0816040850160208701611961565b601f017fffffffffffffffffffffffffffffffffffffffffffffffffffffffffffffffe016919091016040019291505056fea26469706673582212206602e44f502d847450d0275664493561c1dd88198117a2bd9fc74890f866982864736f6c63430008160033","opcodes":"PUSH1 0xC0 PUSH1 0x40 MSTORE CALLVALUE DUP1 ISZERO PUSH3 0x11 JUMPI PUSH1 0x0 DUP1 REVERT JUMPDEST POP PUSH1 0x40 MLOAD PUSH3 0x1CC2 CODESIZE SUB DUP1 PUSH3 0x1CC2 DUP4 CODECOPY DUP2 ADD PUSH1 0x40 DUP2 SWAP1 MSTORE PUSH3 0x34 SWAP2 PUSH3 0x1F7 JUMP JUMPDEST DUP1 DUP1 CALLER PUSH3 0x4D DUP2 PUSH3 0x46 PUSH3 0xA0 JUMP JUMPDEST SWAP1 PUSH3 0xD6 JUMP JUMPDEST POP PUSH1 0x1 PUSH1 0x1 PUSH1 0xA0 SHL SUB SWAP1 DUP2 AND PUSH1 0x80 MSTORE DUP4 AND SWAP1 POP PUSH3 0x8D JUMPI PUSH1 0x40 MLOAD PUSH4 0x2CAF95F PUSH1 0xE6 SHL DUP2 MSTORE PUSH1 0x1 PUSH1 0x1 PUSH1 0xA0 SHL SUB DUP4 AND PUSH1 0x4 DUP3 ADD MSTORE PUSH1 0x24 ADD PUSH1 0x40 MLOAD DUP1 SWAP2 SUB SWAP1 REVERT JUMPDEST POP PUSH1 0x1 PUSH1 0x1 PUSH1 0xA0 SHL SUB AND PUSH1 0xA0 MSTORE PUSH3 0x258 JUMP JUMPDEST PUSH1 0x0 DUP1 PUSH3 0xD0 PUSH1 0x1 PUSH32 0xC9ED16F33AB3A66C84BFD83099CCB2A8845871E2E1C1928F63797152F0FD54CD PUSH3 0x236 JUMP JUMPDEST SWAP3 SWAP2 POP POP JUMP JUMPDEST PUSH1 0x1 PUSH1 0x1 PUSH1 0xA0 SHL SUB DUP2 AND ISZERO PUSH3 0x12D JUMPI DUP2 SLOAD PUSH1 0x1 PUSH1 0x1 PUSH1 0xA0 SHL SUB NOT AND PUSH1 0x1 PUSH1 0x1 PUSH1 0xA0 SHL SUB DUP3 AND SWAP1 DUP2 OR DUP4 SSTORE PUSH1 0x40 MLOAD PUSH1 0x0 SWAP1 PUSH32 0x8BE0079C531659141344CD1FD0A4F28419497F9722A3DAAFE3B4186F6B6457E0 SWAP1 DUP3 SWAP1 LOG3 JUMPDEST PUSH3 0x14D PUSH4 0x7F5828D PUSH1 0xE4 SHL PUSH1 0x1 PUSH3 0x145 PUSH3 0x151 JUMP JUMPDEST SWAP2 SWAP1 PUSH3 0x181 JUMP JUMPDEST POP POP JUMP JUMPDEST PUSH1 0x0 DUP1 PUSH3 0xD0 PUSH1 0x1 PUSH32 0xCA9D3E17F264B0F3984E2634E94ADB37FA3E6A8103F06AEAE6FA59E21C769F5E PUSH3 0x236 JUMP JUMPDEST PUSH1 0x1 PUSH1 0xE0 SHL PUSH1 0x1 PUSH1 0x1 PUSH1 0xE0 SHL SUB NOT DUP4 AND ADD PUSH3 0x1B0 JUMPI PUSH1 0x40 MLOAD PUSH4 0x72C683BB PUSH1 0xE0 SHL DUP2 MSTORE PUSH1 0x4 ADD PUSH1 0x40 MLOAD DUP1 SWAP2 SUB SWAP1 REVERT JUMPDEST PUSH1 0x1 PUSH1 0x1 PUSH1 0xE0 SHL SUB NOT SWAP2 SWAP1 SWAP2 AND PUSH1 0x0 SWAP1 DUP2 MSTORE PUSH1 0x20 SWAP3 SWAP1 SWAP3 MSTORE PUSH1 0x40 SWAP1 SWAP2 KECCAK256 DUP1 SLOAD PUSH1 0xFF NOT AND SWAP2 ISZERO ISZERO SWAP2 SWAP1 SWAP2 OR SWAP1 SSTORE JUMP JUMPDEST PUSH1 0x1 PUSH1 0x1 PUSH1 0xA0 SHL SUB DUP2 AND DUP2 EQ PUSH3 0x1F4 JUMPI PUSH1 0x0 DUP1 REVERT JUMPDEST POP JUMP JUMPDEST PUSH1 0x0 DUP1 PUSH1 0x40 DUP4 DUP6 SUB SLT ISZERO PUSH3 0x20B JUMPI PUSH1 0x0 DUP1 REVERT JUMPDEST DUP3 MLOAD PUSH3 0x218 DUP2 PUSH3 0x1DE JUMP JUMPDEST PUSH1 0x20 DUP5 ADD MLOAD SWAP1 SWAP3 POP PUSH3 0x22B DUP2 PUSH3 0x1DE JUMP JUMPDEST DUP1 SWAP2 POP POP SWAP3 POP SWAP3 SWAP1 POP JUMP JUMPDEST DUP2 DUP2 SUB DUP2 DUP2 GT ISZERO PUSH3 0xD0 JUMPI PUSH4 0x4E487B71 PUSH1 0xE0 SHL PUSH1 0x0 MSTORE PUSH1 0x11 PUSH1 0x4 MSTORE PUSH1 0x24 PUSH1 0x0 REVERT JUMPDEST PUSH1 0x80 MLOAD PUSH1 0xA0 MLOAD PUSH2 0x1A28 PUSH3 0x29A PUSH1 0x0 CODECOPY PUSH1 0x0 DUP2 DUP2 PUSH2 0x186 ADD MSTORE PUSH2 0x88C ADD MSTORE PUSH1 0x0 DUP2 DUP2 PUSH2 0x13C ADD MSTORE DUP2 DUP2 PUSH2 0x1CD ADD MSTORE DUP2 DUP2 PUSH2 0x11D8 ADD MSTORE PUSH2 0x1260 ADD MSTORE PUSH2 0x1A28 PUSH1 0x0 RETURN INVALID PUSH1 0x80 PUSH1 0x40 MSTORE CALLVALUE DUP1 ISZERO PUSH2 0x10 JUMPI PUSH1 0x0 DUP1 REVERT JUMPDEST POP PUSH1 0x4 CALLDATASIZE LT PUSH2 0xE9 JUMPI PUSH1 0x0 CALLDATALOAD PUSH1 0xE0 SHR DUP1 PUSH4 0x73C8A958 GT PUSH2 0x8C JUMPI DUP1 PUSH4 0xCC3C0F06 GT PUSH2 0x66 JUMPI DUP1 PUSH4 0xCC3C0F06 EQ PUSH2 0x24B JUMPI DUP1 PUSH4 0xE5ADA41E EQ PUSH2 0x26E JUMPI DUP1 PUSH4 0xF2FDE38B EQ PUSH2 0x2D3 JUMPI DUP1 PUSH4 0xF7BA94BD EQ PUSH2 0x2E6 JUMPI PUSH1 0x0 DUP1 REVERT JUMPDEST DUP1 PUSH4 0x73C8A958 EQ PUSH2 0x21D JUMPI DUP1 PUSH4 0x8DA5CB5B EQ PUSH2 0x230 JUMPI DUP1 PUSH4 0xC3666C36 EQ PUSH2 0x238 JUMPI PUSH1 0x0 DUP1 REVERT JUMPDEST DUP1 PUSH4 0x2D4C2F93 GT PUSH2 0xC8 JUMPI DUP1 PUSH4 0x2D4C2F93 EQ PUSH2 0x181 JUMPI DUP1 PUSH4 0x4488A6B8 EQ PUSH2 0x1A8 JUMPI DUP1 PUSH4 0x572B6C05 EQ PUSH2 0x1BD JUMPI DUP1 PUSH4 0x65C6CA3D EQ PUSH2 0x20A JUMPI PUSH1 0x0 DUP1 REVERT JUMPDEST DUP1 PUSH3 0xDE5116 EQ PUSH2 0xEE JUMPI DUP1 PUSH4 0x1FFC9A7 EQ PUSH2 0x117 JUMPI DUP1 PUSH4 0x2B4C9F16 EQ PUSH2 0x13A JUMPI JUMPDEST PUSH1 0x0 DUP1 REVERT JUMPDEST PUSH2 0x101 PUSH2 0xFC CALLDATASIZE PUSH1 0x4 PUSH2 0x15F2 JUMP JUMPDEST PUSH2 0x2F9 JUMP JUMPDEST PUSH1 0x40 MLOAD PUSH2 0x10E SWAP2 SWAP1 PUSH2 0x162F JUMP JUMPDEST PUSH1 0x40 MLOAD DUP1 SWAP2 SUB SWAP1 RETURN JUMPDEST PUSH2 0x12A PUSH2 0x125 CALLDATASIZE PUSH1 0x4 PUSH2 0x1670 JUMP JUMPDEST PUSH2 0x40A JUMP JUMPDEST PUSH1 0x40 MLOAD SWAP1 ISZERO ISZERO DUP2 MSTORE PUSH1 0x20 ADD PUSH2 0x10E JUMP JUMPDEST PUSH32 0x0 JUMPDEST PUSH1 0x40 MLOAD PUSH20 0xFFFFFFFFFFFFFFFFFFFFFFFFFFFFFFFFFFFFFFFF SWAP1 SWAP2 AND DUP2 MSTORE PUSH1 0x20 ADD PUSH2 0x10E JUMP JUMPDEST PUSH2 0x15C PUSH32 0x0 DUP2 JUMP JUMPDEST PUSH2 0x1BB PUSH2 0x1B6 CALLDATASIZE PUSH1 0x4 PUSH2 0x16B2 JUMP JUMPDEST PUSH2 0x424 JUMP JUMPDEST STOP JUMPDEST PUSH2 0x12A PUSH2 0x1CB CALLDATASIZE PUSH1 0x4 PUSH2 0x16ED JUMP JUMPDEST PUSH32 0x0 PUSH20 0xFFFFFFFFFFFFFFFFFFFFFFFFFFFFFFFFFFFFFFFF SWAP1 DUP2 AND SWAP2 AND EQ SWAP1 JUMP JUMPDEST PUSH2 0x1BB PUSH2 0x218 CALLDATASIZE PUSH1 0x4 PUSH2 0x1756 JUMP JUMPDEST PUSH2 0x57B JUMP JUMPDEST PUSH2 0x1BB PUSH2 0x22B CALLDATASIZE PUSH1 0x4 PUSH2 0x17C9 JUMP JUMPDEST PUSH2 0x956 JUMP JUMPDEST PUSH2 0x15C PUSH2 0xA4C JUMP JUMPDEST PUSH2 0x1BB PUSH2 0x246 CALLDATASIZE PUSH1 0x4 PUSH2 0x17C9 JUMP JUMPDEST PUSH2 0xA78 JUMP JUMPDEST PUSH2 0x12A PUSH2 0x259 CALLDATASIZE PUSH1 0x4 PUSH2 0x1851 JUMP JUMPDEST PUSH1 0x1 PUSH1 0x20 MSTORE PUSH1 0x0 SWAP1 DUP2 MSTORE PUSH1 0x40 SWAP1 KECCAK256 SLOAD PUSH1 0xFF AND DUP2 JUMP JUMPDEST PUSH2 0x2AB PUSH2 0x27C CALLDATASIZE PUSH1 0x4 PUSH2 0x1851 JUMP JUMPDEST PUSH1 0x0 PUSH1 0x20 DUP2 SWAP1 MSTORE SWAP1 DUP2 MSTORE PUSH1 0x40 SWAP1 KECCAK256 DUP1 SLOAD PUSH1 0x1 DUP3 ADD SLOAD PUSH1 0x2 DUP4 ADD SLOAD PUSH1 0x3 DUP5 ADD SLOAD PUSH1 0x4 SWAP1 SWAP5 ADD SLOAD SWAP3 SWAP4 SWAP2 SWAP3 SWAP1 SWAP2 SWAP1 DUP6 JUMP JUMPDEST PUSH1 0x40 DUP1 MLOAD SWAP6 DUP7 MSTORE PUSH1 0x20 DUP7 ADD SWAP5 SWAP1 SWAP5 MSTORE SWAP3 DUP5 ADD SWAP2 SWAP1 SWAP2 MSTORE PUSH1 0x60 DUP4 ADD MSTORE PUSH1 0x80 DUP3 ADD MSTORE PUSH1 0xA0 ADD PUSH2 0x10E JUMP JUMPDEST PUSH2 0x1BB PUSH2 0x2E1 CALLDATASIZE PUSH1 0x4 PUSH2 0x16ED JUMP JUMPDEST PUSH2 0xBF0 JUMP JUMPDEST PUSH2 0x1BB PUSH2 0x2F4 CALLDATASIZE PUSH1 0x4 PUSH2 0x186A JUMP JUMPDEST PUSH2 0xC0E JUMP JUMPDEST PUSH1 0x0 DUP5 DUP2 MSTORE PUSH1 0x20 DUP2 SWAP1 MSTORE PUSH1 0x40 DUP2 KECCAK256 DUP1 SLOAD PUSH2 0x317 JUMPI PUSH1 0x1 SWAP2 POP POP PUSH2 0x402 JUMP JUMPDEST PUSH1 0x3 DUP2 ADD SLOAD TIMESTAMP SWAP1 DUP2 LT DUP1 PUSH2 0x32E JUMPI POP DUP2 PUSH1 0x4 ADD SLOAD DUP2 GT JUMPDEST ISZERO PUSH2 0x33E JUMPI PUSH1 0x2 SWAP3 POP POP POP PUSH2 0x402 JUMP JUMPDEST PUSH1 0x40 MLOAD PUSH32 0xFFFFFFFFFFFFFFFFFFFFFFFFFFFFFFFFFFFFFFFF000000000000000000000000 PUSH1 0x60 DUP9 SWAP1 SHL AND PUSH1 0x20 DUP3 ADD MSTORE PUSH1 0x34 DUP2 ADD DUP7 SWAP1 MSTORE PUSH1 0x54 DUP2 ADD DUP6 SWAP1 MSTORE PUSH1 0x74 DUP2 ADD DUP9 SWAP1 MSTORE PUSH1 0x0 SWAP1 PUSH1 0x94 ADD PUSH1 0x40 DUP1 MLOAD PUSH32 0xFFFFFFFFFFFFFFFFFFFFFFFFFFFFFFFFFFFFFFFFFFFFFFFFFFFFFFFFFFFFFFE0 DUP2 DUP5 SUB ADD DUP2 MSTORE SWAP2 DUP2 MSTORE DUP2 MLOAD PUSH1 0x20 SWAP3 DUP4 ADD KECCAK256 PUSH1 0x0 DUP2 DUP2 MSTORE PUSH1 0x1 SWAP1 SWAP4 MSTORE SWAP2 KECCAK256 SLOAD SWAP1 SWAP2 POP PUSH1 0xFF AND ISZERO PUSH2 0x3E2 JUMPI PUSH1 0x3 SWAP4 POP POP POP POP PUSH2 0x402 JUMP JUMPDEST DUP6 DUP4 PUSH1 0x2 ADD SLOAD LT ISZERO PUSH2 0x3FA JUMPI PUSH1 0x4 SWAP4 POP POP POP POP PUSH2 0x402 JUMP JUMPDEST PUSH1 0x0 SWAP4 POP POP POP POP JUMPDEST SWAP5 SWAP4 POP POP POP POP JUMP JUMPDEST PUSH1 0x0 PUSH2 0x41E DUP3 PUSH2 0x418 PUSH2 0xCCD JUMP JUMPDEST SWAP1 PUSH2 0xCFB JUMP JUMPDEST SWAP3 SWAP2 POP POP JUMP JUMPDEST PUSH2 0x43D PUSH2 0x42F PUSH2 0xDD5 JUMP JUMPDEST PUSH2 0x437 PUSH2 0xDDF JUMP JUMPDEST SWAP1 PUSH2 0xE0D JUMP JUMPDEST PUSH1 0x0 DUP6 DUP2 MSTORE PUSH1 0x20 DUP2 SWAP1 MSTORE PUSH1 0x40 SWAP1 KECCAK256 SLOAD ISZERO PUSH2 0x48B JUMPI PUSH1 0x40 MLOAD PUSH32 0xED10979D00000000000000000000000000000000000000000000000000000000 DUP2 MSTORE PUSH1 0x4 DUP2 ADD DUP7 SWAP1 MSTORE PUSH1 0x24 ADD JUMPDEST PUSH1 0x40 MLOAD DUP1 SWAP2 SUB SWAP1 REVERT JUMPDEST DUP1 DUP3 LT ISZERO DUP1 PUSH2 0x49A JUMPI POP TIMESTAMP DUP2 GT ISZERO JUMPDEST ISZERO PUSH2 0x4DB JUMPI PUSH1 0x40 MLOAD PUSH32 0x779ACDFF00000000000000000000000000000000000000000000000000000000 DUP2 MSTORE PUSH1 0x4 DUP2 ADD DUP4 SWAP1 MSTORE PUSH1 0x24 DUP2 ADD DUP3 SWAP1 MSTORE PUSH1 0x44 ADD PUSH2 0x482 JUMP JUMPDEST PUSH1 0x40 DUP1 MLOAD PUSH1 0xA0 DUP2 ADD DUP3 MSTORE DUP6 DUP2 MSTORE PUSH1 0x20 DUP1 DUP3 ADD DUP7 DUP2 MSTORE DUP3 DUP5 ADD DUP8 DUP2 MSTORE PUSH1 0x60 DUP1 DUP6 ADD DUP9 DUP2 MSTORE PUSH1 0x80 DUP7 ADD DUP9 DUP2 MSTORE PUSH1 0x0 DUP14 DUP2 MSTORE DUP1 DUP8 MSTORE DUP9 SWAP1 KECCAK256 SWAP7 MLOAD DUP8 SSTORE SWAP4 MLOAD PUSH1 0x1 DUP8 ADD SSTORE SWAP2 MLOAD PUSH1 0x2 DUP7 ADD SSTORE SWAP1 MLOAD PUSH1 0x3 DUP6 ADD SSTORE SWAP1 MLOAD PUSH1 0x4 SWAP1 SWAP4 ADD SWAP3 SWAP1 SWAP3 SSTORE DUP3 MLOAD DUP7 DUP2 MSTORE SWAP1 DUP2 ADD DUP6 SWAP1 MSTORE SWAP2 DUP3 ADD DUP4 SWAP1 MSTORE DUP6 SWAP2 DUP8 SWAP2 PUSH32 0xCC91EC9AB2C849AB9ED4203144656AE28B914032C6E761D1D35ED0421A783E6C SWAP2 ADD PUSH1 0x40 MLOAD DUP1 SWAP2 SUB SWAP1 LOG3 POP POP POP POP POP JUMP JUMPDEST PUSH1 0x0 DUP7 DUP2 MSTORE PUSH1 0x20 DUP2 SWAP1 MSTORE PUSH1 0x40 SWAP1 KECCAK256 DUP1 SLOAD PUSH2 0x5C4 JUMPI PUSH1 0x40 MLOAD PUSH32 0x30A77E8C00000000000000000000000000000000000000000000000000000000 DUP2 MSTORE PUSH1 0x4 DUP2 ADD DUP9 SWAP1 MSTORE PUSH1 0x24 ADD PUSH2 0x482 JUMP JUMPDEST PUSH1 0x3 DUP2 ADD SLOAD TIMESTAMP SWAP1 DUP2 LT DUP1 PUSH2 0x5DB JUMPI POP DUP2 PUSH1 0x4 ADD SLOAD DUP2 GT JUMPDEST ISZERO PUSH2 0x62F JUMPI PUSH1 0x3 DUP3 ADD SLOAD PUSH1 0x4 DUP1 DUP5 ADD SLOAD PUSH1 0x40 MLOAD PUSH32 0xC06E9F3A00000000000000000000000000000000000000000000000000000000 DUP2 MSTORE SWAP2 DUP3 ADD DUP5 SWAP1 MSTORE PUSH1 0x24 DUP3 ADD SWAP3 SWAP1 SWAP3 MSTORE PUSH1 0x44 DUP2 ADD SWAP2 SWAP1 SWAP2 MSTORE PUSH1 0x64 ADD PUSH2 0x482 JUMP JUMPDEST PUSH1 0x40 MLOAD PUSH32 0xFFFFFFFFFFFFFFFFFFFFFFFFFFFFFFFFFFFFFFFF000000000000000000000000 PUSH1 0x60 DUP10 SWAP1 SHL AND PUSH1 0x20 DUP3 ADD MSTORE PUSH1 0x34 DUP2 ADD DUP8 SWAP1 MSTORE PUSH1 0x54 DUP2 ADD DUP7 SWAP1 MSTORE PUSH1 0x74 DUP2 ADD DUP10 SWAP1 MSTORE PUSH1 0x0 SWAP1 PUSH1 0x94 ADD PUSH1 0x40 DUP1 MLOAD PUSH32 0xFFFFFFFFFFFFFFFFFFFFFFFFFFFFFFFFFFFFFFFFFFFFFFFFFFFFFFFFFFFFFFE0 DUP2 DUP5 SUB ADD DUP2 MSTORE SWAP2 DUP2 MSTORE DUP2 MLOAD PUSH1 0x20 SWAP3 DUP4 ADD KECCAK256 PUSH1 0x0 DUP2 DUP2 MSTORE PUSH1 0x1 SWAP1 SWAP4 MSTORE SWAP2 KECCAK256 SLOAD SWAP1 SWAP2 POP PUSH1 0xFF AND ISZERO PUSH2 0x726 JUMPI PUSH1 0x40 MLOAD PUSH32 0x46578BAB00000000000000000000000000000000000000000000000000000000 DUP2 MSTORE PUSH20 0xFFFFFFFFFFFFFFFFFFFFFFFFFFFFFFFFFFFFFFFF DUP10 AND PUSH1 0x4 DUP3 ADD MSTORE PUSH1 0x24 DUP2 ADD DUP9 SWAP1 MSTORE PUSH1 0x44 DUP2 ADD DUP8 SWAP1 MSTORE PUSH1 0x64 DUP2 ADD DUP11 SWAP1 MSTORE PUSH1 0x84 ADD PUSH2 0x482 JUMP JUMPDEST DUP7 DUP4 PUSH1 0x2 ADD SLOAD LT ISZERO PUSH2 0x774 JUMPI PUSH1 0x2 DUP4 ADD SLOAD PUSH1 0x40 MLOAD PUSH32 0x23090A3100000000000000000000000000000000000000000000000000000000 DUP2 MSTORE PUSH2 0x482 SWAP2 DUP10 SWAP2 PUSH1 0x4 ADD SWAP2 DUP3 MSTORE PUSH1 0x20 DUP3 ADD MSTORE PUSH1 0x40 ADD SWAP1 JUMP JUMPDEST DUP3 SLOAD PUSH2 0x784 SWAP1 DUP7 SWAP1 DUP7 SWAP1 DUP5 PUSH2 0xE7C JUMP JUMPDEST PUSH2 0x7E7 JUMPI PUSH1 0x40 MLOAD PUSH32 0x6F6B5E9900000000000000000000000000000000000000000000000000000000 DUP2 MSTORE PUSH20 0xFFFFFFFFFFFFFFFFFFFFFFFFFFFFFFFFFFFFFFFF DUP10 AND PUSH1 0x4 DUP3 ADD MSTORE PUSH1 0x24 DUP2 ADD DUP9 SWAP1 MSTORE PUSH1 0x44 DUP2 ADD DUP8 SWAP1 MSTORE PUSH1 0x64 DUP2 ADD DUP11 SWAP1 MSTORE PUSH1 0x84 ADD PUSH2 0x482 JUMP JUMPDEST PUSH1 0x0 DUP2 DUP2 MSTORE PUSH1 0x1 PUSH1 0x20 DUP2 SWAP1 MSTORE PUSH1 0x40 DUP3 KECCAK256 DUP1 SLOAD PUSH32 0xFFFFFFFFFFFFFFFFFFFFFFFFFFFFFFFFFFFFFFFFFFFFFFFFFFFFFFFFFFFFFF00 AND SWAP1 SWAP2 OR SWAP1 SSTORE PUSH1 0x2 DUP5 ADD DUP1 SLOAD DUP10 SWAP3 SWAP1 PUSH2 0x834 SWAP1 DUP5 SWAP1 PUSH2 0x18D6 JUMP JUMPDEST SWAP1 SWAP2 SSTORE POP POP PUSH1 0x40 MLOAD PUSH32 0x26B3293F00000000000000000000000000000000000000000000000000000000 DUP2 MSTORE PUSH20 0xFFFFFFFFFFFFFFFFFFFFFFFFFFFFFFFFFFFFFFFF DUP10 DUP2 AND PUSH1 0x4 DUP4 ADD MSTORE PUSH1 0x24 DUP3 ADD DUP10 SWAP1 MSTORE PUSH1 0x44 DUP3 ADD DUP9 SWAP1 MSTORE PUSH32 0x0 AND SWAP1 PUSH4 0x26B3293F SWAP1 PUSH1 0x64 ADD PUSH1 0x0 PUSH1 0x40 MLOAD DUP1 DUP4 SUB DUP2 PUSH1 0x0 DUP8 DUP1 EXTCODESIZE ISZERO DUP1 ISZERO PUSH2 0x8D0 JUMPI PUSH1 0x0 DUP1 REVERT JUMPDEST POP GAS CALL ISZERO DUP1 ISZERO PUSH2 0x8E4 JUMPI RETURNDATASIZE PUSH1 0x0 DUP1 RETURNDATACOPY RETURNDATASIZE PUSH1 0x0 REVERT JUMPDEST POP POP POP POP DUP8 PUSH20 0xFFFFFFFFFFFFFFFFFFFFFFFFFFFFFFFFFFFFFFFF AND DUP4 PUSH1 0x0 ADD SLOAD DUP11 PUSH32 0x7A8A3A03F1A8F44D6B65D40675ACF5ADB01D7F9D2EBDEB499F624945DDD04B8F DUP11 DUP8 PUSH1 0x2 ADD SLOAD PUSH1 0x40 MLOAD PUSH2 0x943 SWAP3 SWAP2 SWAP1 SWAP2 DUP3 MSTORE PUSH1 0x20 DUP3 ADD MSTORE PUSH1 0x40 ADD SWAP1 JUMP JUMPDEST PUSH1 0x40 MLOAD DUP1 SWAP2 SUB SWAP1 LOG4 POP POP POP POP POP POP POP POP POP JUMP JUMPDEST PUSH2 0x961 PUSH2 0x42F PUSH2 0xDD5 JUMP JUMPDEST DUP5 DUP4 DUP2 EQ ISZERO DUP1 PUSH2 0x971 JUMPI POP DUP1 DUP3 EQ ISZERO JUMPDEST ISZERO PUSH2 0x9A8 JUMPI PUSH1 0x40 MLOAD PUSH32 0x6582533600000000000000000000000000000000000000000000000000000000 DUP2 MSTORE PUSH1 0x4 ADD PUSH1 0x40 MLOAD DUP1 SWAP2 SUB SWAP1 REVERT JUMPDEST PUSH1 0x0 JUMPDEST DUP2 DUP2 LT ISZERO PUSH2 0xA42 JUMPI PUSH2 0xA3A DUP9 DUP9 DUP4 DUP2 DUP2 LT PUSH2 0x9C8 JUMPI PUSH2 0x9C8 PUSH2 0x1910 JUMP JUMPDEST SWAP1 POP PUSH1 0x20 MUL ADD PUSH1 0x20 DUP2 ADD SWAP1 PUSH2 0x9DD SWAP2 SWAP1 PUSH2 0x16ED JUMP JUMPDEST DUP6 DUP6 DUP5 DUP2 DUP2 LT PUSH2 0x9EF JUMPI PUSH2 0x9EF PUSH2 0x1910 JUMP JUMPDEST SWAP1 POP PUSH1 0x20 MUL ADD CALLDATALOAD DUP9 DUP9 DUP6 DUP2 DUP2 LT PUSH2 0xA08 JUMPI PUSH2 0xA08 PUSH2 0x1910 JUMP JUMPDEST SWAP1 POP PUSH1 0x20 MUL ADD PUSH1 0x20 DUP2 ADD SWAP1 PUSH2 0xA1D SWAP2 SWAP1 PUSH2 0x16ED JUMP JUMPDEST PUSH20 0xFFFFFFFFFFFFFFFFFFFFFFFFFFFFFFFFFFFFFFFF AND SWAP2 SWAP1 PUSH2 0xE94 JUMP JUMPDEST PUSH1 0x1 ADD PUSH2 0x9AB JUMP JUMPDEST POP POP POP POP POP POP POP POP JUMP JUMPDEST PUSH1 0x0 PUSH2 0xA73 PUSH2 0xA59 PUSH2 0xDDF JUMP JUMPDEST SLOAD PUSH20 0xFFFFFFFFFFFFFFFFFFFFFFFFFFFFFFFFFFFFFFFF AND SWAP1 JUMP JUMPDEST SWAP1 POP SWAP1 JUMP JUMPDEST PUSH2 0xA83 PUSH2 0x42F PUSH2 0xDD5 JUMP JUMPDEST DUP5 DUP4 DUP2 EQ ISZERO DUP1 PUSH2 0xA93 JUMPI POP DUP1 DUP3 EQ ISZERO JUMPDEST ISZERO PUSH2 0xACA JUMPI PUSH1 0x40 MLOAD PUSH32 0x6582533600000000000000000000000000000000000000000000000000000000 DUP2 MSTORE PUSH1 0x4 ADD PUSH1 0x40 MLOAD DUP1 SWAP2 SUB SWAP1 REVERT JUMPDEST PUSH1 0x0 JUMPDEST DUP2 DUP2 LT ISZERO PUSH2 0xA42 JUMPI DUP6 DUP6 DUP3 DUP2 DUP2 LT PUSH2 0xAE7 JUMPI PUSH2 0xAE7 PUSH2 0x1910 JUMP JUMPDEST SWAP1 POP PUSH1 0x20 MUL ADD PUSH1 0x20 DUP2 ADD SWAP1 PUSH2 0xAFC SWAP2 SWAP1 PUSH2 0x16ED JUMP JUMPDEST PUSH20 0xFFFFFFFFFFFFFFFFFFFFFFFFFFFFFFFFFFFFFFFF AND PUSH4 0x23B872DD ADDRESS DUP11 DUP11 DUP6 DUP2 DUP2 LT PUSH2 0xB2A JUMPI PUSH2 0xB2A PUSH2 0x1910 JUMP JUMPDEST SWAP1 POP PUSH1 0x20 MUL ADD PUSH1 0x20 DUP2 ADD SWAP1 PUSH2 0xB3F SWAP2 SWAP1 PUSH2 0x16ED JUMP JUMPDEST DUP8 DUP8 DUP7 DUP2 DUP2 LT PUSH2 0xB51 JUMPI PUSH2 0xB51 PUSH2 0x1910 JUMP JUMPDEST PUSH1 0x40 MLOAD PUSH32 0xFFFFFFFF00000000000000000000000000000000000000000000000000000000 PUSH1 0xE0 DUP9 SWAP1 SHL AND DUP2 MSTORE PUSH20 0xFFFFFFFFFFFFFFFFFFFFFFFFFFFFFFFFFFFFFFFF SWAP6 DUP7 AND PUSH1 0x4 DUP3 ADD MSTORE SWAP5 SWAP1 SWAP4 AND PUSH1 0x24 DUP6 ADD MSTORE POP PUSH1 0x20 SWAP1 SWAP2 MUL ADD CALLDATALOAD PUSH1 0x44 DUP3 ADD MSTORE PUSH1 0x64 ADD PUSH1 0x0 PUSH1 0x40 MLOAD DUP1 DUP4 SUB DUP2 PUSH1 0x0 DUP8 DUP1 EXTCODESIZE ISZERO DUP1 ISZERO PUSH2 0xBCD JUMPI PUSH1 0x0 DUP1 REVERT JUMPDEST POP GAS CALL ISZERO DUP1 ISZERO PUSH2 0xBE1 JUMPI RETURNDATASIZE PUSH1 0x0 DUP1 RETURNDATACOPY RETURNDATASIZE PUSH1 0x0 REVERT JUMPDEST POP POP POP POP DUP1 PUSH1 0x1 ADD SWAP1 POP PUSH2 0xACD JUMP JUMPDEST PUSH2 0xC0B PUSH2 0xBFB PUSH2 0xDD5 JUMP JUMPDEST DUP3 PUSH2 0xC04 PUSH2 0xDDF JUMP JUMPDEST SWAP2 SWAP1 PUSH2 0xF26 JUMP JUMPDEST POP JUMP JUMPDEST PUSH2 0xC19 PUSH2 0x42F PUSH2 0xDD5 JUMP JUMPDEST DUP3 DUP2 DUP2 EQ PUSH2 0xC53 JUMPI PUSH1 0x40 MLOAD PUSH32 0x6582533600000000000000000000000000000000000000000000000000000000 DUP2 MSTORE PUSH1 0x4 ADD PUSH1 0x40 MLOAD DUP1 SWAP2 SUB SWAP1 REVERT JUMPDEST PUSH1 0x0 JUMPDEST DUP2 DUP2 LT ISZERO PUSH2 0xCC5 JUMPI PUSH2 0xCBD DUP5 DUP5 DUP4 DUP2 DUP2 LT PUSH2 0xC73 JUMPI PUSH2 0xC73 PUSH2 0x1910 JUMP JUMPDEST SWAP1 POP PUSH1 0x20 MUL ADD CALLDATALOAD DUP8 DUP8 DUP5 DUP2 DUP2 LT PUSH2 0xC8C JUMPI PUSH2 0xC8C PUSH2 0x1910 JUMP JUMPDEST SWAP1 POP PUSH1 0x20 MUL ADD PUSH1 0x20 DUP2 ADD SWAP1 PUSH2 0xCA1 SWAP2 SWAP1 PUSH2 0x16ED JUMP JUMPDEST PUSH20 0xFFFFFFFFFFFFFFFFFFFFFFFFFFFFFFFFFFFFFFFF AND SWAP1 PUSH2 0x103B JUMP JUMPDEST PUSH1 0x1 ADD PUSH2 0xC56 JUMP JUMPDEST POP POP POP POP POP POP JUMP JUMPDEST PUSH1 0x0 DUP1 PUSH2 0x41E PUSH1 0x1 PUSH32 0xCA9D3E17F264B0F3984E2634E94ADB37FA3E6A8103F06AEAE6FA59E21C769F5E PUSH2 0x18D6 JUMP JUMPDEST PUSH1 0x0 PUSH29 0x100000000000000000000000000000000000000000000000000000000 PUSH32 0xFFFFFFFF00000000000000000000000000000000000000000000000000000000 DUP4 AND ADD PUSH2 0xD4B JUMPI POP PUSH1 0x0 PUSH2 0x41E JUMP JUMPDEST PUSH32 0xFE00365900000000000000000000000000000000000000000000000000000000 PUSH32 0xFFFFFFFF00000000000000000000000000000000000000000000000000000000 DUP4 AND ADD PUSH2 0xD9C JUMPI POP PUSH1 0x1 PUSH2 0x41E JUMP JUMPDEST POP PUSH32 0xFFFFFFFF00000000000000000000000000000000000000000000000000000000 AND PUSH1 0x0 SWAP1 DUP2 MSTORE PUSH1 0x20 SWAP2 SWAP1 SWAP2 MSTORE PUSH1 0x40 SWAP1 KECCAK256 SLOAD PUSH1 0xFF AND SWAP1 JUMP JUMPDEST PUSH1 0x0 PUSH2 0xA73 PUSH2 0x1195 JUMP JUMPDEST PUSH1 0x0 DUP1 PUSH2 0x41E PUSH1 0x1 PUSH32 0xC9ED16F33AB3A66C84BFD83099CCB2A8845871E2E1C1928F63797152F0FD54CD PUSH2 0x18D6 JUMP JUMPDEST DUP2 SLOAD PUSH20 0xFFFFFFFFFFFFFFFFFFFFFFFFFFFFFFFFFFFFFFFF DUP3 DUP2 AND SWAP2 AND EQ PUSH2 0xE78 JUMPI PUSH1 0x40 MLOAD PUSH32 0x2EF4875E00000000000000000000000000000000000000000000000000000000 DUP2 MSTORE PUSH20 0xFFFFFFFFFFFFFFFFFFFFFFFFFFFFFFFFFFFFFFFF DUP3 AND PUSH1 0x4 DUP3 ADD MSTORE PUSH1 0x24 ADD PUSH2 0x482 JUMP JUMPDEST POP POP JUMP JUMPDEST PUSH1 0x0 DUP3 PUSH2 0xE8A DUP7 DUP7 DUP6 PUSH2 0x12DC JUMP JUMPDEST EQ SWAP6 SWAP5 POP POP POP POP POP JUMP JUMPDEST PUSH1 0x40 DUP1 MLOAD PUSH20 0xFFFFFFFFFFFFFFFFFFFFFFFFFFFFFFFFFFFFFFFF DUP5 AND PUSH1 0x24 DUP3 ADD MSTORE PUSH1 0x44 DUP1 DUP3 ADD DUP5 SWAP1 MSTORE DUP3 MLOAD DUP1 DUP4 SUB SWAP1 SWAP2 ADD DUP2 MSTORE PUSH1 0x64 SWAP1 SWAP2 ADD SWAP1 SWAP2 MSTORE PUSH1 0x20 DUP2 ADD DUP1 MLOAD PUSH28 0xFFFFFFFFFFFFFFFFFFFFFFFFFFFFFFFFFFFFFFFFFFFFFFFFFFFFFFFF AND PUSH32 0xA9059CBB00000000000000000000000000000000000000000000000000000000 OR SWAP1 MSTORE PUSH2 0xF21 SWAP1 DUP5 SWAP1 PUSH2 0x131E JUMP JUMPDEST POP POP POP JUMP JUMPDEST DUP3 SLOAD PUSH20 0xFFFFFFFFFFFFFFFFFFFFFFFFFFFFFFFFFFFFFFFF SWAP1 DUP2 AND SWAP1 DUP4 AND DUP2 EQ PUSH2 0xF93 JUMPI PUSH1 0x40 MLOAD PUSH32 0x2EF4875E00000000000000000000000000000000000000000000000000000000 DUP2 MSTORE PUSH20 0xFFFFFFFFFFFFFFFFFFFFFFFFFFFFFFFFFFFFFFFF DUP5 AND PUSH1 0x4 DUP3 ADD MSTORE PUSH1 0x24 ADD PUSH2 0x482 JUMP JUMPDEST DUP2 PUSH20 0xFFFFFFFFFFFFFFFFFFFFFFFFFFFFFFFFFFFFFFFF AND DUP2 PUSH20 0xFFFFFFFFFFFFFFFFFFFFFFFFFFFFFFFFFFFFFFFF AND EQ PUSH2 0x1035 JUMPI DUP4 SLOAD PUSH32 0xFFFFFFFFFFFFFFFFFFFFFFFF0000000000000000000000000000000000000000 AND PUSH20 0xFFFFFFFFFFFFFFFFFFFFFFFFFFFFFFFFFFFFFFFF DUP4 DUP2 AND SWAP2 DUP3 OR DUP7 SSTORE PUSH1 0x40 MLOAD SWAP1 DUP4 AND SWAP1 PUSH32 0x8BE0079C531659141344CD1FD0A4F28419497F9722A3DAAFE3B4186F6B6457E0 SWAP1 PUSH1 0x0 SWAP1 LOG3 JUMPDEST POP POP POP POP JUMP JUMPDEST DUP1 SELFBALANCE LT ISZERO PUSH2 0x10A5 JUMPI PUSH1 0x40 MLOAD PUSH32 0x8C379A000000000000000000000000000000000000000000000000000000000 DUP2 MSTORE PUSH1 0x20 PUSH1 0x4 DUP3 ADD MSTORE PUSH1 0x1D PUSH1 0x24 DUP3 ADD MSTORE PUSH32 0x416464726573733A20696E73756666696369656E742062616C616E6365000000 PUSH1 0x44 DUP3 ADD MSTORE PUSH1 0x64 ADD PUSH2 0x482 JUMP JUMPDEST PUSH1 0x0 DUP3 PUSH20 0xFFFFFFFFFFFFFFFFFFFFFFFFFFFFFFFFFFFFFFFF AND DUP3 PUSH1 0x40 MLOAD PUSH1 0x0 PUSH1 0x40 MLOAD DUP1 DUP4 SUB DUP2 DUP6 DUP8 GAS CALL SWAP3 POP POP POP RETURNDATASIZE DUP1 PUSH1 0x0 DUP2 EQ PUSH2 0x10FF JUMPI PUSH1 0x40 MLOAD SWAP2 POP PUSH1 0x1F NOT PUSH1 0x3F RETURNDATASIZE ADD AND DUP3 ADD PUSH1 0x40 MSTORE RETURNDATASIZE DUP3 MSTORE RETURNDATASIZE PUSH1 0x0 PUSH1 0x20 DUP5 ADD RETURNDATACOPY PUSH2 0x1104 JUMP JUMPDEST PUSH1 0x60 SWAP2 POP JUMPDEST POP POP SWAP1 POP DUP1 PUSH2 0xF21 JUMPI PUSH1 0x40 MLOAD PUSH32 0x8C379A000000000000000000000000000000000000000000000000000000000 DUP2 MSTORE PUSH1 0x20 PUSH1 0x4 DUP3 ADD MSTORE PUSH1 0x3A PUSH1 0x24 DUP3 ADD MSTORE PUSH32 0x416464726573733A20756E61626C6520746F2073656E642076616C75652C2072 PUSH1 0x44 DUP3 ADD MSTORE PUSH32 0x6563697069656E74206D61792068617665207265766572746564000000000000 PUSH1 0x64 DUP3 ADD MSTORE PUSH1 0x84 ADD PUSH2 0x482 JUMP JUMPDEST PUSH1 0x0 CALLER ORIGIN EQ DUP1 PUSH2 0x11A5 JUMPI POP PUSH1 0x18 CALLDATASIZE LT JUMPDEST ISZERO PUSH2 0x11AF JUMPI POP CALLER SWAP1 JUMP JUMPDEST PUSH32 0xFFFFFFFFFFFFFFFFFFFFFFFFFFFFFFFFFFFFFFFFFFFFFFFFFFFFFFFFFFFFFFEC CALLDATASIZE ADD CALLDATALOAD PUSH1 0x60 SHR PUSH32 0x0 PUSH20 0xFFFFFFFFFFFFFFFFFFFFFFFFFFFFFFFFFFFFFFFF AND CALLER EQ DUP1 PUSH2 0x12CB JUMPI POP PUSH1 0x40 MLOAD PUSH32 0x8929A8CA00000000000000000000000000000000000000000000000000000000 DUP2 MSTORE PUSH20 0xFFFFFFFFFFFFFFFFFFFFFFFFFFFFFFFFFFFFFFFF DUP3 DUP2 AND PUSH1 0x4 DUP4 ADD MSTORE CALLER PUSH1 0x24 DUP4 ADD MSTORE PUSH32 0x0 AND SWAP1 PUSH4 0x8929A8CA SWAP1 PUSH1 0x44 ADD PUSH1 0x20 PUSH1 0x40 MLOAD DUP1 DUP4 SUB DUP2 DUP7 GAS STATICCALL ISZERO DUP1 ISZERO PUSH2 0x12A7 JUMPI RETURNDATASIZE PUSH1 0x0 DUP1 RETURNDATACOPY RETURNDATASIZE PUSH1 0x0 REVERT JUMPDEST POP POP POP POP PUSH1 0x40 MLOAD RETURNDATASIZE PUSH1 0x1F NOT PUSH1 0x1F DUP3 ADD AND DUP3 ADD DUP1 PUSH1 0x40 MSTORE POP DUP2 ADD SWAP1 PUSH2 0x12CB SWAP2 SWAP1 PUSH2 0x193F JUMP JUMPDEST ISZERO PUSH2 0x12D5 JUMPI SWAP2 SWAP1 POP JUMP JUMPDEST CALLER SWAP2 POP POP SWAP1 JUMP JUMPDEST PUSH1 0x0 DUP2 DUP2 JUMPDEST DUP5 DUP2 LT ISZERO PUSH2 0x1315 JUMPI PUSH2 0x130B DUP3 DUP8 DUP8 DUP5 DUP2 DUP2 LT PUSH2 0x12FF JUMPI PUSH2 0x12FF PUSH2 0x1910 JUMP JUMPDEST SWAP1 POP PUSH1 0x20 MUL ADD CALLDATALOAD PUSH2 0x142D JUMP JUMPDEST SWAP2 POP PUSH1 0x1 ADD PUSH2 0x12E1 JUMP JUMPDEST POP SWAP5 SWAP4 POP POP POP POP JUMP JUMPDEST PUSH1 0x0 PUSH2 0x1380 DUP3 PUSH1 0x40 MLOAD DUP1 PUSH1 0x40 ADD PUSH1 0x40 MSTORE DUP1 PUSH1 0x20 DUP2 MSTORE PUSH1 0x20 ADD PUSH32 0x5361666545524332303A206C6F772D6C6576656C2063616C6C206661696C6564 DUP2 MSTORE POP DUP6 PUSH20 0xFFFFFFFFFFFFFFFFFFFFFFFFFFFFFFFFFFFFFFFF AND PUSH2 0x145F SWAP1 SWAP3 SWAP2 SWAP1 PUSH4 0xFFFFFFFF AND JUMP JUMPDEST SWAP1 POP DUP1 MLOAD PUSH1 0x0 EQ DUP1 PUSH2 0x13A1 JUMPI POP DUP1 DUP1 PUSH1 0x20 ADD SWAP1 MLOAD DUP2 ADD SWAP1 PUSH2 0x13A1 SWAP2 SWAP1 PUSH2 0x193F JUMP JUMPDEST PUSH2 0xF21 JUMPI PUSH1 0x40 MLOAD PUSH32 0x8C379A000000000000000000000000000000000000000000000000000000000 DUP2 MSTORE PUSH1 0x20 PUSH1 0x4 DUP3 ADD MSTORE PUSH1 0x2A PUSH1 0x24 DUP3 ADD MSTORE PUSH32 0x5361666545524332303A204552433230206F7065726174696F6E20646964206E PUSH1 0x44 DUP3 ADD MSTORE PUSH32 0x6F74207375636365656400000000000000000000000000000000000000000000 PUSH1 0x64 DUP3 ADD MSTORE PUSH1 0x84 ADD PUSH2 0x482 JUMP JUMPDEST PUSH1 0x0 DUP2 DUP4 LT PUSH2 0x1449 JUMPI PUSH1 0x0 DUP3 DUP2 MSTORE PUSH1 0x20 DUP5 SWAP1 MSTORE PUSH1 0x40 SWAP1 KECCAK256 PUSH2 0x1458 JUMP JUMPDEST PUSH1 0x0 DUP4 DUP2 MSTORE PUSH1 0x20 DUP4 SWAP1 MSTORE PUSH1 0x40 SWAP1 KECCAK256 JUMPDEST SWAP4 SWAP3 POP POP POP JUMP JUMPDEST PUSH1 0x60 PUSH2 0x402 DUP5 DUP5 PUSH1 0x0 DUP6 DUP6 PUSH1 0x0 DUP1 DUP7 PUSH20 0xFFFFFFFFFFFFFFFFFFFFFFFFFFFFFFFFFFFFFFFF AND DUP6 DUP8 PUSH1 0x40 MLOAD PUSH2 0x1493 SWAP2 SWAP1 PUSH2 0x1985 JUMP JUMPDEST PUSH1 0x0 PUSH1 0x40 MLOAD DUP1 DUP4 SUB DUP2 DUP6 DUP8 GAS CALL SWAP3 POP POP POP RETURNDATASIZE DUP1 PUSH1 0x0 DUP2 EQ PUSH2 0x14D0 JUMPI PUSH1 0x40 MLOAD SWAP2 POP PUSH1 0x1F NOT PUSH1 0x3F RETURNDATASIZE ADD AND DUP3 ADD PUSH1 0x40 MSTORE RETURNDATASIZE DUP3 MSTORE RETURNDATASIZE PUSH1 0x0 PUSH1 0x20 DUP5 ADD RETURNDATACOPY PUSH2 0x14D5 JUMP JUMPDEST PUSH1 0x60 SWAP2 POP JUMPDEST POP SWAP2 POP SWAP2 POP PUSH2 0x14E6 DUP8 DUP4 DUP4 DUP8 PUSH2 0x14F1 JUMP JUMPDEST SWAP8 SWAP7 POP POP POP POP POP POP POP JUMP JUMPDEST PUSH1 0x60 DUP4 ISZERO PUSH2 0x1587 JUMPI DUP3 MLOAD PUSH1 0x0 SUB PUSH2 0x1580 JUMPI PUSH20 0xFFFFFFFFFFFFFFFFFFFFFFFFFFFFFFFFFFFFFFFF DUP6 AND EXTCODESIZE PUSH2 0x1580 JUMPI PUSH1 0x40 MLOAD PUSH32 0x8C379A000000000000000000000000000000000000000000000000000000000 DUP2 MSTORE PUSH1 0x20 PUSH1 0x4 DUP3 ADD MSTORE PUSH1 0x1D PUSH1 0x24 DUP3 ADD MSTORE PUSH32 0x416464726573733A2063616C6C20746F206E6F6E2D636F6E7472616374000000 PUSH1 0x44 DUP3 ADD MSTORE PUSH1 0x64 ADD PUSH2 0x482 JUMP JUMPDEST POP DUP2 PUSH2 0x402 JUMP JUMPDEST PUSH2 0x402 DUP4 DUP4 DUP2 MLOAD ISZERO PUSH2 0x159C JUMPI DUP2 MLOAD DUP1 DUP4 PUSH1 0x20 ADD REVERT JUMPDEST DUP1 PUSH1 0x40 MLOAD PUSH32 0x8C379A000000000000000000000000000000000000000000000000000000000 DUP2 MSTORE PUSH1 0x4 ADD PUSH2 0x482 SWAP2 SWAP1 PUSH2 0x19A1 JUMP JUMPDEST PUSH20 0xFFFFFFFFFFFFFFFFFFFFFFFFFFFFFFFFFFFFFFFF DUP2 AND DUP2 EQ PUSH2 0xC0B JUMPI PUSH1 0x0 DUP1 REVERT JUMPDEST PUSH1 0x0 DUP1 PUSH1 0x0 DUP1 PUSH1 0x80 DUP6 DUP8 SUB SLT ISZERO PUSH2 0x1608 JUMPI PUSH1 0x0 DUP1 REVERT JUMPDEST DUP5 CALLDATALOAD SWAP4 POP PUSH1 0x20 DUP6 ADD CALLDATALOAD PUSH2 0x161A DUP2 PUSH2 0x15D0 JUMP JUMPDEST SWAP4 SWAP7 SWAP4 SWAP6 POP POP POP POP PUSH1 0x40 DUP3 ADD CALLDATALOAD SWAP2 PUSH1 0x60 ADD CALLDATALOAD SWAP1 JUMP JUMPDEST PUSH1 0x20 DUP2 ADD PUSH1 0x5 DUP4 LT PUSH2 0x166A JUMPI PUSH32 0x4E487B7100000000000000000000000000000000000000000000000000000000 PUSH1 0x0 MSTORE PUSH1 0x21 PUSH1 0x4 MSTORE PUSH1 0x24 PUSH1 0x0 REVERT JUMPDEST SWAP2 SWAP1 MSTORE SWAP1 JUMP JUMPDEST PUSH1 0x0 PUSH1 0x20 DUP3 DUP5 SUB SLT ISZERO PUSH2 0x1682 JUMPI PUSH1 0x0 DUP1 REVERT JUMPDEST DUP2 CALLDATALOAD PUSH32 0xFFFFFFFF00000000000000000000000000000000000000000000000000000000 DUP2 AND DUP2 EQ PUSH2 0x1458 JUMPI PUSH1 0x0 DUP1 REVERT JUMPDEST PUSH1 0x0 DUP1 PUSH1 0x0 DUP1 PUSH1 0x0 PUSH1 0xA0 DUP7 DUP9 SUB SLT ISZERO PUSH2 0x16CA JUMPI PUSH1 0x0 DUP1 REVERT JUMPDEST POP POP DUP4 CALLDATALOAD SWAP6 PUSH1 0x20 DUP6 ADD CALLDATALOAD SWAP6 POP PUSH1 0x40 DUP6 ADD CALLDATALOAD SWAP5 PUSH1 0x60 DUP2 ADD CALLDATALOAD SWAP5 POP PUSH1 0x80 ADD CALLDATALOAD SWAP3 POP SWAP1 POP JUMP JUMPDEST PUSH1 0x0 PUSH1 0x20 DUP3 DUP5 SUB SLT ISZERO PUSH2 0x16FF JUMPI PUSH1 0x0 DUP1 REVERT JUMPDEST DUP2 CALLDATALOAD PUSH2 0x1458 DUP2 PUSH2 0x15D0 JUMP JUMPDEST PUSH1 0x0 DUP1 DUP4 PUSH1 0x1F DUP5 ADD SLT PUSH2 0x171C JUMPI PUSH1 0x0 DUP1 REVERT JUMPDEST POP DUP2 CALLDATALOAD PUSH8 0xFFFFFFFFFFFFFFFF DUP2 GT ISZERO PUSH2 0x1734 JUMPI PUSH1 0x0 DUP1 REVERT JUMPDEST PUSH1 0x20 DUP4 ADD SWAP2 POP DUP4 PUSH1 0x20 DUP3 PUSH1 0x5 SHL DUP6 ADD ADD GT ISZERO PUSH2 0x174F JUMPI PUSH1 0x0 DUP1 REVERT JUMPDEST SWAP3 POP SWAP3 SWAP1 POP JUMP JUMPDEST PUSH1 0x0 DUP1 PUSH1 0x0 DUP1 PUSH1 0x0 DUP1 PUSH1 0xA0 DUP8 DUP10 SUB SLT ISZERO PUSH2 0x176F JUMPI PUSH1 0x0 DUP1 REVERT JUMPDEST DUP7 CALLDATALOAD SWAP6 POP PUSH1 0x20 DUP8 ADD CALLDATALOAD PUSH2 0x1781 DUP2 PUSH2 0x15D0 JUMP JUMPDEST SWAP5 POP PUSH1 0x40 DUP8 ADD CALLDATALOAD SWAP4 POP PUSH1 0x60 DUP8 ADD CALLDATALOAD SWAP3 POP PUSH1 0x80 DUP8 ADD CALLDATALOAD PUSH8 0xFFFFFFFFFFFFFFFF DUP2 GT ISZERO PUSH2 0x17AB JUMPI PUSH1 0x0 DUP1 REVERT JUMPDEST PUSH2 0x17B7 DUP10 DUP3 DUP11 ADD PUSH2 0x170A JUMP JUMPDEST SWAP8 SWAP11 SWAP7 SWAP10 POP SWAP5 SWAP8 POP SWAP3 SWAP6 SWAP4 SWAP5 SWAP3 POP POP POP JUMP JUMPDEST PUSH1 0x0 DUP1 PUSH1 0x0 DUP1 PUSH1 0x0 DUP1 PUSH1 0x60 DUP8 DUP10 SUB SLT ISZERO PUSH2 0x17E2 JUMPI PUSH1 0x0 DUP1 REVERT JUMPDEST DUP7 CALLDATALOAD PUSH8 0xFFFFFFFFFFFFFFFF DUP1 DUP3 GT ISZERO PUSH2 0x17FA JUMPI PUSH1 0x0 DUP1 REVERT JUMPDEST PUSH2 0x1806 DUP11 DUP4 DUP12 ADD PUSH2 0x170A JUMP JUMPDEST SWAP1 SWAP9 POP SWAP7 POP PUSH1 0x20 DUP10 ADD CALLDATALOAD SWAP2 POP DUP1 DUP3 GT ISZERO PUSH2 0x181F JUMPI PUSH1 0x0 DUP1 REVERT JUMPDEST PUSH2 0x182B DUP11 DUP4 DUP12 ADD PUSH2 0x170A JUMP JUMPDEST SWAP1 SWAP7 POP SWAP5 POP PUSH1 0x40 DUP10 ADD CALLDATALOAD SWAP2 POP DUP1 DUP3 GT ISZERO PUSH2 0x1844 JUMPI PUSH1 0x0 DUP1 REVERT JUMPDEST POP PUSH2 0x17B7 DUP10 DUP3 DUP11 ADD PUSH2 0x170A JUMP JUMPDEST PUSH1 0x0 PUSH1 0x20 DUP3 DUP5 SUB SLT ISZERO PUSH2 0x1863 JUMPI PUSH1 0x0 DUP1 REVERT JUMPDEST POP CALLDATALOAD SWAP2 SWAP1 POP JUMP JUMPDEST PUSH1 0x0 DUP1 PUSH1 0x0 DUP1 PUSH1 0x40 DUP6 DUP8 SUB SLT ISZERO PUSH2 0x1880 JUMPI PUSH1 0x0 DUP1 REVERT JUMPDEST DUP5 CALLDATALOAD PUSH8 0xFFFFFFFFFFFFFFFF DUP1 DUP3 GT ISZERO PUSH2 0x1898 JUMPI PUSH1 0x0 DUP1 REVERT JUMPDEST PUSH2 0x18A4 DUP9 DUP4 DUP10 ADD PUSH2 0x170A JUMP JUMPDEST SWAP1 SWAP7 POP SWAP5 POP PUSH1 0x20 DUP8 ADD CALLDATALOAD SWAP2 POP DUP1 DUP3 GT ISZERO PUSH2 0x18BD JUMPI PUSH1 0x0 DUP1 REVERT JUMPDEST POP PUSH2 0x18CA DUP8 DUP3 DUP9 ADD PUSH2 0x170A JUMP JUMPDEST SWAP6 SWAP9 SWAP5 SWAP8 POP SWAP6 POP POP POP POP JUMP JUMPDEST DUP2 DUP2 SUB DUP2 DUP2 GT ISZERO PUSH2 0x41E JUMPI PUSH32 0x4E487B7100000000000000000000000000000000000000000000000000000000 PUSH1 0x0 MSTORE PUSH1 0x11 PUSH1 0x4 MSTORE PUSH1 0x24 PUSH1 0x0 REVERT JUMPDEST PUSH32 0x4E487B7100000000000000000000000000000000000000000000000000000000 PUSH1 0x0 MSTORE PUSH1 0x32 PUSH1 0x4 MSTORE PUSH1 0x24 PUSH1 0x0 REVERT JUMPDEST PUSH1 0x0 PUSH1 0x20 DUP3 DUP5 SUB SLT ISZERO PUSH2 0x1951 JUMPI PUSH1 0x0 DUP1 REVERT JUMPDEST DUP2 MLOAD DUP1 ISZERO ISZERO DUP2 EQ PUSH2 0x1458 JUMPI PUSH1 0x0 DUP1 REVERT JUMPDEST PUSH1 0x0 JUMPDEST DUP4 DUP2 LT ISZERO PUSH2 0x197C JUMPI DUP2 DUP2 ADD MLOAD DUP4 DUP3 ADD MSTORE PUSH1 0x20 ADD PUSH2 0x1964 JUMP JUMPDEST POP POP PUSH1 0x0 SWAP2 ADD MSTORE JUMP JUMPDEST PUSH1 0x0 DUP3 MLOAD PUSH2 0x1997 DUP2 DUP5 PUSH1 0x20 DUP8 ADD PUSH2 0x1961 JUMP JUMPDEST SWAP2 SWAP1 SWAP2 ADD SWAP3 SWAP2 POP POP JUMP JUMPDEST PUSH1 0x20 DUP2 MSTORE PUSH1 0x0 DUP3 MLOAD DUP1 PUSH1 0x20 DUP5 ADD MSTORE PUSH2 0x19C0 DUP2 PUSH1 0x40 DUP6 ADD PUSH1 0x20 DUP8 ADD PUSH2 0x1961 JUMP JUMPDEST PUSH1 0x1F ADD PUSH32 0xFFFFFFFFFFFFFFFFFFFFFFFFFFFFFFFFFFFFFFFFFFFFFFFFFFFFFFFFFFFFFFE0 AND SWAP2 SWAP1 SWAP2 ADD PUSH1 0x40 ADD SWAP3 SWAP2 POP POP JUMP INVALID LOG2 PUSH5 0x6970667358 0x22 SLT KECCAK256 PUSH7 0x2E44F502D8474 POP 0xD0 0x27 JUMP PUSH5 0x493561C1DD DUP9 NOT DUP2 OR LOG2 0xBD SWAP16 0xC7 BASEFEE SWAP1 0xF8 PUSH7 0x982864736F6C63 NUMBER STOP ADDMOD AND STOP CALLER "},"gasEstimates":{"creation":{"codeDepositCost":"1339200","executionCost":"infinite","totalCost":"infinite"},"external":{"POINTS_CONTRACT()":"infinite","canClaim(bytes32,address,uint256,bytes32)":"11532","claim(bytes32,address,uint256,bytes32,bytes32[])":"infinite","claimEpochs(bytes32)":"11029","claimed(bytes32)":"2472","forwarderRegistry()":"infinite","isTrustedForwarder(address)":"infinite","owner()":"infinite","recoverERC20s(address[],address[],uint256[])":"infinite","recoverERC721s(address[],address[],uint256[])":"infinite","recoverETH(address[],uint256[])":"infinite","setMerkleRoot(bytes32,bytes32,uint256,uint256,uint256)":"infinite","supportsInterface(bytes4)":"infinite","transferOwnership(address)":"infinite"},"internal":{"_msgData()":"infinite","_msgSender()":"infinite"}},"methodIdentifiers":{"POINTS_CONTRACT()":"2d4c2f93","canClaim(bytes32,address,uint256,bytes32)":"00de5116","claim(bytes32,address,uint256,bytes32,bytes32[])":"65c6ca3d","claimEpochs(bytes32)":"e5ada41e","claimed(bytes32)":"cc3c0f06","forwarderRegistry()":"2b4c9f16","isTrustedForwarder(address)":"572b6c05","owner()":"8da5cb5b","recoverERC20s(address[],address[],uint256[])":"73c8a958","recoverERC721s(address[],address[],uint256[])":"c3666c36","recoverETH(address[],uint256[])":"f7ba94bd","setMerkleRoot(bytes32,bytes32,uint256,uint256,uint256)":"4488a6b8","supportsInterface(bytes4)":"01ffc9a7","transferOwnership(address)":"f2fde38b"}},"storageLayout":{"storage":[{"astId":2800,"contract":"contracts/payment/LimitedOCPointsMerkleClaim.sol:LimitedOCPointsMerkleClaim","label":"claimEpochs","offset":0,"slot":"0","type":"t_mapping(t_bytes32,t_struct(ClaimEpoch)2794_storage)"},{"astId":2805,"contract":"contracts/payment/LimitedOCPointsMerkleClaim.sol:LimitedOCPointsMerkleClaim","label":"claimed","offset":0,"slot":"1","type":"t_mapping(t_bytes32,t_bool)"}],"types":{"t_bool":{"encoding":"inplace","label":"bool","numberOfBytes":"1"},"t_bytes32":{"encoding":"inplace","label":"bytes32","numberOfBytes":"32"},"t_mapping(t_bytes32,t_bool)":{"encoding":"mapping","key":"t_bytes32","label":"mapping(bytes32 => bool)","numberOfBytes":"32","value":"t_bool"},"t_mapping(t_bytes32,t_struct(ClaimEpoch)2794_storage)":{"encoding":"mapping","key":"t_bytes32","label":"mapping(bytes32 => struct LimitedOCPointsMerkleClaim.ClaimEpoch)","numberOfBytes":"32","value":"t_struct(ClaimEpoch)2794_storage"},"t_struct(ClaimEpoch)2794_storage":{"encoding":"inplace","label":"struct LimitedOCPointsMerkleClaim.ClaimEpoch","members":[{"astId":2785,"contract":"contracts/payment/LimitedOCPointsMerkleClaim.sol:LimitedOCPointsMerkleClaim","label":"merkleRoot","offset":0,"slot":"0","type":"t_bytes32"},{"astId":2787,"contract":"contracts/payment/LimitedOCPointsMerkleClaim.sol:LimitedOCPointsMerkleClaim","label":"totalAmount","offset":0,"slot":"1","type":"t_uint256"},{"astId":2789,"contract":"contracts/payment/LimitedOCPointsMerkleClaim.sol:LimitedOCPointsMerkleClaim","label":"amountLeft","offset":0,"slot":"2","type":"t_uint256"},{"astId":2791,"contract":"contracts/payment/LimitedOCPointsMerkleClaim.sol:LimitedOCPointsMerkleClaim","label":"startTime","offset":0,"slot":"3","type":"t_uint256"},{"astId":2793,"contract":"contracts/payment/LimitedOCPointsMerkleClaim.sol:LimitedOCPointsMerkleClaim","label":"endTime","offset":0,"slot":"4","type":"t_uint256"}],"numberOfBytes":"160"},"t_uint256":{"encoding":"inplace","label":"uint256","numberOfBytes":"32"}}},"userdoc":{"errors":{"AlreadyClaimed(address,uint256,bytes32,bytes32)":[{"notice":"Thrown when trying to claim the same allocation more than once."}],"ClaimEpochNotFound(bytes32)":[{"notice":"Thrown when trying to access a non-existent epoch."}],"ClaimingEpochNotActive(uint256,uint256,uint256)":[{"notice":"Thrown when trying to claim outside the valid time epoch."}],"EpochIdAlreadyExists(bytes32)":[{"notice":"Thrown when trying to set a merkle root for an epoch that already exists."}],"IllegalInterfaceId()":[{"notice":"Thrown when setting the illegal interfaceId 0xffffffff."}],"InconsistentArrayLengths()":[{"notice":"Thrown when the multiple related arrays have different lengths."}],"InsufficientPoolAmount(uint256,uint256)":[{"notice":"Thrown when the pool doesn't have enough tokens for the claim."}],"InvalidClaimWindow(uint256,uint256)":[{"notice":"Thrown when the start time is not before the end time."}],"InvalidPointsContractAddress(address)":[{"notice":"Thrown when the reward contract address is invalid."}],"InvalidProof(address,uint256,bytes32,bytes32)":[{"notice":"Thrown when a proof cannot be verified."}],"NotContractOwner(address)":[{"notice":"Thrown when an account is not the contract owner but is required to."}]},"events":{"MerkleRootSet(bytes32,bytes32,uint256,uint256,uint256)":{"notice":"Emitted when a new merkle root is set for an epoch."},"OwnershipTransferred(address,address)":{"notice":"Emitted when the contract ownership changes."},"PointsClaimed(bytes32,bytes32,address,uint256,uint256)":{"notice":"Emitted when a points is claimed."}},"kind":"user","methods":{"POINTS_CONTRACT()":{"notice":"A reference to the points contract."},"canClaim(bytes32,address,uint256,bytes32)":{"notice":"Checks if a user can claim rewards for a given epoch."},"claim(bytes32,address,uint256,bytes32,bytes32[])":{"notice":"Claims points for a specific epoch and given recipient address."},"claimEpochs(bytes32)":{"notice":"Mapping from epoch ID to claiming epoch data."},"claimed(bytes32)":{"notice":"Mapping from leaf hash to claimed status."},"constructor":{"notice":"Constructor for limited OC points merkle claim."},"isTrustedForwarder(address)":{"notice":"Checks whether a forwarder is trusted."},"owner()":{"notice":"Gets the address of the contract owner."},"recoverERC20s(address[],address[],uint256[])":{"notice":"Extract ERC20 tokens which were accidentally sent to the contract to a list of accounts."},"recoverERC721s(address[],address[],uint256[])":{"notice":"Extract ERC721 tokens which were accidentally sent to the contract to a list of accounts."},"recoverETH(address[],uint256[])":{"notice":"Extract ETH tokens which were accidentally sent to the contract to a list of accounts."},"setMerkleRoot(bytes32,bytes32,uint256,uint256,uint256)":{"notice":"Sets a new merkle root for a epoch with a limited reward pool and time constraints."},"supportsInterface(bytes4)":{"notice":"Returns whether this contract implements a given interface."},"transferOwnership(address)":{"notice":"Sets the address of the new contract owner."}},"notice":"This contract is designed for claiming reward tokens from a limited pool within fixed time epochs.Each epoch has a fixed total amount that gets depleted as users claim their allocations.Claims are based on merkle proofs and are subject to time constraints and pool availability.","version":1}}}}