{"contracts/vc/OpenCampusCertificateRevocationRegistry.sol":{"OpenCampusCertificateRevocationRegistry":{"abi":[{"inputs":[{"internalType":"contract IIssuersDIDRegistry","name":"didRegistry","type":"address"}],"stateMutability":"nonpayable","type":"constructor"},{"inputs":[],"name":"IllegalInterfaceId","type":"error"},{"inputs":[],"name":"InvalidIssuer","type":"error"},{"inputs":[{"internalType":"address","name":"account","type":"address"}],"name":"NotContractOwner","type":"error"},{"anonymous":false,"inputs":[{"indexed":true,"internalType":"address","name":"previousOwner","type":"address"},{"indexed":true,"internalType":"address","name":"newOwner","type":"address"}],"name":"OwnershipTransferred","type":"event"},{"anonymous":false,"inputs":[{"indexed":true,"internalType":"bytes32","name":"hashedIssuerDid","type":"bytes32"},{"indexed":false,"internalType":"address","name":"caller","type":"address"},{"indexed":true,"internalType":"uint256","name":"vcId","type":"uint256"}],"name":"VcRevoked","type":"event"},{"inputs":[],"name":"DOMAIN_SEPARATOR","outputs":[{"internalType":"bytes32","name":"domainSeparator","type":"bytes32"}],"stateMutability":"view","type":"function"},{"inputs":[{"internalType":"bytes32","name":"hashedIssuerDid","type":"bytes32"},{"internalType":"uint256[]","name":"vcIds","type":"uint256[]"},{"internalType":"bytes","name":"signature","type":"bytes"}],"name":"batchRevokeVCs","outputs":[],"stateMutability":"nonpayable","type":"function"},{"inputs":[{"internalType":"bytes32","name":"hashedIssuerDid","type":"bytes32"},{"internalType":"uint256","name":"vcId","type":"uint256"}],"name":"isRevoked","outputs":[{"internalType":"bool","name":"revoked","type":"bool"}],"stateMutability":"view","type":"function"},{"inputs":[],"name":"owner","outputs":[{"internalType":"address","name":"","type":"address"}],"stateMutability":"view","type":"function"},{"inputs":[{"internalType":"bytes32","name":"","type":"bytes32"},{"internalType":"uint256","name":"","type":"uint256"}],"name":"revocations","outputs":[{"internalType":"address","name":"","type":"address"}],"stateMutability":"view","type":"function"},{"inputs":[{"internalType":"bytes32","name":"hashedIssuerDid","type":"bytes32"},{"internalType":"uint256","name":"vcId","type":"uint256"},{"internalType":"bytes","name":"signature","type":"bytes"}],"name":"revokeVC","outputs":[],"stateMutability":"nonpayable","type":"function"},{"inputs":[{"internalType":"bytes4","name":"interfaceId","type":"bytes4"}],"name":"supportsInterface","outputs":[{"internalType":"bool","name":"","type":"bool"}],"stateMutability":"view","type":"function"},{"inputs":[{"internalType":"address","name":"newOwner","type":"address"}],"name":"transferOwnership","outputs":[],"stateMutability":"nonpayable","type":"function"}],"devdoc":{"errors":{"NotContractOwner(address)":[{"params":{"account":"The account that was checked."}}]},"events":{"OwnershipTransferred(address,address)":{"params":{"newOwner":"the new contract owner.","previousOwner":"the previous contract owner."}},"VcRevoked(bytes32,address,uint256)":{"params":{"caller":"address of caller that invoked the revocation.","hashedIssuerDid":"the hashed Did for the issuer","vcId":"The Id for the VC revoked."}}},"kind":"dev","methods":{"DOMAIN_SEPARATOR()":{"returns":{"domainSeparator":"The EIP-712 domain separator."}},"batchRevokeVCs(bytes32,uint256[],bytes)":{"details":"Reverts with `InvalidNonce` when the given nonce is invalid.Reverts with `InvalidIssuer` when the recovered issuer is invalid.Emits a `VcRevoked` event when a vc is revoked","params":{"hashedIssuerDid":"keccak256 hashed issuer Did.","signature":"EIP712 Signature of `batchRevokeVCs` function signature, `hashedIssuerDid` and `vcIds`","vcIds":"the list of VC IDs to be revoked."}},"isRevoked(bytes32,uint256)":{"params":{"hashedIssuerDid":"keccak256 hashed issuer Did.","vcId":"the VC ID to be revoked."}},"owner()":{"returns":{"_0":"The address of the contract owner."}},"revokeVC(bytes32,uint256,bytes)":{"details":"Reverts with `InvalidNonce` when the given nonce is invalid.Reverts with `InvalidIssuer` when the recovered issuer is invalid.Emits a `VcRevoked` event when a vc is revoked","params":{"hashedIssuerDid":"keccak256 hashed issuer Did.","signature":"EIP712 Signature of `revokeVC` function signature, `hashedIssuerDid` and `vcId`","vcId":"the VC ID to be revoked."}},"supportsInterface(bytes4)":{"details":"Note: This function call must use less than 30 000 gas.","params":{"interfaceId":"the interface identifier to test."},"returns":{"_0":"True if the interface is supported, false if `interfaceId` is `0xffffffff` or if the interface is not supported."}},"transferOwnership(address)":{"details":"Reverts if the sender is not the contract owner.Emits an {OwnershipTransferred} event if `newOwner` is different from the current contract owner.","params":{"newOwner":"The address of the new contract owner. Using the zero address means renouncing ownership."}}},"title":"OpenCampusCertificateRevocationRegistry.","version":1},"evm":{"bytecode":{"linkReferences":{},"object":"60e06040523480156200001157600080fd5b50604051620014583803806200145883398101604081905262000034916200021b565b336200004b8162000044620000dd565b9062000113565b506001600160a01b031660809081524660a0818152604080517f8cad95687ba82c2ce50e74f7b754645e5117c3a5bec8151c0726d5857980a8666020808301919091527fe951ffb7916e206225d235b0f631570b39e4e0323bc42da6208ae1258c2ecd3e8284015260608201949094523081860152815180820390950185529091019052815191012060c0526200026f565b6000806200010d60017fc9ed16f33ab3a66c84bfd83099ccb2a8845871e2e1c1928f63797152f0fd54cd6200024d565b92915050565b6001600160a01b038116156200016a5781546001600160a01b0319166001600160a01b03821690811783556040516000907f8be0079c531659141344cd1fd0a4f28419497f9722a3daafe3b4186f6b6457e0908290a35b6200018a6307f5828d60e41b6001620001826200018e565b9190620001be565b5050565b6000806200010d60017fca9d3e17f264b0f3984e2634e94adb37fa3e6a8103f06aeae6fa59e21c769f5e6200024d565b600160e01b6001600160e01b0319831601620001ed576040516372c683bb60e01b815260040160405180910390fd5b6001600160e01b03199190911660009081526020929092526040909120805460ff1916911515919091179055565b6000602082840312156200022e57600080fd5b81516001600160a01b03811681146200024657600080fd5b9392505050565b818103818111156200010d57634e487b7160e01b600052601160045260246000fd5b60805160a05160c0516111ab620002ad600039600061024a015260006101a30152600081816103f80152818161059d01526107b501526111ab6000f3fe608060405234801561001057600080fd5b50600436106100885760003560e01c8063a3a2656a1161005b578063a3a2656a1461010d578063d394ab5a14610120578063e688c27b1461015e578063f2fde38b1461017157600080fd5b806301ffc9a71461008d5780633644e515146100b55780638da5cb5b146100cb57806398fc75a2146100f8575b600080fd5b6100a061009b366004610e98565b610184565b60405190151581526020015b60405180910390f35b6100bd61019e565b6040519081526020016100ac565b6100d3610270565b60405173ffffffffffffffffffffffffffffffffffffffff90911681526020016100ac565b61010b610106366004610f23565b61029c565b005b6100a061011b366004610f76565b610536565b6100d361012e366004610f76565b600060208181529281526040808220909352908152205473ffffffffffffffffffffffffffffffffffffffff1681565b61010b61016c366004610f98565b610610565b61010b61017f366004611043565b610926565b60006101988261019261093d565b9061096b565b92915050565b6000467f0000000000000000000000000000000000000000000000000000000000000000811461024857604080517f8cad95687ba82c2ce50e74f7b754645e5117c3a5bec8151c0726d5857980a8666020808301919091527fe951ffb7916e206225d235b0f631570b39e4e0323bc42da6208ae1258c2ecd3e8284015260608201849052306080808401919091528351808403909101815260a0909201909252805191012061026a565b7f00000000000000000000000000000000000000000000000000000000000000005b91505090565b600061029761027d610a45565b5473ffffffffffffffffffffffffffffffffffffffff1690565b905090565b60006102a661019e565b604080517fccd989bd7181bf32a5252e0794fbd3acd778c350d2667f94457755c1849899df602082015290810187905260608101869052608001604051602081830303815290604052805190602001206040516020016103389291907f190100000000000000000000000000000000000000000000000000000000000081526002810192909252602282015260420190565b604080517fffffffffffffffffffffffffffffffffffffffffffffffffffffffffffffffe08184030181526020601f860181900481028401810190925284835292506000916103a9918690869081908401838280828437600092019190915250508551602087012092915050610a73565b6040517ff9236a390000000000000000000000000000000000000000000000000000000081526004810188905273ffffffffffffffffffffffffffffffffffffffff80831660248301529192507f00000000000000000000000000000000000000000000000000000000000000009091169063f9236a3990604401602060405180830381865afa158015610441573d6000803e3d6000fd5b505050506040513d601f19601f820116820180604052508101906104659190611079565b156104fc5760008681526020818152604080832088845282529182902080547fffffffffffffffffffffffff00000000000000000000000000000000000000001673ffffffffffffffffffffffffffffffffffffffff85169081179091559151918252869188917f2f844f99f3ce1f0191a01a59fd0c17e12427806ea6e7bcaec13443fd6b9f5056910160405180910390a361052e565b6040517fbdbfe21600000000000000000000000000000000000000000000000000000000815260040160405180910390fd5b505050505050565b6000828152602081815260408083208484529091528082205490517ff9236a390000000000000000000000000000000000000000000000000000000081526004810185905273ffffffffffffffffffffffffffffffffffffffff91821660248201819052917f0000000000000000000000000000000000000000000000000000000000000000169063f9236a3990604401602060405180830381865afa1580156105e4573d6000803e3d6000fd5b505050506040513d601f19601f820116820180604052508101906106089190611079565b949350505050565b600061061a61019e565b7f74c3c2704ed3af9e8114f76711701f9cef0242b680ea2bdec8423e461f3895ab87878760405160200161064f92919061109b565b604080517fffffffffffffffffffffffffffffffffffffffffffffffffffffffffffffffe08184030181528282528051602091820120908301949094528101919091526060810191909152608001604051602081830303815290604052805190602001206040516020016106f59291907f190100000000000000000000000000000000000000000000000000000000000081526002810192909252602282015260420190565b604080517fffffffffffffffffffffffffffffffffffffffffffffffffffffffffffffffe08184030181526020601f86018190048102840181019092528483529250600091610766918690869081908401838280828437600092019190915250508551602087012092915050610a73565b6040517ff9236a390000000000000000000000000000000000000000000000000000000081526004810189905273ffffffffffffffffffffffffffffffffffffffff80831660248301529192507f00000000000000000000000000000000000000000000000000000000000000009091169063f9236a3990604401602060405180830381865afa1580156107fe573d6000803e3d6000fd5b505050506040513d601f19601f820116820180604052508101906108229190611079565b156104fc5760005b8581101561091c5760008881526020819052604081208391898985818110610854576108546110dd565b90506020020135815260200190815260200160002060006101000a81548173ffffffffffffffffffffffffffffffffffffffff021916908373ffffffffffffffffffffffffffffffffffffffff1602179055508686828181106108b9576108b96110dd565b90506020020135887f2f844f99f3ce1f0191a01a59fd0c17e12427806ea6e7bcaec13443fd6b9f50568460405161090c919073ffffffffffffffffffffffffffffffffffffffff91909116815260200190565b60405180910390a360010161082a565b5050505050505050565b61093a3382610933610a45565b9190610a97565b50565b60008061019860017fca9d3e17f264b0f3984e2634e94adb37fa3e6a8103f06aeae6fa59e21c769f5e61110c565b60007c01000000000000000000000000000000000000000000000000000000007fffffffff000000000000000000000000000000000000000000000000000000008316016109bb57506000610198565b7ffe003659000000000000000000000000000000000000000000000000000000007fffffffff00000000000000000000000000000000000000000000000000000000831601610a0c57506001610198565b507fffffffff00000000000000000000000000000000000000000000000000000000166000908152602091909152604090205460ff1690565b60008061019860017fc9ed16f33ab3a66c84bfd83099ccb2a8845871e2e1c1928f63797152f0fd54cd61110c565b6000806000610a828585610bb1565b91509150610a8f81610bf6565b509392505050565b825473ffffffffffffffffffffffffffffffffffffffff9081169083168114610b09576040517f2ef4875e00000000000000000000000000000000000000000000000000000000815273ffffffffffffffffffffffffffffffffffffffff841660048201526024015b60405180910390fd5b8173ffffffffffffffffffffffffffffffffffffffff168173ffffffffffffffffffffffffffffffffffffffff1614610bab5783547fffffffffffffffffffffffff00000000000000000000000000000000000000001673ffffffffffffffffffffffffffffffffffffffff8381169182178655604051908316907f8be0079c531659141344cd1fd0a4f28419497f9722a3daafe3b4186f6b6457e090600090a35b50505050565b6000808251604103610be75760208301516040840151606085015160001a610bdb87828585610da9565b94509450505050610bef565b506000905060025b9250929050565b6000816004811115610c0a57610c0a611146565b03610c125750565b6001816004811115610c2657610c26611146565b03610c8d576040517f08c379a000000000000000000000000000000000000000000000000000000000815260206004820152601860248201527f45434453413a20696e76616c6964207369676e617475726500000000000000006044820152606401610b00565b6002816004811115610ca157610ca1611146565b03610d08576040517f08c379a000000000000000000000000000000000000000000000000000000000815260206004820152601f60248201527f45434453413a20696e76616c6964207369676e6174757265206c656e677468006044820152606401610b00565b6003816004811115610d1c57610d1c611146565b0361093a576040517f08c379a000000000000000000000000000000000000000000000000000000000815260206004820152602260248201527f45434453413a20696e76616c6964207369676e6174757265202773272076616c60448201527f75650000000000000000000000000000000000000000000000000000000000006064820152608401610b00565b6000807f7fffffffffffffffffffffffffffffff5d576e7357a4501ddfe92f46681b20a0831115610de05750600090506003610e8f565b6040805160008082526020820180845289905260ff881692820192909252606081018690526080810185905260019060a0016020604051602081039080840390855afa158015610e34573d6000803e3d6000fd5b50506040517fffffffffffffffffffffffffffffffffffffffffffffffffffffffffffffffe0015191505073ffffffffffffffffffffffffffffffffffffffff8116610e8857600060019250925050610e8f565b9150600090505b94509492505050565b600060208284031215610eaa57600080fd5b81357fffffffff0000000000000000000000000000000000000000000000000000000081168114610eda57600080fd5b9392505050565b60008083601f840112610ef357600080fd5b50813567ffffffffffffffff811115610f0b57600080fd5b602083019150836020828501011115610bef57600080fd5b60008060008060608587031215610f3957600080fd5b8435935060208501359250604085013567ffffffffffffffff811115610f5e57600080fd5b610f6a87828801610ee1565b95989497509550505050565b60008060408385031215610f8957600080fd5b50508035926020909101359150565b600080600080600060608688031215610fb057600080fd5b85359450602086013567ffffffffffffffff80821115610fcf57600080fd5b818801915088601f830112610fe357600080fd5b813581811115610ff257600080fd5b8960208260051b850101111561100757600080fd5b60208301965080955050604088013591508082111561102557600080fd5b5061103288828901610ee1565b969995985093965092949392505050565b60006020828403121561105557600080fd5b813573ffffffffffffffffffffffffffffffffffffffff81168114610eda57600080fd5b60006020828403121561108b57600080fd5b81518015158114610eda57600080fd5b60007f07ffffffffffffffffffffffffffffffffffffffffffffffffffffffffffffff8311156110ca57600080fd5b8260051b80858437919091019392505050565b7f4e487b7100000000000000000000000000000000000000000000000000000000600052603260045260246000fd5b81810381811115610198577f4e487b7100000000000000000000000000000000000000000000000000000000600052601160045260246000fd5b7f4e487b7100000000000000000000000000000000000000000000000000000000600052602160045260246000fdfea2646970667358221220ab9c60f2c86917f86da36d860b55ebca22aab619c19877b681637bc1d680093764736f6c63430008160033","opcodes":"PUSH1 0xE0 PUSH1 0x40 MSTORE CALLVALUE DUP1 ISZERO PUSH3 0x11 JUMPI PUSH1 0x0 DUP1 REVERT JUMPDEST POP PUSH1 0x40 MLOAD PUSH3 0x1458 CODESIZE SUB DUP1 PUSH3 0x1458 DUP4 CODECOPY DUP2 ADD PUSH1 0x40 DUP2 SWAP1 MSTORE PUSH3 0x34 SWAP2 PUSH3 0x21B JUMP JUMPDEST CALLER PUSH3 0x4B DUP2 PUSH3 0x44 PUSH3 0xDD JUMP JUMPDEST SWAP1 PUSH3 0x113 JUMP JUMPDEST POP PUSH1 0x1 PUSH1 0x1 PUSH1 0xA0 SHL SUB AND PUSH1 0x80 SWAP1 DUP2 MSTORE CHAINID PUSH1 0xA0 DUP2 DUP2 MSTORE PUSH1 0x40 DUP1 MLOAD PUSH32 0x8CAD95687BA82C2CE50E74F7B754645E5117C3A5BEC8151C0726D5857980A866 PUSH1 0x20 DUP1 DUP4 ADD SWAP2 SWAP1 SWAP2 MSTORE PUSH32 0xE951FFB7916E206225D235B0F631570B39E4E0323BC42DA6208AE1258C2ECD3E DUP3 DUP5 ADD MSTORE PUSH1 0x60 DUP3 ADD SWAP5 SWAP1 SWAP5 MSTORE ADDRESS DUP2 DUP7 ADD MSTORE DUP2 MLOAD DUP1 DUP3 SUB SWAP1 SWAP6 ADD DUP6 MSTORE SWAP1 SWAP2 ADD SWAP1 MSTORE DUP2 MLOAD SWAP2 ADD KECCAK256 PUSH1 0xC0 MSTORE PUSH3 0x26F JUMP JUMPDEST PUSH1 0x0 DUP1 PUSH3 0x10D PUSH1 0x1 PUSH32 0xC9ED16F33AB3A66C84BFD83099CCB2A8845871E2E1C1928F63797152F0FD54CD PUSH3 0x24D JUMP JUMPDEST SWAP3 SWAP2 POP POP JUMP JUMPDEST PUSH1 0x1 PUSH1 0x1 PUSH1 0xA0 SHL SUB DUP2 AND ISZERO PUSH3 0x16A JUMPI DUP2 SLOAD PUSH1 0x1 PUSH1 0x1 PUSH1 0xA0 SHL SUB NOT AND PUSH1 0x1 PUSH1 0x1 PUSH1 0xA0 SHL SUB DUP3 AND SWAP1 DUP2 OR DUP4 SSTORE PUSH1 0x40 MLOAD PUSH1 0x0 SWAP1 PUSH32 0x8BE0079C531659141344CD1FD0A4F28419497F9722A3DAAFE3B4186F6B6457E0 SWAP1 DUP3 SWAP1 LOG3 JUMPDEST PUSH3 0x18A PUSH4 0x7F5828D PUSH1 0xE4 SHL PUSH1 0x1 PUSH3 0x182 PUSH3 0x18E JUMP JUMPDEST SWAP2 SWAP1 PUSH3 0x1BE JUMP JUMPDEST POP POP JUMP JUMPDEST PUSH1 0x0 DUP1 PUSH3 0x10D PUSH1 0x1 PUSH32 0xCA9D3E17F264B0F3984E2634E94ADB37FA3E6A8103F06AEAE6FA59E21C769F5E PUSH3 0x24D JUMP JUMPDEST PUSH1 0x1 PUSH1 0xE0 SHL PUSH1 0x1 PUSH1 0x1 PUSH1 0xE0 SHL SUB NOT DUP4 AND ADD PUSH3 0x1ED JUMPI PUSH1 0x40 MLOAD PUSH4 0x72C683BB PUSH1 0xE0 SHL DUP2 MSTORE PUSH1 0x4 ADD PUSH1 0x40 MLOAD DUP1 SWAP2 SUB SWAP1 REVERT JUMPDEST PUSH1 0x1 PUSH1 0x1 PUSH1 0xE0 SHL SUB NOT SWAP2 SWAP1 SWAP2 AND PUSH1 0x0 SWAP1 DUP2 MSTORE PUSH1 0x20 SWAP3 SWAP1 SWAP3 MSTORE PUSH1 0x40 SWAP1 SWAP2 KECCAK256 DUP1 SLOAD PUSH1 0xFF NOT AND SWAP2 ISZERO ISZERO SWAP2 SWAP1 SWAP2 OR SWAP1 SSTORE JUMP JUMPDEST PUSH1 0x0 PUSH1 0x20 DUP3 DUP5 SUB SLT ISZERO PUSH3 0x22E JUMPI PUSH1 0x0 DUP1 REVERT JUMPDEST DUP2 MLOAD PUSH1 0x1 PUSH1 0x1 PUSH1 0xA0 SHL SUB DUP2 AND DUP2 EQ PUSH3 0x246 JUMPI PUSH1 0x0 DUP1 REVERT JUMPDEST SWAP4 SWAP3 POP POP POP JUMP JUMPDEST DUP2 DUP2 SUB DUP2 DUP2 GT ISZERO PUSH3 0x10D JUMPI PUSH4 0x4E487B71 PUSH1 0xE0 SHL PUSH1 0x0 MSTORE PUSH1 0x11 PUSH1 0x4 MSTORE PUSH1 0x24 PUSH1 0x0 REVERT JUMPDEST PUSH1 0x80 MLOAD PUSH1 0xA0 MLOAD PUSH1 0xC0 MLOAD PUSH2 0x11AB PUSH3 0x2AD PUSH1 0x0 CODECOPY PUSH1 0x0 PUSH2 0x24A ADD MSTORE PUSH1 0x0 PUSH2 0x1A3 ADD MSTORE PUSH1 0x0 DUP2 DUP2 PUSH2 0x3F8 ADD MSTORE DUP2 DUP2 PUSH2 0x59D ADD MSTORE PUSH2 0x7B5 ADD MSTORE PUSH2 0x11AB PUSH1 0x0 RETURN INVALID PUSH1 0x80 PUSH1 0x40 MSTORE CALLVALUE DUP1 ISZERO PUSH2 0x10 JUMPI PUSH1 0x0 DUP1 REVERT JUMPDEST POP PUSH1 0x4 CALLDATASIZE LT PUSH2 0x88 JUMPI PUSH1 0x0 CALLDATALOAD PUSH1 0xE0 SHR DUP1 PUSH4 0xA3A2656A GT PUSH2 0x5B JUMPI DUP1 PUSH4 0xA3A2656A EQ PUSH2 0x10D JUMPI DUP1 PUSH4 0xD394AB5A EQ PUSH2 0x120 JUMPI DUP1 PUSH4 0xE688C27B EQ PUSH2 0x15E JUMPI DUP1 PUSH4 0xF2FDE38B EQ PUSH2 0x171 JUMPI PUSH1 0x0 DUP1 REVERT JUMPDEST DUP1 PUSH4 0x1FFC9A7 EQ PUSH2 0x8D JUMPI DUP1 PUSH4 0x3644E515 EQ PUSH2 0xB5 JUMPI DUP1 PUSH4 0x8DA5CB5B EQ PUSH2 0xCB JUMPI DUP1 PUSH4 0x98FC75A2 EQ PUSH2 0xF8 JUMPI JUMPDEST PUSH1 0x0 DUP1 REVERT JUMPDEST PUSH2 0xA0 PUSH2 0x9B CALLDATASIZE PUSH1 0x4 PUSH2 0xE98 JUMP JUMPDEST PUSH2 0x184 JUMP JUMPDEST PUSH1 0x40 MLOAD SWAP1 ISZERO ISZERO DUP2 MSTORE PUSH1 0x20 ADD JUMPDEST PUSH1 0x40 MLOAD DUP1 SWAP2 SUB SWAP1 RETURN JUMPDEST PUSH2 0xBD PUSH2 0x19E JUMP JUMPDEST PUSH1 0x40 MLOAD SWAP1 DUP2 MSTORE PUSH1 0x20 ADD PUSH2 0xAC JUMP JUMPDEST PUSH2 0xD3 PUSH2 0x270 JUMP JUMPDEST PUSH1 0x40 MLOAD PUSH20 0xFFFFFFFFFFFFFFFFFFFFFFFFFFFFFFFFFFFFFFFF SWAP1 SWAP2 AND DUP2 MSTORE PUSH1 0x20 ADD PUSH2 0xAC JUMP JUMPDEST PUSH2 0x10B PUSH2 0x106 CALLDATASIZE PUSH1 0x4 PUSH2 0xF23 JUMP JUMPDEST PUSH2 0x29C JUMP JUMPDEST STOP JUMPDEST PUSH2 0xA0 PUSH2 0x11B CALLDATASIZE PUSH1 0x4 PUSH2 0xF76 JUMP JUMPDEST PUSH2 0x536 JUMP JUMPDEST PUSH2 0xD3 PUSH2 0x12E CALLDATASIZE PUSH1 0x4 PUSH2 0xF76 JUMP JUMPDEST PUSH1 0x0 PUSH1 0x20 DUP2 DUP2 MSTORE SWAP3 DUP2 MSTORE PUSH1 0x40 DUP1 DUP3 KECCAK256 SWAP1 SWAP4 MSTORE SWAP1 DUP2 MSTORE KECCAK256 SLOAD PUSH20 0xFFFFFFFFFFFFFFFFFFFFFFFFFFFFFFFFFFFFFFFF AND DUP2 JUMP JUMPDEST PUSH2 0x10B PUSH2 0x16C CALLDATASIZE PUSH1 0x4 PUSH2 0xF98 JUMP JUMPDEST PUSH2 0x610 JUMP JUMPDEST PUSH2 0x10B PUSH2 0x17F CALLDATASIZE PUSH1 0x4 PUSH2 0x1043 JUMP JUMPDEST PUSH2 0x926 JUMP JUMPDEST PUSH1 0x0 PUSH2 0x198 DUP3 PUSH2 0x192 PUSH2 0x93D JUMP JUMPDEST SWAP1 PUSH2 0x96B JUMP JUMPDEST SWAP3 SWAP2 POP POP JUMP JUMPDEST PUSH1 0x0 CHAINID PUSH32 0x0 DUP2 EQ PUSH2 0x248 JUMPI PUSH1 0x40 DUP1 MLOAD PUSH32 0x8CAD95687BA82C2CE50E74F7B754645E5117C3A5BEC8151C0726D5857980A866 PUSH1 0x20 DUP1 DUP4 ADD SWAP2 SWAP1 SWAP2 MSTORE PUSH32 0xE951FFB7916E206225D235B0F631570B39E4E0323BC42DA6208AE1258C2ECD3E DUP3 DUP5 ADD MSTORE PUSH1 0x60 DUP3 ADD DUP5 SWAP1 MSTORE ADDRESS PUSH1 0x80 DUP1 DUP5 ADD SWAP2 SWAP1 SWAP2 MSTORE DUP4 MLOAD DUP1 DUP5 SUB SWAP1 SWAP2 ADD DUP2 MSTORE PUSH1 0xA0 SWAP1 SWAP3 ADD SWAP1 SWAP3 MSTORE DUP1 MLOAD SWAP2 ADD KECCAK256 PUSH2 0x26A JUMP JUMPDEST PUSH32 0x0 JUMPDEST SWAP2 POP POP SWAP1 JUMP JUMPDEST PUSH1 0x0 PUSH2 0x297 PUSH2 0x27D PUSH2 0xA45 JUMP JUMPDEST SLOAD PUSH20 0xFFFFFFFFFFFFFFFFFFFFFFFFFFFFFFFFFFFFFFFF AND SWAP1 JUMP JUMPDEST SWAP1 POP SWAP1 JUMP JUMPDEST PUSH1 0x0 PUSH2 0x2A6 PUSH2 0x19E JUMP JUMPDEST PUSH1 0x40 DUP1 MLOAD PUSH32 0xCCD989BD7181BF32A5252E0794FBD3ACD778C350D2667F94457755C1849899DF PUSH1 0x20 DUP3 ADD MSTORE SWAP1 DUP2 ADD DUP8 SWAP1 MSTORE PUSH1 0x60 DUP2 ADD DUP7 SWAP1 MSTORE PUSH1 0x80 ADD PUSH1 0x40 MLOAD PUSH1 0x20 DUP2 DUP4 SUB SUB DUP2 MSTORE SWAP1 PUSH1 0x40 MSTORE DUP1 MLOAD SWAP1 PUSH1 0x20 ADD KECCAK256 PUSH1 0x40 MLOAD PUSH1 0x20 ADD PUSH2 0x338 SWAP3 SWAP2 SWAP1 PUSH32 0x1901000000000000000000000000000000000000000000000000000000000000 DUP2 MSTORE PUSH1 0x2 DUP2 ADD SWAP3 SWAP1 SWAP3 MSTORE PUSH1 0x22 DUP3 ADD MSTORE PUSH1 0x42 ADD SWAP1 JUMP JUMPDEST PUSH1 0x40 DUP1 MLOAD PUSH32 0xFFFFFFFFFFFFFFFFFFFFFFFFFFFFFFFFFFFFFFFFFFFFFFFFFFFFFFFFFFFFFFE0 DUP2 DUP5 SUB ADD DUP2 MSTORE PUSH1 0x20 PUSH1 0x1F DUP7 ADD DUP2 SWAP1 DIV DUP2 MUL DUP5 ADD DUP2 ADD SWAP1 SWAP3 MSTORE DUP5 DUP4 MSTORE SWAP3 POP PUSH1 0x0 SWAP2 PUSH2 0x3A9 SWAP2 DUP7 SWAP1 DUP7 SWAP1 DUP2 SWAP1 DUP5 ADD DUP4 DUP3 DUP1 DUP3 DUP5 CALLDATACOPY PUSH1 0x0 SWAP3 ADD SWAP2 SWAP1 SWAP2 MSTORE POP POP DUP6 MLOAD PUSH1 0x20 DUP8 ADD KECCAK256 SWAP3 SWAP2 POP POP PUSH2 0xA73 JUMP JUMPDEST PUSH1 0x40 MLOAD PUSH32 0xF9236A3900000000000000000000000000000000000000000000000000000000 DUP2 MSTORE PUSH1 0x4 DUP2 ADD DUP9 SWAP1 MSTORE PUSH20 0xFFFFFFFFFFFFFFFFFFFFFFFFFFFFFFFFFFFFFFFF DUP1 DUP4 AND PUSH1 0x24 DUP4 ADD MSTORE SWAP2 SWAP3 POP PUSH32 0x0 SWAP1 SWAP2 AND SWAP1 PUSH4 0xF9236A39 SWAP1 PUSH1 0x44 ADD PUSH1 0x20 PUSH1 0x40 MLOAD DUP1 DUP4 SUB DUP2 DUP7 GAS STATICCALL ISZERO DUP1 ISZERO PUSH2 0x441 JUMPI RETURNDATASIZE PUSH1 0x0 DUP1 RETURNDATACOPY RETURNDATASIZE PUSH1 0x0 REVERT JUMPDEST POP POP POP POP PUSH1 0x40 MLOAD RETURNDATASIZE PUSH1 0x1F NOT PUSH1 0x1F DUP3 ADD AND DUP3 ADD DUP1 PUSH1 0x40 MSTORE POP DUP2 ADD SWAP1 PUSH2 0x465 SWAP2 SWAP1 PUSH2 0x1079 JUMP JUMPDEST ISZERO PUSH2 0x4FC JUMPI PUSH1 0x0 DUP7 DUP2 MSTORE PUSH1 0x20 DUP2 DUP2 MSTORE PUSH1 0x40 DUP1 DUP4 KECCAK256 DUP9 DUP5 MSTORE DUP3 MSTORE SWAP2 DUP3 SWAP1 KECCAK256 DUP1 SLOAD PUSH32 0xFFFFFFFFFFFFFFFFFFFFFFFF0000000000000000000000000000000000000000 AND PUSH20 0xFFFFFFFFFFFFFFFFFFFFFFFFFFFFFFFFFFFFFFFF DUP6 AND SWAP1 DUP2 OR SWAP1 SWAP2 SSTORE SWAP2 MLOAD SWAP2 DUP3 MSTORE DUP7 SWAP2 DUP9 SWAP2 PUSH32 0x2F844F99F3CE1F0191A01A59FD0C17E12427806EA6E7BCAEC13443FD6B9F5056 SWAP2 ADD PUSH1 0x40 MLOAD DUP1 SWAP2 SUB SWAP1 LOG3 PUSH2 0x52E JUMP JUMPDEST PUSH1 0x40 MLOAD PUSH32 0xBDBFE21600000000000000000000000000000000000000000000000000000000 DUP2 MSTORE PUSH1 0x4 ADD PUSH1 0x40 MLOAD DUP1 SWAP2 SUB SWAP1 REVERT JUMPDEST POP POP POP POP POP POP JUMP JUMPDEST PUSH1 0x0 DUP3 DUP2 MSTORE PUSH1 0x20 DUP2 DUP2 MSTORE PUSH1 0x40 DUP1 DUP4 KECCAK256 DUP5 DUP5 MSTORE SWAP1 SWAP2 MSTORE DUP1 DUP3 KECCAK256 SLOAD SWAP1 MLOAD PUSH32 0xF9236A3900000000000000000000000000000000000000000000000000000000 DUP2 MSTORE PUSH1 0x4 DUP2 ADD DUP6 SWAP1 MSTORE PUSH20 0xFFFFFFFFFFFFFFFFFFFFFFFFFFFFFFFFFFFFFFFF SWAP2 DUP3 AND PUSH1 0x24 DUP3 ADD DUP2 SWAP1 MSTORE SWAP2 PUSH32 0x0 AND SWAP1 PUSH4 0xF9236A39 SWAP1 PUSH1 0x44 ADD PUSH1 0x20 PUSH1 0x40 MLOAD DUP1 DUP4 SUB DUP2 DUP7 GAS STATICCALL ISZERO DUP1 ISZERO PUSH2 0x5E4 JUMPI RETURNDATASIZE PUSH1 0x0 DUP1 RETURNDATACOPY RETURNDATASIZE PUSH1 0x0 REVERT JUMPDEST POP POP POP POP PUSH1 0x40 MLOAD RETURNDATASIZE PUSH1 0x1F NOT PUSH1 0x1F DUP3 ADD AND DUP3 ADD DUP1 PUSH1 0x40 MSTORE POP DUP2 ADD SWAP1 PUSH2 0x608 SWAP2 SWAP1 PUSH2 0x1079 JUMP JUMPDEST SWAP5 SWAP4 POP POP POP POP JUMP JUMPDEST PUSH1 0x0 PUSH2 0x61A PUSH2 0x19E JUMP JUMPDEST PUSH32 0x74C3C2704ED3AF9E8114F76711701F9CEF0242B680EA2BDEC8423E461F3895AB DUP8 DUP8 DUP8 PUSH1 0x40 MLOAD PUSH1 0x20 ADD PUSH2 0x64F SWAP3 SWAP2 SWAP1 PUSH2 0x109B JUMP JUMPDEST PUSH1 0x40 DUP1 MLOAD PUSH32 0xFFFFFFFFFFFFFFFFFFFFFFFFFFFFFFFFFFFFFFFFFFFFFFFFFFFFFFFFFFFFFFE0 DUP2 DUP5 SUB ADD DUP2 MSTORE DUP3 DUP3 MSTORE DUP1 MLOAD PUSH1 0x20 SWAP2 DUP3 ADD KECCAK256 SWAP1 DUP4 ADD SWAP5 SWAP1 SWAP5 MSTORE DUP2 ADD SWAP2 SWAP1 SWAP2 MSTORE PUSH1 0x60 DUP2 ADD SWAP2 SWAP1 SWAP2 MSTORE PUSH1 0x80 ADD PUSH1 0x40 MLOAD PUSH1 0x20 DUP2 DUP4 SUB SUB DUP2 MSTORE SWAP1 PUSH1 0x40 MSTORE DUP1 MLOAD SWAP1 PUSH1 0x20 ADD KECCAK256 PUSH1 0x40 MLOAD PUSH1 0x20 ADD PUSH2 0x6F5 SWAP3 SWAP2 SWAP1 PUSH32 0x1901000000000000000000000000000000000000000000000000000000000000 DUP2 MSTORE PUSH1 0x2 DUP2 ADD SWAP3 SWAP1 SWAP3 MSTORE PUSH1 0x22 DUP3 ADD MSTORE PUSH1 0x42 ADD SWAP1 JUMP JUMPDEST PUSH1 0x40 DUP1 MLOAD PUSH32 0xFFFFFFFFFFFFFFFFFFFFFFFFFFFFFFFFFFFFFFFFFFFFFFFFFFFFFFFFFFFFFFE0 DUP2 DUP5 SUB ADD DUP2 MSTORE PUSH1 0x20 PUSH1 0x1F DUP7 ADD DUP2 SWAP1 DIV DUP2 MUL DUP5 ADD DUP2 ADD SWAP1 SWAP3 MSTORE DUP5 DUP4 MSTORE SWAP3 POP PUSH1 0x0 SWAP2 PUSH2 0x766 SWAP2 DUP7 SWAP1 DUP7 SWAP1 DUP2 SWAP1 DUP5 ADD DUP4 DUP3 DUP1 DUP3 DUP5 CALLDATACOPY PUSH1 0x0 SWAP3 ADD SWAP2 SWAP1 SWAP2 MSTORE POP POP DUP6 MLOAD PUSH1 0x20 DUP8 ADD KECCAK256 SWAP3 SWAP2 POP POP PUSH2 0xA73 JUMP JUMPDEST PUSH1 0x40 MLOAD PUSH32 0xF9236A3900000000000000000000000000000000000000000000000000000000 DUP2 MSTORE PUSH1 0x4 DUP2 ADD DUP10 SWAP1 MSTORE PUSH20 0xFFFFFFFFFFFFFFFFFFFFFFFFFFFFFFFFFFFFFFFF DUP1 DUP4 AND PUSH1 0x24 DUP4 ADD MSTORE SWAP2 SWAP3 POP PUSH32 0x0 SWAP1 SWAP2 AND SWAP1 PUSH4 0xF9236A39 SWAP1 PUSH1 0x44 ADD PUSH1 0x20 PUSH1 0x40 MLOAD DUP1 DUP4 SUB DUP2 DUP7 GAS STATICCALL ISZERO DUP1 ISZERO PUSH2 0x7FE JUMPI RETURNDATASIZE PUSH1 0x0 DUP1 RETURNDATACOPY RETURNDATASIZE PUSH1 0x0 REVERT JUMPDEST POP POP POP POP PUSH1 0x40 MLOAD RETURNDATASIZE PUSH1 0x1F NOT PUSH1 0x1F DUP3 ADD AND DUP3 ADD DUP1 PUSH1 0x40 MSTORE POP DUP2 ADD SWAP1 PUSH2 0x822 SWAP2 SWAP1 PUSH2 0x1079 JUMP JUMPDEST ISZERO PUSH2 0x4FC JUMPI PUSH1 0x0 JUMPDEST DUP6 DUP2 LT ISZERO PUSH2 0x91C JUMPI PUSH1 0x0 DUP9 DUP2 MSTORE PUSH1 0x20 DUP2 SWAP1 MSTORE PUSH1 0x40 DUP2 KECCAK256 DUP4 SWAP2 DUP10 DUP10 DUP6 DUP2 DUP2 LT PUSH2 0x854 JUMPI PUSH2 0x854 PUSH2 0x10DD JUMP JUMPDEST SWAP1 POP PUSH1 0x20 MUL ADD CALLDATALOAD DUP2 MSTORE PUSH1 0x20 ADD SWAP1 DUP2 MSTORE PUSH1 0x20 ADD PUSH1 0x0 KECCAK256 PUSH1 0x0 PUSH2 0x100 EXP DUP2 SLOAD DUP2 PUSH20 0xFFFFFFFFFFFFFFFFFFFFFFFFFFFFFFFFFFFFFFFF MUL NOT AND SWAP1 DUP4 PUSH20 0xFFFFFFFFFFFFFFFFFFFFFFFFFFFFFFFFFFFFFFFF AND MUL OR SWAP1 SSTORE POP DUP7 DUP7 DUP3 DUP2 DUP2 LT PUSH2 0x8B9 JUMPI PUSH2 0x8B9 PUSH2 0x10DD JUMP JUMPDEST SWAP1 POP PUSH1 0x20 MUL ADD CALLDATALOAD DUP9 PUSH32 0x2F844F99F3CE1F0191A01A59FD0C17E12427806EA6E7BCAEC13443FD6B9F5056 DUP5 PUSH1 0x40 MLOAD PUSH2 0x90C SWAP2 SWAP1 PUSH20 0xFFFFFFFFFFFFFFFFFFFFFFFFFFFFFFFFFFFFFFFF SWAP2 SWAP1 SWAP2 AND DUP2 MSTORE PUSH1 0x20 ADD SWAP1 JUMP JUMPDEST PUSH1 0x40 MLOAD DUP1 SWAP2 SUB SWAP1 LOG3 PUSH1 0x1 ADD PUSH2 0x82A JUMP JUMPDEST POP POP POP POP POP POP POP POP JUMP JUMPDEST PUSH2 0x93A CALLER DUP3 PUSH2 0x933 PUSH2 0xA45 JUMP JUMPDEST SWAP2 SWAP1 PUSH2 0xA97 JUMP JUMPDEST POP JUMP JUMPDEST PUSH1 0x0 DUP1 PUSH2 0x198 PUSH1 0x1 PUSH32 0xCA9D3E17F264B0F3984E2634E94ADB37FA3E6A8103F06AEAE6FA59E21C769F5E PUSH2 0x110C JUMP JUMPDEST PUSH1 0x0 PUSH29 0x100000000000000000000000000000000000000000000000000000000 PUSH32 0xFFFFFFFF00000000000000000000000000000000000000000000000000000000 DUP4 AND ADD PUSH2 0x9BB JUMPI POP PUSH1 0x0 PUSH2 0x198 JUMP JUMPDEST PUSH32 0xFE00365900000000000000000000000000000000000000000000000000000000 PUSH32 0xFFFFFFFF00000000000000000000000000000000000000000000000000000000 DUP4 AND ADD PUSH2 0xA0C JUMPI POP PUSH1 0x1 PUSH2 0x198 JUMP JUMPDEST POP PUSH32 0xFFFFFFFF00000000000000000000000000000000000000000000000000000000 AND PUSH1 0x0 SWAP1 DUP2 MSTORE PUSH1 0x20 SWAP2 SWAP1 SWAP2 MSTORE PUSH1 0x40 SWAP1 KECCAK256 SLOAD PUSH1 0xFF AND SWAP1 JUMP JUMPDEST PUSH1 0x0 DUP1 PUSH2 0x198 PUSH1 0x1 PUSH32 0xC9ED16F33AB3A66C84BFD83099CCB2A8845871E2E1C1928F63797152F0FD54CD PUSH2 0x110C JUMP JUMPDEST PUSH1 0x0 DUP1 PUSH1 0x0 PUSH2 0xA82 DUP6 DUP6 PUSH2 0xBB1 JUMP JUMPDEST SWAP2 POP SWAP2 POP PUSH2 0xA8F DUP2 PUSH2 0xBF6 JUMP JUMPDEST POP SWAP4 SWAP3 POP POP POP JUMP JUMPDEST DUP3 SLOAD PUSH20 0xFFFFFFFFFFFFFFFFFFFFFFFFFFFFFFFFFFFFFFFF SWAP1 DUP2 AND SWAP1 DUP4 AND DUP2 EQ PUSH2 0xB09 JUMPI PUSH1 0x40 MLOAD PUSH32 0x2EF4875E00000000000000000000000000000000000000000000000000000000 DUP2 MSTORE PUSH20 0xFFFFFFFFFFFFFFFFFFFFFFFFFFFFFFFFFFFFFFFF DUP5 AND PUSH1 0x4 DUP3 ADD MSTORE PUSH1 0x24 ADD JUMPDEST PUSH1 0x40 MLOAD DUP1 SWAP2 SUB SWAP1 REVERT JUMPDEST DUP2 PUSH20 0xFFFFFFFFFFFFFFFFFFFFFFFFFFFFFFFFFFFFFFFF AND DUP2 PUSH20 0xFFFFFFFFFFFFFFFFFFFFFFFFFFFFFFFFFFFFFFFF AND EQ PUSH2 0xBAB JUMPI DUP4 SLOAD PUSH32 0xFFFFFFFFFFFFFFFFFFFFFFFF0000000000000000000000000000000000000000 AND PUSH20 0xFFFFFFFFFFFFFFFFFFFFFFFFFFFFFFFFFFFFFFFF DUP4 DUP2 AND SWAP2 DUP3 OR DUP7 SSTORE PUSH1 0x40 MLOAD SWAP1 DUP4 AND SWAP1 PUSH32 0x8BE0079C531659141344CD1FD0A4F28419497F9722A3DAAFE3B4186F6B6457E0 SWAP1 PUSH1 0x0 SWAP1 LOG3 JUMPDEST POP POP POP POP JUMP JUMPDEST PUSH1 0x0 DUP1 DUP3 MLOAD PUSH1 0x41 SUB PUSH2 0xBE7 JUMPI PUSH1 0x20 DUP4 ADD MLOAD PUSH1 0x40 DUP5 ADD MLOAD PUSH1 0x60 DUP6 ADD MLOAD PUSH1 0x0 BYTE PUSH2 0xBDB DUP8 DUP3 DUP6 DUP6 PUSH2 0xDA9 JUMP JUMPDEST SWAP5 POP SWAP5 POP POP POP POP PUSH2 0xBEF JUMP JUMPDEST POP PUSH1 0x0 SWAP1 POP PUSH1 0x2 JUMPDEST SWAP3 POP SWAP3 SWAP1 POP JUMP JUMPDEST PUSH1 0x0 DUP2 PUSH1 0x4 DUP2 GT ISZERO PUSH2 0xC0A JUMPI PUSH2 0xC0A PUSH2 0x1146 JUMP JUMPDEST SUB PUSH2 0xC12 JUMPI POP JUMP JUMPDEST PUSH1 0x1 DUP2 PUSH1 0x4 DUP2 GT ISZERO PUSH2 0xC26 JUMPI PUSH2 0xC26 PUSH2 0x1146 JUMP JUMPDEST SUB PUSH2 0xC8D JUMPI PUSH1 0x40 MLOAD PUSH32 0x8C379A000000000000000000000000000000000000000000000000000000000 DUP2 MSTORE PUSH1 0x20 PUSH1 0x4 DUP3 ADD MSTORE PUSH1 0x18 PUSH1 0x24 DUP3 ADD MSTORE PUSH32 0x45434453413A20696E76616C6964207369676E61747572650000000000000000 PUSH1 0x44 DUP3 ADD MSTORE PUSH1 0x64 ADD PUSH2 0xB00 JUMP JUMPDEST PUSH1 0x2 DUP2 PUSH1 0x4 DUP2 GT ISZERO PUSH2 0xCA1 JUMPI PUSH2 0xCA1 PUSH2 0x1146 JUMP JUMPDEST SUB PUSH2 0xD08 JUMPI PUSH1 0x40 MLOAD PUSH32 0x8C379A000000000000000000000000000000000000000000000000000000000 DUP2 MSTORE PUSH1 0x20 PUSH1 0x4 DUP3 ADD MSTORE PUSH1 0x1F PUSH1 0x24 DUP3 ADD MSTORE PUSH32 0x45434453413A20696E76616C6964207369676E6174757265206C656E67746800 PUSH1 0x44 DUP3 ADD MSTORE PUSH1 0x64 ADD PUSH2 0xB00 JUMP JUMPDEST PUSH1 0x3 DUP2 PUSH1 0x4 DUP2 GT ISZERO PUSH2 0xD1C JUMPI PUSH2 0xD1C PUSH2 0x1146 JUMP JUMPDEST SUB PUSH2 0x93A JUMPI PUSH1 0x40 MLOAD PUSH32 0x8C379A000000000000000000000000000000000000000000000000000000000 DUP2 MSTORE PUSH1 0x20 PUSH1 0x4 DUP3 ADD MSTORE PUSH1 0x22 PUSH1 0x24 DUP3 ADD MSTORE PUSH32 0x45434453413A20696E76616C6964207369676E6174757265202773272076616C PUSH1 0x44 DUP3 ADD MSTORE PUSH32 0x7565000000000000000000000000000000000000000000000000000000000000 PUSH1 0x64 DUP3 ADD MSTORE PUSH1 0x84 ADD PUSH2 0xB00 JUMP JUMPDEST PUSH1 0x0 DUP1 PUSH32 0x7FFFFFFFFFFFFFFFFFFFFFFFFFFFFFFF5D576E7357A4501DDFE92F46681B20A0 DUP4 GT ISZERO PUSH2 0xDE0 JUMPI POP PUSH1 0x0 SWAP1 POP PUSH1 0x3 PUSH2 0xE8F JUMP JUMPDEST PUSH1 0x40 DUP1 MLOAD PUSH1 0x0 DUP1 DUP3 MSTORE PUSH1 0x20 DUP3 ADD DUP1 DUP5 MSTORE DUP10 SWAP1 MSTORE PUSH1 0xFF DUP9 AND SWAP3 DUP3 ADD SWAP3 SWAP1 SWAP3 MSTORE PUSH1 0x60 DUP2 ADD DUP7 SWAP1 MSTORE PUSH1 0x80 DUP2 ADD DUP6 SWAP1 MSTORE PUSH1 0x1 SWAP1 PUSH1 0xA0 ADD PUSH1 0x20 PUSH1 0x40 MLOAD PUSH1 0x20 DUP2 SUB SWAP1 DUP1 DUP5 SUB SWAP1 DUP6 GAS STATICCALL ISZERO DUP1 ISZERO PUSH2 0xE34 JUMPI RETURNDATASIZE PUSH1 0x0 DUP1 RETURNDATACOPY RETURNDATASIZE PUSH1 0x0 REVERT JUMPDEST POP POP PUSH1 0x40 MLOAD PUSH32 0xFFFFFFFFFFFFFFFFFFFFFFFFFFFFFFFFFFFFFFFFFFFFFFFFFFFFFFFFFFFFFFE0 ADD MLOAD SWAP2 POP POP PUSH20 0xFFFFFFFFFFFFFFFFFFFFFFFFFFFFFFFFFFFFFFFF DUP2 AND PUSH2 0xE88 JUMPI PUSH1 0x0 PUSH1 0x1 SWAP3 POP SWAP3 POP POP PUSH2 0xE8F JUMP JUMPDEST SWAP2 POP PUSH1 0x0 SWAP1 POP JUMPDEST SWAP5 POP SWAP5 SWAP3 POP POP POP JUMP JUMPDEST PUSH1 0x0 PUSH1 0x20 DUP3 DUP5 SUB SLT ISZERO PUSH2 0xEAA JUMPI PUSH1 0x0 DUP1 REVERT JUMPDEST DUP2 CALLDATALOAD PUSH32 0xFFFFFFFF00000000000000000000000000000000000000000000000000000000 DUP2 AND DUP2 EQ PUSH2 0xEDA JUMPI PUSH1 0x0 DUP1 REVERT JUMPDEST SWAP4 SWAP3 POP POP POP JUMP JUMPDEST PUSH1 0x0 DUP1 DUP4 PUSH1 0x1F DUP5 ADD SLT PUSH2 0xEF3 JUMPI PUSH1 0x0 DUP1 REVERT JUMPDEST POP DUP2 CALLDATALOAD PUSH8 0xFFFFFFFFFFFFFFFF DUP2 GT ISZERO PUSH2 0xF0B JUMPI PUSH1 0x0 DUP1 REVERT JUMPDEST PUSH1 0x20 DUP4 ADD SWAP2 POP DUP4 PUSH1 0x20 DUP3 DUP6 ADD ADD GT ISZERO PUSH2 0xBEF JUMPI PUSH1 0x0 DUP1 REVERT JUMPDEST PUSH1 0x0 DUP1 PUSH1 0x0 DUP1 PUSH1 0x60 DUP6 DUP8 SUB SLT ISZERO PUSH2 0xF39 JUMPI PUSH1 0x0 DUP1 REVERT JUMPDEST DUP5 CALLDATALOAD SWAP4 POP PUSH1 0x20 DUP6 ADD CALLDATALOAD SWAP3 POP PUSH1 0x40 DUP6 ADD CALLDATALOAD PUSH8 0xFFFFFFFFFFFFFFFF DUP2 GT ISZERO PUSH2 0xF5E JUMPI PUSH1 0x0 DUP1 REVERT JUMPDEST PUSH2 0xF6A DUP8 DUP3 DUP9 ADD PUSH2 0xEE1 JUMP JUMPDEST SWAP6 SWAP9 SWAP5 SWAP8 POP SWAP6 POP POP POP POP JUMP JUMPDEST PUSH1 0x0 DUP1 PUSH1 0x40 DUP4 DUP6 SUB SLT ISZERO PUSH2 0xF89 JUMPI PUSH1 0x0 DUP1 REVERT JUMPDEST POP POP DUP1 CALLDATALOAD SWAP3 PUSH1 0x20 SWAP1 SWAP2 ADD CALLDATALOAD SWAP2 POP JUMP JUMPDEST PUSH1 0x0 DUP1 PUSH1 0x0 DUP1 PUSH1 0x0 PUSH1 0x60 DUP7 DUP9 SUB SLT ISZERO PUSH2 0xFB0 JUMPI PUSH1 0x0 DUP1 REVERT JUMPDEST DUP6 CALLDATALOAD SWAP5 POP PUSH1 0x20 DUP7 ADD CALLDATALOAD PUSH8 0xFFFFFFFFFFFFFFFF DUP1 DUP3 GT ISZERO PUSH2 0xFCF JUMPI PUSH1 0x0 DUP1 REVERT JUMPDEST DUP2 DUP9 ADD SWAP2 POP DUP9 PUSH1 0x1F DUP4 ADD SLT PUSH2 0xFE3 JUMPI PUSH1 0x0 DUP1 REVERT JUMPDEST DUP2 CALLDATALOAD DUP2 DUP2 GT ISZERO PUSH2 0xFF2 JUMPI PUSH1 0x0 DUP1 REVERT JUMPDEST DUP10 PUSH1 0x20 DUP3 PUSH1 0x5 SHL DUP6 ADD ADD GT ISZERO PUSH2 0x1007 JUMPI PUSH1 0x0 DUP1 REVERT JUMPDEST PUSH1 0x20 DUP4 ADD SWAP7 POP DUP1 SWAP6 POP POP PUSH1 0x40 DUP9 ADD CALLDATALOAD SWAP2 POP DUP1 DUP3 GT ISZERO PUSH2 0x1025 JUMPI PUSH1 0x0 DUP1 REVERT JUMPDEST POP PUSH2 0x1032 DUP9 DUP3 DUP10 ADD PUSH2 0xEE1 JUMP JUMPDEST SWAP7 SWAP10 SWAP6 SWAP9 POP SWAP4 SWAP7 POP SWAP3 SWAP5 SWAP4 SWAP3 POP POP POP JUMP JUMPDEST PUSH1 0x0 PUSH1 0x20 DUP3 DUP5 SUB SLT ISZERO PUSH2 0x1055 JUMPI PUSH1 0x0 DUP1 REVERT JUMPDEST DUP2 CALLDATALOAD PUSH20 0xFFFFFFFFFFFFFFFFFFFFFFFFFFFFFFFFFFFFFFFF DUP2 AND DUP2 EQ PUSH2 0xEDA JUMPI PUSH1 0x0 DUP1 REVERT JUMPDEST PUSH1 0x0 PUSH1 0x20 DUP3 DUP5 SUB SLT ISZERO PUSH2 0x108B JUMPI PUSH1 0x0 DUP1 REVERT JUMPDEST DUP2 MLOAD DUP1 ISZERO ISZERO DUP2 EQ PUSH2 0xEDA JUMPI PUSH1 0x0 DUP1 REVERT JUMPDEST PUSH1 0x0 PUSH32 0x7FFFFFFFFFFFFFFFFFFFFFFFFFFFFFFFFFFFFFFFFFFFFFFFFFFFFFFFFFFFFFF DUP4 GT ISZERO PUSH2 0x10CA JUMPI PUSH1 0x0 DUP1 REVERT JUMPDEST DUP3 PUSH1 0x5 SHL DUP1 DUP6 DUP5 CALLDATACOPY SWAP2 SWAP1 SWAP2 ADD SWAP4 SWAP3 POP POP POP JUMP JUMPDEST PUSH32 0x4E487B7100000000000000000000000000000000000000000000000000000000 PUSH1 0x0 MSTORE PUSH1 0x32 PUSH1 0x4 MSTORE PUSH1 0x24 PUSH1 0x0 REVERT JUMPDEST DUP2 DUP2 SUB DUP2 DUP2 GT ISZERO PUSH2 0x198 JUMPI PUSH32 0x4E487B7100000000000000000000000000000000000000000000000000000000 PUSH1 0x0 MSTORE PUSH1 0x11 PUSH1 0x4 MSTORE PUSH1 0x24 PUSH1 0x0 REVERT JUMPDEST PUSH32 0x4E487B7100000000000000000000000000000000000000000000000000000000 PUSH1 0x0 MSTORE PUSH1 0x21 PUSH1 0x4 MSTORE PUSH1 0x24 PUSH1 0x0 REVERT INVALID LOG2 PUSH5 0x6970667358 0x22 SLT KECCAK256 0xAB SWAP13 PUSH1 0xF2 0xC8 PUSH10 0x17F86DA36D860B55EBCA 0x22 0xAA 0xB6 NOT 0xC1 SWAP9 PUSH24 0xB681637BC1D680093764736F6C6343000816003300000000 "},"gasEstimates":{"creation":{"codeDepositCost":"904600","executionCost":"infinite","totalCost":"infinite"},"external":{"DOMAIN_SEPARATOR()":"infinite","batchRevokeVCs(bytes32,uint256[],bytes)":"infinite","isRevoked(bytes32,uint256)":"infinite","owner()":"infinite","revocations(bytes32,uint256)":"2564","revokeVC(bytes32,uint256,bytes)":"infinite","supportsInterface(bytes4)":"infinite","transferOwnership(address)":"infinite"},"internal":{"_calculateDomainSeparator(uint256)":"infinite"}},"methodIdentifiers":{"DOMAIN_SEPARATOR()":"3644e515","batchRevokeVCs(bytes32,uint256[],bytes)":"e688c27b","isRevoked(bytes32,uint256)":"a3a2656a","owner()":"8da5cb5b","revocations(bytes32,uint256)":"d394ab5a","revokeVC(bytes32,uint256,bytes)":"98fc75a2","supportsInterface(bytes4)":"01ffc9a7","transferOwnership(address)":"f2fde38b"}},"storageLayout":{"storage":[{"astId":2660,"contract":"contracts/vc/OpenCampusCertificateRevocationRegistry.sol:OpenCampusCertificateRevocationRegistry","label":"revocations","offset":0,"slot":"0","type":"t_mapping(t_bytes32,t_mapping(t_uint256,t_address))"}],"types":{"t_address":{"encoding":"inplace","label":"address","numberOfBytes":"20"},"t_bytes32":{"encoding":"inplace","label":"bytes32","numberOfBytes":"32"},"t_mapping(t_bytes32,t_mapping(t_uint256,t_address))":{"encoding":"mapping","key":"t_bytes32","label":"mapping(bytes32 => mapping(uint256 => address))","numberOfBytes":"32","value":"t_mapping(t_uint256,t_address)"},"t_mapping(t_uint256,t_address)":{"encoding":"mapping","key":"t_uint256","label":"mapping(uint256 => address)","numberOfBytes":"32","value":"t_address"},"t_uint256":{"encoding":"inplace","label":"uint256","numberOfBytes":"32"}}},"userdoc":{"errors":{"IllegalInterfaceId()":[{"notice":"Thrown when setting the illegal interfaceId 0xffffffff."}],"InvalidIssuer()":[{"notice":"Thrown when the recovered issuer and the passed in issuerDid is not allowed in the DIDRegistry"}],"NotContractOwner(address)":[{"notice":"Thrown when an account is not the contract owner but is required to."}]},"events":{"OwnershipTransferred(address,address)":{"notice":"Emitted when the contract ownership changes."},"VcRevoked(bytes32,address,uint256)":{"notice":"Emitted when `caller` attempts to revoke `vcId`."}},"kind":"user","methods":{"DOMAIN_SEPARATOR()":{"notice":"Returns the EIP-712 DOMAIN_SEPARATOR."},"owner()":{"notice":"Gets the address of the contract owner."},"supportsInterface(bytes4)":{"notice":"Returns whether this contract implements a given interface."},"transferOwnership(address)":{"notice":"Sets the address of the new contract owner."}},"notice":"A registry storing the revocation of VCs.","version":1}}}}