{"contracts/vc/OpenCampusCertificateNFTv1.sol":{"OpenCampusCertificateNFTv1":{"abi":[{"inputs":[{"internalType":"string","name":"tokenName","type":"string"},{"internalType":"string","name":"tokenSymbol","type":"string"},{"internalType":"contract ITokenMetadataResolver","name":"metadataResolver","type":"address"},{"internalType":"contract IRevocationRegistry","name":"revocationRegistry","type":"address"},{"internalType":"contract IIssuersDIDRegistry","name":"didRegistry","type":"address"}],"stateMutability":"nonpayable","type":"constructor"},{"inputs":[],"name":"ERC721BalanceOfAddressZero","type":"error"},{"inputs":[{"internalType":"uint256","name":"tokenId","type":"uint256"}],"name":"ERC721ExistingToken","type":"error"},{"inputs":[],"name":"ERC721MintToAddressZero","type":"error"},{"inputs":[{"internalType":"address","name":"sender","type":"address"},{"internalType":"address","name":"owner","type":"address"},{"internalType":"uint256","name":"tokenId","type":"uint256"}],"name":"ERC721NonApprovedForTransfer","type":"error"},{"inputs":[{"internalType":"uint256","name":"tokenId","type":"uint256"}],"name":"ERC721NonExistingToken","type":"error"},{"inputs":[{"internalType":"address","name":"account","type":"address"},{"internalType":"uint256","name":"tokenId","type":"uint256"}],"name":"ERC721NonOwnedToken","type":"error"},{"inputs":[{"internalType":"address","name":"recipient","type":"address"},{"internalType":"uint256","name":"tokenId","type":"uint256"}],"name":"ERC721SafeTransferRejected","type":"error"},{"inputs":[],"name":"IllegalInterfaceId","type":"error"},{"inputs":[],"name":"InvalidBurn","type":"error"},{"inputs":[],"name":"NoOperatorAllowed","type":"error"},{"inputs":[{"internalType":"uint256","name":"tokenId","type":"uint256"}],"name":"NonExistingAllowedTransfer","type":"error"},{"inputs":[{"internalType":"address","name":"account","type":"address"}],"name":"NotContractOwner","type":"error"},{"inputs":[{"internalType":"bytes32","name":"role","type":"bytes32"},{"internalType":"address","name":"account","type":"address"}],"name":"NotRoleHolder","type":"error"},{"inputs":[{"internalType":"address","name":"recipient","type":"address"}],"name":"RedundantAllowedTransfer","type":"error"},{"inputs":[],"name":"TransferNotAllowed","type":"error"},{"anonymous":false,"inputs":[{"indexed":true,"internalType":"address","name":"recipient","type":"address"},{"indexed":true,"internalType":"uint256","name":"tokenId","type":"uint256"},{"indexed":false,"internalType":"address","name":"sender","type":"address"}],"name":"AllowedTransferRemoved","type":"event"},{"anonymous":false,"inputs":[{"indexed":true,"internalType":"address","name":"previousOwner","type":"address"},{"indexed":true,"internalType":"address","name":"newOwner","type":"address"}],"name":"OwnershipTransferred","type":"event"},{"anonymous":false,"inputs":[{"indexed":false,"internalType":"bytes32","name":"role","type":"bytes32"},{"indexed":false,"internalType":"address","name":"account","type":"address"},{"indexed":false,"internalType":"address","name":"operator","type":"address"}],"name":"RoleGranted","type":"event"},{"anonymous":false,"inputs":[{"indexed":false,"internalType":"bytes32","name":"role","type":"bytes32"},{"indexed":false,"internalType":"address","name":"account","type":"address"},{"indexed":false,"internalType":"address","name":"operator","type":"address"}],"name":"RoleRevoked","type":"event"},{"anonymous":false,"inputs":[{"indexed":true,"internalType":"address","name":"from","type":"address"},{"indexed":true,"internalType":"address","name":"to","type":"address"},{"indexed":true,"internalType":"uint256","name":"tokenId","type":"uint256"}],"name":"Transfer","type":"event"},{"anonymous":false,"inputs":[{"indexed":true,"internalType":"address","name":"recipient","type":"address"},{"indexed":true,"internalType":"uint256","name":"tokenId","type":"uint256"},{"indexed":false,"internalType":"address","name":"sender","type":"address"}],"name":"TransferAllowed","type":"event"},{"inputs":[],"name":"MINTER_ROLE","outputs":[{"internalType":"bytes32","name":"","type":"bytes32"}],"stateMutability":"view","type":"function"},{"inputs":[],"name":"OPERATOR_ROLE","outputs":[{"internalType":"bytes32","name":"","type":"bytes32"}],"stateMutability":"view","type":"function"},{"inputs":[{"internalType":"address","name":"recipient","type":"address"},{"internalType":"uint256","name":"tokenId","type":"uint256"}],"name":"allowTransfer","outputs":[],"stateMutability":"nonpayable","type":"function"},{"inputs":[{"internalType":"uint256","name":"","type":"uint256"}],"name":"allowedTransfers","outputs":[{"internalType":"address","name":"","type":"address"}],"stateMutability":"view","type":"function"},{"inputs":[{"internalType":"address","name":"to","type":"address"},{"internalType":"uint256","name":"tokenId","type":"uint256"}],"name":"approve","outputs":[],"stateMutability":"nonpayable","type":"function"},{"inputs":[{"internalType":"address","name":"owner","type":"address"}],"name":"balanceOf","outputs":[{"internalType":"uint256","name":"balance","type":"uint256"}],"stateMutability":"view","type":"function"},{"inputs":[{"internalType":"uint256","name":"tokenId","type":"uint256"}],"name":"burn","outputs":[],"stateMutability":"nonpayable","type":"function"},{"inputs":[{"internalType":"uint256","name":"tokenId","type":"uint256"}],"name":"getApproved","outputs":[{"internalType":"address","name":"approved","type":"address"}],"stateMutability":"view","type":"function"},{"inputs":[{"internalType":"bytes32","name":"role","type":"bytes32"},{"internalType":"address","name":"account","type":"address"}],"name":"grantRole","outputs":[],"stateMutability":"nonpayable","type":"function"},{"inputs":[{"internalType":"bytes32","name":"role","type":"bytes32"},{"internalType":"address","name":"account","type":"address"}],"name":"hasRole","outputs":[{"internalType":"bool","name":"hasRole_","type":"bool"}],"stateMutability":"view","type":"function"},{"inputs":[{"internalType":"address","name":"owner","type":"address"},{"internalType":"address","name":"operator","type":"address"}],"name":"isApprovedForAll","outputs":[{"internalType":"bool","name":"approvedForAll","type":"bool"}],"stateMutability":"view","type":"function"},{"inputs":[],"name":"metadataResolver","outputs":[{"internalType":"contract ITokenMetadataResolver","name":"tokenMetadataResolver","type":"address"}],"stateMutability":"view","type":"function"},{"inputs":[{"internalType":"address","name":"to","type":"address"},{"internalType":"uint256","name":"tokenId","type":"uint256"},{"components":[{"internalType":"uint16","name":"schemaVersion","type":"uint16"},{"internalType":"uint16","name":"achievementType","type":"uint16"},{"internalType":"uint64","name":"awardedDate","type":"uint64"},{"internalType":"uint64","name":"validFrom","type":"uint64"},{"internalType":"uint64","name":"validUtil","type":"uint64"},{"internalType":"string","name":"issuerDid","type":"string"},{"internalType":"string","name":"achievementId","type":"string"}],"internalType":"struct CertificateNFTv1MetaData.MetaData","name":"metadata","type":"tuple"}],"name":"mint","outputs":[],"stateMutability":"nonpayable","type":"function"},{"inputs":[],"name":"name","outputs":[{"internalType":"string","name":"tokenName","type":"string"}],"stateMutability":"view","type":"function"},{"inputs":[],"name":"owner","outputs":[{"internalType":"address","name":"","type":"address"}],"stateMutability":"view","type":"function"},{"inputs":[{"internalType":"uint256","name":"tokenId","type":"uint256"}],"name":"ownerOf","outputs":[{"internalType":"address","name":"tokenOwner","type":"address"}],"stateMutability":"view","type":"function"},{"inputs":[{"internalType":"uint256","name":"tokenId","type":"uint256"}],"name":"removeAllowedTransfer","outputs":[],"stateMutability":"nonpayable","type":"function"},{"inputs":[{"internalType":"bytes32","name":"role","type":"bytes32"}],"name":"renounceRole","outputs":[],"stateMutability":"nonpayable","type":"function"},{"inputs":[{"internalType":"bytes32","name":"role","type":"bytes32"},{"internalType":"address","name":"account","type":"address"}],"name":"revokeRole","outputs":[],"stateMutability":"nonpayable","type":"function"},{"inputs":[{"internalType":"address","name":"from","type":"address"},{"internalType":"address","name":"to","type":"address"},{"internalType":"uint256","name":"tokenId","type":"uint256"}],"name":"safeTransferFrom","outputs":[],"stateMutability":"nonpayable","type":"function"},{"inputs":[{"internalType":"address","name":"from","type":"address"},{"internalType":"address","name":"to","type":"address"},{"internalType":"uint256","name":"tokenId","type":"uint256"},{"internalType":"bytes","name":"data","type":"bytes"}],"name":"safeTransferFrom","outputs":[],"stateMutability":"nonpayable","type":"function"},{"inputs":[{"internalType":"address","name":"operator","type":"address"},{"internalType":"bool","name":"approved","type":"bool"}],"name":"setApprovalForAll","outputs":[],"stateMutability":"nonpayable","type":"function"},{"inputs":[{"internalType":"contract IRevocationRegistry","name":"revocationRegistry","type":"address"}],"name":"setRevocationRegistry","outputs":[],"stateMutability":"nonpayable","type":"function"},{"inputs":[{"internalType":"bytes4","name":"interfaceId","type":"bytes4"}],"name":"supportsInterface","outputs":[{"internalType":"bool","name":"","type":"bool"}],"stateMutability":"view","type":"function"},{"inputs":[],"name":"symbol","outputs":[{"internalType":"string","name":"tokenSymbol","type":"string"}],"stateMutability":"view","type":"function"},{"inputs":[{"internalType":"uint256","name":"tokenId","type":"uint256"}],"name":"tokenURI","outputs":[{"internalType":"string","name":"uri","type":"string"}],"stateMutability":"view","type":"function"},{"inputs":[{"internalType":"address","name":"from","type":"address"},{"internalType":"address","name":"to","type":"address"},{"internalType":"uint256","name":"tokenId","type":"uint256"}],"name":"transferFrom","outputs":[],"stateMutability":"nonpayable","type":"function"},{"inputs":[{"internalType":"address","name":"newOwner","type":"address"}],"name":"transferOwnership","outputs":[],"stateMutability":"nonpayable","type":"function"},{"inputs":[{"internalType":"uint256","name":"","type":"uint256"}],"name":"vcData","outputs":[{"internalType":"uint16","name":"schemaVersion","type":"uint16"},{"internalType":"uint16","name":"achievementType","type":"uint16"},{"internalType":"uint64","name":"awardedDate","type":"uint64"},{"internalType":"uint64","name":"validFrom","type":"uint64"},{"internalType":"uint64","name":"validUtil","type":"uint64"},{"internalType":"string","name":"issuerDid","type":"string"},{"internalType":"string","name":"achievementId","type":"string"}],"stateMutability":"view","type":"function"}],"devdoc":{"errors":{"ERC721ExistingToken(uint256)":[{"params":{"tokenId":"The identifier of the token that already exists."}}],"ERC721NonApprovedForTransfer(address,address,uint256)":[{"params":{"sender":"The message sender.","tokenId":"The identifier of the token."}}],"ERC721NonExistingToken(uint256)":[{"params":{"tokenId":"The identifier of the token that was checked."}}],"ERC721NonOwnedToken(address,uint256)":[{"params":{"account":"The account that was expected to own the token.","tokenId":"The identifier of the token."}}],"ERC721SafeTransferRejected(address,uint256)":[{"params":{"recipient":"The recipient contract.","tokenId":"The identifier of the token."}}],"NotContractOwner(address)":[{"params":{"account":"The account that was checked."}}],"NotRoleHolder(bytes32,address)":[{"params":{"account":"The account that was checked.","role":"The role the caller is missing."}}]},"events":{"AllowedTransferRemoved(address,uint256,address)":{"params":{"recipient":"The address to which transfer was approved for.","sender":"The account that approved the transfer.","tokenId":"The tokenId that was approved for transfer."}},"OwnershipTransferred(address,address)":{"params":{"newOwner":"the new contract owner.","previousOwner":"the previous contract owner."}},"RoleGranted(bytes32,address,address)":{"params":{"account":"The account that has been granted the role.","operator":"The account that granted the role.","role":"The role that has been granted."}},"RoleRevoked(bytes32,address,address)":{"params":{"account":"The account that has been revoked the role.","operator":"The account that revoked the role.","role":"The role that has been revoked."}},"Transfer(address,address,uint256)":{"params":{"from":"The previous token owner.","to":"The new token owner.","tokenId":"The transferred token identifier."}},"TransferAllowed(address,uint256,address)":{"params":{"recipient":"The address to which transfer was approved for.","sender":"The account that approved the transfer.","tokenId":"The tokenId that was approved for transfer."}}},"kind":"dev","methods":{"allowTransfer(address,uint256)":{"details":"emit a `TransferAllowed` event upon successful operation.Reverts with `NotRoleHolder` if msg.senger is neither allowed token issuer nor an operator for this contract.Reverts with `ERC721NonExistingToken` if `tokenId` is not a valid token.Reverts with `RedundantApproval` if `recipient` is the same owner of `tokenId`.","params":{"recipient":"The address to which transfer would be allowed.","tokenId":"The tokenId to be allowed for transfer."}},"approve(address,uint256)":{"details":"Note: There can only be one approved address per token at a given time.Note: A token approval gets reset when this token is transferred, including a self-transfer.Reverts if `tokenId` does not exist.Reverts if `to` is the token owner.Reverts if the sender is not the token owner and has not been approved by the token owner.Emits an {Approval} event.","params":{"to":"The address to approve, or the zero address to remove any existing approval.","tokenId":"The token identifier to give approval for."}},"balanceOf(address)":{"details":"Reverts if `owner` is the zero address.","params":{"owner":"The address to query the balance of."},"returns":{"balance":"The amount owned by the owner."}},"burn(uint256)":{"details":"Reverts with `InvalidBurn` if the tokenId has not been invalidated.Emit a `Transfer` event to address 0 when the token has been burnt.","params":{"tokenId":"The Token Id to be burnt. Burn tokenId only if tokenId has been legitimately revoked in Revocation Registry."}},"getApproved(uint256)":{"details":"Reverts if `tokenId` does not exist.","params":{"tokenId":"The token identifier to query the approval of."},"returns":{"approved":"The approved address for the token identifier, or the zero address if no approval is set."}},"grantRole(bytes32,address)":{"details":"Reverts with {NotContractOwner} if the sender is not the contract owner.Emits a {RoleGranted} event if the account did not previously have the role.","params":{"account":"The account to grant the role to.","role":"The role to grant."}},"hasRole(bytes32,address)":{"params":{"account":"The account.","role":"The role."},"returns":{"hasRole_":"Whether `account` has `role`."}},"isApprovedForAll(address,address)":{"params":{"operator":"The address which receives the approval for all tokens.","owner":"The address which gives the approval for all tokens."},"returns":{"approvedForAll":"Whether the operator is approved for all tokens by the owner."}},"metadataResolver()":{"returns":{"tokenMetadataResolver":"The token metadata resolver address."}},"mint(address,uint256,(uint16,uint16,uint64,uint64,uint64,string,string))":{"details":"Reverts with `NotRoleHolder` if the sender does not have the 'minter' role."},"name()":{"returns":{"tokenName":"The name of the token."}},"owner()":{"returns":{"_0":"The address of the contract owner."}},"ownerOf(uint256)":{"details":"Reverts if `tokenId` does not exist.","params":{"tokenId":"The token identifier to query the owner of."},"returns":{"tokenOwner":"The owner of the token identifier."}},"removeAllowedTransfer(uint256)":{"details":"emit a `AllowedTransferRemoved` event upon successful operation.Reverts with `NotRoleHolder` if msg.senger is neither allowed token issuer nor an operator for this contract.Reverts with `ERC721NonExistingToken` if `tokenId` is not a valid token.Reverts with `NonExistingApproval` if there is not an allowed transfer for `tokenId`.","params":{"tokenId":"The tokenId of which allowed transfer would be removed."}},"renounceRole(bytes32)":{"details":"Reverts if `sender` does not have `role`.Emits a {RoleRevoked} event.","params":{"role":"The role to renounce."}},"revokeRole(bytes32,address)":{"details":"Reverts with {NotContractOwner} if the sender is not the contract owner.Emits a {RoleRevoked} event if the account previously had the role.","params":{"account":"The account to revoke the role from.","role":"The role to revoke."}},"safeTransferFrom(address,address,uint256)":{"details":"Note: This function implements {ERC721-safeTransferFrom(address,address,uint256)}.Warning: Since a `to` contract can run arbitrary code, developers should be aware of potential re-entrancy attacks.remove the existing approval for `tokenId`.Reverts with {ERC721NonExistingToken} if `tokenId` does not exist.Reverts with {ERC721NonOwnedToken} if `msg.sender` is not the owner of `tokenId`.Reverts with {ERC721NonApprovedForTransfer} if `to` has not been approved for transfer for `tokenId`.Reverts with {ERC721SafeTransferRejected} if `to` is a contract and the call to  {IERC721Receiver-onERC721Received} fails, reverts or is rejected.Emits a {Transfer} event.","params":{"from":"The The current token owner.","to":"The recipient of the token transfer.","tokenId":"The identifier of the token to transfer."}},"safeTransferFrom(address,address,uint256,bytes)":{"details":"Note: This function implements {ERC721-safeTransferFrom(address,address,uint256)}.Warning: Since a `to` contract can run arbitrary code, developers should be aware of potential re-entrancy attacks.remove the existing approval for `tokenId`.Reverts with {ERC721NonExistingToken} if `tokenId` does not exist.Reverts with {ERC721NonOwnedToken} if `msg.sender` is not the owner of `tokenId`.Reverts with {ERC721NonApprovedForTransfer} if `to` has not been approved for transfer for `tokenId`.Reverts with {ERC721SafeTransferRejected} if `to` is a contract and the call to  {IERC721Receiver-onERC721Received} fails, reverts or is rejected.Emits a {Transfer} event.","params":{"data":"Optional data to send along to a receiver contract.","from":"The The current token owner.","to":"The recipient of the token transfer.","tokenId":"The identifier of the token to transfer."}},"setApprovalForAll(address,bool)":{"details":"Reverts if the sender is the same as `operator`.Emits an {ApprovalForAll} event.","params":{"approved":"True to set an approval for all tokens, false to unset it.","operator":"The address to approve for all tokens."}},"setRevocationRegistry(address)":{"params":{"revocationRegistry":"The address of the Revocation Registry contract."}},"supportsInterface(bytes4)":{"details":"Note: This function call must use less than 30 000 gas.","params":{"interfaceId":"the interface identifier to test."},"returns":{"_0":"True if the interface is supported, false if `interfaceId` is `0xffffffff` or if the interface is not supported."}},"symbol()":{"returns":{"tokenSymbol":"The symbol of the token."}},"tokenURI(uint256)":{"details":"Reverts if `tokenId` does not exist.","params":{"tokenId":"The token identifier."},"returns":{"uri":"The metadata URI for the token identifier."}},"transferFrom(address,address,uint256)":{"details":"Note: This function implements {ERC721-transferFrom(address,address,uint256)}.remove the existing approval for `tokenId`.Reverts with {ERC721NonExistingToken} if `tokenId` does not exist.Reverts with {ERC721NonOwnedToken} if `msg.sender` is not the owner of `tokenId`.Reverts with {ERC721NonApprovedForTransfer} if `to` has not been approved for transfer for `tokenId`.Emits a {Transfer} event.","params":{"from":"The The current token owner.","to":"The recipient of the token transfer.","tokenId":"The identifier of the token to transfer."}},"transferOwnership(address)":{"details":"Reverts if the sender is not the contract owner.Emits an {OwnershipTransferred} event if `newOwner` is different from the current contract owner.","params":{"newOwner":"The address of the new contract owner. Using the zero address means renouncing ownership."}}},"version":1},"evm":{"bytecode":{"linkReferences":{},"object":"60a06040523480156200001157600080fd5b5060405162002df338038062002df3833981016040819052620000349162000379565b338585856200005283838362000049620000b6565b929190620000ec565b6200005c62000133565b5050506200007b81620000746200015560201b60201c565b9062000185565b5062000086620001f8565b6001600160a01b03908116608052600080546001600160a01b0319169290911691909117905550620005a4915050565b600080620000e660017f7ea68fd2dcf1c056b94db6a0a537aa80d26fa9ab1eacd85da1ba0b61b7e7a8a562000425565b92915050565b83620000f98482620004d8565b50600184016200010a8382620004d8565b5060029390930180546001600160a01b0319166001600160a01b03909416939093179092555050565b62000153635b5e139f60e01b60016200014b6200020b565b91906200023b565b565b600080620000e660017fc9ed16f33ab3a66c84bfd83099ccb2a8845871e2e1c1928f63797152f0fd54cd62000425565b6001600160a01b03811615620001dc5781546001600160a01b0319166001600160a01b03821690811783556040516000907f8be0079c531659141344cd1fd0a4f28419497f9722a3daafe3b4186f6b6457e0908290a35b620001f46307f5828d60e41b60016200014b6200020b565b5050565b62000153638e773e1360e01b60016200014b5b600080620000e660017fca9d3e17f264b0f3984e2634e94adb37fa3e6a8103f06aeae6fa59e21c769f5e62000425565b600160e01b6001600160e01b03198316016200026a576040516372c683bb60e01b815260040160405180910390fd5b6001600160e01b03199190911660009081526020929092526040909120805460ff1916911515919091179055565b634e487b7160e01b600052604160045260246000fd5b600082601f830112620002c057600080fd5b81516001600160401b0380821115620002dd57620002dd62000298565b604051601f8301601f19908116603f0116810190828211818310171562000308576200030862000298565b81604052838152602092508660208588010111156200032657600080fd5b600091505b838210156200034a57858201830151818301840152908201906200032b565b6000602085830101528094505050505092915050565b6001600160a01b03811681146200037657600080fd5b50565b600080600080600060a086880312156200039257600080fd5b85516001600160401b0380821115620003aa57600080fd5b620003b889838a01620002ae565b96506020880151915080821115620003cf57600080fd5b50620003de88828901620002ae565b9450506040860151620003f18162000360565b6060870151909350620004048162000360565b6080870151909250620004178162000360565b809150509295509295909350565b81810381811115620000e657634e487b7160e01b600052601160045260246000fd5b600181811c908216806200045c57607f821691505b6020821081036200047d57634e487b7160e01b600052602260045260246000fd5b50919050565b601f821115620004d3576000816000526020600020601f850160051c81016020861015620004ae5750805b601f850160051c820191505b81811015620004cf57828155600101620004ba565b5050505b505050565b81516001600160401b03811115620004f457620004f462000298565b6200050c8162000505845462000447565b8462000483565b602080601f8311600181146200054457600084156200052b5750858301515b600019600386901b1c1916600185901b178555620004cf565b600085815260208120601f198616915b82811015620005755788860151825594840194600190910190840162000554565b5085821015620005945787850151600019600388901b60f8161c191681555b5050505050600190811b01905550565b60805161282c620005c76000396000818161059b0152610a7e015261282c6000f3fe608060405234801561001057600080fd5b50600436106101cf5760003560e01c806370a0823111610104578063a22cb465116100a2578063d547741f11610071578063d547741f14610424578063e985e9c514610437578063f2fde38b14610445578063f5b541a61461045857600080fd5b8063a22cb465146103c4578063b88d4fde146103d7578063c87b56dd146103ea578063d5391393146103fd57600080fd5b806391d14854116100de57806391d148541461038e57806395d89b41146103a157806395f94bc4146103a9578063a0c76f62146103bc57600080fd5b806370a08231146103525780638bb9c5bf146103735780638da5cb5b1461038657600080fd5b80633886d5121161017157806342966c681161014b57806342966c68146102f35780634bae2be81461030657806354c7be061461032c5780636352211e1461033f57600080fd5b80633886d5121461029757806342532616146102cd57806342842e0e146102e057600080fd5b8063095ea7b3116101ad578063095ea7b31461024957806319c02b271461025e57806323b872dd146102715780632f2ff15d1461028457600080fd5b806301ffc9a7146101d457806306fdde03146101fc578063081812fc14610211575b600080fd5b6101e76101e2366004611e15565b61047f565b60405190151581526020015b60405180910390f35b610204610499565b6040516101f39190611ea0565b61022461021f366004611eb3565b6104a8565b60405173ffffffffffffffffffffffffffffffffffffffff90911681526020016101f3565b61025c610257366004611eee565b6104dc565b005b61025c61026c366004611eee565b61050e565b61025c61027f366004611f1a565b610777565b61025c610292366004611f5b565b6109c3565b6102246102a5366004611eb3565b60026020526000908152604090205473ffffffffffffffffffffffffffffffffffffffff1681565b61025c6102db366004611eb3565b6109f1565b61025c6102ee366004611f1a565b610c20565b61025c610301366004611eb3565b610d71565b610319610314366004611eb3565b610f6d565b6040516101f39796959493929190611f8b565b61025c61033a366004611ff2565b6110f4565b61022461034d366004611eb3565b611156565b610365610360366004612052565b611164565b6040519081526020016101f3565b61025c610381366004611eb3565b611178565b61022461118f565b6101e761039c366004611f5b565b6111b6565b610204611201565b61025c6103b7366004612052565b61120b565b61022461125e565b61025c6103d236600461207d565b611288565b61025c6103e53660046120ab565b6112ba565b6102046103f8366004611eb3565b6113f9565b6103657f6d696e746572000000000000000000000000000000000000000000000000000081565b61025c610432366004611f5b565b61141c565b6101e761021f36600461214a565b61025c610453366004612052565b61143f565b6103657f6f70657261746f7200000000000000000000000000000000000000000000000081565b60006104938261048d611453565b90611481565b92915050565b60606104a361155b565b905090565b60006040517f5211920d00000000000000000000000000000000000000000000000000000000815260040160405180910390fd5b6040517f8cd22d1900000000000000000000000000000000000000000000000000000000815260040160405180910390fd5b60008181526001602081815260408084209051610530939190910191016121cb565b604080518083037fffffffffffffffffffffffffffffffffffffffffffffffffffffffffffffffe00181529082905280516020909101207ff9236a390000000000000000000000000000000000000000000000000000000082526004820181905233602483015291507f000000000000000000000000000000000000000000000000000000000000000073ffffffffffffffffffffffffffffffffffffffff169063f9236a3990604401602060405180830381865afa1580156105f7573d6000803e3d6000fd5b505050506040513d601f19601f8201168201806040525081019061061b919061225f565b610653576106537f6f70657261746f720000000000000000000000000000000000000000000000003361064c61156d565b919061159b565b600061066783610661611621565b9061164f565b90508373ffffffffffffffffffffffffffffffffffffffff168173ffffffffffffffffffffffffffffffffffffffff16036106eb576040517f4c349c0000000000000000000000000000000000000000000000000000000000815273ffffffffffffffffffffffffffffffffffffffff851660048201526024015b60405180910390fd5b60008381526002602090815260409182902080547fffffffffffffffffffffffff00000000000000000000000000000000000000001673ffffffffffffffffffffffffffffffffffffffff881690811790915591513381528592917f1617c30910ed9def77a5583fb42361192fa9e1a3ae60209c6281a276f88f9624910160405180910390a350505050565b600061078582610661611621565b905073ffffffffffffffffffffffffffffffffffffffff811633146107df576040517f14dbb536000000000000000000000000000000000000000000000000000000008152336004820152602481018390526044016106e2565b8073ffffffffffffffffffffffffffffffffffffffff168473ffffffffffffffffffffffffffffffffffffffff16141580610841575060008281526002602052604090205473ffffffffffffffffffffffffffffffffffffffff848116911614155b1561089f576040517fa4a3018b00000000000000000000000000000000000000000000000000000000815273ffffffffffffffffffffffffffffffffffffffff808616600483015282166024820152604481018390526064016106e2565b8273ffffffffffffffffffffffffffffffffffffffff166108be611621565b600084815260209190915260409020556108d6611621565b73ffffffffffffffffffffffffffffffffffffffff821660009081526001919091016020526040902080547fffffffffffffffffffffffffffffffffffffffffffffffffffffffffffffffff01905561092d611621565b73ffffffffffffffffffffffffffffffffffffffff808516600081815260019384016020908152604080832080549096019095558682526002905283812080547fffffffffffffffffffffffff00000000000000000000000000000000000000001690559251859391928516917fddf252ad1be2c89b69c2b068fc378daa952ba7f163c4a11628f55a4df523b3ef91a450505050565b336109d6816109d06116b8565b906116e6565b6109ec8383836109e461156d565b929190611751565b505050565b60008181526001602081815260408084209051610a13939190910191016121cb565b604080518083037fffffffffffffffffffffffffffffffffffffffffffffffffffffffffffffffe00181529082905280516020909101207ff9236a390000000000000000000000000000000000000000000000000000000082526004820181905233602483015291507f000000000000000000000000000000000000000000000000000000000000000073ffffffffffffffffffffffffffffffffffffffff169063f9236a3990604401602060405180830381865afa158015610ada573d6000803e3d6000fd5b505050506040513d601f19601f82011682018060405250810190610afe919061225f565b610b2f57610b2f7f6f70657261746f720000000000000000000000000000000000000000000000003361064c61156d565b60008281526002602052604090205473ffffffffffffffffffffffffffffffffffffffff16610b8d576040517fd43553b5000000000000000000000000000000000000000000000000000000008152600481018390526024016106e2565b600082815260026020908152604091829020549151338152849273ffffffffffffffffffffffffffffffffffffffff16917f648e1fca65e8b59490cc7c26438ac6ed40ea5c54de21e85e2ef44a52b8f2ebab910160405180910390a350600090815260026020526040902080547fffffffffffffffffffffffff0000000000000000000000000000000000000000169055565b610c2b838383610777565b73ffffffffffffffffffffffffffffffffffffffff82163b156109ec576040517f150b7a020000000000000000000000000000000000000000000000000000000080825233600483015273ffffffffffffffffffffffffffffffffffffffff858116602484015260448301849052608060648401526000608484015290919084169063150b7a029060a4016020604051808303816000875af1158015610cd5573d6000803e3d6000fd5b505050506040513d601f19601f82011682018060405250810190610cf9919061227c565b7fffffffff0000000000000000000000000000000000000000000000000000000016146109ec576040517fc215a7a100000000000000000000000000000000000000000000000000000000815273ffffffffffffffffffffffffffffffffffffffff83166004820152602481018290526044016106e2565b60008181526001602081815260408084209051610d93939190910191016121cb565b604080518083037fffffffffffffffffffffffffffffffffffffffffffffffffffffffffffffffe00181529082905280516020909101206000547fa3a2656a000000000000000000000000000000000000000000000000000000008352600483018290526024830185905290925073ffffffffffffffffffffffffffffffffffffffff169063a3a2656a90604401602060405180830381865afa158015610e3e573d6000803e3d6000fd5b505050506040513d601f19601f82011682018060405250810190610e62919061225f565b15610f37576000610e7583610661611621565b90507fdead000000000000000000000000000000000000000000000000000000000000610ea0611621565b60008581526020919091526040902055610eb8611621565b73ffffffffffffffffffffffffffffffffffffffff82166000818152600192909201602052604080832080547fffffffffffffffffffffffffffffffffffffffffffffffffffffffffffffffff01905551859291907fddf252ad1be2c89b69c2b068fc378daa952ba7f163c4a11628f55a4df523b3ef908390a4505050565b6040517feeddf6ab00000000000000000000000000000000000000000000000000000000815260040160405180910390fd5b5050565b60016020819052600091825260409091208054918101805461ffff808516946201000081049091169367ffffffffffffffff64010000000083048116946c0100000000000000000000000084048216947401000000000000000000000000000000000000000090940490911692610fe390612178565b80601f016020809104026020016040519081016040528092919081815260200182805461100f90612178565b801561105c5780601f106110315761010080835404028352916020019161105c565b820191906000526020600020905b81548152906001019060200180831161103f57829003601f168201915b50505050509080600201805461107190612178565b80601f016020809104026020016040519081016040528092919081815260200182805461109d90612178565b80156110ea5780601f106110bf576101008083540402835291602001916110ea565b820191906000526020600020905b8154815290600101906020018083116110cd57829003601f168201915b5050505050905087565b6111217f6d696e74657200000000000000000000000000000000000000000000000000003361064c61156d565b611135838361112e611621565b9190611828565b6000828152600160205260409020819061114f82826124cc565b5050505050565b600061049382610661611621565b600061049382611172611621565b90611942565b61118c338261118561156d565b91906119be565b50565b60006104a361119c6116b8565b5473ffffffffffffffffffffffffffffffffffffffff1690565b60006111fa83836111c561156d565b60009283526020908152604080842073ffffffffffffffffffffffffffffffffffffffff909316845291905290205460ff1690565b9392505050565b60606104a3611a62565b611217336109d06116b8565b600080547fffffffffffffffffffffffff00000000000000000000000000000000000000001673ffffffffffffffffffffffffffffffffffffffff92909216919091179055565b60006104a361126b611a74565b6002015473ffffffffffffffffffffffffffffffffffffffff1690565b6040517f5211920d00000000000000000000000000000000000000000000000000000000815260040160405180910390fd5b6112c5858585610777565b73ffffffffffffffffffffffffffffffffffffffff84163b1561114f576040517f150b7a02000000000000000000000000000000000000000000000000000000008082529073ffffffffffffffffffffffffffffffffffffffff86169063150b7a029061133e9033908a90899089908990600401612672565b6020604051808303816000875af115801561135d573d6000803e3d6000fd5b505050506040513d601f19601f82011682018060405250810190611381919061227c565b7fffffffff00000000000000000000000000000000000000000000000000000000161461114f576040517fc215a7a100000000000000000000000000000000000000000000000000000000815273ffffffffffffffffffffffffffffffffffffffff85166004820152602481018490526044016106e2565b606061140782610661611621565b506104933083611415611a74565b9190611aa2565b33611429816109d06116b8565b6109ec83838361143761156d565b929190611b62565b61118c338261144c6116b8565b9190611c2c565b60008061049360017fca9d3e17f264b0f3984e2634e94adb37fa3e6a8103f06aeae6fa59e21c769f5e6126f1565b60007c01000000000000000000000000000000000000000000000000000000007fffffffff000000000000000000000000000000000000000000000000000000008316016114d157506000610493565b7ffe003659000000000000000000000000000000000000000000000000000000007fffffffff0000000000000000000000000000000000000000000000000000000083160161152257506001610493565b507fffffffff00000000000000000000000000000000000000000000000000000000166000908152602091909152604090205460ff1690565b60606104a3611568611a74565b611d40565b60008061049360017fc8827d3282af6f37b64c3e9e6f3ac9df286ab0bb0fccd6f8661bf19adb368b236126f1565b60008281526020848152604080832073ffffffffffffffffffffffffffffffffffffffff8516845290915290205460ff166109ec576040517f7aa728820000000000000000000000000000000000000000000000000000000081526004810183905273ffffffffffffffffffffffffffffffffffffffff821660248201526044016106e2565b60008061049360017fddf3ee18ae6d688373c219468f8be446e7ae82215f4779d821c7ea5e8c13c0c16126f1565b60008181526020839052604081205473ffffffffffffffffffffffffffffffffffffffff81166116ae576040517fdd560475000000000000000000000000000000000000000000000000000000008152600481018490526024016106e2565b805b949350505050565b60008061049360017fc9ed16f33ab3a66c84bfd83099ccb2a8845871e2e1c1928f63797152f0fd54cd6126f1565b815473ffffffffffffffffffffffffffffffffffffffff828116911614610f69576040517f2ef4875e00000000000000000000000000000000000000000000000000000000815273ffffffffffffffffffffffffffffffffffffffff821660048201526024016106e2565b60008381526020858152604080832073ffffffffffffffffffffffffffffffffffffffff8616845290915290205460ff166118225760008381526020858152604080832073ffffffffffffffffffffffffffffffffffffffff8681168086529184529382902080547fffffffffffffffffffffffffffffffffffffffffffffffffffffffffffffff00166001179055815187815292830152918316918101919091527f2f8788117e7eff1d82e926ec794901d17c78024a50270940304540a733656f0d906060015b60405180910390a15b50505050565b73ffffffffffffffffffffffffffffffffffffffff8216611875576040517f7851b9cd00000000000000000000000000000000000000000000000000000000815260040160405180910390fd5b60008181526020849052604090205473ffffffffffffffffffffffffffffffffffffffff16156118d4576040517f753eceac000000000000000000000000000000000000000000000000000000008152600481018290526024016106e2565b60008181526020848152604080832073ffffffffffffffffffffffffffffffffffffffff86169081905580845260018088019093528184208054909301909255518392907fddf252ad1be2c89b69c2b068fc378daa952ba7f163c4a11628f55a4df523b3ef908290a4505050565b600073ffffffffffffffffffffffffffffffffffffffff8216611991576040517faefbce4e00000000000000000000000000000000000000000000000000000000815260040160405180910390fd5b5073ffffffffffffffffffffffffffffffffffffffff166000908152600191909101602052604090205490565b6119c983828461159b565b60008181526020848152604080832073ffffffffffffffffffffffffffffffffffffffff86168085529083529281902080547fffffffffffffffffffffffffffffffffffffffffffffffffffffffffffffff0016905580518481529182018390528101919091527ff6391f5c32d9c69d2a47ea670b442974b53935d1edc7fd64eb21e047a839171b9060600160405180910390a1505050565b60606104a3611a6f611a74565b611dd6565b60008061049360017f7ea68fd2dcf1c056b94db6a0a537aa80d26fa9ab1eacd85da1ba0b61b7e7a8a56126f1565b60028301546040517ff724dad700000000000000000000000000000000000000000000000000000000815273ffffffffffffffffffffffffffffffffffffffff848116600483015260248201849052606092169063f724dad790604401600060405180830381865afa158015611b1c573d6000803e3d6000fd5b505050506040513d6000823e601f3d9081017fffffffffffffffffffffffffffffffffffffffffffffffffffffffffffffffe01682016040526116b0919081019061272b565b60008381526020858152604080832073ffffffffffffffffffffffffffffffffffffffff8616845290915290205460ff16156118225760008381526020858152604080832073ffffffffffffffffffffffffffffffffffffffff8681168086529184529382902080547fffffffffffffffffffffffffffffffffffffffffffffffffffffffffffffff00169055815187815292830152918316918101919091527ff6391f5c32d9c69d2a47ea670b442974b53935d1edc7fd64eb21e047a839171b90606001611819565b825473ffffffffffffffffffffffffffffffffffffffff9081169083168114611c99576040517f2ef4875e00000000000000000000000000000000000000000000000000000000815273ffffffffffffffffffffffffffffffffffffffff841660048201526024016106e2565b8173ffffffffffffffffffffffffffffffffffffffff168173ffffffffffffffffffffffffffffffffffffffff16146118225783547fffffffffffffffffffffffff00000000000000000000000000000000000000001673ffffffffffffffffffffffffffffffffffffffff8381169182178655604051908316907f8be0079c531659141344cd1fd0a4f28419497f9722a3daafe3b4186f6b6457e090600090a350505050565b6060816000018054611d5190612178565b80601f0160208091040260200160405190810160405280929190818152602001828054611d7d90612178565b8015611dca5780601f10611d9f57610100808354040283529160200191611dca565b820191906000526020600020905b815481529060010190602001808311611dad57829003601f168201915b50505050509050919050565b6060816001018054611d5190612178565b7fffffffff000000000000000000000000000000000000000000000000000000008116811461118c57600080fd5b600060208284031215611e2757600080fd5b81356111fa81611de7565b60005b83811015611e4d578181015183820152602001611e35565b50506000910152565b60008151808452611e6e816020860160208601611e32565b601f017fffffffffffffffffffffffffffffffffffffffffffffffffffffffffffffffe0169290920160200192915050565b6020815260006111fa6020830184611e56565b600060208284031215611ec557600080fd5b5035919050565b73ffffffffffffffffffffffffffffffffffffffff8116811461118c57600080fd5b60008060408385031215611f0157600080fd5b8235611f0c81611ecc565b946020939093013593505050565b600080600060608486031215611f2f57600080fd5b8335611f3a81611ecc565b92506020840135611f4a81611ecc565b929592945050506040919091013590565b60008060408385031215611f6e57600080fd5b823591506020830135611f8081611ecc565b809150509250929050565b61ffff88811682528716602082015267ffffffffffffffff868116604083015285811660608301528416608082015260e060a08201819052600090611fd290830185611e56565b82810360c0840152611fe48185611e56565b9a9950505050505050505050565b60008060006060848603121561200757600080fd5b833561201281611ecc565b925060208401359150604084013567ffffffffffffffff81111561203557600080fd5b840160e0818703121561204757600080fd5b809150509250925092565b60006020828403121561206457600080fd5b81356111fa81611ecc565b801515811461118c57600080fd5b6000806040838503121561209057600080fd5b823561209b81611ecc565b91506020830135611f808161206f565b6000806000806000608086880312156120c357600080fd5b85356120ce81611ecc565b945060208601356120de81611ecc565b935060408601359250606086013567ffffffffffffffff8082111561210257600080fd5b818801915088601f83011261211657600080fd5b81358181111561212557600080fd5b89602082850101111561213757600080fd5b9699959850939650602001949392505050565b6000806040838503121561215d57600080fd5b823561216881611ecc565b91506020830135611f8081611ecc565b600181811c9082168061218c57607f821691505b6020821081036121c5577f4e487b7100000000000000000000000000000000000000000000000000000000600052602260045260246000fd5b50919050565b60008083546121d981612178565b600182811680156121f1576001811461222457612253565b7fffffffffffffffffffffffffffffffffffffffffffffffffffffffffffffff0084168752821515830287019450612253565b8760005260208060002060005b8581101561224a5781548a820152908401908201612231565b50505082870194505b50929695505050505050565b60006020828403121561227157600080fd5b81516111fa8161206f565b60006020828403121561228e57600080fd5b81516111fa81611de7565b6000813561ffff8116811461049357600080fd5b6000813567ffffffffffffffff8116811461049357600080fd5b60008083357fffffffffffffffffffffffffffffffffffffffffffffffffffffffffffffffe18436030181126122fc57600080fd5b83018035915067ffffffffffffffff82111561231757600080fd5b60200191503681900382131561232c57600080fd5b9250929050565b7f4e487b7100000000000000000000000000000000000000000000000000000000600052604160045260246000fd5b601f8211156109ec576000816000526020600020601f850160051c8101602086101561238b5750805b601f850160051c820191505b818110156123aa57828155600101612397565b505050505050565b67ffffffffffffffff8311156123ca576123ca612333565b6123de836123d88354612178565b83612362565b6000601f84116001811461243057600085156123fa5750838201355b7fffffffffffffffffffffffffffffffffffffffffffffffffffffffffffffffff600387901b1c1916600186901b17835561114f565b6000838152602090207fffffffffffffffffffffffffffffffffffffffffffffffffffffffffffffffe0861690835b8281101561247f578685013582556020948501946001909201910161245f565b50868210156124ba577fffffffffffffffffffffffffffffffffffffffffffffffffffffffffffffffff60f88860031b161c19848701351681555b505060018560011b0183555050505050565b61ffff6124d883612299565b168154817fffffffffffffffffffffffffffffffffffffffffffffffffffffffffffff0000821617835563ffff000061251360208601612299565b60101b1680837fffffffffffffffffffffffffffffffffffffffffffffffffffffffff000000008416171784556bffffffffffffffff00000000612559604087016122ad565b60201b16837fffffffffffffffffffffffffffffffffffffffff00000000000000000000000084161782171784555050506125de612599606084016122ad565b82547fffffffffffffffffffffffff0000000000000000ffffffffffffffffffffffff1660609190911b73ffffffffffffffff00000000000000000000000016178255565b61263a6125ed608084016122ad565b82547fffffffff0000000000000000ffffffffffffffffffffffffffffffffffffffff1660a09190911b7bffffffffffffffff000000000000000000000000000000000000000016178255565b61264760a08301836122c7565b6126558183600186016123b2565b505061266460c08301836122c7565b6118228183600286016123b2565b600073ffffffffffffffffffffffffffffffffffffffff808816835280871660208401525084604083015260806060830152826080830152828460a0840137600060a0848401015260a07fffffffffffffffffffffffffffffffffffffffffffffffffffffffffffffffe0601f85011683010190509695505050505050565b81810381811115610493577f4e487b7100000000000000000000000000000000000000000000000000000000600052601160045260246000fd5b60006020828403121561273d57600080fd5b815167ffffffffffffffff8082111561275557600080fd5b818401915084601f83011261276957600080fd5b81518181111561277b5761277b612333565b604051601f82017fffffffffffffffffffffffffffffffffffffffffffffffffffffffffffffffe0908116603f011681019083821181831017156127c1576127c1612333565b816040528281528760208487010111156127da57600080fd5b6127eb836020830160208801611e32565b97965050505050505056fea264697066735822122087a9f5cbaf4f8aae8726258c952e68064d610dd28c157f7c2acdd4767ecc5b8364736f6c63430008160033","opcodes":"PUSH1 0xA0 PUSH1 0x40 MSTORE CALLVALUE DUP1 ISZERO PUSH3 0x11 JUMPI PUSH1 0x0 DUP1 REVERT JUMPDEST POP PUSH1 0x40 MLOAD PUSH3 0x2DF3 CODESIZE SUB DUP1 PUSH3 0x2DF3 DUP4 CODECOPY DUP2 ADD PUSH1 0x40 DUP2 SWAP1 MSTORE PUSH3 0x34 SWAP2 PUSH3 0x379 JUMP JUMPDEST CALLER DUP6 DUP6 DUP6 PUSH3 0x52 DUP4 DUP4 DUP4 PUSH3 0x49 PUSH3 0xB6 JUMP JUMPDEST SWAP3 SWAP2 SWAP1 PUSH3 0xEC JUMP JUMPDEST PUSH3 0x5C PUSH3 0x133 JUMP JUMPDEST POP POP POP PUSH3 0x7B DUP2 PUSH3 0x74 PUSH3 0x155 PUSH1 0x20 SHL PUSH1 0x20 SHR JUMP JUMPDEST SWAP1 PUSH3 0x185 JUMP JUMPDEST POP PUSH3 0x86 PUSH3 0x1F8 JUMP JUMPDEST PUSH1 0x1 PUSH1 0x1 PUSH1 0xA0 SHL SUB SWAP1 DUP2 AND PUSH1 0x80 MSTORE PUSH1 0x0 DUP1 SLOAD PUSH1 0x1 PUSH1 0x1 PUSH1 0xA0 SHL SUB NOT AND SWAP3 SWAP1 SWAP2 AND SWAP2 SWAP1 SWAP2 OR SWAP1 SSTORE POP PUSH3 0x5A4 SWAP2 POP POP JUMP JUMPDEST PUSH1 0x0 DUP1 PUSH3 0xE6 PUSH1 0x1 PUSH32 0x7EA68FD2DCF1C056B94DB6A0A537AA80D26FA9AB1EACD85DA1BA0B61B7E7A8A5 PUSH3 0x425 JUMP JUMPDEST SWAP3 SWAP2 POP POP JUMP JUMPDEST DUP4 PUSH3 0xF9 DUP5 DUP3 PUSH3 0x4D8 JUMP JUMPDEST POP PUSH1 0x1 DUP5 ADD PUSH3 0x10A DUP4 DUP3 PUSH3 0x4D8 JUMP JUMPDEST POP PUSH1 0x2 SWAP4 SWAP1 SWAP4 ADD DUP1 SLOAD PUSH1 0x1 PUSH1 0x1 PUSH1 0xA0 SHL SUB NOT AND PUSH1 0x1 PUSH1 0x1 PUSH1 0xA0 SHL SUB SWAP1 SWAP5 AND SWAP4 SWAP1 SWAP4 OR SWAP1 SWAP3 SSTORE POP POP JUMP JUMPDEST PUSH3 0x153 PUSH4 0x5B5E139F PUSH1 0xE0 SHL PUSH1 0x1 PUSH3 0x14B PUSH3 0x20B JUMP JUMPDEST SWAP2 SWAP1 PUSH3 0x23B JUMP JUMPDEST JUMP JUMPDEST PUSH1 0x0 DUP1 PUSH3 0xE6 PUSH1 0x1 PUSH32 0xC9ED16F33AB3A66C84BFD83099CCB2A8845871E2E1C1928F63797152F0FD54CD PUSH3 0x425 JUMP JUMPDEST PUSH1 0x1 PUSH1 0x1 PUSH1 0xA0 SHL SUB DUP2 AND ISZERO PUSH3 0x1DC JUMPI DUP2 SLOAD PUSH1 0x1 PUSH1 0x1 PUSH1 0xA0 SHL SUB NOT AND PUSH1 0x1 PUSH1 0x1 PUSH1 0xA0 SHL SUB DUP3 AND SWAP1 DUP2 OR DUP4 SSTORE PUSH1 0x40 MLOAD PUSH1 0x0 SWAP1 PUSH32 0x8BE0079C531659141344CD1FD0A4F28419497F9722A3DAAFE3B4186F6B6457E0 SWAP1 DUP3 SWAP1 LOG3 JUMPDEST PUSH3 0x1F4 PUSH4 0x7F5828D PUSH1 0xE4 SHL PUSH1 0x1 PUSH3 0x14B PUSH3 0x20B JUMP JUMPDEST POP POP JUMP JUMPDEST PUSH3 0x153 PUSH4 0x8E773E13 PUSH1 0xE0 SHL PUSH1 0x1 PUSH3 0x14B JUMPDEST PUSH1 0x0 DUP1 PUSH3 0xE6 PUSH1 0x1 PUSH32 0xCA9D3E17F264B0F3984E2634E94ADB37FA3E6A8103F06AEAE6FA59E21C769F5E PUSH3 0x425 JUMP JUMPDEST PUSH1 0x1 PUSH1 0xE0 SHL PUSH1 0x1 PUSH1 0x1 PUSH1 0xE0 SHL SUB NOT DUP4 AND ADD PUSH3 0x26A JUMPI PUSH1 0x40 MLOAD PUSH4 0x72C683BB PUSH1 0xE0 SHL DUP2 MSTORE PUSH1 0x4 ADD PUSH1 0x40 MLOAD DUP1 SWAP2 SUB SWAP1 REVERT JUMPDEST PUSH1 0x1 PUSH1 0x1 PUSH1 0xE0 SHL SUB NOT SWAP2 SWAP1 SWAP2 AND PUSH1 0x0 SWAP1 DUP2 MSTORE PUSH1 0x20 SWAP3 SWAP1 SWAP3 MSTORE PUSH1 0x40 SWAP1 SWAP2 KECCAK256 DUP1 SLOAD PUSH1 0xFF NOT AND SWAP2 ISZERO ISZERO SWAP2 SWAP1 SWAP2 OR SWAP1 SSTORE JUMP JUMPDEST PUSH4 0x4E487B71 PUSH1 0xE0 SHL PUSH1 0x0 MSTORE PUSH1 0x41 PUSH1 0x4 MSTORE PUSH1 0x24 PUSH1 0x0 REVERT JUMPDEST PUSH1 0x0 DUP3 PUSH1 0x1F DUP4 ADD SLT PUSH3 0x2C0 JUMPI PUSH1 0x0 DUP1 REVERT JUMPDEST DUP2 MLOAD PUSH1 0x1 PUSH1 0x1 PUSH1 0x40 SHL SUB DUP1 DUP3 GT ISZERO PUSH3 0x2DD JUMPI PUSH3 0x2DD PUSH3 0x298 JUMP JUMPDEST PUSH1 0x40 MLOAD PUSH1 0x1F DUP4 ADD PUSH1 0x1F NOT SWAP1 DUP2 AND PUSH1 0x3F ADD AND DUP2 ADD SWAP1 DUP3 DUP3 GT DUP2 DUP4 LT OR ISZERO PUSH3 0x308 JUMPI PUSH3 0x308 PUSH3 0x298 JUMP JUMPDEST DUP2 PUSH1 0x40 MSTORE DUP4 DUP2 MSTORE PUSH1 0x20 SWAP3 POP DUP7 PUSH1 0x20 DUP6 DUP9 ADD ADD GT ISZERO PUSH3 0x326 JUMPI PUSH1 0x0 DUP1 REVERT JUMPDEST PUSH1 0x0 SWAP2 POP JUMPDEST DUP4 DUP3 LT ISZERO PUSH3 0x34A JUMPI DUP6 DUP3 ADD DUP4 ADD MLOAD DUP2 DUP4 ADD DUP5 ADD MSTORE SWAP1 DUP3 ADD SWAP1 PUSH3 0x32B JUMP JUMPDEST PUSH1 0x0 PUSH1 0x20 DUP6 DUP4 ADD ADD MSTORE DUP1 SWAP5 POP POP POP POP POP SWAP3 SWAP2 POP POP JUMP JUMPDEST PUSH1 0x1 PUSH1 0x1 PUSH1 0xA0 SHL SUB DUP2 AND DUP2 EQ PUSH3 0x376 JUMPI PUSH1 0x0 DUP1 REVERT JUMPDEST POP JUMP JUMPDEST PUSH1 0x0 DUP1 PUSH1 0x0 DUP1 PUSH1 0x0 PUSH1 0xA0 DUP7 DUP9 SUB SLT ISZERO PUSH3 0x392 JUMPI PUSH1 0x0 DUP1 REVERT JUMPDEST DUP6 MLOAD PUSH1 0x1 PUSH1 0x1 PUSH1 0x40 SHL SUB DUP1 DUP3 GT ISZERO PUSH3 0x3AA JUMPI PUSH1 0x0 DUP1 REVERT JUMPDEST PUSH3 0x3B8 DUP10 DUP4 DUP11 ADD PUSH3 0x2AE JUMP JUMPDEST SWAP7 POP PUSH1 0x20 DUP9 ADD MLOAD SWAP2 POP DUP1 DUP3 GT ISZERO PUSH3 0x3CF JUMPI PUSH1 0x0 DUP1 REVERT JUMPDEST POP PUSH3 0x3DE DUP9 DUP3 DUP10 ADD PUSH3 0x2AE JUMP JUMPDEST SWAP5 POP POP PUSH1 0x40 DUP7 ADD MLOAD PUSH3 0x3F1 DUP2 PUSH3 0x360 JUMP JUMPDEST PUSH1 0x60 DUP8 ADD MLOAD SWAP1 SWAP4 POP PUSH3 0x404 DUP2 PUSH3 0x360 JUMP JUMPDEST PUSH1 0x80 DUP8 ADD MLOAD SWAP1 SWAP3 POP PUSH3 0x417 DUP2 PUSH3 0x360 JUMP JUMPDEST DUP1 SWAP2 POP POP SWAP3 SWAP6 POP SWAP3 SWAP6 SWAP1 SWAP4 POP JUMP JUMPDEST DUP2 DUP2 SUB DUP2 DUP2 GT ISZERO PUSH3 0xE6 JUMPI PUSH4 0x4E487B71 PUSH1 0xE0 SHL PUSH1 0x0 MSTORE PUSH1 0x11 PUSH1 0x4 MSTORE PUSH1 0x24 PUSH1 0x0 REVERT JUMPDEST PUSH1 0x1 DUP2 DUP2 SHR SWAP1 DUP3 AND DUP1 PUSH3 0x45C JUMPI PUSH1 0x7F DUP3 AND SWAP2 POP JUMPDEST PUSH1 0x20 DUP3 LT DUP2 SUB PUSH3 0x47D JUMPI PUSH4 0x4E487B71 PUSH1 0xE0 SHL PUSH1 0x0 MSTORE PUSH1 0x22 PUSH1 0x4 MSTORE PUSH1 0x24 PUSH1 0x0 REVERT JUMPDEST POP SWAP2 SWAP1 POP JUMP JUMPDEST PUSH1 0x1F DUP3 GT ISZERO PUSH3 0x4D3 JUMPI PUSH1 0x0 DUP2 PUSH1 0x0 MSTORE PUSH1 0x20 PUSH1 0x0 KECCAK256 PUSH1 0x1F DUP6 ADD PUSH1 0x5 SHR DUP2 ADD PUSH1 0x20 DUP7 LT ISZERO PUSH3 0x4AE JUMPI POP DUP1 JUMPDEST PUSH1 0x1F DUP6 ADD PUSH1 0x5 SHR DUP3 ADD SWAP2 POP JUMPDEST DUP2 DUP2 LT ISZERO PUSH3 0x4CF JUMPI DUP3 DUP2 SSTORE PUSH1 0x1 ADD PUSH3 0x4BA JUMP JUMPDEST POP POP POP JUMPDEST POP POP POP JUMP JUMPDEST DUP2 MLOAD PUSH1 0x1 PUSH1 0x1 PUSH1 0x40 SHL SUB DUP2 GT ISZERO PUSH3 0x4F4 JUMPI PUSH3 0x4F4 PUSH3 0x298 JUMP JUMPDEST PUSH3 0x50C DUP2 PUSH3 0x505 DUP5 SLOAD PUSH3 0x447 JUMP JUMPDEST DUP5 PUSH3 0x483 JUMP JUMPDEST PUSH1 0x20 DUP1 PUSH1 0x1F DUP4 GT PUSH1 0x1 DUP2 EQ PUSH3 0x544 JUMPI PUSH1 0x0 DUP5 ISZERO PUSH3 0x52B JUMPI POP DUP6 DUP4 ADD MLOAD JUMPDEST PUSH1 0x0 NOT PUSH1 0x3 DUP7 SWAP1 SHL SHR NOT AND PUSH1 0x1 DUP6 SWAP1 SHL OR DUP6 SSTORE PUSH3 0x4CF JUMP JUMPDEST PUSH1 0x0 DUP6 DUP2 MSTORE PUSH1 0x20 DUP2 KECCAK256 PUSH1 0x1F NOT DUP7 AND SWAP2 JUMPDEST DUP3 DUP2 LT ISZERO PUSH3 0x575 JUMPI DUP9 DUP7 ADD MLOAD DUP3 SSTORE SWAP5 DUP5 ADD SWAP5 PUSH1 0x1 SWAP1 SWAP2 ADD SWAP1 DUP5 ADD PUSH3 0x554 JUMP JUMPDEST POP DUP6 DUP3 LT ISZERO PUSH3 0x594 JUMPI DUP8 DUP6 ADD MLOAD PUSH1 0x0 NOT PUSH1 0x3 DUP9 SWAP1 SHL PUSH1 0xF8 AND SHR NOT AND DUP2 SSTORE JUMPDEST POP POP POP POP POP PUSH1 0x1 SWAP1 DUP2 SHL ADD SWAP1 SSTORE POP JUMP JUMPDEST PUSH1 0x80 MLOAD PUSH2 0x282C PUSH3 0x5C7 PUSH1 0x0 CODECOPY PUSH1 0x0 DUP2 DUP2 PUSH2 0x59B ADD MSTORE PUSH2 0xA7E ADD MSTORE PUSH2 0x282C PUSH1 0x0 RETURN INVALID PUSH1 0x80 PUSH1 0x40 MSTORE CALLVALUE DUP1 ISZERO PUSH2 0x10 JUMPI PUSH1 0x0 DUP1 REVERT JUMPDEST POP PUSH1 0x4 CALLDATASIZE LT PUSH2 0x1CF JUMPI PUSH1 0x0 CALLDATALOAD PUSH1 0xE0 SHR DUP1 PUSH4 0x70A08231 GT PUSH2 0x104 JUMPI DUP1 PUSH4 0xA22CB465 GT PUSH2 0xA2 JUMPI DUP1 PUSH4 0xD547741F GT PUSH2 0x71 JUMPI DUP1 PUSH4 0xD547741F EQ PUSH2 0x424 JUMPI DUP1 PUSH4 0xE985E9C5 EQ PUSH2 0x437 JUMPI DUP1 PUSH4 0xF2FDE38B EQ PUSH2 0x445 JUMPI DUP1 PUSH4 0xF5B541A6 EQ PUSH2 0x458 JUMPI PUSH1 0x0 DUP1 REVERT JUMPDEST DUP1 PUSH4 0xA22CB465 EQ PUSH2 0x3C4 JUMPI DUP1 PUSH4 0xB88D4FDE EQ PUSH2 0x3D7 JUMPI DUP1 PUSH4 0xC87B56DD EQ PUSH2 0x3EA JUMPI DUP1 PUSH4 0xD5391393 EQ PUSH2 0x3FD JUMPI PUSH1 0x0 DUP1 REVERT JUMPDEST DUP1 PUSH4 0x91D14854 GT PUSH2 0xDE JUMPI DUP1 PUSH4 0x91D14854 EQ PUSH2 0x38E JUMPI DUP1 PUSH4 0x95D89B41 EQ PUSH2 0x3A1 JUMPI DUP1 PUSH4 0x95F94BC4 EQ PUSH2 0x3A9 JUMPI DUP1 PUSH4 0xA0C76F62 EQ PUSH2 0x3BC JUMPI PUSH1 0x0 DUP1 REVERT JUMPDEST DUP1 PUSH4 0x70A08231 EQ PUSH2 0x352 JUMPI DUP1 PUSH4 0x8BB9C5BF EQ PUSH2 0x373 JUMPI DUP1 PUSH4 0x8DA5CB5B EQ PUSH2 0x386 JUMPI PUSH1 0x0 DUP1 REVERT JUMPDEST DUP1 PUSH4 0x3886D512 GT PUSH2 0x171 JUMPI DUP1 PUSH4 0x42966C68 GT PUSH2 0x14B JUMPI DUP1 PUSH4 0x42966C68 EQ PUSH2 0x2F3 JUMPI DUP1 PUSH4 0x4BAE2BE8 EQ PUSH2 0x306 JUMPI DUP1 PUSH4 0x54C7BE06 EQ PUSH2 0x32C JUMPI DUP1 PUSH4 0x6352211E EQ PUSH2 0x33F JUMPI PUSH1 0x0 DUP1 REVERT JUMPDEST DUP1 PUSH4 0x3886D512 EQ PUSH2 0x297 JUMPI DUP1 PUSH4 0x42532616 EQ PUSH2 0x2CD JUMPI DUP1 PUSH4 0x42842E0E EQ PUSH2 0x2E0 JUMPI PUSH1 0x0 DUP1 REVERT JUMPDEST DUP1 PUSH4 0x95EA7B3 GT PUSH2 0x1AD JUMPI DUP1 PUSH4 0x95EA7B3 EQ PUSH2 0x249 JUMPI DUP1 PUSH4 0x19C02B27 EQ PUSH2 0x25E JUMPI DUP1 PUSH4 0x23B872DD EQ PUSH2 0x271 JUMPI DUP1 PUSH4 0x2F2FF15D EQ PUSH2 0x284 JUMPI PUSH1 0x0 DUP1 REVERT JUMPDEST DUP1 PUSH4 0x1FFC9A7 EQ PUSH2 0x1D4 JUMPI DUP1 PUSH4 0x6FDDE03 EQ PUSH2 0x1FC JUMPI DUP1 PUSH4 0x81812FC EQ PUSH2 0x211 JUMPI JUMPDEST PUSH1 0x0 DUP1 REVERT JUMPDEST PUSH2 0x1E7 PUSH2 0x1E2 CALLDATASIZE PUSH1 0x4 PUSH2 0x1E15 JUMP JUMPDEST PUSH2 0x47F JUMP JUMPDEST PUSH1 0x40 MLOAD SWAP1 ISZERO ISZERO DUP2 MSTORE PUSH1 0x20 ADD JUMPDEST PUSH1 0x40 MLOAD DUP1 SWAP2 SUB SWAP1 RETURN JUMPDEST PUSH2 0x204 PUSH2 0x499 JUMP JUMPDEST PUSH1 0x40 MLOAD PUSH2 0x1F3 SWAP2 SWAP1 PUSH2 0x1EA0 JUMP JUMPDEST PUSH2 0x224 PUSH2 0x21F CALLDATASIZE PUSH1 0x4 PUSH2 0x1EB3 JUMP JUMPDEST PUSH2 0x4A8 JUMP JUMPDEST PUSH1 0x40 MLOAD PUSH20 0xFFFFFFFFFFFFFFFFFFFFFFFFFFFFFFFFFFFFFFFF SWAP1 SWAP2 AND DUP2 MSTORE PUSH1 0x20 ADD PUSH2 0x1F3 JUMP JUMPDEST PUSH2 0x25C PUSH2 0x257 CALLDATASIZE PUSH1 0x4 PUSH2 0x1EEE JUMP JUMPDEST PUSH2 0x4DC JUMP JUMPDEST STOP JUMPDEST PUSH2 0x25C PUSH2 0x26C CALLDATASIZE PUSH1 0x4 PUSH2 0x1EEE JUMP JUMPDEST PUSH2 0x50E JUMP JUMPDEST PUSH2 0x25C PUSH2 0x27F CALLDATASIZE PUSH1 0x4 PUSH2 0x1F1A JUMP JUMPDEST PUSH2 0x777 JUMP JUMPDEST PUSH2 0x25C PUSH2 0x292 CALLDATASIZE PUSH1 0x4 PUSH2 0x1F5B JUMP JUMPDEST PUSH2 0x9C3 JUMP JUMPDEST PUSH2 0x224 PUSH2 0x2A5 CALLDATASIZE PUSH1 0x4 PUSH2 0x1EB3 JUMP JUMPDEST PUSH1 0x2 PUSH1 0x20 MSTORE PUSH1 0x0 SWAP1 DUP2 MSTORE PUSH1 0x40 SWAP1 KECCAK256 SLOAD PUSH20 0xFFFFFFFFFFFFFFFFFFFFFFFFFFFFFFFFFFFFFFFF AND DUP2 JUMP JUMPDEST PUSH2 0x25C PUSH2 0x2DB CALLDATASIZE PUSH1 0x4 PUSH2 0x1EB3 JUMP JUMPDEST PUSH2 0x9F1 JUMP JUMPDEST PUSH2 0x25C PUSH2 0x2EE CALLDATASIZE PUSH1 0x4 PUSH2 0x1F1A JUMP JUMPDEST PUSH2 0xC20 JUMP JUMPDEST PUSH2 0x25C PUSH2 0x301 CALLDATASIZE PUSH1 0x4 PUSH2 0x1EB3 JUMP JUMPDEST PUSH2 0xD71 JUMP JUMPDEST PUSH2 0x319 PUSH2 0x314 CALLDATASIZE PUSH1 0x4 PUSH2 0x1EB3 JUMP JUMPDEST PUSH2 0xF6D JUMP JUMPDEST PUSH1 0x40 MLOAD PUSH2 0x1F3 SWAP8 SWAP7 SWAP6 SWAP5 SWAP4 SWAP3 SWAP2 SWAP1 PUSH2 0x1F8B JUMP JUMPDEST PUSH2 0x25C PUSH2 0x33A CALLDATASIZE PUSH1 0x4 PUSH2 0x1FF2 JUMP JUMPDEST PUSH2 0x10F4 JUMP JUMPDEST PUSH2 0x224 PUSH2 0x34D CALLDATASIZE PUSH1 0x4 PUSH2 0x1EB3 JUMP JUMPDEST PUSH2 0x1156 JUMP JUMPDEST PUSH2 0x365 PUSH2 0x360 CALLDATASIZE PUSH1 0x4 PUSH2 0x2052 JUMP JUMPDEST PUSH2 0x1164 JUMP JUMPDEST PUSH1 0x40 MLOAD SWAP1 DUP2 MSTORE PUSH1 0x20 ADD PUSH2 0x1F3 JUMP JUMPDEST PUSH2 0x25C PUSH2 0x381 CALLDATASIZE PUSH1 0x4 PUSH2 0x1EB3 JUMP JUMPDEST PUSH2 0x1178 JUMP JUMPDEST PUSH2 0x224 PUSH2 0x118F JUMP JUMPDEST PUSH2 0x1E7 PUSH2 0x39C CALLDATASIZE PUSH1 0x4 PUSH2 0x1F5B JUMP JUMPDEST PUSH2 0x11B6 JUMP JUMPDEST PUSH2 0x204 PUSH2 0x1201 JUMP JUMPDEST PUSH2 0x25C PUSH2 0x3B7 CALLDATASIZE PUSH1 0x4 PUSH2 0x2052 JUMP JUMPDEST PUSH2 0x120B JUMP JUMPDEST PUSH2 0x224 PUSH2 0x125E JUMP JUMPDEST PUSH2 0x25C PUSH2 0x3D2 CALLDATASIZE PUSH1 0x4 PUSH2 0x207D JUMP JUMPDEST PUSH2 0x1288 JUMP JUMPDEST PUSH2 0x25C PUSH2 0x3E5 CALLDATASIZE PUSH1 0x4 PUSH2 0x20AB JUMP JUMPDEST PUSH2 0x12BA JUMP JUMPDEST PUSH2 0x204 PUSH2 0x3F8 CALLDATASIZE PUSH1 0x4 PUSH2 0x1EB3 JUMP JUMPDEST PUSH2 0x13F9 JUMP JUMPDEST PUSH2 0x365 PUSH32 0x6D696E7465720000000000000000000000000000000000000000000000000000 DUP2 JUMP JUMPDEST PUSH2 0x25C PUSH2 0x432 CALLDATASIZE PUSH1 0x4 PUSH2 0x1F5B JUMP JUMPDEST PUSH2 0x141C JUMP JUMPDEST PUSH2 0x1E7 PUSH2 0x21F CALLDATASIZE PUSH1 0x4 PUSH2 0x214A JUMP JUMPDEST PUSH2 0x25C PUSH2 0x453 CALLDATASIZE PUSH1 0x4 PUSH2 0x2052 JUMP JUMPDEST PUSH2 0x143F JUMP JUMPDEST PUSH2 0x365 PUSH32 0x6F70657261746F72000000000000000000000000000000000000000000000000 DUP2 JUMP JUMPDEST PUSH1 0x0 PUSH2 0x493 DUP3 PUSH2 0x48D PUSH2 0x1453 JUMP JUMPDEST SWAP1 PUSH2 0x1481 JUMP JUMPDEST SWAP3 SWAP2 POP POP JUMP JUMPDEST PUSH1 0x60 PUSH2 0x4A3 PUSH2 0x155B JUMP JUMPDEST SWAP1 POP SWAP1 JUMP JUMPDEST PUSH1 0x0 PUSH1 0x40 MLOAD PUSH32 0x5211920D00000000000000000000000000000000000000000000000000000000 DUP2 MSTORE PUSH1 0x4 ADD PUSH1 0x40 MLOAD DUP1 SWAP2 SUB SWAP1 REVERT JUMPDEST PUSH1 0x40 MLOAD PUSH32 0x8CD22D1900000000000000000000000000000000000000000000000000000000 DUP2 MSTORE PUSH1 0x4 ADD PUSH1 0x40 MLOAD DUP1 SWAP2 SUB SWAP1 REVERT JUMPDEST PUSH1 0x0 DUP2 DUP2 MSTORE PUSH1 0x1 PUSH1 0x20 DUP2 DUP2 MSTORE PUSH1 0x40 DUP1 DUP5 KECCAK256 SWAP1 MLOAD PUSH2 0x530 SWAP4 SWAP2 SWAP1 SWAP2 ADD SWAP2 ADD PUSH2 0x21CB JUMP JUMPDEST PUSH1 0x40 DUP1 MLOAD DUP1 DUP4 SUB PUSH32 0xFFFFFFFFFFFFFFFFFFFFFFFFFFFFFFFFFFFFFFFFFFFFFFFFFFFFFFFFFFFFFFE0 ADD DUP2 MSTORE SWAP1 DUP3 SWAP1 MSTORE DUP1 MLOAD PUSH1 0x20 SWAP1 SWAP2 ADD KECCAK256 PUSH32 0xF9236A3900000000000000000000000000000000000000000000000000000000 DUP3 MSTORE PUSH1 0x4 DUP3 ADD DUP2 SWAP1 MSTORE CALLER PUSH1 0x24 DUP4 ADD MSTORE SWAP2 POP PUSH32 0x0 PUSH20 0xFFFFFFFFFFFFFFFFFFFFFFFFFFFFFFFFFFFFFFFF AND SWAP1 PUSH4 0xF9236A39 SWAP1 PUSH1 0x44 ADD PUSH1 0x20 PUSH1 0x40 MLOAD DUP1 DUP4 SUB DUP2 DUP7 GAS STATICCALL ISZERO DUP1 ISZERO PUSH2 0x5F7 JUMPI RETURNDATASIZE PUSH1 0x0 DUP1 RETURNDATACOPY RETURNDATASIZE PUSH1 0x0 REVERT JUMPDEST POP POP POP POP PUSH1 0x40 MLOAD RETURNDATASIZE PUSH1 0x1F NOT PUSH1 0x1F DUP3 ADD AND DUP3 ADD DUP1 PUSH1 0x40 MSTORE POP DUP2 ADD SWAP1 PUSH2 0x61B SWAP2 SWAP1 PUSH2 0x225F JUMP JUMPDEST PUSH2 0x653 JUMPI PUSH2 0x653 PUSH32 0x6F70657261746F72000000000000000000000000000000000000000000000000 CALLER PUSH2 0x64C PUSH2 0x156D JUMP JUMPDEST SWAP2 SWAP1 PUSH2 0x159B JUMP JUMPDEST PUSH1 0x0 PUSH2 0x667 DUP4 PUSH2 0x661 PUSH2 0x1621 JUMP JUMPDEST SWAP1 PUSH2 0x164F JUMP JUMPDEST SWAP1 POP DUP4 PUSH20 0xFFFFFFFFFFFFFFFFFFFFFFFFFFFFFFFFFFFFFFFF AND DUP2 PUSH20 0xFFFFFFFFFFFFFFFFFFFFFFFFFFFFFFFFFFFFFFFF AND SUB PUSH2 0x6EB JUMPI PUSH1 0x40 MLOAD PUSH32 0x4C349C0000000000000000000000000000000000000000000000000000000000 DUP2 MSTORE PUSH20 0xFFFFFFFFFFFFFFFFFFFFFFFFFFFFFFFFFFFFFFFF DUP6 AND PUSH1 0x4 DUP3 ADD MSTORE PUSH1 0x24 ADD JUMPDEST PUSH1 0x40 MLOAD DUP1 SWAP2 SUB SWAP1 REVERT JUMPDEST PUSH1 0x0 DUP4 DUP2 MSTORE PUSH1 0x2 PUSH1 0x20 SWAP1 DUP2 MSTORE PUSH1 0x40 SWAP2 DUP3 SWAP1 KECCAK256 DUP1 SLOAD PUSH32 0xFFFFFFFFFFFFFFFFFFFFFFFF0000000000000000000000000000000000000000 AND PUSH20 0xFFFFFFFFFFFFFFFFFFFFFFFFFFFFFFFFFFFFFFFF DUP9 AND SWAP1 DUP2 OR SWAP1 SWAP2 SSTORE SWAP2 MLOAD CALLER DUP2 MSTORE DUP6 SWAP3 SWAP2 PUSH32 0x1617C30910ED9DEF77A5583FB42361192FA9E1A3AE60209C6281A276F88F9624 SWAP2 ADD PUSH1 0x40 MLOAD DUP1 SWAP2 SUB SWAP1 LOG3 POP POP POP POP JUMP JUMPDEST PUSH1 0x0 PUSH2 0x785 DUP3 PUSH2 0x661 PUSH2 0x1621 JUMP JUMPDEST SWAP1 POP PUSH20 0xFFFFFFFFFFFFFFFFFFFFFFFFFFFFFFFFFFFFFFFF DUP2 AND CALLER EQ PUSH2 0x7DF JUMPI PUSH1 0x40 MLOAD PUSH32 0x14DBB53600000000000000000000000000000000000000000000000000000000 DUP2 MSTORE CALLER PUSH1 0x4 DUP3 ADD MSTORE PUSH1 0x24 DUP2 ADD DUP4 SWAP1 MSTORE PUSH1 0x44 ADD PUSH2 0x6E2 JUMP JUMPDEST DUP1 PUSH20 0xFFFFFFFFFFFFFFFFFFFFFFFFFFFFFFFFFFFFFFFF AND DUP5 PUSH20 0xFFFFFFFFFFFFFFFFFFFFFFFFFFFFFFFFFFFFFFFF AND EQ ISZERO DUP1 PUSH2 0x841 JUMPI POP PUSH1 0x0 DUP3 DUP2 MSTORE PUSH1 0x2 PUSH1 0x20 MSTORE PUSH1 0x40 SWAP1 KECCAK256 SLOAD PUSH20 0xFFFFFFFFFFFFFFFFFFFFFFFFFFFFFFFFFFFFFFFF DUP5 DUP2 AND SWAP2 AND EQ ISZERO JUMPDEST ISZERO PUSH2 0x89F JUMPI PUSH1 0x40 MLOAD PUSH32 0xA4A3018B00000000000000000000000000000000000000000000000000000000 DUP2 MSTORE PUSH20 0xFFFFFFFFFFFFFFFFFFFFFFFFFFFFFFFFFFFFFFFF DUP1 DUP7 AND PUSH1 0x4 DUP4 ADD MSTORE DUP3 AND PUSH1 0x24 DUP3 ADD MSTORE PUSH1 0x44 DUP2 ADD DUP4 SWAP1 MSTORE PUSH1 0x64 ADD PUSH2 0x6E2 JUMP JUMPDEST DUP3 PUSH20 0xFFFFFFFFFFFFFFFFFFFFFFFFFFFFFFFFFFFFFFFF AND PUSH2 0x8BE PUSH2 0x1621 JUMP JUMPDEST PUSH1 0x0 DUP5 DUP2 MSTORE PUSH1 0x20 SWAP2 SWAP1 SWAP2 MSTORE PUSH1 0x40 SWAP1 KECCAK256 SSTORE PUSH2 0x8D6 PUSH2 0x1621 JUMP JUMPDEST PUSH20 0xFFFFFFFFFFFFFFFFFFFFFFFFFFFFFFFFFFFFFFFF DUP3 AND PUSH1 0x0 SWAP1 DUP2 MSTORE PUSH1 0x1 SWAP2 SWAP1 SWAP2 ADD PUSH1 0x20 MSTORE PUSH1 0x40 SWAP1 KECCAK256 DUP1 SLOAD PUSH32 0xFFFFFFFFFFFFFFFFFFFFFFFFFFFFFFFFFFFFFFFFFFFFFFFFFFFFFFFFFFFFFFFF ADD SWAP1 SSTORE PUSH2 0x92D PUSH2 0x1621 JUMP JUMPDEST PUSH20 0xFFFFFFFFFFFFFFFFFFFFFFFFFFFFFFFFFFFFFFFF DUP1 DUP6 AND PUSH1 0x0 DUP2 DUP2 MSTORE PUSH1 0x1 SWAP4 DUP5 ADD PUSH1 0x20 SWAP1 DUP2 MSTORE PUSH1 0x40 DUP1 DUP4 KECCAK256 DUP1 SLOAD SWAP1 SWAP7 ADD SWAP1 SWAP6 SSTORE DUP7 DUP3 MSTORE PUSH1 0x2 SWAP1 MSTORE DUP4 DUP2 KECCAK256 DUP1 SLOAD PUSH32 0xFFFFFFFFFFFFFFFFFFFFFFFF0000000000000000000000000000000000000000 AND SWAP1 SSTORE SWAP3 MLOAD DUP6 SWAP4 SWAP2 SWAP3 DUP6 AND SWAP2 PUSH32 0xDDF252AD1BE2C89B69C2B068FC378DAA952BA7F163C4A11628F55A4DF523B3EF SWAP2 LOG4 POP POP POP POP JUMP JUMPDEST CALLER PUSH2 0x9D6 DUP2 PUSH2 0x9D0 PUSH2 0x16B8 JUMP JUMPDEST SWAP1 PUSH2 0x16E6 JUMP JUMPDEST PUSH2 0x9EC DUP4 DUP4 DUP4 PUSH2 0x9E4 PUSH2 0x156D JUMP JUMPDEST SWAP3 SWAP2 SWAP1 PUSH2 0x1751 JUMP JUMPDEST POP POP POP JUMP JUMPDEST PUSH1 0x0 DUP2 DUP2 MSTORE PUSH1 0x1 PUSH1 0x20 DUP2 DUP2 MSTORE PUSH1 0x40 DUP1 DUP5 KECCAK256 SWAP1 MLOAD PUSH2 0xA13 SWAP4 SWAP2 SWAP1 SWAP2 ADD SWAP2 ADD PUSH2 0x21CB JUMP JUMPDEST PUSH1 0x40 DUP1 MLOAD DUP1 DUP4 SUB PUSH32 0xFFFFFFFFFFFFFFFFFFFFFFFFFFFFFFFFFFFFFFFFFFFFFFFFFFFFFFFFFFFFFFE0 ADD DUP2 MSTORE SWAP1 DUP3 SWAP1 MSTORE DUP1 MLOAD PUSH1 0x20 SWAP1 SWAP2 ADD KECCAK256 PUSH32 0xF9236A3900000000000000000000000000000000000000000000000000000000 DUP3 MSTORE PUSH1 0x4 DUP3 ADD DUP2 SWAP1 MSTORE CALLER PUSH1 0x24 DUP4 ADD MSTORE SWAP2 POP PUSH32 0x0 PUSH20 0xFFFFFFFFFFFFFFFFFFFFFFFFFFFFFFFFFFFFFFFF AND SWAP1 PUSH4 0xF9236A39 SWAP1 PUSH1 0x44 ADD PUSH1 0x20 PUSH1 0x40 MLOAD DUP1 DUP4 SUB DUP2 DUP7 GAS STATICCALL ISZERO DUP1 ISZERO PUSH2 0xADA JUMPI RETURNDATASIZE PUSH1 0x0 DUP1 RETURNDATACOPY RETURNDATASIZE PUSH1 0x0 REVERT JUMPDEST POP POP POP POP PUSH1 0x40 MLOAD RETURNDATASIZE PUSH1 0x1F NOT PUSH1 0x1F DUP3 ADD AND DUP3 ADD DUP1 PUSH1 0x40 MSTORE POP DUP2 ADD SWAP1 PUSH2 0xAFE SWAP2 SWAP1 PUSH2 0x225F JUMP JUMPDEST PUSH2 0xB2F JUMPI PUSH2 0xB2F PUSH32 0x6F70657261746F72000000000000000000000000000000000000000000000000 CALLER PUSH2 0x64C PUSH2 0x156D JUMP JUMPDEST PUSH1 0x0 DUP3 DUP2 MSTORE PUSH1 0x2 PUSH1 0x20 MSTORE PUSH1 0x40 SWAP1 KECCAK256 SLOAD PUSH20 0xFFFFFFFFFFFFFFFFFFFFFFFFFFFFFFFFFFFFFFFF AND PUSH2 0xB8D JUMPI PUSH1 0x40 MLOAD PUSH32 0xD43553B500000000000000000000000000000000000000000000000000000000 DUP2 MSTORE PUSH1 0x4 DUP2 ADD DUP4 SWAP1 MSTORE PUSH1 0x24 ADD PUSH2 0x6E2 JUMP JUMPDEST PUSH1 0x0 DUP3 DUP2 MSTORE PUSH1 0x2 PUSH1 0x20 SWAP1 DUP2 MSTORE PUSH1 0x40 SWAP2 DUP3 SWAP1 KECCAK256 SLOAD SWAP2 MLOAD CALLER DUP2 MSTORE DUP5 SWAP3 PUSH20 0xFFFFFFFFFFFFFFFFFFFFFFFFFFFFFFFFFFFFFFFF AND SWAP2 PUSH32 0x648E1FCA65E8B59490CC7C26438AC6ED40EA5C54DE21E85E2EF44A52B8F2EBAB SWAP2 ADD PUSH1 0x40 MLOAD DUP1 SWAP2 SUB SWAP1 LOG3 POP PUSH1 0x0 SWAP1 DUP2 MSTORE PUSH1 0x2 PUSH1 0x20 MSTORE PUSH1 0x40 SWAP1 KECCAK256 DUP1 SLOAD PUSH32 0xFFFFFFFFFFFFFFFFFFFFFFFF0000000000000000000000000000000000000000 AND SWAP1 SSTORE JUMP JUMPDEST PUSH2 0xC2B DUP4 DUP4 DUP4 PUSH2 0x777 JUMP JUMPDEST PUSH20 0xFFFFFFFFFFFFFFFFFFFFFFFFFFFFFFFFFFFFFFFF DUP3 AND EXTCODESIZE ISZERO PUSH2 0x9EC JUMPI PUSH1 0x40 MLOAD PUSH32 0x150B7A0200000000000000000000000000000000000000000000000000000000 DUP1 DUP3 MSTORE CALLER PUSH1 0x4 DUP4 ADD MSTORE PUSH20 0xFFFFFFFFFFFFFFFFFFFFFFFFFFFFFFFFFFFFFFFF DUP6 DUP2 AND PUSH1 0x24 DUP5 ADD MSTORE PUSH1 0x44 DUP4 ADD DUP5 SWAP1 MSTORE PUSH1 0x80 PUSH1 0x64 DUP5 ADD MSTORE PUSH1 0x0 PUSH1 0x84 DUP5 ADD MSTORE SWAP1 SWAP2 SWAP1 DUP5 AND SWAP1 PUSH4 0x150B7A02 SWAP1 PUSH1 0xA4 ADD PUSH1 0x20 PUSH1 0x40 MLOAD DUP1 DUP4 SUB DUP2 PUSH1 0x0 DUP8 GAS CALL ISZERO DUP1 ISZERO PUSH2 0xCD5 JUMPI RETURNDATASIZE PUSH1 0x0 DUP1 RETURNDATACOPY RETURNDATASIZE PUSH1 0x0 REVERT JUMPDEST POP POP POP POP PUSH1 0x40 MLOAD RETURNDATASIZE PUSH1 0x1F NOT PUSH1 0x1F DUP3 ADD AND DUP3 ADD DUP1 PUSH1 0x40 MSTORE POP DUP2 ADD SWAP1 PUSH2 0xCF9 SWAP2 SWAP1 PUSH2 0x227C JUMP JUMPDEST PUSH32 0xFFFFFFFF00000000000000000000000000000000000000000000000000000000 AND EQ PUSH2 0x9EC JUMPI PUSH1 0x40 MLOAD PUSH32 0xC215A7A100000000000000000000000000000000000000000000000000000000 DUP2 MSTORE PUSH20 0xFFFFFFFFFFFFFFFFFFFFFFFFFFFFFFFFFFFFFFFF DUP4 AND PUSH1 0x4 DUP3 ADD MSTORE PUSH1 0x24 DUP2 ADD DUP3 SWAP1 MSTORE PUSH1 0x44 ADD PUSH2 0x6E2 JUMP JUMPDEST PUSH1 0x0 DUP2 DUP2 MSTORE PUSH1 0x1 PUSH1 0x20 DUP2 DUP2 MSTORE PUSH1 0x40 DUP1 DUP5 KECCAK256 SWAP1 MLOAD PUSH2 0xD93 SWAP4 SWAP2 SWAP1 SWAP2 ADD SWAP2 ADD PUSH2 0x21CB JUMP JUMPDEST PUSH1 0x40 DUP1 MLOAD DUP1 DUP4 SUB PUSH32 0xFFFFFFFFFFFFFFFFFFFFFFFFFFFFFFFFFFFFFFFFFFFFFFFFFFFFFFFFFFFFFFE0 ADD DUP2 MSTORE SWAP1 DUP3 SWAP1 MSTORE DUP1 MLOAD PUSH1 0x20 SWAP1 SWAP2 ADD KECCAK256 PUSH1 0x0 SLOAD PUSH32 0xA3A2656A00000000000000000000000000000000000000000000000000000000 DUP4 MSTORE PUSH1 0x4 DUP4 ADD DUP3 SWAP1 MSTORE PUSH1 0x24 DUP4 ADD DUP6 SWAP1 MSTORE SWAP1 SWAP3 POP PUSH20 0xFFFFFFFFFFFFFFFFFFFFFFFFFFFFFFFFFFFFFFFF AND SWAP1 PUSH4 0xA3A2656A SWAP1 PUSH1 0x44 ADD PUSH1 0x20 PUSH1 0x40 MLOAD DUP1 DUP4 SUB DUP2 DUP7 GAS STATICCALL ISZERO DUP1 ISZERO PUSH2 0xE3E JUMPI RETURNDATASIZE PUSH1 0x0 DUP1 RETURNDATACOPY RETURNDATASIZE PUSH1 0x0 REVERT JUMPDEST POP POP POP POP PUSH1 0x40 MLOAD RETURNDATASIZE PUSH1 0x1F NOT PUSH1 0x1F DUP3 ADD AND DUP3 ADD DUP1 PUSH1 0x40 MSTORE POP DUP2 ADD SWAP1 PUSH2 0xE62 SWAP2 SWAP1 PUSH2 0x225F JUMP JUMPDEST ISZERO PUSH2 0xF37 JUMPI PUSH1 0x0 PUSH2 0xE75 DUP4 PUSH2 0x661 PUSH2 0x1621 JUMP JUMPDEST SWAP1 POP PUSH32 0xDEAD000000000000000000000000000000000000000000000000000000000000 PUSH2 0xEA0 PUSH2 0x1621 JUMP JUMPDEST PUSH1 0x0 DUP6 DUP2 MSTORE PUSH1 0x20 SWAP2 SWAP1 SWAP2 MSTORE PUSH1 0x40 SWAP1 KECCAK256 SSTORE PUSH2 0xEB8 PUSH2 0x1621 JUMP JUMPDEST PUSH20 0xFFFFFFFFFFFFFFFFFFFFFFFFFFFFFFFFFFFFFFFF DUP3 AND PUSH1 0x0 DUP2 DUP2 MSTORE PUSH1 0x1 SWAP3 SWAP1 SWAP3 ADD PUSH1 0x20 MSTORE PUSH1 0x40 DUP1 DUP4 KECCAK256 DUP1 SLOAD PUSH32 0xFFFFFFFFFFFFFFFFFFFFFFFFFFFFFFFFFFFFFFFFFFFFFFFFFFFFFFFFFFFFFFFF ADD SWAP1 SSTORE MLOAD DUP6 SWAP3 SWAP2 SWAP1 PUSH32 0xDDF252AD1BE2C89B69C2B068FC378DAA952BA7F163C4A11628F55A4DF523B3EF SWAP1 DUP4 SWAP1 LOG4 POP POP POP JUMP JUMPDEST PUSH1 0x40 MLOAD PUSH32 0xEEDDF6AB00000000000000000000000000000000000000000000000000000000 DUP2 MSTORE PUSH1 0x4 ADD PUSH1 0x40 MLOAD DUP1 SWAP2 SUB SWAP1 REVERT JUMPDEST POP POP JUMP JUMPDEST PUSH1 0x1 PUSH1 0x20 DUP2 SWAP1 MSTORE PUSH1 0x0 SWAP2 DUP3 MSTORE PUSH1 0x40 SWAP1 SWAP2 KECCAK256 DUP1 SLOAD SWAP2 DUP2 ADD DUP1 SLOAD PUSH2 0xFFFF DUP1 DUP6 AND SWAP5 PUSH3 0x10000 DUP2 DIV SWAP1 SWAP2 AND SWAP4 PUSH8 0xFFFFFFFFFFFFFFFF PUSH5 0x100000000 DUP4 DIV DUP2 AND SWAP5 PUSH13 0x1000000000000000000000000 DUP5 DIV DUP3 AND SWAP5 PUSH21 0x10000000000000000000000000000000000000000 SWAP1 SWAP5 DIV SWAP1 SWAP2 AND SWAP3 PUSH2 0xFE3 SWAP1 PUSH2 0x2178 JUMP JUMPDEST DUP1 PUSH1 0x1F ADD PUSH1 0x20 DUP1 SWAP2 DIV MUL PUSH1 0x20 ADD PUSH1 0x40 MLOAD SWAP1 DUP2 ADD PUSH1 0x40 MSTORE DUP1 SWAP3 SWAP2 SWAP1 DUP2 DUP2 MSTORE PUSH1 0x20 ADD DUP3 DUP1 SLOAD PUSH2 0x100F SWAP1 PUSH2 0x2178 JUMP JUMPDEST DUP1 ISZERO PUSH2 0x105C JUMPI DUP1 PUSH1 0x1F LT PUSH2 0x1031 JUMPI PUSH2 0x100 DUP1 DUP4 SLOAD DIV MUL DUP4 MSTORE SWAP2 PUSH1 0x20 ADD SWAP2 PUSH2 0x105C JUMP JUMPDEST DUP3 ADD SWAP2 SWAP1 PUSH1 0x0 MSTORE PUSH1 0x20 PUSH1 0x0 KECCAK256 SWAP1 JUMPDEST DUP2 SLOAD DUP2 MSTORE SWAP1 PUSH1 0x1 ADD SWAP1 PUSH1 0x20 ADD DUP1 DUP4 GT PUSH2 0x103F JUMPI DUP3 SWAP1 SUB PUSH1 0x1F AND DUP3 ADD SWAP2 JUMPDEST POP POP POP POP POP SWAP1 DUP1 PUSH1 0x2 ADD DUP1 SLOAD PUSH2 0x1071 SWAP1 PUSH2 0x2178 JUMP JUMPDEST DUP1 PUSH1 0x1F ADD PUSH1 0x20 DUP1 SWAP2 DIV MUL PUSH1 0x20 ADD PUSH1 0x40 MLOAD SWAP1 DUP2 ADD PUSH1 0x40 MSTORE DUP1 SWAP3 SWAP2 SWAP1 DUP2 DUP2 MSTORE PUSH1 0x20 ADD DUP3 DUP1 SLOAD PUSH2 0x109D SWAP1 PUSH2 0x2178 JUMP JUMPDEST DUP1 ISZERO PUSH2 0x10EA JUMPI DUP1 PUSH1 0x1F LT PUSH2 0x10BF JUMPI PUSH2 0x100 DUP1 DUP4 SLOAD DIV MUL DUP4 MSTORE SWAP2 PUSH1 0x20 ADD SWAP2 PUSH2 0x10EA JUMP JUMPDEST DUP3 ADD SWAP2 SWAP1 PUSH1 0x0 MSTORE PUSH1 0x20 PUSH1 0x0 KECCAK256 SWAP1 JUMPDEST DUP2 SLOAD DUP2 MSTORE SWAP1 PUSH1 0x1 ADD SWAP1 PUSH1 0x20 ADD DUP1 DUP4 GT PUSH2 0x10CD JUMPI DUP3 SWAP1 SUB PUSH1 0x1F AND DUP3 ADD SWAP2 JUMPDEST POP POP POP POP POP SWAP1 POP DUP8 JUMP JUMPDEST PUSH2 0x1121 PUSH32 0x6D696E7465720000000000000000000000000000000000000000000000000000 CALLER PUSH2 0x64C PUSH2 0x156D JUMP JUMPDEST PUSH2 0x1135 DUP4 DUP4 PUSH2 0x112E PUSH2 0x1621 JUMP JUMPDEST SWAP2 SWAP1 PUSH2 0x1828 JUMP JUMPDEST PUSH1 0x0 DUP3 DUP2 MSTORE PUSH1 0x1 PUSH1 0x20 MSTORE PUSH1 0x40 SWAP1 KECCAK256 DUP2 SWAP1 PUSH2 0x114F DUP3 DUP3 PUSH2 0x24CC JUMP JUMPDEST POP POP POP POP POP JUMP JUMPDEST PUSH1 0x0 PUSH2 0x493 DUP3 PUSH2 0x661 PUSH2 0x1621 JUMP JUMPDEST PUSH1 0x0 PUSH2 0x493 DUP3 PUSH2 0x1172 PUSH2 0x1621 JUMP JUMPDEST SWAP1 PUSH2 0x1942 JUMP JUMPDEST PUSH2 0x118C CALLER DUP3 PUSH2 0x1185 PUSH2 0x156D JUMP JUMPDEST SWAP2 SWAP1 PUSH2 0x19BE JUMP JUMPDEST POP JUMP JUMPDEST PUSH1 0x0 PUSH2 0x4A3 PUSH2 0x119C PUSH2 0x16B8 JUMP JUMPDEST SLOAD PUSH20 0xFFFFFFFFFFFFFFFFFFFFFFFFFFFFFFFFFFFFFFFF AND SWAP1 JUMP JUMPDEST PUSH1 0x0 PUSH2 0x11FA DUP4 DUP4 PUSH2 0x11C5 PUSH2 0x156D JUMP JUMPDEST PUSH1 0x0 SWAP3 DUP4 MSTORE PUSH1 0x20 SWAP1 DUP2 MSTORE PUSH1 0x40 DUP1 DUP5 KECCAK256 PUSH20 0xFFFFFFFFFFFFFFFFFFFFFFFFFFFFFFFFFFFFFFFF SWAP1 SWAP4 AND DUP5 MSTORE SWAP2 SWAP1 MSTORE SWAP1 KECCAK256 SLOAD PUSH1 0xFF AND SWAP1 JUMP JUMPDEST SWAP4 SWAP3 POP POP POP JUMP JUMPDEST PUSH1 0x60 PUSH2 0x4A3 PUSH2 0x1A62 JUMP JUMPDEST PUSH2 0x1217 CALLER PUSH2 0x9D0 PUSH2 0x16B8 JUMP JUMPDEST PUSH1 0x0 DUP1 SLOAD PUSH32 0xFFFFFFFFFFFFFFFFFFFFFFFF0000000000000000000000000000000000000000 AND PUSH20 0xFFFFFFFFFFFFFFFFFFFFFFFFFFFFFFFFFFFFFFFF SWAP3 SWAP1 SWAP3 AND SWAP2 SWAP1 SWAP2 OR SWAP1 SSTORE JUMP JUMPDEST PUSH1 0x0 PUSH2 0x4A3 PUSH2 0x126B PUSH2 0x1A74 JUMP JUMPDEST PUSH1 0x2 ADD SLOAD PUSH20 0xFFFFFFFFFFFFFFFFFFFFFFFFFFFFFFFFFFFFFFFF AND SWAP1 JUMP JUMPDEST PUSH1 0x40 MLOAD PUSH32 0x5211920D00000000000000000000000000000000000000000000000000000000 DUP2 MSTORE PUSH1 0x4 ADD PUSH1 0x40 MLOAD DUP1 SWAP2 SUB SWAP1 REVERT JUMPDEST PUSH2 0x12C5 DUP6 DUP6 DUP6 PUSH2 0x777 JUMP JUMPDEST PUSH20 0xFFFFFFFFFFFFFFFFFFFFFFFFFFFFFFFFFFFFFFFF DUP5 AND EXTCODESIZE ISZERO PUSH2 0x114F JUMPI PUSH1 0x40 MLOAD PUSH32 0x150B7A0200000000000000000000000000000000000000000000000000000000 DUP1 DUP3 MSTORE SWAP1 PUSH20 0xFFFFFFFFFFFFFFFFFFFFFFFFFFFFFFFFFFFFFFFF DUP7 AND SWAP1 PUSH4 0x150B7A02 SWAP1 PUSH2 0x133E SWAP1 CALLER SWAP1 DUP11 SWAP1 DUP10 SWAP1 DUP10 SWAP1 DUP10 SWAP1 PUSH1 0x4 ADD PUSH2 0x2672 JUMP JUMPDEST PUSH1 0x20 PUSH1 0x40 MLOAD DUP1 DUP4 SUB DUP2 PUSH1 0x0 DUP8 GAS CALL ISZERO DUP1 ISZERO PUSH2 0x135D JUMPI RETURNDATASIZE PUSH1 0x0 DUP1 RETURNDATACOPY RETURNDATASIZE PUSH1 0x0 REVERT JUMPDEST POP POP POP POP PUSH1 0x40 MLOAD RETURNDATASIZE PUSH1 0x1F NOT PUSH1 0x1F DUP3 ADD AND DUP3 ADD DUP1 PUSH1 0x40 MSTORE POP DUP2 ADD SWAP1 PUSH2 0x1381 SWAP2 SWAP1 PUSH2 0x227C JUMP JUMPDEST PUSH32 0xFFFFFFFF00000000000000000000000000000000000000000000000000000000 AND EQ PUSH2 0x114F JUMPI PUSH1 0x40 MLOAD PUSH32 0xC215A7A100000000000000000000000000000000000000000000000000000000 DUP2 MSTORE PUSH20 0xFFFFFFFFFFFFFFFFFFFFFFFFFFFFFFFFFFFFFFFF DUP6 AND PUSH1 0x4 DUP3 ADD MSTORE PUSH1 0x24 DUP2 ADD DUP5 SWAP1 MSTORE PUSH1 0x44 ADD PUSH2 0x6E2 JUMP JUMPDEST PUSH1 0x60 PUSH2 0x1407 DUP3 PUSH2 0x661 PUSH2 0x1621 JUMP JUMPDEST POP PUSH2 0x493 ADDRESS DUP4 PUSH2 0x1415 PUSH2 0x1A74 JUMP JUMPDEST SWAP2 SWAP1 PUSH2 0x1AA2 JUMP JUMPDEST CALLER PUSH2 0x1429 DUP2 PUSH2 0x9D0 PUSH2 0x16B8 JUMP JUMPDEST PUSH2 0x9EC DUP4 DUP4 DUP4 PUSH2 0x1437 PUSH2 0x156D JUMP JUMPDEST SWAP3 SWAP2 SWAP1 PUSH2 0x1B62 JUMP JUMPDEST PUSH2 0x118C CALLER DUP3 PUSH2 0x144C PUSH2 0x16B8 JUMP JUMPDEST SWAP2 SWAP1 PUSH2 0x1C2C JUMP JUMPDEST PUSH1 0x0 DUP1 PUSH2 0x493 PUSH1 0x1 PUSH32 0xCA9D3E17F264B0F3984E2634E94ADB37FA3E6A8103F06AEAE6FA59E21C769F5E PUSH2 0x26F1 JUMP JUMPDEST PUSH1 0x0 PUSH29 0x100000000000000000000000000000000000000000000000000000000 PUSH32 0xFFFFFFFF00000000000000000000000000000000000000000000000000000000 DUP4 AND ADD PUSH2 0x14D1 JUMPI POP PUSH1 0x0 PUSH2 0x493 JUMP JUMPDEST PUSH32 0xFE00365900000000000000000000000000000000000000000000000000000000 PUSH32 0xFFFFFFFF00000000000000000000000000000000000000000000000000000000 DUP4 AND ADD PUSH2 0x1522 JUMPI POP PUSH1 0x1 PUSH2 0x493 JUMP JUMPDEST POP PUSH32 0xFFFFFFFF00000000000000000000000000000000000000000000000000000000 AND PUSH1 0x0 SWAP1 DUP2 MSTORE PUSH1 0x20 SWAP2 SWAP1 SWAP2 MSTORE PUSH1 0x40 SWAP1 KECCAK256 SLOAD PUSH1 0xFF AND SWAP1 JUMP JUMPDEST PUSH1 0x60 PUSH2 0x4A3 PUSH2 0x1568 PUSH2 0x1A74 JUMP JUMPDEST PUSH2 0x1D40 JUMP JUMPDEST PUSH1 0x0 DUP1 PUSH2 0x493 PUSH1 0x1 PUSH32 0xC8827D3282AF6F37B64C3E9E6F3AC9DF286AB0BB0FCCD6F8661BF19ADB368B23 PUSH2 0x26F1 JUMP JUMPDEST PUSH1 0x0 DUP3 DUP2 MSTORE PUSH1 0x20 DUP5 DUP2 MSTORE PUSH1 0x40 DUP1 DUP4 KECCAK256 PUSH20 0xFFFFFFFFFFFFFFFFFFFFFFFFFFFFFFFFFFFFFFFF DUP6 AND DUP5 MSTORE SWAP1 SWAP2 MSTORE SWAP1 KECCAK256 SLOAD PUSH1 0xFF AND PUSH2 0x9EC JUMPI PUSH1 0x40 MLOAD PUSH32 0x7AA7288200000000000000000000000000000000000000000000000000000000 DUP2 MSTORE PUSH1 0x4 DUP2 ADD DUP4 SWAP1 MSTORE PUSH20 0xFFFFFFFFFFFFFFFFFFFFFFFFFFFFFFFFFFFFFFFF DUP3 AND PUSH1 0x24 DUP3 ADD MSTORE PUSH1 0x44 ADD PUSH2 0x6E2 JUMP JUMPDEST PUSH1 0x0 DUP1 PUSH2 0x493 PUSH1 0x1 PUSH32 0xDDF3EE18AE6D688373C219468F8BE446E7AE82215F4779D821C7EA5E8C13C0C1 PUSH2 0x26F1 JUMP JUMPDEST PUSH1 0x0 DUP2 DUP2 MSTORE PUSH1 0x20 DUP4 SWAP1 MSTORE PUSH1 0x40 DUP2 KECCAK256 SLOAD PUSH20 0xFFFFFFFFFFFFFFFFFFFFFFFFFFFFFFFFFFFFFFFF DUP2 AND PUSH2 0x16AE JUMPI PUSH1 0x40 MLOAD PUSH32 0xDD56047500000000000000000000000000000000000000000000000000000000 DUP2 MSTORE PUSH1 0x4 DUP2 ADD DUP5 SWAP1 MSTORE PUSH1 0x24 ADD PUSH2 0x6E2 JUMP JUMPDEST DUP1 JUMPDEST SWAP5 SWAP4 POP POP POP POP JUMP JUMPDEST PUSH1 0x0 DUP1 PUSH2 0x493 PUSH1 0x1 PUSH32 0xC9ED16F33AB3A66C84BFD83099CCB2A8845871E2E1C1928F63797152F0FD54CD PUSH2 0x26F1 JUMP JUMPDEST DUP2 SLOAD PUSH20 0xFFFFFFFFFFFFFFFFFFFFFFFFFFFFFFFFFFFFFFFF DUP3 DUP2 AND SWAP2 AND EQ PUSH2 0xF69 JUMPI PUSH1 0x40 MLOAD PUSH32 0x2EF4875E00000000000000000000000000000000000000000000000000000000 DUP2 MSTORE PUSH20 0xFFFFFFFFFFFFFFFFFFFFFFFFFFFFFFFFFFFFFFFF DUP3 AND PUSH1 0x4 DUP3 ADD MSTORE PUSH1 0x24 ADD PUSH2 0x6E2 JUMP JUMPDEST PUSH1 0x0 DUP4 DUP2 MSTORE PUSH1 0x20 DUP6 DUP2 MSTORE PUSH1 0x40 DUP1 DUP4 KECCAK256 PUSH20 0xFFFFFFFFFFFFFFFFFFFFFFFFFFFFFFFFFFFFFFFF DUP7 AND DUP5 MSTORE SWAP1 SWAP2 MSTORE SWAP1 KECCAK256 SLOAD PUSH1 0xFF AND PUSH2 0x1822 JUMPI PUSH1 0x0 DUP4 DUP2 MSTORE PUSH1 0x20 DUP6 DUP2 MSTORE PUSH1 0x40 DUP1 DUP4 KECCAK256 PUSH20 0xFFFFFFFFFFFFFFFFFFFFFFFFFFFFFFFFFFFFFFFF DUP7 DUP2 AND DUP1 DUP7 MSTORE SWAP2 DUP5 MSTORE SWAP4 DUP3 SWAP1 KECCAK256 DUP1 SLOAD PUSH32 0xFFFFFFFFFFFFFFFFFFFFFFFFFFFFFFFFFFFFFFFFFFFFFFFFFFFFFFFFFFFFFF00 AND PUSH1 0x1 OR SWAP1 SSTORE DUP2 MLOAD DUP8 DUP2 MSTORE SWAP3 DUP4 ADD MSTORE SWAP2 DUP4 AND SWAP2 DUP2 ADD SWAP2 SWAP1 SWAP2 MSTORE PUSH32 0x2F8788117E7EFF1D82E926EC794901D17C78024A50270940304540A733656F0D SWAP1 PUSH1 0x60 ADD JUMPDEST PUSH1 0x40 MLOAD DUP1 SWAP2 SUB SWAP1 LOG1 JUMPDEST POP POP POP POP JUMP JUMPDEST PUSH20 0xFFFFFFFFFFFFFFFFFFFFFFFFFFFFFFFFFFFFFFFF DUP3 AND PUSH2 0x1875 JUMPI PUSH1 0x40 MLOAD PUSH32 0x7851B9CD00000000000000000000000000000000000000000000000000000000 DUP2 MSTORE PUSH1 0x4 ADD PUSH1 0x40 MLOAD DUP1 SWAP2 SUB SWAP1 REVERT JUMPDEST PUSH1 0x0 DUP2 DUP2 MSTORE PUSH1 0x20 DUP5 SWAP1 MSTORE PUSH1 0x40 SWAP1 KECCAK256 SLOAD PUSH20 0xFFFFFFFFFFFFFFFFFFFFFFFFFFFFFFFFFFFFFFFF AND ISZERO PUSH2 0x18D4 JUMPI PUSH1 0x40 MLOAD PUSH32 0x753ECEAC00000000000000000000000000000000000000000000000000000000 DUP2 MSTORE PUSH1 0x4 DUP2 ADD DUP3 SWAP1 MSTORE PUSH1 0x24 ADD PUSH2 0x6E2 JUMP JUMPDEST PUSH1 0x0 DUP2 DUP2 MSTORE PUSH1 0x20 DUP5 DUP2 MSTORE PUSH1 0x40 DUP1 DUP4 KECCAK256 PUSH20 0xFFFFFFFFFFFFFFFFFFFFFFFFFFFFFFFFFFFFFFFF DUP7 AND SWAP1 DUP2 SWAP1 SSTORE DUP1 DUP5 MSTORE PUSH1 0x1 DUP1 DUP9 ADD SWAP1 SWAP4 MSTORE DUP2 DUP5 KECCAK256 DUP1 SLOAD SWAP1 SWAP4 ADD SWAP1 SWAP3 SSTORE MLOAD DUP4 SWAP3 SWAP1 PUSH32 0xDDF252AD1BE2C89B69C2B068FC378DAA952BA7F163C4A11628F55A4DF523B3EF SWAP1 DUP3 SWAP1 LOG4 POP POP POP JUMP JUMPDEST PUSH1 0x0 PUSH20 0xFFFFFFFFFFFFFFFFFFFFFFFFFFFFFFFFFFFFFFFF DUP3 AND PUSH2 0x1991 JUMPI PUSH1 0x40 MLOAD PUSH32 0xAEFBCE4E00000000000000000000000000000000000000000000000000000000 DUP2 MSTORE PUSH1 0x4 ADD PUSH1 0x40 MLOAD DUP1 SWAP2 SUB SWAP1 REVERT JUMPDEST POP PUSH20 0xFFFFFFFFFFFFFFFFFFFFFFFFFFFFFFFFFFFFFFFF AND PUSH1 0x0 SWAP1 DUP2 MSTORE PUSH1 0x1 SWAP2 SWAP1 SWAP2 ADD PUSH1 0x20 MSTORE PUSH1 0x40 SWAP1 KECCAK256 SLOAD SWAP1 JUMP JUMPDEST PUSH2 0x19C9 DUP4 DUP3 DUP5 PUSH2 0x159B JUMP JUMPDEST PUSH1 0x0 DUP2 DUP2 MSTORE PUSH1 0x20 DUP5 DUP2 MSTORE PUSH1 0x40 DUP1 DUP4 KECCAK256 PUSH20 0xFFFFFFFFFFFFFFFFFFFFFFFFFFFFFFFFFFFFFFFF DUP7 AND DUP1 DUP6 MSTORE SWAP1 DUP4 MSTORE SWAP3 DUP2 SWAP1 KECCAK256 DUP1 SLOAD PUSH32 0xFFFFFFFFFFFFFFFFFFFFFFFFFFFFFFFFFFFFFFFFFFFFFFFFFFFFFFFFFFFFFF00 AND SWAP1 SSTORE DUP1 MLOAD DUP5 DUP2 MSTORE SWAP2 DUP3 ADD DUP4 SWAP1 MSTORE DUP2 ADD SWAP2 SWAP1 SWAP2 MSTORE PUSH32 0xF6391F5C32D9C69D2A47EA670B442974B53935D1EDC7FD64EB21E047A839171B SWAP1 PUSH1 0x60 ADD PUSH1 0x40 MLOAD DUP1 SWAP2 SUB SWAP1 LOG1 POP POP POP JUMP JUMPDEST PUSH1 0x60 PUSH2 0x4A3 PUSH2 0x1A6F PUSH2 0x1A74 JUMP JUMPDEST PUSH2 0x1DD6 JUMP JUMPDEST PUSH1 0x0 DUP1 PUSH2 0x493 PUSH1 0x1 PUSH32 0x7EA68FD2DCF1C056B94DB6A0A537AA80D26FA9AB1EACD85DA1BA0B61B7E7A8A5 PUSH2 0x26F1 JUMP JUMPDEST PUSH1 0x2 DUP4 ADD SLOAD PUSH1 0x40 MLOAD PUSH32 0xF724DAD700000000000000000000000000000000000000000000000000000000 DUP2 MSTORE PUSH20 0xFFFFFFFFFFFFFFFFFFFFFFFFFFFFFFFFFFFFFFFF DUP5 DUP2 AND PUSH1 0x4 DUP4 ADD MSTORE PUSH1 0x24 DUP3 ADD DUP5 SWAP1 MSTORE PUSH1 0x60 SWAP3 AND SWAP1 PUSH4 0xF724DAD7 SWAP1 PUSH1 0x44 ADD PUSH1 0x0 PUSH1 0x40 MLOAD DUP1 DUP4 SUB DUP2 DUP7 GAS STATICCALL ISZERO DUP1 ISZERO PUSH2 0x1B1C JUMPI RETURNDATASIZE PUSH1 0x0 DUP1 RETURNDATACOPY RETURNDATASIZE PUSH1 0x0 REVERT JUMPDEST POP POP POP POP PUSH1 0x40 MLOAD RETURNDATASIZE PUSH1 0x0 DUP3 RETURNDATACOPY PUSH1 0x1F RETURNDATASIZE SWAP1 DUP2 ADD PUSH32 0xFFFFFFFFFFFFFFFFFFFFFFFFFFFFFFFFFFFFFFFFFFFFFFFFFFFFFFFFFFFFFFE0 AND DUP3 ADD PUSH1 0x40 MSTORE PUSH2 0x16B0 SWAP2 SWAP1 DUP2 ADD SWAP1 PUSH2 0x272B JUMP JUMPDEST PUSH1 0x0 DUP4 DUP2 MSTORE PUSH1 0x20 DUP6 DUP2 MSTORE PUSH1 0x40 DUP1 DUP4 KECCAK256 PUSH20 0xFFFFFFFFFFFFFFFFFFFFFFFFFFFFFFFFFFFFFFFF DUP7 AND DUP5 MSTORE SWAP1 SWAP2 MSTORE SWAP1 KECCAK256 SLOAD PUSH1 0xFF AND ISZERO PUSH2 0x1822 JUMPI PUSH1 0x0 DUP4 DUP2 MSTORE PUSH1 0x20 DUP6 DUP2 MSTORE PUSH1 0x40 DUP1 DUP4 KECCAK256 PUSH20 0xFFFFFFFFFFFFFFFFFFFFFFFFFFFFFFFFFFFFFFFF DUP7 DUP2 AND DUP1 DUP7 MSTORE SWAP2 DUP5 MSTORE SWAP4 DUP3 SWAP1 KECCAK256 DUP1 SLOAD PUSH32 0xFFFFFFFFFFFFFFFFFFFFFFFFFFFFFFFFFFFFFFFFFFFFFFFFFFFFFFFFFFFFFF00 AND SWAP1 SSTORE DUP2 MLOAD DUP8 DUP2 MSTORE SWAP3 DUP4 ADD MSTORE SWAP2 DUP4 AND SWAP2 DUP2 ADD SWAP2 SWAP1 SWAP2 MSTORE PUSH32 0xF6391F5C32D9C69D2A47EA670B442974B53935D1EDC7FD64EB21E047A839171B SWAP1 PUSH1 0x60 ADD PUSH2 0x1819 JUMP JUMPDEST DUP3 SLOAD PUSH20 0xFFFFFFFFFFFFFFFFFFFFFFFFFFFFFFFFFFFFFFFF SWAP1 DUP2 AND SWAP1 DUP4 AND DUP2 EQ PUSH2 0x1C99 JUMPI PUSH1 0x40 MLOAD PUSH32 0x2EF4875E00000000000000000000000000000000000000000000000000000000 DUP2 MSTORE PUSH20 0xFFFFFFFFFFFFFFFFFFFFFFFFFFFFFFFFFFFFFFFF DUP5 AND PUSH1 0x4 DUP3 ADD MSTORE PUSH1 0x24 ADD PUSH2 0x6E2 JUMP JUMPDEST DUP2 PUSH20 0xFFFFFFFFFFFFFFFFFFFFFFFFFFFFFFFFFFFFFFFF AND DUP2 PUSH20 0xFFFFFFFFFFFFFFFFFFFFFFFFFFFFFFFFFFFFFFFF AND EQ PUSH2 0x1822 JUMPI DUP4 SLOAD PUSH32 0xFFFFFFFFFFFFFFFFFFFFFFFF0000000000000000000000000000000000000000 AND PUSH20 0xFFFFFFFFFFFFFFFFFFFFFFFFFFFFFFFFFFFFFFFF DUP4 DUP2 AND SWAP2 DUP3 OR DUP7 SSTORE PUSH1 0x40 MLOAD SWAP1 DUP4 AND SWAP1 PUSH32 0x8BE0079C531659141344CD1FD0A4F28419497F9722A3DAAFE3B4186F6B6457E0 SWAP1 PUSH1 0x0 SWAP1 LOG3 POP POP POP POP JUMP JUMPDEST PUSH1 0x60 DUP2 PUSH1 0x0 ADD DUP1 SLOAD PUSH2 0x1D51 SWAP1 PUSH2 0x2178 JUMP JUMPDEST DUP1 PUSH1 0x1F ADD PUSH1 0x20 DUP1 SWAP2 DIV MUL PUSH1 0x20 ADD PUSH1 0x40 MLOAD SWAP1 DUP2 ADD PUSH1 0x40 MSTORE DUP1 SWAP3 SWAP2 SWAP1 DUP2 DUP2 MSTORE PUSH1 0x20 ADD DUP3 DUP1 SLOAD PUSH2 0x1D7D SWAP1 PUSH2 0x2178 JUMP JUMPDEST DUP1 ISZERO PUSH2 0x1DCA JUMPI DUP1 PUSH1 0x1F LT PUSH2 0x1D9F JUMPI PUSH2 0x100 DUP1 DUP4 SLOAD DIV MUL DUP4 MSTORE SWAP2 PUSH1 0x20 ADD SWAP2 PUSH2 0x1DCA JUMP JUMPDEST DUP3 ADD SWAP2 SWAP1 PUSH1 0x0 MSTORE PUSH1 0x20 PUSH1 0x0 KECCAK256 SWAP1 JUMPDEST DUP2 SLOAD DUP2 MSTORE SWAP1 PUSH1 0x1 ADD SWAP1 PUSH1 0x20 ADD DUP1 DUP4 GT PUSH2 0x1DAD JUMPI DUP3 SWAP1 SUB PUSH1 0x1F AND DUP3 ADD SWAP2 JUMPDEST POP POP POP POP POP SWAP1 POP SWAP2 SWAP1 POP JUMP JUMPDEST PUSH1 0x60 DUP2 PUSH1 0x1 ADD DUP1 SLOAD PUSH2 0x1D51 SWAP1 PUSH2 0x2178 JUMP JUMPDEST PUSH32 0xFFFFFFFF00000000000000000000000000000000000000000000000000000000 DUP2 AND DUP2 EQ PUSH2 0x118C JUMPI PUSH1 0x0 DUP1 REVERT JUMPDEST PUSH1 0x0 PUSH1 0x20 DUP3 DUP5 SUB SLT ISZERO PUSH2 0x1E27 JUMPI PUSH1 0x0 DUP1 REVERT JUMPDEST DUP2 CALLDATALOAD PUSH2 0x11FA DUP2 PUSH2 0x1DE7 JUMP JUMPDEST PUSH1 0x0 JUMPDEST DUP4 DUP2 LT ISZERO PUSH2 0x1E4D JUMPI DUP2 DUP2 ADD MLOAD DUP4 DUP3 ADD MSTORE PUSH1 0x20 ADD PUSH2 0x1E35 JUMP JUMPDEST POP POP PUSH1 0x0 SWAP2 ADD MSTORE JUMP JUMPDEST PUSH1 0x0 DUP2 MLOAD DUP1 DUP5 MSTORE PUSH2 0x1E6E DUP2 PUSH1 0x20 DUP7 ADD PUSH1 0x20 DUP7 ADD PUSH2 0x1E32 JUMP JUMPDEST PUSH1 0x1F ADD PUSH32 0xFFFFFFFFFFFFFFFFFFFFFFFFFFFFFFFFFFFFFFFFFFFFFFFFFFFFFFFFFFFFFFE0 AND SWAP3 SWAP1 SWAP3 ADD PUSH1 0x20 ADD SWAP3 SWAP2 POP POP JUMP JUMPDEST PUSH1 0x20 DUP2 MSTORE PUSH1 0x0 PUSH2 0x11FA PUSH1 0x20 DUP4 ADD DUP5 PUSH2 0x1E56 JUMP JUMPDEST PUSH1 0x0 PUSH1 0x20 DUP3 DUP5 SUB SLT ISZERO PUSH2 0x1EC5 JUMPI PUSH1 0x0 DUP1 REVERT JUMPDEST POP CALLDATALOAD SWAP2 SWAP1 POP JUMP JUMPDEST PUSH20 0xFFFFFFFFFFFFFFFFFFFFFFFFFFFFFFFFFFFFFFFF DUP2 AND DUP2 EQ PUSH2 0x118C JUMPI PUSH1 0x0 DUP1 REVERT JUMPDEST PUSH1 0x0 DUP1 PUSH1 0x40 DUP4 DUP6 SUB SLT ISZERO PUSH2 0x1F01 JUMPI PUSH1 0x0 DUP1 REVERT JUMPDEST DUP3 CALLDATALOAD PUSH2 0x1F0C DUP2 PUSH2 0x1ECC JUMP JUMPDEST SWAP5 PUSH1 0x20 SWAP4 SWAP1 SWAP4 ADD CALLDATALOAD SWAP4 POP POP POP JUMP JUMPDEST PUSH1 0x0 DUP1 PUSH1 0x0 PUSH1 0x60 DUP5 DUP7 SUB SLT ISZERO PUSH2 0x1F2F JUMPI PUSH1 0x0 DUP1 REVERT JUMPDEST DUP4 CALLDATALOAD PUSH2 0x1F3A DUP2 PUSH2 0x1ECC JUMP JUMPDEST SWAP3 POP PUSH1 0x20 DUP5 ADD CALLDATALOAD PUSH2 0x1F4A DUP2 PUSH2 0x1ECC JUMP JUMPDEST SWAP3 SWAP6 SWAP3 SWAP5 POP POP POP PUSH1 0x40 SWAP2 SWAP1 SWAP2 ADD CALLDATALOAD SWAP1 JUMP JUMPDEST PUSH1 0x0 DUP1 PUSH1 0x40 DUP4 DUP6 SUB SLT ISZERO PUSH2 0x1F6E JUMPI PUSH1 0x0 DUP1 REVERT JUMPDEST DUP3 CALLDATALOAD SWAP2 POP PUSH1 0x20 DUP4 ADD CALLDATALOAD PUSH2 0x1F80 DUP2 PUSH2 0x1ECC JUMP JUMPDEST DUP1 SWAP2 POP POP SWAP3 POP SWAP3 SWAP1 POP JUMP JUMPDEST PUSH2 0xFFFF DUP9 DUP2 AND DUP3 MSTORE DUP8 AND PUSH1 0x20 DUP3 ADD MSTORE PUSH8 0xFFFFFFFFFFFFFFFF DUP7 DUP2 AND PUSH1 0x40 DUP4 ADD MSTORE DUP6 DUP2 AND PUSH1 0x60 DUP4 ADD MSTORE DUP5 AND PUSH1 0x80 DUP3 ADD MSTORE PUSH1 0xE0 PUSH1 0xA0 DUP3 ADD DUP2 SWAP1 MSTORE PUSH1 0x0 SWAP1 PUSH2 0x1FD2 SWAP1 DUP4 ADD DUP6 PUSH2 0x1E56 JUMP JUMPDEST DUP3 DUP2 SUB PUSH1 0xC0 DUP5 ADD MSTORE PUSH2 0x1FE4 DUP2 DUP6 PUSH2 0x1E56 JUMP JUMPDEST SWAP11 SWAP10 POP POP POP POP POP POP POP POP POP POP JUMP JUMPDEST PUSH1 0x0 DUP1 PUSH1 0x0 PUSH1 0x60 DUP5 DUP7 SUB SLT ISZERO PUSH2 0x2007 JUMPI PUSH1 0x0 DUP1 REVERT JUMPDEST DUP4 CALLDATALOAD PUSH2 0x2012 DUP2 PUSH2 0x1ECC JUMP JUMPDEST SWAP3 POP PUSH1 0x20 DUP5 ADD CALLDATALOAD SWAP2 POP PUSH1 0x40 DUP5 ADD CALLDATALOAD PUSH8 0xFFFFFFFFFFFFFFFF DUP2 GT ISZERO PUSH2 0x2035 JUMPI PUSH1 0x0 DUP1 REVERT JUMPDEST DUP5 ADD PUSH1 0xE0 DUP2 DUP8 SUB SLT ISZERO PUSH2 0x2047 JUMPI PUSH1 0x0 DUP1 REVERT JUMPDEST DUP1 SWAP2 POP POP SWAP3 POP SWAP3 POP SWAP3 JUMP JUMPDEST PUSH1 0x0 PUSH1 0x20 DUP3 DUP5 SUB SLT ISZERO PUSH2 0x2064 JUMPI PUSH1 0x0 DUP1 REVERT JUMPDEST DUP2 CALLDATALOAD PUSH2 0x11FA DUP2 PUSH2 0x1ECC JUMP JUMPDEST DUP1 ISZERO ISZERO DUP2 EQ PUSH2 0x118C JUMPI PUSH1 0x0 DUP1 REVERT JUMPDEST PUSH1 0x0 DUP1 PUSH1 0x40 DUP4 DUP6 SUB SLT ISZERO PUSH2 0x2090 JUMPI PUSH1 0x0 DUP1 REVERT JUMPDEST DUP3 CALLDATALOAD PUSH2 0x209B DUP2 PUSH2 0x1ECC JUMP JUMPDEST SWAP2 POP PUSH1 0x20 DUP4 ADD CALLDATALOAD PUSH2 0x1F80 DUP2 PUSH2 0x206F JUMP JUMPDEST PUSH1 0x0 DUP1 PUSH1 0x0 DUP1 PUSH1 0x0 PUSH1 0x80 DUP7 DUP9 SUB SLT ISZERO PUSH2 0x20C3 JUMPI PUSH1 0x0 DUP1 REVERT JUMPDEST DUP6 CALLDATALOAD PUSH2 0x20CE DUP2 PUSH2 0x1ECC JUMP JUMPDEST SWAP5 POP PUSH1 0x20 DUP7 ADD CALLDATALOAD PUSH2 0x20DE DUP2 PUSH2 0x1ECC JUMP JUMPDEST SWAP4 POP PUSH1 0x40 DUP7 ADD CALLDATALOAD SWAP3 POP PUSH1 0x60 DUP7 ADD CALLDATALOAD PUSH8 0xFFFFFFFFFFFFFFFF DUP1 DUP3 GT ISZERO PUSH2 0x2102 JUMPI PUSH1 0x0 DUP1 REVERT JUMPDEST DUP2 DUP9 ADD SWAP2 POP DUP9 PUSH1 0x1F DUP4 ADD SLT PUSH2 0x2116 JUMPI PUSH1 0x0 DUP1 REVERT JUMPDEST DUP2 CALLDATALOAD DUP2 DUP2 GT ISZERO PUSH2 0x2125 JUMPI PUSH1 0x0 DUP1 REVERT JUMPDEST DUP10 PUSH1 0x20 DUP3 DUP6 ADD ADD GT ISZERO PUSH2 0x2137 JUMPI PUSH1 0x0 DUP1 REVERT JUMPDEST SWAP7 SWAP10 SWAP6 SWAP9 POP SWAP4 SWAP7 POP PUSH1 0x20 ADD SWAP5 SWAP4 SWAP3 POP POP POP JUMP JUMPDEST PUSH1 0x0 DUP1 PUSH1 0x40 DUP4 DUP6 SUB SLT ISZERO PUSH2 0x215D JUMPI PUSH1 0x0 DUP1 REVERT JUMPDEST DUP3 CALLDATALOAD PUSH2 0x2168 DUP2 PUSH2 0x1ECC JUMP JUMPDEST SWAP2 POP PUSH1 0x20 DUP4 ADD CALLDATALOAD PUSH2 0x1F80 DUP2 PUSH2 0x1ECC JUMP JUMPDEST PUSH1 0x1 DUP2 DUP2 SHR SWAP1 DUP3 AND DUP1 PUSH2 0x218C JUMPI PUSH1 0x7F DUP3 AND SWAP2 POP JUMPDEST PUSH1 0x20 DUP3 LT DUP2 SUB PUSH2 0x21C5 JUMPI PUSH32 0x4E487B7100000000000000000000000000000000000000000000000000000000 PUSH1 0x0 MSTORE PUSH1 0x22 PUSH1 0x4 MSTORE PUSH1 0x24 PUSH1 0x0 REVERT JUMPDEST POP SWAP2 SWAP1 POP JUMP JUMPDEST PUSH1 0x0 DUP1 DUP4 SLOAD PUSH2 0x21D9 DUP2 PUSH2 0x2178 JUMP JUMPDEST PUSH1 0x1 DUP3 DUP2 AND DUP1 ISZERO PUSH2 0x21F1 JUMPI PUSH1 0x1 DUP2 EQ PUSH2 0x2224 JUMPI PUSH2 0x2253 JUMP JUMPDEST PUSH32 0xFFFFFFFFFFFFFFFFFFFFFFFFFFFFFFFFFFFFFFFFFFFFFFFFFFFFFFFFFFFFFF00 DUP5 AND DUP8 MSTORE DUP3 ISZERO ISZERO DUP4 MUL DUP8 ADD SWAP5 POP PUSH2 0x2253 JUMP JUMPDEST DUP8 PUSH1 0x0 MSTORE PUSH1 0x20 DUP1 PUSH1 0x0 KECCAK256 PUSH1 0x0 JUMPDEST DUP6 DUP2 LT ISZERO PUSH2 0x224A JUMPI DUP2 SLOAD DUP11 DUP3 ADD MSTORE SWAP1 DUP5 ADD SWAP1 DUP3 ADD PUSH2 0x2231 JUMP JUMPDEST POP POP POP DUP3 DUP8 ADD SWAP5 POP JUMPDEST POP SWAP3 SWAP7 SWAP6 POP POP POP POP POP POP JUMP JUMPDEST PUSH1 0x0 PUSH1 0x20 DUP3 DUP5 SUB SLT ISZERO PUSH2 0x2271 JUMPI PUSH1 0x0 DUP1 REVERT JUMPDEST DUP2 MLOAD PUSH2 0x11FA DUP2 PUSH2 0x206F JUMP JUMPDEST PUSH1 0x0 PUSH1 0x20 DUP3 DUP5 SUB SLT ISZERO PUSH2 0x228E JUMPI PUSH1 0x0 DUP1 REVERT JUMPDEST DUP2 MLOAD PUSH2 0x11FA DUP2 PUSH2 0x1DE7 JUMP JUMPDEST PUSH1 0x0 DUP2 CALLDATALOAD PUSH2 0xFFFF DUP2 AND DUP2 EQ PUSH2 0x493 JUMPI PUSH1 0x0 DUP1 REVERT JUMPDEST PUSH1 0x0 DUP2 CALLDATALOAD PUSH8 0xFFFFFFFFFFFFFFFF DUP2 AND DUP2 EQ PUSH2 0x493 JUMPI PUSH1 0x0 DUP1 REVERT JUMPDEST PUSH1 0x0 DUP1 DUP4 CALLDATALOAD PUSH32 0xFFFFFFFFFFFFFFFFFFFFFFFFFFFFFFFFFFFFFFFFFFFFFFFFFFFFFFFFFFFFFFE1 DUP5 CALLDATASIZE SUB ADD DUP2 SLT PUSH2 0x22FC JUMPI PUSH1 0x0 DUP1 REVERT JUMPDEST DUP4 ADD DUP1 CALLDATALOAD SWAP2 POP PUSH8 0xFFFFFFFFFFFFFFFF DUP3 GT ISZERO PUSH2 0x2317 JUMPI PUSH1 0x0 DUP1 REVERT JUMPDEST PUSH1 0x20 ADD SWAP2 POP CALLDATASIZE DUP2 SWAP1 SUB DUP3 SGT ISZERO PUSH2 0x232C JUMPI PUSH1 0x0 DUP1 REVERT JUMPDEST SWAP3 POP SWAP3 SWAP1 POP JUMP JUMPDEST PUSH32 0x4E487B7100000000000000000000000000000000000000000000000000000000 PUSH1 0x0 MSTORE PUSH1 0x41 PUSH1 0x4 MSTORE PUSH1 0x24 PUSH1 0x0 REVERT JUMPDEST PUSH1 0x1F DUP3 GT ISZERO PUSH2 0x9EC JUMPI PUSH1 0x0 DUP2 PUSH1 0x0 MSTORE PUSH1 0x20 PUSH1 0x0 KECCAK256 PUSH1 0x1F DUP6 ADD PUSH1 0x5 SHR DUP2 ADD PUSH1 0x20 DUP7 LT ISZERO PUSH2 0x238B JUMPI POP DUP1 JUMPDEST PUSH1 0x1F DUP6 ADD PUSH1 0x5 SHR DUP3 ADD SWAP2 POP JUMPDEST DUP2 DUP2 LT ISZERO PUSH2 0x23AA JUMPI DUP3 DUP2 SSTORE PUSH1 0x1 ADD PUSH2 0x2397 JUMP JUMPDEST POP POP POP POP POP POP JUMP JUMPDEST PUSH8 0xFFFFFFFFFFFFFFFF DUP4 GT ISZERO PUSH2 0x23CA JUMPI PUSH2 0x23CA PUSH2 0x2333 JUMP JUMPDEST PUSH2 0x23DE DUP4 PUSH2 0x23D8 DUP4 SLOAD PUSH2 0x2178 JUMP JUMPDEST DUP4 PUSH2 0x2362 JUMP JUMPDEST PUSH1 0x0 PUSH1 0x1F DUP5 GT PUSH1 0x1 DUP2 EQ PUSH2 0x2430 JUMPI PUSH1 0x0 DUP6 ISZERO PUSH2 0x23FA JUMPI POP DUP4 DUP3 ADD CALLDATALOAD JUMPDEST PUSH32 0xFFFFFFFFFFFFFFFFFFFFFFFFFFFFFFFFFFFFFFFFFFFFFFFFFFFFFFFFFFFFFFFF PUSH1 0x3 DUP8 SWAP1 SHL SHR NOT AND PUSH1 0x1 DUP7 SWAP1 SHL OR DUP4 SSTORE PUSH2 0x114F JUMP JUMPDEST PUSH1 0x0 DUP4 DUP2 MSTORE PUSH1 0x20 SWAP1 KECCAK256 PUSH32 0xFFFFFFFFFFFFFFFFFFFFFFFFFFFFFFFFFFFFFFFFFFFFFFFFFFFFFFFFFFFFFFE0 DUP7 AND SWAP1 DUP4 JUMPDEST DUP3 DUP2 LT ISZERO PUSH2 0x247F JUMPI DUP7 DUP6 ADD CALLDATALOAD DUP3 SSTORE PUSH1 0x20 SWAP5 DUP6 ADD SWAP5 PUSH1 0x1 SWAP1 SWAP3 ADD SWAP2 ADD PUSH2 0x245F JUMP JUMPDEST POP DUP7 DUP3 LT ISZERO PUSH2 0x24BA JUMPI PUSH32 0xFFFFFFFFFFFFFFFFFFFFFFFFFFFFFFFFFFFFFFFFFFFFFFFFFFFFFFFFFFFFFFFF PUSH1 0xF8 DUP9 PUSH1 0x3 SHL AND SHR NOT DUP5 DUP8 ADD CALLDATALOAD AND DUP2 SSTORE JUMPDEST POP POP PUSH1 0x1 DUP6 PUSH1 0x1 SHL ADD DUP4 SSTORE POP POP POP POP POP JUMP JUMPDEST PUSH2 0xFFFF PUSH2 0x24D8 DUP4 PUSH2 0x2299 JUMP JUMPDEST AND DUP2 SLOAD DUP2 PUSH32 0xFFFFFFFFFFFFFFFFFFFFFFFFFFFFFFFFFFFFFFFFFFFFFFFFFFFFFFFFFFFF0000 DUP3 AND OR DUP4 SSTORE PUSH4 0xFFFF0000 PUSH2 0x2513 PUSH1 0x20 DUP7 ADD PUSH2 0x2299 JUMP JUMPDEST PUSH1 0x10 SHL AND DUP1 DUP4 PUSH32 0xFFFFFFFFFFFFFFFFFFFFFFFFFFFFFFFFFFFFFFFFFFFFFFFFFFFFFFFF00000000 DUP5 AND OR OR DUP5 SSTORE PUSH12 0xFFFFFFFFFFFFFFFF00000000 PUSH2 0x2559 PUSH1 0x40 DUP8 ADD PUSH2 0x22AD JUMP JUMPDEST PUSH1 0x20 SHL AND DUP4 PUSH32 0xFFFFFFFFFFFFFFFFFFFFFFFFFFFFFFFFFFFFFFFF000000000000000000000000 DUP5 AND OR DUP3 OR OR DUP5 SSTORE POP POP POP PUSH2 0x25DE PUSH2 0x2599 PUSH1 0x60 DUP5 ADD PUSH2 0x22AD JUMP JUMPDEST DUP3 SLOAD PUSH32 0xFFFFFFFFFFFFFFFFFFFFFFFF0000000000000000FFFFFFFFFFFFFFFFFFFFFFFF AND PUSH1 0x60 SWAP2 SWAP1 SWAP2 SHL PUSH20 0xFFFFFFFFFFFFFFFF000000000000000000000000 AND OR DUP3 SSTORE JUMP JUMPDEST PUSH2 0x263A PUSH2 0x25ED PUSH1 0x80 DUP5 ADD PUSH2 0x22AD JUMP JUMPDEST DUP3 SLOAD PUSH32 0xFFFFFFFF0000000000000000FFFFFFFFFFFFFFFFFFFFFFFFFFFFFFFFFFFFFFFF AND PUSH1 0xA0 SWAP2 SWAP1 SWAP2 SHL PUSH28 0xFFFFFFFFFFFFFFFF0000000000000000000000000000000000000000 AND OR DUP3 SSTORE JUMP JUMPDEST PUSH2 0x2647 PUSH1 0xA0 DUP4 ADD DUP4 PUSH2 0x22C7 JUMP JUMPDEST PUSH2 0x2655 DUP2 DUP4 PUSH1 0x1 DUP7 ADD PUSH2 0x23B2 JUMP JUMPDEST POP POP PUSH2 0x2664 PUSH1 0xC0 DUP4 ADD DUP4 PUSH2 0x22C7 JUMP JUMPDEST PUSH2 0x1822 DUP2 DUP4 PUSH1 0x2 DUP7 ADD PUSH2 0x23B2 JUMP JUMPDEST PUSH1 0x0 PUSH20 0xFFFFFFFFFFFFFFFFFFFFFFFFFFFFFFFFFFFFFFFF DUP1 DUP9 AND DUP4 MSTORE DUP1 DUP8 AND PUSH1 0x20 DUP5 ADD MSTORE POP DUP5 PUSH1 0x40 DUP4 ADD MSTORE PUSH1 0x80 PUSH1 0x60 DUP4 ADD MSTORE DUP3 PUSH1 0x80 DUP4 ADD MSTORE DUP3 DUP5 PUSH1 0xA0 DUP5 ADD CALLDATACOPY PUSH1 0x0 PUSH1 0xA0 DUP5 DUP5 ADD ADD MSTORE PUSH1 0xA0 PUSH32 0xFFFFFFFFFFFFFFFFFFFFFFFFFFFFFFFFFFFFFFFFFFFFFFFFFFFFFFFFFFFFFFE0 PUSH1 0x1F DUP6 ADD AND DUP4 ADD ADD SWAP1 POP SWAP7 SWAP6 POP POP POP POP POP POP JUMP JUMPDEST DUP2 DUP2 SUB DUP2 DUP2 GT ISZERO PUSH2 0x493 JUMPI PUSH32 0x4E487B7100000000000000000000000000000000000000000000000000000000 PUSH1 0x0 MSTORE PUSH1 0x11 PUSH1 0x4 MSTORE PUSH1 0x24 PUSH1 0x0 REVERT JUMPDEST PUSH1 0x0 PUSH1 0x20 DUP3 DUP5 SUB SLT ISZERO PUSH2 0x273D JUMPI PUSH1 0x0 DUP1 REVERT JUMPDEST DUP2 MLOAD PUSH8 0xFFFFFFFFFFFFFFFF DUP1 DUP3 GT ISZERO PUSH2 0x2755 JUMPI PUSH1 0x0 DUP1 REVERT JUMPDEST DUP2 DUP5 ADD SWAP2 POP DUP5 PUSH1 0x1F DUP4 ADD SLT PUSH2 0x2769 JUMPI PUSH1 0x0 DUP1 REVERT JUMPDEST DUP2 MLOAD DUP2 DUP2 GT ISZERO PUSH2 0x277B JUMPI PUSH2 0x277B PUSH2 0x2333 JUMP JUMPDEST PUSH1 0x40 MLOAD PUSH1 0x1F DUP3 ADD PUSH32 0xFFFFFFFFFFFFFFFFFFFFFFFFFFFFFFFFFFFFFFFFFFFFFFFFFFFFFFFFFFFFFFE0 SWAP1 DUP2 AND PUSH1 0x3F ADD AND DUP2 ADD SWAP1 DUP4 DUP3 GT DUP2 DUP4 LT OR ISZERO PUSH2 0x27C1 JUMPI PUSH2 0x27C1 PUSH2 0x2333 JUMP JUMPDEST DUP2 PUSH1 0x40 MSTORE DUP3 DUP2 MSTORE DUP8 PUSH1 0x20 DUP5 DUP8 ADD ADD GT ISZERO PUSH2 0x27DA JUMPI PUSH1 0x0 DUP1 REVERT JUMPDEST PUSH2 0x27EB DUP4 PUSH1 0x20 DUP4 ADD PUSH1 0x20 DUP9 ADD PUSH2 0x1E32 JUMP JUMPDEST SWAP8 SWAP7 POP POP POP POP POP POP POP JUMP INVALID LOG2 PUSH5 0x6970667358 0x22 SLT KECCAK256 DUP8 0xA9 CREATE2 0xCB 0xAF 0x4F DUP11 0xAE DUP8 0x26 0x25 DUP13 SWAP6 0x2E PUSH9 0x64D610DD28C157F7C 0x2A 0xCD 0xD4 PUSH23 0x7ECC5B8364736F6C634300081600330000000000000000 "},"gasEstimates":{"creation":{"codeDepositCost":"2056800","executionCost":"infinite","totalCost":"infinite"},"external":{"MINTER_ROLE()":"306","OPERATOR_ROLE()":"305","allowTransfer(address,uint256)":"infinite","allowedTransfers(uint256)":"2499","approve(address,uint256)":"387","balanceOf(address)":"infinite","burn(uint256)":"infinite","getApproved(uint256)":"351","grantRole(bytes32,address)":"infinite","hasRole(bytes32,address)":"infinite","isApprovedForAll(address,address)":"infinite","metadataResolver()":"infinite","mint(address,uint256,(uint16,uint16,uint64,uint64,uint64,string,string))":"infinite","name()":"infinite","owner()":"infinite","ownerOf(uint256)":"infinite","removeAllowedTransfer(uint256)":"infinite","renounceRole(bytes32)":"infinite","revokeRole(bytes32,address)":"infinite","safeTransferFrom(address,address,uint256)":"infinite","safeTransferFrom(address,address,uint256,bytes)":"infinite","setApprovalForAll(address,bool)":"infinite","setRevocationRegistry(address)":"infinite","supportsInterface(bytes4)":"infinite","symbol()":"infinite","tokenURI(uint256)":"infinite","transferFrom(address,address,uint256)":"infinite","transferOwnership(address)":"infinite","vcData(uint256)":"infinite"}},"methodIdentifiers":{"MINTER_ROLE()":"d5391393","OPERATOR_ROLE()":"f5b541a6","allowTransfer(address,uint256)":"19c02b27","allowedTransfers(uint256)":"3886d512","approve(address,uint256)":"095ea7b3","balanceOf(address)":"70a08231","burn(uint256)":"42966c68","getApproved(uint256)":"081812fc","grantRole(bytes32,address)":"2f2ff15d","hasRole(bytes32,address)":"91d14854","isApprovedForAll(address,address)":"e985e9c5","metadataResolver()":"a0c76f62","mint(address,uint256,(uint16,uint16,uint64,uint64,uint64,string,string))":"54c7be06","name()":"06fdde03","owner()":"8da5cb5b","ownerOf(uint256)":"6352211e","removeAllowedTransfer(uint256)":"42532616","renounceRole(bytes32)":"8bb9c5bf","revokeRole(bytes32,address)":"d547741f","safeTransferFrom(address,address,uint256)":"42842e0e","safeTransferFrom(address,address,uint256,bytes)":"b88d4fde","setApprovalForAll(address,bool)":"a22cb465","setRevocationRegistry(address)":"95f94bc4","supportsInterface(bytes4)":"01ffc9a7","symbol()":"95d89b41","tokenURI(uint256)":"c87b56dd","transferFrom(address,address,uint256)":"23b872dd","transferOwnership(address)":"f2fde38b","vcData(uint256)":"4bae2be8"}},"storageLayout":{"storage":[{"astId":4207,"contract":"contracts/vc/OpenCampusCertificateNFTv1.sol:OpenCampusCertificateNFTv1","label":"_revocationRegistry","offset":0,"slot":"0","type":"t_contract(IRevocationRegistry)4884"},{"astId":4223,"contract":"contracts/vc/OpenCampusCertificateNFTv1.sol:OpenCampusCertificateNFTv1","label":"vcData","offset":0,"slot":"1","type":"t_mapping(t_uint256,t_struct(MetaData)4901_storage)"},{"astId":4227,"contract":"contracts/vc/OpenCampusCertificateNFTv1.sol:OpenCampusCertificateNFTv1","label":"allowedTransfers","offset":0,"slot":"2","type":"t_mapping(t_uint256,t_address)"}],"types":{"t_address":{"encoding":"inplace","label":"address","numberOfBytes":"20"},"t_contract(IRevocationRegistry)4884":{"encoding":"inplace","label":"contract IRevocationRegistry","numberOfBytes":"20"},"t_mapping(t_uint256,t_address)":{"encoding":"mapping","key":"t_uint256","label":"mapping(uint256 => address)","numberOfBytes":"32","value":"t_address"},"t_mapping(t_uint256,t_struct(MetaData)4901_storage)":{"encoding":"mapping","key":"t_uint256","label":"mapping(uint256 => struct CertificateNFTv1MetaData.MetaData)","numberOfBytes":"32","value":"t_struct(MetaData)4901_storage"},"t_string_storage":{"encoding":"bytes","label":"string","numberOfBytes":"32"},"t_struct(MetaData)4901_storage":{"encoding":"inplace","label":"struct CertificateNFTv1MetaData.MetaData","members":[{"astId":4888,"contract":"contracts/vc/OpenCampusCertificateNFTv1.sol:OpenCampusCertificateNFTv1","label":"schemaVersion","offset":0,"slot":"0","type":"t_uint16"},{"astId":4890,"contract":"contracts/vc/OpenCampusCertificateNFTv1.sol:OpenCampusCertificateNFTv1","label":"achievementType","offset":2,"slot":"0","type":"t_uint16"},{"astId":4892,"contract":"contracts/vc/OpenCampusCertificateNFTv1.sol:OpenCampusCertificateNFTv1","label":"awardedDate","offset":4,"slot":"0","type":"t_uint64"},{"astId":4894,"contract":"contracts/vc/OpenCampusCertificateNFTv1.sol:OpenCampusCertificateNFTv1","label":"validFrom","offset":12,"slot":"0","type":"t_uint64"},{"astId":4896,"contract":"contracts/vc/OpenCampusCertificateNFTv1.sol:OpenCampusCertificateNFTv1","label":"validUtil","offset":20,"slot":"0","type":"t_uint64"},{"astId":4898,"contract":"contracts/vc/OpenCampusCertificateNFTv1.sol:OpenCampusCertificateNFTv1","label":"issuerDid","offset":0,"slot":"1","type":"t_string_storage"},{"astId":4900,"contract":"contracts/vc/OpenCampusCertificateNFTv1.sol:OpenCampusCertificateNFTv1","label":"achievementId","offset":0,"slot":"2","type":"t_string_storage"}],"numberOfBytes":"96"},"t_uint16":{"encoding":"inplace","label":"uint16","numberOfBytes":"2"},"t_uint256":{"encoding":"inplace","label":"uint256","numberOfBytes":"32"},"t_uint64":{"encoding":"inplace","label":"uint64","numberOfBytes":"8"}}},"userdoc":{"errors":{"ERC721BalanceOfAddressZero()":[{"notice":"Thrown when querying the balance of the zero address."}],"ERC721ExistingToken(uint256)":[{"notice":"Thrown when minting a token that already exists."}],"ERC721MintToAddressZero()":[{"notice":"Thrown when minting a token to the zero address."}],"ERC721NonApprovedForTransfer(address,address,uint256)":[{"notice":"Thrown when a sender tries to transfer a token but is neither the owner nor approved by the owner."}],"ERC721NonExistingToken(uint256)":[{"notice":"Thrown when a token does not exist but is required to."}],"ERC721NonOwnedToken(address,uint256)":[{"notice":"Thrown when a token is not owned by the expected account."}],"ERC721SafeTransferRejected(address,uint256)":[{"notice":"Thrown when a safe transfer is rejected by the recipient contract."}],"IllegalInterfaceId()":[{"notice":"Thrown when setting the illegal interfaceId 0xffffffff."}],"InvalidBurn()":[{"notice":"Thrown when burn operation cannot be executed."}],"NoOperatorAllowed()":[{"notice":"Thrown when any operator related methods are called."}],"NonExistingAllowedTransfer(uint256)":[{"notice":"Thrown when there is no allowed transfer for `tokenId`"}],"NotContractOwner(address)":[{"notice":"Thrown when an account is not the contract owner but is required to."}],"NotRoleHolder(bytes32,address)":[{"notice":"Thrown when an account does not have the required role."}],"RedundantAllowedTransfer(address)":[{"notice":"Thrown when allowed transfer is called with receipt same as owner."}],"TransferNotAllowed()":[{"notice":"Thrown when any transfer functions are called but not allowed."}]},"events":{"AllowedTransferRemoved(address,uint256,address)":{"notice":"Emitted when `tokenId`'s approval to transfer to `destination` is removed by `sender`."},"OwnershipTransferred(address,address)":{"notice":"Emitted when the contract ownership changes."},"RoleGranted(bytes32,address,address)":{"notice":"Emitted when `role` is granted to `account`."},"RoleRevoked(bytes32,address,address)":{"notice":"Emitted when `role` is revoked from `account`."},"Transfer(address,address,uint256)":{"notice":"Emitted when a token is transferred."},"TransferAllowed(address,uint256,address)":{"notice":"Emitted when `tokenId` was granted approval to transfer to `destination` by `sender`."}},"kind":"user","methods":{"allowTransfer(address,uint256)":{"notice":"Allow a one time transfer of `tokenId` to `recipient`."},"approve(address,uint256)":{"notice":"Sets or unsets an approval to transfer a single token on behalf of its owner."},"balanceOf(address)":{"notice":"Gets the balance of an address."},"getApproved(uint256)":{"notice":"Gets the approved address for a token."},"grantRole(bytes32,address)":{"notice":"Grants a role to an account."},"hasRole(bytes32,address)":{"notice":"Retrieves whether an account has a role."},"isApprovedForAll(address,address)":{"notice":"Gets whether an operator is approved for all tokens by an owner."},"metadataResolver()":{"notice":"Gets the token metadata resolver address."},"name()":{"notice":"Gets the name of the token. E.g. \"My Token\"."},"owner()":{"notice":"Gets the address of the contract owner."},"ownerOf(uint256)":{"notice":"Gets the owner of a token."},"removeAllowedTransfer(uint256)":{"notice":"Remove the one time transfer that was allowed before for `tokenId`."},"renounceRole(bytes32)":{"notice":"Renounces a role by the sender."},"revokeRole(bytes32,address)":{"notice":"Revokes a role from an account."},"safeTransferFrom(address,address,uint256)":{"notice":"Unsafely transfers the ownership of a token to a recipient by a sender. The transfer has to be previously approved by a token's issuer or an operator."},"safeTransferFrom(address,address,uint256,bytes)":{"notice":"Unsafely transfers the ownership of a token to a recipient by a sender. The transfer has to be previously approved by a token's issuer or an operator."},"setApprovalForAll(address,bool)":{"notice":"Sets or unsets an approval to transfer all tokens on behalf of their owner."},"supportsInterface(bytes4)":{"notice":"Returns whether this contract implements a given interface."},"symbol()":{"notice":"Gets the symbol of the token. E.g. \"TOK\"."},"tokenURI(uint256)":{"notice":"Gets the metadata URI for a token identifier."},"transferFrom(address,address,uint256)":{"notice":"Unsafely transfers the ownership of a token to a recipient by a sender. The transfer has to be previously approved by a token's issuer or an operator."},"transferOwnership(address)":{"notice":"Sets the address of the new contract owner."}},"version":1}}}}