{"contracts/payment/LimitedOCPointsMerkleClaim.sol":{"LimitedOCPointsMerkleClaim":{"abi":[{"inputs":[{"internalType":"address","name":"pointsContractAddress","type":"address"},{"internalType":"contract IForwarderRegistry","name":"forwarderRegistry","type":"address"}],"stateMutability":"nonpayable","type":"constructor"},{"inputs":[{"internalType":"address","name":"recipient","type":"address"},{"internalType":"uint256","name":"amount","type":"uint256"},{"internalType":"bytes32","name":"reasonCode","type":"bytes32"},{"internalType":"uint256","name":"epochId","type":"uint256"}],"name":"AlreadyClaimed","type":"error"},{"inputs":[{"internalType":"uint256","name":"epochId","type":"uint256"}],"name":"ClaimEpochNotFound","type":"error"},{"inputs":[{"internalType":"uint256","name":"currentTime","type":"uint256"},{"internalType":"uint256","name":"startTime","type":"uint256"},{"internalType":"uint256","name":"endTime","type":"uint256"}],"name":"ClaimingEpochNotActive","type":"error"},{"inputs":[],"name":"IllegalInterfaceId","type":"error"},{"inputs":[],"name":"InconsistentArrayLengths","type":"error"},{"inputs":[{"internalType":"uint256","name":"amountRequested","type":"uint256"},{"internalType":"uint256","name":"amountAvailable","type":"uint256"}],"name":"InsufficientPoolAmount","type":"error"},{"inputs":[{"internalType":"uint256","name":"startTime","type":"uint256"},{"internalType":"uint256","name":"endTime","type":"uint256"}],"name":"InvalidClaimWindow","type":"error"},{"inputs":[{"internalType":"address","name":"InvalidPointsContractAddress","type":"address"}],"name":"InvalidPointsContractAddress","type":"error"},{"inputs":[{"internalType":"address","name":"recipient","type":"address"},{"internalType":"uint256","name":"amount","type":"uint256"},{"internalType":"bytes32","name":"reasonCode","type":"bytes32"},{"internalType":"uint256","name":"epochId","type":"uint256"}],"name":"InvalidProof","type":"error"},{"inputs":[{"internalType":"address","name":"account","type":"address"}],"name":"NotContractOwner","type":"error"},{"anonymous":false,"inputs":[{"indexed":true,"internalType":"uint256","name":"epochId","type":"uint256"},{"indexed":true,"internalType":"bytes32","name":"merkleRoot","type":"bytes32"},{"indexed":false,"internalType":"uint256","name":"totalAmount","type":"uint256"},{"indexed":false,"internalType":"uint256","name":"startTime","type":"uint256"},{"indexed":false,"internalType":"uint256","name":"endTime","type":"uint256"}],"name":"MerkleRootSet","type":"event"},{"anonymous":false,"inputs":[{"indexed":true,"internalType":"address","name":"previousOwner","type":"address"},{"indexed":true,"internalType":"address","name":"newOwner","type":"address"}],"name":"OwnershipTransferred","type":"event"},{"anonymous":false,"inputs":[{"indexed":true,"internalType":"uint256","name":"epochId","type":"uint256"},{"indexed":true,"internalType":"bytes32","name":"merkleRoot","type":"bytes32"},{"indexed":true,"internalType":"address","name":"recipient","type":"address"},{"indexed":false,"internalType":"uint256","name":"amount","type":"uint256"},{"indexed":false,"internalType":"uint256","name":"amountLeft","type":"uint256"}],"name":"PointsClaimed","type":"event"},{"inputs":[],"name":"POINTS_CONTRACT","outputs":[{"internalType":"contract IPoints","name":"","type":"address"}],"stateMutability":"view","type":"function"},{"inputs":[{"internalType":"uint256","name":"epochId","type":"uint256"},{"internalType":"address","name":"recipient","type":"address"},{"internalType":"uint256","name":"amount","type":"uint256"},{"internalType":"bytes32","name":"reasonCode","type":"bytes32"}],"name":"canClaim","outputs":[{"internalType":"enum LimitedOCPointsMerkleClaim.ClaimError","name":"","type":"uint8"}],"stateMutability":"view","type":"function"},{"inputs":[{"internalType":"uint256","name":"epochId","type":"uint256"},{"internalType":"address","name":"recipient","type":"address"},{"internalType":"uint256","name":"amount","type":"uint256"},{"internalType":"bytes32","name":"reasonCode","type":"bytes32"},{"internalType":"bytes32[]","name":"proof","type":"bytes32[]"}],"name":"claim","outputs":[],"stateMutability":"nonpayable","type":"function"},{"inputs":[{"internalType":"uint256","name":"","type":"uint256"}],"name":"claimEpochs","outputs":[{"internalType":"bytes32","name":"merkleRoot","type":"bytes32"},{"internalType":"uint256","name":"totalAmount","type":"uint256"},{"internalType":"uint256","name":"amountLeft","type":"uint256"},{"internalType":"uint256","name":"startTime","type":"uint256"},{"internalType":"uint256","name":"endTime","type":"uint256"}],"stateMutability":"view","type":"function"},{"inputs":[{"internalType":"bytes32","name":"","type":"bytes32"}],"name":"claimed","outputs":[{"internalType":"bool","name":"","type":"bool"}],"stateMutability":"view","type":"function"},{"inputs":[],"name":"currentEpochId","outputs":[{"internalType":"uint256","name":"","type":"uint256"}],"stateMutability":"view","type":"function"},{"inputs":[],"name":"forwarderRegistry","outputs":[{"internalType":"contract IForwarderRegistry","name":"","type":"address"}],"stateMutability":"view","type":"function"},{"inputs":[{"internalType":"address","name":"forwarder","type":"address"}],"name":"isTrustedForwarder","outputs":[{"internalType":"bool","name":"","type":"bool"}],"stateMutability":"view","type":"function"},{"inputs":[],"name":"owner","outputs":[{"internalType":"address","name":"","type":"address"}],"stateMutability":"view","type":"function"},{"inputs":[{"internalType":"address[]","name":"accounts","type":"address[]"},{"internalType":"contract IERC20[]","name":"tokens","type":"address[]"},{"internalType":"uint256[]","name":"amounts","type":"uint256[]"}],"name":"recoverERC20s","outputs":[],"stateMutability":"nonpayable","type":"function"},{"inputs":[{"internalType":"address[]","name":"accounts","type":"address[]"},{"internalType":"contract IERC721[]","name":"contracts","type":"address[]"},{"internalType":"uint256[]","name":"tokenIds","type":"uint256[]"}],"name":"recoverERC721s","outputs":[],"stateMutability":"nonpayable","type":"function"},{"inputs":[{"internalType":"address payable[]","name":"accounts","type":"address[]"},{"internalType":"uint256[]","name":"amounts","type":"uint256[]"}],"name":"recoverETH","outputs":[],"stateMutability":"nonpayable","type":"function"},{"inputs":[{"internalType":"bytes32","name":"merkleRoot","type":"bytes32"},{"internalType":"uint256","name":"totalAmount","type":"uint256"},{"internalType":"uint256","name":"startTime","type":"uint256"},{"internalType":"uint256","name":"endTime","type":"uint256"}],"name":"setMerkleRoot","outputs":[],"stateMutability":"nonpayable","type":"function"},{"inputs":[{"internalType":"bytes4","name":"interfaceId","type":"bytes4"}],"name":"supportsInterface","outputs":[{"internalType":"bool","name":"","type":"bool"}],"stateMutability":"view","type":"function"},{"inputs":[{"internalType":"address","name":"newOwner","type":"address"}],"name":"transferOwnership","outputs":[],"stateMutability":"nonpayable","type":"function"}],"devdoc":{"errors":{"AlreadyClaimed(address,uint256,bytes32,uint256)":[{"params":{"amount":"The amount being claimed.","epochId":"The epoch identifier for a specific claiming epoch.","reasonCode":"The reason code for the deposit.","recipient":"The recipient of the claim."}}],"ClaimEpochNotFound(uint256)":[{"params":{"epochId":"The epoch identifier for a specific claiming epoch."}}],"ClaimingEpochNotActive(uint256,uint256,uint256)":[{"params":{"currentTime":"The current block timestamp.","endTime":"The end time of the claiming epoch.","startTime":"The start time of the claiming epoch."}}],"InsufficientPoolAmount(uint256,uint256)":[{"params":{"amountAvailable":"The amount available in the pool.","amountRequested":"The amount requested to claim."}}],"InvalidClaimWindow(uint256,uint256)":[{"params":{"endTime":"The end time.","startTime":"The start time."}}],"InvalidPointsContractAddress(address)":[{"params":{"InvalidPointsContractAddress":"The address of the invalid points contract."}}],"InvalidProof(address,uint256,bytes32,uint256)":[{"params":{"amount":"The amount being claimed.","epochId":"The epoch identifier for a specific claiming epoch.","reasonCode":"The reason code for the deposit.","recipient":"The recipient of the claim."}}],"NotContractOwner(address)":[{"params":{"account":"The account that was checked."}}]},"events":{"MerkleRootSet(uint256,bytes32,uint256,uint256,uint256)":{"params":{"endTime":"The end time for claiming.","epochId":"The epoch identifier for a specific claiming epoch.","merkleRoot":"The merkle root for this epoch.","startTime":"The start time for claiming.","totalAmount":"The total amount available for claiming."}},"OwnershipTransferred(address,address)":{"params":{"newOwner":"the new contract owner.","previousOwner":"the previous contract owner."}},"PointsClaimed(uint256,bytes32,address,uint256,uint256)":{"params":{"amount":"The amount claimed.","amountLeft":"The amount left in the pool after this claim.","epochId":"The epoch identifier for a specific claiming epoch.","merkleRoot":"The merkle root for this epoch.","recipient":"The recipient of the claim."}}},"kind":"dev","methods":{"canClaim(uint256,address,uint256,bytes32)":{"details":"Returns ClaimError.ClaimEpochNotFound if the epoch doesn't exist.Returns ClaimError.ClaimingEpochNotActive if the current time is outside the claiming epoch.Returns ClaimError.AlreadyClaimed if the user has already claimed for this epoch.Returns ClaimError.InsufficientPoolAmount if the pool doesn't have enough tokens.Returns ClaimError.NoError if basic validation passes.","params":{"amount":"The amount to be claimed.","epochId":"The epoch identifier for a specific claiming epoch.","reasonCode":"The reason code for the deposit.","recipient":"The recipient address."},"returns":{"_0":"error The claim validation result."}},"claim(uint256,address,uint256,bytes32,bytes32[])":{"details":"Reverts with {ClaimEpochNotFound} if the epoch doesn't exist.Reverts with {ClaimingEpochNotActive} if the current time is outside the claiming epoch.Reverts with {AlreadyClaimed} if the user has already claimed for this epoch.Reverts with {InvalidProof} if the merkle proof verification fails.Reverts with {InsufficientPoolAmount} if the pool doesn't have enough tokens.Emits a {PointsClaimed} event.","params":{"amount":"The amount of points to be claimed.","epochId":"The epoch identifier for a specific claiming epoch.","proof":"The merkle proof for verification.","reasonCode":"The reason code for the deposit.","recipient":"The recipient for the points."}},"constructor":{"details":"Reverts with {InvalidPointsContractAddress} if the points contract address is the zero address.","params":{"forwarderRegistry":"The address of the forwarder registry.","pointsContractAddress":"The address of the points contract."}},"isTrustedForwarder(address)":{"params":{"forwarder":"The forwarder to check."},"returns":{"_0":"True if `forwarder` is trusted, false if not."}},"owner()":{"returns":{"_0":"The address of the contract owner."}},"recoverERC20s(address[],address[],uint256[])":{"details":"Warning: this function should be overriden for contracts which are supposed to hold ERC20 tokens  so that the extraction is limited to only amounts sent accidentally.Reverts with {NotContractOwner} if the sender is not the contract owner.Reverts with {InconsistentArrayLengths} if `accounts`, `tokens` and `amounts` do not have the same length.Reverts if one of the ERC20 transfers fails for any reason.","params":{"accounts":"the list of accounts to transfer the tokens to.","amounts":"the list of token amounts to transfer.","tokens":"the list of ERC20 token addresses."}},"recoverERC721s(address[],address[],uint256[])":{"details":"Warning: this function should be overriden for contracts which are supposed to hold ERC721 tokens  so that the extraction is limited to only tokens sent accidentally.Reverts with {NotContractOwner} if the sender is not the contract owner.Reverts with {InconsistentArrayLengths} if `accounts`, `contracts` and `amounts` do not have the same length.Reverts if one of the ERC721 transfers fails for any reason.","params":{"accounts":"the list of accounts to transfer the tokens to.","contracts":"the list of ERC721 contract addresses.","tokenIds":"the list of token ids to transfer."}},"recoverETH(address[],uint256[])":{"details":"Note: While contracts can generally prevent accidental ETH transfer by implementating a reverting  `receive()` function, this can still be bypassed in a `selfdestruct(address)` scenario.Warning: this function should be overriden for contracts which are supposed to hold ETH tokens  so that the extraction is limited to only amounts sent accidentally.Reverts with {NotContractOwner} if the sender is not the contract owner.Reverts with {InconsistentArrayLengths} `accounts` and `amounts` do not have the same length.Reverts if one of the ETH transfers fails for any reason.","params":{"accounts":"the list of accounts to transfer the tokens to.","amounts":"the list of token amounts to transfer."}},"setMerkleRoot(bytes32,uint256,uint256,uint256)":{"details":"Reverts with {NotContractOwner} if the sender is not the contract owner.Reverts with {InvalidClaimWindow} if the end time is not after the start time and the end time is in the past.Emits a {MerkleRootSet} event.","params":{"endTime":"The end time for claiming.","merkleRoot":"The merkle root for this epoch.","startTime":"The start time for claiming.","totalAmount":"The total amount available for claiming in this epoch."}},"supportsInterface(bytes4)":{"details":"Note: This function call must use less than 30 000 gas.","params":{"interfaceId":"the interface identifier to test."},"returns":{"_0":"True if the interface is supported, false if `interfaceId` is `0xffffffff` or if the interface is not supported."}},"transferOwnership(address)":{"details":"Reverts if the sender is not the contract owner.Emits an {OwnershipTransferred} event if `newOwner` is different from the current contract owner.","params":{"newOwner":"The address of the new contract owner. Using the zero address means renouncing ownership."}}},"title":"LimitedOCPointsMerkleClaim","version":1},"evm":{"bytecode":{"linkReferences":{},"object":"60c06040523480156200001157600080fd5b5060405162001c9638038062001c968339810160408190526200003491620001f7565b8080336200004d8162000046620000a0565b90620000d6565b506001600160a01b03908116608052831690506200008d576040516302caf95f60e61b81526001600160a01b038316600482015260240160405180910390fd5b506001600160a01b031660a05262000258565b600080620000d060017fc9ed16f33ab3a66c84bfd83099ccb2a8845871e2e1c1928f63797152f0fd54cd62000236565b92915050565b6001600160a01b038116156200012d5781546001600160a01b0319166001600160a01b03821690811783556040516000907f8be0079c531659141344cd1fd0a4f28419497f9722a3daafe3b4186f6b6457e0908290a35b6200014d6307f5828d60e41b60016200014562000151565b919062000181565b5050565b600080620000d060017fca9d3e17f264b0f3984e2634e94adb37fa3e6a8103f06aeae6fa59e21c769f5e62000236565b600160e01b6001600160e01b0319831601620001b0576040516372c683bb60e01b815260040160405180910390fd5b6001600160e01b03199190911660009081526020929092526040909120805460ff1916911515919091179055565b6001600160a01b0381168114620001f457600080fd5b50565b600080604083850312156200020b57600080fd5b82516200021881620001de565b60208401519092506200022b81620001de565b809150509250929050565b81810381811115620000d057634e487b7160e01b600052601160045260246000fd5b60805160a0516119fc6200029a600039600081816101830152610645015260008181610139015281816101b5015281816111f7015261127f01526119fc6000f3fe608060405234801561001057600080fd5b50600436106100f55760003560e01c806373c8a95811610097578063cc3c0f0611610066578063cc3c0f06146102b7578063eacdc5ff146102da578063f2fde38b146102f1578063f7ba94bd1461030457600080fd5b806373c8a95814610276578063833d47b6146102895780638da5cb5b1461029c578063c3666c36146102a457600080fd5b80632d4c2f93116100d35780632d4c2f931461017e578063572b6c05146101a55780635c9a509b146101f2578063673d588a1461025657600080fd5b806301ffc9a7146100fa5780632035a4dd146101225780632b4c9f1614610137575b600080fd5b61010d6101083660046115ad565b610317565b60405190151581526020015b60405180910390f35b61013561013036600461165d565b610331565b005b7f00000000000000000000000000000000000000000000000000000000000000005b60405173ffffffffffffffffffffffffffffffffffffffff9091168152602001610119565b6101597f000000000000000000000000000000000000000000000000000000000000000081565b61010d6101b33660046116d0565b7f000000000000000000000000000000000000000000000000000000000000000073ffffffffffffffffffffffffffffffffffffffff90811691161490565b61022e6102003660046116ed565b6001602081905260009182526040909120805491810154600282015460038301546004909301549192909185565b604080519586526020860194909452928401919091526060830152608082015260a001610119565b610269610264366004611706565b61070f565b6040516101199190611743565b610135610284366004611784565b610820565b61013561029736600461180c565b610924565b610159610a29565b6101356102b2366004611784565b610a55565b61010d6102c53660046116ed565b60026020526000908152604090205460ff1681565b6102e360005481565b604051908152602001610119565b6101356102ff3660046116d0565b610bcd565b61013561031236600461183e565b610beb565b600061032b82610325610caa565b90610cd8565b92915050565b6000868152600160205260409020805461037f576040517f07cba261000000000000000000000000000000000000000000000000000000008152600481018890526024015b60405180910390fd5b600381015442908110806103965750816004015481115b156103ea5760038201546004808401546040517fc06e9f3a00000000000000000000000000000000000000000000000000000000815291820184905260248201929092526044810191909152606401610376565b6040517fffffffffffffffffffffffffffffffffffffffff000000000000000000000000606089901b166020820152603481018790526054810186905260748101899052600090609401604080517fffffffffffffffffffffffffffffffffffffffffffffffffffffffffffffffe081840301815291815281516020928301206000818152600290935291205490915060ff16156104e1576040517f7635807d00000000000000000000000000000000000000000000000000000000815273ffffffffffffffffffffffffffffffffffffffff891660048201526024810188905260448101879052606481018a9052608401610376565b868360020154101561052f5760028301546040517f23090a31000000000000000000000000000000000000000000000000000000008152610376918991600401918252602082015260400190565b825461053f908690869084610db2565b6105a2576040517fa041b52e00000000000000000000000000000000000000000000000000000000815273ffffffffffffffffffffffffffffffffffffffff891660048201526024810188905260448101879052606481018a9052608401610376565b6000818152600260208190526040822080547fffffffffffffffffffffffffffffffffffffffffffffffffffffffffffffff00166001179055840180548992906105ed9084906118aa565b90915550506040517f26b3293f00000000000000000000000000000000000000000000000000000000815273ffffffffffffffffffffffffffffffffffffffff898116600483015260248201899052604482018890527f000000000000000000000000000000000000000000000000000000000000000016906326b3293f90606401600060405180830381600087803b15801561068957600080fd5b505af115801561069d573d6000803e3d6000fd5b505050508773ffffffffffffffffffffffffffffffffffffffff1683600001548a7facb564b139c0c98f98d1aac465303613e3f5b098a49a18f544e414170a81a4e28a87600201546040516106fc929190918252602082015260400190565b60405180910390a4505050505050505050565b6000848152600160205260408120805461072d576001915050610818565b600381015442908110806107445750816004015481115b1561075457600292505050610818565b6040517fffffffffffffffffffffffffffffffffffffffff000000000000000000000000606088901b166020820152603481018690526054810185905260748101889052600090609401604080517fffffffffffffffffffffffffffffffffffffffffffffffffffffffffffffffe081840301815291815281516020928301206000818152600290935291205490915060ff16156107f85760039350505050610818565b85836002015410156108105760049350505050610818565b600093505050505b949350505050565b61083961082b610dca565b610833610dd4565b90610e02565b8483811415806108495750808214155b15610880576040517f6582533600000000000000000000000000000000000000000000000000000000815260040160405180910390fd5b60005b8181101561091a576109128888838181106108a0576108a06118e4565b90506020020160208101906108b591906116d0565b8585848181106108c7576108c76118e4565b905060200201358888858181106108e0576108e06118e4565b90506020020160208101906108f591906116d0565b73ffffffffffffffffffffffffffffffffffffffff169190610e71565b600101610883565b5050505050505050565b61092f61082b610dca565b808210158061093e5750428111155b1561097f576040517f779acdff0000000000000000000000000000000000000000000000000000000081526004810183905260248101829052604401610376565b600080546040805160a081018252878152602080820188815282840189815260608085018a8152608086018a8152888a526001808752888b209751885594518786015592516002870155516003860155905160049094019390935585540190945581518781529384018690529083018490529091869183917f331c648136af10432045d8cc15dfaee6ca9568922f85cab02d96d5f5286c8920910160405180910390a35050505050565b6000610a50610a36610dd4565b5473ffffffffffffffffffffffffffffffffffffffff1690565b905090565b610a6061082b610dca565b848381141580610a705750808214155b15610aa7576040517f6582533600000000000000000000000000000000000000000000000000000000815260040160405180910390fd5b60005b8181101561091a57858582818110610ac457610ac46118e4565b9050602002016020810190610ad991906116d0565b73ffffffffffffffffffffffffffffffffffffffff166323b872dd308a8a85818110610b0757610b076118e4565b9050602002016020810190610b1c91906116d0565b878786818110610b2e57610b2e6118e4565b6040517fffffffff0000000000000000000000000000000000000000000000000000000060e088901b16815273ffffffffffffffffffffffffffffffffffffffff958616600482015294909316602485015250602090910201356044820152606401600060405180830381600087803b158015610baa57600080fd5b505af1158015610bbe573d6000803e3d6000fd5b50505050806001019050610aaa565b610be8610bd8610dca565b82610be1610dd4565b9190610f03565b50565b610bf661082b610dca565b82818114610c30576040517f6582533600000000000000000000000000000000000000000000000000000000815260040160405180910390fd5b60005b81811015610ca257610c9a848483818110610c5057610c506118e4565b90506020020135878784818110610c6957610c696118e4565b9050602002016020810190610c7e91906116d0565b73ffffffffffffffffffffffffffffffffffffffff1690611018565b600101610c33565b505050505050565b60008061032b60017fca9d3e17f264b0f3984e2634e94adb37fa3e6a8103f06aeae6fa59e21c769f5e6118aa565b60007c01000000000000000000000000000000000000000000000000000000007fffffffff00000000000000000000000000000000000000000000000000000000831601610d285750600061032b565b7ffe003659000000000000000000000000000000000000000000000000000000007fffffffff00000000000000000000000000000000000000000000000000000000831601610d795750600161032b565b507fffffffff00000000000000000000000000000000000000000000000000000000166000908152602091909152604090205460ff1690565b600082610dc0868685611172565b1495945050505050565b6000610a506111b4565b60008061032b60017fc9ed16f33ab3a66c84bfd83099ccb2a8845871e2e1c1928f63797152f0fd54cd6118aa565b815473ffffffffffffffffffffffffffffffffffffffff828116911614610e6d576040517f2ef4875e00000000000000000000000000000000000000000000000000000000815273ffffffffffffffffffffffffffffffffffffffff82166004820152602401610376565b5050565b6040805173ffffffffffffffffffffffffffffffffffffffff8416602482015260448082018490528251808303909101815260649091019091526020810180517bffffffffffffffffffffffffffffffffffffffffffffffffffffffff167fa9059cbb00000000000000000000000000000000000000000000000000000000179052610efe9084906112fb565b505050565b825473ffffffffffffffffffffffffffffffffffffffff9081169083168114610f70576040517f2ef4875e00000000000000000000000000000000000000000000000000000000815273ffffffffffffffffffffffffffffffffffffffff84166004820152602401610376565b8173ffffffffffffffffffffffffffffffffffffffff168173ffffffffffffffffffffffffffffffffffffffff16146110125783547fffffffffffffffffffffffff00000000000000000000000000000000000000001673ffffffffffffffffffffffffffffffffffffffff8381169182178655604051908316907f8be0079c531659141344cd1fd0a4f28419497f9722a3daafe3b4186f6b6457e090600090a35b50505050565b80471015611082576040517f08c379a000000000000000000000000000000000000000000000000000000000815260206004820152601d60248201527f416464726573733a20696e73756666696369656e742062616c616e63650000006044820152606401610376565b60008273ffffffffffffffffffffffffffffffffffffffff168260405160006040518083038185875af1925050503d80600081146110dc576040519150601f19603f3d011682016040523d82523d6000602084013e6110e1565b606091505b5050905080610efe576040517f08c379a000000000000000000000000000000000000000000000000000000000815260206004820152603a60248201527f416464726573733a20756e61626c6520746f2073656e642076616c75652c207260448201527f6563697069656e74206d617920686176652072657665727465640000000000006064820152608401610376565b600081815b848110156111ab576111a182878784818110611195576111956118e4565b9050602002013561140a565b9150600101611177565b50949350505050565b6000333214806111c45750601836105b156111ce57503390565b7fffffffffffffffffffffffffffffffffffffffffffffffffffffffffffffffec36013560601c7f000000000000000000000000000000000000000000000000000000000000000073ffffffffffffffffffffffffffffffffffffffff163314806112ea57506040517f8929a8ca00000000000000000000000000000000000000000000000000000000815273ffffffffffffffffffffffffffffffffffffffff82811660048301523360248301527f00000000000000000000000000000000000000000000000000000000000000001690638929a8ca90604401602060405180830381865afa1580156112c6573d6000803e3d6000fd5b505050506040513d601f19601f820116820180604052508101906112ea9190611913565b156112f457919050565b3391505090565b600061135d826040518060400160405280602081526020017f5361666545524332303a206c6f772d6c6576656c2063616c6c206661696c65648152508573ffffffffffffffffffffffffffffffffffffffff1661143c9092919063ffffffff16565b905080516000148061137e57508080602001905181019061137e9190611913565b610efe576040517f08c379a000000000000000000000000000000000000000000000000000000000815260206004820152602a60248201527f5361666545524332303a204552433230206f7065726174696f6e20646964206e60448201527f6f742073756363656564000000000000000000000000000000000000000000006064820152608401610376565b6000818310611426576000828152602084905260409020611435565b60008381526020839052604090205b9392505050565b60606108188484600085856000808673ffffffffffffffffffffffffffffffffffffffff1685876040516114709190611959565b60006040518083038185875af1925050503d80600081146114ad576040519150601f19603f3d011682016040523d82523d6000602084013e6114b2565b606091505b50915091506114c3878383876114ce565b979650505050505050565b6060831561156457825160000361155d5773ffffffffffffffffffffffffffffffffffffffff85163b61155d576040517f08c379a000000000000000000000000000000000000000000000000000000000815260206004820152601d60248201527f416464726573733a2063616c6c20746f206e6f6e2d636f6e74726163740000006044820152606401610376565b5081610818565b61081883838151156115795781518083602001fd5b806040517f08c379a00000000000000000000000000000000000000000000000000000000081526004016103769190611975565b6000602082840312156115bf57600080fd5b81357fffffffff000000000000000000000000000000000000000000000000000000008116811461143557600080fd5b73ffffffffffffffffffffffffffffffffffffffff81168114610be857600080fd5b60008083601f84011261162357600080fd5b50813567ffffffffffffffff81111561163b57600080fd5b6020830191508360208260051b850101111561165657600080fd5b9250929050565b60008060008060008060a0878903121561167657600080fd5b863595506020870135611688816115ef565b94506040870135935060608701359250608087013567ffffffffffffffff8111156116b257600080fd5b6116be89828a01611611565b979a9699509497509295939492505050565b6000602082840312156116e257600080fd5b8135611435816115ef565b6000602082840312156116ff57600080fd5b5035919050565b6000806000806080858703121561171c57600080fd5b84359350602085013561172e816115ef565b93969395505050506040820135916060013590565b602081016005831061177e577f4e487b7100000000000000000000000000000000000000000000000000000000600052602160045260246000fd5b91905290565b6000806000806000806060878903121561179d57600080fd5b863567ffffffffffffffff808211156117b557600080fd5b6117c18a838b01611611565b909850965060208901359150808211156117da57600080fd5b6117e68a838b01611611565b909650945060408901359150808211156117ff57600080fd5b506116be89828a01611611565b6000806000806080858703121561182257600080fd5b5050823594602084013594506040840135936060013592509050565b6000806000806040858703121561185457600080fd5b843567ffffffffffffffff8082111561186c57600080fd5b61187888838901611611565b9096509450602087013591508082111561189157600080fd5b5061189e87828801611611565b95989497509550505050565b8181038181111561032b577f4e487b7100000000000000000000000000000000000000000000000000000000600052601160045260246000fd5b7f4e487b7100000000000000000000000000000000000000000000000000000000600052603260045260246000fd5b60006020828403121561192557600080fd5b8151801515811461143557600080fd5b60005b83811015611950578181015183820152602001611938565b50506000910152565b6000825161196b818460208701611935565b9190910192915050565b6020815260008251806020840152611994816040850160208701611935565b601f017fffffffffffffffffffffffffffffffffffffffffffffffffffffffffffffffe016919091016040019291505056fea26469706673582212203ede5a4d8a33bee3ff3e4a139d65cd16360b2fd9211df58f94c695925e4ec21164736f6c63430008160033","opcodes":"PUSH1 0xC0 PUSH1 0x40 MSTORE CALLVALUE DUP1 ISZERO PUSH3 0x11 JUMPI PUSH1 0x0 DUP1 REVERT JUMPDEST POP PUSH1 0x40 MLOAD PUSH3 0x1C96 CODESIZE SUB DUP1 PUSH3 0x1C96 DUP4 CODECOPY DUP2 ADD PUSH1 0x40 DUP2 SWAP1 MSTORE PUSH3 0x34 SWAP2 PUSH3 0x1F7 JUMP JUMPDEST DUP1 DUP1 CALLER PUSH3 0x4D DUP2 PUSH3 0x46 PUSH3 0xA0 JUMP JUMPDEST SWAP1 PUSH3 0xD6 JUMP JUMPDEST POP PUSH1 0x1 PUSH1 0x1 PUSH1 0xA0 SHL SUB SWAP1 DUP2 AND PUSH1 0x80 MSTORE DUP4 AND SWAP1 POP PUSH3 0x8D JUMPI PUSH1 0x40 MLOAD PUSH4 0x2CAF95F PUSH1 0xE6 SHL DUP2 MSTORE PUSH1 0x1 PUSH1 0x1 PUSH1 0xA0 SHL SUB DUP4 AND PUSH1 0x4 DUP3 ADD MSTORE PUSH1 0x24 ADD PUSH1 0x40 MLOAD DUP1 SWAP2 SUB SWAP1 REVERT JUMPDEST POP PUSH1 0x1 PUSH1 0x1 PUSH1 0xA0 SHL SUB AND PUSH1 0xA0 MSTORE PUSH3 0x258 JUMP JUMPDEST PUSH1 0x0 DUP1 PUSH3 0xD0 PUSH1 0x1 PUSH32 0xC9ED16F33AB3A66C84BFD83099CCB2A8845871E2E1C1928F63797152F0FD54CD PUSH3 0x236 JUMP JUMPDEST SWAP3 SWAP2 POP POP JUMP JUMPDEST PUSH1 0x1 PUSH1 0x1 PUSH1 0xA0 SHL SUB DUP2 AND ISZERO PUSH3 0x12D JUMPI DUP2 SLOAD PUSH1 0x1 PUSH1 0x1 PUSH1 0xA0 SHL SUB NOT AND PUSH1 0x1 PUSH1 0x1 PUSH1 0xA0 SHL SUB DUP3 AND SWAP1 DUP2 OR DUP4 SSTORE PUSH1 0x40 MLOAD PUSH1 0x0 SWAP1 PUSH32 0x8BE0079C531659141344CD1FD0A4F28419497F9722A3DAAFE3B4186F6B6457E0 SWAP1 DUP3 SWAP1 LOG3 JUMPDEST PUSH3 0x14D PUSH4 0x7F5828D PUSH1 0xE4 SHL PUSH1 0x1 PUSH3 0x145 PUSH3 0x151 JUMP JUMPDEST SWAP2 SWAP1 PUSH3 0x181 JUMP JUMPDEST POP POP JUMP JUMPDEST PUSH1 0x0 DUP1 PUSH3 0xD0 PUSH1 0x1 PUSH32 0xCA9D3E17F264B0F3984E2634E94ADB37FA3E6A8103F06AEAE6FA59E21C769F5E PUSH3 0x236 JUMP JUMPDEST PUSH1 0x1 PUSH1 0xE0 SHL PUSH1 0x1 PUSH1 0x1 PUSH1 0xE0 SHL SUB NOT DUP4 AND ADD PUSH3 0x1B0 JUMPI PUSH1 0x40 MLOAD PUSH4 0x72C683BB PUSH1 0xE0 SHL DUP2 MSTORE PUSH1 0x4 ADD PUSH1 0x40 MLOAD DUP1 SWAP2 SUB SWAP1 REVERT JUMPDEST PUSH1 0x1 PUSH1 0x1 PUSH1 0xE0 SHL SUB NOT SWAP2 SWAP1 SWAP2 AND PUSH1 0x0 SWAP1 DUP2 MSTORE PUSH1 0x20 SWAP3 SWAP1 SWAP3 MSTORE PUSH1 0x40 SWAP1 SWAP2 KECCAK256 DUP1 SLOAD PUSH1 0xFF NOT AND SWAP2 ISZERO ISZERO SWAP2 SWAP1 SWAP2 OR SWAP1 SSTORE JUMP JUMPDEST PUSH1 0x1 PUSH1 0x1 PUSH1 0xA0 SHL SUB DUP2 AND DUP2 EQ PUSH3 0x1F4 JUMPI PUSH1 0x0 DUP1 REVERT JUMPDEST POP JUMP JUMPDEST PUSH1 0x0 DUP1 PUSH1 0x40 DUP4 DUP6 SUB SLT ISZERO PUSH3 0x20B JUMPI PUSH1 0x0 DUP1 REVERT JUMPDEST DUP3 MLOAD PUSH3 0x218 DUP2 PUSH3 0x1DE JUMP JUMPDEST PUSH1 0x20 DUP5 ADD MLOAD SWAP1 SWAP3 POP PUSH3 0x22B DUP2 PUSH3 0x1DE JUMP JUMPDEST DUP1 SWAP2 POP POP SWAP3 POP SWAP3 SWAP1 POP JUMP JUMPDEST DUP2 DUP2 SUB DUP2 DUP2 GT ISZERO PUSH3 0xD0 JUMPI PUSH4 0x4E487B71 PUSH1 0xE0 SHL PUSH1 0x0 MSTORE PUSH1 0x11 PUSH1 0x4 MSTORE PUSH1 0x24 PUSH1 0x0 REVERT JUMPDEST PUSH1 0x80 MLOAD PUSH1 0xA0 MLOAD PUSH2 0x19FC PUSH3 0x29A PUSH1 0x0 CODECOPY PUSH1 0x0 DUP2 DUP2 PUSH2 0x183 ADD MSTORE PUSH2 0x645 ADD MSTORE PUSH1 0x0 DUP2 DUP2 PUSH2 0x139 ADD MSTORE DUP2 DUP2 PUSH2 0x1B5 ADD MSTORE DUP2 DUP2 PUSH2 0x11F7 ADD MSTORE PUSH2 0x127F ADD MSTORE PUSH2 0x19FC PUSH1 0x0 RETURN INVALID PUSH1 0x80 PUSH1 0x40 MSTORE CALLVALUE DUP1 ISZERO PUSH2 0x10 JUMPI PUSH1 0x0 DUP1 REVERT JUMPDEST POP PUSH1 0x4 CALLDATASIZE LT PUSH2 0xF5 JUMPI PUSH1 0x0 CALLDATALOAD PUSH1 0xE0 SHR DUP1 PUSH4 0x73C8A958 GT PUSH2 0x97 JUMPI DUP1 PUSH4 0xCC3C0F06 GT PUSH2 0x66 JUMPI DUP1 PUSH4 0xCC3C0F06 EQ PUSH2 0x2B7 JUMPI DUP1 PUSH4 0xEACDC5FF EQ PUSH2 0x2DA JUMPI DUP1 PUSH4 0xF2FDE38B EQ PUSH2 0x2F1 JUMPI DUP1 PUSH4 0xF7BA94BD EQ PUSH2 0x304 JUMPI PUSH1 0x0 DUP1 REVERT JUMPDEST DUP1 PUSH4 0x73C8A958 EQ PUSH2 0x276 JUMPI DUP1 PUSH4 0x833D47B6 EQ PUSH2 0x289 JUMPI DUP1 PUSH4 0x8DA5CB5B EQ PUSH2 0x29C JUMPI DUP1 PUSH4 0xC3666C36 EQ PUSH2 0x2A4 JUMPI PUSH1 0x0 DUP1 REVERT JUMPDEST DUP1 PUSH4 0x2D4C2F93 GT PUSH2 0xD3 JUMPI DUP1 PUSH4 0x2D4C2F93 EQ PUSH2 0x17E JUMPI DUP1 PUSH4 0x572B6C05 EQ PUSH2 0x1A5 JUMPI DUP1 PUSH4 0x5C9A509B EQ PUSH2 0x1F2 JUMPI DUP1 PUSH4 0x673D588A EQ PUSH2 0x256 JUMPI PUSH1 0x0 DUP1 REVERT JUMPDEST DUP1 PUSH4 0x1FFC9A7 EQ PUSH2 0xFA JUMPI DUP1 PUSH4 0x2035A4DD EQ PUSH2 0x122 JUMPI DUP1 PUSH4 0x2B4C9F16 EQ PUSH2 0x137 JUMPI JUMPDEST PUSH1 0x0 DUP1 REVERT JUMPDEST PUSH2 0x10D PUSH2 0x108 CALLDATASIZE PUSH1 0x4 PUSH2 0x15AD JUMP JUMPDEST PUSH2 0x317 JUMP JUMPDEST PUSH1 0x40 MLOAD SWAP1 ISZERO ISZERO DUP2 MSTORE PUSH1 0x20 ADD JUMPDEST PUSH1 0x40 MLOAD DUP1 SWAP2 SUB SWAP1 RETURN JUMPDEST PUSH2 0x135 PUSH2 0x130 CALLDATASIZE PUSH1 0x4 PUSH2 0x165D JUMP JUMPDEST PUSH2 0x331 JUMP JUMPDEST STOP JUMPDEST PUSH32 0x0 JUMPDEST PUSH1 0x40 MLOAD PUSH20 0xFFFFFFFFFFFFFFFFFFFFFFFFFFFFFFFFFFFFFFFF SWAP1 SWAP2 AND DUP2 MSTORE PUSH1 0x20 ADD PUSH2 0x119 JUMP JUMPDEST PUSH2 0x159 PUSH32 0x0 DUP2 JUMP JUMPDEST PUSH2 0x10D PUSH2 0x1B3 CALLDATASIZE PUSH1 0x4 PUSH2 0x16D0 JUMP JUMPDEST PUSH32 0x0 PUSH20 0xFFFFFFFFFFFFFFFFFFFFFFFFFFFFFFFFFFFFFFFF SWAP1 DUP2 AND SWAP2 AND EQ SWAP1 JUMP JUMPDEST PUSH2 0x22E PUSH2 0x200 CALLDATASIZE PUSH1 0x4 PUSH2 0x16ED JUMP JUMPDEST PUSH1 0x1 PUSH1 0x20 DUP2 SWAP1 MSTORE PUSH1 0x0 SWAP2 DUP3 MSTORE PUSH1 0x40 SWAP1 SWAP2 KECCAK256 DUP1 SLOAD SWAP2 DUP2 ADD SLOAD PUSH1 0x2 DUP3 ADD SLOAD PUSH1 0x3 DUP4 ADD SLOAD PUSH1 0x4 SWAP1 SWAP4 ADD SLOAD SWAP2 SWAP3 SWAP1 SWAP2 DUP6 JUMP JUMPDEST PUSH1 0x40 DUP1 MLOAD SWAP6 DUP7 MSTORE PUSH1 0x20 DUP7 ADD SWAP5 SWAP1 SWAP5 MSTORE SWAP3 DUP5 ADD SWAP2 SWAP1 SWAP2 MSTORE PUSH1 0x60 DUP4 ADD MSTORE PUSH1 0x80 DUP3 ADD MSTORE PUSH1 0xA0 ADD PUSH2 0x119 JUMP JUMPDEST PUSH2 0x269 PUSH2 0x264 CALLDATASIZE PUSH1 0x4 PUSH2 0x1706 JUMP JUMPDEST PUSH2 0x70F JUMP JUMPDEST PUSH1 0x40 MLOAD PUSH2 0x119 SWAP2 SWAP1 PUSH2 0x1743 JUMP JUMPDEST PUSH2 0x135 PUSH2 0x284 CALLDATASIZE PUSH1 0x4 PUSH2 0x1784 JUMP JUMPDEST PUSH2 0x820 JUMP JUMPDEST PUSH2 0x135 PUSH2 0x297 CALLDATASIZE PUSH1 0x4 PUSH2 0x180C JUMP JUMPDEST PUSH2 0x924 JUMP JUMPDEST PUSH2 0x159 PUSH2 0xA29 JUMP JUMPDEST PUSH2 0x135 PUSH2 0x2B2 CALLDATASIZE PUSH1 0x4 PUSH2 0x1784 JUMP JUMPDEST PUSH2 0xA55 JUMP JUMPDEST PUSH2 0x10D PUSH2 0x2C5 CALLDATASIZE PUSH1 0x4 PUSH2 0x16ED JUMP JUMPDEST PUSH1 0x2 PUSH1 0x20 MSTORE PUSH1 0x0 SWAP1 DUP2 MSTORE PUSH1 0x40 SWAP1 KECCAK256 SLOAD PUSH1 0xFF AND DUP2 JUMP JUMPDEST PUSH2 0x2E3 PUSH1 0x0 SLOAD DUP2 JUMP JUMPDEST PUSH1 0x40 MLOAD SWAP1 DUP2 MSTORE PUSH1 0x20 ADD PUSH2 0x119 JUMP JUMPDEST PUSH2 0x135 PUSH2 0x2FF CALLDATASIZE PUSH1 0x4 PUSH2 0x16D0 JUMP JUMPDEST PUSH2 0xBCD JUMP JUMPDEST PUSH2 0x135 PUSH2 0x312 CALLDATASIZE PUSH1 0x4 PUSH2 0x183E JUMP JUMPDEST PUSH2 0xBEB JUMP JUMPDEST PUSH1 0x0 PUSH2 0x32B DUP3 PUSH2 0x325 PUSH2 0xCAA JUMP JUMPDEST SWAP1 PUSH2 0xCD8 JUMP JUMPDEST SWAP3 SWAP2 POP POP JUMP JUMPDEST PUSH1 0x0 DUP7 DUP2 MSTORE PUSH1 0x1 PUSH1 0x20 MSTORE PUSH1 0x40 SWAP1 KECCAK256 DUP1 SLOAD PUSH2 0x37F JUMPI PUSH1 0x40 MLOAD PUSH32 0x7CBA26100000000000000000000000000000000000000000000000000000000 DUP2 MSTORE PUSH1 0x4 DUP2 ADD DUP9 SWAP1 MSTORE PUSH1 0x24 ADD JUMPDEST PUSH1 0x40 MLOAD DUP1 SWAP2 SUB SWAP1 REVERT JUMPDEST PUSH1 0x3 DUP2 ADD SLOAD TIMESTAMP SWAP1 DUP2 LT DUP1 PUSH2 0x396 JUMPI POP DUP2 PUSH1 0x4 ADD SLOAD DUP2 GT JUMPDEST ISZERO PUSH2 0x3EA JUMPI PUSH1 0x3 DUP3 ADD SLOAD PUSH1 0x4 DUP1 DUP5 ADD SLOAD PUSH1 0x40 MLOAD PUSH32 0xC06E9F3A00000000000000000000000000000000000000000000000000000000 DUP2 MSTORE SWAP2 DUP3 ADD DUP5 SWAP1 MSTORE PUSH1 0x24 DUP3 ADD SWAP3 SWAP1 SWAP3 MSTORE PUSH1 0x44 DUP2 ADD SWAP2 SWAP1 SWAP2 MSTORE PUSH1 0x64 ADD PUSH2 0x376 JUMP JUMPDEST PUSH1 0x40 MLOAD PUSH32 0xFFFFFFFFFFFFFFFFFFFFFFFFFFFFFFFFFFFFFFFF000000000000000000000000 PUSH1 0x60 DUP10 SWAP1 SHL AND PUSH1 0x20 DUP3 ADD MSTORE PUSH1 0x34 DUP2 ADD DUP8 SWAP1 MSTORE PUSH1 0x54 DUP2 ADD DUP7 SWAP1 MSTORE PUSH1 0x74 DUP2 ADD DUP10 SWAP1 MSTORE PUSH1 0x0 SWAP1 PUSH1 0x94 ADD PUSH1 0x40 DUP1 MLOAD PUSH32 0xFFFFFFFFFFFFFFFFFFFFFFFFFFFFFFFFFFFFFFFFFFFFFFFFFFFFFFFFFFFFFFE0 DUP2 DUP5 SUB ADD DUP2 MSTORE SWAP2 DUP2 MSTORE DUP2 MLOAD PUSH1 0x20 SWAP3 DUP4 ADD KECCAK256 PUSH1 0x0 DUP2 DUP2 MSTORE PUSH1 0x2 SWAP1 SWAP4 MSTORE SWAP2 KECCAK256 SLOAD SWAP1 SWAP2 POP PUSH1 0xFF AND ISZERO PUSH2 0x4E1 JUMPI PUSH1 0x40 MLOAD PUSH32 0x7635807D00000000000000000000000000000000000000000000000000000000 DUP2 MSTORE PUSH20 0xFFFFFFFFFFFFFFFFFFFFFFFFFFFFFFFFFFFFFFFF DUP10 AND PUSH1 0x4 DUP3 ADD MSTORE PUSH1 0x24 DUP2 ADD DUP9 SWAP1 MSTORE PUSH1 0x44 DUP2 ADD DUP8 SWAP1 MSTORE PUSH1 0x64 DUP2 ADD DUP11 SWAP1 MSTORE PUSH1 0x84 ADD PUSH2 0x376 JUMP JUMPDEST DUP7 DUP4 PUSH1 0x2 ADD SLOAD LT ISZERO PUSH2 0x52F JUMPI PUSH1 0x2 DUP4 ADD SLOAD PUSH1 0x40 MLOAD PUSH32 0x23090A3100000000000000000000000000000000000000000000000000000000 DUP2 MSTORE PUSH2 0x376 SWAP2 DUP10 SWAP2 PUSH1 0x4 ADD SWAP2 DUP3 MSTORE PUSH1 0x20 DUP3 ADD MSTORE PUSH1 0x40 ADD SWAP1 JUMP JUMPDEST DUP3 SLOAD PUSH2 0x53F SWAP1 DUP7 SWAP1 DUP7 SWAP1 DUP5 PUSH2 0xDB2 JUMP JUMPDEST PUSH2 0x5A2 JUMPI PUSH1 0x40 MLOAD PUSH32 0xA041B52E00000000000000000000000000000000000000000000000000000000 DUP2 MSTORE PUSH20 0xFFFFFFFFFFFFFFFFFFFFFFFFFFFFFFFFFFFFFFFF DUP10 AND PUSH1 0x4 DUP3 ADD MSTORE PUSH1 0x24 DUP2 ADD DUP9 SWAP1 MSTORE PUSH1 0x44 DUP2 ADD DUP8 SWAP1 MSTORE PUSH1 0x64 DUP2 ADD DUP11 SWAP1 MSTORE PUSH1 0x84 ADD PUSH2 0x376 JUMP JUMPDEST PUSH1 0x0 DUP2 DUP2 MSTORE PUSH1 0x2 PUSH1 0x20 DUP2 SWAP1 MSTORE PUSH1 0x40 DUP3 KECCAK256 DUP1 SLOAD PUSH32 0xFFFFFFFFFFFFFFFFFFFFFFFFFFFFFFFFFFFFFFFFFFFFFFFFFFFFFFFFFFFFFF00 AND PUSH1 0x1 OR SWAP1 SSTORE DUP5 ADD DUP1 SLOAD DUP10 SWAP3 SWAP1 PUSH2 0x5ED SWAP1 DUP5 SWAP1 PUSH2 0x18AA JUMP JUMPDEST SWAP1 SWAP2 SSTORE POP POP PUSH1 0x40 MLOAD PUSH32 0x26B3293F00000000000000000000000000000000000000000000000000000000 DUP2 MSTORE PUSH20 0xFFFFFFFFFFFFFFFFFFFFFFFFFFFFFFFFFFFFFFFF DUP10 DUP2 AND PUSH1 0x4 DUP4 ADD MSTORE PUSH1 0x24 DUP3 ADD DUP10 SWAP1 MSTORE PUSH1 0x44 DUP3 ADD DUP9 SWAP1 MSTORE PUSH32 0x0 AND SWAP1 PUSH4 0x26B3293F SWAP1 PUSH1 0x64 ADD PUSH1 0x0 PUSH1 0x40 MLOAD DUP1 DUP4 SUB DUP2 PUSH1 0x0 DUP8 DUP1 EXTCODESIZE ISZERO DUP1 ISZERO PUSH2 0x689 JUMPI PUSH1 0x0 DUP1 REVERT JUMPDEST POP GAS CALL ISZERO DUP1 ISZERO PUSH2 0x69D JUMPI RETURNDATASIZE PUSH1 0x0 DUP1 RETURNDATACOPY RETURNDATASIZE PUSH1 0x0 REVERT JUMPDEST POP POP POP POP DUP8 PUSH20 0xFFFFFFFFFFFFFFFFFFFFFFFFFFFFFFFFFFFFFFFF AND DUP4 PUSH1 0x0 ADD SLOAD DUP11 PUSH32 0xACB564B139C0C98F98D1AAC465303613E3F5B098A49A18F544E414170A81A4E2 DUP11 DUP8 PUSH1 0x2 ADD SLOAD PUSH1 0x40 MLOAD PUSH2 0x6FC SWAP3 SWAP2 SWAP1 SWAP2 DUP3 MSTORE PUSH1 0x20 DUP3 ADD MSTORE PUSH1 0x40 ADD SWAP1 JUMP JUMPDEST PUSH1 0x40 MLOAD DUP1 SWAP2 SUB SWAP1 LOG4 POP POP POP POP POP POP POP POP POP JUMP JUMPDEST PUSH1 0x0 DUP5 DUP2 MSTORE PUSH1 0x1 PUSH1 0x20 MSTORE PUSH1 0x40 DUP2 KECCAK256 DUP1 SLOAD PUSH2 0x72D JUMPI PUSH1 0x1 SWAP2 POP POP PUSH2 0x818 JUMP JUMPDEST PUSH1 0x3 DUP2 ADD SLOAD TIMESTAMP SWAP1 DUP2 LT DUP1 PUSH2 0x744 JUMPI POP DUP2 PUSH1 0x4 ADD SLOAD DUP2 GT JUMPDEST ISZERO PUSH2 0x754 JUMPI PUSH1 0x2 SWAP3 POP POP POP PUSH2 0x818 JUMP JUMPDEST PUSH1 0x40 MLOAD PUSH32 0xFFFFFFFFFFFFFFFFFFFFFFFFFFFFFFFFFFFFFFFF000000000000000000000000 PUSH1 0x60 DUP9 SWAP1 SHL AND PUSH1 0x20 DUP3 ADD MSTORE PUSH1 0x34 DUP2 ADD DUP7 SWAP1 MSTORE PUSH1 0x54 DUP2 ADD DUP6 SWAP1 MSTORE PUSH1 0x74 DUP2 ADD DUP9 SWAP1 MSTORE PUSH1 0x0 SWAP1 PUSH1 0x94 ADD PUSH1 0x40 DUP1 MLOAD PUSH32 0xFFFFFFFFFFFFFFFFFFFFFFFFFFFFFFFFFFFFFFFFFFFFFFFFFFFFFFFFFFFFFFE0 DUP2 DUP5 SUB ADD DUP2 MSTORE SWAP2 DUP2 MSTORE DUP2 MLOAD PUSH1 0x20 SWAP3 DUP4 ADD KECCAK256 PUSH1 0x0 DUP2 DUP2 MSTORE PUSH1 0x2 SWAP1 SWAP4 MSTORE SWAP2 KECCAK256 SLOAD SWAP1 SWAP2 POP PUSH1 0xFF AND ISZERO PUSH2 0x7F8 JUMPI PUSH1 0x3 SWAP4 POP POP POP POP PUSH2 0x818 JUMP JUMPDEST DUP6 DUP4 PUSH1 0x2 ADD SLOAD LT ISZERO PUSH2 0x810 JUMPI PUSH1 0x4 SWAP4 POP POP POP POP PUSH2 0x818 JUMP JUMPDEST PUSH1 0x0 SWAP4 POP POP POP POP JUMPDEST SWAP5 SWAP4 POP POP POP POP JUMP JUMPDEST PUSH2 0x839 PUSH2 0x82B PUSH2 0xDCA JUMP JUMPDEST PUSH2 0x833 PUSH2 0xDD4 JUMP JUMPDEST SWAP1 PUSH2 0xE02 JUMP JUMPDEST DUP5 DUP4 DUP2 EQ ISZERO DUP1 PUSH2 0x849 JUMPI POP DUP1 DUP3 EQ ISZERO JUMPDEST ISZERO PUSH2 0x880 JUMPI PUSH1 0x40 MLOAD PUSH32 0x6582533600000000000000000000000000000000000000000000000000000000 DUP2 MSTORE PUSH1 0x4 ADD PUSH1 0x40 MLOAD DUP1 SWAP2 SUB SWAP1 REVERT JUMPDEST PUSH1 0x0 JUMPDEST DUP2 DUP2 LT ISZERO PUSH2 0x91A JUMPI PUSH2 0x912 DUP9 DUP9 DUP4 DUP2 DUP2 LT PUSH2 0x8A0 JUMPI PUSH2 0x8A0 PUSH2 0x18E4 JUMP JUMPDEST SWAP1 POP PUSH1 0x20 MUL ADD PUSH1 0x20 DUP2 ADD SWAP1 PUSH2 0x8B5 SWAP2 SWAP1 PUSH2 0x16D0 JUMP JUMPDEST DUP6 DUP6 DUP5 DUP2 DUP2 LT PUSH2 0x8C7 JUMPI PUSH2 0x8C7 PUSH2 0x18E4 JUMP JUMPDEST SWAP1 POP PUSH1 0x20 MUL ADD CALLDATALOAD DUP9 DUP9 DUP6 DUP2 DUP2 LT PUSH2 0x8E0 JUMPI PUSH2 0x8E0 PUSH2 0x18E4 JUMP JUMPDEST SWAP1 POP PUSH1 0x20 MUL ADD PUSH1 0x20 DUP2 ADD SWAP1 PUSH2 0x8F5 SWAP2 SWAP1 PUSH2 0x16D0 JUMP JUMPDEST PUSH20 0xFFFFFFFFFFFFFFFFFFFFFFFFFFFFFFFFFFFFFFFF AND SWAP2 SWAP1 PUSH2 0xE71 JUMP JUMPDEST PUSH1 0x1 ADD PUSH2 0x883 JUMP JUMPDEST POP POP POP POP POP POP POP POP JUMP JUMPDEST PUSH2 0x92F PUSH2 0x82B PUSH2 0xDCA JUMP JUMPDEST DUP1 DUP3 LT ISZERO DUP1 PUSH2 0x93E JUMPI POP TIMESTAMP DUP2 GT ISZERO JUMPDEST ISZERO PUSH2 0x97F JUMPI PUSH1 0x40 MLOAD PUSH32 0x779ACDFF00000000000000000000000000000000000000000000000000000000 DUP2 MSTORE PUSH1 0x4 DUP2 ADD DUP4 SWAP1 MSTORE PUSH1 0x24 DUP2 ADD DUP3 SWAP1 MSTORE PUSH1 0x44 ADD PUSH2 0x376 JUMP JUMPDEST PUSH1 0x0 DUP1 SLOAD PUSH1 0x40 DUP1 MLOAD PUSH1 0xA0 DUP2 ADD DUP3 MSTORE DUP8 DUP2 MSTORE PUSH1 0x20 DUP1 DUP3 ADD DUP9 DUP2 MSTORE DUP3 DUP5 ADD DUP10 DUP2 MSTORE PUSH1 0x60 DUP1 DUP6 ADD DUP11 DUP2 MSTORE PUSH1 0x80 DUP7 ADD DUP11 DUP2 MSTORE DUP9 DUP11 MSTORE PUSH1 0x1 DUP1 DUP8 MSTORE DUP9 DUP12 KECCAK256 SWAP8 MLOAD DUP9 SSTORE SWAP5 MLOAD DUP8 DUP7 ADD SSTORE SWAP3 MLOAD PUSH1 0x2 DUP8 ADD SSTORE MLOAD PUSH1 0x3 DUP7 ADD SSTORE SWAP1 MLOAD PUSH1 0x4 SWAP1 SWAP5 ADD SWAP4 SWAP1 SWAP4 SSTORE DUP6 SLOAD ADD SWAP1 SWAP5 SSTORE DUP2 MLOAD DUP8 DUP2 MSTORE SWAP4 DUP5 ADD DUP7 SWAP1 MSTORE SWAP1 DUP4 ADD DUP5 SWAP1 MSTORE SWAP1 SWAP2 DUP7 SWAP2 DUP4 SWAP2 PUSH32 0x331C648136AF10432045D8CC15DFAEE6CA9568922F85CAB02D96D5F5286C8920 SWAP2 ADD PUSH1 0x40 MLOAD DUP1 SWAP2 SUB SWAP1 LOG3 POP POP POP POP POP JUMP JUMPDEST PUSH1 0x0 PUSH2 0xA50 PUSH2 0xA36 PUSH2 0xDD4 JUMP JUMPDEST SLOAD PUSH20 0xFFFFFFFFFFFFFFFFFFFFFFFFFFFFFFFFFFFFFFFF AND SWAP1 JUMP JUMPDEST SWAP1 POP SWAP1 JUMP JUMPDEST PUSH2 0xA60 PUSH2 0x82B PUSH2 0xDCA JUMP JUMPDEST DUP5 DUP4 DUP2 EQ ISZERO DUP1 PUSH2 0xA70 JUMPI POP DUP1 DUP3 EQ ISZERO JUMPDEST ISZERO PUSH2 0xAA7 JUMPI PUSH1 0x40 MLOAD PUSH32 0x6582533600000000000000000000000000000000000000000000000000000000 DUP2 MSTORE PUSH1 0x4 ADD PUSH1 0x40 MLOAD DUP1 SWAP2 SUB SWAP1 REVERT JUMPDEST PUSH1 0x0 JUMPDEST DUP2 DUP2 LT ISZERO PUSH2 0x91A JUMPI DUP6 DUP6 DUP3 DUP2 DUP2 LT PUSH2 0xAC4 JUMPI PUSH2 0xAC4 PUSH2 0x18E4 JUMP JUMPDEST SWAP1 POP PUSH1 0x20 MUL ADD PUSH1 0x20 DUP2 ADD SWAP1 PUSH2 0xAD9 SWAP2 SWAP1 PUSH2 0x16D0 JUMP JUMPDEST PUSH20 0xFFFFFFFFFFFFFFFFFFFFFFFFFFFFFFFFFFFFFFFF AND PUSH4 0x23B872DD ADDRESS DUP11 DUP11 DUP6 DUP2 DUP2 LT PUSH2 0xB07 JUMPI PUSH2 0xB07 PUSH2 0x18E4 JUMP JUMPDEST SWAP1 POP PUSH1 0x20 MUL ADD PUSH1 0x20 DUP2 ADD SWAP1 PUSH2 0xB1C SWAP2 SWAP1 PUSH2 0x16D0 JUMP JUMPDEST DUP8 DUP8 DUP7 DUP2 DUP2 LT PUSH2 0xB2E JUMPI PUSH2 0xB2E PUSH2 0x18E4 JUMP JUMPDEST PUSH1 0x40 MLOAD PUSH32 0xFFFFFFFF00000000000000000000000000000000000000000000000000000000 PUSH1 0xE0 DUP9 SWAP1 SHL AND DUP2 MSTORE PUSH20 0xFFFFFFFFFFFFFFFFFFFFFFFFFFFFFFFFFFFFFFFF SWAP6 DUP7 AND PUSH1 0x4 DUP3 ADD MSTORE SWAP5 SWAP1 SWAP4 AND PUSH1 0x24 DUP6 ADD MSTORE POP PUSH1 0x20 SWAP1 SWAP2 MUL ADD CALLDATALOAD PUSH1 0x44 DUP3 ADD MSTORE PUSH1 0x64 ADD PUSH1 0x0 PUSH1 0x40 MLOAD DUP1 DUP4 SUB DUP2 PUSH1 0x0 DUP8 DUP1 EXTCODESIZE ISZERO DUP1 ISZERO PUSH2 0xBAA JUMPI PUSH1 0x0 DUP1 REVERT JUMPDEST POP GAS CALL ISZERO DUP1 ISZERO PUSH2 0xBBE JUMPI RETURNDATASIZE PUSH1 0x0 DUP1 RETURNDATACOPY RETURNDATASIZE PUSH1 0x0 REVERT JUMPDEST POP POP POP POP DUP1 PUSH1 0x1 ADD SWAP1 POP PUSH2 0xAAA JUMP JUMPDEST PUSH2 0xBE8 PUSH2 0xBD8 PUSH2 0xDCA JUMP JUMPDEST DUP3 PUSH2 0xBE1 PUSH2 0xDD4 JUMP JUMPDEST SWAP2 SWAP1 PUSH2 0xF03 JUMP JUMPDEST POP JUMP JUMPDEST PUSH2 0xBF6 PUSH2 0x82B PUSH2 0xDCA JUMP JUMPDEST DUP3 DUP2 DUP2 EQ PUSH2 0xC30 JUMPI PUSH1 0x40 MLOAD PUSH32 0x6582533600000000000000000000000000000000000000000000000000000000 DUP2 MSTORE PUSH1 0x4 ADD PUSH1 0x40 MLOAD DUP1 SWAP2 SUB SWAP1 REVERT JUMPDEST PUSH1 0x0 JUMPDEST DUP2 DUP2 LT ISZERO PUSH2 0xCA2 JUMPI PUSH2 0xC9A DUP5 DUP5 DUP4 DUP2 DUP2 LT PUSH2 0xC50 JUMPI PUSH2 0xC50 PUSH2 0x18E4 JUMP JUMPDEST SWAP1 POP PUSH1 0x20 MUL ADD CALLDATALOAD DUP8 DUP8 DUP5 DUP2 DUP2 LT PUSH2 0xC69 JUMPI PUSH2 0xC69 PUSH2 0x18E4 JUMP JUMPDEST SWAP1 POP PUSH1 0x20 MUL ADD PUSH1 0x20 DUP2 ADD SWAP1 PUSH2 0xC7E SWAP2 SWAP1 PUSH2 0x16D0 JUMP JUMPDEST PUSH20 0xFFFFFFFFFFFFFFFFFFFFFFFFFFFFFFFFFFFFFFFF AND SWAP1 PUSH2 0x1018 JUMP JUMPDEST PUSH1 0x1 ADD PUSH2 0xC33 JUMP JUMPDEST POP POP POP POP POP POP JUMP JUMPDEST PUSH1 0x0 DUP1 PUSH2 0x32B PUSH1 0x1 PUSH32 0xCA9D3E17F264B0F3984E2634E94ADB37FA3E6A8103F06AEAE6FA59E21C769F5E PUSH2 0x18AA JUMP JUMPDEST PUSH1 0x0 PUSH29 0x100000000000000000000000000000000000000000000000000000000 PUSH32 0xFFFFFFFF00000000000000000000000000000000000000000000000000000000 DUP4 AND ADD PUSH2 0xD28 JUMPI POP PUSH1 0x0 PUSH2 0x32B JUMP JUMPDEST PUSH32 0xFE00365900000000000000000000000000000000000000000000000000000000 PUSH32 0xFFFFFFFF00000000000000000000000000000000000000000000000000000000 DUP4 AND ADD PUSH2 0xD79 JUMPI POP PUSH1 0x1 PUSH2 0x32B JUMP JUMPDEST POP PUSH32 0xFFFFFFFF00000000000000000000000000000000000000000000000000000000 AND PUSH1 0x0 SWAP1 DUP2 MSTORE PUSH1 0x20 SWAP2 SWAP1 SWAP2 MSTORE PUSH1 0x40 SWAP1 KECCAK256 SLOAD PUSH1 0xFF AND SWAP1 JUMP JUMPDEST PUSH1 0x0 DUP3 PUSH2 0xDC0 DUP7 DUP7 DUP6 PUSH2 0x1172 JUMP JUMPDEST EQ SWAP6 SWAP5 POP POP POP POP POP JUMP JUMPDEST PUSH1 0x0 PUSH2 0xA50 PUSH2 0x11B4 JUMP JUMPDEST PUSH1 0x0 DUP1 PUSH2 0x32B PUSH1 0x1 PUSH32 0xC9ED16F33AB3A66C84BFD83099CCB2A8845871E2E1C1928F63797152F0FD54CD PUSH2 0x18AA JUMP JUMPDEST DUP2 SLOAD PUSH20 0xFFFFFFFFFFFFFFFFFFFFFFFFFFFFFFFFFFFFFFFF DUP3 DUP2 AND SWAP2 AND EQ PUSH2 0xE6D JUMPI PUSH1 0x40 MLOAD PUSH32 0x2EF4875E00000000000000000000000000000000000000000000000000000000 DUP2 MSTORE PUSH20 0xFFFFFFFFFFFFFFFFFFFFFFFFFFFFFFFFFFFFFFFF DUP3 AND PUSH1 0x4 DUP3 ADD MSTORE PUSH1 0x24 ADD PUSH2 0x376 JUMP JUMPDEST POP POP JUMP JUMPDEST PUSH1 0x40 DUP1 MLOAD PUSH20 0xFFFFFFFFFFFFFFFFFFFFFFFFFFFFFFFFFFFFFFFF DUP5 AND PUSH1 0x24 DUP3 ADD MSTORE PUSH1 0x44 DUP1 DUP3 ADD DUP5 SWAP1 MSTORE DUP3 MLOAD DUP1 DUP4 SUB SWAP1 SWAP2 ADD DUP2 MSTORE PUSH1 0x64 SWAP1 SWAP2 ADD SWAP1 SWAP2 MSTORE PUSH1 0x20 DUP2 ADD DUP1 MLOAD PUSH28 0xFFFFFFFFFFFFFFFFFFFFFFFFFFFFFFFFFFFFFFFFFFFFFFFFFFFFFFFF AND PUSH32 0xA9059CBB00000000000000000000000000000000000000000000000000000000 OR SWAP1 MSTORE PUSH2 0xEFE SWAP1 DUP5 SWAP1 PUSH2 0x12FB JUMP JUMPDEST POP POP POP JUMP JUMPDEST DUP3 SLOAD PUSH20 0xFFFFFFFFFFFFFFFFFFFFFFFFFFFFFFFFFFFFFFFF SWAP1 DUP2 AND SWAP1 DUP4 AND DUP2 EQ PUSH2 0xF70 JUMPI PUSH1 0x40 MLOAD PUSH32 0x2EF4875E00000000000000000000000000000000000000000000000000000000 DUP2 MSTORE PUSH20 0xFFFFFFFFFFFFFFFFFFFFFFFFFFFFFFFFFFFFFFFF DUP5 AND PUSH1 0x4 DUP3 ADD MSTORE PUSH1 0x24 ADD PUSH2 0x376 JUMP JUMPDEST DUP2 PUSH20 0xFFFFFFFFFFFFFFFFFFFFFFFFFFFFFFFFFFFFFFFF AND DUP2 PUSH20 0xFFFFFFFFFFFFFFFFFFFFFFFFFFFFFFFFFFFFFFFF AND EQ PUSH2 0x1012 JUMPI DUP4 SLOAD PUSH32 0xFFFFFFFFFFFFFFFFFFFFFFFF0000000000000000000000000000000000000000 AND PUSH20 0xFFFFFFFFFFFFFFFFFFFFFFFFFFFFFFFFFFFFFFFF DUP4 DUP2 AND SWAP2 DUP3 OR DUP7 SSTORE PUSH1 0x40 MLOAD SWAP1 DUP4 AND SWAP1 PUSH32 0x8BE0079C531659141344CD1FD0A4F28419497F9722A3DAAFE3B4186F6B6457E0 SWAP1 PUSH1 0x0 SWAP1 LOG3 JUMPDEST POP POP POP POP JUMP JUMPDEST DUP1 SELFBALANCE LT ISZERO PUSH2 0x1082 JUMPI PUSH1 0x40 MLOAD PUSH32 0x8C379A000000000000000000000000000000000000000000000000000000000 DUP2 MSTORE PUSH1 0x20 PUSH1 0x4 DUP3 ADD MSTORE PUSH1 0x1D PUSH1 0x24 DUP3 ADD MSTORE PUSH32 0x416464726573733A20696E73756666696369656E742062616C616E6365000000 PUSH1 0x44 DUP3 ADD MSTORE PUSH1 0x64 ADD PUSH2 0x376 JUMP JUMPDEST PUSH1 0x0 DUP3 PUSH20 0xFFFFFFFFFFFFFFFFFFFFFFFFFFFFFFFFFFFFFFFF AND DUP3 PUSH1 0x40 MLOAD PUSH1 0x0 PUSH1 0x40 MLOAD DUP1 DUP4 SUB DUP2 DUP6 DUP8 GAS CALL SWAP3 POP POP POP RETURNDATASIZE DUP1 PUSH1 0x0 DUP2 EQ PUSH2 0x10DC JUMPI PUSH1 0x40 MLOAD SWAP2 POP PUSH1 0x1F NOT PUSH1 0x3F RETURNDATASIZE ADD AND DUP3 ADD PUSH1 0x40 MSTORE RETURNDATASIZE DUP3 MSTORE RETURNDATASIZE PUSH1 0x0 PUSH1 0x20 DUP5 ADD RETURNDATACOPY PUSH2 0x10E1 JUMP JUMPDEST PUSH1 0x60 SWAP2 POP JUMPDEST POP POP SWAP1 POP DUP1 PUSH2 0xEFE JUMPI PUSH1 0x40 MLOAD PUSH32 0x8C379A000000000000000000000000000000000000000000000000000000000 DUP2 MSTORE PUSH1 0x20 PUSH1 0x4 DUP3 ADD MSTORE PUSH1 0x3A PUSH1 0x24 DUP3 ADD MSTORE PUSH32 0x416464726573733A20756E61626C6520746F2073656E642076616C75652C2072 PUSH1 0x44 DUP3 ADD MSTORE PUSH32 0x6563697069656E74206D61792068617665207265766572746564000000000000 PUSH1 0x64 DUP3 ADD MSTORE PUSH1 0x84 ADD PUSH2 0x376 JUMP JUMPDEST PUSH1 0x0 DUP2 DUP2 JUMPDEST DUP5 DUP2 LT ISZERO PUSH2 0x11AB JUMPI PUSH2 0x11A1 DUP3 DUP8 DUP8 DUP5 DUP2 DUP2 LT PUSH2 0x1195 JUMPI PUSH2 0x1195 PUSH2 0x18E4 JUMP JUMPDEST SWAP1 POP PUSH1 0x20 MUL ADD CALLDATALOAD PUSH2 0x140A JUMP JUMPDEST SWAP2 POP PUSH1 0x1 ADD PUSH2 0x1177 JUMP JUMPDEST POP SWAP5 SWAP4 POP POP POP POP JUMP JUMPDEST PUSH1 0x0 CALLER ORIGIN EQ DUP1 PUSH2 0x11C4 JUMPI POP PUSH1 0x18 CALLDATASIZE LT JUMPDEST ISZERO PUSH2 0x11CE JUMPI POP CALLER SWAP1 JUMP JUMPDEST PUSH32 0xFFFFFFFFFFFFFFFFFFFFFFFFFFFFFFFFFFFFFFFFFFFFFFFFFFFFFFFFFFFFFFEC CALLDATASIZE ADD CALLDATALOAD PUSH1 0x60 SHR PUSH32 0x0 PUSH20 0xFFFFFFFFFFFFFFFFFFFFFFFFFFFFFFFFFFFFFFFF AND CALLER EQ DUP1 PUSH2 0x12EA JUMPI POP PUSH1 0x40 MLOAD PUSH32 0x8929A8CA00000000000000000000000000000000000000000000000000000000 DUP2 MSTORE PUSH20 0xFFFFFFFFFFFFFFFFFFFFFFFFFFFFFFFFFFFFFFFF DUP3 DUP2 AND PUSH1 0x4 DUP4 ADD MSTORE CALLER PUSH1 0x24 DUP4 ADD MSTORE PUSH32 0x0 AND SWAP1 PUSH4 0x8929A8CA SWAP1 PUSH1 0x44 ADD PUSH1 0x20 PUSH1 0x40 MLOAD DUP1 DUP4 SUB DUP2 DUP7 GAS STATICCALL ISZERO DUP1 ISZERO PUSH2 0x12C6 JUMPI RETURNDATASIZE PUSH1 0x0 DUP1 RETURNDATACOPY RETURNDATASIZE PUSH1 0x0 REVERT JUMPDEST POP POP POP POP PUSH1 0x40 MLOAD RETURNDATASIZE PUSH1 0x1F NOT PUSH1 0x1F DUP3 ADD AND DUP3 ADD DUP1 PUSH1 0x40 MSTORE POP DUP2 ADD SWAP1 PUSH2 0x12EA SWAP2 SWAP1 PUSH2 0x1913 JUMP JUMPDEST ISZERO PUSH2 0x12F4 JUMPI SWAP2 SWAP1 POP JUMP JUMPDEST CALLER SWAP2 POP POP SWAP1 JUMP JUMPDEST PUSH1 0x0 PUSH2 0x135D DUP3 PUSH1 0x40 MLOAD DUP1 PUSH1 0x40 ADD PUSH1 0x40 MSTORE DUP1 PUSH1 0x20 DUP2 MSTORE PUSH1 0x20 ADD PUSH32 0x5361666545524332303A206C6F772D6C6576656C2063616C6C206661696C6564 DUP2 MSTORE POP DUP6 PUSH20 0xFFFFFFFFFFFFFFFFFFFFFFFFFFFFFFFFFFFFFFFF AND PUSH2 0x143C SWAP1 SWAP3 SWAP2 SWAP1 PUSH4 0xFFFFFFFF AND JUMP JUMPDEST SWAP1 POP DUP1 MLOAD PUSH1 0x0 EQ DUP1 PUSH2 0x137E JUMPI POP DUP1 DUP1 PUSH1 0x20 ADD SWAP1 MLOAD DUP2 ADD SWAP1 PUSH2 0x137E SWAP2 SWAP1 PUSH2 0x1913 JUMP JUMPDEST PUSH2 0xEFE JUMPI PUSH1 0x40 MLOAD PUSH32 0x8C379A000000000000000000000000000000000000000000000000000000000 DUP2 MSTORE PUSH1 0x20 PUSH1 0x4 DUP3 ADD MSTORE PUSH1 0x2A PUSH1 0x24 DUP3 ADD MSTORE PUSH32 0x5361666545524332303A204552433230206F7065726174696F6E20646964206E PUSH1 0x44 DUP3 ADD MSTORE PUSH32 0x6F74207375636365656400000000000000000000000000000000000000000000 PUSH1 0x64 DUP3 ADD MSTORE PUSH1 0x84 ADD PUSH2 0x376 JUMP JUMPDEST PUSH1 0x0 DUP2 DUP4 LT PUSH2 0x1426 JUMPI PUSH1 0x0 DUP3 DUP2 MSTORE PUSH1 0x20 DUP5 SWAP1 MSTORE PUSH1 0x40 SWAP1 KECCAK256 PUSH2 0x1435 JUMP JUMPDEST PUSH1 0x0 DUP4 DUP2 MSTORE PUSH1 0x20 DUP4 SWAP1 MSTORE PUSH1 0x40 SWAP1 KECCAK256 JUMPDEST SWAP4 SWAP3 POP POP POP JUMP JUMPDEST PUSH1 0x60 PUSH2 0x818 DUP5 DUP5 PUSH1 0x0 DUP6 DUP6 PUSH1 0x0 DUP1 DUP7 PUSH20 0xFFFFFFFFFFFFFFFFFFFFFFFFFFFFFFFFFFFFFFFF AND DUP6 DUP8 PUSH1 0x40 MLOAD PUSH2 0x1470 SWAP2 SWAP1 PUSH2 0x1959 JUMP JUMPDEST PUSH1 0x0 PUSH1 0x40 MLOAD DUP1 DUP4 SUB DUP2 DUP6 DUP8 GAS CALL SWAP3 POP POP POP RETURNDATASIZE DUP1 PUSH1 0x0 DUP2 EQ PUSH2 0x14AD JUMPI PUSH1 0x40 MLOAD SWAP2 POP PUSH1 0x1F NOT PUSH1 0x3F RETURNDATASIZE ADD AND DUP3 ADD PUSH1 0x40 MSTORE RETURNDATASIZE DUP3 MSTORE RETURNDATASIZE PUSH1 0x0 PUSH1 0x20 DUP5 ADD RETURNDATACOPY PUSH2 0x14B2 JUMP JUMPDEST PUSH1 0x60 SWAP2 POP JUMPDEST POP SWAP2 POP SWAP2 POP PUSH2 0x14C3 DUP8 DUP4 DUP4 DUP8 PUSH2 0x14CE JUMP JUMPDEST SWAP8 SWAP7 POP POP POP POP POP POP POP JUMP JUMPDEST PUSH1 0x60 DUP4 ISZERO PUSH2 0x1564 JUMPI DUP3 MLOAD PUSH1 0x0 SUB PUSH2 0x155D JUMPI PUSH20 0xFFFFFFFFFFFFFFFFFFFFFFFFFFFFFFFFFFFFFFFF DUP6 AND EXTCODESIZE PUSH2 0x155D JUMPI PUSH1 0x40 MLOAD PUSH32 0x8C379A000000000000000000000000000000000000000000000000000000000 DUP2 MSTORE PUSH1 0x20 PUSH1 0x4 DUP3 ADD MSTORE PUSH1 0x1D PUSH1 0x24 DUP3 ADD MSTORE PUSH32 0x416464726573733A2063616C6C20746F206E6F6E2D636F6E7472616374000000 PUSH1 0x44 DUP3 ADD MSTORE PUSH1 0x64 ADD PUSH2 0x376 JUMP JUMPDEST POP DUP2 PUSH2 0x818 JUMP JUMPDEST PUSH2 0x818 DUP4 DUP4 DUP2 MLOAD ISZERO PUSH2 0x1579 JUMPI DUP2 MLOAD DUP1 DUP4 PUSH1 0x20 ADD REVERT JUMPDEST DUP1 PUSH1 0x40 MLOAD PUSH32 0x8C379A000000000000000000000000000000000000000000000000000000000 DUP2 MSTORE PUSH1 0x4 ADD PUSH2 0x376 SWAP2 SWAP1 PUSH2 0x1975 JUMP JUMPDEST PUSH1 0x0 PUSH1 0x20 DUP3 DUP5 SUB SLT ISZERO PUSH2 0x15BF JUMPI PUSH1 0x0 DUP1 REVERT JUMPDEST DUP2 CALLDATALOAD PUSH32 0xFFFFFFFF00000000000000000000000000000000000000000000000000000000 DUP2 AND DUP2 EQ PUSH2 0x1435 JUMPI PUSH1 0x0 DUP1 REVERT JUMPDEST PUSH20 0xFFFFFFFFFFFFFFFFFFFFFFFFFFFFFFFFFFFFFFFF DUP2 AND DUP2 EQ PUSH2 0xBE8 JUMPI PUSH1 0x0 DUP1 REVERT JUMPDEST PUSH1 0x0 DUP1 DUP4 PUSH1 0x1F DUP5 ADD SLT PUSH2 0x1623 JUMPI PUSH1 0x0 DUP1 REVERT JUMPDEST POP DUP2 CALLDATALOAD PUSH8 0xFFFFFFFFFFFFFFFF DUP2 GT ISZERO PUSH2 0x163B JUMPI PUSH1 0x0 DUP1 REVERT JUMPDEST PUSH1 0x20 DUP4 ADD SWAP2 POP DUP4 PUSH1 0x20 DUP3 PUSH1 0x5 SHL DUP6 ADD ADD GT ISZERO PUSH2 0x1656 JUMPI PUSH1 0x0 DUP1 REVERT JUMPDEST SWAP3 POP SWAP3 SWAP1 POP JUMP JUMPDEST PUSH1 0x0 DUP1 PUSH1 0x0 DUP1 PUSH1 0x0 DUP1 PUSH1 0xA0 DUP8 DUP10 SUB SLT ISZERO PUSH2 0x1676 JUMPI PUSH1 0x0 DUP1 REVERT JUMPDEST DUP7 CALLDATALOAD SWAP6 POP PUSH1 0x20 DUP8 ADD CALLDATALOAD PUSH2 0x1688 DUP2 PUSH2 0x15EF JUMP JUMPDEST SWAP5 POP PUSH1 0x40 DUP8 ADD CALLDATALOAD SWAP4 POP PUSH1 0x60 DUP8 ADD CALLDATALOAD SWAP3 POP PUSH1 0x80 DUP8 ADD CALLDATALOAD PUSH8 0xFFFFFFFFFFFFFFFF DUP2 GT ISZERO PUSH2 0x16B2 JUMPI PUSH1 0x0 DUP1 REVERT JUMPDEST PUSH2 0x16BE DUP10 DUP3 DUP11 ADD PUSH2 0x1611 JUMP JUMPDEST SWAP8 SWAP11 SWAP7 SWAP10 POP SWAP5 SWAP8 POP SWAP3 SWAP6 SWAP4 SWAP5 SWAP3 POP POP POP JUMP JUMPDEST PUSH1 0x0 PUSH1 0x20 DUP3 DUP5 SUB SLT ISZERO PUSH2 0x16E2 JUMPI PUSH1 0x0 DUP1 REVERT JUMPDEST DUP2 CALLDATALOAD PUSH2 0x1435 DUP2 PUSH2 0x15EF JUMP JUMPDEST PUSH1 0x0 PUSH1 0x20 DUP3 DUP5 SUB SLT ISZERO PUSH2 0x16FF JUMPI PUSH1 0x0 DUP1 REVERT JUMPDEST POP CALLDATALOAD SWAP2 SWAP1 POP JUMP JUMPDEST PUSH1 0x0 DUP1 PUSH1 0x0 DUP1 PUSH1 0x80 DUP6 DUP8 SUB SLT ISZERO PUSH2 0x171C JUMPI PUSH1 0x0 DUP1 REVERT JUMPDEST DUP5 CALLDATALOAD SWAP4 POP PUSH1 0x20 DUP6 ADD CALLDATALOAD PUSH2 0x172E DUP2 PUSH2 0x15EF JUMP JUMPDEST SWAP4 SWAP7 SWAP4 SWAP6 POP POP POP POP PUSH1 0x40 DUP3 ADD CALLDATALOAD SWAP2 PUSH1 0x60 ADD CALLDATALOAD SWAP1 JUMP JUMPDEST PUSH1 0x20 DUP2 ADD PUSH1 0x5 DUP4 LT PUSH2 0x177E JUMPI PUSH32 0x4E487B7100000000000000000000000000000000000000000000000000000000 PUSH1 0x0 MSTORE PUSH1 0x21 PUSH1 0x4 MSTORE PUSH1 0x24 PUSH1 0x0 REVERT JUMPDEST SWAP2 SWAP1 MSTORE SWAP1 JUMP JUMPDEST PUSH1 0x0 DUP1 PUSH1 0x0 DUP1 PUSH1 0x0 DUP1 PUSH1 0x60 DUP8 DUP10 SUB SLT ISZERO PUSH2 0x179D JUMPI PUSH1 0x0 DUP1 REVERT JUMPDEST DUP7 CALLDATALOAD PUSH8 0xFFFFFFFFFFFFFFFF DUP1 DUP3 GT ISZERO PUSH2 0x17B5 JUMPI PUSH1 0x0 DUP1 REVERT JUMPDEST PUSH2 0x17C1 DUP11 DUP4 DUP12 ADD PUSH2 0x1611 JUMP JUMPDEST SWAP1 SWAP9 POP SWAP7 POP PUSH1 0x20 DUP10 ADD CALLDATALOAD SWAP2 POP DUP1 DUP3 GT ISZERO PUSH2 0x17DA JUMPI PUSH1 0x0 DUP1 REVERT JUMPDEST PUSH2 0x17E6 DUP11 DUP4 DUP12 ADD PUSH2 0x1611 JUMP JUMPDEST SWAP1 SWAP7 POP SWAP5 POP PUSH1 0x40 DUP10 ADD CALLDATALOAD SWAP2 POP DUP1 DUP3 GT ISZERO PUSH2 0x17FF JUMPI PUSH1 0x0 DUP1 REVERT JUMPDEST POP PUSH2 0x16BE DUP10 DUP3 DUP11 ADD PUSH2 0x1611 JUMP JUMPDEST PUSH1 0x0 DUP1 PUSH1 0x0 DUP1 PUSH1 0x80 DUP6 DUP8 SUB SLT ISZERO PUSH2 0x1822 JUMPI PUSH1 0x0 DUP1 REVERT JUMPDEST POP POP DUP3 CALLDATALOAD SWAP5 PUSH1 0x20 DUP5 ADD CALLDATALOAD SWAP5 POP PUSH1 0x40 DUP5 ADD CALLDATALOAD SWAP4 PUSH1 0x60 ADD CALLDATALOAD SWAP3 POP SWAP1 POP JUMP JUMPDEST PUSH1 0x0 DUP1 PUSH1 0x0 DUP1 PUSH1 0x40 DUP6 DUP8 SUB SLT ISZERO PUSH2 0x1854 JUMPI PUSH1 0x0 DUP1 REVERT JUMPDEST DUP5 CALLDATALOAD PUSH8 0xFFFFFFFFFFFFFFFF DUP1 DUP3 GT ISZERO PUSH2 0x186C JUMPI PUSH1 0x0 DUP1 REVERT JUMPDEST PUSH2 0x1878 DUP9 DUP4 DUP10 ADD PUSH2 0x1611 JUMP JUMPDEST SWAP1 SWAP7 POP SWAP5 POP PUSH1 0x20 DUP8 ADD CALLDATALOAD SWAP2 POP DUP1 DUP3 GT ISZERO PUSH2 0x1891 JUMPI PUSH1 0x0 DUP1 REVERT JUMPDEST POP PUSH2 0x189E DUP8 DUP3 DUP9 ADD PUSH2 0x1611 JUMP JUMPDEST SWAP6 SWAP9 SWAP5 SWAP8 POP SWAP6 POP POP POP POP JUMP JUMPDEST DUP2 DUP2 SUB DUP2 DUP2 GT ISZERO PUSH2 0x32B JUMPI PUSH32 0x4E487B7100000000000000000000000000000000000000000000000000000000 PUSH1 0x0 MSTORE PUSH1 0x11 PUSH1 0x4 MSTORE PUSH1 0x24 PUSH1 0x0 REVERT JUMPDEST PUSH32 0x4E487B7100000000000000000000000000000000000000000000000000000000 PUSH1 0x0 MSTORE PUSH1 0x32 PUSH1 0x4 MSTORE PUSH1 0x24 PUSH1 0x0 REVERT JUMPDEST PUSH1 0x0 PUSH1 0x20 DUP3 DUP5 SUB SLT ISZERO PUSH2 0x1925 JUMPI PUSH1 0x0 DUP1 REVERT JUMPDEST DUP2 MLOAD DUP1 ISZERO ISZERO DUP2 EQ PUSH2 0x1435 JUMPI PUSH1 0x0 DUP1 REVERT JUMPDEST PUSH1 0x0 JUMPDEST DUP4 DUP2 LT ISZERO PUSH2 0x1950 JUMPI DUP2 DUP2 ADD MLOAD DUP4 DUP3 ADD MSTORE PUSH1 0x20 ADD PUSH2 0x1938 JUMP JUMPDEST POP POP PUSH1 0x0 SWAP2 ADD MSTORE JUMP JUMPDEST PUSH1 0x0 DUP3 MLOAD PUSH2 0x196B DUP2 DUP5 PUSH1 0x20 DUP8 ADD PUSH2 0x1935 JUMP JUMPDEST SWAP2 SWAP1 SWAP2 ADD SWAP3 SWAP2 POP POP JUMP JUMPDEST PUSH1 0x20 DUP2 MSTORE PUSH1 0x0 DUP3 MLOAD DUP1 PUSH1 0x20 DUP5 ADD MSTORE PUSH2 0x1994 DUP2 PUSH1 0x40 DUP6 ADD PUSH1 0x20 DUP8 ADD PUSH2 0x1935 JUMP JUMPDEST PUSH1 0x1F ADD PUSH32 0xFFFFFFFFFFFFFFFFFFFFFFFFFFFFFFFFFFFFFFFFFFFFFFFFFFFFFFFFFFFFFFE0 AND SWAP2 SWAP1 SWAP2 ADD PUSH1 0x40 ADD SWAP3 SWAP2 POP POP JUMP INVALID LOG2 PUSH5 0x6970667358 0x22 SLT KECCAK256 RETURNDATACOPY 0xDE GAS 0x4D DUP11 CALLER 0xBE 0xE3 SELFDESTRUCT RETURNDATACOPY 0x4A SGT SWAP14 PUSH6 0xCD16360B2FD9 0x21 SAR CREATE2 DUP16 SWAP5 0xC6 SWAP6 SWAP3 0x5E 0x4E 0xC2 GT PUSH5 0x736F6C6343 STOP ADDMOD AND STOP CALLER "},"gasEstimates":{"creation":{"codeDepositCost":"1330400","executionCost":"infinite","totalCost":"infinite"},"external":{"POINTS_CONTRACT()":"infinite","canClaim(uint256,address,uint256,bytes32)":"11594","claim(uint256,address,uint256,bytes32,bytes32[])":"infinite","claimEpochs(uint256)":"11049","claimed(bytes32)":"2461","currentEpochId()":"2339","forwarderRegistry()":"infinite","isTrustedForwarder(address)":"infinite","owner()":"infinite","recoverERC20s(address[],address[],uint256[])":"infinite","recoverERC721s(address[],address[],uint256[])":"infinite","recoverETH(address[],uint256[])":"infinite","setMerkleRoot(bytes32,uint256,uint256,uint256)":"infinite","supportsInterface(bytes4)":"infinite","transferOwnership(address)":"infinite"},"internal":{"_msgData()":"infinite","_msgSender()":"infinite"}},"methodIdentifiers":{"POINTS_CONTRACT()":"2d4c2f93","canClaim(uint256,address,uint256,bytes32)":"673d588a","claim(uint256,address,uint256,bytes32,bytes32[])":"2035a4dd","claimEpochs(uint256)":"5c9a509b","claimed(bytes32)":"cc3c0f06","currentEpochId()":"eacdc5ff","forwarderRegistry()":"2b4c9f16","isTrustedForwarder(address)":"572b6c05","owner()":"8da5cb5b","recoverERC20s(address[],address[],uint256[])":"73c8a958","recoverERC721s(address[],address[],uint256[])":"c3666c36","recoverETH(address[],uint256[])":"f7ba94bd","setMerkleRoot(bytes32,uint256,uint256,uint256)":"833d47b6","supportsInterface(bytes4)":"01ffc9a7","transferOwnership(address)":"f2fde38b"}},"storageLayout":{"storage":[{"astId":2792,"contract":"contracts/payment/LimitedOCPointsMerkleClaim.sol:LimitedOCPointsMerkleClaim","label":"currentEpochId","offset":0,"slot":"0","type":"t_uint256"},{"astId":2798,"contract":"contracts/payment/LimitedOCPointsMerkleClaim.sol:LimitedOCPointsMerkleClaim","label":"claimEpochs","offset":0,"slot":"1","type":"t_mapping(t_uint256,t_struct(ClaimEpoch)2789_storage)"},{"astId":2803,"contract":"contracts/payment/LimitedOCPointsMerkleClaim.sol:LimitedOCPointsMerkleClaim","label":"claimed","offset":0,"slot":"2","type":"t_mapping(t_bytes32,t_bool)"}],"types":{"t_bool":{"encoding":"inplace","label":"bool","numberOfBytes":"1"},"t_bytes32":{"encoding":"inplace","label":"bytes32","numberOfBytes":"32"},"t_mapping(t_bytes32,t_bool)":{"encoding":"mapping","key":"t_bytes32","label":"mapping(bytes32 => bool)","numberOfBytes":"32","value":"t_bool"},"t_mapping(t_uint256,t_struct(ClaimEpoch)2789_storage)":{"encoding":"mapping","key":"t_uint256","label":"mapping(uint256 => struct LimitedOCPointsMerkleClaim.ClaimEpoch)","numberOfBytes":"32","value":"t_struct(ClaimEpoch)2789_storage"},"t_struct(ClaimEpoch)2789_storage":{"encoding":"inplace","label":"struct LimitedOCPointsMerkleClaim.ClaimEpoch","members":[{"astId":2780,"contract":"contracts/payment/LimitedOCPointsMerkleClaim.sol:LimitedOCPointsMerkleClaim","label":"merkleRoot","offset":0,"slot":"0","type":"t_bytes32"},{"astId":2782,"contract":"contracts/payment/LimitedOCPointsMerkleClaim.sol:LimitedOCPointsMerkleClaim","label":"totalAmount","offset":0,"slot":"1","type":"t_uint256"},{"astId":2784,"contract":"contracts/payment/LimitedOCPointsMerkleClaim.sol:LimitedOCPointsMerkleClaim","label":"amountLeft","offset":0,"slot":"2","type":"t_uint256"},{"astId":2786,"contract":"contracts/payment/LimitedOCPointsMerkleClaim.sol:LimitedOCPointsMerkleClaim","label":"startTime","offset":0,"slot":"3","type":"t_uint256"},{"astId":2788,"contract":"contracts/payment/LimitedOCPointsMerkleClaim.sol:LimitedOCPointsMerkleClaim","label":"endTime","offset":0,"slot":"4","type":"t_uint256"}],"numberOfBytes":"160"},"t_uint256":{"encoding":"inplace","label":"uint256","numberOfBytes":"32"}}},"userdoc":{"errors":{"AlreadyClaimed(address,uint256,bytes32,uint256)":[{"notice":"Thrown when trying to claim the same allocation more than once."}],"ClaimEpochNotFound(uint256)":[{"notice":"Thrown when trying to access a non-existent epoch."}],"ClaimingEpochNotActive(uint256,uint256,uint256)":[{"notice":"Thrown when trying to claim outside the valid time epoch."}],"IllegalInterfaceId()":[{"notice":"Thrown when setting the illegal interfaceId 0xffffffff."}],"InconsistentArrayLengths()":[{"notice":"Thrown when the multiple related arrays have different lengths."}],"InsufficientPoolAmount(uint256,uint256)":[{"notice":"Thrown when the pool doesn't have enough tokens for the claim."}],"InvalidClaimWindow(uint256,uint256)":[{"notice":"Thrown when the start time is not before the end time."}],"InvalidPointsContractAddress(address)":[{"notice":"Thrown when the reward contract address is invalid."}],"InvalidProof(address,uint256,bytes32,uint256)":[{"notice":"Thrown when a proof cannot be verified."}],"NotContractOwner(address)":[{"notice":"Thrown when an account is not the contract owner but is required to."}]},"events":{"MerkleRootSet(uint256,bytes32,uint256,uint256,uint256)":{"notice":"Emitted when a new merkle root is set for an epoch."},"OwnershipTransferred(address,address)":{"notice":"Emitted when the contract ownership changes."},"PointsClaimed(uint256,bytes32,address,uint256,uint256)":{"notice":"Emitted when a points is claimed."}},"kind":"user","methods":{"POINTS_CONTRACT()":{"notice":"A reference to the points contract."},"canClaim(uint256,address,uint256,bytes32)":{"notice":"Checks if a user can claim rewards for a given epoch."},"claim(uint256,address,uint256,bytes32,bytes32[])":{"notice":"Claims points for a specific epoch and given recipient address."},"claimEpochs(uint256)":{"notice":"Mapping from epoch ID to claiming epoch data."},"claimed(bytes32)":{"notice":"Mapping from leaf hash to claimed status."},"constructor":{"notice":"Constructor for limited OC points merkle claim."},"currentEpochId()":{"notice":"Current epoch counter."},"isTrustedForwarder(address)":{"notice":"Checks whether a forwarder is trusted."},"owner()":{"notice":"Gets the address of the contract owner."},"recoverERC20s(address[],address[],uint256[])":{"notice":"Extract ERC20 tokens which were accidentally sent to the contract to a list of accounts."},"recoverERC721s(address[],address[],uint256[])":{"notice":"Extract ERC721 tokens which were accidentally sent to the contract to a list of accounts."},"recoverETH(address[],uint256[])":{"notice":"Extract ETH tokens which were accidentally sent to the contract to a list of accounts."},"setMerkleRoot(bytes32,uint256,uint256,uint256)":{"notice":"Sets a new merkle root for a epoch with a limited reward pool and time constraints."},"supportsInterface(bytes4)":{"notice":"Returns whether this contract implements a given interface."},"transferOwnership(address)":{"notice":"Sets the address of the new contract owner."}},"notice":"This contract is designed for claiming reward tokens from a limited pool within fixed time epochs.Each epoch has a fixed total amount that gets depleted as users claim their allocations.Claims are based on merkle proofs and are subject to time constraints and pool availability.","version":1}}}}