{"contracts/mocks/payment/LimitedOCPointsMerkleClaimMock.sol":{"LimitedOCPointsMerkleClaimMock":{"abi":[{"inputs":[{"internalType":"address","name":"pointsContractAddress","type":"address"},{"internalType":"contract IForwarderRegistry","name":"forwarderRegistry","type":"address"}],"stateMutability":"nonpayable","type":"constructor"},{"inputs":[{"internalType":"address","name":"recipient","type":"address"},{"internalType":"uint256","name":"amount","type":"uint256"},{"internalType":"bytes32","name":"reasonCode","type":"bytes32"},{"internalType":"uint256","name":"epochId","type":"uint256"}],"name":"AlreadyClaimed","type":"error"},{"inputs":[{"internalType":"uint256","name":"epochId","type":"uint256"}],"name":"ClaimEpochNotFound","type":"error"},{"inputs":[{"internalType":"uint256","name":"currentTime","type":"uint256"},{"internalType":"uint256","name":"startTime","type":"uint256"},{"internalType":"uint256","name":"endTime","type":"uint256"}],"name":"ClaimingEpochNotActive","type":"error"},{"inputs":[],"name":"IllegalInterfaceId","type":"error"},{"inputs":[],"name":"InconsistentArrayLengths","type":"error"},{"inputs":[{"internalType":"uint256","name":"amountRequested","type":"uint256"},{"internalType":"uint256","name":"amountAvailable","type":"uint256"}],"name":"InsufficientPoolAmount","type":"error"},{"inputs":[{"internalType":"uint256","name":"startTime","type":"uint256"},{"internalType":"uint256","name":"endTime","type":"uint256"}],"name":"InvalidClaimWindow","type":"error"},{"inputs":[{"internalType":"address","name":"InvalidPointsContractAddress","type":"address"}],"name":"InvalidPointsContractAddress","type":"error"},{"inputs":[{"internalType":"address","name":"recipient","type":"address"},{"internalType":"uint256","name":"amount","type":"uint256"},{"internalType":"bytes32","name":"reasonCode","type":"bytes32"},{"internalType":"uint256","name":"epochId","type":"uint256"}],"name":"InvalidProof","type":"error"},{"inputs":[{"internalType":"address","name":"account","type":"address"}],"name":"NotContractOwner","type":"error"},{"anonymous":false,"inputs":[{"indexed":true,"internalType":"uint256","name":"epochId","type":"uint256"},{"indexed":true,"internalType":"bytes32","name":"merkleRoot","type":"bytes32"},{"indexed":false,"internalType":"uint256","name":"totalAmount","type":"uint256"},{"indexed":false,"internalType":"uint256","name":"startTime","type":"uint256"},{"indexed":false,"internalType":"uint256","name":"endTime","type":"uint256"}],"name":"MerkleRootSet","type":"event"},{"anonymous":false,"inputs":[{"indexed":true,"internalType":"address","name":"previousOwner","type":"address"},{"indexed":true,"internalType":"address","name":"newOwner","type":"address"}],"name":"OwnershipTransferred","type":"event"},{"anonymous":false,"inputs":[{"indexed":true,"internalType":"uint256","name":"epochId","type":"uint256"},{"indexed":true,"internalType":"bytes32","name":"merkleRoot","type":"bytes32"},{"indexed":true,"internalType":"address","name":"recipient","type":"address"},{"indexed":false,"internalType":"uint256","name":"amount","type":"uint256"},{"indexed":false,"internalType":"uint256","name":"amountLeft","type":"uint256"}],"name":"PointsClaimed","type":"event"},{"inputs":[],"name":"POINTS_CONTRACT","outputs":[{"internalType":"contract IPoints","name":"","type":"address"}],"stateMutability":"view","type":"function"},{"inputs":[],"name":"__msgData","outputs":[{"internalType":"bytes","name":"","type":"bytes"}],"stateMutability":"view","type":"function"},{"inputs":[],"name":"__msgSender","outputs":[{"internalType":"address","name":"","type":"address"}],"stateMutability":"view","type":"function"},{"inputs":[{"internalType":"uint256","name":"epochId","type":"uint256"},{"internalType":"address","name":"recipient","type":"address"},{"internalType":"uint256","name":"amount","type":"uint256"},{"internalType":"bytes32","name":"reasonCode","type":"bytes32"}],"name":"canClaim","outputs":[{"internalType":"enum LimitedOCPointsMerkleClaim.ClaimError","name":"","type":"uint8"}],"stateMutability":"view","type":"function"},{"inputs":[{"internalType":"uint256","name":"epochId","type":"uint256"},{"internalType":"address","name":"recipient","type":"address"},{"internalType":"uint256","name":"amount","type":"uint256"},{"internalType":"bytes32","name":"reasonCode","type":"bytes32"},{"internalType":"bytes32[]","name":"proof","type":"bytes32[]"}],"name":"claim","outputs":[],"stateMutability":"nonpayable","type":"function"},{"inputs":[{"internalType":"uint256","name":"","type":"uint256"}],"name":"claimEpochs","outputs":[{"internalType":"bytes32","name":"merkleRoot","type":"bytes32"},{"internalType":"uint256","name":"totalAmount","type":"uint256"},{"internalType":"uint256","name":"amountLeft","type":"uint256"},{"internalType":"uint256","name":"startTime","type":"uint256"},{"internalType":"uint256","name":"endTime","type":"uint256"}],"stateMutability":"view","type":"function"},{"inputs":[{"internalType":"bytes32","name":"","type":"bytes32"}],"name":"claimed","outputs":[{"internalType":"bool","name":"","type":"bool"}],"stateMutability":"view","type":"function"},{"inputs":[],"name":"currentEpochId","outputs":[{"internalType":"uint256","name":"","type":"uint256"}],"stateMutability":"view","type":"function"},{"inputs":[],"name":"forwarderRegistry","outputs":[{"internalType":"contract IForwarderRegistry","name":"","type":"address"}],"stateMutability":"view","type":"function"},{"inputs":[{"internalType":"address","name":"forwarder","type":"address"}],"name":"isTrustedForwarder","outputs":[{"internalType":"bool","name":"","type":"bool"}],"stateMutability":"view","type":"function"},{"inputs":[],"name":"owner","outputs":[{"internalType":"address","name":"","type":"address"}],"stateMutability":"view","type":"function"},{"inputs":[{"internalType":"address[]","name":"accounts","type":"address[]"},{"internalType":"contract IERC20[]","name":"tokens","type":"address[]"},{"internalType":"uint256[]","name":"amounts","type":"uint256[]"}],"name":"recoverERC20s","outputs":[],"stateMutability":"nonpayable","type":"function"},{"inputs":[{"internalType":"address[]","name":"accounts","type":"address[]"},{"internalType":"contract IERC721[]","name":"contracts","type":"address[]"},{"internalType":"uint256[]","name":"tokenIds","type":"uint256[]"}],"name":"recoverERC721s","outputs":[],"stateMutability":"nonpayable","type":"function"},{"inputs":[{"internalType":"address payable[]","name":"accounts","type":"address[]"},{"internalType":"uint256[]","name":"amounts","type":"uint256[]"}],"name":"recoverETH","outputs":[],"stateMutability":"nonpayable","type":"function"},{"inputs":[{"internalType":"bytes32","name":"merkleRoot","type":"bytes32"},{"internalType":"uint256","name":"totalAmount","type":"uint256"},{"internalType":"uint256","name":"startTime","type":"uint256"},{"internalType":"uint256","name":"endTime","type":"uint256"}],"name":"setMerkleRoot","outputs":[],"stateMutability":"nonpayable","type":"function"},{"inputs":[{"internalType":"bytes4","name":"interfaceId","type":"bytes4"}],"name":"supportsInterface","outputs":[{"internalType":"bool","name":"","type":"bool"}],"stateMutability":"view","type":"function"},{"inputs":[{"internalType":"address","name":"newOwner","type":"address"}],"name":"transferOwnership","outputs":[],"stateMutability":"nonpayable","type":"function"}],"devdoc":{"errors":{"AlreadyClaimed(address,uint256,bytes32,uint256)":[{"params":{"amount":"The amount being claimed.","epochId":"The epoch identifier for a specific claiming epoch.","reasonCode":"The reason code for the deposit.","recipient":"The recipient of the claim."}}],"ClaimEpochNotFound(uint256)":[{"params":{"epochId":"The epoch identifier for a specific claiming epoch."}}],"ClaimingEpochNotActive(uint256,uint256,uint256)":[{"params":{"currentTime":"The current block timestamp.","endTime":"The end time of the claiming epoch.","startTime":"The start time of the claiming epoch."}}],"InsufficientPoolAmount(uint256,uint256)":[{"params":{"amountAvailable":"The amount available in the pool.","amountRequested":"The amount requested to claim."}}],"InvalidClaimWindow(uint256,uint256)":[{"params":{"endTime":"The end time.","startTime":"The start time."}}],"InvalidPointsContractAddress(address)":[{"params":{"InvalidPointsContractAddress":"The address of the invalid points contract."}}],"InvalidProof(address,uint256,bytes32,uint256)":[{"params":{"amount":"The amount being claimed.","epochId":"The epoch identifier for a specific claiming epoch.","reasonCode":"The reason code for the deposit.","recipient":"The recipient of the claim."}}],"NotContractOwner(address)":[{"params":{"account":"The account that was checked."}}]},"events":{"MerkleRootSet(uint256,bytes32,uint256,uint256,uint256)":{"params":{"endTime":"The end time for claiming.","epochId":"The epoch identifier for a specific claiming epoch.","merkleRoot":"The merkle root for this epoch.","startTime":"The start time for claiming.","totalAmount":"The total amount available for claiming."}},"OwnershipTransferred(address,address)":{"params":{"newOwner":"the new contract owner.","previousOwner":"the previous contract owner."}},"PointsClaimed(uint256,bytes32,address,uint256,uint256)":{"params":{"amount":"The amount claimed.","amountLeft":"The amount left in the pool after this claim.","epochId":"The epoch identifier for a specific claiming epoch.","merkleRoot":"The merkle root for this epoch.","recipient":"The recipient of the claim."}}},"kind":"dev","methods":{"__msgData()":{"returns":{"_0":"The current msg.data value."}},"__msgSender()":{"returns":{"_0":"The current msg.sender value."}},"canClaim(uint256,address,uint256,bytes32)":{"details":"Returns ClaimError.ClaimEpochNotFound if the epoch doesn't exist.Returns ClaimError.ClaimingEpochNotActive if the current time is outside the claiming epoch.Returns ClaimError.AlreadyClaimed if the user has already claimed for this epoch.Returns ClaimError.InsufficientPoolAmount if the pool doesn't have enough tokens.Returns ClaimError.NoError if basic validation passes.","params":{"amount":"The amount to be claimed.","epochId":"The epoch identifier for a specific claiming epoch.","reasonCode":"The reason code for the deposit.","recipient":"The recipient address."},"returns":{"_0":"error The claim validation result."}},"claim(uint256,address,uint256,bytes32,bytes32[])":{"details":"Reverts with {ClaimEpochNotFound} if the epoch doesn't exist.Reverts with {ClaimingEpochNotActive} if the current time is outside the claiming epoch.Reverts with {AlreadyClaimed} if the user has already claimed for this epoch.Reverts with {InvalidProof} if the merkle proof verification fails.Reverts with {InsufficientPoolAmount} if the pool doesn't have enough tokens.Emits a {PointsClaimed} event.","params":{"amount":"The amount of points to be claimed.","epochId":"The epoch identifier for a specific claiming epoch.","proof":"The merkle proof for verification.","reasonCode":"The reason code for the deposit.","recipient":"The recipient for the points."}},"isTrustedForwarder(address)":{"params":{"forwarder":"The forwarder to check."},"returns":{"_0":"True if `forwarder` is trusted, false if not."}},"owner()":{"returns":{"_0":"The address of the contract owner."}},"recoverERC20s(address[],address[],uint256[])":{"details":"Warning: this function should be overriden for contracts which are supposed to hold ERC20 tokens  so that the extraction is limited to only amounts sent accidentally.Reverts with {NotContractOwner} if the sender is not the contract owner.Reverts with {InconsistentArrayLengths} if `accounts`, `tokens` and `amounts` do not have the same length.Reverts if one of the ERC20 transfers fails for any reason.","params":{"accounts":"the list of accounts to transfer the tokens to.","amounts":"the list of token amounts to transfer.","tokens":"the list of ERC20 token addresses."}},"recoverERC721s(address[],address[],uint256[])":{"details":"Warning: this function should be overriden for contracts which are supposed to hold ERC721 tokens  so that the extraction is limited to only tokens sent accidentally.Reverts with {NotContractOwner} if the sender is not the contract owner.Reverts with {InconsistentArrayLengths} if `accounts`, `contracts` and `amounts` do not have the same length.Reverts if one of the ERC721 transfers fails for any reason.","params":{"accounts":"the list of accounts to transfer the tokens to.","contracts":"the list of ERC721 contract addresses.","tokenIds":"the list of token ids to transfer."}},"recoverETH(address[],uint256[])":{"details":"Note: While contracts can generally prevent accidental ETH transfer by implementating a reverting  `receive()` function, this can still be bypassed in a `selfdestruct(address)` scenario.Warning: this function should be overriden for contracts which are supposed to hold ETH tokens  so that the extraction is limited to only amounts sent accidentally.Reverts with {NotContractOwner} if the sender is not the contract owner.Reverts with {InconsistentArrayLengths} `accounts` and `amounts` do not have the same length.Reverts if one of the ETH transfers fails for any reason.","params":{"accounts":"the list of accounts to transfer the tokens to.","amounts":"the list of token amounts to transfer."}},"setMerkleRoot(bytes32,uint256,uint256,uint256)":{"details":"Reverts with {NotContractOwner} if the sender is not the contract owner.Reverts with {InvalidClaimWindow} if the end time is not after the start time and the end time is in the past.Emits a {MerkleRootSet} event.","params":{"endTime":"The end time for claiming.","merkleRoot":"The merkle root for this epoch.","startTime":"The start time for claiming.","totalAmount":"The total amount available for claiming in this epoch."}},"supportsInterface(bytes4)":{"details":"Note: This function call must use less than 30 000 gas.","params":{"interfaceId":"the interface identifier to test."},"returns":{"_0":"True if the interface is supported, false if `interfaceId` is `0xffffffff` or if the interface is not supported."}},"transferOwnership(address)":{"details":"Reverts if the sender is not the contract owner.Emits an {OwnershipTransferred} event if `newOwner` is different from the current contract owner.","params":{"newOwner":"The address of the new contract owner. Using the zero address means renouncing ownership."}}},"version":1},"evm":{"bytecode":{"linkReferences":{},"object":"60c06040523480156200001157600080fd5b5060405162001f2738038062001f278339810160408190526200003491620001fc565b81818080336200004f8162000048620000a5565b90620000db565b506001600160a01b03908116608052831690506200008f576040516302caf95f60e61b81526001600160a01b038316600482015260240160405180910390fd5b506001600160a01b031660a052506200025d9050565b600080620000d560017fc9ed16f33ab3a66c84bfd83099ccb2a8845871e2e1c1928f63797152f0fd54cd6200023b565b92915050565b6001600160a01b03811615620001325781546001600160a01b0319166001600160a01b03821690811783556040516000907f8be0079c531659141344cd1fd0a4f28419497f9722a3daafe3b4186f6b6457e0908290a35b620001526307f5828d60e41b60016200014a62000156565b919062000186565b5050565b600080620000d560017fca9d3e17f264b0f3984e2634e94adb37fa3e6a8103f06aeae6fa59e21c769f5e6200023b565b600160e01b6001600160e01b0319831601620001b5576040516372c683bb60e01b815260040160405180910390fd5b6001600160e01b03199190911660009081526020929092526040909120805460ff1916911515919091179055565b6001600160a01b0381168114620001f957600080fd5b50565b600080604083850312156200021057600080fd5b82516200021d81620001e3565b60208401519092506200023081620001e3565b809150509250929050565b81810381811115620000d557634e487b7160e01b600052601160045260246000fd5b60805160a051611c7a620002ad600039600081816101a9015261068901526000818161015f015281816101f10152818161125701528181611295015281816113cd01526114550152611c7a6000f3fe608060405234801561001057600080fd5b506004361061011b5760003560e01c806373c8a958116100b2578063cc3c0f0611610081578063eacdc5ff11610066578063eacdc5ff1461031e578063f2fde38b14610335578063f7ba94bd1461034857600080fd5b8063cc3c0f06146102f3578063d1a91ff21461031657600080fd5b806373c8a958146102b2578063833d47b6146102c55780638da5cb5b146102d8578063c3666c36146102e057600080fd5b806331e66e1e116100ee57806331e66e1e146101cb578063572b6c05146101e15780635c9a509b1461022e578063673d588a1461029257600080fd5b806301ffc9a7146101205780632035a4dd146101485780632b4c9f161461015d5780632d4c2f93146101a4575b600080fd5b61013361012e3660046117b4565b61035b565b60405190151581526020015b60405180910390f35b61015b610156366004611864565b610375565b005b7f00000000000000000000000000000000000000000000000000000000000000005b60405173ffffffffffffffffffffffffffffffffffffffff909116815260200161013f565b61017f7f000000000000000000000000000000000000000000000000000000000000000081565b6101d3610753565b60405161013f9291906118d7565b6101336101ef366004611924565b7f000000000000000000000000000000000000000000000000000000000000000073ffffffffffffffffffffffffffffffffffffffff90811691161490565b61026a61023c366004611941565b6001602081905260009182526040909120805491810154600282015460038301546004909301549192909185565b604080519586526020860194909452928401919091526060830152608082015260a00161013f565b6102a56102a036600461195a565b610766565b60405161013f9190611997565b61015b6102c03660046119d8565b610877565b61015b6102d3366004611a60565b61097b565b61017f610a80565b61015b6102ee3660046119d8565b610aac565b610133610301366004611941565b60026020526000908152604090205460ff1681565b61017f610c24565b61032760005481565b60405190815260200161013f565b61015b610343366004611924565b610c2e565b61015b610356366004611a92565b610c4c565b600061036f82610369610d0b565b90610d39565b92915050565b600086815260016020526040902080546103c3576040517f07cba261000000000000000000000000000000000000000000000000000000008152600481018890526024015b60405180910390fd5b600381015442908110806103da5750816004015481115b1561042e5760038201546004808401546040517fc06e9f3a000000000000000000000000000000000000000000000000000000008152918201849052602482019290925260448101919091526064016103ba565b6040517fffffffffffffffffffffffffffffffffffffffff000000000000000000000000606089901b166020820152603481018790526054810186905260748101899052600090609401604080517fffffffffffffffffffffffffffffffffffffffffffffffffffffffffffffffe081840301815291815281516020928301206000818152600290935291205490915060ff1615610525576040517f7635807d00000000000000000000000000000000000000000000000000000000815273ffffffffffffffffffffffffffffffffffffffff891660048201526024810188905260448101879052606481018a90526084016103ba565b86836002015410156105735760028301546040517f23090a310000000000000000000000000000000000000000000000000000000081526103ba918991600401918252602082015260400190565b8254610583908690869084610e13565b6105e6576040517fa041b52e00000000000000000000000000000000000000000000000000000000815273ffffffffffffffffffffffffffffffffffffffff891660048201526024810188905260448101879052606481018a90526084016103ba565b6000818152600260208190526040822080547fffffffffffffffffffffffffffffffffffffffffffffffffffffffffffffff0016600117905584018054899290610631908490611afe565b90915550506040517f26b3293f00000000000000000000000000000000000000000000000000000000815273ffffffffffffffffffffffffffffffffffffffff898116600483015260248201899052604482018890527f000000000000000000000000000000000000000000000000000000000000000016906326b3293f90606401600060405180830381600087803b1580156106cd57600080fd5b505af11580156106e1573d6000803e3d6000fd5b505050508773ffffffffffffffffffffffffffffffffffffffff1683600001548a7facb564b139c0c98f98d1aac465303613e3f5b098a49a18f544e414170a81a4e28a8760020154604051610740929190918252602082015260400190565b60405180910390a4505050505050505050565b36600061075e610e2b565b915091509091565b6000848152600160205260408120805461078457600191505061086f565b6003810154429081108061079b5750816004015481115b156107ab5760029250505061086f565b6040517fffffffffffffffffffffffffffffffffffffffff000000000000000000000000606088901b166020820152603481018690526054810185905260748101889052600090609401604080517fffffffffffffffffffffffffffffffffffffffffffffffffffffffffffffffe081840301815291815281516020928301206000818152600290935291205490915060ff161561084f576003935050505061086f565b8583600201541015610867576004935050505061086f565b600093505050505b949350505050565b610890610882610e36565b61088a610e40565b90610e6e565b8483811415806108a05750808214155b156108d7576040517f6582533600000000000000000000000000000000000000000000000000000000815260040160405180910390fd5b60005b81811015610971576109698888838181106108f7576108f7611b38565b905060200201602081019061090c9190611924565b85858481811061091e5761091e611b38565b9050602002013588888581811061093757610937611b38565b905060200201602081019061094c9190611924565b73ffffffffffffffffffffffffffffffffffffffff169190610edd565b6001016108da565b5050505050505050565b610986610882610e36565b80821015806109955750428111155b156109d6576040517f779acdff00000000000000000000000000000000000000000000000000000000815260048101839052602481018290526044016103ba565b600080546040805160a081018252878152602080820188815282840189815260608085018a8152608086018a8152888a526001808752888b209751885594518786015592516002870155516003860155905160049094019390935585540190945581518781529384018690529083018490529091869183917f331c648136af10432045d8cc15dfaee6ca9568922f85cab02d96d5f5286c8920910160405180910390a35050505050565b6000610aa7610a8d610e40565b5473ffffffffffffffffffffffffffffffffffffffff1690565b905090565b610ab7610882610e36565b848381141580610ac75750808214155b15610afe576040517f6582533600000000000000000000000000000000000000000000000000000000815260040160405180910390fd5b60005b8181101561097157858582818110610b1b57610b1b611b38565b9050602002016020810190610b309190611924565b73ffffffffffffffffffffffffffffffffffffffff166323b872dd308a8a85818110610b5e57610b5e611b38565b9050602002016020810190610b739190611924565b878786818110610b8557610b85611b38565b6040517fffffffff0000000000000000000000000000000000000000000000000000000060e088901b16815273ffffffffffffffffffffffffffffffffffffffff958616600482015294909316602485015250602090910201356044820152606401600060405180830381600087803b158015610c0157600080fd5b505af1158015610c15573d6000803e3d6000fd5b50505050806001019050610b01565b6000610aa7610e36565b610c49610c39610e36565b82610c42610e40565b9190610f6f565b50565b610c57610882610e36565b82818114610c91576040517f6582533600000000000000000000000000000000000000000000000000000000815260040160405180910390fd5b60005b81811015610d0357610cfb848483818110610cb157610cb1611b38565b90506020020135878784818110610cca57610cca611b38565b9050602002016020810190610cdf9190611924565b73ffffffffffffffffffffffffffffffffffffffff1690611084565b600101610c94565b505050505050565b60008061036f60017fca9d3e17f264b0f3984e2634e94adb37fa3e6a8103f06aeae6fa59e21c769f5e611afe565b60007c01000000000000000000000000000000000000000000000000000000007fffffffff00000000000000000000000000000000000000000000000000000000831601610d895750600061036f565b7ffe003659000000000000000000000000000000000000000000000000000000007fffffffff00000000000000000000000000000000000000000000000000000000831601610dda5750600161036f565b507fffffffff00000000000000000000000000000000000000000000000000000000166000908152602091909152604090205460ff1690565b600082610e218686856111de565b1495945050505050565b36600061075e611220565b6000610aa761138a565b60008061036f60017fc9ed16f33ab3a66c84bfd83099ccb2a8845871e2e1c1928f63797152f0fd54cd611afe565b815473ffffffffffffffffffffffffffffffffffffffff828116911614610ed9576040517f2ef4875e00000000000000000000000000000000000000000000000000000000815273ffffffffffffffffffffffffffffffffffffffff821660048201526024016103ba565b5050565b6040805173ffffffffffffffffffffffffffffffffffffffff8416602482015260448082018490528251808303909101815260649091019091526020810180517bffffffffffffffffffffffffffffffffffffffffffffffffffffffff167fa9059cbb00000000000000000000000000000000000000000000000000000000179052610f6a9084906114d1565b505050565b825473ffffffffffffffffffffffffffffffffffffffff9081169083168114610fdc576040517f2ef4875e00000000000000000000000000000000000000000000000000000000815273ffffffffffffffffffffffffffffffffffffffff841660048201526024016103ba565b8173ffffffffffffffffffffffffffffffffffffffff168173ffffffffffffffffffffffffffffffffffffffff161461107e5783547fffffffffffffffffffffffff00000000000000000000000000000000000000001673ffffffffffffffffffffffffffffffffffffffff8381169182178655604051908316907f8be0079c531659141344cd1fd0a4f28419497f9722a3daafe3b4186f6b6457e090600090a35b50505050565b804710156110ee576040517f08c379a000000000000000000000000000000000000000000000000000000000815260206004820152601d60248201527f416464726573733a20696e73756666696369656e742062616c616e636500000060448201526064016103ba565b60008273ffffffffffffffffffffffffffffffffffffffff168260405160006040518083038185875af1925050503d8060008114611148576040519150601f19603f3d011682016040523d82523d6000602084013e61114d565b606091505b5050905080610f6a576040517f08c379a000000000000000000000000000000000000000000000000000000000815260206004820152603a60248201527f416464726573733a20756e61626c6520746f2073656e642076616c75652c207260448201527f6563697069656e74206d6179206861766520726576657274656400000000000060648201526084016103ba565b600081815b848110156112175761120d8287878481811061120157611201611b38565b905060200201356115e0565b91506001016111e3565b50949350505050565b366000333214806112315750601836105b1561123f5750600091369150565b3373ffffffffffffffffffffffffffffffffffffffff7f0000000000000000000000000000000000000000000000000000000000000000161480611374575073ffffffffffffffffffffffffffffffffffffffff7f000000000000000000000000000000000000000000000000000000000000000016638929a8ca367fffffffffffffffffffffffffffffffffffffffffffffffffffffffffffffffec013560601c6040517fffffffff0000000000000000000000000000000000000000000000000000000060e084901b16815273ffffffffffffffffffffffffffffffffffffffff9091166004820152336024820152604401602060405180830381865afa158015611350573d6000803e3d6000fd5b505050506040513d601f19601f820116820180604052508101906113749190611b67565b156113815761075e611612565b50600091369150565b60003332148061139a5750601836105b156113a457503390565b7fffffffffffffffffffffffffffffffffffffffffffffffffffffffffffffffec36013560601c7f000000000000000000000000000000000000000000000000000000000000000073ffffffffffffffffffffffffffffffffffffffff163314806114c057506040517f8929a8ca00000000000000000000000000000000000000000000000000000000815273ffffffffffffffffffffffffffffffffffffffff82811660048301523360248301527f00000000000000000000000000000000000000000000000000000000000000001690638929a8ca90604401602060405180830381865afa15801561149c573d6000803e3d6000fd5b505050506040513d601f19601f820116820180604052508101906114c09190611b67565b156114ca57919050565b3391505090565b6000611533826040518060400160405280602081526020017f5361666545524332303a206c6f772d6c6576656c2063616c6c206661696c65648152508573ffffffffffffffffffffffffffffffffffffffff166116439092919063ffffffff16565b90508051600014806115545750808060200190518101906115549190611b67565b610f6a576040517f08c379a000000000000000000000000000000000000000000000000000000000815260206004820152602a60248201527f5361666545524332303a204552433230206f7065726174696f6e20646964206e60448201527f6f7420737563636565640000000000000000000000000000000000000000000060648201526084016103ba565b60008183106115fc57600082815260208490526040902061160b565b60008381526020839052604090205b9392505050565b36600061075e7fffffffffffffffffffffffffffffffffffffffffffffffffffffffffffffffec8301828481611b89565b606061086f8484600085856000808673ffffffffffffffffffffffffffffffffffffffff1685876040516116779190611bd7565b60006040518083038185875af1925050503d80600081146116b4576040519150601f19603f3d011682016040523d82523d6000602084013e6116b9565b606091505b50915091506116ca878383876116d5565b979650505050505050565b6060831561176b5782516000036117645773ffffffffffffffffffffffffffffffffffffffff85163b611764576040517f08c379a000000000000000000000000000000000000000000000000000000000815260206004820152601d60248201527f416464726573733a2063616c6c20746f206e6f6e2d636f6e747261637400000060448201526064016103ba565b508161086f565b61086f83838151156117805781518083602001fd5b806040517f08c379a00000000000000000000000000000000000000000000000000000000081526004016103ba9190611bf3565b6000602082840312156117c657600080fd5b81357fffffffff000000000000000000000000000000000000000000000000000000008116811461160b57600080fd5b73ffffffffffffffffffffffffffffffffffffffff81168114610c4957600080fd5b60008083601f84011261182a57600080fd5b50813567ffffffffffffffff81111561184257600080fd5b6020830191508360208260051b850101111561185d57600080fd5b9250929050565b60008060008060008060a0878903121561187d57600080fd5b86359550602087013561188f816117f6565b94506040870135935060608701359250608087013567ffffffffffffffff8111156118b957600080fd5b6118c589828a01611818565b979a9699509497509295939492505050565b60208152816020820152818360408301376000818301604090810191909152601f9092017fffffffffffffffffffffffffffffffffffffffffffffffffffffffffffffffe0160101919050565b60006020828403121561193657600080fd5b813561160b816117f6565b60006020828403121561195357600080fd5b5035919050565b6000806000806080858703121561197057600080fd5b843593506020850135611982816117f6565b93969395505050506040820135916060013590565b60208101600583106119d2577f4e487b7100000000000000000000000000000000000000000000000000000000600052602160045260246000fd5b91905290565b600080600080600080606087890312156119f157600080fd5b863567ffffffffffffffff80821115611a0957600080fd5b611a158a838b01611818565b90985096506020890135915080821115611a2e57600080fd5b611a3a8a838b01611818565b90965094506040890135915080821115611a5357600080fd5b506118c589828a01611818565b60008060008060808587031215611a7657600080fd5b5050823594602084013594506040840135936060013592509050565b60008060008060408587031215611aa857600080fd5b843567ffffffffffffffff80821115611ac057600080fd5b611acc88838901611818565b90965094506020870135915080821115611ae557600080fd5b50611af287828801611818565b95989497509550505050565b8181038181111561036f577f4e487b7100000000000000000000000000000000000000000000000000000000600052601160045260246000fd5b7f4e487b7100000000000000000000000000000000000000000000000000000000600052603260045260246000fd5b600060208284031215611b7957600080fd5b8151801515811461160b57600080fd5b60008085851115611b9957600080fd5b83861115611ba657600080fd5b5050820193919092039150565b60005b83811015611bce578181015183820152602001611bb6565b50506000910152565b60008251611be9818460208701611bb3565b9190910192915050565b6020815260008251806020840152611c12816040850160208701611bb3565b601f017fffffffffffffffffffffffffffffffffffffffffffffffffffffffffffffffe016919091016040019291505056fea264697066735822122007aac679432f67cee4398d9fba4b3f2bd927fcfc5061355ef590e7a19c1f142664736f6c63430008160033","opcodes":"PUSH1 0xC0 PUSH1 0x40 MSTORE CALLVALUE DUP1 ISZERO PUSH3 0x11 JUMPI PUSH1 0x0 DUP1 REVERT JUMPDEST POP PUSH1 0x40 MLOAD PUSH3 0x1F27 CODESIZE SUB DUP1 PUSH3 0x1F27 DUP4 CODECOPY DUP2 ADD PUSH1 0x40 DUP2 SWAP1 MSTORE PUSH3 0x34 SWAP2 PUSH3 0x1FC JUMP JUMPDEST DUP2 DUP2 DUP1 DUP1 CALLER PUSH3 0x4F DUP2 PUSH3 0x48 PUSH3 0xA5 JUMP JUMPDEST SWAP1 PUSH3 0xDB JUMP JUMPDEST POP PUSH1 0x1 PUSH1 0x1 PUSH1 0xA0 SHL SUB SWAP1 DUP2 AND PUSH1 0x80 MSTORE DUP4 AND SWAP1 POP PUSH3 0x8F JUMPI PUSH1 0x40 MLOAD PUSH4 0x2CAF95F PUSH1 0xE6 SHL DUP2 MSTORE PUSH1 0x1 PUSH1 0x1 PUSH1 0xA0 SHL SUB DUP4 AND PUSH1 0x4 DUP3 ADD MSTORE PUSH1 0x24 ADD PUSH1 0x40 MLOAD DUP1 SWAP2 SUB SWAP1 REVERT JUMPDEST POP PUSH1 0x1 PUSH1 0x1 PUSH1 0xA0 SHL SUB AND PUSH1 0xA0 MSTORE POP PUSH3 0x25D SWAP1 POP JUMP JUMPDEST PUSH1 0x0 DUP1 PUSH3 0xD5 PUSH1 0x1 PUSH32 0xC9ED16F33AB3A66C84BFD83099CCB2A8845871E2E1C1928F63797152F0FD54CD PUSH3 0x23B JUMP JUMPDEST SWAP3 SWAP2 POP POP JUMP JUMPDEST PUSH1 0x1 PUSH1 0x1 PUSH1 0xA0 SHL SUB DUP2 AND ISZERO PUSH3 0x132 JUMPI DUP2 SLOAD PUSH1 0x1 PUSH1 0x1 PUSH1 0xA0 SHL SUB NOT AND PUSH1 0x1 PUSH1 0x1 PUSH1 0xA0 SHL SUB DUP3 AND SWAP1 DUP2 OR DUP4 SSTORE PUSH1 0x40 MLOAD PUSH1 0x0 SWAP1 PUSH32 0x8BE0079C531659141344CD1FD0A4F28419497F9722A3DAAFE3B4186F6B6457E0 SWAP1 DUP3 SWAP1 LOG3 JUMPDEST PUSH3 0x152 PUSH4 0x7F5828D PUSH1 0xE4 SHL PUSH1 0x1 PUSH3 0x14A PUSH3 0x156 JUMP JUMPDEST SWAP2 SWAP1 PUSH3 0x186 JUMP JUMPDEST POP POP JUMP JUMPDEST PUSH1 0x0 DUP1 PUSH3 0xD5 PUSH1 0x1 PUSH32 0xCA9D3E17F264B0F3984E2634E94ADB37FA3E6A8103F06AEAE6FA59E21C769F5E PUSH3 0x23B JUMP JUMPDEST PUSH1 0x1 PUSH1 0xE0 SHL PUSH1 0x1 PUSH1 0x1 PUSH1 0xE0 SHL SUB NOT DUP4 AND ADD PUSH3 0x1B5 JUMPI PUSH1 0x40 MLOAD PUSH4 0x72C683BB PUSH1 0xE0 SHL DUP2 MSTORE PUSH1 0x4 ADD PUSH1 0x40 MLOAD DUP1 SWAP2 SUB SWAP1 REVERT JUMPDEST PUSH1 0x1 PUSH1 0x1 PUSH1 0xE0 SHL SUB NOT SWAP2 SWAP1 SWAP2 AND PUSH1 0x0 SWAP1 DUP2 MSTORE PUSH1 0x20 SWAP3 SWAP1 SWAP3 MSTORE PUSH1 0x40 SWAP1 SWAP2 KECCAK256 DUP1 SLOAD PUSH1 0xFF NOT AND SWAP2 ISZERO ISZERO SWAP2 SWAP1 SWAP2 OR SWAP1 SSTORE JUMP JUMPDEST PUSH1 0x1 PUSH1 0x1 PUSH1 0xA0 SHL SUB DUP2 AND DUP2 EQ PUSH3 0x1F9 JUMPI PUSH1 0x0 DUP1 REVERT JUMPDEST POP JUMP JUMPDEST PUSH1 0x0 DUP1 PUSH1 0x40 DUP4 DUP6 SUB SLT ISZERO PUSH3 0x210 JUMPI PUSH1 0x0 DUP1 REVERT JUMPDEST DUP3 MLOAD PUSH3 0x21D DUP2 PUSH3 0x1E3 JUMP JUMPDEST PUSH1 0x20 DUP5 ADD MLOAD SWAP1 SWAP3 POP PUSH3 0x230 DUP2 PUSH3 0x1E3 JUMP JUMPDEST DUP1 SWAP2 POP POP SWAP3 POP SWAP3 SWAP1 POP JUMP JUMPDEST DUP2 DUP2 SUB DUP2 DUP2 GT ISZERO PUSH3 0xD5 JUMPI PUSH4 0x4E487B71 PUSH1 0xE0 SHL PUSH1 0x0 MSTORE PUSH1 0x11 PUSH1 0x4 MSTORE PUSH1 0x24 PUSH1 0x0 REVERT JUMPDEST PUSH1 0x80 MLOAD PUSH1 0xA0 MLOAD PUSH2 0x1C7A PUSH3 0x2AD PUSH1 0x0 CODECOPY PUSH1 0x0 DUP2 DUP2 PUSH2 0x1A9 ADD MSTORE PUSH2 0x689 ADD MSTORE PUSH1 0x0 DUP2 DUP2 PUSH2 0x15F ADD MSTORE DUP2 DUP2 PUSH2 0x1F1 ADD MSTORE DUP2 DUP2 PUSH2 0x1257 ADD MSTORE DUP2 DUP2 PUSH2 0x1295 ADD MSTORE DUP2 DUP2 PUSH2 0x13CD ADD MSTORE PUSH2 0x1455 ADD MSTORE PUSH2 0x1C7A PUSH1 0x0 RETURN INVALID PUSH1 0x80 PUSH1 0x40 MSTORE CALLVALUE DUP1 ISZERO PUSH2 0x10 JUMPI PUSH1 0x0 DUP1 REVERT JUMPDEST POP PUSH1 0x4 CALLDATASIZE LT PUSH2 0x11B JUMPI PUSH1 0x0 CALLDATALOAD PUSH1 0xE0 SHR DUP1 PUSH4 0x73C8A958 GT PUSH2 0xB2 JUMPI DUP1 PUSH4 0xCC3C0F06 GT PUSH2 0x81 JUMPI DUP1 PUSH4 0xEACDC5FF GT PUSH2 0x66 JUMPI DUP1 PUSH4 0xEACDC5FF EQ PUSH2 0x31E JUMPI DUP1 PUSH4 0xF2FDE38B EQ PUSH2 0x335 JUMPI DUP1 PUSH4 0xF7BA94BD EQ PUSH2 0x348 JUMPI PUSH1 0x0 DUP1 REVERT JUMPDEST DUP1 PUSH4 0xCC3C0F06 EQ PUSH2 0x2F3 JUMPI DUP1 PUSH4 0xD1A91FF2 EQ PUSH2 0x316 JUMPI PUSH1 0x0 DUP1 REVERT JUMPDEST DUP1 PUSH4 0x73C8A958 EQ PUSH2 0x2B2 JUMPI DUP1 PUSH4 0x833D47B6 EQ PUSH2 0x2C5 JUMPI DUP1 PUSH4 0x8DA5CB5B EQ PUSH2 0x2D8 JUMPI DUP1 PUSH4 0xC3666C36 EQ PUSH2 0x2E0 JUMPI PUSH1 0x0 DUP1 REVERT JUMPDEST DUP1 PUSH4 0x31E66E1E GT PUSH2 0xEE JUMPI DUP1 PUSH4 0x31E66E1E EQ PUSH2 0x1CB JUMPI DUP1 PUSH4 0x572B6C05 EQ PUSH2 0x1E1 JUMPI DUP1 PUSH4 0x5C9A509B EQ PUSH2 0x22E JUMPI DUP1 PUSH4 0x673D588A EQ PUSH2 0x292 JUMPI PUSH1 0x0 DUP1 REVERT JUMPDEST DUP1 PUSH4 0x1FFC9A7 EQ PUSH2 0x120 JUMPI DUP1 PUSH4 0x2035A4DD EQ PUSH2 0x148 JUMPI DUP1 PUSH4 0x2B4C9F16 EQ PUSH2 0x15D JUMPI DUP1 PUSH4 0x2D4C2F93 EQ PUSH2 0x1A4 JUMPI JUMPDEST PUSH1 0x0 DUP1 REVERT JUMPDEST PUSH2 0x133 PUSH2 0x12E CALLDATASIZE PUSH1 0x4 PUSH2 0x17B4 JUMP JUMPDEST PUSH2 0x35B JUMP JUMPDEST PUSH1 0x40 MLOAD SWAP1 ISZERO ISZERO DUP2 MSTORE PUSH1 0x20 ADD JUMPDEST PUSH1 0x40 MLOAD DUP1 SWAP2 SUB SWAP1 RETURN JUMPDEST PUSH2 0x15B PUSH2 0x156 CALLDATASIZE PUSH1 0x4 PUSH2 0x1864 JUMP JUMPDEST PUSH2 0x375 JUMP JUMPDEST STOP JUMPDEST PUSH32 0x0 JUMPDEST PUSH1 0x40 MLOAD PUSH20 0xFFFFFFFFFFFFFFFFFFFFFFFFFFFFFFFFFFFFFFFF SWAP1 SWAP2 AND DUP2 MSTORE PUSH1 0x20 ADD PUSH2 0x13F JUMP JUMPDEST PUSH2 0x17F PUSH32 0x0 DUP2 JUMP JUMPDEST PUSH2 0x1D3 PUSH2 0x753 JUMP JUMPDEST PUSH1 0x40 MLOAD PUSH2 0x13F SWAP3 SWAP2 SWAP1 PUSH2 0x18D7 JUMP JUMPDEST PUSH2 0x133 PUSH2 0x1EF CALLDATASIZE PUSH1 0x4 PUSH2 0x1924 JUMP JUMPDEST PUSH32 0x0 PUSH20 0xFFFFFFFFFFFFFFFFFFFFFFFFFFFFFFFFFFFFFFFF SWAP1 DUP2 AND SWAP2 AND EQ SWAP1 JUMP JUMPDEST PUSH2 0x26A PUSH2 0x23C CALLDATASIZE PUSH1 0x4 PUSH2 0x1941 JUMP JUMPDEST PUSH1 0x1 PUSH1 0x20 DUP2 SWAP1 MSTORE PUSH1 0x0 SWAP2 DUP3 MSTORE PUSH1 0x40 SWAP1 SWAP2 KECCAK256 DUP1 SLOAD SWAP2 DUP2 ADD SLOAD PUSH1 0x2 DUP3 ADD SLOAD PUSH1 0x3 DUP4 ADD SLOAD PUSH1 0x4 SWAP1 SWAP4 ADD SLOAD SWAP2 SWAP3 SWAP1 SWAP2 DUP6 JUMP JUMPDEST PUSH1 0x40 DUP1 MLOAD SWAP6 DUP7 MSTORE PUSH1 0x20 DUP7 ADD SWAP5 SWAP1 SWAP5 MSTORE SWAP3 DUP5 ADD SWAP2 SWAP1 SWAP2 MSTORE PUSH1 0x60 DUP4 ADD MSTORE PUSH1 0x80 DUP3 ADD MSTORE PUSH1 0xA0 ADD PUSH2 0x13F JUMP JUMPDEST PUSH2 0x2A5 PUSH2 0x2A0 CALLDATASIZE PUSH1 0x4 PUSH2 0x195A JUMP JUMPDEST PUSH2 0x766 JUMP JUMPDEST PUSH1 0x40 MLOAD PUSH2 0x13F SWAP2 SWAP1 PUSH2 0x1997 JUMP JUMPDEST PUSH2 0x15B PUSH2 0x2C0 CALLDATASIZE PUSH1 0x4 PUSH2 0x19D8 JUMP JUMPDEST PUSH2 0x877 JUMP JUMPDEST PUSH2 0x15B PUSH2 0x2D3 CALLDATASIZE PUSH1 0x4 PUSH2 0x1A60 JUMP JUMPDEST PUSH2 0x97B JUMP JUMPDEST PUSH2 0x17F PUSH2 0xA80 JUMP JUMPDEST PUSH2 0x15B PUSH2 0x2EE CALLDATASIZE PUSH1 0x4 PUSH2 0x19D8 JUMP JUMPDEST PUSH2 0xAAC JUMP JUMPDEST PUSH2 0x133 PUSH2 0x301 CALLDATASIZE PUSH1 0x4 PUSH2 0x1941 JUMP JUMPDEST PUSH1 0x2 PUSH1 0x20 MSTORE PUSH1 0x0 SWAP1 DUP2 MSTORE PUSH1 0x40 SWAP1 KECCAK256 SLOAD PUSH1 0xFF AND DUP2 JUMP JUMPDEST PUSH2 0x17F PUSH2 0xC24 JUMP JUMPDEST PUSH2 0x327 PUSH1 0x0 SLOAD DUP2 JUMP JUMPDEST PUSH1 0x40 MLOAD SWAP1 DUP2 MSTORE PUSH1 0x20 ADD PUSH2 0x13F JUMP JUMPDEST PUSH2 0x15B PUSH2 0x343 CALLDATASIZE PUSH1 0x4 PUSH2 0x1924 JUMP JUMPDEST PUSH2 0xC2E JUMP JUMPDEST PUSH2 0x15B PUSH2 0x356 CALLDATASIZE PUSH1 0x4 PUSH2 0x1A92 JUMP JUMPDEST PUSH2 0xC4C JUMP JUMPDEST PUSH1 0x0 PUSH2 0x36F DUP3 PUSH2 0x369 PUSH2 0xD0B JUMP JUMPDEST SWAP1 PUSH2 0xD39 JUMP JUMPDEST SWAP3 SWAP2 POP POP JUMP JUMPDEST PUSH1 0x0 DUP7 DUP2 MSTORE PUSH1 0x1 PUSH1 0x20 MSTORE PUSH1 0x40 SWAP1 KECCAK256 DUP1 SLOAD PUSH2 0x3C3 JUMPI PUSH1 0x40 MLOAD PUSH32 0x7CBA26100000000000000000000000000000000000000000000000000000000 DUP2 MSTORE PUSH1 0x4 DUP2 ADD DUP9 SWAP1 MSTORE PUSH1 0x24 ADD JUMPDEST PUSH1 0x40 MLOAD DUP1 SWAP2 SUB SWAP1 REVERT JUMPDEST PUSH1 0x3 DUP2 ADD SLOAD TIMESTAMP SWAP1 DUP2 LT DUP1 PUSH2 0x3DA JUMPI POP DUP2 PUSH1 0x4 ADD SLOAD DUP2 GT JUMPDEST ISZERO PUSH2 0x42E JUMPI PUSH1 0x3 DUP3 ADD SLOAD PUSH1 0x4 DUP1 DUP5 ADD SLOAD PUSH1 0x40 MLOAD PUSH32 0xC06E9F3A00000000000000000000000000000000000000000000000000000000 DUP2 MSTORE SWAP2 DUP3 ADD DUP5 SWAP1 MSTORE PUSH1 0x24 DUP3 ADD SWAP3 SWAP1 SWAP3 MSTORE PUSH1 0x44 DUP2 ADD SWAP2 SWAP1 SWAP2 MSTORE PUSH1 0x64 ADD PUSH2 0x3BA JUMP JUMPDEST PUSH1 0x40 MLOAD PUSH32 0xFFFFFFFFFFFFFFFFFFFFFFFFFFFFFFFFFFFFFFFF000000000000000000000000 PUSH1 0x60 DUP10 SWAP1 SHL AND PUSH1 0x20 DUP3 ADD MSTORE PUSH1 0x34 DUP2 ADD DUP8 SWAP1 MSTORE PUSH1 0x54 DUP2 ADD DUP7 SWAP1 MSTORE PUSH1 0x74 DUP2 ADD DUP10 SWAP1 MSTORE PUSH1 0x0 SWAP1 PUSH1 0x94 ADD PUSH1 0x40 DUP1 MLOAD PUSH32 0xFFFFFFFFFFFFFFFFFFFFFFFFFFFFFFFFFFFFFFFFFFFFFFFFFFFFFFFFFFFFFFE0 DUP2 DUP5 SUB ADD DUP2 MSTORE SWAP2 DUP2 MSTORE DUP2 MLOAD PUSH1 0x20 SWAP3 DUP4 ADD KECCAK256 PUSH1 0x0 DUP2 DUP2 MSTORE PUSH1 0x2 SWAP1 SWAP4 MSTORE SWAP2 KECCAK256 SLOAD SWAP1 SWAP2 POP PUSH1 0xFF AND ISZERO PUSH2 0x525 JUMPI PUSH1 0x40 MLOAD PUSH32 0x7635807D00000000000000000000000000000000000000000000000000000000 DUP2 MSTORE PUSH20 0xFFFFFFFFFFFFFFFFFFFFFFFFFFFFFFFFFFFFFFFF DUP10 AND PUSH1 0x4 DUP3 ADD MSTORE PUSH1 0x24 DUP2 ADD DUP9 SWAP1 MSTORE PUSH1 0x44 DUP2 ADD DUP8 SWAP1 MSTORE PUSH1 0x64 DUP2 ADD DUP11 SWAP1 MSTORE PUSH1 0x84 ADD PUSH2 0x3BA JUMP JUMPDEST DUP7 DUP4 PUSH1 0x2 ADD SLOAD LT ISZERO PUSH2 0x573 JUMPI PUSH1 0x2 DUP4 ADD SLOAD PUSH1 0x40 MLOAD PUSH32 0x23090A3100000000000000000000000000000000000000000000000000000000 DUP2 MSTORE PUSH2 0x3BA SWAP2 DUP10 SWAP2 PUSH1 0x4 ADD SWAP2 DUP3 MSTORE PUSH1 0x20 DUP3 ADD MSTORE PUSH1 0x40 ADD SWAP1 JUMP JUMPDEST DUP3 SLOAD PUSH2 0x583 SWAP1 DUP7 SWAP1 DUP7 SWAP1 DUP5 PUSH2 0xE13 JUMP JUMPDEST PUSH2 0x5E6 JUMPI PUSH1 0x40 MLOAD PUSH32 0xA041B52E00000000000000000000000000000000000000000000000000000000 DUP2 MSTORE PUSH20 0xFFFFFFFFFFFFFFFFFFFFFFFFFFFFFFFFFFFFFFFF DUP10 AND PUSH1 0x4 DUP3 ADD MSTORE PUSH1 0x24 DUP2 ADD DUP9 SWAP1 MSTORE PUSH1 0x44 DUP2 ADD DUP8 SWAP1 MSTORE PUSH1 0x64 DUP2 ADD DUP11 SWAP1 MSTORE PUSH1 0x84 ADD PUSH2 0x3BA JUMP JUMPDEST PUSH1 0x0 DUP2 DUP2 MSTORE PUSH1 0x2 PUSH1 0x20 DUP2 SWAP1 MSTORE PUSH1 0x40 DUP3 KECCAK256 DUP1 SLOAD PUSH32 0xFFFFFFFFFFFFFFFFFFFFFFFFFFFFFFFFFFFFFFFFFFFFFFFFFFFFFFFFFFFFFF00 AND PUSH1 0x1 OR SWAP1 SSTORE DUP5 ADD DUP1 SLOAD DUP10 SWAP3 SWAP1 PUSH2 0x631 SWAP1 DUP5 SWAP1 PUSH2 0x1AFE JUMP JUMPDEST SWAP1 SWAP2 SSTORE POP POP PUSH1 0x40 MLOAD PUSH32 0x26B3293F00000000000000000000000000000000000000000000000000000000 DUP2 MSTORE PUSH20 0xFFFFFFFFFFFFFFFFFFFFFFFFFFFFFFFFFFFFFFFF DUP10 DUP2 AND PUSH1 0x4 DUP4 ADD MSTORE PUSH1 0x24 DUP3 ADD DUP10 SWAP1 MSTORE PUSH1 0x44 DUP3 ADD DUP9 SWAP1 MSTORE PUSH32 0x0 AND SWAP1 PUSH4 0x26B3293F SWAP1 PUSH1 0x64 ADD PUSH1 0x0 PUSH1 0x40 MLOAD DUP1 DUP4 SUB DUP2 PUSH1 0x0 DUP8 DUP1 EXTCODESIZE ISZERO DUP1 ISZERO PUSH2 0x6CD JUMPI PUSH1 0x0 DUP1 REVERT JUMPDEST POP GAS CALL ISZERO DUP1 ISZERO PUSH2 0x6E1 JUMPI RETURNDATASIZE PUSH1 0x0 DUP1 RETURNDATACOPY RETURNDATASIZE PUSH1 0x0 REVERT JUMPDEST POP POP POP POP DUP8 PUSH20 0xFFFFFFFFFFFFFFFFFFFFFFFFFFFFFFFFFFFFFFFF AND DUP4 PUSH1 0x0 ADD SLOAD DUP11 PUSH32 0xACB564B139C0C98F98D1AAC465303613E3F5B098A49A18F544E414170A81A4E2 DUP11 DUP8 PUSH1 0x2 ADD SLOAD PUSH1 0x40 MLOAD PUSH2 0x740 SWAP3 SWAP2 SWAP1 SWAP2 DUP3 MSTORE PUSH1 0x20 DUP3 ADD MSTORE PUSH1 0x40 ADD SWAP1 JUMP JUMPDEST PUSH1 0x40 MLOAD DUP1 SWAP2 SUB SWAP1 LOG4 POP POP POP POP POP POP POP POP POP JUMP JUMPDEST CALLDATASIZE PUSH1 0x0 PUSH2 0x75E PUSH2 0xE2B JUMP JUMPDEST SWAP2 POP SWAP2 POP SWAP1 SWAP2 JUMP JUMPDEST PUSH1 0x0 DUP5 DUP2 MSTORE PUSH1 0x1 PUSH1 0x20 MSTORE PUSH1 0x40 DUP2 KECCAK256 DUP1 SLOAD PUSH2 0x784 JUMPI PUSH1 0x1 SWAP2 POP POP PUSH2 0x86F JUMP JUMPDEST PUSH1 0x3 DUP2 ADD SLOAD TIMESTAMP SWAP1 DUP2 LT DUP1 PUSH2 0x79B JUMPI POP DUP2 PUSH1 0x4 ADD SLOAD DUP2 GT JUMPDEST ISZERO PUSH2 0x7AB JUMPI PUSH1 0x2 SWAP3 POP POP POP PUSH2 0x86F JUMP JUMPDEST PUSH1 0x40 MLOAD PUSH32 0xFFFFFFFFFFFFFFFFFFFFFFFFFFFFFFFFFFFFFFFF000000000000000000000000 PUSH1 0x60 DUP9 SWAP1 SHL AND PUSH1 0x20 DUP3 ADD MSTORE PUSH1 0x34 DUP2 ADD DUP7 SWAP1 MSTORE PUSH1 0x54 DUP2 ADD DUP6 SWAP1 MSTORE PUSH1 0x74 DUP2 ADD DUP9 SWAP1 MSTORE PUSH1 0x0 SWAP1 PUSH1 0x94 ADD PUSH1 0x40 DUP1 MLOAD PUSH32 0xFFFFFFFFFFFFFFFFFFFFFFFFFFFFFFFFFFFFFFFFFFFFFFFFFFFFFFFFFFFFFFE0 DUP2 DUP5 SUB ADD DUP2 MSTORE SWAP2 DUP2 MSTORE DUP2 MLOAD PUSH1 0x20 SWAP3 DUP4 ADD KECCAK256 PUSH1 0x0 DUP2 DUP2 MSTORE PUSH1 0x2 SWAP1 SWAP4 MSTORE SWAP2 KECCAK256 SLOAD SWAP1 SWAP2 POP PUSH1 0xFF AND ISZERO PUSH2 0x84F JUMPI PUSH1 0x3 SWAP4 POP POP POP POP PUSH2 0x86F JUMP JUMPDEST DUP6 DUP4 PUSH1 0x2 ADD SLOAD LT ISZERO PUSH2 0x867 JUMPI PUSH1 0x4 SWAP4 POP POP POP POP PUSH2 0x86F JUMP JUMPDEST PUSH1 0x0 SWAP4 POP POP POP POP JUMPDEST SWAP5 SWAP4 POP POP POP POP JUMP JUMPDEST PUSH2 0x890 PUSH2 0x882 PUSH2 0xE36 JUMP JUMPDEST PUSH2 0x88A PUSH2 0xE40 JUMP JUMPDEST SWAP1 PUSH2 0xE6E JUMP JUMPDEST DUP5 DUP4 DUP2 EQ ISZERO DUP1 PUSH2 0x8A0 JUMPI POP DUP1 DUP3 EQ ISZERO JUMPDEST ISZERO PUSH2 0x8D7 JUMPI PUSH1 0x40 MLOAD PUSH32 0x6582533600000000000000000000000000000000000000000000000000000000 DUP2 MSTORE PUSH1 0x4 ADD PUSH1 0x40 MLOAD DUP1 SWAP2 SUB SWAP1 REVERT JUMPDEST PUSH1 0x0 JUMPDEST DUP2 DUP2 LT ISZERO PUSH2 0x971 JUMPI PUSH2 0x969 DUP9 DUP9 DUP4 DUP2 DUP2 LT PUSH2 0x8F7 JUMPI PUSH2 0x8F7 PUSH2 0x1B38 JUMP JUMPDEST SWAP1 POP PUSH1 0x20 MUL ADD PUSH1 0x20 DUP2 ADD SWAP1 PUSH2 0x90C SWAP2 SWAP1 PUSH2 0x1924 JUMP JUMPDEST DUP6 DUP6 DUP5 DUP2 DUP2 LT PUSH2 0x91E JUMPI PUSH2 0x91E PUSH2 0x1B38 JUMP JUMPDEST SWAP1 POP PUSH1 0x20 MUL ADD CALLDATALOAD DUP9 DUP9 DUP6 DUP2 DUP2 LT PUSH2 0x937 JUMPI PUSH2 0x937 PUSH2 0x1B38 JUMP JUMPDEST SWAP1 POP PUSH1 0x20 MUL ADD PUSH1 0x20 DUP2 ADD SWAP1 PUSH2 0x94C SWAP2 SWAP1 PUSH2 0x1924 JUMP JUMPDEST PUSH20 0xFFFFFFFFFFFFFFFFFFFFFFFFFFFFFFFFFFFFFFFF AND SWAP2 SWAP1 PUSH2 0xEDD JUMP JUMPDEST PUSH1 0x1 ADD PUSH2 0x8DA JUMP JUMPDEST POP POP POP POP POP POP POP POP JUMP JUMPDEST PUSH2 0x986 PUSH2 0x882 PUSH2 0xE36 JUMP JUMPDEST DUP1 DUP3 LT ISZERO DUP1 PUSH2 0x995 JUMPI POP TIMESTAMP DUP2 GT ISZERO JUMPDEST ISZERO PUSH2 0x9D6 JUMPI PUSH1 0x40 MLOAD PUSH32 0x779ACDFF00000000000000000000000000000000000000000000000000000000 DUP2 MSTORE PUSH1 0x4 DUP2 ADD DUP4 SWAP1 MSTORE PUSH1 0x24 DUP2 ADD DUP3 SWAP1 MSTORE PUSH1 0x44 ADD PUSH2 0x3BA JUMP JUMPDEST PUSH1 0x0 DUP1 SLOAD PUSH1 0x40 DUP1 MLOAD PUSH1 0xA0 DUP2 ADD DUP3 MSTORE DUP8 DUP2 MSTORE PUSH1 0x20 DUP1 DUP3 ADD DUP9 DUP2 MSTORE DUP3 DUP5 ADD DUP10 DUP2 MSTORE PUSH1 0x60 DUP1 DUP6 ADD DUP11 DUP2 MSTORE PUSH1 0x80 DUP7 ADD DUP11 DUP2 MSTORE DUP9 DUP11 MSTORE PUSH1 0x1 DUP1 DUP8 MSTORE DUP9 DUP12 KECCAK256 SWAP8 MLOAD DUP9 SSTORE SWAP5 MLOAD DUP8 DUP7 ADD SSTORE SWAP3 MLOAD PUSH1 0x2 DUP8 ADD SSTORE MLOAD PUSH1 0x3 DUP7 ADD SSTORE SWAP1 MLOAD PUSH1 0x4 SWAP1 SWAP5 ADD SWAP4 SWAP1 SWAP4 SSTORE DUP6 SLOAD ADD SWAP1 SWAP5 SSTORE DUP2 MLOAD DUP8 DUP2 MSTORE SWAP4 DUP5 ADD DUP7 SWAP1 MSTORE SWAP1 DUP4 ADD DUP5 SWAP1 MSTORE SWAP1 SWAP2 DUP7 SWAP2 DUP4 SWAP2 PUSH32 0x331C648136AF10432045D8CC15DFAEE6CA9568922F85CAB02D96D5F5286C8920 SWAP2 ADD PUSH1 0x40 MLOAD DUP1 SWAP2 SUB SWAP1 LOG3 POP POP POP POP POP JUMP JUMPDEST PUSH1 0x0 PUSH2 0xAA7 PUSH2 0xA8D PUSH2 0xE40 JUMP JUMPDEST SLOAD PUSH20 0xFFFFFFFFFFFFFFFFFFFFFFFFFFFFFFFFFFFFFFFF AND SWAP1 JUMP JUMPDEST SWAP1 POP SWAP1 JUMP JUMPDEST PUSH2 0xAB7 PUSH2 0x882 PUSH2 0xE36 JUMP JUMPDEST DUP5 DUP4 DUP2 EQ ISZERO DUP1 PUSH2 0xAC7 JUMPI POP DUP1 DUP3 EQ ISZERO JUMPDEST ISZERO PUSH2 0xAFE JUMPI PUSH1 0x40 MLOAD PUSH32 0x6582533600000000000000000000000000000000000000000000000000000000 DUP2 MSTORE PUSH1 0x4 ADD PUSH1 0x40 MLOAD DUP1 SWAP2 SUB SWAP1 REVERT JUMPDEST PUSH1 0x0 JUMPDEST DUP2 DUP2 LT ISZERO PUSH2 0x971 JUMPI DUP6 DUP6 DUP3 DUP2 DUP2 LT PUSH2 0xB1B JUMPI PUSH2 0xB1B PUSH2 0x1B38 JUMP JUMPDEST SWAP1 POP PUSH1 0x20 MUL ADD PUSH1 0x20 DUP2 ADD SWAP1 PUSH2 0xB30 SWAP2 SWAP1 PUSH2 0x1924 JUMP JUMPDEST PUSH20 0xFFFFFFFFFFFFFFFFFFFFFFFFFFFFFFFFFFFFFFFF AND PUSH4 0x23B872DD ADDRESS DUP11 DUP11 DUP6 DUP2 DUP2 LT PUSH2 0xB5E JUMPI PUSH2 0xB5E PUSH2 0x1B38 JUMP JUMPDEST SWAP1 POP PUSH1 0x20 MUL ADD PUSH1 0x20 DUP2 ADD SWAP1 PUSH2 0xB73 SWAP2 SWAP1 PUSH2 0x1924 JUMP JUMPDEST DUP8 DUP8 DUP7 DUP2 DUP2 LT PUSH2 0xB85 JUMPI PUSH2 0xB85 PUSH2 0x1B38 JUMP JUMPDEST PUSH1 0x40 MLOAD PUSH32 0xFFFFFFFF00000000000000000000000000000000000000000000000000000000 PUSH1 0xE0 DUP9 SWAP1 SHL AND DUP2 MSTORE PUSH20 0xFFFFFFFFFFFFFFFFFFFFFFFFFFFFFFFFFFFFFFFF SWAP6 DUP7 AND PUSH1 0x4 DUP3 ADD MSTORE SWAP5 SWAP1 SWAP4 AND PUSH1 0x24 DUP6 ADD MSTORE POP PUSH1 0x20 SWAP1 SWAP2 MUL ADD CALLDATALOAD PUSH1 0x44 DUP3 ADD MSTORE PUSH1 0x64 ADD PUSH1 0x0 PUSH1 0x40 MLOAD DUP1 DUP4 SUB DUP2 PUSH1 0x0 DUP8 DUP1 EXTCODESIZE ISZERO DUP1 ISZERO PUSH2 0xC01 JUMPI PUSH1 0x0 DUP1 REVERT JUMPDEST POP GAS CALL ISZERO DUP1 ISZERO PUSH2 0xC15 JUMPI RETURNDATASIZE PUSH1 0x0 DUP1 RETURNDATACOPY RETURNDATASIZE PUSH1 0x0 REVERT JUMPDEST POP POP POP POP DUP1 PUSH1 0x1 ADD SWAP1 POP PUSH2 0xB01 JUMP JUMPDEST PUSH1 0x0 PUSH2 0xAA7 PUSH2 0xE36 JUMP JUMPDEST PUSH2 0xC49 PUSH2 0xC39 PUSH2 0xE36 JUMP JUMPDEST DUP3 PUSH2 0xC42 PUSH2 0xE40 JUMP JUMPDEST SWAP2 SWAP1 PUSH2 0xF6F JUMP JUMPDEST POP JUMP JUMPDEST PUSH2 0xC57 PUSH2 0x882 PUSH2 0xE36 JUMP JUMPDEST DUP3 DUP2 DUP2 EQ PUSH2 0xC91 JUMPI PUSH1 0x40 MLOAD PUSH32 0x6582533600000000000000000000000000000000000000000000000000000000 DUP2 MSTORE PUSH1 0x4 ADD PUSH1 0x40 MLOAD DUP1 SWAP2 SUB SWAP1 REVERT JUMPDEST PUSH1 0x0 JUMPDEST DUP2 DUP2 LT ISZERO PUSH2 0xD03 JUMPI PUSH2 0xCFB DUP5 DUP5 DUP4 DUP2 DUP2 LT PUSH2 0xCB1 JUMPI PUSH2 0xCB1 PUSH2 0x1B38 JUMP JUMPDEST SWAP1 POP PUSH1 0x20 MUL ADD CALLDATALOAD DUP8 DUP8 DUP5 DUP2 DUP2 LT PUSH2 0xCCA JUMPI PUSH2 0xCCA PUSH2 0x1B38 JUMP JUMPDEST SWAP1 POP PUSH1 0x20 MUL ADD PUSH1 0x20 DUP2 ADD SWAP1 PUSH2 0xCDF SWAP2 SWAP1 PUSH2 0x1924 JUMP JUMPDEST PUSH20 0xFFFFFFFFFFFFFFFFFFFFFFFFFFFFFFFFFFFFFFFF AND SWAP1 PUSH2 0x1084 JUMP JUMPDEST PUSH1 0x1 ADD PUSH2 0xC94 JUMP JUMPDEST POP POP POP POP POP POP JUMP JUMPDEST PUSH1 0x0 DUP1 PUSH2 0x36F PUSH1 0x1 PUSH32 0xCA9D3E17F264B0F3984E2634E94ADB37FA3E6A8103F06AEAE6FA59E21C769F5E PUSH2 0x1AFE JUMP JUMPDEST PUSH1 0x0 PUSH29 0x100000000000000000000000000000000000000000000000000000000 PUSH32 0xFFFFFFFF00000000000000000000000000000000000000000000000000000000 DUP4 AND ADD PUSH2 0xD89 JUMPI POP PUSH1 0x0 PUSH2 0x36F JUMP JUMPDEST PUSH32 0xFE00365900000000000000000000000000000000000000000000000000000000 PUSH32 0xFFFFFFFF00000000000000000000000000000000000000000000000000000000 DUP4 AND ADD PUSH2 0xDDA JUMPI POP PUSH1 0x1 PUSH2 0x36F JUMP JUMPDEST POP PUSH32 0xFFFFFFFF00000000000000000000000000000000000000000000000000000000 AND PUSH1 0x0 SWAP1 DUP2 MSTORE PUSH1 0x20 SWAP2 SWAP1 SWAP2 MSTORE PUSH1 0x40 SWAP1 KECCAK256 SLOAD PUSH1 0xFF AND SWAP1 JUMP JUMPDEST PUSH1 0x0 DUP3 PUSH2 0xE21 DUP7 DUP7 DUP6 PUSH2 0x11DE JUMP JUMPDEST EQ SWAP6 SWAP5 POP POP POP POP POP JUMP JUMPDEST CALLDATASIZE PUSH1 0x0 PUSH2 0x75E PUSH2 0x1220 JUMP JUMPDEST PUSH1 0x0 PUSH2 0xAA7 PUSH2 0x138A JUMP JUMPDEST PUSH1 0x0 DUP1 PUSH2 0x36F PUSH1 0x1 PUSH32 0xC9ED16F33AB3A66C84BFD83099CCB2A8845871E2E1C1928F63797152F0FD54CD PUSH2 0x1AFE JUMP JUMPDEST DUP2 SLOAD PUSH20 0xFFFFFFFFFFFFFFFFFFFFFFFFFFFFFFFFFFFFFFFF DUP3 DUP2 AND SWAP2 AND EQ PUSH2 0xED9 JUMPI PUSH1 0x40 MLOAD PUSH32 0x2EF4875E00000000000000000000000000000000000000000000000000000000 DUP2 MSTORE PUSH20 0xFFFFFFFFFFFFFFFFFFFFFFFFFFFFFFFFFFFFFFFF DUP3 AND PUSH1 0x4 DUP3 ADD MSTORE PUSH1 0x24 ADD PUSH2 0x3BA JUMP JUMPDEST POP POP JUMP JUMPDEST PUSH1 0x40 DUP1 MLOAD PUSH20 0xFFFFFFFFFFFFFFFFFFFFFFFFFFFFFFFFFFFFFFFF DUP5 AND PUSH1 0x24 DUP3 ADD MSTORE PUSH1 0x44 DUP1 DUP3 ADD DUP5 SWAP1 MSTORE DUP3 MLOAD DUP1 DUP4 SUB SWAP1 SWAP2 ADD DUP2 MSTORE PUSH1 0x64 SWAP1 SWAP2 ADD SWAP1 SWAP2 MSTORE PUSH1 0x20 DUP2 ADD DUP1 MLOAD PUSH28 0xFFFFFFFFFFFFFFFFFFFFFFFFFFFFFFFFFFFFFFFFFFFFFFFFFFFFFFFF AND PUSH32 0xA9059CBB00000000000000000000000000000000000000000000000000000000 OR SWAP1 MSTORE PUSH2 0xF6A SWAP1 DUP5 SWAP1 PUSH2 0x14D1 JUMP JUMPDEST POP POP POP JUMP JUMPDEST DUP3 SLOAD PUSH20 0xFFFFFFFFFFFFFFFFFFFFFFFFFFFFFFFFFFFFFFFF SWAP1 DUP2 AND SWAP1 DUP4 AND DUP2 EQ PUSH2 0xFDC JUMPI PUSH1 0x40 MLOAD PUSH32 0x2EF4875E00000000000000000000000000000000000000000000000000000000 DUP2 MSTORE PUSH20 0xFFFFFFFFFFFFFFFFFFFFFFFFFFFFFFFFFFFFFFFF DUP5 AND PUSH1 0x4 DUP3 ADD MSTORE PUSH1 0x24 ADD PUSH2 0x3BA JUMP JUMPDEST DUP2 PUSH20 0xFFFFFFFFFFFFFFFFFFFFFFFFFFFFFFFFFFFFFFFF AND DUP2 PUSH20 0xFFFFFFFFFFFFFFFFFFFFFFFFFFFFFFFFFFFFFFFF AND EQ PUSH2 0x107E JUMPI DUP4 SLOAD PUSH32 0xFFFFFFFFFFFFFFFFFFFFFFFF0000000000000000000000000000000000000000 AND PUSH20 0xFFFFFFFFFFFFFFFFFFFFFFFFFFFFFFFFFFFFFFFF DUP4 DUP2 AND SWAP2 DUP3 OR DUP7 SSTORE PUSH1 0x40 MLOAD SWAP1 DUP4 AND SWAP1 PUSH32 0x8BE0079C531659141344CD1FD0A4F28419497F9722A3DAAFE3B4186F6B6457E0 SWAP1 PUSH1 0x0 SWAP1 LOG3 JUMPDEST POP POP POP POP JUMP JUMPDEST DUP1 SELFBALANCE LT ISZERO PUSH2 0x10EE JUMPI PUSH1 0x40 MLOAD PUSH32 0x8C379A000000000000000000000000000000000000000000000000000000000 DUP2 MSTORE PUSH1 0x20 PUSH1 0x4 DUP3 ADD MSTORE PUSH1 0x1D PUSH1 0x24 DUP3 ADD MSTORE PUSH32 0x416464726573733A20696E73756666696369656E742062616C616E6365000000 PUSH1 0x44 DUP3 ADD MSTORE PUSH1 0x64 ADD PUSH2 0x3BA JUMP JUMPDEST PUSH1 0x0 DUP3 PUSH20 0xFFFFFFFFFFFFFFFFFFFFFFFFFFFFFFFFFFFFFFFF AND DUP3 PUSH1 0x40 MLOAD PUSH1 0x0 PUSH1 0x40 MLOAD DUP1 DUP4 SUB DUP2 DUP6 DUP8 GAS CALL SWAP3 POP POP POP RETURNDATASIZE DUP1 PUSH1 0x0 DUP2 EQ PUSH2 0x1148 JUMPI PUSH1 0x40 MLOAD SWAP2 POP PUSH1 0x1F NOT PUSH1 0x3F RETURNDATASIZE ADD AND DUP3 ADD PUSH1 0x40 MSTORE RETURNDATASIZE DUP3 MSTORE RETURNDATASIZE PUSH1 0x0 PUSH1 0x20 DUP5 ADD RETURNDATACOPY PUSH2 0x114D JUMP JUMPDEST PUSH1 0x60 SWAP2 POP JUMPDEST POP POP SWAP1 POP DUP1 PUSH2 0xF6A JUMPI PUSH1 0x40 MLOAD PUSH32 0x8C379A000000000000000000000000000000000000000000000000000000000 DUP2 MSTORE PUSH1 0x20 PUSH1 0x4 DUP3 ADD MSTORE PUSH1 0x3A PUSH1 0x24 DUP3 ADD MSTORE PUSH32 0x416464726573733A20756E61626C6520746F2073656E642076616C75652C2072 PUSH1 0x44 DUP3 ADD MSTORE PUSH32 0x6563697069656E74206D61792068617665207265766572746564000000000000 PUSH1 0x64 DUP3 ADD MSTORE PUSH1 0x84 ADD PUSH2 0x3BA JUMP JUMPDEST PUSH1 0x0 DUP2 DUP2 JUMPDEST DUP5 DUP2 LT ISZERO PUSH2 0x1217 JUMPI PUSH2 0x120D DUP3 DUP8 DUP8 DUP5 DUP2 DUP2 LT PUSH2 0x1201 JUMPI PUSH2 0x1201 PUSH2 0x1B38 JUMP JUMPDEST SWAP1 POP PUSH1 0x20 MUL ADD CALLDATALOAD PUSH2 0x15E0 JUMP JUMPDEST SWAP2 POP PUSH1 0x1 ADD PUSH2 0x11E3 JUMP JUMPDEST POP SWAP5 SWAP4 POP POP POP POP JUMP JUMPDEST CALLDATASIZE PUSH1 0x0 CALLER ORIGIN EQ DUP1 PUSH2 0x1231 JUMPI POP PUSH1 0x18 CALLDATASIZE LT JUMPDEST ISZERO PUSH2 0x123F JUMPI POP PUSH1 0x0 SWAP2 CALLDATASIZE SWAP2 POP JUMP JUMPDEST CALLER PUSH20 0xFFFFFFFFFFFFFFFFFFFFFFFFFFFFFFFFFFFFFFFF PUSH32 0x0 AND EQ DUP1 PUSH2 0x1374 JUMPI POP PUSH20 0xFFFFFFFFFFFFFFFFFFFFFFFFFFFFFFFFFFFFFFFF PUSH32 0x0 AND PUSH4 0x8929A8CA CALLDATASIZE PUSH32 0xFFFFFFFFFFFFFFFFFFFFFFFFFFFFFFFFFFFFFFFFFFFFFFFFFFFFFFFFFFFFFFEC ADD CALLDATALOAD PUSH1 0x60 SHR PUSH1 0x40 MLOAD PUSH32 0xFFFFFFFF00000000000000000000000000000000000000000000000000000000 PUSH1 0xE0 DUP5 SWAP1 SHL AND DUP2 MSTORE PUSH20 0xFFFFFFFFFFFFFFFFFFFFFFFFFFFFFFFFFFFFFFFF SWAP1 SWAP2 AND PUSH1 0x4 DUP3 ADD MSTORE CALLER PUSH1 0x24 DUP3 ADD MSTORE PUSH1 0x44 ADD PUSH1 0x20 PUSH1 0x40 MLOAD DUP1 DUP4 SUB DUP2 DUP7 GAS STATICCALL ISZERO DUP1 ISZERO PUSH2 0x1350 JUMPI RETURNDATASIZE PUSH1 0x0 DUP1 RETURNDATACOPY RETURNDATASIZE PUSH1 0x0 REVERT JUMPDEST POP POP POP POP PUSH1 0x40 MLOAD RETURNDATASIZE PUSH1 0x1F NOT PUSH1 0x1F DUP3 ADD AND DUP3 ADD DUP1 PUSH1 0x40 MSTORE POP DUP2 ADD SWAP1 PUSH2 0x1374 SWAP2 SWAP1 PUSH2 0x1B67 JUMP JUMPDEST ISZERO PUSH2 0x1381 JUMPI PUSH2 0x75E PUSH2 0x1612 JUMP JUMPDEST POP PUSH1 0x0 SWAP2 CALLDATASIZE SWAP2 POP JUMP JUMPDEST PUSH1 0x0 CALLER ORIGIN EQ DUP1 PUSH2 0x139A JUMPI POP PUSH1 0x18 CALLDATASIZE LT JUMPDEST ISZERO PUSH2 0x13A4 JUMPI POP CALLER SWAP1 JUMP JUMPDEST PUSH32 0xFFFFFFFFFFFFFFFFFFFFFFFFFFFFFFFFFFFFFFFFFFFFFFFFFFFFFFFFFFFFFFEC CALLDATASIZE ADD CALLDATALOAD PUSH1 0x60 SHR PUSH32 0x0 PUSH20 0xFFFFFFFFFFFFFFFFFFFFFFFFFFFFFFFFFFFFFFFF AND CALLER EQ DUP1 PUSH2 0x14C0 JUMPI POP PUSH1 0x40 MLOAD PUSH32 0x8929A8CA00000000000000000000000000000000000000000000000000000000 DUP2 MSTORE PUSH20 0xFFFFFFFFFFFFFFFFFFFFFFFFFFFFFFFFFFFFFFFF DUP3 DUP2 AND PUSH1 0x4 DUP4 ADD MSTORE CALLER PUSH1 0x24 DUP4 ADD MSTORE PUSH32 0x0 AND SWAP1 PUSH4 0x8929A8CA SWAP1 PUSH1 0x44 ADD PUSH1 0x20 PUSH1 0x40 MLOAD DUP1 DUP4 SUB DUP2 DUP7 GAS STATICCALL ISZERO DUP1 ISZERO PUSH2 0x149C JUMPI RETURNDATASIZE PUSH1 0x0 DUP1 RETURNDATACOPY RETURNDATASIZE PUSH1 0x0 REVERT JUMPDEST POP POP POP POP PUSH1 0x40 MLOAD RETURNDATASIZE PUSH1 0x1F NOT PUSH1 0x1F DUP3 ADD AND DUP3 ADD DUP1 PUSH1 0x40 MSTORE POP DUP2 ADD SWAP1 PUSH2 0x14C0 SWAP2 SWAP1 PUSH2 0x1B67 JUMP JUMPDEST ISZERO PUSH2 0x14CA JUMPI SWAP2 SWAP1 POP JUMP JUMPDEST CALLER SWAP2 POP POP SWAP1 JUMP JUMPDEST PUSH1 0x0 PUSH2 0x1533 DUP3 PUSH1 0x40 MLOAD DUP1 PUSH1 0x40 ADD PUSH1 0x40 MSTORE DUP1 PUSH1 0x20 DUP2 MSTORE PUSH1 0x20 ADD PUSH32 0x5361666545524332303A206C6F772D6C6576656C2063616C6C206661696C6564 DUP2 MSTORE POP DUP6 PUSH20 0xFFFFFFFFFFFFFFFFFFFFFFFFFFFFFFFFFFFFFFFF AND PUSH2 0x1643 SWAP1 SWAP3 SWAP2 SWAP1 PUSH4 0xFFFFFFFF AND JUMP JUMPDEST SWAP1 POP DUP1 MLOAD PUSH1 0x0 EQ DUP1 PUSH2 0x1554 JUMPI POP DUP1 DUP1 PUSH1 0x20 ADD SWAP1 MLOAD DUP2 ADD SWAP1 PUSH2 0x1554 SWAP2 SWAP1 PUSH2 0x1B67 JUMP JUMPDEST PUSH2 0xF6A JUMPI PUSH1 0x40 MLOAD PUSH32 0x8C379A000000000000000000000000000000000000000000000000000000000 DUP2 MSTORE PUSH1 0x20 PUSH1 0x4 DUP3 ADD MSTORE PUSH1 0x2A PUSH1 0x24 DUP3 ADD MSTORE PUSH32 0x5361666545524332303A204552433230206F7065726174696F6E20646964206E PUSH1 0x44 DUP3 ADD MSTORE PUSH32 0x6F74207375636365656400000000000000000000000000000000000000000000 PUSH1 0x64 DUP3 ADD MSTORE PUSH1 0x84 ADD PUSH2 0x3BA JUMP JUMPDEST PUSH1 0x0 DUP2 DUP4 LT PUSH2 0x15FC JUMPI PUSH1 0x0 DUP3 DUP2 MSTORE PUSH1 0x20 DUP5 SWAP1 MSTORE PUSH1 0x40 SWAP1 KECCAK256 PUSH2 0x160B JUMP JUMPDEST PUSH1 0x0 DUP4 DUP2 MSTORE PUSH1 0x20 DUP4 SWAP1 MSTORE PUSH1 0x40 SWAP1 KECCAK256 JUMPDEST SWAP4 SWAP3 POP POP POP JUMP JUMPDEST CALLDATASIZE PUSH1 0x0 PUSH2 0x75E PUSH32 0xFFFFFFFFFFFFFFFFFFFFFFFFFFFFFFFFFFFFFFFFFFFFFFFFFFFFFFFFFFFFFFEC DUP4 ADD DUP3 DUP5 DUP2 PUSH2 0x1B89 JUMP JUMPDEST PUSH1 0x60 PUSH2 0x86F DUP5 DUP5 PUSH1 0x0 DUP6 DUP6 PUSH1 0x0 DUP1 DUP7 PUSH20 0xFFFFFFFFFFFFFFFFFFFFFFFFFFFFFFFFFFFFFFFF AND DUP6 DUP8 PUSH1 0x40 MLOAD PUSH2 0x1677 SWAP2 SWAP1 PUSH2 0x1BD7 JUMP JUMPDEST PUSH1 0x0 PUSH1 0x40 MLOAD DUP1 DUP4 SUB DUP2 DUP6 DUP8 GAS CALL SWAP3 POP POP POP RETURNDATASIZE DUP1 PUSH1 0x0 DUP2 EQ PUSH2 0x16B4 JUMPI PUSH1 0x40 MLOAD SWAP2 POP PUSH1 0x1F NOT PUSH1 0x3F RETURNDATASIZE ADD AND DUP3 ADD PUSH1 0x40 MSTORE RETURNDATASIZE DUP3 MSTORE RETURNDATASIZE PUSH1 0x0 PUSH1 0x20 DUP5 ADD RETURNDATACOPY PUSH2 0x16B9 JUMP JUMPDEST PUSH1 0x60 SWAP2 POP JUMPDEST POP SWAP2 POP SWAP2 POP PUSH2 0x16CA DUP8 DUP4 DUP4 DUP8 PUSH2 0x16D5 JUMP JUMPDEST SWAP8 SWAP7 POP POP POP POP POP POP POP JUMP JUMPDEST PUSH1 0x60 DUP4 ISZERO PUSH2 0x176B JUMPI DUP3 MLOAD PUSH1 0x0 SUB PUSH2 0x1764 JUMPI PUSH20 0xFFFFFFFFFFFFFFFFFFFFFFFFFFFFFFFFFFFFFFFF DUP6 AND EXTCODESIZE PUSH2 0x1764 JUMPI PUSH1 0x40 MLOAD PUSH32 0x8C379A000000000000000000000000000000000000000000000000000000000 DUP2 MSTORE PUSH1 0x20 PUSH1 0x4 DUP3 ADD MSTORE PUSH1 0x1D PUSH1 0x24 DUP3 ADD MSTORE PUSH32 0x416464726573733A2063616C6C20746F206E6F6E2D636F6E7472616374000000 PUSH1 0x44 DUP3 ADD MSTORE PUSH1 0x64 ADD PUSH2 0x3BA JUMP JUMPDEST POP DUP2 PUSH2 0x86F JUMP JUMPDEST PUSH2 0x86F DUP4 DUP4 DUP2 MLOAD ISZERO PUSH2 0x1780 JUMPI DUP2 MLOAD DUP1 DUP4 PUSH1 0x20 ADD REVERT JUMPDEST DUP1 PUSH1 0x40 MLOAD PUSH32 0x8C379A000000000000000000000000000000000000000000000000000000000 DUP2 MSTORE PUSH1 0x4 ADD PUSH2 0x3BA SWAP2 SWAP1 PUSH2 0x1BF3 JUMP JUMPDEST PUSH1 0x0 PUSH1 0x20 DUP3 DUP5 SUB SLT ISZERO PUSH2 0x17C6 JUMPI PUSH1 0x0 DUP1 REVERT JUMPDEST DUP2 CALLDATALOAD PUSH32 0xFFFFFFFF00000000000000000000000000000000000000000000000000000000 DUP2 AND DUP2 EQ PUSH2 0x160B JUMPI PUSH1 0x0 DUP1 REVERT JUMPDEST PUSH20 0xFFFFFFFFFFFFFFFFFFFFFFFFFFFFFFFFFFFFFFFF DUP2 AND DUP2 EQ PUSH2 0xC49 JUMPI PUSH1 0x0 DUP1 REVERT JUMPDEST PUSH1 0x0 DUP1 DUP4 PUSH1 0x1F DUP5 ADD SLT PUSH2 0x182A JUMPI PUSH1 0x0 DUP1 REVERT JUMPDEST POP DUP2 CALLDATALOAD PUSH8 0xFFFFFFFFFFFFFFFF DUP2 GT ISZERO PUSH2 0x1842 JUMPI PUSH1 0x0 DUP1 REVERT JUMPDEST PUSH1 0x20 DUP4 ADD SWAP2 POP DUP4 PUSH1 0x20 DUP3 PUSH1 0x5 SHL DUP6 ADD ADD GT ISZERO PUSH2 0x185D JUMPI PUSH1 0x0 DUP1 REVERT JUMPDEST SWAP3 POP SWAP3 SWAP1 POP JUMP JUMPDEST PUSH1 0x0 DUP1 PUSH1 0x0 DUP1 PUSH1 0x0 DUP1 PUSH1 0xA0 DUP8 DUP10 SUB SLT ISZERO PUSH2 0x187D JUMPI PUSH1 0x0 DUP1 REVERT JUMPDEST DUP7 CALLDATALOAD SWAP6 POP PUSH1 0x20 DUP8 ADD CALLDATALOAD PUSH2 0x188F DUP2 PUSH2 0x17F6 JUMP JUMPDEST SWAP5 POP PUSH1 0x40 DUP8 ADD CALLDATALOAD SWAP4 POP PUSH1 0x60 DUP8 ADD CALLDATALOAD SWAP3 POP PUSH1 0x80 DUP8 ADD CALLDATALOAD PUSH8 0xFFFFFFFFFFFFFFFF DUP2 GT ISZERO PUSH2 0x18B9 JUMPI PUSH1 0x0 DUP1 REVERT JUMPDEST PUSH2 0x18C5 DUP10 DUP3 DUP11 ADD PUSH2 0x1818 JUMP JUMPDEST SWAP8 SWAP11 SWAP7 SWAP10 POP SWAP5 SWAP8 POP SWAP3 SWAP6 SWAP4 SWAP5 SWAP3 POP POP POP JUMP JUMPDEST PUSH1 0x20 DUP2 MSTORE DUP2 PUSH1 0x20 DUP3 ADD MSTORE DUP2 DUP4 PUSH1 0x40 DUP4 ADD CALLDATACOPY PUSH1 0x0 DUP2 DUP4 ADD PUSH1 0x40 SWAP1 DUP2 ADD SWAP2 SWAP1 SWAP2 MSTORE PUSH1 0x1F SWAP1 SWAP3 ADD PUSH32 0xFFFFFFFFFFFFFFFFFFFFFFFFFFFFFFFFFFFFFFFFFFFFFFFFFFFFFFFFFFFFFFE0 AND ADD ADD SWAP2 SWAP1 POP JUMP JUMPDEST PUSH1 0x0 PUSH1 0x20 DUP3 DUP5 SUB SLT ISZERO PUSH2 0x1936 JUMPI PUSH1 0x0 DUP1 REVERT JUMPDEST DUP2 CALLDATALOAD PUSH2 0x160B DUP2 PUSH2 0x17F6 JUMP JUMPDEST PUSH1 0x0 PUSH1 0x20 DUP3 DUP5 SUB SLT ISZERO PUSH2 0x1953 JUMPI PUSH1 0x0 DUP1 REVERT JUMPDEST POP CALLDATALOAD SWAP2 SWAP1 POP JUMP JUMPDEST PUSH1 0x0 DUP1 PUSH1 0x0 DUP1 PUSH1 0x80 DUP6 DUP8 SUB SLT ISZERO PUSH2 0x1970 JUMPI PUSH1 0x0 DUP1 REVERT JUMPDEST DUP5 CALLDATALOAD SWAP4 POP PUSH1 0x20 DUP6 ADD CALLDATALOAD PUSH2 0x1982 DUP2 PUSH2 0x17F6 JUMP JUMPDEST SWAP4 SWAP7 SWAP4 SWAP6 POP POP POP POP PUSH1 0x40 DUP3 ADD CALLDATALOAD SWAP2 PUSH1 0x60 ADD CALLDATALOAD SWAP1 JUMP JUMPDEST PUSH1 0x20 DUP2 ADD PUSH1 0x5 DUP4 LT PUSH2 0x19D2 JUMPI PUSH32 0x4E487B7100000000000000000000000000000000000000000000000000000000 PUSH1 0x0 MSTORE PUSH1 0x21 PUSH1 0x4 MSTORE PUSH1 0x24 PUSH1 0x0 REVERT JUMPDEST SWAP2 SWAP1 MSTORE SWAP1 JUMP JUMPDEST PUSH1 0x0 DUP1 PUSH1 0x0 DUP1 PUSH1 0x0 DUP1 PUSH1 0x60 DUP8 DUP10 SUB SLT ISZERO PUSH2 0x19F1 JUMPI PUSH1 0x0 DUP1 REVERT JUMPDEST DUP7 CALLDATALOAD PUSH8 0xFFFFFFFFFFFFFFFF DUP1 DUP3 GT ISZERO PUSH2 0x1A09 JUMPI PUSH1 0x0 DUP1 REVERT JUMPDEST PUSH2 0x1A15 DUP11 DUP4 DUP12 ADD PUSH2 0x1818 JUMP JUMPDEST SWAP1 SWAP9 POP SWAP7 POP PUSH1 0x20 DUP10 ADD CALLDATALOAD SWAP2 POP DUP1 DUP3 GT ISZERO PUSH2 0x1A2E JUMPI PUSH1 0x0 DUP1 REVERT JUMPDEST PUSH2 0x1A3A DUP11 DUP4 DUP12 ADD PUSH2 0x1818 JUMP JUMPDEST SWAP1 SWAP7 POP SWAP5 POP PUSH1 0x40 DUP10 ADD CALLDATALOAD SWAP2 POP DUP1 DUP3 GT ISZERO PUSH2 0x1A53 JUMPI PUSH1 0x0 DUP1 REVERT JUMPDEST POP PUSH2 0x18C5 DUP10 DUP3 DUP11 ADD PUSH2 0x1818 JUMP JUMPDEST PUSH1 0x0 DUP1 PUSH1 0x0 DUP1 PUSH1 0x80 DUP6 DUP8 SUB SLT ISZERO PUSH2 0x1A76 JUMPI PUSH1 0x0 DUP1 REVERT JUMPDEST POP POP DUP3 CALLDATALOAD SWAP5 PUSH1 0x20 DUP5 ADD CALLDATALOAD SWAP5 POP PUSH1 0x40 DUP5 ADD CALLDATALOAD SWAP4 PUSH1 0x60 ADD CALLDATALOAD SWAP3 POP SWAP1 POP JUMP JUMPDEST PUSH1 0x0 DUP1 PUSH1 0x0 DUP1 PUSH1 0x40 DUP6 DUP8 SUB SLT ISZERO PUSH2 0x1AA8 JUMPI PUSH1 0x0 DUP1 REVERT JUMPDEST DUP5 CALLDATALOAD PUSH8 0xFFFFFFFFFFFFFFFF DUP1 DUP3 GT ISZERO PUSH2 0x1AC0 JUMPI PUSH1 0x0 DUP1 REVERT JUMPDEST PUSH2 0x1ACC DUP9 DUP4 DUP10 ADD PUSH2 0x1818 JUMP JUMPDEST SWAP1 SWAP7 POP SWAP5 POP PUSH1 0x20 DUP8 ADD CALLDATALOAD SWAP2 POP DUP1 DUP3 GT ISZERO PUSH2 0x1AE5 JUMPI PUSH1 0x0 DUP1 REVERT JUMPDEST POP PUSH2 0x1AF2 DUP8 DUP3 DUP9 ADD PUSH2 0x1818 JUMP JUMPDEST SWAP6 SWAP9 SWAP5 SWAP8 POP SWAP6 POP POP POP POP JUMP JUMPDEST DUP2 DUP2 SUB DUP2 DUP2 GT ISZERO PUSH2 0x36F JUMPI PUSH32 0x4E487B7100000000000000000000000000000000000000000000000000000000 PUSH1 0x0 MSTORE PUSH1 0x11 PUSH1 0x4 MSTORE PUSH1 0x24 PUSH1 0x0 REVERT JUMPDEST PUSH32 0x4E487B7100000000000000000000000000000000000000000000000000000000 PUSH1 0x0 MSTORE PUSH1 0x32 PUSH1 0x4 MSTORE PUSH1 0x24 PUSH1 0x0 REVERT JUMPDEST PUSH1 0x0 PUSH1 0x20 DUP3 DUP5 SUB SLT ISZERO PUSH2 0x1B79 JUMPI PUSH1 0x0 DUP1 REVERT JUMPDEST DUP2 MLOAD DUP1 ISZERO ISZERO DUP2 EQ PUSH2 0x160B JUMPI PUSH1 0x0 DUP1 REVERT JUMPDEST PUSH1 0x0 DUP1 DUP6 DUP6 GT ISZERO PUSH2 0x1B99 JUMPI PUSH1 0x0 DUP1 REVERT JUMPDEST DUP4 DUP7 GT ISZERO PUSH2 0x1BA6 JUMPI PUSH1 0x0 DUP1 REVERT JUMPDEST POP POP DUP3 ADD SWAP4 SWAP2 SWAP1 SWAP3 SUB SWAP2 POP JUMP JUMPDEST PUSH1 0x0 JUMPDEST DUP4 DUP2 LT ISZERO PUSH2 0x1BCE JUMPI DUP2 DUP2 ADD MLOAD DUP4 DUP3 ADD MSTORE PUSH1 0x20 ADD PUSH2 0x1BB6 JUMP JUMPDEST POP POP PUSH1 0x0 SWAP2 ADD MSTORE JUMP JUMPDEST PUSH1 0x0 DUP3 MLOAD PUSH2 0x1BE9 DUP2 DUP5 PUSH1 0x20 DUP8 ADD PUSH2 0x1BB3 JUMP JUMPDEST SWAP2 SWAP1 SWAP2 ADD SWAP3 SWAP2 POP POP JUMP JUMPDEST PUSH1 0x20 DUP2 MSTORE PUSH1 0x0 DUP3 MLOAD DUP1 PUSH1 0x20 DUP5 ADD MSTORE PUSH2 0x1C12 DUP2 PUSH1 0x40 DUP6 ADD PUSH1 0x20 DUP8 ADD PUSH2 0x1BB3 JUMP JUMPDEST PUSH1 0x1F ADD PUSH32 0xFFFFFFFFFFFFFFFFFFFFFFFFFFFFFFFFFFFFFFFFFFFFFFFFFFFFFFFFFFFFFFE0 AND SWAP2 SWAP1 SWAP2 ADD PUSH1 0x40 ADD SWAP3 SWAP2 POP POP JUMP INVALID LOG2 PUSH5 0x6970667358 0x22 SLT KECCAK256 SMOD 0xAA 0xC6 PUSH26 0x432F67CEE4398D9FBA4B3F2BD927FCFC5061355EF590E7A19C1F EQ 0x26 PUSH5 0x736F6C6343 STOP ADDMOD AND STOP CALLER "},"gasEstimates":{"creation":{"codeDepositCost":"1458000","executionCost":"infinite","totalCost":"infinite"},"external":{"POINTS_CONTRACT()":"infinite","__msgData()":"infinite","__msgSender()":"infinite","canClaim(uint256,address,uint256,bytes32)":"11594","claim(uint256,address,uint256,bytes32,bytes32[])":"infinite","claimEpochs(uint256)":"11049","claimed(bytes32)":"2484","currentEpochId()":"2339","forwarderRegistry()":"infinite","isTrustedForwarder(address)":"infinite","owner()":"infinite","recoverERC20s(address[],address[],uint256[])":"infinite","recoverERC721s(address[],address[],uint256[])":"infinite","recoverETH(address[],uint256[])":"infinite","setMerkleRoot(bytes32,uint256,uint256,uint256)":"infinite","supportsInterface(bytes4)":"infinite","transferOwnership(address)":"infinite"}},"methodIdentifiers":{"POINTS_CONTRACT()":"2d4c2f93","__msgData()":"31e66e1e","__msgSender()":"d1a91ff2","canClaim(uint256,address,uint256,bytes32)":"673d588a","claim(uint256,address,uint256,bytes32,bytes32[])":"2035a4dd","claimEpochs(uint256)":"5c9a509b","claimed(bytes32)":"cc3c0f06","currentEpochId()":"eacdc5ff","forwarderRegistry()":"2b4c9f16","isTrustedForwarder(address)":"572b6c05","owner()":"8da5cb5b","recoverERC20s(address[],address[],uint256[])":"73c8a958","recoverERC721s(address[],address[],uint256[])":"c3666c36","recoverETH(address[],uint256[])":"f7ba94bd","setMerkleRoot(bytes32,uint256,uint256,uint256)":"833d47b6","supportsInterface(bytes4)":"01ffc9a7","transferOwnership(address)":"f2fde38b"}},"storageLayout":{"storage":[{"astId":2792,"contract":"contracts/mocks/payment/LimitedOCPointsMerkleClaimMock.sol:LimitedOCPointsMerkleClaimMock","label":"currentEpochId","offset":0,"slot":"0","type":"t_uint256"},{"astId":2798,"contract":"contracts/mocks/payment/LimitedOCPointsMerkleClaimMock.sol:LimitedOCPointsMerkleClaimMock","label":"claimEpochs","offset":0,"slot":"1","type":"t_mapping(t_uint256,t_struct(ClaimEpoch)2789_storage)"},{"astId":2803,"contract":"contracts/mocks/payment/LimitedOCPointsMerkleClaimMock.sol:LimitedOCPointsMerkleClaimMock","label":"claimed","offset":0,"slot":"2","type":"t_mapping(t_bytes32,t_bool)"}],"types":{"t_bool":{"encoding":"inplace","label":"bool","numberOfBytes":"1"},"t_bytes32":{"encoding":"inplace","label":"bytes32","numberOfBytes":"32"},"t_mapping(t_bytes32,t_bool)":{"encoding":"mapping","key":"t_bytes32","label":"mapping(bytes32 => bool)","numberOfBytes":"32","value":"t_bool"},"t_mapping(t_uint256,t_struct(ClaimEpoch)2789_storage)":{"encoding":"mapping","key":"t_uint256","label":"mapping(uint256 => struct LimitedOCPointsMerkleClaim.ClaimEpoch)","numberOfBytes":"32","value":"t_struct(ClaimEpoch)2789_storage"},"t_struct(ClaimEpoch)2789_storage":{"encoding":"inplace","label":"struct LimitedOCPointsMerkleClaim.ClaimEpoch","members":[{"astId":2780,"contract":"contracts/mocks/payment/LimitedOCPointsMerkleClaimMock.sol:LimitedOCPointsMerkleClaimMock","label":"merkleRoot","offset":0,"slot":"0","type":"t_bytes32"},{"astId":2782,"contract":"contracts/mocks/payment/LimitedOCPointsMerkleClaimMock.sol:LimitedOCPointsMerkleClaimMock","label":"totalAmount","offset":0,"slot":"1","type":"t_uint256"},{"astId":2784,"contract":"contracts/mocks/payment/LimitedOCPointsMerkleClaimMock.sol:LimitedOCPointsMerkleClaimMock","label":"amountLeft","offset":0,"slot":"2","type":"t_uint256"},{"astId":2786,"contract":"contracts/mocks/payment/LimitedOCPointsMerkleClaimMock.sol:LimitedOCPointsMerkleClaimMock","label":"startTime","offset":0,"slot":"3","type":"t_uint256"},{"astId":2788,"contract":"contracts/mocks/payment/LimitedOCPointsMerkleClaimMock.sol:LimitedOCPointsMerkleClaimMock","label":"endTime","offset":0,"slot":"4","type":"t_uint256"}],"numberOfBytes":"160"},"t_uint256":{"encoding":"inplace","label":"uint256","numberOfBytes":"32"}}},"userdoc":{"errors":{"AlreadyClaimed(address,uint256,bytes32,uint256)":[{"notice":"Thrown when trying to claim the same allocation more than once."}],"ClaimEpochNotFound(uint256)":[{"notice":"Thrown when trying to access a non-existent epoch."}],"ClaimingEpochNotActive(uint256,uint256,uint256)":[{"notice":"Thrown when trying to claim outside the valid time epoch."}],"IllegalInterfaceId()":[{"notice":"Thrown when setting the illegal interfaceId 0xffffffff."}],"InconsistentArrayLengths()":[{"notice":"Thrown when the multiple related arrays have different lengths."}],"InsufficientPoolAmount(uint256,uint256)":[{"notice":"Thrown when the pool doesn't have enough tokens for the claim."}],"InvalidClaimWindow(uint256,uint256)":[{"notice":"Thrown when the start time is not before the end time."}],"InvalidPointsContractAddress(address)":[{"notice":"Thrown when the reward contract address is invalid."}],"InvalidProof(address,uint256,bytes32,uint256)":[{"notice":"Thrown when a proof cannot be verified."}],"NotContractOwner(address)":[{"notice":"Thrown when an account is not the contract owner but is required to."}]},"events":{"MerkleRootSet(uint256,bytes32,uint256,uint256,uint256)":{"notice":"Emitted when a new merkle root is set for an epoch."},"OwnershipTransferred(address,address)":{"notice":"Emitted when the contract ownership changes."},"PointsClaimed(uint256,bytes32,address,uint256,uint256)":{"notice":"Emitted when a points is claimed."}},"kind":"user","methods":{"POINTS_CONTRACT()":{"notice":"A reference to the points contract."},"__msgData()":{"notice":"Internal function to access the current msg.data."},"__msgSender()":{"notice":"Internal function to access the current msg.sender."},"canClaim(uint256,address,uint256,bytes32)":{"notice":"Checks if a user can claim rewards for a given epoch."},"claim(uint256,address,uint256,bytes32,bytes32[])":{"notice":"Claims points for a specific epoch and given recipient address."},"claimEpochs(uint256)":{"notice":"Mapping from epoch ID to claiming epoch data."},"claimed(bytes32)":{"notice":"Mapping from leaf hash to claimed status."},"currentEpochId()":{"notice":"Current epoch counter."},"isTrustedForwarder(address)":{"notice":"Checks whether a forwarder is trusted."},"owner()":{"notice":"Gets the address of the contract owner."},"recoverERC20s(address[],address[],uint256[])":{"notice":"Extract ERC20 tokens which were accidentally sent to the contract to a list of accounts."},"recoverERC721s(address[],address[],uint256[])":{"notice":"Extract ERC721 tokens which were accidentally sent to the contract to a list of accounts."},"recoverETH(address[],uint256[])":{"notice":"Extract ETH tokens which were accidentally sent to the contract to a list of accounts."},"setMerkleRoot(bytes32,uint256,uint256,uint256)":{"notice":"Sets a new merkle root for a epoch with a limited reward pool and time constraints."},"supportsInterface(bytes4)":{"notice":"Returns whether this contract implements a given interface."},"transferOwnership(address)":{"notice":"Sets the address of the new contract owner."}},"version":1}}}}