{"contracts/land/EDULandRewards.sol":{"EDULandRewards":{"abi":[{"inputs":[{"internalType":"uint256","name":"maxRewardTimeWindow","type":"uint256"},{"internalType":"address","name":"referee","type":"address"},{"internalType":"address","name":"landAddress","type":"address"},{"internalType":"address","name":"rewardToken","type":"address"},{"internalType":"uint256","name":"rewardPerSecond_","type":"uint256"}],"stateMutability":"nonpayable","type":"constructor"},{"inputs":[],"name":"ETHTransferFailed","type":"error"},{"inputs":[],"name":"NoRewardToClaim","type":"error"},{"inputs":[],"name":"OnlyKycWallet","type":"error"},{"inputs":[],"name":"OnlyReferee","type":"error"},{"anonymous":false,"inputs":[{"indexed":true,"internalType":"uint256","name":"batchNumber","type":"uint256"},{"indexed":false,"internalType":"uint256","name":"rewardPerLand","type":"uint256"}],"name":"BatchFinalized","type":"event"},{"anonymous":false,"inputs":[{"indexed":true,"internalType":"address","name":"account","type":"address"},{"indexed":true,"internalType":"uint256","name":"batchNumber","type":"uint256"},{"indexed":true,"internalType":"uint256","name":"tokenId","type":"uint256"},{"indexed":false,"internalType":"uint256","name":"amount","type":"uint256"}],"name":"Claimed","type":"event"},{"anonymous":false,"inputs":[{"indexed":false,"internalType":"uint8","name":"version","type":"uint8"}],"name":"Initialized","type":"event"},{"anonymous":false,"inputs":[{"indexed":false,"internalType":"bool","name":"_disabled","type":"bool"}],"name":"LogSetKycDisabled","type":"event"},{"anonymous":false,"inputs":[{"indexed":false,"internalType":"uint256","name":"rewardPerSecond","type":"uint256"}],"name":"RewardPerSecondUpdated","type":"event"},{"anonymous":false,"inputs":[{"indexed":true,"internalType":"bytes32","name":"role","type":"bytes32"},{"indexed":true,"internalType":"bytes32","name":"previousAdminRole","type":"bytes32"},{"indexed":true,"internalType":"bytes32","name":"newAdminRole","type":"bytes32"}],"name":"RoleAdminChanged","type":"event"},{"anonymous":false,"inputs":[{"indexed":true,"internalType":"bytes32","name":"role","type":"bytes32"},{"indexed":true,"internalType":"address","name":"account","type":"address"},{"indexed":true,"internalType":"address","name":"sender","type":"address"}],"name":"RoleGranted","type":"event"},{"anonymous":false,"inputs":[{"indexed":true,"internalType":"bytes32","name":"role","type":"bytes32"},{"indexed":true,"internalType":"address","name":"account","type":"address"},{"indexed":true,"internalType":"address","name":"sender","type":"address"}],"name":"RoleRevoked","type":"event"},{"inputs":[],"name":"ADMIN_KYC_CONTROLLER_ROLE","outputs":[{"internalType":"bytes32","name":"","type":"bytes32"}],"stateMutability":"view","type":"function"},{"inputs":[],"name":"DEFAULT_ADMIN_ROLE","outputs":[{"internalType":"bytes32","name":"","type":"bytes32"}],"stateMutability":"view","type":"function"},{"inputs":[],"name":"KYC_CONTROLLER_ROLE","outputs":[{"internalType":"bytes32","name":"","type":"bytes32"}],"stateMutability":"view","type":"function"},{"inputs":[],"name":"MAX_REWARD_TIME_WINDOW","outputs":[{"internalType":"uint256","name":"","type":"uint256"}],"stateMutability":"view","type":"function"},{"inputs":[],"name":"NODE_KEY","outputs":[{"internalType":"contract INodeKey","name":"","type":"address"}],"stateMutability":"view","type":"function"},{"inputs":[],"name":"OWNER_ROLE","outputs":[{"internalType":"bytes32","name":"","type":"bytes32"}],"stateMutability":"view","type":"function"},{"inputs":[],"name":"REFEREE","outputs":[{"internalType":"contract IReferee","name":"","type":"address"}],"stateMutability":"view","type":"function"},{"inputs":[],"name":"REWARDS_CONTROLLER_ROLE","outputs":[{"internalType":"bytes32","name":"","type":"bytes32"}],"stateMutability":"view","type":"function"},{"inputs":[],"name":"REWARD_TOKEN","outputs":[{"internalType":"address","name":"","type":"address"}],"stateMutability":"view","type":"function"},{"inputs":[{"internalType":"address[]","name":"_wallets","type":"address[]"}],"name":"addKycWallets","outputs":[],"stateMutability":"nonpayable","type":"function"},{"inputs":[{"internalType":"uint256","name":"_nodeKeyId","type":"uint256"},{"internalType":"uint256[]","name":"_batchNumbers","type":"uint256[]"}],"name":"claimReward","outputs":[],"stateMutability":"nonpayable","type":"function"},{"inputs":[],"name":"getKycWallets","outputs":[{"internalType":"address[]","name":"","type":"address[]"}],"stateMutability":"view","type":"function"},{"inputs":[{"internalType":"bytes32","name":"role","type":"bytes32"}],"name":"getRoleAdmin","outputs":[{"internalType":"bytes32","name":"","type":"bytes32"}],"stateMutability":"view","type":"function"},{"inputs":[{"internalType":"bytes32","name":"role","type":"bytes32"},{"internalType":"address","name":"account","type":"address"}],"name":"grantRole","outputs":[],"stateMutability":"nonpayable","type":"function"},{"inputs":[{"internalType":"bytes32","name":"role","type":"bytes32"},{"internalType":"address","name":"account","type":"address"}],"name":"hasRole","outputs":[{"internalType":"bool","name":"","type":"bool"}],"stateMutability":"view","type":"function"},{"inputs":[{"internalType":"address","name":"wallet","type":"address"}],"name":"isKycWallet","outputs":[{"internalType":"bool","name":"","type":"bool"}],"stateMutability":"view","type":"function"},{"inputs":[],"name":"kycDisabled","outputs":[{"internalType":"bool","name":"","type":"bool"}],"stateMutability":"view","type":"function"},{"inputs":[{"internalType":"uint256","name":"_batchNumber","type":"uint256"},{"internalType":"uint256","name":"_nodeKeyId","type":"uint256"}],"name":"onAttest","outputs":[],"stateMutability":"nonpayable","type":"function"},{"inputs":[{"internalType":"uint256","name":"_batchNumber","type":"uint256"},{"internalType":"uint256[]","name":"_nodeKeyIds","type":"uint256[]"}],"name":"onBatchAttest","outputs":[],"stateMutability":"nonpayable","type":"function"},{"inputs":[{"internalType":"uint256","name":"_batchNumber","type":"uint256"},{"internalType":"uint256","name":"_l1NodeConfirmedTimestamp","type":"uint256"},{"internalType":"uint256","name":"_prevL1NodeConfirmedTimestamp","type":"uint256"},{"internalType":"uint256","name":"_nrOfSuccessfulAttestations","type":"uint256"}],"name":"onFinalize","outputs":[],"stateMutability":"nonpayable","type":"function"},{"inputs":[{"internalType":"address[]","name":"_wallets","type":"address[]"}],"name":"removeKycWallets","outputs":[],"stateMutability":"nonpayable","type":"function"},{"inputs":[{"internalType":"bytes32","name":"role","type":"bytes32"},{"internalType":"address","name":"account","type":"address"}],"name":"renounceRole","outputs":[],"stateMutability":"nonpayable","type":"function"},{"inputs":[{"internalType":"bytes32","name":"role","type":"bytes32"},{"internalType":"address","name":"account","type":"address"}],"name":"revokeRole","outputs":[],"stateMutability":"nonpayable","type":"function"},{"inputs":[{"internalType":"uint256","name":"","type":"uint256"}],"name":"rewardPerLandOfBatch","outputs":[{"internalType":"uint256","name":"","type":"uint256"}],"stateMutability":"view","type":"function"},{"inputs":[],"name":"rewardPerSecond","outputs":[{"internalType":"uint256","name":"","type":"uint256"}],"stateMutability":"view","type":"function"},{"inputs":[{"internalType":"uint256","name":"","type":"uint256"},{"internalType":"uint256","name":"","type":"uint256"}],"name":"rewardsRecipients","outputs":[{"internalType":"address","name":"","type":"address"}],"stateMutability":"view","type":"function"},{"inputs":[{"internalType":"bool","name":"_disabled","type":"bool"}],"name":"setKycDisabled","outputs":[],"stateMutability":"nonpayable","type":"function"},{"inputs":[{"internalType":"uint256","name":"newRewardPerSecond","type":"uint256"}],"name":"setRewardPerSecond","outputs":[],"stateMutability":"nonpayable","type":"function"},{"inputs":[{"internalType":"bytes4","name":"interfaceId","type":"bytes4"}],"name":"supportsInterface","outputs":[{"internalType":"bool","name":"","type":"bool"}],"stateMutability":"view","type":"function"},{"stateMutability":"payable","type":"receive"}],"devdoc":{"events":{"Initialized(uint8)":{"details":"Triggered when the contract has been initialized or reinitialized."},"RoleAdminChanged(bytes32,bytes32,bytes32)":{"details":"Emitted when `newAdminRole` is set as ``role``'s admin role, replacing `previousAdminRole` `DEFAULT_ADMIN_ROLE` is the starting admin for all roles, despite {RoleAdminChanged} not being emitted signaling this. _Available since v3.1._"},"RoleGranted(bytes32,address,address)":{"details":"Emitted when `account` is granted `role`. `sender` is the account that originated the contract call, an admin role bearer except when using {AccessControl-_setupRole}."},"RoleRevoked(bytes32,address,address)":{"details":"Emitted when `account` is revoked `role`. `sender` is the account that originated the contract call:   - if using `revokeRole`, it is the admin role bearer   - if using `renounceRole`, it is the role bearer (i.e. `account`)"}},"kind":"dev","methods":{"claimReward(uint256,uint256[])":{"details":"_batchNumbers can contain 0 (empty items). Make sure to skip over it.","params":{"_batchNumbers":"Batch numbers of successful attestations made by the node key.","_nodeKeyId":"Id of the node key which is claiming the reward."}},"constructor":{"details":"emits a {RewardPerSecondUpdated} event","params":{"landAddress":"The address of the land contract","maxRewardTimeWindow":"The maximum reward time window","referee":"The address of the referee contract","rewardPerSecond_":"The reward per second","rewardToken":"The address of the reward token"}},"getRoleAdmin(bytes32)":{"details":"Returns the admin role that controls `role`. See {grantRole} and {revokeRole}. To change a role's admin, use {_setRoleAdmin}."},"grantRole(bytes32,address)":{"details":"Grants `role` to `account`. If `account` had not been already granted `role`, emits a {RoleGranted} event. Requirements: - the caller must have ``role``'s admin role. May emit a {RoleGranted} event."},"hasRole(bytes32,address)":{"details":"Returns `true` if `account` has been granted `role`."},"isKycWallet(address)":{"params":{"wallet":"The wallet to be checked"}},"onAttest(uint256,uint256)":{"params":{"_batchNumber":"Batch number of the attestation.","_nodeKeyId":"Id of the node key."}},"onBatchAttest(uint256,uint256[])":{"details":"_nodeKeyIds can contain 0 (empty items). We skip over it here.","params":{"_batchNumber":"Batch number of the attestation.","_nodeKeyIds":"Id of the node keys."}},"onFinalize(uint256,uint256,uint256,uint256)":{"details":"_prevL1NodeConfirmedTimestamp can be 0 when _batchNumber is the first ever batch being finalized.","params":{"_batchNumber":"Batch number that is being finalized.","_l1NodeConfirmedTimestamp":"Timestamp of which the batch is confirmed on the L1.","_nrOfSuccessfulAttestations":"Number of node keys which have submitted a valid attestation.","_prevL1NodeConfirmedTimestamp":"Timestamp of which the previous batch is confirmed on the L1."}},"renounceRole(bytes32,address)":{"details":"Revokes `role` from the calling account. Roles are often managed via {grantRole} and {revokeRole}: this function's purpose is to provide a mechanism for accounts to lose their privileges if they are compromised (such as when a trusted device is misplaced). If the calling account had been revoked `role`, emits a {RoleRevoked} event. Requirements: - the caller must be `account`. May emit a {RoleRevoked} event."},"revokeRole(bytes32,address)":{"details":"Revokes `role` from `account`. If `account` had been granted `role`, emits a {RoleRevoked} event. Requirements: - the caller must have ``role``'s admin role. May emit a {RoleRevoked} event."},"setRewardPerSecond(uint256)":{"details":"Reverts with {AccessControlUnauthorizedAccount} if the sender is not the operator.Emits a {RewardPerSecondUpdated} event.","params":{"newRewardPerSecond":"The new new reward per second to be set"}},"supportsInterface(bytes4)":{"details":"See {IERC165-supportsInterface}."}},"version":1},"evm":{"bytecode":{"linkReferences":{},"object":"6101006040523480156200001257600080fd5b506040516200241b3803806200241b83398101604081905262000035916200024f565b6001600160a01b0382811660805284811660a052831660c05260e0859052609a8190556040518181527f951c6f64eb06ec6a6682072cda71420984dd55199006684bb820a80fd7e987939060200160405180910390a1620000c67fff073d0dcf74639a8d3c1c189ac3a527293f2fbae27f12acbfdaabd420f2a5f3600080516020620023fb83398151915262000142565b620001017f6753d6b325cc45d6566c947baabf366ee79f2a1a197e23fbd9074f661fe28cb1600080516020620023fb83398151915262000142565b6200011c600080516020620023fb8339815191528062000142565b62000137600080516020620023fb833981519152336200018d565b5050505050620002ad565b600082815260656020526040808220600101805490849055905190918391839186917fbd79b86ffe0ab8e8776151514217cd7cacd52c909f66475c3af44e129f0b00ff9190a4505050565b60008281526065602090815260408083206001600160a01b038516845290915290205460ff166200022e5760008281526065602090815260408083206001600160a01b03851684529091529020805460ff19166001179055620001ed3390565b6001600160a01b0316816001600160a01b0316837f2f8788117e7eff1d82e926ec794901d17c78024a50270940304540a733656f0d60405160405180910390a45b5050565b80516001600160a01b03811681146200024a57600080fd5b919050565b600080600080600060a086880312156200026857600080fd5b855194506200027a6020870162000232565b93506200028a6040870162000232565b92506200029a6060870162000232565b9150608086015190509295509295909350565b60805160a05160c05160e0516120dc6200031f600039600081816105b50152610c9d01526000818161056101526110e20152600081816104c40152818161077201528181610a2701528181610aa10152610c250152600081816104f801528181611430015261150901526120dc6000f3fe6080604052600436106101c65760003560e01c8063905eaf1d116100f7578063b7355fb411610095578063dcd50d2e11610064578063dcd50d2e14610617578063e2d18be61461064b578063e58378bb1461066d578063e6ed1180146106a157600080fd5b8063b7355fb414610583578063c2a74752146105a3578063cbd73cb2146105d7578063d547741f146105f757600080fd5b806399248ea7116100d157806399248ea7146104e65780639b6e0d741461051a578063a217fddf1461053a578063a5f957f91461054f57600080fd5b8063905eaf1d1461043f57806391d148541461045f57806395126fe6146104b257600080fd5b80635dff0ce9116101645780637cd727ba1161013e5780637cd727ba146103a157806386f8a03e146103c15780638ad9c511146103f55780638f10369a1461042957600080fd5b80635dff0ce91461033a57806366da5815146103545780636f63b8ab1461037457600080fd5b8063229d683d116101a0578063229d683d1461029c578063248a9ca3146102bc5780632f2ff15d146102fa57806336568abe1461031a57600080fd5b806301ffc9a7146101d25780630f0479b4146102075780631bcdb77a1461027a57600080fd5b366101cd57005b600080fd5b3480156101de57600080fd5b506101f26101ed366004611b74565b6106c1565b60405190151581526020015b60405180910390f35b34801561021357600080fd5b50610255610222366004611bb6565b609c60209081526000928352604080842090915290825290205473ffffffffffffffffffffffffffffffffffffffff1681565b60405173ffffffffffffffffffffffffffffffffffffffff90911681526020016101fe565b34801561028657600080fd5b5061029a610295366004611bd8565b61075a565b005b3480156102a857600080fd5b5061029a6102b7366004611c56565b6107db565b3480156102c857600080fd5b506102ec6102d7366004611c98565b60009081526065602052604090206001015490565b6040519081526020016101fe565b34801561030657600080fd5b5061029a610315366004611cd3565b61084b565b34801561032657600080fd5b5061029a610335366004611cd3565b610875565b34801561034657600080fd5b506097546101f29060ff1681565b34801561036057600080fd5b5061029a61036f366004611c98565b61092d565b34801561038057600080fd5b506102ec61038f366004611c98565b609b6020526000908152604090205481565b3480156103ad57600080fd5b5061029a6103bc366004611c56565b610994565b3480156103cd57600080fd5b506102ec7f6753d6b325cc45d6566c947baabf366ee79f2a1a197e23fbd9074f661fe28cb181565b34801561040157600080fd5b506102ec7fff073d0dcf74639a8d3c1c189ac3a527293f2fbae27f12acbfdaabd420f2a5f381565b34801561043557600080fd5b506102ec609a5481565b34801561044b57600080fd5b506101f261045a366004611d03565b610a04565b34801561046b57600080fd5b506101f261047a366004611cd3565b600091825260656020908152604080842073ffffffffffffffffffffffffffffffffffffffff93909316845291905290205460ff1690565b3480156104be57600080fd5b506102557f000000000000000000000000000000000000000000000000000000000000000081565b3480156104f257600080fd5b506102557f000000000000000000000000000000000000000000000000000000000000000081565b34801561052657600080fd5b5061029a610535366004611d20565b610a0f565b34801561054657600080fd5b506102ec600081565b34801561055b57600080fd5b506102557f000000000000000000000000000000000000000000000000000000000000000081565b34801561058f57600080fd5b5061029a61059e366004611d20565b610a89565b3480156105af57600080fd5b506102ec7f000000000000000000000000000000000000000000000000000000000000000081565b3480156105e357600080fd5b5061029a6105f2366004611d7a565b610b4e565b34801561060357600080fd5b5061029a610612366004611cd3565b610bd7565b34801561062357600080fd5b506102ec7f05e9bce9d0ef4f3ddc258eb9c04459fd66d9887e1079e0b19880fc501a3ddd5f81565b34801561065757600080fd5b50610660610bfc565b6040516101fe9190611d97565b34801561067957600080fd5b506102ec7fb19546dff01e856fb3f010c267a7b1c60363cf8a4664e21cc89c26224620214e81565b3480156106ad57600080fd5b5061029a6106bc366004611bb6565b610c0d565b60007fffffffff0000000000000000000000000000000000000000000000000000000082167f7965db0b00000000000000000000000000000000000000000000000000000000148061075457507f01ffc9a7000000000000000000000000000000000000000000000000000000007fffffffff000000000000000000000000000000000000000000000000000000008316145b92915050565b3373ffffffffffffffffffffffffffffffffffffffff7f000000000000000000000000000000000000000000000000000000000000000016146107c9576040517ffe1bb40d00000000000000000000000000000000000000000000000000000000815260040160405180910390fd5b6107d584848484610c86565b50505050565b7f6753d6b325cc45d6566c947baabf366ee79f2a1a197e23fbd9074f661fe28cb161080581610d36565b60005b828110156107d55761084284848381811061082557610825611df1565b905060200201602081019061083a9190611d03565b609890610d43565b50600101610808565b60008281526065602052604090206001015461086681610d36565b6108708383610d6c565b505050565b73ffffffffffffffffffffffffffffffffffffffff8116331461091f576040517f08c379a000000000000000000000000000000000000000000000000000000000815260206004820152602f60248201527f416363657373436f6e74726f6c3a2063616e206f6e6c792072656e6f756e636560448201527f20726f6c657320666f722073656c66000000000000000000000000000000000060648201526084015b60405180910390fd5b6109298282610e60565b5050565b7fff073d0dcf74639a8d3c1c189ac3a527293f2fbae27f12acbfdaabd420f2a5f361095781610d36565b609a8290556040518281527f951c6f64eb06ec6a6682072cda71420984dd55199006684bb820a80fd7e98793906020015b60405180910390a15050565b7f6753d6b325cc45d6566c947baabf366ee79f2a1a197e23fbd9074f661fe28cb16109be81610d36565b60005b828110156107d5576109fb8484838181106109de576109de611df1565b90506020020160208101906109f39190611d03565b609890610f1b565b506001016109c1565b600061075482610f3d565b3373ffffffffffffffffffffffffffffffffffffffff7f00000000000000000000000000000000000000000000000000000000000000001614610a7e576040517ffe1bb40d00000000000000000000000000000000000000000000000000000000815260040160405180910390fd5b610870838383610f4a565b3373ffffffffffffffffffffffffffffffffffffffff7f00000000000000000000000000000000000000000000000000000000000000001614610af8576040517ffe1bb40d00000000000000000000000000000000000000000000000000000000815260040160405180910390fd5b60005b818110156107d557828282818110610b1557610b15611df1565b9050602002013560000315610b4657610b4684848484818110610b3a57610b3a611df1565b905060200201356110b3565b600101610afb565b7f6753d6b325cc45d6566c947baabf366ee79f2a1a197e23fbd9074f661fe28cb1610b7881610d36565b609780547fffffffffffffffffffffffffffffffffffffffffffffffffffffffffffffff00168315159081179091556040519081527fd76c99a8f1eb77feac25a1b5d67950ec13adb34b7d857c57e8d2894aaf3f230d90602001610988565b600082815260656020526040902060010154610bf281610d36565b6108708383610e60565b6060610c0860986111bf565b905090565b3373ffffffffffffffffffffffffffffffffffffffff7f00000000000000000000000000000000000000000000000000000000000000001614610c7c576040517ffe1bb40d00000000000000000000000000000000000000000000000000000000815260040160405180910390fd5b61092982826110b3565b80156107d5576000610cc1610c9b8486611e4f565b7f00000000000000000000000000000000000000000000000000000000000000006111cc565b9050600082609a5483610cd49190611e62565b610cde9190611e79565b6000878152609b6020526040908190208290555190915086907fdaf33b9129a7a0fda038b5357d925eac65b91567a5f1a3e563a27a13e542d6b790610d269084815260200190565b60405180910390a2505050505050565b610d4081336111e2565b50565b6000610d658373ffffffffffffffffffffffffffffffffffffffff841661129c565b9392505050565b600082815260656020908152604080832073ffffffffffffffffffffffffffffffffffffffff8516845290915290205460ff1661092957600082815260656020908152604080832073ffffffffffffffffffffffffffffffffffffffff85168452909152902080547fffffffffffffffffffffffffffffffffffffffffffffffffffffffffffffff00166001179055610e023390565b73ffffffffffffffffffffffffffffffffffffffff168173ffffffffffffffffffffffffffffffffffffffff16837f2f8788117e7eff1d82e926ec794901d17c78024a50270940304540a733656f0d60405160405180910390a45050565b600082815260656020908152604080832073ffffffffffffffffffffffffffffffffffffffff8516845290915290205460ff161561092957600082815260656020908152604080832073ffffffffffffffffffffffffffffffffffffffff8516808552925280832080547fffffffffffffffffffffffffffffffffffffffffffffffffffffffffffffff0016905551339285917ff6391f5c32d9c69d2a47ea670b442974b53935d1edc7fd64eb21e047a839171b9190a45050565b6000610d658373ffffffffffffffffffffffffffffffffffffffff84166112eb565b60006107546098836113de565b6000805b8281101561107b576000848483818110610f6a57610f6a611df1565b90506020020135905080600003610f815750611073565b6000818152609c60209081526040808320898452909152902080547fffffffffffffffffffffffff0000000000000000000000000000000000000000811690915560975473ffffffffffffffffffffffffffffffffffffffff9091169060ff16158015610ff45750610ff281610f3d565b155b15611000575050611073565b6000828152609b6020526040902054611019828261140d565b87838373ffffffffffffffffffffffffffffffffffffffff167f9cdcf2f7714cca3508c7f0110b04a90a80a3a8dd0e35de99689db74d28c5383e8460405161106391815260200190565b60405180910390a4600194505050505b600101610f4e565b50806107d5576040517f5aa9184d00000000000000000000000000000000000000000000000000000000815260040160405180910390fd5b6040517f6352211e000000000000000000000000000000000000000000000000000000008152600481018290527f000000000000000000000000000000000000000000000000000000000000000073ffffffffffffffffffffffffffffffffffffffff1690636352211e90602401602060405180830381865afa15801561113e573d6000803e3d6000fd5b505050506040513d601f19601f820116820180604052508101906111629190611eb4565b6000928352609c60209081526040808520938552929052912080547fffffffffffffffffffffffff00000000000000000000000000000000000000001673ffffffffffffffffffffffffffffffffffffffff909216919091179055565b60606000610d658361152f565b60008183106111db5781610d65565b5090919050565b600082815260656020908152604080832073ffffffffffffffffffffffffffffffffffffffff8516845290915290205460ff16610929576112228161158b565b61122d8360206115aa565b60405160200161123e929190611ef5565b604080517fffffffffffffffffffffffffffffffffffffffffffffffffffffffffffffffe0818403018152908290527f08c379a000000000000000000000000000000000000000000000000000000000825261091691600401611f76565b60008181526001830160205260408120546112e357508154600181810184556000848152602080822090930184905584548482528286019093526040902091909155610754565b506000610754565b600081815260018301602052604081205480156113d457600061130f600183611e4f565b855490915060009061132390600190611e4f565b905081811461138857600086600001828154811061134357611343611df1565b906000526020600020015490508087600001848154811061136657611366611df1565b6000918252602080832090910192909255918252600188019052604090208390555b855486908061139957611399611fc7565b600190038181906000526020600020016000905590558560010160008681526020019081526020016000206000905560019350505050610754565b6000915050610754565b73ffffffffffffffffffffffffffffffffffffffff811660009081526001830160205260408120541515610d65565b7fffffffffffffffffffffffff11111111111111111111111111111111111111127f000000000000000000000000000000000000000000000000000000000000000073ffffffffffffffffffffffffffffffffffffffff16016115045760008273ffffffffffffffffffffffffffffffffffffffff168260405160006040518083038185875af1925050503d80600081146114c4576040519150601f19603f3d011682016040523d82523d6000602084013e6114c9565b606091505b5050905080610870576040517fb12d13eb00000000000000000000000000000000000000000000000000000000815260040160405180910390fd5b6109297f000000000000000000000000000000000000000000000000000000000000000083836117ed565b60608160000180548060200260200160405190810160405280929190818152602001828054801561157f57602002820191906000526020600020905b81548152602001906001019080831161156b575b50505050509050919050565b606061075473ffffffffffffffffffffffffffffffffffffffff831660145b606060006115b9836002611e62565b6115c4906002611ff6565b67ffffffffffffffff8111156115dc576115dc612009565b6040519080825280601f01601f191660200182016040528015611606576020820181803683370190505b5090507f30000000000000000000000000000000000000000000000000000000000000008160008151811061163d5761163d611df1565b60200101907effffffffffffffffffffffffffffffffffffffffffffffffffffffffffffff1916908160001a9053507f7800000000000000000000000000000000000000000000000000000000000000816001815181106116a0576116a0611df1565b60200101907effffffffffffffffffffffffffffffffffffffffffffffffffffffffffffff1916908160001a90535060006116dc846002611e62565b6116e7906001611ff6565b90505b6001811115611784577f303132333435363738396162636465660000000000000000000000000000000085600f166010811061172857611728611df1565b1a60f81b82828151811061173e5761173e611df1565b60200101907effffffffffffffffffffffffffffffffffffffffffffffffffffffffffffff1916908160001a90535060049490941c9361177d81612038565b90506116ea565b508315610d65576040517f08c379a000000000000000000000000000000000000000000000000000000000815260206004820181905260248201527f537472696e67733a20686578206c656e67746820696e73756666696369656e746044820152606401610916565b6040805173ffffffffffffffffffffffffffffffffffffffff848116602483015260448083018590528351808403909101815260649092018352602080830180517bffffffffffffffffffffffffffffffffffffffffffffffffffffffff167fa9059cbb0000000000000000000000000000000000000000000000000000000017905283518085019094528084527f5361666545524332303a206c6f772d6c6576656c2063616c6c206661696c656490840152610870928692916000916118b8918516908490611965565b90508051600014806118d95750808060200190518101906118d9919061206d565b610870576040517f08c379a000000000000000000000000000000000000000000000000000000000815260206004820152602a60248201527f5361666545524332303a204552433230206f7065726174696f6e20646964206e60448201527f6f742073756363656564000000000000000000000000000000000000000000006064820152608401610916565b6060611974848460008561197c565b949350505050565b606082471015611a0e576040517f08c379a000000000000000000000000000000000000000000000000000000000815260206004820152602660248201527f416464726573733a20696e73756666696369656e742062616c616e636520666f60448201527f722063616c6c00000000000000000000000000000000000000000000000000006064820152608401610916565b6000808673ffffffffffffffffffffffffffffffffffffffff168587604051611a37919061208a565b60006040518083038185875af1925050503d8060008114611a74576040519150601f19603f3d011682016040523d82523d6000602084013e611a79565b606091505b5091509150611a8a87838387611a95565b979650505050505050565b60608315611b2b578251600003611b245773ffffffffffffffffffffffffffffffffffffffff85163b611b24576040517f08c379a000000000000000000000000000000000000000000000000000000000815260206004820152601d60248201527f416464726573733a2063616c6c20746f206e6f6e2d636f6e74726163740000006044820152606401610916565b5081611974565b6119748383815115611b405781518083602001fd5b806040517f08c379a00000000000000000000000000000000000000000000000000000000081526004016109169190611f76565b600060208284031215611b8657600080fd5b81357fffffffff0000000000000000000000000000000000000000000000000000000081168114610d6557600080fd5b60008060408385031215611bc957600080fd5b50508035926020909101359150565b60008060008060808587031215611bee57600080fd5b5050823594602084013594506040840135936060013592509050565b60008083601f840112611c1c57600080fd5b50813567ffffffffffffffff811115611c3457600080fd5b6020830191508360208260051b8501011115611c4f57600080fd5b9250929050565b60008060208385031215611c6957600080fd5b823567ffffffffffffffff811115611c8057600080fd5b611c8c85828601611c0a565b90969095509350505050565b600060208284031215611caa57600080fd5b5035919050565b73ffffffffffffffffffffffffffffffffffffffff81168114610d4057600080fd5b60008060408385031215611ce657600080fd5b823591506020830135611cf881611cb1565b809150509250929050565b600060208284031215611d1557600080fd5b8135610d6581611cb1565b600080600060408486031215611d3557600080fd5b83359250602084013567ffffffffffffffff811115611d5357600080fd5b611d5f86828701611c0a565b9497909650939450505050565b8015158114610d4057600080fd5b600060208284031215611d8c57600080fd5b8135610d6581611d6c565b6020808252825182820181905260009190848201906040850190845b81811015611de557835173ffffffffffffffffffffffffffffffffffffffff1683529284019291840191600101611db3565b50909695505050505050565b7f4e487b7100000000000000000000000000000000000000000000000000000000600052603260045260246000fd5b7f4e487b7100000000000000000000000000000000000000000000000000000000600052601160045260246000fd5b8181038181111561075457610754611e20565b808202811582820484141761075457610754611e20565b600082611eaf577f4e487b7100000000000000000000000000000000000000000000000000000000600052601260045260246000fd5b500490565b600060208284031215611ec657600080fd5b8151610d6581611cb1565b60005b83811015611eec578181015183820152602001611ed4565b50506000910152565b7f416363657373436f6e74726f6c3a206163636f756e7420000000000000000000815260008351611f2d816017850160208801611ed1565b7f206973206d697373696e6720726f6c65200000000000000000000000000000006017918401918201528351611f6a816028840160208801611ed1565b01602801949350505050565b6020815260008251806020840152611f95816040850160208701611ed1565b601f017fffffffffffffffffffffffffffffffffffffffffffffffffffffffffffffffe0169190910160400192915050565b7f4e487b7100000000000000000000000000000000000000000000000000000000600052603160045260246000fd5b8082018082111561075457610754611e20565b7f4e487b7100000000000000000000000000000000000000000000000000000000600052604160045260246000fd5b60008161204757612047611e20565b507fffffffffffffffffffffffffffffffffffffffffffffffffffffffffffffffff0190565b60006020828403121561207f57600080fd5b8151610d6581611d6c565b6000825161209c818460208701611ed1565b919091019291505056fea26469706673582212207e3705b2b245fd1c82813a26f50730548c325723b2f46b25a65e9799e9b07efe64736f6c63430008160033b19546dff01e856fb3f010c267a7b1c60363cf8a4664e21cc89c26224620214e","opcodes":"PUSH2 0x100 PUSH1 0x40 MSTORE CALLVALUE DUP1 ISZERO PUSH3 0x12 JUMPI PUSH1 0x0 DUP1 REVERT JUMPDEST POP PUSH1 0x40 MLOAD PUSH3 0x241B CODESIZE SUB DUP1 PUSH3 0x241B DUP4 CODECOPY DUP2 ADD PUSH1 0x40 DUP2 SWAP1 MSTORE PUSH3 0x35 SWAP2 PUSH3 0x24F JUMP JUMPDEST PUSH1 0x1 PUSH1 0x1 PUSH1 0xA0 SHL SUB DUP3 DUP2 AND PUSH1 0x80 MSTORE DUP5 DUP2 AND PUSH1 0xA0 MSTORE DUP4 AND PUSH1 0xC0 MSTORE PUSH1 0xE0 DUP6 SWAP1 MSTORE PUSH1 0x9A DUP2 SWAP1 SSTORE PUSH1 0x40 MLOAD DUP2 DUP2 MSTORE PUSH32 0x951C6F64EB06EC6A6682072CDA71420984DD55199006684BB820A80FD7E98793 SWAP1 PUSH1 0x20 ADD PUSH1 0x40 MLOAD DUP1 SWAP2 SUB SWAP1 LOG1 PUSH3 0xC6 PUSH32 0xFF073D0DCF74639A8D3C1C189AC3A527293F2FBAE27F12ACBFDAABD420F2A5F3 PUSH1 0x0 DUP1 MLOAD PUSH1 0x20 PUSH3 0x23FB DUP4 CODECOPY DUP2 MLOAD SWAP2 MSTORE PUSH3 0x142 JUMP JUMPDEST PUSH3 0x101 PUSH32 0x6753D6B325CC45D6566C947BAABF366EE79F2A1A197E23FBD9074F661FE28CB1 PUSH1 0x0 DUP1 MLOAD PUSH1 0x20 PUSH3 0x23FB DUP4 CODECOPY DUP2 MLOAD SWAP2 MSTORE PUSH3 0x142 JUMP JUMPDEST PUSH3 0x11C PUSH1 0x0 DUP1 MLOAD PUSH1 0x20 PUSH3 0x23FB DUP4 CODECOPY DUP2 MLOAD SWAP2 MSTORE DUP1 PUSH3 0x142 JUMP JUMPDEST PUSH3 0x137 PUSH1 0x0 DUP1 MLOAD PUSH1 0x20 PUSH3 0x23FB DUP4 CODECOPY DUP2 MLOAD SWAP2 MSTORE CALLER PUSH3 0x18D JUMP JUMPDEST POP POP POP POP POP PUSH3 0x2AD JUMP JUMPDEST PUSH1 0x0 DUP3 DUP2 MSTORE PUSH1 0x65 PUSH1 0x20 MSTORE PUSH1 0x40 DUP1 DUP3 KECCAK256 PUSH1 0x1 ADD DUP1 SLOAD SWAP1 DUP5 SWAP1 SSTORE SWAP1 MLOAD SWAP1 SWAP2 DUP4 SWAP2 DUP4 SWAP2 DUP7 SWAP2 PUSH32 0xBD79B86FFE0AB8E8776151514217CD7CACD52C909F66475C3AF44E129F0B00FF SWAP2 SWAP1 LOG4 POP POP POP JUMP JUMPDEST PUSH1 0x0 DUP3 DUP2 MSTORE PUSH1 0x65 PUSH1 0x20 SWAP1 DUP2 MSTORE PUSH1 0x40 DUP1 DUP4 KECCAK256 PUSH1 0x1 PUSH1 0x1 PUSH1 0xA0 SHL SUB DUP6 AND DUP5 MSTORE SWAP1 SWAP2 MSTORE SWAP1 KECCAK256 SLOAD PUSH1 0xFF AND PUSH3 0x22E JUMPI PUSH1 0x0 DUP3 DUP2 MSTORE PUSH1 0x65 PUSH1 0x20 SWAP1 DUP2 MSTORE PUSH1 0x40 DUP1 DUP4 KECCAK256 PUSH1 0x1 PUSH1 0x1 PUSH1 0xA0 SHL SUB DUP6 AND DUP5 MSTORE SWAP1 SWAP2 MSTORE SWAP1 KECCAK256 DUP1 SLOAD PUSH1 0xFF NOT AND PUSH1 0x1 OR SWAP1 SSTORE PUSH3 0x1ED CALLER SWAP1 JUMP JUMPDEST PUSH1 0x1 PUSH1 0x1 PUSH1 0xA0 SHL SUB AND DUP2 PUSH1 0x1 PUSH1 0x1 PUSH1 0xA0 SHL SUB AND DUP4 PUSH32 0x2F8788117E7EFF1D82E926EC794901D17C78024A50270940304540A733656F0D PUSH1 0x40 MLOAD PUSH1 0x40 MLOAD DUP1 SWAP2 SUB SWAP1 LOG4 JUMPDEST POP POP JUMP JUMPDEST DUP1 MLOAD PUSH1 0x1 PUSH1 0x1 PUSH1 0xA0 SHL SUB DUP2 AND DUP2 EQ PUSH3 0x24A JUMPI PUSH1 0x0 DUP1 REVERT JUMPDEST SWAP2 SWAP1 POP JUMP JUMPDEST PUSH1 0x0 DUP1 PUSH1 0x0 DUP1 PUSH1 0x0 PUSH1 0xA0 DUP7 DUP9 SUB SLT ISZERO PUSH3 0x268 JUMPI PUSH1 0x0 DUP1 REVERT JUMPDEST DUP6 MLOAD SWAP5 POP PUSH3 0x27A PUSH1 0x20 DUP8 ADD PUSH3 0x232 JUMP JUMPDEST SWAP4 POP PUSH3 0x28A PUSH1 0x40 DUP8 ADD PUSH3 0x232 JUMP JUMPDEST SWAP3 POP PUSH3 0x29A PUSH1 0x60 DUP8 ADD PUSH3 0x232 JUMP JUMPDEST SWAP2 POP PUSH1 0x80 DUP7 ADD MLOAD SWAP1 POP SWAP3 SWAP6 POP SWAP3 SWAP6 SWAP1 SWAP4 POP JUMP JUMPDEST PUSH1 0x80 MLOAD PUSH1 0xA0 MLOAD PUSH1 0xC0 MLOAD PUSH1 0xE0 MLOAD PUSH2 0x20DC PUSH3 0x31F PUSH1 0x0 CODECOPY PUSH1 0x0 DUP2 DUP2 PUSH2 0x5B5 ADD MSTORE PUSH2 0xC9D ADD MSTORE PUSH1 0x0 DUP2 DUP2 PUSH2 0x561 ADD MSTORE PUSH2 0x10E2 ADD MSTORE PUSH1 0x0 DUP2 DUP2 PUSH2 0x4C4 ADD MSTORE DUP2 DUP2 PUSH2 0x772 ADD MSTORE DUP2 DUP2 PUSH2 0xA27 ADD MSTORE DUP2 DUP2 PUSH2 0xAA1 ADD MSTORE PUSH2 0xC25 ADD MSTORE PUSH1 0x0 DUP2 DUP2 PUSH2 0x4F8 ADD MSTORE DUP2 DUP2 PUSH2 0x1430 ADD MSTORE PUSH2 0x1509 ADD MSTORE PUSH2 0x20DC PUSH1 0x0 RETURN INVALID PUSH1 0x80 PUSH1 0x40 MSTORE PUSH1 0x4 CALLDATASIZE LT PUSH2 0x1C6 JUMPI PUSH1 0x0 CALLDATALOAD PUSH1 0xE0 SHR DUP1 PUSH4 0x905EAF1D GT PUSH2 0xF7 JUMPI DUP1 PUSH4 0xB7355FB4 GT PUSH2 0x95 JUMPI DUP1 PUSH4 0xDCD50D2E GT PUSH2 0x64 JUMPI DUP1 PUSH4 0xDCD50D2E EQ PUSH2 0x617 JUMPI DUP1 PUSH4 0xE2D18BE6 EQ PUSH2 0x64B JUMPI DUP1 PUSH4 0xE58378BB EQ PUSH2 0x66D JUMPI DUP1 PUSH4 0xE6ED1180 EQ PUSH2 0x6A1 JUMPI PUSH1 0x0 DUP1 REVERT JUMPDEST DUP1 PUSH4 0xB7355FB4 EQ PUSH2 0x583 JUMPI DUP1 PUSH4 0xC2A74752 EQ PUSH2 0x5A3 JUMPI DUP1 PUSH4 0xCBD73CB2 EQ PUSH2 0x5D7 JUMPI DUP1 PUSH4 0xD547741F EQ PUSH2 0x5F7 JUMPI PUSH1 0x0 DUP1 REVERT JUMPDEST DUP1 PUSH4 0x99248EA7 GT PUSH2 0xD1 JUMPI DUP1 PUSH4 0x99248EA7 EQ PUSH2 0x4E6 JUMPI DUP1 PUSH4 0x9B6E0D74 EQ PUSH2 0x51A JUMPI DUP1 PUSH4 0xA217FDDF EQ PUSH2 0x53A JUMPI DUP1 PUSH4 0xA5F957F9 EQ PUSH2 0x54F JUMPI PUSH1 0x0 DUP1 REVERT JUMPDEST DUP1 PUSH4 0x905EAF1D EQ PUSH2 0x43F JUMPI DUP1 PUSH4 0x91D14854 EQ PUSH2 0x45F JUMPI DUP1 PUSH4 0x95126FE6 EQ PUSH2 0x4B2 JUMPI PUSH1 0x0 DUP1 REVERT JUMPDEST DUP1 PUSH4 0x5DFF0CE9 GT PUSH2 0x164 JUMPI DUP1 PUSH4 0x7CD727BA GT PUSH2 0x13E JUMPI DUP1 PUSH4 0x7CD727BA EQ PUSH2 0x3A1 JUMPI DUP1 PUSH4 0x86F8A03E EQ PUSH2 0x3C1 JUMPI DUP1 PUSH4 0x8AD9C511 EQ PUSH2 0x3F5 JUMPI DUP1 PUSH4 0x8F10369A EQ PUSH2 0x429 JUMPI PUSH1 0x0 DUP1 REVERT JUMPDEST DUP1 PUSH4 0x5DFF0CE9 EQ PUSH2 0x33A JUMPI DUP1 PUSH4 0x66DA5815 EQ PUSH2 0x354 JUMPI DUP1 PUSH4 0x6F63B8AB EQ PUSH2 0x374 JUMPI PUSH1 0x0 DUP1 REVERT JUMPDEST DUP1 PUSH4 0x229D683D GT PUSH2 0x1A0 JUMPI DUP1 PUSH4 0x229D683D EQ PUSH2 0x29C JUMPI DUP1 PUSH4 0x248A9CA3 EQ PUSH2 0x2BC JUMPI DUP1 PUSH4 0x2F2FF15D EQ PUSH2 0x2FA JUMPI DUP1 PUSH4 0x36568ABE EQ PUSH2 0x31A JUMPI PUSH1 0x0 DUP1 REVERT JUMPDEST DUP1 PUSH4 0x1FFC9A7 EQ PUSH2 0x1D2 JUMPI DUP1 PUSH4 0xF0479B4 EQ PUSH2 0x207 JUMPI DUP1 PUSH4 0x1BCDB77A EQ PUSH2 0x27A JUMPI PUSH1 0x0 DUP1 REVERT JUMPDEST CALLDATASIZE PUSH2 0x1CD JUMPI STOP JUMPDEST PUSH1 0x0 DUP1 REVERT JUMPDEST CALLVALUE DUP1 ISZERO PUSH2 0x1DE JUMPI PUSH1 0x0 DUP1 REVERT JUMPDEST POP PUSH2 0x1F2 PUSH2 0x1ED CALLDATASIZE PUSH1 0x4 PUSH2 0x1B74 JUMP JUMPDEST PUSH2 0x6C1 JUMP JUMPDEST PUSH1 0x40 MLOAD SWAP1 ISZERO ISZERO DUP2 MSTORE PUSH1 0x20 ADD JUMPDEST PUSH1 0x40 MLOAD DUP1 SWAP2 SUB SWAP1 RETURN JUMPDEST CALLVALUE DUP1 ISZERO PUSH2 0x213 JUMPI PUSH1 0x0 DUP1 REVERT JUMPDEST POP PUSH2 0x255 PUSH2 0x222 CALLDATASIZE PUSH1 0x4 PUSH2 0x1BB6 JUMP JUMPDEST PUSH1 0x9C PUSH1 0x20 SWAP1 DUP2 MSTORE PUSH1 0x0 SWAP3 DUP4 MSTORE PUSH1 0x40 DUP1 DUP5 KECCAK256 SWAP1 SWAP2 MSTORE SWAP1 DUP3 MSTORE SWAP1 KECCAK256 SLOAD PUSH20 0xFFFFFFFFFFFFFFFFFFFFFFFFFFFFFFFFFFFFFFFF AND DUP2 JUMP JUMPDEST PUSH1 0x40 MLOAD PUSH20 0xFFFFFFFFFFFFFFFFFFFFFFFFFFFFFFFFFFFFFFFF SWAP1 SWAP2 AND DUP2 MSTORE PUSH1 0x20 ADD PUSH2 0x1FE JUMP JUMPDEST CALLVALUE DUP1 ISZERO PUSH2 0x286 JUMPI PUSH1 0x0 DUP1 REVERT JUMPDEST POP PUSH2 0x29A PUSH2 0x295 CALLDATASIZE PUSH1 0x4 PUSH2 0x1BD8 JUMP JUMPDEST PUSH2 0x75A JUMP JUMPDEST STOP JUMPDEST CALLVALUE DUP1 ISZERO PUSH2 0x2A8 JUMPI PUSH1 0x0 DUP1 REVERT JUMPDEST POP PUSH2 0x29A PUSH2 0x2B7 CALLDATASIZE PUSH1 0x4 PUSH2 0x1C56 JUMP JUMPDEST PUSH2 0x7DB JUMP JUMPDEST CALLVALUE DUP1 ISZERO PUSH2 0x2C8 JUMPI PUSH1 0x0 DUP1 REVERT JUMPDEST POP PUSH2 0x2EC PUSH2 0x2D7 CALLDATASIZE PUSH1 0x4 PUSH2 0x1C98 JUMP JUMPDEST PUSH1 0x0 SWAP1 DUP2 MSTORE PUSH1 0x65 PUSH1 0x20 MSTORE PUSH1 0x40 SWAP1 KECCAK256 PUSH1 0x1 ADD SLOAD SWAP1 JUMP JUMPDEST PUSH1 0x40 MLOAD SWAP1 DUP2 MSTORE PUSH1 0x20 ADD PUSH2 0x1FE JUMP JUMPDEST CALLVALUE DUP1 ISZERO PUSH2 0x306 JUMPI PUSH1 0x0 DUP1 REVERT JUMPDEST POP PUSH2 0x29A PUSH2 0x315 CALLDATASIZE PUSH1 0x4 PUSH2 0x1CD3 JUMP JUMPDEST PUSH2 0x84B JUMP JUMPDEST CALLVALUE DUP1 ISZERO PUSH2 0x326 JUMPI PUSH1 0x0 DUP1 REVERT JUMPDEST POP PUSH2 0x29A PUSH2 0x335 CALLDATASIZE PUSH1 0x4 PUSH2 0x1CD3 JUMP JUMPDEST PUSH2 0x875 JUMP JUMPDEST CALLVALUE DUP1 ISZERO PUSH2 0x346 JUMPI PUSH1 0x0 DUP1 REVERT JUMPDEST POP PUSH1 0x97 SLOAD PUSH2 0x1F2 SWAP1 PUSH1 0xFF AND DUP2 JUMP JUMPDEST CALLVALUE DUP1 ISZERO PUSH2 0x360 JUMPI PUSH1 0x0 DUP1 REVERT JUMPDEST POP PUSH2 0x29A PUSH2 0x36F CALLDATASIZE PUSH1 0x4 PUSH2 0x1C98 JUMP JUMPDEST PUSH2 0x92D JUMP JUMPDEST CALLVALUE DUP1 ISZERO PUSH2 0x380 JUMPI PUSH1 0x0 DUP1 REVERT JUMPDEST POP PUSH2 0x2EC PUSH2 0x38F CALLDATASIZE PUSH1 0x4 PUSH2 0x1C98 JUMP JUMPDEST PUSH1 0x9B PUSH1 0x20 MSTORE PUSH1 0x0 SWAP1 DUP2 MSTORE PUSH1 0x40 SWAP1 KECCAK256 SLOAD DUP2 JUMP JUMPDEST CALLVALUE DUP1 ISZERO PUSH2 0x3AD JUMPI PUSH1 0x0 DUP1 REVERT JUMPDEST POP PUSH2 0x29A PUSH2 0x3BC CALLDATASIZE PUSH1 0x4 PUSH2 0x1C56 JUMP JUMPDEST PUSH2 0x994 JUMP JUMPDEST CALLVALUE DUP1 ISZERO PUSH2 0x3CD JUMPI PUSH1 0x0 DUP1 REVERT JUMPDEST POP PUSH2 0x2EC PUSH32 0x6753D6B325CC45D6566C947BAABF366EE79F2A1A197E23FBD9074F661FE28CB1 DUP2 JUMP JUMPDEST CALLVALUE DUP1 ISZERO PUSH2 0x401 JUMPI PUSH1 0x0 DUP1 REVERT JUMPDEST POP PUSH2 0x2EC PUSH32 0xFF073D0DCF74639A8D3C1C189AC3A527293F2FBAE27F12ACBFDAABD420F2A5F3 DUP2 JUMP JUMPDEST CALLVALUE DUP1 ISZERO PUSH2 0x435 JUMPI PUSH1 0x0 DUP1 REVERT JUMPDEST POP PUSH2 0x2EC PUSH1 0x9A SLOAD DUP2 JUMP JUMPDEST CALLVALUE DUP1 ISZERO PUSH2 0x44B JUMPI PUSH1 0x0 DUP1 REVERT JUMPDEST POP PUSH2 0x1F2 PUSH2 0x45A CALLDATASIZE PUSH1 0x4 PUSH2 0x1D03 JUMP JUMPDEST PUSH2 0xA04 JUMP JUMPDEST CALLVALUE DUP1 ISZERO PUSH2 0x46B JUMPI PUSH1 0x0 DUP1 REVERT JUMPDEST POP PUSH2 0x1F2 PUSH2 0x47A CALLDATASIZE PUSH1 0x4 PUSH2 0x1CD3 JUMP JUMPDEST PUSH1 0x0 SWAP2 DUP3 MSTORE PUSH1 0x65 PUSH1 0x20 SWAP1 DUP2 MSTORE PUSH1 0x40 DUP1 DUP5 KECCAK256 PUSH20 0xFFFFFFFFFFFFFFFFFFFFFFFFFFFFFFFFFFFFFFFF SWAP4 SWAP1 SWAP4 AND DUP5 MSTORE SWAP2 SWAP1 MSTORE SWAP1 KECCAK256 SLOAD PUSH1 0xFF AND SWAP1 JUMP JUMPDEST CALLVALUE DUP1 ISZERO PUSH2 0x4BE JUMPI PUSH1 0x0 DUP1 REVERT JUMPDEST POP PUSH2 0x255 PUSH32 0x0 DUP2 JUMP JUMPDEST CALLVALUE DUP1 ISZERO PUSH2 0x4F2 JUMPI PUSH1 0x0 DUP1 REVERT JUMPDEST POP PUSH2 0x255 PUSH32 0x0 DUP2 JUMP JUMPDEST CALLVALUE DUP1 ISZERO PUSH2 0x526 JUMPI PUSH1 0x0 DUP1 REVERT JUMPDEST POP PUSH2 0x29A PUSH2 0x535 CALLDATASIZE PUSH1 0x4 PUSH2 0x1D20 JUMP JUMPDEST PUSH2 0xA0F JUMP JUMPDEST CALLVALUE DUP1 ISZERO PUSH2 0x546 JUMPI PUSH1 0x0 DUP1 REVERT JUMPDEST POP PUSH2 0x2EC PUSH1 0x0 DUP2 JUMP JUMPDEST CALLVALUE DUP1 ISZERO PUSH2 0x55B JUMPI PUSH1 0x0 DUP1 REVERT JUMPDEST POP PUSH2 0x255 PUSH32 0x0 DUP2 JUMP JUMPDEST CALLVALUE DUP1 ISZERO PUSH2 0x58F JUMPI PUSH1 0x0 DUP1 REVERT JUMPDEST POP PUSH2 0x29A PUSH2 0x59E CALLDATASIZE PUSH1 0x4 PUSH2 0x1D20 JUMP JUMPDEST PUSH2 0xA89 JUMP JUMPDEST CALLVALUE DUP1 ISZERO PUSH2 0x5AF JUMPI PUSH1 0x0 DUP1 REVERT JUMPDEST POP PUSH2 0x2EC PUSH32 0x0 DUP2 JUMP JUMPDEST CALLVALUE DUP1 ISZERO PUSH2 0x5E3 JUMPI PUSH1 0x0 DUP1 REVERT JUMPDEST POP PUSH2 0x29A PUSH2 0x5F2 CALLDATASIZE PUSH1 0x4 PUSH2 0x1D7A JUMP JUMPDEST PUSH2 0xB4E JUMP JUMPDEST CALLVALUE DUP1 ISZERO PUSH2 0x603 JUMPI PUSH1 0x0 DUP1 REVERT JUMPDEST POP PUSH2 0x29A PUSH2 0x612 CALLDATASIZE PUSH1 0x4 PUSH2 0x1CD3 JUMP JUMPDEST PUSH2 0xBD7 JUMP JUMPDEST CALLVALUE DUP1 ISZERO PUSH2 0x623 JUMPI PUSH1 0x0 DUP1 REVERT JUMPDEST POP PUSH2 0x2EC PUSH32 0x5E9BCE9D0EF4F3DDC258EB9C04459FD66D9887E1079E0B19880FC501A3DDD5F DUP2 JUMP JUMPDEST CALLVALUE DUP1 ISZERO PUSH2 0x657 JUMPI PUSH1 0x0 DUP1 REVERT JUMPDEST POP PUSH2 0x660 PUSH2 0xBFC JUMP JUMPDEST PUSH1 0x40 MLOAD PUSH2 0x1FE SWAP2 SWAP1 PUSH2 0x1D97 JUMP JUMPDEST CALLVALUE DUP1 ISZERO PUSH2 0x679 JUMPI PUSH1 0x0 DUP1 REVERT JUMPDEST POP PUSH2 0x2EC PUSH32 0xB19546DFF01E856FB3F010C267A7B1C60363CF8A4664E21CC89C26224620214E DUP2 JUMP JUMPDEST CALLVALUE DUP1 ISZERO PUSH2 0x6AD JUMPI PUSH1 0x0 DUP1 REVERT JUMPDEST POP PUSH2 0x29A PUSH2 0x6BC CALLDATASIZE PUSH1 0x4 PUSH2 0x1BB6 JUMP JUMPDEST PUSH2 0xC0D JUMP JUMPDEST PUSH1 0x0 PUSH32 0xFFFFFFFF00000000000000000000000000000000000000000000000000000000 DUP3 AND PUSH32 0x7965DB0B00000000000000000000000000000000000000000000000000000000 EQ DUP1 PUSH2 0x754 JUMPI POP PUSH32 0x1FFC9A700000000000000000000000000000000000000000000000000000000 PUSH32 0xFFFFFFFF00000000000000000000000000000000000000000000000000000000 DUP4 AND EQ JUMPDEST SWAP3 SWAP2 POP POP JUMP JUMPDEST CALLER PUSH20 0xFFFFFFFFFFFFFFFFFFFFFFFFFFFFFFFFFFFFFFFF PUSH32 0x0 AND EQ PUSH2 0x7C9 JUMPI PUSH1 0x40 MLOAD PUSH32 0xFE1BB40D00000000000000000000000000000000000000000000000000000000 DUP2 MSTORE PUSH1 0x4 ADD PUSH1 0x40 MLOAD DUP1 SWAP2 SUB SWAP1 REVERT JUMPDEST PUSH2 0x7D5 DUP5 DUP5 DUP5 DUP5 PUSH2 0xC86 JUMP JUMPDEST POP POP POP POP JUMP JUMPDEST PUSH32 0x6753D6B325CC45D6566C947BAABF366EE79F2A1A197E23FBD9074F661FE28CB1 PUSH2 0x805 DUP2 PUSH2 0xD36 JUMP JUMPDEST PUSH1 0x0 JUMPDEST DUP3 DUP2 LT ISZERO PUSH2 0x7D5 JUMPI PUSH2 0x842 DUP5 DUP5 DUP4 DUP2 DUP2 LT PUSH2 0x825 JUMPI PUSH2 0x825 PUSH2 0x1DF1 JUMP JUMPDEST SWAP1 POP PUSH1 0x20 MUL ADD PUSH1 0x20 DUP2 ADD SWAP1 PUSH2 0x83A SWAP2 SWAP1 PUSH2 0x1D03 JUMP JUMPDEST PUSH1 0x98 SWAP1 PUSH2 0xD43 JUMP JUMPDEST POP PUSH1 0x1 ADD PUSH2 0x808 JUMP JUMPDEST PUSH1 0x0 DUP3 DUP2 MSTORE PUSH1 0x65 PUSH1 0x20 MSTORE PUSH1 0x40 SWAP1 KECCAK256 PUSH1 0x1 ADD SLOAD PUSH2 0x866 DUP2 PUSH2 0xD36 JUMP JUMPDEST PUSH2 0x870 DUP4 DUP4 PUSH2 0xD6C JUMP JUMPDEST POP POP POP JUMP JUMPDEST PUSH20 0xFFFFFFFFFFFFFFFFFFFFFFFFFFFFFFFFFFFFFFFF DUP2 AND CALLER EQ PUSH2 0x91F JUMPI PUSH1 0x40 MLOAD PUSH32 0x8C379A000000000000000000000000000000000000000000000000000000000 DUP2 MSTORE PUSH1 0x20 PUSH1 0x4 DUP3 ADD MSTORE PUSH1 0x2F PUSH1 0x24 DUP3 ADD MSTORE PUSH32 0x416363657373436F6E74726F6C3A2063616E206F6E6C792072656E6F756E6365 PUSH1 0x44 DUP3 ADD MSTORE PUSH32 0x20726F6C657320666F722073656C660000000000000000000000000000000000 PUSH1 0x64 DUP3 ADD MSTORE PUSH1 0x84 ADD JUMPDEST PUSH1 0x40 MLOAD DUP1 SWAP2 SUB SWAP1 REVERT JUMPDEST PUSH2 0x929 DUP3 DUP3 PUSH2 0xE60 JUMP JUMPDEST POP POP JUMP JUMPDEST PUSH32 0xFF073D0DCF74639A8D3C1C189AC3A527293F2FBAE27F12ACBFDAABD420F2A5F3 PUSH2 0x957 DUP2 PUSH2 0xD36 JUMP JUMPDEST PUSH1 0x9A DUP3 SWAP1 SSTORE PUSH1 0x40 MLOAD DUP3 DUP2 MSTORE PUSH32 0x951C6F64EB06EC6A6682072CDA71420984DD55199006684BB820A80FD7E98793 SWAP1 PUSH1 0x20 ADD JUMPDEST PUSH1 0x40 MLOAD DUP1 SWAP2 SUB SWAP1 LOG1 POP POP JUMP JUMPDEST PUSH32 0x6753D6B325CC45D6566C947BAABF366EE79F2A1A197E23FBD9074F661FE28CB1 PUSH2 0x9BE DUP2 PUSH2 0xD36 JUMP JUMPDEST PUSH1 0x0 JUMPDEST DUP3 DUP2 LT ISZERO PUSH2 0x7D5 JUMPI PUSH2 0x9FB DUP5 DUP5 DUP4 DUP2 DUP2 LT PUSH2 0x9DE JUMPI PUSH2 0x9DE PUSH2 0x1DF1 JUMP JUMPDEST SWAP1 POP PUSH1 0x20 MUL ADD PUSH1 0x20 DUP2 ADD SWAP1 PUSH2 0x9F3 SWAP2 SWAP1 PUSH2 0x1D03 JUMP JUMPDEST PUSH1 0x98 SWAP1 PUSH2 0xF1B JUMP JUMPDEST POP PUSH1 0x1 ADD PUSH2 0x9C1 JUMP JUMPDEST PUSH1 0x0 PUSH2 0x754 DUP3 PUSH2 0xF3D JUMP JUMPDEST CALLER PUSH20 0xFFFFFFFFFFFFFFFFFFFFFFFFFFFFFFFFFFFFFFFF PUSH32 0x0 AND EQ PUSH2 0xA7E JUMPI PUSH1 0x40 MLOAD PUSH32 0xFE1BB40D00000000000000000000000000000000000000000000000000000000 DUP2 MSTORE PUSH1 0x4 ADD PUSH1 0x40 MLOAD DUP1 SWAP2 SUB SWAP1 REVERT JUMPDEST PUSH2 0x870 DUP4 DUP4 DUP4 PUSH2 0xF4A JUMP JUMPDEST CALLER PUSH20 0xFFFFFFFFFFFFFFFFFFFFFFFFFFFFFFFFFFFFFFFF PUSH32 0x0 AND EQ PUSH2 0xAF8 JUMPI PUSH1 0x40 MLOAD PUSH32 0xFE1BB40D00000000000000000000000000000000000000000000000000000000 DUP2 MSTORE PUSH1 0x4 ADD PUSH1 0x40 MLOAD DUP1 SWAP2 SUB SWAP1 REVERT JUMPDEST PUSH1 0x0 JUMPDEST DUP2 DUP2 LT ISZERO PUSH2 0x7D5 JUMPI DUP3 DUP3 DUP3 DUP2 DUP2 LT PUSH2 0xB15 JUMPI PUSH2 0xB15 PUSH2 0x1DF1 JUMP JUMPDEST SWAP1 POP PUSH1 0x20 MUL ADD CALLDATALOAD PUSH1 0x0 SUB ISZERO PUSH2 0xB46 JUMPI PUSH2 0xB46 DUP5 DUP5 DUP5 DUP5 DUP2 DUP2 LT PUSH2 0xB3A JUMPI PUSH2 0xB3A PUSH2 0x1DF1 JUMP JUMPDEST SWAP1 POP PUSH1 0x20 MUL ADD CALLDATALOAD PUSH2 0x10B3 JUMP JUMPDEST PUSH1 0x1 ADD PUSH2 0xAFB JUMP JUMPDEST PUSH32 0x6753D6B325CC45D6566C947BAABF366EE79F2A1A197E23FBD9074F661FE28CB1 PUSH2 0xB78 DUP2 PUSH2 0xD36 JUMP JUMPDEST PUSH1 0x97 DUP1 SLOAD PUSH32 0xFFFFFFFFFFFFFFFFFFFFFFFFFFFFFFFFFFFFFFFFFFFFFFFFFFFFFFFFFFFFFF00 AND DUP4 ISZERO ISZERO SWAP1 DUP2 OR SWAP1 SWAP2 SSTORE PUSH1 0x40 MLOAD SWAP1 DUP2 MSTORE PUSH32 0xD76C99A8F1EB77FEAC25A1B5D67950EC13ADB34B7D857C57E8D2894AAF3F230D SWAP1 PUSH1 0x20 ADD PUSH2 0x988 JUMP JUMPDEST PUSH1 0x0 DUP3 DUP2 MSTORE PUSH1 0x65 PUSH1 0x20 MSTORE PUSH1 0x40 SWAP1 KECCAK256 PUSH1 0x1 ADD SLOAD PUSH2 0xBF2 DUP2 PUSH2 0xD36 JUMP JUMPDEST PUSH2 0x870 DUP4 DUP4 PUSH2 0xE60 JUMP JUMPDEST PUSH1 0x60 PUSH2 0xC08 PUSH1 0x98 PUSH2 0x11BF JUMP JUMPDEST SWAP1 POP SWAP1 JUMP JUMPDEST CALLER PUSH20 0xFFFFFFFFFFFFFFFFFFFFFFFFFFFFFFFFFFFFFFFF PUSH32 0x0 AND EQ PUSH2 0xC7C JUMPI PUSH1 0x40 MLOAD PUSH32 0xFE1BB40D00000000000000000000000000000000000000000000000000000000 DUP2 MSTORE PUSH1 0x4 ADD PUSH1 0x40 MLOAD DUP1 SWAP2 SUB SWAP1 REVERT JUMPDEST PUSH2 0x929 DUP3 DUP3 PUSH2 0x10B3 JUMP JUMPDEST DUP1 ISZERO PUSH2 0x7D5 JUMPI PUSH1 0x0 PUSH2 0xCC1 PUSH2 0xC9B DUP5 DUP7 PUSH2 0x1E4F JUMP JUMPDEST PUSH32 0x0 PUSH2 0x11CC JUMP JUMPDEST SWAP1 POP PUSH1 0x0 DUP3 PUSH1 0x9A SLOAD DUP4 PUSH2 0xCD4 SWAP2 SWAP1 PUSH2 0x1E62 JUMP JUMPDEST PUSH2 0xCDE SWAP2 SWAP1 PUSH2 0x1E79 JUMP JUMPDEST PUSH1 0x0 DUP8 DUP2 MSTORE PUSH1 0x9B PUSH1 0x20 MSTORE PUSH1 0x40 SWAP1 DUP2 SWAP1 KECCAK256 DUP3 SWAP1 SSTORE MLOAD SWAP1 SWAP2 POP DUP7 SWAP1 PUSH32 0xDAF33B9129A7A0FDA038B5357D925EAC65B91567A5F1A3E563A27A13E542D6B7 SWAP1 PUSH2 0xD26 SWAP1 DUP5 DUP2 MSTORE PUSH1 0x20 ADD SWAP1 JUMP JUMPDEST PUSH1 0x40 MLOAD DUP1 SWAP2 SUB SWAP1 LOG2 POP POP POP POP POP POP JUMP JUMPDEST PUSH2 0xD40 DUP2 CALLER PUSH2 0x11E2 JUMP JUMPDEST POP JUMP JUMPDEST PUSH1 0x0 PUSH2 0xD65 DUP4 PUSH20 0xFFFFFFFFFFFFFFFFFFFFFFFFFFFFFFFFFFFFFFFF DUP5 AND PUSH2 0x129C JUMP JUMPDEST SWAP4 SWAP3 POP POP POP JUMP JUMPDEST PUSH1 0x0 DUP3 DUP2 MSTORE PUSH1 0x65 PUSH1 0x20 SWAP1 DUP2 MSTORE PUSH1 0x40 DUP1 DUP4 KECCAK256 PUSH20 0xFFFFFFFFFFFFFFFFFFFFFFFFFFFFFFFFFFFFFFFF DUP6 AND DUP5 MSTORE SWAP1 SWAP2 MSTORE SWAP1 KECCAK256 SLOAD PUSH1 0xFF AND PUSH2 0x929 JUMPI PUSH1 0x0 DUP3 DUP2 MSTORE PUSH1 0x65 PUSH1 0x20 SWAP1 DUP2 MSTORE PUSH1 0x40 DUP1 DUP4 KECCAK256 PUSH20 0xFFFFFFFFFFFFFFFFFFFFFFFFFFFFFFFFFFFFFFFF DUP6 AND DUP5 MSTORE SWAP1 SWAP2 MSTORE SWAP1 KECCAK256 DUP1 SLOAD PUSH32 0xFFFFFFFFFFFFFFFFFFFFFFFFFFFFFFFFFFFFFFFFFFFFFFFFFFFFFFFFFFFFFF00 AND PUSH1 0x1 OR SWAP1 SSTORE PUSH2 0xE02 CALLER SWAP1 JUMP JUMPDEST PUSH20 0xFFFFFFFFFFFFFFFFFFFFFFFFFFFFFFFFFFFFFFFF AND DUP2 PUSH20 0xFFFFFFFFFFFFFFFFFFFFFFFFFFFFFFFFFFFFFFFF AND DUP4 PUSH32 0x2F8788117E7EFF1D82E926EC794901D17C78024A50270940304540A733656F0D PUSH1 0x40 MLOAD PUSH1 0x40 MLOAD DUP1 SWAP2 SUB SWAP1 LOG4 POP POP JUMP JUMPDEST PUSH1 0x0 DUP3 DUP2 MSTORE PUSH1 0x65 PUSH1 0x20 SWAP1 DUP2 MSTORE PUSH1 0x40 DUP1 DUP4 KECCAK256 PUSH20 0xFFFFFFFFFFFFFFFFFFFFFFFFFFFFFFFFFFFFFFFF DUP6 AND DUP5 MSTORE SWAP1 SWAP2 MSTORE SWAP1 KECCAK256 SLOAD PUSH1 0xFF AND ISZERO PUSH2 0x929 JUMPI PUSH1 0x0 DUP3 DUP2 MSTORE PUSH1 0x65 PUSH1 0x20 SWAP1 DUP2 MSTORE PUSH1 0x40 DUP1 DUP4 KECCAK256 PUSH20 0xFFFFFFFFFFFFFFFFFFFFFFFFFFFFFFFFFFFFFFFF DUP6 AND DUP1 DUP6 MSTORE SWAP3 MSTORE DUP1 DUP4 KECCAK256 DUP1 SLOAD PUSH32 0xFFFFFFFFFFFFFFFFFFFFFFFFFFFFFFFFFFFFFFFFFFFFFFFFFFFFFFFFFFFFFF00 AND SWAP1 SSTORE MLOAD CALLER SWAP3 DUP6 SWAP2 PUSH32 0xF6391F5C32D9C69D2A47EA670B442974B53935D1EDC7FD64EB21E047A839171B SWAP2 SWAP1 LOG4 POP POP JUMP JUMPDEST PUSH1 0x0 PUSH2 0xD65 DUP4 PUSH20 0xFFFFFFFFFFFFFFFFFFFFFFFFFFFFFFFFFFFFFFFF DUP5 AND PUSH2 0x12EB JUMP JUMPDEST PUSH1 0x0 PUSH2 0x754 PUSH1 0x98 DUP4 PUSH2 0x13DE JUMP JUMPDEST PUSH1 0x0 DUP1 JUMPDEST DUP3 DUP2 LT ISZERO PUSH2 0x107B JUMPI PUSH1 0x0 DUP5 DUP5 DUP4 DUP2 DUP2 LT PUSH2 0xF6A JUMPI PUSH2 0xF6A PUSH2 0x1DF1 JUMP JUMPDEST SWAP1 POP PUSH1 0x20 MUL ADD CALLDATALOAD SWAP1 POP DUP1 PUSH1 0x0 SUB PUSH2 0xF81 JUMPI POP PUSH2 0x1073 JUMP JUMPDEST PUSH1 0x0 DUP2 DUP2 MSTORE PUSH1 0x9C PUSH1 0x20 SWAP1 DUP2 MSTORE PUSH1 0x40 DUP1 DUP4 KECCAK256 DUP10 DUP5 MSTORE SWAP1 SWAP2 MSTORE SWAP1 KECCAK256 DUP1 SLOAD PUSH32 0xFFFFFFFFFFFFFFFFFFFFFFFF0000000000000000000000000000000000000000 DUP2 AND SWAP1 SWAP2 SSTORE PUSH1 0x97 SLOAD PUSH20 0xFFFFFFFFFFFFFFFFFFFFFFFFFFFFFFFFFFFFFFFF SWAP1 SWAP2 AND SWAP1 PUSH1 0xFF AND ISZERO DUP1 ISZERO PUSH2 0xFF4 JUMPI POP PUSH2 0xFF2 DUP2 PUSH2 0xF3D JUMP JUMPDEST ISZERO JUMPDEST ISZERO PUSH2 0x1000 JUMPI POP POP PUSH2 0x1073 JUMP JUMPDEST PUSH1 0x0 DUP3 DUP2 MSTORE PUSH1 0x9B PUSH1 0x20 MSTORE PUSH1 0x40 SWAP1 KECCAK256 SLOAD PUSH2 0x1019 DUP3 DUP3 PUSH2 0x140D JUMP JUMPDEST DUP8 DUP4 DUP4 PUSH20 0xFFFFFFFFFFFFFFFFFFFFFFFFFFFFFFFFFFFFFFFF AND PUSH32 0x9CDCF2F7714CCA3508C7F0110B04A90A80A3A8DD0E35DE99689DB74D28C5383E DUP5 PUSH1 0x40 MLOAD PUSH2 0x1063 SWAP2 DUP2 MSTORE PUSH1 0x20 ADD SWAP1 JUMP JUMPDEST PUSH1 0x40 MLOAD DUP1 SWAP2 SUB SWAP1 LOG4 PUSH1 0x1 SWAP5 POP POP POP POP JUMPDEST PUSH1 0x1 ADD PUSH2 0xF4E JUMP JUMPDEST POP DUP1 PUSH2 0x7D5 JUMPI PUSH1 0x40 MLOAD PUSH32 0x5AA9184D00000000000000000000000000000000000000000000000000000000 DUP2 MSTORE PUSH1 0x4 ADD PUSH1 0x40 MLOAD DUP1 SWAP2 SUB SWAP1 REVERT JUMPDEST PUSH1 0x40 MLOAD PUSH32 0x6352211E00000000000000000000000000000000000000000000000000000000 DUP2 MSTORE PUSH1 0x4 DUP2 ADD DUP3 SWAP1 MSTORE PUSH32 0x0 PUSH20 0xFFFFFFFFFFFFFFFFFFFFFFFFFFFFFFFFFFFFFFFF AND SWAP1 PUSH4 0x6352211E SWAP1 PUSH1 0x24 ADD PUSH1 0x20 PUSH1 0x40 MLOAD DUP1 DUP4 SUB DUP2 DUP7 GAS STATICCALL ISZERO DUP1 ISZERO PUSH2 0x113E JUMPI RETURNDATASIZE PUSH1 0x0 DUP1 RETURNDATACOPY RETURNDATASIZE PUSH1 0x0 REVERT JUMPDEST POP POP POP POP PUSH1 0x40 MLOAD RETURNDATASIZE PUSH1 0x1F NOT PUSH1 0x1F DUP3 ADD AND DUP3 ADD DUP1 PUSH1 0x40 MSTORE POP DUP2 ADD SWAP1 PUSH2 0x1162 SWAP2 SWAP1 PUSH2 0x1EB4 JUMP JUMPDEST PUSH1 0x0 SWAP3 DUP4 MSTORE PUSH1 0x9C PUSH1 0x20 SWAP1 DUP2 MSTORE PUSH1 0x40 DUP1 DUP6 KECCAK256 SWAP4 DUP6 MSTORE SWAP3 SWAP1 MSTORE SWAP2 KECCAK256 DUP1 SLOAD PUSH32 0xFFFFFFFFFFFFFFFFFFFFFFFF0000000000000000000000000000000000000000 AND PUSH20 0xFFFFFFFFFFFFFFFFFFFFFFFFFFFFFFFFFFFFFFFF SWAP1 SWAP3 AND SWAP2 SWAP1 SWAP2 OR SWAP1 SSTORE JUMP JUMPDEST PUSH1 0x60 PUSH1 0x0 PUSH2 0xD65 DUP4 PUSH2 0x152F JUMP JUMPDEST PUSH1 0x0 DUP2 DUP4 LT PUSH2 0x11DB JUMPI DUP2 PUSH2 0xD65 JUMP JUMPDEST POP SWAP1 SWAP2 SWAP1 POP JUMP JUMPDEST PUSH1 0x0 DUP3 DUP2 MSTORE PUSH1 0x65 PUSH1 0x20 SWAP1 DUP2 MSTORE PUSH1 0x40 DUP1 DUP4 KECCAK256 PUSH20 0xFFFFFFFFFFFFFFFFFFFFFFFFFFFFFFFFFFFFFFFF DUP6 AND DUP5 MSTORE SWAP1 SWAP2 MSTORE SWAP1 KECCAK256 SLOAD PUSH1 0xFF AND PUSH2 0x929 JUMPI PUSH2 0x1222 DUP2 PUSH2 0x158B JUMP JUMPDEST PUSH2 0x122D DUP4 PUSH1 0x20 PUSH2 0x15AA JUMP JUMPDEST PUSH1 0x40 MLOAD PUSH1 0x20 ADD PUSH2 0x123E SWAP3 SWAP2 SWAP1 PUSH2 0x1EF5 JUMP JUMPDEST PUSH1 0x40 DUP1 MLOAD PUSH32 0xFFFFFFFFFFFFFFFFFFFFFFFFFFFFFFFFFFFFFFFFFFFFFFFFFFFFFFFFFFFFFFE0 DUP2 DUP5 SUB ADD DUP2 MSTORE SWAP1 DUP3 SWAP1 MSTORE PUSH32 0x8C379A000000000000000000000000000000000000000000000000000000000 DUP3 MSTORE PUSH2 0x916 SWAP2 PUSH1 0x4 ADD PUSH2 0x1F76 JUMP JUMPDEST PUSH1 0x0 DUP2 DUP2 MSTORE PUSH1 0x1 DUP4 ADD PUSH1 0x20 MSTORE PUSH1 0x40 DUP2 KECCAK256 SLOAD PUSH2 0x12E3 JUMPI POP DUP2 SLOAD PUSH1 0x1 DUP2 DUP2 ADD DUP5 SSTORE PUSH1 0x0 DUP5 DUP2 MSTORE PUSH1 0x20 DUP1 DUP3 KECCAK256 SWAP1 SWAP4 ADD DUP5 SWAP1 SSTORE DUP5 SLOAD DUP5 DUP3 MSTORE DUP3 DUP7 ADD SWAP1 SWAP4 MSTORE PUSH1 0x40 SWAP1 KECCAK256 SWAP2 SWAP1 SWAP2 SSTORE PUSH2 0x754 JUMP JUMPDEST POP PUSH1 0x0 PUSH2 0x754 JUMP JUMPDEST PUSH1 0x0 DUP2 DUP2 MSTORE PUSH1 0x1 DUP4 ADD PUSH1 0x20 MSTORE PUSH1 0x40 DUP2 KECCAK256 SLOAD DUP1 ISZERO PUSH2 0x13D4 JUMPI PUSH1 0x0 PUSH2 0x130F PUSH1 0x1 DUP4 PUSH2 0x1E4F JUMP JUMPDEST DUP6 SLOAD SWAP1 SWAP2 POP PUSH1 0x0 SWAP1 PUSH2 0x1323 SWAP1 PUSH1 0x1 SWAP1 PUSH2 0x1E4F JUMP JUMPDEST SWAP1 POP DUP2 DUP2 EQ PUSH2 0x1388 JUMPI PUSH1 0x0 DUP7 PUSH1 0x0 ADD DUP3 DUP2 SLOAD DUP2 LT PUSH2 0x1343 JUMPI PUSH2 0x1343 PUSH2 0x1DF1 JUMP JUMPDEST SWAP1 PUSH1 0x0 MSTORE PUSH1 0x20 PUSH1 0x0 KECCAK256 ADD SLOAD SWAP1 POP DUP1 DUP8 PUSH1 0x0 ADD DUP5 DUP2 SLOAD DUP2 LT PUSH2 0x1366 JUMPI PUSH2 0x1366 PUSH2 0x1DF1 JUMP JUMPDEST PUSH1 0x0 SWAP2 DUP3 MSTORE PUSH1 0x20 DUP1 DUP4 KECCAK256 SWAP1 SWAP2 ADD SWAP3 SWAP1 SWAP3 SSTORE SWAP2 DUP3 MSTORE PUSH1 0x1 DUP9 ADD SWAP1 MSTORE PUSH1 0x40 SWAP1 KECCAK256 DUP4 SWAP1 SSTORE JUMPDEST DUP6 SLOAD DUP7 SWAP1 DUP1 PUSH2 0x1399 JUMPI PUSH2 0x1399 PUSH2 0x1FC7 JUMP JUMPDEST PUSH1 0x1 SWAP1 SUB DUP2 DUP2 SWAP1 PUSH1 0x0 MSTORE PUSH1 0x20 PUSH1 0x0 KECCAK256 ADD PUSH1 0x0 SWAP1 SSTORE SWAP1 SSTORE DUP6 PUSH1 0x1 ADD PUSH1 0x0 DUP7 DUP2 MSTORE PUSH1 0x20 ADD SWAP1 DUP2 MSTORE PUSH1 0x20 ADD PUSH1 0x0 KECCAK256 PUSH1 0x0 SWAP1 SSTORE PUSH1 0x1 SWAP4 POP POP POP POP PUSH2 0x754 JUMP JUMPDEST PUSH1 0x0 SWAP2 POP POP PUSH2 0x754 JUMP JUMPDEST PUSH20 0xFFFFFFFFFFFFFFFFFFFFFFFFFFFFFFFFFFFFFFFF DUP2 AND PUSH1 0x0 SWAP1 DUP2 MSTORE PUSH1 0x1 DUP4 ADD PUSH1 0x20 MSTORE PUSH1 0x40 DUP2 KECCAK256 SLOAD ISZERO ISZERO PUSH2 0xD65 JUMP JUMPDEST PUSH32 0xFFFFFFFFFFFFFFFFFFFFFFFF1111111111111111111111111111111111111112 PUSH32 0x0 PUSH20 0xFFFFFFFFFFFFFFFFFFFFFFFFFFFFFFFFFFFFFFFF AND ADD PUSH2 0x1504 JUMPI PUSH1 0x0 DUP3 PUSH20 0xFFFFFFFFFFFFFFFFFFFFFFFFFFFFFFFFFFFFFFFF AND DUP3 PUSH1 0x40 MLOAD PUSH1 0x0 PUSH1 0x40 MLOAD DUP1 DUP4 SUB DUP2 DUP6 DUP8 GAS CALL SWAP3 POP POP POP RETURNDATASIZE DUP1 PUSH1 0x0 DUP2 EQ PUSH2 0x14C4 JUMPI PUSH1 0x40 MLOAD SWAP2 POP PUSH1 0x1F NOT PUSH1 0x3F RETURNDATASIZE ADD AND DUP3 ADD PUSH1 0x40 MSTORE RETURNDATASIZE DUP3 MSTORE RETURNDATASIZE PUSH1 0x0 PUSH1 0x20 DUP5 ADD RETURNDATACOPY PUSH2 0x14C9 JUMP JUMPDEST PUSH1 0x60 SWAP2 POP JUMPDEST POP POP SWAP1 POP DUP1 PUSH2 0x870 JUMPI PUSH1 0x40 MLOAD PUSH32 0xB12D13EB00000000000000000000000000000000000000000000000000000000 DUP2 MSTORE PUSH1 0x4 ADD PUSH1 0x40 MLOAD DUP1 SWAP2 SUB SWAP1 REVERT JUMPDEST PUSH2 0x929 PUSH32 0x0 DUP4 DUP4 PUSH2 0x17ED JUMP JUMPDEST PUSH1 0x60 DUP2 PUSH1 0x0 ADD DUP1 SLOAD DUP1 PUSH1 0x20 MUL PUSH1 0x20 ADD PUSH1 0x40 MLOAD SWAP1 DUP2 ADD PUSH1 0x40 MSTORE DUP1 SWAP3 SWAP2 SWAP1 DUP2 DUP2 MSTORE PUSH1 0x20 ADD DUP3 DUP1 SLOAD DUP1 ISZERO PUSH2 0x157F JUMPI PUSH1 0x20 MUL DUP3 ADD SWAP2 SWAP1 PUSH1 0x0 MSTORE PUSH1 0x20 PUSH1 0x0 KECCAK256 SWAP1 JUMPDEST DUP2 SLOAD DUP2 MSTORE PUSH1 0x20 ADD SWAP1 PUSH1 0x1 ADD SWAP1 DUP1 DUP4 GT PUSH2 0x156B JUMPI JUMPDEST POP POP POP POP POP SWAP1 POP SWAP2 SWAP1 POP JUMP JUMPDEST PUSH1 0x60 PUSH2 0x754 PUSH20 0xFFFFFFFFFFFFFFFFFFFFFFFFFFFFFFFFFFFFFFFF DUP4 AND PUSH1 0x14 JUMPDEST PUSH1 0x60 PUSH1 0x0 PUSH2 0x15B9 DUP4 PUSH1 0x2 PUSH2 0x1E62 JUMP JUMPDEST PUSH2 0x15C4 SWAP1 PUSH1 0x2 PUSH2 0x1FF6 JUMP JUMPDEST PUSH8 0xFFFFFFFFFFFFFFFF DUP2 GT ISZERO PUSH2 0x15DC JUMPI PUSH2 0x15DC PUSH2 0x2009 JUMP JUMPDEST PUSH1 0x40 MLOAD SWAP1 DUP1 DUP3 MSTORE DUP1 PUSH1 0x1F ADD PUSH1 0x1F NOT AND PUSH1 0x20 ADD DUP3 ADD PUSH1 0x40 MSTORE DUP1 ISZERO PUSH2 0x1606 JUMPI PUSH1 0x20 DUP3 ADD DUP2 DUP1 CALLDATASIZE DUP4 CALLDATACOPY ADD SWAP1 POP JUMPDEST POP SWAP1 POP PUSH32 0x3000000000000000000000000000000000000000000000000000000000000000 DUP2 PUSH1 0x0 DUP2 MLOAD DUP2 LT PUSH2 0x163D JUMPI PUSH2 0x163D PUSH2 0x1DF1 JUMP JUMPDEST PUSH1 0x20 ADD ADD SWAP1 PUSH31 0xFFFFFFFFFFFFFFFFFFFFFFFFFFFFFFFFFFFFFFFFFFFFFFFFFFFFFFFFFFFFFF NOT AND SWAP1 DUP2 PUSH1 0x0 BYTE SWAP1 MSTORE8 POP PUSH32 0x7800000000000000000000000000000000000000000000000000000000000000 DUP2 PUSH1 0x1 DUP2 MLOAD DUP2 LT PUSH2 0x16A0 JUMPI PUSH2 0x16A0 PUSH2 0x1DF1 JUMP JUMPDEST PUSH1 0x20 ADD ADD SWAP1 PUSH31 0xFFFFFFFFFFFFFFFFFFFFFFFFFFFFFFFFFFFFFFFFFFFFFFFFFFFFFFFFFFFFFF NOT AND SWAP1 DUP2 PUSH1 0x0 BYTE SWAP1 MSTORE8 POP PUSH1 0x0 PUSH2 0x16DC DUP5 PUSH1 0x2 PUSH2 0x1E62 JUMP JUMPDEST PUSH2 0x16E7 SWAP1 PUSH1 0x1 PUSH2 0x1FF6 JUMP JUMPDEST SWAP1 POP JUMPDEST PUSH1 0x1 DUP2 GT ISZERO PUSH2 0x1784 JUMPI PUSH32 0x3031323334353637383961626364656600000000000000000000000000000000 DUP6 PUSH1 0xF AND PUSH1 0x10 DUP2 LT PUSH2 0x1728 JUMPI PUSH2 0x1728 PUSH2 0x1DF1 JUMP JUMPDEST BYTE PUSH1 0xF8 SHL DUP3 DUP3 DUP2 MLOAD DUP2 LT PUSH2 0x173E JUMPI PUSH2 0x173E PUSH2 0x1DF1 JUMP JUMPDEST PUSH1 0x20 ADD ADD SWAP1 PUSH31 0xFFFFFFFFFFFFFFFFFFFFFFFFFFFFFFFFFFFFFFFFFFFFFFFFFFFFFFFFFFFFFF NOT AND SWAP1 DUP2 PUSH1 0x0 BYTE SWAP1 MSTORE8 POP PUSH1 0x4 SWAP5 SWAP1 SWAP5 SHR SWAP4 PUSH2 0x177D DUP2 PUSH2 0x2038 JUMP JUMPDEST SWAP1 POP PUSH2 0x16EA JUMP JUMPDEST POP DUP4 ISZERO PUSH2 0xD65 JUMPI PUSH1 0x40 MLOAD PUSH32 0x8C379A000000000000000000000000000000000000000000000000000000000 DUP2 MSTORE PUSH1 0x20 PUSH1 0x4 DUP3 ADD DUP2 SWAP1 MSTORE PUSH1 0x24 DUP3 ADD MSTORE PUSH32 0x537472696E67733A20686578206C656E67746820696E73756666696369656E74 PUSH1 0x44 DUP3 ADD MSTORE PUSH1 0x64 ADD PUSH2 0x916 JUMP JUMPDEST PUSH1 0x40 DUP1 MLOAD PUSH20 0xFFFFFFFFFFFFFFFFFFFFFFFFFFFFFFFFFFFFFFFF DUP5 DUP2 AND PUSH1 0x24 DUP4 ADD MSTORE PUSH1 0x44 DUP1 DUP4 ADD DUP6 SWAP1 MSTORE DUP4 MLOAD DUP1 DUP5 SUB SWAP1 SWAP2 ADD DUP2 MSTORE PUSH1 0x64 SWAP1 SWAP3 ADD DUP4 MSTORE PUSH1 0x20 DUP1 DUP4 ADD DUP1 MLOAD PUSH28 0xFFFFFFFFFFFFFFFFFFFFFFFFFFFFFFFFFFFFFFFFFFFFFFFFFFFFFFFF AND PUSH32 0xA9059CBB00000000000000000000000000000000000000000000000000000000 OR SWAP1 MSTORE DUP4 MLOAD DUP1 DUP6 ADD SWAP1 SWAP5 MSTORE DUP1 DUP5 MSTORE PUSH32 0x5361666545524332303A206C6F772D6C6576656C2063616C6C206661696C6564 SWAP1 DUP5 ADD MSTORE PUSH2 0x870 SWAP3 DUP7 SWAP3 SWAP2 PUSH1 0x0 SWAP2 PUSH2 0x18B8 SWAP2 DUP6 AND SWAP1 DUP5 SWAP1 PUSH2 0x1965 JUMP JUMPDEST SWAP1 POP DUP1 MLOAD PUSH1 0x0 EQ DUP1 PUSH2 0x18D9 JUMPI POP DUP1 DUP1 PUSH1 0x20 ADD SWAP1 MLOAD DUP2 ADD SWAP1 PUSH2 0x18D9 SWAP2 SWAP1 PUSH2 0x206D JUMP JUMPDEST PUSH2 0x870 JUMPI PUSH1 0x40 MLOAD PUSH32 0x8C379A000000000000000000000000000000000000000000000000000000000 DUP2 MSTORE PUSH1 0x20 PUSH1 0x4 DUP3 ADD MSTORE PUSH1 0x2A PUSH1 0x24 DUP3 ADD MSTORE PUSH32 0x5361666545524332303A204552433230206F7065726174696F6E20646964206E PUSH1 0x44 DUP3 ADD MSTORE PUSH32 0x6F74207375636365656400000000000000000000000000000000000000000000 PUSH1 0x64 DUP3 ADD MSTORE PUSH1 0x84 ADD PUSH2 0x916 JUMP JUMPDEST PUSH1 0x60 PUSH2 0x1974 DUP5 DUP5 PUSH1 0x0 DUP6 PUSH2 0x197C JUMP JUMPDEST SWAP5 SWAP4 POP POP POP POP JUMP JUMPDEST PUSH1 0x60 DUP3 SELFBALANCE LT ISZERO PUSH2 0x1A0E JUMPI PUSH1 0x40 MLOAD PUSH32 0x8C379A000000000000000000000000000000000000000000000000000000000 DUP2 MSTORE PUSH1 0x20 PUSH1 0x4 DUP3 ADD MSTORE PUSH1 0x26 PUSH1 0x24 DUP3 ADD MSTORE PUSH32 0x416464726573733A20696E73756666696369656E742062616C616E636520666F PUSH1 0x44 DUP3 ADD MSTORE PUSH32 0x722063616C6C0000000000000000000000000000000000000000000000000000 PUSH1 0x64 DUP3 ADD MSTORE PUSH1 0x84 ADD PUSH2 0x916 JUMP JUMPDEST PUSH1 0x0 DUP1 DUP7 PUSH20 0xFFFFFFFFFFFFFFFFFFFFFFFFFFFFFFFFFFFFFFFF AND DUP6 DUP8 PUSH1 0x40 MLOAD PUSH2 0x1A37 SWAP2 SWAP1 PUSH2 0x208A JUMP JUMPDEST PUSH1 0x0 PUSH1 0x40 MLOAD DUP1 DUP4 SUB DUP2 DUP6 DUP8 GAS CALL SWAP3 POP POP POP RETURNDATASIZE DUP1 PUSH1 0x0 DUP2 EQ PUSH2 0x1A74 JUMPI PUSH1 0x40 MLOAD SWAP2 POP PUSH1 0x1F NOT PUSH1 0x3F RETURNDATASIZE ADD AND DUP3 ADD PUSH1 0x40 MSTORE RETURNDATASIZE DUP3 MSTORE RETURNDATASIZE PUSH1 0x0 PUSH1 0x20 DUP5 ADD RETURNDATACOPY PUSH2 0x1A79 JUMP JUMPDEST PUSH1 0x60 SWAP2 POP JUMPDEST POP SWAP2 POP SWAP2 POP PUSH2 0x1A8A DUP8 DUP4 DUP4 DUP8 PUSH2 0x1A95 JUMP JUMPDEST SWAP8 SWAP7 POP POP POP POP POP POP POP JUMP JUMPDEST PUSH1 0x60 DUP4 ISZERO PUSH2 0x1B2B JUMPI DUP3 MLOAD PUSH1 0x0 SUB PUSH2 0x1B24 JUMPI PUSH20 0xFFFFFFFFFFFFFFFFFFFFFFFFFFFFFFFFFFFFFFFF DUP6 AND EXTCODESIZE PUSH2 0x1B24 JUMPI PUSH1 0x40 MLOAD PUSH32 0x8C379A000000000000000000000000000000000000000000000000000000000 DUP2 MSTORE PUSH1 0x20 PUSH1 0x4 DUP3 ADD MSTORE PUSH1 0x1D PUSH1 0x24 DUP3 ADD MSTORE PUSH32 0x416464726573733A2063616C6C20746F206E6F6E2D636F6E7472616374000000 PUSH1 0x44 DUP3 ADD MSTORE PUSH1 0x64 ADD PUSH2 0x916 JUMP JUMPDEST POP DUP2 PUSH2 0x1974 JUMP JUMPDEST PUSH2 0x1974 DUP4 DUP4 DUP2 MLOAD ISZERO PUSH2 0x1B40 JUMPI DUP2 MLOAD DUP1 DUP4 PUSH1 0x20 ADD REVERT JUMPDEST DUP1 PUSH1 0x40 MLOAD PUSH32 0x8C379A000000000000000000000000000000000000000000000000000000000 DUP2 MSTORE PUSH1 0x4 ADD PUSH2 0x916 SWAP2 SWAP1 PUSH2 0x1F76 JUMP JUMPDEST PUSH1 0x0 PUSH1 0x20 DUP3 DUP5 SUB SLT ISZERO PUSH2 0x1B86 JUMPI PUSH1 0x0 DUP1 REVERT JUMPDEST DUP2 CALLDATALOAD PUSH32 0xFFFFFFFF00000000000000000000000000000000000000000000000000000000 DUP2 AND DUP2 EQ PUSH2 0xD65 JUMPI PUSH1 0x0 DUP1 REVERT JUMPDEST PUSH1 0x0 DUP1 PUSH1 0x40 DUP4 DUP6 SUB SLT ISZERO PUSH2 0x1BC9 JUMPI PUSH1 0x0 DUP1 REVERT JUMPDEST POP POP DUP1 CALLDATALOAD SWAP3 PUSH1 0x20 SWAP1 SWAP2 ADD CALLDATALOAD SWAP2 POP JUMP JUMPDEST PUSH1 0x0 DUP1 PUSH1 0x0 DUP1 PUSH1 0x80 DUP6 DUP8 SUB SLT ISZERO PUSH2 0x1BEE JUMPI PUSH1 0x0 DUP1 REVERT JUMPDEST POP POP DUP3 CALLDATALOAD SWAP5 PUSH1 0x20 DUP5 ADD CALLDATALOAD SWAP5 POP PUSH1 0x40 DUP5 ADD CALLDATALOAD SWAP4 PUSH1 0x60 ADD CALLDATALOAD SWAP3 POP SWAP1 POP JUMP JUMPDEST PUSH1 0x0 DUP1 DUP4 PUSH1 0x1F DUP5 ADD SLT PUSH2 0x1C1C JUMPI PUSH1 0x0 DUP1 REVERT JUMPDEST POP DUP2 CALLDATALOAD PUSH8 0xFFFFFFFFFFFFFFFF DUP2 GT ISZERO PUSH2 0x1C34 JUMPI PUSH1 0x0 DUP1 REVERT JUMPDEST PUSH1 0x20 DUP4 ADD SWAP2 POP DUP4 PUSH1 0x20 DUP3 PUSH1 0x5 SHL DUP6 ADD ADD GT ISZERO PUSH2 0x1C4F JUMPI PUSH1 0x0 DUP1 REVERT JUMPDEST SWAP3 POP SWAP3 SWAP1 POP JUMP JUMPDEST PUSH1 0x0 DUP1 PUSH1 0x20 DUP4 DUP6 SUB SLT ISZERO PUSH2 0x1C69 JUMPI PUSH1 0x0 DUP1 REVERT JUMPDEST DUP3 CALLDATALOAD PUSH8 0xFFFFFFFFFFFFFFFF DUP2 GT ISZERO PUSH2 0x1C80 JUMPI PUSH1 0x0 DUP1 REVERT JUMPDEST PUSH2 0x1C8C DUP6 DUP3 DUP7 ADD PUSH2 0x1C0A JUMP JUMPDEST SWAP1 SWAP7 SWAP1 SWAP6 POP SWAP4 POP POP POP POP JUMP JUMPDEST PUSH1 0x0 PUSH1 0x20 DUP3 DUP5 SUB SLT ISZERO PUSH2 0x1CAA JUMPI PUSH1 0x0 DUP1 REVERT JUMPDEST POP CALLDATALOAD SWAP2 SWAP1 POP JUMP JUMPDEST PUSH20 0xFFFFFFFFFFFFFFFFFFFFFFFFFFFFFFFFFFFFFFFF DUP2 AND DUP2 EQ PUSH2 0xD40 JUMPI PUSH1 0x0 DUP1 REVERT JUMPDEST PUSH1 0x0 DUP1 PUSH1 0x40 DUP4 DUP6 SUB SLT ISZERO PUSH2 0x1CE6 JUMPI PUSH1 0x0 DUP1 REVERT JUMPDEST DUP3 CALLDATALOAD SWAP2 POP PUSH1 0x20 DUP4 ADD CALLDATALOAD PUSH2 0x1CF8 DUP2 PUSH2 0x1CB1 JUMP JUMPDEST DUP1 SWAP2 POP POP SWAP3 POP SWAP3 SWAP1 POP JUMP JUMPDEST PUSH1 0x0 PUSH1 0x20 DUP3 DUP5 SUB SLT ISZERO PUSH2 0x1D15 JUMPI PUSH1 0x0 DUP1 REVERT JUMPDEST DUP2 CALLDATALOAD PUSH2 0xD65 DUP2 PUSH2 0x1CB1 JUMP JUMPDEST PUSH1 0x0 DUP1 PUSH1 0x0 PUSH1 0x40 DUP5 DUP7 SUB SLT ISZERO PUSH2 0x1D35 JUMPI PUSH1 0x0 DUP1 REVERT JUMPDEST DUP4 CALLDATALOAD SWAP3 POP PUSH1 0x20 DUP5 ADD CALLDATALOAD PUSH8 0xFFFFFFFFFFFFFFFF DUP2 GT ISZERO PUSH2 0x1D53 JUMPI PUSH1 0x0 DUP1 REVERT JUMPDEST PUSH2 0x1D5F DUP7 DUP3 DUP8 ADD PUSH2 0x1C0A JUMP JUMPDEST SWAP5 SWAP8 SWAP1 SWAP7 POP SWAP4 SWAP5 POP POP POP POP JUMP JUMPDEST DUP1 ISZERO ISZERO DUP2 EQ PUSH2 0xD40 JUMPI PUSH1 0x0 DUP1 REVERT JUMPDEST PUSH1 0x0 PUSH1 0x20 DUP3 DUP5 SUB SLT ISZERO PUSH2 0x1D8C JUMPI PUSH1 0x0 DUP1 REVERT JUMPDEST DUP2 CALLDATALOAD PUSH2 0xD65 DUP2 PUSH2 0x1D6C JUMP JUMPDEST PUSH1 0x20 DUP1 DUP3 MSTORE DUP3 MLOAD DUP3 DUP3 ADD DUP2 SWAP1 MSTORE PUSH1 0x0 SWAP2 SWAP1 DUP5 DUP3 ADD SWAP1 PUSH1 0x40 DUP6 ADD SWAP1 DUP5 JUMPDEST DUP2 DUP2 LT ISZERO PUSH2 0x1DE5 JUMPI DUP4 MLOAD PUSH20 0xFFFFFFFFFFFFFFFFFFFFFFFFFFFFFFFFFFFFFFFF AND DUP4 MSTORE SWAP3 DUP5 ADD SWAP3 SWAP2 DUP5 ADD SWAP2 PUSH1 0x1 ADD PUSH2 0x1DB3 JUMP JUMPDEST POP SWAP1 SWAP7 SWAP6 POP POP POP POP POP POP JUMP JUMPDEST PUSH32 0x4E487B7100000000000000000000000000000000000000000000000000000000 PUSH1 0x0 MSTORE PUSH1 0x32 PUSH1 0x4 MSTORE PUSH1 0x24 PUSH1 0x0 REVERT JUMPDEST PUSH32 0x4E487B7100000000000000000000000000000000000000000000000000000000 PUSH1 0x0 MSTORE PUSH1 0x11 PUSH1 0x4 MSTORE PUSH1 0x24 PUSH1 0x0 REVERT JUMPDEST DUP2 DUP2 SUB DUP2 DUP2 GT ISZERO PUSH2 0x754 JUMPI PUSH2 0x754 PUSH2 0x1E20 JUMP JUMPDEST DUP1 DUP3 MUL DUP2 ISZERO DUP3 DUP3 DIV DUP5 EQ OR PUSH2 0x754 JUMPI PUSH2 0x754 PUSH2 0x1E20 JUMP JUMPDEST PUSH1 0x0 DUP3 PUSH2 0x1EAF JUMPI PUSH32 0x4E487B7100000000000000000000000000000000000000000000000000000000 PUSH1 0x0 MSTORE PUSH1 0x12 PUSH1 0x4 MSTORE PUSH1 0x24 PUSH1 0x0 REVERT JUMPDEST POP DIV SWAP1 JUMP JUMPDEST PUSH1 0x0 PUSH1 0x20 DUP3 DUP5 SUB SLT ISZERO PUSH2 0x1EC6 JUMPI PUSH1 0x0 DUP1 REVERT JUMPDEST DUP2 MLOAD PUSH2 0xD65 DUP2 PUSH2 0x1CB1 JUMP JUMPDEST PUSH1 0x0 JUMPDEST DUP4 DUP2 LT ISZERO PUSH2 0x1EEC JUMPI DUP2 DUP2 ADD MLOAD DUP4 DUP3 ADD MSTORE PUSH1 0x20 ADD PUSH2 0x1ED4 JUMP JUMPDEST POP POP PUSH1 0x0 SWAP2 ADD MSTORE JUMP JUMPDEST PUSH32 0x416363657373436F6E74726F6C3A206163636F756E7420000000000000000000 DUP2 MSTORE PUSH1 0x0 DUP4 MLOAD PUSH2 0x1F2D DUP2 PUSH1 0x17 DUP6 ADD PUSH1 0x20 DUP9 ADD PUSH2 0x1ED1 JUMP JUMPDEST PUSH32 0x206973206D697373696E6720726F6C6520000000000000000000000000000000 PUSH1 0x17 SWAP2 DUP5 ADD SWAP2 DUP3 ADD MSTORE DUP4 MLOAD PUSH2 0x1F6A DUP2 PUSH1 0x28 DUP5 ADD PUSH1 0x20 DUP9 ADD PUSH2 0x1ED1 JUMP JUMPDEST ADD PUSH1 0x28 ADD SWAP5 SWAP4 POP POP POP POP JUMP JUMPDEST PUSH1 0x20 DUP2 MSTORE PUSH1 0x0 DUP3 MLOAD DUP1 PUSH1 0x20 DUP5 ADD MSTORE PUSH2 0x1F95 DUP2 PUSH1 0x40 DUP6 ADD PUSH1 0x20 DUP8 ADD PUSH2 0x1ED1 JUMP JUMPDEST PUSH1 0x1F ADD PUSH32 0xFFFFFFFFFFFFFFFFFFFFFFFFFFFFFFFFFFFFFFFFFFFFFFFFFFFFFFFFFFFFFFE0 AND SWAP2 SWAP1 SWAP2 ADD PUSH1 0x40 ADD SWAP3 SWAP2 POP POP JUMP JUMPDEST PUSH32 0x4E487B7100000000000000000000000000000000000000000000000000000000 PUSH1 0x0 MSTORE PUSH1 0x31 PUSH1 0x4 MSTORE PUSH1 0x24 PUSH1 0x0 REVERT JUMPDEST DUP1 DUP3 ADD DUP1 DUP3 GT ISZERO PUSH2 0x754 JUMPI PUSH2 0x754 PUSH2 0x1E20 JUMP JUMPDEST PUSH32 0x4E487B7100000000000000000000000000000000000000000000000000000000 PUSH1 0x0 MSTORE PUSH1 0x41 PUSH1 0x4 MSTORE PUSH1 0x24 PUSH1 0x0 REVERT JUMPDEST PUSH1 0x0 DUP2 PUSH2 0x2047 JUMPI PUSH2 0x2047 PUSH2 0x1E20 JUMP JUMPDEST POP PUSH32 0xFFFFFFFFFFFFFFFFFFFFFFFFFFFFFFFFFFFFFFFFFFFFFFFFFFFFFFFFFFFFFFFF ADD SWAP1 JUMP JUMPDEST PUSH1 0x0 PUSH1 0x20 DUP3 DUP5 SUB SLT ISZERO PUSH2 0x207F JUMPI PUSH1 0x0 DUP1 REVERT JUMPDEST DUP2 MLOAD PUSH2 0xD65 DUP2 PUSH2 0x1D6C JUMP JUMPDEST PUSH1 0x0 DUP3 MLOAD PUSH2 0x209C DUP2 DUP5 PUSH1 0x20 DUP8 ADD PUSH2 0x1ED1 JUMP JUMPDEST SWAP2 SWAP1 SWAP2 ADD SWAP3 SWAP2 POP POP JUMP INVALID LOG2 PUSH5 0x6970667358 0x22 SLT KECCAK256 PUSH31 0x3705B2B245FD1C82813A26F50730548C325723B2F46B25A65E9799E9B07EFE PUSH5 0x736F6C6343 STOP ADDMOD AND STOP CALLER 0xB1 SWAP6 CHAINID 0xDF CREATE 0x1E DUP6 PUSH16 0xB3F010C267A7B1C60363CF8A4664E21C 0xC8 SWAP13 0x26 0x22 CHAINID KECCAK256 0x21 0x4E "},"gasEstimates":{"creation":{"codeDepositCost":"1682400","executionCost":"infinite","totalCost":"infinite"},"external":{"ADMIN_KYC_CONTROLLER_ROLE()":"239","DEFAULT_ADMIN_ROLE()":"284","KYC_CONTROLLER_ROLE()":"262","MAX_REWARD_TIME_WINDOW()":"infinite","NODE_KEY()":"infinite","OWNER_ROLE()":"283","REFEREE()":"infinite","REWARDS_CONTROLLER_ROLE()":"284","REWARD_TOKEN()":"infinite","addKycWallets(address[])":"infinite","claimReward(uint256,uint256[])":"infinite","getKycWallets()":"infinite","getRoleAdmin(bytes32)":"2512","grantRole(bytes32,address)":"infinite","hasRole(bytes32,address)":"2685","isKycWallet(address)":"infinite","kycDisabled()":"2345","onAttest(uint256,uint256)":"infinite","onBatchAttest(uint256,uint256[])":"infinite","onFinalize(uint256,uint256,uint256,uint256)":"infinite","removeKycWallets(address[])":"infinite","renounceRole(bytes32,address)":"29022","revokeRole(bytes32,address)":"infinite","rewardPerLandOfBatch(uint256)":"2528","rewardPerSecond()":"2406","rewardsRecipients(uint256,uint256)":"2617","setKycDisabled(bool)":"infinite","setRewardPerSecond(uint256)":"infinite","supportsInterface(bytes4)":"416"},"internal":{"_claimReward(uint256,uint256[] calldata)":"infinite","_onAttest(uint256,uint256)":"infinite","_onFinalize(uint256,uint256,uint256,uint256)":"infinite"}},"methodIdentifiers":{"ADMIN_KYC_CONTROLLER_ROLE()":"dcd50d2e","DEFAULT_ADMIN_ROLE()":"a217fddf","KYC_CONTROLLER_ROLE()":"86f8a03e","MAX_REWARD_TIME_WINDOW()":"c2a74752","NODE_KEY()":"a5f957f9","OWNER_ROLE()":"e58378bb","REFEREE()":"95126fe6","REWARDS_CONTROLLER_ROLE()":"8ad9c511","REWARD_TOKEN()":"99248ea7","addKycWallets(address[])":"229d683d","claimReward(uint256,uint256[])":"9b6e0d74","getKycWallets()":"e2d18be6","getRoleAdmin(bytes32)":"248a9ca3","grantRole(bytes32,address)":"2f2ff15d","hasRole(bytes32,address)":"91d14854","isKycWallet(address)":"905eaf1d","kycDisabled()":"5dff0ce9","onAttest(uint256,uint256)":"e6ed1180","onBatchAttest(uint256,uint256[])":"b7355fb4","onFinalize(uint256,uint256,uint256,uint256)":"1bcdb77a","removeKycWallets(address[])":"7cd727ba","renounceRole(bytes32,address)":"36568abe","revokeRole(bytes32,address)":"d547741f","rewardPerLandOfBatch(uint256)":"6f63b8ab","rewardPerSecond()":"8f10369a","rewardsRecipients(uint256,uint256)":"0f0479b4","setKycDisabled(bool)":"cbd73cb2","setRewardPerSecond(uint256)":"66da5815","supportsInterface(bytes4)":"01ffc9a7"}},"storageLayout":{"storage":[{"astId":989,"contract":"contracts/land/EDULandRewards.sol:EDULandRewards","label":"_initialized","offset":0,"slot":"0","type":"t_uint8"},{"astId":992,"contract":"contracts/land/EDULandRewards.sol:EDULandRewards","label":"_initializing","offset":1,"slot":"0","type":"t_bool"},{"astId":1522,"contract":"contracts/land/EDULandRewards.sol:EDULandRewards","label":"__gap","offset":0,"slot":"1","type":"t_array(t_uint256)50_storage"},{"astId":1795,"contract":"contracts/land/EDULandRewards.sol:EDULandRewards","label":"__gap","offset":0,"slot":"51","type":"t_array(t_uint256)50_storage"},{"astId":613,"contract":"contracts/land/EDULandRewards.sol:EDULandRewards","label":"_roles","offset":0,"slot":"101","type":"t_mapping(t_bytes32,t_struct(RoleData)608_storage)"},{"astId":908,"contract":"contracts/land/EDULandRewards.sol:EDULandRewards","label":"__gap","offset":0,"slot":"102","type":"t_array(t_uint256)49_storage"},{"astId":278,"contract":"contracts/land/EDULandRewards.sol:EDULandRewards","label":"kycDisabled","offset":0,"slot":"151","type":"t_bool"},{"astId":281,"contract":"contracts/land/EDULandRewards.sol:EDULandRewards","label":"_kycWallets","offset":0,"slot":"152","type":"t_struct(AddressSet)4919_storage"},{"astId":5232,"contract":"contracts/land/EDULandRewards.sol:EDULandRewards","label":"rewardPerSecond","offset":0,"slot":"154","type":"t_uint256"},{"astId":5237,"contract":"contracts/land/EDULandRewards.sol:EDULandRewards","label":"rewardPerLandOfBatch","offset":0,"slot":"155","type":"t_mapping(t_uint256,t_uint256)"},{"astId":5244,"contract":"contracts/land/EDULandRewards.sol:EDULandRewards","label":"rewardsRecipients","offset":0,"slot":"156","type":"t_mapping(t_uint256,t_mapping(t_uint256,t_address))"}],"types":{"t_address":{"encoding":"inplace","label":"address","numberOfBytes":"20"},"t_array(t_bytes32)dyn_storage":{"base":"t_bytes32","encoding":"dynamic_array","label":"bytes32[]","numberOfBytes":"32"},"t_array(t_uint256)49_storage":{"base":"t_uint256","encoding":"inplace","label":"uint256[49]","numberOfBytes":"1568"},"t_array(t_uint256)50_storage":{"base":"t_uint256","encoding":"inplace","label":"uint256[50]","numberOfBytes":"1600"},"t_bool":{"encoding":"inplace","label":"bool","numberOfBytes":"1"},"t_bytes32":{"encoding":"inplace","label":"bytes32","numberOfBytes":"32"},"t_mapping(t_address,t_bool)":{"encoding":"mapping","key":"t_address","label":"mapping(address => bool)","numberOfBytes":"32","value":"t_bool"},"t_mapping(t_bytes32,t_struct(RoleData)608_storage)":{"encoding":"mapping","key":"t_bytes32","label":"mapping(bytes32 => struct AccessControlUpgradeable.RoleData)","numberOfBytes":"32","value":"t_struct(RoleData)608_storage"},"t_mapping(t_bytes32,t_uint256)":{"encoding":"mapping","key":"t_bytes32","label":"mapping(bytes32 => uint256)","numberOfBytes":"32","value":"t_uint256"},"t_mapping(t_uint256,t_address)":{"encoding":"mapping","key":"t_uint256","label":"mapping(uint256 => address)","numberOfBytes":"32","value":"t_address"},"t_mapping(t_uint256,t_mapping(t_uint256,t_address))":{"encoding":"mapping","key":"t_uint256","label":"mapping(uint256 => mapping(uint256 => address))","numberOfBytes":"32","value":"t_mapping(t_uint256,t_address)"},"t_mapping(t_uint256,t_uint256)":{"encoding":"mapping","key":"t_uint256","label":"mapping(uint256 => uint256)","numberOfBytes":"32","value":"t_uint256"},"t_struct(AddressSet)4919_storage":{"encoding":"inplace","label":"struct EnumerableSet.AddressSet","members":[{"astId":4918,"contract":"contracts/land/EDULandRewards.sol:EDULandRewards","label":"_inner","offset":0,"slot":"0","type":"t_struct(Set)4604_storage"}],"numberOfBytes":"64"},"t_struct(RoleData)608_storage":{"encoding":"inplace","label":"struct AccessControlUpgradeable.RoleData","members":[{"astId":605,"contract":"contracts/land/EDULandRewards.sol:EDULandRewards","label":"members","offset":0,"slot":"0","type":"t_mapping(t_address,t_bool)"},{"astId":607,"contract":"contracts/land/EDULandRewards.sol:EDULandRewards","label":"adminRole","offset":0,"slot":"1","type":"t_bytes32"}],"numberOfBytes":"64"},"t_struct(Set)4604_storage":{"encoding":"inplace","label":"struct EnumerableSet.Set","members":[{"astId":4599,"contract":"contracts/land/EDULandRewards.sol:EDULandRewards","label":"_values","offset":0,"slot":"0","type":"t_array(t_bytes32)dyn_storage"},{"astId":4603,"contract":"contracts/land/EDULandRewards.sol:EDULandRewards","label":"_indexes","offset":0,"slot":"1","type":"t_mapping(t_bytes32,t_uint256)"}],"numberOfBytes":"64"},"t_uint256":{"encoding":"inplace","label":"uint256","numberOfBytes":"32"},"t_uint8":{"encoding":"inplace","label":"uint8","numberOfBytes":"1"}}},"userdoc":{"events":{"BatchFinalized(uint256,uint256)":{"notice":"Emitted when batch is finalized."},"Claimed(address,uint256,uint256,uint256)":{"notice":"Emitted when reward is claimed."},"RewardPerSecondUpdated(uint256)":{"notice":"Emitted when rewardPerSecond is updated."}},"kind":"user","methods":{"claimReward(uint256,uint256[])":{"notice":"Called in Referee.claimReward whenever someone claims their reward. {See Referee.sol}"},"constructor":{"notice":"Constructor"},"isKycWallet(address)":{"notice":"Check if the wallet has been KYCed"},"onAttest(uint256,uint256)":{"notice":"Called in Referee.attest whenever an attestation is submitted. {See Referee.sol}"},"onBatchAttest(uint256,uint256[])":{"notice":"Called in Referee.batchAttest whenever multiple attestations are submitted. {See Referee.sol}"},"onFinalize(uint256,uint256,uint256,uint256)":{"notice":"Called in Referee.finalize whenever attestations of a batch are finalized. {See Referee.sol}"},"rewardPerLandOfBatch(uint256)":{"notice":"batchNumber => reward per land"},"rewardsRecipients(uint256,uint256)":{"notice":"batchNumber => tokenId => recipient"},"setRewardPerSecond(uint256)":{"notice":"Sets the max token supply"}},"version":1}}}}