{"contracts/vc/OpenCampusCertificateRevocationRegistry.sol":{"OpenCampusCertificateRevocationRegistry":{"abi":[{"inputs":[{"internalType":"contract IIssuersDIDRegistry","name":"didRegistry","type":"address"}],"stateMutability":"nonpayable","type":"constructor"},{"inputs":[],"name":"IllegalInterfaceId","type":"error"},{"inputs":[],"name":"InvalidIssuer","type":"error"},{"inputs":[],"name":"InvalidNonce","type":"error"},{"inputs":[],"name":"InvalidSignature","type":"error"},{"inputs":[{"internalType":"address","name":"account","type":"address"}],"name":"NotContractOwner","type":"error"},{"anonymous":false,"inputs":[{"indexed":true,"internalType":"address","name":"previousOwner","type":"address"},{"indexed":true,"internalType":"address","name":"newOwner","type":"address"}],"name":"OwnershipTransferred","type":"event"},{"anonymous":false,"inputs":[{"indexed":true,"internalType":"bytes32","name":"hashedIssuerDid","type":"bytes32"},{"indexed":false,"internalType":"address","name":"caller","type":"address"},{"indexed":true,"internalType":"uint256","name":"vcId","type":"uint256"}],"name":"VcRevoked","type":"event"},{"inputs":[{"internalType":"bytes32","name":"hashedIssuerDid","type":"bytes32"},{"internalType":"uint256[]","name":"vcIds","type":"uint256[]"},{"internalType":"uint256","name":"nonce","type":"uint256"},{"internalType":"bytes","name":"signature","type":"bytes"}],"name":"batchRevokeVCs","outputs":[],"stateMutability":"nonpayable","type":"function"},{"inputs":[],"name":"currentNonce","outputs":[{"internalType":"uint256","name":"","type":"uint256"}],"stateMutability":"view","type":"function"},{"inputs":[{"internalType":"bytes32","name":"hashedIssuerDid","type":"bytes32"},{"internalType":"uint256","name":"vcId","type":"uint256"}],"name":"isRevoked","outputs":[{"internalType":"bool","name":"revoked","type":"bool"}],"stateMutability":"view","type":"function"},{"inputs":[],"name":"owner","outputs":[{"internalType":"address","name":"","type":"address"}],"stateMutability":"view","type":"function"},{"inputs":[{"internalType":"bytes32","name":"","type":"bytes32"},{"internalType":"uint256","name":"","type":"uint256"}],"name":"revocations","outputs":[{"internalType":"address","name":"","type":"address"}],"stateMutability":"view","type":"function"},{"inputs":[{"internalType":"bytes32","name":"hashedIssuerDid","type":"bytes32"},{"internalType":"uint256","name":"vcId","type":"uint256"},{"internalType":"uint256","name":"nonce","type":"uint256"},{"internalType":"bytes","name":"signature","type":"bytes"}],"name":"revokeVC","outputs":[],"stateMutability":"nonpayable","type":"function"},{"inputs":[{"internalType":"bytes4","name":"interfaceId","type":"bytes4"}],"name":"supportsInterface","outputs":[{"internalType":"bool","name":"","type":"bool"}],"stateMutability":"view","type":"function"},{"inputs":[{"internalType":"address","name":"newOwner","type":"address"}],"name":"transferOwnership","outputs":[],"stateMutability":"nonpayable","type":"function"}],"devdoc":{"errors":{"NotContractOwner(address)":[{"params":{"account":"The account that was checked."}}]},"events":{"OwnershipTransferred(address,address)":{"params":{"newOwner":"the new contract owner.","previousOwner":"the previous contract owner."}},"VcRevoked(bytes32,address,uint256)":{"params":{"caller":"address of caller that invoked the revocation.","hashedIssuerDid":"the hashed Did for the issuer","vcId":"The Id for the VC revoked."}}},"kind":"dev","methods":{"owner()":{"returns":{"_0":"The address of the contract owner."}},"supportsInterface(bytes4)":{"details":"Note: This function call must use less than 30 000 gas.","params":{"interfaceId":"the interface identifier to test."},"returns":{"_0":"True if the interface is supported, false if `interfaceId` is `0xffffffff` or if the interface is not supported."}},"transferOwnership(address)":{"details":"Reverts if the sender is not the contract owner.Emits an {OwnershipTransferred} event if `newOwner` is different from the current contract owner.","params":{"newOwner":"The address of the new contract owner. Using the zero address means renouncing ownership."}}},"title":"OpenCampusCertificateRevocationRegistry.","version":1},"evm":{"bytecode":{"linkReferences":{},"object":"60a06040523480156200001157600080fd5b50604051620010833803806200108383398101604081905262000034916200019c565b336200004b81620000446200005e565b9062000094565b506001600160a01b0316608052620001f0565b6000806200008e60017fc9ed16f33ab3a66c84bfd83099ccb2a8845871e2e1c1928f63797152f0fd54cd620001ce565b92915050565b6001600160a01b03811615620000eb5781546001600160a01b0319166001600160a01b03821690811783556040516000907f8be0079c531659141344cd1fd0a4f28419497f9722a3daafe3b4186f6b6457e0908290a35b6200010b6307f5828d60e41b6001620001036200010f565b91906200013f565b5050565b6000806200008e60017fca9d3e17f264b0f3984e2634e94adb37fa3e6a8103f06aeae6fa59e21c769f5e620001ce565b600160e01b6001600160e01b03198316016200016e576040516372c683bb60e01b815260040160405180910390fd5b6001600160e01b03199190911660009081526020929092526040909120805460ff1916911515919091179055565b600060208284031215620001af57600080fd5b81516001600160a01b0381168114620001c757600080fd5b9392505050565b818103818111156200008e57634e487b7160e01b600052601160045260246000fd5b608051610e696200021a600039600081816103350152818161061901526108320152610e696000f3fe608060405234801561001057600080fd5b50600436106100885760003560e01c8063a3a2656a1161005b578063a3a2656a1461010a578063adb610a31461011d578063d394ab5a14610134578063f2fde38b1461017257600080fd5b806301ffc9a71461008d57806312b7ad29146100b55780634c66f71c146100ca5780638da5cb5b146100dd575b600080fd5b6100a061009b366004610b0b565b610185565b60405190151581526020015b60405180910390f35b6100c86100c3366004610b9d565b61019f565b005b6100c86100d8366004610bfe565b610488565b6100e561079f565b60405173ffffffffffffffffffffffffffffffffffffffff90911681526020016100ac565b6100a0610118366004610cb2565b6107cb565b61012660015481565b6040519081526020016100ac565b6100e5610142366004610cb2565b600060208181529281526040808220909352908152205473ffffffffffffffffffffffffffffffffffffffff1681565b6100c8610180366004610cd4565b6108a5565b6000610199826101936108bc565b906108ea565b92915050565b60015483146101da576040517f756688fe00000000000000000000000000000000000000000000000000000000815260040160405180910390fd5b60418114610214576040517f8baa579f00000000000000000000000000000000000000000000000000000000815260040160405180910390fd5b604080516020808201889052918101869052606081018590526021840135918435919085013590600090600190608001604080517fffffffffffffffffffffffffffffffffffffffffffffffffffffffffffffffe08184030181528282528051602091820120600084529083018083525260ff871690820152606081018590526080810184905260a0016020604051602081039080840390855afa1580156102c0573d6000803e3d6000fd5b50506040517fffffffffffffffffffffffffffffffffffffffffffffffffffffffffffffffe08101517ff9236a39000000000000000000000000000000000000000000000000000000008252600482018c905273ffffffffffffffffffffffffffffffffffffffff80821660248401529093507f000000000000000000000000000000000000000000000000000000000000000016915063f9236a3990604401602060405180830381865afa15801561037d573d6000803e3d6000fd5b505050506040513d601f19601f820116820180604052508101906103a19190610d0a565b1561044b576000898152602081815260408083208b845282529182902080547fffffffffffffffffffffffff00000000000000000000000000000000000000001673ffffffffffffffffffffffffffffffffffffffff8516908117909155915191825289918b917f2f844f99f3ce1f0191a01a59fd0c17e12427806ea6e7bcaec13443fd6b9f5056910160405180910390a360016000815461044290610d5b565b9091555061047d565b6040517fbdbfe21600000000000000000000000000000000000000000000000000000000815260040160405180910390fd5b505050505050505050565b60015483146104c3576040517f756688fe00000000000000000000000000000000000000000000000000000000815260040160405180910390fd5b604181146104fd576040517f8baa579f00000000000000000000000000000000000000000000000000000000815260040160405180910390fd5b60405160218301359083359060208086013591600091600191610528918d918d918d918d9101610d93565b604080517fffffffffffffffffffffffffffffffffffffffffffffffffffffffffffffffe08184030181528282528051602091820120600084529083018083525260ff871690820152606081018590526080810184905260a0016020604051602081039080840390855afa1580156105a4573d6000803e3d6000fd5b50506040517fffffffffffffffffffffffffffffffffffffffffffffffffffffffffffffffe08101517ff9236a39000000000000000000000000000000000000000000000000000000008252600482018d905273ffffffffffffffffffffffffffffffffffffffff80821660248401529093507f000000000000000000000000000000000000000000000000000000000000000016915063f9236a3990604401602060405180830381865afa158015610661573d6000803e3d6000fd5b505050506040513d601f19601f820116820180604052508101906106859190610d0a565b1561044b5760005b8881101561077f5760008b815260208190526040812083918c8c858181106106b7576106b7610df1565b90506020020135815260200190815260200160002060006101000a81548173ffffffffffffffffffffffffffffffffffffffff021916908373ffffffffffffffffffffffffffffffffffffffff16021790555089898281811061071c5761071c610df1565b905060200201358b7f2f844f99f3ce1f0191a01a59fd0c17e12427806ea6e7bcaec13443fd6b9f50568460405161076f919073ffffffffffffffffffffffffffffffffffffffff91909116815260200190565b60405180910390a360010161068d565b5060016000815461078f90610d5b565b9091555050505050505050505050565b60006107c66107ac6109c4565b5473ffffffffffffffffffffffffffffffffffffffff1690565b905090565b6000828152602081815260408083208484529091528082205490517ff9236a390000000000000000000000000000000000000000000000000000000081526004810185905273ffffffffffffffffffffffffffffffffffffffff91821660248201819052917f0000000000000000000000000000000000000000000000000000000000000000169063f9236a3990604401602060405180830381865afa158015610879573d6000803e3d6000fd5b505050506040513d601f19601f8201168201806040525081019061089d9190610d0a565b949350505050565b6108b933826108b26109c4565b91906109f2565b50565b60008061019960017fca9d3e17f264b0f3984e2634e94adb37fa3e6a8103f06aeae6fa59e21c769f5e610e20565b60007c01000000000000000000000000000000000000000000000000000000007fffffffff0000000000000000000000000000000000000000000000000000000083160161093a57506000610199565b7ffe003659000000000000000000000000000000000000000000000000000000007fffffffff0000000000000000000000000000000000000000000000000000000083160161098b57506001610199565b507fffffffff00000000000000000000000000000000000000000000000000000000166000908152602091909152604090205460ff1690565b60008061019960017fc9ed16f33ab3a66c84bfd83099ccb2a8845871e2e1c1928f63797152f0fd54cd610e20565b825473ffffffffffffffffffffffffffffffffffffffff9081169083168114610a63576040517f2ef4875e00000000000000000000000000000000000000000000000000000000815273ffffffffffffffffffffffffffffffffffffffff8416600482015260240160405180910390fd5b8173ffffffffffffffffffffffffffffffffffffffff168173ffffffffffffffffffffffffffffffffffffffff1614610b055783547fffffffffffffffffffffffff00000000000000000000000000000000000000001673ffffffffffffffffffffffffffffffffffffffff8381169182178655604051908316907f8be0079c531659141344cd1fd0a4f28419497f9722a3daafe3b4186f6b6457e090600090a35b50505050565b600060208284031215610b1d57600080fd5b81357fffffffff0000000000000000000000000000000000000000000000000000000081168114610b4d57600080fd5b9392505050565b60008083601f840112610b6657600080fd5b50813567ffffffffffffffff811115610b7e57600080fd5b602083019150836020828501011115610b9657600080fd5b9250929050565b600080600080600060808688031215610bb557600080fd5b853594506020860135935060408601359250606086013567ffffffffffffffff811115610be157600080fd5b610bed88828901610b54565b969995985093965092949392505050565b60008060008060008060808789031215610c1757600080fd5b86359550602087013567ffffffffffffffff80821115610c3657600080fd5b818901915089601f830112610c4a57600080fd5b813581811115610c5957600080fd5b8a60208260051b8501011115610c6e57600080fd5b60208301975080965050604089013594506060890135915080821115610c9357600080fd5b50610ca089828a01610b54565b979a9699509497509295939492505050565b60008060408385031215610cc557600080fd5b50508035926020909101359150565b600060208284031215610ce657600080fd5b813573ffffffffffffffffffffffffffffffffffffffff81168114610b4d57600080fd5b600060208284031215610d1c57600080fd5b81518015158114610b4d57600080fd5b7f4e487b7100000000000000000000000000000000000000000000000000000000600052601160045260246000fd5b60007fffffffffffffffffffffffffffffffffffffffffffffffffffffffffffffffff8203610d8c57610d8c610d2c565b5060010190565b8481526060602082015282606082015260007f07ffffffffffffffffffffffffffffffffffffffffffffffffffffffffffffff841115610dd257600080fd5b8360051b80866080850137604083019390935250016080019392505050565b7f4e487b7100000000000000000000000000000000000000000000000000000000600052603260045260246000fd5b8181038181111561019957610199610d2c56fea26469706673582212209e28d931a67c51a7b9bdb87ba9d987e1c8b6242669600cd8bb79a2f562cbb08d64736f6c63430008160033","opcodes":"PUSH1 0xA0 PUSH1 0x40 MSTORE CALLVALUE DUP1 ISZERO PUSH3 0x11 JUMPI PUSH1 0x0 DUP1 REVERT JUMPDEST POP PUSH1 0x40 MLOAD PUSH3 0x1083 CODESIZE SUB DUP1 PUSH3 0x1083 DUP4 CODECOPY DUP2 ADD PUSH1 0x40 DUP2 SWAP1 MSTORE PUSH3 0x34 SWAP2 PUSH3 0x19C JUMP JUMPDEST CALLER PUSH3 0x4B DUP2 PUSH3 0x44 PUSH3 0x5E JUMP JUMPDEST SWAP1 PUSH3 0x94 JUMP JUMPDEST POP PUSH1 0x1 PUSH1 0x1 PUSH1 0xA0 SHL SUB AND PUSH1 0x80 MSTORE PUSH3 0x1F0 JUMP JUMPDEST PUSH1 0x0 DUP1 PUSH3 0x8E PUSH1 0x1 PUSH32 0xC9ED16F33AB3A66C84BFD83099CCB2A8845871E2E1C1928F63797152F0FD54CD PUSH3 0x1CE JUMP JUMPDEST SWAP3 SWAP2 POP POP JUMP JUMPDEST PUSH1 0x1 PUSH1 0x1 PUSH1 0xA0 SHL SUB DUP2 AND ISZERO PUSH3 0xEB JUMPI DUP2 SLOAD PUSH1 0x1 PUSH1 0x1 PUSH1 0xA0 SHL SUB NOT AND PUSH1 0x1 PUSH1 0x1 PUSH1 0xA0 SHL SUB DUP3 AND SWAP1 DUP2 OR DUP4 SSTORE PUSH1 0x40 MLOAD PUSH1 0x0 SWAP1 PUSH32 0x8BE0079C531659141344CD1FD0A4F28419497F9722A3DAAFE3B4186F6B6457E0 SWAP1 DUP3 SWAP1 LOG3 JUMPDEST PUSH3 0x10B PUSH4 0x7F5828D PUSH1 0xE4 SHL PUSH1 0x1 PUSH3 0x103 PUSH3 0x10F JUMP JUMPDEST SWAP2 SWAP1 PUSH3 0x13F JUMP JUMPDEST POP POP JUMP JUMPDEST PUSH1 0x0 DUP1 PUSH3 0x8E PUSH1 0x1 PUSH32 0xCA9D3E17F264B0F3984E2634E94ADB37FA3E6A8103F06AEAE6FA59E21C769F5E PUSH3 0x1CE JUMP JUMPDEST PUSH1 0x1 PUSH1 0xE0 SHL PUSH1 0x1 PUSH1 0x1 PUSH1 0xE0 SHL SUB NOT DUP4 AND ADD PUSH3 0x16E JUMPI PUSH1 0x40 MLOAD PUSH4 0x72C683BB PUSH1 0xE0 SHL DUP2 MSTORE PUSH1 0x4 ADD PUSH1 0x40 MLOAD DUP1 SWAP2 SUB SWAP1 REVERT JUMPDEST PUSH1 0x1 PUSH1 0x1 PUSH1 0xE0 SHL SUB NOT SWAP2 SWAP1 SWAP2 AND PUSH1 0x0 SWAP1 DUP2 MSTORE PUSH1 0x20 SWAP3 SWAP1 SWAP3 MSTORE PUSH1 0x40 SWAP1 SWAP2 KECCAK256 DUP1 SLOAD PUSH1 0xFF NOT AND SWAP2 ISZERO ISZERO SWAP2 SWAP1 SWAP2 OR SWAP1 SSTORE JUMP JUMPDEST PUSH1 0x0 PUSH1 0x20 DUP3 DUP5 SUB SLT ISZERO PUSH3 0x1AF JUMPI PUSH1 0x0 DUP1 REVERT JUMPDEST DUP2 MLOAD PUSH1 0x1 PUSH1 0x1 PUSH1 0xA0 SHL SUB DUP2 AND DUP2 EQ PUSH3 0x1C7 JUMPI PUSH1 0x0 DUP1 REVERT JUMPDEST SWAP4 SWAP3 POP POP POP JUMP JUMPDEST DUP2 DUP2 SUB DUP2 DUP2 GT ISZERO PUSH3 0x8E JUMPI PUSH4 0x4E487B71 PUSH1 0xE0 SHL PUSH1 0x0 MSTORE PUSH1 0x11 PUSH1 0x4 MSTORE PUSH1 0x24 PUSH1 0x0 REVERT JUMPDEST PUSH1 0x80 MLOAD PUSH2 0xE69 PUSH3 0x21A PUSH1 0x0 CODECOPY PUSH1 0x0 DUP2 DUP2 PUSH2 0x335 ADD MSTORE DUP2 DUP2 PUSH2 0x619 ADD MSTORE PUSH2 0x832 ADD MSTORE PUSH2 0xE69 PUSH1 0x0 RETURN INVALID PUSH1 0x80 PUSH1 0x40 MSTORE CALLVALUE DUP1 ISZERO PUSH2 0x10 JUMPI PUSH1 0x0 DUP1 REVERT JUMPDEST POP PUSH1 0x4 CALLDATASIZE LT PUSH2 0x88 JUMPI PUSH1 0x0 CALLDATALOAD PUSH1 0xE0 SHR DUP1 PUSH4 0xA3A2656A GT PUSH2 0x5B JUMPI DUP1 PUSH4 0xA3A2656A EQ PUSH2 0x10A JUMPI DUP1 PUSH4 0xADB610A3 EQ PUSH2 0x11D JUMPI DUP1 PUSH4 0xD394AB5A EQ PUSH2 0x134 JUMPI DUP1 PUSH4 0xF2FDE38B EQ PUSH2 0x172 JUMPI PUSH1 0x0 DUP1 REVERT JUMPDEST DUP1 PUSH4 0x1FFC9A7 EQ PUSH2 0x8D JUMPI DUP1 PUSH4 0x12B7AD29 EQ PUSH2 0xB5 JUMPI DUP1 PUSH4 0x4C66F71C EQ PUSH2 0xCA JUMPI DUP1 PUSH4 0x8DA5CB5B EQ PUSH2 0xDD JUMPI JUMPDEST PUSH1 0x0 DUP1 REVERT JUMPDEST PUSH2 0xA0 PUSH2 0x9B CALLDATASIZE PUSH1 0x4 PUSH2 0xB0B JUMP JUMPDEST PUSH2 0x185 JUMP JUMPDEST PUSH1 0x40 MLOAD SWAP1 ISZERO ISZERO DUP2 MSTORE PUSH1 0x20 ADD JUMPDEST PUSH1 0x40 MLOAD DUP1 SWAP2 SUB SWAP1 RETURN JUMPDEST PUSH2 0xC8 PUSH2 0xC3 CALLDATASIZE PUSH1 0x4 PUSH2 0xB9D JUMP JUMPDEST PUSH2 0x19F JUMP JUMPDEST STOP JUMPDEST PUSH2 0xC8 PUSH2 0xD8 CALLDATASIZE PUSH1 0x4 PUSH2 0xBFE JUMP JUMPDEST PUSH2 0x488 JUMP JUMPDEST PUSH2 0xE5 PUSH2 0x79F JUMP JUMPDEST PUSH1 0x40 MLOAD PUSH20 0xFFFFFFFFFFFFFFFFFFFFFFFFFFFFFFFFFFFFFFFF SWAP1 SWAP2 AND DUP2 MSTORE PUSH1 0x20 ADD PUSH2 0xAC JUMP JUMPDEST PUSH2 0xA0 PUSH2 0x118 CALLDATASIZE PUSH1 0x4 PUSH2 0xCB2 JUMP JUMPDEST PUSH2 0x7CB JUMP JUMPDEST PUSH2 0x126 PUSH1 0x1 SLOAD DUP2 JUMP JUMPDEST PUSH1 0x40 MLOAD SWAP1 DUP2 MSTORE PUSH1 0x20 ADD PUSH2 0xAC JUMP JUMPDEST PUSH2 0xE5 PUSH2 0x142 CALLDATASIZE PUSH1 0x4 PUSH2 0xCB2 JUMP JUMPDEST PUSH1 0x0 PUSH1 0x20 DUP2 DUP2 MSTORE SWAP3 DUP2 MSTORE PUSH1 0x40 DUP1 DUP3 KECCAK256 SWAP1 SWAP4 MSTORE SWAP1 DUP2 MSTORE KECCAK256 SLOAD PUSH20 0xFFFFFFFFFFFFFFFFFFFFFFFFFFFFFFFFFFFFFFFF AND DUP2 JUMP JUMPDEST PUSH2 0xC8 PUSH2 0x180 CALLDATASIZE PUSH1 0x4 PUSH2 0xCD4 JUMP JUMPDEST PUSH2 0x8A5 JUMP JUMPDEST PUSH1 0x0 PUSH2 0x199 DUP3 PUSH2 0x193 PUSH2 0x8BC JUMP JUMPDEST SWAP1 PUSH2 0x8EA JUMP JUMPDEST SWAP3 SWAP2 POP POP JUMP JUMPDEST PUSH1 0x1 SLOAD DUP4 EQ PUSH2 0x1DA JUMPI PUSH1 0x40 MLOAD PUSH32 0x756688FE00000000000000000000000000000000000000000000000000000000 DUP2 MSTORE PUSH1 0x4 ADD PUSH1 0x40 MLOAD DUP1 SWAP2 SUB SWAP1 REVERT JUMPDEST PUSH1 0x41 DUP2 EQ PUSH2 0x214 JUMPI PUSH1 0x40 MLOAD PUSH32 0x8BAA579F00000000000000000000000000000000000000000000000000000000 DUP2 MSTORE PUSH1 0x4 ADD PUSH1 0x40 MLOAD DUP1 SWAP2 SUB SWAP1 REVERT JUMPDEST PUSH1 0x40 DUP1 MLOAD PUSH1 0x20 DUP1 DUP3 ADD DUP9 SWAP1 MSTORE SWAP2 DUP2 ADD DUP7 SWAP1 MSTORE PUSH1 0x60 DUP2 ADD DUP6 SWAP1 MSTORE PUSH1 0x21 DUP5 ADD CALLDATALOAD SWAP2 DUP5 CALLDATALOAD SWAP2 SWAP1 DUP6 ADD CALLDATALOAD SWAP1 PUSH1 0x0 SWAP1 PUSH1 0x1 SWAP1 PUSH1 0x80 ADD PUSH1 0x40 DUP1 MLOAD PUSH32 0xFFFFFFFFFFFFFFFFFFFFFFFFFFFFFFFFFFFFFFFFFFFFFFFFFFFFFFFFFFFFFFE0 DUP2 DUP5 SUB ADD DUP2 MSTORE DUP3 DUP3 MSTORE DUP1 MLOAD PUSH1 0x20 SWAP2 DUP3 ADD KECCAK256 PUSH1 0x0 DUP5 MSTORE SWAP1 DUP4 ADD DUP1 DUP4 MSTORE MSTORE PUSH1 0xFF DUP8 AND SWAP1 DUP3 ADD MSTORE PUSH1 0x60 DUP2 ADD DUP6 SWAP1 MSTORE PUSH1 0x80 DUP2 ADD DUP5 SWAP1 MSTORE PUSH1 0xA0 ADD PUSH1 0x20 PUSH1 0x40 MLOAD PUSH1 0x20 DUP2 SUB SWAP1 DUP1 DUP5 SUB SWAP1 DUP6 GAS STATICCALL ISZERO DUP1 ISZERO PUSH2 0x2C0 JUMPI RETURNDATASIZE PUSH1 0x0 DUP1 RETURNDATACOPY RETURNDATASIZE PUSH1 0x0 REVERT JUMPDEST POP POP PUSH1 0x40 MLOAD PUSH32 0xFFFFFFFFFFFFFFFFFFFFFFFFFFFFFFFFFFFFFFFFFFFFFFFFFFFFFFFFFFFFFFE0 DUP2 ADD MLOAD PUSH32 0xF9236A3900000000000000000000000000000000000000000000000000000000 DUP3 MSTORE PUSH1 0x4 DUP3 ADD DUP13 SWAP1 MSTORE PUSH20 0xFFFFFFFFFFFFFFFFFFFFFFFFFFFFFFFFFFFFFFFF DUP1 DUP3 AND PUSH1 0x24 DUP5 ADD MSTORE SWAP1 SWAP4 POP PUSH32 0x0 AND SWAP2 POP PUSH4 0xF9236A39 SWAP1 PUSH1 0x44 ADD PUSH1 0x20 PUSH1 0x40 MLOAD DUP1 DUP4 SUB DUP2 DUP7 GAS STATICCALL ISZERO DUP1 ISZERO PUSH2 0x37D JUMPI RETURNDATASIZE PUSH1 0x0 DUP1 RETURNDATACOPY RETURNDATASIZE PUSH1 0x0 REVERT JUMPDEST POP POP POP POP PUSH1 0x40 MLOAD RETURNDATASIZE PUSH1 0x1F NOT PUSH1 0x1F DUP3 ADD AND DUP3 ADD DUP1 PUSH1 0x40 MSTORE POP DUP2 ADD SWAP1 PUSH2 0x3A1 SWAP2 SWAP1 PUSH2 0xD0A JUMP JUMPDEST ISZERO PUSH2 0x44B JUMPI PUSH1 0x0 DUP10 DUP2 MSTORE PUSH1 0x20 DUP2 DUP2 MSTORE PUSH1 0x40 DUP1 DUP4 KECCAK256 DUP12 DUP5 MSTORE DUP3 MSTORE SWAP2 DUP3 SWAP1 KECCAK256 DUP1 SLOAD PUSH32 0xFFFFFFFFFFFFFFFFFFFFFFFF0000000000000000000000000000000000000000 AND PUSH20 0xFFFFFFFFFFFFFFFFFFFFFFFFFFFFFFFFFFFFFFFF DUP6 AND SWAP1 DUP2 OR SWAP1 SWAP2 SSTORE SWAP2 MLOAD SWAP2 DUP3 MSTORE DUP10 SWAP2 DUP12 SWAP2 PUSH32 0x2F844F99F3CE1F0191A01A59FD0C17E12427806EA6E7BCAEC13443FD6B9F5056 SWAP2 ADD PUSH1 0x40 MLOAD DUP1 SWAP2 SUB SWAP1 LOG3 PUSH1 0x1 PUSH1 0x0 DUP2 SLOAD PUSH2 0x442 SWAP1 PUSH2 0xD5B JUMP JUMPDEST SWAP1 SWAP2 SSTORE POP PUSH2 0x47D JUMP JUMPDEST PUSH1 0x40 MLOAD PUSH32 0xBDBFE21600000000000000000000000000000000000000000000000000000000 DUP2 MSTORE PUSH1 0x4 ADD PUSH1 0x40 MLOAD DUP1 SWAP2 SUB SWAP1 REVERT JUMPDEST POP POP POP POP POP POP POP POP POP JUMP JUMPDEST PUSH1 0x1 SLOAD DUP4 EQ PUSH2 0x4C3 JUMPI PUSH1 0x40 MLOAD PUSH32 0x756688FE00000000000000000000000000000000000000000000000000000000 DUP2 MSTORE PUSH1 0x4 ADD PUSH1 0x40 MLOAD DUP1 SWAP2 SUB SWAP1 REVERT JUMPDEST PUSH1 0x41 DUP2 EQ PUSH2 0x4FD JUMPI PUSH1 0x40 MLOAD PUSH32 0x8BAA579F00000000000000000000000000000000000000000000000000000000 DUP2 MSTORE PUSH1 0x4 ADD PUSH1 0x40 MLOAD DUP1 SWAP2 SUB SWAP1 REVERT JUMPDEST PUSH1 0x40 MLOAD PUSH1 0x21 DUP4 ADD CALLDATALOAD SWAP1 DUP4 CALLDATALOAD SWAP1 PUSH1 0x20 DUP1 DUP7 ADD CALLDATALOAD SWAP2 PUSH1 0x0 SWAP2 PUSH1 0x1 SWAP2 PUSH2 0x528 SWAP2 DUP14 SWAP2 DUP14 SWAP2 DUP14 SWAP2 DUP14 SWAP2 ADD PUSH2 0xD93 JUMP JUMPDEST PUSH1 0x40 DUP1 MLOAD PUSH32 0xFFFFFFFFFFFFFFFFFFFFFFFFFFFFFFFFFFFFFFFFFFFFFFFFFFFFFFFFFFFFFFE0 DUP2 DUP5 SUB ADD DUP2 MSTORE DUP3 DUP3 MSTORE DUP1 MLOAD PUSH1 0x20 SWAP2 DUP3 ADD KECCAK256 PUSH1 0x0 DUP5 MSTORE SWAP1 DUP4 ADD DUP1 DUP4 MSTORE MSTORE PUSH1 0xFF DUP8 AND SWAP1 DUP3 ADD MSTORE PUSH1 0x60 DUP2 ADD DUP6 SWAP1 MSTORE PUSH1 0x80 DUP2 ADD DUP5 SWAP1 MSTORE PUSH1 0xA0 ADD PUSH1 0x20 PUSH1 0x40 MLOAD PUSH1 0x20 DUP2 SUB SWAP1 DUP1 DUP5 SUB SWAP1 DUP6 GAS STATICCALL ISZERO DUP1 ISZERO PUSH2 0x5A4 JUMPI RETURNDATASIZE PUSH1 0x0 DUP1 RETURNDATACOPY RETURNDATASIZE PUSH1 0x0 REVERT JUMPDEST POP POP PUSH1 0x40 MLOAD PUSH32 0xFFFFFFFFFFFFFFFFFFFFFFFFFFFFFFFFFFFFFFFFFFFFFFFFFFFFFFFFFFFFFFE0 DUP2 ADD MLOAD PUSH32 0xF9236A3900000000000000000000000000000000000000000000000000000000 DUP3 MSTORE PUSH1 0x4 DUP3 ADD DUP14 SWAP1 MSTORE PUSH20 0xFFFFFFFFFFFFFFFFFFFFFFFFFFFFFFFFFFFFFFFF DUP1 DUP3 AND PUSH1 0x24 DUP5 ADD MSTORE SWAP1 SWAP4 POP PUSH32 0x0 AND SWAP2 POP PUSH4 0xF9236A39 SWAP1 PUSH1 0x44 ADD PUSH1 0x20 PUSH1 0x40 MLOAD DUP1 DUP4 SUB DUP2 DUP7 GAS STATICCALL ISZERO DUP1 ISZERO PUSH2 0x661 JUMPI RETURNDATASIZE PUSH1 0x0 DUP1 RETURNDATACOPY RETURNDATASIZE PUSH1 0x0 REVERT JUMPDEST POP POP POP POP PUSH1 0x40 MLOAD RETURNDATASIZE PUSH1 0x1F NOT PUSH1 0x1F DUP3 ADD AND DUP3 ADD DUP1 PUSH1 0x40 MSTORE POP DUP2 ADD SWAP1 PUSH2 0x685 SWAP2 SWAP1 PUSH2 0xD0A JUMP JUMPDEST ISZERO PUSH2 0x44B JUMPI PUSH1 0x0 JUMPDEST DUP9 DUP2 LT ISZERO PUSH2 0x77F JUMPI PUSH1 0x0 DUP12 DUP2 MSTORE PUSH1 0x20 DUP2 SWAP1 MSTORE PUSH1 0x40 DUP2 KECCAK256 DUP4 SWAP2 DUP13 DUP13 DUP6 DUP2 DUP2 LT PUSH2 0x6B7 JUMPI PUSH2 0x6B7 PUSH2 0xDF1 JUMP JUMPDEST SWAP1 POP PUSH1 0x20 MUL ADD CALLDATALOAD DUP2 MSTORE PUSH1 0x20 ADD SWAP1 DUP2 MSTORE PUSH1 0x20 ADD PUSH1 0x0 KECCAK256 PUSH1 0x0 PUSH2 0x100 EXP DUP2 SLOAD DUP2 PUSH20 0xFFFFFFFFFFFFFFFFFFFFFFFFFFFFFFFFFFFFFFFF MUL NOT AND SWAP1 DUP4 PUSH20 0xFFFFFFFFFFFFFFFFFFFFFFFFFFFFFFFFFFFFFFFF AND MUL OR SWAP1 SSTORE POP DUP10 DUP10 DUP3 DUP2 DUP2 LT PUSH2 0x71C JUMPI PUSH2 0x71C PUSH2 0xDF1 JUMP JUMPDEST SWAP1 POP PUSH1 0x20 MUL ADD CALLDATALOAD DUP12 PUSH32 0x2F844F99F3CE1F0191A01A59FD0C17E12427806EA6E7BCAEC13443FD6B9F5056 DUP5 PUSH1 0x40 MLOAD PUSH2 0x76F SWAP2 SWAP1 PUSH20 0xFFFFFFFFFFFFFFFFFFFFFFFFFFFFFFFFFFFFFFFF SWAP2 SWAP1 SWAP2 AND DUP2 MSTORE PUSH1 0x20 ADD SWAP1 JUMP JUMPDEST PUSH1 0x40 MLOAD DUP1 SWAP2 SUB SWAP1 LOG3 PUSH1 0x1 ADD PUSH2 0x68D JUMP JUMPDEST POP PUSH1 0x1 PUSH1 0x0 DUP2 SLOAD PUSH2 0x78F SWAP1 PUSH2 0xD5B JUMP JUMPDEST SWAP1 SWAP2 SSTORE POP POP POP POP POP POP POP POP POP POP POP JUMP JUMPDEST PUSH1 0x0 PUSH2 0x7C6 PUSH2 0x7AC PUSH2 0x9C4 JUMP JUMPDEST SLOAD PUSH20 0xFFFFFFFFFFFFFFFFFFFFFFFFFFFFFFFFFFFFFFFF AND SWAP1 JUMP JUMPDEST SWAP1 POP SWAP1 JUMP JUMPDEST PUSH1 0x0 DUP3 DUP2 MSTORE PUSH1 0x20 DUP2 DUP2 MSTORE PUSH1 0x40 DUP1 DUP4 KECCAK256 DUP5 DUP5 MSTORE SWAP1 SWAP2 MSTORE DUP1 DUP3 KECCAK256 SLOAD SWAP1 MLOAD PUSH32 0xF9236A3900000000000000000000000000000000000000000000000000000000 DUP2 MSTORE PUSH1 0x4 DUP2 ADD DUP6 SWAP1 MSTORE PUSH20 0xFFFFFFFFFFFFFFFFFFFFFFFFFFFFFFFFFFFFFFFF SWAP2 DUP3 AND PUSH1 0x24 DUP3 ADD DUP2 SWAP1 MSTORE SWAP2 PUSH32 0x0 AND SWAP1 PUSH4 0xF9236A39 SWAP1 PUSH1 0x44 ADD PUSH1 0x20 PUSH1 0x40 MLOAD DUP1 DUP4 SUB DUP2 DUP7 GAS STATICCALL ISZERO DUP1 ISZERO PUSH2 0x879 JUMPI RETURNDATASIZE PUSH1 0x0 DUP1 RETURNDATACOPY RETURNDATASIZE PUSH1 0x0 REVERT JUMPDEST POP POP POP POP PUSH1 0x40 MLOAD RETURNDATASIZE PUSH1 0x1F NOT PUSH1 0x1F DUP3 ADD AND DUP3 ADD DUP1 PUSH1 0x40 MSTORE POP DUP2 ADD SWAP1 PUSH2 0x89D SWAP2 SWAP1 PUSH2 0xD0A JUMP JUMPDEST SWAP5 SWAP4 POP POP POP POP JUMP JUMPDEST PUSH2 0x8B9 CALLER DUP3 PUSH2 0x8B2 PUSH2 0x9C4 JUMP JUMPDEST SWAP2 SWAP1 PUSH2 0x9F2 JUMP JUMPDEST POP JUMP JUMPDEST PUSH1 0x0 DUP1 PUSH2 0x199 PUSH1 0x1 PUSH32 0xCA9D3E17F264B0F3984E2634E94ADB37FA3E6A8103F06AEAE6FA59E21C769F5E PUSH2 0xE20 JUMP JUMPDEST PUSH1 0x0 PUSH29 0x100000000000000000000000000000000000000000000000000000000 PUSH32 0xFFFFFFFF00000000000000000000000000000000000000000000000000000000 DUP4 AND ADD PUSH2 0x93A JUMPI POP PUSH1 0x0 PUSH2 0x199 JUMP JUMPDEST PUSH32 0xFE00365900000000000000000000000000000000000000000000000000000000 PUSH32 0xFFFFFFFF00000000000000000000000000000000000000000000000000000000 DUP4 AND ADD PUSH2 0x98B JUMPI POP PUSH1 0x1 PUSH2 0x199 JUMP JUMPDEST POP PUSH32 0xFFFFFFFF00000000000000000000000000000000000000000000000000000000 AND PUSH1 0x0 SWAP1 DUP2 MSTORE PUSH1 0x20 SWAP2 SWAP1 SWAP2 MSTORE PUSH1 0x40 SWAP1 KECCAK256 SLOAD PUSH1 0xFF AND SWAP1 JUMP JUMPDEST PUSH1 0x0 DUP1 PUSH2 0x199 PUSH1 0x1 PUSH32 0xC9ED16F33AB3A66C84BFD83099CCB2A8845871E2E1C1928F63797152F0FD54CD PUSH2 0xE20 JUMP JUMPDEST DUP3 SLOAD PUSH20 0xFFFFFFFFFFFFFFFFFFFFFFFFFFFFFFFFFFFFFFFF SWAP1 DUP2 AND SWAP1 DUP4 AND DUP2 EQ PUSH2 0xA63 JUMPI PUSH1 0x40 MLOAD PUSH32 0x2EF4875E00000000000000000000000000000000000000000000000000000000 DUP2 MSTORE PUSH20 0xFFFFFFFFFFFFFFFFFFFFFFFFFFFFFFFFFFFFFFFF DUP5 AND PUSH1 0x4 DUP3 ADD MSTORE PUSH1 0x24 ADD PUSH1 0x40 MLOAD DUP1 SWAP2 SUB SWAP1 REVERT JUMPDEST DUP2 PUSH20 0xFFFFFFFFFFFFFFFFFFFFFFFFFFFFFFFFFFFFFFFF AND DUP2 PUSH20 0xFFFFFFFFFFFFFFFFFFFFFFFFFFFFFFFFFFFFFFFF AND EQ PUSH2 0xB05 JUMPI DUP4 SLOAD PUSH32 0xFFFFFFFFFFFFFFFFFFFFFFFF0000000000000000000000000000000000000000 AND PUSH20 0xFFFFFFFFFFFFFFFFFFFFFFFFFFFFFFFFFFFFFFFF DUP4 DUP2 AND SWAP2 DUP3 OR DUP7 SSTORE PUSH1 0x40 MLOAD SWAP1 DUP4 AND SWAP1 PUSH32 0x8BE0079C531659141344CD1FD0A4F28419497F9722A3DAAFE3B4186F6B6457E0 SWAP1 PUSH1 0x0 SWAP1 LOG3 JUMPDEST POP POP POP POP JUMP JUMPDEST PUSH1 0x0 PUSH1 0x20 DUP3 DUP5 SUB SLT ISZERO PUSH2 0xB1D JUMPI PUSH1 0x0 DUP1 REVERT JUMPDEST DUP2 CALLDATALOAD PUSH32 0xFFFFFFFF00000000000000000000000000000000000000000000000000000000 DUP2 AND DUP2 EQ PUSH2 0xB4D JUMPI PUSH1 0x0 DUP1 REVERT JUMPDEST SWAP4 SWAP3 POP POP POP JUMP JUMPDEST PUSH1 0x0 DUP1 DUP4 PUSH1 0x1F DUP5 ADD SLT PUSH2 0xB66 JUMPI PUSH1 0x0 DUP1 REVERT JUMPDEST POP DUP2 CALLDATALOAD PUSH8 0xFFFFFFFFFFFFFFFF DUP2 GT ISZERO PUSH2 0xB7E JUMPI PUSH1 0x0 DUP1 REVERT JUMPDEST PUSH1 0x20 DUP4 ADD SWAP2 POP DUP4 PUSH1 0x20 DUP3 DUP6 ADD ADD GT ISZERO PUSH2 0xB96 JUMPI PUSH1 0x0 DUP1 REVERT JUMPDEST SWAP3 POP SWAP3 SWAP1 POP JUMP JUMPDEST PUSH1 0x0 DUP1 PUSH1 0x0 DUP1 PUSH1 0x0 PUSH1 0x80 DUP7 DUP9 SUB SLT ISZERO PUSH2 0xBB5 JUMPI PUSH1 0x0 DUP1 REVERT JUMPDEST DUP6 CALLDATALOAD SWAP5 POP PUSH1 0x20 DUP7 ADD CALLDATALOAD SWAP4 POP PUSH1 0x40 DUP7 ADD CALLDATALOAD SWAP3 POP PUSH1 0x60 DUP7 ADD CALLDATALOAD PUSH8 0xFFFFFFFFFFFFFFFF DUP2 GT ISZERO PUSH2 0xBE1 JUMPI PUSH1 0x0 DUP1 REVERT JUMPDEST PUSH2 0xBED DUP9 DUP3 DUP10 ADD PUSH2 0xB54 JUMP JUMPDEST SWAP7 SWAP10 SWAP6 SWAP9 POP SWAP4 SWAP7 POP SWAP3 SWAP5 SWAP4 SWAP3 POP POP POP JUMP JUMPDEST PUSH1 0x0 DUP1 PUSH1 0x0 DUP1 PUSH1 0x0 DUP1 PUSH1 0x80 DUP8 DUP10 SUB SLT ISZERO PUSH2 0xC17 JUMPI PUSH1 0x0 DUP1 REVERT JUMPDEST DUP7 CALLDATALOAD SWAP6 POP PUSH1 0x20 DUP8 ADD CALLDATALOAD PUSH8 0xFFFFFFFFFFFFFFFF DUP1 DUP3 GT ISZERO PUSH2 0xC36 JUMPI PUSH1 0x0 DUP1 REVERT JUMPDEST DUP2 DUP10 ADD SWAP2 POP DUP10 PUSH1 0x1F DUP4 ADD SLT PUSH2 0xC4A JUMPI PUSH1 0x0 DUP1 REVERT JUMPDEST DUP2 CALLDATALOAD DUP2 DUP2 GT ISZERO PUSH2 0xC59 JUMPI PUSH1 0x0 DUP1 REVERT JUMPDEST DUP11 PUSH1 0x20 DUP3 PUSH1 0x5 SHL DUP6 ADD ADD GT ISZERO PUSH2 0xC6E JUMPI PUSH1 0x0 DUP1 REVERT JUMPDEST PUSH1 0x20 DUP4 ADD SWAP8 POP DUP1 SWAP7 POP POP PUSH1 0x40 DUP10 ADD CALLDATALOAD SWAP5 POP PUSH1 0x60 DUP10 ADD CALLDATALOAD SWAP2 POP DUP1 DUP3 GT ISZERO PUSH2 0xC93 JUMPI PUSH1 0x0 DUP1 REVERT JUMPDEST POP PUSH2 0xCA0 DUP10 DUP3 DUP11 ADD PUSH2 0xB54 JUMP JUMPDEST SWAP8 SWAP11 SWAP7 SWAP10 POP SWAP5 SWAP8 POP SWAP3 SWAP6 SWAP4 SWAP5 SWAP3 POP POP POP JUMP JUMPDEST PUSH1 0x0 DUP1 PUSH1 0x40 DUP4 DUP6 SUB SLT ISZERO PUSH2 0xCC5 JUMPI PUSH1 0x0 DUP1 REVERT JUMPDEST POP POP DUP1 CALLDATALOAD SWAP3 PUSH1 0x20 SWAP1 SWAP2 ADD CALLDATALOAD SWAP2 POP JUMP JUMPDEST PUSH1 0x0 PUSH1 0x20 DUP3 DUP5 SUB SLT ISZERO PUSH2 0xCE6 JUMPI PUSH1 0x0 DUP1 REVERT JUMPDEST DUP2 CALLDATALOAD PUSH20 0xFFFFFFFFFFFFFFFFFFFFFFFFFFFFFFFFFFFFFFFF DUP2 AND DUP2 EQ PUSH2 0xB4D JUMPI PUSH1 0x0 DUP1 REVERT JUMPDEST PUSH1 0x0 PUSH1 0x20 DUP3 DUP5 SUB SLT ISZERO PUSH2 0xD1C JUMPI PUSH1 0x0 DUP1 REVERT JUMPDEST DUP2 MLOAD DUP1 ISZERO ISZERO DUP2 EQ PUSH2 0xB4D JUMPI PUSH1 0x0 DUP1 REVERT JUMPDEST PUSH32 0x4E487B7100000000000000000000000000000000000000000000000000000000 PUSH1 0x0 MSTORE PUSH1 0x11 PUSH1 0x4 MSTORE PUSH1 0x24 PUSH1 0x0 REVERT JUMPDEST PUSH1 0x0 PUSH32 0xFFFFFFFFFFFFFFFFFFFFFFFFFFFFFFFFFFFFFFFFFFFFFFFFFFFFFFFFFFFFFFFF DUP3 SUB PUSH2 0xD8C JUMPI PUSH2 0xD8C PUSH2 0xD2C JUMP JUMPDEST POP PUSH1 0x1 ADD SWAP1 JUMP JUMPDEST DUP5 DUP2 MSTORE PUSH1 0x60 PUSH1 0x20 DUP3 ADD MSTORE DUP3 PUSH1 0x60 DUP3 ADD MSTORE PUSH1 0x0 PUSH32 0x7FFFFFFFFFFFFFFFFFFFFFFFFFFFFFFFFFFFFFFFFFFFFFFFFFFFFFFFFFFFFFF DUP5 GT ISZERO PUSH2 0xDD2 JUMPI PUSH1 0x0 DUP1 REVERT JUMPDEST DUP4 PUSH1 0x5 SHL DUP1 DUP7 PUSH1 0x80 DUP6 ADD CALLDATACOPY PUSH1 0x40 DUP4 ADD SWAP4 SWAP1 SWAP4 MSTORE POP ADD PUSH1 0x80 ADD SWAP4 SWAP3 POP POP POP JUMP JUMPDEST PUSH32 0x4E487B7100000000000000000000000000000000000000000000000000000000 PUSH1 0x0 MSTORE PUSH1 0x32 PUSH1 0x4 MSTORE PUSH1 0x24 PUSH1 0x0 REVERT JUMPDEST DUP2 DUP2 SUB DUP2 DUP2 GT ISZERO PUSH2 0x199 JUMPI PUSH2 0x199 PUSH2 0xD2C JUMP INVALID LOG2 PUSH5 0x6970667358 0x22 SLT KECCAK256 SWAP15 0x28 0xD9 BALANCE 0xA6 PUSH29 0x51A7B9BDB87BA9D987E1C8B6242669600CD8BB79A2F562CBB08D64736F PUSH13 0x63430008160033000000000000 "},"gasEstimates":{"creation":{"codeDepositCost":"737800","executionCost":"infinite","totalCost":"infinite"},"external":{"batchRevokeVCs(bytes32,uint256[],uint256,bytes)":"infinite","currentNonce()":"2317","isRevoked(bytes32,uint256)":"infinite","owner()":"infinite","revocations(bytes32,uint256)":"2586","revokeVC(bytes32,uint256,uint256,bytes)":"infinite","supportsInterface(bytes4)":"infinite","transferOwnership(address)":"infinite"}},"methodIdentifiers":{"batchRevokeVCs(bytes32,uint256[],uint256,bytes)":"4c66f71c","currentNonce()":"adb610a3","isRevoked(bytes32,uint256)":"a3a2656a","owner()":"8da5cb5b","revocations(bytes32,uint256)":"d394ab5a","revokeVC(bytes32,uint256,uint256,bytes)":"12b7ad29","supportsInterface(bytes4)":"01ffc9a7","transferOwnership(address)":"f2fde38b"}},"storageLayout":{"storage":[{"astId":1074,"contract":"contracts/vc/OpenCampusCertificateRevocationRegistry.sol:OpenCampusCertificateRevocationRegistry","label":"revocations","offset":0,"slot":"0","type":"t_mapping(t_bytes32,t_mapping(t_uint256,t_address))"},{"astId":1076,"contract":"contracts/vc/OpenCampusCertificateRevocationRegistry.sol:OpenCampusCertificateRevocationRegistry","label":"currentNonce","offset":0,"slot":"1","type":"t_uint256"}],"types":{"t_address":{"encoding":"inplace","label":"address","numberOfBytes":"20"},"t_bytes32":{"encoding":"inplace","label":"bytes32","numberOfBytes":"32"},"t_mapping(t_bytes32,t_mapping(t_uint256,t_address))":{"encoding":"mapping","key":"t_bytes32","label":"mapping(bytes32 => mapping(uint256 => address))","numberOfBytes":"32","value":"t_mapping(t_uint256,t_address)"},"t_mapping(t_uint256,t_address)":{"encoding":"mapping","key":"t_uint256","label":"mapping(uint256 => address)","numberOfBytes":"32","value":"t_address"},"t_uint256":{"encoding":"inplace","label":"uint256","numberOfBytes":"32"}}},"userdoc":{"errors":{"IllegalInterfaceId()":[{"notice":"Thrown when setting the illegal interfaceId 0xffffffff."}],"InvalidSignature()":[{"notice":"Thrown when the signature is invalid for the NFT payload."}],"NotContractOwner(address)":[{"notice":"Thrown when an account is not the contract owner but is required to."}]},"events":{"OwnershipTransferred(address,address)":{"notice":"Emitted when the contract ownership changes."},"VcRevoked(bytes32,address,uint256)":{"notice":"Emitted when `caller` attempts to revoke `vcId`."}},"kind":"user","methods":{"owner()":{"notice":"Gets the address of the contract owner."},"supportsInterface(bytes4)":{"notice":"Returns whether this contract implements a given interface."},"transferOwnership(address)":{"notice":"Sets the address of the new contract owner."}},"notice":"A registry storing the revocation of VCs.","version":1}}}}