{"contracts/vc/OpenCampusCertificateNFTv1.sol":{"OpenCampusCertificateNFTv1":{"abi":[{"inputs":[{"internalType":"string","name":"tokenName","type":"string"},{"internalType":"string","name":"tokenSymbol","type":"string"},{"internalType":"contract IForwarderRegistry","name":"forwarderRegistry","type":"address"},{"internalType":"contract ITokenMetadataResolver","name":"metadataResolver","type":"address"},{"internalType":"contract IRevocationRegistry","name":"revocationRegistry","type":"address"},{"internalType":"contract IIssuersDIDRegistry","name":"didRegistry","type":"address"}],"stateMutability":"nonpayable","type":"constructor"},{"inputs":[],"name":"ERC721BalanceOfAddressZero","type":"error"},{"inputs":[{"internalType":"uint256","name":"tokenId","type":"uint256"}],"name":"ERC721ExistingToken","type":"error"},{"inputs":[],"name":"ERC721MintToAddressZero","type":"error"},{"inputs":[{"internalType":"address","name":"sender","type":"address"},{"internalType":"address","name":"owner","type":"address"},{"internalType":"uint256","name":"tokenId","type":"uint256"}],"name":"ERC721NonApprovedForApproval","type":"error"},{"inputs":[{"internalType":"address","name":"sender","type":"address"},{"internalType":"address","name":"owner","type":"address"},{"internalType":"uint256","name":"tokenId","type":"uint256"}],"name":"ERC721NonApprovedForTransfer","type":"error"},{"inputs":[{"internalType":"uint256","name":"tokenId","type":"uint256"}],"name":"ERC721NonExistingToken","type":"error"},{"inputs":[{"internalType":"address","name":"account","type":"address"},{"internalType":"uint256","name":"tokenId","type":"uint256"}],"name":"ERC721NonOwnedToken","type":"error"},{"inputs":[{"internalType":"address","name":"recipient","type":"address"},{"internalType":"uint256","name":"tokenId","type":"uint256"}],"name":"ERC721SafeTransferRejected","type":"error"},{"inputs":[{"internalType":"address","name":"account","type":"address"}],"name":"ERC721SelfApproval","type":"error"},{"inputs":[{"internalType":"address","name":"account","type":"address"}],"name":"ERC721SelfApprovalForAll","type":"error"},{"inputs":[],"name":"ERC721TransferToAddressZero","type":"error"},{"inputs":[],"name":"IllegalInterfaceId","type":"error"},{"inputs":[],"name":"InvalidBurn","type":"error"},{"inputs":[{"internalType":"address","name":"account","type":"address"}],"name":"NotContractOwner","type":"error"},{"inputs":[{"internalType":"bytes32","name":"role","type":"bytes32"},{"internalType":"address","name":"account","type":"address"}],"name":"NotRoleHolder","type":"error"},{"anonymous":false,"inputs":[{"indexed":true,"internalType":"address","name":"owner","type":"address"},{"indexed":true,"internalType":"address","name":"approved","type":"address"},{"indexed":true,"internalType":"uint256","name":"tokenId","type":"uint256"}],"name":"Approval","type":"event"},{"anonymous":false,"inputs":[{"indexed":true,"internalType":"address","name":"owner","type":"address"},{"indexed":true,"internalType":"address","name":"operator","type":"address"},{"indexed":false,"internalType":"bool","name":"approved","type":"bool"}],"name":"ApprovalForAll","type":"event"},{"anonymous":false,"inputs":[{"indexed":true,"internalType":"address","name":"previousOwner","type":"address"},{"indexed":true,"internalType":"address","name":"newOwner","type":"address"}],"name":"OwnershipTransferred","type":"event"},{"anonymous":false,"inputs":[{"indexed":false,"internalType":"bytes32","name":"role","type":"bytes32"},{"indexed":false,"internalType":"address","name":"account","type":"address"},{"indexed":false,"internalType":"address","name":"operator","type":"address"}],"name":"RoleGranted","type":"event"},{"anonymous":false,"inputs":[{"indexed":false,"internalType":"bytes32","name":"role","type":"bytes32"},{"indexed":false,"internalType":"address","name":"account","type":"address"},{"indexed":false,"internalType":"address","name":"operator","type":"address"}],"name":"RoleRevoked","type":"event"},{"anonymous":false,"inputs":[{"indexed":true,"internalType":"address","name":"from","type":"address"},{"indexed":true,"internalType":"address","name":"to","type":"address"},{"indexed":true,"internalType":"uint256","name":"tokenId","type":"uint256"}],"name":"Transfer","type":"event"},{"inputs":[],"name":"MINTER_ROLE","outputs":[{"internalType":"bytes32","name":"","type":"bytes32"}],"stateMutability":"view","type":"function"},{"inputs":[],"name":"OPERATOR_ROLE","outputs":[{"internalType":"bytes32","name":"","type":"bytes32"}],"stateMutability":"view","type":"function"},{"inputs":[{"internalType":"address","name":"to","type":"address"},{"internalType":"uint256","name":"tokenId","type":"uint256"}],"name":"approve","outputs":[],"stateMutability":"nonpayable","type":"function"},{"inputs":[{"internalType":"address","name":"owner","type":"address"}],"name":"balanceOf","outputs":[{"internalType":"uint256","name":"balance","type":"uint256"}],"stateMutability":"view","type":"function"},{"inputs":[{"internalType":"uint256","name":"tokenId","type":"uint256"}],"name":"burn","outputs":[],"stateMutability":"nonpayable","type":"function"},{"inputs":[],"name":"forwarderRegistry","outputs":[{"internalType":"contract IForwarderRegistry","name":"","type":"address"}],"stateMutability":"view","type":"function"},{"inputs":[{"internalType":"uint256","name":"tokenId","type":"uint256"}],"name":"getApproved","outputs":[{"internalType":"address","name":"approved","type":"address"}],"stateMutability":"view","type":"function"},{"inputs":[{"internalType":"bytes32","name":"role","type":"bytes32"},{"internalType":"address","name":"account","type":"address"}],"name":"grantRole","outputs":[],"stateMutability":"nonpayable","type":"function"},{"inputs":[{"internalType":"bytes32","name":"role","type":"bytes32"},{"internalType":"address","name":"account","type":"address"}],"name":"hasRole","outputs":[{"internalType":"bool","name":"hasRole_","type":"bool"}],"stateMutability":"view","type":"function"},{"inputs":[{"internalType":"address","name":"owner","type":"address"},{"internalType":"address","name":"operator","type":"address"}],"name":"isApprovedForAll","outputs":[{"internalType":"bool","name":"approvedForAll","type":"bool"}],"stateMutability":"view","type":"function"},{"inputs":[{"internalType":"address","name":"forwarder","type":"address"}],"name":"isTrustedForwarder","outputs":[{"internalType":"bool","name":"","type":"bool"}],"stateMutability":"view","type":"function"},{"inputs":[],"name":"metadataResolver","outputs":[{"internalType":"contract ITokenMetadataResolver","name":"tokenMetadataResolver","type":"address"}],"stateMutability":"view","type":"function"},{"inputs":[{"internalType":"address","name":"to","type":"address"},{"internalType":"uint256","name":"tokenId","type":"uint256"},{"components":[{"internalType":"uint16","name":"schemaVersion","type":"uint16"},{"internalType":"uint16","name":"achievementType","type":"uint16"},{"internalType":"uint64","name":"awardedDate","type":"uint64"},{"internalType":"uint64","name":"validFrom","type":"uint64"},{"internalType":"uint64","name":"validUtil","type":"uint64"},{"internalType":"string","name":"issuerDid","type":"string"},{"internalType":"string","name":"achievementId","type":"string"}],"internalType":"struct CertificateNFTv1MetaData.MetaData","name":"metadata","type":"tuple"}],"name":"mint","outputs":[],"stateMutability":"nonpayable","type":"function"},{"inputs":[],"name":"name","outputs":[{"internalType":"string","name":"tokenName","type":"string"}],"stateMutability":"view","type":"function"},{"inputs":[],"name":"owner","outputs":[{"internalType":"address","name":"","type":"address"}],"stateMutability":"view","type":"function"},{"inputs":[{"internalType":"uint256","name":"tokenId","type":"uint256"}],"name":"ownerOf","outputs":[{"internalType":"address","name":"tokenOwner","type":"address"}],"stateMutability":"view","type":"function"},{"inputs":[{"internalType":"bytes32","name":"role","type":"bytes32"}],"name":"renounceRole","outputs":[],"stateMutability":"nonpayable","type":"function"},{"inputs":[{"internalType":"bytes32","name":"role","type":"bytes32"},{"internalType":"address","name":"account","type":"address"}],"name":"revokeRole","outputs":[],"stateMutability":"nonpayable","type":"function"},{"inputs":[{"internalType":"address","name":"from","type":"address"},{"internalType":"address","name":"to","type":"address"},{"internalType":"uint256","name":"tokenId","type":"uint256"}],"name":"safeTransferFrom","outputs":[],"stateMutability":"nonpayable","type":"function"},{"inputs":[{"internalType":"address","name":"from","type":"address"},{"internalType":"address","name":"to","type":"address"},{"internalType":"uint256","name":"tokenId","type":"uint256"},{"internalType":"bytes","name":"data","type":"bytes"}],"name":"safeTransferFrom","outputs":[],"stateMutability":"nonpayable","type":"function"},{"inputs":[{"internalType":"address","name":"operator","type":"address"},{"internalType":"bool","name":"approved","type":"bool"}],"name":"setApprovalForAll","outputs":[],"stateMutability":"nonpayable","type":"function"},{"inputs":[{"internalType":"contract IRevocationRegistry","name":"revocationRegistry","type":"address"}],"name":"setRevocationRegistry","outputs":[],"stateMutability":"nonpayable","type":"function"},{"inputs":[{"internalType":"bytes4","name":"interfaceId","type":"bytes4"}],"name":"supportsInterface","outputs":[{"internalType":"bool","name":"","type":"bool"}],"stateMutability":"view","type":"function"},{"inputs":[],"name":"symbol","outputs":[{"internalType":"string","name":"tokenSymbol","type":"string"}],"stateMutability":"view","type":"function"},{"inputs":[{"internalType":"uint256","name":"tokenId","type":"uint256"}],"name":"tokenURI","outputs":[{"internalType":"string","name":"uri","type":"string"}],"stateMutability":"view","type":"function"},{"inputs":[{"internalType":"address","name":"from","type":"address"},{"internalType":"address","name":"to","type":"address"},{"internalType":"uint256","name":"tokenId","type":"uint256"}],"name":"transferFrom","outputs":[],"stateMutability":"nonpayable","type":"function"},{"inputs":[{"internalType":"address","name":"newOwner","type":"address"}],"name":"transferOwnership","outputs":[],"stateMutability":"nonpayable","type":"function"},{"inputs":[{"internalType":"uint256","name":"","type":"uint256"}],"name":"vcData","outputs":[{"internalType":"uint16","name":"schemaVersion","type":"uint16"},{"internalType":"uint16","name":"achievementType","type":"uint16"},{"internalType":"uint64","name":"awardedDate","type":"uint64"},{"internalType":"uint64","name":"validFrom","type":"uint64"},{"internalType":"uint64","name":"validUtil","type":"uint64"},{"internalType":"string","name":"issuerDid","type":"string"},{"internalType":"string","name":"achievementId","type":"string"}],"stateMutability":"view","type":"function"}],"devdoc":{"errors":{"ERC721ExistingToken(uint256)":[{"params":{"tokenId":"The identifier of the token that already exists."}}],"ERC721NonApprovedForApproval(address,address,uint256)":[{"params":{"sender":"The message sender.","tokenId":"The identifier of the token."}}],"ERC721NonApprovedForTransfer(address,address,uint256)":[{"params":{"sender":"The message sender.","tokenId":"The identifier of the token."}}],"ERC721NonExistingToken(uint256)":[{"params":{"tokenId":"The identifier of the token that was checked."}}],"ERC721NonOwnedToken(address,uint256)":[{"params":{"account":"The account that was expected to own the token.","tokenId":"The identifier of the token."}}],"ERC721SafeTransferRejected(address,uint256)":[{"params":{"recipient":"The recipient contract.","tokenId":"The identifier of the token."}}],"ERC721SelfApproval(address)":[{"params":{"account":"The account trying to approve itself."}}],"ERC721SelfApprovalForAll(address)":[{"params":{"account":"The account trying to approveForAll itself."}}],"NotContractOwner(address)":[{"params":{"account":"The account that was checked."}}],"NotRoleHolder(bytes32,address)":[{"params":{"account":"The account that was checked.","role":"The role the caller is missing."}}]},"events":{"Approval(address,address,uint256)":{"params":{"approved":"The approved address.","owner":"The token owner.","tokenId":"The approved token identifier."}},"ApprovalForAll(address,address,bool)":{"params":{"approved":"True when then approval is set, false when it is unset.","operator":"The approved address.","owner":"The tokens owner."}},"OwnershipTransferred(address,address)":{"params":{"newOwner":"the new contract owner.","previousOwner":"the previous contract owner."}},"RoleGranted(bytes32,address,address)":{"params":{"account":"The account that has been granted the role.","operator":"The account that granted the role.","role":"The role that has been granted."}},"RoleRevoked(bytes32,address,address)":{"params":{"account":"The account that has been revoked the role.","operator":"The account that revoked the role.","role":"The role that has been revoked."}},"Transfer(address,address,uint256)":{"params":{"from":"The previous token owner.","to":"The new token owner.","tokenId":"The transferred token identifier."}}},"kind":"dev","methods":{"approve(address,uint256)":{"details":"Note: There can only be one approved address per token at a given time.Note: A token approval gets reset when this token is transferred, including a self-transfer.Reverts if `tokenId` does not exist.Reverts if `to` is the token owner.Reverts if the sender is not the token owner and has not been approved by the token owner.Emits an {Approval} event.","params":{"to":"The address to approve, or the zero address to remove any existing approval.","tokenId":"The token identifier to give approval for."}},"balanceOf(address)":{"details":"Reverts if `owner` is the zero address.","params":{"owner":"The address to query the balance of."},"returns":{"balance":"The amount owned by the owner."}},"burn(uint256)":{"details":"Reverts with `InvalidBurn` if the tokenId has not been invalidated.Emit a `Transfer` event to address 0 when the token has been burnt.","params":{"tokenId":"The Token Id to be burnt. Burn tokenId only if tokenId has been legitimately revoked in Revocation Registry."}},"getApproved(uint256)":{"details":"Reverts if `tokenId` does not exist.","params":{"tokenId":"The token identifier to query the approval of."},"returns":{"approved":"The approved address for the token identifier, or the zero address if no approval is set."}},"grantRole(bytes32,address)":{"details":"Reverts with {NotContractOwner} if the sender is not the contract owner.Emits a {RoleGranted} event if the account did not previously have the role.","params":{"account":"The account to grant the role to.","role":"The role to grant."}},"hasRole(bytes32,address)":{"params":{"account":"The account.","role":"The role."},"returns":{"hasRole_":"Whether `account` has `role`."}},"isApprovedForAll(address,address)":{"params":{"operator":"The address which receives the approval for all tokens.","owner":"The address which gives the approval for all tokens."},"returns":{"approvedForAll":"Whether the operator is approved for all tokens by the owner."}},"isTrustedForwarder(address)":{"params":{"forwarder":"The forwarder to check."},"returns":{"_0":"True if `forwarder` is trusted, false if not."}},"metadataResolver()":{"returns":{"tokenMetadataResolver":"The token metadata resolver address."}},"mint(address,uint256,(uint16,uint16,uint64,uint64,uint64,string,string))":{"details":"Reverts with `NotRoleHolder` if the sender does not have the 'minter' role.","params":{"metadata":"Metadata for `tokenId`","to":"The owner of `tokenId`","tokenId":"The id of the VC NFT to be minted"}},"name()":{"returns":{"tokenName":"The name of the token."}},"owner()":{"returns":{"_0":"The address of the contract owner."}},"ownerOf(uint256)":{"details":"Reverts if `tokenId` does not exist.","params":{"tokenId":"The token identifier to query the owner of."},"returns":{"tokenOwner":"The owner of the token identifier."}},"renounceRole(bytes32)":{"details":"Reverts if `sender` does not have `role`.Emits a {RoleRevoked} event.","params":{"role":"The role to renounce."}},"revokeRole(bytes32,address)":{"details":"Reverts with {NotContractOwner} if the sender is not the contract owner.Emits a {RoleRevoked} event if the account previously had the role.","params":{"account":"The account to revoke the role from.","role":"The role to revoke."}},"safeTransferFrom(address,address,uint256)":{"details":"Resets the token approval for `tokenId`.Reverts if `to` is the zero address.Reverts if `from` is not the owner of `tokenId`.Reverts if the sender is not `from` and has not been approved by `from` for `tokenId`.Reverts if `to` is a contract and the call to {IERC721Receiver-onERC721Received} fails, reverts or is rejected.Emits a {Transfer} event.","params":{"from":"The current token owner.","to":"The recipient of the token transfer.","tokenId":"The identifier of the token to transfer."}},"safeTransferFrom(address,address,uint256,bytes)":{"details":"Resets the token approval for `tokenId`.Reverts if `to` is the zero address.Reverts if `from` is not the owner of `tokenId`.Reverts if the sender is not `from` and has not been approved by `from` for `tokenId`.Reverts if `to` is a contract and the call to {IERC721Receiver-onERC721Received} fails, reverts or is rejected.Emits a {Transfer} event.","params":{"data":"Optional data to send along to a receiver contract.","from":"The current token owner.","to":"The recipient of the token transfer.","tokenId":"The identifier of the token to transfer."}},"setApprovalForAll(address,bool)":{"details":"Reverts if the sender is the same as `operator`.Emits an {ApprovalForAll} event.","params":{"approved":"True to set an approval for all tokens, false to unset it.","operator":"The address to approve for all tokens."}},"setRevocationRegistry(address)":{"params":{"revocationRegistry":"The address of the Revocation Registry contract."}},"supportsInterface(bytes4)":{"details":"Note: This function call must use less than 30 000 gas.","params":{"interfaceId":"the interface identifier to test."},"returns":{"_0":"True if the interface is supported, false if `interfaceId` is `0xffffffff` or if the interface is not supported."}},"symbol()":{"returns":{"tokenSymbol":"The symbol of the token."}},"tokenURI(uint256)":{"details":"Reverts if `tokenId` does not exist.","params":{"tokenId":"The token identifier."},"returns":{"uri":"The metadata URI for the token identifier."}},"transferFrom(address,address,uint256)":{"details":"Note: Usage of this method is discouraged, use `safeTransferFrom` whenever possible.Resets the token approval for `tokenId`.Reverts if `to` is the zero address.Reverts if `from` is not the owner of `tokenId`.Reverts if the sender is not `from` and has not been approved by `from` for `tokenId`.Emits a {Transfer} event.","params":{"from":"The current token owner.","to":"The recipient of the token transfer. Self-transfers are possible.","tokenId":"The identifier of the token to transfer."}},"transferOwnership(address)":{"details":"Reverts if the sender is not the contract owner.Emits an {OwnershipTransferred} event if `newOwner` is different from the current contract owner.","params":{"newOwner":"The address of the new contract owner. Using the zero address means renouncing ownership."}}},"version":1},"evm":{"bytecode":{"linkReferences":{},"object":"60c06040523480156200001157600080fd5b506040516200316738038062003167833981016040819052620000349162000389565b838033888887620000548383836200004b620000c6565b929190620000fc565b6200005e62000143565b5050506200007d81620000766200016560201b60201c565b9062000195565b506001600160a01b0316608052506200009562000208565b6001600160a01b0390811660a052600080546001600160a01b0319169290911691909117905550620005c892505050565b600080620000f660017f7ea68fd2dcf1c056b94db6a0a537aa80d26fa9ab1eacd85da1ba0b61b7e7a8a562000449565b92915050565b83620001098482620004fc565b50600184016200011a8382620004fc565b5060029390930180546001600160a01b0319166001600160a01b03909416939093179092555050565b62000163635b5e139f60e01b60016200015b6200021b565b91906200024b565b565b600080620000f660017fc9ed16f33ab3a66c84bfd83099ccb2a8845871e2e1c1928f63797152f0fd54cd62000449565b6001600160a01b03811615620001ec5781546001600160a01b0319166001600160a01b03821690811783556040516000907f8be0079c531659141344cd1fd0a4f28419497f9722a3daafe3b4186f6b6457e0908290a35b620002046307f5828d60e41b60016200015b6200021b565b5050565b620001636380ac58cd60e01b60016200015b5b600080620000f660017fca9d3e17f264b0f3984e2634e94adb37fa3e6a8103f06aeae6fa59e21c769f5e62000449565b600160e01b6001600160e01b03198316016200027a576040516372c683bb60e01b815260040160405180910390fd5b6001600160e01b03199190911660009081526020929092526040909120805460ff1916911515919091179055565b634e487b7160e01b600052604160045260246000fd5b600082601f830112620002d057600080fd5b81516001600160401b0380821115620002ed57620002ed620002a8565b604051601f8301601f19908116603f01168101908282118183101715620003185762000318620002a8565b81604052838152602092508660208588010111156200033657600080fd5b600091505b838210156200035a57858201830151818301840152908201906200033b565b6000602085830101528094505050505092915050565b6001600160a01b03811681146200038657600080fd5b50565b60008060008060008060c08789031215620003a357600080fd5b86516001600160401b0380821115620003bb57600080fd5b620003c98a838b01620002be565b97506020890151915080821115620003e057600080fd5b50620003ef89828a01620002be565b9550506040870151620004028162000370565b6060880151909450620004158162000370565b6080880151909350620004288162000370565b60a08801519092506200043b8162000370565b809150509295509295509295565b81810381811115620000f657634e487b7160e01b600052601160045260246000fd5b600181811c908216806200048057607f821691505b602082108103620004a157634e487b7160e01b600052602260045260246000fd5b50919050565b601f821115620004f7576000816000526020600020601f850160051c81016020861015620004d25750805b601f850160051c820191505b81811015620004f357828155600101620004de565b5050505b505050565b81516001600160401b03811115620005185762000518620002a8565b62000530816200052984546200046b565b84620004a7565b602080601f8311600181146200056857600084156200054f5750858301515b600019600386901b1c1916600185901b178555620004f3565b600085815260208120601f198616915b82811015620005995788860151825594840194600190910190840162000578565b5085821015620005b85787850151600019600388901b60f8161c191681555b5050505050600190811b01905550565b60805160a051612b646200060360003960006110f30152600081816102680152818161030e01528181611ebe0152611f460152612b646000f3fe608060405234801561001057600080fd5b50600436106101c45760003560e01c80638bb9c5bf116100f9578063b88d4fde11610097578063d547741f11610071578063d547741f14610430578063e985e9c514610443578063f2fde38b14610456578063f5b541a61461046957600080fd5b8063b88d4fde146103e3578063c87b56dd146103f6578063d53913931461040957600080fd5b806395d89b41116100d357806395d89b41146103ad57806395f94bc4146103b5578063a0c76f62146103c8578063a22cb465146103d057600080fd5b80638bb9c5bf1461037f5780638da5cb5b1461039257806391d148541461039a57600080fd5b806342842e0e1161016657806354c7be061161014057806354c7be06146102eb578063572b6c05146102fe5780636352211e1461034b57806370a082311461035e57600080fd5b806342842e0e1461029f57806342966c68146102b25780634bae2be8146102c557600080fd5b8063095ea7b3116101a2578063095ea7b31461023e57806323b872dd146102535780632b4c9f16146102665780632f2ff15d1461028c57600080fd5b806301ffc9a7146101c957806306fdde03146101f1578063081812fc14610206575b600080fd5b6101dc6101d736600461218b565b610490565b60405190151581526020015b60405180910390f35b6101f96104aa565b6040516101e89190612216565b610219610214366004612229565b6104b9565b60405173ffffffffffffffffffffffffffffffffffffffff90911681526020016101e8565b61025161024c366004612264565b6104cd565b005b610251610261366004612290565b6104ee565b7f0000000000000000000000000000000000000000000000000000000000000000610219565b61025161029a3660046122d1565b610522565b6102516102ad366004612290565b61055b565b6102516102c0366004612229565b610589565b6102d86102d3366004612229565b610787565b6040516101e89796959493929190612301565b6102516102f9366004612368565b61090e565b6101dc61030c3660046123c8565b7f000000000000000000000000000000000000000000000000000000000000000073ffffffffffffffffffffffffffffffffffffffff90811691161490565b610219610359366004612229565b610977565b61037161036c3660046123c8565b610985565b6040519081526020016101e8565b61025161038d366004612229565b610999565b6102196109b7565b6101dc6103a83660046122d1565b6109de565b6101f9610a29565b6102516103c33660046123c8565b610a33565b610219610a8d565b6102516103de3660046123f3565b610ab7565b6102516103f1366004612421565b610ad4565b6101f9610404366004612229565b610b0e565b6103717f6d696e746572000000000000000000000000000000000000000000000000000081565b61025161043e3660046122d1565b610b31565b6101dc6104513660046124c0565b610b5f565b6102516104643660046123c8565b610bad565b6103717f6f70657261746f7200000000000000000000000000000000000000000000000081565b60006104a48261049e610bc8565b90610bf6565b92915050565b60606104b4610cd0565b905090565b60006104a4826104c7610ce2565b90610d10565b6104ea6104d8610dc9565b83836104e2610ce2565b929190610dd3565b5050565b60006104f8610dc9565b9050610504818361104e565b61051c81858585610513610ce2565b9392919061118f565b50505050565b600061052c610dc9565b90506105408161053a61146d565b9061149b565b61055683838361054e611506565b929190611534565b505050565b6000610565610dc9565b9050610571818361104e565b61051c81858585610580610ce2565b9392919061160a565b600081815260016020818152604080842090516105ab93919091019101612541565b604080518083037fffffffffffffffffffffffffffffffffffffffffffffffffffffffffffffffe00181529082905280516020909101206000547fa3a2656a000000000000000000000000000000000000000000000000000000008352600483018290526024830185905290925073ffffffffffffffffffffffffffffffffffffffff169063a3a2656a90604401602060405180830381865afa158015610656573d6000803e3d6000fd5b505050506040513d601f19601f8201168201806040525081019061067a91906125d5565b156107555760006106938361068d610ce2565b90611650565b90507fdead0000000000000000000000000000000000000000000000000000000000006106be610ce2565b600085815260209190915260409020556106d6610ce2565b73ffffffffffffffffffffffffffffffffffffffff82166000818152600192909201602052604080832080547fffffffffffffffffffffffffffffffffffffffffffffffffffffffffffffffff01905551859291907fddf252ad1be2c89b69c2b068fc378daa952ba7f163c4a11628f55a4df523b3ef908390a4505050565b6040517feeddf6ab00000000000000000000000000000000000000000000000000000000815260040160405180910390fd5b60016020819052600091825260409091208054918101805461ffff808516946201000081049091169367ffffffffffffffff64010000000083048116946c01000000000000000000000000840482169474010000000000000000000000000000000000000000909404909116926107fd906124ee565b80601f0160208091040260200160405190810160405280929190818152602001828054610829906124ee565b80156108765780601f1061084b57610100808354040283529160200191610876565b820191906000526020600020905b81548152906001019060200180831161085957829003601f168201915b50505050509080600201805461088b906124ee565b80601f01602080910402602001604051908101604052809291908181526020018280546108b7906124ee565b80156109045780601f106108d957610100808354040283529160200191610904565b820191906000526020600020905b8154815290600101906020018083116108e757829003601f168201915b5050505050905087565b6109427f6d696e74657200000000000000000000000000000000000000000000000000003361093b611506565b91906116b9565b610956838361094f610ce2565b919061173f565b60008281526001602052604090208190610970828261281d565b5050505050565b60006104a48261068d610ce2565b60006104a482610993610ce2565b90611859565b6109b46109a4610dc9565b826109ad611506565b91906118d5565b50565b60006104b46109c461146d565b5473ffffffffffffffffffffffffffffffffffffffff1690565b6000610a2283836109ed611506565b60009283526020908152604080842073ffffffffffffffffffffffffffffffffffffffff909316845291905290205460ff1690565b9392505050565b60606104b4611979565b610a46610a3e610dc9565b61053a61146d565b600080547fffffffffffffffffffffffff00000000000000000000000000000000000000001673ffffffffffffffffffffffffffffffffffffffff92909216919091179055565b60006104b4610a9a61198b565b6002015473ffffffffffffffffffffffffffffffffffffffff1690565b6104ea610ac2610dc9565b8383610acc610ce2565b9291906119b9565b6000610ade610dc9565b9050610aea818561104e565b610b06818787878787610afb610ce2565b959493929190611ad1565b505050505050565b6060610b1c8261068d610ce2565b506104a43083610b2a61198b565b9190611b47565b6000610b3b610dc9565b9050610b498161053a61146d565b610556838383610b57611506565b929190611c07565b6000610a228383610b6e610ce2565b919073ffffffffffffffffffffffffffffffffffffffff9182166000908152600393909301602090815260408085209290931684525290205460ff1690565b6109b4610bb8610dc9565b82610bc161146d565b9190611cd1565b6000806104a460017fca9d3e17f264b0f3984e2634e94adb37fa3e6a8103f06aeae6fa59e21c769f5e6129c3565b60007c01000000000000000000000000000000000000000000000000000000007fffffffff00000000000000000000000000000000000000000000000000000000831601610c46575060006104a4565b7ffe003659000000000000000000000000000000000000000000000000000000007fffffffff00000000000000000000000000000000000000000000000000000000831601610c97575060016104a4565b507fffffffff00000000000000000000000000000000000000000000000000000000166000908152602091909152604090205460ff1690565b60606104b4610cdd61198b565b611de5565b6000806104a460017fddf3ee18ae6d688373c219468f8be446e7ae82215f4779d821c7ea5e8c13c0c16129c3565b60008181526020839052604081205473ffffffffffffffffffffffffffffffffffffffff8116610d74576040517fdd560475000000000000000000000000000000000000000000000000000000008152600481018490526024015b60405180910390fd5b74010000000000000000000000000000000000000000811615610dbf575050600081815260028301602052604090205473ffffffffffffffffffffffffffffffffffffffff166104a4565b60009150506104a4565b60006104b4611e7b565b60008181526020859052604090205473ffffffffffffffffffffffffffffffffffffffff8116610e32576040517fdd56047500000000000000000000000000000000000000000000000000000000815260048101839052602401610d6b565b8073ffffffffffffffffffffffffffffffffffffffff80821690851603610e9d576040517fb7fdc01000000000000000000000000000000000000000000000000000000000815273ffffffffffffffffffffffffffffffffffffffff82166004820152602401610d6b565b610ea8868287611fc2565b610f05576040517fc7563a1800000000000000000000000000000000000000000000000000000000815273ffffffffffffffffffffffffffffffffffffffff80871660048301528216602482015260448101849052606401610d6b565b73ffffffffffffffffffffffffffffffffffffffff8416610f6a5774010000000000000000000000000000000000000000821615610f6557600083815260208790526040902073ffffffffffffffffffffffffffffffffffffffff821690555b610feb565b740100000000000000000000000000000000000000008217808314610f9b5760008481526020889052604090208190555b506000838152600287016020526040902080547fffffffffffffffffffffffff00000000000000000000000000000000000000001673ffffffffffffffffffffffffffffffffffffffff86161790555b828473ffffffffffffffffffffffffffffffffffffffff168273ffffffffffffffffffffffffffffffffffffffff167f8c5be1e5ebec7d5bd14f71427d1e84f3dd0314c0f7b2291e5b200ac8c7c3b92560405160405180910390a4505050505050565b6000818152600160208181526040808420905161107093919091019101612541565b604080518083037fffffffffffffffffffffffffffffffffffffffffffffffffffffffffffffffe00181529082905280516020909101207ff9236a390000000000000000000000000000000000000000000000000000000082526004820181905273ffffffffffffffffffffffffffffffffffffffff85811660248401529092507f0000000000000000000000000000000000000000000000000000000000000000169063f9236a3990604401602060405180830381865afa15801561113a573d6000803e3d6000fd5b505050506040513d601f19601f8201168201806040525081019061115e91906125d5565b610556576105567f6f70657261746f720000000000000000000000000000000000000000000000008461093b611506565b73ffffffffffffffffffffffffffffffffffffffff82166111dc576040517f86c8706700000000000000000000000000000000000000000000000000000000815260040160405180910390fd5b60008181526020869052604090205473ffffffffffffffffffffffffffffffffffffffff811661123b576040517fdd56047500000000000000000000000000000000000000000000000000000000815260048101839052602401610d6b565b73ffffffffffffffffffffffffffffffffffffffff84168173ffffffffffffffffffffffffffffffffffffffff16146112bf576040517f14dbb53600000000000000000000000000000000000000000000000000000000815273ffffffffffffffffffffffffffffffffffffffff8516600482015260248101839052604401610d6b565b6112ca868587611fc2565b61137957740100000000000000000000000000000000000000008116158061131b5750600082815260028701602052604090205473ffffffffffffffffffffffffffffffffffffffff868116911614155b15611379576040517fa4a3018b00000000000000000000000000000000000000000000000000000000815273ffffffffffffffffffffffffffffffffffffffff80871660048301528516602482015260448101839052606401610d6b565b600082815260208790526040902073ffffffffffffffffffffffffffffffffffffffff8085169182905585161461140a5773ffffffffffffffffffffffffffffffffffffffff80851660009081526001808901602052604080832080547fffffffffffffffffffffffffffffffffffffffffffffffffffffffffffffffff0190559286168252919020805490910190555b818373ffffffffffffffffffffffffffffffffffffffff168573ffffffffffffffffffffffffffffffffffffffff167fddf252ad1be2c89b69c2b068fc378daa952ba7f163c4a11628f55a4df523b3ef60405160405180910390a4505050505050565b6000806104a460017fc9ed16f33ab3a66c84bfd83099ccb2a8845871e2e1c1928f63797152f0fd54cd6129c3565b815473ffffffffffffffffffffffffffffffffffffffff8281169116146104ea576040517f2ef4875e00000000000000000000000000000000000000000000000000000000815273ffffffffffffffffffffffffffffffffffffffff82166004820152602401610d6b565b6000806104a460017fc8827d3282af6f37b64c3e9e6f3ac9df286ab0bb0fccd6f8661bf19adb368b236129c3565b60008381526020858152604080832073ffffffffffffffffffffffffffffffffffffffff8616845290915290205460ff1661051c5760008381526020858152604080832073ffffffffffffffffffffffffffffffffffffffff8681168086529184529382902080547fffffffffffffffffffffffffffffffffffffffffffffffffffffffffffffff00166001179055815187815292830152918316918101919091527f2f8788117e7eff1d82e926ec794901d17c78024a50270940304540a733656f0d906060015b60405180910390a150505050565b611617858585858561118f565b73ffffffffffffffffffffffffffffffffffffffff82163b15610970576109708484848460405180602001604052806000815250612037565b60008181526020839052604081205473ffffffffffffffffffffffffffffffffffffffff81166116af576040517fdd56047500000000000000000000000000000000000000000000000000000000815260048101849052602401610d6b565b805b949350505050565b60008281526020848152604080832073ffffffffffffffffffffffffffffffffffffffff8516845290915290205460ff16610556576040517f7aa728820000000000000000000000000000000000000000000000000000000081526004810183905273ffffffffffffffffffffffffffffffffffffffff82166024820152604401610d6b565b73ffffffffffffffffffffffffffffffffffffffff821661178c576040517f7851b9cd00000000000000000000000000000000000000000000000000000000815260040160405180910390fd5b60008181526020849052604090205473ffffffffffffffffffffffffffffffffffffffff16156117eb576040517f753eceac00000000000000000000000000000000000000000000000000000000815260048101829052602401610d6b565b60008181526020848152604080832073ffffffffffffffffffffffffffffffffffffffff86169081905580845260018088019093528184208054909301909255518392907fddf252ad1be2c89b69c2b068fc378daa952ba7f163c4a11628f55a4df523b3ef908290a4505050565b600073ffffffffffffffffffffffffffffffffffffffff82166118a8576040517faefbce4e00000000000000000000000000000000000000000000000000000000815260040160405180910390fd5b5073ffffffffffffffffffffffffffffffffffffffff166000908152600191909101602052604090205490565b6118e08382846116b9565b60008181526020848152604080832073ffffffffffffffffffffffffffffffffffffffff86168085529083529281902080547fffffffffffffffffffffffffffffffffffffffffffffffffffffffffffffff0016905580518481529182018390528101919091527ff6391f5c32d9c69d2a47ea670b442974b53935d1edc7fd64eb21e047a839171b9060600160405180910390a1505050565b60606104b461198661198b565b61214c565b6000806104a460017f7ea68fd2dcf1c056b94db6a0a537aa80d26fa9ab1eacd85da1ba0b61b7e7a8a56129c3565b8273ffffffffffffffffffffffffffffffffffffffff168273ffffffffffffffffffffffffffffffffffffffff1603611a36576040517fe4215c6a00000000000000000000000000000000000000000000000000000000815273ffffffffffffffffffffffffffffffffffffffff84166004820152602401610d6b565b73ffffffffffffffffffffffffffffffffffffffff838116600081815260038701602090815260408083209487168084529482529182902080547fffffffffffffffffffffffffffffffffffffffffffffffffffffffffffffff001686151590811790915591519182527f17307eab39ab6107e8899845ad3d59bd9653f200f220920489ca2b5937696c31910160405180910390a350505050565b611ade878787878761118f565b73ffffffffffffffffffffffffffffffffffffffff84163b15611b3e57611b3e8686868686868080601f01602080910402602001604051908101604052809392919081815260200183838082843760009201919091525061203792505050565b50505050505050565b60028301546040517ff724dad700000000000000000000000000000000000000000000000000000000815273ffffffffffffffffffffffffffffffffffffffff848116600483015260248201849052606092169063f724dad790604401600060405180830381865afa158015611bc1573d6000803e3d6000fd5b505050506040513d6000823e601f3d9081017fffffffffffffffffffffffffffffffffffffffffffffffffffffffffffffffe01682016040526116b191908101906129fd565b60008381526020858152604080832073ffffffffffffffffffffffffffffffffffffffff8616845290915290205460ff161561051c5760008381526020858152604080832073ffffffffffffffffffffffffffffffffffffffff8681168086529184529382902080547fffffffffffffffffffffffffffffffffffffffffffffffffffffffffffffff00169055815187815292830152918316918101919091527ff6391f5c32d9c69d2a47ea670b442974b53935d1edc7fd64eb21e047a839171b906060016115fc565b825473ffffffffffffffffffffffffffffffffffffffff9081169083168114611d3e576040517f2ef4875e00000000000000000000000000000000000000000000000000000000815273ffffffffffffffffffffffffffffffffffffffff84166004820152602401610d6b565b8173ffffffffffffffffffffffffffffffffffffffff168173ffffffffffffffffffffffffffffffffffffffff161461051c5783547fffffffffffffffffffffffff00000000000000000000000000000000000000001673ffffffffffffffffffffffffffffffffffffffff8381169182178655604051908316907f8be0079c531659141344cd1fd0a4f28419497f9722a3daafe3b4186f6b6457e090600090a350505050565b6060816000018054611df6906124ee565b80601f0160208091040260200160405190810160405280929190818152602001828054611e22906124ee565b8015611e6f5780601f10611e4457610100808354040283529160200191611e6f565b820191906000526020600020905b815481529060010190602001808311611e5257829003601f168201915b50505050509050919050565b600033321480611e8b5750601836105b15611e9557503390565b7fffffffffffffffffffffffffffffffffffffffffffffffffffffffffffffffec36013560601c7f000000000000000000000000000000000000000000000000000000000000000073ffffffffffffffffffffffffffffffffffffffff16331480611fb157506040517f8929a8ca00000000000000000000000000000000000000000000000000000000815273ffffffffffffffffffffffffffffffffffffffff82811660048301523360248301527f00000000000000000000000000000000000000000000000000000000000000001690638929a8ca90604401602060405180830381865afa158015611f8d573d6000803e3d6000fd5b505050506040513d601f19601f82011682018060405250810190611fb191906125d5565b15611fbb57919050565b3391505090565b60008173ffffffffffffffffffffffffffffffffffffffff168373ffffffffffffffffffffffffffffffffffffffff1614806116b157505073ffffffffffffffffffffffffffffffffffffffff9182166000908152600393909301602090815260408085209290931684525290205460ff1690565b6040517f150b7a02000000000000000000000000000000000000000000000000000000008082529073ffffffffffffffffffffffffffffffffffffffff85169063150b7a0290612091908990899088908890600401612ac8565b6020604051808303816000875af11580156120b0573d6000803e3d6000fd5b505050506040513d601f19601f820116820180604052508101906120d49190612b11565b7fffffffff000000000000000000000000000000000000000000000000000000001614610970576040517fc215a7a100000000000000000000000000000000000000000000000000000000815273ffffffffffffffffffffffffffffffffffffffff8416600482015260248101839052604401610d6b565b6060816001018054611df6906124ee565b7fffffffff00000000000000000000000000000000000000000000000000000000811681146109b457600080fd5b60006020828403121561219d57600080fd5b8135610a228161215d565b60005b838110156121c35781810151838201526020016121ab565b50506000910152565b600081518084526121e48160208601602086016121a8565b601f017fffffffffffffffffffffffffffffffffffffffffffffffffffffffffffffffe0169290920160200192915050565b602081526000610a2260208301846121cc565b60006020828403121561223b57600080fd5b5035919050565b73ffffffffffffffffffffffffffffffffffffffff811681146109b457600080fd5b6000806040838503121561227757600080fd5b823561228281612242565b946020939093013593505050565b6000806000606084860312156122a557600080fd5b83356122b081612242565b925060208401356122c081612242565b929592945050506040919091013590565b600080604083850312156122e457600080fd5b8235915060208301356122f681612242565b809150509250929050565b61ffff88811682528716602082015267ffffffffffffffff868116604083015285811660608301528416608082015260e060a08201819052600090612348908301856121cc565b82810360c084015261235a81856121cc565b9a9950505050505050505050565b60008060006060848603121561237d57600080fd5b833561238881612242565b925060208401359150604084013567ffffffffffffffff8111156123ab57600080fd5b840160e081870312156123bd57600080fd5b809150509250925092565b6000602082840312156123da57600080fd5b8135610a2281612242565b80151581146109b457600080fd5b6000806040838503121561240657600080fd5b823561241181612242565b915060208301356122f6816123e5565b60008060008060006080868803121561243957600080fd5b853561244481612242565b9450602086013561245481612242565b935060408601359250606086013567ffffffffffffffff8082111561247857600080fd5b818801915088601f83011261248c57600080fd5b81358181111561249b57600080fd5b8960208285010111156124ad57600080fd5b9699959850939650602001949392505050565b600080604083850312156124d357600080fd5b82356124de81612242565b915060208301356122f681612242565b600181811c9082168061250257607f821691505b60208210810361253b577f4e487b7100000000000000000000000000000000000000000000000000000000600052602260045260246000fd5b50919050565b600080835461254f816124ee565b60018281168015612567576001811461259a576125c9565b7fffffffffffffffffffffffffffffffffffffffffffffffffffffffffffffff00841687528215158302870194506125c9565b8760005260208060002060005b858110156125c05781548a8201529084019082016125a7565b50505082870194505b50929695505050505050565b6000602082840312156125e757600080fd5b8151610a22816123e5565b6000813561ffff811681146104a457600080fd5b6000813567ffffffffffffffff811681146104a457600080fd5b60008083357fffffffffffffffffffffffffffffffffffffffffffffffffffffffffffffffe184360301811261265557600080fd5b83018035915067ffffffffffffffff82111561267057600080fd5b60200191503681900382131561268557600080fd5b9250929050565b7f4e487b7100000000000000000000000000000000000000000000000000000000600052604160045260246000fd5b601f821115610556576000816000526020600020601f850160051c810160208610156126e45750805b601f850160051c820191505b81811015610b06578281556001016126f0565b67ffffffffffffffff83111561271b5761271b61268c565b61272f8361272983546124ee565b836126bb565b6000601f841160018114612781576000851561274b5750838201355b7fffffffffffffffffffffffffffffffffffffffffffffffffffffffffffffffff600387901b1c1916600186901b178355610970565b6000838152602090207fffffffffffffffffffffffffffffffffffffffffffffffffffffffffffffffe0861690835b828110156127d057868501358255602094850194600190920191016127b0565b508682101561280b577fffffffffffffffffffffffffffffffffffffffffffffffffffffffffffffffff60f88860031b161c19848701351681555b505060018560011b0183555050505050565b61ffff612829836125f2565b168154817fffffffffffffffffffffffffffffffffffffffffffffffffffffffffffff0000821617835563ffff0000612864602086016125f2565b60101b1680837fffffffffffffffffffffffffffffffffffffffffffffffffffffffff000000008416171784556bffffffffffffffff000000006128aa60408701612606565b60201b16837fffffffffffffffffffffffffffffffffffffffff000000000000000000000000841617821717845550505061292f6128ea60608401612606565b82547fffffffffffffffffffffffff0000000000000000ffffffffffffffffffffffff1660609190911b73ffffffffffffffff00000000000000000000000016178255565b61298b61293e60808401612606565b82547fffffffff0000000000000000ffffffffffffffffffffffffffffffffffffffff1660a09190911b7bffffffffffffffff000000000000000000000000000000000000000016178255565b61299860a0830183612620565b6129a6818360018601612703565b50506129b560c0830183612620565b61051c818360028601612703565b818103818111156104a4577f4e487b7100000000000000000000000000000000000000000000000000000000600052601160045260246000fd5b600060208284031215612a0f57600080fd5b815167ffffffffffffffff80821115612a2757600080fd5b818401915084601f830112612a3b57600080fd5b815181811115612a4d57612a4d61268c565b604051601f82017fffffffffffffffffffffffffffffffffffffffffffffffffffffffffffffffe0908116603f01168101908382118183101715612a9357612a9361268c565b81604052828152876020848701011115612aac57600080fd5b612abd8360208301602088016121a8565b979650505050505050565b600073ffffffffffffffffffffffffffffffffffffffff808716835280861660208401525083604083015260806060830152612b0760808301846121cc565b9695505050505050565b600060208284031215612b2357600080fd5b8151610a228161215d56fea2646970667358221220968e34f244ade75feba903a7a199bbf20d1927b12fede1bbe006259da8fb272964736f6c63430008160033","opcodes":"PUSH1 0xC0 PUSH1 0x40 MSTORE CALLVALUE DUP1 ISZERO PUSH3 0x11 JUMPI PUSH1 0x0 DUP1 REVERT JUMPDEST POP PUSH1 0x40 MLOAD PUSH3 0x3167 CODESIZE SUB DUP1 PUSH3 0x3167 DUP4 CODECOPY DUP2 ADD PUSH1 0x40 DUP2 SWAP1 MSTORE PUSH3 0x34 SWAP2 PUSH3 0x389 JUMP JUMPDEST DUP4 DUP1 CALLER DUP9 DUP9 DUP8 PUSH3 0x54 DUP4 DUP4 DUP4 PUSH3 0x4B PUSH3 0xC6 JUMP JUMPDEST SWAP3 SWAP2 SWAP1 PUSH3 0xFC JUMP JUMPDEST PUSH3 0x5E PUSH3 0x143 JUMP JUMPDEST POP POP POP PUSH3 0x7D DUP2 PUSH3 0x76 PUSH3 0x165 PUSH1 0x20 SHL PUSH1 0x20 SHR JUMP JUMPDEST SWAP1 PUSH3 0x195 JUMP JUMPDEST POP PUSH1 0x1 PUSH1 0x1 PUSH1 0xA0 SHL SUB AND PUSH1 0x80 MSTORE POP PUSH3 0x95 PUSH3 0x208 JUMP JUMPDEST PUSH1 0x1 PUSH1 0x1 PUSH1 0xA0 SHL SUB SWAP1 DUP2 AND PUSH1 0xA0 MSTORE PUSH1 0x0 DUP1 SLOAD PUSH1 0x1 PUSH1 0x1 PUSH1 0xA0 SHL SUB NOT AND SWAP3 SWAP1 SWAP2 AND SWAP2 SWAP1 SWAP2 OR SWAP1 SSTORE POP PUSH3 0x5C8 SWAP3 POP POP POP JUMP JUMPDEST PUSH1 0x0 DUP1 PUSH3 0xF6 PUSH1 0x1 PUSH32 0x7EA68FD2DCF1C056B94DB6A0A537AA80D26FA9AB1EACD85DA1BA0B61B7E7A8A5 PUSH3 0x449 JUMP JUMPDEST SWAP3 SWAP2 POP POP JUMP JUMPDEST DUP4 PUSH3 0x109 DUP5 DUP3 PUSH3 0x4FC JUMP JUMPDEST POP PUSH1 0x1 DUP5 ADD PUSH3 0x11A DUP4 DUP3 PUSH3 0x4FC JUMP JUMPDEST POP PUSH1 0x2 SWAP4 SWAP1 SWAP4 ADD DUP1 SLOAD PUSH1 0x1 PUSH1 0x1 PUSH1 0xA0 SHL SUB NOT AND PUSH1 0x1 PUSH1 0x1 PUSH1 0xA0 SHL SUB SWAP1 SWAP5 AND SWAP4 SWAP1 SWAP4 OR SWAP1 SWAP3 SSTORE POP POP JUMP JUMPDEST PUSH3 0x163 PUSH4 0x5B5E139F PUSH1 0xE0 SHL PUSH1 0x1 PUSH3 0x15B PUSH3 0x21B JUMP JUMPDEST SWAP2 SWAP1 PUSH3 0x24B JUMP JUMPDEST JUMP JUMPDEST PUSH1 0x0 DUP1 PUSH3 0xF6 PUSH1 0x1 PUSH32 0xC9ED16F33AB3A66C84BFD83099CCB2A8845871E2E1C1928F63797152F0FD54CD PUSH3 0x449 JUMP JUMPDEST PUSH1 0x1 PUSH1 0x1 PUSH1 0xA0 SHL SUB DUP2 AND ISZERO PUSH3 0x1EC JUMPI DUP2 SLOAD PUSH1 0x1 PUSH1 0x1 PUSH1 0xA0 SHL SUB NOT AND PUSH1 0x1 PUSH1 0x1 PUSH1 0xA0 SHL SUB DUP3 AND SWAP1 DUP2 OR DUP4 SSTORE PUSH1 0x40 MLOAD PUSH1 0x0 SWAP1 PUSH32 0x8BE0079C531659141344CD1FD0A4F28419497F9722A3DAAFE3B4186F6B6457E0 SWAP1 DUP3 SWAP1 LOG3 JUMPDEST PUSH3 0x204 PUSH4 0x7F5828D PUSH1 0xE4 SHL PUSH1 0x1 PUSH3 0x15B PUSH3 0x21B JUMP JUMPDEST POP POP JUMP JUMPDEST PUSH3 0x163 PUSH4 0x80AC58CD PUSH1 0xE0 SHL PUSH1 0x1 PUSH3 0x15B JUMPDEST PUSH1 0x0 DUP1 PUSH3 0xF6 PUSH1 0x1 PUSH32 0xCA9D3E17F264B0F3984E2634E94ADB37FA3E6A8103F06AEAE6FA59E21C769F5E PUSH3 0x449 JUMP JUMPDEST PUSH1 0x1 PUSH1 0xE0 SHL PUSH1 0x1 PUSH1 0x1 PUSH1 0xE0 SHL SUB NOT DUP4 AND ADD PUSH3 0x27A JUMPI PUSH1 0x40 MLOAD PUSH4 0x72C683BB PUSH1 0xE0 SHL DUP2 MSTORE PUSH1 0x4 ADD PUSH1 0x40 MLOAD DUP1 SWAP2 SUB SWAP1 REVERT JUMPDEST PUSH1 0x1 PUSH1 0x1 PUSH1 0xE0 SHL SUB NOT SWAP2 SWAP1 SWAP2 AND PUSH1 0x0 SWAP1 DUP2 MSTORE PUSH1 0x20 SWAP3 SWAP1 SWAP3 MSTORE PUSH1 0x40 SWAP1 SWAP2 KECCAK256 DUP1 SLOAD PUSH1 0xFF NOT AND SWAP2 ISZERO ISZERO SWAP2 SWAP1 SWAP2 OR SWAP1 SSTORE JUMP JUMPDEST PUSH4 0x4E487B71 PUSH1 0xE0 SHL PUSH1 0x0 MSTORE PUSH1 0x41 PUSH1 0x4 MSTORE PUSH1 0x24 PUSH1 0x0 REVERT JUMPDEST PUSH1 0x0 DUP3 PUSH1 0x1F DUP4 ADD SLT PUSH3 0x2D0 JUMPI PUSH1 0x0 DUP1 REVERT JUMPDEST DUP2 MLOAD PUSH1 0x1 PUSH1 0x1 PUSH1 0x40 SHL SUB DUP1 DUP3 GT ISZERO PUSH3 0x2ED JUMPI PUSH3 0x2ED PUSH3 0x2A8 JUMP JUMPDEST PUSH1 0x40 MLOAD PUSH1 0x1F DUP4 ADD PUSH1 0x1F NOT SWAP1 DUP2 AND PUSH1 0x3F ADD AND DUP2 ADD SWAP1 DUP3 DUP3 GT DUP2 DUP4 LT OR ISZERO PUSH3 0x318 JUMPI PUSH3 0x318 PUSH3 0x2A8 JUMP JUMPDEST DUP2 PUSH1 0x40 MSTORE DUP4 DUP2 MSTORE PUSH1 0x20 SWAP3 POP DUP7 PUSH1 0x20 DUP6 DUP9 ADD ADD GT ISZERO PUSH3 0x336 JUMPI PUSH1 0x0 DUP1 REVERT JUMPDEST PUSH1 0x0 SWAP2 POP JUMPDEST DUP4 DUP3 LT ISZERO PUSH3 0x35A JUMPI DUP6 DUP3 ADD DUP4 ADD MLOAD DUP2 DUP4 ADD DUP5 ADD MSTORE SWAP1 DUP3 ADD SWAP1 PUSH3 0x33B JUMP JUMPDEST PUSH1 0x0 PUSH1 0x20 DUP6 DUP4 ADD ADD MSTORE DUP1 SWAP5 POP POP POP POP POP SWAP3 SWAP2 POP POP JUMP JUMPDEST PUSH1 0x1 PUSH1 0x1 PUSH1 0xA0 SHL SUB DUP2 AND DUP2 EQ PUSH3 0x386 JUMPI PUSH1 0x0 DUP1 REVERT JUMPDEST POP JUMP JUMPDEST PUSH1 0x0 DUP1 PUSH1 0x0 DUP1 PUSH1 0x0 DUP1 PUSH1 0xC0 DUP8 DUP10 SUB SLT ISZERO PUSH3 0x3A3 JUMPI PUSH1 0x0 DUP1 REVERT JUMPDEST DUP7 MLOAD PUSH1 0x1 PUSH1 0x1 PUSH1 0x40 SHL SUB DUP1 DUP3 GT ISZERO PUSH3 0x3BB JUMPI PUSH1 0x0 DUP1 REVERT JUMPDEST PUSH3 0x3C9 DUP11 DUP4 DUP12 ADD PUSH3 0x2BE JUMP JUMPDEST SWAP8 POP PUSH1 0x20 DUP10 ADD MLOAD SWAP2 POP DUP1 DUP3 GT ISZERO PUSH3 0x3E0 JUMPI PUSH1 0x0 DUP1 REVERT JUMPDEST POP PUSH3 0x3EF DUP10 DUP3 DUP11 ADD PUSH3 0x2BE JUMP JUMPDEST SWAP6 POP POP PUSH1 0x40 DUP8 ADD MLOAD PUSH3 0x402 DUP2 PUSH3 0x370 JUMP JUMPDEST PUSH1 0x60 DUP9 ADD MLOAD SWAP1 SWAP5 POP PUSH3 0x415 DUP2 PUSH3 0x370 JUMP JUMPDEST PUSH1 0x80 DUP9 ADD MLOAD SWAP1 SWAP4 POP PUSH3 0x428 DUP2 PUSH3 0x370 JUMP JUMPDEST PUSH1 0xA0 DUP9 ADD MLOAD SWAP1 SWAP3 POP PUSH3 0x43B DUP2 PUSH3 0x370 JUMP JUMPDEST DUP1 SWAP2 POP POP SWAP3 SWAP6 POP SWAP3 SWAP6 POP SWAP3 SWAP6 JUMP JUMPDEST DUP2 DUP2 SUB DUP2 DUP2 GT ISZERO PUSH3 0xF6 JUMPI PUSH4 0x4E487B71 PUSH1 0xE0 SHL PUSH1 0x0 MSTORE PUSH1 0x11 PUSH1 0x4 MSTORE PUSH1 0x24 PUSH1 0x0 REVERT JUMPDEST PUSH1 0x1 DUP2 DUP2 SHR SWAP1 DUP3 AND DUP1 PUSH3 0x480 JUMPI PUSH1 0x7F DUP3 AND SWAP2 POP JUMPDEST PUSH1 0x20 DUP3 LT DUP2 SUB PUSH3 0x4A1 JUMPI PUSH4 0x4E487B71 PUSH1 0xE0 SHL PUSH1 0x0 MSTORE PUSH1 0x22 PUSH1 0x4 MSTORE PUSH1 0x24 PUSH1 0x0 REVERT JUMPDEST POP SWAP2 SWAP1 POP JUMP JUMPDEST PUSH1 0x1F DUP3 GT ISZERO PUSH3 0x4F7 JUMPI PUSH1 0x0 DUP2 PUSH1 0x0 MSTORE PUSH1 0x20 PUSH1 0x0 KECCAK256 PUSH1 0x1F DUP6 ADD PUSH1 0x5 SHR DUP2 ADD PUSH1 0x20 DUP7 LT ISZERO PUSH3 0x4D2 JUMPI POP DUP1 JUMPDEST PUSH1 0x1F DUP6 ADD PUSH1 0x5 SHR DUP3 ADD SWAP2 POP JUMPDEST DUP2 DUP2 LT ISZERO PUSH3 0x4F3 JUMPI DUP3 DUP2 SSTORE PUSH1 0x1 ADD PUSH3 0x4DE JUMP JUMPDEST POP POP POP JUMPDEST POP POP POP JUMP JUMPDEST DUP2 MLOAD PUSH1 0x1 PUSH1 0x1 PUSH1 0x40 SHL SUB DUP2 GT ISZERO PUSH3 0x518 JUMPI PUSH3 0x518 PUSH3 0x2A8 JUMP JUMPDEST PUSH3 0x530 DUP2 PUSH3 0x529 DUP5 SLOAD PUSH3 0x46B JUMP JUMPDEST DUP5 PUSH3 0x4A7 JUMP JUMPDEST PUSH1 0x20 DUP1 PUSH1 0x1F DUP4 GT PUSH1 0x1 DUP2 EQ PUSH3 0x568 JUMPI PUSH1 0x0 DUP5 ISZERO PUSH3 0x54F JUMPI POP DUP6 DUP4 ADD MLOAD JUMPDEST PUSH1 0x0 NOT PUSH1 0x3 DUP7 SWAP1 SHL SHR NOT AND PUSH1 0x1 DUP6 SWAP1 SHL OR DUP6 SSTORE PUSH3 0x4F3 JUMP JUMPDEST PUSH1 0x0 DUP6 DUP2 MSTORE PUSH1 0x20 DUP2 KECCAK256 PUSH1 0x1F NOT DUP7 AND SWAP2 JUMPDEST DUP3 DUP2 LT ISZERO PUSH3 0x599 JUMPI DUP9 DUP7 ADD MLOAD DUP3 SSTORE SWAP5 DUP5 ADD SWAP5 PUSH1 0x1 SWAP1 SWAP2 ADD SWAP1 DUP5 ADD PUSH3 0x578 JUMP JUMPDEST POP DUP6 DUP3 LT ISZERO PUSH3 0x5B8 JUMPI DUP8 DUP6 ADD MLOAD PUSH1 0x0 NOT PUSH1 0x3 DUP9 SWAP1 SHL PUSH1 0xF8 AND SHR NOT AND DUP2 SSTORE JUMPDEST POP POP POP POP POP PUSH1 0x1 SWAP1 DUP2 SHL ADD SWAP1 SSTORE POP JUMP JUMPDEST PUSH1 0x80 MLOAD PUSH1 0xA0 MLOAD PUSH2 0x2B64 PUSH3 0x603 PUSH1 0x0 CODECOPY PUSH1 0x0 PUSH2 0x10F3 ADD MSTORE PUSH1 0x0 DUP2 DUP2 PUSH2 0x268 ADD MSTORE DUP2 DUP2 PUSH2 0x30E ADD MSTORE DUP2 DUP2 PUSH2 0x1EBE ADD MSTORE PUSH2 0x1F46 ADD MSTORE PUSH2 0x2B64 PUSH1 0x0 RETURN INVALID PUSH1 0x80 PUSH1 0x40 MSTORE CALLVALUE DUP1 ISZERO PUSH2 0x10 JUMPI PUSH1 0x0 DUP1 REVERT JUMPDEST POP PUSH1 0x4 CALLDATASIZE LT PUSH2 0x1C4 JUMPI PUSH1 0x0 CALLDATALOAD PUSH1 0xE0 SHR DUP1 PUSH4 0x8BB9C5BF GT PUSH2 0xF9 JUMPI DUP1 PUSH4 0xB88D4FDE GT PUSH2 0x97 JUMPI DUP1 PUSH4 0xD547741F GT PUSH2 0x71 JUMPI DUP1 PUSH4 0xD547741F EQ PUSH2 0x430 JUMPI DUP1 PUSH4 0xE985E9C5 EQ PUSH2 0x443 JUMPI DUP1 PUSH4 0xF2FDE38B EQ PUSH2 0x456 JUMPI DUP1 PUSH4 0xF5B541A6 EQ PUSH2 0x469 JUMPI PUSH1 0x0 DUP1 REVERT JUMPDEST DUP1 PUSH4 0xB88D4FDE EQ PUSH2 0x3E3 JUMPI DUP1 PUSH4 0xC87B56DD EQ PUSH2 0x3F6 JUMPI DUP1 PUSH4 0xD5391393 EQ PUSH2 0x409 JUMPI PUSH1 0x0 DUP1 REVERT JUMPDEST DUP1 PUSH4 0x95D89B41 GT PUSH2 0xD3 JUMPI DUP1 PUSH4 0x95D89B41 EQ PUSH2 0x3AD JUMPI DUP1 PUSH4 0x95F94BC4 EQ PUSH2 0x3B5 JUMPI DUP1 PUSH4 0xA0C76F62 EQ PUSH2 0x3C8 JUMPI DUP1 PUSH4 0xA22CB465 EQ PUSH2 0x3D0 JUMPI PUSH1 0x0 DUP1 REVERT JUMPDEST DUP1 PUSH4 0x8BB9C5BF EQ PUSH2 0x37F JUMPI DUP1 PUSH4 0x8DA5CB5B EQ PUSH2 0x392 JUMPI DUP1 PUSH4 0x91D14854 EQ PUSH2 0x39A JUMPI PUSH1 0x0 DUP1 REVERT JUMPDEST DUP1 PUSH4 0x42842E0E GT PUSH2 0x166 JUMPI DUP1 PUSH4 0x54C7BE06 GT PUSH2 0x140 JUMPI DUP1 PUSH4 0x54C7BE06 EQ PUSH2 0x2EB JUMPI DUP1 PUSH4 0x572B6C05 EQ PUSH2 0x2FE JUMPI DUP1 PUSH4 0x6352211E EQ PUSH2 0x34B JUMPI DUP1 PUSH4 0x70A08231 EQ PUSH2 0x35E JUMPI PUSH1 0x0 DUP1 REVERT JUMPDEST DUP1 PUSH4 0x42842E0E EQ PUSH2 0x29F JUMPI DUP1 PUSH4 0x42966C68 EQ PUSH2 0x2B2 JUMPI DUP1 PUSH4 0x4BAE2BE8 EQ PUSH2 0x2C5 JUMPI PUSH1 0x0 DUP1 REVERT JUMPDEST DUP1 PUSH4 0x95EA7B3 GT PUSH2 0x1A2 JUMPI DUP1 PUSH4 0x95EA7B3 EQ PUSH2 0x23E JUMPI DUP1 PUSH4 0x23B872DD EQ PUSH2 0x253 JUMPI DUP1 PUSH4 0x2B4C9F16 EQ PUSH2 0x266 JUMPI DUP1 PUSH4 0x2F2FF15D EQ PUSH2 0x28C JUMPI PUSH1 0x0 DUP1 REVERT JUMPDEST DUP1 PUSH4 0x1FFC9A7 EQ PUSH2 0x1C9 JUMPI DUP1 PUSH4 0x6FDDE03 EQ PUSH2 0x1F1 JUMPI DUP1 PUSH4 0x81812FC EQ PUSH2 0x206 JUMPI JUMPDEST PUSH1 0x0 DUP1 REVERT JUMPDEST PUSH2 0x1DC PUSH2 0x1D7 CALLDATASIZE PUSH1 0x4 PUSH2 0x218B JUMP JUMPDEST PUSH2 0x490 JUMP JUMPDEST PUSH1 0x40 MLOAD SWAP1 ISZERO ISZERO DUP2 MSTORE PUSH1 0x20 ADD JUMPDEST PUSH1 0x40 MLOAD DUP1 SWAP2 SUB SWAP1 RETURN JUMPDEST PUSH2 0x1F9 PUSH2 0x4AA JUMP JUMPDEST PUSH1 0x40 MLOAD PUSH2 0x1E8 SWAP2 SWAP1 PUSH2 0x2216 JUMP JUMPDEST PUSH2 0x219 PUSH2 0x214 CALLDATASIZE PUSH1 0x4 PUSH2 0x2229 JUMP JUMPDEST PUSH2 0x4B9 JUMP JUMPDEST PUSH1 0x40 MLOAD PUSH20 0xFFFFFFFFFFFFFFFFFFFFFFFFFFFFFFFFFFFFFFFF SWAP1 SWAP2 AND DUP2 MSTORE PUSH1 0x20 ADD PUSH2 0x1E8 JUMP JUMPDEST PUSH2 0x251 PUSH2 0x24C CALLDATASIZE PUSH1 0x4 PUSH2 0x2264 JUMP JUMPDEST PUSH2 0x4CD JUMP JUMPDEST STOP JUMPDEST PUSH2 0x251 PUSH2 0x261 CALLDATASIZE PUSH1 0x4 PUSH2 0x2290 JUMP JUMPDEST PUSH2 0x4EE JUMP JUMPDEST PUSH32 0x0 PUSH2 0x219 JUMP JUMPDEST PUSH2 0x251 PUSH2 0x29A CALLDATASIZE PUSH1 0x4 PUSH2 0x22D1 JUMP JUMPDEST PUSH2 0x522 JUMP JUMPDEST PUSH2 0x251 PUSH2 0x2AD CALLDATASIZE PUSH1 0x4 PUSH2 0x2290 JUMP JUMPDEST PUSH2 0x55B JUMP JUMPDEST PUSH2 0x251 PUSH2 0x2C0 CALLDATASIZE PUSH1 0x4 PUSH2 0x2229 JUMP JUMPDEST PUSH2 0x589 JUMP JUMPDEST PUSH2 0x2D8 PUSH2 0x2D3 CALLDATASIZE PUSH1 0x4 PUSH2 0x2229 JUMP JUMPDEST PUSH2 0x787 JUMP JUMPDEST PUSH1 0x40 MLOAD PUSH2 0x1E8 SWAP8 SWAP7 SWAP6 SWAP5 SWAP4 SWAP3 SWAP2 SWAP1 PUSH2 0x2301 JUMP JUMPDEST PUSH2 0x251 PUSH2 0x2F9 CALLDATASIZE PUSH1 0x4 PUSH2 0x2368 JUMP JUMPDEST PUSH2 0x90E JUMP JUMPDEST PUSH2 0x1DC PUSH2 0x30C CALLDATASIZE PUSH1 0x4 PUSH2 0x23C8 JUMP JUMPDEST PUSH32 0x0 PUSH20 0xFFFFFFFFFFFFFFFFFFFFFFFFFFFFFFFFFFFFFFFF SWAP1 DUP2 AND SWAP2 AND EQ SWAP1 JUMP JUMPDEST PUSH2 0x219 PUSH2 0x359 CALLDATASIZE PUSH1 0x4 PUSH2 0x2229 JUMP JUMPDEST PUSH2 0x977 JUMP JUMPDEST PUSH2 0x371 PUSH2 0x36C CALLDATASIZE PUSH1 0x4 PUSH2 0x23C8 JUMP JUMPDEST PUSH2 0x985 JUMP JUMPDEST PUSH1 0x40 MLOAD SWAP1 DUP2 MSTORE PUSH1 0x20 ADD PUSH2 0x1E8 JUMP JUMPDEST PUSH2 0x251 PUSH2 0x38D CALLDATASIZE PUSH1 0x4 PUSH2 0x2229 JUMP JUMPDEST PUSH2 0x999 JUMP JUMPDEST PUSH2 0x219 PUSH2 0x9B7 JUMP JUMPDEST PUSH2 0x1DC PUSH2 0x3A8 CALLDATASIZE PUSH1 0x4 PUSH2 0x22D1 JUMP JUMPDEST PUSH2 0x9DE JUMP JUMPDEST PUSH2 0x1F9 PUSH2 0xA29 JUMP JUMPDEST PUSH2 0x251 PUSH2 0x3C3 CALLDATASIZE PUSH1 0x4 PUSH2 0x23C8 JUMP JUMPDEST PUSH2 0xA33 JUMP JUMPDEST PUSH2 0x219 PUSH2 0xA8D JUMP JUMPDEST PUSH2 0x251 PUSH2 0x3DE CALLDATASIZE PUSH1 0x4 PUSH2 0x23F3 JUMP JUMPDEST PUSH2 0xAB7 JUMP JUMPDEST PUSH2 0x251 PUSH2 0x3F1 CALLDATASIZE PUSH1 0x4 PUSH2 0x2421 JUMP JUMPDEST PUSH2 0xAD4 JUMP JUMPDEST PUSH2 0x1F9 PUSH2 0x404 CALLDATASIZE PUSH1 0x4 PUSH2 0x2229 JUMP JUMPDEST PUSH2 0xB0E JUMP JUMPDEST PUSH2 0x371 PUSH32 0x6D696E7465720000000000000000000000000000000000000000000000000000 DUP2 JUMP JUMPDEST PUSH2 0x251 PUSH2 0x43E CALLDATASIZE PUSH1 0x4 PUSH2 0x22D1 JUMP JUMPDEST PUSH2 0xB31 JUMP JUMPDEST PUSH2 0x1DC PUSH2 0x451 CALLDATASIZE PUSH1 0x4 PUSH2 0x24C0 JUMP JUMPDEST PUSH2 0xB5F JUMP JUMPDEST PUSH2 0x251 PUSH2 0x464 CALLDATASIZE PUSH1 0x4 PUSH2 0x23C8 JUMP JUMPDEST PUSH2 0xBAD JUMP JUMPDEST PUSH2 0x371 PUSH32 0x6F70657261746F72000000000000000000000000000000000000000000000000 DUP2 JUMP JUMPDEST PUSH1 0x0 PUSH2 0x4A4 DUP3 PUSH2 0x49E PUSH2 0xBC8 JUMP JUMPDEST SWAP1 PUSH2 0xBF6 JUMP JUMPDEST SWAP3 SWAP2 POP POP JUMP JUMPDEST PUSH1 0x60 PUSH2 0x4B4 PUSH2 0xCD0 JUMP JUMPDEST SWAP1 POP SWAP1 JUMP JUMPDEST PUSH1 0x0 PUSH2 0x4A4 DUP3 PUSH2 0x4C7 PUSH2 0xCE2 JUMP JUMPDEST SWAP1 PUSH2 0xD10 JUMP JUMPDEST PUSH2 0x4EA PUSH2 0x4D8 PUSH2 0xDC9 JUMP JUMPDEST DUP4 DUP4 PUSH2 0x4E2 PUSH2 0xCE2 JUMP JUMPDEST SWAP3 SWAP2 SWAP1 PUSH2 0xDD3 JUMP JUMPDEST POP POP JUMP JUMPDEST PUSH1 0x0 PUSH2 0x4F8 PUSH2 0xDC9 JUMP JUMPDEST SWAP1 POP PUSH2 0x504 DUP2 DUP4 PUSH2 0x104E JUMP JUMPDEST PUSH2 0x51C DUP2 DUP6 DUP6 DUP6 PUSH2 0x513 PUSH2 0xCE2 JUMP JUMPDEST SWAP4 SWAP3 SWAP2 SWAP1 PUSH2 0x118F JUMP JUMPDEST POP POP POP POP JUMP JUMPDEST PUSH1 0x0 PUSH2 0x52C PUSH2 0xDC9 JUMP JUMPDEST SWAP1 POP PUSH2 0x540 DUP2 PUSH2 0x53A PUSH2 0x146D JUMP JUMPDEST SWAP1 PUSH2 0x149B JUMP JUMPDEST PUSH2 0x556 DUP4 DUP4 DUP4 PUSH2 0x54E PUSH2 0x1506 JUMP JUMPDEST SWAP3 SWAP2 SWAP1 PUSH2 0x1534 JUMP JUMPDEST POP POP POP JUMP JUMPDEST PUSH1 0x0 PUSH2 0x565 PUSH2 0xDC9 JUMP JUMPDEST SWAP1 POP PUSH2 0x571 DUP2 DUP4 PUSH2 0x104E JUMP JUMPDEST PUSH2 0x51C DUP2 DUP6 DUP6 DUP6 PUSH2 0x580 PUSH2 0xCE2 JUMP JUMPDEST SWAP4 SWAP3 SWAP2 SWAP1 PUSH2 0x160A JUMP JUMPDEST PUSH1 0x0 DUP2 DUP2 MSTORE PUSH1 0x1 PUSH1 0x20 DUP2 DUP2 MSTORE PUSH1 0x40 DUP1 DUP5 KECCAK256 SWAP1 MLOAD PUSH2 0x5AB SWAP4 SWAP2 SWAP1 SWAP2 ADD SWAP2 ADD PUSH2 0x2541 JUMP JUMPDEST PUSH1 0x40 DUP1 MLOAD DUP1 DUP4 SUB PUSH32 0xFFFFFFFFFFFFFFFFFFFFFFFFFFFFFFFFFFFFFFFFFFFFFFFFFFFFFFFFFFFFFFE0 ADD DUP2 MSTORE SWAP1 DUP3 SWAP1 MSTORE DUP1 MLOAD PUSH1 0x20 SWAP1 SWAP2 ADD KECCAK256 PUSH1 0x0 SLOAD PUSH32 0xA3A2656A00000000000000000000000000000000000000000000000000000000 DUP4 MSTORE PUSH1 0x4 DUP4 ADD DUP3 SWAP1 MSTORE PUSH1 0x24 DUP4 ADD DUP6 SWAP1 MSTORE SWAP1 SWAP3 POP PUSH20 0xFFFFFFFFFFFFFFFFFFFFFFFFFFFFFFFFFFFFFFFF AND SWAP1 PUSH4 0xA3A2656A SWAP1 PUSH1 0x44 ADD PUSH1 0x20 PUSH1 0x40 MLOAD DUP1 DUP4 SUB DUP2 DUP7 GAS STATICCALL ISZERO DUP1 ISZERO PUSH2 0x656 JUMPI RETURNDATASIZE PUSH1 0x0 DUP1 RETURNDATACOPY RETURNDATASIZE PUSH1 0x0 REVERT JUMPDEST POP POP POP POP PUSH1 0x40 MLOAD RETURNDATASIZE PUSH1 0x1F NOT PUSH1 0x1F DUP3 ADD AND DUP3 ADD DUP1 PUSH1 0x40 MSTORE POP DUP2 ADD SWAP1 PUSH2 0x67A SWAP2 SWAP1 PUSH2 0x25D5 JUMP JUMPDEST ISZERO PUSH2 0x755 JUMPI PUSH1 0x0 PUSH2 0x693 DUP4 PUSH2 0x68D PUSH2 0xCE2 JUMP JUMPDEST SWAP1 PUSH2 0x1650 JUMP JUMPDEST SWAP1 POP PUSH32 0xDEAD000000000000000000000000000000000000000000000000000000000000 PUSH2 0x6BE PUSH2 0xCE2 JUMP JUMPDEST PUSH1 0x0 DUP6 DUP2 MSTORE PUSH1 0x20 SWAP2 SWAP1 SWAP2 MSTORE PUSH1 0x40 SWAP1 KECCAK256 SSTORE PUSH2 0x6D6 PUSH2 0xCE2 JUMP JUMPDEST PUSH20 0xFFFFFFFFFFFFFFFFFFFFFFFFFFFFFFFFFFFFFFFF DUP3 AND PUSH1 0x0 DUP2 DUP2 MSTORE PUSH1 0x1 SWAP3 SWAP1 SWAP3 ADD PUSH1 0x20 MSTORE PUSH1 0x40 DUP1 DUP4 KECCAK256 DUP1 SLOAD PUSH32 0xFFFFFFFFFFFFFFFFFFFFFFFFFFFFFFFFFFFFFFFFFFFFFFFFFFFFFFFFFFFFFFFF ADD SWAP1 SSTORE MLOAD DUP6 SWAP3 SWAP2 SWAP1 PUSH32 0xDDF252AD1BE2C89B69C2B068FC378DAA952BA7F163C4A11628F55A4DF523B3EF SWAP1 DUP4 SWAP1 LOG4 POP POP POP JUMP JUMPDEST PUSH1 0x40 MLOAD PUSH32 0xEEDDF6AB00000000000000000000000000000000000000000000000000000000 DUP2 MSTORE PUSH1 0x4 ADD PUSH1 0x40 MLOAD DUP1 SWAP2 SUB SWAP1 REVERT JUMPDEST PUSH1 0x1 PUSH1 0x20 DUP2 SWAP1 MSTORE PUSH1 0x0 SWAP2 DUP3 MSTORE PUSH1 0x40 SWAP1 SWAP2 KECCAK256 DUP1 SLOAD SWAP2 DUP2 ADD DUP1 SLOAD PUSH2 0xFFFF DUP1 DUP6 AND SWAP5 PUSH3 0x10000 DUP2 DIV SWAP1 SWAP2 AND SWAP4 PUSH8 0xFFFFFFFFFFFFFFFF PUSH5 0x100000000 DUP4 DIV DUP2 AND SWAP5 PUSH13 0x1000000000000000000000000 DUP5 DIV DUP3 AND SWAP5 PUSH21 0x10000000000000000000000000000000000000000 SWAP1 SWAP5 DIV SWAP1 SWAP2 AND SWAP3 PUSH2 0x7FD SWAP1 PUSH2 0x24EE JUMP JUMPDEST DUP1 PUSH1 0x1F ADD PUSH1 0x20 DUP1 SWAP2 DIV MUL PUSH1 0x20 ADD PUSH1 0x40 MLOAD SWAP1 DUP2 ADD PUSH1 0x40 MSTORE DUP1 SWAP3 SWAP2 SWAP1 DUP2 DUP2 MSTORE PUSH1 0x20 ADD DUP3 DUP1 SLOAD PUSH2 0x829 SWAP1 PUSH2 0x24EE JUMP JUMPDEST DUP1 ISZERO PUSH2 0x876 JUMPI DUP1 PUSH1 0x1F LT PUSH2 0x84B JUMPI PUSH2 0x100 DUP1 DUP4 SLOAD DIV MUL DUP4 MSTORE SWAP2 PUSH1 0x20 ADD SWAP2 PUSH2 0x876 JUMP JUMPDEST DUP3 ADD SWAP2 SWAP1 PUSH1 0x0 MSTORE PUSH1 0x20 PUSH1 0x0 KECCAK256 SWAP1 JUMPDEST DUP2 SLOAD DUP2 MSTORE SWAP1 PUSH1 0x1 ADD SWAP1 PUSH1 0x20 ADD DUP1 DUP4 GT PUSH2 0x859 JUMPI DUP3 SWAP1 SUB PUSH1 0x1F AND DUP3 ADD SWAP2 JUMPDEST POP POP POP POP POP SWAP1 DUP1 PUSH1 0x2 ADD DUP1 SLOAD PUSH2 0x88B SWAP1 PUSH2 0x24EE JUMP JUMPDEST DUP1 PUSH1 0x1F ADD PUSH1 0x20 DUP1 SWAP2 DIV MUL PUSH1 0x20 ADD PUSH1 0x40 MLOAD SWAP1 DUP2 ADD PUSH1 0x40 MSTORE DUP1 SWAP3 SWAP2 SWAP1 DUP2 DUP2 MSTORE PUSH1 0x20 ADD DUP3 DUP1 SLOAD PUSH2 0x8B7 SWAP1 PUSH2 0x24EE JUMP JUMPDEST DUP1 ISZERO PUSH2 0x904 JUMPI DUP1 PUSH1 0x1F LT PUSH2 0x8D9 JUMPI PUSH2 0x100 DUP1 DUP4 SLOAD DIV MUL DUP4 MSTORE SWAP2 PUSH1 0x20 ADD SWAP2 PUSH2 0x904 JUMP JUMPDEST DUP3 ADD SWAP2 SWAP1 PUSH1 0x0 MSTORE PUSH1 0x20 PUSH1 0x0 KECCAK256 SWAP1 JUMPDEST DUP2 SLOAD DUP2 MSTORE SWAP1 PUSH1 0x1 ADD SWAP1 PUSH1 0x20 ADD DUP1 DUP4 GT PUSH2 0x8E7 JUMPI DUP3 SWAP1 SUB PUSH1 0x1F AND DUP3 ADD SWAP2 JUMPDEST POP POP POP POP POP SWAP1 POP DUP8 JUMP JUMPDEST PUSH2 0x942 PUSH32 0x6D696E7465720000000000000000000000000000000000000000000000000000 CALLER PUSH2 0x93B PUSH2 0x1506 JUMP JUMPDEST SWAP2 SWAP1 PUSH2 0x16B9 JUMP JUMPDEST PUSH2 0x956 DUP4 DUP4 PUSH2 0x94F PUSH2 0xCE2 JUMP JUMPDEST SWAP2 SWAP1 PUSH2 0x173F JUMP JUMPDEST PUSH1 0x0 DUP3 DUP2 MSTORE PUSH1 0x1 PUSH1 0x20 MSTORE PUSH1 0x40 SWAP1 KECCAK256 DUP2 SWAP1 PUSH2 0x970 DUP3 DUP3 PUSH2 0x281D JUMP JUMPDEST POP POP POP POP POP JUMP JUMPDEST PUSH1 0x0 PUSH2 0x4A4 DUP3 PUSH2 0x68D PUSH2 0xCE2 JUMP JUMPDEST PUSH1 0x0 PUSH2 0x4A4 DUP3 PUSH2 0x993 PUSH2 0xCE2 JUMP JUMPDEST SWAP1 PUSH2 0x1859 JUMP JUMPDEST PUSH2 0x9B4 PUSH2 0x9A4 PUSH2 0xDC9 JUMP JUMPDEST DUP3 PUSH2 0x9AD PUSH2 0x1506 JUMP JUMPDEST SWAP2 SWAP1 PUSH2 0x18D5 JUMP JUMPDEST POP JUMP JUMPDEST PUSH1 0x0 PUSH2 0x4B4 PUSH2 0x9C4 PUSH2 0x146D JUMP JUMPDEST SLOAD PUSH20 0xFFFFFFFFFFFFFFFFFFFFFFFFFFFFFFFFFFFFFFFF AND SWAP1 JUMP JUMPDEST PUSH1 0x0 PUSH2 0xA22 DUP4 DUP4 PUSH2 0x9ED PUSH2 0x1506 JUMP JUMPDEST PUSH1 0x0 SWAP3 DUP4 MSTORE PUSH1 0x20 SWAP1 DUP2 MSTORE PUSH1 0x40 DUP1 DUP5 KECCAK256 PUSH20 0xFFFFFFFFFFFFFFFFFFFFFFFFFFFFFFFFFFFFFFFF SWAP1 SWAP4 AND DUP5 MSTORE SWAP2 SWAP1 MSTORE SWAP1 KECCAK256 SLOAD PUSH1 0xFF AND SWAP1 JUMP JUMPDEST SWAP4 SWAP3 POP POP POP JUMP JUMPDEST PUSH1 0x60 PUSH2 0x4B4 PUSH2 0x1979 JUMP JUMPDEST PUSH2 0xA46 PUSH2 0xA3E PUSH2 0xDC9 JUMP JUMPDEST PUSH2 0x53A PUSH2 0x146D JUMP JUMPDEST PUSH1 0x0 DUP1 SLOAD PUSH32 0xFFFFFFFFFFFFFFFFFFFFFFFF0000000000000000000000000000000000000000 AND PUSH20 0xFFFFFFFFFFFFFFFFFFFFFFFFFFFFFFFFFFFFFFFF SWAP3 SWAP1 SWAP3 AND SWAP2 SWAP1 SWAP2 OR SWAP1 SSTORE JUMP JUMPDEST PUSH1 0x0 PUSH2 0x4B4 PUSH2 0xA9A PUSH2 0x198B JUMP JUMPDEST PUSH1 0x2 ADD SLOAD PUSH20 0xFFFFFFFFFFFFFFFFFFFFFFFFFFFFFFFFFFFFFFFF AND SWAP1 JUMP JUMPDEST PUSH2 0x4EA PUSH2 0xAC2 PUSH2 0xDC9 JUMP JUMPDEST DUP4 DUP4 PUSH2 0xACC PUSH2 0xCE2 JUMP JUMPDEST SWAP3 SWAP2 SWAP1 PUSH2 0x19B9 JUMP JUMPDEST PUSH1 0x0 PUSH2 0xADE PUSH2 0xDC9 JUMP JUMPDEST SWAP1 POP PUSH2 0xAEA DUP2 DUP6 PUSH2 0x104E JUMP JUMPDEST PUSH2 0xB06 DUP2 DUP8 DUP8 DUP8 DUP8 DUP8 PUSH2 0xAFB PUSH2 0xCE2 JUMP JUMPDEST SWAP6 SWAP5 SWAP4 SWAP3 SWAP2 SWAP1 PUSH2 0x1AD1 JUMP JUMPDEST POP POP POP POP POP POP JUMP JUMPDEST PUSH1 0x60 PUSH2 0xB1C DUP3 PUSH2 0x68D PUSH2 0xCE2 JUMP JUMPDEST POP PUSH2 0x4A4 ADDRESS DUP4 PUSH2 0xB2A PUSH2 0x198B JUMP JUMPDEST SWAP2 SWAP1 PUSH2 0x1B47 JUMP JUMPDEST PUSH1 0x0 PUSH2 0xB3B PUSH2 0xDC9 JUMP JUMPDEST SWAP1 POP PUSH2 0xB49 DUP2 PUSH2 0x53A PUSH2 0x146D JUMP JUMPDEST PUSH2 0x556 DUP4 DUP4 DUP4 PUSH2 0xB57 PUSH2 0x1506 JUMP JUMPDEST SWAP3 SWAP2 SWAP1 PUSH2 0x1C07 JUMP JUMPDEST PUSH1 0x0 PUSH2 0xA22 DUP4 DUP4 PUSH2 0xB6E PUSH2 0xCE2 JUMP JUMPDEST SWAP2 SWAP1 PUSH20 0xFFFFFFFFFFFFFFFFFFFFFFFFFFFFFFFFFFFFFFFF SWAP2 DUP3 AND PUSH1 0x0 SWAP1 DUP2 MSTORE PUSH1 0x3 SWAP4 SWAP1 SWAP4 ADD PUSH1 0x20 SWAP1 DUP2 MSTORE PUSH1 0x40 DUP1 DUP6 KECCAK256 SWAP3 SWAP1 SWAP4 AND DUP5 MSTORE MSTORE SWAP1 KECCAK256 SLOAD PUSH1 0xFF AND SWAP1 JUMP JUMPDEST PUSH2 0x9B4 PUSH2 0xBB8 PUSH2 0xDC9 JUMP JUMPDEST DUP3 PUSH2 0xBC1 PUSH2 0x146D JUMP JUMPDEST SWAP2 SWAP1 PUSH2 0x1CD1 JUMP JUMPDEST PUSH1 0x0 DUP1 PUSH2 0x4A4 PUSH1 0x1 PUSH32 0xCA9D3E17F264B0F3984E2634E94ADB37FA3E6A8103F06AEAE6FA59E21C769F5E PUSH2 0x29C3 JUMP JUMPDEST PUSH1 0x0 PUSH29 0x100000000000000000000000000000000000000000000000000000000 PUSH32 0xFFFFFFFF00000000000000000000000000000000000000000000000000000000 DUP4 AND ADD PUSH2 0xC46 JUMPI POP PUSH1 0x0 PUSH2 0x4A4 JUMP JUMPDEST PUSH32 0xFE00365900000000000000000000000000000000000000000000000000000000 PUSH32 0xFFFFFFFF00000000000000000000000000000000000000000000000000000000 DUP4 AND ADD PUSH2 0xC97 JUMPI POP PUSH1 0x1 PUSH2 0x4A4 JUMP JUMPDEST POP PUSH32 0xFFFFFFFF00000000000000000000000000000000000000000000000000000000 AND PUSH1 0x0 SWAP1 DUP2 MSTORE PUSH1 0x20 SWAP2 SWAP1 SWAP2 MSTORE PUSH1 0x40 SWAP1 KECCAK256 SLOAD PUSH1 0xFF AND SWAP1 JUMP JUMPDEST PUSH1 0x60 PUSH2 0x4B4 PUSH2 0xCDD PUSH2 0x198B JUMP JUMPDEST PUSH2 0x1DE5 JUMP JUMPDEST PUSH1 0x0 DUP1 PUSH2 0x4A4 PUSH1 0x1 PUSH32 0xDDF3EE18AE6D688373C219468F8BE446E7AE82215F4779D821C7EA5E8C13C0C1 PUSH2 0x29C3 JUMP JUMPDEST PUSH1 0x0 DUP2 DUP2 MSTORE PUSH1 0x20 DUP4 SWAP1 MSTORE PUSH1 0x40 DUP2 KECCAK256 SLOAD PUSH20 0xFFFFFFFFFFFFFFFFFFFFFFFFFFFFFFFFFFFFFFFF DUP2 AND PUSH2 0xD74 JUMPI PUSH1 0x40 MLOAD PUSH32 0xDD56047500000000000000000000000000000000000000000000000000000000 DUP2 MSTORE PUSH1 0x4 DUP2 ADD DUP5 SWAP1 MSTORE PUSH1 0x24 ADD JUMPDEST PUSH1 0x40 MLOAD DUP1 SWAP2 SUB SWAP1 REVERT JUMPDEST PUSH21 0x10000000000000000000000000000000000000000 DUP2 AND ISZERO PUSH2 0xDBF JUMPI POP POP PUSH1 0x0 DUP2 DUP2 MSTORE PUSH1 0x2 DUP4 ADD PUSH1 0x20 MSTORE PUSH1 0x40 SWAP1 KECCAK256 SLOAD PUSH20 0xFFFFFFFFFFFFFFFFFFFFFFFFFFFFFFFFFFFFFFFF AND PUSH2 0x4A4 JUMP JUMPDEST PUSH1 0x0 SWAP2 POP POP PUSH2 0x4A4 JUMP JUMPDEST PUSH1 0x0 PUSH2 0x4B4 PUSH2 0x1E7B JUMP JUMPDEST PUSH1 0x0 DUP2 DUP2 MSTORE PUSH1 0x20 DUP6 SWAP1 MSTORE PUSH1 0x40 SWAP1 KECCAK256 SLOAD PUSH20 0xFFFFFFFFFFFFFFFFFFFFFFFFFFFFFFFFFFFFFFFF DUP2 AND PUSH2 0xE32 JUMPI PUSH1 0x40 MLOAD PUSH32 0xDD56047500000000000000000000000000000000000000000000000000000000 DUP2 MSTORE PUSH1 0x4 DUP2 ADD DUP4 SWAP1 MSTORE PUSH1 0x24 ADD PUSH2 0xD6B JUMP JUMPDEST DUP1 PUSH20 0xFFFFFFFFFFFFFFFFFFFFFFFFFFFFFFFFFFFFFFFF DUP1 DUP3 AND SWAP1 DUP6 AND SUB PUSH2 0xE9D JUMPI PUSH1 0x40 MLOAD PUSH32 0xB7FDC01000000000000000000000000000000000000000000000000000000000 DUP2 MSTORE PUSH20 0xFFFFFFFFFFFFFFFFFFFFFFFFFFFFFFFFFFFFFFFF DUP3 AND PUSH1 0x4 DUP3 ADD MSTORE PUSH1 0x24 ADD PUSH2 0xD6B JUMP JUMPDEST PUSH2 0xEA8 DUP7 DUP3 DUP8 PUSH2 0x1FC2 JUMP JUMPDEST PUSH2 0xF05 JUMPI PUSH1 0x40 MLOAD PUSH32 0xC7563A1800000000000000000000000000000000000000000000000000000000 DUP2 MSTORE PUSH20 0xFFFFFFFFFFFFFFFFFFFFFFFFFFFFFFFFFFFFFFFF DUP1 DUP8 AND PUSH1 0x4 DUP4 ADD MSTORE DUP3 AND PUSH1 0x24 DUP3 ADD MSTORE PUSH1 0x44 DUP2 ADD DUP5 SWAP1 MSTORE PUSH1 0x64 ADD PUSH2 0xD6B JUMP JUMPDEST PUSH20 0xFFFFFFFFFFFFFFFFFFFFFFFFFFFFFFFFFFFFFFFF DUP5 AND PUSH2 0xF6A JUMPI PUSH21 0x10000000000000000000000000000000000000000 DUP3 AND ISZERO PUSH2 0xF65 JUMPI PUSH1 0x0 DUP4 DUP2 MSTORE PUSH1 0x20 DUP8 SWAP1 MSTORE PUSH1 0x40 SWAP1 KECCAK256 PUSH20 0xFFFFFFFFFFFFFFFFFFFFFFFFFFFFFFFFFFFFFFFF DUP3 AND SWAP1 SSTORE JUMPDEST PUSH2 0xFEB JUMP JUMPDEST PUSH21 0x10000000000000000000000000000000000000000 DUP3 OR DUP1 DUP4 EQ PUSH2 0xF9B JUMPI PUSH1 0x0 DUP5 DUP2 MSTORE PUSH1 0x20 DUP9 SWAP1 MSTORE PUSH1 0x40 SWAP1 KECCAK256 DUP2 SWAP1 SSTORE JUMPDEST POP PUSH1 0x0 DUP4 DUP2 MSTORE PUSH1 0x2 DUP8 ADD PUSH1 0x20 MSTORE PUSH1 0x40 SWAP1 KECCAK256 DUP1 SLOAD PUSH32 0xFFFFFFFFFFFFFFFFFFFFFFFF0000000000000000000000000000000000000000 AND PUSH20 0xFFFFFFFFFFFFFFFFFFFFFFFFFFFFFFFFFFFFFFFF DUP7 AND OR SWAP1 SSTORE JUMPDEST DUP3 DUP5 PUSH20 0xFFFFFFFFFFFFFFFFFFFFFFFFFFFFFFFFFFFFFFFF AND DUP3 PUSH20 0xFFFFFFFFFFFFFFFFFFFFFFFFFFFFFFFFFFFFFFFF AND PUSH32 0x8C5BE1E5EBEC7D5BD14F71427D1E84F3DD0314C0F7B2291E5B200AC8C7C3B925 PUSH1 0x40 MLOAD PUSH1 0x40 MLOAD DUP1 SWAP2 SUB SWAP1 LOG4 POP POP POP POP POP POP JUMP JUMPDEST PUSH1 0x0 DUP2 DUP2 MSTORE PUSH1 0x1 PUSH1 0x20 DUP2 DUP2 MSTORE PUSH1 0x40 DUP1 DUP5 KECCAK256 SWAP1 MLOAD PUSH2 0x1070 SWAP4 SWAP2 SWAP1 SWAP2 ADD SWAP2 ADD PUSH2 0x2541 JUMP JUMPDEST PUSH1 0x40 DUP1 MLOAD DUP1 DUP4 SUB PUSH32 0xFFFFFFFFFFFFFFFFFFFFFFFFFFFFFFFFFFFFFFFFFFFFFFFFFFFFFFFFFFFFFFE0 ADD DUP2 MSTORE SWAP1 DUP3 SWAP1 MSTORE DUP1 MLOAD PUSH1 0x20 SWAP1 SWAP2 ADD KECCAK256 PUSH32 0xF9236A3900000000000000000000000000000000000000000000000000000000 DUP3 MSTORE PUSH1 0x4 DUP3 ADD DUP2 SWAP1 MSTORE PUSH20 0xFFFFFFFFFFFFFFFFFFFFFFFFFFFFFFFFFFFFFFFF DUP6 DUP2 AND PUSH1 0x24 DUP5 ADD MSTORE SWAP1 SWAP3 POP PUSH32 0x0 AND SWAP1 PUSH4 0xF9236A39 SWAP1 PUSH1 0x44 ADD PUSH1 0x20 PUSH1 0x40 MLOAD DUP1 DUP4 SUB DUP2 DUP7 GAS STATICCALL ISZERO DUP1 ISZERO PUSH2 0x113A JUMPI RETURNDATASIZE PUSH1 0x0 DUP1 RETURNDATACOPY RETURNDATASIZE PUSH1 0x0 REVERT JUMPDEST POP POP POP POP PUSH1 0x40 MLOAD RETURNDATASIZE PUSH1 0x1F NOT PUSH1 0x1F DUP3 ADD AND DUP3 ADD DUP1 PUSH1 0x40 MSTORE POP DUP2 ADD SWAP1 PUSH2 0x115E SWAP2 SWAP1 PUSH2 0x25D5 JUMP JUMPDEST PUSH2 0x556 JUMPI PUSH2 0x556 PUSH32 0x6F70657261746F72000000000000000000000000000000000000000000000000 DUP5 PUSH2 0x93B PUSH2 0x1506 JUMP JUMPDEST PUSH20 0xFFFFFFFFFFFFFFFFFFFFFFFFFFFFFFFFFFFFFFFF DUP3 AND PUSH2 0x11DC JUMPI PUSH1 0x40 MLOAD PUSH32 0x86C8706700000000000000000000000000000000000000000000000000000000 DUP2 MSTORE PUSH1 0x4 ADD PUSH1 0x40 MLOAD DUP1 SWAP2 SUB SWAP1 REVERT JUMPDEST PUSH1 0x0 DUP2 DUP2 MSTORE PUSH1 0x20 DUP7 SWAP1 MSTORE PUSH1 0x40 SWAP1 KECCAK256 SLOAD PUSH20 0xFFFFFFFFFFFFFFFFFFFFFFFFFFFFFFFFFFFFFFFF DUP2 AND PUSH2 0x123B JUMPI PUSH1 0x40 MLOAD PUSH32 0xDD56047500000000000000000000000000000000000000000000000000000000 DUP2 MSTORE PUSH1 0x4 DUP2 ADD DUP4 SWAP1 MSTORE PUSH1 0x24 ADD PUSH2 0xD6B JUMP JUMPDEST PUSH20 0xFFFFFFFFFFFFFFFFFFFFFFFFFFFFFFFFFFFFFFFF DUP5 AND DUP2 PUSH20 0xFFFFFFFFFFFFFFFFFFFFFFFFFFFFFFFFFFFFFFFF AND EQ PUSH2 0x12BF JUMPI PUSH1 0x40 MLOAD PUSH32 0x14DBB53600000000000000000000000000000000000000000000000000000000 DUP2 MSTORE PUSH20 0xFFFFFFFFFFFFFFFFFFFFFFFFFFFFFFFFFFFFFFFF DUP6 AND PUSH1 0x4 DUP3 ADD MSTORE PUSH1 0x24 DUP2 ADD DUP4 SWAP1 MSTORE PUSH1 0x44 ADD PUSH2 0xD6B JUMP JUMPDEST PUSH2 0x12CA DUP7 DUP6 DUP8 PUSH2 0x1FC2 JUMP JUMPDEST PUSH2 0x1379 JUMPI PUSH21 0x10000000000000000000000000000000000000000 DUP2 AND ISZERO DUP1 PUSH2 0x131B JUMPI POP PUSH1 0x0 DUP3 DUP2 MSTORE PUSH1 0x2 DUP8 ADD PUSH1 0x20 MSTORE PUSH1 0x40 SWAP1 KECCAK256 SLOAD PUSH20 0xFFFFFFFFFFFFFFFFFFFFFFFFFFFFFFFFFFFFFFFF DUP7 DUP2 AND SWAP2 AND EQ ISZERO JUMPDEST ISZERO PUSH2 0x1379 JUMPI PUSH1 0x40 MLOAD PUSH32 0xA4A3018B00000000000000000000000000000000000000000000000000000000 DUP2 MSTORE PUSH20 0xFFFFFFFFFFFFFFFFFFFFFFFFFFFFFFFFFFFFFFFF DUP1 DUP8 AND PUSH1 0x4 DUP4 ADD MSTORE DUP6 AND PUSH1 0x24 DUP3 ADD MSTORE PUSH1 0x44 DUP2 ADD DUP4 SWAP1 MSTORE PUSH1 0x64 ADD PUSH2 0xD6B JUMP JUMPDEST PUSH1 0x0 DUP3 DUP2 MSTORE PUSH1 0x20 DUP8 SWAP1 MSTORE PUSH1 0x40 SWAP1 KECCAK256 PUSH20 0xFFFFFFFFFFFFFFFFFFFFFFFFFFFFFFFFFFFFFFFF DUP1 DUP6 AND SWAP2 DUP3 SWAP1 SSTORE DUP6 AND EQ PUSH2 0x140A JUMPI PUSH20 0xFFFFFFFFFFFFFFFFFFFFFFFFFFFFFFFFFFFFFFFF DUP1 DUP6 AND PUSH1 0x0 SWAP1 DUP2 MSTORE PUSH1 0x1 DUP1 DUP10 ADD PUSH1 0x20 MSTORE PUSH1 0x40 DUP1 DUP4 KECCAK256 DUP1 SLOAD PUSH32 0xFFFFFFFFFFFFFFFFFFFFFFFFFFFFFFFFFFFFFFFFFFFFFFFFFFFFFFFFFFFFFFFF ADD SWAP1 SSTORE SWAP3 DUP7 AND DUP3 MSTORE SWAP2 SWAP1 KECCAK256 DUP1 SLOAD SWAP1 SWAP2 ADD SWAP1 SSTORE JUMPDEST DUP2 DUP4 PUSH20 0xFFFFFFFFFFFFFFFFFFFFFFFFFFFFFFFFFFFFFFFF AND DUP6 PUSH20 0xFFFFFFFFFFFFFFFFFFFFFFFFFFFFFFFFFFFFFFFF AND PUSH32 0xDDF252AD1BE2C89B69C2B068FC378DAA952BA7F163C4A11628F55A4DF523B3EF PUSH1 0x40 MLOAD PUSH1 0x40 MLOAD DUP1 SWAP2 SUB SWAP1 LOG4 POP POP POP POP POP POP JUMP JUMPDEST PUSH1 0x0 DUP1 PUSH2 0x4A4 PUSH1 0x1 PUSH32 0xC9ED16F33AB3A66C84BFD83099CCB2A8845871E2E1C1928F63797152F0FD54CD PUSH2 0x29C3 JUMP JUMPDEST DUP2 SLOAD PUSH20 0xFFFFFFFFFFFFFFFFFFFFFFFFFFFFFFFFFFFFFFFF DUP3 DUP2 AND SWAP2 AND EQ PUSH2 0x4EA JUMPI PUSH1 0x40 MLOAD PUSH32 0x2EF4875E00000000000000000000000000000000000000000000000000000000 DUP2 MSTORE PUSH20 0xFFFFFFFFFFFFFFFFFFFFFFFFFFFFFFFFFFFFFFFF DUP3 AND PUSH1 0x4 DUP3 ADD MSTORE PUSH1 0x24 ADD PUSH2 0xD6B JUMP JUMPDEST PUSH1 0x0 DUP1 PUSH2 0x4A4 PUSH1 0x1 PUSH32 0xC8827D3282AF6F37B64C3E9E6F3AC9DF286AB0BB0FCCD6F8661BF19ADB368B23 PUSH2 0x29C3 JUMP JUMPDEST PUSH1 0x0 DUP4 DUP2 MSTORE PUSH1 0x20 DUP6 DUP2 MSTORE PUSH1 0x40 DUP1 DUP4 KECCAK256 PUSH20 0xFFFFFFFFFFFFFFFFFFFFFFFFFFFFFFFFFFFFFFFF DUP7 AND DUP5 MSTORE SWAP1 SWAP2 MSTORE SWAP1 KECCAK256 SLOAD PUSH1 0xFF AND PUSH2 0x51C JUMPI PUSH1 0x0 DUP4 DUP2 MSTORE PUSH1 0x20 DUP6 DUP2 MSTORE PUSH1 0x40 DUP1 DUP4 KECCAK256 PUSH20 0xFFFFFFFFFFFFFFFFFFFFFFFFFFFFFFFFFFFFFFFF DUP7 DUP2 AND DUP1 DUP7 MSTORE SWAP2 DUP5 MSTORE SWAP4 DUP3 SWAP1 KECCAK256 DUP1 SLOAD PUSH32 0xFFFFFFFFFFFFFFFFFFFFFFFFFFFFFFFFFFFFFFFFFFFFFFFFFFFFFFFFFFFFFF00 AND PUSH1 0x1 OR SWAP1 SSTORE DUP2 MLOAD DUP8 DUP2 MSTORE SWAP3 DUP4 ADD MSTORE SWAP2 DUP4 AND SWAP2 DUP2 ADD SWAP2 SWAP1 SWAP2 MSTORE PUSH32 0x2F8788117E7EFF1D82E926EC794901D17C78024A50270940304540A733656F0D SWAP1 PUSH1 0x60 ADD JUMPDEST PUSH1 0x40 MLOAD DUP1 SWAP2 SUB SWAP1 LOG1 POP POP POP POP JUMP JUMPDEST PUSH2 0x1617 DUP6 DUP6 DUP6 DUP6 DUP6 PUSH2 0x118F JUMP JUMPDEST PUSH20 0xFFFFFFFFFFFFFFFFFFFFFFFFFFFFFFFFFFFFFFFF DUP3 AND EXTCODESIZE ISZERO PUSH2 0x970 JUMPI PUSH2 0x970 DUP5 DUP5 DUP5 DUP5 PUSH1 0x40 MLOAD DUP1 PUSH1 0x20 ADD PUSH1 0x40 MSTORE DUP1 PUSH1 0x0 DUP2 MSTORE POP PUSH2 0x2037 JUMP JUMPDEST PUSH1 0x0 DUP2 DUP2 MSTORE PUSH1 0x20 DUP4 SWAP1 MSTORE PUSH1 0x40 DUP2 KECCAK256 SLOAD PUSH20 0xFFFFFFFFFFFFFFFFFFFFFFFFFFFFFFFFFFFFFFFF DUP2 AND PUSH2 0x16AF JUMPI PUSH1 0x40 MLOAD PUSH32 0xDD56047500000000000000000000000000000000000000000000000000000000 DUP2 MSTORE PUSH1 0x4 DUP2 ADD DUP5 SWAP1 MSTORE PUSH1 0x24 ADD PUSH2 0xD6B JUMP JUMPDEST DUP1 JUMPDEST SWAP5 SWAP4 POP POP POP POP JUMP JUMPDEST PUSH1 0x0 DUP3 DUP2 MSTORE PUSH1 0x20 DUP5 DUP2 MSTORE PUSH1 0x40 DUP1 DUP4 KECCAK256 PUSH20 0xFFFFFFFFFFFFFFFFFFFFFFFFFFFFFFFFFFFFFFFF DUP6 AND DUP5 MSTORE SWAP1 SWAP2 MSTORE SWAP1 KECCAK256 SLOAD PUSH1 0xFF AND PUSH2 0x556 JUMPI PUSH1 0x40 MLOAD PUSH32 0x7AA7288200000000000000000000000000000000000000000000000000000000 DUP2 MSTORE PUSH1 0x4 DUP2 ADD DUP4 SWAP1 MSTORE PUSH20 0xFFFFFFFFFFFFFFFFFFFFFFFFFFFFFFFFFFFFFFFF DUP3 AND PUSH1 0x24 DUP3 ADD MSTORE PUSH1 0x44 ADD PUSH2 0xD6B JUMP JUMPDEST PUSH20 0xFFFFFFFFFFFFFFFFFFFFFFFFFFFFFFFFFFFFFFFF DUP3 AND PUSH2 0x178C JUMPI PUSH1 0x40 MLOAD PUSH32 0x7851B9CD00000000000000000000000000000000000000000000000000000000 DUP2 MSTORE PUSH1 0x4 ADD PUSH1 0x40 MLOAD DUP1 SWAP2 SUB SWAP1 REVERT JUMPDEST PUSH1 0x0 DUP2 DUP2 MSTORE PUSH1 0x20 DUP5 SWAP1 MSTORE PUSH1 0x40 SWAP1 KECCAK256 SLOAD PUSH20 0xFFFFFFFFFFFFFFFFFFFFFFFFFFFFFFFFFFFFFFFF AND ISZERO PUSH2 0x17EB JUMPI PUSH1 0x40 MLOAD PUSH32 0x753ECEAC00000000000000000000000000000000000000000000000000000000 DUP2 MSTORE PUSH1 0x4 DUP2 ADD DUP3 SWAP1 MSTORE PUSH1 0x24 ADD PUSH2 0xD6B JUMP JUMPDEST PUSH1 0x0 DUP2 DUP2 MSTORE PUSH1 0x20 DUP5 DUP2 MSTORE PUSH1 0x40 DUP1 DUP4 KECCAK256 PUSH20 0xFFFFFFFFFFFFFFFFFFFFFFFFFFFFFFFFFFFFFFFF DUP7 AND SWAP1 DUP2 SWAP1 SSTORE DUP1 DUP5 MSTORE PUSH1 0x1 DUP1 DUP9 ADD SWAP1 SWAP4 MSTORE DUP2 DUP5 KECCAK256 DUP1 SLOAD SWAP1 SWAP4 ADD SWAP1 SWAP3 SSTORE MLOAD DUP4 SWAP3 SWAP1 PUSH32 0xDDF252AD1BE2C89B69C2B068FC378DAA952BA7F163C4A11628F55A4DF523B3EF SWAP1 DUP3 SWAP1 LOG4 POP POP POP JUMP JUMPDEST PUSH1 0x0 PUSH20 0xFFFFFFFFFFFFFFFFFFFFFFFFFFFFFFFFFFFFFFFF DUP3 AND PUSH2 0x18A8 JUMPI PUSH1 0x40 MLOAD PUSH32 0xAEFBCE4E00000000000000000000000000000000000000000000000000000000 DUP2 MSTORE PUSH1 0x4 ADD PUSH1 0x40 MLOAD DUP1 SWAP2 SUB SWAP1 REVERT JUMPDEST POP PUSH20 0xFFFFFFFFFFFFFFFFFFFFFFFFFFFFFFFFFFFFFFFF AND PUSH1 0x0 SWAP1 DUP2 MSTORE PUSH1 0x1 SWAP2 SWAP1 SWAP2 ADD PUSH1 0x20 MSTORE PUSH1 0x40 SWAP1 KECCAK256 SLOAD SWAP1 JUMP JUMPDEST PUSH2 0x18E0 DUP4 DUP3 DUP5 PUSH2 0x16B9 JUMP JUMPDEST PUSH1 0x0 DUP2 DUP2 MSTORE PUSH1 0x20 DUP5 DUP2 MSTORE PUSH1 0x40 DUP1 DUP4 KECCAK256 PUSH20 0xFFFFFFFFFFFFFFFFFFFFFFFFFFFFFFFFFFFFFFFF DUP7 AND DUP1 DUP6 MSTORE SWAP1 DUP4 MSTORE SWAP3 DUP2 SWAP1 KECCAK256 DUP1 SLOAD PUSH32 0xFFFFFFFFFFFFFFFFFFFFFFFFFFFFFFFFFFFFFFFFFFFFFFFFFFFFFFFFFFFFFF00 AND SWAP1 SSTORE DUP1 MLOAD DUP5 DUP2 MSTORE SWAP2 DUP3 ADD DUP4 SWAP1 MSTORE DUP2 ADD SWAP2 SWAP1 SWAP2 MSTORE PUSH32 0xF6391F5C32D9C69D2A47EA670B442974B53935D1EDC7FD64EB21E047A839171B SWAP1 PUSH1 0x60 ADD PUSH1 0x40 MLOAD DUP1 SWAP2 SUB SWAP1 LOG1 POP POP POP JUMP JUMPDEST PUSH1 0x60 PUSH2 0x4B4 PUSH2 0x1986 PUSH2 0x198B JUMP JUMPDEST PUSH2 0x214C JUMP JUMPDEST PUSH1 0x0 DUP1 PUSH2 0x4A4 PUSH1 0x1 PUSH32 0x7EA68FD2DCF1C056B94DB6A0A537AA80D26FA9AB1EACD85DA1BA0B61B7E7A8A5 PUSH2 0x29C3 JUMP JUMPDEST DUP3 PUSH20 0xFFFFFFFFFFFFFFFFFFFFFFFFFFFFFFFFFFFFFFFF AND DUP3 PUSH20 0xFFFFFFFFFFFFFFFFFFFFFFFFFFFFFFFFFFFFFFFF AND SUB PUSH2 0x1A36 JUMPI PUSH1 0x40 MLOAD PUSH32 0xE4215C6A00000000000000000000000000000000000000000000000000000000 DUP2 MSTORE PUSH20 0xFFFFFFFFFFFFFFFFFFFFFFFFFFFFFFFFFFFFFFFF DUP5 AND PUSH1 0x4 DUP3 ADD MSTORE PUSH1 0x24 ADD PUSH2 0xD6B JUMP JUMPDEST PUSH20 0xFFFFFFFFFFFFFFFFFFFFFFFFFFFFFFFFFFFFFFFF DUP4 DUP2 AND PUSH1 0x0 DUP2 DUP2 MSTORE PUSH1 0x3 DUP8 ADD PUSH1 0x20 SWAP1 DUP2 MSTORE PUSH1 0x40 DUP1 DUP4 KECCAK256 SWAP5 DUP8 AND DUP1 DUP5 MSTORE SWAP5 DUP3 MSTORE SWAP2 DUP3 SWAP1 KECCAK256 DUP1 SLOAD PUSH32 0xFFFFFFFFFFFFFFFFFFFFFFFFFFFFFFFFFFFFFFFFFFFFFFFFFFFFFFFFFFFFFF00 AND DUP7 ISZERO ISZERO SWAP1 DUP2 OR SWAP1 SWAP2 SSTORE SWAP2 MLOAD SWAP2 DUP3 MSTORE PUSH32 0x17307EAB39AB6107E8899845AD3D59BD9653F200F220920489CA2B5937696C31 SWAP2 ADD PUSH1 0x40 MLOAD DUP1 SWAP2 SUB SWAP1 LOG3 POP POP POP POP JUMP JUMPDEST PUSH2 0x1ADE DUP8 DUP8 DUP8 DUP8 DUP8 PUSH2 0x118F JUMP JUMPDEST PUSH20 0xFFFFFFFFFFFFFFFFFFFFFFFFFFFFFFFFFFFFFFFF DUP5 AND EXTCODESIZE ISZERO PUSH2 0x1B3E JUMPI PUSH2 0x1B3E DUP7 DUP7 DUP7 DUP7 DUP7 DUP7 DUP1 DUP1 PUSH1 0x1F ADD PUSH1 0x20 DUP1 SWAP2 DIV MUL PUSH1 0x20 ADD PUSH1 0x40 MLOAD SWAP1 DUP2 ADD PUSH1 0x40 MSTORE DUP1 SWAP4 SWAP3 SWAP2 SWAP1 DUP2 DUP2 MSTORE PUSH1 0x20 ADD DUP4 DUP4 DUP1 DUP3 DUP5 CALLDATACOPY PUSH1 0x0 SWAP3 ADD SWAP2 SWAP1 SWAP2 MSTORE POP PUSH2 0x2037 SWAP3 POP POP POP JUMP JUMPDEST POP POP POP POP POP POP POP JUMP JUMPDEST PUSH1 0x2 DUP4 ADD SLOAD PUSH1 0x40 MLOAD PUSH32 0xF724DAD700000000000000000000000000000000000000000000000000000000 DUP2 MSTORE PUSH20 0xFFFFFFFFFFFFFFFFFFFFFFFFFFFFFFFFFFFFFFFF DUP5 DUP2 AND PUSH1 0x4 DUP4 ADD MSTORE PUSH1 0x24 DUP3 ADD DUP5 SWAP1 MSTORE PUSH1 0x60 SWAP3 AND SWAP1 PUSH4 0xF724DAD7 SWAP1 PUSH1 0x44 ADD PUSH1 0x0 PUSH1 0x40 MLOAD DUP1 DUP4 SUB DUP2 DUP7 GAS STATICCALL ISZERO DUP1 ISZERO PUSH2 0x1BC1 JUMPI RETURNDATASIZE PUSH1 0x0 DUP1 RETURNDATACOPY RETURNDATASIZE PUSH1 0x0 REVERT JUMPDEST POP POP POP POP PUSH1 0x40 MLOAD RETURNDATASIZE PUSH1 0x0 DUP3 RETURNDATACOPY PUSH1 0x1F RETURNDATASIZE SWAP1 DUP2 ADD PUSH32 0xFFFFFFFFFFFFFFFFFFFFFFFFFFFFFFFFFFFFFFFFFFFFFFFFFFFFFFFFFFFFFFE0 AND DUP3 ADD PUSH1 0x40 MSTORE PUSH2 0x16B1 SWAP2 SWAP1 DUP2 ADD SWAP1 PUSH2 0x29FD JUMP JUMPDEST PUSH1 0x0 DUP4 DUP2 MSTORE PUSH1 0x20 DUP6 DUP2 MSTORE PUSH1 0x40 DUP1 DUP4 KECCAK256 PUSH20 0xFFFFFFFFFFFFFFFFFFFFFFFFFFFFFFFFFFFFFFFF DUP7 AND DUP5 MSTORE SWAP1 SWAP2 MSTORE SWAP1 KECCAK256 SLOAD PUSH1 0xFF AND ISZERO PUSH2 0x51C JUMPI PUSH1 0x0 DUP4 DUP2 MSTORE PUSH1 0x20 DUP6 DUP2 MSTORE PUSH1 0x40 DUP1 DUP4 KECCAK256 PUSH20 0xFFFFFFFFFFFFFFFFFFFFFFFFFFFFFFFFFFFFFFFF DUP7 DUP2 AND DUP1 DUP7 MSTORE SWAP2 DUP5 MSTORE SWAP4 DUP3 SWAP1 KECCAK256 DUP1 SLOAD PUSH32 0xFFFFFFFFFFFFFFFFFFFFFFFFFFFFFFFFFFFFFFFFFFFFFFFFFFFFFFFFFFFFFF00 AND SWAP1 SSTORE DUP2 MLOAD DUP8 DUP2 MSTORE SWAP3 DUP4 ADD MSTORE SWAP2 DUP4 AND SWAP2 DUP2 ADD SWAP2 SWAP1 SWAP2 MSTORE PUSH32 0xF6391F5C32D9C69D2A47EA670B442974B53935D1EDC7FD64EB21E047A839171B SWAP1 PUSH1 0x60 ADD PUSH2 0x15FC JUMP JUMPDEST DUP3 SLOAD PUSH20 0xFFFFFFFFFFFFFFFFFFFFFFFFFFFFFFFFFFFFFFFF SWAP1 DUP2 AND SWAP1 DUP4 AND DUP2 EQ PUSH2 0x1D3E JUMPI PUSH1 0x40 MLOAD PUSH32 0x2EF4875E00000000000000000000000000000000000000000000000000000000 DUP2 MSTORE PUSH20 0xFFFFFFFFFFFFFFFFFFFFFFFFFFFFFFFFFFFFFFFF DUP5 AND PUSH1 0x4 DUP3 ADD MSTORE PUSH1 0x24 ADD PUSH2 0xD6B JUMP JUMPDEST DUP2 PUSH20 0xFFFFFFFFFFFFFFFFFFFFFFFFFFFFFFFFFFFFFFFF AND DUP2 PUSH20 0xFFFFFFFFFFFFFFFFFFFFFFFFFFFFFFFFFFFFFFFF AND EQ PUSH2 0x51C JUMPI DUP4 SLOAD PUSH32 0xFFFFFFFFFFFFFFFFFFFFFFFF0000000000000000000000000000000000000000 AND PUSH20 0xFFFFFFFFFFFFFFFFFFFFFFFFFFFFFFFFFFFFFFFF DUP4 DUP2 AND SWAP2 DUP3 OR DUP7 SSTORE PUSH1 0x40 MLOAD SWAP1 DUP4 AND SWAP1 PUSH32 0x8BE0079C531659141344CD1FD0A4F28419497F9722A3DAAFE3B4186F6B6457E0 SWAP1 PUSH1 0x0 SWAP1 LOG3 POP POP POP POP JUMP JUMPDEST PUSH1 0x60 DUP2 PUSH1 0x0 ADD DUP1 SLOAD PUSH2 0x1DF6 SWAP1 PUSH2 0x24EE JUMP JUMPDEST DUP1 PUSH1 0x1F ADD PUSH1 0x20 DUP1 SWAP2 DIV MUL PUSH1 0x20 ADD PUSH1 0x40 MLOAD SWAP1 DUP2 ADD PUSH1 0x40 MSTORE DUP1 SWAP3 SWAP2 SWAP1 DUP2 DUP2 MSTORE PUSH1 0x20 ADD DUP3 DUP1 SLOAD PUSH2 0x1E22 SWAP1 PUSH2 0x24EE JUMP JUMPDEST DUP1 ISZERO PUSH2 0x1E6F JUMPI DUP1 PUSH1 0x1F LT PUSH2 0x1E44 JUMPI PUSH2 0x100 DUP1 DUP4 SLOAD DIV MUL DUP4 MSTORE SWAP2 PUSH1 0x20 ADD SWAP2 PUSH2 0x1E6F JUMP JUMPDEST DUP3 ADD SWAP2 SWAP1 PUSH1 0x0 MSTORE PUSH1 0x20 PUSH1 0x0 KECCAK256 SWAP1 JUMPDEST DUP2 SLOAD DUP2 MSTORE SWAP1 PUSH1 0x1 ADD SWAP1 PUSH1 0x20 ADD DUP1 DUP4 GT PUSH2 0x1E52 JUMPI DUP3 SWAP1 SUB PUSH1 0x1F AND DUP3 ADD SWAP2 JUMPDEST POP POP POP POP POP SWAP1 POP SWAP2 SWAP1 POP JUMP JUMPDEST PUSH1 0x0 CALLER ORIGIN EQ DUP1 PUSH2 0x1E8B JUMPI POP PUSH1 0x18 CALLDATASIZE LT JUMPDEST ISZERO PUSH2 0x1E95 JUMPI POP CALLER SWAP1 JUMP JUMPDEST PUSH32 0xFFFFFFFFFFFFFFFFFFFFFFFFFFFFFFFFFFFFFFFFFFFFFFFFFFFFFFFFFFFFFFEC CALLDATASIZE ADD CALLDATALOAD PUSH1 0x60 SHR PUSH32 0x0 PUSH20 0xFFFFFFFFFFFFFFFFFFFFFFFFFFFFFFFFFFFFFFFF AND CALLER EQ DUP1 PUSH2 0x1FB1 JUMPI POP PUSH1 0x40 MLOAD PUSH32 0x8929A8CA00000000000000000000000000000000000000000000000000000000 DUP2 MSTORE PUSH20 0xFFFFFFFFFFFFFFFFFFFFFFFFFFFFFFFFFFFFFFFF DUP3 DUP2 AND PUSH1 0x4 DUP4 ADD MSTORE CALLER PUSH1 0x24 DUP4 ADD MSTORE PUSH32 0x0 AND SWAP1 PUSH4 0x8929A8CA SWAP1 PUSH1 0x44 ADD PUSH1 0x20 PUSH1 0x40 MLOAD DUP1 DUP4 SUB DUP2 DUP7 GAS STATICCALL ISZERO DUP1 ISZERO PUSH2 0x1F8D JUMPI RETURNDATASIZE PUSH1 0x0 DUP1 RETURNDATACOPY RETURNDATASIZE PUSH1 0x0 REVERT JUMPDEST POP POP POP POP PUSH1 0x40 MLOAD RETURNDATASIZE PUSH1 0x1F NOT PUSH1 0x1F DUP3 ADD AND DUP3 ADD DUP1 PUSH1 0x40 MSTORE POP DUP2 ADD SWAP1 PUSH2 0x1FB1 SWAP2 SWAP1 PUSH2 0x25D5 JUMP JUMPDEST ISZERO PUSH2 0x1FBB JUMPI SWAP2 SWAP1 POP JUMP JUMPDEST CALLER SWAP2 POP POP SWAP1 JUMP JUMPDEST PUSH1 0x0 DUP2 PUSH20 0xFFFFFFFFFFFFFFFFFFFFFFFFFFFFFFFFFFFFFFFF AND DUP4 PUSH20 0xFFFFFFFFFFFFFFFFFFFFFFFFFFFFFFFFFFFFFFFF AND EQ DUP1 PUSH2 0x16B1 JUMPI POP POP PUSH20 0xFFFFFFFFFFFFFFFFFFFFFFFFFFFFFFFFFFFFFFFF SWAP2 DUP3 AND PUSH1 0x0 SWAP1 DUP2 MSTORE PUSH1 0x3 SWAP4 SWAP1 SWAP4 ADD PUSH1 0x20 SWAP1 DUP2 MSTORE PUSH1 0x40 DUP1 DUP6 KECCAK256 SWAP3 SWAP1 SWAP4 AND DUP5 MSTORE MSTORE SWAP1 KECCAK256 SLOAD PUSH1 0xFF AND SWAP1 JUMP JUMPDEST PUSH1 0x40 MLOAD PUSH32 0x150B7A0200000000000000000000000000000000000000000000000000000000 DUP1 DUP3 MSTORE SWAP1 PUSH20 0xFFFFFFFFFFFFFFFFFFFFFFFFFFFFFFFFFFFFFFFF DUP6 AND SWAP1 PUSH4 0x150B7A02 SWAP1 PUSH2 0x2091 SWAP1 DUP10 SWAP1 DUP10 SWAP1 DUP9 SWAP1 DUP9 SWAP1 PUSH1 0x4 ADD PUSH2 0x2AC8 JUMP JUMPDEST PUSH1 0x20 PUSH1 0x40 MLOAD DUP1 DUP4 SUB DUP2 PUSH1 0x0 DUP8 GAS CALL ISZERO DUP1 ISZERO PUSH2 0x20B0 JUMPI RETURNDATASIZE PUSH1 0x0 DUP1 RETURNDATACOPY RETURNDATASIZE PUSH1 0x0 REVERT JUMPDEST POP POP POP POP PUSH1 0x40 MLOAD RETURNDATASIZE PUSH1 0x1F NOT PUSH1 0x1F DUP3 ADD AND DUP3 ADD DUP1 PUSH1 0x40 MSTORE POP DUP2 ADD SWAP1 PUSH2 0x20D4 SWAP2 SWAP1 PUSH2 0x2B11 JUMP JUMPDEST PUSH32 0xFFFFFFFF00000000000000000000000000000000000000000000000000000000 AND EQ PUSH2 0x970 JUMPI PUSH1 0x40 MLOAD PUSH32 0xC215A7A100000000000000000000000000000000000000000000000000000000 DUP2 MSTORE PUSH20 0xFFFFFFFFFFFFFFFFFFFFFFFFFFFFFFFFFFFFFFFF DUP5 AND PUSH1 0x4 DUP3 ADD MSTORE PUSH1 0x24 DUP2 ADD DUP4 SWAP1 MSTORE PUSH1 0x44 ADD PUSH2 0xD6B JUMP JUMPDEST PUSH1 0x60 DUP2 PUSH1 0x1 ADD DUP1 SLOAD PUSH2 0x1DF6 SWAP1 PUSH2 0x24EE JUMP JUMPDEST PUSH32 0xFFFFFFFF00000000000000000000000000000000000000000000000000000000 DUP2 AND DUP2 EQ PUSH2 0x9B4 JUMPI PUSH1 0x0 DUP1 REVERT JUMPDEST PUSH1 0x0 PUSH1 0x20 DUP3 DUP5 SUB SLT ISZERO PUSH2 0x219D JUMPI PUSH1 0x0 DUP1 REVERT JUMPDEST DUP2 CALLDATALOAD PUSH2 0xA22 DUP2 PUSH2 0x215D JUMP JUMPDEST PUSH1 0x0 JUMPDEST DUP4 DUP2 LT ISZERO PUSH2 0x21C3 JUMPI DUP2 DUP2 ADD MLOAD DUP4 DUP3 ADD MSTORE PUSH1 0x20 ADD PUSH2 0x21AB JUMP JUMPDEST POP POP PUSH1 0x0 SWAP2 ADD MSTORE JUMP JUMPDEST PUSH1 0x0 DUP2 MLOAD DUP1 DUP5 MSTORE PUSH2 0x21E4 DUP2 PUSH1 0x20 DUP7 ADD PUSH1 0x20 DUP7 ADD PUSH2 0x21A8 JUMP JUMPDEST PUSH1 0x1F ADD PUSH32 0xFFFFFFFFFFFFFFFFFFFFFFFFFFFFFFFFFFFFFFFFFFFFFFFFFFFFFFFFFFFFFFE0 AND SWAP3 SWAP1 SWAP3 ADD PUSH1 0x20 ADD SWAP3 SWAP2 POP POP JUMP JUMPDEST PUSH1 0x20 DUP2 MSTORE PUSH1 0x0 PUSH2 0xA22 PUSH1 0x20 DUP4 ADD DUP5 PUSH2 0x21CC JUMP JUMPDEST PUSH1 0x0 PUSH1 0x20 DUP3 DUP5 SUB SLT ISZERO PUSH2 0x223B JUMPI PUSH1 0x0 DUP1 REVERT JUMPDEST POP CALLDATALOAD SWAP2 SWAP1 POP JUMP JUMPDEST PUSH20 0xFFFFFFFFFFFFFFFFFFFFFFFFFFFFFFFFFFFFFFFF DUP2 AND DUP2 EQ PUSH2 0x9B4 JUMPI PUSH1 0x0 DUP1 REVERT JUMPDEST PUSH1 0x0 DUP1 PUSH1 0x40 DUP4 DUP6 SUB SLT ISZERO PUSH2 0x2277 JUMPI PUSH1 0x0 DUP1 REVERT JUMPDEST DUP3 CALLDATALOAD PUSH2 0x2282 DUP2 PUSH2 0x2242 JUMP JUMPDEST SWAP5 PUSH1 0x20 SWAP4 SWAP1 SWAP4 ADD CALLDATALOAD SWAP4 POP POP POP JUMP JUMPDEST PUSH1 0x0 DUP1 PUSH1 0x0 PUSH1 0x60 DUP5 DUP7 SUB SLT ISZERO PUSH2 0x22A5 JUMPI PUSH1 0x0 DUP1 REVERT JUMPDEST DUP4 CALLDATALOAD PUSH2 0x22B0 DUP2 PUSH2 0x2242 JUMP JUMPDEST SWAP3 POP PUSH1 0x20 DUP5 ADD CALLDATALOAD PUSH2 0x22C0 DUP2 PUSH2 0x2242 JUMP JUMPDEST SWAP3 SWAP6 SWAP3 SWAP5 POP POP POP PUSH1 0x40 SWAP2 SWAP1 SWAP2 ADD CALLDATALOAD SWAP1 JUMP JUMPDEST PUSH1 0x0 DUP1 PUSH1 0x40 DUP4 DUP6 SUB SLT ISZERO PUSH2 0x22E4 JUMPI PUSH1 0x0 DUP1 REVERT JUMPDEST DUP3 CALLDATALOAD SWAP2 POP PUSH1 0x20 DUP4 ADD CALLDATALOAD PUSH2 0x22F6 DUP2 PUSH2 0x2242 JUMP JUMPDEST DUP1 SWAP2 POP POP SWAP3 POP SWAP3 SWAP1 POP JUMP JUMPDEST PUSH2 0xFFFF DUP9 DUP2 AND DUP3 MSTORE DUP8 AND PUSH1 0x20 DUP3 ADD MSTORE PUSH8 0xFFFFFFFFFFFFFFFF DUP7 DUP2 AND PUSH1 0x40 DUP4 ADD MSTORE DUP6 DUP2 AND PUSH1 0x60 DUP4 ADD MSTORE DUP5 AND PUSH1 0x80 DUP3 ADD MSTORE PUSH1 0xE0 PUSH1 0xA0 DUP3 ADD DUP2 SWAP1 MSTORE PUSH1 0x0 SWAP1 PUSH2 0x2348 SWAP1 DUP4 ADD DUP6 PUSH2 0x21CC JUMP JUMPDEST DUP3 DUP2 SUB PUSH1 0xC0 DUP5 ADD MSTORE PUSH2 0x235A DUP2 DUP6 PUSH2 0x21CC JUMP JUMPDEST SWAP11 SWAP10 POP POP POP POP POP POP POP POP POP POP JUMP JUMPDEST PUSH1 0x0 DUP1 PUSH1 0x0 PUSH1 0x60 DUP5 DUP7 SUB SLT ISZERO PUSH2 0x237D JUMPI PUSH1 0x0 DUP1 REVERT JUMPDEST DUP4 CALLDATALOAD PUSH2 0x2388 DUP2 PUSH2 0x2242 JUMP JUMPDEST SWAP3 POP PUSH1 0x20 DUP5 ADD CALLDATALOAD SWAP2 POP PUSH1 0x40 DUP5 ADD CALLDATALOAD PUSH8 0xFFFFFFFFFFFFFFFF DUP2 GT ISZERO PUSH2 0x23AB JUMPI PUSH1 0x0 DUP1 REVERT JUMPDEST DUP5 ADD PUSH1 0xE0 DUP2 DUP8 SUB SLT ISZERO PUSH2 0x23BD JUMPI PUSH1 0x0 DUP1 REVERT JUMPDEST DUP1 SWAP2 POP POP SWAP3 POP SWAP3 POP SWAP3 JUMP JUMPDEST PUSH1 0x0 PUSH1 0x20 DUP3 DUP5 SUB SLT ISZERO PUSH2 0x23DA JUMPI PUSH1 0x0 DUP1 REVERT JUMPDEST DUP2 CALLDATALOAD PUSH2 0xA22 DUP2 PUSH2 0x2242 JUMP JUMPDEST DUP1 ISZERO ISZERO DUP2 EQ PUSH2 0x9B4 JUMPI PUSH1 0x0 DUP1 REVERT JUMPDEST PUSH1 0x0 DUP1 PUSH1 0x40 DUP4 DUP6 SUB SLT ISZERO PUSH2 0x2406 JUMPI PUSH1 0x0 DUP1 REVERT JUMPDEST DUP3 CALLDATALOAD PUSH2 0x2411 DUP2 PUSH2 0x2242 JUMP JUMPDEST SWAP2 POP PUSH1 0x20 DUP4 ADD CALLDATALOAD PUSH2 0x22F6 DUP2 PUSH2 0x23E5 JUMP JUMPDEST PUSH1 0x0 DUP1 PUSH1 0x0 DUP1 PUSH1 0x0 PUSH1 0x80 DUP7 DUP9 SUB SLT ISZERO PUSH2 0x2439 JUMPI PUSH1 0x0 DUP1 REVERT JUMPDEST DUP6 CALLDATALOAD PUSH2 0x2444 DUP2 PUSH2 0x2242 JUMP JUMPDEST SWAP5 POP PUSH1 0x20 DUP7 ADD CALLDATALOAD PUSH2 0x2454 DUP2 PUSH2 0x2242 JUMP JUMPDEST SWAP4 POP PUSH1 0x40 DUP7 ADD CALLDATALOAD SWAP3 POP PUSH1 0x60 DUP7 ADD CALLDATALOAD PUSH8 0xFFFFFFFFFFFFFFFF DUP1 DUP3 GT ISZERO PUSH2 0x2478 JUMPI PUSH1 0x0 DUP1 REVERT JUMPDEST DUP2 DUP9 ADD SWAP2 POP DUP9 PUSH1 0x1F DUP4 ADD SLT PUSH2 0x248C JUMPI PUSH1 0x0 DUP1 REVERT JUMPDEST DUP2 CALLDATALOAD DUP2 DUP2 GT ISZERO PUSH2 0x249B JUMPI PUSH1 0x0 DUP1 REVERT JUMPDEST DUP10 PUSH1 0x20 DUP3 DUP6 ADD ADD GT ISZERO PUSH2 0x24AD JUMPI PUSH1 0x0 DUP1 REVERT JUMPDEST SWAP7 SWAP10 SWAP6 SWAP9 POP SWAP4 SWAP7 POP PUSH1 0x20 ADD SWAP5 SWAP4 SWAP3 POP POP POP JUMP JUMPDEST PUSH1 0x0 DUP1 PUSH1 0x40 DUP4 DUP6 SUB SLT ISZERO PUSH2 0x24D3 JUMPI PUSH1 0x0 DUP1 REVERT JUMPDEST DUP3 CALLDATALOAD PUSH2 0x24DE DUP2 PUSH2 0x2242 JUMP JUMPDEST SWAP2 POP PUSH1 0x20 DUP4 ADD CALLDATALOAD PUSH2 0x22F6 DUP2 PUSH2 0x2242 JUMP JUMPDEST PUSH1 0x1 DUP2 DUP2 SHR SWAP1 DUP3 AND DUP1 PUSH2 0x2502 JUMPI PUSH1 0x7F DUP3 AND SWAP2 POP JUMPDEST PUSH1 0x20 DUP3 LT DUP2 SUB PUSH2 0x253B JUMPI PUSH32 0x4E487B7100000000000000000000000000000000000000000000000000000000 PUSH1 0x0 MSTORE PUSH1 0x22 PUSH1 0x4 MSTORE PUSH1 0x24 PUSH1 0x0 REVERT JUMPDEST POP SWAP2 SWAP1 POP JUMP JUMPDEST PUSH1 0x0 DUP1 DUP4 SLOAD PUSH2 0x254F DUP2 PUSH2 0x24EE JUMP JUMPDEST PUSH1 0x1 DUP3 DUP2 AND DUP1 ISZERO PUSH2 0x2567 JUMPI PUSH1 0x1 DUP2 EQ PUSH2 0x259A JUMPI PUSH2 0x25C9 JUMP JUMPDEST PUSH32 0xFFFFFFFFFFFFFFFFFFFFFFFFFFFFFFFFFFFFFFFFFFFFFFFFFFFFFFFFFFFFFF00 DUP5 AND DUP8 MSTORE DUP3 ISZERO ISZERO DUP4 MUL DUP8 ADD SWAP5 POP PUSH2 0x25C9 JUMP JUMPDEST DUP8 PUSH1 0x0 MSTORE PUSH1 0x20 DUP1 PUSH1 0x0 KECCAK256 PUSH1 0x0 JUMPDEST DUP6 DUP2 LT ISZERO PUSH2 0x25C0 JUMPI DUP2 SLOAD DUP11 DUP3 ADD MSTORE SWAP1 DUP5 ADD SWAP1 DUP3 ADD PUSH2 0x25A7 JUMP JUMPDEST POP POP POP DUP3 DUP8 ADD SWAP5 POP JUMPDEST POP SWAP3 SWAP7 SWAP6 POP POP POP POP POP POP JUMP JUMPDEST PUSH1 0x0 PUSH1 0x20 DUP3 DUP5 SUB SLT ISZERO PUSH2 0x25E7 JUMPI PUSH1 0x0 DUP1 REVERT JUMPDEST DUP2 MLOAD PUSH2 0xA22 DUP2 PUSH2 0x23E5 JUMP JUMPDEST PUSH1 0x0 DUP2 CALLDATALOAD PUSH2 0xFFFF DUP2 AND DUP2 EQ PUSH2 0x4A4 JUMPI PUSH1 0x0 DUP1 REVERT JUMPDEST PUSH1 0x0 DUP2 CALLDATALOAD PUSH8 0xFFFFFFFFFFFFFFFF DUP2 AND DUP2 EQ PUSH2 0x4A4 JUMPI PUSH1 0x0 DUP1 REVERT JUMPDEST PUSH1 0x0 DUP1 DUP4 CALLDATALOAD PUSH32 0xFFFFFFFFFFFFFFFFFFFFFFFFFFFFFFFFFFFFFFFFFFFFFFFFFFFFFFFFFFFFFFE1 DUP5 CALLDATASIZE SUB ADD DUP2 SLT PUSH2 0x2655 JUMPI PUSH1 0x0 DUP1 REVERT JUMPDEST DUP4 ADD DUP1 CALLDATALOAD SWAP2 POP PUSH8 0xFFFFFFFFFFFFFFFF DUP3 GT ISZERO PUSH2 0x2670 JUMPI PUSH1 0x0 DUP1 REVERT JUMPDEST PUSH1 0x20 ADD SWAP2 POP CALLDATASIZE DUP2 SWAP1 SUB DUP3 SGT ISZERO PUSH2 0x2685 JUMPI PUSH1 0x0 DUP1 REVERT JUMPDEST SWAP3 POP SWAP3 SWAP1 POP JUMP JUMPDEST PUSH32 0x4E487B7100000000000000000000000000000000000000000000000000000000 PUSH1 0x0 MSTORE PUSH1 0x41 PUSH1 0x4 MSTORE PUSH1 0x24 PUSH1 0x0 REVERT JUMPDEST PUSH1 0x1F DUP3 GT ISZERO PUSH2 0x556 JUMPI PUSH1 0x0 DUP2 PUSH1 0x0 MSTORE PUSH1 0x20 PUSH1 0x0 KECCAK256 PUSH1 0x1F DUP6 ADD PUSH1 0x5 SHR DUP2 ADD PUSH1 0x20 DUP7 LT ISZERO PUSH2 0x26E4 JUMPI POP DUP1 JUMPDEST PUSH1 0x1F DUP6 ADD PUSH1 0x5 SHR DUP3 ADD SWAP2 POP JUMPDEST DUP2 DUP2 LT ISZERO PUSH2 0xB06 JUMPI DUP3 DUP2 SSTORE PUSH1 0x1 ADD PUSH2 0x26F0 JUMP JUMPDEST PUSH8 0xFFFFFFFFFFFFFFFF DUP4 GT ISZERO PUSH2 0x271B JUMPI PUSH2 0x271B PUSH2 0x268C JUMP JUMPDEST PUSH2 0x272F DUP4 PUSH2 0x2729 DUP4 SLOAD PUSH2 0x24EE JUMP JUMPDEST DUP4 PUSH2 0x26BB JUMP JUMPDEST PUSH1 0x0 PUSH1 0x1F DUP5 GT PUSH1 0x1 DUP2 EQ PUSH2 0x2781 JUMPI PUSH1 0x0 DUP6 ISZERO PUSH2 0x274B JUMPI POP DUP4 DUP3 ADD CALLDATALOAD JUMPDEST PUSH32 0xFFFFFFFFFFFFFFFFFFFFFFFFFFFFFFFFFFFFFFFFFFFFFFFFFFFFFFFFFFFFFFFF PUSH1 0x3 DUP8 SWAP1 SHL SHR NOT AND PUSH1 0x1 DUP7 SWAP1 SHL OR DUP4 SSTORE PUSH2 0x970 JUMP JUMPDEST PUSH1 0x0 DUP4 DUP2 MSTORE PUSH1 0x20 SWAP1 KECCAK256 PUSH32 0xFFFFFFFFFFFFFFFFFFFFFFFFFFFFFFFFFFFFFFFFFFFFFFFFFFFFFFFFFFFFFFE0 DUP7 AND SWAP1 DUP4 JUMPDEST DUP3 DUP2 LT ISZERO PUSH2 0x27D0 JUMPI DUP7 DUP6 ADD CALLDATALOAD DUP3 SSTORE PUSH1 0x20 SWAP5 DUP6 ADD SWAP5 PUSH1 0x1 SWAP1 SWAP3 ADD SWAP2 ADD PUSH2 0x27B0 JUMP JUMPDEST POP DUP7 DUP3 LT ISZERO PUSH2 0x280B JUMPI PUSH32 0xFFFFFFFFFFFFFFFFFFFFFFFFFFFFFFFFFFFFFFFFFFFFFFFFFFFFFFFFFFFFFFFF PUSH1 0xF8 DUP9 PUSH1 0x3 SHL AND SHR NOT DUP5 DUP8 ADD CALLDATALOAD AND DUP2 SSTORE JUMPDEST POP POP PUSH1 0x1 DUP6 PUSH1 0x1 SHL ADD DUP4 SSTORE POP POP POP POP POP JUMP JUMPDEST PUSH2 0xFFFF PUSH2 0x2829 DUP4 PUSH2 0x25F2 JUMP JUMPDEST AND DUP2 SLOAD DUP2 PUSH32 0xFFFFFFFFFFFFFFFFFFFFFFFFFFFFFFFFFFFFFFFFFFFFFFFFFFFFFFFFFFFF0000 DUP3 AND OR DUP4 SSTORE PUSH4 0xFFFF0000 PUSH2 0x2864 PUSH1 0x20 DUP7 ADD PUSH2 0x25F2 JUMP JUMPDEST PUSH1 0x10 SHL AND DUP1 DUP4 PUSH32 0xFFFFFFFFFFFFFFFFFFFFFFFFFFFFFFFFFFFFFFFFFFFFFFFFFFFFFFFF00000000 DUP5 AND OR OR DUP5 SSTORE PUSH12 0xFFFFFFFFFFFFFFFF00000000 PUSH2 0x28AA PUSH1 0x40 DUP8 ADD PUSH2 0x2606 JUMP JUMPDEST PUSH1 0x20 SHL AND DUP4 PUSH32 0xFFFFFFFFFFFFFFFFFFFFFFFFFFFFFFFFFFFFFFFF000000000000000000000000 DUP5 AND OR DUP3 OR OR DUP5 SSTORE POP POP POP PUSH2 0x292F PUSH2 0x28EA PUSH1 0x60 DUP5 ADD PUSH2 0x2606 JUMP JUMPDEST DUP3 SLOAD PUSH32 0xFFFFFFFFFFFFFFFFFFFFFFFF0000000000000000FFFFFFFFFFFFFFFFFFFFFFFF AND PUSH1 0x60 SWAP2 SWAP1 SWAP2 SHL PUSH20 0xFFFFFFFFFFFFFFFF000000000000000000000000 AND OR DUP3 SSTORE JUMP JUMPDEST PUSH2 0x298B PUSH2 0x293E PUSH1 0x80 DUP5 ADD PUSH2 0x2606 JUMP JUMPDEST DUP3 SLOAD PUSH32 0xFFFFFFFF0000000000000000FFFFFFFFFFFFFFFFFFFFFFFFFFFFFFFFFFFFFFFF AND PUSH1 0xA0 SWAP2 SWAP1 SWAP2 SHL PUSH28 0xFFFFFFFFFFFFFFFF0000000000000000000000000000000000000000 AND OR DUP3 SSTORE JUMP JUMPDEST PUSH2 0x2998 PUSH1 0xA0 DUP4 ADD DUP4 PUSH2 0x2620 JUMP JUMPDEST PUSH2 0x29A6 DUP2 DUP4 PUSH1 0x1 DUP7 ADD PUSH2 0x2703 JUMP JUMPDEST POP POP PUSH2 0x29B5 PUSH1 0xC0 DUP4 ADD DUP4 PUSH2 0x2620 JUMP JUMPDEST PUSH2 0x51C DUP2 DUP4 PUSH1 0x2 DUP7 ADD PUSH2 0x2703 JUMP JUMPDEST DUP2 DUP2 SUB DUP2 DUP2 GT ISZERO PUSH2 0x4A4 JUMPI PUSH32 0x4E487B7100000000000000000000000000000000000000000000000000000000 PUSH1 0x0 MSTORE PUSH1 0x11 PUSH1 0x4 MSTORE PUSH1 0x24 PUSH1 0x0 REVERT JUMPDEST PUSH1 0x0 PUSH1 0x20 DUP3 DUP5 SUB SLT ISZERO PUSH2 0x2A0F JUMPI PUSH1 0x0 DUP1 REVERT JUMPDEST DUP2 MLOAD PUSH8 0xFFFFFFFFFFFFFFFF DUP1 DUP3 GT ISZERO PUSH2 0x2A27 JUMPI PUSH1 0x0 DUP1 REVERT JUMPDEST DUP2 DUP5 ADD SWAP2 POP DUP5 PUSH1 0x1F DUP4 ADD SLT PUSH2 0x2A3B JUMPI PUSH1 0x0 DUP1 REVERT JUMPDEST DUP2 MLOAD DUP2 DUP2 GT ISZERO PUSH2 0x2A4D JUMPI PUSH2 0x2A4D PUSH2 0x268C JUMP JUMPDEST PUSH1 0x40 MLOAD PUSH1 0x1F DUP3 ADD PUSH32 0xFFFFFFFFFFFFFFFFFFFFFFFFFFFFFFFFFFFFFFFFFFFFFFFFFFFFFFFFFFFFFFE0 SWAP1 DUP2 AND PUSH1 0x3F ADD AND DUP2 ADD SWAP1 DUP4 DUP3 GT DUP2 DUP4 LT OR ISZERO PUSH2 0x2A93 JUMPI PUSH2 0x2A93 PUSH2 0x268C JUMP JUMPDEST DUP2 PUSH1 0x40 MSTORE DUP3 DUP2 MSTORE DUP8 PUSH1 0x20 DUP5 DUP8 ADD ADD GT ISZERO PUSH2 0x2AAC JUMPI PUSH1 0x0 DUP1 REVERT JUMPDEST PUSH2 0x2ABD DUP4 PUSH1 0x20 DUP4 ADD PUSH1 0x20 DUP9 ADD PUSH2 0x21A8 JUMP JUMPDEST SWAP8 SWAP7 POP POP POP POP POP POP POP JUMP JUMPDEST PUSH1 0x0 PUSH20 0xFFFFFFFFFFFFFFFFFFFFFFFFFFFFFFFFFFFFFFFF DUP1 DUP8 AND DUP4 MSTORE DUP1 DUP7 AND PUSH1 0x20 DUP5 ADD MSTORE POP DUP4 PUSH1 0x40 DUP4 ADD MSTORE PUSH1 0x80 PUSH1 0x60 DUP4 ADD MSTORE PUSH2 0x2B07 PUSH1 0x80 DUP4 ADD DUP5 PUSH2 0x21CC JUMP JUMPDEST SWAP7 SWAP6 POP POP POP POP POP POP JUMP JUMPDEST PUSH1 0x0 PUSH1 0x20 DUP3 DUP5 SUB SLT ISZERO PUSH2 0x2B23 JUMPI PUSH1 0x0 DUP1 REVERT JUMPDEST DUP2 MLOAD PUSH2 0xA22 DUP2 PUSH2 0x215D JUMP INVALID LOG2 PUSH5 0x6970667358 0x22 SLT KECCAK256 SWAP7 DUP15 CALLVALUE CALLCODE PREVRANDAO 0xAD 0xE7 PUSH0 0xEB 0xA9 SUB 0xA7 LOG1 SWAP10 0xBB CALLCODE 0xD NOT 0x27 0xB1 0x2F 0xED 0xE1 0xBB 0xE0 MOD 0x25 SWAP14 0xA8 0xFB 0x27 0x29 PUSH5 0x736F6C6343 STOP ADDMOD AND STOP CALLER "},"gasEstimates":{"creation":{"codeDepositCost":"2221600","executionCost":"infinite","totalCost":"infinite"},"external":{"MINTER_ROLE()":"284","OPERATOR_ROLE()":"305","approve(address,uint256)":"infinite","balanceOf(address)":"infinite","burn(uint256)":"infinite","forwarderRegistry()":"infinite","getApproved(uint256)":"infinite","grantRole(bytes32,address)":"infinite","hasRole(bytes32,address)":"infinite","isApprovedForAll(address,address)":"infinite","isTrustedForwarder(address)":"infinite","metadataResolver()":"infinite","mint(address,uint256,(uint16,uint16,uint64,uint64,uint64,string,string))":"infinite","name()":"infinite","owner()":"infinite","ownerOf(uint256)":"infinite","renounceRole(bytes32)":"infinite","revokeRole(bytes32,address)":"infinite","safeTransferFrom(address,address,uint256)":"infinite","safeTransferFrom(address,address,uint256,bytes)":"infinite","setApprovalForAll(address,bool)":"infinite","setRevocationRegistry(address)":"infinite","supportsInterface(bytes4)":"infinite","symbol()":"infinite","tokenURI(uint256)":"infinite","transferFrom(address,address,uint256)":"infinite","transferOwnership(address)":"infinite","vcData(uint256)":"infinite"},"internal":{"_isSenderOperatable(address,uint256)":"infinite","_msgData()":"infinite","_msgSender()":"infinite"}},"methodIdentifiers":{"MINTER_ROLE()":"d5391393","OPERATOR_ROLE()":"f5b541a6","approve(address,uint256)":"095ea7b3","balanceOf(address)":"70a08231","burn(uint256)":"42966c68","forwarderRegistry()":"2b4c9f16","getApproved(uint256)":"081812fc","grantRole(bytes32,address)":"2f2ff15d","hasRole(bytes32,address)":"91d14854","isApprovedForAll(address,address)":"e985e9c5","isTrustedForwarder(address)":"572b6c05","metadataResolver()":"a0c76f62","mint(address,uint256,(uint16,uint16,uint64,uint64,uint64,string,string))":"54c7be06","name()":"06fdde03","owner()":"8da5cb5b","ownerOf(uint256)":"6352211e","renounceRole(bytes32)":"8bb9c5bf","revokeRole(bytes32,address)":"d547741f","safeTransferFrom(address,address,uint256)":"42842e0e","safeTransferFrom(address,address,uint256,bytes)":"b88d4fde","setApprovalForAll(address,bool)":"a22cb465","setRevocationRegistry(address)":"95f94bc4","supportsInterface(bytes4)":"01ffc9a7","symbol()":"95d89b41","tokenURI(uint256)":"c87b56dd","transferFrom(address,address,uint256)":"23b872dd","transferOwnership(address)":"f2fde38b","vcData(uint256)":"4bae2be8"}},"storageLayout":{"storage":[{"astId":4484,"contract":"contracts/vc/OpenCampusCertificateNFTv1.sol:OpenCampusCertificateNFTv1","label":"_revocationRegistry","offset":0,"slot":"0","type":"t_contract(IRevocationRegistry)5000"},{"astId":4500,"contract":"contracts/vc/OpenCampusCertificateNFTv1.sol:OpenCampusCertificateNFTv1","label":"vcData","offset":0,"slot":"1","type":"t_mapping(t_uint256,t_struct(MetaData)5017_storage)"}],"types":{"t_contract(IRevocationRegistry)5000":{"encoding":"inplace","label":"contract IRevocationRegistry","numberOfBytes":"20"},"t_mapping(t_uint256,t_struct(MetaData)5017_storage)":{"encoding":"mapping","key":"t_uint256","label":"mapping(uint256 => struct CertificateNFTv1MetaData.MetaData)","numberOfBytes":"32","value":"t_struct(MetaData)5017_storage"},"t_string_storage":{"encoding":"bytes","label":"string","numberOfBytes":"32"},"t_struct(MetaData)5017_storage":{"encoding":"inplace","label":"struct CertificateNFTv1MetaData.MetaData","members":[{"astId":5004,"contract":"contracts/vc/OpenCampusCertificateNFTv1.sol:OpenCampusCertificateNFTv1","label":"schemaVersion","offset":0,"slot":"0","type":"t_uint16"},{"astId":5006,"contract":"contracts/vc/OpenCampusCertificateNFTv1.sol:OpenCampusCertificateNFTv1","label":"achievementType","offset":2,"slot":"0","type":"t_uint16"},{"astId":5008,"contract":"contracts/vc/OpenCampusCertificateNFTv1.sol:OpenCampusCertificateNFTv1","label":"awardedDate","offset":4,"slot":"0","type":"t_uint64"},{"astId":5010,"contract":"contracts/vc/OpenCampusCertificateNFTv1.sol:OpenCampusCertificateNFTv1","label":"validFrom","offset":12,"slot":"0","type":"t_uint64"},{"astId":5012,"contract":"contracts/vc/OpenCampusCertificateNFTv1.sol:OpenCampusCertificateNFTv1","label":"validUtil","offset":20,"slot":"0","type":"t_uint64"},{"astId":5014,"contract":"contracts/vc/OpenCampusCertificateNFTv1.sol:OpenCampusCertificateNFTv1","label":"issuerDid","offset":0,"slot":"1","type":"t_string_storage"},{"astId":5016,"contract":"contracts/vc/OpenCampusCertificateNFTv1.sol:OpenCampusCertificateNFTv1","label":"achievementId","offset":0,"slot":"2","type":"t_string_storage"}],"numberOfBytes":"96"},"t_uint16":{"encoding":"inplace","label":"uint16","numberOfBytes":"2"},"t_uint256":{"encoding":"inplace","label":"uint256","numberOfBytes":"32"},"t_uint64":{"encoding":"inplace","label":"uint64","numberOfBytes":"8"}}},"userdoc":{"errors":{"ERC721BalanceOfAddressZero()":[{"notice":"Thrown when querying the balance of the zero address."}],"ERC721ExistingToken(uint256)":[{"notice":"Thrown when minting a token that already exists."}],"ERC721MintToAddressZero()":[{"notice":"Thrown when minting a token to the zero address."}],"ERC721NonApprovedForApproval(address,address,uint256)":[{"notice":"Thrown when a sender tries to set a token approval but is neither the owner nor approvedForAll by the owner."}],"ERC721NonApprovedForTransfer(address,address,uint256)":[{"notice":"Thrown when a sender tries to transfer a token but is neither the owner nor approved by the owner."}],"ERC721NonExistingToken(uint256)":[{"notice":"Thrown when a token does not exist but is required to."}],"ERC721NonOwnedToken(address,uint256)":[{"notice":"Thrown when a token is not owned by the expected account."}],"ERC721SafeTransferRejected(address,uint256)":[{"notice":"Thrown when a safe transfer is rejected by the recipient contract."}],"ERC721SelfApproval(address)":[{"notice":"Thrown when trying to approve oneself."}],"ERC721SelfApprovalForAll(address)":[{"notice":"Thrown when trying to approveForAll oneself."}],"ERC721TransferToAddressZero()":[{"notice":"Thrown when transferring a token to the zero address."}],"IllegalInterfaceId()":[{"notice":"Thrown when setting the illegal interfaceId 0xffffffff."}],"InvalidBurn()":[{"notice":"Thrown when burn operation cannot be executed."}],"NotContractOwner(address)":[{"notice":"Thrown when an account is not the contract owner but is required to."}],"NotRoleHolder(bytes32,address)":[{"notice":"Thrown when an account does not have the required role."}]},"events":{"Approval(address,address,uint256)":{"notice":"Emitted when a single token approval is set."},"ApprovalForAll(address,address,bool)":{"notice":"Emitted when an approval for all tokens is set or unset."},"OwnershipTransferred(address,address)":{"notice":"Emitted when the contract ownership changes."},"RoleGranted(bytes32,address,address)":{"notice":"Emitted when `role` is granted to `account`."},"RoleRevoked(bytes32,address,address)":{"notice":"Emitted when `role` is revoked from `account`."},"Transfer(address,address,uint256)":{"notice":"Emitted when a token is transferred."}},"kind":"user","methods":{"approve(address,uint256)":{"notice":"Sets or unsets an approval to transfer a single token on behalf of its owner."},"balanceOf(address)":{"notice":"Gets the balance of an address."},"getApproved(uint256)":{"notice":"Gets the approved address for a token."},"grantRole(bytes32,address)":{"notice":"Grants a role to an account."},"hasRole(bytes32,address)":{"notice":"Retrieves whether an account has a role."},"isApprovedForAll(address,address)":{"notice":"Gets whether an operator is approved for all tokens by an owner."},"isTrustedForwarder(address)":{"notice":"Checks whether a forwarder is trusted."},"metadataResolver()":{"notice":"Gets the token metadata resolver address."},"name()":{"notice":"Gets the name of the token. E.g. \"My Token\"."},"owner()":{"notice":"Gets the address of the contract owner."},"ownerOf(uint256)":{"notice":"Gets the owner of a token."},"renounceRole(bytes32)":{"notice":"Renounces a role by the sender."},"revokeRole(bytes32,address)":{"notice":"Revokes a role from an account."},"safeTransferFrom(address,address,uint256)":{"notice":"after using `_isSenderOperatable` to validate sender's ability to be a valid operator, perform standard ERC721 safeTransferFrom"},"safeTransferFrom(address,address,uint256,bytes)":{"notice":"after using `_isSenderOperatable` to validate sender's ability to be a valid operator, perform standard ERC721 safeTransferFrom"},"setApprovalForAll(address,bool)":{"notice":"Sets or unsets an approval to transfer all tokens on behalf of their owner."},"supportsInterface(bytes4)":{"notice":"Returns whether this contract implements a given interface."},"symbol()":{"notice":"Gets the symbol of the token. E.g. \"TOK\"."},"tokenURI(uint256)":{"notice":"Gets the metadata URI for a token identifier."},"transferFrom(address,address,uint256)":{"notice":"after using `_isSenderOperatable` to validate sender's ability to be a valid operator, perform standard ERC721 transferFrom"},"transferOwnership(address)":{"notice":"Sets the address of the new contract owner."}},"version":1}}}}