{"contracts/mocks/vc/OpenCampusCertificateNFTv1Mock.sol":{"OpenCampusCertificateNFTv1Mock":{"abi":[{"inputs":[{"internalType":"string","name":"tokenName","type":"string"},{"internalType":"string","name":"tokenSymbol","type":"string"},{"internalType":"contract IForwarderRegistry","name":"forwarderRegistry","type":"address"},{"internalType":"contract ITokenMetadataResolver","name":"metadataResolver","type":"address"},{"internalType":"contract IRevocationRegistry","name":"revocationRegistry","type":"address"},{"internalType":"contract IIssuersDIDRegistry","name":"didRegistry","type":"address"}],"stateMutability":"nonpayable","type":"constructor"},{"inputs":[],"name":"ERC721BalanceOfAddressZero","type":"error"},{"inputs":[{"internalType":"uint256","name":"tokenId","type":"uint256"}],"name":"ERC721ExistingToken","type":"error"},{"inputs":[],"name":"ERC721MintToAddressZero","type":"error"},{"inputs":[{"internalType":"address","name":"sender","type":"address"},{"internalType":"address","name":"owner","type":"address"},{"internalType":"uint256","name":"tokenId","type":"uint256"}],"name":"ERC721NonApprovedForApproval","type":"error"},{"inputs":[{"internalType":"address","name":"sender","type":"address"},{"internalType":"address","name":"owner","type":"address"},{"internalType":"uint256","name":"tokenId","type":"uint256"}],"name":"ERC721NonApprovedForTransfer","type":"error"},{"inputs":[{"internalType":"uint256","name":"tokenId","type":"uint256"}],"name":"ERC721NonExistingToken","type":"error"},{"inputs":[{"internalType":"address","name":"account","type":"address"},{"internalType":"uint256","name":"tokenId","type":"uint256"}],"name":"ERC721NonOwnedToken","type":"error"},{"inputs":[{"internalType":"address","name":"recipient","type":"address"},{"internalType":"uint256","name":"tokenId","type":"uint256"}],"name":"ERC721SafeTransferRejected","type":"error"},{"inputs":[{"internalType":"address","name":"account","type":"address"}],"name":"ERC721SelfApproval","type":"error"},{"inputs":[{"internalType":"address","name":"account","type":"address"}],"name":"ERC721SelfApprovalForAll","type":"error"},{"inputs":[],"name":"ERC721TransferToAddressZero","type":"error"},{"inputs":[],"name":"IllegalInterfaceId","type":"error"},{"inputs":[],"name":"InvalidBurn","type":"error"},{"inputs":[{"internalType":"address","name":"account","type":"address"}],"name":"NotContractOwner","type":"error"},{"inputs":[{"internalType":"bytes32","name":"role","type":"bytes32"},{"internalType":"address","name":"account","type":"address"}],"name":"NotRoleHolder","type":"error"},{"anonymous":false,"inputs":[{"indexed":true,"internalType":"address","name":"owner","type":"address"},{"indexed":true,"internalType":"address","name":"approved","type":"address"},{"indexed":true,"internalType":"uint256","name":"tokenId","type":"uint256"}],"name":"Approval","type":"event"},{"anonymous":false,"inputs":[{"indexed":true,"internalType":"address","name":"owner","type":"address"},{"indexed":true,"internalType":"address","name":"operator","type":"address"},{"indexed":false,"internalType":"bool","name":"approved","type":"bool"}],"name":"ApprovalForAll","type":"event"},{"anonymous":false,"inputs":[{"indexed":true,"internalType":"address","name":"previousOwner","type":"address"},{"indexed":true,"internalType":"address","name":"newOwner","type":"address"}],"name":"OwnershipTransferred","type":"event"},{"anonymous":false,"inputs":[{"indexed":false,"internalType":"bytes32","name":"role","type":"bytes32"},{"indexed":false,"internalType":"address","name":"account","type":"address"},{"indexed":false,"internalType":"address","name":"operator","type":"address"}],"name":"RoleGranted","type":"event"},{"anonymous":false,"inputs":[{"indexed":false,"internalType":"bytes32","name":"role","type":"bytes32"},{"indexed":false,"internalType":"address","name":"account","type":"address"},{"indexed":false,"internalType":"address","name":"operator","type":"address"}],"name":"RoleRevoked","type":"event"},{"anonymous":false,"inputs":[{"indexed":true,"internalType":"address","name":"from","type":"address"},{"indexed":true,"internalType":"address","name":"to","type":"address"},{"indexed":true,"internalType":"uint256","name":"tokenId","type":"uint256"}],"name":"Transfer","type":"event"},{"inputs":[],"name":"MINTER_ROLE","outputs":[{"internalType":"bytes32","name":"","type":"bytes32"}],"stateMutability":"view","type":"function"},{"inputs":[],"name":"OPERATOR_ROLE","outputs":[{"internalType":"bytes32","name":"","type":"bytes32"}],"stateMutability":"view","type":"function"},{"inputs":[],"name":"__msgData","outputs":[{"internalType":"bytes","name":"","type":"bytes"}],"stateMutability":"view","type":"function"},{"inputs":[{"internalType":"address","name":"to","type":"address"},{"internalType":"uint256","name":"tokenId","type":"uint256"}],"name":"approve","outputs":[],"stateMutability":"nonpayable","type":"function"},{"inputs":[{"internalType":"address","name":"owner","type":"address"}],"name":"balanceOf","outputs":[{"internalType":"uint256","name":"balance","type":"uint256"}],"stateMutability":"view","type":"function"},{"inputs":[{"internalType":"uint256","name":"tokenId","type":"uint256"}],"name":"burn","outputs":[],"stateMutability":"nonpayable","type":"function"},{"inputs":[],"name":"forwarderRegistry","outputs":[{"internalType":"contract IForwarderRegistry","name":"","type":"address"}],"stateMutability":"view","type":"function"},{"inputs":[{"internalType":"uint256","name":"tokenId","type":"uint256"}],"name":"getApproved","outputs":[{"internalType":"address","name":"approved","type":"address"}],"stateMutability":"view","type":"function"},{"inputs":[{"internalType":"bytes32","name":"role","type":"bytes32"},{"internalType":"address","name":"account","type":"address"}],"name":"grantRole","outputs":[],"stateMutability":"nonpayable","type":"function"},{"inputs":[{"internalType":"bytes32","name":"role","type":"bytes32"},{"internalType":"address","name":"account","type":"address"}],"name":"hasRole","outputs":[{"internalType":"bool","name":"hasRole_","type":"bool"}],"stateMutability":"view","type":"function"},{"inputs":[{"internalType":"address","name":"owner","type":"address"},{"internalType":"address","name":"operator","type":"address"}],"name":"isApprovedForAll","outputs":[{"internalType":"bool","name":"approvedForAll","type":"bool"}],"stateMutability":"view","type":"function"},{"inputs":[{"internalType":"address","name":"forwarder","type":"address"}],"name":"isTrustedForwarder","outputs":[{"internalType":"bool","name":"","type":"bool"}],"stateMutability":"view","type":"function"},{"inputs":[],"name":"metadataResolver","outputs":[{"internalType":"contract ITokenMetadataResolver","name":"tokenMetadataResolver","type":"address"}],"stateMutability":"view","type":"function"},{"inputs":[{"internalType":"address","name":"to","type":"address"},{"internalType":"uint256","name":"tokenId","type":"uint256"},{"components":[{"internalType":"uint16","name":"schemaVersion","type":"uint16"},{"internalType":"uint16","name":"achievementType","type":"uint16"},{"internalType":"uint64","name":"awardedDate","type":"uint64"},{"internalType":"uint64","name":"validFrom","type":"uint64"},{"internalType":"uint64","name":"validUtil","type":"uint64"},{"internalType":"string","name":"issuerDid","type":"string"},{"internalType":"string","name":"achievementId","type":"string"}],"internalType":"struct CertificateNFTv1MetaData.MetaData","name":"metadata","type":"tuple"}],"name":"mint","outputs":[],"stateMutability":"nonpayable","type":"function"},{"inputs":[],"name":"name","outputs":[{"internalType":"string","name":"tokenName","type":"string"}],"stateMutability":"view","type":"function"},{"inputs":[],"name":"owner","outputs":[{"internalType":"address","name":"","type":"address"}],"stateMutability":"view","type":"function"},{"inputs":[{"internalType":"uint256","name":"tokenId","type":"uint256"}],"name":"ownerOf","outputs":[{"internalType":"address","name":"tokenOwner","type":"address"}],"stateMutability":"view","type":"function"},{"inputs":[{"internalType":"bytes32","name":"role","type":"bytes32"}],"name":"renounceRole","outputs":[],"stateMutability":"nonpayable","type":"function"},{"inputs":[{"internalType":"bytes32","name":"role","type":"bytes32"},{"internalType":"address","name":"account","type":"address"}],"name":"revokeRole","outputs":[],"stateMutability":"nonpayable","type":"function"},{"inputs":[{"internalType":"address","name":"from","type":"address"},{"internalType":"address","name":"to","type":"address"},{"internalType":"uint256","name":"tokenId","type":"uint256"}],"name":"safeTransferFrom","outputs":[],"stateMutability":"nonpayable","type":"function"},{"inputs":[{"internalType":"address","name":"from","type":"address"},{"internalType":"address","name":"to","type":"address"},{"internalType":"uint256","name":"tokenId","type":"uint256"},{"internalType":"bytes","name":"data","type":"bytes"}],"name":"safeTransferFrom","outputs":[],"stateMutability":"nonpayable","type":"function"},{"inputs":[{"internalType":"address","name":"operator","type":"address"},{"internalType":"bool","name":"approved","type":"bool"}],"name":"setApprovalForAll","outputs":[],"stateMutability":"nonpayable","type":"function"},{"inputs":[{"internalType":"contract IRevocationRegistry","name":"revocationRegistry","type":"address"}],"name":"setRevocationRegistry","outputs":[],"stateMutability":"nonpayable","type":"function"},{"inputs":[{"internalType":"bytes4","name":"interfaceId","type":"bytes4"}],"name":"supportsInterface","outputs":[{"internalType":"bool","name":"","type":"bool"}],"stateMutability":"view","type":"function"},{"inputs":[],"name":"symbol","outputs":[{"internalType":"string","name":"tokenSymbol","type":"string"}],"stateMutability":"view","type":"function"},{"inputs":[{"internalType":"uint256","name":"tokenId","type":"uint256"}],"name":"tokenURI","outputs":[{"internalType":"string","name":"uri","type":"string"}],"stateMutability":"view","type":"function"},{"inputs":[{"internalType":"address","name":"from","type":"address"},{"internalType":"address","name":"to","type":"address"},{"internalType":"uint256","name":"tokenId","type":"uint256"}],"name":"transferFrom","outputs":[],"stateMutability":"nonpayable","type":"function"},{"inputs":[{"internalType":"address","name":"newOwner","type":"address"}],"name":"transferOwnership","outputs":[],"stateMutability":"nonpayable","type":"function"},{"inputs":[{"internalType":"uint256","name":"","type":"uint256"}],"name":"vcData","outputs":[{"internalType":"uint16","name":"schemaVersion","type":"uint16"},{"internalType":"uint16","name":"achievementType","type":"uint16"},{"internalType":"uint64","name":"awardedDate","type":"uint64"},{"internalType":"uint64","name":"validFrom","type":"uint64"},{"internalType":"uint64","name":"validUtil","type":"uint64"},{"internalType":"string","name":"issuerDid","type":"string"},{"internalType":"string","name":"achievementId","type":"string"}],"stateMutability":"view","type":"function"}],"devdoc":{"errors":{"ERC721ExistingToken(uint256)":[{"params":{"tokenId":"The identifier of the token that already exists."}}],"ERC721NonApprovedForApproval(address,address,uint256)":[{"params":{"sender":"The message sender.","tokenId":"The identifier of the token."}}],"ERC721NonApprovedForTransfer(address,address,uint256)":[{"params":{"sender":"The message sender.","tokenId":"The identifier of the token."}}],"ERC721NonExistingToken(uint256)":[{"params":{"tokenId":"The identifier of the token that was checked."}}],"ERC721NonOwnedToken(address,uint256)":[{"params":{"account":"The account that was expected to own the token.","tokenId":"The identifier of the token."}}],"ERC721SafeTransferRejected(address,uint256)":[{"params":{"recipient":"The recipient contract.","tokenId":"The identifier of the token."}}],"ERC721SelfApproval(address)":[{"params":{"account":"The account trying to approve itself."}}],"ERC721SelfApprovalForAll(address)":[{"params":{"account":"The account trying to approveForAll itself."}}],"NotContractOwner(address)":[{"params":{"account":"The account that was checked."}}],"NotRoleHolder(bytes32,address)":[{"params":{"account":"The account that was checked.","role":"The role the caller is missing."}}]},"events":{"Approval(address,address,uint256)":{"params":{"approved":"The approved address.","owner":"The token owner.","tokenId":"The approved token identifier."}},"ApprovalForAll(address,address,bool)":{"params":{"approved":"True when then approval is set, false when it is unset.","operator":"The approved address.","owner":"The tokens owner."}},"OwnershipTransferred(address,address)":{"params":{"newOwner":"the new contract owner.","previousOwner":"the previous contract owner."}},"RoleGranted(bytes32,address,address)":{"params":{"account":"The account that has been granted the role.","operator":"The account that granted the role.","role":"The role that has been granted."}},"RoleRevoked(bytes32,address,address)":{"params":{"account":"The account that has been revoked the role.","operator":"The account that revoked the role.","role":"The role that has been revoked."}},"Transfer(address,address,uint256)":{"params":{"from":"The previous token owner.","to":"The new token owner.","tokenId":"The transferred token identifier."}}},"kind":"dev","methods":{"approve(address,uint256)":{"details":"Note: There can only be one approved address per token at a given time.Note: A token approval gets reset when this token is transferred, including a self-transfer.Reverts if `tokenId` does not exist.Reverts if `to` is the token owner.Reverts if the sender is not the token owner and has not been approved by the token owner.Emits an {Approval} event.","params":{"to":"The address to approve, or the zero address to remove any existing approval.","tokenId":"The token identifier to give approval for."}},"balanceOf(address)":{"details":"Reverts if `owner` is the zero address.","params":{"owner":"The address to query the balance of."},"returns":{"balance":"The amount owned by the owner."}},"burn(uint256)":{"details":"Reverts with `InvalidBurn` if the tokenId has not been invalidated.Emit a `Transfer` event to address 0 when the token has been burnt.","params":{"tokenId":"The Token Id to be burnt. Burn tokenId only if tokenId has been legitimately revoked in Revocation Registry."}},"getApproved(uint256)":{"details":"Reverts if `tokenId` does not exist.","params":{"tokenId":"The token identifier to query the approval of."},"returns":{"approved":"The approved address for the token identifier, or the zero address if no approval is set."}},"grantRole(bytes32,address)":{"details":"Reverts with {NotContractOwner} if the sender is not the contract owner.Emits a {RoleGranted} event if the account did not previously have the role.","params":{"account":"The account to grant the role to.","role":"The role to grant."}},"hasRole(bytes32,address)":{"params":{"account":"The account.","role":"The role."},"returns":{"hasRole_":"Whether `account` has `role`."}},"isApprovedForAll(address,address)":{"params":{"operator":"The address which receives the approval for all tokens.","owner":"The address which gives the approval for all tokens."},"returns":{"approvedForAll":"Whether the operator is approved for all tokens by the owner."}},"isTrustedForwarder(address)":{"params":{"forwarder":"The forwarder to check."},"returns":{"_0":"True if `forwarder` is trusted, false if not."}},"metadataResolver()":{"returns":{"tokenMetadataResolver":"The token metadata resolver address."}},"mint(address,uint256,(uint16,uint16,uint64,uint64,uint64,string,string))":{"details":"Reverts with `NotRoleHolder` if the sender does not have the 'minter' role.","params":{"metadata":"Metadata for `tokenId`","to":"The owner of `tokenId`","tokenId":"The id of the VC NFT to be minted"}},"name()":{"returns":{"tokenName":"The name of the token."}},"owner()":{"returns":{"_0":"The address of the contract owner."}},"ownerOf(uint256)":{"details":"Reverts if `tokenId` does not exist.","params":{"tokenId":"The token identifier to query the owner of."},"returns":{"tokenOwner":"The owner of the token identifier."}},"renounceRole(bytes32)":{"details":"Reverts if `sender` does not have `role`.Emits a {RoleRevoked} event.","params":{"role":"The role to renounce."}},"revokeRole(bytes32,address)":{"details":"Reverts with {NotContractOwner} if the sender is not the contract owner.Emits a {RoleRevoked} event if the account previously had the role.","params":{"account":"The account to revoke the role from.","role":"The role to revoke."}},"safeTransferFrom(address,address,uint256)":{"details":"Resets the token approval for `tokenId`.Reverts if `to` is the zero address.Reverts if `from` is not the owner of `tokenId`.Reverts if the sender is not `from` and has not been approved by `from` for `tokenId`.Reverts if `to` is a contract and the call to {IERC721Receiver-onERC721Received} fails, reverts or is rejected.Emits a {Transfer} event.","params":{"from":"The current token owner.","to":"The recipient of the token transfer.","tokenId":"The identifier of the token to transfer."}},"safeTransferFrom(address,address,uint256,bytes)":{"details":"Resets the token approval for `tokenId`.Reverts if `to` is the zero address.Reverts if `from` is not the owner of `tokenId`.Reverts if the sender is not `from` and has not been approved by `from` for `tokenId`.Reverts if `to` is a contract and the call to {IERC721Receiver-onERC721Received} fails, reverts or is rejected.Emits a {Transfer} event.","params":{"data":"Optional data to send along to a receiver contract.","from":"The current token owner.","to":"The recipient of the token transfer.","tokenId":"The identifier of the token to transfer."}},"setApprovalForAll(address,bool)":{"details":"Reverts if the sender is the same as `operator`.Emits an {ApprovalForAll} event.","params":{"approved":"True to set an approval for all tokens, false to unset it.","operator":"The address to approve for all tokens."}},"setRevocationRegistry(address)":{"params":{"revocationRegistry":"The address of the Revocation Registry contract."}},"supportsInterface(bytes4)":{"details":"Note: This function call must use less than 30 000 gas.","params":{"interfaceId":"the interface identifier to test."},"returns":{"_0":"True if the interface is supported, false if `interfaceId` is `0xffffffff` or if the interface is not supported."}},"symbol()":{"returns":{"tokenSymbol":"The symbol of the token."}},"tokenURI(uint256)":{"details":"Reverts if `tokenId` does not exist.","params":{"tokenId":"The token identifier."},"returns":{"uri":"The metadata URI for the token identifier."}},"transferFrom(address,address,uint256)":{"details":"Note: Usage of this method is discouraged, use `safeTransferFrom` whenever possible.Resets the token approval for `tokenId`.Reverts if `to` is the zero address.Reverts if `from` is not the owner of `tokenId`.Reverts if the sender is not `from` and has not been approved by `from` for `tokenId`.Emits a {Transfer} event.","params":{"from":"The current token owner.","to":"The recipient of the token transfer. Self-transfers are possible.","tokenId":"The identifier of the token to transfer."}},"transferOwnership(address)":{"details":"Reverts if the sender is not the contract owner.Emits an {OwnershipTransferred} event if `newOwner` is different from the current contract owner.","params":{"newOwner":"The address of the new contract owner. Using the zero address means renouncing ownership."}}},"version":1},"evm":{"bytecode":{"linkReferences":{},"object":"60c06040523480156200001157600080fd5b50604051620033d2380380620033d2833981016040819052620000349162000395565b8585858585858380338888876200005a83838362000051620000d2565b92919062000108565b620000646200014f565b50505062000083816200007c6200017160201b60201c565b90620001a1565b506001600160a01b0316608052506200009b62000214565b6001600160a01b0390811660a052600080546001600160a01b0319169290911691909117905550620005d498505050505050505050565b6000806200010260017f7ea68fd2dcf1c056b94db6a0a537aa80d26fa9ab1eacd85da1ba0b61b7e7a8a562000455565b92915050565b8362000115848262000508565b506001840162000126838262000508565b5060029390930180546001600160a01b0319166001600160a01b03909416939093179092555050565b6200016f635b5e139f60e01b60016200016762000227565b919062000257565b565b6000806200010260017fc9ed16f33ab3a66c84bfd83099ccb2a8845871e2e1c1928f63797152f0fd54cd62000455565b6001600160a01b03811615620001f85781546001600160a01b0319166001600160a01b03821690811783556040516000907f8be0079c531659141344cd1fd0a4f28419497f9722a3daafe3b4186f6b6457e0908290a35b620002106307f5828d60e41b60016200016762000227565b5050565b6200016f6380ac58cd60e01b6001620001675b6000806200010260017fca9d3e17f264b0f3984e2634e94adb37fa3e6a8103f06aeae6fa59e21c769f5e62000455565b600160e01b6001600160e01b031983160162000286576040516372c683bb60e01b815260040160405180910390fd5b6001600160e01b03199190911660009081526020929092526040909120805460ff1916911515919091179055565b634e487b7160e01b600052604160045260246000fd5b600082601f830112620002dc57600080fd5b81516001600160401b0380821115620002f957620002f9620002b4565b604051601f8301601f19908116603f01168101908282118183101715620003245762000324620002b4565b81604052838152602092508660208588010111156200034257600080fd5b600091505b8382101562000366578582018301518183018401529082019062000347565b6000602085830101528094505050505092915050565b6001600160a01b03811681146200039257600080fd5b50565b60008060008060008060c08789031215620003af57600080fd5b86516001600160401b0380821115620003c757600080fd5b620003d58a838b01620002ca565b97506020890151915080821115620003ec57600080fd5b50620003fb89828a01620002ca565b95505060408701516200040e816200037c565b606088015190945062000421816200037c565b608088015190935062000434816200037c565b60a088015190925062000447816200037c565b809150509295509295509295565b818103818111156200010257634e487b7160e01b600052601160045260246000fd5b600181811c908216806200048c57607f821691505b602082108103620004ad57634e487b7160e01b600052602260045260246000fd5b50919050565b601f82111562000503576000816000526020600020601f850160051c81016020861015620004de5750805b601f850160051c820191505b81811015620004ff57828155600101620004ea565b5050505b505050565b81516001600160401b03811115620005245762000524620002b4565b6200053c8162000535845462000477565b84620004b3565b602080601f8311600181146200057457600084156200055b5750858301515b600019600386901b1c1916600185901b178555620004ff565b600085815260208120601f198616915b82811015620005a55788860151825594840194600190910190840162000584565b5085821015620005c45787850151600019600388901b60f8161c191681555b5050505050600190811b01905550565b60805160a051612db56200061d60003960006111270152600081816102730152818161032f01528181611efd01528181611f85015281816120ad01526120eb0152612db56000f3fe608060405234801561001057600080fd5b50600436106101cf5760003560e01c806370a0823111610104578063a22cb465116100a2578063d547741f11610071578063d547741f14610451578063e985e9c514610464578063f2fde38b14610477578063f5b541a61461048a57600080fd5b8063a22cb465146103f1578063b88d4fde14610404578063c87b56dd14610417578063d53913931461042a57600080fd5b806391d14854116100de57806391d14854146103bb57806395d89b41146103ce57806395f94bc4146103d6578063a0c76f62146103e957600080fd5b806370a082311461037f5780638bb9c5bf146103a05780638da5cb5b146103b357600080fd5b806331e66e1e116101715780634bae2be81161014b5780634bae2be8146102e657806354c7be061461030c578063572b6c051461031f5780636352211e1461036c57600080fd5b806331e66e1e146102aa57806342842e0e146102c057806342966c68146102d357600080fd5b8063095ea7b3116101ad578063095ea7b31461024957806323b872dd1461025e5780632b4c9f16146102715780632f2ff15d1461029757600080fd5b806301ffc9a7146101d457806306fdde03146101fc578063081812fc14610211575b600080fd5b6101e76101e2366004612365565b6104b1565b60405190151581526020015b60405180910390f35b6102046104cb565b6040516101f391906123f0565b61022461021f366004612403565b6104da565b60405173ffffffffffffffffffffffffffffffffffffffff90911681526020016101f3565b61025c61025736600461243e565b6104ee565b005b61025c61026c36600461246a565b61050f565b7f0000000000000000000000000000000000000000000000000000000000000000610224565b61025c6102a53660046124ab565b610543565b6102b261057c565b6040516101f39291906124db565b61025c6102ce36600461246a565b61058f565b61025c6102e1366004612403565b6105bd565b6102f96102f4366004612403565b6107bb565b6040516101f39796959493929190612528565b61025c61031a36600461258f565b610942565b6101e761032d3660046125ef565b7f000000000000000000000000000000000000000000000000000000000000000073ffffffffffffffffffffffffffffffffffffffff90811691161490565b61022461037a366004612403565b6109ab565b61039261038d3660046125ef565b6109b9565b6040519081526020016101f3565b61025c6103ae366004612403565b6109cd565b6102246109eb565b6101e76103c93660046124ab565b610a12565b610204610a5d565b61025c6103e43660046125ef565b610a67565b610224610ac1565b61025c6103ff36600461261a565b610aeb565b61025c610412366004612648565b610b08565b610204610425366004612403565b610b42565b6103927f6d696e746572000000000000000000000000000000000000000000000000000081565b61025c61045f3660046124ab565b610b65565b6101e76104723660046126e7565b610b93565b61025c6104853660046125ef565b610be1565b6103927f6f70657261746f7200000000000000000000000000000000000000000000000081565b60006104c5826104bf610bfc565b90610c2a565b92915050565b60606104d5610d04565b905090565b60006104c5826104e8610d16565b90610d44565b61050b6104f9610dfd565b8383610503610d16565b929190610e07565b5050565b6000610519610dfd565b90506105258183611082565b61053d81858585610534610d16565b939291906111c3565b50505050565b600061054d610dfd565b90506105618161055b6114a1565b906114cf565b61057783838361056f61153a565b929190611568565b505050565b36600061058761163e565b915091509091565b6000610599610dfd565b90506105a58183611082565b61053d818585856105b4610d16565b93929190611649565b600081815260016020818152604080842090516105df93919091019101612768565b604080518083037fffffffffffffffffffffffffffffffffffffffffffffffffffffffffffffffe00181529082905280516020909101206000547fa3a2656a000000000000000000000000000000000000000000000000000000008352600483018290526024830185905290925073ffffffffffffffffffffffffffffffffffffffff169063a3a2656a90604401602060405180830381865afa15801561068a573d6000803e3d6000fd5b505050506040513d601f19601f820116820180604052508101906106ae91906127fc565b156107895760006106c7836106c1610d16565b9061168f565b90507fdead0000000000000000000000000000000000000000000000000000000000006106f2610d16565b6000858152602091909152604090205561070a610d16565b73ffffffffffffffffffffffffffffffffffffffff82166000818152600192909201602052604080832080547fffffffffffffffffffffffffffffffffffffffffffffffffffffffffffffffff01905551859291907fddf252ad1be2c89b69c2b068fc378daa952ba7f163c4a11628f55a4df523b3ef908390a4505050565b6040517feeddf6ab00000000000000000000000000000000000000000000000000000000815260040160405180910390fd5b60016020819052600091825260409091208054918101805461ffff808516946201000081049091169367ffffffffffffffff64010000000083048116946c010000000000000000000000008404821694740100000000000000000000000000000000000000009094049091169261083190612715565b80601f016020809104026020016040519081016040528092919081815260200182805461085d90612715565b80156108aa5780601f1061087f576101008083540402835291602001916108aa565b820191906000526020600020905b81548152906001019060200180831161088d57829003601f168201915b5050505050908060020180546108bf90612715565b80601f01602080910402602001604051908101604052809291908181526020018280546108eb90612715565b80156109385780601f1061090d57610100808354040283529160200191610938565b820191906000526020600020905b81548152906001019060200180831161091b57829003601f168201915b5050505050905087565b6109767f6d696e74657200000000000000000000000000000000000000000000000000003361096f61153a565b91906116f8565b61098a8383610983610d16565b919061177e565b600082815260016020526040902081906109a48282612a44565b5050505050565b60006104c5826106c1610d16565b60006104c5826109c7610d16565b90611898565b6109e86109d8610dfd565b826109e161153a565b9190611914565b50565b60006104d56109f86114a1565b5473ffffffffffffffffffffffffffffffffffffffff1690565b6000610a568383610a2161153a565b60009283526020908152604080842073ffffffffffffffffffffffffffffffffffffffff909316845291905290205460ff1690565b9392505050565b60606104d56119b8565b610a7a610a72610dfd565b61055b6114a1565b600080547fffffffffffffffffffffffff00000000000000000000000000000000000000001673ffffffffffffffffffffffffffffffffffffffff92909216919091179055565b60006104d5610ace6119ca565b6002015473ffffffffffffffffffffffffffffffffffffffff1690565b61050b610af6610dfd565b8383610b00610d16565b9291906119f8565b6000610b12610dfd565b9050610b1e8185611082565b610b3a818787878787610b2f610d16565b959493929190611b10565b505050505050565b6060610b50826106c1610d16565b506104c53083610b5e6119ca565b9190611b86565b6000610b6f610dfd565b9050610b7d8161055b6114a1565b610577838383610b8b61153a565b929190611c46565b6000610a568383610ba2610d16565b919073ffffffffffffffffffffffffffffffffffffffff9182166000908152600393909301602090815260408085209290931684525290205460ff1690565b6109e8610bec610dfd565b82610bf56114a1565b9190611d10565b6000806104c560017fca9d3e17f264b0f3984e2634e94adb37fa3e6a8103f06aeae6fa59e21c769f5e612bea565b60007c01000000000000000000000000000000000000000000000000000000007fffffffff00000000000000000000000000000000000000000000000000000000831601610c7a575060006104c5565b7ffe003659000000000000000000000000000000000000000000000000000000007fffffffff00000000000000000000000000000000000000000000000000000000831601610ccb575060016104c5565b507fffffffff00000000000000000000000000000000000000000000000000000000166000908152602091909152604090205460ff1690565b60606104d5610d116119ca565b611e24565b6000806104c560017fddf3ee18ae6d688373c219468f8be446e7ae82215f4779d821c7ea5e8c13c0c1612bea565b60008181526020839052604081205473ffffffffffffffffffffffffffffffffffffffff8116610da8576040517fdd560475000000000000000000000000000000000000000000000000000000008152600481018490526024015b60405180910390fd5b74010000000000000000000000000000000000000000811615610df3575050600081815260028301602052604090205473ffffffffffffffffffffffffffffffffffffffff166104c5565b60009150506104c5565b60006104d5611eba565b60008181526020859052604090205473ffffffffffffffffffffffffffffffffffffffff8116610e66576040517fdd56047500000000000000000000000000000000000000000000000000000000815260048101839052602401610d9f565b8073ffffffffffffffffffffffffffffffffffffffff80821690851603610ed1576040517fb7fdc01000000000000000000000000000000000000000000000000000000000815273ffffffffffffffffffffffffffffffffffffffff82166004820152602401610d9f565b610edc868287612001565b610f39576040517fc7563a1800000000000000000000000000000000000000000000000000000000815273ffffffffffffffffffffffffffffffffffffffff80871660048301528216602482015260448101849052606401610d9f565b73ffffffffffffffffffffffffffffffffffffffff8416610f9e5774010000000000000000000000000000000000000000821615610f9957600083815260208790526040902073ffffffffffffffffffffffffffffffffffffffff821690555b61101f565b740100000000000000000000000000000000000000008217808314610fcf5760008481526020889052604090208190555b506000838152600287016020526040902080547fffffffffffffffffffffffff00000000000000000000000000000000000000001673ffffffffffffffffffffffffffffffffffffffff86161790555b828473ffffffffffffffffffffffffffffffffffffffff168273ffffffffffffffffffffffffffffffffffffffff167f8c5be1e5ebec7d5bd14f71427d1e84f3dd0314c0f7b2291e5b200ac8c7c3b92560405160405180910390a4505050505050565b600081815260016020818152604080842090516110a493919091019101612768565b604080518083037fffffffffffffffffffffffffffffffffffffffffffffffffffffffffffffffe00181529082905280516020909101207ff9236a390000000000000000000000000000000000000000000000000000000082526004820181905273ffffffffffffffffffffffffffffffffffffffff85811660248401529092507f0000000000000000000000000000000000000000000000000000000000000000169063f9236a3990604401602060405180830381865afa15801561116e573d6000803e3d6000fd5b505050506040513d601f19601f8201168201806040525081019061119291906127fc565b610577576105777f6f70657261746f720000000000000000000000000000000000000000000000008461096f61153a565b73ffffffffffffffffffffffffffffffffffffffff8216611210576040517f86c8706700000000000000000000000000000000000000000000000000000000815260040160405180910390fd5b60008181526020869052604090205473ffffffffffffffffffffffffffffffffffffffff811661126f576040517fdd56047500000000000000000000000000000000000000000000000000000000815260048101839052602401610d9f565b73ffffffffffffffffffffffffffffffffffffffff84168173ffffffffffffffffffffffffffffffffffffffff16146112f3576040517f14dbb53600000000000000000000000000000000000000000000000000000000815273ffffffffffffffffffffffffffffffffffffffff8516600482015260248101839052604401610d9f565b6112fe868587612001565b6113ad57740100000000000000000000000000000000000000008116158061134f5750600082815260028701602052604090205473ffffffffffffffffffffffffffffffffffffffff868116911614155b156113ad576040517fa4a3018b00000000000000000000000000000000000000000000000000000000815273ffffffffffffffffffffffffffffffffffffffff80871660048301528516602482015260448101839052606401610d9f565b600082815260208790526040902073ffffffffffffffffffffffffffffffffffffffff8085169182905585161461143e5773ffffffffffffffffffffffffffffffffffffffff80851660009081526001808901602052604080832080547fffffffffffffffffffffffffffffffffffffffffffffffffffffffffffffffff0190559286168252919020805490910190555b818373ffffffffffffffffffffffffffffffffffffffff168573ffffffffffffffffffffffffffffffffffffffff167fddf252ad1be2c89b69c2b068fc378daa952ba7f163c4a11628f55a4df523b3ef60405160405180910390a4505050505050565b6000806104c560017fc9ed16f33ab3a66c84bfd83099ccb2a8845871e2e1c1928f63797152f0fd54cd612bea565b815473ffffffffffffffffffffffffffffffffffffffff82811691161461050b576040517f2ef4875e00000000000000000000000000000000000000000000000000000000815273ffffffffffffffffffffffffffffffffffffffff82166004820152602401610d9f565b6000806104c560017fc8827d3282af6f37b64c3e9e6f3ac9df286ab0bb0fccd6f8661bf19adb368b23612bea565b60008381526020858152604080832073ffffffffffffffffffffffffffffffffffffffff8616845290915290205460ff1661053d5760008381526020858152604080832073ffffffffffffffffffffffffffffffffffffffff8681168086529184529382902080547fffffffffffffffffffffffffffffffffffffffffffffffffffffffffffffff00166001179055815187815292830152918316918101919091527f2f8788117e7eff1d82e926ec794901d17c78024a50270940304540a733656f0d906060015b60405180910390a150505050565b366000610587612076565b61165685858585856111c3565b73ffffffffffffffffffffffffffffffffffffffff82163b156109a4576109a484848484604051806020016040528060008152506121e0565b60008181526020839052604081205473ffffffffffffffffffffffffffffffffffffffff81166116ee576040517fdd56047500000000000000000000000000000000000000000000000000000000815260048101849052602401610d9f565b805b949350505050565b60008281526020848152604080832073ffffffffffffffffffffffffffffffffffffffff8516845290915290205460ff16610577576040517f7aa728820000000000000000000000000000000000000000000000000000000081526004810183905273ffffffffffffffffffffffffffffffffffffffff82166024820152604401610d9f565b73ffffffffffffffffffffffffffffffffffffffff82166117cb576040517f7851b9cd00000000000000000000000000000000000000000000000000000000815260040160405180910390fd5b60008181526020849052604090205473ffffffffffffffffffffffffffffffffffffffff161561182a576040517f753eceac00000000000000000000000000000000000000000000000000000000815260048101829052602401610d9f565b60008181526020848152604080832073ffffffffffffffffffffffffffffffffffffffff86169081905580845260018088019093528184208054909301909255518392907fddf252ad1be2c89b69c2b068fc378daa952ba7f163c4a11628f55a4df523b3ef908290a4505050565b600073ffffffffffffffffffffffffffffffffffffffff82166118e7576040517faefbce4e00000000000000000000000000000000000000000000000000000000815260040160405180910390fd5b5073ffffffffffffffffffffffffffffffffffffffff166000908152600191909101602052604090205490565b61191f8382846116f8565b60008181526020848152604080832073ffffffffffffffffffffffffffffffffffffffff86168085529083529281902080547fffffffffffffffffffffffffffffffffffffffffffffffffffffffffffffff0016905580518481529182018390528101919091527ff6391f5c32d9c69d2a47ea670b442974b53935d1edc7fd64eb21e047a839171b9060600160405180910390a1505050565b60606104d56119c56119ca565b6122f5565b6000806104c560017f7ea68fd2dcf1c056b94db6a0a537aa80d26fa9ab1eacd85da1ba0b61b7e7a8a5612bea565b8273ffffffffffffffffffffffffffffffffffffffff168273ffffffffffffffffffffffffffffffffffffffff1603611a75576040517fe4215c6a00000000000000000000000000000000000000000000000000000000815273ffffffffffffffffffffffffffffffffffffffff84166004820152602401610d9f565b73ffffffffffffffffffffffffffffffffffffffff838116600081815260038701602090815260408083209487168084529482529182902080547fffffffffffffffffffffffffffffffffffffffffffffffffffffffffffffff001686151590811790915591519182527f17307eab39ab6107e8899845ad3d59bd9653f200f220920489ca2b5937696c31910160405180910390a350505050565b611b1d87878787876111c3565b73ffffffffffffffffffffffffffffffffffffffff84163b15611b7d57611b7d8686868686868080601f0160208091040260200160405190810160405280939291908181526020018383808284376000920191909152506121e092505050565b50505050505050565b60028301546040517ff724dad700000000000000000000000000000000000000000000000000000000815273ffffffffffffffffffffffffffffffffffffffff848116600483015260248201849052606092169063f724dad790604401600060405180830381865afa158015611c00573d6000803e3d6000fd5b505050506040513d6000823e601f3d9081017fffffffffffffffffffffffffffffffffffffffffffffffffffffffffffffffe01682016040526116f09190810190612c24565b60008381526020858152604080832073ffffffffffffffffffffffffffffffffffffffff8616845290915290205460ff161561053d5760008381526020858152604080832073ffffffffffffffffffffffffffffffffffffffff8681168086529184529382902080547fffffffffffffffffffffffffffffffffffffffffffffffffffffffffffffff00169055815187815292830152918316918101919091527ff6391f5c32d9c69d2a47ea670b442974b53935d1edc7fd64eb21e047a839171b90606001611630565b825473ffffffffffffffffffffffffffffffffffffffff9081169083168114611d7d576040517f2ef4875e00000000000000000000000000000000000000000000000000000000815273ffffffffffffffffffffffffffffffffffffffff84166004820152602401610d9f565b8173ffffffffffffffffffffffffffffffffffffffff168173ffffffffffffffffffffffffffffffffffffffff161461053d5783547fffffffffffffffffffffffff00000000000000000000000000000000000000001673ffffffffffffffffffffffffffffffffffffffff8381169182178655604051908316907f8be0079c531659141344cd1fd0a4f28419497f9722a3daafe3b4186f6b6457e090600090a350505050565b6060816000018054611e3590612715565b80601f0160208091040260200160405190810160405280929190818152602001828054611e6190612715565b8015611eae5780601f10611e8357610100808354040283529160200191611eae565b820191906000526020600020905b815481529060010190602001808311611e9157829003601f168201915b50505050509050919050565b600033321480611eca5750601836105b15611ed457503390565b7fffffffffffffffffffffffffffffffffffffffffffffffffffffffffffffffec36013560601c7f000000000000000000000000000000000000000000000000000000000000000073ffffffffffffffffffffffffffffffffffffffff16331480611ff057506040517f8929a8ca00000000000000000000000000000000000000000000000000000000815273ffffffffffffffffffffffffffffffffffffffff82811660048301523360248301527f00000000000000000000000000000000000000000000000000000000000000001690638929a8ca90604401602060405180830381865afa158015611fcc573d6000803e3d6000fd5b505050506040513d601f19601f82011682018060405250810190611ff091906127fc565b15611ffa57919050565b3391505090565b60008173ffffffffffffffffffffffffffffffffffffffff168373ffffffffffffffffffffffffffffffffffffffff1614806116f057505073ffffffffffffffffffffffffffffffffffffffff9182166000908152600393909301602090815260408085209290931684525290205460ff1690565b366000333214806120875750601836105b156120955750600091369150565b3373ffffffffffffffffffffffffffffffffffffffff7f00000000000000000000000000000000000000000000000000000000000000001614806121ca575073ffffffffffffffffffffffffffffffffffffffff7f000000000000000000000000000000000000000000000000000000000000000016638929a8ca367fffffffffffffffffffffffffffffffffffffffffffffffffffffffffffffffec013560601c6040517fffffffff0000000000000000000000000000000000000000000000000000000060e084901b16815273ffffffffffffffffffffffffffffffffffffffff9091166004820152336024820152604401602060405180830381865afa1580156121a6573d6000803e3d6000fd5b505050506040513d601f19601f820116820180604052508101906121ca91906127fc565b156121d757610587612306565b50600091369150565b6040517f150b7a02000000000000000000000000000000000000000000000000000000008082529073ffffffffffffffffffffffffffffffffffffffff85169063150b7a029061223a908990899088908890600401612cef565b6020604051808303816000875af1158015612259573d6000803e3d6000fd5b505050506040513d601f19601f8201168201806040525081019061227d9190612d38565b7fffffffff0000000000000000000000000000000000000000000000000000000016146109a4576040517fc215a7a100000000000000000000000000000000000000000000000000000000815273ffffffffffffffffffffffffffffffffffffffff8416600482015260248101839052604401610d9f565b6060816001018054611e3590612715565b3660006105877fffffffffffffffffffffffffffffffffffffffffffffffffffffffffffffffec8301828481612d55565b7fffffffff00000000000000000000000000000000000000000000000000000000811681146109e857600080fd5b60006020828403121561237757600080fd5b8135610a5681612337565b60005b8381101561239d578181015183820152602001612385565b50506000910152565b600081518084526123be816020860160208601612382565b601f017fffffffffffffffffffffffffffffffffffffffffffffffffffffffffffffffe0169290920160200192915050565b602081526000610a5660208301846123a6565b60006020828403121561241557600080fd5b5035919050565b73ffffffffffffffffffffffffffffffffffffffff811681146109e857600080fd5b6000806040838503121561245157600080fd5b823561245c8161241c565b946020939093013593505050565b60008060006060848603121561247f57600080fd5b833561248a8161241c565b9250602084013561249a8161241c565b929592945050506040919091013590565b600080604083850312156124be57600080fd5b8235915060208301356124d08161241c565b809150509250929050565b60208152816020820152818360408301376000818301604090810191909152601f9092017fffffffffffffffffffffffffffffffffffffffffffffffffffffffffffffffe0160101919050565b61ffff88811682528716602082015267ffffffffffffffff868116604083015285811660608301528416608082015260e060a0820181905260009061256f908301856123a6565b82810360c084015261258181856123a6565b9a9950505050505050505050565b6000806000606084860312156125a457600080fd5b83356125af8161241c565b925060208401359150604084013567ffffffffffffffff8111156125d257600080fd5b840160e081870312156125e457600080fd5b809150509250925092565b60006020828403121561260157600080fd5b8135610a568161241c565b80151581146109e857600080fd5b6000806040838503121561262d57600080fd5b82356126388161241c565b915060208301356124d08161260c565b60008060008060006080868803121561266057600080fd5b853561266b8161241c565b9450602086013561267b8161241c565b935060408601359250606086013567ffffffffffffffff8082111561269f57600080fd5b818801915088601f8301126126b357600080fd5b8135818111156126c257600080fd5b8960208285010111156126d457600080fd5b9699959850939650602001949392505050565b600080604083850312156126fa57600080fd5b82356127058161241c565b915060208301356124d08161241c565b600181811c9082168061272957607f821691505b602082108103612762577f4e487b7100000000000000000000000000000000000000000000000000000000600052602260045260246000fd5b50919050565b600080835461277681612715565b6001828116801561278e57600181146127c1576127f0565b7fffffffffffffffffffffffffffffffffffffffffffffffffffffffffffffff00841687528215158302870194506127f0565b8760005260208060002060005b858110156127e75781548a8201529084019082016127ce565b50505082870194505b50929695505050505050565b60006020828403121561280e57600080fd5b8151610a568161260c565b6000813561ffff811681146104c557600080fd5b6000813567ffffffffffffffff811681146104c557600080fd5b60008083357fffffffffffffffffffffffffffffffffffffffffffffffffffffffffffffffe184360301811261287c57600080fd5b83018035915067ffffffffffffffff82111561289757600080fd5b6020019150368190038213156128ac57600080fd5b9250929050565b7f4e487b7100000000000000000000000000000000000000000000000000000000600052604160045260246000fd5b601f821115610577576000816000526020600020601f850160051c8101602086101561290b5750805b601f850160051c820191505b81811015610b3a57828155600101612917565b67ffffffffffffffff831115612942576129426128b3565b612956836129508354612715565b836128e2565b6000601f8411600181146129a857600085156129725750838201355b7fffffffffffffffffffffffffffffffffffffffffffffffffffffffffffffffff600387901b1c1916600186901b1783556109a4565b6000838152602090207fffffffffffffffffffffffffffffffffffffffffffffffffffffffffffffffe0861690835b828110156129f757868501358255602094850194600190920191016129d7565b5086821015612a32577fffffffffffffffffffffffffffffffffffffffffffffffffffffffffffffffff60f88860031b161c19848701351681555b505060018560011b0183555050505050565b61ffff612a5083612819565b168154817fffffffffffffffffffffffffffffffffffffffffffffffffffffffffffff0000821617835563ffff0000612a8b60208601612819565b60101b1680837fffffffffffffffffffffffffffffffffffffffffffffffffffffffff000000008416171784556bffffffffffffffff00000000612ad16040870161282d565b60201b16837fffffffffffffffffffffffffffffffffffffffff0000000000000000000000008416178217178455505050612b56612b116060840161282d565b82547fffffffffffffffffffffffff0000000000000000ffffffffffffffffffffffff1660609190911b73ffffffffffffffff00000000000000000000000016178255565b612bb2612b656080840161282d565b82547fffffffff0000000000000000ffffffffffffffffffffffffffffffffffffffff1660a09190911b7bffffffffffffffff000000000000000000000000000000000000000016178255565b612bbf60a0830183612847565b612bcd81836001860161292a565b5050612bdc60c0830183612847565b61053d81836002860161292a565b818103818111156104c5577f4e487b7100000000000000000000000000000000000000000000000000000000600052601160045260246000fd5b600060208284031215612c3657600080fd5b815167ffffffffffffffff80821115612c4e57600080fd5b818401915084601f830112612c6257600080fd5b815181811115612c7457612c746128b3565b604051601f82017fffffffffffffffffffffffffffffffffffffffffffffffffffffffffffffffe0908116603f01168101908382118183101715612cba57612cba6128b3565b81604052828152876020848701011115612cd357600080fd5b612ce4836020830160208801612382565b979650505050505050565b600073ffffffffffffffffffffffffffffffffffffffff808716835280861660208401525083604083015260806060830152612d2e60808301846123a6565b9695505050505050565b600060208284031215612d4a57600080fd5b8151610a5681612337565b60008085851115612d6557600080fd5b83861115612d7257600080fd5b505082019391909203915056fea264697066735822122033600fc1c90caf1682b060b88128a3a7e5c5374f417cc1a3de6442640837ff1964736f6c63430008160033","opcodes":"PUSH1 0xC0 PUSH1 0x40 MSTORE CALLVALUE DUP1 ISZERO PUSH3 0x11 JUMPI PUSH1 0x0 DUP1 REVERT JUMPDEST POP PUSH1 0x40 MLOAD PUSH3 0x33D2 CODESIZE SUB DUP1 PUSH3 0x33D2 DUP4 CODECOPY DUP2 ADD PUSH1 0x40 DUP2 SWAP1 MSTORE PUSH3 0x34 SWAP2 PUSH3 0x395 JUMP JUMPDEST DUP6 DUP6 DUP6 DUP6 DUP6 DUP6 DUP4 DUP1 CALLER DUP9 DUP9 DUP8 PUSH3 0x5A DUP4 DUP4 DUP4 PUSH3 0x51 PUSH3 0xD2 JUMP JUMPDEST SWAP3 SWAP2 SWAP1 PUSH3 0x108 JUMP JUMPDEST PUSH3 0x64 PUSH3 0x14F JUMP JUMPDEST POP POP POP PUSH3 0x83 DUP2 PUSH3 0x7C PUSH3 0x171 PUSH1 0x20 SHL PUSH1 0x20 SHR JUMP JUMPDEST SWAP1 PUSH3 0x1A1 JUMP JUMPDEST POP PUSH1 0x1 PUSH1 0x1 PUSH1 0xA0 SHL SUB AND PUSH1 0x80 MSTORE POP PUSH3 0x9B PUSH3 0x214 JUMP JUMPDEST PUSH1 0x1 PUSH1 0x1 PUSH1 0xA0 SHL SUB SWAP1 DUP2 AND PUSH1 0xA0 MSTORE PUSH1 0x0 DUP1 SLOAD PUSH1 0x1 PUSH1 0x1 PUSH1 0xA0 SHL SUB NOT AND SWAP3 SWAP1 SWAP2 AND SWAP2 SWAP1 SWAP2 OR SWAP1 SSTORE POP PUSH3 0x5D4 SWAP9 POP POP POP POP POP POP POP POP POP JUMP JUMPDEST PUSH1 0x0 DUP1 PUSH3 0x102 PUSH1 0x1 PUSH32 0x7EA68FD2DCF1C056B94DB6A0A537AA80D26FA9AB1EACD85DA1BA0B61B7E7A8A5 PUSH3 0x455 JUMP JUMPDEST SWAP3 SWAP2 POP POP JUMP JUMPDEST DUP4 PUSH3 0x115 DUP5 DUP3 PUSH3 0x508 JUMP JUMPDEST POP PUSH1 0x1 DUP5 ADD PUSH3 0x126 DUP4 DUP3 PUSH3 0x508 JUMP JUMPDEST POP PUSH1 0x2 SWAP4 SWAP1 SWAP4 ADD DUP1 SLOAD PUSH1 0x1 PUSH1 0x1 PUSH1 0xA0 SHL SUB NOT AND PUSH1 0x1 PUSH1 0x1 PUSH1 0xA0 SHL SUB SWAP1 SWAP5 AND SWAP4 SWAP1 SWAP4 OR SWAP1 SWAP3 SSTORE POP POP JUMP JUMPDEST PUSH3 0x16F PUSH4 0x5B5E139F PUSH1 0xE0 SHL PUSH1 0x1 PUSH3 0x167 PUSH3 0x227 JUMP JUMPDEST SWAP2 SWAP1 PUSH3 0x257 JUMP JUMPDEST JUMP JUMPDEST PUSH1 0x0 DUP1 PUSH3 0x102 PUSH1 0x1 PUSH32 0xC9ED16F33AB3A66C84BFD83099CCB2A8845871E2E1C1928F63797152F0FD54CD PUSH3 0x455 JUMP JUMPDEST PUSH1 0x1 PUSH1 0x1 PUSH1 0xA0 SHL SUB DUP2 AND ISZERO PUSH3 0x1F8 JUMPI DUP2 SLOAD PUSH1 0x1 PUSH1 0x1 PUSH1 0xA0 SHL SUB NOT AND PUSH1 0x1 PUSH1 0x1 PUSH1 0xA0 SHL SUB DUP3 AND SWAP1 DUP2 OR DUP4 SSTORE PUSH1 0x40 MLOAD PUSH1 0x0 SWAP1 PUSH32 0x8BE0079C531659141344CD1FD0A4F28419497F9722A3DAAFE3B4186F6B6457E0 SWAP1 DUP3 SWAP1 LOG3 JUMPDEST PUSH3 0x210 PUSH4 0x7F5828D PUSH1 0xE4 SHL PUSH1 0x1 PUSH3 0x167 PUSH3 0x227 JUMP JUMPDEST POP POP JUMP JUMPDEST PUSH3 0x16F PUSH4 0x80AC58CD PUSH1 0xE0 SHL PUSH1 0x1 PUSH3 0x167 JUMPDEST PUSH1 0x0 DUP1 PUSH3 0x102 PUSH1 0x1 PUSH32 0xCA9D3E17F264B0F3984E2634E94ADB37FA3E6A8103F06AEAE6FA59E21C769F5E PUSH3 0x455 JUMP JUMPDEST PUSH1 0x1 PUSH1 0xE0 SHL PUSH1 0x1 PUSH1 0x1 PUSH1 0xE0 SHL SUB NOT DUP4 AND ADD PUSH3 0x286 JUMPI PUSH1 0x40 MLOAD PUSH4 0x72C683BB PUSH1 0xE0 SHL DUP2 MSTORE PUSH1 0x4 ADD PUSH1 0x40 MLOAD DUP1 SWAP2 SUB SWAP1 REVERT JUMPDEST PUSH1 0x1 PUSH1 0x1 PUSH1 0xE0 SHL SUB NOT SWAP2 SWAP1 SWAP2 AND PUSH1 0x0 SWAP1 DUP2 MSTORE PUSH1 0x20 SWAP3 SWAP1 SWAP3 MSTORE PUSH1 0x40 SWAP1 SWAP2 KECCAK256 DUP1 SLOAD PUSH1 0xFF NOT AND SWAP2 ISZERO ISZERO SWAP2 SWAP1 SWAP2 OR SWAP1 SSTORE JUMP JUMPDEST PUSH4 0x4E487B71 PUSH1 0xE0 SHL PUSH1 0x0 MSTORE PUSH1 0x41 PUSH1 0x4 MSTORE PUSH1 0x24 PUSH1 0x0 REVERT JUMPDEST PUSH1 0x0 DUP3 PUSH1 0x1F DUP4 ADD SLT PUSH3 0x2DC JUMPI PUSH1 0x0 DUP1 REVERT JUMPDEST DUP2 MLOAD PUSH1 0x1 PUSH1 0x1 PUSH1 0x40 SHL SUB DUP1 DUP3 GT ISZERO PUSH3 0x2F9 JUMPI PUSH3 0x2F9 PUSH3 0x2B4 JUMP JUMPDEST PUSH1 0x40 MLOAD PUSH1 0x1F DUP4 ADD PUSH1 0x1F NOT SWAP1 DUP2 AND PUSH1 0x3F ADD AND DUP2 ADD SWAP1 DUP3 DUP3 GT DUP2 DUP4 LT OR ISZERO PUSH3 0x324 JUMPI PUSH3 0x324 PUSH3 0x2B4 JUMP JUMPDEST DUP2 PUSH1 0x40 MSTORE DUP4 DUP2 MSTORE PUSH1 0x20 SWAP3 POP DUP7 PUSH1 0x20 DUP6 DUP9 ADD ADD GT ISZERO PUSH3 0x342 JUMPI PUSH1 0x0 DUP1 REVERT JUMPDEST PUSH1 0x0 SWAP2 POP JUMPDEST DUP4 DUP3 LT ISZERO PUSH3 0x366 JUMPI DUP6 DUP3 ADD DUP4 ADD MLOAD DUP2 DUP4 ADD DUP5 ADD MSTORE SWAP1 DUP3 ADD SWAP1 PUSH3 0x347 JUMP JUMPDEST PUSH1 0x0 PUSH1 0x20 DUP6 DUP4 ADD ADD MSTORE DUP1 SWAP5 POP POP POP POP POP SWAP3 SWAP2 POP POP JUMP JUMPDEST PUSH1 0x1 PUSH1 0x1 PUSH1 0xA0 SHL SUB DUP2 AND DUP2 EQ PUSH3 0x392 JUMPI PUSH1 0x0 DUP1 REVERT JUMPDEST POP JUMP JUMPDEST PUSH1 0x0 DUP1 PUSH1 0x0 DUP1 PUSH1 0x0 DUP1 PUSH1 0xC0 DUP8 DUP10 SUB SLT ISZERO PUSH3 0x3AF JUMPI PUSH1 0x0 DUP1 REVERT JUMPDEST DUP7 MLOAD PUSH1 0x1 PUSH1 0x1 PUSH1 0x40 SHL SUB DUP1 DUP3 GT ISZERO PUSH3 0x3C7 JUMPI PUSH1 0x0 DUP1 REVERT JUMPDEST PUSH3 0x3D5 DUP11 DUP4 DUP12 ADD PUSH3 0x2CA JUMP JUMPDEST SWAP8 POP PUSH1 0x20 DUP10 ADD MLOAD SWAP2 POP DUP1 DUP3 GT ISZERO PUSH3 0x3EC JUMPI PUSH1 0x0 DUP1 REVERT JUMPDEST POP PUSH3 0x3FB DUP10 DUP3 DUP11 ADD PUSH3 0x2CA JUMP JUMPDEST SWAP6 POP POP PUSH1 0x40 DUP8 ADD MLOAD PUSH3 0x40E DUP2 PUSH3 0x37C JUMP JUMPDEST PUSH1 0x60 DUP9 ADD MLOAD SWAP1 SWAP5 POP PUSH3 0x421 DUP2 PUSH3 0x37C JUMP JUMPDEST PUSH1 0x80 DUP9 ADD MLOAD SWAP1 SWAP4 POP PUSH3 0x434 DUP2 PUSH3 0x37C JUMP JUMPDEST PUSH1 0xA0 DUP9 ADD MLOAD SWAP1 SWAP3 POP PUSH3 0x447 DUP2 PUSH3 0x37C JUMP JUMPDEST DUP1 SWAP2 POP POP SWAP3 SWAP6 POP SWAP3 SWAP6 POP SWAP3 SWAP6 JUMP JUMPDEST DUP2 DUP2 SUB DUP2 DUP2 GT ISZERO PUSH3 0x102 JUMPI PUSH4 0x4E487B71 PUSH1 0xE0 SHL PUSH1 0x0 MSTORE PUSH1 0x11 PUSH1 0x4 MSTORE PUSH1 0x24 PUSH1 0x0 REVERT JUMPDEST PUSH1 0x1 DUP2 DUP2 SHR SWAP1 DUP3 AND DUP1 PUSH3 0x48C JUMPI PUSH1 0x7F DUP3 AND SWAP2 POP JUMPDEST PUSH1 0x20 DUP3 LT DUP2 SUB PUSH3 0x4AD JUMPI PUSH4 0x4E487B71 PUSH1 0xE0 SHL PUSH1 0x0 MSTORE PUSH1 0x22 PUSH1 0x4 MSTORE PUSH1 0x24 PUSH1 0x0 REVERT JUMPDEST POP SWAP2 SWAP1 POP JUMP JUMPDEST PUSH1 0x1F DUP3 GT ISZERO PUSH3 0x503 JUMPI PUSH1 0x0 DUP2 PUSH1 0x0 MSTORE PUSH1 0x20 PUSH1 0x0 KECCAK256 PUSH1 0x1F DUP6 ADD PUSH1 0x5 SHR DUP2 ADD PUSH1 0x20 DUP7 LT ISZERO PUSH3 0x4DE JUMPI POP DUP1 JUMPDEST PUSH1 0x1F DUP6 ADD PUSH1 0x5 SHR DUP3 ADD SWAP2 POP JUMPDEST DUP2 DUP2 LT ISZERO PUSH3 0x4FF JUMPI DUP3 DUP2 SSTORE PUSH1 0x1 ADD PUSH3 0x4EA JUMP JUMPDEST POP POP POP JUMPDEST POP POP POP JUMP JUMPDEST DUP2 MLOAD PUSH1 0x1 PUSH1 0x1 PUSH1 0x40 SHL SUB DUP2 GT ISZERO PUSH3 0x524 JUMPI PUSH3 0x524 PUSH3 0x2B4 JUMP JUMPDEST PUSH3 0x53C DUP2 PUSH3 0x535 DUP5 SLOAD PUSH3 0x477 JUMP JUMPDEST DUP5 PUSH3 0x4B3 JUMP JUMPDEST PUSH1 0x20 DUP1 PUSH1 0x1F DUP4 GT PUSH1 0x1 DUP2 EQ PUSH3 0x574 JUMPI PUSH1 0x0 DUP5 ISZERO PUSH3 0x55B JUMPI POP DUP6 DUP4 ADD MLOAD JUMPDEST PUSH1 0x0 NOT PUSH1 0x3 DUP7 SWAP1 SHL SHR NOT AND PUSH1 0x1 DUP6 SWAP1 SHL OR DUP6 SSTORE PUSH3 0x4FF JUMP JUMPDEST PUSH1 0x0 DUP6 DUP2 MSTORE PUSH1 0x20 DUP2 KECCAK256 PUSH1 0x1F NOT DUP7 AND SWAP2 JUMPDEST DUP3 DUP2 LT ISZERO PUSH3 0x5A5 JUMPI DUP9 DUP7 ADD MLOAD DUP3 SSTORE SWAP5 DUP5 ADD SWAP5 PUSH1 0x1 SWAP1 SWAP2 ADD SWAP1 DUP5 ADD PUSH3 0x584 JUMP JUMPDEST POP DUP6 DUP3 LT ISZERO PUSH3 0x5C4 JUMPI DUP8 DUP6 ADD MLOAD PUSH1 0x0 NOT PUSH1 0x3 DUP9 SWAP1 SHL PUSH1 0xF8 AND SHR NOT AND DUP2 SSTORE JUMPDEST POP POP POP POP POP PUSH1 0x1 SWAP1 DUP2 SHL ADD SWAP1 SSTORE POP JUMP JUMPDEST PUSH1 0x80 MLOAD PUSH1 0xA0 MLOAD PUSH2 0x2DB5 PUSH3 0x61D PUSH1 0x0 CODECOPY PUSH1 0x0 PUSH2 0x1127 ADD MSTORE PUSH1 0x0 DUP2 DUP2 PUSH2 0x273 ADD MSTORE DUP2 DUP2 PUSH2 0x32F ADD MSTORE DUP2 DUP2 PUSH2 0x1EFD ADD MSTORE DUP2 DUP2 PUSH2 0x1F85 ADD MSTORE DUP2 DUP2 PUSH2 0x20AD ADD MSTORE PUSH2 0x20EB ADD MSTORE PUSH2 0x2DB5 PUSH1 0x0 RETURN INVALID PUSH1 0x80 PUSH1 0x40 MSTORE CALLVALUE DUP1 ISZERO PUSH2 0x10 JUMPI PUSH1 0x0 DUP1 REVERT JUMPDEST POP PUSH1 0x4 CALLDATASIZE LT PUSH2 0x1CF JUMPI PUSH1 0x0 CALLDATALOAD PUSH1 0xE0 SHR DUP1 PUSH4 0x70A08231 GT PUSH2 0x104 JUMPI DUP1 PUSH4 0xA22CB465 GT PUSH2 0xA2 JUMPI DUP1 PUSH4 0xD547741F GT PUSH2 0x71 JUMPI DUP1 PUSH4 0xD547741F EQ PUSH2 0x451 JUMPI DUP1 PUSH4 0xE985E9C5 EQ PUSH2 0x464 JUMPI DUP1 PUSH4 0xF2FDE38B EQ PUSH2 0x477 JUMPI DUP1 PUSH4 0xF5B541A6 EQ PUSH2 0x48A JUMPI PUSH1 0x0 DUP1 REVERT JUMPDEST DUP1 PUSH4 0xA22CB465 EQ PUSH2 0x3F1 JUMPI DUP1 PUSH4 0xB88D4FDE EQ PUSH2 0x404 JUMPI DUP1 PUSH4 0xC87B56DD EQ PUSH2 0x417 JUMPI DUP1 PUSH4 0xD5391393 EQ PUSH2 0x42A JUMPI PUSH1 0x0 DUP1 REVERT JUMPDEST DUP1 PUSH4 0x91D14854 GT PUSH2 0xDE JUMPI DUP1 PUSH4 0x91D14854 EQ PUSH2 0x3BB JUMPI DUP1 PUSH4 0x95D89B41 EQ PUSH2 0x3CE JUMPI DUP1 PUSH4 0x95F94BC4 EQ PUSH2 0x3D6 JUMPI DUP1 PUSH4 0xA0C76F62 EQ PUSH2 0x3E9 JUMPI PUSH1 0x0 DUP1 REVERT JUMPDEST DUP1 PUSH4 0x70A08231 EQ PUSH2 0x37F JUMPI DUP1 PUSH4 0x8BB9C5BF EQ PUSH2 0x3A0 JUMPI DUP1 PUSH4 0x8DA5CB5B EQ PUSH2 0x3B3 JUMPI PUSH1 0x0 DUP1 REVERT JUMPDEST DUP1 PUSH4 0x31E66E1E GT PUSH2 0x171 JUMPI DUP1 PUSH4 0x4BAE2BE8 GT PUSH2 0x14B JUMPI DUP1 PUSH4 0x4BAE2BE8 EQ PUSH2 0x2E6 JUMPI DUP1 PUSH4 0x54C7BE06 EQ PUSH2 0x30C JUMPI DUP1 PUSH4 0x572B6C05 EQ PUSH2 0x31F JUMPI DUP1 PUSH4 0x6352211E EQ PUSH2 0x36C JUMPI PUSH1 0x0 DUP1 REVERT JUMPDEST DUP1 PUSH4 0x31E66E1E EQ PUSH2 0x2AA JUMPI DUP1 PUSH4 0x42842E0E EQ PUSH2 0x2C0 JUMPI DUP1 PUSH4 0x42966C68 EQ PUSH2 0x2D3 JUMPI PUSH1 0x0 DUP1 REVERT JUMPDEST DUP1 PUSH4 0x95EA7B3 GT PUSH2 0x1AD JUMPI DUP1 PUSH4 0x95EA7B3 EQ PUSH2 0x249 JUMPI DUP1 PUSH4 0x23B872DD EQ PUSH2 0x25E JUMPI DUP1 PUSH4 0x2B4C9F16 EQ PUSH2 0x271 JUMPI DUP1 PUSH4 0x2F2FF15D EQ PUSH2 0x297 JUMPI PUSH1 0x0 DUP1 REVERT JUMPDEST DUP1 PUSH4 0x1FFC9A7 EQ PUSH2 0x1D4 JUMPI DUP1 PUSH4 0x6FDDE03 EQ PUSH2 0x1FC JUMPI DUP1 PUSH4 0x81812FC EQ PUSH2 0x211 JUMPI JUMPDEST PUSH1 0x0 DUP1 REVERT JUMPDEST PUSH2 0x1E7 PUSH2 0x1E2 CALLDATASIZE PUSH1 0x4 PUSH2 0x2365 JUMP JUMPDEST PUSH2 0x4B1 JUMP JUMPDEST PUSH1 0x40 MLOAD SWAP1 ISZERO ISZERO DUP2 MSTORE PUSH1 0x20 ADD JUMPDEST PUSH1 0x40 MLOAD DUP1 SWAP2 SUB SWAP1 RETURN JUMPDEST PUSH2 0x204 PUSH2 0x4CB JUMP JUMPDEST PUSH1 0x40 MLOAD PUSH2 0x1F3 SWAP2 SWAP1 PUSH2 0x23F0 JUMP JUMPDEST PUSH2 0x224 PUSH2 0x21F CALLDATASIZE PUSH1 0x4 PUSH2 0x2403 JUMP JUMPDEST PUSH2 0x4DA JUMP JUMPDEST PUSH1 0x40 MLOAD PUSH20 0xFFFFFFFFFFFFFFFFFFFFFFFFFFFFFFFFFFFFFFFF SWAP1 SWAP2 AND DUP2 MSTORE PUSH1 0x20 ADD PUSH2 0x1F3 JUMP JUMPDEST PUSH2 0x25C PUSH2 0x257 CALLDATASIZE PUSH1 0x4 PUSH2 0x243E JUMP JUMPDEST PUSH2 0x4EE JUMP JUMPDEST STOP JUMPDEST PUSH2 0x25C PUSH2 0x26C CALLDATASIZE PUSH1 0x4 PUSH2 0x246A JUMP JUMPDEST PUSH2 0x50F JUMP JUMPDEST PUSH32 0x0 PUSH2 0x224 JUMP JUMPDEST PUSH2 0x25C PUSH2 0x2A5 CALLDATASIZE PUSH1 0x4 PUSH2 0x24AB JUMP JUMPDEST PUSH2 0x543 JUMP JUMPDEST PUSH2 0x2B2 PUSH2 0x57C JUMP JUMPDEST PUSH1 0x40 MLOAD PUSH2 0x1F3 SWAP3 SWAP2 SWAP1 PUSH2 0x24DB JUMP JUMPDEST PUSH2 0x25C PUSH2 0x2CE CALLDATASIZE PUSH1 0x4 PUSH2 0x246A JUMP JUMPDEST PUSH2 0x58F JUMP JUMPDEST PUSH2 0x25C PUSH2 0x2E1 CALLDATASIZE PUSH1 0x4 PUSH2 0x2403 JUMP JUMPDEST PUSH2 0x5BD JUMP JUMPDEST PUSH2 0x2F9 PUSH2 0x2F4 CALLDATASIZE PUSH1 0x4 PUSH2 0x2403 JUMP JUMPDEST PUSH2 0x7BB JUMP JUMPDEST PUSH1 0x40 MLOAD PUSH2 0x1F3 SWAP8 SWAP7 SWAP6 SWAP5 SWAP4 SWAP3 SWAP2 SWAP1 PUSH2 0x2528 JUMP JUMPDEST PUSH2 0x25C PUSH2 0x31A CALLDATASIZE PUSH1 0x4 PUSH2 0x258F JUMP JUMPDEST PUSH2 0x942 JUMP JUMPDEST PUSH2 0x1E7 PUSH2 0x32D CALLDATASIZE PUSH1 0x4 PUSH2 0x25EF JUMP JUMPDEST PUSH32 0x0 PUSH20 0xFFFFFFFFFFFFFFFFFFFFFFFFFFFFFFFFFFFFFFFF SWAP1 DUP2 AND SWAP2 AND EQ SWAP1 JUMP JUMPDEST PUSH2 0x224 PUSH2 0x37A CALLDATASIZE PUSH1 0x4 PUSH2 0x2403 JUMP JUMPDEST PUSH2 0x9AB JUMP JUMPDEST PUSH2 0x392 PUSH2 0x38D CALLDATASIZE PUSH1 0x4 PUSH2 0x25EF JUMP JUMPDEST PUSH2 0x9B9 JUMP JUMPDEST PUSH1 0x40 MLOAD SWAP1 DUP2 MSTORE PUSH1 0x20 ADD PUSH2 0x1F3 JUMP JUMPDEST PUSH2 0x25C PUSH2 0x3AE CALLDATASIZE PUSH1 0x4 PUSH2 0x2403 JUMP JUMPDEST PUSH2 0x9CD JUMP JUMPDEST PUSH2 0x224 PUSH2 0x9EB JUMP JUMPDEST PUSH2 0x1E7 PUSH2 0x3C9 CALLDATASIZE PUSH1 0x4 PUSH2 0x24AB JUMP JUMPDEST PUSH2 0xA12 JUMP JUMPDEST PUSH2 0x204 PUSH2 0xA5D JUMP JUMPDEST PUSH2 0x25C PUSH2 0x3E4 CALLDATASIZE PUSH1 0x4 PUSH2 0x25EF JUMP JUMPDEST PUSH2 0xA67 JUMP JUMPDEST PUSH2 0x224 PUSH2 0xAC1 JUMP JUMPDEST PUSH2 0x25C PUSH2 0x3FF CALLDATASIZE PUSH1 0x4 PUSH2 0x261A JUMP JUMPDEST PUSH2 0xAEB JUMP JUMPDEST PUSH2 0x25C PUSH2 0x412 CALLDATASIZE PUSH1 0x4 PUSH2 0x2648 JUMP JUMPDEST PUSH2 0xB08 JUMP JUMPDEST PUSH2 0x204 PUSH2 0x425 CALLDATASIZE PUSH1 0x4 PUSH2 0x2403 JUMP JUMPDEST PUSH2 0xB42 JUMP JUMPDEST PUSH2 0x392 PUSH32 0x6D696E7465720000000000000000000000000000000000000000000000000000 DUP2 JUMP JUMPDEST PUSH2 0x25C PUSH2 0x45F CALLDATASIZE PUSH1 0x4 PUSH2 0x24AB JUMP JUMPDEST PUSH2 0xB65 JUMP JUMPDEST PUSH2 0x1E7 PUSH2 0x472 CALLDATASIZE PUSH1 0x4 PUSH2 0x26E7 JUMP JUMPDEST PUSH2 0xB93 JUMP JUMPDEST PUSH2 0x25C PUSH2 0x485 CALLDATASIZE PUSH1 0x4 PUSH2 0x25EF JUMP JUMPDEST PUSH2 0xBE1 JUMP JUMPDEST PUSH2 0x392 PUSH32 0x6F70657261746F72000000000000000000000000000000000000000000000000 DUP2 JUMP JUMPDEST PUSH1 0x0 PUSH2 0x4C5 DUP3 PUSH2 0x4BF PUSH2 0xBFC JUMP JUMPDEST SWAP1 PUSH2 0xC2A JUMP JUMPDEST SWAP3 SWAP2 POP POP JUMP JUMPDEST PUSH1 0x60 PUSH2 0x4D5 PUSH2 0xD04 JUMP JUMPDEST SWAP1 POP SWAP1 JUMP JUMPDEST PUSH1 0x0 PUSH2 0x4C5 DUP3 PUSH2 0x4E8 PUSH2 0xD16 JUMP JUMPDEST SWAP1 PUSH2 0xD44 JUMP JUMPDEST PUSH2 0x50B PUSH2 0x4F9 PUSH2 0xDFD JUMP JUMPDEST DUP4 DUP4 PUSH2 0x503 PUSH2 0xD16 JUMP JUMPDEST SWAP3 SWAP2 SWAP1 PUSH2 0xE07 JUMP JUMPDEST POP POP JUMP JUMPDEST PUSH1 0x0 PUSH2 0x519 PUSH2 0xDFD JUMP JUMPDEST SWAP1 POP PUSH2 0x525 DUP2 DUP4 PUSH2 0x1082 JUMP JUMPDEST PUSH2 0x53D DUP2 DUP6 DUP6 DUP6 PUSH2 0x534 PUSH2 0xD16 JUMP JUMPDEST SWAP4 SWAP3 SWAP2 SWAP1 PUSH2 0x11C3 JUMP JUMPDEST POP POP POP POP JUMP JUMPDEST PUSH1 0x0 PUSH2 0x54D PUSH2 0xDFD JUMP JUMPDEST SWAP1 POP PUSH2 0x561 DUP2 PUSH2 0x55B PUSH2 0x14A1 JUMP JUMPDEST SWAP1 PUSH2 0x14CF JUMP JUMPDEST PUSH2 0x577 DUP4 DUP4 DUP4 PUSH2 0x56F PUSH2 0x153A JUMP JUMPDEST SWAP3 SWAP2 SWAP1 PUSH2 0x1568 JUMP JUMPDEST POP POP POP JUMP JUMPDEST CALLDATASIZE PUSH1 0x0 PUSH2 0x587 PUSH2 0x163E JUMP JUMPDEST SWAP2 POP SWAP2 POP SWAP1 SWAP2 JUMP JUMPDEST PUSH1 0x0 PUSH2 0x599 PUSH2 0xDFD JUMP JUMPDEST SWAP1 POP PUSH2 0x5A5 DUP2 DUP4 PUSH2 0x1082 JUMP JUMPDEST PUSH2 0x53D DUP2 DUP6 DUP6 DUP6 PUSH2 0x5B4 PUSH2 0xD16 JUMP JUMPDEST SWAP4 SWAP3 SWAP2 SWAP1 PUSH2 0x1649 JUMP JUMPDEST PUSH1 0x0 DUP2 DUP2 MSTORE PUSH1 0x1 PUSH1 0x20 DUP2 DUP2 MSTORE PUSH1 0x40 DUP1 DUP5 KECCAK256 SWAP1 MLOAD PUSH2 0x5DF SWAP4 SWAP2 SWAP1 SWAP2 ADD SWAP2 ADD PUSH2 0x2768 JUMP JUMPDEST PUSH1 0x40 DUP1 MLOAD DUP1 DUP4 SUB PUSH32 0xFFFFFFFFFFFFFFFFFFFFFFFFFFFFFFFFFFFFFFFFFFFFFFFFFFFFFFFFFFFFFFE0 ADD DUP2 MSTORE SWAP1 DUP3 SWAP1 MSTORE DUP1 MLOAD PUSH1 0x20 SWAP1 SWAP2 ADD KECCAK256 PUSH1 0x0 SLOAD PUSH32 0xA3A2656A00000000000000000000000000000000000000000000000000000000 DUP4 MSTORE PUSH1 0x4 DUP4 ADD DUP3 SWAP1 MSTORE PUSH1 0x24 DUP4 ADD DUP6 SWAP1 MSTORE SWAP1 SWAP3 POP PUSH20 0xFFFFFFFFFFFFFFFFFFFFFFFFFFFFFFFFFFFFFFFF AND SWAP1 PUSH4 0xA3A2656A SWAP1 PUSH1 0x44 ADD PUSH1 0x20 PUSH1 0x40 MLOAD DUP1 DUP4 SUB DUP2 DUP7 GAS STATICCALL ISZERO DUP1 ISZERO PUSH2 0x68A JUMPI RETURNDATASIZE PUSH1 0x0 DUP1 RETURNDATACOPY RETURNDATASIZE PUSH1 0x0 REVERT JUMPDEST POP POP POP POP PUSH1 0x40 MLOAD RETURNDATASIZE PUSH1 0x1F NOT PUSH1 0x1F DUP3 ADD AND DUP3 ADD DUP1 PUSH1 0x40 MSTORE POP DUP2 ADD SWAP1 PUSH2 0x6AE SWAP2 SWAP1 PUSH2 0x27FC JUMP JUMPDEST ISZERO PUSH2 0x789 JUMPI PUSH1 0x0 PUSH2 0x6C7 DUP4 PUSH2 0x6C1 PUSH2 0xD16 JUMP JUMPDEST SWAP1 PUSH2 0x168F JUMP JUMPDEST SWAP1 POP PUSH32 0xDEAD000000000000000000000000000000000000000000000000000000000000 PUSH2 0x6F2 PUSH2 0xD16 JUMP JUMPDEST PUSH1 0x0 DUP6 DUP2 MSTORE PUSH1 0x20 SWAP2 SWAP1 SWAP2 MSTORE PUSH1 0x40 SWAP1 KECCAK256 SSTORE PUSH2 0x70A PUSH2 0xD16 JUMP JUMPDEST PUSH20 0xFFFFFFFFFFFFFFFFFFFFFFFFFFFFFFFFFFFFFFFF DUP3 AND PUSH1 0x0 DUP2 DUP2 MSTORE PUSH1 0x1 SWAP3 SWAP1 SWAP3 ADD PUSH1 0x20 MSTORE PUSH1 0x40 DUP1 DUP4 KECCAK256 DUP1 SLOAD PUSH32 0xFFFFFFFFFFFFFFFFFFFFFFFFFFFFFFFFFFFFFFFFFFFFFFFFFFFFFFFFFFFFFFFF ADD SWAP1 SSTORE MLOAD DUP6 SWAP3 SWAP2 SWAP1 PUSH32 0xDDF252AD1BE2C89B69C2B068FC378DAA952BA7F163C4A11628F55A4DF523B3EF SWAP1 DUP4 SWAP1 LOG4 POP POP POP JUMP JUMPDEST PUSH1 0x40 MLOAD PUSH32 0xEEDDF6AB00000000000000000000000000000000000000000000000000000000 DUP2 MSTORE PUSH1 0x4 ADD PUSH1 0x40 MLOAD DUP1 SWAP2 SUB SWAP1 REVERT JUMPDEST PUSH1 0x1 PUSH1 0x20 DUP2 SWAP1 MSTORE PUSH1 0x0 SWAP2 DUP3 MSTORE PUSH1 0x40 SWAP1 SWAP2 KECCAK256 DUP1 SLOAD SWAP2 DUP2 ADD DUP1 SLOAD PUSH2 0xFFFF DUP1 DUP6 AND SWAP5 PUSH3 0x10000 DUP2 DIV SWAP1 SWAP2 AND SWAP4 PUSH8 0xFFFFFFFFFFFFFFFF PUSH5 0x100000000 DUP4 DIV DUP2 AND SWAP5 PUSH13 0x1000000000000000000000000 DUP5 DIV DUP3 AND SWAP5 PUSH21 0x10000000000000000000000000000000000000000 SWAP1 SWAP5 DIV SWAP1 SWAP2 AND SWAP3 PUSH2 0x831 SWAP1 PUSH2 0x2715 JUMP JUMPDEST DUP1 PUSH1 0x1F ADD PUSH1 0x20 DUP1 SWAP2 DIV MUL PUSH1 0x20 ADD PUSH1 0x40 MLOAD SWAP1 DUP2 ADD PUSH1 0x40 MSTORE DUP1 SWAP3 SWAP2 SWAP1 DUP2 DUP2 MSTORE PUSH1 0x20 ADD DUP3 DUP1 SLOAD PUSH2 0x85D SWAP1 PUSH2 0x2715 JUMP JUMPDEST DUP1 ISZERO PUSH2 0x8AA JUMPI DUP1 PUSH1 0x1F LT PUSH2 0x87F JUMPI PUSH2 0x100 DUP1 DUP4 SLOAD DIV MUL DUP4 MSTORE SWAP2 PUSH1 0x20 ADD SWAP2 PUSH2 0x8AA JUMP JUMPDEST DUP3 ADD SWAP2 SWAP1 PUSH1 0x0 MSTORE PUSH1 0x20 PUSH1 0x0 KECCAK256 SWAP1 JUMPDEST DUP2 SLOAD DUP2 MSTORE SWAP1 PUSH1 0x1 ADD SWAP1 PUSH1 0x20 ADD DUP1 DUP4 GT PUSH2 0x88D JUMPI DUP3 SWAP1 SUB PUSH1 0x1F AND DUP3 ADD SWAP2 JUMPDEST POP POP POP POP POP SWAP1 DUP1 PUSH1 0x2 ADD DUP1 SLOAD PUSH2 0x8BF SWAP1 PUSH2 0x2715 JUMP JUMPDEST DUP1 PUSH1 0x1F ADD PUSH1 0x20 DUP1 SWAP2 DIV MUL PUSH1 0x20 ADD PUSH1 0x40 MLOAD SWAP1 DUP2 ADD PUSH1 0x40 MSTORE DUP1 SWAP3 SWAP2 SWAP1 DUP2 DUP2 MSTORE PUSH1 0x20 ADD DUP3 DUP1 SLOAD PUSH2 0x8EB SWAP1 PUSH2 0x2715 JUMP JUMPDEST DUP1 ISZERO PUSH2 0x938 JUMPI DUP1 PUSH1 0x1F LT PUSH2 0x90D JUMPI PUSH2 0x100 DUP1 DUP4 SLOAD DIV MUL DUP4 MSTORE SWAP2 PUSH1 0x20 ADD SWAP2 PUSH2 0x938 JUMP JUMPDEST DUP3 ADD SWAP2 SWAP1 PUSH1 0x0 MSTORE PUSH1 0x20 PUSH1 0x0 KECCAK256 SWAP1 JUMPDEST DUP2 SLOAD DUP2 MSTORE SWAP1 PUSH1 0x1 ADD SWAP1 PUSH1 0x20 ADD DUP1 DUP4 GT PUSH2 0x91B JUMPI DUP3 SWAP1 SUB PUSH1 0x1F AND DUP3 ADD SWAP2 JUMPDEST POP POP POP POP POP SWAP1 POP DUP8 JUMP JUMPDEST PUSH2 0x976 PUSH32 0x6D696E7465720000000000000000000000000000000000000000000000000000 CALLER PUSH2 0x96F PUSH2 0x153A JUMP JUMPDEST SWAP2 SWAP1 PUSH2 0x16F8 JUMP JUMPDEST PUSH2 0x98A DUP4 DUP4 PUSH2 0x983 PUSH2 0xD16 JUMP JUMPDEST SWAP2 SWAP1 PUSH2 0x177E JUMP JUMPDEST PUSH1 0x0 DUP3 DUP2 MSTORE PUSH1 0x1 PUSH1 0x20 MSTORE PUSH1 0x40 SWAP1 KECCAK256 DUP2 SWAP1 PUSH2 0x9A4 DUP3 DUP3 PUSH2 0x2A44 JUMP JUMPDEST POP POP POP POP POP JUMP JUMPDEST PUSH1 0x0 PUSH2 0x4C5 DUP3 PUSH2 0x6C1 PUSH2 0xD16 JUMP JUMPDEST PUSH1 0x0 PUSH2 0x4C5 DUP3 PUSH2 0x9C7 PUSH2 0xD16 JUMP JUMPDEST SWAP1 PUSH2 0x1898 JUMP JUMPDEST PUSH2 0x9E8 PUSH2 0x9D8 PUSH2 0xDFD JUMP JUMPDEST DUP3 PUSH2 0x9E1 PUSH2 0x153A JUMP JUMPDEST SWAP2 SWAP1 PUSH2 0x1914 JUMP JUMPDEST POP JUMP JUMPDEST PUSH1 0x0 PUSH2 0x4D5 PUSH2 0x9F8 PUSH2 0x14A1 JUMP JUMPDEST SLOAD PUSH20 0xFFFFFFFFFFFFFFFFFFFFFFFFFFFFFFFFFFFFFFFF AND SWAP1 JUMP JUMPDEST PUSH1 0x0 PUSH2 0xA56 DUP4 DUP4 PUSH2 0xA21 PUSH2 0x153A JUMP JUMPDEST PUSH1 0x0 SWAP3 DUP4 MSTORE PUSH1 0x20 SWAP1 DUP2 MSTORE PUSH1 0x40 DUP1 DUP5 KECCAK256 PUSH20 0xFFFFFFFFFFFFFFFFFFFFFFFFFFFFFFFFFFFFFFFF SWAP1 SWAP4 AND DUP5 MSTORE SWAP2 SWAP1 MSTORE SWAP1 KECCAK256 SLOAD PUSH1 0xFF AND SWAP1 JUMP JUMPDEST SWAP4 SWAP3 POP POP POP JUMP JUMPDEST PUSH1 0x60 PUSH2 0x4D5 PUSH2 0x19B8 JUMP JUMPDEST PUSH2 0xA7A PUSH2 0xA72 PUSH2 0xDFD JUMP JUMPDEST PUSH2 0x55B PUSH2 0x14A1 JUMP JUMPDEST PUSH1 0x0 DUP1 SLOAD PUSH32 0xFFFFFFFFFFFFFFFFFFFFFFFF0000000000000000000000000000000000000000 AND PUSH20 0xFFFFFFFFFFFFFFFFFFFFFFFFFFFFFFFFFFFFFFFF SWAP3 SWAP1 SWAP3 AND SWAP2 SWAP1 SWAP2 OR SWAP1 SSTORE JUMP JUMPDEST PUSH1 0x0 PUSH2 0x4D5 PUSH2 0xACE PUSH2 0x19CA JUMP JUMPDEST PUSH1 0x2 ADD SLOAD PUSH20 0xFFFFFFFFFFFFFFFFFFFFFFFFFFFFFFFFFFFFFFFF AND SWAP1 JUMP JUMPDEST PUSH2 0x50B PUSH2 0xAF6 PUSH2 0xDFD JUMP JUMPDEST DUP4 DUP4 PUSH2 0xB00 PUSH2 0xD16 JUMP JUMPDEST SWAP3 SWAP2 SWAP1 PUSH2 0x19F8 JUMP JUMPDEST PUSH1 0x0 PUSH2 0xB12 PUSH2 0xDFD JUMP JUMPDEST SWAP1 POP PUSH2 0xB1E DUP2 DUP6 PUSH2 0x1082 JUMP JUMPDEST PUSH2 0xB3A DUP2 DUP8 DUP8 DUP8 DUP8 DUP8 PUSH2 0xB2F PUSH2 0xD16 JUMP JUMPDEST SWAP6 SWAP5 SWAP4 SWAP3 SWAP2 SWAP1 PUSH2 0x1B10 JUMP JUMPDEST POP POP POP POP POP POP JUMP JUMPDEST PUSH1 0x60 PUSH2 0xB50 DUP3 PUSH2 0x6C1 PUSH2 0xD16 JUMP JUMPDEST POP PUSH2 0x4C5 ADDRESS DUP4 PUSH2 0xB5E PUSH2 0x19CA JUMP JUMPDEST SWAP2 SWAP1 PUSH2 0x1B86 JUMP JUMPDEST PUSH1 0x0 PUSH2 0xB6F PUSH2 0xDFD JUMP JUMPDEST SWAP1 POP PUSH2 0xB7D DUP2 PUSH2 0x55B PUSH2 0x14A1 JUMP JUMPDEST PUSH2 0x577 DUP4 DUP4 DUP4 PUSH2 0xB8B PUSH2 0x153A JUMP JUMPDEST SWAP3 SWAP2 SWAP1 PUSH2 0x1C46 JUMP JUMPDEST PUSH1 0x0 PUSH2 0xA56 DUP4 DUP4 PUSH2 0xBA2 PUSH2 0xD16 JUMP JUMPDEST SWAP2 SWAP1 PUSH20 0xFFFFFFFFFFFFFFFFFFFFFFFFFFFFFFFFFFFFFFFF SWAP2 DUP3 AND PUSH1 0x0 SWAP1 DUP2 MSTORE PUSH1 0x3 SWAP4 SWAP1 SWAP4 ADD PUSH1 0x20 SWAP1 DUP2 MSTORE PUSH1 0x40 DUP1 DUP6 KECCAK256 SWAP3 SWAP1 SWAP4 AND DUP5 MSTORE MSTORE SWAP1 KECCAK256 SLOAD PUSH1 0xFF AND SWAP1 JUMP JUMPDEST PUSH2 0x9E8 PUSH2 0xBEC PUSH2 0xDFD JUMP JUMPDEST DUP3 PUSH2 0xBF5 PUSH2 0x14A1 JUMP JUMPDEST SWAP2 SWAP1 PUSH2 0x1D10 JUMP JUMPDEST PUSH1 0x0 DUP1 PUSH2 0x4C5 PUSH1 0x1 PUSH32 0xCA9D3E17F264B0F3984E2634E94ADB37FA3E6A8103F06AEAE6FA59E21C769F5E PUSH2 0x2BEA JUMP JUMPDEST PUSH1 0x0 PUSH29 0x100000000000000000000000000000000000000000000000000000000 PUSH32 0xFFFFFFFF00000000000000000000000000000000000000000000000000000000 DUP4 AND ADD PUSH2 0xC7A JUMPI POP PUSH1 0x0 PUSH2 0x4C5 JUMP JUMPDEST PUSH32 0xFE00365900000000000000000000000000000000000000000000000000000000 PUSH32 0xFFFFFFFF00000000000000000000000000000000000000000000000000000000 DUP4 AND ADD PUSH2 0xCCB JUMPI POP PUSH1 0x1 PUSH2 0x4C5 JUMP JUMPDEST POP PUSH32 0xFFFFFFFF00000000000000000000000000000000000000000000000000000000 AND PUSH1 0x0 SWAP1 DUP2 MSTORE PUSH1 0x20 SWAP2 SWAP1 SWAP2 MSTORE PUSH1 0x40 SWAP1 KECCAK256 SLOAD PUSH1 0xFF AND SWAP1 JUMP JUMPDEST PUSH1 0x60 PUSH2 0x4D5 PUSH2 0xD11 PUSH2 0x19CA JUMP JUMPDEST PUSH2 0x1E24 JUMP JUMPDEST PUSH1 0x0 DUP1 PUSH2 0x4C5 PUSH1 0x1 PUSH32 0xDDF3EE18AE6D688373C219468F8BE446E7AE82215F4779D821C7EA5E8C13C0C1 PUSH2 0x2BEA JUMP JUMPDEST PUSH1 0x0 DUP2 DUP2 MSTORE PUSH1 0x20 DUP4 SWAP1 MSTORE PUSH1 0x40 DUP2 KECCAK256 SLOAD PUSH20 0xFFFFFFFFFFFFFFFFFFFFFFFFFFFFFFFFFFFFFFFF DUP2 AND PUSH2 0xDA8 JUMPI PUSH1 0x40 MLOAD PUSH32 0xDD56047500000000000000000000000000000000000000000000000000000000 DUP2 MSTORE PUSH1 0x4 DUP2 ADD DUP5 SWAP1 MSTORE PUSH1 0x24 ADD JUMPDEST PUSH1 0x40 MLOAD DUP1 SWAP2 SUB SWAP1 REVERT JUMPDEST PUSH21 0x10000000000000000000000000000000000000000 DUP2 AND ISZERO PUSH2 0xDF3 JUMPI POP POP PUSH1 0x0 DUP2 DUP2 MSTORE PUSH1 0x2 DUP4 ADD PUSH1 0x20 MSTORE PUSH1 0x40 SWAP1 KECCAK256 SLOAD PUSH20 0xFFFFFFFFFFFFFFFFFFFFFFFFFFFFFFFFFFFFFFFF AND PUSH2 0x4C5 JUMP JUMPDEST PUSH1 0x0 SWAP2 POP POP PUSH2 0x4C5 JUMP JUMPDEST PUSH1 0x0 PUSH2 0x4D5 PUSH2 0x1EBA JUMP JUMPDEST PUSH1 0x0 DUP2 DUP2 MSTORE PUSH1 0x20 DUP6 SWAP1 MSTORE PUSH1 0x40 SWAP1 KECCAK256 SLOAD PUSH20 0xFFFFFFFFFFFFFFFFFFFFFFFFFFFFFFFFFFFFFFFF DUP2 AND PUSH2 0xE66 JUMPI PUSH1 0x40 MLOAD PUSH32 0xDD56047500000000000000000000000000000000000000000000000000000000 DUP2 MSTORE PUSH1 0x4 DUP2 ADD DUP4 SWAP1 MSTORE PUSH1 0x24 ADD PUSH2 0xD9F JUMP JUMPDEST DUP1 PUSH20 0xFFFFFFFFFFFFFFFFFFFFFFFFFFFFFFFFFFFFFFFF DUP1 DUP3 AND SWAP1 DUP6 AND SUB PUSH2 0xED1 JUMPI PUSH1 0x40 MLOAD PUSH32 0xB7FDC01000000000000000000000000000000000000000000000000000000000 DUP2 MSTORE PUSH20 0xFFFFFFFFFFFFFFFFFFFFFFFFFFFFFFFFFFFFFFFF DUP3 AND PUSH1 0x4 DUP3 ADD MSTORE PUSH1 0x24 ADD PUSH2 0xD9F JUMP JUMPDEST PUSH2 0xEDC DUP7 DUP3 DUP8 PUSH2 0x2001 JUMP JUMPDEST PUSH2 0xF39 JUMPI PUSH1 0x40 MLOAD PUSH32 0xC7563A1800000000000000000000000000000000000000000000000000000000 DUP2 MSTORE PUSH20 0xFFFFFFFFFFFFFFFFFFFFFFFFFFFFFFFFFFFFFFFF DUP1 DUP8 AND PUSH1 0x4 DUP4 ADD MSTORE DUP3 AND PUSH1 0x24 DUP3 ADD MSTORE PUSH1 0x44 DUP2 ADD DUP5 SWAP1 MSTORE PUSH1 0x64 ADD PUSH2 0xD9F JUMP JUMPDEST PUSH20 0xFFFFFFFFFFFFFFFFFFFFFFFFFFFFFFFFFFFFFFFF DUP5 AND PUSH2 0xF9E JUMPI PUSH21 0x10000000000000000000000000000000000000000 DUP3 AND ISZERO PUSH2 0xF99 JUMPI PUSH1 0x0 DUP4 DUP2 MSTORE PUSH1 0x20 DUP8 SWAP1 MSTORE PUSH1 0x40 SWAP1 KECCAK256 PUSH20 0xFFFFFFFFFFFFFFFFFFFFFFFFFFFFFFFFFFFFFFFF DUP3 AND SWAP1 SSTORE JUMPDEST PUSH2 0x101F JUMP JUMPDEST PUSH21 0x10000000000000000000000000000000000000000 DUP3 OR DUP1 DUP4 EQ PUSH2 0xFCF JUMPI PUSH1 0x0 DUP5 DUP2 MSTORE PUSH1 0x20 DUP9 SWAP1 MSTORE PUSH1 0x40 SWAP1 KECCAK256 DUP2 SWAP1 SSTORE JUMPDEST POP PUSH1 0x0 DUP4 DUP2 MSTORE PUSH1 0x2 DUP8 ADD PUSH1 0x20 MSTORE PUSH1 0x40 SWAP1 KECCAK256 DUP1 SLOAD PUSH32 0xFFFFFFFFFFFFFFFFFFFFFFFF0000000000000000000000000000000000000000 AND PUSH20 0xFFFFFFFFFFFFFFFFFFFFFFFFFFFFFFFFFFFFFFFF DUP7 AND OR SWAP1 SSTORE JUMPDEST DUP3 DUP5 PUSH20 0xFFFFFFFFFFFFFFFFFFFFFFFFFFFFFFFFFFFFFFFF AND DUP3 PUSH20 0xFFFFFFFFFFFFFFFFFFFFFFFFFFFFFFFFFFFFFFFF AND PUSH32 0x8C5BE1E5EBEC7D5BD14F71427D1E84F3DD0314C0F7B2291E5B200AC8C7C3B925 PUSH1 0x40 MLOAD PUSH1 0x40 MLOAD DUP1 SWAP2 SUB SWAP1 LOG4 POP POP POP POP POP POP JUMP JUMPDEST PUSH1 0x0 DUP2 DUP2 MSTORE PUSH1 0x1 PUSH1 0x20 DUP2 DUP2 MSTORE PUSH1 0x40 DUP1 DUP5 KECCAK256 SWAP1 MLOAD PUSH2 0x10A4 SWAP4 SWAP2 SWAP1 SWAP2 ADD SWAP2 ADD PUSH2 0x2768 JUMP JUMPDEST PUSH1 0x40 DUP1 MLOAD DUP1 DUP4 SUB PUSH32 0xFFFFFFFFFFFFFFFFFFFFFFFFFFFFFFFFFFFFFFFFFFFFFFFFFFFFFFFFFFFFFFE0 ADD DUP2 MSTORE SWAP1 DUP3 SWAP1 MSTORE DUP1 MLOAD PUSH1 0x20 SWAP1 SWAP2 ADD KECCAK256 PUSH32 0xF9236A3900000000000000000000000000000000000000000000000000000000 DUP3 MSTORE PUSH1 0x4 DUP3 ADD DUP2 SWAP1 MSTORE PUSH20 0xFFFFFFFFFFFFFFFFFFFFFFFFFFFFFFFFFFFFFFFF DUP6 DUP2 AND PUSH1 0x24 DUP5 ADD MSTORE SWAP1 SWAP3 POP PUSH32 0x0 AND SWAP1 PUSH4 0xF9236A39 SWAP1 PUSH1 0x44 ADD PUSH1 0x20 PUSH1 0x40 MLOAD DUP1 DUP4 SUB DUP2 DUP7 GAS STATICCALL ISZERO DUP1 ISZERO PUSH2 0x116E JUMPI RETURNDATASIZE PUSH1 0x0 DUP1 RETURNDATACOPY RETURNDATASIZE PUSH1 0x0 REVERT JUMPDEST POP POP POP POP PUSH1 0x40 MLOAD RETURNDATASIZE PUSH1 0x1F NOT PUSH1 0x1F DUP3 ADD AND DUP3 ADD DUP1 PUSH1 0x40 MSTORE POP DUP2 ADD SWAP1 PUSH2 0x1192 SWAP2 SWAP1 PUSH2 0x27FC JUMP JUMPDEST PUSH2 0x577 JUMPI PUSH2 0x577 PUSH32 0x6F70657261746F72000000000000000000000000000000000000000000000000 DUP5 PUSH2 0x96F PUSH2 0x153A JUMP JUMPDEST PUSH20 0xFFFFFFFFFFFFFFFFFFFFFFFFFFFFFFFFFFFFFFFF DUP3 AND PUSH2 0x1210 JUMPI PUSH1 0x40 MLOAD PUSH32 0x86C8706700000000000000000000000000000000000000000000000000000000 DUP2 MSTORE PUSH1 0x4 ADD PUSH1 0x40 MLOAD DUP1 SWAP2 SUB SWAP1 REVERT JUMPDEST PUSH1 0x0 DUP2 DUP2 MSTORE PUSH1 0x20 DUP7 SWAP1 MSTORE PUSH1 0x40 SWAP1 KECCAK256 SLOAD PUSH20 0xFFFFFFFFFFFFFFFFFFFFFFFFFFFFFFFFFFFFFFFF DUP2 AND PUSH2 0x126F JUMPI PUSH1 0x40 MLOAD PUSH32 0xDD56047500000000000000000000000000000000000000000000000000000000 DUP2 MSTORE PUSH1 0x4 DUP2 ADD DUP4 SWAP1 MSTORE PUSH1 0x24 ADD PUSH2 0xD9F JUMP JUMPDEST PUSH20 0xFFFFFFFFFFFFFFFFFFFFFFFFFFFFFFFFFFFFFFFF DUP5 AND DUP2 PUSH20 0xFFFFFFFFFFFFFFFFFFFFFFFFFFFFFFFFFFFFFFFF AND EQ PUSH2 0x12F3 JUMPI PUSH1 0x40 MLOAD PUSH32 0x14DBB53600000000000000000000000000000000000000000000000000000000 DUP2 MSTORE PUSH20 0xFFFFFFFFFFFFFFFFFFFFFFFFFFFFFFFFFFFFFFFF DUP6 AND PUSH1 0x4 DUP3 ADD MSTORE PUSH1 0x24 DUP2 ADD DUP4 SWAP1 MSTORE PUSH1 0x44 ADD PUSH2 0xD9F JUMP JUMPDEST PUSH2 0x12FE DUP7 DUP6 DUP8 PUSH2 0x2001 JUMP JUMPDEST PUSH2 0x13AD JUMPI PUSH21 0x10000000000000000000000000000000000000000 DUP2 AND ISZERO DUP1 PUSH2 0x134F JUMPI POP PUSH1 0x0 DUP3 DUP2 MSTORE PUSH1 0x2 DUP8 ADD PUSH1 0x20 MSTORE PUSH1 0x40 SWAP1 KECCAK256 SLOAD PUSH20 0xFFFFFFFFFFFFFFFFFFFFFFFFFFFFFFFFFFFFFFFF DUP7 DUP2 AND SWAP2 AND EQ ISZERO JUMPDEST ISZERO PUSH2 0x13AD JUMPI PUSH1 0x40 MLOAD PUSH32 0xA4A3018B00000000000000000000000000000000000000000000000000000000 DUP2 MSTORE PUSH20 0xFFFFFFFFFFFFFFFFFFFFFFFFFFFFFFFFFFFFFFFF DUP1 DUP8 AND PUSH1 0x4 DUP4 ADD MSTORE DUP6 AND PUSH1 0x24 DUP3 ADD MSTORE PUSH1 0x44 DUP2 ADD DUP4 SWAP1 MSTORE PUSH1 0x64 ADD PUSH2 0xD9F JUMP JUMPDEST PUSH1 0x0 DUP3 DUP2 MSTORE PUSH1 0x20 DUP8 SWAP1 MSTORE PUSH1 0x40 SWAP1 KECCAK256 PUSH20 0xFFFFFFFFFFFFFFFFFFFFFFFFFFFFFFFFFFFFFFFF DUP1 DUP6 AND SWAP2 DUP3 SWAP1 SSTORE DUP6 AND EQ PUSH2 0x143E JUMPI PUSH20 0xFFFFFFFFFFFFFFFFFFFFFFFFFFFFFFFFFFFFFFFF DUP1 DUP6 AND PUSH1 0x0 SWAP1 DUP2 MSTORE PUSH1 0x1 DUP1 DUP10 ADD PUSH1 0x20 MSTORE PUSH1 0x40 DUP1 DUP4 KECCAK256 DUP1 SLOAD PUSH32 0xFFFFFFFFFFFFFFFFFFFFFFFFFFFFFFFFFFFFFFFFFFFFFFFFFFFFFFFFFFFFFFFF ADD SWAP1 SSTORE SWAP3 DUP7 AND DUP3 MSTORE SWAP2 SWAP1 KECCAK256 DUP1 SLOAD SWAP1 SWAP2 ADD SWAP1 SSTORE JUMPDEST DUP2 DUP4 PUSH20 0xFFFFFFFFFFFFFFFFFFFFFFFFFFFFFFFFFFFFFFFF AND DUP6 PUSH20 0xFFFFFFFFFFFFFFFFFFFFFFFFFFFFFFFFFFFFFFFF AND PUSH32 0xDDF252AD1BE2C89B69C2B068FC378DAA952BA7F163C4A11628F55A4DF523B3EF PUSH1 0x40 MLOAD PUSH1 0x40 MLOAD DUP1 SWAP2 SUB SWAP1 LOG4 POP POP POP POP POP POP JUMP JUMPDEST PUSH1 0x0 DUP1 PUSH2 0x4C5 PUSH1 0x1 PUSH32 0xC9ED16F33AB3A66C84BFD83099CCB2A8845871E2E1C1928F63797152F0FD54CD PUSH2 0x2BEA JUMP JUMPDEST DUP2 SLOAD PUSH20 0xFFFFFFFFFFFFFFFFFFFFFFFFFFFFFFFFFFFFFFFF DUP3 DUP2 AND SWAP2 AND EQ PUSH2 0x50B JUMPI PUSH1 0x40 MLOAD PUSH32 0x2EF4875E00000000000000000000000000000000000000000000000000000000 DUP2 MSTORE PUSH20 0xFFFFFFFFFFFFFFFFFFFFFFFFFFFFFFFFFFFFFFFF DUP3 AND PUSH1 0x4 DUP3 ADD MSTORE PUSH1 0x24 ADD PUSH2 0xD9F JUMP JUMPDEST PUSH1 0x0 DUP1 PUSH2 0x4C5 PUSH1 0x1 PUSH32 0xC8827D3282AF6F37B64C3E9E6F3AC9DF286AB0BB0FCCD6F8661BF19ADB368B23 PUSH2 0x2BEA JUMP JUMPDEST PUSH1 0x0 DUP4 DUP2 MSTORE PUSH1 0x20 DUP6 DUP2 MSTORE PUSH1 0x40 DUP1 DUP4 KECCAK256 PUSH20 0xFFFFFFFFFFFFFFFFFFFFFFFFFFFFFFFFFFFFFFFF DUP7 AND DUP5 MSTORE SWAP1 SWAP2 MSTORE SWAP1 KECCAK256 SLOAD PUSH1 0xFF AND PUSH2 0x53D JUMPI PUSH1 0x0 DUP4 DUP2 MSTORE PUSH1 0x20 DUP6 DUP2 MSTORE PUSH1 0x40 DUP1 DUP4 KECCAK256 PUSH20 0xFFFFFFFFFFFFFFFFFFFFFFFFFFFFFFFFFFFFFFFF DUP7 DUP2 AND DUP1 DUP7 MSTORE SWAP2 DUP5 MSTORE SWAP4 DUP3 SWAP1 KECCAK256 DUP1 SLOAD PUSH32 0xFFFFFFFFFFFFFFFFFFFFFFFFFFFFFFFFFFFFFFFFFFFFFFFFFFFFFFFFFFFFFF00 AND PUSH1 0x1 OR SWAP1 SSTORE DUP2 MLOAD DUP8 DUP2 MSTORE SWAP3 DUP4 ADD MSTORE SWAP2 DUP4 AND SWAP2 DUP2 ADD SWAP2 SWAP1 SWAP2 MSTORE PUSH32 0x2F8788117E7EFF1D82E926EC794901D17C78024A50270940304540A733656F0D SWAP1 PUSH1 0x60 ADD JUMPDEST PUSH1 0x40 MLOAD DUP1 SWAP2 SUB SWAP1 LOG1 POP POP POP POP JUMP JUMPDEST CALLDATASIZE PUSH1 0x0 PUSH2 0x587 PUSH2 0x2076 JUMP JUMPDEST PUSH2 0x1656 DUP6 DUP6 DUP6 DUP6 DUP6 PUSH2 0x11C3 JUMP JUMPDEST PUSH20 0xFFFFFFFFFFFFFFFFFFFFFFFFFFFFFFFFFFFFFFFF DUP3 AND EXTCODESIZE ISZERO PUSH2 0x9A4 JUMPI PUSH2 0x9A4 DUP5 DUP5 DUP5 DUP5 PUSH1 0x40 MLOAD DUP1 PUSH1 0x20 ADD PUSH1 0x40 MSTORE DUP1 PUSH1 0x0 DUP2 MSTORE POP PUSH2 0x21E0 JUMP JUMPDEST PUSH1 0x0 DUP2 DUP2 MSTORE PUSH1 0x20 DUP4 SWAP1 MSTORE PUSH1 0x40 DUP2 KECCAK256 SLOAD PUSH20 0xFFFFFFFFFFFFFFFFFFFFFFFFFFFFFFFFFFFFFFFF DUP2 AND PUSH2 0x16EE JUMPI PUSH1 0x40 MLOAD PUSH32 0xDD56047500000000000000000000000000000000000000000000000000000000 DUP2 MSTORE PUSH1 0x4 DUP2 ADD DUP5 SWAP1 MSTORE PUSH1 0x24 ADD PUSH2 0xD9F JUMP JUMPDEST DUP1 JUMPDEST SWAP5 SWAP4 POP POP POP POP JUMP JUMPDEST PUSH1 0x0 DUP3 DUP2 MSTORE PUSH1 0x20 DUP5 DUP2 MSTORE PUSH1 0x40 DUP1 DUP4 KECCAK256 PUSH20 0xFFFFFFFFFFFFFFFFFFFFFFFFFFFFFFFFFFFFFFFF DUP6 AND DUP5 MSTORE SWAP1 SWAP2 MSTORE SWAP1 KECCAK256 SLOAD PUSH1 0xFF AND PUSH2 0x577 JUMPI PUSH1 0x40 MLOAD PUSH32 0x7AA7288200000000000000000000000000000000000000000000000000000000 DUP2 MSTORE PUSH1 0x4 DUP2 ADD DUP4 SWAP1 MSTORE PUSH20 0xFFFFFFFFFFFFFFFFFFFFFFFFFFFFFFFFFFFFFFFF DUP3 AND PUSH1 0x24 DUP3 ADD MSTORE PUSH1 0x44 ADD PUSH2 0xD9F JUMP JUMPDEST PUSH20 0xFFFFFFFFFFFFFFFFFFFFFFFFFFFFFFFFFFFFFFFF DUP3 AND PUSH2 0x17CB JUMPI PUSH1 0x40 MLOAD PUSH32 0x7851B9CD00000000000000000000000000000000000000000000000000000000 DUP2 MSTORE PUSH1 0x4 ADD PUSH1 0x40 MLOAD DUP1 SWAP2 SUB SWAP1 REVERT JUMPDEST PUSH1 0x0 DUP2 DUP2 MSTORE PUSH1 0x20 DUP5 SWAP1 MSTORE PUSH1 0x40 SWAP1 KECCAK256 SLOAD PUSH20 0xFFFFFFFFFFFFFFFFFFFFFFFFFFFFFFFFFFFFFFFF AND ISZERO PUSH2 0x182A JUMPI PUSH1 0x40 MLOAD PUSH32 0x753ECEAC00000000000000000000000000000000000000000000000000000000 DUP2 MSTORE PUSH1 0x4 DUP2 ADD DUP3 SWAP1 MSTORE PUSH1 0x24 ADD PUSH2 0xD9F JUMP JUMPDEST PUSH1 0x0 DUP2 DUP2 MSTORE PUSH1 0x20 DUP5 DUP2 MSTORE PUSH1 0x40 DUP1 DUP4 KECCAK256 PUSH20 0xFFFFFFFFFFFFFFFFFFFFFFFFFFFFFFFFFFFFFFFF DUP7 AND SWAP1 DUP2 SWAP1 SSTORE DUP1 DUP5 MSTORE PUSH1 0x1 DUP1 DUP9 ADD SWAP1 SWAP4 MSTORE DUP2 DUP5 KECCAK256 DUP1 SLOAD SWAP1 SWAP4 ADD SWAP1 SWAP3 SSTORE MLOAD DUP4 SWAP3 SWAP1 PUSH32 0xDDF252AD1BE2C89B69C2B068FC378DAA952BA7F163C4A11628F55A4DF523B3EF SWAP1 DUP3 SWAP1 LOG4 POP POP POP JUMP JUMPDEST PUSH1 0x0 PUSH20 0xFFFFFFFFFFFFFFFFFFFFFFFFFFFFFFFFFFFFFFFF DUP3 AND PUSH2 0x18E7 JUMPI PUSH1 0x40 MLOAD PUSH32 0xAEFBCE4E00000000000000000000000000000000000000000000000000000000 DUP2 MSTORE PUSH1 0x4 ADD PUSH1 0x40 MLOAD DUP1 SWAP2 SUB SWAP1 REVERT JUMPDEST POP PUSH20 0xFFFFFFFFFFFFFFFFFFFFFFFFFFFFFFFFFFFFFFFF AND PUSH1 0x0 SWAP1 DUP2 MSTORE PUSH1 0x1 SWAP2 SWAP1 SWAP2 ADD PUSH1 0x20 MSTORE PUSH1 0x40 SWAP1 KECCAK256 SLOAD SWAP1 JUMP JUMPDEST PUSH2 0x191F DUP4 DUP3 DUP5 PUSH2 0x16F8 JUMP JUMPDEST PUSH1 0x0 DUP2 DUP2 MSTORE PUSH1 0x20 DUP5 DUP2 MSTORE PUSH1 0x40 DUP1 DUP4 KECCAK256 PUSH20 0xFFFFFFFFFFFFFFFFFFFFFFFFFFFFFFFFFFFFFFFF DUP7 AND DUP1 DUP6 MSTORE SWAP1 DUP4 MSTORE SWAP3 DUP2 SWAP1 KECCAK256 DUP1 SLOAD PUSH32 0xFFFFFFFFFFFFFFFFFFFFFFFFFFFFFFFFFFFFFFFFFFFFFFFFFFFFFFFFFFFFFF00 AND SWAP1 SSTORE DUP1 MLOAD DUP5 DUP2 MSTORE SWAP2 DUP3 ADD DUP4 SWAP1 MSTORE DUP2 ADD SWAP2 SWAP1 SWAP2 MSTORE PUSH32 0xF6391F5C32D9C69D2A47EA670B442974B53935D1EDC7FD64EB21E047A839171B SWAP1 PUSH1 0x60 ADD PUSH1 0x40 MLOAD DUP1 SWAP2 SUB SWAP1 LOG1 POP POP POP JUMP JUMPDEST PUSH1 0x60 PUSH2 0x4D5 PUSH2 0x19C5 PUSH2 0x19CA JUMP JUMPDEST PUSH2 0x22F5 JUMP JUMPDEST PUSH1 0x0 DUP1 PUSH2 0x4C5 PUSH1 0x1 PUSH32 0x7EA68FD2DCF1C056B94DB6A0A537AA80D26FA9AB1EACD85DA1BA0B61B7E7A8A5 PUSH2 0x2BEA JUMP JUMPDEST DUP3 PUSH20 0xFFFFFFFFFFFFFFFFFFFFFFFFFFFFFFFFFFFFFFFF AND DUP3 PUSH20 0xFFFFFFFFFFFFFFFFFFFFFFFFFFFFFFFFFFFFFFFF AND SUB PUSH2 0x1A75 JUMPI PUSH1 0x40 MLOAD PUSH32 0xE4215C6A00000000000000000000000000000000000000000000000000000000 DUP2 MSTORE PUSH20 0xFFFFFFFFFFFFFFFFFFFFFFFFFFFFFFFFFFFFFFFF DUP5 AND PUSH1 0x4 DUP3 ADD MSTORE PUSH1 0x24 ADD PUSH2 0xD9F JUMP JUMPDEST PUSH20 0xFFFFFFFFFFFFFFFFFFFFFFFFFFFFFFFFFFFFFFFF DUP4 DUP2 AND PUSH1 0x0 DUP2 DUP2 MSTORE PUSH1 0x3 DUP8 ADD PUSH1 0x20 SWAP1 DUP2 MSTORE PUSH1 0x40 DUP1 DUP4 KECCAK256 SWAP5 DUP8 AND DUP1 DUP5 MSTORE SWAP5 DUP3 MSTORE SWAP2 DUP3 SWAP1 KECCAK256 DUP1 SLOAD PUSH32 0xFFFFFFFFFFFFFFFFFFFFFFFFFFFFFFFFFFFFFFFFFFFFFFFFFFFFFFFFFFFFFF00 AND DUP7 ISZERO ISZERO SWAP1 DUP2 OR SWAP1 SWAP2 SSTORE SWAP2 MLOAD SWAP2 DUP3 MSTORE PUSH32 0x17307EAB39AB6107E8899845AD3D59BD9653F200F220920489CA2B5937696C31 SWAP2 ADD PUSH1 0x40 MLOAD DUP1 SWAP2 SUB SWAP1 LOG3 POP POP POP POP JUMP JUMPDEST PUSH2 0x1B1D DUP8 DUP8 DUP8 DUP8 DUP8 PUSH2 0x11C3 JUMP JUMPDEST PUSH20 0xFFFFFFFFFFFFFFFFFFFFFFFFFFFFFFFFFFFFFFFF DUP5 AND EXTCODESIZE ISZERO PUSH2 0x1B7D JUMPI PUSH2 0x1B7D DUP7 DUP7 DUP7 DUP7 DUP7 DUP7 DUP1 DUP1 PUSH1 0x1F ADD PUSH1 0x20 DUP1 SWAP2 DIV MUL PUSH1 0x20 ADD PUSH1 0x40 MLOAD SWAP1 DUP2 ADD PUSH1 0x40 MSTORE DUP1 SWAP4 SWAP3 SWAP2 SWAP1 DUP2 DUP2 MSTORE PUSH1 0x20 ADD DUP4 DUP4 DUP1 DUP3 DUP5 CALLDATACOPY PUSH1 0x0 SWAP3 ADD SWAP2 SWAP1 SWAP2 MSTORE POP PUSH2 0x21E0 SWAP3 POP POP POP JUMP JUMPDEST POP POP POP POP POP POP POP JUMP JUMPDEST PUSH1 0x2 DUP4 ADD SLOAD PUSH1 0x40 MLOAD PUSH32 0xF724DAD700000000000000000000000000000000000000000000000000000000 DUP2 MSTORE PUSH20 0xFFFFFFFFFFFFFFFFFFFFFFFFFFFFFFFFFFFFFFFF DUP5 DUP2 AND PUSH1 0x4 DUP4 ADD MSTORE PUSH1 0x24 DUP3 ADD DUP5 SWAP1 MSTORE PUSH1 0x60 SWAP3 AND SWAP1 PUSH4 0xF724DAD7 SWAP1 PUSH1 0x44 ADD PUSH1 0x0 PUSH1 0x40 MLOAD DUP1 DUP4 SUB DUP2 DUP7 GAS STATICCALL ISZERO DUP1 ISZERO PUSH2 0x1C00 JUMPI RETURNDATASIZE PUSH1 0x0 DUP1 RETURNDATACOPY RETURNDATASIZE PUSH1 0x0 REVERT JUMPDEST POP POP POP POP PUSH1 0x40 MLOAD RETURNDATASIZE PUSH1 0x0 DUP3 RETURNDATACOPY PUSH1 0x1F RETURNDATASIZE SWAP1 DUP2 ADD PUSH32 0xFFFFFFFFFFFFFFFFFFFFFFFFFFFFFFFFFFFFFFFFFFFFFFFFFFFFFFFFFFFFFFE0 AND DUP3 ADD PUSH1 0x40 MSTORE PUSH2 0x16F0 SWAP2 SWAP1 DUP2 ADD SWAP1 PUSH2 0x2C24 JUMP JUMPDEST PUSH1 0x0 DUP4 DUP2 MSTORE PUSH1 0x20 DUP6 DUP2 MSTORE PUSH1 0x40 DUP1 DUP4 KECCAK256 PUSH20 0xFFFFFFFFFFFFFFFFFFFFFFFFFFFFFFFFFFFFFFFF DUP7 AND DUP5 MSTORE SWAP1 SWAP2 MSTORE SWAP1 KECCAK256 SLOAD PUSH1 0xFF AND ISZERO PUSH2 0x53D JUMPI PUSH1 0x0 DUP4 DUP2 MSTORE PUSH1 0x20 DUP6 DUP2 MSTORE PUSH1 0x40 DUP1 DUP4 KECCAK256 PUSH20 0xFFFFFFFFFFFFFFFFFFFFFFFFFFFFFFFFFFFFFFFF DUP7 DUP2 AND DUP1 DUP7 MSTORE SWAP2 DUP5 MSTORE SWAP4 DUP3 SWAP1 KECCAK256 DUP1 SLOAD PUSH32 0xFFFFFFFFFFFFFFFFFFFFFFFFFFFFFFFFFFFFFFFFFFFFFFFFFFFFFFFFFFFFFF00 AND SWAP1 SSTORE DUP2 MLOAD DUP8 DUP2 MSTORE SWAP3 DUP4 ADD MSTORE SWAP2 DUP4 AND SWAP2 DUP2 ADD SWAP2 SWAP1 SWAP2 MSTORE PUSH32 0xF6391F5C32D9C69D2A47EA670B442974B53935D1EDC7FD64EB21E047A839171B SWAP1 PUSH1 0x60 ADD PUSH2 0x1630 JUMP JUMPDEST DUP3 SLOAD PUSH20 0xFFFFFFFFFFFFFFFFFFFFFFFFFFFFFFFFFFFFFFFF SWAP1 DUP2 AND SWAP1 DUP4 AND DUP2 EQ PUSH2 0x1D7D JUMPI PUSH1 0x40 MLOAD PUSH32 0x2EF4875E00000000000000000000000000000000000000000000000000000000 DUP2 MSTORE PUSH20 0xFFFFFFFFFFFFFFFFFFFFFFFFFFFFFFFFFFFFFFFF DUP5 AND PUSH1 0x4 DUP3 ADD MSTORE PUSH1 0x24 ADD PUSH2 0xD9F JUMP JUMPDEST DUP2 PUSH20 0xFFFFFFFFFFFFFFFFFFFFFFFFFFFFFFFFFFFFFFFF AND DUP2 PUSH20 0xFFFFFFFFFFFFFFFFFFFFFFFFFFFFFFFFFFFFFFFF AND EQ PUSH2 0x53D JUMPI DUP4 SLOAD PUSH32 0xFFFFFFFFFFFFFFFFFFFFFFFF0000000000000000000000000000000000000000 AND PUSH20 0xFFFFFFFFFFFFFFFFFFFFFFFFFFFFFFFFFFFFFFFF DUP4 DUP2 AND SWAP2 DUP3 OR DUP7 SSTORE PUSH1 0x40 MLOAD SWAP1 DUP4 AND SWAP1 PUSH32 0x8BE0079C531659141344CD1FD0A4F28419497F9722A3DAAFE3B4186F6B6457E0 SWAP1 PUSH1 0x0 SWAP1 LOG3 POP POP POP POP JUMP JUMPDEST PUSH1 0x60 DUP2 PUSH1 0x0 ADD DUP1 SLOAD PUSH2 0x1E35 SWAP1 PUSH2 0x2715 JUMP JUMPDEST DUP1 PUSH1 0x1F ADD PUSH1 0x20 DUP1 SWAP2 DIV MUL PUSH1 0x20 ADD PUSH1 0x40 MLOAD SWAP1 DUP2 ADD PUSH1 0x40 MSTORE DUP1 SWAP3 SWAP2 SWAP1 DUP2 DUP2 MSTORE PUSH1 0x20 ADD DUP3 DUP1 SLOAD PUSH2 0x1E61 SWAP1 PUSH2 0x2715 JUMP JUMPDEST DUP1 ISZERO PUSH2 0x1EAE JUMPI DUP1 PUSH1 0x1F LT PUSH2 0x1E83 JUMPI PUSH2 0x100 DUP1 DUP4 SLOAD DIV MUL DUP4 MSTORE SWAP2 PUSH1 0x20 ADD SWAP2 PUSH2 0x1EAE JUMP JUMPDEST DUP3 ADD SWAP2 SWAP1 PUSH1 0x0 MSTORE PUSH1 0x20 PUSH1 0x0 KECCAK256 SWAP1 JUMPDEST DUP2 SLOAD DUP2 MSTORE SWAP1 PUSH1 0x1 ADD SWAP1 PUSH1 0x20 ADD DUP1 DUP4 GT PUSH2 0x1E91 JUMPI DUP3 SWAP1 SUB PUSH1 0x1F AND DUP3 ADD SWAP2 JUMPDEST POP POP POP POP POP SWAP1 POP SWAP2 SWAP1 POP JUMP JUMPDEST PUSH1 0x0 CALLER ORIGIN EQ DUP1 PUSH2 0x1ECA JUMPI POP PUSH1 0x18 CALLDATASIZE LT JUMPDEST ISZERO PUSH2 0x1ED4 JUMPI POP CALLER SWAP1 JUMP JUMPDEST PUSH32 0xFFFFFFFFFFFFFFFFFFFFFFFFFFFFFFFFFFFFFFFFFFFFFFFFFFFFFFFFFFFFFFEC CALLDATASIZE ADD CALLDATALOAD PUSH1 0x60 SHR PUSH32 0x0 PUSH20 0xFFFFFFFFFFFFFFFFFFFFFFFFFFFFFFFFFFFFFFFF AND CALLER EQ DUP1 PUSH2 0x1FF0 JUMPI POP PUSH1 0x40 MLOAD PUSH32 0x8929A8CA00000000000000000000000000000000000000000000000000000000 DUP2 MSTORE PUSH20 0xFFFFFFFFFFFFFFFFFFFFFFFFFFFFFFFFFFFFFFFF DUP3 DUP2 AND PUSH1 0x4 DUP4 ADD MSTORE CALLER PUSH1 0x24 DUP4 ADD MSTORE PUSH32 0x0 AND SWAP1 PUSH4 0x8929A8CA SWAP1 PUSH1 0x44 ADD PUSH1 0x20 PUSH1 0x40 MLOAD DUP1 DUP4 SUB DUP2 DUP7 GAS STATICCALL ISZERO DUP1 ISZERO PUSH2 0x1FCC JUMPI RETURNDATASIZE PUSH1 0x0 DUP1 RETURNDATACOPY RETURNDATASIZE PUSH1 0x0 REVERT JUMPDEST POP POP POP POP PUSH1 0x40 MLOAD RETURNDATASIZE PUSH1 0x1F NOT PUSH1 0x1F DUP3 ADD AND DUP3 ADD DUP1 PUSH1 0x40 MSTORE POP DUP2 ADD SWAP1 PUSH2 0x1FF0 SWAP2 SWAP1 PUSH2 0x27FC JUMP JUMPDEST ISZERO PUSH2 0x1FFA JUMPI SWAP2 SWAP1 POP JUMP JUMPDEST CALLER SWAP2 POP POP SWAP1 JUMP JUMPDEST PUSH1 0x0 DUP2 PUSH20 0xFFFFFFFFFFFFFFFFFFFFFFFFFFFFFFFFFFFFFFFF AND DUP4 PUSH20 0xFFFFFFFFFFFFFFFFFFFFFFFFFFFFFFFFFFFFFFFF AND EQ DUP1 PUSH2 0x16F0 JUMPI POP POP PUSH20 0xFFFFFFFFFFFFFFFFFFFFFFFFFFFFFFFFFFFFFFFF SWAP2 DUP3 AND PUSH1 0x0 SWAP1 DUP2 MSTORE PUSH1 0x3 SWAP4 SWAP1 SWAP4 ADD PUSH1 0x20 SWAP1 DUP2 MSTORE PUSH1 0x40 DUP1 DUP6 KECCAK256 SWAP3 SWAP1 SWAP4 AND DUP5 MSTORE MSTORE SWAP1 KECCAK256 SLOAD PUSH1 0xFF AND SWAP1 JUMP JUMPDEST CALLDATASIZE PUSH1 0x0 CALLER ORIGIN EQ DUP1 PUSH2 0x2087 JUMPI POP PUSH1 0x18 CALLDATASIZE LT JUMPDEST ISZERO PUSH2 0x2095 JUMPI POP PUSH1 0x0 SWAP2 CALLDATASIZE SWAP2 POP JUMP JUMPDEST CALLER PUSH20 0xFFFFFFFFFFFFFFFFFFFFFFFFFFFFFFFFFFFFFFFF PUSH32 0x0 AND EQ DUP1 PUSH2 0x21CA JUMPI POP PUSH20 0xFFFFFFFFFFFFFFFFFFFFFFFFFFFFFFFFFFFFFFFF PUSH32 0x0 AND PUSH4 0x8929A8CA CALLDATASIZE PUSH32 0xFFFFFFFFFFFFFFFFFFFFFFFFFFFFFFFFFFFFFFFFFFFFFFFFFFFFFFFFFFFFFFEC ADD CALLDATALOAD PUSH1 0x60 SHR PUSH1 0x40 MLOAD PUSH32 0xFFFFFFFF00000000000000000000000000000000000000000000000000000000 PUSH1 0xE0 DUP5 SWAP1 SHL AND DUP2 MSTORE PUSH20 0xFFFFFFFFFFFFFFFFFFFFFFFFFFFFFFFFFFFFFFFF SWAP1 SWAP2 AND PUSH1 0x4 DUP3 ADD MSTORE CALLER PUSH1 0x24 DUP3 ADD MSTORE PUSH1 0x44 ADD PUSH1 0x20 PUSH1 0x40 MLOAD DUP1 DUP4 SUB DUP2 DUP7 GAS STATICCALL ISZERO DUP1 ISZERO PUSH2 0x21A6 JUMPI RETURNDATASIZE PUSH1 0x0 DUP1 RETURNDATACOPY RETURNDATASIZE PUSH1 0x0 REVERT JUMPDEST POP POP POP POP PUSH1 0x40 MLOAD RETURNDATASIZE PUSH1 0x1F NOT PUSH1 0x1F DUP3 ADD AND DUP3 ADD DUP1 PUSH1 0x40 MSTORE POP DUP2 ADD SWAP1 PUSH2 0x21CA SWAP2 SWAP1 PUSH2 0x27FC JUMP JUMPDEST ISZERO PUSH2 0x21D7 JUMPI PUSH2 0x587 PUSH2 0x2306 JUMP JUMPDEST POP PUSH1 0x0 SWAP2 CALLDATASIZE SWAP2 POP JUMP JUMPDEST PUSH1 0x40 MLOAD PUSH32 0x150B7A0200000000000000000000000000000000000000000000000000000000 DUP1 DUP3 MSTORE SWAP1 PUSH20 0xFFFFFFFFFFFFFFFFFFFFFFFFFFFFFFFFFFFFFFFF DUP6 AND SWAP1 PUSH4 0x150B7A02 SWAP1 PUSH2 0x223A SWAP1 DUP10 SWAP1 DUP10 SWAP1 DUP9 SWAP1 DUP9 SWAP1 PUSH1 0x4 ADD PUSH2 0x2CEF JUMP JUMPDEST PUSH1 0x20 PUSH1 0x40 MLOAD DUP1 DUP4 SUB DUP2 PUSH1 0x0 DUP8 GAS CALL ISZERO DUP1 ISZERO PUSH2 0x2259 JUMPI RETURNDATASIZE PUSH1 0x0 DUP1 RETURNDATACOPY RETURNDATASIZE PUSH1 0x0 REVERT JUMPDEST POP POP POP POP PUSH1 0x40 MLOAD RETURNDATASIZE PUSH1 0x1F NOT PUSH1 0x1F DUP3 ADD AND DUP3 ADD DUP1 PUSH1 0x40 MSTORE POP DUP2 ADD SWAP1 PUSH2 0x227D SWAP2 SWAP1 PUSH2 0x2D38 JUMP JUMPDEST PUSH32 0xFFFFFFFF00000000000000000000000000000000000000000000000000000000 AND EQ PUSH2 0x9A4 JUMPI PUSH1 0x40 MLOAD PUSH32 0xC215A7A100000000000000000000000000000000000000000000000000000000 DUP2 MSTORE PUSH20 0xFFFFFFFFFFFFFFFFFFFFFFFFFFFFFFFFFFFFFFFF DUP5 AND PUSH1 0x4 DUP3 ADD MSTORE PUSH1 0x24 DUP2 ADD DUP4 SWAP1 MSTORE PUSH1 0x44 ADD PUSH2 0xD9F JUMP JUMPDEST PUSH1 0x60 DUP2 PUSH1 0x1 ADD DUP1 SLOAD PUSH2 0x1E35 SWAP1 PUSH2 0x2715 JUMP JUMPDEST CALLDATASIZE PUSH1 0x0 PUSH2 0x587 PUSH32 0xFFFFFFFFFFFFFFFFFFFFFFFFFFFFFFFFFFFFFFFFFFFFFFFFFFFFFFFFFFFFFFEC DUP4 ADD DUP3 DUP5 DUP2 PUSH2 0x2D55 JUMP JUMPDEST PUSH32 0xFFFFFFFF00000000000000000000000000000000000000000000000000000000 DUP2 AND DUP2 EQ PUSH2 0x9E8 JUMPI PUSH1 0x0 DUP1 REVERT JUMPDEST PUSH1 0x0 PUSH1 0x20 DUP3 DUP5 SUB SLT ISZERO PUSH2 0x2377 JUMPI PUSH1 0x0 DUP1 REVERT JUMPDEST DUP2 CALLDATALOAD PUSH2 0xA56 DUP2 PUSH2 0x2337 JUMP JUMPDEST PUSH1 0x0 JUMPDEST DUP4 DUP2 LT ISZERO PUSH2 0x239D JUMPI DUP2 DUP2 ADD MLOAD DUP4 DUP3 ADD MSTORE PUSH1 0x20 ADD PUSH2 0x2385 JUMP JUMPDEST POP POP PUSH1 0x0 SWAP2 ADD MSTORE JUMP JUMPDEST PUSH1 0x0 DUP2 MLOAD DUP1 DUP5 MSTORE PUSH2 0x23BE DUP2 PUSH1 0x20 DUP7 ADD PUSH1 0x20 DUP7 ADD PUSH2 0x2382 JUMP JUMPDEST PUSH1 0x1F ADD PUSH32 0xFFFFFFFFFFFFFFFFFFFFFFFFFFFFFFFFFFFFFFFFFFFFFFFFFFFFFFFFFFFFFFE0 AND SWAP3 SWAP1 SWAP3 ADD PUSH1 0x20 ADD SWAP3 SWAP2 POP POP JUMP JUMPDEST PUSH1 0x20 DUP2 MSTORE PUSH1 0x0 PUSH2 0xA56 PUSH1 0x20 DUP4 ADD DUP5 PUSH2 0x23A6 JUMP JUMPDEST PUSH1 0x0 PUSH1 0x20 DUP3 DUP5 SUB SLT ISZERO PUSH2 0x2415 JUMPI PUSH1 0x0 DUP1 REVERT JUMPDEST POP CALLDATALOAD SWAP2 SWAP1 POP JUMP JUMPDEST PUSH20 0xFFFFFFFFFFFFFFFFFFFFFFFFFFFFFFFFFFFFFFFF DUP2 AND DUP2 EQ PUSH2 0x9E8 JUMPI PUSH1 0x0 DUP1 REVERT JUMPDEST PUSH1 0x0 DUP1 PUSH1 0x40 DUP4 DUP6 SUB SLT ISZERO PUSH2 0x2451 JUMPI PUSH1 0x0 DUP1 REVERT JUMPDEST DUP3 CALLDATALOAD PUSH2 0x245C DUP2 PUSH2 0x241C JUMP JUMPDEST SWAP5 PUSH1 0x20 SWAP4 SWAP1 SWAP4 ADD CALLDATALOAD SWAP4 POP POP POP JUMP JUMPDEST PUSH1 0x0 DUP1 PUSH1 0x0 PUSH1 0x60 DUP5 DUP7 SUB SLT ISZERO PUSH2 0x247F JUMPI PUSH1 0x0 DUP1 REVERT JUMPDEST DUP4 CALLDATALOAD PUSH2 0x248A DUP2 PUSH2 0x241C JUMP JUMPDEST SWAP3 POP PUSH1 0x20 DUP5 ADD CALLDATALOAD PUSH2 0x249A DUP2 PUSH2 0x241C JUMP JUMPDEST SWAP3 SWAP6 SWAP3 SWAP5 POP POP POP PUSH1 0x40 SWAP2 SWAP1 SWAP2 ADD CALLDATALOAD SWAP1 JUMP JUMPDEST PUSH1 0x0 DUP1 PUSH1 0x40 DUP4 DUP6 SUB SLT ISZERO PUSH2 0x24BE JUMPI PUSH1 0x0 DUP1 REVERT JUMPDEST DUP3 CALLDATALOAD SWAP2 POP PUSH1 0x20 DUP4 ADD CALLDATALOAD PUSH2 0x24D0 DUP2 PUSH2 0x241C JUMP JUMPDEST DUP1 SWAP2 POP POP SWAP3 POP SWAP3 SWAP1 POP JUMP JUMPDEST PUSH1 0x20 DUP2 MSTORE DUP2 PUSH1 0x20 DUP3 ADD MSTORE DUP2 DUP4 PUSH1 0x40 DUP4 ADD CALLDATACOPY PUSH1 0x0 DUP2 DUP4 ADD PUSH1 0x40 SWAP1 DUP2 ADD SWAP2 SWAP1 SWAP2 MSTORE PUSH1 0x1F SWAP1 SWAP3 ADD PUSH32 0xFFFFFFFFFFFFFFFFFFFFFFFFFFFFFFFFFFFFFFFFFFFFFFFFFFFFFFFFFFFFFFE0 AND ADD ADD SWAP2 SWAP1 POP JUMP JUMPDEST PUSH2 0xFFFF DUP9 DUP2 AND DUP3 MSTORE DUP8 AND PUSH1 0x20 DUP3 ADD MSTORE PUSH8 0xFFFFFFFFFFFFFFFF DUP7 DUP2 AND PUSH1 0x40 DUP4 ADD MSTORE DUP6 DUP2 AND PUSH1 0x60 DUP4 ADD MSTORE DUP5 AND PUSH1 0x80 DUP3 ADD MSTORE PUSH1 0xE0 PUSH1 0xA0 DUP3 ADD DUP2 SWAP1 MSTORE PUSH1 0x0 SWAP1 PUSH2 0x256F SWAP1 DUP4 ADD DUP6 PUSH2 0x23A6 JUMP JUMPDEST DUP3 DUP2 SUB PUSH1 0xC0 DUP5 ADD MSTORE PUSH2 0x2581 DUP2 DUP6 PUSH2 0x23A6 JUMP JUMPDEST SWAP11 SWAP10 POP POP POP POP POP POP POP POP POP POP JUMP JUMPDEST PUSH1 0x0 DUP1 PUSH1 0x0 PUSH1 0x60 DUP5 DUP7 SUB SLT ISZERO PUSH2 0x25A4 JUMPI PUSH1 0x0 DUP1 REVERT JUMPDEST DUP4 CALLDATALOAD PUSH2 0x25AF DUP2 PUSH2 0x241C JUMP JUMPDEST SWAP3 POP PUSH1 0x20 DUP5 ADD CALLDATALOAD SWAP2 POP PUSH1 0x40 DUP5 ADD CALLDATALOAD PUSH8 0xFFFFFFFFFFFFFFFF DUP2 GT ISZERO PUSH2 0x25D2 JUMPI PUSH1 0x0 DUP1 REVERT JUMPDEST DUP5 ADD PUSH1 0xE0 DUP2 DUP8 SUB SLT ISZERO PUSH2 0x25E4 JUMPI PUSH1 0x0 DUP1 REVERT JUMPDEST DUP1 SWAP2 POP POP SWAP3 POP SWAP3 POP SWAP3 JUMP JUMPDEST PUSH1 0x0 PUSH1 0x20 DUP3 DUP5 SUB SLT ISZERO PUSH2 0x2601 JUMPI PUSH1 0x0 DUP1 REVERT JUMPDEST DUP2 CALLDATALOAD PUSH2 0xA56 DUP2 PUSH2 0x241C JUMP JUMPDEST DUP1 ISZERO ISZERO DUP2 EQ PUSH2 0x9E8 JUMPI PUSH1 0x0 DUP1 REVERT JUMPDEST PUSH1 0x0 DUP1 PUSH1 0x40 DUP4 DUP6 SUB SLT ISZERO PUSH2 0x262D JUMPI PUSH1 0x0 DUP1 REVERT JUMPDEST DUP3 CALLDATALOAD PUSH2 0x2638 DUP2 PUSH2 0x241C JUMP JUMPDEST SWAP2 POP PUSH1 0x20 DUP4 ADD CALLDATALOAD PUSH2 0x24D0 DUP2 PUSH2 0x260C JUMP JUMPDEST PUSH1 0x0 DUP1 PUSH1 0x0 DUP1 PUSH1 0x0 PUSH1 0x80 DUP7 DUP9 SUB SLT ISZERO PUSH2 0x2660 JUMPI PUSH1 0x0 DUP1 REVERT JUMPDEST DUP6 CALLDATALOAD PUSH2 0x266B DUP2 PUSH2 0x241C JUMP JUMPDEST SWAP5 POP PUSH1 0x20 DUP7 ADD CALLDATALOAD PUSH2 0x267B DUP2 PUSH2 0x241C JUMP JUMPDEST SWAP4 POP PUSH1 0x40 DUP7 ADD CALLDATALOAD SWAP3 POP PUSH1 0x60 DUP7 ADD CALLDATALOAD PUSH8 0xFFFFFFFFFFFFFFFF DUP1 DUP3 GT ISZERO PUSH2 0x269F JUMPI PUSH1 0x0 DUP1 REVERT JUMPDEST DUP2 DUP9 ADD SWAP2 POP DUP9 PUSH1 0x1F DUP4 ADD SLT PUSH2 0x26B3 JUMPI PUSH1 0x0 DUP1 REVERT JUMPDEST DUP2 CALLDATALOAD DUP2 DUP2 GT ISZERO PUSH2 0x26C2 JUMPI PUSH1 0x0 DUP1 REVERT JUMPDEST DUP10 PUSH1 0x20 DUP3 DUP6 ADD ADD GT ISZERO PUSH2 0x26D4 JUMPI PUSH1 0x0 DUP1 REVERT JUMPDEST SWAP7 SWAP10 SWAP6 SWAP9 POP SWAP4 SWAP7 POP PUSH1 0x20 ADD SWAP5 SWAP4 SWAP3 POP POP POP JUMP JUMPDEST PUSH1 0x0 DUP1 PUSH1 0x40 DUP4 DUP6 SUB SLT ISZERO PUSH2 0x26FA JUMPI PUSH1 0x0 DUP1 REVERT JUMPDEST DUP3 CALLDATALOAD PUSH2 0x2705 DUP2 PUSH2 0x241C JUMP JUMPDEST SWAP2 POP PUSH1 0x20 DUP4 ADD CALLDATALOAD PUSH2 0x24D0 DUP2 PUSH2 0x241C JUMP JUMPDEST PUSH1 0x1 DUP2 DUP2 SHR SWAP1 DUP3 AND DUP1 PUSH2 0x2729 JUMPI PUSH1 0x7F DUP3 AND SWAP2 POP JUMPDEST PUSH1 0x20 DUP3 LT DUP2 SUB PUSH2 0x2762 JUMPI PUSH32 0x4E487B7100000000000000000000000000000000000000000000000000000000 PUSH1 0x0 MSTORE PUSH1 0x22 PUSH1 0x4 MSTORE PUSH1 0x24 PUSH1 0x0 REVERT JUMPDEST POP SWAP2 SWAP1 POP JUMP JUMPDEST PUSH1 0x0 DUP1 DUP4 SLOAD PUSH2 0x2776 DUP2 PUSH2 0x2715 JUMP JUMPDEST PUSH1 0x1 DUP3 DUP2 AND DUP1 ISZERO PUSH2 0x278E JUMPI PUSH1 0x1 DUP2 EQ PUSH2 0x27C1 JUMPI PUSH2 0x27F0 JUMP JUMPDEST PUSH32 0xFFFFFFFFFFFFFFFFFFFFFFFFFFFFFFFFFFFFFFFFFFFFFFFFFFFFFFFFFFFFFF00 DUP5 AND DUP8 MSTORE DUP3 ISZERO ISZERO DUP4 MUL DUP8 ADD SWAP5 POP PUSH2 0x27F0 JUMP JUMPDEST DUP8 PUSH1 0x0 MSTORE PUSH1 0x20 DUP1 PUSH1 0x0 KECCAK256 PUSH1 0x0 JUMPDEST DUP6 DUP2 LT ISZERO PUSH2 0x27E7 JUMPI DUP2 SLOAD DUP11 DUP3 ADD MSTORE SWAP1 DUP5 ADD SWAP1 DUP3 ADD PUSH2 0x27CE JUMP JUMPDEST POP POP POP DUP3 DUP8 ADD SWAP5 POP JUMPDEST POP SWAP3 SWAP7 SWAP6 POP POP POP POP POP POP JUMP JUMPDEST PUSH1 0x0 PUSH1 0x20 DUP3 DUP5 SUB SLT ISZERO PUSH2 0x280E JUMPI PUSH1 0x0 DUP1 REVERT JUMPDEST DUP2 MLOAD PUSH2 0xA56 DUP2 PUSH2 0x260C JUMP JUMPDEST PUSH1 0x0 DUP2 CALLDATALOAD PUSH2 0xFFFF DUP2 AND DUP2 EQ PUSH2 0x4C5 JUMPI PUSH1 0x0 DUP1 REVERT JUMPDEST PUSH1 0x0 DUP2 CALLDATALOAD PUSH8 0xFFFFFFFFFFFFFFFF DUP2 AND DUP2 EQ PUSH2 0x4C5 JUMPI PUSH1 0x0 DUP1 REVERT JUMPDEST PUSH1 0x0 DUP1 DUP4 CALLDATALOAD PUSH32 0xFFFFFFFFFFFFFFFFFFFFFFFFFFFFFFFFFFFFFFFFFFFFFFFFFFFFFFFFFFFFFFE1 DUP5 CALLDATASIZE SUB ADD DUP2 SLT PUSH2 0x287C JUMPI PUSH1 0x0 DUP1 REVERT JUMPDEST DUP4 ADD DUP1 CALLDATALOAD SWAP2 POP PUSH8 0xFFFFFFFFFFFFFFFF DUP3 GT ISZERO PUSH2 0x2897 JUMPI PUSH1 0x0 DUP1 REVERT JUMPDEST PUSH1 0x20 ADD SWAP2 POP CALLDATASIZE DUP2 SWAP1 SUB DUP3 SGT ISZERO PUSH2 0x28AC JUMPI PUSH1 0x0 DUP1 REVERT JUMPDEST SWAP3 POP SWAP3 SWAP1 POP JUMP JUMPDEST PUSH32 0x4E487B7100000000000000000000000000000000000000000000000000000000 PUSH1 0x0 MSTORE PUSH1 0x41 PUSH1 0x4 MSTORE PUSH1 0x24 PUSH1 0x0 REVERT JUMPDEST PUSH1 0x1F DUP3 GT ISZERO PUSH2 0x577 JUMPI PUSH1 0x0 DUP2 PUSH1 0x0 MSTORE PUSH1 0x20 PUSH1 0x0 KECCAK256 PUSH1 0x1F DUP6 ADD PUSH1 0x5 SHR DUP2 ADD PUSH1 0x20 DUP7 LT ISZERO PUSH2 0x290B JUMPI POP DUP1 JUMPDEST PUSH1 0x1F DUP6 ADD PUSH1 0x5 SHR DUP3 ADD SWAP2 POP JUMPDEST DUP2 DUP2 LT ISZERO PUSH2 0xB3A JUMPI DUP3 DUP2 SSTORE PUSH1 0x1 ADD PUSH2 0x2917 JUMP JUMPDEST PUSH8 0xFFFFFFFFFFFFFFFF DUP4 GT ISZERO PUSH2 0x2942 JUMPI PUSH2 0x2942 PUSH2 0x28B3 JUMP JUMPDEST PUSH2 0x2956 DUP4 PUSH2 0x2950 DUP4 SLOAD PUSH2 0x2715 JUMP JUMPDEST DUP4 PUSH2 0x28E2 JUMP JUMPDEST PUSH1 0x0 PUSH1 0x1F DUP5 GT PUSH1 0x1 DUP2 EQ PUSH2 0x29A8 JUMPI PUSH1 0x0 DUP6 ISZERO PUSH2 0x2972 JUMPI POP DUP4 DUP3 ADD CALLDATALOAD JUMPDEST PUSH32 0xFFFFFFFFFFFFFFFFFFFFFFFFFFFFFFFFFFFFFFFFFFFFFFFFFFFFFFFFFFFFFFFF PUSH1 0x3 DUP8 SWAP1 SHL SHR NOT AND PUSH1 0x1 DUP7 SWAP1 SHL OR DUP4 SSTORE PUSH2 0x9A4 JUMP JUMPDEST PUSH1 0x0 DUP4 DUP2 MSTORE PUSH1 0x20 SWAP1 KECCAK256 PUSH32 0xFFFFFFFFFFFFFFFFFFFFFFFFFFFFFFFFFFFFFFFFFFFFFFFFFFFFFFFFFFFFFFE0 DUP7 AND SWAP1 DUP4 JUMPDEST DUP3 DUP2 LT ISZERO PUSH2 0x29F7 JUMPI DUP7 DUP6 ADD CALLDATALOAD DUP3 SSTORE PUSH1 0x20 SWAP5 DUP6 ADD SWAP5 PUSH1 0x1 SWAP1 SWAP3 ADD SWAP2 ADD PUSH2 0x29D7 JUMP JUMPDEST POP DUP7 DUP3 LT ISZERO PUSH2 0x2A32 JUMPI PUSH32 0xFFFFFFFFFFFFFFFFFFFFFFFFFFFFFFFFFFFFFFFFFFFFFFFFFFFFFFFFFFFFFFFF PUSH1 0xF8 DUP9 PUSH1 0x3 SHL AND SHR NOT DUP5 DUP8 ADD CALLDATALOAD AND DUP2 SSTORE JUMPDEST POP POP PUSH1 0x1 DUP6 PUSH1 0x1 SHL ADD DUP4 SSTORE POP POP POP POP POP JUMP JUMPDEST PUSH2 0xFFFF PUSH2 0x2A50 DUP4 PUSH2 0x2819 JUMP JUMPDEST AND DUP2 SLOAD DUP2 PUSH32 0xFFFFFFFFFFFFFFFFFFFFFFFFFFFFFFFFFFFFFFFFFFFFFFFFFFFFFFFFFFFF0000 DUP3 AND OR DUP4 SSTORE PUSH4 0xFFFF0000 PUSH2 0x2A8B PUSH1 0x20 DUP7 ADD PUSH2 0x2819 JUMP JUMPDEST PUSH1 0x10 SHL AND DUP1 DUP4 PUSH32 0xFFFFFFFFFFFFFFFFFFFFFFFFFFFFFFFFFFFFFFFFFFFFFFFFFFFFFFFF00000000 DUP5 AND OR OR DUP5 SSTORE PUSH12 0xFFFFFFFFFFFFFFFF00000000 PUSH2 0x2AD1 PUSH1 0x40 DUP8 ADD PUSH2 0x282D JUMP JUMPDEST PUSH1 0x20 SHL AND DUP4 PUSH32 0xFFFFFFFFFFFFFFFFFFFFFFFFFFFFFFFFFFFFFFFF000000000000000000000000 DUP5 AND OR DUP3 OR OR DUP5 SSTORE POP POP POP PUSH2 0x2B56 PUSH2 0x2B11 PUSH1 0x60 DUP5 ADD PUSH2 0x282D JUMP JUMPDEST DUP3 SLOAD PUSH32 0xFFFFFFFFFFFFFFFFFFFFFFFF0000000000000000FFFFFFFFFFFFFFFFFFFFFFFF AND PUSH1 0x60 SWAP2 SWAP1 SWAP2 SHL PUSH20 0xFFFFFFFFFFFFFFFF000000000000000000000000 AND OR DUP3 SSTORE JUMP JUMPDEST PUSH2 0x2BB2 PUSH2 0x2B65 PUSH1 0x80 DUP5 ADD PUSH2 0x282D JUMP JUMPDEST DUP3 SLOAD PUSH32 0xFFFFFFFF0000000000000000FFFFFFFFFFFFFFFFFFFFFFFFFFFFFFFFFFFFFFFF AND PUSH1 0xA0 SWAP2 SWAP1 SWAP2 SHL PUSH28 0xFFFFFFFFFFFFFFFF0000000000000000000000000000000000000000 AND OR DUP3 SSTORE JUMP JUMPDEST PUSH2 0x2BBF PUSH1 0xA0 DUP4 ADD DUP4 PUSH2 0x2847 JUMP JUMPDEST PUSH2 0x2BCD DUP2 DUP4 PUSH1 0x1 DUP7 ADD PUSH2 0x292A JUMP JUMPDEST POP POP PUSH2 0x2BDC PUSH1 0xC0 DUP4 ADD DUP4 PUSH2 0x2847 JUMP JUMPDEST PUSH2 0x53D DUP2 DUP4 PUSH1 0x2 DUP7 ADD PUSH2 0x292A JUMP JUMPDEST DUP2 DUP2 SUB DUP2 DUP2 GT ISZERO PUSH2 0x4C5 JUMPI PUSH32 0x4E487B7100000000000000000000000000000000000000000000000000000000 PUSH1 0x0 MSTORE PUSH1 0x11 PUSH1 0x4 MSTORE PUSH1 0x24 PUSH1 0x0 REVERT JUMPDEST PUSH1 0x0 PUSH1 0x20 DUP3 DUP5 SUB SLT ISZERO PUSH2 0x2C36 JUMPI PUSH1 0x0 DUP1 REVERT JUMPDEST DUP2 MLOAD PUSH8 0xFFFFFFFFFFFFFFFF DUP1 DUP3 GT ISZERO PUSH2 0x2C4E JUMPI PUSH1 0x0 DUP1 REVERT JUMPDEST DUP2 DUP5 ADD SWAP2 POP DUP5 PUSH1 0x1F DUP4 ADD SLT PUSH2 0x2C62 JUMPI PUSH1 0x0 DUP1 REVERT JUMPDEST DUP2 MLOAD DUP2 DUP2 GT ISZERO PUSH2 0x2C74 JUMPI PUSH2 0x2C74 PUSH2 0x28B3 JUMP JUMPDEST PUSH1 0x40 MLOAD PUSH1 0x1F DUP3 ADD PUSH32 0xFFFFFFFFFFFFFFFFFFFFFFFFFFFFFFFFFFFFFFFFFFFFFFFFFFFFFFFFFFFFFFE0 SWAP1 DUP2 AND PUSH1 0x3F ADD AND DUP2 ADD SWAP1 DUP4 DUP3 GT DUP2 DUP4 LT OR ISZERO PUSH2 0x2CBA JUMPI PUSH2 0x2CBA PUSH2 0x28B3 JUMP JUMPDEST DUP2 PUSH1 0x40 MSTORE DUP3 DUP2 MSTORE DUP8 PUSH1 0x20 DUP5 DUP8 ADD ADD GT ISZERO PUSH2 0x2CD3 JUMPI PUSH1 0x0 DUP1 REVERT JUMPDEST PUSH2 0x2CE4 DUP4 PUSH1 0x20 DUP4 ADD PUSH1 0x20 DUP9 ADD PUSH2 0x2382 JUMP JUMPDEST SWAP8 SWAP7 POP POP POP POP POP POP POP JUMP JUMPDEST PUSH1 0x0 PUSH20 0xFFFFFFFFFFFFFFFFFFFFFFFFFFFFFFFFFFFFFFFF DUP1 DUP8 AND DUP4 MSTORE DUP1 DUP7 AND PUSH1 0x20 DUP5 ADD MSTORE POP DUP4 PUSH1 0x40 DUP4 ADD MSTORE PUSH1 0x80 PUSH1 0x60 DUP4 ADD MSTORE PUSH2 0x2D2E PUSH1 0x80 DUP4 ADD DUP5 PUSH2 0x23A6 JUMP JUMPDEST SWAP7 SWAP6 POP POP POP POP POP POP JUMP JUMPDEST PUSH1 0x0 PUSH1 0x20 DUP3 DUP5 SUB SLT ISZERO PUSH2 0x2D4A JUMPI PUSH1 0x0 DUP1 REVERT JUMPDEST DUP2 MLOAD PUSH2 0xA56 DUP2 PUSH2 0x2337 JUMP JUMPDEST PUSH1 0x0 DUP1 DUP6 DUP6 GT ISZERO PUSH2 0x2D65 JUMPI PUSH1 0x0 DUP1 REVERT JUMPDEST DUP4 DUP7 GT ISZERO PUSH2 0x2D72 JUMPI PUSH1 0x0 DUP1 REVERT JUMPDEST POP POP DUP3 ADD SWAP4 SWAP2 SWAP1 SWAP3 SUB SWAP2 POP JUMP INVALID LOG2 PUSH5 0x6970667358 0x22 SLT KECCAK256 CALLER PUSH1 0xF 0xC1 0xC9 0xC 0xAF AND DUP3 0xB0 PUSH1 0xB8 DUP2 0x28 LOG3 0xA7 0xE5 0xC5 CALLDATACOPY 0x4F COINBASE PUSH29 0xC1A3DE6442640837FF1964736F6C634300081600330000000000000000 "},"gasEstimates":{"creation":{"codeDepositCost":"2340200","executionCost":"infinite","totalCost":"infinite"},"external":{"MINTER_ROLE()":"306","OPERATOR_ROLE()":"305","__msgData()":"infinite","approve(address,uint256)":"infinite","balanceOf(address)":"infinite","burn(uint256)":"infinite","forwarderRegistry()":"infinite","getApproved(uint256)":"infinite","grantRole(bytes32,address)":"infinite","hasRole(bytes32,address)":"infinite","isApprovedForAll(address,address)":"infinite","isTrustedForwarder(address)":"infinite","metadataResolver()":"infinite","mint(address,uint256,(uint16,uint16,uint64,uint64,uint64,string,string))":"infinite","name()":"infinite","owner()":"infinite","ownerOf(uint256)":"infinite","renounceRole(bytes32)":"infinite","revokeRole(bytes32,address)":"infinite","safeTransferFrom(address,address,uint256)":"infinite","safeTransferFrom(address,address,uint256,bytes)":"infinite","setApprovalForAll(address,bool)":"infinite","setRevocationRegistry(address)":"infinite","supportsInterface(bytes4)":"infinite","symbol()":"infinite","tokenURI(uint256)":"infinite","transferFrom(address,address,uint256)":"infinite","transferOwnership(address)":"infinite","vcData(uint256)":"infinite"}},"methodIdentifiers":{"MINTER_ROLE()":"d5391393","OPERATOR_ROLE()":"f5b541a6","__msgData()":"31e66e1e","approve(address,uint256)":"095ea7b3","balanceOf(address)":"70a08231","burn(uint256)":"42966c68","forwarderRegistry()":"2b4c9f16","getApproved(uint256)":"081812fc","grantRole(bytes32,address)":"2f2ff15d","hasRole(bytes32,address)":"91d14854","isApprovedForAll(address,address)":"e985e9c5","isTrustedForwarder(address)":"572b6c05","metadataResolver()":"a0c76f62","mint(address,uint256,(uint16,uint16,uint64,uint64,uint64,string,string))":"54c7be06","name()":"06fdde03","owner()":"8da5cb5b","ownerOf(uint256)":"6352211e","renounceRole(bytes32)":"8bb9c5bf","revokeRole(bytes32,address)":"d547741f","safeTransferFrom(address,address,uint256)":"42842e0e","safeTransferFrom(address,address,uint256,bytes)":"b88d4fde","setApprovalForAll(address,bool)":"a22cb465","setRevocationRegistry(address)":"95f94bc4","supportsInterface(bytes4)":"01ffc9a7","symbol()":"95d89b41","tokenURI(uint256)":"c87b56dd","transferFrom(address,address,uint256)":"23b872dd","transferOwnership(address)":"f2fde38b","vcData(uint256)":"4bae2be8"}},"storageLayout":{"storage":[{"astId":4484,"contract":"contracts/mocks/vc/OpenCampusCertificateNFTv1Mock.sol:OpenCampusCertificateNFTv1Mock","label":"_revocationRegistry","offset":0,"slot":"0","type":"t_contract(IRevocationRegistry)5000"},{"astId":4500,"contract":"contracts/mocks/vc/OpenCampusCertificateNFTv1Mock.sol:OpenCampusCertificateNFTv1Mock","label":"vcData","offset":0,"slot":"1","type":"t_mapping(t_uint256,t_struct(MetaData)5017_storage)"}],"types":{"t_contract(IRevocationRegistry)5000":{"encoding":"inplace","label":"contract IRevocationRegistry","numberOfBytes":"20"},"t_mapping(t_uint256,t_struct(MetaData)5017_storage)":{"encoding":"mapping","key":"t_uint256","label":"mapping(uint256 => struct CertificateNFTv1MetaData.MetaData)","numberOfBytes":"32","value":"t_struct(MetaData)5017_storage"},"t_string_storage":{"encoding":"bytes","label":"string","numberOfBytes":"32"},"t_struct(MetaData)5017_storage":{"encoding":"inplace","label":"struct CertificateNFTv1MetaData.MetaData","members":[{"astId":5004,"contract":"contracts/mocks/vc/OpenCampusCertificateNFTv1Mock.sol:OpenCampusCertificateNFTv1Mock","label":"schemaVersion","offset":0,"slot":"0","type":"t_uint16"},{"astId":5006,"contract":"contracts/mocks/vc/OpenCampusCertificateNFTv1Mock.sol:OpenCampusCertificateNFTv1Mock","label":"achievementType","offset":2,"slot":"0","type":"t_uint16"},{"astId":5008,"contract":"contracts/mocks/vc/OpenCampusCertificateNFTv1Mock.sol:OpenCampusCertificateNFTv1Mock","label":"awardedDate","offset":4,"slot":"0","type":"t_uint64"},{"astId":5010,"contract":"contracts/mocks/vc/OpenCampusCertificateNFTv1Mock.sol:OpenCampusCertificateNFTv1Mock","label":"validFrom","offset":12,"slot":"0","type":"t_uint64"},{"astId":5012,"contract":"contracts/mocks/vc/OpenCampusCertificateNFTv1Mock.sol:OpenCampusCertificateNFTv1Mock","label":"validUtil","offset":20,"slot":"0","type":"t_uint64"},{"astId":5014,"contract":"contracts/mocks/vc/OpenCampusCertificateNFTv1Mock.sol:OpenCampusCertificateNFTv1Mock","label":"issuerDid","offset":0,"slot":"1","type":"t_string_storage"},{"astId":5016,"contract":"contracts/mocks/vc/OpenCampusCertificateNFTv1Mock.sol:OpenCampusCertificateNFTv1Mock","label":"achievementId","offset":0,"slot":"2","type":"t_string_storage"}],"numberOfBytes":"96"},"t_uint16":{"encoding":"inplace","label":"uint16","numberOfBytes":"2"},"t_uint256":{"encoding":"inplace","label":"uint256","numberOfBytes":"32"},"t_uint64":{"encoding":"inplace","label":"uint64","numberOfBytes":"8"}}},"userdoc":{"errors":{"ERC721BalanceOfAddressZero()":[{"notice":"Thrown when querying the balance of the zero address."}],"ERC721ExistingToken(uint256)":[{"notice":"Thrown when minting a token that already exists."}],"ERC721MintToAddressZero()":[{"notice":"Thrown when minting a token to the zero address."}],"ERC721NonApprovedForApproval(address,address,uint256)":[{"notice":"Thrown when a sender tries to set a token approval but is neither the owner nor approvedForAll by the owner."}],"ERC721NonApprovedForTransfer(address,address,uint256)":[{"notice":"Thrown when a sender tries to transfer a token but is neither the owner nor approved by the owner."}],"ERC721NonExistingToken(uint256)":[{"notice":"Thrown when a token does not exist but is required to."}],"ERC721NonOwnedToken(address,uint256)":[{"notice":"Thrown when a token is not owned by the expected account."}],"ERC721SafeTransferRejected(address,uint256)":[{"notice":"Thrown when a safe transfer is rejected by the recipient contract."}],"ERC721SelfApproval(address)":[{"notice":"Thrown when trying to approve oneself."}],"ERC721SelfApprovalForAll(address)":[{"notice":"Thrown when trying to approveForAll oneself."}],"ERC721TransferToAddressZero()":[{"notice":"Thrown when transferring a token to the zero address."}],"IllegalInterfaceId()":[{"notice":"Thrown when setting the illegal interfaceId 0xffffffff."}],"InvalidBurn()":[{"notice":"Thrown when burn operation cannot be executed."}],"NotContractOwner(address)":[{"notice":"Thrown when an account is not the contract owner but is required to."}],"NotRoleHolder(bytes32,address)":[{"notice":"Thrown when an account does not have the required role."}]},"events":{"Approval(address,address,uint256)":{"notice":"Emitted when a single token approval is set."},"ApprovalForAll(address,address,bool)":{"notice":"Emitted when an approval for all tokens is set or unset."},"OwnershipTransferred(address,address)":{"notice":"Emitted when the contract ownership changes."},"RoleGranted(bytes32,address,address)":{"notice":"Emitted when `role` is granted to `account`."},"RoleRevoked(bytes32,address,address)":{"notice":"Emitted when `role` is revoked from `account`."},"Transfer(address,address,uint256)":{"notice":"Emitted when a token is transferred."}},"kind":"user","methods":{"approve(address,uint256)":{"notice":"Sets or unsets an approval to transfer a single token on behalf of its owner."},"balanceOf(address)":{"notice":"Gets the balance of an address."},"getApproved(uint256)":{"notice":"Gets the approved address for a token."},"grantRole(bytes32,address)":{"notice":"Grants a role to an account."},"hasRole(bytes32,address)":{"notice":"Retrieves whether an account has a role."},"isApprovedForAll(address,address)":{"notice":"Gets whether an operator is approved for all tokens by an owner."},"isTrustedForwarder(address)":{"notice":"Checks whether a forwarder is trusted."},"metadataResolver()":{"notice":"Gets the token metadata resolver address."},"name()":{"notice":"Gets the name of the token. E.g. \"My Token\"."},"owner()":{"notice":"Gets the address of the contract owner."},"ownerOf(uint256)":{"notice":"Gets the owner of a token."},"renounceRole(bytes32)":{"notice":"Renounces a role by the sender."},"revokeRole(bytes32,address)":{"notice":"Revokes a role from an account."},"safeTransferFrom(address,address,uint256)":{"notice":"after using `_isSenderOperatable` to validate sender's ability to be a valid operator, perform standard ERC721 safeTransferFrom"},"safeTransferFrom(address,address,uint256,bytes)":{"notice":"after using `_isSenderOperatable` to validate sender's ability to be a valid operator, perform standard ERC721 safeTransferFrom"},"setApprovalForAll(address,bool)":{"notice":"Sets or unsets an approval to transfer all tokens on behalf of their owner."},"supportsInterface(bytes4)":{"notice":"Returns whether this contract implements a given interface."},"symbol()":{"notice":"Gets the symbol of the token. E.g. \"TOK\"."},"tokenURI(uint256)":{"notice":"Gets the metadata URI for a token identifier."},"transferFrom(address,address,uint256)":{"notice":"after using `_isSenderOperatable` to validate sender's ability to be a valid operator, perform standard ERC721 transferFrom"},"transferOwnership(address)":{"notice":"Sets the address of the new contract owner."}},"version":1}}}}