{"contracts/mocks/payment/EDUCreditsManagerMock.sol":{"EDUCreditsManagerMock":{"abi":[{"inputs":[{"internalType":"contract IERC20","name":"eduToken","type":"address"},{"internalType":"address payable","name":"payoutWallet","type":"address"},{"internalType":"address","name":"unclaimedEDUHolder","type":"address"},{"internalType":"contract IForwarderRegistry","name":"forwarderRegistry","type":"address"}],"stateMutability":"nonpayable","type":"constructor"},{"inputs":[],"name":"IllegalInterfaceId","type":"error"},{"inputs":[],"name":"InconsistentArrayLengths","type":"error"},{"inputs":[{"internalType":"address","name":"spender","type":"address"},{"internalType":"address","name":"user","type":"address"},{"internalType":"uint256","name":"amount","type":"uint256"}],"name":"InsufficientCredits","type":"error"},{"inputs":[{"internalType":"address","name":"account","type":"address"}],"name":"NotContractOwner","type":"error"},{"inputs":[{"internalType":"bytes32","name":"role","type":"bytes32"},{"internalType":"address","name":"account","type":"address"}],"name":"NotRoleHolder","type":"error"},{"inputs":[{"internalType":"uint256","name":"expectedPhase","type":"uint256"},{"internalType":"uint256","name":"actualPhase","type":"uint256"}],"name":"OnlyDuringPhase","type":"error"},{"inputs":[{"internalType":"uint256","name":"phase","type":"uint256"}],"name":"SettingInvalidPhase","type":"error"},{"inputs":[{"internalType":"uint256","name":"recoverable","type":"uint256"},{"internalType":"uint256","name":"recovering","type":"uint256"}],"name":"UnrecoverableEDU","type":"error"},{"inputs":[{"internalType":"address","name":"user","type":"address"}],"name":"UserCreditsAlreadySet","type":"error"},{"inputs":[],"name":"ZeroAddressPayoutWallet","type":"error"},{"inputs":[],"name":"ZeroAddressUser","type":"error"},{"inputs":[{"internalType":"address","name":"spender","type":"address"},{"internalType":"address","name":"user","type":"address"}],"name":"ZeroSpendAmount","type":"error"},{"inputs":[{"internalType":"address","name":"user","type":"address"}],"name":"ZeroValueUnclaimedCredits","type":"error"},{"anonymous":false,"inputs":[{"indexed":false,"internalType":"address","name":"spender","type":"address"},{"indexed":false,"internalType":"address","name":"user","type":"address"},{"indexed":false,"internalType":"uint256","name":"bonusSpent","type":"uint256"},{"indexed":false,"internalType":"uint256","name":"unclaimedSpent","type":"uint256"},{"indexed":false,"internalType":"uint256","name":"depositedSpent","type":"uint256"}],"name":"CreditsSpent","type":"event"},{"anonymous":false,"inputs":[{"indexed":false,"internalType":"address[]","name":"users","type":"address[]"},{"indexed":false,"internalType":"uint256[]","name":"unclaimed","type":"uint256[]"},{"indexed":false,"internalType":"uint256[]","name":"bonus","type":"uint256[]"},{"indexed":false,"internalType":"bool[]","name":"diamondHands","type":"bool[]"}],"name":"InitialCreditsSet","type":"event"},{"anonymous":false,"inputs":[{"indexed":true,"internalType":"address","name":"previousOwner","type":"address"},{"indexed":true,"internalType":"address","name":"newOwner","type":"address"}],"name":"OwnershipTransferred","type":"event"},{"anonymous":false,"inputs":[{"indexed":false,"internalType":"address","name":"payoutWallet","type":"address"}],"name":"PayoutWalletSet","type":"event"},{"anonymous":false,"inputs":[{"indexed":false,"internalType":"uint256","name":"phase","type":"uint256"}],"name":"PhaseSet","type":"event"},{"anonymous":false,"inputs":[{"indexed":false,"internalType":"bytes32","name":"role","type":"bytes32"},{"indexed":false,"internalType":"address","name":"account","type":"address"},{"indexed":false,"internalType":"address","name":"operator","type":"address"}],"name":"RoleGranted","type":"event"},{"anonymous":false,"inputs":[{"indexed":false,"internalType":"bytes32","name":"role","type":"bytes32"},{"indexed":false,"internalType":"address","name":"account","type":"address"},{"indexed":false,"internalType":"address","name":"operator","type":"address"}],"name":"RoleRevoked","type":"event"},{"inputs":[],"name":"DEPOSIT_PHASE","outputs":[{"internalType":"uint256","name":"","type":"uint256"}],"stateMutability":"view","type":"function"},{"inputs":[],"name":"EDU_TOKEN","outputs":[{"internalType":"contract IERC20","name":"","type":"address"}],"stateMutability":"view","type":"function"},{"inputs":[],"name":"INIT_PHASE","outputs":[{"internalType":"uint256","name":"","type":"uint256"}],"stateMutability":"view","type":"function"},{"inputs":[],"name":"SALE_PHASE","outputs":[{"internalType":"uint256","name":"","type":"uint256"}],"stateMutability":"view","type":"function"},{"inputs":[],"name":"SPENDER_ROLE","outputs":[{"internalType":"bytes32","name":"","type":"bytes32"}],"stateMutability":"view","type":"function"},{"inputs":[],"name":"UNCLAIMED_EDU_HOLDER","outputs":[{"internalType":"address","name":"","type":"address"}],"stateMutability":"view","type":"function"},{"inputs":[],"name":"WITHDRAW_PHASE","outputs":[{"internalType":"uint256","name":"","type":"uint256"}],"stateMutability":"view","type":"function"},{"inputs":[],"name":"__msgData","outputs":[{"internalType":"bytes","name":"","type":"bytes"}],"stateMutability":"view","type":"function"},{"inputs":[],"name":"currentPhase","outputs":[{"internalType":"uint256","name":"","type":"uint256"}],"stateMutability":"view","type":"function"},{"inputs":[],"name":"forwarderRegistry","outputs":[{"internalType":"contract IForwarderRegistry","name":"","type":"address"}],"stateMutability":"view","type":"function"},{"inputs":[{"internalType":"bytes32","name":"role","type":"bytes32"},{"internalType":"address","name":"account","type":"address"}],"name":"grantRole","outputs":[],"stateMutability":"nonpayable","type":"function"},{"inputs":[{"internalType":"bytes32","name":"role","type":"bytes32"},{"internalType":"address","name":"account","type":"address"}],"name":"hasRole","outputs":[{"internalType":"bool","name":"hasRole_","type":"bool"}],"stateMutability":"view","type":"function"},{"inputs":[{"internalType":"address","name":"forwarder","type":"address"}],"name":"isTrustedForwarder","outputs":[{"internalType":"bool","name":"","type":"bool"}],"stateMutability":"view","type":"function"},{"inputs":[{"internalType":"address","name":"","type":"address"},{"internalType":"address","name":"from","type":"address"},{"internalType":"uint256","name":"value","type":"uint256"},{"internalType":"bytes","name":"","type":"bytes"}],"name":"onERC20Received","outputs":[{"internalType":"bytes4","name":"magicValue","type":"bytes4"}],"stateMutability":"nonpayable","type":"function"},{"inputs":[],"name":"owner","outputs":[{"internalType":"address","name":"","type":"address"}],"stateMutability":"view","type":"function"},{"inputs":[],"name":"payoutWallet","outputs":[{"internalType":"address payable","name":"wallet","type":"address"}],"stateMutability":"view","type":"function"},{"inputs":[{"internalType":"address[]","name":"accounts","type":"address[]"},{"internalType":"contract IERC20[]","name":"tokens","type":"address[]"},{"internalType":"uint256[]","name":"amounts","type":"uint256[]"}],"name":"recoverERC20s","outputs":[],"stateMutability":"nonpayable","type":"function"},{"inputs":[{"internalType":"address[]","name":"accounts","type":"address[]"},{"internalType":"contract IERC721[]","name":"contracts","type":"address[]"},{"internalType":"uint256[]","name":"tokenIds","type":"uint256[]"}],"name":"recoverERC721s","outputs":[],"stateMutability":"nonpayable","type":"function"},{"inputs":[{"internalType":"address payable[]","name":"accounts","type":"address[]"},{"internalType":"uint256[]","name":"amounts","type":"uint256[]"}],"name":"recoverETH","outputs":[],"stateMutability":"nonpayable","type":"function"},{"inputs":[{"internalType":"bytes32","name":"role","type":"bytes32"}],"name":"renounceRole","outputs":[],"stateMutability":"nonpayable","type":"function"},{"inputs":[{"internalType":"bytes32","name":"role","type":"bytes32"},{"internalType":"address","name":"account","type":"address"}],"name":"revokeRole","outputs":[],"stateMutability":"nonpayable","type":"function"},{"inputs":[{"internalType":"address[]","name":"users","type":"address[]"},{"internalType":"uint256[]","name":"unclaimedCredits","type":"uint256[]"},{"internalType":"uint256[]","name":"bonusCredits","type":"uint256[]"},{"internalType":"bool[]","name":"diamondHands","type":"bool[]"}],"name":"setInitialCredits","outputs":[],"stateMutability":"nonpayable","type":"function"},{"inputs":[{"internalType":"address payable","name":"newPayoutWallet","type":"address"}],"name":"setPayoutWallet","outputs":[],"stateMutability":"nonpayable","type":"function"},{"inputs":[{"internalType":"uint256","name":"phase","type":"uint256"}],"name":"setPhase","outputs":[],"stateMutability":"nonpayable","type":"function"},{"inputs":[{"internalType":"address","name":"user","type":"address"},{"internalType":"uint256","name":"amount","type":"uint256"}],"name":"spend","outputs":[],"stateMutability":"nonpayable","type":"function"},{"inputs":[{"internalType":"bytes4","name":"interfaceId","type":"bytes4"}],"name":"supportsInterface","outputs":[{"internalType":"bool","name":"","type":"bool"}],"stateMutability":"view","type":"function"},{"inputs":[],"name":"totalCredits","outputs":[{"internalType":"uint256","name":"","type":"uint256"}],"stateMutability":"view","type":"function"},{"inputs":[],"name":"totalDeposited","outputs":[{"internalType":"uint256","name":"","type":"uint256"}],"stateMutability":"view","type":"function"},{"inputs":[{"internalType":"address","name":"newOwner","type":"address"}],"name":"transferOwnership","outputs":[],"stateMutability":"nonpayable","type":"function"},{"inputs":[{"internalType":"address","name":"","type":"address"}],"name":"userCredits","outputs":[{"internalType":"uint256","name":"unclaimed","type":"uint256"},{"internalType":"uint256","name":"bonus","type":"uint256"},{"internalType":"uint256","name":"deposited","type":"uint256"},{"internalType":"bool","name":"diamondHand","type":"bool"}],"stateMutability":"view","type":"function"},{"inputs":[],"name":"withdraw","outputs":[],"stateMutability":"nonpayable","type":"function"}],"devdoc":{"errors":{"InsufficientCredits(address,address,uint256)":[{"params":{"amount":"the amount of credits to spend.","spender":"the spender of the credits.","user":"the user whose credits are spent."}}],"NotContractOwner(address)":[{"params":{"account":"The account that was checked."}}],"NotRoleHolder(bytes32,address)":[{"params":{"account":"The account that was checked.","role":"The role the caller is missing."}}],"OnlyDuringPhase(uint256,uint256)":[{"params":{"actualPhase":"the actual phase.","expectedPhase":"the expected phase."}}],"SettingInvalidPhase(uint256)":[{"params":{"phase":"the invalid phase."}}],"UserCreditsAlreadySet(address)":[{"params":{"user":"the user whose credits are set."}}],"ZeroSpendAmount(address,address)":[{"params":{"spender":"the spender of the credits.","user":"the user whose credits are spent."}}],"ZeroValueUnclaimedCredits(address)":[{"params":{"user":"the user whose credits are set."}}]},"events":{"CreditsSpent(address,address,uint256,uint256,uint256)":{"params":{"bonusSpent":"the amount of bonus credits spent.","depositedSpent":"the amount of deposited credits spent.","spender":"the spender of the credits.","unclaimedSpent":"the amount of unclaimed credits spent.","user":"the user whose credits are spent."}},"InitialCreditsSet(address[],uint256[],uint256[],bool[])":{"params":{"bonus":"the bonus EDU credits.","diamondHands":"whether the users are a diamond hand.","unclaimed":"the unclaimed EDU credits.","users":"the users whose credits are set."}},"OwnershipTransferred(address,address)":{"params":{"newOwner":"the new contract owner.","previousOwner":"the previous contract owner."}},"PayoutWalletSet(address)":{"params":{"payoutWallet":"the new payout wallet address."}},"PhaseSet(uint256)":{"params":{"phase":"the phase set."}},"RoleGranted(bytes32,address,address)":{"params":{"account":"The account that has been granted the role.","operator":"The account that granted the role.","role":"The role that has been granted."}},"RoleRevoked(bytes32,address,address)":{"params":{"account":"The account that has been revoked the role.","operator":"The account that revoked the role.","role":"The role that has been revoked."}}},"kind":"dev","methods":{"grantRole(bytes32,address)":{"details":"Reverts with {NotContractOwner} if the sender is not the contract owner.Emits a {RoleGranted} event if the account did not previously have the role.","params":{"account":"The account to grant the role to.","role":"The role to grant."}},"hasRole(bytes32,address)":{"params":{"account":"The account.","role":"The role."},"returns":{"hasRole_":"Whether `account` has `role`."}},"isTrustedForwarder(address)":{"params":{"forwarder":"The forwarder to check."},"returns":{"_0":"True if `forwarder` is trusted, false if not."}},"onERC20Received(address,address,uint256,bytes)":{"details":"Reverts with {OnlyDuringPhase} if the current phase is not the deposit phase.","params":{"data":"Optional additional data with no specified format.","from":"The previous tokens owner.","operator":"The initiator of the safe transfer.","value":"The amount of tokens transferred."},"returns":{"magicValue":"`bytes4(keccak256(\"onERC20Received(address,address,uint256,bytes)\"))` (`0x4fc35859`) to accept, any other value to refuse."}},"owner()":{"returns":{"_0":"The address of the contract owner."}},"payoutWallet()":{"returns":{"wallet":"The payout wallet."}},"recoverERC20s(address[],address[],uint256[])":{"details":"Reverts with {UnrecoverableEDU} if trying to extract EDU in larger quantities than accidentally sent to this contract.","params":{"accounts":"the list of accounts to transfer the tokens to.","amounts":"the list of token amounts to transfer.","tokens":"the list of ERC20 token addresses."}},"recoverERC721s(address[],address[],uint256[])":{"details":"Warning: this function should be overriden for contracts which are supposed to hold ERC721 tokens  so that the extraction is limited to only tokens sent accidentally.Reverts with {NotContractOwner} if the sender is not the contract owner.Reverts with {InconsistentArrayLengths} if `accounts`, `contracts` and `amounts` do not have the same length.Reverts if one of the ERC721 transfers fails for any reason.","params":{"accounts":"the list of accounts to transfer the tokens to.","contracts":"the list of ERC721 contract addresses.","tokenIds":"the list of token ids to transfer."}},"recoverETH(address[],uint256[])":{"details":"Note: While contracts can generally prevent accidental ETH transfer by implementating a reverting  `receive()` function, this can still be bypassed in a `selfdestruct(address)` scenario.Warning: this function should be overriden for contracts which are supposed to hold ETH tokens  so that the extraction is limited to only amounts sent accidentally.Reverts with {NotContractOwner} if the sender is not the contract owner.Reverts with {InconsistentArrayLengths} `accounts` and `amounts` do not have the same length.Reverts if one of the ETH transfers fails for any reason.","params":{"accounts":"the list of accounts to transfer the tokens to.","amounts":"the list of token amounts to transfer."}},"renounceRole(bytes32)":{"details":"Reverts if `sender` does not have `role`.Emits a {RoleRevoked} event.","params":{"role":"The role to renounce."}},"revokeRole(bytes32,address)":{"details":"Reverts with {NotContractOwner} if the sender is not the contract owner.Emits a {RoleRevoked} event if the account previously had the role.","params":{"account":"The account to revoke the role from.","role":"The role to revoke."}},"setInitialCredits(address[],uint256[],uint256[],bool[])":{"details":"Reverts with {InconsistentArrayLengths} if `users`, `unclaimed` and `bonus` have different lengths.Reverts with {OnlyDuringPhase} if the current phase is not the init phase.Reverts with {NotContractOwner} if the sender is not the contract owner.Reverts with {ZeroAddressUser} if one of `users` is the zero address.Reverts with {UserCreditsAlreadySet} if one of `users` credits have already been set.Emits a {InitialCreditsSet} event.","params":{"bonusCredits":"the bonus EDU credits.","diamondHands":"whether the users are a diamond hand.","unclaimedCredits":"the unclaimed EDU credits.","users":"the users whose credits are set."}},"setPayoutWallet(address)":{"details":"Reverts with {NotContractOwner} if the sender is not the contract owner.Reverts with {ZeroAddressPayoutWallet} if `newPayoutWallet` is the zero address.Emits a {PayoutWalletSet} event.","params":{"newPayoutWallet":"The payout wallet."}},"setPhase(uint256)":{"details":"Reverts with {SettingInvalidPhase} if `phase` is greater than `WITHDRAW_PHASE`.Reverts with {NotContractOwner} if the sender is not the contract owner.Emits a {PhaseSet} event.","params":{"phase":"the phase to set."}},"spend(address,uint256)":{"details":"Reverts with {ZeroSpendAmount} if `amount` is zero.Reverts with {OnlyDuringPhase} if the current phase is not the sale phase.Reverts with {NotRoleHolder} if the sender is not a spender.Reverts with {InsufficientEDU} if the user's total unclaimed+bonus+deposited credits is insufficient.Emits a {EDUSpent} event.","params":{"amount":"the amount of EDU tokens to spend.","user":"the user whose EDU tokens are spent."}},"supportsInterface(bytes4)":{"details":"Note: This function call must use less than 30 000 gas.","params":{"interfaceId":"the interface identifier to test."},"returns":{"_0":"True if the interface is supported, false if `interfaceId` is `0xffffffff` or if the interface is not supported."}},"transferOwnership(address)":{"details":"Reverts if the sender is not the contract owner.Emits an {OwnershipTransferred} event if `newOwner` is different from the current contract owner.","params":{"newOwner":"The address of the new contract owner. Using the zero address means renouncing ownership."}},"withdraw()":{"details":"Reverts with {OnlyDuringPhase} if the current phase is not the withdraw phase."}},"version":1},"evm":{"bytecode":{"linkReferences":{},"object":"60e06040525f805534801562000013575f80fd5b5060405162002f9d38038062002f9d8339810160408190526200003691620002e6565b838383838080843362000054816200004d620000e7565b906200011c565b506200006b81620000646200018e565b90620001bd565b506200008c634fc3585960e01b600162000084620001c9565b9190620001f8565b6001600160a01b0390811660805285811660a052831660c052506040515f81527f63dd78a2037d9ff47ab1e6cf980c9d036bb47de0b5812d2203bfa833f35e0a189060200160405180910390a150505050505050506200036b565b5f806200011660017fc9ed16f33ab3a66c84bfd83099ccb2a8845871e2e1c1928f63797152f0fd54cd6200034b565b92915050565b6001600160a01b03811615620001725781546001600160a01b0319166001600160a01b03821690811783556040515f907f8be0079c531659141344cd1fd0a4f28419497f9722a3daafe3b4186f6b6457e0908290a35b6200018a6307f5828d60e41b600162000084620001c9565b5050565b5f806200011660017f4fb5f8cdfbce77f22b0931a39e9f476a60a0f66524b2f379e96485471eb700ae6200034b565b6200018a828262000254565b5f806200011660017fca9d3e17f264b0f3984e2634e94adb37fa3e6a8103f06aeae6fa59e21c769f5e6200034b565b600160e01b6001600160e01b031983160162000227576040516372c683bb60e01b815260040160405180910390fd5b6001600160e01b0319919091165f9081526020929092526040909120805460ff1916911515919091179055565b6001600160a01b0381166200027c576040516340b539cf60e01b815260040160405180910390fd5b81546001600160a01b0319166001600160a01b03821690811783556040519081527fdd880d24a789958a6398c99c2e54ce31bc10a638cbc42f7dd34285479ae0f8559060200160405180910390a15050565b6001600160a01b0381168114620002e3575f80fd5b50565b5f805f8060808587031215620002fa575f80fd5b84516200030781620002ce565b60208601519094506200031a81620002ce565b60408601519093506200032d81620002ce565b60608601519092506200034081620002ce565b939692955090935050565b818103818111156200011657634e487b7160e01b5f52601160045260245ffd5b60805160a05160c051612bba620003e35f395f818161035601526106cd01525f81816103ca01528181610704015281816107e601528181610cb001528181610d3201526111e601525f81816102820152818161038801528181611ead01528181611f3501528181611fe401526120220152612bba5ff3fe608060405234801561000f575f80fd5b50600436106101dc575f3560e01c806372c16a2411610109578063ad6b333b1161009e578063d547741f1161006e578063d547741f146104c8578063f2fde38b146104db578063f7ba94bd146104ee578063ff50abdc14610501575f80fd5b8063ad6b333b14610491578063af7d6ca314610499578063b5bd3eb9146104ac578063c3666c36146104b5575f80fd5b80638bb9c5bf116100d95780638bb9c5bf1461045c5780638da5cb5b1461046f5780638de17b741461047757806391d148541461047e575f80fd5b806372c16a241461041257806373c8a958146104395780638488bb4e1461044c5780638b785d4914610454575f80fd5b806331e66e1e1161017f578063572b6c051161014f578063572b6c05146103785780635df2dcbc146103c5578063687f34e0146103ec5780636b8f9c43146103ff575f80fd5b806331e66e1e146102ef5780633ccfd60b146103055780634fc358591461030d5780635188730214610351575f80fd5b806320babb92116101ba57806320babb92146102265780632b4c9f16146102805780632cc82655146102c75780632f2ff15d146102dc575f80fd5b806301ffc9a7146101e0578063055ad42e14610208578063148c2b5a1461021e575b5f80fd5b6101f36101ee3660046124e7565b61050a565b60405190151581526020015b60405180910390f35b6102105f5481565b6040519081526020016101ff565b610210600281565b61025e610234366004612547565b600160208190525f9182526040909120805491810154600282015460039092015490919060ff1684565b60408051948552602085019390935291830152151560608201526080016101ff565b7f00000000000000000000000000000000000000000000000000000000000000005b60405173ffffffffffffffffffffffffffffffffffffffff90911681526020016101ff565b6102da6102d5366004612562565b610523565b005b6102da6102ea366004612579565b6105ba565b6102f76105ec565b6040516101ff9291906125a7565b6102da6105fe565b61032061031b3660046125f3565b610858565b6040517fffffffff0000000000000000000000000000000000000000000000000000000090911681526020016101ff565b6102a27f000000000000000000000000000000000000000000000000000000000000000081565b6101f3610386366004612547565b7f000000000000000000000000000000000000000000000000000000000000000073ffffffffffffffffffffffffffffffffffffffff90811691161490565b6102a27f000000000000000000000000000000000000000000000000000000000000000081565b6102da6103fa3660046126d2565b61093b565b6102da61040d366004612547565b610c47565b6102107f7370656e6465720000000000000000000000000000000000000000000000000081565b6102da61044736600461278d565b610c67565b6102a2610e3f565b610210600381565b6102da61046a366004612562565b610e6a565b6102a2610e85565b6102105f81565b6101f361048c366004612579565b610e91565b610210600181565b6102da6104a7366004612820565b610eda565b61021060025481565b6102da6104c336600461278d565b61130d565b6102da6104d6366004612579565b61147e565b6102da6104e9366004612547565b6114ab565b6102da6104fc36600461284a565b6114c6565b61021060035481565b5f61051d82610517611583565b906115b0565b92915050565b61053c61052e611687565b610536611690565b906116bd565b600381111561057f576040517f96666719000000000000000000000000000000000000000000000000000000008152600481018290526024015b60405180910390fd5b5f819055604051600181527f63dd78a2037d9ff47ab1e6cf980c9d036bb47de0b5812d2203bfa833f35e0a189060200160405180910390a150565b5f6105c3611687565b90506105d181610536611690565b6105e78383836105df61172c565b929190611759565b505050565b365f6105f661182d565b915091509091565b60035f5414610646575f546040517f7c9bb663000000000000000000000000000000000000000000000000000000008152600360048201526024810191909152604401610576565b5f61064f611687565b90505f60015f61065d611687565b73ffffffffffffffffffffffffffffffffffffffff16815260208101919091526040015f2080549091508015610770575f82556040517f23b872dd00000000000000000000000000000000000000000000000000000000815273ffffffffffffffffffffffffffffffffffffffff7f0000000000000000000000000000000000000000000000000000000000000000811660048301528481166024830152604482018390527f000000000000000000000000000000000000000000000000000000000000000016906323b872dd906064016020604051808303815f875af115801561074a573d5f803e3d5ffd5b505050506040513d601f19601f8201168201806040525081019061076e91906128be565b505b60028201548015610852575f83600201819055508060035f8282546107959190612906565b90915550506040517fa9059cbb00000000000000000000000000000000000000000000000000000000815273ffffffffffffffffffffffffffffffffffffffff8581166004830152602482018390527f0000000000000000000000000000000000000000000000000000000000000000169063a9059cbb906044016020604051808303815f875af115801561082c573d5f803e3d5ffd5b505050506040513d601f19601f8201168201806040525081019061085091906128be565b505b50505050565b5f60015f54146108a1575f546040517f7c9bb663000000000000000000000000000000000000000000000000000000008152600160048201526024810191909152604401610576565b73ffffffffffffffffffffffffffffffffffffffff85165f908152600160205260408120600281018054919287926108da908490612919565b925050819055508460035f8282546108f29190612919565b925050819055508460025f82825461090a9190612919565b909155507f4fc358590000000000000000000000000000000000000000000000000000000098975050505050505050565b86858114158061094b5750808414155b806109565750808214155b1561098d576040517f6582533600000000000000000000000000000000000000000000000000000000815260040160405180910390fd5b5f54156109d2575f80546040517f7c9bb66300000000000000000000000000000000000000000000000000000000815260048101929092526024820152604401610576565b6109dd61052e611687565b5f5b818114610bf6575f8a8a838181106109f9576109f961292c565b9050602002016020810190610a0e9190612547565b905073ffffffffffffffffffffffffffffffffffffffff8116610a5d576040517f9c89d57f00000000000000000000000000000000000000000000000000000000815260040160405180910390fd5b5f898984818110610a7057610a7061292c565b905060200201359050805f03610aca576040517fd49c192700000000000000000000000000000000000000000000000000000000815273ffffffffffffffffffffffffffffffffffffffff83166004820152602401610576565b73ffffffffffffffffffffffffffffffffffffffff82165f908152600160205260409020805415610b3f576040517f6dbaa9b400000000000000000000000000000000000000000000000000000000815273ffffffffffffffffffffffffffffffffffffffff84166004820152602401610576565b5f898986818110610b5257610b5261292c565b85855560200291909101356001840181905591508890508786818110610b7a57610b7a61292c565b9050602002016020810190610b8f9190612959565b6003830180547fffffffffffffffffffffffffffffffffffffffffffffffffffffffffffffff0016911515919091179055610bca8184612919565b60025f828254610bda9190612919565b925050819055505050505080610bef90612974565b90506109df565b507f44fbb8621bc7a734e344e0d7f6b84824cf97e0d8d611f9f8502e42ff0b1dee438989898989898989604051610c349897969594939291906129f4565b60405180910390a1505050505050505050565b610c5261052e611687565b610c6481610c5e611837565b90611864565b50565b6003546040517f70a082310000000000000000000000000000000000000000000000000000000081523060048201525f919073ffffffffffffffffffffffffffffffffffffffff7f000000000000000000000000000000000000000000000000000000000000000016906370a0823190602401602060405180830381865afa158015610cf5573d5f803e3d5ffd5b505050506040513d601f19601f82011682018060405250810190610d199190612ab9565b610d239190612906565b90505f805b85811015610de2577f000000000000000000000000000000000000000000000000000000000000000073ffffffffffffffffffffffffffffffffffffffff16878783818110610d7957610d7961292c565b9050602002016020810190610d8e9190612547565b73ffffffffffffffffffffffffffffffffffffffff1603610dd057848482818110610dbb57610dbb61292c565b9050602002013582610dcd9190612919565b91505b80610dda81612974565b915050610d28565b5081811115610e27576040517f7ce4d19d0000000000000000000000000000000000000000000000000000000081526004810183905260248101829052604401610576565b610e35888888888888611928565b5050505050505050565b5f610e65610e4b611837565b5473ffffffffffffffffffffffffffffffffffffffff1690565b905090565b610c64610e75611687565b82610e7e61172c565b9190611a12565b5f610e65610e4b611690565b5f610ed38383610e9f61172c565b5f9283526020908152604080842073ffffffffffffffffffffffffffffffffffffffff909316845291905290205460ff1690565b9392505050565b5f610ee3611687565b9050815f03610f3e576040517f09bc7f2b00000000000000000000000000000000000000000000000000000000815273ffffffffffffffffffffffffffffffffffffffff808316600483015284166024820152604401610576565b60025f5414610f86575f546040517f7c9bb663000000000000000000000000000000000000000000000000000000008152600260048201526024810191909152604401610576565b610fba7f7370656e6465720000000000000000000000000000000000000000000000000082610fb361172c565b9190611ab5565b73ffffffffffffffffffffffffffffffffffffffff83165f908152600160208190526040822090810154909190801561108f578481106110795784836001015f8282546110079190612906565b90915550506040805173ffffffffffffffffffffffffffffffffffffffff8087168252881660208201529081018690525f6060820181905260808201527fc8832e1605166eecba94f0e3919e05a79787269b7b9f7e7b9766b187b44a7e899060a00160405180910390a1505050505050565b5f60018401556110898186612906565b94508091505b82545f908015611139578681106111265786855f015f8282546110b29190612906565b90915550506040805173ffffffffffffffffffffffffffffffffffffffff80891682528a166020820152908101859052606081018890525f60808201527fc8832e1605166eecba94f0e3919e05a79787269b7b9f7e7b9766b187b44a7e899060a00160405180910390a15050505050505050565b5f85556111338188612906565b96508091505b60028501548781101561119f576040517f1734392500000000000000000000000000000000000000000000000000000000815273ffffffffffffffffffffffffffffffffffffffff80891660048301528a16602482015260448101899052606401610576565b87866002015f8282546111b29190612906565b925050819055508760035f8282546111ca9190612906565b909155505073ffffffffffffffffffffffffffffffffffffffff7f00000000000000000000000000000000000000000000000000000000000000001663a9059cbb611216610e4b611837565b6040517fffffffff0000000000000000000000000000000000000000000000000000000060e084901b16815273ffffffffffffffffffffffffffffffffffffffff9091166004820152602481018b90526044016020604051808303815f875af1158015611285573d5f803e3d5ffd5b505050506040513d601f19601f820116820180604052508101906112a991906128be565b506040805173ffffffffffffffffffffffffffffffffffffffff808a1682528b16602082015290810186905260608101849052608081018990527fc8832e1605166eecba94f0e3919e05a79787269b7b9f7e7b9766b187b44a7e899060a001610c34565b61131861052e611687565b8483811415806113285750808214155b1561135f576040517f6582533600000000000000000000000000000000000000000000000000000000815260040160405180910390fd5b5f5b818114610e355785858281811061137a5761137a61292c565b905060200201602081019061138f9190612547565b73ffffffffffffffffffffffffffffffffffffffff166323b872dd308a8a858181106113bd576113bd61292c565b90506020020160208101906113d29190612547565b8787868181106113e4576113e461292c565b6040517fffffffff0000000000000000000000000000000000000000000000000000000060e088901b16815273ffffffffffffffffffffffffffffffffffffffff9586166004820152949093166024850152506020909102013560448201526064015f604051808303815f87803b15801561145d575f80fd5b505af115801561146f573d5f803e3d5ffd5b50505050806001019050611361565b5f611487611687565b905061149581610536611690565b6105e78383836114a361172c565b929190611b3a565b610c646114b6611687565b826114bf611690565b9190611c02565b6114d161052e611687565b8281811461150b576040517f6582533600000000000000000000000000000000000000000000000000000000815260040160405180910390fd5b5f5b81811461157b576115738484838181106115295761152961292c565b905060200201358787848181106115425761154261292c565b90506020020160208101906115579190612547565b73ffffffffffffffffffffffffffffffffffffffff1690611d15565b60010161150d565b505050505050565b5f8061051d60017fca9d3e17f264b0f3984e2634e94adb37fa3e6a8103f06aeae6fa59e21c769f5e612906565b5f7c01000000000000000000000000000000000000000000000000000000007fffffffff000000000000000000000000000000000000000000000000000000008316016115fe57505f61051d565b7ffe003659000000000000000000000000000000000000000000000000000000007fffffffff0000000000000000000000000000000000000000000000000000000083160161164f5750600161051d565b507fffffffff00000000000000000000000000000000000000000000000000000000165f908152602091909152604090205460ff1690565b5f610e65611e6b565b5f8061051d60017fc9ed16f33ab3a66c84bfd83099ccb2a8845871e2e1c1928f63797152f0fd54cd612906565b815473ffffffffffffffffffffffffffffffffffffffff828116911614611728576040517f2ef4875e00000000000000000000000000000000000000000000000000000000815273ffffffffffffffffffffffffffffffffffffffff82166004820152602401610576565b5050565b5f8061051d60017fc8827d3282af6f37b64c3e9e6f3ac9df286ab0bb0fccd6f8661bf19adb368b23612906565b5f8381526020858152604080832073ffffffffffffffffffffffffffffffffffffffff8616845290915290205460ff16610852575f8381526020858152604080832073ffffffffffffffffffffffffffffffffffffffff8681168086529184529382902080547fffffffffffffffffffffffffffffffffffffffffffffffffffffffffffffff00166001179055815187815292830152918316918101919091527f2f8788117e7eff1d82e926ec794901d17c78024a50270940304540a733656f0d906060015b60405180910390a150505050565b365f6105f6611faf565b5f8061051d60017f4fb5f8cdfbce77f22b0931a39e9f476a60a0f66524b2f379e96485471eb700ae612906565b73ffffffffffffffffffffffffffffffffffffffff81166118b1576040517f40b539cf00000000000000000000000000000000000000000000000000000000815260040160405180910390fd5b81547fffffffffffffffffffffffff00000000000000000000000000000000000000001673ffffffffffffffffffffffffffffffffffffffff821690811783556040519081527fdd880d24a789958a6398c99c2e54ce31bc10a638cbc42f7dd34285479ae0f8559060200160405180910390a15050565b61193361052e611687565b8483811415806119435750808214155b1561197a576040517f6582533600000000000000000000000000000000000000000000000000000000815260040160405180910390fd5b5f5b818114610e3557611a0a8888838181106119985761199861292c565b90506020020160208101906119ad9190612547565b8585848181106119bf576119bf61292c565b905060200201358888858181106119d8576119d861292c565b90506020020160208101906119ed9190612547565b73ffffffffffffffffffffffffffffffffffffffff169190612114565b60010161197c565b611a1d838284611ab5565b5f8181526020848152604080832073ffffffffffffffffffffffffffffffffffffffff86168085529083529281902080547fffffffffffffffffffffffffffffffffffffffffffffffffffffffffffffff0016905580518481529182018390528101919091527ff6391f5c32d9c69d2a47ea670b442974b53935d1edc7fd64eb21e047a839171b9060600160405180910390a1505050565b5f8281526020848152604080832073ffffffffffffffffffffffffffffffffffffffff8516845290915290205460ff166105e7576040517f7aa728820000000000000000000000000000000000000000000000000000000081526004810183905273ffffffffffffffffffffffffffffffffffffffff82166024820152604401610576565b5f8381526020858152604080832073ffffffffffffffffffffffffffffffffffffffff8616845290915290205460ff1615610852575f8381526020858152604080832073ffffffffffffffffffffffffffffffffffffffff8681168086529184529382902080547fffffffffffffffffffffffffffffffffffffffffffffffffffffffffffffff00169055815187815292830152918316918101919091527ff6391f5c32d9c69d2a47ea670b442974b53935d1edc7fd64eb21e047a839171b9060600161181f565b825473ffffffffffffffffffffffffffffffffffffffff9081169083168114611c6f576040517f2ef4875e00000000000000000000000000000000000000000000000000000000815273ffffffffffffffffffffffffffffffffffffffff84166004820152602401610576565b8173ffffffffffffffffffffffffffffffffffffffff168173ffffffffffffffffffffffffffffffffffffffff16146108525783547fffffffffffffffffffffffff00000000000000000000000000000000000000001673ffffffffffffffffffffffffffffffffffffffff8381169182178655604051908316907f8be0079c531659141344cd1fd0a4f28419497f9722a3daafe3b4186f6b6457e0905f90a350505050565b80471015611d7f576040517f08c379a000000000000000000000000000000000000000000000000000000000815260206004820152601d60248201527f416464726573733a20696e73756666696369656e742062616c616e63650000006044820152606401610576565b5f8273ffffffffffffffffffffffffffffffffffffffff16826040515f6040518083038185875af1925050503d805f8114611dd5576040519150601f19603f3d011682016040523d82523d5f602084013e611dda565b606091505b50509050806105e7576040517f08c379a000000000000000000000000000000000000000000000000000000000815260206004820152603a60248201527f416464726573733a20756e61626c6520746f2073656e642076616c75652c207260448201527f6563697069656e74206d617920686176652072657665727465640000000000006064820152608401610576565b5f33321480611e7a5750601836105b15611e8457503390565b7fffffffffffffffffffffffffffffffffffffffffffffffffffffffffffffffec36013560601c7f000000000000000000000000000000000000000000000000000000000000000073ffffffffffffffffffffffffffffffffffffffff16331480611f9e57506040517f8929a8ca00000000000000000000000000000000000000000000000000000000815273ffffffffffffffffffffffffffffffffffffffff82811660048301523360248301527f00000000000000000000000000000000000000000000000000000000000000001690638929a8ca90604401602060405180830381865afa158015611f7a573d5f803e3d5ffd5b505050506040513d601f19601f82011682018060405250810190611f9e91906128be565b15611fa857919050565b3391505090565b365f33321480611fbf5750601836105b15611fcc57505f91369150565b3373ffffffffffffffffffffffffffffffffffffffff7f00000000000000000000000000000000000000000000000000000000000000001614806120ff575073ffffffffffffffffffffffffffffffffffffffff7f000000000000000000000000000000000000000000000000000000000000000016638929a8ca367fffffffffffffffffffffffffffffffffffffffffffffffffffffffffffffffec013560601c6040517fffffffff0000000000000000000000000000000000000000000000000000000060e084901b16815273ffffffffffffffffffffffffffffffffffffffff9091166004820152336024820152604401602060405180830381865afa1580156120db573d5f803e3d5ffd5b505050506040513d601f19601f820116820180604052508101906120ff91906128be565b1561210c576105f66121a1565b505f91369150565b6040805173ffffffffffffffffffffffffffffffffffffffff8416602482015260448082018490528251808303909101815260649091019091526020810180517bffffffffffffffffffffffffffffffffffffffffffffffffffffffff167fa9059cbb000000000000000000000000000000000000000000000000000000001790526105e79084906121d1565b365f6105f67fffffffffffffffffffffffffffffffffffffffffffffffffffffffffffffffec8301828481612ad0565b5f612232826040518060400160405280602081526020017f5361666545524332303a206c6f772d6c6576656c2063616c6c206661696c65648152508573ffffffffffffffffffffffffffffffffffffffff166122de9092919063ffffffff16565b905080515f148061225257508080602001905181019061225291906128be565b6105e7576040517f08c379a000000000000000000000000000000000000000000000000000000000815260206004820152602a60248201527f5361666545524332303a204552433230206f7065726174696f6e20646964206e60448201527f6f742073756363656564000000000000000000000000000000000000000000006064820152608401610576565b60606122ec84845f856122f4565b949350505050565b606082471015612386576040517f08c379a000000000000000000000000000000000000000000000000000000000815260206004820152602660248201527f416464726573733a20696e73756666696369656e742062616c616e636520666f60448201527f722063616c6c00000000000000000000000000000000000000000000000000006064820152608401610576565b5f808673ffffffffffffffffffffffffffffffffffffffff1685876040516123ae9190612b19565b5f6040518083038185875af1925050503d805f81146123e8576040519150601f19603f3d011682016040523d82523d5f602084013e6123ed565b606091505b50915091506123fe87838387612409565b979650505050505050565b6060831561249e5782515f036124975773ffffffffffffffffffffffffffffffffffffffff85163b612497576040517f08c379a000000000000000000000000000000000000000000000000000000000815260206004820152601d60248201527f416464726573733a2063616c6c20746f206e6f6e2d636f6e74726163740000006044820152606401610576565b50816122ec565b6122ec83838151156124b35781518083602001fd5b806040517f08c379a00000000000000000000000000000000000000000000000000000000081526004016105769190612b34565b5f602082840312156124f7575f80fd5b81357fffffffff0000000000000000000000000000000000000000000000000000000081168114610ed3575f80fd5b73ffffffffffffffffffffffffffffffffffffffff81168114610c64575f80fd5b5f60208284031215612557575f80fd5b8135610ed381612526565b5f60208284031215612572575f80fd5b5035919050565b5f806040838503121561258a575f80fd5b82359150602083013561259c81612526565b809150509250929050565b60208152816020820152818360408301375f818301604090810191909152601f9092017fffffffffffffffffffffffffffffffffffffffffffffffffffffffffffffffe0160101919050565b5f805f805f60808688031215612607575f80fd5b853561261281612526565b9450602086013561262281612526565b935060408601359250606086013567ffffffffffffffff80821115612645575f80fd5b818801915088601f830112612658575f80fd5b813581811115612666575f80fd5b896020828501011115612677575f80fd5b9699959850939650602001949392505050565b5f8083601f84011261269a575f80fd5b50813567ffffffffffffffff8111156126b1575f80fd5b6020830191508360208260051b85010111156126cb575f80fd5b9250929050565b5f805f805f805f806080898b0312156126e9575f80fd5b883567ffffffffffffffff80821115612700575f80fd5b61270c8c838d0161268a565b909a50985060208b0135915080821115612724575f80fd5b6127308c838d0161268a565b909850965060408b0135915080821115612748575f80fd5b6127548c838d0161268a565b909650945060608b013591508082111561276c575f80fd5b506127798b828c0161268a565b999c989b5096995094979396929594505050565b5f805f805f80606087890312156127a2575f80fd5b863567ffffffffffffffff808211156127b9575f80fd5b6127c58a838b0161268a565b909850965060208901359150808211156127dd575f80fd5b6127e98a838b0161268a565b90965094506040890135915080821115612801575f80fd5b5061280e89828a0161268a565b979a9699509497509295939492505050565b5f8060408385031215612831575f80fd5b823561283c81612526565b946020939093013593505050565b5f805f806040858703121561285d575f80fd5b843567ffffffffffffffff80821115612874575f80fd5b6128808883890161268a565b90965094506020870135915080821115612898575f80fd5b506128a58782880161268a565b95989497509550505050565b8015158114610c64575f80fd5b5f602082840312156128ce575f80fd5b8151610ed3816128b1565b7f4e487b71000000000000000000000000000000000000000000000000000000005f52601160045260245ffd5b8181038181111561051d5761051d6128d9565b8082018082111561051d5761051d6128d9565b7f4e487b71000000000000000000000000000000000000000000000000000000005f52603260045260245ffd5b5f60208284031215612969575f80fd5b8135610ed3816128b1565b5f7fffffffffffffffffffffffffffffffffffffffffffffffffffffffffffffffff82036129a4576129a46128d9565b5060010190565b8183525f7f07ffffffffffffffffffffffffffffffffffffffffffffffffffffffffffffff8311156129db575f80fd5b8260051b80836020870137939093016020019392505050565b608080825281018890525f8960a08301825b8b811015612a43578235612a1981612526565b73ffffffffffffffffffffffffffffffffffffffff16825260209283019290910190600101612a06565b506020915083810382850152612a5a818a8c6129ab565b90508381036040850152612a6f81888a6129ab565b848103606086015285815286915082015f5b86811015612aa8578235612a94816128b1565b151582529183019190830190600101612a81565b509c9b505050505050505050505050565b5f60208284031215612ac9575f80fd5b5051919050565b5f8085851115612ade575f80fd5b83861115612aea575f80fd5b5050820193919092039150565b5f5b83811015612b11578181015183820152602001612af9565b50505f910152565b5f8251612b2a818460208701612af7565b9190910192915050565b602081525f8251806020840152612b52816040850160208701612af7565b601f017fffffffffffffffffffffffffffffffffffffffffffffffffffffffffffffffe016919091016040019291505056fea26469706673582212200a153026d6329e9320e87981377a1febfce47f160facb235e19385eafcb98cd864736f6c63430008150033","opcodes":"PUSH1 0xE0 PUSH1 0x40 MSTORE PUSH0 DUP1 SSTORE CALLVALUE DUP1 ISZERO PUSH3 0x13 JUMPI PUSH0 DUP1 REVERT JUMPDEST POP PUSH1 0x40 MLOAD PUSH3 0x2F9D CODESIZE SUB DUP1 PUSH3 0x2F9D DUP4 CODECOPY DUP2 ADD PUSH1 0x40 DUP2 SWAP1 MSTORE PUSH3 0x36 SWAP2 PUSH3 0x2E6 JUMP JUMPDEST DUP4 DUP4 DUP4 DUP4 DUP1 DUP1 DUP5 CALLER PUSH3 0x54 DUP2 PUSH3 0x4D PUSH3 0xE7 JUMP JUMPDEST SWAP1 PUSH3 0x11C JUMP JUMPDEST POP PUSH3 0x6B DUP2 PUSH3 0x64 PUSH3 0x18E JUMP JUMPDEST SWAP1 PUSH3 0x1BD JUMP JUMPDEST POP PUSH3 0x8C PUSH4 0x4FC35859 PUSH1 0xE0 SHL PUSH1 0x1 PUSH3 0x84 PUSH3 0x1C9 JUMP JUMPDEST SWAP2 SWAP1 PUSH3 0x1F8 JUMP JUMPDEST PUSH1 0x1 PUSH1 0x1 PUSH1 0xA0 SHL SUB SWAP1 DUP2 AND PUSH1 0x80 MSTORE DUP6 DUP2 AND PUSH1 0xA0 MSTORE DUP4 AND PUSH1 0xC0 MSTORE POP PUSH1 0x40 MLOAD PUSH0 DUP2 MSTORE PUSH32 0x63DD78A2037D9FF47AB1E6CF980C9D036BB47DE0B5812D2203BFA833F35E0A18 SWAP1 PUSH1 0x20 ADD PUSH1 0x40 MLOAD DUP1 SWAP2 SUB SWAP1 LOG1 POP POP POP POP POP POP POP POP PUSH3 0x36B JUMP JUMPDEST PUSH0 DUP1 PUSH3 0x116 PUSH1 0x1 PUSH32 0xC9ED16F33AB3A66C84BFD83099CCB2A8845871E2E1C1928F63797152F0FD54CD PUSH3 0x34B JUMP JUMPDEST SWAP3 SWAP2 POP POP JUMP JUMPDEST PUSH1 0x1 PUSH1 0x1 PUSH1 0xA0 SHL SUB DUP2 AND ISZERO PUSH3 0x172 JUMPI DUP2 SLOAD PUSH1 0x1 PUSH1 0x1 PUSH1 0xA0 SHL SUB NOT AND PUSH1 0x1 PUSH1 0x1 PUSH1 0xA0 SHL SUB DUP3 AND SWAP1 DUP2 OR DUP4 SSTORE PUSH1 0x40 MLOAD PUSH0 SWAP1 PUSH32 0x8BE0079C531659141344CD1FD0A4F28419497F9722A3DAAFE3B4186F6B6457E0 SWAP1 DUP3 SWAP1 LOG3 JUMPDEST PUSH3 0x18A PUSH4 0x7F5828D PUSH1 0xE4 SHL PUSH1 0x1 PUSH3 0x84 PUSH3 0x1C9 JUMP JUMPDEST POP POP JUMP JUMPDEST PUSH0 DUP1 PUSH3 0x116 PUSH1 0x1 PUSH32 0x4FB5F8CDFBCE77F22B0931A39E9F476A60A0F66524B2F379E96485471EB700AE PUSH3 0x34B JUMP JUMPDEST PUSH3 0x18A DUP3 DUP3 PUSH3 0x254 JUMP JUMPDEST PUSH0 DUP1 PUSH3 0x116 PUSH1 0x1 PUSH32 0xCA9D3E17F264B0F3984E2634E94ADB37FA3E6A8103F06AEAE6FA59E21C769F5E PUSH3 0x34B JUMP JUMPDEST PUSH1 0x1 PUSH1 0xE0 SHL PUSH1 0x1 PUSH1 0x1 PUSH1 0xE0 SHL SUB NOT DUP4 AND ADD PUSH3 0x227 JUMPI PUSH1 0x40 MLOAD PUSH4 0x72C683BB PUSH1 0xE0 SHL DUP2 MSTORE PUSH1 0x4 ADD PUSH1 0x40 MLOAD DUP1 SWAP2 SUB SWAP1 REVERT JUMPDEST PUSH1 0x1 PUSH1 0x1 PUSH1 0xE0 SHL SUB NOT SWAP2 SWAP1 SWAP2 AND PUSH0 SWAP1 DUP2 MSTORE PUSH1 0x20 SWAP3 SWAP1 SWAP3 MSTORE PUSH1 0x40 SWAP1 SWAP2 KECCAK256 DUP1 SLOAD PUSH1 0xFF NOT AND SWAP2 ISZERO ISZERO SWAP2 SWAP1 SWAP2 OR SWAP1 SSTORE JUMP JUMPDEST PUSH1 0x1 PUSH1 0x1 PUSH1 0xA0 SHL SUB DUP2 AND PUSH3 0x27C JUMPI PUSH1 0x40 MLOAD PUSH4 0x40B539CF PUSH1 0xE0 SHL DUP2 MSTORE PUSH1 0x4 ADD PUSH1 0x40 MLOAD DUP1 SWAP2 SUB SWAP1 REVERT JUMPDEST DUP2 SLOAD PUSH1 0x1 PUSH1 0x1 PUSH1 0xA0 SHL SUB NOT AND PUSH1 0x1 PUSH1 0x1 PUSH1 0xA0 SHL SUB DUP3 AND SWAP1 DUP2 OR DUP4 SSTORE PUSH1 0x40 MLOAD SWAP1 DUP2 MSTORE PUSH32 0xDD880D24A789958A6398C99C2E54CE31BC10A638CBC42F7DD34285479AE0F855 SWAP1 PUSH1 0x20 ADD PUSH1 0x40 MLOAD DUP1 SWAP2 SUB SWAP1 LOG1 POP POP JUMP JUMPDEST PUSH1 0x1 PUSH1 0x1 PUSH1 0xA0 SHL SUB DUP2 AND DUP2 EQ PUSH3 0x2E3 JUMPI PUSH0 DUP1 REVERT JUMPDEST POP JUMP JUMPDEST PUSH0 DUP1 PUSH0 DUP1 PUSH1 0x80 DUP6 DUP8 SUB SLT ISZERO PUSH3 0x2FA JUMPI PUSH0 DUP1 REVERT JUMPDEST DUP5 MLOAD PUSH3 0x307 DUP2 PUSH3 0x2CE JUMP JUMPDEST PUSH1 0x20 DUP7 ADD MLOAD SWAP1 SWAP5 POP PUSH3 0x31A DUP2 PUSH3 0x2CE JUMP JUMPDEST PUSH1 0x40 DUP7 ADD MLOAD SWAP1 SWAP4 POP PUSH3 0x32D DUP2 PUSH3 0x2CE JUMP JUMPDEST PUSH1 0x60 DUP7 ADD MLOAD SWAP1 SWAP3 POP PUSH3 0x340 DUP2 PUSH3 0x2CE JUMP JUMPDEST SWAP4 SWAP7 SWAP3 SWAP6 POP SWAP1 SWAP4 POP POP JUMP JUMPDEST DUP2 DUP2 SUB DUP2 DUP2 GT ISZERO PUSH3 0x116 JUMPI PUSH4 0x4E487B71 PUSH1 0xE0 SHL PUSH0 MSTORE PUSH1 0x11 PUSH1 0x4 MSTORE PUSH1 0x24 PUSH0 REVERT JUMPDEST PUSH1 0x80 MLOAD PUSH1 0xA0 MLOAD PUSH1 0xC0 MLOAD PUSH2 0x2BBA PUSH3 0x3E3 PUSH0 CODECOPY PUSH0 DUP2 DUP2 PUSH2 0x356 ADD MSTORE PUSH2 0x6CD ADD MSTORE PUSH0 DUP2 DUP2 PUSH2 0x3CA ADD MSTORE DUP2 DUP2 PUSH2 0x704 ADD MSTORE DUP2 DUP2 PUSH2 0x7E6 ADD MSTORE DUP2 DUP2 PUSH2 0xCB0 ADD MSTORE DUP2 DUP2 PUSH2 0xD32 ADD MSTORE PUSH2 0x11E6 ADD MSTORE PUSH0 DUP2 DUP2 PUSH2 0x282 ADD MSTORE DUP2 DUP2 PUSH2 0x388 ADD MSTORE DUP2 DUP2 PUSH2 0x1EAD ADD MSTORE DUP2 DUP2 PUSH2 0x1F35 ADD MSTORE DUP2 DUP2 PUSH2 0x1FE4 ADD MSTORE PUSH2 0x2022 ADD MSTORE PUSH2 0x2BBA PUSH0 RETURN INVALID PUSH1 0x80 PUSH1 0x40 MSTORE CALLVALUE DUP1 ISZERO PUSH2 0xF JUMPI PUSH0 DUP1 REVERT JUMPDEST POP PUSH1 0x4 CALLDATASIZE LT PUSH2 0x1DC JUMPI PUSH0 CALLDATALOAD PUSH1 0xE0 SHR DUP1 PUSH4 0x72C16A24 GT PUSH2 0x109 JUMPI DUP1 PUSH4 0xAD6B333B GT PUSH2 0x9E JUMPI DUP1 PUSH4 0xD547741F GT PUSH2 0x6E JUMPI DUP1 PUSH4 0xD547741F EQ PUSH2 0x4C8 JUMPI DUP1 PUSH4 0xF2FDE38B EQ PUSH2 0x4DB JUMPI DUP1 PUSH4 0xF7BA94BD EQ PUSH2 0x4EE JUMPI DUP1 PUSH4 0xFF50ABDC EQ PUSH2 0x501 JUMPI PUSH0 DUP1 REVERT JUMPDEST DUP1 PUSH4 0xAD6B333B EQ PUSH2 0x491 JUMPI DUP1 PUSH4 0xAF7D6CA3 EQ PUSH2 0x499 JUMPI DUP1 PUSH4 0xB5BD3EB9 EQ PUSH2 0x4AC JUMPI DUP1 PUSH4 0xC3666C36 EQ PUSH2 0x4B5 JUMPI PUSH0 DUP1 REVERT JUMPDEST DUP1 PUSH4 0x8BB9C5BF GT PUSH2 0xD9 JUMPI DUP1 PUSH4 0x8BB9C5BF EQ PUSH2 0x45C JUMPI DUP1 PUSH4 0x8DA5CB5B EQ PUSH2 0x46F JUMPI DUP1 PUSH4 0x8DE17B74 EQ PUSH2 0x477 JUMPI DUP1 PUSH4 0x91D14854 EQ PUSH2 0x47E JUMPI PUSH0 DUP1 REVERT JUMPDEST DUP1 PUSH4 0x72C16A24 EQ PUSH2 0x412 JUMPI DUP1 PUSH4 0x73C8A958 EQ PUSH2 0x439 JUMPI DUP1 PUSH4 0x8488BB4E EQ PUSH2 0x44C JUMPI DUP1 PUSH4 0x8B785D49 EQ PUSH2 0x454 JUMPI PUSH0 DUP1 REVERT JUMPDEST DUP1 PUSH4 0x31E66E1E GT PUSH2 0x17F JUMPI DUP1 PUSH4 0x572B6C05 GT PUSH2 0x14F JUMPI DUP1 PUSH4 0x572B6C05 EQ PUSH2 0x378 JUMPI DUP1 PUSH4 0x5DF2DCBC EQ PUSH2 0x3C5 JUMPI DUP1 PUSH4 0x687F34E0 EQ PUSH2 0x3EC JUMPI DUP1 PUSH4 0x6B8F9C43 EQ PUSH2 0x3FF JUMPI PUSH0 DUP1 REVERT JUMPDEST DUP1 PUSH4 0x31E66E1E EQ PUSH2 0x2EF JUMPI DUP1 PUSH4 0x3CCFD60B EQ PUSH2 0x305 JUMPI DUP1 PUSH4 0x4FC35859 EQ PUSH2 0x30D JUMPI DUP1 PUSH4 0x51887302 EQ PUSH2 0x351 JUMPI PUSH0 DUP1 REVERT JUMPDEST DUP1 PUSH4 0x20BABB92 GT PUSH2 0x1BA JUMPI DUP1 PUSH4 0x20BABB92 EQ PUSH2 0x226 JUMPI DUP1 PUSH4 0x2B4C9F16 EQ PUSH2 0x280 JUMPI DUP1 PUSH4 0x2CC82655 EQ PUSH2 0x2C7 JUMPI DUP1 PUSH4 0x2F2FF15D EQ PUSH2 0x2DC JUMPI PUSH0 DUP1 REVERT JUMPDEST DUP1 PUSH4 0x1FFC9A7 EQ PUSH2 0x1E0 JUMPI DUP1 PUSH4 0x55AD42E EQ PUSH2 0x208 JUMPI DUP1 PUSH4 0x148C2B5A EQ PUSH2 0x21E JUMPI JUMPDEST PUSH0 DUP1 REVERT JUMPDEST PUSH2 0x1F3 PUSH2 0x1EE CALLDATASIZE PUSH1 0x4 PUSH2 0x24E7 JUMP JUMPDEST PUSH2 0x50A JUMP JUMPDEST PUSH1 0x40 MLOAD SWAP1 ISZERO ISZERO DUP2 MSTORE PUSH1 0x20 ADD JUMPDEST PUSH1 0x40 MLOAD DUP1 SWAP2 SUB SWAP1 RETURN JUMPDEST PUSH2 0x210 PUSH0 SLOAD DUP2 JUMP JUMPDEST PUSH1 0x40 MLOAD SWAP1 DUP2 MSTORE PUSH1 0x20 ADD PUSH2 0x1FF JUMP JUMPDEST PUSH2 0x210 PUSH1 0x2 DUP2 JUMP JUMPDEST PUSH2 0x25E PUSH2 0x234 CALLDATASIZE PUSH1 0x4 PUSH2 0x2547 JUMP JUMPDEST PUSH1 0x1 PUSH1 0x20 DUP2 SWAP1 MSTORE PUSH0 SWAP2 DUP3 MSTORE PUSH1 0x40 SWAP1 SWAP2 KECCAK256 DUP1 SLOAD SWAP2 DUP2 ADD SLOAD PUSH1 0x2 DUP3 ADD SLOAD PUSH1 0x3 SWAP1 SWAP3 ADD SLOAD SWAP1 SWAP2 SWAP1 PUSH1 0xFF AND DUP5 JUMP JUMPDEST PUSH1 0x40 DUP1 MLOAD SWAP5 DUP6 MSTORE PUSH1 0x20 DUP6 ADD SWAP4 SWAP1 SWAP4 MSTORE SWAP2 DUP4 ADD MSTORE ISZERO ISZERO PUSH1 0x60 DUP3 ADD MSTORE PUSH1 0x80 ADD PUSH2 0x1FF JUMP JUMPDEST PUSH32 0x0 JUMPDEST PUSH1 0x40 MLOAD PUSH20 0xFFFFFFFFFFFFFFFFFFFFFFFFFFFFFFFFFFFFFFFF SWAP1 SWAP2 AND DUP2 MSTORE PUSH1 0x20 ADD PUSH2 0x1FF JUMP JUMPDEST PUSH2 0x2DA PUSH2 0x2D5 CALLDATASIZE PUSH1 0x4 PUSH2 0x2562 JUMP JUMPDEST PUSH2 0x523 JUMP JUMPDEST STOP JUMPDEST PUSH2 0x2DA PUSH2 0x2EA CALLDATASIZE PUSH1 0x4 PUSH2 0x2579 JUMP JUMPDEST PUSH2 0x5BA JUMP JUMPDEST PUSH2 0x2F7 PUSH2 0x5EC JUMP JUMPDEST PUSH1 0x40 MLOAD PUSH2 0x1FF SWAP3 SWAP2 SWAP1 PUSH2 0x25A7 JUMP JUMPDEST PUSH2 0x2DA PUSH2 0x5FE JUMP JUMPDEST PUSH2 0x320 PUSH2 0x31B CALLDATASIZE PUSH1 0x4 PUSH2 0x25F3 JUMP JUMPDEST PUSH2 0x858 JUMP JUMPDEST PUSH1 0x40 MLOAD PUSH32 0xFFFFFFFF00000000000000000000000000000000000000000000000000000000 SWAP1 SWAP2 AND DUP2 MSTORE PUSH1 0x20 ADD PUSH2 0x1FF JUMP JUMPDEST PUSH2 0x2A2 PUSH32 0x0 DUP2 JUMP JUMPDEST PUSH2 0x1F3 PUSH2 0x386 CALLDATASIZE PUSH1 0x4 PUSH2 0x2547 JUMP JUMPDEST PUSH32 0x0 PUSH20 0xFFFFFFFFFFFFFFFFFFFFFFFFFFFFFFFFFFFFFFFF SWAP1 DUP2 AND SWAP2 AND EQ SWAP1 JUMP JUMPDEST PUSH2 0x2A2 PUSH32 0x0 DUP2 JUMP JUMPDEST PUSH2 0x2DA PUSH2 0x3FA CALLDATASIZE PUSH1 0x4 PUSH2 0x26D2 JUMP JUMPDEST PUSH2 0x93B JUMP JUMPDEST PUSH2 0x2DA PUSH2 0x40D CALLDATASIZE PUSH1 0x4 PUSH2 0x2547 JUMP JUMPDEST PUSH2 0xC47 JUMP JUMPDEST PUSH2 0x210 PUSH32 0x7370656E64657200000000000000000000000000000000000000000000000000 DUP2 JUMP JUMPDEST PUSH2 0x2DA PUSH2 0x447 CALLDATASIZE PUSH1 0x4 PUSH2 0x278D JUMP JUMPDEST PUSH2 0xC67 JUMP JUMPDEST PUSH2 0x2A2 PUSH2 0xE3F JUMP JUMPDEST PUSH2 0x210 PUSH1 0x3 DUP2 JUMP JUMPDEST PUSH2 0x2DA PUSH2 0x46A CALLDATASIZE PUSH1 0x4 PUSH2 0x2562 JUMP JUMPDEST PUSH2 0xE6A JUMP JUMPDEST PUSH2 0x2A2 PUSH2 0xE85 JUMP JUMPDEST PUSH2 0x210 PUSH0 DUP2 JUMP JUMPDEST PUSH2 0x1F3 PUSH2 0x48C CALLDATASIZE PUSH1 0x4 PUSH2 0x2579 JUMP JUMPDEST PUSH2 0xE91 JUMP JUMPDEST PUSH2 0x210 PUSH1 0x1 DUP2 JUMP JUMPDEST PUSH2 0x2DA PUSH2 0x4A7 CALLDATASIZE PUSH1 0x4 PUSH2 0x2820 JUMP JUMPDEST PUSH2 0xEDA JUMP JUMPDEST PUSH2 0x210 PUSH1 0x2 SLOAD DUP2 JUMP JUMPDEST PUSH2 0x2DA PUSH2 0x4C3 CALLDATASIZE PUSH1 0x4 PUSH2 0x278D JUMP JUMPDEST PUSH2 0x130D JUMP JUMPDEST PUSH2 0x2DA PUSH2 0x4D6 CALLDATASIZE PUSH1 0x4 PUSH2 0x2579 JUMP JUMPDEST PUSH2 0x147E JUMP JUMPDEST PUSH2 0x2DA PUSH2 0x4E9 CALLDATASIZE PUSH1 0x4 PUSH2 0x2547 JUMP JUMPDEST PUSH2 0x14AB JUMP JUMPDEST PUSH2 0x2DA PUSH2 0x4FC CALLDATASIZE PUSH1 0x4 PUSH2 0x284A JUMP JUMPDEST PUSH2 0x14C6 JUMP JUMPDEST PUSH2 0x210 PUSH1 0x3 SLOAD DUP2 JUMP JUMPDEST PUSH0 PUSH2 0x51D DUP3 PUSH2 0x517 PUSH2 0x1583 JUMP JUMPDEST SWAP1 PUSH2 0x15B0 JUMP JUMPDEST SWAP3 SWAP2 POP POP JUMP JUMPDEST PUSH2 0x53C PUSH2 0x52E PUSH2 0x1687 JUMP JUMPDEST PUSH2 0x536 PUSH2 0x1690 JUMP JUMPDEST SWAP1 PUSH2 0x16BD JUMP JUMPDEST PUSH1 0x3 DUP2 GT ISZERO PUSH2 0x57F JUMPI PUSH1 0x40 MLOAD PUSH32 0x9666671900000000000000000000000000000000000000000000000000000000 DUP2 MSTORE PUSH1 0x4 DUP2 ADD DUP3 SWAP1 MSTORE PUSH1 0x24 ADD JUMPDEST PUSH1 0x40 MLOAD DUP1 SWAP2 SUB SWAP1 REVERT JUMPDEST PUSH0 DUP2 SWAP1 SSTORE PUSH1 0x40 MLOAD PUSH1 0x1 DUP2 MSTORE PUSH32 0x63DD78A2037D9FF47AB1E6CF980C9D036BB47DE0B5812D2203BFA833F35E0A18 SWAP1 PUSH1 0x20 ADD PUSH1 0x40 MLOAD DUP1 SWAP2 SUB SWAP1 LOG1 POP JUMP JUMPDEST PUSH0 PUSH2 0x5C3 PUSH2 0x1687 JUMP JUMPDEST SWAP1 POP PUSH2 0x5D1 DUP2 PUSH2 0x536 PUSH2 0x1690 JUMP JUMPDEST PUSH2 0x5E7 DUP4 DUP4 DUP4 PUSH2 0x5DF PUSH2 0x172C JUMP JUMPDEST SWAP3 SWAP2 SWAP1 PUSH2 0x1759 JUMP JUMPDEST POP POP POP JUMP JUMPDEST CALLDATASIZE PUSH0 PUSH2 0x5F6 PUSH2 0x182D JUMP JUMPDEST SWAP2 POP SWAP2 POP SWAP1 SWAP2 JUMP JUMPDEST PUSH1 0x3 PUSH0 SLOAD EQ PUSH2 0x646 JUMPI PUSH0 SLOAD PUSH1 0x40 MLOAD PUSH32 0x7C9BB66300000000000000000000000000000000000000000000000000000000 DUP2 MSTORE PUSH1 0x3 PUSH1 0x4 DUP3 ADD MSTORE PUSH1 0x24 DUP2 ADD SWAP2 SWAP1 SWAP2 MSTORE PUSH1 0x44 ADD PUSH2 0x576 JUMP JUMPDEST PUSH0 PUSH2 0x64F PUSH2 0x1687 JUMP JUMPDEST SWAP1 POP PUSH0 PUSH1 0x1 PUSH0 PUSH2 0x65D PUSH2 0x1687 JUMP JUMPDEST PUSH20 0xFFFFFFFFFFFFFFFFFFFFFFFFFFFFFFFFFFFFFFFF AND DUP2 MSTORE PUSH1 0x20 DUP2 ADD SWAP2 SWAP1 SWAP2 MSTORE PUSH1 0x40 ADD PUSH0 KECCAK256 DUP1 SLOAD SWAP1 SWAP2 POP DUP1 ISZERO PUSH2 0x770 JUMPI PUSH0 DUP3 SSTORE PUSH1 0x40 MLOAD PUSH32 0x23B872DD00000000000000000000000000000000000000000000000000000000 DUP2 MSTORE PUSH20 0xFFFFFFFFFFFFFFFFFFFFFFFFFFFFFFFFFFFFFFFF PUSH32 0x0 DUP2 AND PUSH1 0x4 DUP4 ADD MSTORE DUP5 DUP2 AND PUSH1 0x24 DUP4 ADD MSTORE PUSH1 0x44 DUP3 ADD DUP4 SWAP1 MSTORE PUSH32 0x0 AND SWAP1 PUSH4 0x23B872DD SWAP1 PUSH1 0x64 ADD PUSH1 0x20 PUSH1 0x40 MLOAD DUP1 DUP4 SUB DUP2 PUSH0 DUP8 GAS CALL ISZERO DUP1 ISZERO PUSH2 0x74A JUMPI RETURNDATASIZE PUSH0 DUP1 RETURNDATACOPY RETURNDATASIZE PUSH0 REVERT JUMPDEST POP POP POP POP PUSH1 0x40 MLOAD RETURNDATASIZE PUSH1 0x1F NOT PUSH1 0x1F DUP3 ADD AND DUP3 ADD DUP1 PUSH1 0x40 MSTORE POP DUP2 ADD SWAP1 PUSH2 0x76E SWAP2 SWAP1 PUSH2 0x28BE JUMP JUMPDEST POP JUMPDEST PUSH1 0x2 DUP3 ADD SLOAD DUP1 ISZERO PUSH2 0x852 JUMPI PUSH0 DUP4 PUSH1 0x2 ADD DUP2 SWAP1 SSTORE POP DUP1 PUSH1 0x3 PUSH0 DUP3 DUP3 SLOAD PUSH2 0x795 SWAP2 SWAP1 PUSH2 0x2906 JUMP JUMPDEST SWAP1 SWAP2 SSTORE POP POP PUSH1 0x40 MLOAD PUSH32 0xA9059CBB00000000000000000000000000000000000000000000000000000000 DUP2 MSTORE PUSH20 0xFFFFFFFFFFFFFFFFFFFFFFFFFFFFFFFFFFFFFFFF DUP6 DUP2 AND PUSH1 0x4 DUP4 ADD MSTORE PUSH1 0x24 DUP3 ADD DUP4 SWAP1 MSTORE PUSH32 0x0 AND SWAP1 PUSH4 0xA9059CBB SWAP1 PUSH1 0x44 ADD PUSH1 0x20 PUSH1 0x40 MLOAD DUP1 DUP4 SUB DUP2 PUSH0 DUP8 GAS CALL ISZERO DUP1 ISZERO PUSH2 0x82C JUMPI RETURNDATASIZE PUSH0 DUP1 RETURNDATACOPY RETURNDATASIZE PUSH0 REVERT JUMPDEST POP POP POP POP PUSH1 0x40 MLOAD RETURNDATASIZE PUSH1 0x1F NOT PUSH1 0x1F DUP3 ADD AND DUP3 ADD DUP1 PUSH1 0x40 MSTORE POP DUP2 ADD SWAP1 PUSH2 0x850 SWAP2 SWAP1 PUSH2 0x28BE JUMP JUMPDEST POP JUMPDEST POP POP POP POP JUMP JUMPDEST PUSH0 PUSH1 0x1 PUSH0 SLOAD EQ PUSH2 0x8A1 JUMPI PUSH0 SLOAD PUSH1 0x40 MLOAD PUSH32 0x7C9BB66300000000000000000000000000000000000000000000000000000000 DUP2 MSTORE PUSH1 0x1 PUSH1 0x4 DUP3 ADD MSTORE PUSH1 0x24 DUP2 ADD SWAP2 SWAP1 SWAP2 MSTORE PUSH1 0x44 ADD PUSH2 0x576 JUMP JUMPDEST PUSH20 0xFFFFFFFFFFFFFFFFFFFFFFFFFFFFFFFFFFFFFFFF DUP6 AND PUSH0 SWAP1 DUP2 MSTORE PUSH1 0x1 PUSH1 0x20 MSTORE PUSH1 0x40 DUP2 KECCAK256 PUSH1 0x2 DUP2 ADD DUP1 SLOAD SWAP2 SWAP3 DUP8 SWAP3 PUSH2 0x8DA SWAP1 DUP5 SWAP1 PUSH2 0x2919 JUMP JUMPDEST SWAP3 POP POP DUP2 SWAP1 SSTORE POP DUP5 PUSH1 0x3 PUSH0 DUP3 DUP3 SLOAD PUSH2 0x8F2 SWAP2 SWAP1 PUSH2 0x2919 JUMP JUMPDEST SWAP3 POP POP DUP2 SWAP1 SSTORE POP DUP5 PUSH1 0x2 PUSH0 DUP3 DUP3 SLOAD PUSH2 0x90A SWAP2 SWAP1 PUSH2 0x2919 JUMP JUMPDEST SWAP1 SWAP2 SSTORE POP PUSH32 0x4FC3585900000000000000000000000000000000000000000000000000000000 SWAP9 SWAP8 POP POP POP POP POP POP POP POP JUMP JUMPDEST DUP7 DUP6 DUP2 EQ ISZERO DUP1 PUSH2 0x94B JUMPI POP DUP1 DUP5 EQ ISZERO JUMPDEST DUP1 PUSH2 0x956 JUMPI POP DUP1 DUP3 EQ ISZERO JUMPDEST ISZERO PUSH2 0x98D JUMPI PUSH1 0x40 MLOAD PUSH32 0x6582533600000000000000000000000000000000000000000000000000000000 DUP2 MSTORE PUSH1 0x4 ADD PUSH1 0x40 MLOAD DUP1 SWAP2 SUB SWAP1 REVERT JUMPDEST PUSH0 SLOAD ISZERO PUSH2 0x9D2 JUMPI PUSH0 DUP1 SLOAD PUSH1 0x40 MLOAD PUSH32 0x7C9BB66300000000000000000000000000000000000000000000000000000000 DUP2 MSTORE PUSH1 0x4 DUP2 ADD SWAP3 SWAP1 SWAP3 MSTORE PUSH1 0x24 DUP3 ADD MSTORE PUSH1 0x44 ADD PUSH2 0x576 JUMP JUMPDEST PUSH2 0x9DD PUSH2 0x52E PUSH2 0x1687 JUMP JUMPDEST PUSH0 JUMPDEST DUP2 DUP2 EQ PUSH2 0xBF6 JUMPI PUSH0 DUP11 DUP11 DUP4 DUP2 DUP2 LT PUSH2 0x9F9 JUMPI PUSH2 0x9F9 PUSH2 0x292C JUMP JUMPDEST SWAP1 POP PUSH1 0x20 MUL ADD PUSH1 0x20 DUP2 ADD SWAP1 PUSH2 0xA0E SWAP2 SWAP1 PUSH2 0x2547 JUMP JUMPDEST SWAP1 POP PUSH20 0xFFFFFFFFFFFFFFFFFFFFFFFFFFFFFFFFFFFFFFFF DUP2 AND PUSH2 0xA5D JUMPI PUSH1 0x40 MLOAD PUSH32 0x9C89D57F00000000000000000000000000000000000000000000000000000000 DUP2 MSTORE PUSH1 0x4 ADD PUSH1 0x40 MLOAD DUP1 SWAP2 SUB SWAP1 REVERT JUMPDEST PUSH0 DUP10 DUP10 DUP5 DUP2 DUP2 LT PUSH2 0xA70 JUMPI PUSH2 0xA70 PUSH2 0x292C JUMP JUMPDEST SWAP1 POP PUSH1 0x20 MUL ADD CALLDATALOAD SWAP1 POP DUP1 PUSH0 SUB PUSH2 0xACA JUMPI PUSH1 0x40 MLOAD PUSH32 0xD49C192700000000000000000000000000000000000000000000000000000000 DUP2 MSTORE PUSH20 0xFFFFFFFFFFFFFFFFFFFFFFFFFFFFFFFFFFFFFFFF DUP4 AND PUSH1 0x4 DUP3 ADD MSTORE PUSH1 0x24 ADD PUSH2 0x576 JUMP JUMPDEST PUSH20 0xFFFFFFFFFFFFFFFFFFFFFFFFFFFFFFFFFFFFFFFF DUP3 AND PUSH0 SWAP1 DUP2 MSTORE PUSH1 0x1 PUSH1 0x20 MSTORE PUSH1 0x40 SWAP1 KECCAK256 DUP1 SLOAD ISZERO PUSH2 0xB3F JUMPI PUSH1 0x40 MLOAD PUSH32 0x6DBAA9B400000000000000000000000000000000000000000000000000000000 DUP2 MSTORE PUSH20 0xFFFFFFFFFFFFFFFFFFFFFFFFFFFFFFFFFFFFFFFF DUP5 AND PUSH1 0x4 DUP3 ADD MSTORE PUSH1 0x24 ADD PUSH2 0x576 JUMP JUMPDEST PUSH0 DUP10 DUP10 DUP7 DUP2 DUP2 LT PUSH2 0xB52 JUMPI PUSH2 0xB52 PUSH2 0x292C JUMP JUMPDEST DUP6 DUP6 SSTORE PUSH1 0x20 MUL SWAP2 SWAP1 SWAP2 ADD CALLDATALOAD PUSH1 0x1 DUP5 ADD DUP2 SWAP1 SSTORE SWAP2 POP DUP9 SWAP1 POP DUP8 DUP7 DUP2 DUP2 LT PUSH2 0xB7A JUMPI PUSH2 0xB7A PUSH2 0x292C JUMP JUMPDEST SWAP1 POP PUSH1 0x20 MUL ADD PUSH1 0x20 DUP2 ADD SWAP1 PUSH2 0xB8F SWAP2 SWAP1 PUSH2 0x2959 JUMP JUMPDEST PUSH1 0x3 DUP4 ADD DUP1 SLOAD PUSH32 0xFFFFFFFFFFFFFFFFFFFFFFFFFFFFFFFFFFFFFFFFFFFFFFFFFFFFFFFFFFFFFF00 AND SWAP2 ISZERO ISZERO SWAP2 SWAP1 SWAP2 OR SWAP1 SSTORE PUSH2 0xBCA DUP2 DUP5 PUSH2 0x2919 JUMP JUMPDEST PUSH1 0x2 PUSH0 DUP3 DUP3 SLOAD PUSH2 0xBDA SWAP2 SWAP1 PUSH2 0x2919 JUMP JUMPDEST SWAP3 POP POP DUP2 SWAP1 SSTORE POP POP POP POP POP DUP1 PUSH2 0xBEF SWAP1 PUSH2 0x2974 JUMP JUMPDEST SWAP1 POP PUSH2 0x9DF JUMP JUMPDEST POP PUSH32 0x44FBB8621BC7A734E344E0D7F6B84824CF97E0D8D611F9F8502E42FF0B1DEE43 DUP10 DUP10 DUP10 DUP10 DUP10 DUP10 DUP10 DUP10 PUSH1 0x40 MLOAD PUSH2 0xC34 SWAP9 SWAP8 SWAP7 SWAP6 SWAP5 SWAP4 SWAP3 SWAP2 SWAP1 PUSH2 0x29F4 JUMP JUMPDEST PUSH1 0x40 MLOAD DUP1 SWAP2 SUB SWAP1 LOG1 POP POP POP POP POP POP POP POP POP JUMP JUMPDEST PUSH2 0xC52 PUSH2 0x52E PUSH2 0x1687 JUMP JUMPDEST PUSH2 0xC64 DUP2 PUSH2 0xC5E PUSH2 0x1837 JUMP JUMPDEST SWAP1 PUSH2 0x1864 JUMP JUMPDEST POP JUMP JUMPDEST PUSH1 0x3 SLOAD PUSH1 0x40 MLOAD PUSH32 0x70A0823100000000000000000000000000000000000000000000000000000000 DUP2 MSTORE ADDRESS PUSH1 0x4 DUP3 ADD MSTORE PUSH0 SWAP2 SWAP1 PUSH20 0xFFFFFFFFFFFFFFFFFFFFFFFFFFFFFFFFFFFFFFFF PUSH32 0x0 AND SWAP1 PUSH4 0x70A08231 SWAP1 PUSH1 0x24 ADD PUSH1 0x20 PUSH1 0x40 MLOAD DUP1 DUP4 SUB DUP2 DUP7 GAS STATICCALL ISZERO DUP1 ISZERO PUSH2 0xCF5 JUMPI RETURNDATASIZE PUSH0 DUP1 RETURNDATACOPY RETURNDATASIZE PUSH0 REVERT JUMPDEST POP POP POP POP PUSH1 0x40 MLOAD RETURNDATASIZE PUSH1 0x1F NOT PUSH1 0x1F DUP3 ADD AND DUP3 ADD DUP1 PUSH1 0x40 MSTORE POP DUP2 ADD SWAP1 PUSH2 0xD19 SWAP2 SWAP1 PUSH2 0x2AB9 JUMP JUMPDEST PUSH2 0xD23 SWAP2 SWAP1 PUSH2 0x2906 JUMP JUMPDEST SWAP1 POP PUSH0 DUP1 JUMPDEST DUP6 DUP2 LT ISZERO PUSH2 0xDE2 JUMPI PUSH32 0x0 PUSH20 0xFFFFFFFFFFFFFFFFFFFFFFFFFFFFFFFFFFFFFFFF AND DUP8 DUP8 DUP4 DUP2 DUP2 LT PUSH2 0xD79 JUMPI PUSH2 0xD79 PUSH2 0x292C JUMP JUMPDEST SWAP1 POP PUSH1 0x20 MUL ADD PUSH1 0x20 DUP2 ADD SWAP1 PUSH2 0xD8E SWAP2 SWAP1 PUSH2 0x2547 JUMP JUMPDEST PUSH20 0xFFFFFFFFFFFFFFFFFFFFFFFFFFFFFFFFFFFFFFFF AND SUB PUSH2 0xDD0 JUMPI DUP5 DUP5 DUP3 DUP2 DUP2 LT PUSH2 0xDBB JUMPI PUSH2 0xDBB PUSH2 0x292C JUMP JUMPDEST SWAP1 POP PUSH1 0x20 MUL ADD CALLDATALOAD DUP3 PUSH2 0xDCD SWAP2 SWAP1 PUSH2 0x2919 JUMP JUMPDEST SWAP2 POP JUMPDEST DUP1 PUSH2 0xDDA DUP2 PUSH2 0x2974 JUMP JUMPDEST SWAP2 POP POP PUSH2 0xD28 JUMP JUMPDEST POP DUP2 DUP2 GT ISZERO PUSH2 0xE27 JUMPI PUSH1 0x40 MLOAD PUSH32 0x7CE4D19D00000000000000000000000000000000000000000000000000000000 DUP2 MSTORE PUSH1 0x4 DUP2 ADD DUP4 SWAP1 MSTORE PUSH1 0x24 DUP2 ADD DUP3 SWAP1 MSTORE PUSH1 0x44 ADD PUSH2 0x576 JUMP JUMPDEST PUSH2 0xE35 DUP9 DUP9 DUP9 DUP9 DUP9 DUP9 PUSH2 0x1928 JUMP JUMPDEST POP POP POP POP POP POP POP POP JUMP JUMPDEST PUSH0 PUSH2 0xE65 PUSH2 0xE4B PUSH2 0x1837 JUMP JUMPDEST SLOAD PUSH20 0xFFFFFFFFFFFFFFFFFFFFFFFFFFFFFFFFFFFFFFFF AND SWAP1 JUMP JUMPDEST SWAP1 POP SWAP1 JUMP JUMPDEST PUSH2 0xC64 PUSH2 0xE75 PUSH2 0x1687 JUMP JUMPDEST DUP3 PUSH2 0xE7E PUSH2 0x172C JUMP JUMPDEST SWAP2 SWAP1 PUSH2 0x1A12 JUMP JUMPDEST PUSH0 PUSH2 0xE65 PUSH2 0xE4B PUSH2 0x1690 JUMP JUMPDEST PUSH0 PUSH2 0xED3 DUP4 DUP4 PUSH2 0xE9F PUSH2 0x172C JUMP JUMPDEST PUSH0 SWAP3 DUP4 MSTORE PUSH1 0x20 SWAP1 DUP2 MSTORE PUSH1 0x40 DUP1 DUP5 KECCAK256 PUSH20 0xFFFFFFFFFFFFFFFFFFFFFFFFFFFFFFFFFFFFFFFF SWAP1 SWAP4 AND DUP5 MSTORE SWAP2 SWAP1 MSTORE SWAP1 KECCAK256 SLOAD PUSH1 0xFF AND SWAP1 JUMP JUMPDEST SWAP4 SWAP3 POP POP POP JUMP JUMPDEST PUSH0 PUSH2 0xEE3 PUSH2 0x1687 JUMP JUMPDEST SWAP1 POP DUP2 PUSH0 SUB PUSH2 0xF3E JUMPI PUSH1 0x40 MLOAD PUSH32 0x9BC7F2B00000000000000000000000000000000000000000000000000000000 DUP2 MSTORE PUSH20 0xFFFFFFFFFFFFFFFFFFFFFFFFFFFFFFFFFFFFFFFF DUP1 DUP4 AND PUSH1 0x4 DUP4 ADD MSTORE DUP5 AND PUSH1 0x24 DUP3 ADD MSTORE PUSH1 0x44 ADD PUSH2 0x576 JUMP JUMPDEST PUSH1 0x2 PUSH0 SLOAD EQ PUSH2 0xF86 JUMPI PUSH0 SLOAD PUSH1 0x40 MLOAD PUSH32 0x7C9BB66300000000000000000000000000000000000000000000000000000000 DUP2 MSTORE PUSH1 0x2 PUSH1 0x4 DUP3 ADD MSTORE PUSH1 0x24 DUP2 ADD SWAP2 SWAP1 SWAP2 MSTORE PUSH1 0x44 ADD PUSH2 0x576 JUMP JUMPDEST PUSH2 0xFBA PUSH32 0x7370656E64657200000000000000000000000000000000000000000000000000 DUP3 PUSH2 0xFB3 PUSH2 0x172C JUMP JUMPDEST SWAP2 SWAP1 PUSH2 0x1AB5 JUMP JUMPDEST PUSH20 0xFFFFFFFFFFFFFFFFFFFFFFFFFFFFFFFFFFFFFFFF DUP4 AND PUSH0 SWAP1 DUP2 MSTORE PUSH1 0x1 PUSH1 0x20 DUP2 SWAP1 MSTORE PUSH1 0x40 DUP3 KECCAK256 SWAP1 DUP2 ADD SLOAD SWAP1 SWAP2 SWAP1 DUP1 ISZERO PUSH2 0x108F JUMPI DUP5 DUP2 LT PUSH2 0x1079 JUMPI DUP5 DUP4 PUSH1 0x1 ADD PUSH0 DUP3 DUP3 SLOAD PUSH2 0x1007 SWAP2 SWAP1 PUSH2 0x2906 JUMP JUMPDEST SWAP1 SWAP2 SSTORE POP POP PUSH1 0x40 DUP1 MLOAD PUSH20 0xFFFFFFFFFFFFFFFFFFFFFFFFFFFFFFFFFFFFFFFF DUP1 DUP8 AND DUP3 MSTORE DUP9 AND PUSH1 0x20 DUP3 ADD MSTORE SWAP1 DUP2 ADD DUP7 SWAP1 MSTORE PUSH0 PUSH1 0x60 DUP3 ADD DUP2 SWAP1 MSTORE PUSH1 0x80 DUP3 ADD MSTORE PUSH32 0xC8832E1605166EECBA94F0E3919E05A79787269B7B9F7E7B9766B187B44A7E89 SWAP1 PUSH1 0xA0 ADD PUSH1 0x40 MLOAD DUP1 SWAP2 SUB SWAP1 LOG1 POP POP POP POP POP POP JUMP JUMPDEST PUSH0 PUSH1 0x1 DUP5 ADD SSTORE PUSH2 0x1089 DUP2 DUP7 PUSH2 0x2906 JUMP JUMPDEST SWAP5 POP DUP1 SWAP2 POP JUMPDEST DUP3 SLOAD PUSH0 SWAP1 DUP1 ISZERO PUSH2 0x1139 JUMPI DUP7 DUP2 LT PUSH2 0x1126 JUMPI DUP7 DUP6 PUSH0 ADD PUSH0 DUP3 DUP3 SLOAD PUSH2 0x10B2 SWAP2 SWAP1 PUSH2 0x2906 JUMP JUMPDEST SWAP1 SWAP2 SSTORE POP POP PUSH1 0x40 DUP1 MLOAD PUSH20 0xFFFFFFFFFFFFFFFFFFFFFFFFFFFFFFFFFFFFFFFF DUP1 DUP10 AND DUP3 MSTORE DUP11 AND PUSH1 0x20 DUP3 ADD MSTORE SWAP1 DUP2 ADD DUP6 SWAP1 MSTORE PUSH1 0x60 DUP2 ADD DUP9 SWAP1 MSTORE PUSH0 PUSH1 0x80 DUP3 ADD MSTORE PUSH32 0xC8832E1605166EECBA94F0E3919E05A79787269B7B9F7E7B9766B187B44A7E89 SWAP1 PUSH1 0xA0 ADD PUSH1 0x40 MLOAD DUP1 SWAP2 SUB SWAP1 LOG1 POP POP POP POP POP POP POP POP JUMP JUMPDEST PUSH0 DUP6 SSTORE PUSH2 0x1133 DUP2 DUP9 PUSH2 0x2906 JUMP JUMPDEST SWAP7 POP DUP1 SWAP2 POP JUMPDEST PUSH1 0x2 DUP6 ADD SLOAD DUP8 DUP2 LT ISZERO PUSH2 0x119F JUMPI PUSH1 0x40 MLOAD PUSH32 0x1734392500000000000000000000000000000000000000000000000000000000 DUP2 MSTORE PUSH20 0xFFFFFFFFFFFFFFFFFFFFFFFFFFFFFFFFFFFFFFFF DUP1 DUP10 AND PUSH1 0x4 DUP4 ADD MSTORE DUP11 AND PUSH1 0x24 DUP3 ADD MSTORE PUSH1 0x44 DUP2 ADD DUP10 SWAP1 MSTORE PUSH1 0x64 ADD PUSH2 0x576 JUMP JUMPDEST DUP8 DUP7 PUSH1 0x2 ADD PUSH0 DUP3 DUP3 SLOAD PUSH2 0x11B2 SWAP2 SWAP1 PUSH2 0x2906 JUMP JUMPDEST SWAP3 POP POP DUP2 SWAP1 SSTORE POP DUP8 PUSH1 0x3 PUSH0 DUP3 DUP3 SLOAD PUSH2 0x11CA SWAP2 SWAP1 PUSH2 0x2906 JUMP JUMPDEST SWAP1 SWAP2 SSTORE POP POP PUSH20 0xFFFFFFFFFFFFFFFFFFFFFFFFFFFFFFFFFFFFFFFF PUSH32 0x0 AND PUSH4 0xA9059CBB PUSH2 0x1216 PUSH2 0xE4B PUSH2 0x1837 JUMP JUMPDEST PUSH1 0x40 MLOAD PUSH32 0xFFFFFFFF00000000000000000000000000000000000000000000000000000000 PUSH1 0xE0 DUP5 SWAP1 SHL AND DUP2 MSTORE PUSH20 0xFFFFFFFFFFFFFFFFFFFFFFFFFFFFFFFFFFFFFFFF SWAP1 SWAP2 AND PUSH1 0x4 DUP3 ADD MSTORE PUSH1 0x24 DUP2 ADD DUP12 SWAP1 MSTORE PUSH1 0x44 ADD PUSH1 0x20 PUSH1 0x40 MLOAD DUP1 DUP4 SUB DUP2 PUSH0 DUP8 GAS CALL ISZERO DUP1 ISZERO PUSH2 0x1285 JUMPI RETURNDATASIZE PUSH0 DUP1 RETURNDATACOPY RETURNDATASIZE PUSH0 REVERT JUMPDEST POP POP POP POP PUSH1 0x40 MLOAD RETURNDATASIZE PUSH1 0x1F NOT PUSH1 0x1F DUP3 ADD AND DUP3 ADD DUP1 PUSH1 0x40 MSTORE POP DUP2 ADD SWAP1 PUSH2 0x12A9 SWAP2 SWAP1 PUSH2 0x28BE JUMP JUMPDEST POP PUSH1 0x40 DUP1 MLOAD PUSH20 0xFFFFFFFFFFFFFFFFFFFFFFFFFFFFFFFFFFFFFFFF DUP1 DUP11 AND DUP3 MSTORE DUP12 AND PUSH1 0x20 DUP3 ADD MSTORE SWAP1 DUP2 ADD DUP7 SWAP1 MSTORE PUSH1 0x60 DUP2 ADD DUP5 SWAP1 MSTORE PUSH1 0x80 DUP2 ADD DUP10 SWAP1 MSTORE PUSH32 0xC8832E1605166EECBA94F0E3919E05A79787269B7B9F7E7B9766B187B44A7E89 SWAP1 PUSH1 0xA0 ADD PUSH2 0xC34 JUMP JUMPDEST PUSH2 0x1318 PUSH2 0x52E PUSH2 0x1687 JUMP JUMPDEST DUP5 DUP4 DUP2 EQ ISZERO DUP1 PUSH2 0x1328 JUMPI POP DUP1 DUP3 EQ ISZERO JUMPDEST ISZERO PUSH2 0x135F JUMPI PUSH1 0x40 MLOAD PUSH32 0x6582533600000000000000000000000000000000000000000000000000000000 DUP2 MSTORE PUSH1 0x4 ADD PUSH1 0x40 MLOAD DUP1 SWAP2 SUB SWAP1 REVERT JUMPDEST PUSH0 JUMPDEST DUP2 DUP2 EQ PUSH2 0xE35 JUMPI DUP6 DUP6 DUP3 DUP2 DUP2 LT PUSH2 0x137A JUMPI PUSH2 0x137A PUSH2 0x292C JUMP JUMPDEST SWAP1 POP PUSH1 0x20 MUL ADD PUSH1 0x20 DUP2 ADD SWAP1 PUSH2 0x138F SWAP2 SWAP1 PUSH2 0x2547 JUMP JUMPDEST PUSH20 0xFFFFFFFFFFFFFFFFFFFFFFFFFFFFFFFFFFFFFFFF AND PUSH4 0x23B872DD ADDRESS DUP11 DUP11 DUP6 DUP2 DUP2 LT PUSH2 0x13BD JUMPI PUSH2 0x13BD PUSH2 0x292C JUMP JUMPDEST SWAP1 POP PUSH1 0x20 MUL ADD PUSH1 0x20 DUP2 ADD SWAP1 PUSH2 0x13D2 SWAP2 SWAP1 PUSH2 0x2547 JUMP JUMPDEST DUP8 DUP8 DUP7 DUP2 DUP2 LT PUSH2 0x13E4 JUMPI PUSH2 0x13E4 PUSH2 0x292C JUMP JUMPDEST PUSH1 0x40 MLOAD PUSH32 0xFFFFFFFF00000000000000000000000000000000000000000000000000000000 PUSH1 0xE0 DUP9 SWAP1 SHL AND DUP2 MSTORE PUSH20 0xFFFFFFFFFFFFFFFFFFFFFFFFFFFFFFFFFFFFFFFF SWAP6 DUP7 AND PUSH1 0x4 DUP3 ADD MSTORE SWAP5 SWAP1 SWAP4 AND PUSH1 0x24 DUP6 ADD MSTORE POP PUSH1 0x20 SWAP1 SWAP2 MUL ADD CALLDATALOAD PUSH1 0x44 DUP3 ADD MSTORE PUSH1 0x64 ADD PUSH0 PUSH1 0x40 MLOAD DUP1 DUP4 SUB DUP2 PUSH0 DUP8 DUP1 EXTCODESIZE ISZERO DUP1 ISZERO PUSH2 0x145D JUMPI PUSH0 DUP1 REVERT JUMPDEST POP GAS CALL ISZERO DUP1 ISZERO PUSH2 0x146F JUMPI RETURNDATASIZE PUSH0 DUP1 RETURNDATACOPY RETURNDATASIZE PUSH0 REVERT JUMPDEST POP POP POP POP DUP1 PUSH1 0x1 ADD SWAP1 POP PUSH2 0x1361 JUMP JUMPDEST PUSH0 PUSH2 0x1487 PUSH2 0x1687 JUMP JUMPDEST SWAP1 POP PUSH2 0x1495 DUP2 PUSH2 0x536 PUSH2 0x1690 JUMP JUMPDEST PUSH2 0x5E7 DUP4 DUP4 DUP4 PUSH2 0x14A3 PUSH2 0x172C JUMP JUMPDEST SWAP3 SWAP2 SWAP1 PUSH2 0x1B3A JUMP JUMPDEST PUSH2 0xC64 PUSH2 0x14B6 PUSH2 0x1687 JUMP JUMPDEST DUP3 PUSH2 0x14BF PUSH2 0x1690 JUMP JUMPDEST SWAP2 SWAP1 PUSH2 0x1C02 JUMP JUMPDEST PUSH2 0x14D1 PUSH2 0x52E PUSH2 0x1687 JUMP JUMPDEST DUP3 DUP2 DUP2 EQ PUSH2 0x150B JUMPI PUSH1 0x40 MLOAD PUSH32 0x6582533600000000000000000000000000000000000000000000000000000000 DUP2 MSTORE PUSH1 0x4 ADD PUSH1 0x40 MLOAD DUP1 SWAP2 SUB SWAP1 REVERT JUMPDEST PUSH0 JUMPDEST DUP2 DUP2 EQ PUSH2 0x157B JUMPI PUSH2 0x1573 DUP5 DUP5 DUP4 DUP2 DUP2 LT PUSH2 0x1529 JUMPI PUSH2 0x1529 PUSH2 0x292C JUMP JUMPDEST SWAP1 POP PUSH1 0x20 MUL ADD CALLDATALOAD DUP8 DUP8 DUP5 DUP2 DUP2 LT PUSH2 0x1542 JUMPI PUSH2 0x1542 PUSH2 0x292C JUMP JUMPDEST SWAP1 POP PUSH1 0x20 MUL ADD PUSH1 0x20 DUP2 ADD SWAP1 PUSH2 0x1557 SWAP2 SWAP1 PUSH2 0x2547 JUMP JUMPDEST PUSH20 0xFFFFFFFFFFFFFFFFFFFFFFFFFFFFFFFFFFFFFFFF AND SWAP1 PUSH2 0x1D15 JUMP JUMPDEST PUSH1 0x1 ADD PUSH2 0x150D JUMP JUMPDEST POP POP POP POP POP POP JUMP JUMPDEST PUSH0 DUP1 PUSH2 0x51D PUSH1 0x1 PUSH32 0xCA9D3E17F264B0F3984E2634E94ADB37FA3E6A8103F06AEAE6FA59E21C769F5E PUSH2 0x2906 JUMP JUMPDEST PUSH0 PUSH29 0x100000000000000000000000000000000000000000000000000000000 PUSH32 0xFFFFFFFF00000000000000000000000000000000000000000000000000000000 DUP4 AND ADD PUSH2 0x15FE JUMPI POP PUSH0 PUSH2 0x51D JUMP JUMPDEST PUSH32 0xFE00365900000000000000000000000000000000000000000000000000000000 PUSH32 0xFFFFFFFF00000000000000000000000000000000000000000000000000000000 DUP4 AND ADD PUSH2 0x164F JUMPI POP PUSH1 0x1 PUSH2 0x51D JUMP JUMPDEST POP PUSH32 0xFFFFFFFF00000000000000000000000000000000000000000000000000000000 AND PUSH0 SWAP1 DUP2 MSTORE PUSH1 0x20 SWAP2 SWAP1 SWAP2 MSTORE PUSH1 0x40 SWAP1 KECCAK256 SLOAD PUSH1 0xFF AND SWAP1 JUMP JUMPDEST PUSH0 PUSH2 0xE65 PUSH2 0x1E6B JUMP JUMPDEST PUSH0 DUP1 PUSH2 0x51D PUSH1 0x1 PUSH32 0xC9ED16F33AB3A66C84BFD83099CCB2A8845871E2E1C1928F63797152F0FD54CD PUSH2 0x2906 JUMP JUMPDEST DUP2 SLOAD PUSH20 0xFFFFFFFFFFFFFFFFFFFFFFFFFFFFFFFFFFFFFFFF DUP3 DUP2 AND SWAP2 AND EQ PUSH2 0x1728 JUMPI PUSH1 0x40 MLOAD PUSH32 0x2EF4875E00000000000000000000000000000000000000000000000000000000 DUP2 MSTORE PUSH20 0xFFFFFFFFFFFFFFFFFFFFFFFFFFFFFFFFFFFFFFFF DUP3 AND PUSH1 0x4 DUP3 ADD MSTORE PUSH1 0x24 ADD PUSH2 0x576 JUMP JUMPDEST POP POP JUMP JUMPDEST PUSH0 DUP1 PUSH2 0x51D PUSH1 0x1 PUSH32 0xC8827D3282AF6F37B64C3E9E6F3AC9DF286AB0BB0FCCD6F8661BF19ADB368B23 PUSH2 0x2906 JUMP JUMPDEST PUSH0 DUP4 DUP2 MSTORE PUSH1 0x20 DUP6 DUP2 MSTORE PUSH1 0x40 DUP1 DUP4 KECCAK256 PUSH20 0xFFFFFFFFFFFFFFFFFFFFFFFFFFFFFFFFFFFFFFFF DUP7 AND DUP5 MSTORE SWAP1 SWAP2 MSTORE SWAP1 KECCAK256 SLOAD PUSH1 0xFF AND PUSH2 0x852 JUMPI PUSH0 DUP4 DUP2 MSTORE PUSH1 0x20 DUP6 DUP2 MSTORE PUSH1 0x40 DUP1 DUP4 KECCAK256 PUSH20 0xFFFFFFFFFFFFFFFFFFFFFFFFFFFFFFFFFFFFFFFF DUP7 DUP2 AND DUP1 DUP7 MSTORE SWAP2 DUP5 MSTORE SWAP4 DUP3 SWAP1 KECCAK256 DUP1 SLOAD PUSH32 0xFFFFFFFFFFFFFFFFFFFFFFFFFFFFFFFFFFFFFFFFFFFFFFFFFFFFFFFFFFFFFF00 AND PUSH1 0x1 OR SWAP1 SSTORE DUP2 MLOAD DUP8 DUP2 MSTORE SWAP3 DUP4 ADD MSTORE SWAP2 DUP4 AND SWAP2 DUP2 ADD SWAP2 SWAP1 SWAP2 MSTORE PUSH32 0x2F8788117E7EFF1D82E926EC794901D17C78024A50270940304540A733656F0D SWAP1 PUSH1 0x60 ADD JUMPDEST PUSH1 0x40 MLOAD DUP1 SWAP2 SUB SWAP1 LOG1 POP POP POP POP JUMP JUMPDEST CALLDATASIZE PUSH0 PUSH2 0x5F6 PUSH2 0x1FAF JUMP JUMPDEST PUSH0 DUP1 PUSH2 0x51D PUSH1 0x1 PUSH32 0x4FB5F8CDFBCE77F22B0931A39E9F476A60A0F66524B2F379E96485471EB700AE PUSH2 0x2906 JUMP JUMPDEST PUSH20 0xFFFFFFFFFFFFFFFFFFFFFFFFFFFFFFFFFFFFFFFF DUP2 AND PUSH2 0x18B1 JUMPI PUSH1 0x40 MLOAD PUSH32 0x40B539CF00000000000000000000000000000000000000000000000000000000 DUP2 MSTORE PUSH1 0x4 ADD PUSH1 0x40 MLOAD DUP1 SWAP2 SUB SWAP1 REVERT JUMPDEST DUP2 SLOAD PUSH32 0xFFFFFFFFFFFFFFFFFFFFFFFF0000000000000000000000000000000000000000 AND PUSH20 0xFFFFFFFFFFFFFFFFFFFFFFFFFFFFFFFFFFFFFFFF DUP3 AND SWAP1 DUP2 OR DUP4 SSTORE PUSH1 0x40 MLOAD SWAP1 DUP2 MSTORE PUSH32 0xDD880D24A789958A6398C99C2E54CE31BC10A638CBC42F7DD34285479AE0F855 SWAP1 PUSH1 0x20 ADD PUSH1 0x40 MLOAD DUP1 SWAP2 SUB SWAP1 LOG1 POP POP JUMP JUMPDEST PUSH2 0x1933 PUSH2 0x52E PUSH2 0x1687 JUMP JUMPDEST DUP5 DUP4 DUP2 EQ ISZERO DUP1 PUSH2 0x1943 JUMPI POP DUP1 DUP3 EQ ISZERO JUMPDEST ISZERO PUSH2 0x197A JUMPI PUSH1 0x40 MLOAD PUSH32 0x6582533600000000000000000000000000000000000000000000000000000000 DUP2 MSTORE PUSH1 0x4 ADD PUSH1 0x40 MLOAD DUP1 SWAP2 SUB SWAP1 REVERT JUMPDEST PUSH0 JUMPDEST DUP2 DUP2 EQ PUSH2 0xE35 JUMPI PUSH2 0x1A0A DUP9 DUP9 DUP4 DUP2 DUP2 LT PUSH2 0x1998 JUMPI PUSH2 0x1998 PUSH2 0x292C JUMP JUMPDEST SWAP1 POP PUSH1 0x20 MUL ADD PUSH1 0x20 DUP2 ADD SWAP1 PUSH2 0x19AD SWAP2 SWAP1 PUSH2 0x2547 JUMP JUMPDEST DUP6 DUP6 DUP5 DUP2 DUP2 LT PUSH2 0x19BF JUMPI PUSH2 0x19BF PUSH2 0x292C JUMP JUMPDEST SWAP1 POP PUSH1 0x20 MUL ADD CALLDATALOAD DUP9 DUP9 DUP6 DUP2 DUP2 LT PUSH2 0x19D8 JUMPI PUSH2 0x19D8 PUSH2 0x292C JUMP JUMPDEST SWAP1 POP PUSH1 0x20 MUL ADD PUSH1 0x20 DUP2 ADD SWAP1 PUSH2 0x19ED SWAP2 SWAP1 PUSH2 0x2547 JUMP JUMPDEST PUSH20 0xFFFFFFFFFFFFFFFFFFFFFFFFFFFFFFFFFFFFFFFF AND SWAP2 SWAP1 PUSH2 0x2114 JUMP JUMPDEST PUSH1 0x1 ADD PUSH2 0x197C JUMP JUMPDEST PUSH2 0x1A1D DUP4 DUP3 DUP5 PUSH2 0x1AB5 JUMP JUMPDEST PUSH0 DUP2 DUP2 MSTORE PUSH1 0x20 DUP5 DUP2 MSTORE PUSH1 0x40 DUP1 DUP4 KECCAK256 PUSH20 0xFFFFFFFFFFFFFFFFFFFFFFFFFFFFFFFFFFFFFFFF DUP7 AND DUP1 DUP6 MSTORE SWAP1 DUP4 MSTORE SWAP3 DUP2 SWAP1 KECCAK256 DUP1 SLOAD PUSH32 0xFFFFFFFFFFFFFFFFFFFFFFFFFFFFFFFFFFFFFFFFFFFFFFFFFFFFFFFFFFFFFF00 AND SWAP1 SSTORE DUP1 MLOAD DUP5 DUP2 MSTORE SWAP2 DUP3 ADD DUP4 SWAP1 MSTORE DUP2 ADD SWAP2 SWAP1 SWAP2 MSTORE PUSH32 0xF6391F5C32D9C69D2A47EA670B442974B53935D1EDC7FD64EB21E047A839171B SWAP1 PUSH1 0x60 ADD PUSH1 0x40 MLOAD DUP1 SWAP2 SUB SWAP1 LOG1 POP POP POP JUMP JUMPDEST PUSH0 DUP3 DUP2 MSTORE PUSH1 0x20 DUP5 DUP2 MSTORE PUSH1 0x40 DUP1 DUP4 KECCAK256 PUSH20 0xFFFFFFFFFFFFFFFFFFFFFFFFFFFFFFFFFFFFFFFF DUP6 AND DUP5 MSTORE SWAP1 SWAP2 MSTORE SWAP1 KECCAK256 SLOAD PUSH1 0xFF AND PUSH2 0x5E7 JUMPI PUSH1 0x40 MLOAD PUSH32 0x7AA7288200000000000000000000000000000000000000000000000000000000 DUP2 MSTORE PUSH1 0x4 DUP2 ADD DUP4 SWAP1 MSTORE PUSH20 0xFFFFFFFFFFFFFFFFFFFFFFFFFFFFFFFFFFFFFFFF DUP3 AND PUSH1 0x24 DUP3 ADD MSTORE PUSH1 0x44 ADD PUSH2 0x576 JUMP JUMPDEST PUSH0 DUP4 DUP2 MSTORE PUSH1 0x20 DUP6 DUP2 MSTORE PUSH1 0x40 DUP1 DUP4 KECCAK256 PUSH20 0xFFFFFFFFFFFFFFFFFFFFFFFFFFFFFFFFFFFFFFFF DUP7 AND DUP5 MSTORE SWAP1 SWAP2 MSTORE SWAP1 KECCAK256 SLOAD PUSH1 0xFF AND ISZERO PUSH2 0x852 JUMPI PUSH0 DUP4 DUP2 MSTORE PUSH1 0x20 DUP6 DUP2 MSTORE PUSH1 0x40 DUP1 DUP4 KECCAK256 PUSH20 0xFFFFFFFFFFFFFFFFFFFFFFFFFFFFFFFFFFFFFFFF DUP7 DUP2 AND DUP1 DUP7 MSTORE SWAP2 DUP5 MSTORE SWAP4 DUP3 SWAP1 KECCAK256 DUP1 SLOAD PUSH32 0xFFFFFFFFFFFFFFFFFFFFFFFFFFFFFFFFFFFFFFFFFFFFFFFFFFFFFFFFFFFFFF00 AND SWAP1 SSTORE DUP2 MLOAD DUP8 DUP2 MSTORE SWAP3 DUP4 ADD MSTORE SWAP2 DUP4 AND SWAP2 DUP2 ADD SWAP2 SWAP1 SWAP2 MSTORE PUSH32 0xF6391F5C32D9C69D2A47EA670B442974B53935D1EDC7FD64EB21E047A839171B SWAP1 PUSH1 0x60 ADD PUSH2 0x181F JUMP JUMPDEST DUP3 SLOAD PUSH20 0xFFFFFFFFFFFFFFFFFFFFFFFFFFFFFFFFFFFFFFFF SWAP1 DUP2 AND SWAP1 DUP4 AND DUP2 EQ PUSH2 0x1C6F JUMPI PUSH1 0x40 MLOAD PUSH32 0x2EF4875E00000000000000000000000000000000000000000000000000000000 DUP2 MSTORE PUSH20 0xFFFFFFFFFFFFFFFFFFFFFFFFFFFFFFFFFFFFFFFF DUP5 AND PUSH1 0x4 DUP3 ADD MSTORE PUSH1 0x24 ADD PUSH2 0x576 JUMP JUMPDEST DUP2 PUSH20 0xFFFFFFFFFFFFFFFFFFFFFFFFFFFFFFFFFFFFFFFF AND DUP2 PUSH20 0xFFFFFFFFFFFFFFFFFFFFFFFFFFFFFFFFFFFFFFFF AND EQ PUSH2 0x852 JUMPI DUP4 SLOAD PUSH32 0xFFFFFFFFFFFFFFFFFFFFFFFF0000000000000000000000000000000000000000 AND PUSH20 0xFFFFFFFFFFFFFFFFFFFFFFFFFFFFFFFFFFFFFFFF DUP4 DUP2 AND SWAP2 DUP3 OR DUP7 SSTORE PUSH1 0x40 MLOAD SWAP1 DUP4 AND SWAP1 PUSH32 0x8BE0079C531659141344CD1FD0A4F28419497F9722A3DAAFE3B4186F6B6457E0 SWAP1 PUSH0 SWAP1 LOG3 POP POP POP POP JUMP JUMPDEST DUP1 SELFBALANCE LT ISZERO PUSH2 0x1D7F JUMPI PUSH1 0x40 MLOAD PUSH32 0x8C379A000000000000000000000000000000000000000000000000000000000 DUP2 MSTORE PUSH1 0x20 PUSH1 0x4 DUP3 ADD MSTORE PUSH1 0x1D PUSH1 0x24 DUP3 ADD MSTORE PUSH32 0x416464726573733A20696E73756666696369656E742062616C616E6365000000 PUSH1 0x44 DUP3 ADD MSTORE PUSH1 0x64 ADD PUSH2 0x576 JUMP JUMPDEST PUSH0 DUP3 PUSH20 0xFFFFFFFFFFFFFFFFFFFFFFFFFFFFFFFFFFFFFFFF AND DUP3 PUSH1 0x40 MLOAD PUSH0 PUSH1 0x40 MLOAD DUP1 DUP4 SUB DUP2 DUP6 DUP8 GAS CALL SWAP3 POP POP POP RETURNDATASIZE DUP1 PUSH0 DUP2 EQ PUSH2 0x1DD5 JUMPI PUSH1 0x40 MLOAD SWAP2 POP PUSH1 0x1F NOT PUSH1 0x3F RETURNDATASIZE ADD AND DUP3 ADD PUSH1 0x40 MSTORE RETURNDATASIZE DUP3 MSTORE RETURNDATASIZE PUSH0 PUSH1 0x20 DUP5 ADD RETURNDATACOPY PUSH2 0x1DDA JUMP JUMPDEST PUSH1 0x60 SWAP2 POP JUMPDEST POP POP SWAP1 POP DUP1 PUSH2 0x5E7 JUMPI PUSH1 0x40 MLOAD PUSH32 0x8C379A000000000000000000000000000000000000000000000000000000000 DUP2 MSTORE PUSH1 0x20 PUSH1 0x4 DUP3 ADD MSTORE PUSH1 0x3A PUSH1 0x24 DUP3 ADD MSTORE PUSH32 0x416464726573733A20756E61626C6520746F2073656E642076616C75652C2072 PUSH1 0x44 DUP3 ADD MSTORE PUSH32 0x6563697069656E74206D61792068617665207265766572746564000000000000 PUSH1 0x64 DUP3 ADD MSTORE PUSH1 0x84 ADD PUSH2 0x576 JUMP JUMPDEST PUSH0 CALLER ORIGIN EQ DUP1 PUSH2 0x1E7A JUMPI POP PUSH1 0x18 CALLDATASIZE LT JUMPDEST ISZERO PUSH2 0x1E84 JUMPI POP CALLER SWAP1 JUMP JUMPDEST PUSH32 0xFFFFFFFFFFFFFFFFFFFFFFFFFFFFFFFFFFFFFFFFFFFFFFFFFFFFFFFFFFFFFFEC CALLDATASIZE ADD CALLDATALOAD PUSH1 0x60 SHR PUSH32 0x0 PUSH20 0xFFFFFFFFFFFFFFFFFFFFFFFFFFFFFFFFFFFFFFFF AND CALLER EQ DUP1 PUSH2 0x1F9E JUMPI POP PUSH1 0x40 MLOAD PUSH32 0x8929A8CA00000000000000000000000000000000000000000000000000000000 DUP2 MSTORE PUSH20 0xFFFFFFFFFFFFFFFFFFFFFFFFFFFFFFFFFFFFFFFF DUP3 DUP2 AND PUSH1 0x4 DUP4 ADD MSTORE CALLER PUSH1 0x24 DUP4 ADD MSTORE PUSH32 0x0 AND SWAP1 PUSH4 0x8929A8CA SWAP1 PUSH1 0x44 ADD PUSH1 0x20 PUSH1 0x40 MLOAD DUP1 DUP4 SUB DUP2 DUP7 GAS STATICCALL ISZERO DUP1 ISZERO PUSH2 0x1F7A JUMPI RETURNDATASIZE PUSH0 DUP1 RETURNDATACOPY RETURNDATASIZE PUSH0 REVERT JUMPDEST POP POP POP POP PUSH1 0x40 MLOAD RETURNDATASIZE PUSH1 0x1F NOT PUSH1 0x1F DUP3 ADD AND DUP3 ADD DUP1 PUSH1 0x40 MSTORE POP DUP2 ADD SWAP1 PUSH2 0x1F9E SWAP2 SWAP1 PUSH2 0x28BE JUMP JUMPDEST ISZERO PUSH2 0x1FA8 JUMPI SWAP2 SWAP1 POP JUMP JUMPDEST CALLER SWAP2 POP POP SWAP1 JUMP JUMPDEST CALLDATASIZE PUSH0 CALLER ORIGIN EQ DUP1 PUSH2 0x1FBF JUMPI POP PUSH1 0x18 CALLDATASIZE LT JUMPDEST ISZERO PUSH2 0x1FCC JUMPI POP PUSH0 SWAP2 CALLDATASIZE SWAP2 POP JUMP JUMPDEST CALLER PUSH20 0xFFFFFFFFFFFFFFFFFFFFFFFFFFFFFFFFFFFFFFFF PUSH32 0x0 AND EQ DUP1 PUSH2 0x20FF JUMPI POP PUSH20 0xFFFFFFFFFFFFFFFFFFFFFFFFFFFFFFFFFFFFFFFF PUSH32 0x0 AND PUSH4 0x8929A8CA CALLDATASIZE PUSH32 0xFFFFFFFFFFFFFFFFFFFFFFFFFFFFFFFFFFFFFFFFFFFFFFFFFFFFFFFFFFFFFFEC ADD CALLDATALOAD PUSH1 0x60 SHR PUSH1 0x40 MLOAD PUSH32 0xFFFFFFFF00000000000000000000000000000000000000000000000000000000 PUSH1 0xE0 DUP5 SWAP1 SHL AND DUP2 MSTORE PUSH20 0xFFFFFFFFFFFFFFFFFFFFFFFFFFFFFFFFFFFFFFFF SWAP1 SWAP2 AND PUSH1 0x4 DUP3 ADD MSTORE CALLER PUSH1 0x24 DUP3 ADD MSTORE PUSH1 0x44 ADD PUSH1 0x20 PUSH1 0x40 MLOAD DUP1 DUP4 SUB DUP2 DUP7 GAS STATICCALL ISZERO DUP1 ISZERO PUSH2 0x20DB JUMPI RETURNDATASIZE PUSH0 DUP1 RETURNDATACOPY RETURNDATASIZE PUSH0 REVERT JUMPDEST POP POP POP POP PUSH1 0x40 MLOAD RETURNDATASIZE PUSH1 0x1F NOT PUSH1 0x1F DUP3 ADD AND DUP3 ADD DUP1 PUSH1 0x40 MSTORE POP DUP2 ADD SWAP1 PUSH2 0x20FF SWAP2 SWAP1 PUSH2 0x28BE JUMP JUMPDEST ISZERO PUSH2 0x210C JUMPI PUSH2 0x5F6 PUSH2 0x21A1 JUMP JUMPDEST POP PUSH0 SWAP2 CALLDATASIZE SWAP2 POP JUMP JUMPDEST PUSH1 0x40 DUP1 MLOAD PUSH20 0xFFFFFFFFFFFFFFFFFFFFFFFFFFFFFFFFFFFFFFFF DUP5 AND PUSH1 0x24 DUP3 ADD MSTORE PUSH1 0x44 DUP1 DUP3 ADD DUP5 SWAP1 MSTORE DUP3 MLOAD DUP1 DUP4 SUB SWAP1 SWAP2 ADD DUP2 MSTORE PUSH1 0x64 SWAP1 SWAP2 ADD SWAP1 SWAP2 MSTORE PUSH1 0x20 DUP2 ADD DUP1 MLOAD PUSH28 0xFFFFFFFFFFFFFFFFFFFFFFFFFFFFFFFFFFFFFFFFFFFFFFFFFFFFFFFF AND PUSH32 0xA9059CBB00000000000000000000000000000000000000000000000000000000 OR SWAP1 MSTORE PUSH2 0x5E7 SWAP1 DUP5 SWAP1 PUSH2 0x21D1 JUMP JUMPDEST CALLDATASIZE PUSH0 PUSH2 0x5F6 PUSH32 0xFFFFFFFFFFFFFFFFFFFFFFFFFFFFFFFFFFFFFFFFFFFFFFFFFFFFFFFFFFFFFFEC DUP4 ADD DUP3 DUP5 DUP2 PUSH2 0x2AD0 JUMP JUMPDEST PUSH0 PUSH2 0x2232 DUP3 PUSH1 0x40 MLOAD DUP1 PUSH1 0x40 ADD PUSH1 0x40 MSTORE DUP1 PUSH1 0x20 DUP2 MSTORE PUSH1 0x20 ADD PUSH32 0x5361666545524332303A206C6F772D6C6576656C2063616C6C206661696C6564 DUP2 MSTORE POP DUP6 PUSH20 0xFFFFFFFFFFFFFFFFFFFFFFFFFFFFFFFFFFFFFFFF AND PUSH2 0x22DE SWAP1 SWAP3 SWAP2 SWAP1 PUSH4 0xFFFFFFFF AND JUMP JUMPDEST SWAP1 POP DUP1 MLOAD PUSH0 EQ DUP1 PUSH2 0x2252 JUMPI POP DUP1 DUP1 PUSH1 0x20 ADD SWAP1 MLOAD DUP2 ADD SWAP1 PUSH2 0x2252 SWAP2 SWAP1 PUSH2 0x28BE JUMP JUMPDEST PUSH2 0x5E7 JUMPI PUSH1 0x40 MLOAD PUSH32 0x8C379A000000000000000000000000000000000000000000000000000000000 DUP2 MSTORE PUSH1 0x20 PUSH1 0x4 DUP3 ADD MSTORE PUSH1 0x2A PUSH1 0x24 DUP3 ADD MSTORE PUSH32 0x5361666545524332303A204552433230206F7065726174696F6E20646964206E PUSH1 0x44 DUP3 ADD MSTORE PUSH32 0x6F74207375636365656400000000000000000000000000000000000000000000 PUSH1 0x64 DUP3 ADD MSTORE PUSH1 0x84 ADD PUSH2 0x576 JUMP JUMPDEST PUSH1 0x60 PUSH2 0x22EC DUP5 DUP5 PUSH0 DUP6 PUSH2 0x22F4 JUMP JUMPDEST SWAP5 SWAP4 POP POP POP POP JUMP JUMPDEST PUSH1 0x60 DUP3 SELFBALANCE LT ISZERO PUSH2 0x2386 JUMPI PUSH1 0x40 MLOAD PUSH32 0x8C379A000000000000000000000000000000000000000000000000000000000 DUP2 MSTORE PUSH1 0x20 PUSH1 0x4 DUP3 ADD MSTORE PUSH1 0x26 PUSH1 0x24 DUP3 ADD MSTORE PUSH32 0x416464726573733A20696E73756666696369656E742062616C616E636520666F PUSH1 0x44 DUP3 ADD MSTORE PUSH32 0x722063616C6C0000000000000000000000000000000000000000000000000000 PUSH1 0x64 DUP3 ADD MSTORE PUSH1 0x84 ADD PUSH2 0x576 JUMP JUMPDEST PUSH0 DUP1 DUP7 PUSH20 0xFFFFFFFFFFFFFFFFFFFFFFFFFFFFFFFFFFFFFFFF AND DUP6 DUP8 PUSH1 0x40 MLOAD PUSH2 0x23AE SWAP2 SWAP1 PUSH2 0x2B19 JUMP JUMPDEST PUSH0 PUSH1 0x40 MLOAD DUP1 DUP4 SUB DUP2 DUP6 DUP8 GAS CALL SWAP3 POP POP POP RETURNDATASIZE DUP1 PUSH0 DUP2 EQ PUSH2 0x23E8 JUMPI PUSH1 0x40 MLOAD SWAP2 POP PUSH1 0x1F NOT PUSH1 0x3F RETURNDATASIZE ADD AND DUP3 ADD PUSH1 0x40 MSTORE RETURNDATASIZE DUP3 MSTORE RETURNDATASIZE PUSH0 PUSH1 0x20 DUP5 ADD RETURNDATACOPY PUSH2 0x23ED JUMP JUMPDEST PUSH1 0x60 SWAP2 POP JUMPDEST POP SWAP2 POP SWAP2 POP PUSH2 0x23FE DUP8 DUP4 DUP4 DUP8 PUSH2 0x2409 JUMP JUMPDEST SWAP8 SWAP7 POP POP POP POP POP POP POP JUMP JUMPDEST PUSH1 0x60 DUP4 ISZERO PUSH2 0x249E JUMPI DUP3 MLOAD PUSH0 SUB PUSH2 0x2497 JUMPI PUSH20 0xFFFFFFFFFFFFFFFFFFFFFFFFFFFFFFFFFFFFFFFF DUP6 AND EXTCODESIZE PUSH2 0x2497 JUMPI PUSH1 0x40 MLOAD PUSH32 0x8C379A000000000000000000000000000000000000000000000000000000000 DUP2 MSTORE PUSH1 0x20 PUSH1 0x4 DUP3 ADD MSTORE PUSH1 0x1D PUSH1 0x24 DUP3 ADD MSTORE PUSH32 0x416464726573733A2063616C6C20746F206E6F6E2D636F6E7472616374000000 PUSH1 0x44 DUP3 ADD MSTORE PUSH1 0x64 ADD PUSH2 0x576 JUMP JUMPDEST POP DUP2 PUSH2 0x22EC JUMP JUMPDEST PUSH2 0x22EC DUP4 DUP4 DUP2 MLOAD ISZERO PUSH2 0x24B3 JUMPI DUP2 MLOAD DUP1 DUP4 PUSH1 0x20 ADD REVERT JUMPDEST DUP1 PUSH1 0x40 MLOAD PUSH32 0x8C379A000000000000000000000000000000000000000000000000000000000 DUP2 MSTORE PUSH1 0x4 ADD PUSH2 0x576 SWAP2 SWAP1 PUSH2 0x2B34 JUMP JUMPDEST PUSH0 PUSH1 0x20 DUP3 DUP5 SUB SLT ISZERO PUSH2 0x24F7 JUMPI PUSH0 DUP1 REVERT JUMPDEST DUP2 CALLDATALOAD PUSH32 0xFFFFFFFF00000000000000000000000000000000000000000000000000000000 DUP2 AND DUP2 EQ PUSH2 0xED3 JUMPI PUSH0 DUP1 REVERT JUMPDEST PUSH20 0xFFFFFFFFFFFFFFFFFFFFFFFFFFFFFFFFFFFFFFFF DUP2 AND DUP2 EQ PUSH2 0xC64 JUMPI PUSH0 DUP1 REVERT JUMPDEST PUSH0 PUSH1 0x20 DUP3 DUP5 SUB SLT ISZERO PUSH2 0x2557 JUMPI PUSH0 DUP1 REVERT JUMPDEST DUP2 CALLDATALOAD PUSH2 0xED3 DUP2 PUSH2 0x2526 JUMP JUMPDEST PUSH0 PUSH1 0x20 DUP3 DUP5 SUB SLT ISZERO PUSH2 0x2572 JUMPI PUSH0 DUP1 REVERT JUMPDEST POP CALLDATALOAD SWAP2 SWAP1 POP JUMP JUMPDEST PUSH0 DUP1 PUSH1 0x40 DUP4 DUP6 SUB SLT ISZERO PUSH2 0x258A JUMPI PUSH0 DUP1 REVERT JUMPDEST DUP3 CALLDATALOAD SWAP2 POP PUSH1 0x20 DUP4 ADD CALLDATALOAD PUSH2 0x259C DUP2 PUSH2 0x2526 JUMP JUMPDEST DUP1 SWAP2 POP POP SWAP3 POP SWAP3 SWAP1 POP JUMP JUMPDEST PUSH1 0x20 DUP2 MSTORE DUP2 PUSH1 0x20 DUP3 ADD MSTORE DUP2 DUP4 PUSH1 0x40 DUP4 ADD CALLDATACOPY PUSH0 DUP2 DUP4 ADD PUSH1 0x40 SWAP1 DUP2 ADD SWAP2 SWAP1 SWAP2 MSTORE PUSH1 0x1F SWAP1 SWAP3 ADD PUSH32 0xFFFFFFFFFFFFFFFFFFFFFFFFFFFFFFFFFFFFFFFFFFFFFFFFFFFFFFFFFFFFFFE0 AND ADD ADD SWAP2 SWAP1 POP JUMP JUMPDEST PUSH0 DUP1 PUSH0 DUP1 PUSH0 PUSH1 0x80 DUP7 DUP9 SUB SLT ISZERO PUSH2 0x2607 JUMPI PUSH0 DUP1 REVERT JUMPDEST DUP6 CALLDATALOAD PUSH2 0x2612 DUP2 PUSH2 0x2526 JUMP JUMPDEST SWAP5 POP PUSH1 0x20 DUP7 ADD CALLDATALOAD PUSH2 0x2622 DUP2 PUSH2 0x2526 JUMP JUMPDEST SWAP4 POP PUSH1 0x40 DUP7 ADD CALLDATALOAD SWAP3 POP PUSH1 0x60 DUP7 ADD CALLDATALOAD PUSH8 0xFFFFFFFFFFFFFFFF DUP1 DUP3 GT ISZERO PUSH2 0x2645 JUMPI PUSH0 DUP1 REVERT JUMPDEST DUP2 DUP9 ADD SWAP2 POP DUP9 PUSH1 0x1F DUP4 ADD SLT PUSH2 0x2658 JUMPI PUSH0 DUP1 REVERT JUMPDEST DUP2 CALLDATALOAD DUP2 DUP2 GT ISZERO PUSH2 0x2666 JUMPI PUSH0 DUP1 REVERT JUMPDEST DUP10 PUSH1 0x20 DUP3 DUP6 ADD ADD GT ISZERO PUSH2 0x2677 JUMPI PUSH0 DUP1 REVERT JUMPDEST SWAP7 SWAP10 SWAP6 SWAP9 POP SWAP4 SWAP7 POP PUSH1 0x20 ADD SWAP5 SWAP4 SWAP3 POP POP POP JUMP JUMPDEST PUSH0 DUP1 DUP4 PUSH1 0x1F DUP5 ADD SLT PUSH2 0x269A JUMPI PUSH0 DUP1 REVERT JUMPDEST POP DUP2 CALLDATALOAD PUSH8 0xFFFFFFFFFFFFFFFF DUP2 GT ISZERO PUSH2 0x26B1 JUMPI PUSH0 DUP1 REVERT JUMPDEST PUSH1 0x20 DUP4 ADD SWAP2 POP DUP4 PUSH1 0x20 DUP3 PUSH1 0x5 SHL DUP6 ADD ADD GT ISZERO PUSH2 0x26CB JUMPI PUSH0 DUP1 REVERT JUMPDEST SWAP3 POP SWAP3 SWAP1 POP JUMP JUMPDEST PUSH0 DUP1 PUSH0 DUP1 PUSH0 DUP1 PUSH0 DUP1 PUSH1 0x80 DUP10 DUP12 SUB SLT ISZERO PUSH2 0x26E9 JUMPI PUSH0 DUP1 REVERT JUMPDEST DUP9 CALLDATALOAD PUSH8 0xFFFFFFFFFFFFFFFF DUP1 DUP3 GT ISZERO PUSH2 0x2700 JUMPI PUSH0 DUP1 REVERT JUMPDEST PUSH2 0x270C DUP13 DUP4 DUP14 ADD PUSH2 0x268A JUMP JUMPDEST SWAP1 SWAP11 POP SWAP9 POP PUSH1 0x20 DUP12 ADD CALLDATALOAD SWAP2 POP DUP1 DUP3 GT ISZERO PUSH2 0x2724 JUMPI PUSH0 DUP1 REVERT JUMPDEST PUSH2 0x2730 DUP13 DUP4 DUP14 ADD PUSH2 0x268A JUMP JUMPDEST SWAP1 SWAP9 POP SWAP7 POP PUSH1 0x40 DUP12 ADD CALLDATALOAD SWAP2 POP DUP1 DUP3 GT ISZERO PUSH2 0x2748 JUMPI PUSH0 DUP1 REVERT JUMPDEST PUSH2 0x2754 DUP13 DUP4 DUP14 ADD PUSH2 0x268A JUMP JUMPDEST SWAP1 SWAP7 POP SWAP5 POP PUSH1 0x60 DUP12 ADD CALLDATALOAD SWAP2 POP DUP1 DUP3 GT ISZERO PUSH2 0x276C JUMPI PUSH0 DUP1 REVERT JUMPDEST POP PUSH2 0x2779 DUP12 DUP3 DUP13 ADD PUSH2 0x268A JUMP JUMPDEST SWAP10 SWAP13 SWAP9 SWAP12 POP SWAP7 SWAP10 POP SWAP5 SWAP8 SWAP4 SWAP7 SWAP3 SWAP6 SWAP5 POP POP POP JUMP JUMPDEST PUSH0 DUP1 PUSH0 DUP1 PUSH0 DUP1 PUSH1 0x60 DUP8 DUP10 SUB SLT ISZERO PUSH2 0x27A2 JUMPI PUSH0 DUP1 REVERT JUMPDEST DUP7 CALLDATALOAD PUSH8 0xFFFFFFFFFFFFFFFF DUP1 DUP3 GT ISZERO PUSH2 0x27B9 JUMPI PUSH0 DUP1 REVERT JUMPDEST PUSH2 0x27C5 DUP11 DUP4 DUP12 ADD PUSH2 0x268A JUMP JUMPDEST SWAP1 SWAP9 POP SWAP7 POP PUSH1 0x20 DUP10 ADD CALLDATALOAD SWAP2 POP DUP1 DUP3 GT ISZERO PUSH2 0x27DD JUMPI PUSH0 DUP1 REVERT JUMPDEST PUSH2 0x27E9 DUP11 DUP4 DUP12 ADD PUSH2 0x268A JUMP JUMPDEST SWAP1 SWAP7 POP SWAP5 POP PUSH1 0x40 DUP10 ADD CALLDATALOAD SWAP2 POP DUP1 DUP3 GT ISZERO PUSH2 0x2801 JUMPI PUSH0 DUP1 REVERT JUMPDEST POP PUSH2 0x280E DUP10 DUP3 DUP11 ADD PUSH2 0x268A JUMP JUMPDEST SWAP8 SWAP11 SWAP7 SWAP10 POP SWAP5 SWAP8 POP SWAP3 SWAP6 SWAP4 SWAP5 SWAP3 POP POP POP JUMP JUMPDEST PUSH0 DUP1 PUSH1 0x40 DUP4 DUP6 SUB SLT ISZERO PUSH2 0x2831 JUMPI PUSH0 DUP1 REVERT JUMPDEST DUP3 CALLDATALOAD PUSH2 0x283C DUP2 PUSH2 0x2526 JUMP JUMPDEST SWAP5 PUSH1 0x20 SWAP4 SWAP1 SWAP4 ADD CALLDATALOAD SWAP4 POP POP POP JUMP JUMPDEST PUSH0 DUP1 PUSH0 DUP1 PUSH1 0x40 DUP6 DUP8 SUB SLT ISZERO PUSH2 0x285D JUMPI PUSH0 DUP1 REVERT JUMPDEST DUP5 CALLDATALOAD PUSH8 0xFFFFFFFFFFFFFFFF DUP1 DUP3 GT ISZERO PUSH2 0x2874 JUMPI PUSH0 DUP1 REVERT JUMPDEST PUSH2 0x2880 DUP9 DUP4 DUP10 ADD PUSH2 0x268A JUMP JUMPDEST SWAP1 SWAP7 POP SWAP5 POP PUSH1 0x20 DUP8 ADD CALLDATALOAD SWAP2 POP DUP1 DUP3 GT ISZERO PUSH2 0x2898 JUMPI PUSH0 DUP1 REVERT JUMPDEST POP PUSH2 0x28A5 DUP8 DUP3 DUP9 ADD PUSH2 0x268A JUMP JUMPDEST SWAP6 SWAP9 SWAP5 SWAP8 POP SWAP6 POP POP POP POP JUMP JUMPDEST DUP1 ISZERO ISZERO DUP2 EQ PUSH2 0xC64 JUMPI PUSH0 DUP1 REVERT JUMPDEST PUSH0 PUSH1 0x20 DUP3 DUP5 SUB SLT ISZERO PUSH2 0x28CE JUMPI PUSH0 DUP1 REVERT JUMPDEST DUP2 MLOAD PUSH2 0xED3 DUP2 PUSH2 0x28B1 JUMP JUMPDEST PUSH32 0x4E487B7100000000000000000000000000000000000000000000000000000000 PUSH0 MSTORE PUSH1 0x11 PUSH1 0x4 MSTORE PUSH1 0x24 PUSH0 REVERT JUMPDEST DUP2 DUP2 SUB DUP2 DUP2 GT ISZERO PUSH2 0x51D JUMPI PUSH2 0x51D PUSH2 0x28D9 JUMP JUMPDEST DUP1 DUP3 ADD DUP1 DUP3 GT ISZERO PUSH2 0x51D JUMPI PUSH2 0x51D PUSH2 0x28D9 JUMP JUMPDEST PUSH32 0x4E487B7100000000000000000000000000000000000000000000000000000000 PUSH0 MSTORE PUSH1 0x32 PUSH1 0x4 MSTORE PUSH1 0x24 PUSH0 REVERT JUMPDEST PUSH0 PUSH1 0x20 DUP3 DUP5 SUB SLT ISZERO PUSH2 0x2969 JUMPI PUSH0 DUP1 REVERT JUMPDEST DUP2 CALLDATALOAD PUSH2 0xED3 DUP2 PUSH2 0x28B1 JUMP JUMPDEST PUSH0 PUSH32 0xFFFFFFFFFFFFFFFFFFFFFFFFFFFFFFFFFFFFFFFFFFFFFFFFFFFFFFFFFFFFFFFF DUP3 SUB PUSH2 0x29A4 JUMPI PUSH2 0x29A4 PUSH2 0x28D9 JUMP JUMPDEST POP PUSH1 0x1 ADD SWAP1 JUMP JUMPDEST DUP2 DUP4 MSTORE PUSH0 PUSH32 0x7FFFFFFFFFFFFFFFFFFFFFFFFFFFFFFFFFFFFFFFFFFFFFFFFFFFFFFFFFFFFFF DUP4 GT ISZERO PUSH2 0x29DB JUMPI PUSH0 DUP1 REVERT JUMPDEST DUP3 PUSH1 0x5 SHL DUP1 DUP4 PUSH1 0x20 DUP8 ADD CALLDATACOPY SWAP4 SWAP1 SWAP4 ADD PUSH1 0x20 ADD SWAP4 SWAP3 POP POP POP JUMP JUMPDEST PUSH1 0x80 DUP1 DUP3 MSTORE DUP2 ADD DUP9 SWAP1 MSTORE PUSH0 DUP10 PUSH1 0xA0 DUP4 ADD DUP3 JUMPDEST DUP12 DUP2 LT ISZERO PUSH2 0x2A43 JUMPI DUP3 CALLDATALOAD PUSH2 0x2A19 DUP2 PUSH2 0x2526 JUMP JUMPDEST PUSH20 0xFFFFFFFFFFFFFFFFFFFFFFFFFFFFFFFFFFFFFFFF AND DUP3 MSTORE PUSH1 0x20 SWAP3 DUP4 ADD SWAP3 SWAP1 SWAP2 ADD SWAP1 PUSH1 0x1 ADD PUSH2 0x2A06 JUMP JUMPDEST POP PUSH1 0x20 SWAP2 POP DUP4 DUP2 SUB DUP3 DUP6 ADD MSTORE PUSH2 0x2A5A DUP2 DUP11 DUP13 PUSH2 0x29AB JUMP JUMPDEST SWAP1 POP DUP4 DUP2 SUB PUSH1 0x40 DUP6 ADD MSTORE PUSH2 0x2A6F DUP2 DUP9 DUP11 PUSH2 0x29AB JUMP JUMPDEST DUP5 DUP2 SUB PUSH1 0x60 DUP7 ADD MSTORE DUP6 DUP2 MSTORE DUP7 SWAP2 POP DUP3 ADD PUSH0 JUMPDEST DUP7 DUP2 LT ISZERO PUSH2 0x2AA8 JUMPI DUP3 CALLDATALOAD PUSH2 0x2A94 DUP2 PUSH2 0x28B1 JUMP JUMPDEST ISZERO ISZERO DUP3 MSTORE SWAP2 DUP4 ADD SWAP2 SWAP1 DUP4 ADD SWAP1 PUSH1 0x1 ADD PUSH2 0x2A81 JUMP JUMPDEST POP SWAP13 SWAP12 POP POP POP POP POP POP POP POP POP POP POP POP JUMP JUMPDEST PUSH0 PUSH1 0x20 DUP3 DUP5 SUB SLT ISZERO PUSH2 0x2AC9 JUMPI PUSH0 DUP1 REVERT JUMPDEST POP MLOAD SWAP2 SWAP1 POP JUMP JUMPDEST PUSH0 DUP1 DUP6 DUP6 GT ISZERO PUSH2 0x2ADE JUMPI PUSH0 DUP1 REVERT JUMPDEST DUP4 DUP7 GT ISZERO PUSH2 0x2AEA JUMPI PUSH0 DUP1 REVERT JUMPDEST POP POP DUP3 ADD SWAP4 SWAP2 SWAP1 SWAP3 SUB SWAP2 POP JUMP JUMPDEST PUSH0 JUMPDEST DUP4 DUP2 LT ISZERO PUSH2 0x2B11 JUMPI DUP2 DUP2 ADD MLOAD DUP4 DUP3 ADD MSTORE PUSH1 0x20 ADD PUSH2 0x2AF9 JUMP JUMPDEST POP POP PUSH0 SWAP2 ADD MSTORE JUMP JUMPDEST PUSH0 DUP3 MLOAD PUSH2 0x2B2A DUP2 DUP5 PUSH1 0x20 DUP8 ADD PUSH2 0x2AF7 JUMP JUMPDEST SWAP2 SWAP1 SWAP2 ADD SWAP3 SWAP2 POP POP JUMP JUMPDEST PUSH1 0x20 DUP2 MSTORE PUSH0 DUP3 MLOAD DUP1 PUSH1 0x20 DUP5 ADD MSTORE PUSH2 0x2B52 DUP2 PUSH1 0x40 DUP6 ADD PUSH1 0x20 DUP8 ADD PUSH2 0x2AF7 JUMP JUMPDEST PUSH1 0x1F ADD PUSH32 0xFFFFFFFFFFFFFFFFFFFFFFFFFFFFFFFFFFFFFFFFFFFFFFFFFFFFFFFFFFFFFFE0 AND SWAP2 SWAP1 SWAP2 ADD PUSH1 0x40 ADD SWAP3 SWAP2 POP POP JUMP INVALID LOG2 PUSH5 0x6970667358 0x22 SLT KECCAK256 EXP ISZERO ADDRESS 0x26 0xD6 ORIGIN SWAP15 SWAP4 KECCAK256 0xE8 PUSH26 0x81377A1FEBFCE47F160FACB235E19385EAFCB98CD864736F6C63 NUMBER STOP ADDMOD ISZERO STOP CALLER "},"gasEstimates":{"creation":{"codeDepositCost":"2238800","executionCost":"infinite","totalCost":"infinite"},"external":{"DEPOSIT_PHASE()":"239","EDU_TOKEN()":"infinite","INIT_PHASE()":"282","SALE_PHASE()":"285","SPENDER_ROLE()":"240","UNCLAIMED_EDU_HOLDER()":"infinite","WITHDRAW_PHASE()":"306","__msgData()":"infinite","currentPhase()":"2362","forwarderRegistry()":"infinite","grantRole(bytes32,address)":"infinite","hasRole(bytes32,address)":"infinite","isTrustedForwarder(address)":"infinite","onERC20Received(address,address,uint256,bytes)":"infinite","owner()":"infinite","payoutWallet()":"infinite","recoverERC20s(address[],address[],uint256[])":"infinite","recoverERC721s(address[],address[],uint256[])":"infinite","recoverETH(address[],uint256[])":"infinite","renounceRole(bytes32)":"infinite","revokeRole(bytes32,address)":"infinite","setInitialCredits(address[],uint256[],uint256[],bool[])":"infinite","setPayoutWallet(address)":"infinite","setPhase(uint256)":"infinite","spend(address,uint256)":"infinite","supportsInterface(bytes4)":"infinite","totalCredits()":"2383","totalDeposited()":"2404","transferOwnership(address)":"infinite","userCredits(address)":"8964","withdraw()":"infinite"}},"methodIdentifiers":{"DEPOSIT_PHASE()":"ad6b333b","EDU_TOKEN()":"5df2dcbc","INIT_PHASE()":"8de17b74","SALE_PHASE()":"148c2b5a","SPENDER_ROLE()":"72c16a24","UNCLAIMED_EDU_HOLDER()":"51887302","WITHDRAW_PHASE()":"8b785d49","__msgData()":"31e66e1e","currentPhase()":"055ad42e","forwarderRegistry()":"2b4c9f16","grantRole(bytes32,address)":"2f2ff15d","hasRole(bytes32,address)":"91d14854","isTrustedForwarder(address)":"572b6c05","onERC20Received(address,address,uint256,bytes)":"4fc35859","owner()":"8da5cb5b","payoutWallet()":"8488bb4e","recoverERC20s(address[],address[],uint256[])":"73c8a958","recoverERC721s(address[],address[],uint256[])":"c3666c36","recoverETH(address[],uint256[])":"f7ba94bd","renounceRole(bytes32)":"8bb9c5bf","revokeRole(bytes32,address)":"d547741f","setInitialCredits(address[],uint256[],uint256[],bool[])":"687f34e0","setPayoutWallet(address)":"6b8f9c43","setPhase(uint256)":"2cc82655","spend(address,uint256)":"af7d6ca3","supportsInterface(bytes4)":"01ffc9a7","totalCredits()":"b5bd3eb9","totalDeposited()":"ff50abdc","transferOwnership(address)":"f2fde38b","userCredits(address)":"20babb92","withdraw()":"3ccfd60b"}},"storageLayout":{"storage":[{"astId":4854,"contract":"contracts/mocks/payment/EDUCreditsManagerMock.sol:EDUCreditsManagerMock","label":"currentPhase","offset":0,"slot":"0","type":"t_uint256"},{"astId":4859,"contract":"contracts/mocks/payment/EDUCreditsManagerMock.sol:EDUCreditsManagerMock","label":"userCredits","offset":0,"slot":"1","type":"t_mapping(t_address,t_struct(UserCredits)4831_storage)"},{"astId":4862,"contract":"contracts/mocks/payment/EDUCreditsManagerMock.sol:EDUCreditsManagerMock","label":"totalCredits","offset":0,"slot":"2","type":"t_uint256"},{"astId":4865,"contract":"contracts/mocks/payment/EDUCreditsManagerMock.sol:EDUCreditsManagerMock","label":"totalDeposited","offset":0,"slot":"3","type":"t_uint256"}],"types":{"t_address":{"encoding":"inplace","label":"address","numberOfBytes":"20"},"t_bool":{"encoding":"inplace","label":"bool","numberOfBytes":"1"},"t_mapping(t_address,t_struct(UserCredits)4831_storage)":{"encoding":"mapping","key":"t_address","label":"mapping(address => struct EDUCreditsManager.UserCredits)","numberOfBytes":"32","value":"t_struct(UserCredits)4831_storage"},"t_struct(UserCredits)4831_storage":{"encoding":"inplace","label":"struct EDUCreditsManager.UserCredits","members":[{"astId":4824,"contract":"contracts/mocks/payment/EDUCreditsManagerMock.sol:EDUCreditsManagerMock","label":"unclaimed","offset":0,"slot":"0","type":"t_uint256"},{"astId":4826,"contract":"contracts/mocks/payment/EDUCreditsManagerMock.sol:EDUCreditsManagerMock","label":"bonus","offset":0,"slot":"1","type":"t_uint256"},{"astId":4828,"contract":"contracts/mocks/payment/EDUCreditsManagerMock.sol:EDUCreditsManagerMock","label":"deposited","offset":0,"slot":"2","type":"t_uint256"},{"astId":4830,"contract":"contracts/mocks/payment/EDUCreditsManagerMock.sol:EDUCreditsManagerMock","label":"diamondHand","offset":0,"slot":"3","type":"t_bool"}],"numberOfBytes":"128"},"t_uint256":{"encoding":"inplace","label":"uint256","numberOfBytes":"32"}}},"userdoc":{"errors":{"IllegalInterfaceId()":[{"notice":"Thrown when setting the illegal interfaceId 0xffffffff."}],"InconsistentArrayLengths()":[{"notice":"Thrown when the multiple related arrays have different lengths."}],"InsufficientCredits(address,address,uint256)":[{"notice":"Thrown when trying to spend more credits than the user has."}],"NotContractOwner(address)":[{"notice":"Thrown when an account is not the contract owner but is required to."}],"NotRoleHolder(bytes32,address)":[{"notice":"Thrown when an account does not have the required role."}],"OnlyDuringPhase(uint256,uint256)":[{"notice":"Thrown when an action is performed during the wrong phase."}],"SettingInvalidPhase(uint256)":[{"notice":"Thrown when the phase being set is invalid."}],"UnrecoverableEDU(uint256,uint256)":[{"notice":"Thrown when trying to recover more EDU tokens than accidentally sent to this contract."}],"UserCreditsAlreadySet(address)":[{"notice":"Thrown when setting the initial credits for a user whose credits have already been set."}],"ZeroAddressPayoutWallet()":[{"notice":"Thrown when setting the zero address as the payout wallet."}],"ZeroAddressUser()":[{"notice":"Thrown when setting the initial credits for a zero address user."}],"ZeroSpendAmount(address,address)":[{"notice":"Thrown when trying to spend zero credits."}],"ZeroValueUnclaimedCredits(address)":[{"notice":"Thrown when setting the initial credits for a user with zero unclaimed credits."}]},"events":{"CreditsSpent(address,address,uint256,uint256,uint256)":{"notice":"Emitted when credits are spent."},"InitialCreditsSet(address[],uint256[],uint256[],bool[])":{"notice":"Emitted when the initial credits are set."},"OwnershipTransferred(address,address)":{"notice":"Emitted when the contract ownership changes."},"PayoutWalletSet(address)":{"notice":"Emitted when the payout wallet address changes."},"PhaseSet(uint256)":{"notice":"Emitted when the current phase is set."},"RoleGranted(bytes32,address,address)":{"notice":"Emitted when `role` is granted to `account`."},"RoleRevoked(bytes32,address,address)":{"notice":"Emitted when `role` is revoked from `account`."}},"kind":"user","methods":{"grantRole(bytes32,address)":{"notice":"Grants a role to an account."},"hasRole(bytes32,address)":{"notice":"Retrieves whether an account has a role."},"isTrustedForwarder(address)":{"notice":"Checks whether a forwarder is trusted."},"onERC20Received(address,address,uint256,bytes)":{"notice":"Receives EDU tokens deposits from users during the deposit phase and adds them to the deposited amount."},"owner()":{"notice":"Gets the address of the contract owner."},"payoutWallet()":{"notice":"Gets the payout wallet."},"recoverERC20s(address[],address[],uint256[])":{"notice":"EDU tokens deposited to this contract through onERC20Received cannot be extracted via this function."},"recoverERC721s(address[],address[],uint256[])":{"notice":"Extract ERC721 tokens which were accidentally sent to the contract to a list of accounts."},"recoverETH(address[],uint256[])":{"notice":"Extract ETH tokens which were accidentally sent to the contract to a list of accounts."},"renounceRole(bytes32)":{"notice":"Renounces a role by the sender."},"revokeRole(bytes32,address)":{"notice":"Revokes a role from an account."},"setInitialCredits(address[],uint256[],uint256[],bool[])":{"notice":"Sets the unclaimed and bonus EDU credits for a list of users."},"setPayoutWallet(address)":{"notice":"Sets the payout wallet."},"setPhase(uint256)":{"notice":"Sets the current phase."},"spend(address,uint256)":{"notice":"Spends EDU tokens from the user's balance by a spender account.The credits are used in this order of priority: 1. bonus 2. unclaimed 3. deposited."},"supportsInterface(bytes4)":{"notice":"Returns whether this contract implements a given interface."},"totalCredits()":{"notice":"The total credits is the sum of all unclaimed, bonus and deposited credits.The total credits does not decrease when credits are spent or withdrawn."},"totalDeposited()":{"notice":"The total deposited is the sum of all deposited credits.The total deposited decreases when unclaimed credits are spent or withdrawn."},"transferOwnership(address)":{"notice":"Sets the address of the new contract owner."},"withdraw()":{"notice":"Withdraws all the remaining unclaimed and deposited EDU credits."}},"version":1}}}}