{"contracts/payment/EDUCreditsManager.sol":{"EDUCreditsManager":{"abi":[{"inputs":[{"internalType":"contract IERC20","name":"eduToken","type":"address"},{"internalType":"address payable","name":"payoutWallet","type":"address"},{"internalType":"address","name":"unclaimedEDUHolder","type":"address"},{"internalType":"contract IForwarderRegistry","name":"forwarderRegistry","type":"address"}],"stateMutability":"nonpayable","type":"constructor"},{"inputs":[],"name":"IllegalInterfaceId","type":"error"},{"inputs":[],"name":"InconsistentArrayLengths","type":"error"},{"inputs":[{"internalType":"address","name":"spender","type":"address"},{"internalType":"address","name":"user","type":"address"},{"internalType":"uint256","name":"amount","type":"uint256"}],"name":"InsufficientCredits","type":"error"},{"inputs":[{"internalType":"address","name":"account","type":"address"}],"name":"NotContractOwner","type":"error"},{"inputs":[{"internalType":"bytes32","name":"role","type":"bytes32"},{"internalType":"address","name":"account","type":"address"}],"name":"NotRoleHolder","type":"error"},{"inputs":[{"internalType":"uint256","name":"expectedPhase","type":"uint256"},{"internalType":"uint256","name":"actualPhase","type":"uint256"}],"name":"OnlyDuringPhase","type":"error"},{"inputs":[{"internalType":"uint256","name":"phase","type":"uint256"}],"name":"SettingInvalidPhase","type":"error"},{"inputs":[{"internalType":"uint256","name":"recoverable","type":"uint256"},{"internalType":"uint256","name":"recovering","type":"uint256"}],"name":"UnrecoverableEDU","type":"error"},{"inputs":[{"internalType":"address","name":"user","type":"address"}],"name":"UserCreditsAlreadySet","type":"error"},{"inputs":[],"name":"ZeroAddressPayoutWallet","type":"error"},{"inputs":[],"name":"ZeroAddressUser","type":"error"},{"inputs":[{"internalType":"address","name":"spender","type":"address"},{"internalType":"address","name":"user","type":"address"}],"name":"ZeroSpendAmount","type":"error"},{"inputs":[{"internalType":"address","name":"user","type":"address"}],"name":"ZeroValueUnclaimedCredits","type":"error"},{"anonymous":false,"inputs":[{"indexed":false,"internalType":"address","name":"spender","type":"address"},{"indexed":false,"internalType":"address","name":"user","type":"address"},{"indexed":false,"internalType":"uint256","name":"bonusSpent","type":"uint256"},{"indexed":false,"internalType":"uint256","name":"unclaimedSpent","type":"uint256"},{"indexed":false,"internalType":"uint256","name":"depositedSpent","type":"uint256"}],"name":"CreditsSpent","type":"event"},{"anonymous":false,"inputs":[{"indexed":false,"internalType":"address[]","name":"users","type":"address[]"},{"indexed":false,"internalType":"uint256[]","name":"unclaimed","type":"uint256[]"},{"indexed":false,"internalType":"uint256[]","name":"bonus","type":"uint256[]"},{"indexed":false,"internalType":"bool[]","name":"diamondHands","type":"bool[]"}],"name":"InitialCreditsSet","type":"event"},{"anonymous":false,"inputs":[{"indexed":true,"internalType":"address","name":"previousOwner","type":"address"},{"indexed":true,"internalType":"address","name":"newOwner","type":"address"}],"name":"OwnershipTransferred","type":"event"},{"anonymous":false,"inputs":[{"indexed":false,"internalType":"address","name":"payoutWallet","type":"address"}],"name":"PayoutWalletSet","type":"event"},{"anonymous":false,"inputs":[{"indexed":false,"internalType":"uint256","name":"phase","type":"uint256"}],"name":"PhaseSet","type":"event"},{"anonymous":false,"inputs":[{"indexed":false,"internalType":"bytes32","name":"role","type":"bytes32"},{"indexed":false,"internalType":"address","name":"account","type":"address"},{"indexed":false,"internalType":"address","name":"operator","type":"address"}],"name":"RoleGranted","type":"event"},{"anonymous":false,"inputs":[{"indexed":false,"internalType":"bytes32","name":"role","type":"bytes32"},{"indexed":false,"internalType":"address","name":"account","type":"address"},{"indexed":false,"internalType":"address","name":"operator","type":"address"}],"name":"RoleRevoked","type":"event"},{"inputs":[],"name":"DEPOSIT_PHASE","outputs":[{"internalType":"uint256","name":"","type":"uint256"}],"stateMutability":"view","type":"function"},{"inputs":[],"name":"EDU_TOKEN","outputs":[{"internalType":"contract IERC20","name":"","type":"address"}],"stateMutability":"view","type":"function"},{"inputs":[],"name":"INIT_PHASE","outputs":[{"internalType":"uint256","name":"","type":"uint256"}],"stateMutability":"view","type":"function"},{"inputs":[],"name":"SALE_PHASE","outputs":[{"internalType":"uint256","name":"","type":"uint256"}],"stateMutability":"view","type":"function"},{"inputs":[],"name":"SPENDER_ROLE","outputs":[{"internalType":"bytes32","name":"","type":"bytes32"}],"stateMutability":"view","type":"function"},{"inputs":[],"name":"UNCLAIMED_EDU_HOLDER","outputs":[{"internalType":"address","name":"","type":"address"}],"stateMutability":"view","type":"function"},{"inputs":[],"name":"WITHDRAW_PHASE","outputs":[{"internalType":"uint256","name":"","type":"uint256"}],"stateMutability":"view","type":"function"},{"inputs":[],"name":"currentPhase","outputs":[{"internalType":"uint256","name":"","type":"uint256"}],"stateMutability":"view","type":"function"},{"inputs":[],"name":"forwarderRegistry","outputs":[{"internalType":"contract IForwarderRegistry","name":"","type":"address"}],"stateMutability":"view","type":"function"},{"inputs":[{"internalType":"bytes32","name":"role","type":"bytes32"},{"internalType":"address","name":"account","type":"address"}],"name":"grantRole","outputs":[],"stateMutability":"nonpayable","type":"function"},{"inputs":[{"internalType":"bytes32","name":"role","type":"bytes32"},{"internalType":"address","name":"account","type":"address"}],"name":"hasRole","outputs":[{"internalType":"bool","name":"hasRole_","type":"bool"}],"stateMutability":"view","type":"function"},{"inputs":[{"internalType":"address","name":"forwarder","type":"address"}],"name":"isTrustedForwarder","outputs":[{"internalType":"bool","name":"","type":"bool"}],"stateMutability":"view","type":"function"},{"inputs":[{"internalType":"address","name":"","type":"address"},{"internalType":"address","name":"from","type":"address"},{"internalType":"uint256","name":"value","type":"uint256"},{"internalType":"bytes","name":"","type":"bytes"}],"name":"onERC20Received","outputs":[{"internalType":"bytes4","name":"magicValue","type":"bytes4"}],"stateMutability":"nonpayable","type":"function"},{"inputs":[],"name":"owner","outputs":[{"internalType":"address","name":"","type":"address"}],"stateMutability":"view","type":"function"},{"inputs":[],"name":"payoutWallet","outputs":[{"internalType":"address payable","name":"wallet","type":"address"}],"stateMutability":"view","type":"function"},{"inputs":[{"internalType":"address[]","name":"accounts","type":"address[]"},{"internalType":"contract IERC20[]","name":"tokens","type":"address[]"},{"internalType":"uint256[]","name":"amounts","type":"uint256[]"}],"name":"recoverERC20s","outputs":[],"stateMutability":"nonpayable","type":"function"},{"inputs":[{"internalType":"address[]","name":"accounts","type":"address[]"},{"internalType":"contract IERC721[]","name":"contracts","type":"address[]"},{"internalType":"uint256[]","name":"tokenIds","type":"uint256[]"}],"name":"recoverERC721s","outputs":[],"stateMutability":"nonpayable","type":"function"},{"inputs":[{"internalType":"address payable[]","name":"accounts","type":"address[]"},{"internalType":"uint256[]","name":"amounts","type":"uint256[]"}],"name":"recoverETH","outputs":[],"stateMutability":"nonpayable","type":"function"},{"inputs":[{"internalType":"bytes32","name":"role","type":"bytes32"}],"name":"renounceRole","outputs":[],"stateMutability":"nonpayable","type":"function"},{"inputs":[{"internalType":"bytes32","name":"role","type":"bytes32"},{"internalType":"address","name":"account","type":"address"}],"name":"revokeRole","outputs":[],"stateMutability":"nonpayable","type":"function"},{"inputs":[{"internalType":"address[]","name":"users","type":"address[]"},{"internalType":"uint256[]","name":"unclaimedCredits","type":"uint256[]"},{"internalType":"uint256[]","name":"bonusCredits","type":"uint256[]"},{"internalType":"bool[]","name":"diamondHands","type":"bool[]"}],"name":"setInitialCredits","outputs":[],"stateMutability":"nonpayable","type":"function"},{"inputs":[{"internalType":"address payable","name":"newPayoutWallet","type":"address"}],"name":"setPayoutWallet","outputs":[],"stateMutability":"nonpayable","type":"function"},{"inputs":[{"internalType":"uint256","name":"phase","type":"uint256"}],"name":"setPhase","outputs":[],"stateMutability":"nonpayable","type":"function"},{"inputs":[{"internalType":"address","name":"user","type":"address"},{"internalType":"uint256","name":"amount","type":"uint256"}],"name":"spend","outputs":[],"stateMutability":"nonpayable","type":"function"},{"inputs":[{"internalType":"bytes4","name":"interfaceId","type":"bytes4"}],"name":"supportsInterface","outputs":[{"internalType":"bool","name":"","type":"bool"}],"stateMutability":"view","type":"function"},{"inputs":[],"name":"totalCredits","outputs":[{"internalType":"uint256","name":"","type":"uint256"}],"stateMutability":"view","type":"function"},{"inputs":[],"name":"totalDeposited","outputs":[{"internalType":"uint256","name":"","type":"uint256"}],"stateMutability":"view","type":"function"},{"inputs":[{"internalType":"address","name":"newOwner","type":"address"}],"name":"transferOwnership","outputs":[],"stateMutability":"nonpayable","type":"function"},{"inputs":[{"internalType":"address","name":"","type":"address"}],"name":"userCredits","outputs":[{"internalType":"uint256","name":"unclaimed","type":"uint256"},{"internalType":"uint256","name":"bonus","type":"uint256"},{"internalType":"uint256","name":"deposited","type":"uint256"},{"internalType":"bool","name":"diamondHand","type":"bool"}],"stateMutability":"view","type":"function"},{"inputs":[],"name":"withdraw","outputs":[],"stateMutability":"nonpayable","type":"function"}],"devdoc":{"errors":{"InsufficientCredits(address,address,uint256)":[{"params":{"amount":"the amount of credits to spend.","spender":"the spender of the credits.","user":"the user whose credits are spent."}}],"NotContractOwner(address)":[{"params":{"account":"The account that was checked."}}],"NotRoleHolder(bytes32,address)":[{"params":{"account":"The account that was checked.","role":"The role the caller is missing."}}],"OnlyDuringPhase(uint256,uint256)":[{"params":{"actualPhase":"the actual phase.","expectedPhase":"the expected phase."}}],"SettingInvalidPhase(uint256)":[{"params":{"phase":"the invalid phase."}}],"UserCreditsAlreadySet(address)":[{"params":{"user":"the user whose credits are set."}}],"ZeroSpendAmount(address,address)":[{"params":{"spender":"the spender of the credits.","user":"the user whose credits are spent."}}],"ZeroValueUnclaimedCredits(address)":[{"params":{"user":"the user whose credits are set."}}]},"events":{"CreditsSpent(address,address,uint256,uint256,uint256)":{"params":{"bonusSpent":"the amount of bonus credits spent.","depositedSpent":"the amount of deposited credits spent.","spender":"the spender of the credits.","unclaimedSpent":"the amount of unclaimed credits spent.","user":"the user whose credits are spent."}},"InitialCreditsSet(address[],uint256[],uint256[],bool[])":{"params":{"bonus":"the bonus EDU credits.","diamondHands":"whether the users are a diamond hand.","unclaimed":"the unclaimed EDU credits.","users":"the users whose credits are set."}},"OwnershipTransferred(address,address)":{"params":{"newOwner":"the new contract owner.","previousOwner":"the previous contract owner."}},"PayoutWalletSet(address)":{"params":{"payoutWallet":"the new payout wallet address."}},"PhaseSet(uint256)":{"params":{"phase":"the phase set."}},"RoleGranted(bytes32,address,address)":{"params":{"account":"The account that has been granted the role.","operator":"The account that granted the role.","role":"The role that has been granted."}},"RoleRevoked(bytes32,address,address)":{"params":{"account":"The account that has been revoked the role.","operator":"The account that revoked the role.","role":"The role that has been revoked."}}},"kind":"dev","methods":{"constructor":{"details":"Emits a {PhaseSet} to INIT_PHASE event."},"grantRole(bytes32,address)":{"details":"Reverts with {NotContractOwner} if the sender is not the contract owner.Emits a {RoleGranted} event if the account did not previously have the role.","params":{"account":"The account to grant the role to.","role":"The role to grant."}},"hasRole(bytes32,address)":{"params":{"account":"The account.","role":"The role."},"returns":{"hasRole_":"Whether `account` has `role`."}},"isTrustedForwarder(address)":{"params":{"forwarder":"The forwarder to check."},"returns":{"_0":"True if `forwarder` is trusted, false if not."}},"onERC20Received(address,address,uint256,bytes)":{"details":"Reverts with {OnlyDuringPhase} if the current phase is not the deposit phase.","params":{"data":"Optional additional data with no specified format.","from":"The previous tokens owner.","operator":"The initiator of the safe transfer.","value":"The amount of tokens transferred."},"returns":{"magicValue":"`bytes4(keccak256(\"onERC20Received(address,address,uint256,bytes)\"))` (`0x4fc35859`) to accept, any other value to refuse."}},"owner()":{"returns":{"_0":"The address of the contract owner."}},"payoutWallet()":{"returns":{"wallet":"The payout wallet."}},"recoverERC20s(address[],address[],uint256[])":{"details":"Reverts with {UnrecoverableEDU} if trying to extract EDU in larger quantities than accidentally sent to this contract.","params":{"accounts":"the list of accounts to transfer the tokens to.","amounts":"the list of token amounts to transfer.","tokens":"the list of ERC20 token addresses."}},"recoverERC721s(address[],address[],uint256[])":{"details":"Warning: this function should be overriden for contracts which are supposed to hold ERC721 tokens  so that the extraction is limited to only tokens sent accidentally.Reverts with {NotContractOwner} if the sender is not the contract owner.Reverts with {InconsistentArrayLengths} if `accounts`, `contracts` and `amounts` do not have the same length.Reverts if one of the ERC721 transfers fails for any reason.","params":{"accounts":"the list of accounts to transfer the tokens to.","contracts":"the list of ERC721 contract addresses.","tokenIds":"the list of token ids to transfer."}},"recoverETH(address[],uint256[])":{"details":"Note: While contracts can generally prevent accidental ETH transfer by implementating a reverting  `receive()` function, this can still be bypassed in a `selfdestruct(address)` scenario.Warning: this function should be overriden for contracts which are supposed to hold ETH tokens  so that the extraction is limited to only amounts sent accidentally.Reverts with {NotContractOwner} if the sender is not the contract owner.Reverts with {InconsistentArrayLengths} `accounts` and `amounts` do not have the same length.Reverts if one of the ETH transfers fails for any reason.","params":{"accounts":"the list of accounts to transfer the tokens to.","amounts":"the list of token amounts to transfer."}},"renounceRole(bytes32)":{"details":"Reverts if `sender` does not have `role`.Emits a {RoleRevoked} event.","params":{"role":"The role to renounce."}},"revokeRole(bytes32,address)":{"details":"Reverts with {NotContractOwner} if the sender is not the contract owner.Emits a {RoleRevoked} event if the account previously had the role.","params":{"account":"The account to revoke the role from.","role":"The role to revoke."}},"setInitialCredits(address[],uint256[],uint256[],bool[])":{"details":"Reverts with {InconsistentArrayLengths} if `users`, `unclaimed` and `bonus` have different lengths.Reverts with {OnlyDuringPhase} if the current phase is not the init phase.Reverts with {NotContractOwner} if the sender is not the contract owner.Reverts with {ZeroAddressUser} if one of `users` is the zero address.Reverts with {UserCreditsAlreadySet} if one of `users` credits have already been set.Emits a {InitialCreditsSet} event.","params":{"bonusCredits":"the bonus EDU credits.","diamondHands":"whether the users are a diamond hand.","unclaimedCredits":"the unclaimed EDU credits.","users":"the users whose credits are set."}},"setPayoutWallet(address)":{"details":"Reverts with {NotContractOwner} if the sender is not the contract owner.Reverts with {ZeroAddressPayoutWallet} if `newPayoutWallet` is the zero address.Emits a {PayoutWalletSet} event.","params":{"newPayoutWallet":"The payout wallet."}},"setPhase(uint256)":{"details":"Reverts with {SettingInvalidPhase} if `phase` is greater than `WITHDRAW_PHASE`.Reverts with {NotContractOwner} if the sender is not the contract owner.Emits a {PhaseSet} event.","params":{"phase":"the phase to set."}},"spend(address,uint256)":{"details":"Reverts with {ZeroSpendAmount} if `amount` is zero.Reverts with {OnlyDuringPhase} if the current phase is not the sale phase.Reverts with {NotRoleHolder} if the sender is not a spender.Reverts with {InsufficientEDU} if the user's total unclaimed+bonus+deposited credits is insufficient.Emits a {EDUSpent} event.","params":{"amount":"the amount of EDU tokens to spend.","user":"the user whose EDU tokens are spent."}},"supportsInterface(bytes4)":{"details":"Note: This function call must use less than 30 000 gas.","params":{"interfaceId":"the interface identifier to test."},"returns":{"_0":"True if the interface is supported, false if `interfaceId` is `0xffffffff` or if the interface is not supported."}},"transferOwnership(address)":{"details":"Reverts if the sender is not the contract owner.Emits an {OwnershipTransferred} event if `newOwner` is different from the current contract owner.","params":{"newOwner":"The address of the new contract owner. Using the zero address means renouncing ownership."}},"withdraw()":{"details":"Reverts with {OnlyDuringPhase} if the current phase is not the withdraw phase."}},"title":"DepositManager","version":1},"evm":{"bytecode":{"linkReferences":{},"object":"60e06040525f805534801562000013575f80fd5b5060405162002d1e38038062002d1e8339810160408190526200003691620002de565b80808433620000508162000049620000df565b9062000114565b5062000067816200006062000186565b90620001b5565b5062000088634fc3585960e01b600162000080620001c1565b9190620001f0565b6001600160a01b0390811660805285811660a052831660c052506040515f81527f63dd78a2037d9ff47ab1e6cf980c9d036bb47de0b5812d2203bfa833f35e0a189060200160405180910390a15050505062000363565b5f806200010e60017fc9ed16f33ab3a66c84bfd83099ccb2a8845871e2e1c1928f63797152f0fd54cd62000343565b92915050565b6001600160a01b038116156200016a5781546001600160a01b0319166001600160a01b03821690811783556040515f907f8be0079c531659141344cd1fd0a4f28419497f9722a3daafe3b4186f6b6457e0908290a35b620001826307f5828d60e41b600162000080620001c1565b5050565b5f806200010e60017f4fb5f8cdfbce77f22b0931a39e9f476a60a0f66524b2f379e96485471eb700ae62000343565b6200018282826200024c565b5f806200010e60017fca9d3e17f264b0f3984e2634e94adb37fa3e6a8103f06aeae6fa59e21c769f5e62000343565b600160e01b6001600160e01b03198316016200021f576040516372c683bb60e01b815260040160405180910390fd5b6001600160e01b0319919091165f9081526020929092526040909120805460ff1916911515919091179055565b6001600160a01b03811662000274576040516340b539cf60e01b815260040160405180910390fd5b81546001600160a01b0319166001600160a01b03821690811783556040519081527fdd880d24a789958a6398c99c2e54ce31bc10a638cbc42f7dd34285479ae0f8559060200160405180910390a15050565b6001600160a01b0381168114620002db575f80fd5b50565b5f805f8060808587031215620002f2575f80fd5b8451620002ff81620002c6565b60208601519094506200031281620002c6565b60408601519093506200032581620002c6565b60608601519092506200033881620002c6565b939692955090935050565b818103818111156200010e57634e487b7160e01b5f52601160045260245ffd5b60805160a05160c051612951620003cd5f395f8181610335015261069a01525f81816103a9015281816106d1015281816107b301528181610c7d01528181610cff01526111b301525f81816102770152818161036701528181611e700152611ef801526129515ff3fe608060405234801561000f575f80fd5b50600436106101d1575f3560e01c806373c8a958116100fe578063ad6b333b1161009e578063d547741f1161006e578063d547741f146104a7578063f2fde38b146104ba578063f7ba94bd146104cd578063ff50abdc146104e0575f80fd5b8063ad6b333b14610470578063af7d6ca314610478578063b5bd3eb91461048b578063c3666c3614610494575f80fd5b80638bb9c5bf116100d95780638bb9c5bf1461043b5780638da5cb5b1461044e5780638de17b741461045657806391d148541461045d575f80fd5b806373c8a958146104185780638488bb4e1461042b5780638b785d4914610433575f80fd5b80633ccfd60b116101745780635df2dcbc116101445780635df2dcbc146103a4578063687f34e0146103cb5780636b8f9c43146103de57806372c16a24146103f1575f80fd5b80633ccfd60b146102e45780634fc35859146102ec5780635188730214610330578063572b6c0514610357575f80fd5b806320babb92116101af57806320babb921461021b5780632b4c9f16146102755780632cc82655146102bc5780632f2ff15d146102d1575f80fd5b806301ffc9a7146101d5578063055ad42e146101fd578063148c2b5a14610213575b5f80fd5b6101e86101e33660046122f1565b6104e9565b60405190151581526020015b60405180910390f35b6102055f5481565b6040519081526020016101f4565b610205600281565b610253610229366004612351565b600160208190525f9182526040909120805491810154600282015460039092015490919060ff1684565b60408051948552602085019390935291830152151560608201526080016101f4565b7f00000000000000000000000000000000000000000000000000000000000000005b60405173ffffffffffffffffffffffffffffffffffffffff90911681526020016101f4565b6102cf6102ca36600461236c565b610502565b005b6102cf6102df366004612383565b610599565b6102cf6105cb565b6102ff6102fa3660046123b1565b610825565b6040517fffffffff0000000000000000000000000000000000000000000000000000000090911681526020016101f4565b6102977f000000000000000000000000000000000000000000000000000000000000000081565b6101e8610365366004612351565b7f000000000000000000000000000000000000000000000000000000000000000073ffffffffffffffffffffffffffffffffffffffff90811691161490565b6102977f000000000000000000000000000000000000000000000000000000000000000081565b6102cf6103d9366004612490565b610908565b6102cf6103ec366004612351565b610c14565b6102057f7370656e6465720000000000000000000000000000000000000000000000000081565b6102cf61042636600461254b565b610c34565b610297610e0c565b610205600381565b6102cf61044936600461236c565b610e37565b610297610e52565b6102055f81565b6101e861046b366004612383565b610e5e565b610205600181565b6102cf6104863660046125de565b610ea7565b61020560025481565b6102cf6104a236600461254b565b6112da565b6102cf6104b5366004612383565b61144b565b6102cf6104c8366004612351565b611478565b6102cf6104db366004612608565b611493565b61020560035481565b5f6104fc826104f6611550565b9061157d565b92915050565b61051b61050d611654565b61051561165d565b9061168a565b600381111561055e576040517f96666719000000000000000000000000000000000000000000000000000000008152600481018290526024015b60405180910390fd5b5f819055604051600181527f63dd78a2037d9ff47ab1e6cf980c9d036bb47de0b5812d2203bfa833f35e0a189060200160405180910390a150565b5f6105a2611654565b90506105b08161051561165d565b6105c68383836105be6116f9565b929190611726565b505050565b60035f5414610613575f546040517f7c9bb663000000000000000000000000000000000000000000000000000000008152600360048201526024810191909152604401610555565b5f61061c611654565b90505f60015f61062a611654565b73ffffffffffffffffffffffffffffffffffffffff16815260208101919091526040015f208054909150801561073d575f82556040517f23b872dd00000000000000000000000000000000000000000000000000000000815273ffffffffffffffffffffffffffffffffffffffff7f0000000000000000000000000000000000000000000000000000000000000000811660048301528481166024830152604482018390527f000000000000000000000000000000000000000000000000000000000000000016906323b872dd906064016020604051808303815f875af1158015610717573d5f803e3d5ffd5b505050506040513d601f19601f8201168201806040525081019061073b919061267c565b505b6002820154801561081f575f83600201819055508060035f82825461076291906126c4565b90915550506040517fa9059cbb00000000000000000000000000000000000000000000000000000000815273ffffffffffffffffffffffffffffffffffffffff8581166004830152602482018390527f0000000000000000000000000000000000000000000000000000000000000000169063a9059cbb906044016020604051808303815f875af11580156107f9573d5f803e3d5ffd5b505050506040513d601f19601f8201168201806040525081019061081d919061267c565b505b50505050565b5f60015f541461086e575f546040517f7c9bb663000000000000000000000000000000000000000000000000000000008152600160048201526024810191909152604401610555565b73ffffffffffffffffffffffffffffffffffffffff85165f908152600160205260408120600281018054919287926108a79084906126d7565b925050819055508460035f8282546108bf91906126d7565b925050819055508460025f8282546108d791906126d7565b909155507f4fc358590000000000000000000000000000000000000000000000000000000098975050505050505050565b8685811415806109185750808414155b806109235750808214155b1561095a576040517f6582533600000000000000000000000000000000000000000000000000000000815260040160405180910390fd5b5f541561099f575f80546040517f7c9bb66300000000000000000000000000000000000000000000000000000000815260048101929092526024820152604401610555565b6109aa61050d611654565b5f5b818114610bc3575f8a8a838181106109c6576109c66126ea565b90506020020160208101906109db9190612351565b905073ffffffffffffffffffffffffffffffffffffffff8116610a2a576040517f9c89d57f00000000000000000000000000000000000000000000000000000000815260040160405180910390fd5b5f898984818110610a3d57610a3d6126ea565b905060200201359050805f03610a97576040517fd49c192700000000000000000000000000000000000000000000000000000000815273ffffffffffffffffffffffffffffffffffffffff83166004820152602401610555565b73ffffffffffffffffffffffffffffffffffffffff82165f908152600160205260409020805415610b0c576040517f6dbaa9b400000000000000000000000000000000000000000000000000000000815273ffffffffffffffffffffffffffffffffffffffff84166004820152602401610555565b5f898986818110610b1f57610b1f6126ea565b85855560200291909101356001840181905591508890508786818110610b4757610b476126ea565b9050602002016020810190610b5c9190612717565b6003830180547fffffffffffffffffffffffffffffffffffffffffffffffffffffffffffffff0016911515919091179055610b9781846126d7565b60025f828254610ba791906126d7565b925050819055505050505080610bbc90612732565b90506109ac565b507f44fbb8621bc7a734e344e0d7f6b84824cf97e0d8d611f9f8502e42ff0b1dee438989898989898989604051610c019897969594939291906127b2565b60405180910390a1505050505050505050565b610c1f61050d611654565b610c3181610c2b6117fa565b90611827565b50565b6003546040517f70a082310000000000000000000000000000000000000000000000000000000081523060048201525f919073ffffffffffffffffffffffffffffffffffffffff7f000000000000000000000000000000000000000000000000000000000000000016906370a0823190602401602060405180830381865afa158015610cc2573d5f803e3d5ffd5b505050506040513d601f19601f82011682018060405250810190610ce69190612877565b610cf091906126c4565b90505f805b85811015610daf577f000000000000000000000000000000000000000000000000000000000000000073ffffffffffffffffffffffffffffffffffffffff16878783818110610d4657610d466126ea565b9050602002016020810190610d5b9190612351565b73ffffffffffffffffffffffffffffffffffffffff1603610d9d57848482818110610d8857610d886126ea565b9050602002013582610d9a91906126d7565b91505b80610da781612732565b915050610cf5565b5081811115610df4576040517f7ce4d19d0000000000000000000000000000000000000000000000000000000081526004810183905260248101829052604401610555565b610e028888888888886118eb565b5050505050505050565b5f610e32610e186117fa565b5473ffffffffffffffffffffffffffffffffffffffff1690565b905090565b610c31610e42611654565b82610e4b6116f9565b91906119d5565b5f610e32610e1861165d565b5f610ea08383610e6c6116f9565b5f9283526020908152604080842073ffffffffffffffffffffffffffffffffffffffff909316845291905290205460ff1690565b9392505050565b5f610eb0611654565b9050815f03610f0b576040517f09bc7f2b00000000000000000000000000000000000000000000000000000000815273ffffffffffffffffffffffffffffffffffffffff808316600483015284166024820152604401610555565b60025f5414610f53575f546040517f7c9bb663000000000000000000000000000000000000000000000000000000008152600260048201526024810191909152604401610555565b610f877f7370656e6465720000000000000000000000000000000000000000000000000082610f806116f9565b9190611a78565b73ffffffffffffffffffffffffffffffffffffffff83165f908152600160208190526040822090810154909190801561105c578481106110465784836001015f828254610fd491906126c4565b90915550506040805173ffffffffffffffffffffffffffffffffffffffff8087168252881660208201529081018690525f6060820181905260808201527fc8832e1605166eecba94f0e3919e05a79787269b7b9f7e7b9766b187b44a7e899060a00160405180910390a1505050505050565b5f600184015561105681866126c4565b94508091505b82545f908015611106578681106110f35786855f015f82825461107f91906126c4565b90915550506040805173ffffffffffffffffffffffffffffffffffffffff80891682528a166020820152908101859052606081018890525f60808201527fc8832e1605166eecba94f0e3919e05a79787269b7b9f7e7b9766b187b44a7e899060a00160405180910390a15050505050505050565b5f855561110081886126c4565b96508091505b60028501548781101561116c576040517f1734392500000000000000000000000000000000000000000000000000000000815273ffffffffffffffffffffffffffffffffffffffff80891660048301528a16602482015260448101899052606401610555565b87866002015f82825461117f91906126c4565b925050819055508760035f82825461119791906126c4565b909155505073ffffffffffffffffffffffffffffffffffffffff7f00000000000000000000000000000000000000000000000000000000000000001663a9059cbb6111e3610e186117fa565b6040517fffffffff0000000000000000000000000000000000000000000000000000000060e084901b16815273ffffffffffffffffffffffffffffffffffffffff9091166004820152602481018b90526044016020604051808303815f875af1158015611252573d5f803e3d5ffd5b505050506040513d601f19601f82011682018060405250810190611276919061267c565b506040805173ffffffffffffffffffffffffffffffffffffffff808a1682528b16602082015290810186905260608101849052608081018990527fc8832e1605166eecba94f0e3919e05a79787269b7b9f7e7b9766b187b44a7e899060a001610c01565b6112e561050d611654565b8483811415806112f55750808214155b1561132c576040517f6582533600000000000000000000000000000000000000000000000000000000815260040160405180910390fd5b5f5b818114610e0257858582818110611347576113476126ea565b905060200201602081019061135c9190612351565b73ffffffffffffffffffffffffffffffffffffffff166323b872dd308a8a8581811061138a5761138a6126ea565b905060200201602081019061139f9190612351565b8787868181106113b1576113b16126ea565b6040517fffffffff0000000000000000000000000000000000000000000000000000000060e088901b16815273ffffffffffffffffffffffffffffffffffffffff9586166004820152949093166024850152506020909102013560448201526064015f604051808303815f87803b15801561142a575f80fd5b505af115801561143c573d5f803e3d5ffd5b5050505080600101905061132e565b5f611454611654565b90506114628161051561165d565b6105c68383836114706116f9565b929190611afd565b610c31611483611654565b8261148c61165d565b9190611bc5565b61149e61050d611654565b828181146114d8576040517f6582533600000000000000000000000000000000000000000000000000000000815260040160405180910390fd5b5f5b818114611548576115408484838181106114f6576114f66126ea565b9050602002013587878481811061150f5761150f6126ea565b90506020020160208101906115249190612351565b73ffffffffffffffffffffffffffffffffffffffff1690611cd8565b6001016114da565b505050505050565b5f806104fc60017fca9d3e17f264b0f3984e2634e94adb37fa3e6a8103f06aeae6fa59e21c769f5e6126c4565b5f7c01000000000000000000000000000000000000000000000000000000007fffffffff000000000000000000000000000000000000000000000000000000008316016115cb57505f6104fc565b7ffe003659000000000000000000000000000000000000000000000000000000007fffffffff0000000000000000000000000000000000000000000000000000000083160161161c575060016104fc565b507fffffffff00000000000000000000000000000000000000000000000000000000165f908152602091909152604090205460ff1690565b5f610e32611e2e565b5f806104fc60017fc9ed16f33ab3a66c84bfd83099ccb2a8845871e2e1c1928f63797152f0fd54cd6126c4565b815473ffffffffffffffffffffffffffffffffffffffff8281169116146116f5576040517f2ef4875e00000000000000000000000000000000000000000000000000000000815273ffffffffffffffffffffffffffffffffffffffff82166004820152602401610555565b5050565b5f806104fc60017fc8827d3282af6f37b64c3e9e6f3ac9df286ab0bb0fccd6f8661bf19adb368b236126c4565b5f8381526020858152604080832073ffffffffffffffffffffffffffffffffffffffff8616845290915290205460ff1661081f575f8381526020858152604080832073ffffffffffffffffffffffffffffffffffffffff8681168086529184529382902080547fffffffffffffffffffffffffffffffffffffffffffffffffffffffffffffff00166001179055815187815292830152918316918101919091527f2f8788117e7eff1d82e926ec794901d17c78024a50270940304540a733656f0d906060015b60405180910390a150505050565b5f806104fc60017f4fb5f8cdfbce77f22b0931a39e9f476a60a0f66524b2f379e96485471eb700ae6126c4565b73ffffffffffffffffffffffffffffffffffffffff8116611874576040517f40b539cf00000000000000000000000000000000000000000000000000000000815260040160405180910390fd5b81547fffffffffffffffffffffffff00000000000000000000000000000000000000001673ffffffffffffffffffffffffffffffffffffffff821690811783556040519081527fdd880d24a789958a6398c99c2e54ce31bc10a638cbc42f7dd34285479ae0f8559060200160405180910390a15050565b6118f661050d611654565b8483811415806119065750808214155b1561193d576040517f6582533600000000000000000000000000000000000000000000000000000000815260040160405180910390fd5b5f5b818114610e02576119cd88888381811061195b5761195b6126ea565b90506020020160208101906119709190612351565b858584818110611982576119826126ea565b9050602002013588888581811061199b5761199b6126ea565b90506020020160208101906119b09190612351565b73ffffffffffffffffffffffffffffffffffffffff169190611f72565b60010161193f565b6119e0838284611a78565b5f8181526020848152604080832073ffffffffffffffffffffffffffffffffffffffff86168085529083529281902080547fffffffffffffffffffffffffffffffffffffffffffffffffffffffffffffff0016905580518481529182018390528101919091527ff6391f5c32d9c69d2a47ea670b442974b53935d1edc7fd64eb21e047a839171b9060600160405180910390a1505050565b5f8281526020848152604080832073ffffffffffffffffffffffffffffffffffffffff8516845290915290205460ff166105c6576040517f7aa728820000000000000000000000000000000000000000000000000000000081526004810183905273ffffffffffffffffffffffffffffffffffffffff82166024820152604401610555565b5f8381526020858152604080832073ffffffffffffffffffffffffffffffffffffffff8616845290915290205460ff161561081f575f8381526020858152604080832073ffffffffffffffffffffffffffffffffffffffff8681168086529184529382902080547fffffffffffffffffffffffffffffffffffffffffffffffffffffffffffffff00169055815187815292830152918316918101919091527ff6391f5c32d9c69d2a47ea670b442974b53935d1edc7fd64eb21e047a839171b906060016117ec565b825473ffffffffffffffffffffffffffffffffffffffff9081169083168114611c32576040517f2ef4875e00000000000000000000000000000000000000000000000000000000815273ffffffffffffffffffffffffffffffffffffffff84166004820152602401610555565b8173ffffffffffffffffffffffffffffffffffffffff168173ffffffffffffffffffffffffffffffffffffffff161461081f5783547fffffffffffffffffffffffff00000000000000000000000000000000000000001673ffffffffffffffffffffffffffffffffffffffff8381169182178655604051908316907f8be0079c531659141344cd1fd0a4f28419497f9722a3daafe3b4186f6b6457e0905f90a350505050565b80471015611d42576040517f08c379a000000000000000000000000000000000000000000000000000000000815260206004820152601d60248201527f416464726573733a20696e73756666696369656e742062616c616e63650000006044820152606401610555565b5f8273ffffffffffffffffffffffffffffffffffffffff16826040515f6040518083038185875af1925050503d805f8114611d98576040519150601f19603f3d011682016040523d82523d5f602084013e611d9d565b606091505b50509050806105c6576040517f08c379a000000000000000000000000000000000000000000000000000000000815260206004820152603a60248201527f416464726573733a20756e61626c6520746f2073656e642076616c75652c207260448201527f6563697069656e74206d617920686176652072657665727465640000000000006064820152608401610555565b5f33321480611e3d5750601836105b15611e4757503390565b7fffffffffffffffffffffffffffffffffffffffffffffffffffffffffffffffec36013560601c7f000000000000000000000000000000000000000000000000000000000000000073ffffffffffffffffffffffffffffffffffffffff16331480611f6157506040517f8929a8ca00000000000000000000000000000000000000000000000000000000815273ffffffffffffffffffffffffffffffffffffffff82811660048301523360248301527f00000000000000000000000000000000000000000000000000000000000000001690638929a8ca90604401602060405180830381865afa158015611f3d573d5f803e3d5ffd5b505050506040513d601f19601f82011682018060405250810190611f61919061267c565b15611f6b57919050565b3391505090565b6040805173ffffffffffffffffffffffffffffffffffffffff848116602483015260448083018590528351808403909101815260649092018352602080830180517bffffffffffffffffffffffffffffffffffffffffffffffffffffffff167fa9059cbb0000000000000000000000000000000000000000000000000000000017905283518085019094528084527f5361666545524332303a206c6f772d6c6576656c2063616c6c206661696c6564908401526105c6928692915f9161203c9185169084906120e8565b905080515f148061205c57508080602001905181019061205c919061267c565b6105c6576040517f08c379a000000000000000000000000000000000000000000000000000000000815260206004820152602a60248201527f5361666545524332303a204552433230206f7065726174696f6e20646964206e60448201527f6f742073756363656564000000000000000000000000000000000000000000006064820152608401610555565b60606120f684845f856120fe565b949350505050565b606082471015612190576040517f08c379a000000000000000000000000000000000000000000000000000000000815260206004820152602660248201527f416464726573733a20696e73756666696369656e742062616c616e636520666f60448201527f722063616c6c00000000000000000000000000000000000000000000000000006064820152608401610555565b5f808673ffffffffffffffffffffffffffffffffffffffff1685876040516121b891906128b0565b5f6040518083038185875af1925050503d805f81146121f2576040519150601f19603f3d011682016040523d82523d5f602084013e6121f7565b606091505b509150915061220887838387612213565b979650505050505050565b606083156122a85782515f036122a15773ffffffffffffffffffffffffffffffffffffffff85163b6122a1576040517f08c379a000000000000000000000000000000000000000000000000000000000815260206004820152601d60248201527f416464726573733a2063616c6c20746f206e6f6e2d636f6e74726163740000006044820152606401610555565b50816120f6565b6120f683838151156122bd5781518083602001fd5b806040517f08c379a000000000000000000000000000000000000000000000000000000000815260040161055591906128cb565b5f60208284031215612301575f80fd5b81357fffffffff0000000000000000000000000000000000000000000000000000000081168114610ea0575f80fd5b73ffffffffffffffffffffffffffffffffffffffff81168114610c31575f80fd5b5f60208284031215612361575f80fd5b8135610ea081612330565b5f6020828403121561237c575f80fd5b5035919050565b5f8060408385031215612394575f80fd5b8235915060208301356123a681612330565b809150509250929050565b5f805f805f608086880312156123c5575f80fd5b85356123d081612330565b945060208601356123e081612330565b935060408601359250606086013567ffffffffffffffff80821115612403575f80fd5b818801915088601f830112612416575f80fd5b813581811115612424575f80fd5b896020828501011115612435575f80fd5b9699959850939650602001949392505050565b5f8083601f840112612458575f80fd5b50813567ffffffffffffffff81111561246f575f80fd5b6020830191508360208260051b8501011115612489575f80fd5b9250929050565b5f805f805f805f806080898b0312156124a7575f80fd5b883567ffffffffffffffff808211156124be575f80fd5b6124ca8c838d01612448565b909a50985060208b01359150808211156124e2575f80fd5b6124ee8c838d01612448565b909850965060408b0135915080821115612506575f80fd5b6125128c838d01612448565b909650945060608b013591508082111561252a575f80fd5b506125378b828c01612448565b999c989b5096995094979396929594505050565b5f805f805f8060608789031215612560575f80fd5b863567ffffffffffffffff80821115612577575f80fd5b6125838a838b01612448565b9098509650602089013591508082111561259b575f80fd5b6125a78a838b01612448565b909650945060408901359150808211156125bf575f80fd5b506125cc89828a01612448565b979a9699509497509295939492505050565b5f80604083850312156125ef575f80fd5b82356125fa81612330565b946020939093013593505050565b5f805f806040858703121561261b575f80fd5b843567ffffffffffffffff80821115612632575f80fd5b61263e88838901612448565b90965094506020870135915080821115612656575f80fd5b5061266387828801612448565b95989497509550505050565b8015158114610c31575f80fd5b5f6020828403121561268c575f80fd5b8151610ea08161266f565b7f4e487b71000000000000000000000000000000000000000000000000000000005f52601160045260245ffd5b818103818111156104fc576104fc612697565b808201808211156104fc576104fc612697565b7f4e487b71000000000000000000000000000000000000000000000000000000005f52603260045260245ffd5b5f60208284031215612727575f80fd5b8135610ea08161266f565b5f7fffffffffffffffffffffffffffffffffffffffffffffffffffffffffffffffff820361276257612762612697565b5060010190565b8183525f7f07ffffffffffffffffffffffffffffffffffffffffffffffffffffffffffffff831115612799575f80fd5b8260051b80836020870137939093016020019392505050565b608080825281018890525f8960a08301825b8b8110156128015782356127d781612330565b73ffffffffffffffffffffffffffffffffffffffff168252602092830192909101906001016127c4565b506020915083810382850152612818818a8c612769565b9050838103604085015261282d81888a612769565b848103606086015285815286915082015f5b868110156128665782356128528161266f565b15158252918301919083019060010161283f565b509c9b505050505050505050505050565b5f60208284031215612887575f80fd5b5051919050565b5f5b838110156128a8578181015183820152602001612890565b50505f910152565b5f82516128c181846020870161288e565b9190910192915050565b602081525f82518060208401526128e981604085016020870161288e565b601f017fffffffffffffffffffffffffffffffffffffffffffffffffffffffffffffffe016919091016040019291505056fea264697066735822122000856c3252ca394439aa1c15ac238579093e5e8e5a5e9f0c99539bcdc40f150264736f6c63430008150033","opcodes":"PUSH1 0xE0 PUSH1 0x40 MSTORE PUSH0 DUP1 SSTORE CALLVALUE DUP1 ISZERO PUSH3 0x13 JUMPI PUSH0 DUP1 REVERT JUMPDEST POP PUSH1 0x40 MLOAD PUSH3 0x2D1E CODESIZE SUB DUP1 PUSH3 0x2D1E DUP4 CODECOPY DUP2 ADD PUSH1 0x40 DUP2 SWAP1 MSTORE PUSH3 0x36 SWAP2 PUSH3 0x2DE JUMP JUMPDEST DUP1 DUP1 DUP5 CALLER PUSH3 0x50 DUP2 PUSH3 0x49 PUSH3 0xDF JUMP JUMPDEST SWAP1 PUSH3 0x114 JUMP JUMPDEST POP PUSH3 0x67 DUP2 PUSH3 0x60 PUSH3 0x186 JUMP JUMPDEST SWAP1 PUSH3 0x1B5 JUMP JUMPDEST POP PUSH3 0x88 PUSH4 0x4FC35859 PUSH1 0xE0 SHL PUSH1 0x1 PUSH3 0x80 PUSH3 0x1C1 JUMP JUMPDEST SWAP2 SWAP1 PUSH3 0x1F0 JUMP JUMPDEST PUSH1 0x1 PUSH1 0x1 PUSH1 0xA0 SHL SUB SWAP1 DUP2 AND PUSH1 0x80 MSTORE DUP6 DUP2 AND PUSH1 0xA0 MSTORE DUP4 AND PUSH1 0xC0 MSTORE POP PUSH1 0x40 MLOAD PUSH0 DUP2 MSTORE PUSH32 0x63DD78A2037D9FF47AB1E6CF980C9D036BB47DE0B5812D2203BFA833F35E0A18 SWAP1 PUSH1 0x20 ADD PUSH1 0x40 MLOAD DUP1 SWAP2 SUB SWAP1 LOG1 POP POP POP POP PUSH3 0x363 JUMP JUMPDEST PUSH0 DUP1 PUSH3 0x10E PUSH1 0x1 PUSH32 0xC9ED16F33AB3A66C84BFD83099CCB2A8845871E2E1C1928F63797152F0FD54CD PUSH3 0x343 JUMP JUMPDEST SWAP3 SWAP2 POP POP JUMP JUMPDEST PUSH1 0x1 PUSH1 0x1 PUSH1 0xA0 SHL SUB DUP2 AND ISZERO PUSH3 0x16A JUMPI DUP2 SLOAD PUSH1 0x1 PUSH1 0x1 PUSH1 0xA0 SHL SUB NOT AND PUSH1 0x1 PUSH1 0x1 PUSH1 0xA0 SHL SUB DUP3 AND SWAP1 DUP2 OR DUP4 SSTORE PUSH1 0x40 MLOAD PUSH0 SWAP1 PUSH32 0x8BE0079C531659141344CD1FD0A4F28419497F9722A3DAAFE3B4186F6B6457E0 SWAP1 DUP3 SWAP1 LOG3 JUMPDEST PUSH3 0x182 PUSH4 0x7F5828D PUSH1 0xE4 SHL PUSH1 0x1 PUSH3 0x80 PUSH3 0x1C1 JUMP JUMPDEST POP POP JUMP JUMPDEST PUSH0 DUP1 PUSH3 0x10E PUSH1 0x1 PUSH32 0x4FB5F8CDFBCE77F22B0931A39E9F476A60A0F66524B2F379E96485471EB700AE PUSH3 0x343 JUMP JUMPDEST PUSH3 0x182 DUP3 DUP3 PUSH3 0x24C JUMP JUMPDEST PUSH0 DUP1 PUSH3 0x10E PUSH1 0x1 PUSH32 0xCA9D3E17F264B0F3984E2634E94ADB37FA3E6A8103F06AEAE6FA59E21C769F5E PUSH3 0x343 JUMP JUMPDEST PUSH1 0x1 PUSH1 0xE0 SHL PUSH1 0x1 PUSH1 0x1 PUSH1 0xE0 SHL SUB NOT DUP4 AND ADD PUSH3 0x21F JUMPI PUSH1 0x40 MLOAD PUSH4 0x72C683BB PUSH1 0xE0 SHL DUP2 MSTORE PUSH1 0x4 ADD PUSH1 0x40 MLOAD DUP1 SWAP2 SUB SWAP1 REVERT JUMPDEST PUSH1 0x1 PUSH1 0x1 PUSH1 0xE0 SHL SUB NOT SWAP2 SWAP1 SWAP2 AND PUSH0 SWAP1 DUP2 MSTORE PUSH1 0x20 SWAP3 SWAP1 SWAP3 MSTORE PUSH1 0x40 SWAP1 SWAP2 KECCAK256 DUP1 SLOAD PUSH1 0xFF NOT AND SWAP2 ISZERO ISZERO SWAP2 SWAP1 SWAP2 OR SWAP1 SSTORE JUMP JUMPDEST PUSH1 0x1 PUSH1 0x1 PUSH1 0xA0 SHL SUB DUP2 AND PUSH3 0x274 JUMPI PUSH1 0x40 MLOAD PUSH4 0x40B539CF PUSH1 0xE0 SHL DUP2 MSTORE PUSH1 0x4 ADD PUSH1 0x40 MLOAD DUP1 SWAP2 SUB SWAP1 REVERT JUMPDEST DUP2 SLOAD PUSH1 0x1 PUSH1 0x1 PUSH1 0xA0 SHL SUB NOT AND PUSH1 0x1 PUSH1 0x1 PUSH1 0xA0 SHL SUB DUP3 AND SWAP1 DUP2 OR DUP4 SSTORE PUSH1 0x40 MLOAD SWAP1 DUP2 MSTORE PUSH32 0xDD880D24A789958A6398C99C2E54CE31BC10A638CBC42F7DD34285479AE0F855 SWAP1 PUSH1 0x20 ADD PUSH1 0x40 MLOAD DUP1 SWAP2 SUB SWAP1 LOG1 POP POP JUMP JUMPDEST PUSH1 0x1 PUSH1 0x1 PUSH1 0xA0 SHL SUB DUP2 AND DUP2 EQ PUSH3 0x2DB JUMPI PUSH0 DUP1 REVERT JUMPDEST POP JUMP JUMPDEST PUSH0 DUP1 PUSH0 DUP1 PUSH1 0x80 DUP6 DUP8 SUB SLT ISZERO PUSH3 0x2F2 JUMPI PUSH0 DUP1 REVERT JUMPDEST DUP5 MLOAD PUSH3 0x2FF DUP2 PUSH3 0x2C6 JUMP JUMPDEST PUSH1 0x20 DUP7 ADD MLOAD SWAP1 SWAP5 POP PUSH3 0x312 DUP2 PUSH3 0x2C6 JUMP JUMPDEST PUSH1 0x40 DUP7 ADD MLOAD SWAP1 SWAP4 POP PUSH3 0x325 DUP2 PUSH3 0x2C6 JUMP JUMPDEST PUSH1 0x60 DUP7 ADD MLOAD SWAP1 SWAP3 POP PUSH3 0x338 DUP2 PUSH3 0x2C6 JUMP JUMPDEST SWAP4 SWAP7 SWAP3 SWAP6 POP SWAP1 SWAP4 POP POP JUMP JUMPDEST DUP2 DUP2 SUB DUP2 DUP2 GT ISZERO PUSH3 0x10E JUMPI PUSH4 0x4E487B71 PUSH1 0xE0 SHL PUSH0 MSTORE PUSH1 0x11 PUSH1 0x4 MSTORE PUSH1 0x24 PUSH0 REVERT JUMPDEST PUSH1 0x80 MLOAD PUSH1 0xA0 MLOAD PUSH1 0xC0 MLOAD PUSH2 0x2951 PUSH3 0x3CD PUSH0 CODECOPY PUSH0 DUP2 DUP2 PUSH2 0x335 ADD MSTORE PUSH2 0x69A ADD MSTORE PUSH0 DUP2 DUP2 PUSH2 0x3A9 ADD MSTORE DUP2 DUP2 PUSH2 0x6D1 ADD MSTORE DUP2 DUP2 PUSH2 0x7B3 ADD MSTORE DUP2 DUP2 PUSH2 0xC7D ADD MSTORE DUP2 DUP2 PUSH2 0xCFF ADD MSTORE PUSH2 0x11B3 ADD MSTORE PUSH0 DUP2 DUP2 PUSH2 0x277 ADD MSTORE DUP2 DUP2 PUSH2 0x367 ADD MSTORE DUP2 DUP2 PUSH2 0x1E70 ADD MSTORE PUSH2 0x1EF8 ADD MSTORE PUSH2 0x2951 PUSH0 RETURN INVALID PUSH1 0x80 PUSH1 0x40 MSTORE CALLVALUE DUP1 ISZERO PUSH2 0xF JUMPI PUSH0 DUP1 REVERT JUMPDEST POP PUSH1 0x4 CALLDATASIZE LT PUSH2 0x1D1 JUMPI PUSH0 CALLDATALOAD PUSH1 0xE0 SHR DUP1 PUSH4 0x73C8A958 GT PUSH2 0xFE JUMPI DUP1 PUSH4 0xAD6B333B GT PUSH2 0x9E JUMPI DUP1 PUSH4 0xD547741F GT PUSH2 0x6E JUMPI DUP1 PUSH4 0xD547741F EQ PUSH2 0x4A7 JUMPI DUP1 PUSH4 0xF2FDE38B EQ PUSH2 0x4BA JUMPI DUP1 PUSH4 0xF7BA94BD EQ PUSH2 0x4CD JUMPI DUP1 PUSH4 0xFF50ABDC EQ PUSH2 0x4E0 JUMPI PUSH0 DUP1 REVERT JUMPDEST DUP1 PUSH4 0xAD6B333B EQ PUSH2 0x470 JUMPI DUP1 PUSH4 0xAF7D6CA3 EQ PUSH2 0x478 JUMPI DUP1 PUSH4 0xB5BD3EB9 EQ PUSH2 0x48B JUMPI DUP1 PUSH4 0xC3666C36 EQ PUSH2 0x494 JUMPI PUSH0 DUP1 REVERT JUMPDEST DUP1 PUSH4 0x8BB9C5BF GT PUSH2 0xD9 JUMPI DUP1 PUSH4 0x8BB9C5BF EQ PUSH2 0x43B JUMPI DUP1 PUSH4 0x8DA5CB5B EQ PUSH2 0x44E JUMPI DUP1 PUSH4 0x8DE17B74 EQ PUSH2 0x456 JUMPI DUP1 PUSH4 0x91D14854 EQ PUSH2 0x45D JUMPI PUSH0 DUP1 REVERT JUMPDEST DUP1 PUSH4 0x73C8A958 EQ PUSH2 0x418 JUMPI DUP1 PUSH4 0x8488BB4E EQ PUSH2 0x42B JUMPI DUP1 PUSH4 0x8B785D49 EQ PUSH2 0x433 JUMPI PUSH0 DUP1 REVERT JUMPDEST DUP1 PUSH4 0x3CCFD60B GT PUSH2 0x174 JUMPI DUP1 PUSH4 0x5DF2DCBC GT PUSH2 0x144 JUMPI DUP1 PUSH4 0x5DF2DCBC EQ PUSH2 0x3A4 JUMPI DUP1 PUSH4 0x687F34E0 EQ PUSH2 0x3CB JUMPI DUP1 PUSH4 0x6B8F9C43 EQ PUSH2 0x3DE JUMPI DUP1 PUSH4 0x72C16A24 EQ PUSH2 0x3F1 JUMPI PUSH0 DUP1 REVERT JUMPDEST DUP1 PUSH4 0x3CCFD60B EQ PUSH2 0x2E4 JUMPI DUP1 PUSH4 0x4FC35859 EQ PUSH2 0x2EC JUMPI DUP1 PUSH4 0x51887302 EQ PUSH2 0x330 JUMPI DUP1 PUSH4 0x572B6C05 EQ PUSH2 0x357 JUMPI PUSH0 DUP1 REVERT JUMPDEST DUP1 PUSH4 0x20BABB92 GT PUSH2 0x1AF JUMPI DUP1 PUSH4 0x20BABB92 EQ PUSH2 0x21B JUMPI DUP1 PUSH4 0x2B4C9F16 EQ PUSH2 0x275 JUMPI DUP1 PUSH4 0x2CC82655 EQ PUSH2 0x2BC JUMPI DUP1 PUSH4 0x2F2FF15D EQ PUSH2 0x2D1 JUMPI PUSH0 DUP1 REVERT JUMPDEST DUP1 PUSH4 0x1FFC9A7 EQ PUSH2 0x1D5 JUMPI DUP1 PUSH4 0x55AD42E EQ PUSH2 0x1FD JUMPI DUP1 PUSH4 0x148C2B5A EQ PUSH2 0x213 JUMPI JUMPDEST PUSH0 DUP1 REVERT JUMPDEST PUSH2 0x1E8 PUSH2 0x1E3 CALLDATASIZE PUSH1 0x4 PUSH2 0x22F1 JUMP JUMPDEST PUSH2 0x4E9 JUMP JUMPDEST PUSH1 0x40 MLOAD SWAP1 ISZERO ISZERO DUP2 MSTORE PUSH1 0x20 ADD JUMPDEST PUSH1 0x40 MLOAD DUP1 SWAP2 SUB SWAP1 RETURN JUMPDEST PUSH2 0x205 PUSH0 SLOAD DUP2 JUMP JUMPDEST PUSH1 0x40 MLOAD SWAP1 DUP2 MSTORE PUSH1 0x20 ADD PUSH2 0x1F4 JUMP JUMPDEST PUSH2 0x205 PUSH1 0x2 DUP2 JUMP JUMPDEST PUSH2 0x253 PUSH2 0x229 CALLDATASIZE PUSH1 0x4 PUSH2 0x2351 JUMP JUMPDEST PUSH1 0x1 PUSH1 0x20 DUP2 SWAP1 MSTORE PUSH0 SWAP2 DUP3 MSTORE PUSH1 0x40 SWAP1 SWAP2 KECCAK256 DUP1 SLOAD SWAP2 DUP2 ADD SLOAD PUSH1 0x2 DUP3 ADD SLOAD PUSH1 0x3 SWAP1 SWAP3 ADD SLOAD SWAP1 SWAP2 SWAP1 PUSH1 0xFF AND DUP5 JUMP JUMPDEST PUSH1 0x40 DUP1 MLOAD SWAP5 DUP6 MSTORE PUSH1 0x20 DUP6 ADD SWAP4 SWAP1 SWAP4 MSTORE SWAP2 DUP4 ADD MSTORE ISZERO ISZERO PUSH1 0x60 DUP3 ADD MSTORE PUSH1 0x80 ADD PUSH2 0x1F4 JUMP JUMPDEST PUSH32 0x0 JUMPDEST PUSH1 0x40 MLOAD PUSH20 0xFFFFFFFFFFFFFFFFFFFFFFFFFFFFFFFFFFFFFFFF SWAP1 SWAP2 AND DUP2 MSTORE PUSH1 0x20 ADD PUSH2 0x1F4 JUMP JUMPDEST PUSH2 0x2CF PUSH2 0x2CA CALLDATASIZE PUSH1 0x4 PUSH2 0x236C JUMP JUMPDEST PUSH2 0x502 JUMP JUMPDEST STOP JUMPDEST PUSH2 0x2CF PUSH2 0x2DF CALLDATASIZE PUSH1 0x4 PUSH2 0x2383 JUMP JUMPDEST PUSH2 0x599 JUMP JUMPDEST PUSH2 0x2CF PUSH2 0x5CB JUMP JUMPDEST PUSH2 0x2FF PUSH2 0x2FA CALLDATASIZE PUSH1 0x4 PUSH2 0x23B1 JUMP JUMPDEST PUSH2 0x825 JUMP JUMPDEST PUSH1 0x40 MLOAD PUSH32 0xFFFFFFFF00000000000000000000000000000000000000000000000000000000 SWAP1 SWAP2 AND DUP2 MSTORE PUSH1 0x20 ADD PUSH2 0x1F4 JUMP JUMPDEST PUSH2 0x297 PUSH32 0x0 DUP2 JUMP JUMPDEST PUSH2 0x1E8 PUSH2 0x365 CALLDATASIZE PUSH1 0x4 PUSH2 0x2351 JUMP JUMPDEST PUSH32 0x0 PUSH20 0xFFFFFFFFFFFFFFFFFFFFFFFFFFFFFFFFFFFFFFFF SWAP1 DUP2 AND SWAP2 AND EQ SWAP1 JUMP JUMPDEST PUSH2 0x297 PUSH32 0x0 DUP2 JUMP JUMPDEST PUSH2 0x2CF PUSH2 0x3D9 CALLDATASIZE PUSH1 0x4 PUSH2 0x2490 JUMP JUMPDEST PUSH2 0x908 JUMP JUMPDEST PUSH2 0x2CF PUSH2 0x3EC CALLDATASIZE PUSH1 0x4 PUSH2 0x2351 JUMP JUMPDEST PUSH2 0xC14 JUMP JUMPDEST PUSH2 0x205 PUSH32 0x7370656E64657200000000000000000000000000000000000000000000000000 DUP2 JUMP JUMPDEST PUSH2 0x2CF PUSH2 0x426 CALLDATASIZE PUSH1 0x4 PUSH2 0x254B JUMP JUMPDEST PUSH2 0xC34 JUMP JUMPDEST PUSH2 0x297 PUSH2 0xE0C JUMP JUMPDEST PUSH2 0x205 PUSH1 0x3 DUP2 JUMP JUMPDEST PUSH2 0x2CF PUSH2 0x449 CALLDATASIZE PUSH1 0x4 PUSH2 0x236C JUMP JUMPDEST PUSH2 0xE37 JUMP JUMPDEST PUSH2 0x297 PUSH2 0xE52 JUMP JUMPDEST PUSH2 0x205 PUSH0 DUP2 JUMP JUMPDEST PUSH2 0x1E8 PUSH2 0x46B CALLDATASIZE PUSH1 0x4 PUSH2 0x2383 JUMP JUMPDEST PUSH2 0xE5E JUMP JUMPDEST PUSH2 0x205 PUSH1 0x1 DUP2 JUMP JUMPDEST PUSH2 0x2CF PUSH2 0x486 CALLDATASIZE PUSH1 0x4 PUSH2 0x25DE JUMP JUMPDEST PUSH2 0xEA7 JUMP JUMPDEST PUSH2 0x205 PUSH1 0x2 SLOAD DUP2 JUMP JUMPDEST PUSH2 0x2CF PUSH2 0x4A2 CALLDATASIZE PUSH1 0x4 PUSH2 0x254B JUMP JUMPDEST PUSH2 0x12DA JUMP JUMPDEST PUSH2 0x2CF PUSH2 0x4B5 CALLDATASIZE PUSH1 0x4 PUSH2 0x2383 JUMP JUMPDEST PUSH2 0x144B JUMP JUMPDEST PUSH2 0x2CF PUSH2 0x4C8 CALLDATASIZE PUSH1 0x4 PUSH2 0x2351 JUMP JUMPDEST PUSH2 0x1478 JUMP JUMPDEST PUSH2 0x2CF PUSH2 0x4DB CALLDATASIZE PUSH1 0x4 PUSH2 0x2608 JUMP JUMPDEST PUSH2 0x1493 JUMP JUMPDEST PUSH2 0x205 PUSH1 0x3 SLOAD DUP2 JUMP JUMPDEST PUSH0 PUSH2 0x4FC DUP3 PUSH2 0x4F6 PUSH2 0x1550 JUMP JUMPDEST SWAP1 PUSH2 0x157D JUMP JUMPDEST SWAP3 SWAP2 POP POP JUMP JUMPDEST PUSH2 0x51B PUSH2 0x50D PUSH2 0x1654 JUMP JUMPDEST PUSH2 0x515 PUSH2 0x165D JUMP JUMPDEST SWAP1 PUSH2 0x168A JUMP JUMPDEST PUSH1 0x3 DUP2 GT ISZERO PUSH2 0x55E JUMPI PUSH1 0x40 MLOAD PUSH32 0x9666671900000000000000000000000000000000000000000000000000000000 DUP2 MSTORE PUSH1 0x4 DUP2 ADD DUP3 SWAP1 MSTORE PUSH1 0x24 ADD JUMPDEST PUSH1 0x40 MLOAD DUP1 SWAP2 SUB SWAP1 REVERT JUMPDEST PUSH0 DUP2 SWAP1 SSTORE PUSH1 0x40 MLOAD PUSH1 0x1 DUP2 MSTORE PUSH32 0x63DD78A2037D9FF47AB1E6CF980C9D036BB47DE0B5812D2203BFA833F35E0A18 SWAP1 PUSH1 0x20 ADD PUSH1 0x40 MLOAD DUP1 SWAP2 SUB SWAP1 LOG1 POP JUMP JUMPDEST PUSH0 PUSH2 0x5A2 PUSH2 0x1654 JUMP JUMPDEST SWAP1 POP PUSH2 0x5B0 DUP2 PUSH2 0x515 PUSH2 0x165D JUMP JUMPDEST PUSH2 0x5C6 DUP4 DUP4 DUP4 PUSH2 0x5BE PUSH2 0x16F9 JUMP JUMPDEST SWAP3 SWAP2 SWAP1 PUSH2 0x1726 JUMP JUMPDEST POP POP POP JUMP JUMPDEST PUSH1 0x3 PUSH0 SLOAD EQ PUSH2 0x613 JUMPI PUSH0 SLOAD PUSH1 0x40 MLOAD PUSH32 0x7C9BB66300000000000000000000000000000000000000000000000000000000 DUP2 MSTORE PUSH1 0x3 PUSH1 0x4 DUP3 ADD MSTORE PUSH1 0x24 DUP2 ADD SWAP2 SWAP1 SWAP2 MSTORE PUSH1 0x44 ADD PUSH2 0x555 JUMP JUMPDEST PUSH0 PUSH2 0x61C PUSH2 0x1654 JUMP JUMPDEST SWAP1 POP PUSH0 PUSH1 0x1 PUSH0 PUSH2 0x62A PUSH2 0x1654 JUMP JUMPDEST PUSH20 0xFFFFFFFFFFFFFFFFFFFFFFFFFFFFFFFFFFFFFFFF AND DUP2 MSTORE PUSH1 0x20 DUP2 ADD SWAP2 SWAP1 SWAP2 MSTORE PUSH1 0x40 ADD PUSH0 KECCAK256 DUP1 SLOAD SWAP1 SWAP2 POP DUP1 ISZERO PUSH2 0x73D JUMPI PUSH0 DUP3 SSTORE PUSH1 0x40 MLOAD PUSH32 0x23B872DD00000000000000000000000000000000000000000000000000000000 DUP2 MSTORE PUSH20 0xFFFFFFFFFFFFFFFFFFFFFFFFFFFFFFFFFFFFFFFF PUSH32 0x0 DUP2 AND PUSH1 0x4 DUP4 ADD MSTORE DUP5 DUP2 AND PUSH1 0x24 DUP4 ADD MSTORE PUSH1 0x44 DUP3 ADD DUP4 SWAP1 MSTORE PUSH32 0x0 AND SWAP1 PUSH4 0x23B872DD SWAP1 PUSH1 0x64 ADD PUSH1 0x20 PUSH1 0x40 MLOAD DUP1 DUP4 SUB DUP2 PUSH0 DUP8 GAS CALL ISZERO DUP1 ISZERO PUSH2 0x717 JUMPI RETURNDATASIZE PUSH0 DUP1 RETURNDATACOPY RETURNDATASIZE PUSH0 REVERT JUMPDEST POP POP POP POP PUSH1 0x40 MLOAD RETURNDATASIZE PUSH1 0x1F NOT PUSH1 0x1F DUP3 ADD AND DUP3 ADD DUP1 PUSH1 0x40 MSTORE POP DUP2 ADD SWAP1 PUSH2 0x73B SWAP2 SWAP1 PUSH2 0x267C JUMP JUMPDEST POP JUMPDEST PUSH1 0x2 DUP3 ADD SLOAD DUP1 ISZERO PUSH2 0x81F JUMPI PUSH0 DUP4 PUSH1 0x2 ADD DUP2 SWAP1 SSTORE POP DUP1 PUSH1 0x3 PUSH0 DUP3 DUP3 SLOAD PUSH2 0x762 SWAP2 SWAP1 PUSH2 0x26C4 JUMP JUMPDEST SWAP1 SWAP2 SSTORE POP POP PUSH1 0x40 MLOAD PUSH32 0xA9059CBB00000000000000000000000000000000000000000000000000000000 DUP2 MSTORE PUSH20 0xFFFFFFFFFFFFFFFFFFFFFFFFFFFFFFFFFFFFFFFF DUP6 DUP2 AND PUSH1 0x4 DUP4 ADD MSTORE PUSH1 0x24 DUP3 ADD DUP4 SWAP1 MSTORE PUSH32 0x0 AND SWAP1 PUSH4 0xA9059CBB SWAP1 PUSH1 0x44 ADD PUSH1 0x20 PUSH1 0x40 MLOAD DUP1 DUP4 SUB DUP2 PUSH0 DUP8 GAS CALL ISZERO DUP1 ISZERO PUSH2 0x7F9 JUMPI RETURNDATASIZE PUSH0 DUP1 RETURNDATACOPY RETURNDATASIZE PUSH0 REVERT JUMPDEST POP POP POP POP PUSH1 0x40 MLOAD RETURNDATASIZE PUSH1 0x1F NOT PUSH1 0x1F DUP3 ADD AND DUP3 ADD DUP1 PUSH1 0x40 MSTORE POP DUP2 ADD SWAP1 PUSH2 0x81D SWAP2 SWAP1 PUSH2 0x267C JUMP JUMPDEST POP JUMPDEST POP POP POP POP JUMP JUMPDEST PUSH0 PUSH1 0x1 PUSH0 SLOAD EQ PUSH2 0x86E JUMPI PUSH0 SLOAD PUSH1 0x40 MLOAD PUSH32 0x7C9BB66300000000000000000000000000000000000000000000000000000000 DUP2 MSTORE PUSH1 0x1 PUSH1 0x4 DUP3 ADD MSTORE PUSH1 0x24 DUP2 ADD SWAP2 SWAP1 SWAP2 MSTORE PUSH1 0x44 ADD PUSH2 0x555 JUMP JUMPDEST PUSH20 0xFFFFFFFFFFFFFFFFFFFFFFFFFFFFFFFFFFFFFFFF DUP6 AND PUSH0 SWAP1 DUP2 MSTORE PUSH1 0x1 PUSH1 0x20 MSTORE PUSH1 0x40 DUP2 KECCAK256 PUSH1 0x2 DUP2 ADD DUP1 SLOAD SWAP2 SWAP3 DUP8 SWAP3 PUSH2 0x8A7 SWAP1 DUP5 SWAP1 PUSH2 0x26D7 JUMP JUMPDEST SWAP3 POP POP DUP2 SWAP1 SSTORE POP DUP5 PUSH1 0x3 PUSH0 DUP3 DUP3 SLOAD PUSH2 0x8BF SWAP2 SWAP1 PUSH2 0x26D7 JUMP JUMPDEST SWAP3 POP POP DUP2 SWAP1 SSTORE POP DUP5 PUSH1 0x2 PUSH0 DUP3 DUP3 SLOAD PUSH2 0x8D7 SWAP2 SWAP1 PUSH2 0x26D7 JUMP JUMPDEST SWAP1 SWAP2 SSTORE POP PUSH32 0x4FC3585900000000000000000000000000000000000000000000000000000000 SWAP9 SWAP8 POP POP POP POP POP POP POP POP JUMP JUMPDEST DUP7 DUP6 DUP2 EQ ISZERO DUP1 PUSH2 0x918 JUMPI POP DUP1 DUP5 EQ ISZERO JUMPDEST DUP1 PUSH2 0x923 JUMPI POP DUP1 DUP3 EQ ISZERO JUMPDEST ISZERO PUSH2 0x95A JUMPI PUSH1 0x40 MLOAD PUSH32 0x6582533600000000000000000000000000000000000000000000000000000000 DUP2 MSTORE PUSH1 0x4 ADD PUSH1 0x40 MLOAD DUP1 SWAP2 SUB SWAP1 REVERT JUMPDEST PUSH0 SLOAD ISZERO PUSH2 0x99F JUMPI PUSH0 DUP1 SLOAD PUSH1 0x40 MLOAD PUSH32 0x7C9BB66300000000000000000000000000000000000000000000000000000000 DUP2 MSTORE PUSH1 0x4 DUP2 ADD SWAP3 SWAP1 SWAP3 MSTORE PUSH1 0x24 DUP3 ADD MSTORE PUSH1 0x44 ADD PUSH2 0x555 JUMP JUMPDEST PUSH2 0x9AA PUSH2 0x50D PUSH2 0x1654 JUMP JUMPDEST PUSH0 JUMPDEST DUP2 DUP2 EQ PUSH2 0xBC3 JUMPI PUSH0 DUP11 DUP11 DUP4 DUP2 DUP2 LT PUSH2 0x9C6 JUMPI PUSH2 0x9C6 PUSH2 0x26EA JUMP JUMPDEST SWAP1 POP PUSH1 0x20 MUL ADD PUSH1 0x20 DUP2 ADD SWAP1 PUSH2 0x9DB SWAP2 SWAP1 PUSH2 0x2351 JUMP JUMPDEST SWAP1 POP PUSH20 0xFFFFFFFFFFFFFFFFFFFFFFFFFFFFFFFFFFFFFFFF DUP2 AND PUSH2 0xA2A JUMPI PUSH1 0x40 MLOAD PUSH32 0x9C89D57F00000000000000000000000000000000000000000000000000000000 DUP2 MSTORE PUSH1 0x4 ADD PUSH1 0x40 MLOAD DUP1 SWAP2 SUB SWAP1 REVERT JUMPDEST PUSH0 DUP10 DUP10 DUP5 DUP2 DUP2 LT PUSH2 0xA3D JUMPI PUSH2 0xA3D PUSH2 0x26EA JUMP JUMPDEST SWAP1 POP PUSH1 0x20 MUL ADD CALLDATALOAD SWAP1 POP DUP1 PUSH0 SUB PUSH2 0xA97 JUMPI PUSH1 0x40 MLOAD PUSH32 0xD49C192700000000000000000000000000000000000000000000000000000000 DUP2 MSTORE PUSH20 0xFFFFFFFFFFFFFFFFFFFFFFFFFFFFFFFFFFFFFFFF DUP4 AND PUSH1 0x4 DUP3 ADD MSTORE PUSH1 0x24 ADD PUSH2 0x555 JUMP JUMPDEST PUSH20 0xFFFFFFFFFFFFFFFFFFFFFFFFFFFFFFFFFFFFFFFF DUP3 AND PUSH0 SWAP1 DUP2 MSTORE PUSH1 0x1 PUSH1 0x20 MSTORE PUSH1 0x40 SWAP1 KECCAK256 DUP1 SLOAD ISZERO PUSH2 0xB0C JUMPI PUSH1 0x40 MLOAD PUSH32 0x6DBAA9B400000000000000000000000000000000000000000000000000000000 DUP2 MSTORE PUSH20 0xFFFFFFFFFFFFFFFFFFFFFFFFFFFFFFFFFFFFFFFF DUP5 AND PUSH1 0x4 DUP3 ADD MSTORE PUSH1 0x24 ADD PUSH2 0x555 JUMP JUMPDEST PUSH0 DUP10 DUP10 DUP7 DUP2 DUP2 LT PUSH2 0xB1F JUMPI PUSH2 0xB1F PUSH2 0x26EA JUMP JUMPDEST DUP6 DUP6 SSTORE PUSH1 0x20 MUL SWAP2 SWAP1 SWAP2 ADD CALLDATALOAD PUSH1 0x1 DUP5 ADD DUP2 SWAP1 SSTORE SWAP2 POP DUP9 SWAP1 POP DUP8 DUP7 DUP2 DUP2 LT PUSH2 0xB47 JUMPI PUSH2 0xB47 PUSH2 0x26EA JUMP JUMPDEST SWAP1 POP PUSH1 0x20 MUL ADD PUSH1 0x20 DUP2 ADD SWAP1 PUSH2 0xB5C SWAP2 SWAP1 PUSH2 0x2717 JUMP JUMPDEST PUSH1 0x3 DUP4 ADD DUP1 SLOAD PUSH32 0xFFFFFFFFFFFFFFFFFFFFFFFFFFFFFFFFFFFFFFFFFFFFFFFFFFFFFFFFFFFFFF00 AND SWAP2 ISZERO ISZERO SWAP2 SWAP1 SWAP2 OR SWAP1 SSTORE PUSH2 0xB97 DUP2 DUP5 PUSH2 0x26D7 JUMP JUMPDEST PUSH1 0x2 PUSH0 DUP3 DUP3 SLOAD PUSH2 0xBA7 SWAP2 SWAP1 PUSH2 0x26D7 JUMP JUMPDEST SWAP3 POP POP DUP2 SWAP1 SSTORE POP POP POP POP POP DUP1 PUSH2 0xBBC SWAP1 PUSH2 0x2732 JUMP JUMPDEST SWAP1 POP PUSH2 0x9AC JUMP JUMPDEST POP PUSH32 0x44FBB8621BC7A734E344E0D7F6B84824CF97E0D8D611F9F8502E42FF0B1DEE43 DUP10 DUP10 DUP10 DUP10 DUP10 DUP10 DUP10 DUP10 PUSH1 0x40 MLOAD PUSH2 0xC01 SWAP9 SWAP8 SWAP7 SWAP6 SWAP5 SWAP4 SWAP3 SWAP2 SWAP1 PUSH2 0x27B2 JUMP JUMPDEST PUSH1 0x40 MLOAD DUP1 SWAP2 SUB SWAP1 LOG1 POP POP POP POP POP POP POP POP POP JUMP JUMPDEST PUSH2 0xC1F PUSH2 0x50D PUSH2 0x1654 JUMP JUMPDEST PUSH2 0xC31 DUP2 PUSH2 0xC2B PUSH2 0x17FA JUMP JUMPDEST SWAP1 PUSH2 0x1827 JUMP JUMPDEST POP JUMP JUMPDEST PUSH1 0x3 SLOAD PUSH1 0x40 MLOAD PUSH32 0x70A0823100000000000000000000000000000000000000000000000000000000 DUP2 MSTORE ADDRESS PUSH1 0x4 DUP3 ADD MSTORE PUSH0 SWAP2 SWAP1 PUSH20 0xFFFFFFFFFFFFFFFFFFFFFFFFFFFFFFFFFFFFFFFF PUSH32 0x0 AND SWAP1 PUSH4 0x70A08231 SWAP1 PUSH1 0x24 ADD PUSH1 0x20 PUSH1 0x40 MLOAD DUP1 DUP4 SUB DUP2 DUP7 GAS STATICCALL ISZERO DUP1 ISZERO PUSH2 0xCC2 JUMPI RETURNDATASIZE PUSH0 DUP1 RETURNDATACOPY RETURNDATASIZE PUSH0 REVERT JUMPDEST POP POP POP POP PUSH1 0x40 MLOAD RETURNDATASIZE PUSH1 0x1F NOT PUSH1 0x1F DUP3 ADD AND DUP3 ADD DUP1 PUSH1 0x40 MSTORE POP DUP2 ADD SWAP1 PUSH2 0xCE6 SWAP2 SWAP1 PUSH2 0x2877 JUMP JUMPDEST PUSH2 0xCF0 SWAP2 SWAP1 PUSH2 0x26C4 JUMP JUMPDEST SWAP1 POP PUSH0 DUP1 JUMPDEST DUP6 DUP2 LT ISZERO PUSH2 0xDAF JUMPI PUSH32 0x0 PUSH20 0xFFFFFFFFFFFFFFFFFFFFFFFFFFFFFFFFFFFFFFFF AND DUP8 DUP8 DUP4 DUP2 DUP2 LT PUSH2 0xD46 JUMPI PUSH2 0xD46 PUSH2 0x26EA JUMP JUMPDEST SWAP1 POP PUSH1 0x20 MUL ADD PUSH1 0x20 DUP2 ADD SWAP1 PUSH2 0xD5B SWAP2 SWAP1 PUSH2 0x2351 JUMP JUMPDEST PUSH20 0xFFFFFFFFFFFFFFFFFFFFFFFFFFFFFFFFFFFFFFFF AND SUB PUSH2 0xD9D JUMPI DUP5 DUP5 DUP3 DUP2 DUP2 LT PUSH2 0xD88 JUMPI PUSH2 0xD88 PUSH2 0x26EA JUMP JUMPDEST SWAP1 POP PUSH1 0x20 MUL ADD CALLDATALOAD DUP3 PUSH2 0xD9A SWAP2 SWAP1 PUSH2 0x26D7 JUMP JUMPDEST SWAP2 POP JUMPDEST DUP1 PUSH2 0xDA7 DUP2 PUSH2 0x2732 JUMP JUMPDEST SWAP2 POP POP PUSH2 0xCF5 JUMP JUMPDEST POP DUP2 DUP2 GT ISZERO PUSH2 0xDF4 JUMPI PUSH1 0x40 MLOAD PUSH32 0x7CE4D19D00000000000000000000000000000000000000000000000000000000 DUP2 MSTORE PUSH1 0x4 DUP2 ADD DUP4 SWAP1 MSTORE PUSH1 0x24 DUP2 ADD DUP3 SWAP1 MSTORE PUSH1 0x44 ADD PUSH2 0x555 JUMP JUMPDEST PUSH2 0xE02 DUP9 DUP9 DUP9 DUP9 DUP9 DUP9 PUSH2 0x18EB JUMP JUMPDEST POP POP POP POP POP POP POP POP JUMP JUMPDEST PUSH0 PUSH2 0xE32 PUSH2 0xE18 PUSH2 0x17FA JUMP JUMPDEST SLOAD PUSH20 0xFFFFFFFFFFFFFFFFFFFFFFFFFFFFFFFFFFFFFFFF AND SWAP1 JUMP JUMPDEST SWAP1 POP SWAP1 JUMP JUMPDEST PUSH2 0xC31 PUSH2 0xE42 PUSH2 0x1654 JUMP JUMPDEST DUP3 PUSH2 0xE4B PUSH2 0x16F9 JUMP JUMPDEST SWAP2 SWAP1 PUSH2 0x19D5 JUMP JUMPDEST PUSH0 PUSH2 0xE32 PUSH2 0xE18 PUSH2 0x165D JUMP JUMPDEST PUSH0 PUSH2 0xEA0 DUP4 DUP4 PUSH2 0xE6C PUSH2 0x16F9 JUMP JUMPDEST PUSH0 SWAP3 DUP4 MSTORE PUSH1 0x20 SWAP1 DUP2 MSTORE PUSH1 0x40 DUP1 DUP5 KECCAK256 PUSH20 0xFFFFFFFFFFFFFFFFFFFFFFFFFFFFFFFFFFFFFFFF SWAP1 SWAP4 AND DUP5 MSTORE SWAP2 SWAP1 MSTORE SWAP1 KECCAK256 SLOAD PUSH1 0xFF AND SWAP1 JUMP JUMPDEST SWAP4 SWAP3 POP POP POP JUMP JUMPDEST PUSH0 PUSH2 0xEB0 PUSH2 0x1654 JUMP JUMPDEST SWAP1 POP DUP2 PUSH0 SUB PUSH2 0xF0B JUMPI PUSH1 0x40 MLOAD PUSH32 0x9BC7F2B00000000000000000000000000000000000000000000000000000000 DUP2 MSTORE PUSH20 0xFFFFFFFFFFFFFFFFFFFFFFFFFFFFFFFFFFFFFFFF DUP1 DUP4 AND PUSH1 0x4 DUP4 ADD MSTORE DUP5 AND PUSH1 0x24 DUP3 ADD MSTORE PUSH1 0x44 ADD PUSH2 0x555 JUMP JUMPDEST PUSH1 0x2 PUSH0 SLOAD EQ PUSH2 0xF53 JUMPI PUSH0 SLOAD PUSH1 0x40 MLOAD PUSH32 0x7C9BB66300000000000000000000000000000000000000000000000000000000 DUP2 MSTORE PUSH1 0x2 PUSH1 0x4 DUP3 ADD MSTORE PUSH1 0x24 DUP2 ADD SWAP2 SWAP1 SWAP2 MSTORE PUSH1 0x44 ADD PUSH2 0x555 JUMP JUMPDEST PUSH2 0xF87 PUSH32 0x7370656E64657200000000000000000000000000000000000000000000000000 DUP3 PUSH2 0xF80 PUSH2 0x16F9 JUMP JUMPDEST SWAP2 SWAP1 PUSH2 0x1A78 JUMP JUMPDEST PUSH20 0xFFFFFFFFFFFFFFFFFFFFFFFFFFFFFFFFFFFFFFFF DUP4 AND PUSH0 SWAP1 DUP2 MSTORE PUSH1 0x1 PUSH1 0x20 DUP2 SWAP1 MSTORE PUSH1 0x40 DUP3 KECCAK256 SWAP1 DUP2 ADD SLOAD SWAP1 SWAP2 SWAP1 DUP1 ISZERO PUSH2 0x105C JUMPI DUP5 DUP2 LT PUSH2 0x1046 JUMPI DUP5 DUP4 PUSH1 0x1 ADD PUSH0 DUP3 DUP3 SLOAD PUSH2 0xFD4 SWAP2 SWAP1 PUSH2 0x26C4 JUMP JUMPDEST SWAP1 SWAP2 SSTORE POP POP PUSH1 0x40 DUP1 MLOAD PUSH20 0xFFFFFFFFFFFFFFFFFFFFFFFFFFFFFFFFFFFFFFFF DUP1 DUP8 AND DUP3 MSTORE DUP9 AND PUSH1 0x20 DUP3 ADD MSTORE SWAP1 DUP2 ADD DUP7 SWAP1 MSTORE PUSH0 PUSH1 0x60 DUP3 ADD DUP2 SWAP1 MSTORE PUSH1 0x80 DUP3 ADD MSTORE PUSH32 0xC8832E1605166EECBA94F0E3919E05A79787269B7B9F7E7B9766B187B44A7E89 SWAP1 PUSH1 0xA0 ADD PUSH1 0x40 MLOAD DUP1 SWAP2 SUB SWAP1 LOG1 POP POP POP POP POP POP JUMP JUMPDEST PUSH0 PUSH1 0x1 DUP5 ADD SSTORE PUSH2 0x1056 DUP2 DUP7 PUSH2 0x26C4 JUMP JUMPDEST SWAP5 POP DUP1 SWAP2 POP JUMPDEST DUP3 SLOAD PUSH0 SWAP1 DUP1 ISZERO PUSH2 0x1106 JUMPI DUP7 DUP2 LT PUSH2 0x10F3 JUMPI DUP7 DUP6 PUSH0 ADD PUSH0 DUP3 DUP3 SLOAD PUSH2 0x107F SWAP2 SWAP1 PUSH2 0x26C4 JUMP JUMPDEST SWAP1 SWAP2 SSTORE POP POP PUSH1 0x40 DUP1 MLOAD PUSH20 0xFFFFFFFFFFFFFFFFFFFFFFFFFFFFFFFFFFFFFFFF DUP1 DUP10 AND DUP3 MSTORE DUP11 AND PUSH1 0x20 DUP3 ADD MSTORE SWAP1 DUP2 ADD DUP6 SWAP1 MSTORE PUSH1 0x60 DUP2 ADD DUP9 SWAP1 MSTORE PUSH0 PUSH1 0x80 DUP3 ADD MSTORE PUSH32 0xC8832E1605166EECBA94F0E3919E05A79787269B7B9F7E7B9766B187B44A7E89 SWAP1 PUSH1 0xA0 ADD PUSH1 0x40 MLOAD DUP1 SWAP2 SUB SWAP1 LOG1 POP POP POP POP POP POP POP POP JUMP JUMPDEST PUSH0 DUP6 SSTORE PUSH2 0x1100 DUP2 DUP9 PUSH2 0x26C4 JUMP JUMPDEST SWAP7 POP DUP1 SWAP2 POP JUMPDEST PUSH1 0x2 DUP6 ADD SLOAD DUP8 DUP2 LT ISZERO PUSH2 0x116C JUMPI PUSH1 0x40 MLOAD PUSH32 0x1734392500000000000000000000000000000000000000000000000000000000 DUP2 MSTORE PUSH20 0xFFFFFFFFFFFFFFFFFFFFFFFFFFFFFFFFFFFFFFFF DUP1 DUP10 AND PUSH1 0x4 DUP4 ADD MSTORE DUP11 AND PUSH1 0x24 DUP3 ADD MSTORE PUSH1 0x44 DUP2 ADD DUP10 SWAP1 MSTORE PUSH1 0x64 ADD PUSH2 0x555 JUMP JUMPDEST DUP8 DUP7 PUSH1 0x2 ADD PUSH0 DUP3 DUP3 SLOAD PUSH2 0x117F SWAP2 SWAP1 PUSH2 0x26C4 JUMP JUMPDEST SWAP3 POP POP DUP2 SWAP1 SSTORE POP DUP8 PUSH1 0x3 PUSH0 DUP3 DUP3 SLOAD PUSH2 0x1197 SWAP2 SWAP1 PUSH2 0x26C4 JUMP JUMPDEST SWAP1 SWAP2 SSTORE POP POP PUSH20 0xFFFFFFFFFFFFFFFFFFFFFFFFFFFFFFFFFFFFFFFF PUSH32 0x0 AND PUSH4 0xA9059CBB PUSH2 0x11E3 PUSH2 0xE18 PUSH2 0x17FA JUMP JUMPDEST PUSH1 0x40 MLOAD PUSH32 0xFFFFFFFF00000000000000000000000000000000000000000000000000000000 PUSH1 0xE0 DUP5 SWAP1 SHL AND DUP2 MSTORE PUSH20 0xFFFFFFFFFFFFFFFFFFFFFFFFFFFFFFFFFFFFFFFF SWAP1 SWAP2 AND PUSH1 0x4 DUP3 ADD MSTORE PUSH1 0x24 DUP2 ADD DUP12 SWAP1 MSTORE PUSH1 0x44 ADD PUSH1 0x20 PUSH1 0x40 MLOAD DUP1 DUP4 SUB DUP2 PUSH0 DUP8 GAS CALL ISZERO DUP1 ISZERO PUSH2 0x1252 JUMPI RETURNDATASIZE PUSH0 DUP1 RETURNDATACOPY RETURNDATASIZE PUSH0 REVERT JUMPDEST POP POP POP POP PUSH1 0x40 MLOAD RETURNDATASIZE PUSH1 0x1F NOT PUSH1 0x1F DUP3 ADD AND DUP3 ADD DUP1 PUSH1 0x40 MSTORE POP DUP2 ADD SWAP1 PUSH2 0x1276 SWAP2 SWAP1 PUSH2 0x267C JUMP JUMPDEST POP PUSH1 0x40 DUP1 MLOAD PUSH20 0xFFFFFFFFFFFFFFFFFFFFFFFFFFFFFFFFFFFFFFFF DUP1 DUP11 AND DUP3 MSTORE DUP12 AND PUSH1 0x20 DUP3 ADD MSTORE SWAP1 DUP2 ADD DUP7 SWAP1 MSTORE PUSH1 0x60 DUP2 ADD DUP5 SWAP1 MSTORE PUSH1 0x80 DUP2 ADD DUP10 SWAP1 MSTORE PUSH32 0xC8832E1605166EECBA94F0E3919E05A79787269B7B9F7E7B9766B187B44A7E89 SWAP1 PUSH1 0xA0 ADD PUSH2 0xC01 JUMP JUMPDEST PUSH2 0x12E5 PUSH2 0x50D PUSH2 0x1654 JUMP JUMPDEST DUP5 DUP4 DUP2 EQ ISZERO DUP1 PUSH2 0x12F5 JUMPI POP DUP1 DUP3 EQ ISZERO JUMPDEST ISZERO PUSH2 0x132C JUMPI PUSH1 0x40 MLOAD PUSH32 0x6582533600000000000000000000000000000000000000000000000000000000 DUP2 MSTORE PUSH1 0x4 ADD PUSH1 0x40 MLOAD DUP1 SWAP2 SUB SWAP1 REVERT JUMPDEST PUSH0 JUMPDEST DUP2 DUP2 EQ PUSH2 0xE02 JUMPI DUP6 DUP6 DUP3 DUP2 DUP2 LT PUSH2 0x1347 JUMPI PUSH2 0x1347 PUSH2 0x26EA JUMP JUMPDEST SWAP1 POP PUSH1 0x20 MUL ADD PUSH1 0x20 DUP2 ADD SWAP1 PUSH2 0x135C SWAP2 SWAP1 PUSH2 0x2351 JUMP JUMPDEST PUSH20 0xFFFFFFFFFFFFFFFFFFFFFFFFFFFFFFFFFFFFFFFF AND PUSH4 0x23B872DD ADDRESS DUP11 DUP11 DUP6 DUP2 DUP2 LT PUSH2 0x138A JUMPI PUSH2 0x138A PUSH2 0x26EA JUMP JUMPDEST SWAP1 POP PUSH1 0x20 MUL ADD PUSH1 0x20 DUP2 ADD SWAP1 PUSH2 0x139F SWAP2 SWAP1 PUSH2 0x2351 JUMP JUMPDEST DUP8 DUP8 DUP7 DUP2 DUP2 LT PUSH2 0x13B1 JUMPI PUSH2 0x13B1 PUSH2 0x26EA JUMP JUMPDEST PUSH1 0x40 MLOAD PUSH32 0xFFFFFFFF00000000000000000000000000000000000000000000000000000000 PUSH1 0xE0 DUP9 SWAP1 SHL AND DUP2 MSTORE PUSH20 0xFFFFFFFFFFFFFFFFFFFFFFFFFFFFFFFFFFFFFFFF SWAP6 DUP7 AND PUSH1 0x4 DUP3 ADD MSTORE SWAP5 SWAP1 SWAP4 AND PUSH1 0x24 DUP6 ADD MSTORE POP PUSH1 0x20 SWAP1 SWAP2 MUL ADD CALLDATALOAD PUSH1 0x44 DUP3 ADD MSTORE PUSH1 0x64 ADD PUSH0 PUSH1 0x40 MLOAD DUP1 DUP4 SUB DUP2 PUSH0 DUP8 DUP1 EXTCODESIZE ISZERO DUP1 ISZERO PUSH2 0x142A JUMPI PUSH0 DUP1 REVERT JUMPDEST POP GAS CALL ISZERO DUP1 ISZERO PUSH2 0x143C JUMPI RETURNDATASIZE PUSH0 DUP1 RETURNDATACOPY RETURNDATASIZE PUSH0 REVERT JUMPDEST POP POP POP POP DUP1 PUSH1 0x1 ADD SWAP1 POP PUSH2 0x132E JUMP JUMPDEST PUSH0 PUSH2 0x1454 PUSH2 0x1654 JUMP JUMPDEST SWAP1 POP PUSH2 0x1462 DUP2 PUSH2 0x515 PUSH2 0x165D JUMP JUMPDEST PUSH2 0x5C6 DUP4 DUP4 DUP4 PUSH2 0x1470 PUSH2 0x16F9 JUMP JUMPDEST SWAP3 SWAP2 SWAP1 PUSH2 0x1AFD JUMP JUMPDEST PUSH2 0xC31 PUSH2 0x1483 PUSH2 0x1654 JUMP JUMPDEST DUP3 PUSH2 0x148C PUSH2 0x165D JUMP JUMPDEST SWAP2 SWAP1 PUSH2 0x1BC5 JUMP JUMPDEST PUSH2 0x149E PUSH2 0x50D PUSH2 0x1654 JUMP JUMPDEST DUP3 DUP2 DUP2 EQ PUSH2 0x14D8 JUMPI PUSH1 0x40 MLOAD PUSH32 0x6582533600000000000000000000000000000000000000000000000000000000 DUP2 MSTORE PUSH1 0x4 ADD PUSH1 0x40 MLOAD DUP1 SWAP2 SUB SWAP1 REVERT JUMPDEST PUSH0 JUMPDEST DUP2 DUP2 EQ PUSH2 0x1548 JUMPI PUSH2 0x1540 DUP5 DUP5 DUP4 DUP2 DUP2 LT PUSH2 0x14F6 JUMPI PUSH2 0x14F6 PUSH2 0x26EA JUMP JUMPDEST SWAP1 POP PUSH1 0x20 MUL ADD CALLDATALOAD DUP8 DUP8 DUP5 DUP2 DUP2 LT PUSH2 0x150F JUMPI PUSH2 0x150F PUSH2 0x26EA JUMP JUMPDEST SWAP1 POP PUSH1 0x20 MUL ADD PUSH1 0x20 DUP2 ADD SWAP1 PUSH2 0x1524 SWAP2 SWAP1 PUSH2 0x2351 JUMP JUMPDEST PUSH20 0xFFFFFFFFFFFFFFFFFFFFFFFFFFFFFFFFFFFFFFFF AND SWAP1 PUSH2 0x1CD8 JUMP JUMPDEST PUSH1 0x1 ADD PUSH2 0x14DA JUMP JUMPDEST POP POP POP POP POP POP JUMP JUMPDEST PUSH0 DUP1 PUSH2 0x4FC PUSH1 0x1 PUSH32 0xCA9D3E17F264B0F3984E2634E94ADB37FA3E6A8103F06AEAE6FA59E21C769F5E PUSH2 0x26C4 JUMP JUMPDEST PUSH0 PUSH29 0x100000000000000000000000000000000000000000000000000000000 PUSH32 0xFFFFFFFF00000000000000000000000000000000000000000000000000000000 DUP4 AND ADD PUSH2 0x15CB JUMPI POP PUSH0 PUSH2 0x4FC JUMP JUMPDEST PUSH32 0xFE00365900000000000000000000000000000000000000000000000000000000 PUSH32 0xFFFFFFFF00000000000000000000000000000000000000000000000000000000 DUP4 AND ADD PUSH2 0x161C JUMPI POP PUSH1 0x1 PUSH2 0x4FC JUMP JUMPDEST POP PUSH32 0xFFFFFFFF00000000000000000000000000000000000000000000000000000000 AND PUSH0 SWAP1 DUP2 MSTORE PUSH1 0x20 SWAP2 SWAP1 SWAP2 MSTORE PUSH1 0x40 SWAP1 KECCAK256 SLOAD PUSH1 0xFF AND SWAP1 JUMP JUMPDEST PUSH0 PUSH2 0xE32 PUSH2 0x1E2E JUMP JUMPDEST PUSH0 DUP1 PUSH2 0x4FC PUSH1 0x1 PUSH32 0xC9ED16F33AB3A66C84BFD83099CCB2A8845871E2E1C1928F63797152F0FD54CD PUSH2 0x26C4 JUMP JUMPDEST DUP2 SLOAD PUSH20 0xFFFFFFFFFFFFFFFFFFFFFFFFFFFFFFFFFFFFFFFF DUP3 DUP2 AND SWAP2 AND EQ PUSH2 0x16F5 JUMPI PUSH1 0x40 MLOAD PUSH32 0x2EF4875E00000000000000000000000000000000000000000000000000000000 DUP2 MSTORE PUSH20 0xFFFFFFFFFFFFFFFFFFFFFFFFFFFFFFFFFFFFFFFF DUP3 AND PUSH1 0x4 DUP3 ADD MSTORE PUSH1 0x24 ADD PUSH2 0x555 JUMP JUMPDEST POP POP JUMP JUMPDEST PUSH0 DUP1 PUSH2 0x4FC PUSH1 0x1 PUSH32 0xC8827D3282AF6F37B64C3E9E6F3AC9DF286AB0BB0FCCD6F8661BF19ADB368B23 PUSH2 0x26C4 JUMP JUMPDEST PUSH0 DUP4 DUP2 MSTORE PUSH1 0x20 DUP6 DUP2 MSTORE PUSH1 0x40 DUP1 DUP4 KECCAK256 PUSH20 0xFFFFFFFFFFFFFFFFFFFFFFFFFFFFFFFFFFFFFFFF DUP7 AND DUP5 MSTORE SWAP1 SWAP2 MSTORE SWAP1 KECCAK256 SLOAD PUSH1 0xFF AND PUSH2 0x81F JUMPI PUSH0 DUP4 DUP2 MSTORE PUSH1 0x20 DUP6 DUP2 MSTORE PUSH1 0x40 DUP1 DUP4 KECCAK256 PUSH20 0xFFFFFFFFFFFFFFFFFFFFFFFFFFFFFFFFFFFFFFFF DUP7 DUP2 AND DUP1 DUP7 MSTORE SWAP2 DUP5 MSTORE SWAP4 DUP3 SWAP1 KECCAK256 DUP1 SLOAD PUSH32 0xFFFFFFFFFFFFFFFFFFFFFFFFFFFFFFFFFFFFFFFFFFFFFFFFFFFFFFFFFFFFFF00 AND PUSH1 0x1 OR SWAP1 SSTORE DUP2 MLOAD DUP8 DUP2 MSTORE SWAP3 DUP4 ADD MSTORE SWAP2 DUP4 AND SWAP2 DUP2 ADD SWAP2 SWAP1 SWAP2 MSTORE PUSH32 0x2F8788117E7EFF1D82E926EC794901D17C78024A50270940304540A733656F0D SWAP1 PUSH1 0x60 ADD JUMPDEST PUSH1 0x40 MLOAD DUP1 SWAP2 SUB SWAP1 LOG1 POP POP POP POP JUMP JUMPDEST PUSH0 DUP1 PUSH2 0x4FC PUSH1 0x1 PUSH32 0x4FB5F8CDFBCE77F22B0931A39E9F476A60A0F66524B2F379E96485471EB700AE PUSH2 0x26C4 JUMP JUMPDEST PUSH20 0xFFFFFFFFFFFFFFFFFFFFFFFFFFFFFFFFFFFFFFFF DUP2 AND PUSH2 0x1874 JUMPI PUSH1 0x40 MLOAD PUSH32 0x40B539CF00000000000000000000000000000000000000000000000000000000 DUP2 MSTORE PUSH1 0x4 ADD PUSH1 0x40 MLOAD DUP1 SWAP2 SUB SWAP1 REVERT JUMPDEST DUP2 SLOAD PUSH32 0xFFFFFFFFFFFFFFFFFFFFFFFF0000000000000000000000000000000000000000 AND PUSH20 0xFFFFFFFFFFFFFFFFFFFFFFFFFFFFFFFFFFFFFFFF DUP3 AND SWAP1 DUP2 OR DUP4 SSTORE PUSH1 0x40 MLOAD SWAP1 DUP2 MSTORE PUSH32 0xDD880D24A789958A6398C99C2E54CE31BC10A638CBC42F7DD34285479AE0F855 SWAP1 PUSH1 0x20 ADD PUSH1 0x40 MLOAD DUP1 SWAP2 SUB SWAP1 LOG1 POP POP JUMP JUMPDEST PUSH2 0x18F6 PUSH2 0x50D PUSH2 0x1654 JUMP JUMPDEST DUP5 DUP4 DUP2 EQ ISZERO DUP1 PUSH2 0x1906 JUMPI POP DUP1 DUP3 EQ ISZERO JUMPDEST ISZERO PUSH2 0x193D JUMPI PUSH1 0x40 MLOAD PUSH32 0x6582533600000000000000000000000000000000000000000000000000000000 DUP2 MSTORE PUSH1 0x4 ADD PUSH1 0x40 MLOAD DUP1 SWAP2 SUB SWAP1 REVERT JUMPDEST PUSH0 JUMPDEST DUP2 DUP2 EQ PUSH2 0xE02 JUMPI PUSH2 0x19CD DUP9 DUP9 DUP4 DUP2 DUP2 LT PUSH2 0x195B JUMPI PUSH2 0x195B PUSH2 0x26EA JUMP JUMPDEST SWAP1 POP PUSH1 0x20 MUL ADD PUSH1 0x20 DUP2 ADD SWAP1 PUSH2 0x1970 SWAP2 SWAP1 PUSH2 0x2351 JUMP JUMPDEST DUP6 DUP6 DUP5 DUP2 DUP2 LT PUSH2 0x1982 JUMPI PUSH2 0x1982 PUSH2 0x26EA JUMP JUMPDEST SWAP1 POP PUSH1 0x20 MUL ADD CALLDATALOAD DUP9 DUP9 DUP6 DUP2 DUP2 LT PUSH2 0x199B JUMPI PUSH2 0x199B PUSH2 0x26EA JUMP JUMPDEST SWAP1 POP PUSH1 0x20 MUL ADD PUSH1 0x20 DUP2 ADD SWAP1 PUSH2 0x19B0 SWAP2 SWAP1 PUSH2 0x2351 JUMP JUMPDEST PUSH20 0xFFFFFFFFFFFFFFFFFFFFFFFFFFFFFFFFFFFFFFFF AND SWAP2 SWAP1 PUSH2 0x1F72 JUMP JUMPDEST PUSH1 0x1 ADD PUSH2 0x193F JUMP JUMPDEST PUSH2 0x19E0 DUP4 DUP3 DUP5 PUSH2 0x1A78 JUMP JUMPDEST PUSH0 DUP2 DUP2 MSTORE PUSH1 0x20 DUP5 DUP2 MSTORE PUSH1 0x40 DUP1 DUP4 KECCAK256 PUSH20 0xFFFFFFFFFFFFFFFFFFFFFFFFFFFFFFFFFFFFFFFF DUP7 AND DUP1 DUP6 MSTORE SWAP1 DUP4 MSTORE SWAP3 DUP2 SWAP1 KECCAK256 DUP1 SLOAD PUSH32 0xFFFFFFFFFFFFFFFFFFFFFFFFFFFFFFFFFFFFFFFFFFFFFFFFFFFFFFFFFFFFFF00 AND SWAP1 SSTORE DUP1 MLOAD DUP5 DUP2 MSTORE SWAP2 DUP3 ADD DUP4 SWAP1 MSTORE DUP2 ADD SWAP2 SWAP1 SWAP2 MSTORE PUSH32 0xF6391F5C32D9C69D2A47EA670B442974B53935D1EDC7FD64EB21E047A839171B SWAP1 PUSH1 0x60 ADD PUSH1 0x40 MLOAD DUP1 SWAP2 SUB SWAP1 LOG1 POP POP POP JUMP JUMPDEST PUSH0 DUP3 DUP2 MSTORE PUSH1 0x20 DUP5 DUP2 MSTORE PUSH1 0x40 DUP1 DUP4 KECCAK256 PUSH20 0xFFFFFFFFFFFFFFFFFFFFFFFFFFFFFFFFFFFFFFFF DUP6 AND DUP5 MSTORE SWAP1 SWAP2 MSTORE SWAP1 KECCAK256 SLOAD PUSH1 0xFF AND PUSH2 0x5C6 JUMPI PUSH1 0x40 MLOAD PUSH32 0x7AA7288200000000000000000000000000000000000000000000000000000000 DUP2 MSTORE PUSH1 0x4 DUP2 ADD DUP4 SWAP1 MSTORE PUSH20 0xFFFFFFFFFFFFFFFFFFFFFFFFFFFFFFFFFFFFFFFF DUP3 AND PUSH1 0x24 DUP3 ADD MSTORE PUSH1 0x44 ADD PUSH2 0x555 JUMP JUMPDEST PUSH0 DUP4 DUP2 MSTORE PUSH1 0x20 DUP6 DUP2 MSTORE PUSH1 0x40 DUP1 DUP4 KECCAK256 PUSH20 0xFFFFFFFFFFFFFFFFFFFFFFFFFFFFFFFFFFFFFFFF DUP7 AND DUP5 MSTORE SWAP1 SWAP2 MSTORE SWAP1 KECCAK256 SLOAD PUSH1 0xFF AND ISZERO PUSH2 0x81F JUMPI PUSH0 DUP4 DUP2 MSTORE PUSH1 0x20 DUP6 DUP2 MSTORE PUSH1 0x40 DUP1 DUP4 KECCAK256 PUSH20 0xFFFFFFFFFFFFFFFFFFFFFFFFFFFFFFFFFFFFFFFF DUP7 DUP2 AND DUP1 DUP7 MSTORE SWAP2 DUP5 MSTORE SWAP4 DUP3 SWAP1 KECCAK256 DUP1 SLOAD PUSH32 0xFFFFFFFFFFFFFFFFFFFFFFFFFFFFFFFFFFFFFFFFFFFFFFFFFFFFFFFFFFFFFF00 AND SWAP1 SSTORE DUP2 MLOAD DUP8 DUP2 MSTORE SWAP3 DUP4 ADD MSTORE SWAP2 DUP4 AND SWAP2 DUP2 ADD SWAP2 SWAP1 SWAP2 MSTORE PUSH32 0xF6391F5C32D9C69D2A47EA670B442974B53935D1EDC7FD64EB21E047A839171B SWAP1 PUSH1 0x60 ADD PUSH2 0x17EC JUMP JUMPDEST DUP3 SLOAD PUSH20 0xFFFFFFFFFFFFFFFFFFFFFFFFFFFFFFFFFFFFFFFF SWAP1 DUP2 AND SWAP1 DUP4 AND DUP2 EQ PUSH2 0x1C32 JUMPI PUSH1 0x40 MLOAD PUSH32 0x2EF4875E00000000000000000000000000000000000000000000000000000000 DUP2 MSTORE PUSH20 0xFFFFFFFFFFFFFFFFFFFFFFFFFFFFFFFFFFFFFFFF DUP5 AND PUSH1 0x4 DUP3 ADD MSTORE PUSH1 0x24 ADD PUSH2 0x555 JUMP JUMPDEST DUP2 PUSH20 0xFFFFFFFFFFFFFFFFFFFFFFFFFFFFFFFFFFFFFFFF AND DUP2 PUSH20 0xFFFFFFFFFFFFFFFFFFFFFFFFFFFFFFFFFFFFFFFF AND EQ PUSH2 0x81F JUMPI DUP4 SLOAD PUSH32 0xFFFFFFFFFFFFFFFFFFFFFFFF0000000000000000000000000000000000000000 AND PUSH20 0xFFFFFFFFFFFFFFFFFFFFFFFFFFFFFFFFFFFFFFFF DUP4 DUP2 AND SWAP2 DUP3 OR DUP7 SSTORE PUSH1 0x40 MLOAD SWAP1 DUP4 AND SWAP1 PUSH32 0x8BE0079C531659141344CD1FD0A4F28419497F9722A3DAAFE3B4186F6B6457E0 SWAP1 PUSH0 SWAP1 LOG3 POP POP POP POP JUMP JUMPDEST DUP1 SELFBALANCE LT ISZERO PUSH2 0x1D42 JUMPI PUSH1 0x40 MLOAD PUSH32 0x8C379A000000000000000000000000000000000000000000000000000000000 DUP2 MSTORE PUSH1 0x20 PUSH1 0x4 DUP3 ADD MSTORE PUSH1 0x1D PUSH1 0x24 DUP3 ADD MSTORE PUSH32 0x416464726573733A20696E73756666696369656E742062616C616E6365000000 PUSH1 0x44 DUP3 ADD MSTORE PUSH1 0x64 ADD PUSH2 0x555 JUMP JUMPDEST PUSH0 DUP3 PUSH20 0xFFFFFFFFFFFFFFFFFFFFFFFFFFFFFFFFFFFFFFFF AND DUP3 PUSH1 0x40 MLOAD PUSH0 PUSH1 0x40 MLOAD DUP1 DUP4 SUB DUP2 DUP6 DUP8 GAS CALL SWAP3 POP POP POP RETURNDATASIZE DUP1 PUSH0 DUP2 EQ PUSH2 0x1D98 JUMPI PUSH1 0x40 MLOAD SWAP2 POP PUSH1 0x1F NOT PUSH1 0x3F RETURNDATASIZE ADD AND DUP3 ADD PUSH1 0x40 MSTORE RETURNDATASIZE DUP3 MSTORE RETURNDATASIZE PUSH0 PUSH1 0x20 DUP5 ADD RETURNDATACOPY PUSH2 0x1D9D JUMP JUMPDEST PUSH1 0x60 SWAP2 POP JUMPDEST POP POP SWAP1 POP DUP1 PUSH2 0x5C6 JUMPI PUSH1 0x40 MLOAD PUSH32 0x8C379A000000000000000000000000000000000000000000000000000000000 DUP2 MSTORE PUSH1 0x20 PUSH1 0x4 DUP3 ADD MSTORE PUSH1 0x3A PUSH1 0x24 DUP3 ADD MSTORE PUSH32 0x416464726573733A20756E61626C6520746F2073656E642076616C75652C2072 PUSH1 0x44 DUP3 ADD MSTORE PUSH32 0x6563697069656E74206D61792068617665207265766572746564000000000000 PUSH1 0x64 DUP3 ADD MSTORE PUSH1 0x84 ADD PUSH2 0x555 JUMP JUMPDEST PUSH0 CALLER ORIGIN EQ DUP1 PUSH2 0x1E3D JUMPI POP PUSH1 0x18 CALLDATASIZE LT JUMPDEST ISZERO PUSH2 0x1E47 JUMPI POP CALLER SWAP1 JUMP JUMPDEST PUSH32 0xFFFFFFFFFFFFFFFFFFFFFFFFFFFFFFFFFFFFFFFFFFFFFFFFFFFFFFFFFFFFFFEC CALLDATASIZE ADD CALLDATALOAD PUSH1 0x60 SHR PUSH32 0x0 PUSH20 0xFFFFFFFFFFFFFFFFFFFFFFFFFFFFFFFFFFFFFFFF AND CALLER EQ DUP1 PUSH2 0x1F61 JUMPI POP PUSH1 0x40 MLOAD PUSH32 0x8929A8CA00000000000000000000000000000000000000000000000000000000 DUP2 MSTORE PUSH20 0xFFFFFFFFFFFFFFFFFFFFFFFFFFFFFFFFFFFFFFFF DUP3 DUP2 AND PUSH1 0x4 DUP4 ADD MSTORE CALLER PUSH1 0x24 DUP4 ADD MSTORE PUSH32 0x0 AND SWAP1 PUSH4 0x8929A8CA SWAP1 PUSH1 0x44 ADD PUSH1 0x20 PUSH1 0x40 MLOAD DUP1 DUP4 SUB DUP2 DUP7 GAS STATICCALL ISZERO DUP1 ISZERO PUSH2 0x1F3D JUMPI RETURNDATASIZE PUSH0 DUP1 RETURNDATACOPY RETURNDATASIZE PUSH0 REVERT JUMPDEST POP POP POP POP PUSH1 0x40 MLOAD RETURNDATASIZE PUSH1 0x1F NOT PUSH1 0x1F DUP3 ADD AND DUP3 ADD DUP1 PUSH1 0x40 MSTORE POP DUP2 ADD SWAP1 PUSH2 0x1F61 SWAP2 SWAP1 PUSH2 0x267C JUMP JUMPDEST ISZERO PUSH2 0x1F6B JUMPI SWAP2 SWAP1 POP JUMP JUMPDEST CALLER SWAP2 POP POP SWAP1 JUMP JUMPDEST PUSH1 0x40 DUP1 MLOAD PUSH20 0xFFFFFFFFFFFFFFFFFFFFFFFFFFFFFFFFFFFFFFFF DUP5 DUP2 AND PUSH1 0x24 DUP4 ADD MSTORE PUSH1 0x44 DUP1 DUP4 ADD DUP6 SWAP1 MSTORE DUP4 MLOAD DUP1 DUP5 SUB SWAP1 SWAP2 ADD DUP2 MSTORE PUSH1 0x64 SWAP1 SWAP3 ADD DUP4 MSTORE PUSH1 0x20 DUP1 DUP4 ADD DUP1 MLOAD PUSH28 0xFFFFFFFFFFFFFFFFFFFFFFFFFFFFFFFFFFFFFFFFFFFFFFFFFFFFFFFF AND PUSH32 0xA9059CBB00000000000000000000000000000000000000000000000000000000 OR SWAP1 MSTORE DUP4 MLOAD DUP1 DUP6 ADD SWAP1 SWAP5 MSTORE DUP1 DUP5 MSTORE PUSH32 0x5361666545524332303A206C6F772D6C6576656C2063616C6C206661696C6564 SWAP1 DUP5 ADD MSTORE PUSH2 0x5C6 SWAP3 DUP7 SWAP3 SWAP2 PUSH0 SWAP2 PUSH2 0x203C SWAP2 DUP6 AND SWAP1 DUP5 SWAP1 PUSH2 0x20E8 JUMP JUMPDEST SWAP1 POP DUP1 MLOAD PUSH0 EQ DUP1 PUSH2 0x205C JUMPI POP DUP1 DUP1 PUSH1 0x20 ADD SWAP1 MLOAD DUP2 ADD SWAP1 PUSH2 0x205C SWAP2 SWAP1 PUSH2 0x267C JUMP JUMPDEST PUSH2 0x5C6 JUMPI PUSH1 0x40 MLOAD PUSH32 0x8C379A000000000000000000000000000000000000000000000000000000000 DUP2 MSTORE PUSH1 0x20 PUSH1 0x4 DUP3 ADD MSTORE PUSH1 0x2A PUSH1 0x24 DUP3 ADD MSTORE PUSH32 0x5361666545524332303A204552433230206F7065726174696F6E20646964206E PUSH1 0x44 DUP3 ADD MSTORE PUSH32 0x6F74207375636365656400000000000000000000000000000000000000000000 PUSH1 0x64 DUP3 ADD MSTORE PUSH1 0x84 ADD PUSH2 0x555 JUMP JUMPDEST PUSH1 0x60 PUSH2 0x20F6 DUP5 DUP5 PUSH0 DUP6 PUSH2 0x20FE JUMP JUMPDEST SWAP5 SWAP4 POP POP POP POP JUMP JUMPDEST PUSH1 0x60 DUP3 SELFBALANCE LT ISZERO PUSH2 0x2190 JUMPI PUSH1 0x40 MLOAD PUSH32 0x8C379A000000000000000000000000000000000000000000000000000000000 DUP2 MSTORE PUSH1 0x20 PUSH1 0x4 DUP3 ADD MSTORE PUSH1 0x26 PUSH1 0x24 DUP3 ADD MSTORE PUSH32 0x416464726573733A20696E73756666696369656E742062616C616E636520666F PUSH1 0x44 DUP3 ADD MSTORE PUSH32 0x722063616C6C0000000000000000000000000000000000000000000000000000 PUSH1 0x64 DUP3 ADD MSTORE PUSH1 0x84 ADD PUSH2 0x555 JUMP JUMPDEST PUSH0 DUP1 DUP7 PUSH20 0xFFFFFFFFFFFFFFFFFFFFFFFFFFFFFFFFFFFFFFFF AND DUP6 DUP8 PUSH1 0x40 MLOAD PUSH2 0x21B8 SWAP2 SWAP1 PUSH2 0x28B0 JUMP JUMPDEST PUSH0 PUSH1 0x40 MLOAD DUP1 DUP4 SUB DUP2 DUP6 DUP8 GAS CALL SWAP3 POP POP POP RETURNDATASIZE DUP1 PUSH0 DUP2 EQ PUSH2 0x21F2 JUMPI PUSH1 0x40 MLOAD SWAP2 POP PUSH1 0x1F NOT PUSH1 0x3F RETURNDATASIZE ADD AND DUP3 ADD PUSH1 0x40 MSTORE RETURNDATASIZE DUP3 MSTORE RETURNDATASIZE PUSH0 PUSH1 0x20 DUP5 ADD RETURNDATACOPY PUSH2 0x21F7 JUMP JUMPDEST PUSH1 0x60 SWAP2 POP JUMPDEST POP SWAP2 POP SWAP2 POP PUSH2 0x2208 DUP8 DUP4 DUP4 DUP8 PUSH2 0x2213 JUMP JUMPDEST SWAP8 SWAP7 POP POP POP POP POP POP POP JUMP JUMPDEST PUSH1 0x60 DUP4 ISZERO PUSH2 0x22A8 JUMPI DUP3 MLOAD PUSH0 SUB PUSH2 0x22A1 JUMPI PUSH20 0xFFFFFFFFFFFFFFFFFFFFFFFFFFFFFFFFFFFFFFFF DUP6 AND EXTCODESIZE PUSH2 0x22A1 JUMPI PUSH1 0x40 MLOAD PUSH32 0x8C379A000000000000000000000000000000000000000000000000000000000 DUP2 MSTORE PUSH1 0x20 PUSH1 0x4 DUP3 ADD MSTORE PUSH1 0x1D PUSH1 0x24 DUP3 ADD MSTORE PUSH32 0x416464726573733A2063616C6C20746F206E6F6E2D636F6E7472616374000000 PUSH1 0x44 DUP3 ADD MSTORE PUSH1 0x64 ADD PUSH2 0x555 JUMP JUMPDEST POP DUP2 PUSH2 0x20F6 JUMP JUMPDEST PUSH2 0x20F6 DUP4 DUP4 DUP2 MLOAD ISZERO PUSH2 0x22BD JUMPI DUP2 MLOAD DUP1 DUP4 PUSH1 0x20 ADD REVERT JUMPDEST DUP1 PUSH1 0x40 MLOAD PUSH32 0x8C379A000000000000000000000000000000000000000000000000000000000 DUP2 MSTORE PUSH1 0x4 ADD PUSH2 0x555 SWAP2 SWAP1 PUSH2 0x28CB JUMP JUMPDEST PUSH0 PUSH1 0x20 DUP3 DUP5 SUB SLT ISZERO PUSH2 0x2301 JUMPI PUSH0 DUP1 REVERT JUMPDEST DUP2 CALLDATALOAD PUSH32 0xFFFFFFFF00000000000000000000000000000000000000000000000000000000 DUP2 AND DUP2 EQ PUSH2 0xEA0 JUMPI PUSH0 DUP1 REVERT JUMPDEST PUSH20 0xFFFFFFFFFFFFFFFFFFFFFFFFFFFFFFFFFFFFFFFF DUP2 AND DUP2 EQ PUSH2 0xC31 JUMPI PUSH0 DUP1 REVERT JUMPDEST PUSH0 PUSH1 0x20 DUP3 DUP5 SUB SLT ISZERO PUSH2 0x2361 JUMPI PUSH0 DUP1 REVERT JUMPDEST DUP2 CALLDATALOAD PUSH2 0xEA0 DUP2 PUSH2 0x2330 JUMP JUMPDEST PUSH0 PUSH1 0x20 DUP3 DUP5 SUB SLT ISZERO PUSH2 0x237C JUMPI PUSH0 DUP1 REVERT JUMPDEST POP CALLDATALOAD SWAP2 SWAP1 POP JUMP JUMPDEST PUSH0 DUP1 PUSH1 0x40 DUP4 DUP6 SUB SLT ISZERO PUSH2 0x2394 JUMPI PUSH0 DUP1 REVERT JUMPDEST DUP3 CALLDATALOAD SWAP2 POP PUSH1 0x20 DUP4 ADD CALLDATALOAD PUSH2 0x23A6 DUP2 PUSH2 0x2330 JUMP JUMPDEST DUP1 SWAP2 POP POP SWAP3 POP SWAP3 SWAP1 POP JUMP JUMPDEST PUSH0 DUP1 PUSH0 DUP1 PUSH0 PUSH1 0x80 DUP7 DUP9 SUB SLT ISZERO PUSH2 0x23C5 JUMPI PUSH0 DUP1 REVERT JUMPDEST DUP6 CALLDATALOAD PUSH2 0x23D0 DUP2 PUSH2 0x2330 JUMP JUMPDEST SWAP5 POP PUSH1 0x20 DUP7 ADD CALLDATALOAD PUSH2 0x23E0 DUP2 PUSH2 0x2330 JUMP JUMPDEST SWAP4 POP PUSH1 0x40 DUP7 ADD CALLDATALOAD SWAP3 POP PUSH1 0x60 DUP7 ADD CALLDATALOAD PUSH8 0xFFFFFFFFFFFFFFFF DUP1 DUP3 GT ISZERO PUSH2 0x2403 JUMPI PUSH0 DUP1 REVERT JUMPDEST DUP2 DUP9 ADD SWAP2 POP DUP9 PUSH1 0x1F DUP4 ADD SLT PUSH2 0x2416 JUMPI PUSH0 DUP1 REVERT JUMPDEST DUP2 CALLDATALOAD DUP2 DUP2 GT ISZERO PUSH2 0x2424 JUMPI PUSH0 DUP1 REVERT JUMPDEST DUP10 PUSH1 0x20 DUP3 DUP6 ADD ADD GT ISZERO PUSH2 0x2435 JUMPI PUSH0 DUP1 REVERT JUMPDEST SWAP7 SWAP10 SWAP6 SWAP9 POP SWAP4 SWAP7 POP PUSH1 0x20 ADD SWAP5 SWAP4 SWAP3 POP POP POP JUMP JUMPDEST PUSH0 DUP1 DUP4 PUSH1 0x1F DUP5 ADD SLT PUSH2 0x2458 JUMPI PUSH0 DUP1 REVERT JUMPDEST POP DUP2 CALLDATALOAD PUSH8 0xFFFFFFFFFFFFFFFF DUP2 GT ISZERO PUSH2 0x246F JUMPI PUSH0 DUP1 REVERT JUMPDEST PUSH1 0x20 DUP4 ADD SWAP2 POP DUP4 PUSH1 0x20 DUP3 PUSH1 0x5 SHL DUP6 ADD ADD GT ISZERO PUSH2 0x2489 JUMPI PUSH0 DUP1 REVERT JUMPDEST SWAP3 POP SWAP3 SWAP1 POP JUMP JUMPDEST PUSH0 DUP1 PUSH0 DUP1 PUSH0 DUP1 PUSH0 DUP1 PUSH1 0x80 DUP10 DUP12 SUB SLT ISZERO PUSH2 0x24A7 JUMPI PUSH0 DUP1 REVERT JUMPDEST DUP9 CALLDATALOAD PUSH8 0xFFFFFFFFFFFFFFFF DUP1 DUP3 GT ISZERO PUSH2 0x24BE JUMPI PUSH0 DUP1 REVERT JUMPDEST PUSH2 0x24CA DUP13 DUP4 DUP14 ADD PUSH2 0x2448 JUMP JUMPDEST SWAP1 SWAP11 POP SWAP9 POP PUSH1 0x20 DUP12 ADD CALLDATALOAD SWAP2 POP DUP1 DUP3 GT ISZERO PUSH2 0x24E2 JUMPI PUSH0 DUP1 REVERT JUMPDEST PUSH2 0x24EE DUP13 DUP4 DUP14 ADD PUSH2 0x2448 JUMP JUMPDEST SWAP1 SWAP9 POP SWAP7 POP PUSH1 0x40 DUP12 ADD CALLDATALOAD SWAP2 POP DUP1 DUP3 GT ISZERO PUSH2 0x2506 JUMPI PUSH0 DUP1 REVERT JUMPDEST PUSH2 0x2512 DUP13 DUP4 DUP14 ADD PUSH2 0x2448 JUMP JUMPDEST SWAP1 SWAP7 POP SWAP5 POP PUSH1 0x60 DUP12 ADD CALLDATALOAD SWAP2 POP DUP1 DUP3 GT ISZERO PUSH2 0x252A JUMPI PUSH0 DUP1 REVERT JUMPDEST POP PUSH2 0x2537 DUP12 DUP3 DUP13 ADD PUSH2 0x2448 JUMP JUMPDEST SWAP10 SWAP13 SWAP9 SWAP12 POP SWAP7 SWAP10 POP SWAP5 SWAP8 SWAP4 SWAP7 SWAP3 SWAP6 SWAP5 POP POP POP JUMP JUMPDEST PUSH0 DUP1 PUSH0 DUP1 PUSH0 DUP1 PUSH1 0x60 DUP8 DUP10 SUB SLT ISZERO PUSH2 0x2560 JUMPI PUSH0 DUP1 REVERT JUMPDEST DUP7 CALLDATALOAD PUSH8 0xFFFFFFFFFFFFFFFF DUP1 DUP3 GT ISZERO PUSH2 0x2577 JUMPI PUSH0 DUP1 REVERT JUMPDEST PUSH2 0x2583 DUP11 DUP4 DUP12 ADD PUSH2 0x2448 JUMP JUMPDEST SWAP1 SWAP9 POP SWAP7 POP PUSH1 0x20 DUP10 ADD CALLDATALOAD SWAP2 POP DUP1 DUP3 GT ISZERO PUSH2 0x259B JUMPI PUSH0 DUP1 REVERT JUMPDEST PUSH2 0x25A7 DUP11 DUP4 DUP12 ADD PUSH2 0x2448 JUMP JUMPDEST SWAP1 SWAP7 POP SWAP5 POP PUSH1 0x40 DUP10 ADD CALLDATALOAD SWAP2 POP DUP1 DUP3 GT ISZERO PUSH2 0x25BF JUMPI PUSH0 DUP1 REVERT JUMPDEST POP PUSH2 0x25CC DUP10 DUP3 DUP11 ADD PUSH2 0x2448 JUMP JUMPDEST SWAP8 SWAP11 SWAP7 SWAP10 POP SWAP5 SWAP8 POP SWAP3 SWAP6 SWAP4 SWAP5 SWAP3 POP POP POP JUMP JUMPDEST PUSH0 DUP1 PUSH1 0x40 DUP4 DUP6 SUB SLT ISZERO PUSH2 0x25EF JUMPI PUSH0 DUP1 REVERT JUMPDEST DUP3 CALLDATALOAD PUSH2 0x25FA DUP2 PUSH2 0x2330 JUMP JUMPDEST SWAP5 PUSH1 0x20 SWAP4 SWAP1 SWAP4 ADD CALLDATALOAD SWAP4 POP POP POP JUMP JUMPDEST PUSH0 DUP1 PUSH0 DUP1 PUSH1 0x40 DUP6 DUP8 SUB SLT ISZERO PUSH2 0x261B JUMPI PUSH0 DUP1 REVERT JUMPDEST DUP5 CALLDATALOAD PUSH8 0xFFFFFFFFFFFFFFFF DUP1 DUP3 GT ISZERO PUSH2 0x2632 JUMPI PUSH0 DUP1 REVERT JUMPDEST PUSH2 0x263E DUP9 DUP4 DUP10 ADD PUSH2 0x2448 JUMP JUMPDEST SWAP1 SWAP7 POP SWAP5 POP PUSH1 0x20 DUP8 ADD CALLDATALOAD SWAP2 POP DUP1 DUP3 GT ISZERO PUSH2 0x2656 JUMPI PUSH0 DUP1 REVERT JUMPDEST POP PUSH2 0x2663 DUP8 DUP3 DUP9 ADD PUSH2 0x2448 JUMP JUMPDEST SWAP6 SWAP9 SWAP5 SWAP8 POP SWAP6 POP POP POP POP JUMP JUMPDEST DUP1 ISZERO ISZERO DUP2 EQ PUSH2 0xC31 JUMPI PUSH0 DUP1 REVERT JUMPDEST PUSH0 PUSH1 0x20 DUP3 DUP5 SUB SLT ISZERO PUSH2 0x268C JUMPI PUSH0 DUP1 REVERT JUMPDEST DUP2 MLOAD PUSH2 0xEA0 DUP2 PUSH2 0x266F JUMP JUMPDEST PUSH32 0x4E487B7100000000000000000000000000000000000000000000000000000000 PUSH0 MSTORE PUSH1 0x11 PUSH1 0x4 MSTORE PUSH1 0x24 PUSH0 REVERT JUMPDEST DUP2 DUP2 SUB DUP2 DUP2 GT ISZERO PUSH2 0x4FC JUMPI PUSH2 0x4FC PUSH2 0x2697 JUMP JUMPDEST DUP1 DUP3 ADD DUP1 DUP3 GT ISZERO PUSH2 0x4FC JUMPI PUSH2 0x4FC PUSH2 0x2697 JUMP JUMPDEST PUSH32 0x4E487B7100000000000000000000000000000000000000000000000000000000 PUSH0 MSTORE PUSH1 0x32 PUSH1 0x4 MSTORE PUSH1 0x24 PUSH0 REVERT JUMPDEST PUSH0 PUSH1 0x20 DUP3 DUP5 SUB SLT ISZERO PUSH2 0x2727 JUMPI PUSH0 DUP1 REVERT JUMPDEST DUP2 CALLDATALOAD PUSH2 0xEA0 DUP2 PUSH2 0x266F JUMP JUMPDEST PUSH0 PUSH32 0xFFFFFFFFFFFFFFFFFFFFFFFFFFFFFFFFFFFFFFFFFFFFFFFFFFFFFFFFFFFFFFFF DUP3 SUB PUSH2 0x2762 JUMPI PUSH2 0x2762 PUSH2 0x2697 JUMP JUMPDEST POP PUSH1 0x1 ADD SWAP1 JUMP JUMPDEST DUP2 DUP4 MSTORE PUSH0 PUSH32 0x7FFFFFFFFFFFFFFFFFFFFFFFFFFFFFFFFFFFFFFFFFFFFFFFFFFFFFFFFFFFFFF DUP4 GT ISZERO PUSH2 0x2799 JUMPI PUSH0 DUP1 REVERT JUMPDEST DUP3 PUSH1 0x5 SHL DUP1 DUP4 PUSH1 0x20 DUP8 ADD CALLDATACOPY SWAP4 SWAP1 SWAP4 ADD PUSH1 0x20 ADD SWAP4 SWAP3 POP POP POP JUMP JUMPDEST PUSH1 0x80 DUP1 DUP3 MSTORE DUP2 ADD DUP9 SWAP1 MSTORE PUSH0 DUP10 PUSH1 0xA0 DUP4 ADD DUP3 JUMPDEST DUP12 DUP2 LT ISZERO PUSH2 0x2801 JUMPI DUP3 CALLDATALOAD PUSH2 0x27D7 DUP2 PUSH2 0x2330 JUMP JUMPDEST PUSH20 0xFFFFFFFFFFFFFFFFFFFFFFFFFFFFFFFFFFFFFFFF AND DUP3 MSTORE PUSH1 0x20 SWAP3 DUP4 ADD SWAP3 SWAP1 SWAP2 ADD SWAP1 PUSH1 0x1 ADD PUSH2 0x27C4 JUMP JUMPDEST POP PUSH1 0x20 SWAP2 POP DUP4 DUP2 SUB DUP3 DUP6 ADD MSTORE PUSH2 0x2818 DUP2 DUP11 DUP13 PUSH2 0x2769 JUMP JUMPDEST SWAP1 POP DUP4 DUP2 SUB PUSH1 0x40 DUP6 ADD MSTORE PUSH2 0x282D DUP2 DUP9 DUP11 PUSH2 0x2769 JUMP JUMPDEST DUP5 DUP2 SUB PUSH1 0x60 DUP7 ADD MSTORE DUP6 DUP2 MSTORE DUP7 SWAP2 POP DUP3 ADD PUSH0 JUMPDEST DUP7 DUP2 LT ISZERO PUSH2 0x2866 JUMPI DUP3 CALLDATALOAD PUSH2 0x2852 DUP2 PUSH2 0x266F JUMP JUMPDEST ISZERO ISZERO DUP3 MSTORE SWAP2 DUP4 ADD SWAP2 SWAP1 DUP4 ADD SWAP1 PUSH1 0x1 ADD PUSH2 0x283F JUMP JUMPDEST POP SWAP13 SWAP12 POP POP POP POP POP POP POP POP POP POP POP POP JUMP JUMPDEST PUSH0 PUSH1 0x20 DUP3 DUP5 SUB SLT ISZERO PUSH2 0x2887 JUMPI PUSH0 DUP1 REVERT JUMPDEST POP MLOAD SWAP2 SWAP1 POP JUMP JUMPDEST PUSH0 JUMPDEST DUP4 DUP2 LT ISZERO PUSH2 0x28A8 JUMPI DUP2 DUP2 ADD MLOAD DUP4 DUP3 ADD MSTORE PUSH1 0x20 ADD PUSH2 0x2890 JUMP JUMPDEST POP POP PUSH0 SWAP2 ADD MSTORE JUMP JUMPDEST PUSH0 DUP3 MLOAD PUSH2 0x28C1 DUP2 DUP5 PUSH1 0x20 DUP8 ADD PUSH2 0x288E JUMP JUMPDEST SWAP2 SWAP1 SWAP2 ADD SWAP3 SWAP2 POP POP JUMP JUMPDEST PUSH1 0x20 DUP2 MSTORE PUSH0 DUP3 MLOAD DUP1 PUSH1 0x20 DUP5 ADD MSTORE PUSH2 0x28E9 DUP2 PUSH1 0x40 DUP6 ADD PUSH1 0x20 DUP8 ADD PUSH2 0x288E JUMP JUMPDEST PUSH1 0x1F ADD PUSH32 0xFFFFFFFFFFFFFFFFFFFFFFFFFFFFFFFFFFFFFFFFFFFFFFFFFFFFFFFFFFFFFFE0 AND SWAP2 SWAP1 SWAP2 ADD PUSH1 0x40 ADD SWAP3 SWAP2 POP POP JUMP INVALID LOG2 PUSH5 0x6970667358 0x22 SLT KECCAK256 STOP DUP6 PUSH13 0x3252CA394439AA1C15AC238579 MULMOD RETURNDATACOPY 0x5E DUP15 GAS 0x5E SWAP16 0xC SWAP10 MSTORE8 SWAP12 0xCD 0xC4 0xF ISZERO MUL PUSH5 0x736F6C6343 STOP ADDMOD ISZERO STOP CALLER "},"gasEstimates":{"creation":{"codeDepositCost":"2115400","executionCost":"infinite","totalCost":"infinite"},"external":{"DEPOSIT_PHASE()":"239","EDU_TOKEN()":"infinite","INIT_PHASE()":"282","SALE_PHASE()":"285","SPENDER_ROLE()":"305","UNCLAIMED_EDU_HOLDER()":"infinite","WITHDRAW_PHASE()":"284","currentPhase()":"2362","forwarderRegistry()":"infinite","grantRole(bytes32,address)":"infinite","hasRole(bytes32,address)":"infinite","isTrustedForwarder(address)":"infinite","onERC20Received(address,address,uint256,bytes)":"infinite","owner()":"infinite","payoutWallet()":"infinite","recoverERC20s(address[],address[],uint256[])":"infinite","recoverERC721s(address[],address[],uint256[])":"infinite","recoverETH(address[],uint256[])":"infinite","renounceRole(bytes32)":"infinite","revokeRole(bytes32,address)":"infinite","setInitialCredits(address[],uint256[],uint256[],bool[])":"infinite","setPayoutWallet(address)":"infinite","setPhase(uint256)":"infinite","spend(address,uint256)":"infinite","supportsInterface(bytes4)":"infinite","totalCredits()":"2383","totalDeposited()":"2404","transferOwnership(address)":"infinite","userCredits(address)":"8964","withdraw()":"infinite"},"internal":{"_msgData()":"infinite","_msgSender()":"infinite"}},"methodIdentifiers":{"DEPOSIT_PHASE()":"ad6b333b","EDU_TOKEN()":"5df2dcbc","INIT_PHASE()":"8de17b74","SALE_PHASE()":"148c2b5a","SPENDER_ROLE()":"72c16a24","UNCLAIMED_EDU_HOLDER()":"51887302","WITHDRAW_PHASE()":"8b785d49","currentPhase()":"055ad42e","forwarderRegistry()":"2b4c9f16","grantRole(bytes32,address)":"2f2ff15d","hasRole(bytes32,address)":"91d14854","isTrustedForwarder(address)":"572b6c05","onERC20Received(address,address,uint256,bytes)":"4fc35859","owner()":"8da5cb5b","payoutWallet()":"8488bb4e","recoverERC20s(address[],address[],uint256[])":"73c8a958","recoverERC721s(address[],address[],uint256[])":"c3666c36","recoverETH(address[],uint256[])":"f7ba94bd","renounceRole(bytes32)":"8bb9c5bf","revokeRole(bytes32,address)":"d547741f","setInitialCredits(address[],uint256[],uint256[],bool[])":"687f34e0","setPayoutWallet(address)":"6b8f9c43","setPhase(uint256)":"2cc82655","spend(address,uint256)":"af7d6ca3","supportsInterface(bytes4)":"01ffc9a7","totalCredits()":"b5bd3eb9","totalDeposited()":"ff50abdc","transferOwnership(address)":"f2fde38b","userCredits(address)":"20babb92","withdraw()":"3ccfd60b"}},"storageLayout":{"storage":[{"astId":4854,"contract":"contracts/payment/EDUCreditsManager.sol:EDUCreditsManager","label":"currentPhase","offset":0,"slot":"0","type":"t_uint256"},{"astId":4859,"contract":"contracts/payment/EDUCreditsManager.sol:EDUCreditsManager","label":"userCredits","offset":0,"slot":"1","type":"t_mapping(t_address,t_struct(UserCredits)4831_storage)"},{"astId":4862,"contract":"contracts/payment/EDUCreditsManager.sol:EDUCreditsManager","label":"totalCredits","offset":0,"slot":"2","type":"t_uint256"},{"astId":4865,"contract":"contracts/payment/EDUCreditsManager.sol:EDUCreditsManager","label":"totalDeposited","offset":0,"slot":"3","type":"t_uint256"}],"types":{"t_address":{"encoding":"inplace","label":"address","numberOfBytes":"20"},"t_bool":{"encoding":"inplace","label":"bool","numberOfBytes":"1"},"t_mapping(t_address,t_struct(UserCredits)4831_storage)":{"encoding":"mapping","key":"t_address","label":"mapping(address => struct EDUCreditsManager.UserCredits)","numberOfBytes":"32","value":"t_struct(UserCredits)4831_storage"},"t_struct(UserCredits)4831_storage":{"encoding":"inplace","label":"struct EDUCreditsManager.UserCredits","members":[{"astId":4824,"contract":"contracts/payment/EDUCreditsManager.sol:EDUCreditsManager","label":"unclaimed","offset":0,"slot":"0","type":"t_uint256"},{"astId":4826,"contract":"contracts/payment/EDUCreditsManager.sol:EDUCreditsManager","label":"bonus","offset":0,"slot":"1","type":"t_uint256"},{"astId":4828,"contract":"contracts/payment/EDUCreditsManager.sol:EDUCreditsManager","label":"deposited","offset":0,"slot":"2","type":"t_uint256"},{"astId":4830,"contract":"contracts/payment/EDUCreditsManager.sol:EDUCreditsManager","label":"diamondHand","offset":0,"slot":"3","type":"t_bool"}],"numberOfBytes":"128"},"t_uint256":{"encoding":"inplace","label":"uint256","numberOfBytes":"32"}}},"userdoc":{"errors":{"IllegalInterfaceId()":[{"notice":"Thrown when setting the illegal interfaceId 0xffffffff."}],"InconsistentArrayLengths()":[{"notice":"Thrown when the multiple related arrays have different lengths."}],"InsufficientCredits(address,address,uint256)":[{"notice":"Thrown when trying to spend more credits than the user has."}],"NotContractOwner(address)":[{"notice":"Thrown when an account is not the contract owner but is required to."}],"NotRoleHolder(bytes32,address)":[{"notice":"Thrown when an account does not have the required role."}],"OnlyDuringPhase(uint256,uint256)":[{"notice":"Thrown when an action is performed during the wrong phase."}],"SettingInvalidPhase(uint256)":[{"notice":"Thrown when the phase being set is invalid."}],"UnrecoverableEDU(uint256,uint256)":[{"notice":"Thrown when trying to recover more EDU tokens than accidentally sent to this contract."}],"UserCreditsAlreadySet(address)":[{"notice":"Thrown when setting the initial credits for a user whose credits have already been set."}],"ZeroAddressPayoutWallet()":[{"notice":"Thrown when setting the zero address as the payout wallet."}],"ZeroAddressUser()":[{"notice":"Thrown when setting the initial credits for a zero address user."}],"ZeroSpendAmount(address,address)":[{"notice":"Thrown when trying to spend zero credits."}],"ZeroValueUnclaimedCredits(address)":[{"notice":"Thrown when setting the initial credits for a user with zero unclaimed credits."}]},"events":{"CreditsSpent(address,address,uint256,uint256,uint256)":{"notice":"Emitted when credits are spent."},"InitialCreditsSet(address[],uint256[],uint256[],bool[])":{"notice":"Emitted when the initial credits are set."},"OwnershipTransferred(address,address)":{"notice":"Emitted when the contract ownership changes."},"PayoutWalletSet(address)":{"notice":"Emitted when the payout wallet address changes."},"PhaseSet(uint256)":{"notice":"Emitted when the current phase is set."},"RoleGranted(bytes32,address,address)":{"notice":"Emitted when `role` is granted to `account`."},"RoleRevoked(bytes32,address,address)":{"notice":"Emitted when `role` is revoked from `account`."}},"kind":"user","methods":{"grantRole(bytes32,address)":{"notice":"Grants a role to an account."},"hasRole(bytes32,address)":{"notice":"Retrieves whether an account has a role."},"isTrustedForwarder(address)":{"notice":"Checks whether a forwarder is trusted."},"onERC20Received(address,address,uint256,bytes)":{"notice":"Receives EDU tokens deposits from users during the deposit phase and adds them to the deposited amount."},"owner()":{"notice":"Gets the address of the contract owner."},"payoutWallet()":{"notice":"Gets the payout wallet."},"recoverERC20s(address[],address[],uint256[])":{"notice":"EDU tokens deposited to this contract through onERC20Received cannot be extracted via this function."},"recoverERC721s(address[],address[],uint256[])":{"notice":"Extract ERC721 tokens which were accidentally sent to the contract to a list of accounts."},"recoverETH(address[],uint256[])":{"notice":"Extract ETH tokens which were accidentally sent to the contract to a list of accounts."},"renounceRole(bytes32)":{"notice":"Renounces a role by the sender."},"revokeRole(bytes32,address)":{"notice":"Revokes a role from an account."},"setInitialCredits(address[],uint256[],uint256[],bool[])":{"notice":"Sets the unclaimed and bonus EDU credits for a list of users."},"setPayoutWallet(address)":{"notice":"Sets the payout wallet."},"setPhase(uint256)":{"notice":"Sets the current phase."},"spend(address,uint256)":{"notice":"Spends EDU tokens from the user's balance by a spender account.The credits are used in this order of priority: 1. bonus 2. unclaimed 3. deposited."},"supportsInterface(bytes4)":{"notice":"Returns whether this contract implements a given interface."},"totalCredits()":{"notice":"The total credits is the sum of all unclaimed, bonus and deposited credits.The total credits does not decrease when credits are spent or withdrawn."},"totalDeposited()":{"notice":"The total deposited is the sum of all deposited credits.The total deposited decreases when unclaimed credits are spent or withdrawn."},"transferOwnership(address)":{"notice":"Sets the address of the new contract owner."},"withdraw()":{"notice":"Withdraws all the remaining unclaimed and deposited EDU credits."}},"notice":"Manages the users credits of unclaimed and bonus EDU tokens previously acquired during the genesis sale (during the init phase).Handles the deposit of EDU tokens by users (during the deposit phase).Handles the spending of all 3 user credits (unclaimed, bonus and deposited) by a spender contract (during the sale phase).Handles the withdrawal of remaining deposited EDU by users (during the withdrawal phase).","version":1}}}}