{"contracts/mocks/land/RefereeMock.sol":{"RefereeMock":{"abi":[{"inputs":[{"internalType":"address","name":"nodeKey","type":"address"}],"stateMutability":"nonpayable","type":"constructor"},{"anonymous":false,"inputs":[{"indexed":true,"internalType":"uint256","name":"batchNumber","type":"uint256"},{"indexed":true,"internalType":"uint256","name":"nodeKeyId","type":"uint256"}],"name":"LogAttest","type":"event"},{"inputs":[],"name":"NODE_KEY","outputs":[{"internalType":"contract INodeKey","name":"","type":"address"}],"stateMutability":"view","type":"function"},{"inputs":[{"internalType":"uint256","name":"_batchNumber","type":"uint256"},{"internalType":"uint256","name":"_nodeKeyId","type":"uint256"}],"name":"attest","outputs":[],"stateMutability":"nonpayable","type":"function"},{"inputs":[{"internalType":"uint256","name":"_batchNumber","type":"uint256"},{"internalType":"uint256[]","name":"_nodeKeyIds","type":"uint256[]"}],"name":"batchAttest","outputs":[],"stateMutability":"nonpayable","type":"function"},{"inputs":[{"internalType":"uint256[]","name":"_nodeKeyIds","type":"uint256[]"},{"internalType":"uint256","name":"_batchesCount","type":"uint256"}],"name":"batchClaimReward","outputs":[],"stateMutability":"nonpayable","type":"function"},{"inputs":[{"internalType":"uint256","name":"_nodeKeyId","type":"uint256"},{"internalType":"uint256","name":"_batchesCount","type":"uint256"}],"name":"claimReward","outputs":[],"stateMutability":"nonpayable","type":"function"},{"inputs":[],"name":"finalize","outputs":[],"stateMutability":"nonpayable","type":"function"},{"inputs":[],"name":"latestConfirmedTimestamp","outputs":[{"internalType":"uint256","name":"","type":"uint256"}],"stateMutability":"view","type":"function"},{"inputs":[],"name":"latestFinalizedBatchNumber","outputs":[{"internalType":"uint256","name":"","type":"uint256"}],"stateMutability":"view","type":"function"},{"inputs":[],"name":"nodeRewards","outputs":[{"internalType":"contract INodeRewards","name":"","type":"address"}],"stateMutability":"view","type":"function"},{"inputs":[{"internalType":"address","name":"_nodeRewards","type":"address"}],"name":"setNodeRewards","outputs":[],"stateMutability":"nonpayable","type":"function"}],"devdoc":{"kind":"dev","methods":{},"version":1},"evm":{"bytecode":{"linkReferences":{},"object":"60a060405234801561001057600080fd5b50604051610a3b380380610a3b83398101604081905261002f91610040565b6001600160a01b0316608052610070565b60006020828403121561005257600080fd5b81516001600160a01b038116811461006957600080fd5b9392505050565b6080516109b061008b600039600061017c01526109b06000f3fe608060405234801561001057600080fd5b50600436106100be5760003560e01c8063a3bb24cc11610076578063b1810d801161005b578063b1810d80146101c3578063e38f80b7146101d6578063f9a86a70146101f657600080fd5b8063a3bb24cc14610164578063a5f957f91461017757600080fd5b80634bb278f3116100a75780634bb278f314610136578063615668e01461013e57806386bb8f371461015157600080fd5b806333db2467146100c3578063387eb5ea146100df575b600080fd5b6100cc60025481565b6040519081526020015b60405180910390f35b6101346100ed3660046106d7565b600080547fffffffffffffffffffffffff00000000000000000000000000000000000000001673ffffffffffffffffffffffffffffffffffffffff92909216919091179055565b005b6101346101ff565b61013461014c3660046107f8565b6102c7565b61013461015f36600461083d565b610303565b61013461017236600461083d565b610311565b61019e7f000000000000000000000000000000000000000000000000000000000000000081565b60405173ffffffffffffffffffffffffffffffffffffffff90911681526020016100d6565b6101346101d136600461085f565b6103ab565b60005461019e9073ffffffffffffffffffffffffffffffffffffffff1681565b6100cc60015481565b600180600082825461021191906108d5565b90915550506000805460015460025481845260036020526040938490205493517f1bcdb77a00000000000000000000000000000000000000000000000000000000815260048101929092524260248301526044820152606481019290925273ffffffffffffffffffffffffffffffffffffffff1690631bcdb77a90608401600060405180830381600087803b1580156102a957600080fd5b505af11580156102bd573d6000803e3d6000fd5b5050426002555050565b60005b82518110156102fe576102f68382815181106102e8576102e86108e8565b60200260200101518361043b565b6001016102ca565b505050565b61030d828261043b565b5050565b61031b82826105c1565b6000546040517fe6ed1180000000000000000000000000000000000000000000000000000000008152600481018490526024810183905273ffffffffffffffffffffffffffffffffffffffff9091169063e6ed1180906044015b600060405180830381600087803b15801561038f57600080fd5b505af11580156103a3573d6000803e3d6000fd5b505050505050565b60005b81518110156103e2576103da838383815181106103cd576103cd6108e8565b60200260200101516105c1565b6001016103ae565b506000546040517fb7355fb400000000000000000000000000000000000000000000000000000000815273ffffffffffffffffffffffffffffffffffffffff9091169063b7355fb4906103759085908590600401610917565b6000828152600560209081526040808320546004909252822090919082906104629061062f565b61046c9190610967565b905080831161047b578261047d565b805b925060008367ffffffffffffffff81111561049a5761049a61070d565b6040519080825280602002602001820160405280156104c3578160200160208202803683370190505b50905060005b8481101561052f5760008681526004602052604081206104e9908661063f565b90506001548111156104fb575061052f565b6105066001866108d5565b94508083838151811061051b5761051b6108e8565b6020908102919091010152506001016104c9565b506000546040517f9b6e0d7400000000000000000000000000000000000000000000000000000000815273ffffffffffffffffffffffffffffffffffffffff90911690639b6e0d74906105889088908590600401610917565b600060405180830381600087803b1580156105a257600080fd5b505af11580156105b6573d6000803e3d6000fd5b505050505050505050565b60008181526004602052604090206105d99083610652565b5060008281526003602052604081208054600192906105f99084906108d5565b9091555050604051819083907f5fd522a277163ba7679d6dcfc2c17abf847eb5f2e90d6643c8d24bc4174f8f8390600090a35050565b6000610639825490565b92915050565b600061064b838361065e565b9392505050565b600061064b8383610688565b6000826000018281548110610675576106756108e8565b9060005260206000200154905092915050565b60008181526001830160205260408120546106cf57508154600181810184556000848152602080822090930184905584548482528286019093526040902091909155610639565b506000610639565b6000602082840312156106e957600080fd5b813573ffffffffffffffffffffffffffffffffffffffff8116811461064b57600080fd5b7f4e487b7100000000000000000000000000000000000000000000000000000000600052604160045260246000fd5b600082601f83011261074d57600080fd5b8135602067ffffffffffffffff8083111561076a5761076a61070d565b8260051b6040517fffffffffffffffffffffffffffffffffffffffffffffffffffffffffffffffe0603f830116810181811084821117156107ad576107ad61070d565b60405293845260208187018101949081019250878511156107cd57600080fd5b6020870191505b848210156107ed578135835291830191908301906107d4565b979650505050505050565b6000806040838503121561080b57600080fd5b823567ffffffffffffffff81111561082257600080fd5b61082e8582860161073c565b95602094909401359450505050565b6000806040838503121561085057600080fd5b50508035926020909101359150565b6000806040838503121561087257600080fd5b82359150602083013567ffffffffffffffff81111561089057600080fd5b61089c8582860161073c565b9150509250929050565b7f4e487b7100000000000000000000000000000000000000000000000000000000600052601160045260246000fd5b80820180821115610639576106396108a6565b7f4e487b7100000000000000000000000000000000000000000000000000000000600052603260045260246000fd5b60006040820184835260206040602085015281855180845260608601915060208701935060005b8181101561095a5784518352938301939183019160010161093e565b5090979650505050505050565b81810381811115610639576106396108a656fea2646970667358221220b7d5be7a6f66197bddda5cf6034dd224d619dedb2b32bf4b783b488c7ec5f0fd64736f6c63430008160033","opcodes":"PUSH1 0xA0 PUSH1 0x40 MSTORE CALLVALUE DUP1 ISZERO PUSH2 0x10 JUMPI PUSH1 0x0 DUP1 REVERT JUMPDEST POP PUSH1 0x40 MLOAD PUSH2 0xA3B CODESIZE SUB DUP1 PUSH2 0xA3B DUP4 CODECOPY DUP2 ADD PUSH1 0x40 DUP2 SWAP1 MSTORE PUSH2 0x2F SWAP2 PUSH2 0x40 JUMP JUMPDEST PUSH1 0x1 PUSH1 0x1 PUSH1 0xA0 SHL SUB AND PUSH1 0x80 MSTORE PUSH2 0x70 JUMP JUMPDEST PUSH1 0x0 PUSH1 0x20 DUP3 DUP5 SUB SLT ISZERO PUSH2 0x52 JUMPI PUSH1 0x0 DUP1 REVERT JUMPDEST DUP2 MLOAD PUSH1 0x1 PUSH1 0x1 PUSH1 0xA0 SHL SUB DUP2 AND DUP2 EQ PUSH2 0x69 JUMPI PUSH1 0x0 DUP1 REVERT JUMPDEST SWAP4 SWAP3 POP POP POP JUMP JUMPDEST PUSH1 0x80 MLOAD PUSH2 0x9B0 PUSH2 0x8B PUSH1 0x0 CODECOPY PUSH1 0x0 PUSH2 0x17C ADD MSTORE PUSH2 0x9B0 PUSH1 0x0 RETURN INVALID PUSH1 0x80 PUSH1 0x40 MSTORE CALLVALUE DUP1 ISZERO PUSH2 0x10 JUMPI PUSH1 0x0 DUP1 REVERT JUMPDEST POP PUSH1 0x4 CALLDATASIZE LT PUSH2 0xBE JUMPI PUSH1 0x0 CALLDATALOAD PUSH1 0xE0 SHR DUP1 PUSH4 0xA3BB24CC GT PUSH2 0x76 JUMPI DUP1 PUSH4 0xB1810D80 GT PUSH2 0x5B JUMPI DUP1 PUSH4 0xB1810D80 EQ PUSH2 0x1C3 JUMPI DUP1 PUSH4 0xE38F80B7 EQ PUSH2 0x1D6 JUMPI DUP1 PUSH4 0xF9A86A70 EQ PUSH2 0x1F6 JUMPI PUSH1 0x0 DUP1 REVERT JUMPDEST DUP1 PUSH4 0xA3BB24CC EQ PUSH2 0x164 JUMPI DUP1 PUSH4 0xA5F957F9 EQ PUSH2 0x177 JUMPI PUSH1 0x0 DUP1 REVERT JUMPDEST DUP1 PUSH4 0x4BB278F3 GT PUSH2 0xA7 JUMPI DUP1 PUSH4 0x4BB278F3 EQ PUSH2 0x136 JUMPI DUP1 PUSH4 0x615668E0 EQ PUSH2 0x13E JUMPI DUP1 PUSH4 0x86BB8F37 EQ PUSH2 0x151 JUMPI PUSH1 0x0 DUP1 REVERT JUMPDEST DUP1 PUSH4 0x33DB2467 EQ PUSH2 0xC3 JUMPI DUP1 PUSH4 0x387EB5EA EQ PUSH2 0xDF JUMPI JUMPDEST PUSH1 0x0 DUP1 REVERT JUMPDEST PUSH2 0xCC PUSH1 0x2 SLOAD DUP2 JUMP JUMPDEST PUSH1 0x40 MLOAD SWAP1 DUP2 MSTORE PUSH1 0x20 ADD JUMPDEST PUSH1 0x40 MLOAD DUP1 SWAP2 SUB SWAP1 RETURN JUMPDEST PUSH2 0x134 PUSH2 0xED CALLDATASIZE PUSH1 0x4 PUSH2 0x6D7 JUMP JUMPDEST PUSH1 0x0 DUP1 SLOAD PUSH32 0xFFFFFFFFFFFFFFFFFFFFFFFF0000000000000000000000000000000000000000 AND PUSH20 0xFFFFFFFFFFFFFFFFFFFFFFFFFFFFFFFFFFFFFFFF SWAP3 SWAP1 SWAP3 AND SWAP2 SWAP1 SWAP2 OR SWAP1 SSTORE JUMP JUMPDEST STOP JUMPDEST PUSH2 0x134 PUSH2 0x1FF JUMP JUMPDEST PUSH2 0x134 PUSH2 0x14C CALLDATASIZE PUSH1 0x4 PUSH2 0x7F8 JUMP JUMPDEST PUSH2 0x2C7 JUMP JUMPDEST PUSH2 0x134 PUSH2 0x15F CALLDATASIZE PUSH1 0x4 PUSH2 0x83D JUMP JUMPDEST PUSH2 0x303 JUMP JUMPDEST PUSH2 0x134 PUSH2 0x172 CALLDATASIZE PUSH1 0x4 PUSH2 0x83D JUMP JUMPDEST PUSH2 0x311 JUMP JUMPDEST PUSH2 0x19E PUSH32 0x0 DUP2 JUMP JUMPDEST PUSH1 0x40 MLOAD PUSH20 0xFFFFFFFFFFFFFFFFFFFFFFFFFFFFFFFFFFFFFFFF SWAP1 SWAP2 AND DUP2 MSTORE PUSH1 0x20 ADD PUSH2 0xD6 JUMP JUMPDEST PUSH2 0x134 PUSH2 0x1D1 CALLDATASIZE PUSH1 0x4 PUSH2 0x85F JUMP JUMPDEST PUSH2 0x3AB JUMP JUMPDEST PUSH1 0x0 SLOAD PUSH2 0x19E SWAP1 PUSH20 0xFFFFFFFFFFFFFFFFFFFFFFFFFFFFFFFFFFFFFFFF AND DUP2 JUMP JUMPDEST PUSH2 0xCC PUSH1 0x1 SLOAD DUP2 JUMP JUMPDEST PUSH1 0x1 DUP1 PUSH1 0x0 DUP3 DUP3 SLOAD PUSH2 0x211 SWAP2 SWAP1 PUSH2 0x8D5 JUMP JUMPDEST SWAP1 SWAP2 SSTORE POP POP PUSH1 0x0 DUP1 SLOAD PUSH1 0x1 SLOAD PUSH1 0x2 SLOAD DUP2 DUP5 MSTORE PUSH1 0x3 PUSH1 0x20 MSTORE PUSH1 0x40 SWAP4 DUP5 SWAP1 KECCAK256 SLOAD SWAP4 MLOAD PUSH32 0x1BCDB77A00000000000000000000000000000000000000000000000000000000 DUP2 MSTORE PUSH1 0x4 DUP2 ADD SWAP3 SWAP1 SWAP3 MSTORE TIMESTAMP PUSH1 0x24 DUP4 ADD MSTORE PUSH1 0x44 DUP3 ADD MSTORE PUSH1 0x64 DUP2 ADD SWAP3 SWAP1 SWAP3 MSTORE PUSH20 0xFFFFFFFFFFFFFFFFFFFFFFFFFFFFFFFFFFFFFFFF AND SWAP1 PUSH4 0x1BCDB77A SWAP1 PUSH1 0x84 ADD PUSH1 0x0 PUSH1 0x40 MLOAD DUP1 DUP4 SUB DUP2 PUSH1 0x0 DUP8 DUP1 EXTCODESIZE ISZERO DUP1 ISZERO PUSH2 0x2A9 JUMPI PUSH1 0x0 DUP1 REVERT JUMPDEST POP GAS CALL ISZERO DUP1 ISZERO PUSH2 0x2BD JUMPI RETURNDATASIZE PUSH1 0x0 DUP1 RETURNDATACOPY RETURNDATASIZE PUSH1 0x0 REVERT JUMPDEST POP POP TIMESTAMP PUSH1 0x2 SSTORE POP POP JUMP JUMPDEST PUSH1 0x0 JUMPDEST DUP3 MLOAD DUP2 LT ISZERO PUSH2 0x2FE JUMPI PUSH2 0x2F6 DUP4 DUP3 DUP2 MLOAD DUP2 LT PUSH2 0x2E8 JUMPI PUSH2 0x2E8 PUSH2 0x8E8 JUMP JUMPDEST PUSH1 0x20 MUL PUSH1 0x20 ADD ADD MLOAD DUP4 PUSH2 0x43B JUMP JUMPDEST PUSH1 0x1 ADD PUSH2 0x2CA JUMP JUMPDEST POP POP POP JUMP JUMPDEST PUSH2 0x30D DUP3 DUP3 PUSH2 0x43B JUMP JUMPDEST POP POP JUMP JUMPDEST PUSH2 0x31B DUP3 DUP3 PUSH2 0x5C1 JUMP JUMPDEST PUSH1 0x0 SLOAD PUSH1 0x40 MLOAD PUSH32 0xE6ED118000000000000000000000000000000000000000000000000000000000 DUP2 MSTORE PUSH1 0x4 DUP2 ADD DUP5 SWAP1 MSTORE PUSH1 0x24 DUP2 ADD DUP4 SWAP1 MSTORE PUSH20 0xFFFFFFFFFFFFFFFFFFFFFFFFFFFFFFFFFFFFFFFF SWAP1 SWAP2 AND SWAP1 PUSH4 0xE6ED1180 SWAP1 PUSH1 0x44 ADD JUMPDEST PUSH1 0x0 PUSH1 0x40 MLOAD DUP1 DUP4 SUB DUP2 PUSH1 0x0 DUP8 DUP1 EXTCODESIZE ISZERO DUP1 ISZERO PUSH2 0x38F JUMPI PUSH1 0x0 DUP1 REVERT JUMPDEST POP GAS CALL ISZERO DUP1 ISZERO PUSH2 0x3A3 JUMPI RETURNDATASIZE PUSH1 0x0 DUP1 RETURNDATACOPY RETURNDATASIZE PUSH1 0x0 REVERT JUMPDEST POP POP POP POP POP POP JUMP JUMPDEST PUSH1 0x0 JUMPDEST DUP2 MLOAD DUP2 LT ISZERO PUSH2 0x3E2 JUMPI PUSH2 0x3DA DUP4 DUP4 DUP4 DUP2 MLOAD DUP2 LT PUSH2 0x3CD JUMPI PUSH2 0x3CD PUSH2 0x8E8 JUMP JUMPDEST PUSH1 0x20 MUL PUSH1 0x20 ADD ADD MLOAD PUSH2 0x5C1 JUMP JUMPDEST PUSH1 0x1 ADD PUSH2 0x3AE JUMP JUMPDEST POP PUSH1 0x0 SLOAD PUSH1 0x40 MLOAD PUSH32 0xB7355FB400000000000000000000000000000000000000000000000000000000 DUP2 MSTORE PUSH20 0xFFFFFFFFFFFFFFFFFFFFFFFFFFFFFFFFFFFFFFFF SWAP1 SWAP2 AND SWAP1 PUSH4 0xB7355FB4 SWAP1 PUSH2 0x375 SWAP1 DUP6 SWAP1 DUP6 SWAP1 PUSH1 0x4 ADD PUSH2 0x917 JUMP JUMPDEST PUSH1 0x0 DUP3 DUP2 MSTORE PUSH1 0x5 PUSH1 0x20 SWAP1 DUP2 MSTORE PUSH1 0x40 DUP1 DUP4 KECCAK256 SLOAD PUSH1 0x4 SWAP1 SWAP3 MSTORE DUP3 KECCAK256 SWAP1 SWAP2 SWAP1 DUP3 SWAP1 PUSH2 0x462 SWAP1 PUSH2 0x62F JUMP JUMPDEST PUSH2 0x46C SWAP2 SWAP1 PUSH2 0x967 JUMP JUMPDEST SWAP1 POP DUP1 DUP4 GT PUSH2 0x47B JUMPI DUP3 PUSH2 0x47D JUMP JUMPDEST DUP1 JUMPDEST SWAP3 POP PUSH1 0x0 DUP4 PUSH8 0xFFFFFFFFFFFFFFFF DUP2 GT ISZERO PUSH2 0x49A JUMPI PUSH2 0x49A PUSH2 0x70D JUMP JUMPDEST PUSH1 0x40 MLOAD SWAP1 DUP1 DUP3 MSTORE DUP1 PUSH1 0x20 MUL PUSH1 0x20 ADD DUP3 ADD PUSH1 0x40 MSTORE DUP1 ISZERO PUSH2 0x4C3 JUMPI DUP2 PUSH1 0x20 ADD PUSH1 0x20 DUP3 MUL DUP1 CALLDATASIZE DUP4 CALLDATACOPY ADD SWAP1 POP JUMPDEST POP SWAP1 POP PUSH1 0x0 JUMPDEST DUP5 DUP2 LT ISZERO PUSH2 0x52F JUMPI PUSH1 0x0 DUP7 DUP2 MSTORE PUSH1 0x4 PUSH1 0x20 MSTORE PUSH1 0x40 DUP2 KECCAK256 PUSH2 0x4E9 SWAP1 DUP7 PUSH2 0x63F JUMP JUMPDEST SWAP1 POP PUSH1 0x1 SLOAD DUP2 GT ISZERO PUSH2 0x4FB JUMPI POP PUSH2 0x52F JUMP JUMPDEST PUSH2 0x506 PUSH1 0x1 DUP7 PUSH2 0x8D5 JUMP JUMPDEST SWAP5 POP DUP1 DUP4 DUP4 DUP2 MLOAD DUP2 LT PUSH2 0x51B JUMPI PUSH2 0x51B PUSH2 0x8E8 JUMP JUMPDEST PUSH1 0x20 SWAP1 DUP2 MUL SWAP2 SWAP1 SWAP2 ADD ADD MSTORE POP PUSH1 0x1 ADD PUSH2 0x4C9 JUMP JUMPDEST POP PUSH1 0x0 SLOAD PUSH1 0x40 MLOAD PUSH32 0x9B6E0D7400000000000000000000000000000000000000000000000000000000 DUP2 MSTORE PUSH20 0xFFFFFFFFFFFFFFFFFFFFFFFFFFFFFFFFFFFFFFFF SWAP1 SWAP2 AND SWAP1 PUSH4 0x9B6E0D74 SWAP1 PUSH2 0x588 SWAP1 DUP9 SWAP1 DUP6 SWAP1 PUSH1 0x4 ADD PUSH2 0x917 JUMP JUMPDEST PUSH1 0x0 PUSH1 0x40 MLOAD DUP1 DUP4 SUB DUP2 PUSH1 0x0 DUP8 DUP1 EXTCODESIZE ISZERO DUP1 ISZERO PUSH2 0x5A2 JUMPI PUSH1 0x0 DUP1 REVERT JUMPDEST POP GAS CALL ISZERO DUP1 ISZERO PUSH2 0x5B6 JUMPI RETURNDATASIZE PUSH1 0x0 DUP1 RETURNDATACOPY RETURNDATASIZE PUSH1 0x0 REVERT JUMPDEST POP POP POP POP POP POP POP POP POP JUMP JUMPDEST PUSH1 0x0 DUP2 DUP2 MSTORE PUSH1 0x4 PUSH1 0x20 MSTORE PUSH1 0x40 SWAP1 KECCAK256 PUSH2 0x5D9 SWAP1 DUP4 PUSH2 0x652 JUMP JUMPDEST POP PUSH1 0x0 DUP3 DUP2 MSTORE PUSH1 0x3 PUSH1 0x20 MSTORE PUSH1 0x40 DUP2 KECCAK256 DUP1 SLOAD PUSH1 0x1 SWAP3 SWAP1 PUSH2 0x5F9 SWAP1 DUP5 SWAP1 PUSH2 0x8D5 JUMP JUMPDEST SWAP1 SWAP2 SSTORE POP POP PUSH1 0x40 MLOAD DUP2 SWAP1 DUP4 SWAP1 PUSH32 0x5FD522A277163BA7679D6DCFC2C17ABF847EB5F2E90D6643C8D24BC4174F8F83 SWAP1 PUSH1 0x0 SWAP1 LOG3 POP POP JUMP JUMPDEST PUSH1 0x0 PUSH2 0x639 DUP3 SLOAD SWAP1 JUMP JUMPDEST SWAP3 SWAP2 POP POP JUMP JUMPDEST PUSH1 0x0 PUSH2 0x64B DUP4 DUP4 PUSH2 0x65E JUMP JUMPDEST SWAP4 SWAP3 POP POP POP JUMP JUMPDEST PUSH1 0x0 PUSH2 0x64B DUP4 DUP4 PUSH2 0x688 JUMP JUMPDEST PUSH1 0x0 DUP3 PUSH1 0x0 ADD DUP3 DUP2 SLOAD DUP2 LT PUSH2 0x675 JUMPI PUSH2 0x675 PUSH2 0x8E8 JUMP JUMPDEST SWAP1 PUSH1 0x0 MSTORE PUSH1 0x20 PUSH1 0x0 KECCAK256 ADD SLOAD SWAP1 POP SWAP3 SWAP2 POP POP JUMP JUMPDEST PUSH1 0x0 DUP2 DUP2 MSTORE PUSH1 0x1 DUP4 ADD PUSH1 0x20 MSTORE PUSH1 0x40 DUP2 KECCAK256 SLOAD PUSH2 0x6CF JUMPI POP DUP2 SLOAD PUSH1 0x1 DUP2 DUP2 ADD DUP5 SSTORE PUSH1 0x0 DUP5 DUP2 MSTORE PUSH1 0x20 DUP1 DUP3 KECCAK256 SWAP1 SWAP4 ADD DUP5 SWAP1 SSTORE DUP5 SLOAD DUP5 DUP3 MSTORE DUP3 DUP7 ADD SWAP1 SWAP4 MSTORE PUSH1 0x40 SWAP1 KECCAK256 SWAP2 SWAP1 SWAP2 SSTORE PUSH2 0x639 JUMP JUMPDEST POP PUSH1 0x0 PUSH2 0x639 JUMP JUMPDEST PUSH1 0x0 PUSH1 0x20 DUP3 DUP5 SUB SLT ISZERO PUSH2 0x6E9 JUMPI PUSH1 0x0 DUP1 REVERT JUMPDEST DUP2 CALLDATALOAD PUSH20 0xFFFFFFFFFFFFFFFFFFFFFFFFFFFFFFFFFFFFFFFF DUP2 AND DUP2 EQ PUSH2 0x64B JUMPI PUSH1 0x0 DUP1 REVERT JUMPDEST PUSH32 0x4E487B7100000000000000000000000000000000000000000000000000000000 PUSH1 0x0 MSTORE PUSH1 0x41 PUSH1 0x4 MSTORE PUSH1 0x24 PUSH1 0x0 REVERT JUMPDEST PUSH1 0x0 DUP3 PUSH1 0x1F DUP4 ADD SLT PUSH2 0x74D JUMPI PUSH1 0x0 DUP1 REVERT JUMPDEST DUP2 CALLDATALOAD PUSH1 0x20 PUSH8 0xFFFFFFFFFFFFFFFF DUP1 DUP4 GT ISZERO PUSH2 0x76A JUMPI PUSH2 0x76A PUSH2 0x70D JUMP JUMPDEST DUP3 PUSH1 0x5 SHL PUSH1 0x40 MLOAD PUSH32 0xFFFFFFFFFFFFFFFFFFFFFFFFFFFFFFFFFFFFFFFFFFFFFFFFFFFFFFFFFFFFFFE0 PUSH1 0x3F DUP4 ADD AND DUP2 ADD DUP2 DUP2 LT DUP5 DUP3 GT OR ISZERO PUSH2 0x7AD JUMPI PUSH2 0x7AD PUSH2 0x70D JUMP JUMPDEST PUSH1 0x40 MSTORE SWAP4 DUP5 MSTORE PUSH1 0x20 DUP2 DUP8 ADD DUP2 ADD SWAP5 SWAP1 DUP2 ADD SWAP3 POP DUP8 DUP6 GT ISZERO PUSH2 0x7CD JUMPI PUSH1 0x0 DUP1 REVERT JUMPDEST PUSH1 0x20 DUP8 ADD SWAP2 POP JUMPDEST DUP5 DUP3 LT ISZERO PUSH2 0x7ED JUMPI DUP2 CALLDATALOAD DUP4 MSTORE SWAP2 DUP4 ADD SWAP2 SWAP1 DUP4 ADD SWAP1 PUSH2 0x7D4 JUMP JUMPDEST SWAP8 SWAP7 POP POP POP POP POP POP POP JUMP JUMPDEST PUSH1 0x0 DUP1 PUSH1 0x40 DUP4 DUP6 SUB SLT ISZERO PUSH2 0x80B JUMPI PUSH1 0x0 DUP1 REVERT JUMPDEST DUP3 CALLDATALOAD PUSH8 0xFFFFFFFFFFFFFFFF DUP2 GT ISZERO PUSH2 0x822 JUMPI PUSH1 0x0 DUP1 REVERT JUMPDEST PUSH2 0x82E DUP6 DUP3 DUP7 ADD PUSH2 0x73C JUMP JUMPDEST SWAP6 PUSH1 0x20 SWAP5 SWAP1 SWAP5 ADD CALLDATALOAD SWAP5 POP POP POP POP JUMP JUMPDEST PUSH1 0x0 DUP1 PUSH1 0x40 DUP4 DUP6 SUB SLT ISZERO PUSH2 0x850 JUMPI PUSH1 0x0 DUP1 REVERT JUMPDEST POP POP DUP1 CALLDATALOAD SWAP3 PUSH1 0x20 SWAP1 SWAP2 ADD CALLDATALOAD SWAP2 POP JUMP JUMPDEST PUSH1 0x0 DUP1 PUSH1 0x40 DUP4 DUP6 SUB SLT ISZERO PUSH2 0x872 JUMPI PUSH1 0x0 DUP1 REVERT JUMPDEST DUP3 CALLDATALOAD SWAP2 POP PUSH1 0x20 DUP4 ADD CALLDATALOAD PUSH8 0xFFFFFFFFFFFFFFFF DUP2 GT ISZERO PUSH2 0x890 JUMPI PUSH1 0x0 DUP1 REVERT JUMPDEST PUSH2 0x89C DUP6 DUP3 DUP7 ADD PUSH2 0x73C JUMP JUMPDEST SWAP2 POP POP SWAP3 POP SWAP3 SWAP1 POP JUMP JUMPDEST PUSH32 0x4E487B7100000000000000000000000000000000000000000000000000000000 PUSH1 0x0 MSTORE PUSH1 0x11 PUSH1 0x4 MSTORE PUSH1 0x24 PUSH1 0x0 REVERT JUMPDEST DUP1 DUP3 ADD DUP1 DUP3 GT ISZERO PUSH2 0x639 JUMPI PUSH2 0x639 PUSH2 0x8A6 JUMP JUMPDEST PUSH32 0x4E487B7100000000000000000000000000000000000000000000000000000000 PUSH1 0x0 MSTORE PUSH1 0x32 PUSH1 0x4 MSTORE PUSH1 0x24 PUSH1 0x0 REVERT JUMPDEST PUSH1 0x0 PUSH1 0x40 DUP3 ADD DUP5 DUP4 MSTORE PUSH1 0x20 PUSH1 0x40 PUSH1 0x20 DUP6 ADD MSTORE DUP2 DUP6 MLOAD DUP1 DUP5 MSTORE PUSH1 0x60 DUP7 ADD SWAP2 POP PUSH1 0x20 DUP8 ADD SWAP4 POP PUSH1 0x0 JUMPDEST DUP2 DUP2 LT ISZERO PUSH2 0x95A JUMPI DUP5 MLOAD DUP4 MSTORE SWAP4 DUP4 ADD SWAP4 SWAP2 DUP4 ADD SWAP2 PUSH1 0x1 ADD PUSH2 0x93E JUMP JUMPDEST POP SWAP1 SWAP8 SWAP7 POP POP POP POP POP POP POP JUMP JUMPDEST DUP2 DUP2 SUB DUP2 DUP2 GT ISZERO PUSH2 0x639 JUMPI PUSH2 0x639 PUSH2 0x8A6 JUMP INVALID LOG2 PUSH5 0x6970667358 0x22 SLT KECCAK256 0xB7 0xD5 0xBE PUSH27 0x6F66197BDDDA5CF6034DD224D619DEDB2B32BF4B783B488C7EC5F0 REVERT PUSH5 0x736F6C6343 STOP ADDMOD AND STOP CALLER "},"gasEstimates":{"creation":{"codeDepositCost":"496000","executionCost":"infinite","totalCost":"infinite"},"external":{"NODE_KEY()":"infinite","attest(uint256,uint256)":"infinite","batchAttest(uint256,uint256[])":"infinite","batchClaimReward(uint256[],uint256)":"infinite","claimReward(uint256,uint256)":"infinite","finalize()":"infinite","latestConfirmedTimestamp()":"2308","latestFinalizedBatchNumber()":"2350","nodeRewards()":"2357","setNodeRewards(address)":"24531"}},"methodIdentifiers":{"NODE_KEY()":"a5f957f9","attest(uint256,uint256)":"a3bb24cc","batchAttest(uint256,uint256[])":"b1810d80","batchClaimReward(uint256[],uint256)":"615668e0","claimReward(uint256,uint256)":"86bb8f37","finalize()":"4bb278f3","latestConfirmedTimestamp()":"33db2467","latestFinalizedBatchNumber()":"f9a86a70","nodeRewards()":"e38f80b7","setNodeRewards(address)":"387eb5ea"}},"storageLayout":{"storage":[{"astId":23,"contract":"contracts/mocks/land/RefereeMock.sol:RefereeMock","label":"nodeRewards","offset":0,"slot":"0","type":"t_contract(INodeRewards)762"},{"astId":25,"contract":"contracts/mocks/land/RefereeMock.sol:RefereeMock","label":"latestFinalizedBatchNumber","offset":0,"slot":"1","type":"t_uint256"},{"astId":27,"contract":"contracts/mocks/land/RefereeMock.sol:RefereeMock","label":"latestConfirmedTimestamp","offset":0,"slot":"2","type":"t_uint256"},{"astId":31,"contract":"contracts/mocks/land/RefereeMock.sol:RefereeMock","label":"_nrOfSuccessfulAttestations","offset":0,"slot":"3","type":"t_mapping(t_uint256,t_uint256)"},{"astId":36,"contract":"contracts/mocks/land/RefereeMock.sol:RefereeMock","label":"_claimableBatches","offset":0,"slot":"4","type":"t_mapping(t_uint256,t_struct(UintSet)5412_storage)"},{"astId":40,"contract":"contracts/mocks/land/RefereeMock.sol:RefereeMock","label":"_indexOfUnclaimedBatch","offset":0,"slot":"5","type":"t_mapping(t_uint256,t_uint256)"}],"types":{"t_array(t_bytes32)dyn_storage":{"base":"t_bytes32","encoding":"dynamic_array","label":"bytes32[]","numberOfBytes":"32"},"t_bytes32":{"encoding":"inplace","label":"bytes32","numberOfBytes":"32"},"t_contract(INodeRewards)762":{"encoding":"inplace","label":"contract INodeRewards","numberOfBytes":"20"},"t_mapping(t_bytes32,t_uint256)":{"encoding":"mapping","key":"t_bytes32","label":"mapping(bytes32 => uint256)","numberOfBytes":"32","value":"t_uint256"},"t_mapping(t_uint256,t_struct(UintSet)5412_storage)":{"encoding":"mapping","key":"t_uint256","label":"mapping(uint256 => struct EnumerableSet.UintSet)","numberOfBytes":"32","value":"t_struct(UintSet)5412_storage"},"t_mapping(t_uint256,t_uint256)":{"encoding":"mapping","key":"t_uint256","label":"mapping(uint256 => uint256)","numberOfBytes":"32","value":"t_uint256"},"t_struct(Set)4940_storage":{"encoding":"inplace","label":"struct EnumerableSet.Set","members":[{"astId":4935,"contract":"contracts/mocks/land/RefereeMock.sol:RefereeMock","label":"_values","offset":0,"slot":"0","type":"t_array(t_bytes32)dyn_storage"},{"astId":4939,"contract":"contracts/mocks/land/RefereeMock.sol:RefereeMock","label":"_indexes","offset":0,"slot":"1","type":"t_mapping(t_bytes32,t_uint256)"}],"numberOfBytes":"64"},"t_struct(UintSet)5412_storage":{"encoding":"inplace","label":"struct EnumerableSet.UintSet","members":[{"astId":5411,"contract":"contracts/mocks/land/RefereeMock.sol:RefereeMock","label":"_inner","offset":0,"slot":"0","type":"t_struct(Set)4940_storage"}],"numberOfBytes":"64"},"t_uint256":{"encoding":"inplace","label":"uint256","numberOfBytes":"32"}}},"userdoc":{"kind":"user","methods":{},"version":1}}}}