{"contracts/land/EDULandRewards.sol":{"EDULandRewards":{"abi":[{"inputs":[{"internalType":"uint256","name":"maxRewardTimeWindow","type":"uint256"},{"internalType":"address","name":"referee","type":"address"},{"internalType":"address","name":"landAddress","type":"address"},{"internalType":"address","name":"rewardToken","type":"address"},{"internalType":"uint256","name":"rewardPerSecond_","type":"uint256"},{"internalType":"address","name":"owner","type":"address"}],"stateMutability":"nonpayable","type":"constructor"},{"inputs":[],"name":"ETHTransferFailed","type":"error"},{"inputs":[],"name":"OnlyKycWallet","type":"error"},{"inputs":[],"name":"OnlyReferee","type":"error"},{"anonymous":false,"inputs":[{"indexed":false,"internalType":"uint8","name":"version","type":"uint8"}],"name":"Initialized","type":"event"},{"anonymous":false,"inputs":[{"indexed":false,"internalType":"bool","name":"_disabled","type":"bool"}],"name":"LogSetKycDisabled","type":"event"},{"anonymous":false,"inputs":[{"indexed":false,"internalType":"uint256","name":"rewardPerSecond","type":"uint256"}],"name":"RewardPerSecondUpdated","type":"event"},{"anonymous":false,"inputs":[{"indexed":true,"internalType":"bytes32","name":"role","type":"bytes32"},{"indexed":true,"internalType":"bytes32","name":"previousAdminRole","type":"bytes32"},{"indexed":true,"internalType":"bytes32","name":"newAdminRole","type":"bytes32"}],"name":"RoleAdminChanged","type":"event"},{"anonymous":false,"inputs":[{"indexed":true,"internalType":"bytes32","name":"role","type":"bytes32"},{"indexed":true,"internalType":"address","name":"account","type":"address"},{"indexed":true,"internalType":"address","name":"sender","type":"address"}],"name":"RoleGranted","type":"event"},{"anonymous":false,"inputs":[{"indexed":true,"internalType":"bytes32","name":"role","type":"bytes32"},{"indexed":true,"internalType":"address","name":"account","type":"address"},{"indexed":true,"internalType":"address","name":"sender","type":"address"}],"name":"RoleRevoked","type":"event"},{"inputs":[],"name":"ADMIN_KYC_CONTROLLER_ROLE","outputs":[{"internalType":"bytes32","name":"","type":"bytes32"}],"stateMutability":"view","type":"function"},{"inputs":[],"name":"DEFAULT_ADMIN_ROLE","outputs":[{"internalType":"bytes32","name":"","type":"bytes32"}],"stateMutability":"view","type":"function"},{"inputs":[],"name":"KYC_CONTROLLER_ROLE","outputs":[{"internalType":"bytes32","name":"","type":"bytes32"}],"stateMutability":"view","type":"function"},{"inputs":[],"name":"MAX_REWARD_TIME_WINDOW","outputs":[{"internalType":"uint256","name":"","type":"uint256"}],"stateMutability":"view","type":"function"},{"inputs":[],"name":"NODE_KEY","outputs":[{"internalType":"contract INodeKey","name":"","type":"address"}],"stateMutability":"view","type":"function"},{"inputs":[],"name":"OWNER_ROLE","outputs":[{"internalType":"bytes32","name":"","type":"bytes32"}],"stateMutability":"view","type":"function"},{"inputs":[],"name":"REFEREE","outputs":[{"internalType":"contract IReferee","name":"","type":"address"}],"stateMutability":"view","type":"function"},{"inputs":[],"name":"REWARDS_CONTROLLER_ROLE","outputs":[{"internalType":"bytes32","name":"","type":"bytes32"}],"stateMutability":"view","type":"function"},{"inputs":[],"name":"REWARD_TOKEN","outputs":[{"internalType":"address","name":"","type":"address"}],"stateMutability":"view","type":"function"},{"inputs":[{"internalType":"address[]","name":"_wallets","type":"address[]"}],"name":"addKycWallets","outputs":[],"stateMutability":"nonpayable","type":"function"},{"inputs":[{"internalType":"uint256","name":"_nodeKeyId","type":"uint256"},{"internalType":"uint256[]","name":"_batchNumbers","type":"uint256[]"}],"name":"claimReward","outputs":[],"stateMutability":"nonpayable","type":"function"},{"inputs":[],"name":"getKycWallets","outputs":[{"internalType":"address[]","name":"","type":"address[]"}],"stateMutability":"view","type":"function"},{"inputs":[{"internalType":"bytes32","name":"role","type":"bytes32"}],"name":"getRoleAdmin","outputs":[{"internalType":"bytes32","name":"","type":"bytes32"}],"stateMutability":"view","type":"function"},{"inputs":[{"internalType":"bytes32","name":"role","type":"bytes32"},{"internalType":"address","name":"account","type":"address"}],"name":"grantRole","outputs":[],"stateMutability":"nonpayable","type":"function"},{"inputs":[{"internalType":"bytes32","name":"role","type":"bytes32"},{"internalType":"address","name":"account","type":"address"}],"name":"hasRole","outputs":[{"internalType":"bool","name":"","type":"bool"}],"stateMutability":"view","type":"function"},{"inputs":[],"name":"kycDisabled","outputs":[{"internalType":"bool","name":"","type":"bool"}],"stateMutability":"view","type":"function"},{"inputs":[{"internalType":"uint256","name":"_batchNumber","type":"uint256"},{"internalType":"uint256","name":"_nodeKeyId","type":"uint256"}],"name":"onAttest","outputs":[],"stateMutability":"nonpayable","type":"function"},{"inputs":[{"internalType":"uint256","name":"_batchNumber","type":"uint256"},{"internalType":"uint256[]","name":"_nodeKeyIds","type":"uint256[]"}],"name":"onBatchAttest","outputs":[],"stateMutability":"nonpayable","type":"function"},{"inputs":[{"internalType":"uint256","name":"_batchNumber","type":"uint256"},{"internalType":"uint256","name":"_l1NodeConfirmedTimestamp","type":"uint256"},{"internalType":"uint256","name":"_prevL1NodeConfirmedTimestamp","type":"uint256"},{"internalType":"uint256","name":"_nrOfSuccessfulAttestations","type":"uint256"}],"name":"onFinalize","outputs":[],"stateMutability":"nonpayable","type":"function"},{"inputs":[{"internalType":"address[]","name":"_wallets","type":"address[]"}],"name":"removeKycWallets","outputs":[],"stateMutability":"nonpayable","type":"function"},{"inputs":[{"internalType":"bytes32","name":"role","type":"bytes32"},{"internalType":"address","name":"account","type":"address"}],"name":"renounceRole","outputs":[],"stateMutability":"nonpayable","type":"function"},{"inputs":[{"internalType":"bytes32","name":"role","type":"bytes32"},{"internalType":"address","name":"account","type":"address"}],"name":"revokeRole","outputs":[],"stateMutability":"nonpayable","type":"function"},{"inputs":[{"internalType":"uint256","name":"","type":"uint256"}],"name":"rewardPerLandOfBatch","outputs":[{"internalType":"uint256","name":"","type":"uint256"}],"stateMutability":"view","type":"function"},{"inputs":[],"name":"rewardPerSecond","outputs":[{"internalType":"uint256","name":"","type":"uint256"}],"stateMutability":"view","type":"function"},{"inputs":[{"internalType":"uint256","name":"","type":"uint256"},{"internalType":"uint256","name":"","type":"uint256"}],"name":"rewardsRecipients","outputs":[{"internalType":"address","name":"","type":"address"}],"stateMutability":"view","type":"function"},{"inputs":[{"internalType":"bool","name":"_disabled","type":"bool"}],"name":"setKycDisabled","outputs":[],"stateMutability":"nonpayable","type":"function"},{"inputs":[{"internalType":"uint256","name":"rewardPerSecond_","type":"uint256"}],"name":"setRewardPerSecond","outputs":[],"stateMutability":"nonpayable","type":"function"},{"inputs":[{"internalType":"bytes4","name":"interfaceId","type":"bytes4"}],"name":"supportsInterface","outputs":[{"internalType":"bool","name":"","type":"bool"}],"stateMutability":"view","type":"function"},{"stateMutability":"payable","type":"receive"}],"devdoc":{"events":{"Initialized(uint8)":{"details":"Triggered when the contract has been initialized or reinitialized."},"RoleAdminChanged(bytes32,bytes32,bytes32)":{"details":"Emitted when `newAdminRole` is set as ``role``'s admin role, replacing `previousAdminRole` `DEFAULT_ADMIN_ROLE` is the starting admin for all roles, despite {RoleAdminChanged} not being emitted signaling this. _Available since v3.1._"},"RoleGranted(bytes32,address,address)":{"details":"Emitted when `account` is granted `role`. `sender` is the account that originated the contract call, an admin role bearer except when using {AccessControl-_setupRole}."},"RoleRevoked(bytes32,address,address)":{"details":"Emitted when `account` is revoked `role`. `sender` is the account that originated the contract call:   - if using `revokeRole`, it is the admin role bearer   - if using `renounceRole`, it is the role bearer (i.e. `account`)"}},"kind":"dev","methods":{"claimReward(uint256,uint256[])":{"details":"_batchNumbers can contain 0 (empty items). Make sure to skip over it.","params":{"_batchNumbers":"Batch numbers of successful attestations made by the node key.","_nodeKeyId":"Id of the node key which is claiming the reward."}},"getRoleAdmin(bytes32)":{"details":"Returns the admin role that controls `role`. See {grantRole} and {revokeRole}. To change a role's admin, use {_setRoleAdmin}."},"grantRole(bytes32,address)":{"details":"Grants `role` to `account`. If `account` had not been already granted `role`, emits a {RoleGranted} event. Requirements: - the caller must have ``role``'s admin role. May emit a {RoleGranted} event."},"hasRole(bytes32,address)":{"details":"Returns `true` if `account` has been granted `role`."},"onAttest(uint256,uint256)":{"params":{"_batchNumber":"Batch number of the attestation.","_nodeKeyId":"Id of the node key."}},"onBatchAttest(uint256,uint256[])":{"details":"_nodeKeyIds can contain 0 (empty items). We skip over it here.","params":{"_batchNumber":"Batch number of the attestation.","_nodeKeyIds":"Id of the node keys."}},"onFinalize(uint256,uint256,uint256,uint256)":{"details":"_prevL1NodeConfirmedTimestamp can be 0 when _batchNumber is the first ever batch being finalized.","params":{"_batchNumber":"Batch number that is being finalized.","_l1NodeConfirmedTimestamp":"Timestamp of which the batch is confirmed on the L1.","_nrOfSuccessfulAttestations":"Number of node keys which have submitted a valid attestation.","_prevL1NodeConfirmedTimestamp":"Timestamp of which the previous batch is confirmed on the L1."}},"renounceRole(bytes32,address)":{"details":"Revokes `role` from the calling account. Roles are often managed via {grantRole} and {revokeRole}: this function's purpose is to provide a mechanism for accounts to lose their privileges if they are compromised (such as when a trusted device is misplaced). If the calling account had been revoked `role`, emits a {RoleRevoked} event. Requirements: - the caller must be `account`. May emit a {RoleRevoked} event."},"revokeRole(bytes32,address)":{"details":"Revokes `role` from `account`. If `account` had been granted `role`, emits a {RoleRevoked} event. Requirements: - the caller must have ``role``'s admin role. May emit a {RoleRevoked} event."},"supportsInterface(bytes4)":{"details":"See {IERC165-supportsInterface}."}},"version":1},"evm":{"bytecode":{"linkReferences":{},"object":"6101006040523480156200001257600080fd5b506040516200233b3803806200233b83398101604081905262000035916200021d565b6001600160a01b0380841660805280861660a052841660c05260e0869052609a829055620000937fff073d0dcf74639a8d3c1c189ac3a527293f2fbae27f12acbfdaabd420f2a5f36000805160206200231b83398151915262000110565b620000ce7f6753d6b325cc45d6566c947baabf366ee79f2a1a197e23fbd9074f661fe28cb16000805160206200231b83398151915262000110565b620000e96000805160206200231b8339815191528062000110565b620001046000805160206200231b833981519152826200015b565b5050505050506200028c565b600082815260656020526040808220600101805490849055905190918391839186917fbd79b86ffe0ab8e8776151514217cd7cacd52c909f66475c3af44e129f0b00ff9190a4505050565b60008281526065602090815260408083206001600160a01b038516845290915290205460ff16620001fc5760008281526065602090815260408083206001600160a01b03851684529091529020805460ff19166001179055620001bb3390565b6001600160a01b0316816001600160a01b0316837f2f8788117e7eff1d82e926ec794901d17c78024a50270940304540a733656f0d60405160405180910390a45b5050565b80516001600160a01b03811681146200021857600080fd5b919050565b60008060008060008060c087890312156200023757600080fd5b86519550620002496020880162000200565b9450620002596040880162000200565b9350620002696060880162000200565b9250608087015191506200028060a0880162000200565b90509295509295509295565b60805160a05160c05160e05161201d620002fe6000396000818161058a0152610c670152600081816105360152610fa201526000818161049901528181610747015281816109f101528181610a6b0152610bef0152600081816104cd0152818161131101526113ea015261201d6000f3fe6080604052600436106101bb5760003560e01c806391d14854116100ec578063c2a747521161008a578063dcd50d2e11610064578063dcd50d2e146105ec578063e2d18be614610620578063e58378bb14610642578063e6ed11801461067657600080fd5b8063c2a7475214610578578063cbd73cb2146105ac578063d547741f146105cc57600080fd5b80639b6e0d74116100c65780639b6e0d74146104ef578063a217fddf1461050f578063a5f957f914610524578063b7355fb41461055857600080fd5b806391d148541461043457806395126fe61461048757806399248ea7146104bb57600080fd5b80635dff0ce9116101595780637cd727ba116101335780637cd727ba1461039657806386f8a03e146103b65780638ad9c511146103ea5780638f10369a1461041e57600080fd5b80635dff0ce91461032f57806366da5815146103495780636f63b8ab1461036957600080fd5b8063229d683d11610195578063229d683d14610291578063248a9ca3146102b15780632f2ff15d146102ef57806336568abe1461030f57600080fd5b806301ffc9a7146101c75780630f0479b4146101fc5780631bcdb77a1461026f57600080fd5b366101c257005b600080fd5b3480156101d357600080fd5b506101e76101e2366004611ab5565b610696565b60405190151581526020015b60405180910390f35b34801561020857600080fd5b5061024a610217366004611af7565b609c60209081526000928352604080842090915290825290205473ffffffffffffffffffffffffffffffffffffffff1681565b60405173ffffffffffffffffffffffffffffffffffffffff90911681526020016101f3565b34801561027b57600080fd5b5061028f61028a366004611b19565b61072f565b005b34801561029d57600080fd5b5061028f6102ac366004611b97565b6107b0565b3480156102bd57600080fd5b506102e16102cc366004611bd9565b60009081526065602052604090206001015490565b6040519081526020016101f3565b3480156102fb57600080fd5b5061028f61030a366004611c14565b610820565b34801561031b57600080fd5b5061028f61032a366004611c14565b61084a565b34801561033b57600080fd5b506097546101e79060ff1681565b34801561035557600080fd5b5061028f610364366004611bd9565b610902565b34801561037557600080fd5b506102e1610384366004611bd9565b609b6020526000908152604090205481565b3480156103a257600080fd5b5061028f6103b1366004611b97565b610969565b3480156103c257600080fd5b506102e17f6753d6b325cc45d6566c947baabf366ee79f2a1a197e23fbd9074f661fe28cb181565b3480156103f657600080fd5b506102e17fff073d0dcf74639a8d3c1c189ac3a527293f2fbae27f12acbfdaabd420f2a5f381565b34801561042a57600080fd5b506102e1609a5481565b34801561044057600080fd5b506101e761044f366004611c14565b600091825260656020908152604080842073ffffffffffffffffffffffffffffffffffffffff93909316845291905290205460ff1690565b34801561049357600080fd5b5061024a7f000000000000000000000000000000000000000000000000000000000000000081565b3480156104c757600080fd5b5061024a7f000000000000000000000000000000000000000000000000000000000000000081565b3480156104fb57600080fd5b5061028f61050a366004611c44565b6109d9565b34801561051b57600080fd5b506102e1600081565b34801561053057600080fd5b5061024a7f000000000000000000000000000000000000000000000000000000000000000081565b34801561056457600080fd5b5061028f610573366004611c44565b610a53565b34801561058457600080fd5b506102e17f000000000000000000000000000000000000000000000000000000000000000081565b3480156105b857600080fd5b5061028f6105c7366004611c9e565b610b18565b3480156105d857600080fd5b5061028f6105e7366004611c14565b610ba1565b3480156105f857600080fd5b506102e17f05e9bce9d0ef4f3ddc258eb9c04459fd66d9887e1079e0b19880fc501a3ddd5f81565b34801561062c57600080fd5b50610635610bc6565b6040516101f39190611cbb565b34801561064e57600080fd5b506102e17fb19546dff01e856fb3f010c267a7b1c60363cf8a4664e21cc89c26224620214e81565b34801561068257600080fd5b5061028f610691366004611af7565b610bd7565b60007fffffffff0000000000000000000000000000000000000000000000000000000082167f7965db0b00000000000000000000000000000000000000000000000000000000148061072957507f01ffc9a7000000000000000000000000000000000000000000000000000000007fffffffff000000000000000000000000000000000000000000000000000000008316145b92915050565b3373ffffffffffffffffffffffffffffffffffffffff7f0000000000000000000000000000000000000000000000000000000000000000161461079e576040517ffe1bb40d00000000000000000000000000000000000000000000000000000000815260040160405180910390fd5b6107aa84848484610c50565b50505050565b7f6753d6b325cc45d6566c947baabf366ee79f2a1a197e23fbd9074f661fe28cb16107da81610cbc565b60005b828110156107aa576108178484838181106107fa576107fa611d15565b905060200201602081019061080f9190611d44565b609890610cc9565b506001016107dd565b60008281526065602052604090206001015461083b81610cbc565b6108458383610cf2565b505050565b73ffffffffffffffffffffffffffffffffffffffff811633146108f4576040517f08c379a000000000000000000000000000000000000000000000000000000000815260206004820152602f60248201527f416363657373436f6e74726f6c3a2063616e206f6e6c792072656e6f756e636560448201527f20726f6c657320666f722073656c66000000000000000000000000000000000060648201526084015b60405180910390fd5b6108fe8282610de6565b5050565b7fff073d0dcf74639a8d3c1c189ac3a527293f2fbae27f12acbfdaabd420f2a5f361092c81610cbc565b609a8290556040518281527f951c6f64eb06ec6a6682072cda71420984dd55199006684bb820a80fd7e98793906020015b60405180910390a15050565b7f6753d6b325cc45d6566c947baabf366ee79f2a1a197e23fbd9074f661fe28cb161099381610cbc565b60005b828110156107aa576109d08484838181106109b3576109b3611d15565b90506020020160208101906109c89190611d44565b609890610ea1565b50600101610996565b3373ffffffffffffffffffffffffffffffffffffffff7f00000000000000000000000000000000000000000000000000000000000000001614610a48576040517ffe1bb40d00000000000000000000000000000000000000000000000000000000815260040160405180910390fd5b610845838383610ec3565b3373ffffffffffffffffffffffffffffffffffffffff7f00000000000000000000000000000000000000000000000000000000000000001614610ac2576040517ffe1bb40d00000000000000000000000000000000000000000000000000000000815260040160405180910390fd5b60005b818110156107aa57828282818110610adf57610adf611d15565b9050602002013560000315610b1057610b1084848484818110610b0457610b04611d15565b90506020020135610f73565b600101610ac5565b7f6753d6b325cc45d6566c947baabf366ee79f2a1a197e23fbd9074f661fe28cb1610b4281610cbc565b609780547fffffffffffffffffffffffffffffffffffffffffffffffffffffffffffffff00168315159081179091556040519081527fd76c99a8f1eb77feac25a1b5d67950ec13adb34b7d857c57e8d2894aaf3f230d9060200161095d565b600082815260656020526040902060010154610bbc81610cbc565b6108458383610de6565b6060610bd2609861107f565b905090565b3373ffffffffffffffffffffffffffffffffffffffff7f00000000000000000000000000000000000000000000000000000000000000001614610c46576040517ffe1bb40d00000000000000000000000000000000000000000000000000000000815260040160405180910390fd5b6108fe8282610f73565b80156107aa576000610c8b610c658486611d90565b7f000000000000000000000000000000000000000000000000000000000000000061108c565b905081609a5482610c9c9190611da3565b610ca69190611dba565b6000868152609b60205260409020555050505050565b610cc681336110a2565b50565b6000610ceb8373ffffffffffffffffffffffffffffffffffffffff841661115c565b9392505050565b600082815260656020908152604080832073ffffffffffffffffffffffffffffffffffffffff8516845290915290205460ff166108fe57600082815260656020908152604080832073ffffffffffffffffffffffffffffffffffffffff85168452909152902080547fffffffffffffffffffffffffffffffffffffffffffffffffffffffffffffff00166001179055610d883390565b73ffffffffffffffffffffffffffffffffffffffff168173ffffffffffffffffffffffffffffffffffffffff16837f2f8788117e7eff1d82e926ec794901d17c78024a50270940304540a733656f0d60405160405180910390a45050565b600082815260656020908152604080832073ffffffffffffffffffffffffffffffffffffffff8516845290915290205460ff16156108fe57600082815260656020908152604080832073ffffffffffffffffffffffffffffffffffffffff8516808552925280832080547fffffffffffffffffffffffffffffffffffffffffffffffffffffffffffffff0016905551339285917ff6391f5c32d9c69d2a47ea670b442974b53935d1edc7fd64eb21e047a839171b9190a45050565b6000610ceb8373ffffffffffffffffffffffffffffffffffffffff84166111ab565b60005b818110156107aa576000838383818110610ee257610ee2611d15565b602090810292909201356000818152609c845260408082208a83529094529290922080547fffffffffffffffffffffffff000000000000000000000000000000000000000081169091559192505073ffffffffffffffffffffffffffffffffffffffff16610f4f8161129e565b6000828152609b6020526040902054610f699082906112ee565b5050600101610ec6565b6040517f6352211e000000000000000000000000000000000000000000000000000000008152600481018290527f000000000000000000000000000000000000000000000000000000000000000073ffffffffffffffffffffffffffffffffffffffff1690636352211e90602401602060405180830381865afa158015610ffe573d6000803e3d6000fd5b505050506040513d601f19601f820116820180604052508101906110229190611df5565b6000928352609c60209081526040808520938552929052912080547fffffffffffffffffffffffff00000000000000000000000000000000000000001673ffffffffffffffffffffffffffffffffffffffff909216919091179055565b60606000610ceb83611410565b600081831061109b5781610ceb565b5090919050565b600082815260656020908152604080832073ffffffffffffffffffffffffffffffffffffffff8516845290915290205460ff166108fe576110e28161146c565b6110ed83602061148b565b6040516020016110fe929190611e36565b604080517fffffffffffffffffffffffffffffffffffffffffffffffffffffffffffffffe0818403018152908290527f08c379a00000000000000000000000000000000000000000000000000000000082526108eb91600401611eb7565b60008181526001830160205260408120546111a357508154600181810184556000848152602080822090930184905584548482528286019093526040902091909155610729565b506000610729565b600081815260018301602052604081205480156112945760006111cf600183611d90565b85549091506000906111e390600190611d90565b905081811461124857600086600001828154811061120357611203611d15565b906000526020600020015490508087600001848154811061122657611226611d15565b6000918252602080832090910192909255918252600188019052604090208390555b855486908061125957611259611f08565b600190038181906000526020600020016000905590558560010160008681526020019081526020016000206000905560019350505050610729565b6000915050610729565b60975460ff161580156112b757506112b5816116ce565b155b15610cc6576040517f0b15b77a00000000000000000000000000000000000000000000000000000000815260040160405180910390fd5b7fffffffffffffffffffffffff11111111111111111111111111111111111111127f000000000000000000000000000000000000000000000000000000000000000073ffffffffffffffffffffffffffffffffffffffff16016113e55760008273ffffffffffffffffffffffffffffffffffffffff168260405160006040518083038185875af1925050503d80600081146113a5576040519150601f19603f3d011682016040523d82523d6000602084013e6113aa565b606091505b5050905080610845576040517fb12d13eb00000000000000000000000000000000000000000000000000000000815260040160405180910390fd5b6108fe7f000000000000000000000000000000000000000000000000000000000000000083836116db565b60608160000180548060200260200160405190810160405280929190818152602001828054801561146057602002820191906000526020600020905b81548152602001906001019080831161144c575b50505050509050919050565b606061072973ffffffffffffffffffffffffffffffffffffffff831660145b6060600061149a836002611da3565b6114a5906002611f37565b67ffffffffffffffff8111156114bd576114bd611f4a565b6040519080825280601f01601f1916602001820160405280156114e7576020820181803683370190505b5090507f30000000000000000000000000000000000000000000000000000000000000008160008151811061151e5761151e611d15565b60200101907effffffffffffffffffffffffffffffffffffffffffffffffffffffffffffff1916908160001a9053507f78000000000000000000000000000000000000000000000000000000000000008160018151811061158157611581611d15565b60200101907effffffffffffffffffffffffffffffffffffffffffffffffffffffffffffff1916908160001a90535060006115bd846002611da3565b6115c8906001611f37565b90505b6001811115611665577f303132333435363738396162636465660000000000000000000000000000000085600f166010811061160957611609611d15565b1a60f81b82828151811061161f5761161f611d15565b60200101907effffffffffffffffffffffffffffffffffffffffffffffffffffffffffffff1916908160001a90535060049490941c9361165e81611f79565b90506115cb565b508315610ceb576040517f08c379a000000000000000000000000000000000000000000000000000000000815260206004820181905260248201527f537472696e67733a20686578206c656e67746820696e73756666696369656e7460448201526064016108eb565b6000610729609883611768565b6040805173ffffffffffffffffffffffffffffffffffffffff8416602482015260448082018490528251808303909101815260649091019091526020810180517bffffffffffffffffffffffffffffffffffffffffffffffffffffffff167fa9059cbb00000000000000000000000000000000000000000000000000000000179052610845908490611797565b73ffffffffffffffffffffffffffffffffffffffff811660009081526001830160205260408120541515610ceb565b60006117f9826040518060400160405280602081526020017f5361666545524332303a206c6f772d6c6576656c2063616c6c206661696c65648152508573ffffffffffffffffffffffffffffffffffffffff166118a69092919063ffffffff16565b905080516000148061181a57508080602001905181019061181a9190611fae565b610845576040517f08c379a000000000000000000000000000000000000000000000000000000000815260206004820152602a60248201527f5361666545524332303a204552433230206f7065726174696f6e20646964206e60448201527f6f7420737563636565640000000000000000000000000000000000000000000060648201526084016108eb565b60606118b584846000856118bd565b949350505050565b60608247101561194f576040517f08c379a000000000000000000000000000000000000000000000000000000000815260206004820152602660248201527f416464726573733a20696e73756666696369656e742062616c616e636520666f60448201527f722063616c6c000000000000000000000000000000000000000000000000000060648201526084016108eb565b6000808673ffffffffffffffffffffffffffffffffffffffff1685876040516119789190611fcb565b60006040518083038185875af1925050503d80600081146119b5576040519150601f19603f3d011682016040523d82523d6000602084013e6119ba565b606091505b50915091506119cb878383876119d6565b979650505050505050565b60608315611a6c578251600003611a655773ffffffffffffffffffffffffffffffffffffffff85163b611a65576040517f08c379a000000000000000000000000000000000000000000000000000000000815260206004820152601d60248201527f416464726573733a2063616c6c20746f206e6f6e2d636f6e747261637400000060448201526064016108eb565b50816118b5565b6118b58383815115611a815781518083602001fd5b806040517f08c379a00000000000000000000000000000000000000000000000000000000081526004016108eb9190611eb7565b600060208284031215611ac757600080fd5b81357fffffffff0000000000000000000000000000000000000000000000000000000081168114610ceb57600080fd5b60008060408385031215611b0a57600080fd5b50508035926020909101359150565b60008060008060808587031215611b2f57600080fd5b5050823594602084013594506040840135936060013592509050565b60008083601f840112611b5d57600080fd5b50813567ffffffffffffffff811115611b7557600080fd5b6020830191508360208260051b8501011115611b9057600080fd5b9250929050565b60008060208385031215611baa57600080fd5b823567ffffffffffffffff811115611bc157600080fd5b611bcd85828601611b4b565b90969095509350505050565b600060208284031215611beb57600080fd5b5035919050565b73ffffffffffffffffffffffffffffffffffffffff81168114610cc657600080fd5b60008060408385031215611c2757600080fd5b823591506020830135611c3981611bf2565b809150509250929050565b600080600060408486031215611c5957600080fd5b83359250602084013567ffffffffffffffff811115611c7757600080fd5b611c8386828701611b4b565b9497909650939450505050565b8015158114610cc657600080fd5b600060208284031215611cb057600080fd5b8135610ceb81611c90565b6020808252825182820181905260009190848201906040850190845b81811015611d0957835173ffffffffffffffffffffffffffffffffffffffff1683529284019291840191600101611cd7565b50909695505050505050565b7f4e487b7100000000000000000000000000000000000000000000000000000000600052603260045260246000fd5b600060208284031215611d5657600080fd5b8135610ceb81611bf2565b7f4e487b7100000000000000000000000000000000000000000000000000000000600052601160045260246000fd5b8181038181111561072957610729611d61565b808202811582820484141761072957610729611d61565b600082611df0577f4e487b7100000000000000000000000000000000000000000000000000000000600052601260045260246000fd5b500490565b600060208284031215611e0757600080fd5b8151610ceb81611bf2565b60005b83811015611e2d578181015183820152602001611e15565b50506000910152565b7f416363657373436f6e74726f6c3a206163636f756e7420000000000000000000815260008351611e6e816017850160208801611e12565b7f206973206d697373696e6720726f6c65200000000000000000000000000000006017918401918201528351611eab816028840160208801611e12565b01602801949350505050565b6020815260008251806020840152611ed6816040850160208701611e12565b601f017fffffffffffffffffffffffffffffffffffffffffffffffffffffffffffffffe0169190910160400192915050565b7f4e487b7100000000000000000000000000000000000000000000000000000000600052603160045260246000fd5b8082018082111561072957610729611d61565b7f4e487b7100000000000000000000000000000000000000000000000000000000600052604160045260246000fd5b600081611f8857611f88611d61565b507fffffffffffffffffffffffffffffffffffffffffffffffffffffffffffffffff0190565b600060208284031215611fc057600080fd5b8151610ceb81611c90565b60008251611fdd818460208701611e12565b919091019291505056fea26469706673582212203531ac8f9b719466714b06165c2743902b8c3352ffc594ba6a3d17b6a0f8cd1164736f6c63430008160033b19546dff01e856fb3f010c267a7b1c60363cf8a4664e21cc89c26224620214e","opcodes":"PUSH2 0x100 PUSH1 0x40 MSTORE CALLVALUE DUP1 ISZERO PUSH3 0x12 JUMPI PUSH1 0x0 DUP1 REVERT JUMPDEST POP PUSH1 0x40 MLOAD PUSH3 0x233B CODESIZE SUB DUP1 PUSH3 0x233B DUP4 CODECOPY DUP2 ADD PUSH1 0x40 DUP2 SWAP1 MSTORE PUSH3 0x35 SWAP2 PUSH3 0x21D JUMP JUMPDEST PUSH1 0x1 PUSH1 0x1 PUSH1 0xA0 SHL SUB DUP1 DUP5 AND PUSH1 0x80 MSTORE DUP1 DUP7 AND PUSH1 0xA0 MSTORE DUP5 AND PUSH1 0xC0 MSTORE PUSH1 0xE0 DUP7 SWAP1 MSTORE PUSH1 0x9A DUP3 SWAP1 SSTORE PUSH3 0x93 PUSH32 0xFF073D0DCF74639A8D3C1C189AC3A527293F2FBAE27F12ACBFDAABD420F2A5F3 PUSH1 0x0 DUP1 MLOAD PUSH1 0x20 PUSH3 0x231B DUP4 CODECOPY DUP2 MLOAD SWAP2 MSTORE PUSH3 0x110 JUMP JUMPDEST PUSH3 0xCE PUSH32 0x6753D6B325CC45D6566C947BAABF366EE79F2A1A197E23FBD9074F661FE28CB1 PUSH1 0x0 DUP1 MLOAD PUSH1 0x20 PUSH3 0x231B DUP4 CODECOPY DUP2 MLOAD SWAP2 MSTORE PUSH3 0x110 JUMP JUMPDEST PUSH3 0xE9 PUSH1 0x0 DUP1 MLOAD PUSH1 0x20 PUSH3 0x231B DUP4 CODECOPY DUP2 MLOAD SWAP2 MSTORE DUP1 PUSH3 0x110 JUMP JUMPDEST PUSH3 0x104 PUSH1 0x0 DUP1 MLOAD PUSH1 0x20 PUSH3 0x231B DUP4 CODECOPY DUP2 MLOAD SWAP2 MSTORE DUP3 PUSH3 0x15B JUMP JUMPDEST POP POP POP POP POP POP PUSH3 0x28C JUMP JUMPDEST PUSH1 0x0 DUP3 DUP2 MSTORE PUSH1 0x65 PUSH1 0x20 MSTORE PUSH1 0x40 DUP1 DUP3 KECCAK256 PUSH1 0x1 ADD DUP1 SLOAD SWAP1 DUP5 SWAP1 SSTORE SWAP1 MLOAD SWAP1 SWAP2 DUP4 SWAP2 DUP4 SWAP2 DUP7 SWAP2 PUSH32 0xBD79B86FFE0AB8E8776151514217CD7CACD52C909F66475C3AF44E129F0B00FF SWAP2 SWAP1 LOG4 POP POP POP JUMP JUMPDEST PUSH1 0x0 DUP3 DUP2 MSTORE PUSH1 0x65 PUSH1 0x20 SWAP1 DUP2 MSTORE PUSH1 0x40 DUP1 DUP4 KECCAK256 PUSH1 0x1 PUSH1 0x1 PUSH1 0xA0 SHL SUB DUP6 AND DUP5 MSTORE SWAP1 SWAP2 MSTORE SWAP1 KECCAK256 SLOAD PUSH1 0xFF AND PUSH3 0x1FC JUMPI PUSH1 0x0 DUP3 DUP2 MSTORE PUSH1 0x65 PUSH1 0x20 SWAP1 DUP2 MSTORE PUSH1 0x40 DUP1 DUP4 KECCAK256 PUSH1 0x1 PUSH1 0x1 PUSH1 0xA0 SHL SUB DUP6 AND DUP5 MSTORE SWAP1 SWAP2 MSTORE SWAP1 KECCAK256 DUP1 SLOAD PUSH1 0xFF NOT AND PUSH1 0x1 OR SWAP1 SSTORE PUSH3 0x1BB CALLER SWAP1 JUMP JUMPDEST PUSH1 0x1 PUSH1 0x1 PUSH1 0xA0 SHL SUB AND DUP2 PUSH1 0x1 PUSH1 0x1 PUSH1 0xA0 SHL SUB AND DUP4 PUSH32 0x2F8788117E7EFF1D82E926EC794901D17C78024A50270940304540A733656F0D PUSH1 0x40 MLOAD PUSH1 0x40 MLOAD DUP1 SWAP2 SUB SWAP1 LOG4 JUMPDEST POP POP JUMP JUMPDEST DUP1 MLOAD PUSH1 0x1 PUSH1 0x1 PUSH1 0xA0 SHL SUB DUP2 AND DUP2 EQ PUSH3 0x218 JUMPI PUSH1 0x0 DUP1 REVERT JUMPDEST SWAP2 SWAP1 POP JUMP JUMPDEST PUSH1 0x0 DUP1 PUSH1 0x0 DUP1 PUSH1 0x0 DUP1 PUSH1 0xC0 DUP8 DUP10 SUB SLT ISZERO PUSH3 0x237 JUMPI PUSH1 0x0 DUP1 REVERT JUMPDEST DUP7 MLOAD SWAP6 POP PUSH3 0x249 PUSH1 0x20 DUP9 ADD PUSH3 0x200 JUMP JUMPDEST SWAP5 POP PUSH3 0x259 PUSH1 0x40 DUP9 ADD PUSH3 0x200 JUMP JUMPDEST SWAP4 POP PUSH3 0x269 PUSH1 0x60 DUP9 ADD PUSH3 0x200 JUMP JUMPDEST SWAP3 POP PUSH1 0x80 DUP8 ADD MLOAD SWAP2 POP PUSH3 0x280 PUSH1 0xA0 DUP9 ADD PUSH3 0x200 JUMP JUMPDEST SWAP1 POP SWAP3 SWAP6 POP SWAP3 SWAP6 POP SWAP3 SWAP6 JUMP JUMPDEST PUSH1 0x80 MLOAD PUSH1 0xA0 MLOAD PUSH1 0xC0 MLOAD PUSH1 0xE0 MLOAD PUSH2 0x201D PUSH3 0x2FE PUSH1 0x0 CODECOPY PUSH1 0x0 DUP2 DUP2 PUSH2 0x58A ADD MSTORE PUSH2 0xC67 ADD MSTORE PUSH1 0x0 DUP2 DUP2 PUSH2 0x536 ADD MSTORE PUSH2 0xFA2 ADD MSTORE PUSH1 0x0 DUP2 DUP2 PUSH2 0x499 ADD MSTORE DUP2 DUP2 PUSH2 0x747 ADD MSTORE DUP2 DUP2 PUSH2 0x9F1 ADD MSTORE DUP2 DUP2 PUSH2 0xA6B ADD MSTORE PUSH2 0xBEF ADD MSTORE PUSH1 0x0 DUP2 DUP2 PUSH2 0x4CD ADD MSTORE DUP2 DUP2 PUSH2 0x1311 ADD MSTORE PUSH2 0x13EA ADD MSTORE PUSH2 0x201D PUSH1 0x0 RETURN INVALID PUSH1 0x80 PUSH1 0x40 MSTORE PUSH1 0x4 CALLDATASIZE LT PUSH2 0x1BB JUMPI PUSH1 0x0 CALLDATALOAD PUSH1 0xE0 SHR DUP1 PUSH4 0x91D14854 GT PUSH2 0xEC JUMPI DUP1 PUSH4 0xC2A74752 GT PUSH2 0x8A JUMPI DUP1 PUSH4 0xDCD50D2E GT PUSH2 0x64 JUMPI DUP1 PUSH4 0xDCD50D2E EQ PUSH2 0x5EC JUMPI DUP1 PUSH4 0xE2D18BE6 EQ PUSH2 0x620 JUMPI DUP1 PUSH4 0xE58378BB EQ PUSH2 0x642 JUMPI DUP1 PUSH4 0xE6ED1180 EQ PUSH2 0x676 JUMPI PUSH1 0x0 DUP1 REVERT JUMPDEST DUP1 PUSH4 0xC2A74752 EQ PUSH2 0x578 JUMPI DUP1 PUSH4 0xCBD73CB2 EQ PUSH2 0x5AC JUMPI DUP1 PUSH4 0xD547741F EQ PUSH2 0x5CC JUMPI PUSH1 0x0 DUP1 REVERT JUMPDEST DUP1 PUSH4 0x9B6E0D74 GT PUSH2 0xC6 JUMPI DUP1 PUSH4 0x9B6E0D74 EQ PUSH2 0x4EF JUMPI DUP1 PUSH4 0xA217FDDF EQ PUSH2 0x50F JUMPI DUP1 PUSH4 0xA5F957F9 EQ PUSH2 0x524 JUMPI DUP1 PUSH4 0xB7355FB4 EQ PUSH2 0x558 JUMPI PUSH1 0x0 DUP1 REVERT JUMPDEST DUP1 PUSH4 0x91D14854 EQ PUSH2 0x434 JUMPI DUP1 PUSH4 0x95126FE6 EQ PUSH2 0x487 JUMPI DUP1 PUSH4 0x99248EA7 EQ PUSH2 0x4BB JUMPI PUSH1 0x0 DUP1 REVERT JUMPDEST DUP1 PUSH4 0x5DFF0CE9 GT PUSH2 0x159 JUMPI DUP1 PUSH4 0x7CD727BA GT PUSH2 0x133 JUMPI DUP1 PUSH4 0x7CD727BA EQ PUSH2 0x396 JUMPI DUP1 PUSH4 0x86F8A03E EQ PUSH2 0x3B6 JUMPI DUP1 PUSH4 0x8AD9C511 EQ PUSH2 0x3EA JUMPI DUP1 PUSH4 0x8F10369A EQ PUSH2 0x41E JUMPI PUSH1 0x0 DUP1 REVERT JUMPDEST DUP1 PUSH4 0x5DFF0CE9 EQ PUSH2 0x32F JUMPI DUP1 PUSH4 0x66DA5815 EQ PUSH2 0x349 JUMPI DUP1 PUSH4 0x6F63B8AB EQ PUSH2 0x369 JUMPI PUSH1 0x0 DUP1 REVERT JUMPDEST DUP1 PUSH4 0x229D683D GT PUSH2 0x195 JUMPI DUP1 PUSH4 0x229D683D EQ PUSH2 0x291 JUMPI DUP1 PUSH4 0x248A9CA3 EQ PUSH2 0x2B1 JUMPI DUP1 PUSH4 0x2F2FF15D EQ PUSH2 0x2EF JUMPI DUP1 PUSH4 0x36568ABE EQ PUSH2 0x30F JUMPI PUSH1 0x0 DUP1 REVERT JUMPDEST DUP1 PUSH4 0x1FFC9A7 EQ PUSH2 0x1C7 JUMPI DUP1 PUSH4 0xF0479B4 EQ PUSH2 0x1FC JUMPI DUP1 PUSH4 0x1BCDB77A EQ PUSH2 0x26F JUMPI PUSH1 0x0 DUP1 REVERT JUMPDEST CALLDATASIZE PUSH2 0x1C2 JUMPI STOP JUMPDEST PUSH1 0x0 DUP1 REVERT JUMPDEST CALLVALUE DUP1 ISZERO PUSH2 0x1D3 JUMPI PUSH1 0x0 DUP1 REVERT JUMPDEST POP PUSH2 0x1E7 PUSH2 0x1E2 CALLDATASIZE PUSH1 0x4 PUSH2 0x1AB5 JUMP JUMPDEST PUSH2 0x696 JUMP JUMPDEST PUSH1 0x40 MLOAD SWAP1 ISZERO ISZERO DUP2 MSTORE PUSH1 0x20 ADD JUMPDEST PUSH1 0x40 MLOAD DUP1 SWAP2 SUB SWAP1 RETURN JUMPDEST CALLVALUE DUP1 ISZERO PUSH2 0x208 JUMPI PUSH1 0x0 DUP1 REVERT JUMPDEST POP PUSH2 0x24A PUSH2 0x217 CALLDATASIZE PUSH1 0x4 PUSH2 0x1AF7 JUMP JUMPDEST PUSH1 0x9C PUSH1 0x20 SWAP1 DUP2 MSTORE PUSH1 0x0 SWAP3 DUP4 MSTORE PUSH1 0x40 DUP1 DUP5 KECCAK256 SWAP1 SWAP2 MSTORE SWAP1 DUP3 MSTORE SWAP1 KECCAK256 SLOAD PUSH20 0xFFFFFFFFFFFFFFFFFFFFFFFFFFFFFFFFFFFFFFFF AND DUP2 JUMP JUMPDEST PUSH1 0x40 MLOAD PUSH20 0xFFFFFFFFFFFFFFFFFFFFFFFFFFFFFFFFFFFFFFFF SWAP1 SWAP2 AND DUP2 MSTORE PUSH1 0x20 ADD PUSH2 0x1F3 JUMP JUMPDEST CALLVALUE DUP1 ISZERO PUSH2 0x27B JUMPI PUSH1 0x0 DUP1 REVERT JUMPDEST POP PUSH2 0x28F PUSH2 0x28A CALLDATASIZE PUSH1 0x4 PUSH2 0x1B19 JUMP JUMPDEST PUSH2 0x72F JUMP JUMPDEST STOP JUMPDEST CALLVALUE DUP1 ISZERO PUSH2 0x29D JUMPI PUSH1 0x0 DUP1 REVERT JUMPDEST POP PUSH2 0x28F PUSH2 0x2AC CALLDATASIZE PUSH1 0x4 PUSH2 0x1B97 JUMP JUMPDEST PUSH2 0x7B0 JUMP JUMPDEST CALLVALUE DUP1 ISZERO PUSH2 0x2BD JUMPI PUSH1 0x0 DUP1 REVERT JUMPDEST POP PUSH2 0x2E1 PUSH2 0x2CC CALLDATASIZE PUSH1 0x4 PUSH2 0x1BD9 JUMP JUMPDEST PUSH1 0x0 SWAP1 DUP2 MSTORE PUSH1 0x65 PUSH1 0x20 MSTORE PUSH1 0x40 SWAP1 KECCAK256 PUSH1 0x1 ADD SLOAD SWAP1 JUMP JUMPDEST PUSH1 0x40 MLOAD SWAP1 DUP2 MSTORE PUSH1 0x20 ADD PUSH2 0x1F3 JUMP JUMPDEST CALLVALUE DUP1 ISZERO PUSH2 0x2FB JUMPI PUSH1 0x0 DUP1 REVERT JUMPDEST POP PUSH2 0x28F PUSH2 0x30A CALLDATASIZE PUSH1 0x4 PUSH2 0x1C14 JUMP JUMPDEST PUSH2 0x820 JUMP JUMPDEST CALLVALUE DUP1 ISZERO PUSH2 0x31B JUMPI PUSH1 0x0 DUP1 REVERT JUMPDEST POP PUSH2 0x28F PUSH2 0x32A CALLDATASIZE PUSH1 0x4 PUSH2 0x1C14 JUMP JUMPDEST PUSH2 0x84A JUMP JUMPDEST CALLVALUE DUP1 ISZERO PUSH2 0x33B JUMPI PUSH1 0x0 DUP1 REVERT JUMPDEST POP PUSH1 0x97 SLOAD PUSH2 0x1E7 SWAP1 PUSH1 0xFF AND DUP2 JUMP JUMPDEST CALLVALUE DUP1 ISZERO PUSH2 0x355 JUMPI PUSH1 0x0 DUP1 REVERT JUMPDEST POP PUSH2 0x28F PUSH2 0x364 CALLDATASIZE PUSH1 0x4 PUSH2 0x1BD9 JUMP JUMPDEST PUSH2 0x902 JUMP JUMPDEST CALLVALUE DUP1 ISZERO PUSH2 0x375 JUMPI PUSH1 0x0 DUP1 REVERT JUMPDEST POP PUSH2 0x2E1 PUSH2 0x384 CALLDATASIZE PUSH1 0x4 PUSH2 0x1BD9 JUMP JUMPDEST PUSH1 0x9B PUSH1 0x20 MSTORE PUSH1 0x0 SWAP1 DUP2 MSTORE PUSH1 0x40 SWAP1 KECCAK256 SLOAD DUP2 JUMP JUMPDEST CALLVALUE DUP1 ISZERO PUSH2 0x3A2 JUMPI PUSH1 0x0 DUP1 REVERT JUMPDEST POP PUSH2 0x28F PUSH2 0x3B1 CALLDATASIZE PUSH1 0x4 PUSH2 0x1B97 JUMP JUMPDEST PUSH2 0x969 JUMP JUMPDEST CALLVALUE DUP1 ISZERO PUSH2 0x3C2 JUMPI PUSH1 0x0 DUP1 REVERT JUMPDEST POP PUSH2 0x2E1 PUSH32 0x6753D6B325CC45D6566C947BAABF366EE79F2A1A197E23FBD9074F661FE28CB1 DUP2 JUMP JUMPDEST CALLVALUE DUP1 ISZERO PUSH2 0x3F6 JUMPI PUSH1 0x0 DUP1 REVERT JUMPDEST POP PUSH2 0x2E1 PUSH32 0xFF073D0DCF74639A8D3C1C189AC3A527293F2FBAE27F12ACBFDAABD420F2A5F3 DUP2 JUMP JUMPDEST CALLVALUE DUP1 ISZERO PUSH2 0x42A JUMPI PUSH1 0x0 DUP1 REVERT JUMPDEST POP PUSH2 0x2E1 PUSH1 0x9A SLOAD DUP2 JUMP JUMPDEST CALLVALUE DUP1 ISZERO PUSH2 0x440 JUMPI PUSH1 0x0 DUP1 REVERT JUMPDEST POP PUSH2 0x1E7 PUSH2 0x44F CALLDATASIZE PUSH1 0x4 PUSH2 0x1C14 JUMP JUMPDEST PUSH1 0x0 SWAP2 DUP3 MSTORE PUSH1 0x65 PUSH1 0x20 SWAP1 DUP2 MSTORE PUSH1 0x40 DUP1 DUP5 KECCAK256 PUSH20 0xFFFFFFFFFFFFFFFFFFFFFFFFFFFFFFFFFFFFFFFF SWAP4 SWAP1 SWAP4 AND DUP5 MSTORE SWAP2 SWAP1 MSTORE SWAP1 KECCAK256 SLOAD PUSH1 0xFF AND SWAP1 JUMP JUMPDEST CALLVALUE DUP1 ISZERO PUSH2 0x493 JUMPI PUSH1 0x0 DUP1 REVERT JUMPDEST POP PUSH2 0x24A PUSH32 0x0 DUP2 JUMP JUMPDEST CALLVALUE DUP1 ISZERO PUSH2 0x4C7 JUMPI PUSH1 0x0 DUP1 REVERT JUMPDEST POP PUSH2 0x24A PUSH32 0x0 DUP2 JUMP JUMPDEST CALLVALUE DUP1 ISZERO PUSH2 0x4FB JUMPI PUSH1 0x0 DUP1 REVERT JUMPDEST POP PUSH2 0x28F PUSH2 0x50A CALLDATASIZE PUSH1 0x4 PUSH2 0x1C44 JUMP JUMPDEST PUSH2 0x9D9 JUMP JUMPDEST CALLVALUE DUP1 ISZERO PUSH2 0x51B JUMPI PUSH1 0x0 DUP1 REVERT JUMPDEST POP PUSH2 0x2E1 PUSH1 0x0 DUP2 JUMP JUMPDEST CALLVALUE DUP1 ISZERO PUSH2 0x530 JUMPI PUSH1 0x0 DUP1 REVERT JUMPDEST POP PUSH2 0x24A PUSH32 0x0 DUP2 JUMP JUMPDEST CALLVALUE DUP1 ISZERO PUSH2 0x564 JUMPI PUSH1 0x0 DUP1 REVERT JUMPDEST POP PUSH2 0x28F PUSH2 0x573 CALLDATASIZE PUSH1 0x4 PUSH2 0x1C44 JUMP JUMPDEST PUSH2 0xA53 JUMP JUMPDEST CALLVALUE DUP1 ISZERO PUSH2 0x584 JUMPI PUSH1 0x0 DUP1 REVERT JUMPDEST POP PUSH2 0x2E1 PUSH32 0x0 DUP2 JUMP JUMPDEST CALLVALUE DUP1 ISZERO PUSH2 0x5B8 JUMPI PUSH1 0x0 DUP1 REVERT JUMPDEST POP PUSH2 0x28F PUSH2 0x5C7 CALLDATASIZE PUSH1 0x4 PUSH2 0x1C9E JUMP JUMPDEST PUSH2 0xB18 JUMP JUMPDEST CALLVALUE DUP1 ISZERO PUSH2 0x5D8 JUMPI PUSH1 0x0 DUP1 REVERT JUMPDEST POP PUSH2 0x28F PUSH2 0x5E7 CALLDATASIZE PUSH1 0x4 PUSH2 0x1C14 JUMP JUMPDEST PUSH2 0xBA1 JUMP JUMPDEST CALLVALUE DUP1 ISZERO PUSH2 0x5F8 JUMPI PUSH1 0x0 DUP1 REVERT JUMPDEST POP PUSH2 0x2E1 PUSH32 0x5E9BCE9D0EF4F3DDC258EB9C04459FD66D9887E1079E0B19880FC501A3DDD5F DUP2 JUMP JUMPDEST CALLVALUE DUP1 ISZERO PUSH2 0x62C JUMPI PUSH1 0x0 DUP1 REVERT JUMPDEST POP PUSH2 0x635 PUSH2 0xBC6 JUMP JUMPDEST PUSH1 0x40 MLOAD PUSH2 0x1F3 SWAP2 SWAP1 PUSH2 0x1CBB JUMP JUMPDEST CALLVALUE DUP1 ISZERO PUSH2 0x64E JUMPI PUSH1 0x0 DUP1 REVERT JUMPDEST POP PUSH2 0x2E1 PUSH32 0xB19546DFF01E856FB3F010C267A7B1C60363CF8A4664E21CC89C26224620214E DUP2 JUMP JUMPDEST CALLVALUE DUP1 ISZERO PUSH2 0x682 JUMPI PUSH1 0x0 DUP1 REVERT JUMPDEST POP PUSH2 0x28F PUSH2 0x691 CALLDATASIZE PUSH1 0x4 PUSH2 0x1AF7 JUMP JUMPDEST PUSH2 0xBD7 JUMP JUMPDEST PUSH1 0x0 PUSH32 0xFFFFFFFF00000000000000000000000000000000000000000000000000000000 DUP3 AND PUSH32 0x7965DB0B00000000000000000000000000000000000000000000000000000000 EQ DUP1 PUSH2 0x729 JUMPI POP PUSH32 0x1FFC9A700000000000000000000000000000000000000000000000000000000 PUSH32 0xFFFFFFFF00000000000000000000000000000000000000000000000000000000 DUP4 AND EQ JUMPDEST SWAP3 SWAP2 POP POP JUMP JUMPDEST CALLER PUSH20 0xFFFFFFFFFFFFFFFFFFFFFFFFFFFFFFFFFFFFFFFF PUSH32 0x0 AND EQ PUSH2 0x79E JUMPI PUSH1 0x40 MLOAD PUSH32 0xFE1BB40D00000000000000000000000000000000000000000000000000000000 DUP2 MSTORE PUSH1 0x4 ADD PUSH1 0x40 MLOAD DUP1 SWAP2 SUB SWAP1 REVERT JUMPDEST PUSH2 0x7AA DUP5 DUP5 DUP5 DUP5 PUSH2 0xC50 JUMP JUMPDEST POP POP POP POP JUMP JUMPDEST PUSH32 0x6753D6B325CC45D6566C947BAABF366EE79F2A1A197E23FBD9074F661FE28CB1 PUSH2 0x7DA DUP2 PUSH2 0xCBC JUMP JUMPDEST PUSH1 0x0 JUMPDEST DUP3 DUP2 LT ISZERO PUSH2 0x7AA JUMPI PUSH2 0x817 DUP5 DUP5 DUP4 DUP2 DUP2 LT PUSH2 0x7FA JUMPI PUSH2 0x7FA PUSH2 0x1D15 JUMP JUMPDEST SWAP1 POP PUSH1 0x20 MUL ADD PUSH1 0x20 DUP2 ADD SWAP1 PUSH2 0x80F SWAP2 SWAP1 PUSH2 0x1D44 JUMP JUMPDEST PUSH1 0x98 SWAP1 PUSH2 0xCC9 JUMP JUMPDEST POP PUSH1 0x1 ADD PUSH2 0x7DD JUMP JUMPDEST PUSH1 0x0 DUP3 DUP2 MSTORE PUSH1 0x65 PUSH1 0x20 MSTORE PUSH1 0x40 SWAP1 KECCAK256 PUSH1 0x1 ADD SLOAD PUSH2 0x83B DUP2 PUSH2 0xCBC JUMP JUMPDEST PUSH2 0x845 DUP4 DUP4 PUSH2 0xCF2 JUMP JUMPDEST POP POP POP JUMP JUMPDEST PUSH20 0xFFFFFFFFFFFFFFFFFFFFFFFFFFFFFFFFFFFFFFFF DUP2 AND CALLER EQ PUSH2 0x8F4 JUMPI PUSH1 0x40 MLOAD PUSH32 0x8C379A000000000000000000000000000000000000000000000000000000000 DUP2 MSTORE PUSH1 0x20 PUSH1 0x4 DUP3 ADD MSTORE PUSH1 0x2F PUSH1 0x24 DUP3 ADD MSTORE PUSH32 0x416363657373436F6E74726F6C3A2063616E206F6E6C792072656E6F756E6365 PUSH1 0x44 DUP3 ADD MSTORE PUSH32 0x20726F6C657320666F722073656C660000000000000000000000000000000000 PUSH1 0x64 DUP3 ADD MSTORE PUSH1 0x84 ADD JUMPDEST PUSH1 0x40 MLOAD DUP1 SWAP2 SUB SWAP1 REVERT JUMPDEST PUSH2 0x8FE DUP3 DUP3 PUSH2 0xDE6 JUMP JUMPDEST POP POP JUMP JUMPDEST PUSH32 0xFF073D0DCF74639A8D3C1C189AC3A527293F2FBAE27F12ACBFDAABD420F2A5F3 PUSH2 0x92C DUP2 PUSH2 0xCBC JUMP JUMPDEST PUSH1 0x9A DUP3 SWAP1 SSTORE PUSH1 0x40 MLOAD DUP3 DUP2 MSTORE PUSH32 0x951C6F64EB06EC6A6682072CDA71420984DD55199006684BB820A80FD7E98793 SWAP1 PUSH1 0x20 ADD JUMPDEST PUSH1 0x40 MLOAD DUP1 SWAP2 SUB SWAP1 LOG1 POP POP JUMP JUMPDEST PUSH32 0x6753D6B325CC45D6566C947BAABF366EE79F2A1A197E23FBD9074F661FE28CB1 PUSH2 0x993 DUP2 PUSH2 0xCBC JUMP JUMPDEST PUSH1 0x0 JUMPDEST DUP3 DUP2 LT ISZERO PUSH2 0x7AA JUMPI PUSH2 0x9D0 DUP5 DUP5 DUP4 DUP2 DUP2 LT PUSH2 0x9B3 JUMPI PUSH2 0x9B3 PUSH2 0x1D15 JUMP JUMPDEST SWAP1 POP PUSH1 0x20 MUL ADD PUSH1 0x20 DUP2 ADD SWAP1 PUSH2 0x9C8 SWAP2 SWAP1 PUSH2 0x1D44 JUMP JUMPDEST PUSH1 0x98 SWAP1 PUSH2 0xEA1 JUMP JUMPDEST POP PUSH1 0x1 ADD PUSH2 0x996 JUMP JUMPDEST CALLER PUSH20 0xFFFFFFFFFFFFFFFFFFFFFFFFFFFFFFFFFFFFFFFF PUSH32 0x0 AND EQ PUSH2 0xA48 JUMPI PUSH1 0x40 MLOAD PUSH32 0xFE1BB40D00000000000000000000000000000000000000000000000000000000 DUP2 MSTORE PUSH1 0x4 ADD PUSH1 0x40 MLOAD DUP1 SWAP2 SUB SWAP1 REVERT JUMPDEST PUSH2 0x845 DUP4 DUP4 DUP4 PUSH2 0xEC3 JUMP JUMPDEST CALLER PUSH20 0xFFFFFFFFFFFFFFFFFFFFFFFFFFFFFFFFFFFFFFFF PUSH32 0x0 AND EQ PUSH2 0xAC2 JUMPI PUSH1 0x40 MLOAD PUSH32 0xFE1BB40D00000000000000000000000000000000000000000000000000000000 DUP2 MSTORE PUSH1 0x4 ADD PUSH1 0x40 MLOAD DUP1 SWAP2 SUB SWAP1 REVERT JUMPDEST PUSH1 0x0 JUMPDEST DUP2 DUP2 LT ISZERO PUSH2 0x7AA JUMPI DUP3 DUP3 DUP3 DUP2 DUP2 LT PUSH2 0xADF JUMPI PUSH2 0xADF PUSH2 0x1D15 JUMP JUMPDEST SWAP1 POP PUSH1 0x20 MUL ADD CALLDATALOAD PUSH1 0x0 SUB ISZERO PUSH2 0xB10 JUMPI PUSH2 0xB10 DUP5 DUP5 DUP5 DUP5 DUP2 DUP2 LT PUSH2 0xB04 JUMPI PUSH2 0xB04 PUSH2 0x1D15 JUMP JUMPDEST SWAP1 POP PUSH1 0x20 MUL ADD CALLDATALOAD PUSH2 0xF73 JUMP JUMPDEST PUSH1 0x1 ADD PUSH2 0xAC5 JUMP JUMPDEST PUSH32 0x6753D6B325CC45D6566C947BAABF366EE79F2A1A197E23FBD9074F661FE28CB1 PUSH2 0xB42 DUP2 PUSH2 0xCBC JUMP JUMPDEST PUSH1 0x97 DUP1 SLOAD PUSH32 0xFFFFFFFFFFFFFFFFFFFFFFFFFFFFFFFFFFFFFFFFFFFFFFFFFFFFFFFFFFFFFF00 AND DUP4 ISZERO ISZERO SWAP1 DUP2 OR SWAP1 SWAP2 SSTORE PUSH1 0x40 MLOAD SWAP1 DUP2 MSTORE PUSH32 0xD76C99A8F1EB77FEAC25A1B5D67950EC13ADB34B7D857C57E8D2894AAF3F230D SWAP1 PUSH1 0x20 ADD PUSH2 0x95D JUMP JUMPDEST PUSH1 0x0 DUP3 DUP2 MSTORE PUSH1 0x65 PUSH1 0x20 MSTORE PUSH1 0x40 SWAP1 KECCAK256 PUSH1 0x1 ADD SLOAD PUSH2 0xBBC DUP2 PUSH2 0xCBC JUMP JUMPDEST PUSH2 0x845 DUP4 DUP4 PUSH2 0xDE6 JUMP JUMPDEST PUSH1 0x60 PUSH2 0xBD2 PUSH1 0x98 PUSH2 0x107F JUMP JUMPDEST SWAP1 POP SWAP1 JUMP JUMPDEST CALLER PUSH20 0xFFFFFFFFFFFFFFFFFFFFFFFFFFFFFFFFFFFFFFFF PUSH32 0x0 AND EQ PUSH2 0xC46 JUMPI PUSH1 0x40 MLOAD PUSH32 0xFE1BB40D00000000000000000000000000000000000000000000000000000000 DUP2 MSTORE PUSH1 0x4 ADD PUSH1 0x40 MLOAD DUP1 SWAP2 SUB SWAP1 REVERT JUMPDEST PUSH2 0x8FE DUP3 DUP3 PUSH2 0xF73 JUMP JUMPDEST DUP1 ISZERO PUSH2 0x7AA JUMPI PUSH1 0x0 PUSH2 0xC8B PUSH2 0xC65 DUP5 DUP7 PUSH2 0x1D90 JUMP JUMPDEST PUSH32 0x0 PUSH2 0x108C JUMP JUMPDEST SWAP1 POP DUP2 PUSH1 0x9A SLOAD DUP3 PUSH2 0xC9C SWAP2 SWAP1 PUSH2 0x1DA3 JUMP JUMPDEST PUSH2 0xCA6 SWAP2 SWAP1 PUSH2 0x1DBA JUMP JUMPDEST PUSH1 0x0 DUP7 DUP2 MSTORE PUSH1 0x9B PUSH1 0x20 MSTORE PUSH1 0x40 SWAP1 KECCAK256 SSTORE POP POP POP POP POP JUMP JUMPDEST PUSH2 0xCC6 DUP2 CALLER PUSH2 0x10A2 JUMP JUMPDEST POP JUMP JUMPDEST PUSH1 0x0 PUSH2 0xCEB DUP4 PUSH20 0xFFFFFFFFFFFFFFFFFFFFFFFFFFFFFFFFFFFFFFFF DUP5 AND PUSH2 0x115C JUMP JUMPDEST SWAP4 SWAP3 POP POP POP JUMP JUMPDEST PUSH1 0x0 DUP3 DUP2 MSTORE PUSH1 0x65 PUSH1 0x20 SWAP1 DUP2 MSTORE PUSH1 0x40 DUP1 DUP4 KECCAK256 PUSH20 0xFFFFFFFFFFFFFFFFFFFFFFFFFFFFFFFFFFFFFFFF DUP6 AND DUP5 MSTORE SWAP1 SWAP2 MSTORE SWAP1 KECCAK256 SLOAD PUSH1 0xFF AND PUSH2 0x8FE JUMPI PUSH1 0x0 DUP3 DUP2 MSTORE PUSH1 0x65 PUSH1 0x20 SWAP1 DUP2 MSTORE PUSH1 0x40 DUP1 DUP4 KECCAK256 PUSH20 0xFFFFFFFFFFFFFFFFFFFFFFFFFFFFFFFFFFFFFFFF DUP6 AND DUP5 MSTORE SWAP1 SWAP2 MSTORE SWAP1 KECCAK256 DUP1 SLOAD PUSH32 0xFFFFFFFFFFFFFFFFFFFFFFFFFFFFFFFFFFFFFFFFFFFFFFFFFFFFFFFFFFFFFF00 AND PUSH1 0x1 OR SWAP1 SSTORE PUSH2 0xD88 CALLER SWAP1 JUMP JUMPDEST PUSH20 0xFFFFFFFFFFFFFFFFFFFFFFFFFFFFFFFFFFFFFFFF AND DUP2 PUSH20 0xFFFFFFFFFFFFFFFFFFFFFFFFFFFFFFFFFFFFFFFF AND DUP4 PUSH32 0x2F8788117E7EFF1D82E926EC794901D17C78024A50270940304540A733656F0D PUSH1 0x40 MLOAD PUSH1 0x40 MLOAD DUP1 SWAP2 SUB SWAP1 LOG4 POP POP JUMP JUMPDEST PUSH1 0x0 DUP3 DUP2 MSTORE PUSH1 0x65 PUSH1 0x20 SWAP1 DUP2 MSTORE PUSH1 0x40 DUP1 DUP4 KECCAK256 PUSH20 0xFFFFFFFFFFFFFFFFFFFFFFFFFFFFFFFFFFFFFFFF DUP6 AND DUP5 MSTORE SWAP1 SWAP2 MSTORE SWAP1 KECCAK256 SLOAD PUSH1 0xFF AND ISZERO PUSH2 0x8FE JUMPI PUSH1 0x0 DUP3 DUP2 MSTORE PUSH1 0x65 PUSH1 0x20 SWAP1 DUP2 MSTORE PUSH1 0x40 DUP1 DUP4 KECCAK256 PUSH20 0xFFFFFFFFFFFFFFFFFFFFFFFFFFFFFFFFFFFFFFFF DUP6 AND DUP1 DUP6 MSTORE SWAP3 MSTORE DUP1 DUP4 KECCAK256 DUP1 SLOAD PUSH32 0xFFFFFFFFFFFFFFFFFFFFFFFFFFFFFFFFFFFFFFFFFFFFFFFFFFFFFFFFFFFFFF00 AND SWAP1 SSTORE MLOAD CALLER SWAP3 DUP6 SWAP2 PUSH32 0xF6391F5C32D9C69D2A47EA670B442974B53935D1EDC7FD64EB21E047A839171B SWAP2 SWAP1 LOG4 POP POP JUMP JUMPDEST PUSH1 0x0 PUSH2 0xCEB DUP4 PUSH20 0xFFFFFFFFFFFFFFFFFFFFFFFFFFFFFFFFFFFFFFFF DUP5 AND PUSH2 0x11AB JUMP JUMPDEST PUSH1 0x0 JUMPDEST DUP2 DUP2 LT ISZERO PUSH2 0x7AA JUMPI PUSH1 0x0 DUP4 DUP4 DUP4 DUP2 DUP2 LT PUSH2 0xEE2 JUMPI PUSH2 0xEE2 PUSH2 0x1D15 JUMP JUMPDEST PUSH1 0x20 SWAP1 DUP2 MUL SWAP3 SWAP1 SWAP3 ADD CALLDATALOAD PUSH1 0x0 DUP2 DUP2 MSTORE PUSH1 0x9C DUP5 MSTORE PUSH1 0x40 DUP1 DUP3 KECCAK256 DUP11 DUP4 MSTORE SWAP1 SWAP5 MSTORE SWAP3 SWAP1 SWAP3 KECCAK256 DUP1 SLOAD PUSH32 0xFFFFFFFFFFFFFFFFFFFFFFFF0000000000000000000000000000000000000000 DUP2 AND SWAP1 SWAP2 SSTORE SWAP2 SWAP3 POP POP PUSH20 0xFFFFFFFFFFFFFFFFFFFFFFFFFFFFFFFFFFFFFFFF AND PUSH2 0xF4F DUP2 PUSH2 0x129E JUMP JUMPDEST PUSH1 0x0 DUP3 DUP2 MSTORE PUSH1 0x9B PUSH1 0x20 MSTORE PUSH1 0x40 SWAP1 KECCAK256 SLOAD PUSH2 0xF69 SWAP1 DUP3 SWAP1 PUSH2 0x12EE JUMP JUMPDEST POP POP PUSH1 0x1 ADD PUSH2 0xEC6 JUMP JUMPDEST PUSH1 0x40 MLOAD PUSH32 0x6352211E00000000000000000000000000000000000000000000000000000000 DUP2 MSTORE PUSH1 0x4 DUP2 ADD DUP3 SWAP1 MSTORE PUSH32 0x0 PUSH20 0xFFFFFFFFFFFFFFFFFFFFFFFFFFFFFFFFFFFFFFFF AND SWAP1 PUSH4 0x6352211E SWAP1 PUSH1 0x24 ADD PUSH1 0x20 PUSH1 0x40 MLOAD DUP1 DUP4 SUB DUP2 DUP7 GAS STATICCALL ISZERO DUP1 ISZERO PUSH2 0xFFE JUMPI RETURNDATASIZE PUSH1 0x0 DUP1 RETURNDATACOPY RETURNDATASIZE PUSH1 0x0 REVERT JUMPDEST POP POP POP POP PUSH1 0x40 MLOAD RETURNDATASIZE PUSH1 0x1F NOT PUSH1 0x1F DUP3 ADD AND DUP3 ADD DUP1 PUSH1 0x40 MSTORE POP DUP2 ADD SWAP1 PUSH2 0x1022 SWAP2 SWAP1 PUSH2 0x1DF5 JUMP JUMPDEST PUSH1 0x0 SWAP3 DUP4 MSTORE PUSH1 0x9C PUSH1 0x20 SWAP1 DUP2 MSTORE PUSH1 0x40 DUP1 DUP6 KECCAK256 SWAP4 DUP6 MSTORE SWAP3 SWAP1 MSTORE SWAP2 KECCAK256 DUP1 SLOAD PUSH32 0xFFFFFFFFFFFFFFFFFFFFFFFF0000000000000000000000000000000000000000 AND PUSH20 0xFFFFFFFFFFFFFFFFFFFFFFFFFFFFFFFFFFFFFFFF SWAP1 SWAP3 AND SWAP2 SWAP1 SWAP2 OR SWAP1 SSTORE JUMP JUMPDEST PUSH1 0x60 PUSH1 0x0 PUSH2 0xCEB DUP4 PUSH2 0x1410 JUMP JUMPDEST PUSH1 0x0 DUP2 DUP4 LT PUSH2 0x109B JUMPI DUP2 PUSH2 0xCEB JUMP JUMPDEST POP SWAP1 SWAP2 SWAP1 POP JUMP JUMPDEST PUSH1 0x0 DUP3 DUP2 MSTORE PUSH1 0x65 PUSH1 0x20 SWAP1 DUP2 MSTORE PUSH1 0x40 DUP1 DUP4 KECCAK256 PUSH20 0xFFFFFFFFFFFFFFFFFFFFFFFFFFFFFFFFFFFFFFFF DUP6 AND DUP5 MSTORE SWAP1 SWAP2 MSTORE SWAP1 KECCAK256 SLOAD PUSH1 0xFF AND PUSH2 0x8FE JUMPI PUSH2 0x10E2 DUP2 PUSH2 0x146C JUMP JUMPDEST PUSH2 0x10ED DUP4 PUSH1 0x20 PUSH2 0x148B JUMP JUMPDEST PUSH1 0x40 MLOAD PUSH1 0x20 ADD PUSH2 0x10FE SWAP3 SWAP2 SWAP1 PUSH2 0x1E36 JUMP JUMPDEST PUSH1 0x40 DUP1 MLOAD PUSH32 0xFFFFFFFFFFFFFFFFFFFFFFFFFFFFFFFFFFFFFFFFFFFFFFFFFFFFFFFFFFFFFFE0 DUP2 DUP5 SUB ADD DUP2 MSTORE SWAP1 DUP3 SWAP1 MSTORE PUSH32 0x8C379A000000000000000000000000000000000000000000000000000000000 DUP3 MSTORE PUSH2 0x8EB SWAP2 PUSH1 0x4 ADD PUSH2 0x1EB7 JUMP JUMPDEST PUSH1 0x0 DUP2 DUP2 MSTORE PUSH1 0x1 DUP4 ADD PUSH1 0x20 MSTORE PUSH1 0x40 DUP2 KECCAK256 SLOAD PUSH2 0x11A3 JUMPI POP DUP2 SLOAD PUSH1 0x1 DUP2 DUP2 ADD DUP5 SSTORE PUSH1 0x0 DUP5 DUP2 MSTORE PUSH1 0x20 DUP1 DUP3 KECCAK256 SWAP1 SWAP4 ADD DUP5 SWAP1 SSTORE DUP5 SLOAD DUP5 DUP3 MSTORE DUP3 DUP7 ADD SWAP1 SWAP4 MSTORE PUSH1 0x40 SWAP1 KECCAK256 SWAP2 SWAP1 SWAP2 SSTORE PUSH2 0x729 JUMP JUMPDEST POP PUSH1 0x0 PUSH2 0x729 JUMP JUMPDEST PUSH1 0x0 DUP2 DUP2 MSTORE PUSH1 0x1 DUP4 ADD PUSH1 0x20 MSTORE PUSH1 0x40 DUP2 KECCAK256 SLOAD DUP1 ISZERO PUSH2 0x1294 JUMPI PUSH1 0x0 PUSH2 0x11CF PUSH1 0x1 DUP4 PUSH2 0x1D90 JUMP JUMPDEST DUP6 SLOAD SWAP1 SWAP2 POP PUSH1 0x0 SWAP1 PUSH2 0x11E3 SWAP1 PUSH1 0x1 SWAP1 PUSH2 0x1D90 JUMP JUMPDEST SWAP1 POP DUP2 DUP2 EQ PUSH2 0x1248 JUMPI PUSH1 0x0 DUP7 PUSH1 0x0 ADD DUP3 DUP2 SLOAD DUP2 LT PUSH2 0x1203 JUMPI PUSH2 0x1203 PUSH2 0x1D15 JUMP JUMPDEST SWAP1 PUSH1 0x0 MSTORE PUSH1 0x20 PUSH1 0x0 KECCAK256 ADD SLOAD SWAP1 POP DUP1 DUP8 PUSH1 0x0 ADD DUP5 DUP2 SLOAD DUP2 LT PUSH2 0x1226 JUMPI PUSH2 0x1226 PUSH2 0x1D15 JUMP JUMPDEST PUSH1 0x0 SWAP2 DUP3 MSTORE PUSH1 0x20 DUP1 DUP4 KECCAK256 SWAP1 SWAP2 ADD SWAP3 SWAP1 SWAP3 SSTORE SWAP2 DUP3 MSTORE PUSH1 0x1 DUP9 ADD SWAP1 MSTORE PUSH1 0x40 SWAP1 KECCAK256 DUP4 SWAP1 SSTORE JUMPDEST DUP6 SLOAD DUP7 SWAP1 DUP1 PUSH2 0x1259 JUMPI PUSH2 0x1259 PUSH2 0x1F08 JUMP JUMPDEST PUSH1 0x1 SWAP1 SUB DUP2 DUP2 SWAP1 PUSH1 0x0 MSTORE PUSH1 0x20 PUSH1 0x0 KECCAK256 ADD PUSH1 0x0 SWAP1 SSTORE SWAP1 SSTORE DUP6 PUSH1 0x1 ADD PUSH1 0x0 DUP7 DUP2 MSTORE PUSH1 0x20 ADD SWAP1 DUP2 MSTORE PUSH1 0x20 ADD PUSH1 0x0 KECCAK256 PUSH1 0x0 SWAP1 SSTORE PUSH1 0x1 SWAP4 POP POP POP POP PUSH2 0x729 JUMP JUMPDEST PUSH1 0x0 SWAP2 POP POP PUSH2 0x729 JUMP JUMPDEST PUSH1 0x97 SLOAD PUSH1 0xFF AND ISZERO DUP1 ISZERO PUSH2 0x12B7 JUMPI POP PUSH2 0x12B5 DUP2 PUSH2 0x16CE JUMP JUMPDEST ISZERO JUMPDEST ISZERO PUSH2 0xCC6 JUMPI PUSH1 0x40 MLOAD PUSH32 0xB15B77A00000000000000000000000000000000000000000000000000000000 DUP2 MSTORE PUSH1 0x4 ADD PUSH1 0x40 MLOAD DUP1 SWAP2 SUB SWAP1 REVERT JUMPDEST PUSH32 0xFFFFFFFFFFFFFFFFFFFFFFFF1111111111111111111111111111111111111112 PUSH32 0x0 PUSH20 0xFFFFFFFFFFFFFFFFFFFFFFFFFFFFFFFFFFFFFFFF AND ADD PUSH2 0x13E5 JUMPI PUSH1 0x0 DUP3 PUSH20 0xFFFFFFFFFFFFFFFFFFFFFFFFFFFFFFFFFFFFFFFF AND DUP3 PUSH1 0x40 MLOAD PUSH1 0x0 PUSH1 0x40 MLOAD DUP1 DUP4 SUB DUP2 DUP6 DUP8 GAS CALL SWAP3 POP POP POP RETURNDATASIZE DUP1 PUSH1 0x0 DUP2 EQ PUSH2 0x13A5 JUMPI PUSH1 0x40 MLOAD SWAP2 POP PUSH1 0x1F NOT PUSH1 0x3F RETURNDATASIZE ADD AND DUP3 ADD PUSH1 0x40 MSTORE RETURNDATASIZE DUP3 MSTORE RETURNDATASIZE PUSH1 0x0 PUSH1 0x20 DUP5 ADD RETURNDATACOPY PUSH2 0x13AA JUMP JUMPDEST PUSH1 0x60 SWAP2 POP JUMPDEST POP POP SWAP1 POP DUP1 PUSH2 0x845 JUMPI PUSH1 0x40 MLOAD PUSH32 0xB12D13EB00000000000000000000000000000000000000000000000000000000 DUP2 MSTORE PUSH1 0x4 ADD PUSH1 0x40 MLOAD DUP1 SWAP2 SUB SWAP1 REVERT JUMPDEST PUSH2 0x8FE PUSH32 0x0 DUP4 DUP4 PUSH2 0x16DB JUMP JUMPDEST PUSH1 0x60 DUP2 PUSH1 0x0 ADD DUP1 SLOAD DUP1 PUSH1 0x20 MUL PUSH1 0x20 ADD PUSH1 0x40 MLOAD SWAP1 DUP2 ADD PUSH1 0x40 MSTORE DUP1 SWAP3 SWAP2 SWAP1 DUP2 DUP2 MSTORE PUSH1 0x20 ADD DUP3 DUP1 SLOAD DUP1 ISZERO PUSH2 0x1460 JUMPI PUSH1 0x20 MUL DUP3 ADD SWAP2 SWAP1 PUSH1 0x0 MSTORE PUSH1 0x20 PUSH1 0x0 KECCAK256 SWAP1 JUMPDEST DUP2 SLOAD DUP2 MSTORE PUSH1 0x20 ADD SWAP1 PUSH1 0x1 ADD SWAP1 DUP1 DUP4 GT PUSH2 0x144C JUMPI JUMPDEST POP POP POP POP POP SWAP1 POP SWAP2 SWAP1 POP JUMP JUMPDEST PUSH1 0x60 PUSH2 0x729 PUSH20 0xFFFFFFFFFFFFFFFFFFFFFFFFFFFFFFFFFFFFFFFF DUP4 AND PUSH1 0x14 JUMPDEST PUSH1 0x60 PUSH1 0x0 PUSH2 0x149A DUP4 PUSH1 0x2 PUSH2 0x1DA3 JUMP JUMPDEST PUSH2 0x14A5 SWAP1 PUSH1 0x2 PUSH2 0x1F37 JUMP JUMPDEST PUSH8 0xFFFFFFFFFFFFFFFF DUP2 GT ISZERO PUSH2 0x14BD JUMPI PUSH2 0x14BD PUSH2 0x1F4A JUMP JUMPDEST PUSH1 0x40 MLOAD SWAP1 DUP1 DUP3 MSTORE DUP1 PUSH1 0x1F ADD PUSH1 0x1F NOT AND PUSH1 0x20 ADD DUP3 ADD PUSH1 0x40 MSTORE DUP1 ISZERO PUSH2 0x14E7 JUMPI PUSH1 0x20 DUP3 ADD DUP2 DUP1 CALLDATASIZE DUP4 CALLDATACOPY ADD SWAP1 POP JUMPDEST POP SWAP1 POP PUSH32 0x3000000000000000000000000000000000000000000000000000000000000000 DUP2 PUSH1 0x0 DUP2 MLOAD DUP2 LT PUSH2 0x151E JUMPI PUSH2 0x151E PUSH2 0x1D15 JUMP JUMPDEST PUSH1 0x20 ADD ADD SWAP1 PUSH31 0xFFFFFFFFFFFFFFFFFFFFFFFFFFFFFFFFFFFFFFFFFFFFFFFFFFFFFFFFFFFFFF NOT AND SWAP1 DUP2 PUSH1 0x0 BYTE SWAP1 MSTORE8 POP PUSH32 0x7800000000000000000000000000000000000000000000000000000000000000 DUP2 PUSH1 0x1 DUP2 MLOAD DUP2 LT PUSH2 0x1581 JUMPI PUSH2 0x1581 PUSH2 0x1D15 JUMP JUMPDEST PUSH1 0x20 ADD ADD SWAP1 PUSH31 0xFFFFFFFFFFFFFFFFFFFFFFFFFFFFFFFFFFFFFFFFFFFFFFFFFFFFFFFFFFFFFF NOT AND SWAP1 DUP2 PUSH1 0x0 BYTE SWAP1 MSTORE8 POP PUSH1 0x0 PUSH2 0x15BD DUP5 PUSH1 0x2 PUSH2 0x1DA3 JUMP JUMPDEST PUSH2 0x15C8 SWAP1 PUSH1 0x1 PUSH2 0x1F37 JUMP JUMPDEST SWAP1 POP JUMPDEST PUSH1 0x1 DUP2 GT ISZERO PUSH2 0x1665 JUMPI PUSH32 0x3031323334353637383961626364656600000000000000000000000000000000 DUP6 PUSH1 0xF AND PUSH1 0x10 DUP2 LT PUSH2 0x1609 JUMPI PUSH2 0x1609 PUSH2 0x1D15 JUMP JUMPDEST BYTE PUSH1 0xF8 SHL DUP3 DUP3 DUP2 MLOAD DUP2 LT PUSH2 0x161F JUMPI PUSH2 0x161F PUSH2 0x1D15 JUMP JUMPDEST PUSH1 0x20 ADD ADD SWAP1 PUSH31 0xFFFFFFFFFFFFFFFFFFFFFFFFFFFFFFFFFFFFFFFFFFFFFFFFFFFFFFFFFFFFFF NOT AND SWAP1 DUP2 PUSH1 0x0 BYTE SWAP1 MSTORE8 POP PUSH1 0x4 SWAP5 SWAP1 SWAP5 SHR SWAP4 PUSH2 0x165E DUP2 PUSH2 0x1F79 JUMP JUMPDEST SWAP1 POP PUSH2 0x15CB JUMP JUMPDEST POP DUP4 ISZERO PUSH2 0xCEB JUMPI PUSH1 0x40 MLOAD PUSH32 0x8C379A000000000000000000000000000000000000000000000000000000000 DUP2 MSTORE PUSH1 0x20 PUSH1 0x4 DUP3 ADD DUP2 SWAP1 MSTORE PUSH1 0x24 DUP3 ADD MSTORE PUSH32 0x537472696E67733A20686578206C656E67746820696E73756666696369656E74 PUSH1 0x44 DUP3 ADD MSTORE PUSH1 0x64 ADD PUSH2 0x8EB JUMP JUMPDEST PUSH1 0x0 PUSH2 0x729 PUSH1 0x98 DUP4 PUSH2 0x1768 JUMP JUMPDEST PUSH1 0x40 DUP1 MLOAD PUSH20 0xFFFFFFFFFFFFFFFFFFFFFFFFFFFFFFFFFFFFFFFF DUP5 AND PUSH1 0x24 DUP3 ADD MSTORE PUSH1 0x44 DUP1 DUP3 ADD DUP5 SWAP1 MSTORE DUP3 MLOAD DUP1 DUP4 SUB SWAP1 SWAP2 ADD DUP2 MSTORE PUSH1 0x64 SWAP1 SWAP2 ADD SWAP1 SWAP2 MSTORE PUSH1 0x20 DUP2 ADD DUP1 MLOAD PUSH28 0xFFFFFFFFFFFFFFFFFFFFFFFFFFFFFFFFFFFFFFFFFFFFFFFFFFFFFFFF AND PUSH32 0xA9059CBB00000000000000000000000000000000000000000000000000000000 OR SWAP1 MSTORE PUSH2 0x845 SWAP1 DUP5 SWAP1 PUSH2 0x1797 JUMP JUMPDEST PUSH20 0xFFFFFFFFFFFFFFFFFFFFFFFFFFFFFFFFFFFFFFFF DUP2 AND PUSH1 0x0 SWAP1 DUP2 MSTORE PUSH1 0x1 DUP4 ADD PUSH1 0x20 MSTORE PUSH1 0x40 DUP2 KECCAK256 SLOAD ISZERO ISZERO PUSH2 0xCEB JUMP JUMPDEST PUSH1 0x0 PUSH2 0x17F9 DUP3 PUSH1 0x40 MLOAD DUP1 PUSH1 0x40 ADD PUSH1 0x40 MSTORE DUP1 PUSH1 0x20 DUP2 MSTORE PUSH1 0x20 ADD PUSH32 0x5361666545524332303A206C6F772D6C6576656C2063616C6C206661696C6564 DUP2 MSTORE POP DUP6 PUSH20 0xFFFFFFFFFFFFFFFFFFFFFFFFFFFFFFFFFFFFFFFF AND PUSH2 0x18A6 SWAP1 SWAP3 SWAP2 SWAP1 PUSH4 0xFFFFFFFF AND JUMP JUMPDEST SWAP1 POP DUP1 MLOAD PUSH1 0x0 EQ DUP1 PUSH2 0x181A JUMPI POP DUP1 DUP1 PUSH1 0x20 ADD SWAP1 MLOAD DUP2 ADD SWAP1 PUSH2 0x181A SWAP2 SWAP1 PUSH2 0x1FAE JUMP JUMPDEST PUSH2 0x845 JUMPI PUSH1 0x40 MLOAD PUSH32 0x8C379A000000000000000000000000000000000000000000000000000000000 DUP2 MSTORE PUSH1 0x20 PUSH1 0x4 DUP3 ADD MSTORE PUSH1 0x2A PUSH1 0x24 DUP3 ADD MSTORE PUSH32 0x5361666545524332303A204552433230206F7065726174696F6E20646964206E PUSH1 0x44 DUP3 ADD MSTORE PUSH32 0x6F74207375636365656400000000000000000000000000000000000000000000 PUSH1 0x64 DUP3 ADD MSTORE PUSH1 0x84 ADD PUSH2 0x8EB JUMP JUMPDEST PUSH1 0x60 PUSH2 0x18B5 DUP5 DUP5 PUSH1 0x0 DUP6 PUSH2 0x18BD JUMP JUMPDEST SWAP5 SWAP4 POP POP POP POP JUMP JUMPDEST PUSH1 0x60 DUP3 SELFBALANCE LT ISZERO PUSH2 0x194F JUMPI PUSH1 0x40 MLOAD PUSH32 0x8C379A000000000000000000000000000000000000000000000000000000000 DUP2 MSTORE PUSH1 0x20 PUSH1 0x4 DUP3 ADD MSTORE PUSH1 0x26 PUSH1 0x24 DUP3 ADD MSTORE PUSH32 0x416464726573733A20696E73756666696369656E742062616C616E636520666F PUSH1 0x44 DUP3 ADD MSTORE PUSH32 0x722063616C6C0000000000000000000000000000000000000000000000000000 PUSH1 0x64 DUP3 ADD MSTORE PUSH1 0x84 ADD PUSH2 0x8EB JUMP JUMPDEST PUSH1 0x0 DUP1 DUP7 PUSH20 0xFFFFFFFFFFFFFFFFFFFFFFFFFFFFFFFFFFFFFFFF AND DUP6 DUP8 PUSH1 0x40 MLOAD PUSH2 0x1978 SWAP2 SWAP1 PUSH2 0x1FCB JUMP JUMPDEST PUSH1 0x0 PUSH1 0x40 MLOAD DUP1 DUP4 SUB DUP2 DUP6 DUP8 GAS CALL SWAP3 POP POP POP RETURNDATASIZE DUP1 PUSH1 0x0 DUP2 EQ PUSH2 0x19B5 JUMPI PUSH1 0x40 MLOAD SWAP2 POP PUSH1 0x1F NOT PUSH1 0x3F RETURNDATASIZE ADD AND DUP3 ADD PUSH1 0x40 MSTORE RETURNDATASIZE DUP3 MSTORE RETURNDATASIZE PUSH1 0x0 PUSH1 0x20 DUP5 ADD RETURNDATACOPY PUSH2 0x19BA JUMP JUMPDEST PUSH1 0x60 SWAP2 POP JUMPDEST POP SWAP2 POP SWAP2 POP PUSH2 0x19CB DUP8 DUP4 DUP4 DUP8 PUSH2 0x19D6 JUMP JUMPDEST SWAP8 SWAP7 POP POP POP POP POP POP POP JUMP JUMPDEST PUSH1 0x60 DUP4 ISZERO PUSH2 0x1A6C JUMPI DUP3 MLOAD PUSH1 0x0 SUB PUSH2 0x1A65 JUMPI PUSH20 0xFFFFFFFFFFFFFFFFFFFFFFFFFFFFFFFFFFFFFFFF DUP6 AND EXTCODESIZE PUSH2 0x1A65 JUMPI PUSH1 0x40 MLOAD PUSH32 0x8C379A000000000000000000000000000000000000000000000000000000000 DUP2 MSTORE PUSH1 0x20 PUSH1 0x4 DUP3 ADD MSTORE PUSH1 0x1D PUSH1 0x24 DUP3 ADD MSTORE PUSH32 0x416464726573733A2063616C6C20746F206E6F6E2D636F6E7472616374000000 PUSH1 0x44 DUP3 ADD MSTORE PUSH1 0x64 ADD PUSH2 0x8EB JUMP JUMPDEST POP DUP2 PUSH2 0x18B5 JUMP JUMPDEST PUSH2 0x18B5 DUP4 DUP4 DUP2 MLOAD ISZERO PUSH2 0x1A81 JUMPI DUP2 MLOAD DUP1 DUP4 PUSH1 0x20 ADD REVERT JUMPDEST DUP1 PUSH1 0x40 MLOAD PUSH32 0x8C379A000000000000000000000000000000000000000000000000000000000 DUP2 MSTORE PUSH1 0x4 ADD PUSH2 0x8EB SWAP2 SWAP1 PUSH2 0x1EB7 JUMP JUMPDEST PUSH1 0x0 PUSH1 0x20 DUP3 DUP5 SUB SLT ISZERO PUSH2 0x1AC7 JUMPI PUSH1 0x0 DUP1 REVERT JUMPDEST DUP2 CALLDATALOAD PUSH32 0xFFFFFFFF00000000000000000000000000000000000000000000000000000000 DUP2 AND DUP2 EQ PUSH2 0xCEB JUMPI PUSH1 0x0 DUP1 REVERT JUMPDEST PUSH1 0x0 DUP1 PUSH1 0x40 DUP4 DUP6 SUB SLT ISZERO PUSH2 0x1B0A JUMPI PUSH1 0x0 DUP1 REVERT JUMPDEST POP POP DUP1 CALLDATALOAD SWAP3 PUSH1 0x20 SWAP1 SWAP2 ADD CALLDATALOAD SWAP2 POP JUMP JUMPDEST PUSH1 0x0 DUP1 PUSH1 0x0 DUP1 PUSH1 0x80 DUP6 DUP8 SUB SLT ISZERO PUSH2 0x1B2F JUMPI PUSH1 0x0 DUP1 REVERT JUMPDEST POP POP DUP3 CALLDATALOAD SWAP5 PUSH1 0x20 DUP5 ADD CALLDATALOAD SWAP5 POP PUSH1 0x40 DUP5 ADD CALLDATALOAD SWAP4 PUSH1 0x60 ADD CALLDATALOAD SWAP3 POP SWAP1 POP JUMP JUMPDEST PUSH1 0x0 DUP1 DUP4 PUSH1 0x1F DUP5 ADD SLT PUSH2 0x1B5D JUMPI PUSH1 0x0 DUP1 REVERT JUMPDEST POP DUP2 CALLDATALOAD PUSH8 0xFFFFFFFFFFFFFFFF DUP2 GT ISZERO PUSH2 0x1B75 JUMPI PUSH1 0x0 DUP1 REVERT JUMPDEST PUSH1 0x20 DUP4 ADD SWAP2 POP DUP4 PUSH1 0x20 DUP3 PUSH1 0x5 SHL DUP6 ADD ADD GT ISZERO PUSH2 0x1B90 JUMPI PUSH1 0x0 DUP1 REVERT JUMPDEST SWAP3 POP SWAP3 SWAP1 POP JUMP JUMPDEST PUSH1 0x0 DUP1 PUSH1 0x20 DUP4 DUP6 SUB SLT ISZERO PUSH2 0x1BAA JUMPI PUSH1 0x0 DUP1 REVERT JUMPDEST DUP3 CALLDATALOAD PUSH8 0xFFFFFFFFFFFFFFFF DUP2 GT ISZERO PUSH2 0x1BC1 JUMPI PUSH1 0x0 DUP1 REVERT JUMPDEST PUSH2 0x1BCD DUP6 DUP3 DUP7 ADD PUSH2 0x1B4B JUMP JUMPDEST SWAP1 SWAP7 SWAP1 SWAP6 POP SWAP4 POP POP POP POP JUMP JUMPDEST PUSH1 0x0 PUSH1 0x20 DUP3 DUP5 SUB SLT ISZERO PUSH2 0x1BEB JUMPI PUSH1 0x0 DUP1 REVERT JUMPDEST POP CALLDATALOAD SWAP2 SWAP1 POP JUMP JUMPDEST PUSH20 0xFFFFFFFFFFFFFFFFFFFFFFFFFFFFFFFFFFFFFFFF DUP2 AND DUP2 EQ PUSH2 0xCC6 JUMPI PUSH1 0x0 DUP1 REVERT JUMPDEST PUSH1 0x0 DUP1 PUSH1 0x40 DUP4 DUP6 SUB SLT ISZERO PUSH2 0x1C27 JUMPI PUSH1 0x0 DUP1 REVERT JUMPDEST DUP3 CALLDATALOAD SWAP2 POP PUSH1 0x20 DUP4 ADD CALLDATALOAD PUSH2 0x1C39 DUP2 PUSH2 0x1BF2 JUMP JUMPDEST DUP1 SWAP2 POP POP SWAP3 POP SWAP3 SWAP1 POP JUMP JUMPDEST PUSH1 0x0 DUP1 PUSH1 0x0 PUSH1 0x40 DUP5 DUP7 SUB SLT ISZERO PUSH2 0x1C59 JUMPI PUSH1 0x0 DUP1 REVERT JUMPDEST DUP4 CALLDATALOAD SWAP3 POP PUSH1 0x20 DUP5 ADD CALLDATALOAD PUSH8 0xFFFFFFFFFFFFFFFF DUP2 GT ISZERO PUSH2 0x1C77 JUMPI PUSH1 0x0 DUP1 REVERT JUMPDEST PUSH2 0x1C83 DUP7 DUP3 DUP8 ADD PUSH2 0x1B4B JUMP JUMPDEST SWAP5 SWAP8 SWAP1 SWAP7 POP SWAP4 SWAP5 POP POP POP POP JUMP JUMPDEST DUP1 ISZERO ISZERO DUP2 EQ PUSH2 0xCC6 JUMPI PUSH1 0x0 DUP1 REVERT JUMPDEST PUSH1 0x0 PUSH1 0x20 DUP3 DUP5 SUB SLT ISZERO PUSH2 0x1CB0 JUMPI PUSH1 0x0 DUP1 REVERT JUMPDEST DUP2 CALLDATALOAD PUSH2 0xCEB DUP2 PUSH2 0x1C90 JUMP JUMPDEST PUSH1 0x20 DUP1 DUP3 MSTORE DUP3 MLOAD DUP3 DUP3 ADD DUP2 SWAP1 MSTORE PUSH1 0x0 SWAP2 SWAP1 DUP5 DUP3 ADD SWAP1 PUSH1 0x40 DUP6 ADD SWAP1 DUP5 JUMPDEST DUP2 DUP2 LT ISZERO PUSH2 0x1D09 JUMPI DUP4 MLOAD PUSH20 0xFFFFFFFFFFFFFFFFFFFFFFFFFFFFFFFFFFFFFFFF AND DUP4 MSTORE SWAP3 DUP5 ADD SWAP3 SWAP2 DUP5 ADD SWAP2 PUSH1 0x1 ADD PUSH2 0x1CD7 JUMP JUMPDEST POP SWAP1 SWAP7 SWAP6 POP POP POP POP POP POP JUMP JUMPDEST PUSH32 0x4E487B7100000000000000000000000000000000000000000000000000000000 PUSH1 0x0 MSTORE PUSH1 0x32 PUSH1 0x4 MSTORE PUSH1 0x24 PUSH1 0x0 REVERT JUMPDEST PUSH1 0x0 PUSH1 0x20 DUP3 DUP5 SUB SLT ISZERO PUSH2 0x1D56 JUMPI PUSH1 0x0 DUP1 REVERT JUMPDEST DUP2 CALLDATALOAD PUSH2 0xCEB DUP2 PUSH2 0x1BF2 JUMP JUMPDEST PUSH32 0x4E487B7100000000000000000000000000000000000000000000000000000000 PUSH1 0x0 MSTORE PUSH1 0x11 PUSH1 0x4 MSTORE PUSH1 0x24 PUSH1 0x0 REVERT JUMPDEST DUP2 DUP2 SUB DUP2 DUP2 GT ISZERO PUSH2 0x729 JUMPI PUSH2 0x729 PUSH2 0x1D61 JUMP JUMPDEST DUP1 DUP3 MUL DUP2 ISZERO DUP3 DUP3 DIV DUP5 EQ OR PUSH2 0x729 JUMPI PUSH2 0x729 PUSH2 0x1D61 JUMP JUMPDEST PUSH1 0x0 DUP3 PUSH2 0x1DF0 JUMPI PUSH32 0x4E487B7100000000000000000000000000000000000000000000000000000000 PUSH1 0x0 MSTORE PUSH1 0x12 PUSH1 0x4 MSTORE PUSH1 0x24 PUSH1 0x0 REVERT JUMPDEST POP DIV SWAP1 JUMP JUMPDEST PUSH1 0x0 PUSH1 0x20 DUP3 DUP5 SUB SLT ISZERO PUSH2 0x1E07 JUMPI PUSH1 0x0 DUP1 REVERT JUMPDEST DUP2 MLOAD PUSH2 0xCEB DUP2 PUSH2 0x1BF2 JUMP JUMPDEST PUSH1 0x0 JUMPDEST DUP4 DUP2 LT ISZERO PUSH2 0x1E2D JUMPI DUP2 DUP2 ADD MLOAD DUP4 DUP3 ADD MSTORE PUSH1 0x20 ADD PUSH2 0x1E15 JUMP JUMPDEST POP POP PUSH1 0x0 SWAP2 ADD MSTORE JUMP JUMPDEST PUSH32 0x416363657373436F6E74726F6C3A206163636F756E7420000000000000000000 DUP2 MSTORE PUSH1 0x0 DUP4 MLOAD PUSH2 0x1E6E DUP2 PUSH1 0x17 DUP6 ADD PUSH1 0x20 DUP9 ADD PUSH2 0x1E12 JUMP JUMPDEST PUSH32 0x206973206D697373696E6720726F6C6520000000000000000000000000000000 PUSH1 0x17 SWAP2 DUP5 ADD SWAP2 DUP3 ADD MSTORE DUP4 MLOAD PUSH2 0x1EAB DUP2 PUSH1 0x28 DUP5 ADD PUSH1 0x20 DUP9 ADD PUSH2 0x1E12 JUMP JUMPDEST ADD PUSH1 0x28 ADD SWAP5 SWAP4 POP POP POP POP JUMP JUMPDEST PUSH1 0x20 DUP2 MSTORE PUSH1 0x0 DUP3 MLOAD DUP1 PUSH1 0x20 DUP5 ADD MSTORE PUSH2 0x1ED6 DUP2 PUSH1 0x40 DUP6 ADD PUSH1 0x20 DUP8 ADD PUSH2 0x1E12 JUMP JUMPDEST PUSH1 0x1F ADD PUSH32 0xFFFFFFFFFFFFFFFFFFFFFFFFFFFFFFFFFFFFFFFFFFFFFFFFFFFFFFFFFFFFFFE0 AND SWAP2 SWAP1 SWAP2 ADD PUSH1 0x40 ADD SWAP3 SWAP2 POP POP JUMP JUMPDEST PUSH32 0x4E487B7100000000000000000000000000000000000000000000000000000000 PUSH1 0x0 MSTORE PUSH1 0x31 PUSH1 0x4 MSTORE PUSH1 0x24 PUSH1 0x0 REVERT JUMPDEST DUP1 DUP3 ADD DUP1 DUP3 GT ISZERO PUSH2 0x729 JUMPI PUSH2 0x729 PUSH2 0x1D61 JUMP JUMPDEST PUSH32 0x4E487B7100000000000000000000000000000000000000000000000000000000 PUSH1 0x0 MSTORE PUSH1 0x41 PUSH1 0x4 MSTORE PUSH1 0x24 PUSH1 0x0 REVERT JUMPDEST PUSH1 0x0 DUP2 PUSH2 0x1F88 JUMPI PUSH2 0x1F88 PUSH2 0x1D61 JUMP JUMPDEST POP PUSH32 0xFFFFFFFFFFFFFFFFFFFFFFFFFFFFFFFFFFFFFFFFFFFFFFFFFFFFFFFFFFFFFFFF ADD SWAP1 JUMP JUMPDEST PUSH1 0x0 PUSH1 0x20 DUP3 DUP5 SUB SLT ISZERO PUSH2 0x1FC0 JUMPI PUSH1 0x0 DUP1 REVERT JUMPDEST DUP2 MLOAD PUSH2 0xCEB DUP2 PUSH2 0x1C90 JUMP JUMPDEST PUSH1 0x0 DUP3 MLOAD PUSH2 0x1FDD DUP2 DUP5 PUSH1 0x20 DUP8 ADD PUSH2 0x1E12 JUMP JUMPDEST SWAP2 SWAP1 SWAP2 ADD SWAP3 SWAP2 POP POP JUMP INVALID LOG2 PUSH5 0x6970667358 0x22 SLT KECCAK256 CALLDATALOAD BALANCE 0xAC DUP16 SWAP12 PUSH18 0x9466714B06165C2743902B8C3352FFC594BA PUSH11 0x3D17B6A0F8CD1164736F6C PUSH4 0x43000816 STOP CALLER 0xB1 SWAP6 CHAINID 0xDF CREATE 0x1E DUP6 PUSH16 0xB3F010C267A7B1C60363CF8A4664E21C 0xC8 SWAP13 0x26 0x22 CHAINID KECCAK256 0x21 0x4E "},"gasEstimates":{"creation":{"codeDepositCost":"1644200","executionCost":"infinite","totalCost":"infinite"},"external":{"ADMIN_KYC_CONTROLLER_ROLE()":"239","DEFAULT_ADMIN_ROLE()":"262","KYC_CONTROLLER_ROLE()":"262","MAX_REWARD_TIME_WINDOW()":"infinite","NODE_KEY()":"infinite","OWNER_ROLE()":"283","REFEREE()":"infinite","REWARDS_CONTROLLER_ROLE()":"284","REWARD_TOKEN()":"infinite","addKycWallets(address[])":"infinite","claimReward(uint256,uint256[])":"infinite","getKycWallets()":"infinite","getRoleAdmin(bytes32)":"2512","grantRole(bytes32,address)":"infinite","hasRole(bytes32,address)":"2663","kycDisabled()":"2345","onAttest(uint256,uint256)":"infinite","onBatchAttest(uint256,uint256[])":"infinite","onFinalize(uint256,uint256,uint256,uint256)":"infinite","removeKycWallets(address[])":"infinite","renounceRole(bytes32,address)":"29022","revokeRole(bytes32,address)":"infinite","rewardPerLandOfBatch(uint256)":"2528","rewardPerSecond()":"2406","rewardsRecipients(uint256,uint256)":"2617","setKycDisabled(bool)":"infinite","setRewardPerSecond(uint256)":"infinite","supportsInterface(bytes4)":"416"},"internal":{"_claimReward(uint256,uint256[] calldata)":"infinite","_onAttest(uint256,uint256)":"infinite","_onFinalize(uint256,uint256,uint256,uint256)":"infinite"}},"methodIdentifiers":{"ADMIN_KYC_CONTROLLER_ROLE()":"dcd50d2e","DEFAULT_ADMIN_ROLE()":"a217fddf","KYC_CONTROLLER_ROLE()":"86f8a03e","MAX_REWARD_TIME_WINDOW()":"c2a74752","NODE_KEY()":"a5f957f9","OWNER_ROLE()":"e58378bb","REFEREE()":"95126fe6","REWARDS_CONTROLLER_ROLE()":"8ad9c511","REWARD_TOKEN()":"99248ea7","addKycWallets(address[])":"229d683d","claimReward(uint256,uint256[])":"9b6e0d74","getKycWallets()":"e2d18be6","getRoleAdmin(bytes32)":"248a9ca3","grantRole(bytes32,address)":"2f2ff15d","hasRole(bytes32,address)":"91d14854","kycDisabled()":"5dff0ce9","onAttest(uint256,uint256)":"e6ed1180","onBatchAttest(uint256,uint256[])":"b7355fb4","onFinalize(uint256,uint256,uint256,uint256)":"1bcdb77a","removeKycWallets(address[])":"7cd727ba","renounceRole(bytes32,address)":"36568abe","revokeRole(bytes32,address)":"d547741f","rewardPerLandOfBatch(uint256)":"6f63b8ab","rewardPerSecond()":"8f10369a","rewardsRecipients(uint256,uint256)":"0f0479b4","setKycDisabled(bool)":"cbd73cb2","setRewardPerSecond(uint256)":"66da5815","supportsInterface(bytes4)":"01ffc9a7"}},"storageLayout":{"storage":[{"astId":1325,"contract":"contracts/land/EDULandRewards.sol:EDULandRewards","label":"_initialized","offset":0,"slot":"0","type":"t_uint8"},{"astId":1328,"contract":"contracts/land/EDULandRewards.sol:EDULandRewards","label":"_initializing","offset":1,"slot":"0","type":"t_bool"},{"astId":1858,"contract":"contracts/land/EDULandRewards.sol:EDULandRewards","label":"__gap","offset":0,"slot":"1","type":"t_array(t_uint256)50_storage"},{"astId":2131,"contract":"contracts/land/EDULandRewards.sol:EDULandRewards","label":"__gap","offset":0,"slot":"51","type":"t_array(t_uint256)50_storage"},{"astId":949,"contract":"contracts/land/EDULandRewards.sol:EDULandRewards","label":"_roles","offset":0,"slot":"101","type":"t_mapping(t_bytes32,t_struct(RoleData)944_storage)"},{"astId":1244,"contract":"contracts/land/EDULandRewards.sol:EDULandRewards","label":"__gap","offset":0,"slot":"102","type":"t_array(t_uint256)49_storage"},{"astId":577,"contract":"contracts/land/EDULandRewards.sol:EDULandRewards","label":"kycDisabled","offset":0,"slot":"151","type":"t_bool"},{"astId":580,"contract":"contracts/land/EDULandRewards.sol:EDULandRewards","label":"_kycWallets","offset":0,"slot":"152","type":"t_struct(AddressSet)5255_storage"},{"astId":5568,"contract":"contracts/land/EDULandRewards.sol:EDULandRewards","label":"rewardPerSecond","offset":0,"slot":"154","type":"t_uint256"},{"astId":5572,"contract":"contracts/land/EDULandRewards.sol:EDULandRewards","label":"rewardPerLandOfBatch","offset":0,"slot":"155","type":"t_mapping(t_uint256,t_uint256)"},{"astId":5578,"contract":"contracts/land/EDULandRewards.sol:EDULandRewards","label":"rewardsRecipients","offset":0,"slot":"156","type":"t_mapping(t_uint256,t_mapping(t_uint256,t_address))"}],"types":{"t_address":{"encoding":"inplace","label":"address","numberOfBytes":"20"},"t_array(t_bytes32)dyn_storage":{"base":"t_bytes32","encoding":"dynamic_array","label":"bytes32[]","numberOfBytes":"32"},"t_array(t_uint256)49_storage":{"base":"t_uint256","encoding":"inplace","label":"uint256[49]","numberOfBytes":"1568"},"t_array(t_uint256)50_storage":{"base":"t_uint256","encoding":"inplace","label":"uint256[50]","numberOfBytes":"1600"},"t_bool":{"encoding":"inplace","label":"bool","numberOfBytes":"1"},"t_bytes32":{"encoding":"inplace","label":"bytes32","numberOfBytes":"32"},"t_mapping(t_address,t_bool)":{"encoding":"mapping","key":"t_address","label":"mapping(address => bool)","numberOfBytes":"32","value":"t_bool"},"t_mapping(t_bytes32,t_struct(RoleData)944_storage)":{"encoding":"mapping","key":"t_bytes32","label":"mapping(bytes32 => struct AccessControlUpgradeable.RoleData)","numberOfBytes":"32","value":"t_struct(RoleData)944_storage"},"t_mapping(t_bytes32,t_uint256)":{"encoding":"mapping","key":"t_bytes32","label":"mapping(bytes32 => uint256)","numberOfBytes":"32","value":"t_uint256"},"t_mapping(t_uint256,t_address)":{"encoding":"mapping","key":"t_uint256","label":"mapping(uint256 => address)","numberOfBytes":"32","value":"t_address"},"t_mapping(t_uint256,t_mapping(t_uint256,t_address))":{"encoding":"mapping","key":"t_uint256","label":"mapping(uint256 => mapping(uint256 => address))","numberOfBytes":"32","value":"t_mapping(t_uint256,t_address)"},"t_mapping(t_uint256,t_uint256)":{"encoding":"mapping","key":"t_uint256","label":"mapping(uint256 => uint256)","numberOfBytes":"32","value":"t_uint256"},"t_struct(AddressSet)5255_storage":{"encoding":"inplace","label":"struct EnumerableSet.AddressSet","members":[{"astId":5254,"contract":"contracts/land/EDULandRewards.sol:EDULandRewards","label":"_inner","offset":0,"slot":"0","type":"t_struct(Set)4940_storage"}],"numberOfBytes":"64"},"t_struct(RoleData)944_storage":{"encoding":"inplace","label":"struct AccessControlUpgradeable.RoleData","members":[{"astId":941,"contract":"contracts/land/EDULandRewards.sol:EDULandRewards","label":"members","offset":0,"slot":"0","type":"t_mapping(t_address,t_bool)"},{"astId":943,"contract":"contracts/land/EDULandRewards.sol:EDULandRewards","label":"adminRole","offset":0,"slot":"1","type":"t_bytes32"}],"numberOfBytes":"64"},"t_struct(Set)4940_storage":{"encoding":"inplace","label":"struct EnumerableSet.Set","members":[{"astId":4935,"contract":"contracts/land/EDULandRewards.sol:EDULandRewards","label":"_values","offset":0,"slot":"0","type":"t_array(t_bytes32)dyn_storage"},{"astId":4939,"contract":"contracts/land/EDULandRewards.sol:EDULandRewards","label":"_indexes","offset":0,"slot":"1","type":"t_mapping(t_bytes32,t_uint256)"}],"numberOfBytes":"64"},"t_uint256":{"encoding":"inplace","label":"uint256","numberOfBytes":"32"},"t_uint8":{"encoding":"inplace","label":"uint8","numberOfBytes":"1"}}},"userdoc":{"kind":"user","methods":{"claimReward(uint256,uint256[])":{"notice":"Called in Referee.claimReward whenever someone claims their reward. {See Referee.sol}"},"onAttest(uint256,uint256)":{"notice":"Called in Referee.attest whenever an attestation is submitted. {See Referee.sol}"},"onBatchAttest(uint256,uint256[])":{"notice":"Called in Referee.batchAttest whenever multiple attestations are submitted. {See Referee.sol}"},"onFinalize(uint256,uint256,uint256,uint256)":{"notice":"Called in Referee.finalize whenever attestations of a batch are finalized. {See Referee.sol}"}},"version":1}}}}