{
  "_format": "hh-sol-artifact-1",
  "contractName": "EDULandMock",
  "sourceName": "contracts/mocks/land/EDULandMock.sol",
  "abi": [
    {
      "inputs": [
        {
          "internalType": "string",
          "name": "tokenName",
          "type": "string"
        },
        {
          "internalType": "string",
          "name": "tokenSymbol",
          "type": "string"
        },
        {
          "internalType": "contract ITokenMetadataResolver",
          "name": "metadataResolver",
          "type": "address"
        },
        {
          "internalType": "contract IForwarderRegistry",
          "name": "forwarderRegistry",
          "type": "address"
        }
      ],
      "stateMutability": "nonpayable",
      "type": "constructor"
    },
    {
      "inputs": [],
      "name": "ERC721BalanceOfAddressZero",
      "type": "error"
    },
    {
      "inputs": [
        {
          "internalType": "uint256",
          "name": "tokenId",
          "type": "uint256"
        }
      ],
      "name": "ERC721ExistingToken",
      "type": "error"
    },
    {
      "inputs": [],
      "name": "ERC721MintToAddressZero",
      "type": "error"
    },
    {
      "inputs": [
        {
          "internalType": "address",
          "name": "sender",
          "type": "address"
        },
        {
          "internalType": "address",
          "name": "owner",
          "type": "address"
        },
        {
          "internalType": "uint256",
          "name": "tokenId",
          "type": "uint256"
        }
      ],
      "name": "ERC721NonApprovedForApproval",
      "type": "error"
    },
    {
      "inputs": [
        {
          "internalType": "uint256",
          "name": "tokenId",
          "type": "uint256"
        }
      ],
      "name": "ERC721NonExistingToken",
      "type": "error"
    },
    {
      "inputs": [
        {
          "internalType": "address",
          "name": "account",
          "type": "address"
        },
        {
          "internalType": "uint256",
          "name": "tokenId",
          "type": "uint256"
        }
      ],
      "name": "ERC721NonOwnedToken",
      "type": "error"
    },
    {
      "inputs": [
        {
          "internalType": "address",
          "name": "recipient",
          "type": "address"
        },
        {
          "internalType": "uint256",
          "name": "tokenId",
          "type": "uint256"
        }
      ],
      "name": "ERC721SafeTransferRejected",
      "type": "error"
    },
    {
      "inputs": [
        {
          "internalType": "address",
          "name": "account",
          "type": "address"
        }
      ],
      "name": "ERC721SelfApproval",
      "type": "error"
    },
    {
      "inputs": [
        {
          "internalType": "address",
          "name": "account",
          "type": "address"
        }
      ],
      "name": "ERC721SelfApprovalForAll",
      "type": "error"
    },
    {
      "inputs": [],
      "name": "ERC721TransferToAddressZero",
      "type": "error"
    },
    {
      "inputs": [],
      "name": "IllegalInterfaceId",
      "type": "error"
    },
    {
      "inputs": [],
      "name": "InconsistentArrayLengths",
      "type": "error"
    },
    {
      "inputs": [
        {
          "internalType": "address",
          "name": "account",
          "type": "address"
        }
      ],
      "name": "NotContractOwner",
      "type": "error"
    },
    {
      "inputs": [
        {
          "internalType": "bytes32",
          "name": "role",
          "type": "bytes32"
        },
        {
          "internalType": "address",
          "name": "account",
          "type": "address"
        }
      ],
      "name": "NotRoleHolder",
      "type": "error"
    },
    {
      "anonymous": false,
      "inputs": [
        {
          "indexed": true,
          "internalType": "address",
          "name": "owner",
          "type": "address"
        },
        {
          "indexed": true,
          "internalType": "address",
          "name": "approved",
          "type": "address"
        },
        {
          "indexed": true,
          "internalType": "uint256",
          "name": "tokenId",
          "type": "uint256"
        }
      ],
      "name": "Approval",
      "type": "event"
    },
    {
      "anonymous": false,
      "inputs": [
        {
          "indexed": true,
          "internalType": "address",
          "name": "owner",
          "type": "address"
        },
        {
          "indexed": true,
          "internalType": "address",
          "name": "operator",
          "type": "address"
        },
        {
          "indexed": false,
          "internalType": "bool",
          "name": "approved",
          "type": "bool"
        }
      ],
      "name": "ApprovalForAll",
      "type": "event"
    },
    {
      "anonymous": false,
      "inputs": [
        {
          "indexed": true,
          "internalType": "address",
          "name": "previousOwner",
          "type": "address"
        },
        {
          "indexed": true,
          "internalType": "address",
          "name": "newOwner",
          "type": "address"
        }
      ],
      "name": "OwnershipTransferred",
      "type": "event"
    },
    {
      "anonymous": false,
      "inputs": [
        {
          "indexed": false,
          "internalType": "bytes32",
          "name": "role",
          "type": "bytes32"
        },
        {
          "indexed": false,
          "internalType": "address",
          "name": "account",
          "type": "address"
        },
        {
          "indexed": false,
          "internalType": "address",
          "name": "operator",
          "type": "address"
        }
      ],
      "name": "RoleGranted",
      "type": "event"
    },
    {
      "anonymous": false,
      "inputs": [
        {
          "indexed": false,
          "internalType": "bytes32",
          "name": "role",
          "type": "bytes32"
        },
        {
          "indexed": false,
          "internalType": "address",
          "name": "account",
          "type": "address"
        },
        {
          "indexed": false,
          "internalType": "address",
          "name": "operator",
          "type": "address"
        }
      ],
      "name": "RoleRevoked",
      "type": "event"
    },
    {
      "anonymous": false,
      "inputs": [
        {
          "indexed": true,
          "internalType": "address",
          "name": "from",
          "type": "address"
        },
        {
          "indexed": true,
          "internalType": "address",
          "name": "to",
          "type": "address"
        },
        {
          "indexed": true,
          "internalType": "uint256",
          "name": "tokenId",
          "type": "uint256"
        }
      ],
      "name": "Transfer",
      "type": "event"
    },
    {
      "inputs": [],
      "name": "OPERATOR_ROLE",
      "outputs": [
        {
          "internalType": "bytes32",
          "name": "",
          "type": "bytes32"
        }
      ],
      "stateMutability": "view",
      "type": "function"
    },
    {
      "inputs": [],
      "name": "__msgData",
      "outputs": [
        {
          "internalType": "bytes",
          "name": "",
          "type": "bytes"
        }
      ],
      "stateMutability": "view",
      "type": "function"
    },
    {
      "inputs": [
        {
          "internalType": "address",
          "name": "to",
          "type": "address"
        },
        {
          "internalType": "uint256",
          "name": "tokenId",
          "type": "uint256"
        }
      ],
      "name": "approve",
      "outputs": [],
      "stateMutability": "nonpayable",
      "type": "function"
    },
    {
      "inputs": [
        {
          "internalType": "address",
          "name": "owner",
          "type": "address"
        }
      ],
      "name": "balanceOf",
      "outputs": [
        {
          "internalType": "uint256",
          "name": "balance",
          "type": "uint256"
        }
      ],
      "stateMutability": "view",
      "type": "function"
    },
    {
      "inputs": [
        {
          "internalType": "address",
          "name": "from",
          "type": "address"
        },
        {
          "internalType": "uint256[]",
          "name": "tokenIds",
          "type": "uint256[]"
        }
      ],
      "name": "batchBurnFrom",
      "outputs": [],
      "stateMutability": "nonpayable",
      "type": "function"
    },
    {
      "inputs": [
        {
          "internalType": "address",
          "name": "to",
          "type": "address"
        },
        {
          "internalType": "uint256[]",
          "name": "tokenIds",
          "type": "uint256[]"
        }
      ],
      "name": "batchMint",
      "outputs": [],
      "stateMutability": "nonpayable",
      "type": "function"
    },
    {
      "inputs": [
        {
          "internalType": "address",
          "name": "from",
          "type": "address"
        },
        {
          "internalType": "address",
          "name": "to",
          "type": "address"
        },
        {
          "internalType": "uint256[]",
          "name": "tokenIds",
          "type": "uint256[]"
        }
      ],
      "name": "batchTransferFrom",
      "outputs": [],
      "stateMutability": "nonpayable",
      "type": "function"
    },
    {
      "inputs": [
        {
          "internalType": "address",
          "name": "from",
          "type": "address"
        },
        {
          "internalType": "uint256",
          "name": "tokenId",
          "type": "uint256"
        }
      ],
      "name": "burnFrom",
      "outputs": [],
      "stateMutability": "nonpayable",
      "type": "function"
    },
    {
      "inputs": [],
      "name": "forwarderRegistry",
      "outputs": [
        {
          "internalType": "contract IForwarderRegistry",
          "name": "",
          "type": "address"
        }
      ],
      "stateMutability": "view",
      "type": "function"
    },
    {
      "inputs": [
        {
          "internalType": "uint256",
          "name": "tokenId",
          "type": "uint256"
        }
      ],
      "name": "getApproved",
      "outputs": [
        {
          "internalType": "address",
          "name": "approved",
          "type": "address"
        }
      ],
      "stateMutability": "view",
      "type": "function"
    },
    {
      "inputs": [
        {
          "internalType": "bytes32",
          "name": "role",
          "type": "bytes32"
        },
        {
          "internalType": "address",
          "name": "account",
          "type": "address"
        }
      ],
      "name": "grantRole",
      "outputs": [],
      "stateMutability": "nonpayable",
      "type": "function"
    },
    {
      "inputs": [
        {
          "internalType": "bytes32",
          "name": "role",
          "type": "bytes32"
        },
        {
          "internalType": "address",
          "name": "account",
          "type": "address"
        }
      ],
      "name": "hasRole",
      "outputs": [
        {
          "internalType": "bool",
          "name": "hasRole_",
          "type": "bool"
        }
      ],
      "stateMutability": "view",
      "type": "function"
    },
    {
      "inputs": [
        {
          "internalType": "address",
          "name": "owner",
          "type": "address"
        },
        {
          "internalType": "address",
          "name": "operator",
          "type": "address"
        }
      ],
      "name": "isApprovedForAll",
      "outputs": [
        {
          "internalType": "bool",
          "name": "approvedForAll",
          "type": "bool"
        }
      ],
      "stateMutability": "view",
      "type": "function"
    },
    {
      "inputs": [
        {
          "internalType": "address",
          "name": "forwarder",
          "type": "address"
        }
      ],
      "name": "isTrustedForwarder",
      "outputs": [
        {
          "internalType": "bool",
          "name": "",
          "type": "bool"
        }
      ],
      "stateMutability": "view",
      "type": "function"
    },
    {
      "inputs": [],
      "name": "metadataResolver",
      "outputs": [
        {
          "internalType": "contract ITokenMetadataResolver",
          "name": "tokenMetadataResolver",
          "type": "address"
        }
      ],
      "stateMutability": "view",
      "type": "function"
    },
    {
      "inputs": [
        {
          "internalType": "address",
          "name": "to",
          "type": "address"
        },
        {
          "internalType": "uint256",
          "name": "tokenId",
          "type": "uint256"
        }
      ],
      "name": "mint",
      "outputs": [],
      "stateMutability": "nonpayable",
      "type": "function"
    },
    {
      "inputs": [],
      "name": "name",
      "outputs": [
        {
          "internalType": "string",
          "name": "tokenName",
          "type": "string"
        }
      ],
      "stateMutability": "view",
      "type": "function"
    },
    {
      "inputs": [],
      "name": "owner",
      "outputs": [
        {
          "internalType": "address",
          "name": "",
          "type": "address"
        }
      ],
      "stateMutability": "view",
      "type": "function"
    },
    {
      "inputs": [
        {
          "internalType": "uint256",
          "name": "tokenId",
          "type": "uint256"
        }
      ],
      "name": "ownerOf",
      "outputs": [
        {
          "internalType": "address",
          "name": "tokenOwner",
          "type": "address"
        }
      ],
      "stateMutability": "view",
      "type": "function"
    },
    {
      "inputs": [
        {
          "internalType": "address[]",
          "name": "accounts",
          "type": "address[]"
        },
        {
          "internalType": "contract IERC20[]",
          "name": "tokens",
          "type": "address[]"
        },
        {
          "internalType": "uint256[]",
          "name": "amounts",
          "type": "uint256[]"
        }
      ],
      "name": "recoverERC20s",
      "outputs": [],
      "stateMutability": "nonpayable",
      "type": "function"
    },
    {
      "inputs": [
        {
          "internalType": "address[]",
          "name": "accounts",
          "type": "address[]"
        },
        {
          "internalType": "contract IERC721[]",
          "name": "contracts",
          "type": "address[]"
        },
        {
          "internalType": "uint256[]",
          "name": "tokenIds",
          "type": "uint256[]"
        }
      ],
      "name": "recoverERC721s",
      "outputs": [],
      "stateMutability": "nonpayable",
      "type": "function"
    },
    {
      "inputs": [
        {
          "internalType": "address payable[]",
          "name": "accounts",
          "type": "address[]"
        },
        {
          "internalType": "uint256[]",
          "name": "amounts",
          "type": "uint256[]"
        }
      ],
      "name": "recoverETH",
      "outputs": [],
      "stateMutability": "nonpayable",
      "type": "function"
    },
    {
      "inputs": [
        {
          "internalType": "bytes32",
          "name": "role",
          "type": "bytes32"
        }
      ],
      "name": "renounceRole",
      "outputs": [],
      "stateMutability": "nonpayable",
      "type": "function"
    },
    {
      "inputs": [
        {
          "internalType": "bytes32",
          "name": "role",
          "type": "bytes32"
        },
        {
          "internalType": "address",
          "name": "account",
          "type": "address"
        }
      ],
      "name": "revokeRole",
      "outputs": [],
      "stateMutability": "nonpayable",
      "type": "function"
    },
    {
      "inputs": [
        {
          "internalType": "address",
          "name": "to",
          "type": "address"
        },
        {
          "internalType": "uint256",
          "name": "tokenId",
          "type": "uint256"
        },
        {
          "internalType": "bytes",
          "name": "data",
          "type": "bytes"
        }
      ],
      "name": "safeMint",
      "outputs": [],
      "stateMutability": "nonpayable",
      "type": "function"
    },
    {
      "inputs": [
        {
          "internalType": "address",
          "name": "from",
          "type": "address"
        },
        {
          "internalType": "address",
          "name": "to",
          "type": "address"
        },
        {
          "internalType": "uint256",
          "name": "tokenId",
          "type": "uint256"
        }
      ],
      "name": "safeTransferFrom",
      "outputs": [],
      "stateMutability": "nonpayable",
      "type": "function"
    },
    {
      "inputs": [
        {
          "internalType": "address",
          "name": "from",
          "type": "address"
        },
        {
          "internalType": "address",
          "name": "to",
          "type": "address"
        },
        {
          "internalType": "uint256",
          "name": "tokenId",
          "type": "uint256"
        },
        {
          "internalType": "bytes",
          "name": "data",
          "type": "bytes"
        }
      ],
      "name": "safeTransferFrom",
      "outputs": [],
      "stateMutability": "nonpayable",
      "type": "function"
    },
    {
      "inputs": [
        {
          "internalType": "address",
          "name": "operator",
          "type": "address"
        },
        {
          "internalType": "bool",
          "name": "approved",
          "type": "bool"
        }
      ],
      "name": "setApprovalForAll",
      "outputs": [],
      "stateMutability": "nonpayable",
      "type": "function"
    },
    {
      "inputs": [
        {
          "internalType": "bytes4",
          "name": "interfaceId",
          "type": "bytes4"
        }
      ],
      "name": "supportsInterface",
      "outputs": [
        {
          "internalType": "bool",
          "name": "",
          "type": "bool"
        }
      ],
      "stateMutability": "view",
      "type": "function"
    },
    {
      "inputs": [],
      "name": "symbol",
      "outputs": [
        {
          "internalType": "string",
          "name": "tokenSymbol",
          "type": "string"
        }
      ],
      "stateMutability": "view",
      "type": "function"
    },
    {
      "inputs": [
        {
          "internalType": "uint256",
          "name": "tokenId",
          "type": "uint256"
        }
      ],
      "name": "tokenURI",
      "outputs": [
        {
          "internalType": "string",
          "name": "uri",
          "type": "string"
        }
      ],
      "stateMutability": "view",
      "type": "function"
    },
    {
      "inputs": [
        {
          "internalType": "address",
          "name": "from",
          "type": "address"
        },
        {
          "internalType": "address",
          "name": "to",
          "type": "address"
        },
        {
          "internalType": "uint256",
          "name": "tokenId",
          "type": "uint256"
        }
      ],
      "name": "transferFrom",
      "outputs": [],
      "stateMutability": "nonpayable",
      "type": "function"
    },
    {
      "inputs": [
        {
          "internalType": "address",
          "name": "newOwner",
          "type": "address"
        }
      ],
      "name": "transferOwnership",
      "outputs": [],
      "stateMutability": "nonpayable",
      "type": "function"
    }
  ],
  "bytecode": "0x60a06040523480156200001157600080fd5b5060405162003e9738038062003e978339810160408190526200003491620003d0565b83838383808033868686620000588383836200004f620000c5565b929190620000fb565b6200006262000142565b50505062000081816200007a6200016460201b60201c565b9062000194565b506001600160a01b0316608052506200009962000207565b620000a36200021f565b620000ad62000237565b620000b76200024f565b5050505050505050620005e3565b600080620000f560017f7ea68fd2dcf1c056b94db6a0a537aa80d26fa9ab1eacd85da1ba0b61b7e7a8a562000464565b92915050565b8362000108848262000517565b506001840162000119838262000517565b5060029390930180546001600160a01b0319166001600160a01b03909416939093179092555050565b62000162635b5e139f60e01b60016200015a62000262565b919062000292565b565b600080620000f560017fc9ed16f33ab3a66c84bfd83099ccb2a8845871e2e1c1928f63797152f0fd54cd62000464565b6001600160a01b03811615620001eb5781546001600160a01b0319166001600160a01b03821690811783556040516000907f8be0079c531659141344cd1fd0a4f28419497f9722a3daafe3b4186f6b6457e0908290a35b620002036307f5828d60e41b60016200015a62000262565b5050565b620001626380ac58cd60e01b60016200015a62000262565b62000162638e773e1360e01b60016200015a62000262565b62000162638b8b4ef560e01b60016200015a62000262565b6200016263f3993d1160e01b60016200015a5b600080620000f560017fca9d3e17f264b0f3984e2634e94adb37fa3e6a8103f06aeae6fa59e21c769f5e62000464565b600160e01b6001600160e01b0319831601620002c1576040516372c683bb60e01b815260040160405180910390fd5b6001600160e01b03199190911660009081526020929092526040909120805460ff1916911515919091179055565b634e487b7160e01b600052604160045260246000fd5b600082601f8301126200031757600080fd5b81516001600160401b0380821115620003345762000334620002ef565b604051601f8301601f19908116603f011681019082821181831017156200035f576200035f620002ef565b81604052838152602092508660208588010111156200037d57600080fd5b600091505b83821015620003a1578582018301518183018401529082019062000382565b6000602085830101528094505050505092915050565b6001600160a01b0381168114620003cd57600080fd5b50565b60008060008060808587031215620003e757600080fd5b84516001600160401b0380821115620003ff57600080fd5b6200040d8883890162000305565b955060208701519150808211156200042457600080fd5b50620004338782880162000305565b93505060408501516200044681620003b7565b60608601519092506200045981620003b7565b939692955090935050565b81810381811115620000f557634e487b7160e01b600052601160045260246000fd5b600181811c908216806200049b57607f821691505b602082108103620004bc57634e487b7160e01b600052602260045260246000fd5b50919050565b601f82111562000512576000816000526020600020601f850160051c81016020861015620004ed5750805b601f850160051c820191505b818110156200050e57828155600101620004f9565b5050505b505050565b81516001600160401b03811115620005335762000533620002ef565b6200054b8162000544845462000486565b84620004c2565b602080601f8311600181146200058357600084156200056a5750858301515b600019600386901b1c1916600185901b1785556200050e565b600085815260208120601f198616915b82811015620005b45788860151825594840194600190910190840162000593565b5085821015620005d35787850151600019600388901b60f8161c191681555b5050505050600190811b01905550565b60805161387562000622600039600081816102af0152818161034501528181612944015281816129cc01528181612af40152612b3201526138756000f3fe608060405234801561001057600080fd5b506004361061020b5760003560e01c80638832e6e31161012a578063c3666c36116100bd578063f24729651161008c578063f3993d1111610071578063f3993d11146104c5578063f5b541a6146104d8578063f7ba94bd146104ff57600080fd5b8063f24729651461049f578063f2fde38b146104b257600080fd5b8063c3666c3614610453578063c87b56dd14610466578063d547741f14610479578063e985e9c51461048c57600080fd5b806395d89b41116100f957806395d89b411461041d578063a0c76f6214610425578063a22cb4651461042d578063b88d4fde1461044057600080fd5b80638832e6e3146103dc5780638bb9c5bf146103ef5780638da5cb5b1461040257806391d148541461040a57600080fd5b806340c10f19116101a25780636352211e116101715780636352211e1461038257806370a082311461039557806373c8a958146103b657806379cc6790146103c957600080fd5b806340c10f19146102fc57806342842e0e1461030f5780634684d7e914610322578063572b6c051461033557600080fd5b806323b872dd116101de57806323b872dd1461029a5780632b4c9f16146102ad5780632f2ff15d146102d357806331e66e1e146102e657600080fd5b806301ffc9a71461021057806306fdde0314610238578063081812fc1461024d578063095ea7b314610285575b600080fd5b61022361021e36600461302c565b610512565b60405190151581526020015b60405180910390f35b61024061052c565b60405161022f91906130b7565b61026061025b3660046130ca565b61053b565b60405173ffffffffffffffffffffffffffffffffffffffff909116815260200161022f565b610298610293366004613105565b61054f565b005b6102986102a8366004613131565b610570565b7f0000000000000000000000000000000000000000000000000000000000000000610260565b6102986102e1366004613172565b610580565b6102ee6105b4565b60405161022f9291906131eb565b61029861030a366004613105565b6105c7565b61029861031d366004613131565b610616565b61029861033036600461324b565b6107ac565b6102236103433660046132a0565b7f000000000000000000000000000000000000000000000000000000000000000073ffffffffffffffffffffffffffffffffffffffff90811691161490565b6102606103903660046130ca565b610820565b6103a86103a33660046132a0565b610834565b60405190815260200161022f565b6102986103c43660046132bd565b610848565b6102986103d7366004613105565b610946565b6102986103ea366004613399565b610b0e565b6102986103fd3660046130ca565b610b96565b610260610bb4565b610223610418366004613172565b610bdb565b610240610c26565b610260610c30565b61029861043b366004613403565b610c5a565b61029861044e366004613431565b610c77565b6102986104613660046132bd565b610dca565b6102406104743660046130ca565b610f42565b610298610487366004613172565b610f65565b61022361049a3660046134a4565b610f93565b6102986104ad36600461324b565b610fe1565b6102986104c03660046132a0565b6111e3565b6102986104d33660046134d2565b6111fe565b6103a87f97667070c54ef182b0f5858b034beac1b6f3089aa2d3188bb1e8929f4fa9b92981565b61029861050d36600461352b565b61147b565b600061052682610520611532565b90611560565b92915050565b606061053661163a565b905090565b60006105268261054961164c565b9061167a565b61056c61055a61172e565b838361056461164c565b929190611738565b5050565b61057b8383836119b3565b505050565b600061058a61172e565b905061059e81610598611c0f565b90611c3d565b61057b8383836105ac611ca8565b929190611cd6565b3660006105bf611dac565b915091509091565b6106027f97667070c54ef182b0f5858b034beac1b6f3089aa2d3188bb1e8929f4fa9b9296105f361172e565b6105fb611ca8565b9190611db7565b61056c828261060f61164c565b9190611e3d565b6106218383836119b3565b73ffffffffffffffffffffffffffffffffffffffff82163b1561057b577f150b7a020000000000000000000000000000000000000000000000000000000073ffffffffffffffffffffffffffffffffffffffff831663150b7a0261068361172e565b6040517fffffffff0000000000000000000000000000000000000000000000000000000060e084901b16815273ffffffffffffffffffffffffffffffffffffffff9182166004820152908716602482015260448101859052608060648201526000608482015260a4016020604051808303816000875af115801561070b573d6000803e3d6000fd5b505050506040513d601f19601f8201168201806040525081019061072f919061358b565b7fffffffff00000000000000000000000000000000000000000000000000000000161461057b576040517fc215a7a100000000000000000000000000000000000000000000000000000000815273ffffffffffffffffffffffffffffffffffffffff83166004820152602481018290526044015b60405180910390fd5b6107d87f97667070c54ef182b0f5858b034beac1b6f3089aa2d3188bb1e8929f4fa9b9296105f361172e565b61057b83838380806020026020016040519081016040528093929190818152602001838360200280828437600092019190915250610819925061164c915050565b9190611f57565b60006105268261082e61164c565b906120cf565b60006105268261084261164c565b90612138565b61085b61085361172e565b610598611c0f565b84838114158061086b5750808214155b156108a2576040517f6582533600000000000000000000000000000000000000000000000000000000815260040160405180910390fd5b60005b8181101561093c576109348888838181106108c2576108c26135a8565b90506020020160208101906108d791906132a0565b8585848181106108e9576108e96135a8565b90506020020135888885818110610902576109026135a8565b905060200201602081019061091791906132a0565b73ffffffffffffffffffffffffffffffffffffffff1691906121b4565b6001016108a5565b5050505050505050565b6109727f97667070c54ef182b0f5858b034beac1b6f3089aa2d3188bb1e8929f4fa9b9296105f361172e565b600061097c61164c565b60008381526020829052604090205490915073ffffffffffffffffffffffffffffffffffffffff81166109de576040517fdd560475000000000000000000000000000000000000000000000000000000008152600481018490526024016107a3565b8373ffffffffffffffffffffffffffffffffffffffff168173ffffffffffffffffffffffffffffffffffffffff1614610a62576040517f14dbb53600000000000000000000000000000000000000000000000000000000815273ffffffffffffffffffffffffffffffffffffffff85166004820152602481018490526044016107a3565b6000838152602083815260408083207fdead000000000000000000000000000000000000000000000000000000000000905573ffffffffffffffffffffffffffffffffffffffff87168084526001860190925280832080547fffffffffffffffffffffffffffffffffffffffffffffffffffffffffffffffff01905551859291907fddf252ad1be2c89b69c2b068fc378daa952ba7f163c4a11628f55a4df523b3ef908390a450505050565b610b3a7f97667070c54ef182b0f5858b034beac1b6f3089aa2d3188bb1e8929f4fa9b9296105f361172e565b610b90610b4561172e565b858585858080601f016020809104026020016040519081016040528093929190818152602001838380828437600092019190915250610b87925061164c915050565b93929190612241565b50505050565b610bb1610ba161172e565b82610baa611ca8565b9190612277565b50565b6000610536610bc1611c0f565b5473ffffffffffffffffffffffffffffffffffffffff1690565b6000610c1f8383610bea611ca8565b60009283526020908152604080842073ffffffffffffffffffffffffffffffffffffffff909316845291905290205460ff1690565b9392505050565b606061053661231b565b6000610536610c3d61232d565b6002015473ffffffffffffffffffffffffffffffffffffffff1690565b61056c610c6561172e565b8383610c6f61164c565b92919061235b565b610c828585856119b3565b73ffffffffffffffffffffffffffffffffffffffff84163b15610dc3577f150b7a020000000000000000000000000000000000000000000000000000000073ffffffffffffffffffffffffffffffffffffffff851663150b7a02610ce461172e565b888787876040518663ffffffff1660e01b8152600401610d089594939291906135d7565b6020604051808303816000875af1158015610d27573d6000803e3d6000fd5b505050506040513d601f19601f82011682018060405250810190610d4b919061358b565b7fffffffff000000000000000000000000000000000000000000000000000000001614610dc3576040517fc215a7a100000000000000000000000000000000000000000000000000000000815273ffffffffffffffffffffffffffffffffffffffff85166004820152602481018490526044016107a3565b5050505050565b610dd561085361172e565b848381141580610de55750808214155b15610e1c576040517f6582533600000000000000000000000000000000000000000000000000000000815260040160405180910390fd5b60005b8181101561093c57858582818110610e3957610e396135a8565b9050602002016020810190610e4e91906132a0565b73ffffffffffffffffffffffffffffffffffffffff166323b872dd308a8a85818110610e7c57610e7c6135a8565b9050602002016020810190610e9191906132a0565b878786818110610ea357610ea36135a8565b6040517fffffffff0000000000000000000000000000000000000000000000000000000060e088901b16815273ffffffffffffffffffffffffffffffffffffffff958616600482015294909316602485015250602090910201356044820152606401600060405180830381600087803b158015610f1f57600080fd5b505af1158015610f33573d6000803e3d6000fd5b50505050806001019050610e1f565b6060610f508261082e61164c565b506105263083610f5e61232d565b9190612473565b6000610f6f61172e565b9050610f7d81610598611c0f565b61057b838383610f8b611ca8565b929190612533565b6000610c1f8383610fa261164c565b919073ffffffffffffffffffffffffffffffffffffffff9182166000908152600393909301602090815260408085209290931684525290205460ff1690565b61100d7f97667070c54ef182b0f5858b034beac1b6f3089aa2d3188bb1e8929f4fa9b9296105f361172e565b600061101761164c565b90508160005b818110156111a7576000858583818110611039576110396135a8565b602090810292909201356000818152928790526040909220549192505073ffffffffffffffffffffffffffffffffffffffff81166110a6576040517fdd560475000000000000000000000000000000000000000000000000000000008152600481018390526024016107a3565b8773ffffffffffffffffffffffffffffffffffffffff168173ffffffffffffffffffffffffffffffffffffffff161461112a576040517f14dbb53600000000000000000000000000000000000000000000000000000000815273ffffffffffffffffffffffffffffffffffffffff89166004820152602481018390526044016107a3565b6000828152602086905260408082207fdead00000000000000000000000000000000000000000000000000000000000090555183919073ffffffffffffffffffffffffffffffffffffffff8b16907fddf252ad1be2c89b69c2b068fc378daa952ba7f163c4a11628f55a4df523b3ef908390a4505060010161101d565b508015610dc35773ffffffffffffffffffffffffffffffffffffffff851660009081526001830160205260409020805482900390555050505050565b610bb16111ee61172e565b826111f7611c0f565b91906125fd565b61122a7f97667070c54ef182b0f5858b034beac1b6f3089aa2d3188bb1e8929f4fa9b9296105f361172e565b73ffffffffffffffffffffffffffffffffffffffff8316611277576040517f86c8706700000000000000000000000000000000000000000000000000000000815260040160405180910390fd5b600061128161164c565b90508160005b818110156113f55760008585838181106112a3576112a36135a8565b602090810292909201356000818152928790526040909220549192505073ffffffffffffffffffffffffffffffffffffffff8116611310576040517fdd560475000000000000000000000000000000000000000000000000000000008152600481018390526024016107a3565b8873ffffffffffffffffffffffffffffffffffffffff168173ffffffffffffffffffffffffffffffffffffffff1614611394576040517f14dbb53600000000000000000000000000000000000000000000000000000000815273ffffffffffffffffffffffffffffffffffffffff8a166004820152602481018390526044016107a3565b60008281526020869052604080822073ffffffffffffffffffffffffffffffffffffffff808c16918290559151859391928d16917fddf252ad1be2c89b69c2b068fc378daa952ba7f163c4a11628f55a4df523b3ef91a45050600101611287565b508473ffffffffffffffffffffffffffffffffffffffff168673ffffffffffffffffffffffffffffffffffffffff161415801561143157508015155b156114735773ffffffffffffffffffffffffffffffffffffffff8087166000908152600184016020526040808220805485900390559187168152208054820190555b505050505050565b61148661085361172e565b828181146114c0576040517f6582533600000000000000000000000000000000000000000000000000000000815260040160405180910390fd5b60005b818110156114735761152a8484838181106114e0576114e06135a8565b905060200201358787848181106114f9576114f96135a8565b905060200201602081019061150e91906132a0565b73ffffffffffffffffffffffffffffffffffffffff1690612711565b6001016114c3565b60008061052660017fca9d3e17f264b0f3984e2634e94adb37fa3e6a8103f06aeae6fa59e21c769f5e613617565b60007c01000000000000000000000000000000000000000000000000000000007fffffffff000000000000000000000000000000000000000000000000000000008316016115b057506000610526565b7ffe003659000000000000000000000000000000000000000000000000000000007fffffffff0000000000000000000000000000000000000000000000000000000083160161160157506001610526565b507fffffffff00000000000000000000000000000000000000000000000000000000166000908152602091909152604090205460ff1690565b606061053661164761232d565b61286b565b60008061052660017fddf3ee18ae6d688373c219468f8be446e7ae82215f4779d821c7ea5e8c13c0c1613617565b60008181526020839052604081205473ffffffffffffffffffffffffffffffffffffffff81166116d9576040517fdd560475000000000000000000000000000000000000000000000000000000008152600481018490526024016107a3565b74010000000000000000000000000000000000000000811615611724575050600081815260028301602052604090205473ffffffffffffffffffffffffffffffffffffffff16610526565b6000915050610526565b6000610536612901565b60008181526020859052604090205473ffffffffffffffffffffffffffffffffffffffff8116611797576040517fdd560475000000000000000000000000000000000000000000000000000000008152600481018390526024016107a3565b8073ffffffffffffffffffffffffffffffffffffffff80821690851603611802576040517fb7fdc01000000000000000000000000000000000000000000000000000000000815273ffffffffffffffffffffffffffffffffffffffff821660048201526024016107a3565b61180d868287612a48565b61186a576040517fc7563a1800000000000000000000000000000000000000000000000000000000815273ffffffffffffffffffffffffffffffffffffffff808716600483015282166024820152604481018490526064016107a3565b73ffffffffffffffffffffffffffffffffffffffff84166118cf57740100000000000000000000000000000000000000008216156118ca57600083815260208790526040902073ffffffffffffffffffffffffffffffffffffffff821690555b611950565b7401000000000000000000000000000000000000000082178083146119005760008481526020889052604090208190555b506000838152600287016020526040902080547fffffffffffffffffffffffff00000000000000000000000000000000000000001673ffffffffffffffffffffffffffffffffffffffff86161790555b828473ffffffffffffffffffffffffffffffffffffffff168273ffffffffffffffffffffffffffffffffffffffff167f8c5be1e5ebec7d5bd14f71427d1e84f3dd0314c0f7b2291e5b200ac8c7c3b92560405160405180910390a4505050505050565b6119df7f97667070c54ef182b0f5858b034beac1b6f3089aa2d3188bb1e8929f4fa9b9296105f361172e565b73ffffffffffffffffffffffffffffffffffffffff8216611a2c576040517f86c8706700000000000000000000000000000000000000000000000000000000815260040160405180910390fd5b6000611a3661164c565b60008381526020829052604090205490915073ffffffffffffffffffffffffffffffffffffffff8116611a98576040517fdd560475000000000000000000000000000000000000000000000000000000008152600481018490526024016107a3565b8473ffffffffffffffffffffffffffffffffffffffff168173ffffffffffffffffffffffffffffffffffffffff1614611b1c576040517f14dbb53600000000000000000000000000000000000000000000000000000000815273ffffffffffffffffffffffffffffffffffffffff86166004820152602481018490526044016107a3565b600083815260208390526040902073ffffffffffffffffffffffffffffffffffffffff80861691829055861614611bad5773ffffffffffffffffffffffffffffffffffffffff80861660009081526001808501602052604080832080547fffffffffffffffffffffffffffffffffffffffffffffffffffffffffffffffff0190559287168252919020805490910190555b828473ffffffffffffffffffffffffffffffffffffffff168673ffffffffffffffffffffffffffffffffffffffff167fddf252ad1be2c89b69c2b068fc378daa952ba7f163c4a11628f55a4df523b3ef60405160405180910390a45050505050565b60008061052660017fc9ed16f33ab3a66c84bfd83099ccb2a8845871e2e1c1928f63797152f0fd54cd613617565b815473ffffffffffffffffffffffffffffffffffffffff82811691161461056c576040517f2ef4875e00000000000000000000000000000000000000000000000000000000815273ffffffffffffffffffffffffffffffffffffffff821660048201526024016107a3565b60008061052660017fc8827d3282af6f37b64c3e9e6f3ac9df286ab0bb0fccd6f8661bf19adb368b23613617565b60008381526020858152604080832073ffffffffffffffffffffffffffffffffffffffff8616845290915290205460ff16610b905760008381526020858152604080832073ffffffffffffffffffffffffffffffffffffffff8681168086529184529382902080547fffffffffffffffffffffffffffffffffffffffffffffffffffffffffffffff00166001179055815187815292830152918316918101919091527f2f8788117e7eff1d82e926ec794901d17c78024a50270940304540a733656f0d906060015b60405180910390a150505050565b3660006105bf612abd565b60008281526020848152604080832073ffffffffffffffffffffffffffffffffffffffff8516845290915290205460ff1661057b576040517f7aa728820000000000000000000000000000000000000000000000000000000081526004810183905273ffffffffffffffffffffffffffffffffffffffff821660248201526044016107a3565b73ffffffffffffffffffffffffffffffffffffffff8216611e8a576040517f7851b9cd00000000000000000000000000000000000000000000000000000000815260040160405180910390fd5b60008181526020849052604090205473ffffffffffffffffffffffffffffffffffffffff1615611ee9576040517f753eceac000000000000000000000000000000000000000000000000000000008152600481018290526024016107a3565b60008181526020848152604080832073ffffffffffffffffffffffffffffffffffffffff86169081905580845260018088019093528184208054909301909255518392907fddf252ad1be2c89b69c2b068fc378daa952ba7f163c4a11628f55a4df523b3ef908290a4505050565b73ffffffffffffffffffffffffffffffffffffffff8216611fa4576040517f7851b9cd00000000000000000000000000000000000000000000000000000000815260040160405180910390fd5b805160005b8181101561209a576000838281518110611fc557611fc56135a8565b602002602001015190506120038660000160008381526020019081526020016000205473ffffffffffffffffffffffffffffffffffffffff16151590565b1561203d576040517f753eceac000000000000000000000000000000000000000000000000000000008152600481018290526024016107a3565b60008181526020879052604080822073ffffffffffffffffffffffffffffffffffffffff88169081905590518392907fddf252ad1be2c89b69c2b068fc378daa952ba7f163c4a11628f55a4df523b3ef908290a450600101611fa9565b5073ffffffffffffffffffffffffffffffffffffffff9092166000908152600190930160205250604090912080549091019055565b60008181526020839052604081205473ffffffffffffffffffffffffffffffffffffffff811661212e576040517fdd560475000000000000000000000000000000000000000000000000000000008152600481018490526024016107a3565b805b949350505050565b600073ffffffffffffffffffffffffffffffffffffffff8216612187576040517faefbce4e00000000000000000000000000000000000000000000000000000000815260040160405180910390fd5b5073ffffffffffffffffffffffffffffffffffffffff166000908152600191909101602052604090205490565b6040805173ffffffffffffffffffffffffffffffffffffffff8416602482015260448082018490528251808303909101815260649091019091526020810180517bffffffffffffffffffffffffffffffffffffffffffffffffffffffff167fa9059cbb0000000000000000000000000000000000000000000000000000000017905261057b908490612c27565b61224c858484611e3d565b73ffffffffffffffffffffffffffffffffffffffff83163b15610dc357610dc3846000858585612d36565b612282838284611db7565b60008181526020848152604080832073ffffffffffffffffffffffffffffffffffffffff86168085529083529281902080547fffffffffffffffffffffffffffffffffffffffffffffffffffffffffffffff0016905580518481529182018390528101919091527ff6391f5c32d9c69d2a47ea670b442974b53935d1edc7fd64eb21e047a839171b9060600160405180910390a1505050565b606061053661232861232d565b612e4b565b60008061052660017f7ea68fd2dcf1c056b94db6a0a537aa80d26fa9ab1eacd85da1ba0b61b7e7a8a5613617565b8273ffffffffffffffffffffffffffffffffffffffff168273ffffffffffffffffffffffffffffffffffffffff16036123d8576040517fe4215c6a00000000000000000000000000000000000000000000000000000000815273ffffffffffffffffffffffffffffffffffffffff841660048201526024016107a3565b73ffffffffffffffffffffffffffffffffffffffff838116600081815260038701602090815260408083209487168084529482529182902080547fffffffffffffffffffffffffffffffffffffffffffffffffffffffffffffff001686151590811790915591519182527f17307eab39ab6107e8899845ad3d59bd9653f200f220920489ca2b5937696c31910160405180910390a350505050565b60028301546040517ff724dad700000000000000000000000000000000000000000000000000000000815273ffffffffffffffffffffffffffffffffffffffff848116600483015260248201849052606092169063f724dad790604401600060405180830381865afa1580156124ed573d6000803e3d6000fd5b505050506040513d6000823e601f3d9081017fffffffffffffffffffffffffffffffffffffffffffffffffffffffffffffffe01682016040526121309190810190613680565b60008381526020858152604080832073ffffffffffffffffffffffffffffffffffffffff8616845290915290205460ff1615610b905760008381526020858152604080832073ffffffffffffffffffffffffffffffffffffffff8681168086529184529382902080547fffffffffffffffffffffffffffffffffffffffffffffffffffffffffffffff00169055815187815292830152918316918101919091527ff6391f5c32d9c69d2a47ea670b442974b53935d1edc7fd64eb21e047a839171b90606001611d9e565b825473ffffffffffffffffffffffffffffffffffffffff908116908316811461266a576040517f2ef4875e00000000000000000000000000000000000000000000000000000000815273ffffffffffffffffffffffffffffffffffffffff841660048201526024016107a3565b8173ffffffffffffffffffffffffffffffffffffffff168173ffffffffffffffffffffffffffffffffffffffff1614610b905783547fffffffffffffffffffffffff00000000000000000000000000000000000000001673ffffffffffffffffffffffffffffffffffffffff8381169182178655604051908316907f8be0079c531659141344cd1fd0a4f28419497f9722a3daafe3b4186f6b6457e090600090a350505050565b8047101561277b576040517f08c379a000000000000000000000000000000000000000000000000000000000815260206004820152601d60248201527f416464726573733a20696e73756666696369656e742062616c616e636500000060448201526064016107a3565b60008273ffffffffffffffffffffffffffffffffffffffff168260405160006040518083038185875af1925050503d80600081146127d5576040519150601f19603f3d011682016040523d82523d6000602084013e6127da565b606091505b505090508061057b576040517f08c379a000000000000000000000000000000000000000000000000000000000815260206004820152603a60248201527f416464726573733a20756e61626c6520746f2073656e642076616c75652c207260448201527f6563697069656e74206d6179206861766520726576657274656400000000000060648201526084016107a3565b606081600001805461287c90613740565b80601f01602080910402602001604051908101604052809291908181526020018280546128a890613740565b80156128f55780601f106128ca576101008083540402835291602001916128f5565b820191906000526020600020905b8154815290600101906020018083116128d857829003601f168201915b50505050509050919050565b6000333214806129115750601836105b1561291b57503390565b7fffffffffffffffffffffffffffffffffffffffffffffffffffffffffffffffec36013560601c7f000000000000000000000000000000000000000000000000000000000000000073ffffffffffffffffffffffffffffffffffffffff16331480612a3757506040517f8929a8ca00000000000000000000000000000000000000000000000000000000815273ffffffffffffffffffffffffffffffffffffffff82811660048301523360248301527f00000000000000000000000000000000000000000000000000000000000000001690638929a8ca90604401602060405180830381865afa158015612a13573d6000803e3d6000fd5b505050506040513d601f19601f82011682018060405250810190612a379190613793565b15612a4157919050565b3391505090565b60008173ffffffffffffffffffffffffffffffffffffffff168373ffffffffffffffffffffffffffffffffffffffff16148061213057505073ffffffffffffffffffffffffffffffffffffffff9182166000908152600393909301602090815260408085209290931684525290205460ff1690565b36600033321480612ace5750601836105b15612adc5750600091369150565b3373ffffffffffffffffffffffffffffffffffffffff7f0000000000000000000000000000000000000000000000000000000000000000161480612c11575073ffffffffffffffffffffffffffffffffffffffff7f000000000000000000000000000000000000000000000000000000000000000016638929a8ca367fffffffffffffffffffffffffffffffffffffffffffffffffffffffffffffffec013560601c6040517fffffffff0000000000000000000000000000000000000000000000000000000060e084901b16815273ffffffffffffffffffffffffffffffffffffffff9091166004820152336024820152604401602060405180830381865afa158015612bed573d6000803e3d6000fd5b505050506040513d601f19601f82011682018060405250810190612c119190613793565b15612c1e576105bf612e5c565b50600091369150565b6000612c89826040518060400160405280602081526020017f5361666545524332303a206c6f772d6c6576656c2063616c6c206661696c65648152508573ffffffffffffffffffffffffffffffffffffffff16612e8d9092919063ffffffff16565b9050805160001480612caa575080806020019051810190612caa9190613793565b61057b576040517f08c379a000000000000000000000000000000000000000000000000000000000815260206004820152602a60248201527f5361666545524332303a204552433230206f7065726174696f6e20646964206e60448201527f6f7420737563636565640000000000000000000000000000000000000000000060648201526084016107a3565b6040517f150b7a02000000000000000000000000000000000000000000000000000000008082529073ffffffffffffffffffffffffffffffffffffffff85169063150b7a0290612d909089908990889088906004016137b0565b6020604051808303816000875af1158015612daf573d6000803e3d6000fd5b505050506040513d601f19601f82011682018060405250810190612dd3919061358b565b7fffffffff000000000000000000000000000000000000000000000000000000001614610dc3576040517fc215a7a100000000000000000000000000000000000000000000000000000000815273ffffffffffffffffffffffffffffffffffffffff84166004820152602481018390526044016107a3565b606081600101805461287c90613740565b3660006105bf7fffffffffffffffffffffffffffffffffffffffffffffffffffffffffffffffec83018284816137f9565b60606121308484600085856000808673ffffffffffffffffffffffffffffffffffffffff168587604051612ec19190613823565b60006040518083038185875af1925050503d8060008114612efe576040519150601f19603f3d011682016040523d82523d6000602084013e612f03565b606091505b5091509150612f1487838387612f1f565b979650505050505050565b60608315612fb5578251600003612fae5773ffffffffffffffffffffffffffffffffffffffff85163b612fae576040517f08c379a000000000000000000000000000000000000000000000000000000000815260206004820152601d60248201527f416464726573733a2063616c6c20746f206e6f6e2d636f6e747261637400000060448201526064016107a3565b5081612130565b6121308383815115612fca5781518083602001fd5b806040517f08c379a00000000000000000000000000000000000000000000000000000000081526004016107a391906130b7565b7fffffffff0000000000000000000000000000000000000000000000000000000081168114610bb157600080fd5b60006020828403121561303e57600080fd5b8135610c1f81612ffe565b60005b8381101561306457818101518382015260200161304c565b50506000910152565b60008151808452613085816020860160208601613049565b601f017fffffffffffffffffffffffffffffffffffffffffffffffffffffffffffffffe0169290920160200192915050565b602081526000610c1f602083018461306d565b6000602082840312156130dc57600080fd5b5035919050565b73ffffffffffffffffffffffffffffffffffffffff81168114610bb157600080fd5b6000806040838503121561311857600080fd5b8235613123816130e3565b946020939093013593505050565b60008060006060848603121561314657600080fd5b8335613151816130e3565b92506020840135613161816130e3565b929592945050506040919091013590565b6000806040838503121561318557600080fd5b823591506020830135613197816130e3565b809150509250929050565b8183528181602085013750600060208284010152600060207fffffffffffffffffffffffffffffffffffffffffffffffffffffffffffffffe0601f840116840101905092915050565b6020815260006121306020830184866131a2565b60008083601f84011261321157600080fd5b50813567ffffffffffffffff81111561322957600080fd5b6020830191508360208260051b850101111561324457600080fd5b9250929050565b60008060006040848603121561326057600080fd5b833561326b816130e3565b9250602084013567ffffffffffffffff81111561328757600080fd5b613293868287016131ff565b9497909650939450505050565b6000602082840312156132b257600080fd5b8135610c1f816130e3565b600080600080600080606087890312156132d657600080fd5b863567ffffffffffffffff808211156132ee57600080fd5b6132fa8a838b016131ff565b9098509650602089013591508082111561331357600080fd5b61331f8a838b016131ff565b9096509450604089013591508082111561333857600080fd5b5061334589828a016131ff565b979a9699509497509295939492505050565b60008083601f84011261336957600080fd5b50813567ffffffffffffffff81111561338157600080fd5b60208301915083602082850101111561324457600080fd5b600080600080606085870312156133af57600080fd5b84356133ba816130e3565b935060208501359250604085013567ffffffffffffffff8111156133dd57600080fd5b6133e987828801613357565b95989497509550505050565b8015158114610bb157600080fd5b6000806040838503121561341657600080fd5b8235613421816130e3565b91506020830135613197816133f5565b60008060008060006080868803121561344957600080fd5b8535613454816130e3565b94506020860135613464816130e3565b935060408601359250606086013567ffffffffffffffff81111561348757600080fd5b61349388828901613357565b969995985093965092949392505050565b600080604083850312156134b757600080fd5b82356134c2816130e3565b91506020830135613197816130e3565b600080600080606085870312156134e857600080fd5b84356134f3816130e3565b93506020850135613503816130e3565b9250604085013567ffffffffffffffff81111561351f57600080fd5b6133e9878288016131ff565b6000806000806040858703121561354157600080fd5b843567ffffffffffffffff8082111561355957600080fd5b613565888389016131ff565b9096509450602087013591508082111561357e57600080fd5b506133e9878288016131ff565b60006020828403121561359d57600080fd5b8151610c1f81612ffe565b7f4e487b7100000000000000000000000000000000000000000000000000000000600052603260045260246000fd5b600073ffffffffffffffffffffffffffffffffffffffff808816835280871660208401525084604083015260806060830152612f146080830184866131a2565b81810381811115610526577f4e487b7100000000000000000000000000000000000000000000000000000000600052601160045260246000fd5b7f4e487b7100000000000000000000000000000000000000000000000000000000600052604160045260246000fd5b60006020828403121561369257600080fd5b815167ffffffffffffffff808211156136aa57600080fd5b818401915084601f8301126136be57600080fd5b8151818111156136d0576136d0613651565b604051601f82017fffffffffffffffffffffffffffffffffffffffffffffffffffffffffffffffe0908116603f0116810190838211818310171561371657613716613651565b8160405282815287602084870101111561372f57600080fd5b612f14836020830160208801613049565b600181811c9082168061375457607f821691505b60208210810361378d577f4e487b7100000000000000000000000000000000000000000000000000000000600052602260045260246000fd5b50919050565b6000602082840312156137a557600080fd5b8151610c1f816133f5565b600073ffffffffffffffffffffffffffffffffffffffff8087168352808616602084015250836040830152608060608301526137ef608083018461306d565b9695505050505050565b6000808585111561380957600080fd5b8386111561381657600080fd5b5050820193919092039150565b60008251613835818460208701613049565b919091019291505056fea264697066735822122093f77814368c75444b58ec7658bded84243c908ed5022cab9538203f67156f3e64736f6c63430008160033",
  "linkReferences": {},
  "deployedLinkReferences": {}
}