{
  "_format": "hh-sol-artifact-1",
  "contractName": "PublisherNFTSaleMock",
  "sourceName": "contracts/mocks/sale/PublisherNFTSaleMock.sol",
  "abi": [
    {
      "inputs": [
        {
          "internalType": "contract IERC1155",
          "name": "genesisToken",
          "type": "address"
        },
        {
          "internalType": "contract EDUCreditsManager",
          "name": "eduCreditsManager",
          "type": "address"
        },
        {
          "internalType": "contract ILayerZeroEndpoint",
          "name": "lzEndpoint",
          "type": "address"
        },
        {
          "internalType": "uint16",
          "name": "lzDstChainId",
          "type": "uint16"
        },
        {
          "internalType": "uint256",
          "name": "mintPrice",
          "type": "uint256"
        },
        {
          "internalType": "uint256",
          "name": "mintSupplyLimit",
          "type": "uint256"
        },
        {
          "internalType": "uint256[]",
          "name": "timestamps",
          "type": "uint256[]"
        },
        {
          "internalType": "uint256[]",
          "name": "discountThresholds",
          "type": "uint256[]"
        },
        {
          "internalType": "uint256[]",
          "name": "discountPercentages",
          "type": "uint256[]"
        },
        {
          "internalType": "contract IForwarderRegistry",
          "name": "forwarderRegistry",
          "type": "address"
        }
      ],
      "stateMutability": "nonpayable",
      "type": "constructor"
    },
    {
      "inputs": [],
      "name": "IllegalInterfaceId",
      "type": "error"
    },
    {
      "inputs": [],
      "name": "InsufficientMintSupply",
      "type": "error"
    },
    {
      "inputs": [],
      "name": "InvalidDiscountPercentages",
      "type": "error"
    },
    {
      "inputs": [],
      "name": "InvalidDiscountThresholds",
      "type": "error"
    },
    {
      "inputs": [],
      "name": "InvalidTimestamps",
      "type": "error"
    },
    {
      "inputs": [],
      "name": "LzDstAddressAlreadySet",
      "type": "error"
    },
    {
      "inputs": [],
      "name": "LzDstAddressNotSet",
      "type": "error"
    },
    {
      "inputs": [],
      "name": "NotADiamondHand",
      "type": "error"
    },
    {
      "inputs": [],
      "name": "NotADiamondHandNorAGenesisNFTOwner",
      "type": "error"
    },
    {
      "inputs": [
        {
          "internalType": "address",
          "name": "account",
          "type": "address"
        }
      ],
      "name": "NotContractOwner",
      "type": "error"
    },
    {
      "inputs": [],
      "name": "SaleEnded",
      "type": "error"
    },
    {
      "inputs": [],
      "name": "SaleNotStarted",
      "type": "error"
    },
    {
      "anonymous": false,
      "inputs": [
        {
          "indexed": false,
          "internalType": "address",
          "name": "sender",
          "type": "address"
        },
        {
          "indexed": false,
          "internalType": "uint256",
          "name": "nbTokens",
          "type": "uint256"
        },
        {
          "indexed": false,
          "internalType": "uint256",
          "name": "discountThreshold",
          "type": "uint256"
        }
      ],
      "name": "MintInitiated",
      "type": "event"
    },
    {
      "anonymous": false,
      "inputs": [
        {
          "indexed": true,
          "internalType": "address",
          "name": "previousOwner",
          "type": "address"
        },
        {
          "indexed": true,
          "internalType": "address",
          "name": "newOwner",
          "type": "address"
        }
      ],
      "name": "OwnershipTransferred",
      "type": "event"
    },
    {
      "inputs": [],
      "name": "DISCOUNT_PERCENTAGE_1",
      "outputs": [
        {
          "internalType": "uint256",
          "name": "",
          "type": "uint256"
        }
      ],
      "stateMutability": "view",
      "type": "function"
    },
    {
      "inputs": [],
      "name": "DISCOUNT_PERCENTAGE_2",
      "outputs": [
        {
          "internalType": "uint256",
          "name": "",
          "type": "uint256"
        }
      ],
      "stateMutability": "view",
      "type": "function"
    },
    {
      "inputs": [],
      "name": "DISCOUNT_PERCENTAGE_3",
      "outputs": [
        {
          "internalType": "uint256",
          "name": "",
          "type": "uint256"
        }
      ],
      "stateMutability": "view",
      "type": "function"
    },
    {
      "inputs": [],
      "name": "DISCOUNT_THRESHOLD_1",
      "outputs": [
        {
          "internalType": "uint256",
          "name": "",
          "type": "uint256"
        }
      ],
      "stateMutability": "view",
      "type": "function"
    },
    {
      "inputs": [],
      "name": "DISCOUNT_THRESHOLD_2",
      "outputs": [
        {
          "internalType": "uint256",
          "name": "",
          "type": "uint256"
        }
      ],
      "stateMutability": "view",
      "type": "function"
    },
    {
      "inputs": [],
      "name": "DISCOUNT_THRESHOLD_3",
      "outputs": [
        {
          "internalType": "uint256",
          "name": "",
          "type": "uint256"
        }
      ],
      "stateMutability": "view",
      "type": "function"
    },
    {
      "inputs": [],
      "name": "EDU_CREDITS_MANAGER",
      "outputs": [
        {
          "internalType": "contract EDUCreditsManager",
          "name": "",
          "type": "address"
        }
      ],
      "stateMutability": "view",
      "type": "function"
    },
    {
      "inputs": [],
      "name": "GENESIS_TOKEN",
      "outputs": [
        {
          "internalType": "contract IERC1155",
          "name": "",
          "type": "address"
        }
      ],
      "stateMutability": "view",
      "type": "function"
    },
    {
      "inputs": [],
      "name": "LZ_DST_CHAINID",
      "outputs": [
        {
          "internalType": "uint16",
          "name": "",
          "type": "uint16"
        }
      ],
      "stateMutability": "view",
      "type": "function"
    },
    {
      "inputs": [],
      "name": "LZ_ENDPOINT",
      "outputs": [
        {
          "internalType": "contract ILayerZeroEndpoint",
          "name": "",
          "type": "address"
        }
      ],
      "stateMutability": "view",
      "type": "function"
    },
    {
      "inputs": [],
      "name": "MINT_PRICE",
      "outputs": [
        {
          "internalType": "uint256",
          "name": "",
          "type": "uint256"
        }
      ],
      "stateMutability": "view",
      "type": "function"
    },
    {
      "inputs": [],
      "name": "MINT_SUPPLY_LIMIT",
      "outputs": [
        {
          "internalType": "uint256",
          "name": "",
          "type": "uint256"
        }
      ],
      "stateMutability": "view",
      "type": "function"
    },
    {
      "inputs": [],
      "name": "PHASE1_START_TIMESTAMP",
      "outputs": [
        {
          "internalType": "uint256",
          "name": "",
          "type": "uint256"
        }
      ],
      "stateMutability": "view",
      "type": "function"
    },
    {
      "inputs": [],
      "name": "PHASE2_START_TIMESTAMP",
      "outputs": [
        {
          "internalType": "uint256",
          "name": "",
          "type": "uint256"
        }
      ],
      "stateMutability": "view",
      "type": "function"
    },
    {
      "inputs": [],
      "name": "PHASE3_START_TIMESTAMP",
      "outputs": [
        {
          "internalType": "uint256",
          "name": "",
          "type": "uint256"
        }
      ],
      "stateMutability": "view",
      "type": "function"
    },
    {
      "inputs": [],
      "name": "SALE_END_TIMESTAMP",
      "outputs": [
        {
          "internalType": "uint256",
          "name": "",
          "type": "uint256"
        }
      ],
      "stateMutability": "view",
      "type": "function"
    },
    {
      "inputs": [],
      "name": "__msgData",
      "outputs": [
        {
          "internalType": "bytes",
          "name": "",
          "type": "bytes"
        }
      ],
      "stateMutability": "view",
      "type": "function"
    },
    {
      "inputs": [
        {
          "internalType": "address",
          "name": "account",
          "type": "address"
        }
      ],
      "name": "canMint",
      "outputs": [
        {
          "internalType": "bool",
          "name": "",
          "type": "bool"
        }
      ],
      "stateMutability": "view",
      "type": "function"
    },
    {
      "inputs": [],
      "name": "currentMintPrice",
      "outputs": [
        {
          "internalType": "uint256",
          "name": "price",
          "type": "uint256"
        },
        {
          "internalType": "uint256",
          "name": "discountThreshold",
          "type": "uint256"
        }
      ],
      "stateMutability": "view",
      "type": "function"
    },
    {
      "inputs": [],
      "name": "currentSalePhase",
      "outputs": [
        {
          "internalType": "uint256",
          "name": "",
          "type": "uint256"
        }
      ],
      "stateMutability": "view",
      "type": "function"
    },
    {
      "inputs": [],
      "name": "forwarderRegistry",
      "outputs": [
        {
          "internalType": "contract IForwarderRegistry",
          "name": "",
          "type": "address"
        }
      ],
      "stateMutability": "view",
      "type": "function"
    },
    {
      "inputs": [
        {
          "internalType": "address",
          "name": "forwarder",
          "type": "address"
        }
      ],
      "name": "isTrustedForwarder",
      "outputs": [
        {
          "internalType": "bool",
          "name": "",
          "type": "bool"
        }
      ],
      "stateMutability": "view",
      "type": "function"
    },
    {
      "inputs": [],
      "name": "lzDstAddress",
      "outputs": [
        {
          "internalType": "address",
          "name": "",
          "type": "address"
        }
      ],
      "stateMutability": "view",
      "type": "function"
    },
    {
      "inputs": [
        {
          "internalType": "uint256",
          "name": "nbTokens",
          "type": "uint256"
        }
      ],
      "name": "mint",
      "outputs": [],
      "stateMutability": "nonpayable",
      "type": "function"
    },
    {
      "inputs": [],
      "name": "mintCount",
      "outputs": [
        {
          "internalType": "uint256",
          "name": "",
          "type": "uint256"
        }
      ],
      "stateMutability": "view",
      "type": "function"
    },
    {
      "inputs": [],
      "name": "owner",
      "outputs": [
        {
          "internalType": "address",
          "name": "",
          "type": "address"
        }
      ],
      "stateMutability": "view",
      "type": "function"
    },
    {
      "inputs": [
        {
          "internalType": "address",
          "name": "lzDstAddress_",
          "type": "address"
        }
      ],
      "name": "setLzDstAddress",
      "outputs": [],
      "stateMutability": "nonpayable",
      "type": "function"
    },
    {
      "inputs": [
        {
          "internalType": "bytes4",
          "name": "interfaceId",
          "type": "bytes4"
        }
      ],
      "name": "supportsInterface",
      "outputs": [
        {
          "internalType": "bool",
          "name": "",
          "type": "bool"
        }
      ],
      "stateMutability": "view",
      "type": "function"
    },
    {
      "inputs": [
        {
          "internalType": "address",
          "name": "newOwner",
          "type": "address"
        }
      ],
      "name": "transferOwnership",
      "outputs": [],
      "stateMutability": "nonpayable",
      "type": "function"
    },
    {
      "inputs": [
        {
          "internalType": "address",
          "name": "to",
          "type": "address"
        }
      ],
      "name": "withdraw",
      "outputs": [],
      "stateMutability": "nonpayable",
      "type": "function"
    },
    {
      "stateMutability": "payable",
      "type": "receive"
    }
  ],
  "bytecode": "0x6102a06040523480156200001257600080fd5b5060405162002a3338038062002a3383398101604081905262000035916200067b565b8989898989898989898980803362000058816200005162000453565b9062000489565b506001600160a01b039081166080528b811660a0528a811660c052891660e0525061ffff87166101005261012086905261014085905283518490600090620000a457620000a462000781565b602002602001015184600181518110620000c257620000c262000781565b602002602001015111158062000112575083600181518110620000e957620000e962000781565b60200260200101518460028151811062000107576200010762000781565b602002602001015111155b80620001585750836002815181106200012f576200012f62000781565b6020026020010151846003815181106200014d576200014d62000781565b602002602001015111155b15620001775760405163d22806e360e01b815260040160405180910390fd5b836000815181106200018d576200018d62000781565b6020026020010151610160818152505083600181518110620001b357620001b362000781565b6020026020010151610180818152505083600281518110620001d957620001d962000781565b60200260200101516101a0818152505083600381518110620001ff57620001ff62000781565b60200260200101516101c081815250508260008151811062000225576200022562000781565b60200260200101518360018151811062000243576200024362000781565b6020026020010151111580620002935750826001815181106200026a576200026a62000781565b60200260200101518360028151811062000288576200028862000781565b602002602001015111155b15620002b25760405163ae2a357360e01b815260040160405180910390fd5b82600081518110620002c857620002c862000781565b60200260200101516101e0818152505082600181518110620002ee57620002ee62000781565b602002602001015161020081815250508260028151811062000314576200031462000781565b60200260200101516102208181525050816000815181106200033a576200033a62000781565b60200260200101518260018151811062000358576200035862000781565b6020026020010151111580620003a85750816001815181106200037f576200037f62000781565b6020026020010151826002815181106200039d576200039d62000781565b602002602001015111155b15620003c75760405163ebda279160e01b815260040160405180910390fd5b81600081518110620003dd57620003dd62000781565b602002602001015161024081815250508160018151811062000403576200040362000781565b602002602001015161026081815250508160028151811062000429576200042962000781565b602002602001015161028081815250505050505050505050505050505050505050505050620007b9565b6000806200048360017fc9ed16f33ab3a66c84bfd83099ccb2a8845871e2e1c1928f63797152f0fd54cd62000797565b92915050565b6001600160a01b03811615620004e05781546001600160a01b0319166001600160a01b03821690811783556040516000907f8be0079c531659141344cd1fd0a4f28419497f9722a3daafe3b4186f6b6457e0908290a35b620005006307f5828d60e41b6001620004f862000504565b919062000534565b5050565b6000806200048360017fca9d3e17f264b0f3984e2634e94adb37fa3e6a8103f06aeae6fa59e21c769f5e62000797565b600160e01b6001600160e01b031983160162000563576040516372c683bb60e01b815260040160405180910390fd5b6001600160e01b03199190911660009081526020929092526040909120805460ff1916911515919091179055565b80516001600160a01b0381168114620005a957600080fd5b919050565b805161ffff81168114620005a957600080fd5b634e487b7160e01b600052604160045260246000fd5b600082601f830112620005e957600080fd5b815160206001600160401b0380831115620006085762000608620005c1565b8260051b604051601f19603f83011681018181108482111715620006305762000630620005c1565b6040529384528581018301938381019250878511156200064f57600080fd5b83870191505b84821015620006705781518352918301919083019062000655565b979650505050505050565b6000806000806000806000806000806101408b8d0312156200069c57600080fd5b620006a78b62000591565b9950620006b760208c0162000591565b9850620006c760408c0162000591565b9750620006d760608c01620005ae565b60808c015160a08d015160c08e015192995090975095506001600160401b03808211156200070457600080fd5b620007128e838f01620005d7565b955060e08d01519150808211156200072957600080fd5b620007378e838f01620005d7565b94506101008d01519150808211156200074f57600080fd5b506200075e8d828e01620005d7565b925050620007706101208c0162000591565b90509295989b9194979a5092959850565b634e487b7160e01b600052603260045260246000fd5b818103818111156200048357634e487b7160e01b600052601160045260246000fd5b60805160a05160c05160e05161010051610120516101405161016051610180516101a0516101c0516101e05161020051610220516102405161026051610280516120d86200095b600039600081816104b7015261087e01526000818161040b01526108ef01526000818161068a015261096001526000818161051f015261085201526000818161024e01526108c30152600081816102e4015261093401526000818161033b01526116f20152600081816105a70152611720015260008181610622015261174d0152600081816106be015261177a0152600081816106f20152610f3c015260008181610553015261079c0152600081816105db0152818161119d01526112cd0152600081816106560152818161116f015261129e0152600081816104eb015281816107c101528181610b8e01528181610c8101528181610fc00152818161140a01526114c901526000818161072601528181610d3f01528181610dfd01528181611585015261164301526000818161028d0152818161039c01528181611ab201528181611af001528181611c280152611cb001526120d86000f3fe6080604052600436106101d15760003560e01c8063a0e5d770116100f7578063c8767f2f11610095578063e36d820511610064578063e36d8205146106e0578063ef59df2714610714578063f2fde38b14610748578063f53da97e1461076857600080fd5b8063c8767f2f14610610578063cd4d1c6414610644578063d7f6216314610678578063dba535d7146106ac57600080fd5b8063c002d23d116100d1578063c002d23d14610541578063c2ba474414610575578063c482350414610595578063c834c979146105c957600080fd5b8063a0e5d770146104a5578063ae8384d0146104d9578063b68ba08b1461050d57600080fd5b806351cff8d91161016f5780638da5cb5b1161013e5780638da5cb5b1461042d5780639659867e1461044257806396a3804514610458578063a0712d681461048557600080fd5b806351cff8d91461035d578063572b6c051461037f57806357e33a27146103d957806381204203146103f957600080fd5b80632b4c9f16116101ab5780632b4c9f161461027e5780632d3ccf3f146102d257806331e66e1e146103065780634210830d1461032957600080fd5b806301ffc9a7146101dd5780630561942a146102125780631d1f42ec1461023c57600080fd5b366101d857005b600080fd5b3480156101e957600080fd5b506101fd6101f8366004611d5d565b61077d565b60405190151581526020015b60405180910390f35b34801561021e57600080fd5b50610227610797565b60408051928352602083019190915201610209565b34801561024857600080fd5b506102707f000000000000000000000000000000000000000000000000000000000000000081565b604051908152602001610209565b34801561028a57600080fd5b507f00000000000000000000000000000000000000000000000000000000000000005b60405173ffffffffffffffffffffffffffffffffffffffff9091168152602001610209565b3480156102de57600080fd5b506102707f000000000000000000000000000000000000000000000000000000000000000081565b34801561031257600080fd5b5061031b6109a5565b604051610209929190611d9f565b34801561033557600080fd5b506102707f000000000000000000000000000000000000000000000000000000000000000081565b34801561036957600080fd5b5061037d610378366004611dec565b6109b8565b005b34801561038b57600080fd5b506101fd61039a366004611dec565b7f000000000000000000000000000000000000000000000000000000000000000073ffffffffffffffffffffffffffffffffffffffff90811691161490565b3480156103e557600080fd5b5061037d6103f4366004611dec565b610a21565b34801561040557600080fd5b506102707f000000000000000000000000000000000000000000000000000000000000000081565b34801561043957600080fd5b506102ad610ac3565b34801561044e57600080fd5b5061027060015481565b34801561046457600080fd5b506000546102ad9073ffffffffffffffffffffffffffffffffffffffff1681565b34801561049157600080fd5b5061037d6104a0366004611e22565b610aef565b3480156104b157600080fd5b506102707f000000000000000000000000000000000000000000000000000000000000000081565b3480156104e557600080fd5b506102ad7f000000000000000000000000000000000000000000000000000000000000000081565b34801561051957600080fd5b506102707f000000000000000000000000000000000000000000000000000000000000000081565b34801561054d57600080fd5b506102707f000000000000000000000000000000000000000000000000000000000000000081565b34801561058157600080fd5b506101fd610590366004611dec565b61139f565b3480156105a157600080fd5b506102707f000000000000000000000000000000000000000000000000000000000000000081565b3480156105d557600080fd5b506105fd7f000000000000000000000000000000000000000000000000000000000000000081565b60405161ffff9091168152602001610209565b34801561061c57600080fd5b506102707f000000000000000000000000000000000000000000000000000000000000000081565b34801561065057600080fd5b506102ad7f000000000000000000000000000000000000000000000000000000000000000081565b34801561068457600080fd5b506102707f000000000000000000000000000000000000000000000000000000000000000081565b3480156106b857600080fd5b506102707f000000000000000000000000000000000000000000000000000000000000000081565b3480156106ec57600080fd5b506102707f000000000000000000000000000000000000000000000000000000000000000081565b34801561072057600080fd5b506102ad7f000000000000000000000000000000000000000000000000000000000000000081565b34801561075457600080fd5b5061037d610763366004611dec565b6116d0565b34801561077457600080fd5b506102706116ee565b60006107918261078b6117ab565b906117d9565b92915050565b6000807f0000000000000000000000000000000000000000000000000000000000000000915060007f000000000000000000000000000000000000000000000000000000000000000073ffffffffffffffffffffffffffffffffffffffff1663b5bd3eb96040518163ffffffff1660e01b8152600401602060405180830381865afa15801561082a573d6000803e3d6000fd5b505050506040513d601f19601f8201168201806040525081019061084e9190611e3b565b90507f000000000000000000000000000000000000000000000000000000000000000081106108c15760646108a37f000000000000000000000000000000000000000000000000000000000000000082611e83565b6108ad9085611e96565b6108b79190611ead565b9360039350915050565b7f000000000000000000000000000000000000000000000000000000000000000081106109325760646109147f000000000000000000000000000000000000000000000000000000000000000082611e83565b61091e9085611e96565b6109289190611ead565b9360029350915050565b7f000000000000000000000000000000000000000000000000000000000000000081106109a05760646109857f000000000000000000000000000000000000000000000000000000000000000082611e83565b61098f9085611e96565b6109999190611ead565b9250600191505b509091565b3660006109b06118b3565b915091509091565b6109d16109c36118be565b6109cb6118c8565b906118f6565b478015610a1d5760405173ffffffffffffffffffffffffffffffffffffffff83169082156108fc029083906000818181858888f19350505050158015610a1b573d6000803e3d6000fd5b505b5050565b610a2c6109c36118be565b60005473ffffffffffffffffffffffffffffffffffffffff1615610a7c576040517f5ccf468900000000000000000000000000000000000000000000000000000000815260040160405180910390fd5b600080547fffffffffffffffffffffffff00000000000000000000000000000000000000001673ffffffffffffffffffffffffffffffffffffffff92909216919091179055565b6000610aea610ad06118c8565b5473ffffffffffffffffffffffffffffffffffffffff1690565b905090565b6000610af96118be565b90506000610b056116ee565b905080600003610b41576040517f2d0a346e00000000000000000000000000000000000000000000000000000000815260040160405180910390fd5b80600103610c34576040517f508fc90500000000000000000000000000000000000000000000000000000000815273ffffffffffffffffffffffffffffffffffffffff83811660048301527f0000000000000000000000000000000000000000000000000000000000000000169063508fc90590602401602060405180830381865afa158015610bd5573d6000803e3d6000fd5b505050506040513d601f19601f82011682018060405250810190610bf99190611ee8565b610c2f576040517fdc460b7300000000000000000000000000000000000000000000000000000000815260040160405180910390fd5b610eda565b80600203610ea0576040517f508fc90500000000000000000000000000000000000000000000000000000000815273ffffffffffffffffffffffffffffffffffffffff83811660048301527f0000000000000000000000000000000000000000000000000000000000000000169063508fc90590602401602060405180830381865afa158015610cc8573d6000803e3d6000fd5b505050506040513d601f19601f82011682018060405250810190610cec9190611ee8565b158015610dab57506040517efdd58e00000000000000000000000000000000000000000000000000000000815273ffffffffffffffffffffffffffffffffffffffff8381166004830152600060248301527f0000000000000000000000000000000000000000000000000000000000000000169062fdd58e90604401602060405180830381865afa158015610d85573d6000803e3d6000fd5b505050506040513d601f19601f82011682018060405250810190610da99190611e3b565b155b8015610e6957506040517efdd58e00000000000000000000000000000000000000000000000000000000815273ffffffffffffffffffffffffffffffffffffffff8381166004830152600160248301527f0000000000000000000000000000000000000000000000000000000000000000169062fdd58e90604401602060405180830381865afa158015610e43573d6000803e3d6000fd5b505050506040513d601f19601f82011682018060405250810190610e679190611e3b565b155b15610c2f576040517feca8f22000000000000000000000000000000000000000000000000000000000815260040160405180910390fd5b60038114610eda576040517f0bd8a3eb00000000000000000000000000000000000000000000000000000000815260040160405180910390fd5b60005473ffffffffffffffffffffffffffffffffffffffff16610f29576040517fb9281de400000000000000000000000000000000000000000000000000000000815260040160405180910390fd5b6001546000610f388583611f0a565b90507f0000000000000000000000000000000000000000000000000000000000000000811115610f94576040517f7b838b0200000000000000000000000000000000000000000000000000000000815260040160405180910390fd5b6001819055600080610fa4610797565b909250905073ffffffffffffffffffffffffffffffffffffffff7f00000000000000000000000000000000000000000000000000000000000000001663af7d6ca387610ff08a86611e96565b6040517fffffffff0000000000000000000000000000000000000000000000000000000060e085901b16815273ffffffffffffffffffffffffffffffffffffffff90921660048301526024820152604401600060405180830381600087803b15801561105b57600080fd5b505af115801561106f573d6000803e3d6000fd5b50506040805173ffffffffffffffffffffffffffffffffffffffff8a1660208201528082018b905281518082038301815260609091019091529150600090506110ba89617530611e96565b6110c69061c350611f0a565b6040517e01000000000000000000000000000000000000000000000000000000000000602082015260228101829052909150600090604201604080517fffffffffffffffffffffffffffffffffffffffffffffffffffffffffffffffe081840301815290829052600080547f40a7bb100000000000000000000000000000000000000000000000000000000084529193509173ffffffffffffffffffffffffffffffffffffffff7f00000000000000000000000000000000000000000000000000000000000000008116926340a7bb10926111cd927f0000000000000000000000000000000000000000000000000000000000000000921690899087908990600401611f81565b6040805180830381865afa1580156111e9573d6000803e3d6000fd5b505050506040513d601f19601f8201168201806040525081019061120d9190611fe0565b5060008054604080517fffffffffffffffffffffffffffffffffffffffff000000000000000000000000606093841b81166020830152309384901b1660348201528151808203602801815260488201928390527fc58031000000000000000000000000000000000000000000000000000000000090925293945073ffffffffffffffffffffffffffffffffffffffff7f0000000000000000000000000000000000000000000000000000000000000000169363c58031009386936112fc937f00000000000000000000000000000000000000000000000000000000000000009390928c92918b90604c01612004565b6000604051808303818588803b15801561131557600080fd5b505af1158015611329573d6000803e3d6000fd5b50505050507f6b9646daf37cd2bfd6cf46c729da3ea690a73a6555404e5f0299e15a865ed3848a8c8760405161138a9392919073ffffffffffffffffffffffffffffffffffffffff9390931683526020830191909152604082015260600190565b60405180910390a15050505050505050505050565b6000806113aa6116ee565b9050806000036113bd5750600092915050565b8060010361147c576040517f508fc90500000000000000000000000000000000000000000000000000000000815273ffffffffffffffffffffffffffffffffffffffff84811660048301527f0000000000000000000000000000000000000000000000000000000000000000169063508fc90590602401602060405180830381865afa158015611451573d6000803e3d6000fd5b505050506040513d601f19601f820116820180604052508101906114759190611ee8565b9392505050565b806002036116b6576040517f508fc90500000000000000000000000000000000000000000000000000000000815273ffffffffffffffffffffffffffffffffffffffff84811660048301527f0000000000000000000000000000000000000000000000000000000000000000169063508fc90590602401602060405180830381865afa158015611510573d6000803e3d6000fd5b505050506040513d601f19601f820116820180604052508101906115349190611ee8565b806115f257506040517efdd58e00000000000000000000000000000000000000000000000000000000815273ffffffffffffffffffffffffffffffffffffffff8481166004830152600060248301527f0000000000000000000000000000000000000000000000000000000000000000169062fdd58e90604401602060405180830381865afa1580156115cb573d6000803e3d6000fd5b505050506040513d601f19601f820116820180604052508101906115ef9190611e3b565b15155b8061147557506040517efdd58e00000000000000000000000000000000000000000000000000000000815273ffffffffffffffffffffffffffffffffffffffff8481166004830152600160248301527f0000000000000000000000000000000000000000000000000000000000000000169062fdd58e90604401602060405180830381865afa158015611689573d6000803e3d6000fd5b505050506040513d601f19601f820116820180604052508101906116ad9190611e3b565b15159392505050565b806003036116c75750600192915050565b50600092915050565b6116eb6116db6118be565b826116e46118c8565b9190611966565b50565b60007f000000000000000000000000000000000000000000000000000000000000000042111561171e5750600490565b7f0000000000000000000000000000000000000000000000000000000000000000421061174b5750600390565b7f000000000000000000000000000000000000000000000000000000000000000042106117785750600290565b7f000000000000000000000000000000000000000000000000000000000000000042106117a55750600190565b50600090565b60008061079160017fca9d3e17f264b0f3984e2634e94adb37fa3e6a8103f06aeae6fa59e21c769f5e611e83565b60007c01000000000000000000000000000000000000000000000000000000007fffffffff0000000000000000000000000000000000000000000000000000000083160161182957506000610791565b7ffe003659000000000000000000000000000000000000000000000000000000007fffffffff0000000000000000000000000000000000000000000000000000000083160161187a57506001610791565b507fffffffff00000000000000000000000000000000000000000000000000000000166000908152602091909152604090205460ff1690565b3660006109b0611a7b565b6000610aea611be5565b60008061079160017fc9ed16f33ab3a66c84bfd83099ccb2a8845871e2e1c1928f63797152f0fd54cd611e83565b815473ffffffffffffffffffffffffffffffffffffffff828116911614610a1d576040517f2ef4875e00000000000000000000000000000000000000000000000000000000815273ffffffffffffffffffffffffffffffffffffffff821660048201526024015b60405180910390fd5b825473ffffffffffffffffffffffffffffffffffffffff90811690831681146119d3576040517f2ef4875e00000000000000000000000000000000000000000000000000000000815273ffffffffffffffffffffffffffffffffffffffff8416600482015260240161195d565b8173ffffffffffffffffffffffffffffffffffffffff168173ffffffffffffffffffffffffffffffffffffffff1614611a755783547fffffffffffffffffffffffff00000000000000000000000000000000000000001673ffffffffffffffffffffffffffffffffffffffff8381169182178655604051908316907f8be0079c531659141344cd1fd0a4f28419497f9722a3daafe3b4186f6b6457e090600090a35b50505050565b36600033321480611a8c5750601836105b15611a9a5750600091369150565b3373ffffffffffffffffffffffffffffffffffffffff7f0000000000000000000000000000000000000000000000000000000000000000161480611bcf575073ffffffffffffffffffffffffffffffffffffffff7f000000000000000000000000000000000000000000000000000000000000000016638929a8ca367fffffffffffffffffffffffffffffffffffffffffffffffffffffffffffffffec013560601c6040517fffffffff0000000000000000000000000000000000000000000000000000000060e084901b16815273ffffffffffffffffffffffffffffffffffffffff9091166004820152336024820152604401602060405180830381865afa158015611bab573d6000803e3d6000fd5b505050506040513d601f19601f82011682018060405250810190611bcf9190611ee8565b15611bdc576109b0611d2c565b50600091369150565b600033321480611bf55750601836105b15611bff57503390565b7fffffffffffffffffffffffffffffffffffffffffffffffffffffffffffffffec36013560601c7f000000000000000000000000000000000000000000000000000000000000000073ffffffffffffffffffffffffffffffffffffffff16331480611d1b57506040517f8929a8ca00000000000000000000000000000000000000000000000000000000815273ffffffffffffffffffffffffffffffffffffffff82811660048301523360248301527f00000000000000000000000000000000000000000000000000000000000000001690638929a8ca90604401602060405180830381865afa158015611cf7573d6000803e3d6000fd5b505050506040513d601f19601f82011682018060405250810190611d1b9190611ee8565b15611d2557919050565b3391505090565b3660006109b07fffffffffffffffffffffffffffffffffffffffffffffffffffffffffffffffec8301828481612078565b600060208284031215611d6f57600080fd5b81357fffffffff000000000000000000000000000000000000000000000000000000008116811461147557600080fd5b60208152816020820152818360408301376000818301604090810191909152601f9092017fffffffffffffffffffffffffffffffffffffffffffffffffffffffffffffffe0160101919050565b600060208284031215611dfe57600080fd5b813573ffffffffffffffffffffffffffffffffffffffff8116811461147557600080fd5b600060208284031215611e3457600080fd5b5035919050565b600060208284031215611e4d57600080fd5b5051919050565b7f4e487b7100000000000000000000000000000000000000000000000000000000600052601160045260246000fd5b8181038181111561079157610791611e54565b808202811582820484141761079157610791611e54565b600082611ee3577f4e487b7100000000000000000000000000000000000000000000000000000000600052601260045260246000fd5b500490565b600060208284031215611efa57600080fd5b8151801515811461147557600080fd5b8082018082111561079157610791611e54565b6000815180845260005b81811015611f4357602081850181015186830182015201611f27565b5060006020828601015260207fffffffffffffffffffffffffffffffffffffffffffffffffffffffffffffffe0601f83011685010191505092915050565b61ffff8616815273ffffffffffffffffffffffffffffffffffffffff8516602082015260a060408201526000611fba60a0830186611f1d565b84151560608401528281036080840152611fd48185611f1d565b98975050505050505050565b60008060408385031215611ff357600080fd5b505080516020909101519092909150565b61ffff8716815260c06020820152600061202160c0830188611f1d565b82810360408401526120338188611f1d565b73ffffffffffffffffffffffffffffffffffffffff87811660608601528616608085015283810360a0850152905061206b8185611f1d565b9998505050505050505050565b6000808585111561208857600080fd5b8386111561209557600080fd5b505082019391909203915056fea2646970667358221220e18cc9e43e1c27c8d44e16609a735073ffc60d015a89131fd7d56e82e66d751264736f6c63430008150033",
  "linkReferences": {},
  "deployedLinkReferences": {}
}