{
  "_format": "hh-sol-artifact-1",
  "contractName": "PublisherNFTSaleMock",
  "sourceName": "contracts/mocks/sale/PublisherNFTSaleMock.sol",
  "abi": [
    {
      "inputs": [
        {
          "internalType": "contract IERC1155",
          "name": "genesisToken",
          "type": "address"
        },
        {
          "internalType": "contract EDUCreditsManager",
          "name": "eduCreditsManager",
          "type": "address"
        },
        {
          "internalType": "contract ILayerZeroEndpoint",
          "name": "lzEndpoint",
          "type": "address"
        },
        {
          "internalType": "uint16",
          "name": "lzDstChainId",
          "type": "uint16"
        },
        {
          "internalType": "uint256",
          "name": "mintPrice",
          "type": "uint256"
        },
        {
          "internalType": "uint256",
          "name": "mintSupplyLimit",
          "type": "uint256"
        },
        {
          "internalType": "uint256",
          "name": "mintLimitPerAddress",
          "type": "uint256"
        },
        {
          "internalType": "uint256[]",
          "name": "timestamps",
          "type": "uint256[]"
        },
        {
          "internalType": "uint256[]",
          "name": "discountThresholds",
          "type": "uint256[]"
        },
        {
          "internalType": "uint256[]",
          "name": "discountPercentages",
          "type": "uint256[]"
        },
        {
          "internalType": "contract IForwarderRegistry",
          "name": "forwarderRegistry",
          "type": "address"
        }
      ],
      "stateMutability": "nonpayable",
      "type": "constructor"
    },
    {
      "inputs": [],
      "name": "AddressMintingLimitReached",
      "type": "error"
    },
    {
      "inputs": [],
      "name": "IllegalInterfaceId",
      "type": "error"
    },
    {
      "inputs": [],
      "name": "InsufficientMintSupply",
      "type": "error"
    },
    {
      "inputs": [],
      "name": "InvalidDiscountPercentages",
      "type": "error"
    },
    {
      "inputs": [],
      "name": "InvalidDiscountPercentagesLength",
      "type": "error"
    },
    {
      "inputs": [],
      "name": "InvalidDiscountThresholdsLength",
      "type": "error"
    },
    {
      "inputs": [],
      "name": "InvalidTimestampsLength",
      "type": "error"
    },
    {
      "inputs": [],
      "name": "LzDstAddressAlreadySet",
      "type": "error"
    },
    {
      "inputs": [],
      "name": "LzDstAddressNotSet",
      "type": "error"
    },
    {
      "inputs": [],
      "name": "MintingTooManyTokens",
      "type": "error"
    },
    {
      "inputs": [],
      "name": "MintingZeroTokens",
      "type": "error"
    },
    {
      "inputs": [],
      "name": "NonIncreasingDiscountPercentages",
      "type": "error"
    },
    {
      "inputs": [],
      "name": "NonIncreasingDiscountThresholds",
      "type": "error"
    },
    {
      "inputs": [],
      "name": "NonIncreasingTimestamps",
      "type": "error"
    },
    {
      "inputs": [],
      "name": "NotADiamondHand",
      "type": "error"
    },
    {
      "inputs": [],
      "name": "NotADiamondHandNorAGenesisNFTOwner",
      "type": "error"
    },
    {
      "inputs": [
        {
          "internalType": "address",
          "name": "account",
          "type": "address"
        }
      ],
      "name": "NotContractOwner",
      "type": "error"
    },
    {
      "inputs": [],
      "name": "SaleEnded",
      "type": "error"
    },
    {
      "inputs": [],
      "name": "SaleNotStarted",
      "type": "error"
    },
    {
      "inputs": [],
      "name": "TransferFailed",
      "type": "error"
    },
    {
      "inputs": [],
      "name": "ZeroMintLimitPerAddress",
      "type": "error"
    },
    {
      "inputs": [],
      "name": "ZeroMintPrice",
      "type": "error"
    },
    {
      "inputs": [],
      "name": "ZeroMintSupplyLimit",
      "type": "error"
    },
    {
      "anonymous": false,
      "inputs": [
        {
          "indexed": false,
          "internalType": "address",
          "name": "sender",
          "type": "address"
        },
        {
          "indexed": false,
          "internalType": "uint256",
          "name": "nbTokens",
          "type": "uint256"
        },
        {
          "indexed": false,
          "internalType": "uint256",
          "name": "discountThreshold",
          "type": "uint256"
        }
      ],
      "name": "MintInitiated",
      "type": "event"
    },
    {
      "anonymous": false,
      "inputs": [
        {
          "indexed": true,
          "internalType": "address",
          "name": "previousOwner",
          "type": "address"
        },
        {
          "indexed": true,
          "internalType": "address",
          "name": "newOwner",
          "type": "address"
        }
      ],
      "name": "OwnershipTransferred",
      "type": "event"
    },
    {
      "inputs": [],
      "name": "DISCOUNT_PERCENTAGE_1",
      "outputs": [
        {
          "internalType": "uint256",
          "name": "",
          "type": "uint256"
        }
      ],
      "stateMutability": "view",
      "type": "function"
    },
    {
      "inputs": [],
      "name": "DISCOUNT_PERCENTAGE_2",
      "outputs": [
        {
          "internalType": "uint256",
          "name": "",
          "type": "uint256"
        }
      ],
      "stateMutability": "view",
      "type": "function"
    },
    {
      "inputs": [],
      "name": "DISCOUNT_PERCENTAGE_3",
      "outputs": [
        {
          "internalType": "uint256",
          "name": "",
          "type": "uint256"
        }
      ],
      "stateMutability": "view",
      "type": "function"
    },
    {
      "inputs": [],
      "name": "DISCOUNT_THRESHOLD_1",
      "outputs": [
        {
          "internalType": "uint256",
          "name": "",
          "type": "uint256"
        }
      ],
      "stateMutability": "view",
      "type": "function"
    },
    {
      "inputs": [],
      "name": "DISCOUNT_THRESHOLD_2",
      "outputs": [
        {
          "internalType": "uint256",
          "name": "",
          "type": "uint256"
        }
      ],
      "stateMutability": "view",
      "type": "function"
    },
    {
      "inputs": [],
      "name": "DISCOUNT_THRESHOLD_3",
      "outputs": [
        {
          "internalType": "uint256",
          "name": "",
          "type": "uint256"
        }
      ],
      "stateMutability": "view",
      "type": "function"
    },
    {
      "inputs": [],
      "name": "EDU_CREDITS_MANAGER",
      "outputs": [
        {
          "internalType": "contract EDUCreditsManager",
          "name": "",
          "type": "address"
        }
      ],
      "stateMutability": "view",
      "type": "function"
    },
    {
      "inputs": [],
      "name": "GENESIS_TOKEN",
      "outputs": [
        {
          "internalType": "contract IERC1155",
          "name": "",
          "type": "address"
        }
      ],
      "stateMutability": "view",
      "type": "function"
    },
    {
      "inputs": [],
      "name": "LZ_DST_CHAINID",
      "outputs": [
        {
          "internalType": "uint16",
          "name": "",
          "type": "uint16"
        }
      ],
      "stateMutability": "view",
      "type": "function"
    },
    {
      "inputs": [],
      "name": "LZ_ENDPOINT",
      "outputs": [
        {
          "internalType": "contract ILayerZeroEndpoint",
          "name": "",
          "type": "address"
        }
      ],
      "stateMutability": "view",
      "type": "function"
    },
    {
      "inputs": [],
      "name": "MINT_LIMIT_PER_ADDRESS",
      "outputs": [
        {
          "internalType": "uint256",
          "name": "",
          "type": "uint256"
        }
      ],
      "stateMutability": "view",
      "type": "function"
    },
    {
      "inputs": [],
      "name": "MINT_LIMIT_PER_TX",
      "outputs": [
        {
          "internalType": "uint256",
          "name": "",
          "type": "uint256"
        }
      ],
      "stateMutability": "view",
      "type": "function"
    },
    {
      "inputs": [],
      "name": "MINT_PRICE",
      "outputs": [
        {
          "internalType": "uint256",
          "name": "",
          "type": "uint256"
        }
      ],
      "stateMutability": "view",
      "type": "function"
    },
    {
      "inputs": [],
      "name": "MINT_SUPPLY_LIMIT",
      "outputs": [
        {
          "internalType": "uint256",
          "name": "",
          "type": "uint256"
        }
      ],
      "stateMutability": "view",
      "type": "function"
    },
    {
      "inputs": [],
      "name": "PHASE1_START_TIMESTAMP",
      "outputs": [
        {
          "internalType": "uint256",
          "name": "",
          "type": "uint256"
        }
      ],
      "stateMutability": "view",
      "type": "function"
    },
    {
      "inputs": [],
      "name": "PHASE2_START_TIMESTAMP",
      "outputs": [
        {
          "internalType": "uint256",
          "name": "",
          "type": "uint256"
        }
      ],
      "stateMutability": "view",
      "type": "function"
    },
    {
      "inputs": [],
      "name": "PHASE3_START_TIMESTAMP",
      "outputs": [
        {
          "internalType": "uint256",
          "name": "",
          "type": "uint256"
        }
      ],
      "stateMutability": "view",
      "type": "function"
    },
    {
      "inputs": [],
      "name": "SALE_END_TIMESTAMP",
      "outputs": [
        {
          "internalType": "uint256",
          "name": "",
          "type": "uint256"
        }
      ],
      "stateMutability": "view",
      "type": "function"
    },
    {
      "inputs": [],
      "name": "__msgData",
      "outputs": [
        {
          "internalType": "bytes",
          "name": "",
          "type": "bytes"
        }
      ],
      "stateMutability": "view",
      "type": "function"
    },
    {
      "inputs": [
        {
          "internalType": "address",
          "name": "account",
          "type": "address"
        }
      ],
      "name": "canMint",
      "outputs": [
        {
          "internalType": "bool",
          "name": "",
          "type": "bool"
        }
      ],
      "stateMutability": "view",
      "type": "function"
    },
    {
      "inputs": [],
      "name": "currentMintPrice",
      "outputs": [
        {
          "internalType": "uint256",
          "name": "price",
          "type": "uint256"
        },
        {
          "internalType": "uint256",
          "name": "discountThreshold",
          "type": "uint256"
        }
      ],
      "stateMutability": "view",
      "type": "function"
    },
    {
      "inputs": [],
      "name": "currentSalePhase",
      "outputs": [
        {
          "internalType": "uint256",
          "name": "",
          "type": "uint256"
        }
      ],
      "stateMutability": "view",
      "type": "function"
    },
    {
      "inputs": [],
      "name": "forwarderRegistry",
      "outputs": [
        {
          "internalType": "contract IForwarderRegistry",
          "name": "",
          "type": "address"
        }
      ],
      "stateMutability": "view",
      "type": "function"
    },
    {
      "inputs": [],
      "name": "getLzCallbackGasUsage",
      "outputs": [
        {
          "internalType": "uint128",
          "name": "base",
          "type": "uint128"
        },
        {
          "internalType": "uint128",
          "name": "perToken",
          "type": "uint128"
        }
      ],
      "stateMutability": "view",
      "type": "function"
    },
    {
      "inputs": [
        {
          "internalType": "address",
          "name": "forwarder",
          "type": "address"
        }
      ],
      "name": "isTrustedForwarder",
      "outputs": [
        {
          "internalType": "bool",
          "name": "",
          "type": "bool"
        }
      ],
      "stateMutability": "view",
      "type": "function"
    },
    {
      "inputs": [],
      "name": "lzCallbackGasUsage",
      "outputs": [
        {
          "internalType": "uint256",
          "name": "",
          "type": "uint256"
        }
      ],
      "stateMutability": "view",
      "type": "function"
    },
    {
      "inputs": [],
      "name": "lzDstAddress",
      "outputs": [
        {
          "internalType": "address",
          "name": "",
          "type": "address"
        }
      ],
      "stateMutability": "view",
      "type": "function"
    },
    {
      "inputs": [
        {
          "internalType": "uint256",
          "name": "nbTokens",
          "type": "uint256"
        }
      ],
      "name": "mint",
      "outputs": [],
      "stateMutability": "nonpayable",
      "type": "function"
    },
    {
      "inputs": [],
      "name": "mintCount",
      "outputs": [
        {
          "internalType": "uint256",
          "name": "",
          "type": "uint256"
        }
      ],
      "stateMutability": "view",
      "type": "function"
    },
    {
      "inputs": [
        {
          "internalType": "address",
          "name": "",
          "type": "address"
        }
      ],
      "name": "mintCountPerAddress",
      "outputs": [
        {
          "internalType": "uint256",
          "name": "",
          "type": "uint256"
        }
      ],
      "stateMutability": "view",
      "type": "function"
    },
    {
      "inputs": [],
      "name": "owner",
      "outputs": [
        {
          "internalType": "address",
          "name": "",
          "type": "address"
        }
      ],
      "stateMutability": "view",
      "type": "function"
    },
    {
      "inputs": [
        {
          "internalType": "uint128",
          "name": "base",
          "type": "uint128"
        },
        {
          "internalType": "uint128",
          "name": "perToken",
          "type": "uint128"
        }
      ],
      "name": "setLzCallbackGasUsage",
      "outputs": [],
      "stateMutability": "nonpayable",
      "type": "function"
    },
    {
      "inputs": [
        {
          "internalType": "address",
          "name": "lzDstAddress_",
          "type": "address"
        }
      ],
      "name": "setLzDstAddress",
      "outputs": [],
      "stateMutability": "nonpayable",
      "type": "function"
    },
    {
      "inputs": [
        {
          "internalType": "bytes4",
          "name": "interfaceId",
          "type": "bytes4"
        }
      ],
      "name": "supportsInterface",
      "outputs": [
        {
          "internalType": "bool",
          "name": "",
          "type": "bool"
        }
      ],
      "stateMutability": "view",
      "type": "function"
    },
    {
      "inputs": [
        {
          "internalType": "address",
          "name": "newOwner",
          "type": "address"
        }
      ],
      "name": "transferOwnership",
      "outputs": [],
      "stateMutability": "nonpayable",
      "type": "function"
    },
    {
      "inputs": [
        {
          "internalType": "address",
          "name": "to",
          "type": "address"
        }
      ],
      "name": "withdraw",
      "outputs": [],
      "stateMutability": "nonpayable",
      "type": "function"
    },
    {
      "stateMutability": "payable",
      "type": "receive"
    }
  ],
  "bytecode": "0x6102c06040523480156200001257600080fd5b5060405162002f6338038062002f638339810160408190526200003591620007b2565b8a8a8a8a8a8a8a8a8a8a8a80803362000059816200005262000587565b90620005bd565b506001600160a01b03166080525060008790036200008a576040516301d6003760e51b815260040160405180910390fd5b85600003620000ac57604051634ea99c6d60e11b815260040160405180910390fd5b84600003620000ce5760405163758d8ebf60e01b815260040160405180910390fd5b8351600414620000f15760405163027e48a560e01b815260040160405180910390fd5b82516003146200011457604051631397459760e11b815260040160405180910390fd5b8151600314620001375760405163060c8e7b60e11b815260040160405180910390fd5b836000815181106200014d576200014d620008ce565b6020026020010151846001815181106200016b576200016b620008ce565b6020026020010151111580620001bb575083600181518110620001925762000192620008ce565b602002602001015184600281518110620001b057620001b0620008ce565b602002602001015111155b8062000201575083600281518110620001d857620001d8620008ce565b602002602001015184600381518110620001f657620001f6620008ce565b602002602001015111155b15620002205760405163ec2e9ce360e01b815260040160405180910390fd5b82600081518110620002365762000236620008ce565b602002602001015183600181518110620002545762000254620008ce565b6020026020010151111580620002a45750826001815181106200027b576200027b620008ce565b602002602001015183600281518110620002995762000299620008ce565b602002602001015111155b15620002c35760405163eccc5abd60e01b815260040160405180910390fd5b81600081518110620002d957620002d9620008ce565b602002602001015182600181518110620002f757620002f7620008ce565b6020026020010151111580620003475750816001815181106200031e576200031e620008ce565b6020026020010151826002815181106200033c576200033c620008ce565b602002602001015111155b156200036657604051639db5141d60e01b815260040160405180910390fd5b612710826002815181106200037f576200037f620008ce565b602002602001015110620003a65760405163ebda279160e01b815260040160405180910390fd5b6001600160a01b03808c1660a0528a811660c052891660e05261ffff88166101005261012087905261014086905261016085905283518490600090620003f057620003f0620008ce565b6020026020010151610180818152505083600181518110620004165762000416620008ce565b60200260200101516101a08181525050836002815181106200043c576200043c620008ce565b60200260200101516101c0818152505083600381518110620004625762000462620008ce565b60200260200101516101e0818152505082600081518110620004885762000488620008ce565b6020026020010151610200818152505082600181518110620004ae57620004ae620008ce565b6020026020010151610220818152505082600281518110620004d457620004d4620008ce565b6020026020010151610240818152505081600081518110620004fa57620004fa620008ce565b6020026020010151610260818152505081600181518110620005205762000520620008ce565b6020026020010151610280818152505081600281518110620005465762000546620008ce565b60209081029190910101516102a0527175300000000000000000000000000001e8486001555050505050505050505050505050505050505050505062000906565b600080620005b760017fc9ed16f33ab3a66c84bfd83099ccb2a8845871e2e1c1928f63797152f0fd54cd620008e4565b92915050565b6001600160a01b03811615620006145781546001600160a01b0319166001600160a01b03821690811783556040516000907f8be0079c531659141344cd1fd0a4f28419497f9722a3daafe3b4186f6b6457e0908290a35b620006346307f5828d60e41b60016200062c62000638565b919062000668565b5050565b600080620005b760017fca9d3e17f264b0f3984e2634e94adb37fa3e6a8103f06aeae6fa59e21c769f5e620008e4565b600160e01b6001600160e01b031983160162000697576040516372c683bb60e01b815260040160405180910390fd5b6001600160e01b03199190911660009081526020929092526040909120805460ff1916911515919091179055565b80516001600160a01b0381168114620006dd57600080fd5b919050565b805161ffff81168114620006dd57600080fd5b634e487b7160e01b600052604160045260246000fd5b600082601f8301126200071d57600080fd5b815160206001600160401b03808311156200073c576200073c620006f5565b8260051b604051601f19603f83011681018181108482111715620007645762000764620006f5565b60405293845260208187018101949081019250878511156200078557600080fd5b6020870191505b84821015620007a7578151835291830191908301906200078c565b979650505050505050565b60008060008060008060008060008060006101608c8e031215620007d557600080fd5b620007e08c620006c5565b9a50620007f060208d01620006c5565b99506200080060408d01620006c5565b98506200081060608d01620006e2565b975060808c0151965060a08c0151955060c08c0151945060e08c015160018060401b038111156200084057600080fd5b6200084e8e828f016200070b565b6101008e015190955090506001600160401b038111156200086e57600080fd5b6200087c8e828f016200070b565b6101208e015190945090506001600160401b038111156200089c57600080fd5b620008aa8e828f016200070b565b925050620008bc6101408d01620006c5565b90509295989b509295989b9093969950565b634e487b7160e01b600052603260045260246000fd5b81810381811115620005b757634e487b7160e01b600052601160045260246000fd5b60805160a05160c05160e05161010051610120516101405161016051610180516101a0516101c0516101e05161020051610220516102405161026051610280516102a0516124a962000aba6000396000818161061f01526109e70152600081816105530152610a5a0152600081816107f20152610acd01526000818161068701526109ba01526000818161033d0152610a2d0152600081816103ff0152610aa0015260008181610456015261193e01526000818161070f015261196c01526000818161078a015261199901526000818161082601526119c60152600081816103090152611c5901526000818161085a0152611bc50152600081816106bb0152610904015260008181610743015281816113ea01526115170152600081816107be015281816113bd01526114d30152600081816106530152818161092901528181610e1f01528181610f12015281816111f501528181611656015261171501526000818161088e01528181610fd00152818161108e015281816117d1015261188f0152600081816103a8015281816104b701528181611e2b01528181611e6901528181611fa1015261202901526124a96000f3fe6080604052600436106102535760003560e01c806396a3804511610138578063c834c979116100b0578063dba535d71161007f578063ef59df2711610064578063ef59df271461087c578063f2fde38b146108b0578063f53da97e146108d057600080fd5b8063dba535d714610814578063e36d82051461084857600080fd5b8063c834c97914610731578063c8767f2f14610778578063cd4d1c64146107ac578063d7f62163146107e057600080fd5b8063ae8384d011610107578063c002d23d116100ec578063c002d23d146106a9578063c2ba4744146106dd578063c4823504146106fd57600080fd5b8063ae8384d014610641578063b68ba08b1461067557600080fd5b806396a38045146105a05780639e56d957146105cd578063a0712d68146105ed578063a0e5d7701461060d57600080fd5b806331e66e1e116101cb57806357e33a271161019a578063812042031161017f57806381204203146105415780638da5cb5b146105755780639659867e1461058a57600080fd5b806357e33a27146104f45780636dc407f91461051457600080fd5b806331e66e1e146104215780634210830d1461044457806351cff8d914610478578063572b6c051461049a57600080fd5b80631a503037116102225780631f64153b116102075780631f64153b1461035f5780632b4c9f16146103995780632d3ccf3f146103ed57600080fd5b80631a503037146102f75780631d1f42ec1461032b57600080fd5b806301ffc9a71461025f5780630561942a14610294578063098772cc146102be57806318ab42c5146102e257600080fd5b3661025a57005b600080fd5b34801561026b57600080fd5b5061027f61027a3660046120d6565b6108e5565b60405190151581526020015b60405180910390f35b3480156102a057600080fd5b506102a96108ff565b6040805192835260208301919091520161028b565b3480156102ca57600080fd5b506102d460015481565b60405190815260200161028b565b3480156102ee57600080fd5b506102d4600a81565b34801561030357600080fd5b506102d47f000000000000000000000000000000000000000000000000000000000000000081565b34801561033757600080fd5b506102d47f000000000000000000000000000000000000000000000000000000000000000081565b34801561036b57600080fd5b50600154604080516fffffffffffffffffffffffffffffffff8316815260809290921c60208301520161028b565b3480156103a557600080fd5b507f00000000000000000000000000000000000000000000000000000000000000005b60405173ffffffffffffffffffffffffffffffffffffffff909116815260200161028b565b3480156103f957600080fd5b506102d47f000000000000000000000000000000000000000000000000000000000000000081565b34801561042d57600080fd5b50610436610b1f565b60405161028b929190612118565b34801561045057600080fd5b506102d47f000000000000000000000000000000000000000000000000000000000000000081565b34801561048457600080fd5b50610498610493366004612165565b610b32565b005b3480156104a657600080fd5b5061027f6104b5366004612165565b7f000000000000000000000000000000000000000000000000000000000000000073ffffffffffffffffffffffffffffffffffffffff90811691161490565b34801561050057600080fd5b5061049861050f366004612165565b610bf2565b34801561052057600080fd5b506102d461052f366004612165565b60036020526000908152604090205481565b34801561054d57600080fd5b506102d47f000000000000000000000000000000000000000000000000000000000000000081565b34801561058157600080fd5b506103c8610c94565b34801561059657600080fd5b506102d460025481565b3480156105ac57600080fd5b506000546103c89073ffffffffffffffffffffffffffffffffffffffff1681565b3480156105d957600080fd5b506104986105e83660046121c0565b610cc0565b3480156105f957600080fd5b506104986106083660046121f3565b610d0b565b34801561061957600080fd5b506102d47f000000000000000000000000000000000000000000000000000000000000000081565b34801561064d57600080fd5b506103c87f000000000000000000000000000000000000000000000000000000000000000081565b34801561068157600080fd5b506102d47f000000000000000000000000000000000000000000000000000000000000000081565b3480156106b557600080fd5b506102d47f000000000000000000000000000000000000000000000000000000000000000081565b3480156106e957600080fd5b5061027f6106f8366004612165565b6115eb565b34801561070957600080fd5b506102d47f000000000000000000000000000000000000000000000000000000000000000081565b34801561073d57600080fd5b506107657f000000000000000000000000000000000000000000000000000000000000000081565b60405161ffff909116815260200161028b565b34801561078457600080fd5b506102d47f000000000000000000000000000000000000000000000000000000000000000081565b3480156107b857600080fd5b506103c87f000000000000000000000000000000000000000000000000000000000000000081565b3480156107ec57600080fd5b506102d47f000000000000000000000000000000000000000000000000000000000000000081565b34801561082057600080fd5b506102d47f000000000000000000000000000000000000000000000000000000000000000081565b34801561085457600080fd5b506102d47f000000000000000000000000000000000000000000000000000000000000000081565b34801561088857600080fd5b506103c87f000000000000000000000000000000000000000000000000000000000000000081565b3480156108bc57600080fd5b506104986108cb366004612165565b61191c565b3480156108dc57600080fd5b506102d461193a565b60006108f9826108f36119f7565b90611a25565b92915050565b6000807f0000000000000000000000000000000000000000000000000000000000000000915060007f000000000000000000000000000000000000000000000000000000000000000073ffffffffffffffffffffffffffffffffffffffff1663b5bd3eb96040518163ffffffff1660e01b8152600401602060405180830381865afa158015610992573d6000803e3d6000fd5b505050506040513d601f19601f820116820180604052508101906109b6919061220c565b90507f00000000000000000000000000000000000000000000000000000000000000008110610a2b57612710610a0c7f000000000000000000000000000000000000000000000000000000000000000082612254565b610a169085612267565b610a20919061227e565b925060039150610b0d565b7f00000000000000000000000000000000000000000000000000000000000000008110610a9e57612710610a7f7f000000000000000000000000000000000000000000000000000000000000000082612254565b610a899085612267565b610a93919061227e565b925060029150610b0d565b7f00000000000000000000000000000000000000000000000000000000000000008110610b0d57612710610af27f000000000000000000000000000000000000000000000000000000000000000082612254565b610afc9085612267565b610b06919061227e565b9250600191505b82600003610b1a57600192505b509091565b366000610b2a611aff565b915091509091565b610b4b610b3d611b0a565b610b45611b14565b90611b42565b478015610bee5760008273ffffffffffffffffffffffffffffffffffffffff168260405160006040518083038185875af1925050503d8060008114610bac576040519150601f19603f3d011682016040523d82523d6000602084013e610bb1565b606091505b5050905080610bec576040517f90b8ec1800000000000000000000000000000000000000000000000000000000815260040160405180910390fd5b505b5050565b610bfd610b3d611b0a565b60005473ffffffffffffffffffffffffffffffffffffffff1615610c4d576040517f5ccf468900000000000000000000000000000000000000000000000000000000815260040160405180910390fd5b600080547fffffffffffffffffffffffff00000000000000000000000000000000000000001673ffffffffffffffffffffffffffffffffffffffff92909216919091179055565b6000610cbb610ca1611b14565b5473ffffffffffffffffffffffffffffffffffffffff1690565b905090565b610ccb610b3d611b0a565b60801b7fffffffffffffffffffffffffffffffff00000000000000000000000000000000166fffffffffffffffffffffffffffffffff9190911617600155565b80600003610d45576040517f445dc49e00000000000000000000000000000000000000000000000000000000815260040160405180910390fd5b600a811115610d80576040517f8a0cd58100000000000000000000000000000000000000000000000000000000815260040160405180910390fd5b6000610d8a611b0a565b90506000610d9661193a565b905080600003610dd2576040517f2d0a346e00000000000000000000000000000000000000000000000000000000815260040160405180910390fd5b80600103610ec5576040517f508fc90500000000000000000000000000000000000000000000000000000000815273ffffffffffffffffffffffffffffffffffffffff83811660048301527f0000000000000000000000000000000000000000000000000000000000000000169063508fc90590602401602060405180830381865afa158015610e66573d6000803e3d6000fd5b505050506040513d601f19601f82011682018060405250810190610e8a91906122b9565b610ec0576040517fdc460b7300000000000000000000000000000000000000000000000000000000815260040160405180910390fd5b61116b565b80600203611131576040517f508fc90500000000000000000000000000000000000000000000000000000000815273ffffffffffffffffffffffffffffffffffffffff83811660048301527f0000000000000000000000000000000000000000000000000000000000000000169063508fc90590602401602060405180830381865afa158015610f59573d6000803e3d6000fd5b505050506040513d601f19601f82011682018060405250810190610f7d91906122b9565b15801561103c57506040517efdd58e00000000000000000000000000000000000000000000000000000000815273ffffffffffffffffffffffffffffffffffffffff8381166004830152600160248301527f0000000000000000000000000000000000000000000000000000000000000000169062fdd58e90604401602060405180830381865afa158015611016573d6000803e3d6000fd5b505050506040513d601f19601f8201168201806040525081019061103a919061220c565b155b80156110fa57506040517efdd58e00000000000000000000000000000000000000000000000000000000815273ffffffffffffffffffffffffffffffffffffffff8381166004830152600260248301527f0000000000000000000000000000000000000000000000000000000000000000169062fdd58e90604401602060405180830381865afa1580156110d4573d6000803e3d6000fd5b505050506040513d601f19601f820116820180604052508101906110f8919061220c565b155b15610ec0576040517feca8f22000000000000000000000000000000000000000000000000000000000815260040160405180910390fd5b6003811461116b576040517f0bd8a3eb00000000000000000000000000000000000000000000000000000000815260040160405180910390fd5b60005473ffffffffffffffffffffffffffffffffffffffff16806111bb576040517fb9281de400000000000000000000000000000000000000000000000000000000815260040160405180910390fd5b6111c484611bb2565b6111ce8484611c24565b6000806111d96108ff565b909250905073ffffffffffffffffffffffffffffffffffffffff7f00000000000000000000000000000000000000000000000000000000000000001663af7d6ca3866112258986612267565b6040517fffffffff0000000000000000000000000000000000000000000000000000000060e085901b16815273ffffffffffffffffffffffffffffffffffffffff90921660048301526024820152604401600060405180830381600087803b15801561129057600080fd5b505af11580156112a4573d6000803e3d6000fd5b50506040805173ffffffffffffffffffffffffffffffffffffffff891660208201528082018a90528151808203830181526060909101909152600180549193506fffffffffffffffffffffffffffffffff8216925060809190911c9060009061130d8b84612267565b61131790856122db565b60405160f09290921b7fffff0000000000000000000000000000000000000000000000000000000000001660208301526022820152604201604080517fffffffffffffffffffffffffffffffffffffffffffffffffffffffffffffffe0818403018152908290527f40a7bb10000000000000000000000000000000000000000000000000000000008252915060009073ffffffffffffffffffffffffffffffffffffffff7f000000000000000000000000000000000000000000000000000000000000000016906340a7bb109061141a907f0000000000000000000000000000000000000000000000000000000000000000908c908a9087908990600401612352565b6040805180830381865afa158015611436573d6000803e3d6000fd5b505050506040513d601f19601f8201168201806040525081019061145a91906123b1565b506040805160608b811b7fffffffffffffffffffffffffffffffffffffffff0000000000000000000000009081166020840152309182901b1660348301528251602881840301815260488301938490527fc5803100000000000000000000000000000000000000000000000000000000009093529293507f000000000000000000000000000000000000000000000000000000000000000073ffffffffffffffffffffffffffffffffffffffff169263c5803100928592611548927f000000000000000000000000000000000000000000000000000000000000000092918c91906000908b90604c016123d5565b6000604051808303818588803b15801561156157600080fd5b505af1158015611575573d6000803e3d6000fd5b50505050507f6b9646daf37cd2bfd6cf46c729da3ea690a73a6555404e5f0299e15a865ed3848a8c886040516115d69392919073ffffffffffffffffffffffffffffffffffffffff9390931683526020830191909152604082015260600190565b60405180910390a15050505050505050505050565b6000806115f661193a565b9050806000036116095750600092915050565b806001036116c8576040517f508fc90500000000000000000000000000000000000000000000000000000000815273ffffffffffffffffffffffffffffffffffffffff84811660048301527f0000000000000000000000000000000000000000000000000000000000000000169063508fc90590602401602060405180830381865afa15801561169d573d6000803e3d6000fd5b505050506040513d601f19601f820116820180604052508101906116c191906122b9565b9392505050565b80600203611902576040517f508fc90500000000000000000000000000000000000000000000000000000000815273ffffffffffffffffffffffffffffffffffffffff84811660048301527f0000000000000000000000000000000000000000000000000000000000000000169063508fc90590602401602060405180830381865afa15801561175c573d6000803e3d6000fd5b505050506040513d601f19601f8201168201806040525081019061178091906122b9565b8061183e57506040517efdd58e00000000000000000000000000000000000000000000000000000000815273ffffffffffffffffffffffffffffffffffffffff8481166004830152600160248301527f0000000000000000000000000000000000000000000000000000000000000000169062fdd58e90604401602060405180830381865afa158015611817573d6000803e3d6000fd5b505050506040513d601f19601f8201168201806040525081019061183b919061220c565b15155b806116c157506040517efdd58e00000000000000000000000000000000000000000000000000000000815273ffffffffffffffffffffffffffffffffffffffff8481166004830152600260248301527f0000000000000000000000000000000000000000000000000000000000000000169062fdd58e90604401602060405180830381865afa1580156118d5573d6000803e3d6000fd5b505050506040513d601f19601f820116820180604052508101906118f9919061220c565b15159392505050565b806003036119135750600192915050565b50600092915050565b611937611927611b0a565b82611930611b14565b9190611cdf565b50565b60007f000000000000000000000000000000000000000000000000000000000000000042111561196a5750600490565b7f000000000000000000000000000000000000000000000000000000000000000042106119975750600390565b7f000000000000000000000000000000000000000000000000000000000000000042106119c45750600290565b7f000000000000000000000000000000000000000000000000000000000000000042106119f15750600190565b50600090565b6000806108f960017fca9d3e17f264b0f3984e2634e94adb37fa3e6a8103f06aeae6fa59e21c769f5e612254565b60007c01000000000000000000000000000000000000000000000000000000007fffffffff00000000000000000000000000000000000000000000000000000000831601611a75575060006108f9565b7ffe003659000000000000000000000000000000000000000000000000000000007fffffffff00000000000000000000000000000000000000000000000000000000831601611ac6575060016108f9565b507fffffffff00000000000000000000000000000000000000000000000000000000166000908152602091909152604090205460ff1690565b366000610b2a611df4565b6000610cbb611f5e565b6000806108f960017fc9ed16f33ab3a66c84bfd83099ccb2a8845871e2e1c1928f63797152f0fd54cd612254565b815473ffffffffffffffffffffffffffffffffffffffff828116911614610bee576040517f2ef4875e00000000000000000000000000000000000000000000000000000000815273ffffffffffffffffffffffffffffffffffffffff821660048201526024015b60405180910390fd5b6002546000611bc183836122db565b90507f0000000000000000000000000000000000000000000000000000000000000000811115611c1d576040517f7b838b0200000000000000000000000000000000000000000000000000000000815260040160405180910390fd5b6002555050565b73ffffffffffffffffffffffffffffffffffffffff811660009081526003602052604081205490611c5584836122db565b90507f0000000000000000000000000000000000000000000000000000000000000000811115611cb1576040517f5cc9ef7100000000000000000000000000000000000000000000000000000000815260040160405180910390fd5b73ffffffffffffffffffffffffffffffffffffffff9092166000908152600360205260409020919091555050565b825473ffffffffffffffffffffffffffffffffffffffff9081169083168114611d4c576040517f2ef4875e00000000000000000000000000000000000000000000000000000000815273ffffffffffffffffffffffffffffffffffffffff84166004820152602401611ba9565b8173ffffffffffffffffffffffffffffffffffffffff168173ffffffffffffffffffffffffffffffffffffffff1614611dee5783547fffffffffffffffffffffffff00000000000000000000000000000000000000001673ffffffffffffffffffffffffffffffffffffffff8381169182178655604051908316907f8be0079c531659141344cd1fd0a4f28419497f9722a3daafe3b4186f6b6457e090600090a35b50505050565b36600033321480611e055750601836105b15611e135750600091369150565b3373ffffffffffffffffffffffffffffffffffffffff7f0000000000000000000000000000000000000000000000000000000000000000161480611f48575073ffffffffffffffffffffffffffffffffffffffff7f000000000000000000000000000000000000000000000000000000000000000016638929a8ca367fffffffffffffffffffffffffffffffffffffffffffffffffffffffffffffffec013560601c6040517fffffffff0000000000000000000000000000000000000000000000000000000060e084901b16815273ffffffffffffffffffffffffffffffffffffffff9091166004820152336024820152604401602060405180830381865afa158015611f24573d6000803e3d6000fd5b505050506040513d601f19601f82011682018060405250810190611f4891906122b9565b15611f5557610b2a6120a5565b50600091369150565b600033321480611f6e5750601836105b15611f7857503390565b7fffffffffffffffffffffffffffffffffffffffffffffffffffffffffffffffec36013560601c7f000000000000000000000000000000000000000000000000000000000000000073ffffffffffffffffffffffffffffffffffffffff1633148061209457506040517f8929a8ca00000000000000000000000000000000000000000000000000000000815273ffffffffffffffffffffffffffffffffffffffff82811660048301523360248301527f00000000000000000000000000000000000000000000000000000000000000001690638929a8ca90604401602060405180830381865afa158015612070573d6000803e3d6000fd5b505050506040513d601f19601f8201168201806040525081019061209491906122b9565b1561209e57919050565b3391505090565b366000610b2a7fffffffffffffffffffffffffffffffffffffffffffffffffffffffffffffffec8301828481612449565b6000602082840312156120e857600080fd5b81357fffffffff00000000000000000000000000000000000000000000000000000000811681146116c157600080fd5b60208152816020820152818360408301376000818301604090810191909152601f9092017fffffffffffffffffffffffffffffffffffffffffffffffffffffffffffffffe0160101919050565b60006020828403121561217757600080fd5b813573ffffffffffffffffffffffffffffffffffffffff811681146116c157600080fd5b80356fffffffffffffffffffffffffffffffff811681146121bb57600080fd5b919050565b600080604083850312156121d357600080fd5b6121dc8361219b565b91506121ea6020840161219b565b90509250929050565b60006020828403121561220557600080fd5b5035919050565b60006020828403121561221e57600080fd5b5051919050565b7f4e487b7100000000000000000000000000000000000000000000000000000000600052601160045260246000fd5b818103818111156108f9576108f9612225565b80820281158282048414176108f9576108f9612225565b6000826122b4577f4e487b7100000000000000000000000000000000000000000000000000000000600052601260045260246000fd5b500490565b6000602082840312156122cb57600080fd5b815180151581146116c157600080fd5b808201808211156108f9576108f9612225565b6000815180845260005b81811015612314576020818501810151868301820152016122f8565b5060006020828601015260207fffffffffffffffffffffffffffffffffffffffffffffffffffffffffffffffe0601f83011685010191505092915050565b61ffff8616815273ffffffffffffffffffffffffffffffffffffffff8516602082015260a06040820152600061238b60a08301866122ee565b841515606084015282810360808401526123a581856122ee565b98975050505050505050565b600080604083850312156123c457600080fd5b505080516020909101519092909150565b61ffff8716815260c0602082015260006123f260c08301886122ee565b828103604084015261240481886122ee565b73ffffffffffffffffffffffffffffffffffffffff87811660608601528616608085015283810360a0850152905061243c81856122ee565b9998505050505050505050565b6000808585111561245957600080fd5b8386111561246657600080fd5b505082019391909203915056fea2646970667358221220d9e8c0546eadfb390fd7384af8ba82bc47eb25a494e77e3e02c979f368e2a05c64736f6c63430008160033",
  "linkReferences": {},
  "deployedLinkReferences": {}
}