{
  "_format": "hh-sol-artifact-1",
  "contractName": "PublisherNFTSaleMock",
  "sourceName": "contracts/mocks/sale/PublisherNFTSaleMock.sol",
  "abi": [
    {
      "inputs": [
        {
          "internalType": "contract IERC1155",
          "name": "genesisToken",
          "type": "address"
        },
        {
          "internalType": "contract EDUCreditsManager",
          "name": "eduCreditsManager",
          "type": "address"
        },
        {
          "internalType": "contract ILayerZeroEndpoint",
          "name": "lzEndpoint",
          "type": "address"
        },
        {
          "internalType": "uint16",
          "name": "lzDstChainId",
          "type": "uint16"
        },
        {
          "internalType": "uint256",
          "name": "mintPrice",
          "type": "uint256"
        },
        {
          "internalType": "uint256",
          "name": "mintSupplyLimit",
          "type": "uint256"
        },
        {
          "internalType": "uint256",
          "name": "mintLimitPerAddress",
          "type": "uint256"
        },
        {
          "internalType": "uint256[]",
          "name": "timestamps",
          "type": "uint256[]"
        },
        {
          "internalType": "uint256[]",
          "name": "discountThresholds",
          "type": "uint256[]"
        },
        {
          "internalType": "uint256[]",
          "name": "discountPercentages",
          "type": "uint256[]"
        },
        {
          "internalType": "contract IForwarderRegistry",
          "name": "forwarderRegistry",
          "type": "address"
        }
      ],
      "stateMutability": "nonpayable",
      "type": "constructor"
    },
    {
      "inputs": [],
      "name": "AddressMintingLimitReached",
      "type": "error"
    },
    {
      "inputs": [],
      "name": "IllegalInterfaceId",
      "type": "error"
    },
    {
      "inputs": [],
      "name": "InsufficientMintSupply",
      "type": "error"
    },
    {
      "inputs": [],
      "name": "InvalidDiscountPercentages",
      "type": "error"
    },
    {
      "inputs": [],
      "name": "InvalidDiscountThresholds",
      "type": "error"
    },
    {
      "inputs": [],
      "name": "InvalidTimestamps",
      "type": "error"
    },
    {
      "inputs": [],
      "name": "LzDstAddressAlreadySet",
      "type": "error"
    },
    {
      "inputs": [],
      "name": "LzDstAddressNotSet",
      "type": "error"
    },
    {
      "inputs": [],
      "name": "MintingTooManyTokens",
      "type": "error"
    },
    {
      "inputs": [],
      "name": "MintingZeroTokens",
      "type": "error"
    },
    {
      "inputs": [],
      "name": "NotADiamondHand",
      "type": "error"
    },
    {
      "inputs": [],
      "name": "NotADiamondHandNorAGenesisNFTOwner",
      "type": "error"
    },
    {
      "inputs": [
        {
          "internalType": "address",
          "name": "account",
          "type": "address"
        }
      ],
      "name": "NotContractOwner",
      "type": "error"
    },
    {
      "inputs": [],
      "name": "SaleEnded",
      "type": "error"
    },
    {
      "inputs": [],
      "name": "SaleNotStarted",
      "type": "error"
    },
    {
      "anonymous": false,
      "inputs": [
        {
          "indexed": false,
          "internalType": "address",
          "name": "sender",
          "type": "address"
        },
        {
          "indexed": false,
          "internalType": "uint256",
          "name": "nbTokens",
          "type": "uint256"
        },
        {
          "indexed": false,
          "internalType": "uint256",
          "name": "discountThreshold",
          "type": "uint256"
        }
      ],
      "name": "MintInitiated",
      "type": "event"
    },
    {
      "anonymous": false,
      "inputs": [
        {
          "indexed": true,
          "internalType": "address",
          "name": "previousOwner",
          "type": "address"
        },
        {
          "indexed": true,
          "internalType": "address",
          "name": "newOwner",
          "type": "address"
        }
      ],
      "name": "OwnershipTransferred",
      "type": "event"
    },
    {
      "inputs": [],
      "name": "DISCOUNT_PERCENTAGE_1",
      "outputs": [
        {
          "internalType": "uint256",
          "name": "",
          "type": "uint256"
        }
      ],
      "stateMutability": "view",
      "type": "function"
    },
    {
      "inputs": [],
      "name": "DISCOUNT_PERCENTAGE_2",
      "outputs": [
        {
          "internalType": "uint256",
          "name": "",
          "type": "uint256"
        }
      ],
      "stateMutability": "view",
      "type": "function"
    },
    {
      "inputs": [],
      "name": "DISCOUNT_PERCENTAGE_3",
      "outputs": [
        {
          "internalType": "uint256",
          "name": "",
          "type": "uint256"
        }
      ],
      "stateMutability": "view",
      "type": "function"
    },
    {
      "inputs": [],
      "name": "DISCOUNT_THRESHOLD_1",
      "outputs": [
        {
          "internalType": "uint256",
          "name": "",
          "type": "uint256"
        }
      ],
      "stateMutability": "view",
      "type": "function"
    },
    {
      "inputs": [],
      "name": "DISCOUNT_THRESHOLD_2",
      "outputs": [
        {
          "internalType": "uint256",
          "name": "",
          "type": "uint256"
        }
      ],
      "stateMutability": "view",
      "type": "function"
    },
    {
      "inputs": [],
      "name": "DISCOUNT_THRESHOLD_3",
      "outputs": [
        {
          "internalType": "uint256",
          "name": "",
          "type": "uint256"
        }
      ],
      "stateMutability": "view",
      "type": "function"
    },
    {
      "inputs": [],
      "name": "EDU_CREDITS_MANAGER",
      "outputs": [
        {
          "internalType": "contract EDUCreditsManager",
          "name": "",
          "type": "address"
        }
      ],
      "stateMutability": "view",
      "type": "function"
    },
    {
      "inputs": [],
      "name": "GENESIS_TOKEN",
      "outputs": [
        {
          "internalType": "contract IERC1155",
          "name": "",
          "type": "address"
        }
      ],
      "stateMutability": "view",
      "type": "function"
    },
    {
      "inputs": [],
      "name": "LZ_DST_CHAINID",
      "outputs": [
        {
          "internalType": "uint16",
          "name": "",
          "type": "uint16"
        }
      ],
      "stateMutability": "view",
      "type": "function"
    },
    {
      "inputs": [],
      "name": "LZ_ENDPOINT",
      "outputs": [
        {
          "internalType": "contract ILayerZeroEndpoint",
          "name": "",
          "type": "address"
        }
      ],
      "stateMutability": "view",
      "type": "function"
    },
    {
      "inputs": [],
      "name": "MINT_LIMIT_PER_ADDRESS",
      "outputs": [
        {
          "internalType": "uint256",
          "name": "",
          "type": "uint256"
        }
      ],
      "stateMutability": "view",
      "type": "function"
    },
    {
      "inputs": [],
      "name": "MINT_PRICE",
      "outputs": [
        {
          "internalType": "uint256",
          "name": "",
          "type": "uint256"
        }
      ],
      "stateMutability": "view",
      "type": "function"
    },
    {
      "inputs": [],
      "name": "MINT_SUPPLY_LIMIT",
      "outputs": [
        {
          "internalType": "uint256",
          "name": "",
          "type": "uint256"
        }
      ],
      "stateMutability": "view",
      "type": "function"
    },
    {
      "inputs": [],
      "name": "PHASE1_START_TIMESTAMP",
      "outputs": [
        {
          "internalType": "uint256",
          "name": "",
          "type": "uint256"
        }
      ],
      "stateMutability": "view",
      "type": "function"
    },
    {
      "inputs": [],
      "name": "PHASE2_START_TIMESTAMP",
      "outputs": [
        {
          "internalType": "uint256",
          "name": "",
          "type": "uint256"
        }
      ],
      "stateMutability": "view",
      "type": "function"
    },
    {
      "inputs": [],
      "name": "PHASE3_START_TIMESTAMP",
      "outputs": [
        {
          "internalType": "uint256",
          "name": "",
          "type": "uint256"
        }
      ],
      "stateMutability": "view",
      "type": "function"
    },
    {
      "inputs": [],
      "name": "SALE_END_TIMESTAMP",
      "outputs": [
        {
          "internalType": "uint256",
          "name": "",
          "type": "uint256"
        }
      ],
      "stateMutability": "view",
      "type": "function"
    },
    {
      "inputs": [],
      "name": "__msgData",
      "outputs": [
        {
          "internalType": "bytes",
          "name": "",
          "type": "bytes"
        }
      ],
      "stateMutability": "view",
      "type": "function"
    },
    {
      "inputs": [
        {
          "internalType": "address",
          "name": "account",
          "type": "address"
        }
      ],
      "name": "canMint",
      "outputs": [
        {
          "internalType": "bool",
          "name": "",
          "type": "bool"
        }
      ],
      "stateMutability": "view",
      "type": "function"
    },
    {
      "inputs": [],
      "name": "currentMintPrice",
      "outputs": [
        {
          "internalType": "uint256",
          "name": "price",
          "type": "uint256"
        },
        {
          "internalType": "uint256",
          "name": "discountThreshold",
          "type": "uint256"
        }
      ],
      "stateMutability": "view",
      "type": "function"
    },
    {
      "inputs": [],
      "name": "currentSalePhase",
      "outputs": [
        {
          "internalType": "uint256",
          "name": "",
          "type": "uint256"
        }
      ],
      "stateMutability": "view",
      "type": "function"
    },
    {
      "inputs": [],
      "name": "forwarderRegistry",
      "outputs": [
        {
          "internalType": "contract IForwarderRegistry",
          "name": "",
          "type": "address"
        }
      ],
      "stateMutability": "view",
      "type": "function"
    },
    {
      "inputs": [
        {
          "internalType": "address",
          "name": "forwarder",
          "type": "address"
        }
      ],
      "name": "isTrustedForwarder",
      "outputs": [
        {
          "internalType": "bool",
          "name": "",
          "type": "bool"
        }
      ],
      "stateMutability": "view",
      "type": "function"
    },
    {
      "inputs": [],
      "name": "lzDstAddress",
      "outputs": [
        {
          "internalType": "address",
          "name": "",
          "type": "address"
        }
      ],
      "stateMutability": "view",
      "type": "function"
    },
    {
      "inputs": [
        {
          "internalType": "uint256",
          "name": "nbTokens",
          "type": "uint256"
        }
      ],
      "name": "mint",
      "outputs": [],
      "stateMutability": "nonpayable",
      "type": "function"
    },
    {
      "inputs": [],
      "name": "mintCount",
      "outputs": [
        {
          "internalType": "uint256",
          "name": "",
          "type": "uint256"
        }
      ],
      "stateMutability": "view",
      "type": "function"
    },
    {
      "inputs": [
        {
          "internalType": "address",
          "name": "",
          "type": "address"
        }
      ],
      "name": "mintCountPerAddress",
      "outputs": [
        {
          "internalType": "uint256",
          "name": "",
          "type": "uint256"
        }
      ],
      "stateMutability": "view",
      "type": "function"
    },
    {
      "inputs": [],
      "name": "owner",
      "outputs": [
        {
          "internalType": "address",
          "name": "",
          "type": "address"
        }
      ],
      "stateMutability": "view",
      "type": "function"
    },
    {
      "inputs": [
        {
          "internalType": "address",
          "name": "lzDstAddress_",
          "type": "address"
        }
      ],
      "name": "setLzDstAddress",
      "outputs": [],
      "stateMutability": "nonpayable",
      "type": "function"
    },
    {
      "inputs": [
        {
          "internalType": "bytes4",
          "name": "interfaceId",
          "type": "bytes4"
        }
      ],
      "name": "supportsInterface",
      "outputs": [
        {
          "internalType": "bool",
          "name": "",
          "type": "bool"
        }
      ],
      "stateMutability": "view",
      "type": "function"
    },
    {
      "inputs": [
        {
          "internalType": "address",
          "name": "newOwner",
          "type": "address"
        }
      ],
      "name": "transferOwnership",
      "outputs": [],
      "stateMutability": "nonpayable",
      "type": "function"
    },
    {
      "inputs": [
        {
          "internalType": "address",
          "name": "to",
          "type": "address"
        }
      ],
      "name": "withdraw",
      "outputs": [],
      "stateMutability": "nonpayable",
      "type": "function"
    },
    {
      "stateMutability": "payable",
      "type": "receive"
    }
  ],
  "bytecode": "0x6102c06040523480156200001257600080fd5b5060405162002bdf38038062002bdf833981016040819052620000359162000684565b8a8a8a8a8a8a8a8a8a8a8a8080336200005981620000526200045c565b9062000492565b506001600160a01b039081166080528c811660a0528b811660c0528a1660e0525061ffff88166101005261012087905261014086905261016085905283518490600090620000ab57620000ab620007a0565b602002602001015184600181518110620000c957620000c9620007a0565b602002602001015111158062000119575083600181518110620000f057620000f0620007a0565b6020026020010151846002815181106200010e576200010e620007a0565b602002602001015111155b806200015f575083600281518110620001365762000136620007a0565b602002602001015184600381518110620001545762000154620007a0565b602002602001015111155b156200017e5760405163d22806e360e01b815260040160405180910390fd5b83600081518110620001945762000194620007a0565b6020026020010151610180818152505083600181518110620001ba57620001ba620007a0565b60200260200101516101a0818152505083600281518110620001e057620001e0620007a0565b60200260200101516101c0818152505083600381518110620002065762000206620007a0565b60200260200101516101e08181525050826000815181106200022c576200022c620007a0565b6020026020010151836001815181106200024a576200024a620007a0565b60200260200101511115806200029a575082600181518110620002715762000271620007a0565b6020026020010151836002815181106200028f576200028f620007a0565b602002602001015111155b15620002b95760405163ae2a357360e01b815260040160405180910390fd5b82600081518110620002cf57620002cf620007a0565b6020026020010151610200818152505082600181518110620002f557620002f5620007a0565b60200260200101516102208181525050826002815181106200031b576200031b620007a0565b6020026020010151610240818152505081600081518110620003415762000341620007a0565b6020026020010151826001815181106200035f576200035f620007a0565b6020026020010151111580620003af575081600181518110620003865762000386620007a0565b602002602001015182600281518110620003a457620003a4620007a0565b602002602001015111155b15620003ce5760405163ebda279160e01b815260040160405180910390fd5b81600081518110620003e457620003e4620007a0565b60200260200101516102608181525050816001815181106200040a576200040a620007a0565b6020026020010151610280818152505081600281518110620004305762000430620007a0565b60200260200101516102a0818152505050505050505050505050505050505050505050505050620007d8565b6000806200048c60017fc9ed16f33ab3a66c84bfd83099ccb2a8845871e2e1c1928f63797152f0fd54cd620007b6565b92915050565b6001600160a01b03811615620004e95781546001600160a01b0319166001600160a01b03821690811783556040516000907f8be0079c531659141344cd1fd0a4f28419497f9722a3daafe3b4186f6b6457e0908290a35b620005096307f5828d60e41b6001620005016200050d565b91906200053d565b5050565b6000806200048c60017fca9d3e17f264b0f3984e2634e94adb37fa3e6a8103f06aeae6fa59e21c769f5e620007b6565b600160e01b6001600160e01b03198316016200056c576040516372c683bb60e01b815260040160405180910390fd5b6001600160e01b03199190911660009081526020929092526040909120805460ff1916911515919091179055565b80516001600160a01b0381168114620005b257600080fd5b919050565b805161ffff81168114620005b257600080fd5b634e487b7160e01b600052604160045260246000fd5b600082601f830112620005f257600080fd5b815160206001600160401b0380831115620006115762000611620005ca565b8260051b604051601f19603f83011681018181108482111715620006395762000639620005ca565b6040529384528581018301938381019250878511156200065857600080fd5b83870191505b8482101562000679578151835291830191908301906200065e565b979650505050505050565b60008060008060008060008060008060006101608c8e031215620006a757600080fd5b620006b28c6200059a565b9a50620006c260208d016200059a565b9950620006d260408d016200059a565b9850620006e260608d01620005b7565b975060808c0151965060a08c0151955060c08c0151945060e08c015160018060401b038111156200071257600080fd5b620007208e828f01620005e0565b6101008e015190955090506001600160401b038111156200074057600080fd5b6200074e8e828f01620005e0565b6101208e015190945090506001600160401b038111156200076e57600080fd5b6200077c8e828f01620005e0565b9250506200078e6101408d016200059a565b90509295989b509295989b9093969950565b634e487b7160e01b600052603260045260246000fd5b818103818111156200048c57634e487b7160e01b600052601160045260246000fd5b60805160a05160c05160e05161010051610120516101405161016051610180516101a0516101c0516101e05161020051610220516102405161026051610280516102a05161225a620009856000396000818161052e01526108f5015260008181610482015261096601526000818161070101526109d701526000818161059601526108c90152600081816102a6015261093a01526000818161032e01526109ab015260008181610385015261187401526000818161061e01526118a201526000818161069901526118cf01526000818161073501526118fc0152600061026401526000818161076901526110280152600081816105ca01526108130152600081816106520152818161131d015261144d0152600081816106cd015281816112ef015261141e0152600081816105620152818161083801528181610c7a01528181610d6d015281816111400152818161158c015261164b01526000818161079d01528181610e2b01528181610ee90152818161170701526117c50152600081816102d7015281816103e601528181611c3401528181611c7201528181611daa0152611e32015261225a6000f3fe6080604052600436106101e75760003560e01c8063a0712d6811610102578063c8767f2f11610095578063e36d820511610064578063e36d820514610757578063ef59df271461078b578063f2fde38b146107bf578063f53da97e146107df57600080fd5b8063c8767f2f14610687578063cd4d1c64146106bb578063d7f62163146106ef578063dba535d71461072357600080fd5b8063c002d23d116100d1578063c002d23d146105b8578063c2ba4744146105ec578063c48235041461060c578063c834c9791461064057600080fd5b8063a0712d68146104fc578063a0e5d7701461051c578063ae8384d014610550578063b68ba08b1461058457600080fd5b806351cff8d91161017a578063812042031161014957806381204203146104705780638da5cb5b146104a45780639659867e146104b957806396a38045146104cf57600080fd5b806351cff8d9146103a7578063572b6c05146103c957806357e33a27146104235780636dc407f91461044357600080fd5b80632b4c9f16116101b65780632b4c9f16146102c85780632d3ccf3f1461031c57806331e66e1e146103505780634210830d1461037357600080fd5b806301ffc9a7146101f35780630561942a146102285780631a503037146102525780631d1f42ec1461029457600080fd5b366101ee57005b600080fd5b3480156101ff57600080fd5b5061021361020e366004611edf565b6107f4565b60405190151581526020015b60405180910390f35b34801561023457600080fd5b5061023d61080e565b6040805192835260208301919091520161021f565b34801561025e57600080fd5b506102867f000000000000000000000000000000000000000000000000000000000000000081565b60405190815260200161021f565b3480156102a057600080fd5b506102867f000000000000000000000000000000000000000000000000000000000000000081565b3480156102d457600080fd5b507f00000000000000000000000000000000000000000000000000000000000000005b60405173ffffffffffffffffffffffffffffffffffffffff909116815260200161021f565b34801561032857600080fd5b506102867f000000000000000000000000000000000000000000000000000000000000000081565b34801561035c57600080fd5b50610365610a1c565b60405161021f929190611f21565b34801561037f57600080fd5b506102867f000000000000000000000000000000000000000000000000000000000000000081565b3480156103b357600080fd5b506103c76103c2366004611f6e565b610a2f565b005b3480156103d557600080fd5b506102136103e4366004611f6e565b7f000000000000000000000000000000000000000000000000000000000000000073ffffffffffffffffffffffffffffffffffffffff90811691161490565b34801561042f57600080fd5b506103c761043e366004611f6e565b610a98565b34801561044f57600080fd5b5061028661045e366004611f6e565b60026020526000908152604090205481565b34801561047c57600080fd5b506102867f000000000000000000000000000000000000000000000000000000000000000081565b3480156104b057600080fd5b506102f7610b3a565b3480156104c557600080fd5b5061028660015481565b3480156104db57600080fd5b506000546102f79073ffffffffffffffffffffffffffffffffffffffff1681565b34801561050857600080fd5b506103c7610517366004611fa4565b610b66565b34801561052857600080fd5b506102867f000000000000000000000000000000000000000000000000000000000000000081565b34801561055c57600080fd5b506102f77f000000000000000000000000000000000000000000000000000000000000000081565b34801561059057600080fd5b506102867f000000000000000000000000000000000000000000000000000000000000000081565b3480156105c457600080fd5b506102867f000000000000000000000000000000000000000000000000000000000000000081565b3480156105f857600080fd5b50610213610607366004611f6e565b611521565b34801561061857600080fd5b506102867f000000000000000000000000000000000000000000000000000000000000000081565b34801561064c57600080fd5b506106747f000000000000000000000000000000000000000000000000000000000000000081565b60405161ffff909116815260200161021f565b34801561069357600080fd5b506102867f000000000000000000000000000000000000000000000000000000000000000081565b3480156106c757600080fd5b506102f77f000000000000000000000000000000000000000000000000000000000000000081565b3480156106fb57600080fd5b506102867f000000000000000000000000000000000000000000000000000000000000000081565b34801561072f57600080fd5b506102867f000000000000000000000000000000000000000000000000000000000000000081565b34801561076357600080fd5b506102867f000000000000000000000000000000000000000000000000000000000000000081565b34801561079757600080fd5b506102f77f000000000000000000000000000000000000000000000000000000000000000081565b3480156107cb57600080fd5b506103c76107da366004611f6e565b611852565b3480156107eb57600080fd5b50610286611870565b60006108088261080261192d565b9061195b565b92915050565b6000807f0000000000000000000000000000000000000000000000000000000000000000915060007f000000000000000000000000000000000000000000000000000000000000000073ffffffffffffffffffffffffffffffffffffffff1663b5bd3eb96040518163ffffffff1660e01b8152600401602060405180830381865afa1580156108a1573d6000803e3d6000fd5b505050506040513d601f19601f820116820180604052508101906108c59190611fbd565b90507f0000000000000000000000000000000000000000000000000000000000000000811061093857606461091a7f000000000000000000000000000000000000000000000000000000000000000082612005565b6109249085612018565b61092e919061202f565b9360039350915050565b7f000000000000000000000000000000000000000000000000000000000000000081106109a957606461098b7f000000000000000000000000000000000000000000000000000000000000000082612005565b6109959085612018565b61099f919061202f565b9360029350915050565b7f00000000000000000000000000000000000000000000000000000000000000008110610a175760646109fc7f000000000000000000000000000000000000000000000000000000000000000082612005565b610a069085612018565b610a10919061202f565b9250600191505b509091565b366000610a27611a35565b915091509091565b610a48610a3a611a40565b610a42611a4a565b90611a78565b478015610a945760405173ffffffffffffffffffffffffffffffffffffffff83169082156108fc029083906000818181858888f19350505050158015610a92573d6000803e3d6000fd5b505b5050565b610aa3610a3a611a40565b60005473ffffffffffffffffffffffffffffffffffffffff1615610af3576040517f5ccf468900000000000000000000000000000000000000000000000000000000815260040160405180910390fd5b600080547fffffffffffffffffffffffff00000000000000000000000000000000000000001673ffffffffffffffffffffffffffffffffffffffff92909216919091179055565b6000610b61610b47611a4a565b5473ffffffffffffffffffffffffffffffffffffffff1690565b905090565b80600003610ba0576040517f445dc49e00000000000000000000000000000000000000000000000000000000815260040160405180910390fd5b6002811115610bdb576040517f8a0cd58100000000000000000000000000000000000000000000000000000000815260040160405180910390fd5b6000610be5611a40565b90506000610bf1611870565b905080600003610c2d576040517f2d0a346e00000000000000000000000000000000000000000000000000000000815260040160405180910390fd5b80600103610d20576040517f508fc90500000000000000000000000000000000000000000000000000000000815273ffffffffffffffffffffffffffffffffffffffff83811660048301527f0000000000000000000000000000000000000000000000000000000000000000169063508fc90590602401602060405180830381865afa158015610cc1573d6000803e3d6000fd5b505050506040513d601f19601f82011682018060405250810190610ce5919061206a565b610d1b576040517fdc460b7300000000000000000000000000000000000000000000000000000000815260040160405180910390fd5b610fc6565b80600203610f8c576040517f508fc90500000000000000000000000000000000000000000000000000000000815273ffffffffffffffffffffffffffffffffffffffff83811660048301527f0000000000000000000000000000000000000000000000000000000000000000169063508fc90590602401602060405180830381865afa158015610db4573d6000803e3d6000fd5b505050506040513d601f19601f82011682018060405250810190610dd8919061206a565b158015610e9757506040517efdd58e00000000000000000000000000000000000000000000000000000000815273ffffffffffffffffffffffffffffffffffffffff8381166004830152600060248301527f0000000000000000000000000000000000000000000000000000000000000000169062fdd58e90604401602060405180830381865afa158015610e71573d6000803e3d6000fd5b505050506040513d601f19601f82011682018060405250810190610e959190611fbd565b155b8015610f5557506040517efdd58e00000000000000000000000000000000000000000000000000000000815273ffffffffffffffffffffffffffffffffffffffff8381166004830152600160248301527f0000000000000000000000000000000000000000000000000000000000000000169062fdd58e90604401602060405180830381865afa158015610f2f573d6000803e3d6000fd5b505050506040513d601f19601f82011682018060405250810190610f539190611fbd565b155b15610d1b576040517feca8f22000000000000000000000000000000000000000000000000000000000815260040160405180910390fd5b60038114610fc6576040517f0bd8a3eb00000000000000000000000000000000000000000000000000000000815260040160405180910390fd5b60005473ffffffffffffffffffffffffffffffffffffffff16611015576040517fb9281de400000000000000000000000000000000000000000000000000000000815260040160405180910390fd5b6001546000611024858361208c565b90507f0000000000000000000000000000000000000000000000000000000000000000811115611080576040517f7b838b0200000000000000000000000000000000000000000000000000000000815260040160405180910390fd5b600181905573ffffffffffffffffffffffffffffffffffffffff8416600090815260026020526040812054906110b6878361208c565b905060028111156110f3576040517f5cc9ef7100000000000000000000000000000000000000000000000000000000815260040160405180910390fd5b73ffffffffffffffffffffffffffffffffffffffff861660009081526002602052604081208290558061112461080e565b909250905073ffffffffffffffffffffffffffffffffffffffff7f00000000000000000000000000000000000000000000000000000000000000001663af7d6ca3896111708c86612018565b6040517fffffffff0000000000000000000000000000000000000000000000000000000060e085901b16815273ffffffffffffffffffffffffffffffffffffffff90921660048301526024820152604401600060405180830381600087803b1580156111db57600080fd5b505af11580156111ef573d6000803e3d6000fd5b50506040805173ffffffffffffffffffffffffffffffffffffffff8c1660208201528082018d9052815180820383018152606090910190915291506000905061123a8b617530612018565b6112469061c35061208c565b6040517e01000000000000000000000000000000000000000000000000000000000000602082015260228101829052909150600090604201604080517fffffffffffffffffffffffffffffffffffffffffffffffffffffffffffffffe081840301815290829052600080547f40a7bb100000000000000000000000000000000000000000000000000000000084529193509173ffffffffffffffffffffffffffffffffffffffff7f00000000000000000000000000000000000000000000000000000000000000008116926340a7bb109261134d927f0000000000000000000000000000000000000000000000000000000000000000921690899087908990600401612103565b6040805180830381865afa158015611369573d6000803e3d6000fd5b505050506040513d601f19601f8201168201806040525081019061138d9190612162565b5060008054604080517fffffffffffffffffffffffffffffffffffffffff000000000000000000000000606093841b81166020830152309384901b1660348201528151808203602801815260488201928390527fc58031000000000000000000000000000000000000000000000000000000000090925293945073ffffffffffffffffffffffffffffffffffffffff7f0000000000000000000000000000000000000000000000000000000000000000169363c580310093869361147c937f00000000000000000000000000000000000000000000000000000000000000009390928c92918b90604c01612186565b6000604051808303818588803b15801561149557600080fd5b505af11580156114a9573d6000803e3d6000fd5b50505050507f6b9646daf37cd2bfd6cf46c729da3ea690a73a6555404e5f0299e15a865ed3848c8e8760405161150a9392919073ffffffffffffffffffffffffffffffffffffffff9390931683526020830191909152604082015260600190565b60405180910390a150505050505050505050505050565b60008061152c611870565b90508060000361153f5750600092915050565b806001036115fe576040517f508fc90500000000000000000000000000000000000000000000000000000000815273ffffffffffffffffffffffffffffffffffffffff84811660048301527f0000000000000000000000000000000000000000000000000000000000000000169063508fc90590602401602060405180830381865afa1580156115d3573d6000803e3d6000fd5b505050506040513d601f19601f820116820180604052508101906115f7919061206a565b9392505050565b80600203611838576040517f508fc90500000000000000000000000000000000000000000000000000000000815273ffffffffffffffffffffffffffffffffffffffff84811660048301527f0000000000000000000000000000000000000000000000000000000000000000169063508fc90590602401602060405180830381865afa158015611692573d6000803e3d6000fd5b505050506040513d601f19601f820116820180604052508101906116b6919061206a565b8061177457506040517efdd58e00000000000000000000000000000000000000000000000000000000815273ffffffffffffffffffffffffffffffffffffffff8481166004830152600060248301527f0000000000000000000000000000000000000000000000000000000000000000169062fdd58e90604401602060405180830381865afa15801561174d573d6000803e3d6000fd5b505050506040513d601f19601f820116820180604052508101906117719190611fbd565b15155b806115f757506040517efdd58e00000000000000000000000000000000000000000000000000000000815273ffffffffffffffffffffffffffffffffffffffff8481166004830152600160248301527f0000000000000000000000000000000000000000000000000000000000000000169062fdd58e90604401602060405180830381865afa15801561180b573d6000803e3d6000fd5b505050506040513d601f19601f8201168201806040525081019061182f9190611fbd565b15159392505050565b806003036118495750600192915050565b50600092915050565b61186d61185d611a40565b82611866611a4a565b9190611ae8565b50565b60007f00000000000000000000000000000000000000000000000000000000000000004211156118a05750600490565b7f000000000000000000000000000000000000000000000000000000000000000042106118cd5750600390565b7f000000000000000000000000000000000000000000000000000000000000000042106118fa5750600290565b7f000000000000000000000000000000000000000000000000000000000000000042106119275750600190565b50600090565b60008061080860017fca9d3e17f264b0f3984e2634e94adb37fa3e6a8103f06aeae6fa59e21c769f5e612005565b60007c01000000000000000000000000000000000000000000000000000000007fffffffff000000000000000000000000000000000000000000000000000000008316016119ab57506000610808565b7ffe003659000000000000000000000000000000000000000000000000000000007fffffffff000000000000000000000000000000000000000000000000000000008316016119fc57506001610808565b507fffffffff00000000000000000000000000000000000000000000000000000000166000908152602091909152604090205460ff1690565b366000610a27611bfd565b6000610b61611d67565b60008061080860017fc9ed16f33ab3a66c84bfd83099ccb2a8845871e2e1c1928f63797152f0fd54cd612005565b815473ffffffffffffffffffffffffffffffffffffffff828116911614610a94576040517f2ef4875e00000000000000000000000000000000000000000000000000000000815273ffffffffffffffffffffffffffffffffffffffff821660048201526024015b60405180910390fd5b825473ffffffffffffffffffffffffffffffffffffffff9081169083168114611b55576040517f2ef4875e00000000000000000000000000000000000000000000000000000000815273ffffffffffffffffffffffffffffffffffffffff84166004820152602401611adf565b8173ffffffffffffffffffffffffffffffffffffffff168173ffffffffffffffffffffffffffffffffffffffff1614611bf75783547fffffffffffffffffffffffff00000000000000000000000000000000000000001673ffffffffffffffffffffffffffffffffffffffff8381169182178655604051908316907f8be0079c531659141344cd1fd0a4f28419497f9722a3daafe3b4186f6b6457e090600090a35b50505050565b36600033321480611c0e5750601836105b15611c1c5750600091369150565b3373ffffffffffffffffffffffffffffffffffffffff7f0000000000000000000000000000000000000000000000000000000000000000161480611d51575073ffffffffffffffffffffffffffffffffffffffff7f000000000000000000000000000000000000000000000000000000000000000016638929a8ca367fffffffffffffffffffffffffffffffffffffffffffffffffffffffffffffffec013560601c6040517fffffffff0000000000000000000000000000000000000000000000000000000060e084901b16815273ffffffffffffffffffffffffffffffffffffffff9091166004820152336024820152604401602060405180830381865afa158015611d2d573d6000803e3d6000fd5b505050506040513d601f19601f82011682018060405250810190611d51919061206a565b15611d5e57610a27611eae565b50600091369150565b600033321480611d775750601836105b15611d8157503390565b7fffffffffffffffffffffffffffffffffffffffffffffffffffffffffffffffec36013560601c7f000000000000000000000000000000000000000000000000000000000000000073ffffffffffffffffffffffffffffffffffffffff16331480611e9d57506040517f8929a8ca00000000000000000000000000000000000000000000000000000000815273ffffffffffffffffffffffffffffffffffffffff82811660048301523360248301527f00000000000000000000000000000000000000000000000000000000000000001690638929a8ca90604401602060405180830381865afa158015611e79573d6000803e3d6000fd5b505050506040513d601f19601f82011682018060405250810190611e9d919061206a565b15611ea757919050565b3391505090565b366000610a277fffffffffffffffffffffffffffffffffffffffffffffffffffffffffffffffec83018284816121fa565b600060208284031215611ef157600080fd5b81357fffffffff00000000000000000000000000000000000000000000000000000000811681146115f757600080fd5b60208152816020820152818360408301376000818301604090810191909152601f9092017fffffffffffffffffffffffffffffffffffffffffffffffffffffffffffffffe0160101919050565b600060208284031215611f8057600080fd5b813573ffffffffffffffffffffffffffffffffffffffff811681146115f757600080fd5b600060208284031215611fb657600080fd5b5035919050565b600060208284031215611fcf57600080fd5b5051919050565b7f4e487b7100000000000000000000000000000000000000000000000000000000600052601160045260246000fd5b8181038181111561080857610808611fd6565b808202811582820484141761080857610808611fd6565b600082612065577f4e487b7100000000000000000000000000000000000000000000000000000000600052601260045260246000fd5b500490565b60006020828403121561207c57600080fd5b815180151581146115f757600080fd5b8082018082111561080857610808611fd6565b6000815180845260005b818110156120c5576020818501810151868301820152016120a9565b5060006020828601015260207fffffffffffffffffffffffffffffffffffffffffffffffffffffffffffffffe0601f83011685010191505092915050565b61ffff8616815273ffffffffffffffffffffffffffffffffffffffff8516602082015260a06040820152600061213c60a083018661209f565b84151560608401528281036080840152612156818561209f565b98975050505050505050565b6000806040838503121561217557600080fd5b505080516020909101519092909150565b61ffff8716815260c0602082015260006121a360c083018861209f565b82810360408401526121b5818861209f565b73ffffffffffffffffffffffffffffffffffffffff87811660608601528616608085015283810360a085015290506121ed818561209f565b9998505050505050505050565b6000808585111561220a57600080fd5b8386111561221757600080fd5b505082019391909203915056fea2646970667358221220fd4c942aa17e1c2c8fde4d96976abccaefc848737164f51facd4a372cd882e3964736f6c63430008150033",
  "linkReferences": {},
  "deployedLinkReferences": {}
}