{
  "_format": "hh-sol-artifact-1",
  "contractName": "PublisherNFTSaleMock",
  "sourceName": "contracts/mocks/sale/PublisherNFTSaleMock.sol",
  "abi": [
    {
      "inputs": [
        {
          "internalType": "contract IERC1155",
          "name": "genesisToken",
          "type": "address"
        },
        {
          "internalType": "contract EDUCreditsManager",
          "name": "eduCreditsManager",
          "type": "address"
        },
        {
          "internalType": "contract ILayerZeroEndpoint",
          "name": "lzEndpoint",
          "type": "address"
        },
        {
          "internalType": "uint16",
          "name": "lzDstChainId",
          "type": "uint16"
        },
        {
          "internalType": "uint256",
          "name": "mintPrice",
          "type": "uint256"
        },
        {
          "internalType": "uint256",
          "name": "mintSupplyLimit",
          "type": "uint256"
        },
        {
          "internalType": "uint256",
          "name": "mintLimitPerAddress",
          "type": "uint256"
        },
        {
          "internalType": "uint256[]",
          "name": "timestamps",
          "type": "uint256[]"
        },
        {
          "internalType": "uint256[]",
          "name": "discountThresholds",
          "type": "uint256[]"
        },
        {
          "internalType": "uint256[]",
          "name": "discountPercentages",
          "type": "uint256[]"
        },
        {
          "internalType": "contract IForwarderRegistry",
          "name": "forwarderRegistry",
          "type": "address"
        }
      ],
      "stateMutability": "nonpayable",
      "type": "constructor"
    },
    {
      "inputs": [],
      "name": "AddressMintingLimitReached",
      "type": "error"
    },
    {
      "inputs": [],
      "name": "IllegalInterfaceId",
      "type": "error"
    },
    {
      "inputs": [],
      "name": "InsufficientMintSupply",
      "type": "error"
    },
    {
      "inputs": [],
      "name": "InvalidDiscountPercentages",
      "type": "error"
    },
    {
      "inputs": [],
      "name": "InvalidDiscountThresholds",
      "type": "error"
    },
    {
      "inputs": [],
      "name": "InvalidTimestamps",
      "type": "error"
    },
    {
      "inputs": [],
      "name": "LzDstAddressAlreadySet",
      "type": "error"
    },
    {
      "inputs": [],
      "name": "LzDstAddressNotSet",
      "type": "error"
    },
    {
      "inputs": [],
      "name": "MintingTooManyTokens",
      "type": "error"
    },
    {
      "inputs": [],
      "name": "MintingZeroTokens",
      "type": "error"
    },
    {
      "inputs": [],
      "name": "NotADiamondHand",
      "type": "error"
    },
    {
      "inputs": [],
      "name": "NotADiamondHandNorAGenesisNFTOwner",
      "type": "error"
    },
    {
      "inputs": [
        {
          "internalType": "address",
          "name": "account",
          "type": "address"
        }
      ],
      "name": "NotContractOwner",
      "type": "error"
    },
    {
      "inputs": [],
      "name": "SaleEnded",
      "type": "error"
    },
    {
      "inputs": [],
      "name": "SaleNotStarted",
      "type": "error"
    },
    {
      "anonymous": false,
      "inputs": [
        {
          "indexed": false,
          "internalType": "address",
          "name": "sender",
          "type": "address"
        },
        {
          "indexed": false,
          "internalType": "uint256",
          "name": "nbTokens",
          "type": "uint256"
        },
        {
          "indexed": false,
          "internalType": "uint256",
          "name": "discountThreshold",
          "type": "uint256"
        }
      ],
      "name": "MintInitiated",
      "type": "event"
    },
    {
      "anonymous": false,
      "inputs": [
        {
          "indexed": true,
          "internalType": "address",
          "name": "previousOwner",
          "type": "address"
        },
        {
          "indexed": true,
          "internalType": "address",
          "name": "newOwner",
          "type": "address"
        }
      ],
      "name": "OwnershipTransferred",
      "type": "event"
    },
    {
      "inputs": [],
      "name": "DISCOUNT_PERCENTAGE_1",
      "outputs": [
        {
          "internalType": "uint256",
          "name": "",
          "type": "uint256"
        }
      ],
      "stateMutability": "view",
      "type": "function"
    },
    {
      "inputs": [],
      "name": "DISCOUNT_PERCENTAGE_2",
      "outputs": [
        {
          "internalType": "uint256",
          "name": "",
          "type": "uint256"
        }
      ],
      "stateMutability": "view",
      "type": "function"
    },
    {
      "inputs": [],
      "name": "DISCOUNT_PERCENTAGE_3",
      "outputs": [
        {
          "internalType": "uint256",
          "name": "",
          "type": "uint256"
        }
      ],
      "stateMutability": "view",
      "type": "function"
    },
    {
      "inputs": [],
      "name": "DISCOUNT_THRESHOLD_1",
      "outputs": [
        {
          "internalType": "uint256",
          "name": "",
          "type": "uint256"
        }
      ],
      "stateMutability": "view",
      "type": "function"
    },
    {
      "inputs": [],
      "name": "DISCOUNT_THRESHOLD_2",
      "outputs": [
        {
          "internalType": "uint256",
          "name": "",
          "type": "uint256"
        }
      ],
      "stateMutability": "view",
      "type": "function"
    },
    {
      "inputs": [],
      "name": "DISCOUNT_THRESHOLD_3",
      "outputs": [
        {
          "internalType": "uint256",
          "name": "",
          "type": "uint256"
        }
      ],
      "stateMutability": "view",
      "type": "function"
    },
    {
      "inputs": [],
      "name": "EDU_CREDITS_MANAGER",
      "outputs": [
        {
          "internalType": "contract EDUCreditsManager",
          "name": "",
          "type": "address"
        }
      ],
      "stateMutability": "view",
      "type": "function"
    },
    {
      "inputs": [],
      "name": "GENESIS_TOKEN",
      "outputs": [
        {
          "internalType": "contract IERC1155",
          "name": "",
          "type": "address"
        }
      ],
      "stateMutability": "view",
      "type": "function"
    },
    {
      "inputs": [],
      "name": "LZ_DST_CHAINID",
      "outputs": [
        {
          "internalType": "uint16",
          "name": "",
          "type": "uint16"
        }
      ],
      "stateMutability": "view",
      "type": "function"
    },
    {
      "inputs": [],
      "name": "LZ_ENDPOINT",
      "outputs": [
        {
          "internalType": "contract ILayerZeroEndpoint",
          "name": "",
          "type": "address"
        }
      ],
      "stateMutability": "view",
      "type": "function"
    },
    {
      "inputs": [],
      "name": "MINT_LIMIT_PER_ADDRESS",
      "outputs": [
        {
          "internalType": "uint256",
          "name": "",
          "type": "uint256"
        }
      ],
      "stateMutability": "view",
      "type": "function"
    },
    {
      "inputs": [],
      "name": "MINT_LIMIT_PER_TX",
      "outputs": [
        {
          "internalType": "uint256",
          "name": "",
          "type": "uint256"
        }
      ],
      "stateMutability": "view",
      "type": "function"
    },
    {
      "inputs": [],
      "name": "MINT_PRICE",
      "outputs": [
        {
          "internalType": "uint256",
          "name": "",
          "type": "uint256"
        }
      ],
      "stateMutability": "view",
      "type": "function"
    },
    {
      "inputs": [],
      "name": "MINT_SUPPLY_LIMIT",
      "outputs": [
        {
          "internalType": "uint256",
          "name": "",
          "type": "uint256"
        }
      ],
      "stateMutability": "view",
      "type": "function"
    },
    {
      "inputs": [],
      "name": "PHASE1_START_TIMESTAMP",
      "outputs": [
        {
          "internalType": "uint256",
          "name": "",
          "type": "uint256"
        }
      ],
      "stateMutability": "view",
      "type": "function"
    },
    {
      "inputs": [],
      "name": "PHASE2_START_TIMESTAMP",
      "outputs": [
        {
          "internalType": "uint256",
          "name": "",
          "type": "uint256"
        }
      ],
      "stateMutability": "view",
      "type": "function"
    },
    {
      "inputs": [],
      "name": "PHASE3_START_TIMESTAMP",
      "outputs": [
        {
          "internalType": "uint256",
          "name": "",
          "type": "uint256"
        }
      ],
      "stateMutability": "view",
      "type": "function"
    },
    {
      "inputs": [],
      "name": "SALE_END_TIMESTAMP",
      "outputs": [
        {
          "internalType": "uint256",
          "name": "",
          "type": "uint256"
        }
      ],
      "stateMutability": "view",
      "type": "function"
    },
    {
      "inputs": [],
      "name": "__msgData",
      "outputs": [
        {
          "internalType": "bytes",
          "name": "",
          "type": "bytes"
        }
      ],
      "stateMutability": "view",
      "type": "function"
    },
    {
      "inputs": [
        {
          "internalType": "address",
          "name": "account",
          "type": "address"
        }
      ],
      "name": "canMint",
      "outputs": [
        {
          "internalType": "bool",
          "name": "",
          "type": "bool"
        }
      ],
      "stateMutability": "view",
      "type": "function"
    },
    {
      "inputs": [],
      "name": "currentMintPrice",
      "outputs": [
        {
          "internalType": "uint256",
          "name": "price",
          "type": "uint256"
        },
        {
          "internalType": "uint256",
          "name": "discountThreshold",
          "type": "uint256"
        }
      ],
      "stateMutability": "view",
      "type": "function"
    },
    {
      "inputs": [],
      "name": "currentSalePhase",
      "outputs": [
        {
          "internalType": "uint256",
          "name": "",
          "type": "uint256"
        }
      ],
      "stateMutability": "view",
      "type": "function"
    },
    {
      "inputs": [],
      "name": "forwarderRegistry",
      "outputs": [
        {
          "internalType": "contract IForwarderRegistry",
          "name": "",
          "type": "address"
        }
      ],
      "stateMutability": "view",
      "type": "function"
    },
    {
      "inputs": [
        {
          "internalType": "address",
          "name": "forwarder",
          "type": "address"
        }
      ],
      "name": "isTrustedForwarder",
      "outputs": [
        {
          "internalType": "bool",
          "name": "",
          "type": "bool"
        }
      ],
      "stateMutability": "view",
      "type": "function"
    },
    {
      "inputs": [],
      "name": "lzDstAddress",
      "outputs": [
        {
          "internalType": "address",
          "name": "",
          "type": "address"
        }
      ],
      "stateMutability": "view",
      "type": "function"
    },
    {
      "inputs": [
        {
          "internalType": "uint256",
          "name": "nbTokens",
          "type": "uint256"
        }
      ],
      "name": "mint",
      "outputs": [],
      "stateMutability": "nonpayable",
      "type": "function"
    },
    {
      "inputs": [],
      "name": "mintCount",
      "outputs": [
        {
          "internalType": "uint256",
          "name": "",
          "type": "uint256"
        }
      ],
      "stateMutability": "view",
      "type": "function"
    },
    {
      "inputs": [
        {
          "internalType": "address",
          "name": "",
          "type": "address"
        }
      ],
      "name": "mintCountPerAddress",
      "outputs": [
        {
          "internalType": "uint256",
          "name": "",
          "type": "uint256"
        }
      ],
      "stateMutability": "view",
      "type": "function"
    },
    {
      "inputs": [],
      "name": "owner",
      "outputs": [
        {
          "internalType": "address",
          "name": "",
          "type": "address"
        }
      ],
      "stateMutability": "view",
      "type": "function"
    },
    {
      "inputs": [
        {
          "internalType": "address",
          "name": "lzDstAddress_",
          "type": "address"
        }
      ],
      "name": "setLzDstAddress",
      "outputs": [],
      "stateMutability": "nonpayable",
      "type": "function"
    },
    {
      "inputs": [
        {
          "internalType": "bytes4",
          "name": "interfaceId",
          "type": "bytes4"
        }
      ],
      "name": "supportsInterface",
      "outputs": [
        {
          "internalType": "bool",
          "name": "",
          "type": "bool"
        }
      ],
      "stateMutability": "view",
      "type": "function"
    },
    {
      "inputs": [
        {
          "internalType": "address",
          "name": "newOwner",
          "type": "address"
        }
      ],
      "name": "transferOwnership",
      "outputs": [],
      "stateMutability": "nonpayable",
      "type": "function"
    },
    {
      "inputs": [
        {
          "internalType": "address",
          "name": "to",
          "type": "address"
        }
      ],
      "name": "withdraw",
      "outputs": [],
      "stateMutability": "nonpayable",
      "type": "function"
    },
    {
      "stateMutability": "payable",
      "type": "receive"
    }
  ],
  "bytecode": "0x6102c06040523480156200001257600080fd5b5060405162002c3338038062002c33833981016040819052620000359162000684565b8a8a8a8a8a8a8a8a8a8a8a8080336200005981620000526200045c565b9062000492565b506001600160a01b039081166080528c811660a0528b811660c0528a1660e0525061ffff88166101005261012087905261014086905261016085905283518490600090620000ab57620000ab620007a0565b602002602001015184600181518110620000c957620000c9620007a0565b602002602001015111158062000119575083600181518110620000f057620000f0620007a0565b6020026020010151846002815181106200010e576200010e620007a0565b602002602001015111155b806200015f575083600281518110620001365762000136620007a0565b602002602001015184600381518110620001545762000154620007a0565b602002602001015111155b156200017e5760405163d22806e360e01b815260040160405180910390fd5b83600081518110620001945762000194620007a0565b6020026020010151610180818152505083600181518110620001ba57620001ba620007a0565b60200260200101516101a0818152505083600281518110620001e057620001e0620007a0565b60200260200101516101c0818152505083600381518110620002065762000206620007a0565b60200260200101516101e08181525050826000815181106200022c576200022c620007a0565b6020026020010151836001815181106200024a576200024a620007a0565b60200260200101511115806200029a575082600181518110620002715762000271620007a0565b6020026020010151836002815181106200028f576200028f620007a0565b602002602001015111155b15620002b95760405163ae2a357360e01b815260040160405180910390fd5b82600081518110620002cf57620002cf620007a0565b6020026020010151610200818152505082600181518110620002f557620002f5620007a0565b60200260200101516102208181525050826002815181106200031b576200031b620007a0565b6020026020010151610240818152505081600081518110620003415762000341620007a0565b6020026020010151826001815181106200035f576200035f620007a0565b6020026020010151111580620003af575081600181518110620003865762000386620007a0565b602002602001015182600281518110620003a457620003a4620007a0565b602002602001015111155b15620003ce5760405163ebda279160e01b815260040160405180910390fd5b81600081518110620003e457620003e4620007a0565b60200260200101516102608181525050816001815181106200040a576200040a620007a0565b6020026020010151610280818152505081600281518110620004305762000430620007a0565b60200260200101516102a0818152505050505050505050505050505050505050505050505050620007d8565b6000806200048c60017fc9ed16f33ab3a66c84bfd83099ccb2a8845871e2e1c1928f63797152f0fd54cd620007b6565b92915050565b6001600160a01b03811615620004e95781546001600160a01b0319166001600160a01b03821690811783556040516000907f8be0079c531659141344cd1fd0a4f28419497f9722a3daafe3b4186f6b6457e0908290a35b620005096307f5828d60e41b6001620005016200050d565b91906200053d565b5050565b6000806200048c60017fca9d3e17f264b0f3984e2634e94adb37fa3e6a8103f06aeae6fa59e21c769f5e620007b6565b600160e01b6001600160e01b03198316016200056c576040516372c683bb60e01b815260040160405180910390fd5b6001600160e01b03199190911660009081526020929092526040909120805460ff1916911515919091179055565b80516001600160a01b0381168114620005b257600080fd5b919050565b805161ffff81168114620005b257600080fd5b634e487b7160e01b600052604160045260246000fd5b600082601f830112620005f257600080fd5b815160206001600160401b0380831115620006115762000611620005ca565b8260051b604051601f19603f83011681018181108482111715620006395762000639620005ca565b6040529384528581018301938381019250878511156200065857600080fd5b83870191505b8482101562000679578151835291830191908301906200065e565b979650505050505050565b60008060008060008060008060008060006101608c8e031215620006a757600080fd5b620006b28c6200059a565b9a50620006c260208d016200059a565b9950620006d260408d016200059a565b9850620006e260608d01620005b7565b975060808c0151965060a08c0151955060c08c0151945060e08c015160018060401b038111156200071257600080fd5b620007208e828f01620005e0565b6101008e015190955090506001600160401b038111156200074057600080fd5b6200074e8e828f01620005e0565b6101208e015190945090506001600160401b038111156200076e57600080fd5b6200077c8e828f01620005e0565b9250506200078e6101408d016200059a565b90509295989b509295989b9093969950565b634e487b7160e01b600052603260045260246000fd5b818103818111156200048c57634e487b7160e01b600052601160045260246000fd5b60805160a05160c05160e05161010051610120516101405161016051610180516101a0516101c0516101e05161020051610220516102405161026051610280516102a0516122a76200098c6000396000818161055e01526109250152600081816104b201526109960152600081816107310152610a070152600081816105c601526108f90152600081816102d6015261096a01526000818161035e01526109db0152600081816103b501526118c101526000818161064e01526118ef0152600081816106c9015261191c01526000818161076501526119490152600081816102a201526110eb01526000818161079901526110590152600081816105fa01526108430152600081816106820152818161136a01526114970152600081816106fd0152818161133d01526114530152600081816105920152818161086801528181610caa01528181610d9d01528181611190015281816115d901526116980152600081816107cd01528181610e5b01528181610f190152818161175401526118120152600081816103070152818161041601528181611c8101528181611cbf01528181611df70152611e7f01526122a76000f3fe6080604052600436106102025760003560e01c806396a380451161011d578063c834c979116100b0578063dba535d71161007f578063ef59df2711610064578063ef59df27146107bb578063f2fde38b146107ef578063f53da97e1461080f57600080fd5b8063dba535d714610753578063e36d82051461078757600080fd5b8063c834c97914610670578063c8767f2f146106b7578063cd4d1c64146106eb578063d7f621631461071f57600080fd5b8063b68ba08b116100ec578063b68ba08b146105b4578063c002d23d146105e8578063c2ba47441461061c578063c48235041461063c57600080fd5b806396a38045146104ff578063a0712d681461052c578063a0e5d7701461054c578063ae8384d01461058057600080fd5b80634210830d116101955780636dc407f9116101645780636dc407f91461047357806381204203146104a05780638da5cb5b146104d45780639659867e146104e957600080fd5b80634210830d146103a357806351cff8d9146103d7578063572b6c05146103f957806357e33a271461045357600080fd5b80631d1f42ec116101d15780631d1f42ec146102c45780632b4c9f16146102f85780632d3ccf3f1461034c57806331e66e1e1461038057600080fd5b806301ffc9a71461020e5780630561942a1461024357806318ab42c51461026d5780631a5030371461029057600080fd5b3661020957005b600080fd5b34801561021a57600080fd5b5061022e610229366004611f2c565b610824565b60405190151581526020015b60405180910390f35b34801561024f57600080fd5b5061025861083e565b6040805192835260208301919091520161023a565b34801561027957600080fd5b50610282600a81565b60405190815260200161023a565b34801561029c57600080fd5b506102827f000000000000000000000000000000000000000000000000000000000000000081565b3480156102d057600080fd5b506102827f000000000000000000000000000000000000000000000000000000000000000081565b34801561030457600080fd5b507f00000000000000000000000000000000000000000000000000000000000000005b60405173ffffffffffffffffffffffffffffffffffffffff909116815260200161023a565b34801561035857600080fd5b506102827f000000000000000000000000000000000000000000000000000000000000000081565b34801561038c57600080fd5b50610395610a4c565b60405161023a929190611f6e565b3480156103af57600080fd5b506102827f000000000000000000000000000000000000000000000000000000000000000081565b3480156103e357600080fd5b506103f76103f2366004611fbb565b610a5f565b005b34801561040557600080fd5b5061022e610414366004611fbb565b7f000000000000000000000000000000000000000000000000000000000000000073ffffffffffffffffffffffffffffffffffffffff90811691161490565b34801561045f57600080fd5b506103f761046e366004611fbb565b610ac8565b34801561047f57600080fd5b5061028261048e366004611fbb565b60026020526000908152604090205481565b3480156104ac57600080fd5b506102827f000000000000000000000000000000000000000000000000000000000000000081565b3480156104e057600080fd5b50610327610b6a565b3480156104f557600080fd5b5061028260015481565b34801561050b57600080fd5b506000546103279073ffffffffffffffffffffffffffffffffffffffff1681565b34801561053857600080fd5b506103f7610547366004611ff1565b610b96565b34801561055857600080fd5b506102827f000000000000000000000000000000000000000000000000000000000000000081565b34801561058c57600080fd5b506103277f000000000000000000000000000000000000000000000000000000000000000081565b3480156105c057600080fd5b506102827f000000000000000000000000000000000000000000000000000000000000000081565b3480156105f457600080fd5b506102827f000000000000000000000000000000000000000000000000000000000000000081565b34801561062857600080fd5b5061022e610637366004611fbb565b61156e565b34801561064857600080fd5b506102827f000000000000000000000000000000000000000000000000000000000000000081565b34801561067c57600080fd5b506106a47f000000000000000000000000000000000000000000000000000000000000000081565b60405161ffff909116815260200161023a565b3480156106c357600080fd5b506102827f000000000000000000000000000000000000000000000000000000000000000081565b3480156106f757600080fd5b506103277f000000000000000000000000000000000000000000000000000000000000000081565b34801561072b57600080fd5b506102827f000000000000000000000000000000000000000000000000000000000000000081565b34801561075f57600080fd5b506102827f000000000000000000000000000000000000000000000000000000000000000081565b34801561079357600080fd5b506102827f000000000000000000000000000000000000000000000000000000000000000081565b3480156107c757600080fd5b506103277f000000000000000000000000000000000000000000000000000000000000000081565b3480156107fb57600080fd5b506103f761080a366004611fbb565b61189f565b34801561081b57600080fd5b506102826118bd565b60006108388261083261197a565b906119a8565b92915050565b6000807f0000000000000000000000000000000000000000000000000000000000000000915060007f000000000000000000000000000000000000000000000000000000000000000073ffffffffffffffffffffffffffffffffffffffff1663b5bd3eb96040518163ffffffff1660e01b8152600401602060405180830381865afa1580156108d1573d6000803e3d6000fd5b505050506040513d601f19601f820116820180604052508101906108f5919061200a565b90507f0000000000000000000000000000000000000000000000000000000000000000811061096857606461094a7f000000000000000000000000000000000000000000000000000000000000000082612052565b6109549085612065565b61095e919061207c565b9360039350915050565b7f000000000000000000000000000000000000000000000000000000000000000081106109d95760646109bb7f000000000000000000000000000000000000000000000000000000000000000082612052565b6109c59085612065565b6109cf919061207c565b9360029350915050565b7f00000000000000000000000000000000000000000000000000000000000000008110610a47576064610a2c7f000000000000000000000000000000000000000000000000000000000000000082612052565b610a369085612065565b610a40919061207c565b9250600191505b509091565b366000610a57611a82565b915091509091565b610a78610a6a611a8d565b610a72611a97565b90611ac5565b478015610ac45760405173ffffffffffffffffffffffffffffffffffffffff83169082156108fc029083906000818181858888f19350505050158015610ac2573d6000803e3d6000fd5b505b5050565b610ad3610a6a611a8d565b60005473ffffffffffffffffffffffffffffffffffffffff1615610b23576040517f5ccf468900000000000000000000000000000000000000000000000000000000815260040160405180910390fd5b600080547fffffffffffffffffffffffff00000000000000000000000000000000000000001673ffffffffffffffffffffffffffffffffffffffff92909216919091179055565b6000610b91610b77611a97565b5473ffffffffffffffffffffffffffffffffffffffff1690565b905090565b80600003610bd0576040517f445dc49e00000000000000000000000000000000000000000000000000000000815260040160405180910390fd5b600a811115610c0b576040517f8a0cd58100000000000000000000000000000000000000000000000000000000815260040160405180910390fd5b6000610c15611a8d565b90506000610c216118bd565b905080600003610c5d576040517f2d0a346e00000000000000000000000000000000000000000000000000000000815260040160405180910390fd5b80600103610d50576040517f508fc90500000000000000000000000000000000000000000000000000000000815273ffffffffffffffffffffffffffffffffffffffff83811660048301527f0000000000000000000000000000000000000000000000000000000000000000169063508fc90590602401602060405180830381865afa158015610cf1573d6000803e3d6000fd5b505050506040513d601f19601f82011682018060405250810190610d1591906120b7565b610d4b576040517fdc460b7300000000000000000000000000000000000000000000000000000000815260040160405180910390fd5b610ff6565b80600203610fbc576040517f508fc90500000000000000000000000000000000000000000000000000000000815273ffffffffffffffffffffffffffffffffffffffff83811660048301527f0000000000000000000000000000000000000000000000000000000000000000169063508fc90590602401602060405180830381865afa158015610de4573d6000803e3d6000fd5b505050506040513d601f19601f82011682018060405250810190610e0891906120b7565b158015610ec757506040517efdd58e00000000000000000000000000000000000000000000000000000000815273ffffffffffffffffffffffffffffffffffffffff8381166004830152600060248301527f0000000000000000000000000000000000000000000000000000000000000000169062fdd58e90604401602060405180830381865afa158015610ea1573d6000803e3d6000fd5b505050506040513d601f19601f82011682018060405250810190610ec5919061200a565b155b8015610f8557506040517efdd58e00000000000000000000000000000000000000000000000000000000815273ffffffffffffffffffffffffffffffffffffffff8381166004830152600160248301527f0000000000000000000000000000000000000000000000000000000000000000169062fdd58e90604401602060405180830381865afa158015610f5f573d6000803e3d6000fd5b505050506040513d601f19601f82011682018060405250810190610f83919061200a565b155b15610d4b576040517feca8f22000000000000000000000000000000000000000000000000000000000815260040160405180910390fd5b60038114610ff6576040517f0bd8a3eb00000000000000000000000000000000000000000000000000000000815260040160405180910390fd5b60005473ffffffffffffffffffffffffffffffffffffffff1680611046576040517fb9281de400000000000000000000000000000000000000000000000000000000815260040160405180910390fd5b600154600061105586836120d9565b90507f00000000000000000000000000000000000000000000000000000000000000008111156110b1576040517f7b838b0200000000000000000000000000000000000000000000000000000000815260040160405180910390fd5b600181905573ffffffffffffffffffffffffffffffffffffffff8516600090815260026020526040812054906110e788836120d9565b90507f0000000000000000000000000000000000000000000000000000000000000000811115611143576040517f5cc9ef7100000000000000000000000000000000000000000000000000000000815260040160405180910390fd5b73ffffffffffffffffffffffffffffffffffffffff871660009081526002602052604081208290558061117461083e565b909250905073ffffffffffffffffffffffffffffffffffffffff7f00000000000000000000000000000000000000000000000000000000000000001663af7d6ca38a6111c08d86612065565b6040517fffffffff0000000000000000000000000000000000000000000000000000000060e085901b16815273ffffffffffffffffffffffffffffffffffffffff90921660048301526024820152604401600060405180830381600087803b15801561122b57600080fd5b505af115801561123f573d6000803e3d6000fd5b50506040805173ffffffffffffffffffffffffffffffffffffffff8d1660208201528082018e9052815180820383018152606090910190915291506000905061128a8c617530612065565b611297906201e8486120d9565b6040517e01000000000000000000000000000000000000000000000000000000000000602082015260228101829052909150600090604201604080517fffffffffffffffffffffffffffffffffffffffffffffffffffffffffffffffe0818403018152908290527f40a7bb10000000000000000000000000000000000000000000000000000000008252915060009073ffffffffffffffffffffffffffffffffffffffff7f000000000000000000000000000000000000000000000000000000000000000016906340a7bb109061139a907f0000000000000000000000000000000000000000000000000000000000000000908f90899087908990600401612150565b6040805180830381865afa1580156113b6573d6000803e3d6000fd5b505050506040513d601f19601f820116820180604052508101906113da91906121af565b506040805160608e811b7fffffffffffffffffffffffffffffffffffffffff0000000000000000000000009081166020840152309182901b1660348301528251602881840301815260488301938490527fc5803100000000000000000000000000000000000000000000000000000000009093529293507f000000000000000000000000000000000000000000000000000000000000000073ffffffffffffffffffffffffffffffffffffffff169263c58031009285926114c8927f000000000000000000000000000000000000000000000000000000000000000092918b91906000908b90604c016121d3565b6000604051808303818588803b1580156114e157600080fd5b505af11580156114f5573d6000803e3d6000fd5b50505050507f6b9646daf37cd2bfd6cf46c729da3ea690a73a6555404e5f0299e15a865ed3848d8f876040516115569392919073ffffffffffffffffffffffffffffffffffffffff9390931683526020830191909152604082015260600190565b60405180910390a15050505050505050505050505050565b6000806115796118bd565b90508060000361158c5750600092915050565b8060010361164b576040517f508fc90500000000000000000000000000000000000000000000000000000000815273ffffffffffffffffffffffffffffffffffffffff84811660048301527f0000000000000000000000000000000000000000000000000000000000000000169063508fc90590602401602060405180830381865afa158015611620573d6000803e3d6000fd5b505050506040513d601f19601f8201168201806040525081019061164491906120b7565b9392505050565b80600203611885576040517f508fc90500000000000000000000000000000000000000000000000000000000815273ffffffffffffffffffffffffffffffffffffffff84811660048301527f0000000000000000000000000000000000000000000000000000000000000000169063508fc90590602401602060405180830381865afa1580156116df573d6000803e3d6000fd5b505050506040513d601f19601f8201168201806040525081019061170391906120b7565b806117c157506040517efdd58e00000000000000000000000000000000000000000000000000000000815273ffffffffffffffffffffffffffffffffffffffff8481166004830152600060248301527f0000000000000000000000000000000000000000000000000000000000000000169062fdd58e90604401602060405180830381865afa15801561179a573d6000803e3d6000fd5b505050506040513d601f19601f820116820180604052508101906117be919061200a565b15155b8061164457506040517efdd58e00000000000000000000000000000000000000000000000000000000815273ffffffffffffffffffffffffffffffffffffffff8481166004830152600160248301527f0000000000000000000000000000000000000000000000000000000000000000169062fdd58e90604401602060405180830381865afa158015611858573d6000803e3d6000fd5b505050506040513d601f19601f8201168201806040525081019061187c919061200a565b15159392505050565b806003036118965750600192915050565b50600092915050565b6118ba6118aa611a8d565b826118b3611a97565b9190611b35565b50565b60007f00000000000000000000000000000000000000000000000000000000000000004211156118ed5750600490565b7f0000000000000000000000000000000000000000000000000000000000000000421061191a5750600390565b7f000000000000000000000000000000000000000000000000000000000000000042106119475750600290565b7f000000000000000000000000000000000000000000000000000000000000000042106119745750600190565b50600090565b60008061083860017fca9d3e17f264b0f3984e2634e94adb37fa3e6a8103f06aeae6fa59e21c769f5e612052565b60007c01000000000000000000000000000000000000000000000000000000007fffffffff000000000000000000000000000000000000000000000000000000008316016119f857506000610838565b7ffe003659000000000000000000000000000000000000000000000000000000007fffffffff00000000000000000000000000000000000000000000000000000000831601611a4957506001610838565b507fffffffff00000000000000000000000000000000000000000000000000000000166000908152602091909152604090205460ff1690565b366000610a57611c4a565b6000610b91611db4565b60008061083860017fc9ed16f33ab3a66c84bfd83099ccb2a8845871e2e1c1928f63797152f0fd54cd612052565b815473ffffffffffffffffffffffffffffffffffffffff828116911614610ac4576040517f2ef4875e00000000000000000000000000000000000000000000000000000000815273ffffffffffffffffffffffffffffffffffffffff821660048201526024015b60405180910390fd5b825473ffffffffffffffffffffffffffffffffffffffff9081169083168114611ba2576040517f2ef4875e00000000000000000000000000000000000000000000000000000000815273ffffffffffffffffffffffffffffffffffffffff84166004820152602401611b2c565b8173ffffffffffffffffffffffffffffffffffffffff168173ffffffffffffffffffffffffffffffffffffffff1614611c445783547fffffffffffffffffffffffff00000000000000000000000000000000000000001673ffffffffffffffffffffffffffffffffffffffff8381169182178655604051908316907f8be0079c531659141344cd1fd0a4f28419497f9722a3daafe3b4186f6b6457e090600090a35b50505050565b36600033321480611c5b5750601836105b15611c695750600091369150565b3373ffffffffffffffffffffffffffffffffffffffff7f0000000000000000000000000000000000000000000000000000000000000000161480611d9e575073ffffffffffffffffffffffffffffffffffffffff7f000000000000000000000000000000000000000000000000000000000000000016638929a8ca367fffffffffffffffffffffffffffffffffffffffffffffffffffffffffffffffec013560601c6040517fffffffff0000000000000000000000000000000000000000000000000000000060e084901b16815273ffffffffffffffffffffffffffffffffffffffff9091166004820152336024820152604401602060405180830381865afa158015611d7a573d6000803e3d6000fd5b505050506040513d601f19601f82011682018060405250810190611d9e91906120b7565b15611dab57610a57611efb565b50600091369150565b600033321480611dc45750601836105b15611dce57503390565b7fffffffffffffffffffffffffffffffffffffffffffffffffffffffffffffffec36013560601c7f000000000000000000000000000000000000000000000000000000000000000073ffffffffffffffffffffffffffffffffffffffff16331480611eea57506040517f8929a8ca00000000000000000000000000000000000000000000000000000000815273ffffffffffffffffffffffffffffffffffffffff82811660048301523360248301527f00000000000000000000000000000000000000000000000000000000000000001690638929a8ca90604401602060405180830381865afa158015611ec6573d6000803e3d6000fd5b505050506040513d601f19601f82011682018060405250810190611eea91906120b7565b15611ef457919050565b3391505090565b366000610a577fffffffffffffffffffffffffffffffffffffffffffffffffffffffffffffffec8301828481612247565b600060208284031215611f3e57600080fd5b81357fffffffff000000000000000000000000000000000000000000000000000000008116811461164457600080fd5b60208152816020820152818360408301376000818301604090810191909152601f9092017fffffffffffffffffffffffffffffffffffffffffffffffffffffffffffffffe0160101919050565b600060208284031215611fcd57600080fd5b813573ffffffffffffffffffffffffffffffffffffffff8116811461164457600080fd5b60006020828403121561200357600080fd5b5035919050565b60006020828403121561201c57600080fd5b5051919050565b7f4e487b7100000000000000000000000000000000000000000000000000000000600052601160045260246000fd5b8181038181111561083857610838612023565b808202811582820484141761083857610838612023565b6000826120b2577f4e487b7100000000000000000000000000000000000000000000000000000000600052601260045260246000fd5b500490565b6000602082840312156120c957600080fd5b8151801515811461164457600080fd5b8082018082111561083857610838612023565b6000815180845260005b81811015612112576020818501810151868301820152016120f6565b5060006020828601015260207fffffffffffffffffffffffffffffffffffffffffffffffffffffffffffffffe0601f83011685010191505092915050565b61ffff8616815273ffffffffffffffffffffffffffffffffffffffff8516602082015260a06040820152600061218960a08301866120ec565b841515606084015282810360808401526121a381856120ec565b98975050505050505050565b600080604083850312156121c257600080fd5b505080516020909101519092909150565b61ffff8716815260c0602082015260006121f060c08301886120ec565b828103604084015261220281886120ec565b73ffffffffffffffffffffffffffffffffffffffff87811660608601528616608085015283810360a0850152905061223a81856120ec565b9998505050505050505050565b6000808585111561225757600080fd5b8386111561226457600080fd5b505082019391909203915056fea26469706673582212200ab493deb209c51d864c22aa0ab5a2c394b15decda6cde994bfc988e26cb333264736f6c63430008150033",
  "linkReferences": {},
  "deployedLinkReferences": {}
}