{
  "_format": "hh-sol-artifact-1",
  "contractName": "EDULandRentalFeeHelper",
  "sourceName": "contracts/land/EDULandRentalFeeHelper.sol",
  "abi": [
    {
      "inputs": [],
      "name": "DEVIDER",
      "outputs": [
        {
          "internalType": "uint256",
          "name": "",
          "type": "uint256"
        }
      ],
      "stateMutability": "view",
      "type": "function"
    },
    {
      "inputs": [],
      "name": "LN2_WITH_POWER_10_18",
      "outputs": [
        {
          "internalType": "uint256",
          "name": "",
          "type": "uint256"
        }
      ],
      "stateMutability": "view",
      "type": "function"
    },
    {
      "inputs": [],
      "name": "POWER_10_18",
      "outputs": [
        {
          "internalType": "uint256",
          "name": "",
          "type": "uint256"
        }
      ],
      "stateMutability": "view",
      "type": "function"
    },
    {
      "inputs": [],
      "name": "STARTING_PRICE",
      "outputs": [
        {
          "internalType": "uint256",
          "name": "",
          "type": "uint256"
        }
      ],
      "stateMutability": "view",
      "type": "function"
    },
    {
      "inputs": [
        {
          "internalType": "uint256",
          "name": "totalEffectiveRentalTime",
          "type": "uint256"
        }
      ],
      "name": "calulatePrice",
      "outputs": [
        {
          "internalType": "uint256",
          "name": "",
          "type": "uint256"
        }
      ],
      "stateMutability": "pure",
      "type": "function"
    }
  ],
  "bytecode": "0x608060405234801561001057600080fd5b50610293806100206000396000f3fe608060405234801561001057600080fd5b50600436106100675760003560e01c8063d12f702911610050578063d12f702914610095578063daccb8bd1461009e578063ef1130e7146100ad57600080fd5b806381e108061461006c57806387c5242c1461008d575b600080fd5b61007b67099e8db03256ce5d81565b60405190815260200160405180910390f35b61007b606481565b61007b6101f481565b61007b670de0b6b3a764000081565b61007b6100bb3660046101b0565b6000670de0b6b3a764000067099e8db03256ce5d6101f46100e56100e06064876101f8565b61011c565b6100ee8661011c565b6100f89190610233565b6101029190610246565b61010c9190610246565b61011691906101f8565b92915050565b600080608083901c1561013157608092831c92015b604083901c1561014357604092831c92015b602083901c1561015557602092831c92015b601083901c1561016757601092831c92015b600883901c1561017957600892831c92015b600483901c1561018b57600492831c92015b600283901c1561019d57600292831c92015b600183901c156101165760010192915050565b6000602082840312156101c257600080fd5b5035919050565b7f4e487b7100000000000000000000000000000000000000000000000000000000600052601160045260246000fd5b60008261022e577f4e487b7100000000000000000000000000000000000000000000000000000000600052601260045260246000fd5b500490565b80820180821115610116576101166101c9565b8082028115828204841417610116576101166101c956fea264697066735822122019d56f9864fb3c99a405d5a808f839122e344ccac86449cba1c4e66397fe5efc64736f6c63430008160033",
  "linkReferences": {},
  "deployedLinkReferences": {}
}