{
  "_format": "hh-sol-artifact-1",
  "contractName": "EDUCreditsManagerMock",
  "sourceName": "contracts/mocks/payment/EDUCreditsManagerMock.sol",
  "abi": [
    {
      "inputs": [
        {
          "internalType": "contract IERC20",
          "name": "eduToken",
          "type": "address"
        },
        {
          "internalType": "address payable",
          "name": "payoutWallet",
          "type": "address"
        },
        {
          "internalType": "address",
          "name": "unclaimedEDUHolder",
          "type": "address"
        },
        {
          "internalType": "contract IForwarderRegistry",
          "name": "forwarderRegistry",
          "type": "address"
        }
      ],
      "stateMutability": "nonpayable",
      "type": "constructor"
    },
    {
      "inputs": [],
      "name": "IllegalInterfaceId",
      "type": "error"
    },
    {
      "inputs": [],
      "name": "InconsistentArrayLengths",
      "type": "error"
    },
    {
      "inputs": [
        {
          "internalType": "address",
          "name": "spender",
          "type": "address"
        },
        {
          "internalType": "address",
          "name": "user",
          "type": "address"
        },
        {
          "internalType": "uint256",
          "name": "amount",
          "type": "uint256"
        }
      ],
      "name": "InsufficientCredits",
      "type": "error"
    },
    {
      "inputs": [
        {
          "internalType": "address",
          "name": "account",
          "type": "address"
        }
      ],
      "name": "NotContractOwner",
      "type": "error"
    },
    {
      "inputs": [
        {
          "internalType": "bytes32",
          "name": "role",
          "type": "bytes32"
        },
        {
          "internalType": "address",
          "name": "account",
          "type": "address"
        }
      ],
      "name": "NotRoleHolder",
      "type": "error"
    },
    {
      "inputs": [
        {
          "internalType": "uint256",
          "name": "expectedPhase",
          "type": "uint256"
        },
        {
          "internalType": "uint256",
          "name": "actualPhase",
          "type": "uint256"
        }
      ],
      "name": "OnlyDuringPhase",
      "type": "error"
    },
    {
      "inputs": [
        {
          "internalType": "uint256",
          "name": "phase",
          "type": "uint256"
        }
      ],
      "name": "SettingInvalidPhase",
      "type": "error"
    },
    {
      "inputs": [
        {
          "internalType": "uint256",
          "name": "recoverable",
          "type": "uint256"
        },
        {
          "internalType": "uint256",
          "name": "recovering",
          "type": "uint256"
        }
      ],
      "name": "UnrecoverableEDU",
      "type": "error"
    },
    {
      "inputs": [
        {
          "internalType": "address",
          "name": "user",
          "type": "address"
        }
      ],
      "name": "UserCreditsAlreadySet",
      "type": "error"
    },
    {
      "inputs": [],
      "name": "ZeroAddressPayoutWallet",
      "type": "error"
    },
    {
      "inputs": [],
      "name": "ZeroAddressUser",
      "type": "error"
    },
    {
      "inputs": [
        {
          "internalType": "address",
          "name": "spender",
          "type": "address"
        },
        {
          "internalType": "address",
          "name": "user",
          "type": "address"
        }
      ],
      "name": "ZeroSpendAmount",
      "type": "error"
    },
    {
      "inputs": [
        {
          "internalType": "address",
          "name": "user",
          "type": "address"
        }
      ],
      "name": "ZeroValueUnclaimedCredits",
      "type": "error"
    },
    {
      "anonymous": false,
      "inputs": [
        {
          "indexed": false,
          "internalType": "address",
          "name": "spender",
          "type": "address"
        },
        {
          "indexed": false,
          "internalType": "address",
          "name": "user",
          "type": "address"
        },
        {
          "indexed": false,
          "internalType": "uint256",
          "name": "bonusSpent",
          "type": "uint256"
        },
        {
          "indexed": false,
          "internalType": "uint256",
          "name": "unclaimedSpent",
          "type": "uint256"
        },
        {
          "indexed": false,
          "internalType": "uint256",
          "name": "depositedSpent",
          "type": "uint256"
        }
      ],
      "name": "CreditsSpent",
      "type": "event"
    },
    {
      "anonymous": false,
      "inputs": [
        {
          "indexed": false,
          "internalType": "address[]",
          "name": "users",
          "type": "address[]"
        },
        {
          "indexed": false,
          "internalType": "uint256[]",
          "name": "unclaimed",
          "type": "uint256[]"
        },
        {
          "indexed": false,
          "internalType": "uint256[]",
          "name": "bonus",
          "type": "uint256[]"
        },
        {
          "indexed": false,
          "internalType": "bool[]",
          "name": "diamondHands",
          "type": "bool[]"
        }
      ],
      "name": "InitialCreditsSet",
      "type": "event"
    },
    {
      "anonymous": false,
      "inputs": [
        {
          "indexed": true,
          "internalType": "address",
          "name": "previousOwner",
          "type": "address"
        },
        {
          "indexed": true,
          "internalType": "address",
          "name": "newOwner",
          "type": "address"
        }
      ],
      "name": "OwnershipTransferred",
      "type": "event"
    },
    {
      "anonymous": false,
      "inputs": [
        {
          "indexed": false,
          "internalType": "address",
          "name": "payoutWallet",
          "type": "address"
        }
      ],
      "name": "PayoutWalletSet",
      "type": "event"
    },
    {
      "anonymous": false,
      "inputs": [
        {
          "indexed": false,
          "internalType": "uint256",
          "name": "phase",
          "type": "uint256"
        }
      ],
      "name": "PhaseSet",
      "type": "event"
    },
    {
      "anonymous": false,
      "inputs": [
        {
          "indexed": false,
          "internalType": "bytes32",
          "name": "role",
          "type": "bytes32"
        },
        {
          "indexed": false,
          "internalType": "address",
          "name": "account",
          "type": "address"
        },
        {
          "indexed": false,
          "internalType": "address",
          "name": "operator",
          "type": "address"
        }
      ],
      "name": "RoleGranted",
      "type": "event"
    },
    {
      "anonymous": false,
      "inputs": [
        {
          "indexed": false,
          "internalType": "bytes32",
          "name": "role",
          "type": "bytes32"
        },
        {
          "indexed": false,
          "internalType": "address",
          "name": "account",
          "type": "address"
        },
        {
          "indexed": false,
          "internalType": "address",
          "name": "operator",
          "type": "address"
        }
      ],
      "name": "RoleRevoked",
      "type": "event"
    },
    {
      "inputs": [],
      "name": "DEPOSIT_PHASE",
      "outputs": [
        {
          "internalType": "uint256",
          "name": "",
          "type": "uint256"
        }
      ],
      "stateMutability": "view",
      "type": "function"
    },
    {
      "inputs": [],
      "name": "EDU_TOKEN",
      "outputs": [
        {
          "internalType": "contract IERC20",
          "name": "",
          "type": "address"
        }
      ],
      "stateMutability": "view",
      "type": "function"
    },
    {
      "inputs": [],
      "name": "INIT_PHASE",
      "outputs": [
        {
          "internalType": "uint256",
          "name": "",
          "type": "uint256"
        }
      ],
      "stateMutability": "view",
      "type": "function"
    },
    {
      "inputs": [],
      "name": "SALE_PHASE",
      "outputs": [
        {
          "internalType": "uint256",
          "name": "",
          "type": "uint256"
        }
      ],
      "stateMutability": "view",
      "type": "function"
    },
    {
      "inputs": [],
      "name": "SPENDER_ROLE",
      "outputs": [
        {
          "internalType": "bytes32",
          "name": "",
          "type": "bytes32"
        }
      ],
      "stateMutability": "view",
      "type": "function"
    },
    {
      "inputs": [],
      "name": "UNCLAIMED_EDU_HOLDER",
      "outputs": [
        {
          "internalType": "address",
          "name": "",
          "type": "address"
        }
      ],
      "stateMutability": "view",
      "type": "function"
    },
    {
      "inputs": [],
      "name": "WITHDRAW_PHASE",
      "outputs": [
        {
          "internalType": "uint256",
          "name": "",
          "type": "uint256"
        }
      ],
      "stateMutability": "view",
      "type": "function"
    },
    {
      "inputs": [],
      "name": "__msgData",
      "outputs": [
        {
          "internalType": "bytes",
          "name": "",
          "type": "bytes"
        }
      ],
      "stateMutability": "view",
      "type": "function"
    },
    {
      "inputs": [
        {
          "internalType": "address",
          "name": "",
          "type": "address"
        }
      ],
      "name": "bonus",
      "outputs": [
        {
          "internalType": "uint256",
          "name": "",
          "type": "uint256"
        }
      ],
      "stateMutability": "view",
      "type": "function"
    },
    {
      "inputs": [],
      "name": "currentPhase",
      "outputs": [
        {
          "internalType": "uint256",
          "name": "",
          "type": "uint256"
        }
      ],
      "stateMutability": "view",
      "type": "function"
    },
    {
      "inputs": [
        {
          "internalType": "address",
          "name": "",
          "type": "address"
        }
      ],
      "name": "deposited",
      "outputs": [
        {
          "internalType": "uint256",
          "name": "",
          "type": "uint256"
        }
      ],
      "stateMutability": "view",
      "type": "function"
    },
    {
      "inputs": [
        {
          "internalType": "address",
          "name": "",
          "type": "address"
        }
      ],
      "name": "diamondHand",
      "outputs": [
        {
          "internalType": "bool",
          "name": "",
          "type": "bool"
        }
      ],
      "stateMutability": "view",
      "type": "function"
    },
    {
      "inputs": [],
      "name": "forwarderRegistry",
      "outputs": [
        {
          "internalType": "contract IForwarderRegistry",
          "name": "",
          "type": "address"
        }
      ],
      "stateMutability": "view",
      "type": "function"
    },
    {
      "inputs": [
        {
          "internalType": "bytes32",
          "name": "role",
          "type": "bytes32"
        },
        {
          "internalType": "address",
          "name": "account",
          "type": "address"
        }
      ],
      "name": "grantRole",
      "outputs": [],
      "stateMutability": "nonpayable",
      "type": "function"
    },
    {
      "inputs": [
        {
          "internalType": "bytes32",
          "name": "role",
          "type": "bytes32"
        },
        {
          "internalType": "address",
          "name": "account",
          "type": "address"
        }
      ],
      "name": "hasRole",
      "outputs": [
        {
          "internalType": "bool",
          "name": "hasRole_",
          "type": "bool"
        }
      ],
      "stateMutability": "view",
      "type": "function"
    },
    {
      "inputs": [
        {
          "internalType": "address",
          "name": "forwarder",
          "type": "address"
        }
      ],
      "name": "isTrustedForwarder",
      "outputs": [
        {
          "internalType": "bool",
          "name": "",
          "type": "bool"
        }
      ],
      "stateMutability": "view",
      "type": "function"
    },
    {
      "inputs": [
        {
          "internalType": "address",
          "name": "",
          "type": "address"
        },
        {
          "internalType": "address",
          "name": "from",
          "type": "address"
        },
        {
          "internalType": "uint256",
          "name": "value",
          "type": "uint256"
        },
        {
          "internalType": "bytes",
          "name": "",
          "type": "bytes"
        }
      ],
      "name": "onERC20Received",
      "outputs": [
        {
          "internalType": "bytes4",
          "name": "magicValue",
          "type": "bytes4"
        }
      ],
      "stateMutability": "nonpayable",
      "type": "function"
    },
    {
      "inputs": [],
      "name": "owner",
      "outputs": [
        {
          "internalType": "address",
          "name": "",
          "type": "address"
        }
      ],
      "stateMutability": "view",
      "type": "function"
    },
    {
      "inputs": [],
      "name": "payoutWallet",
      "outputs": [
        {
          "internalType": "address payable",
          "name": "wallet",
          "type": "address"
        }
      ],
      "stateMutability": "view",
      "type": "function"
    },
    {
      "inputs": [
        {
          "internalType": "address[]",
          "name": "accounts",
          "type": "address[]"
        },
        {
          "internalType": "contract IERC20[]",
          "name": "tokens",
          "type": "address[]"
        },
        {
          "internalType": "uint256[]",
          "name": "amounts",
          "type": "uint256[]"
        }
      ],
      "name": "recoverERC20s",
      "outputs": [],
      "stateMutability": "nonpayable",
      "type": "function"
    },
    {
      "inputs": [
        {
          "internalType": "address[]",
          "name": "accounts",
          "type": "address[]"
        },
        {
          "internalType": "contract IERC721[]",
          "name": "contracts",
          "type": "address[]"
        },
        {
          "internalType": "uint256[]",
          "name": "tokenIds",
          "type": "uint256[]"
        }
      ],
      "name": "recoverERC721s",
      "outputs": [],
      "stateMutability": "nonpayable",
      "type": "function"
    },
    {
      "inputs": [
        {
          "internalType": "address payable[]",
          "name": "accounts",
          "type": "address[]"
        },
        {
          "internalType": "uint256[]",
          "name": "amounts",
          "type": "uint256[]"
        }
      ],
      "name": "recoverETH",
      "outputs": [],
      "stateMutability": "nonpayable",
      "type": "function"
    },
    {
      "inputs": [
        {
          "internalType": "bytes32",
          "name": "role",
          "type": "bytes32"
        }
      ],
      "name": "renounceRole",
      "outputs": [],
      "stateMutability": "nonpayable",
      "type": "function"
    },
    {
      "inputs": [
        {
          "internalType": "bytes32",
          "name": "role",
          "type": "bytes32"
        },
        {
          "internalType": "address",
          "name": "account",
          "type": "address"
        }
      ],
      "name": "revokeRole",
      "outputs": [],
      "stateMutability": "nonpayable",
      "type": "function"
    },
    {
      "inputs": [
        {
          "internalType": "address[]",
          "name": "users",
          "type": "address[]"
        },
        {
          "internalType": "uint256[]",
          "name": "unclaimedCredits",
          "type": "uint256[]"
        },
        {
          "internalType": "uint256[]",
          "name": "bonusCredits",
          "type": "uint256[]"
        },
        {
          "internalType": "bool[]",
          "name": "diamondHands",
          "type": "bool[]"
        }
      ],
      "name": "setInitialCredits",
      "outputs": [],
      "stateMutability": "nonpayable",
      "type": "function"
    },
    {
      "inputs": [
        {
          "internalType": "address payable",
          "name": "newPayoutWallet",
          "type": "address"
        }
      ],
      "name": "setPayoutWallet",
      "outputs": [],
      "stateMutability": "nonpayable",
      "type": "function"
    },
    {
      "inputs": [
        {
          "internalType": "uint256",
          "name": "phase",
          "type": "uint256"
        }
      ],
      "name": "setPhase",
      "outputs": [],
      "stateMutability": "nonpayable",
      "type": "function"
    },
    {
      "inputs": [
        {
          "internalType": "address",
          "name": "user",
          "type": "address"
        },
        {
          "internalType": "uint256",
          "name": "amount",
          "type": "uint256"
        }
      ],
      "name": "spend",
      "outputs": [],
      "stateMutability": "nonpayable",
      "type": "function"
    },
    {
      "inputs": [
        {
          "internalType": "bytes4",
          "name": "interfaceId",
          "type": "bytes4"
        }
      ],
      "name": "supportsInterface",
      "outputs": [
        {
          "internalType": "bool",
          "name": "",
          "type": "bool"
        }
      ],
      "stateMutability": "view",
      "type": "function"
    },
    {
      "inputs": [],
      "name": "totalCredits",
      "outputs": [
        {
          "internalType": "uint256",
          "name": "",
          "type": "uint256"
        }
      ],
      "stateMutability": "view",
      "type": "function"
    },
    {
      "inputs": [],
      "name": "totalDeposited",
      "outputs": [
        {
          "internalType": "uint256",
          "name": "",
          "type": "uint256"
        }
      ],
      "stateMutability": "view",
      "type": "function"
    },
    {
      "inputs": [
        {
          "internalType": "address",
          "name": "newOwner",
          "type": "address"
        }
      ],
      "name": "transferOwnership",
      "outputs": [],
      "stateMutability": "nonpayable",
      "type": "function"
    },
    {
      "inputs": [
        {
          "internalType": "address",
          "name": "",
          "type": "address"
        }
      ],
      "name": "unclaimed",
      "outputs": [
        {
          "internalType": "uint256",
          "name": "",
          "type": "uint256"
        }
      ],
      "stateMutability": "view",
      "type": "function"
    },
    {
      "inputs": [
        {
          "internalType": "address",
          "name": "account",
          "type": "address"
        }
      ],
      "name": "userCredits",
      "outputs": [
        {
          "components": [
            {
              "internalType": "uint256",
              "name": "unclaimed",
              "type": "uint256"
            },
            {
              "internalType": "uint256",
              "name": "bonus",
              "type": "uint256"
            },
            {
              "internalType": "uint256",
              "name": "deposited",
              "type": "uint256"
            },
            {
              "internalType": "bool",
              "name": "diamondHand",
              "type": "bool"
            }
          ],
          "internalType": "struct EDUCreditsManager.UserCredits",
          "name": "credits",
          "type": "tuple"
        }
      ],
      "stateMutability": "view",
      "type": "function"
    },
    {
      "inputs": [],
      "name": "withdraw",
      "outputs": [],
      "stateMutability": "nonpayable",
      "type": "function"
    }
  ],
  "bytecode": "0x60e0604052600080553480156200001557600080fd5b50604051620032e0380380620032e08339810160408190526200003891620002ef565b838383838080843362000056816200004f620000ea565b9062000120565b506200006d816200006662000193565b90620001c3565b506200008e634fc3585960e01b600162000086620001cf565b9190620001ff565b6001600160a01b0390811660805285811660a052831660c05250604051600081527f63dd78a2037d9ff47ab1e6cf980c9d036bb47de0b5812d2203bfa833f35e0a189060200160405180910390a1505050505050505062000379565b6000806200011a60017fc9ed16f33ab3a66c84bfd83099ccb2a8845871e2e1c1928f63797152f0fd54cd62000357565b92915050565b6001600160a01b03811615620001775781546001600160a01b0319166001600160a01b03821690811783556040516000907f8be0079c531659141344cd1fd0a4f28419497f9722a3daafe3b4186f6b6457e0908290a35b6200018f6307f5828d60e41b600162000086620001cf565b5050565b6000806200011a60017f4fb5f8cdfbce77f22b0931a39e9f476a60a0f66524b2f379e96485471eb700ae62000357565b6200018f82826200025c565b6000806200011a60017fca9d3e17f264b0f3984e2634e94adb37fa3e6a8103f06aeae6fa59e21c769f5e62000357565b600160e01b6001600160e01b03198316016200022e576040516372c683bb60e01b815260040160405180910390fd5b6001600160e01b03199190911660009081526020929092526040909120805460ff1916911515919091179055565b6001600160a01b03811662000284576040516340b539cf60e01b815260040160405180910390fd5b81546001600160a01b0319166001600160a01b03821690811783556040519081527fdd880d24a789958a6398c99c2e54ce31bc10a638cbc42f7dd34285479ae0f8559060200160405180910390a15050565b6001600160a01b0381168114620002ec57600080fd5b50565b600080600080608085870312156200030657600080fd5b84516200031381620002d6565b60208601519094506200032681620002d6565b60408601519093506200033981620002d6565b60608601519092506200034c81620002d6565b939692955090935050565b818103818111156200011a57634e487b7160e01b600052601160045260246000fd5b60805160a05160c051612eea620003f6600039600081816103ee01526108460152600081816104620152818161087d015281816109a501528181610ec501528181610f4a015261149a0152600081816102d701528181610420015281816121860152818161220e015281816122c101526122ff0152612eea6000f3fe608060405234801561001057600080fd5b50600436106102415760003560e01c806372c16a2411610145578063af7d6ca3116100bd578063d547741f1161008c578063f2fde38b11610071578063f2fde38b146105b4578063f7ba94bd146105c7578063ff50abdc146105da57600080fd5b8063d547741f14610581578063d8cb4aa31461059457600080fd5b8063af7d6ca314610532578063b5bd3eb914610545578063c3666c361461054e578063cb13cddb1461056157600080fd5b80638bb9c5bf116101145780638de17b74116100f95780638de17b741461050f57806391d1485414610517578063ad6b333b1461052a57600080fd5b80638bb9c5bf146104f45780638da5cb5b1461050757600080fd5b806372c16a24146104aa57806373c8a958146104d15780638488bb4e146104e45780638b785d49146104ec57600080fd5b80633ccfd60b116101d857806351887302116101a75780635df2dcbc1161018c5780635df2dcbc1461045d578063687f34e0146104845780636b8f9c431461049757600080fd5b806351887302146103e9578063572b6c051461041057600080fd5b80633ccfd60b1461035a5780634fc3585914610362578063505bd3da146103a6578063508fc905146103c657600080fd5b80632b4c9f16116102145780632b4c9f16146102d55780632cc826551461031c5780632f2ff15d1461033157806331e66e1e1461034457600080fd5b806301ffc9a714610246578063055ad42e1461026e578063148c2b5a1461028557806320babb921461028d575b600080fd5b6102596102543660046127d0565b6105e3565b60405190151581526020015b60405180910390f35b61027760005481565b604051908152602001610265565b610277600281565b6102a061029b366004612834565b6105fd565b604051610265919081518152602080830151908201526040808301519082015260609182015115159181019190915260800190565b7f00000000000000000000000000000000000000000000000000000000000000005b60405173ffffffffffffffffffffffffffffffffffffffff9091168152602001610265565b61032f61032a366004612851565b610694565b005b61032f61033f36600461286a565b61072c565b61034c61075f565b60405161026592919061289a565b61032f610772565b6103756103703660046128e7565b610a18565b6040517fffffffff000000000000000000000000000000000000000000000000000000009091168152602001610265565b6102776103b4366004612834565b60016020526000908152604090205481565b6102596103d4366004612834565b60046020526000908152604090205460ff1681565b6102f77f000000000000000000000000000000000000000000000000000000000000000081565b61025961041e366004612834565b7f000000000000000000000000000000000000000000000000000000000000000073ffffffffffffffffffffffffffffffffffffffff90811691161490565b6102f77f000000000000000000000000000000000000000000000000000000000000000081565b61032f6104923660046129d2565b610afb565b61032f6104a5366004612834565b610e5b565b6102777f7370656e6465720000000000000000000000000000000000000000000000000081565b61032f6104df366004612a96565b610e7b565b6102f761104d565b610277600381565b61032f610502366004612851565b611079565b6102f7611094565b610277600081565b61025961052536600461286a565b6110a1565b610277600181565b61032f610540366004612b30565b6110ec565b61027760055481565b61032f61055c366004612a96565b6115cf565b61027761056f366004612834565b60036020526000908152604090205481565b61032f61058f36600461286a565b611747565b6102776105a2366004612834565b60026020526000908152604090205481565b61032f6105c2366004612834565b611775565b61032f6105d5366004612b5c565b611790565b61027760065481565b60006105f7826105f161184f565b9061187d565b92915050565b61062a60405180608001604052806000815260200160008152602001600081526020016000151581525090565b506040805160808101825273ffffffffffffffffffffffffffffffffffffffff9092166000818152600160209081528382205485528282526002815283822054818601528282526003815283822054858501529181526004909152205460ff161515606082015290565b6106ad61069f611957565b6106a7611961565b9061198f565b60038111156106f0576040517f96666719000000000000000000000000000000000000000000000000000000008152600481018290526024015b60405180910390fd5b6000819055604051600181527f63dd78a2037d9ff47ab1e6cf980c9d036bb47de0b5812d2203bfa833f35e0a189060200160405180910390a150565b6000610736611957565b9050610744816106a7611961565b61075a8383836107526119fe565b929190611a2c565b505050565b36600061076a611af8565b915091509091565b6003600054146107bc576000546040517f7c9bb6630000000000000000000000000000000000000000000000000000000081526003600482015260248101919091526044016106e7565b60006107c6611957565b73ffffffffffffffffffffffffffffffffffffffff811660009081526001602052604090205490915080156108ee5773ffffffffffffffffffffffffffffffffffffffff82811660008181526001602052604080822091909155517f23b872dd0000000000000000000000000000000000000000000000000000000081527f0000000000000000000000000000000000000000000000000000000000000000831660048201526024810191909152604481018390527f0000000000000000000000000000000000000000000000000000000000000000909116906323b872dd906064016020604051808303816000875af11580156108c8573d6000803e3d6000fd5b505050506040513d601f19601f820116820180604052508101906108ec9190612bd6565b505b73ffffffffffffffffffffffffffffffffffffffff8216600090815260036020526040902054801561075a5773ffffffffffffffffffffffffffffffffffffffff8316600090815260036020526040812081905560068054839290610954908490612c22565b90915550506040517fa9059cbb00000000000000000000000000000000000000000000000000000000815273ffffffffffffffffffffffffffffffffffffffff8481166004830152602482018390527f0000000000000000000000000000000000000000000000000000000000000000169063a9059cbb906044016020604051808303816000875af11580156109ee573d6000803e3d6000fd5b505050506040513d601f19601f82011682018060405250810190610a129190612bd6565b50505050565b6000600160005414610a64576000546040517f7c9bb6630000000000000000000000000000000000000000000000000000000081526001600482015260248101919091526044016106e7565b73ffffffffffffffffffffffffffffffffffffffff851660009081526003602052604081208054869290610a99908490612c35565b925050819055508360066000828254610ab29190612c35565b925050819055508360056000828254610acb9190612c35565b909155507f4fc3585900000000000000000000000000000000000000000000000000000000979650505050505050565b868581141580610b0b5750808414155b80610b165750808214155b15610b4d576040517f6582533600000000000000000000000000000000000000000000000000000000815260040160405180910390fd5b60005415610b9457600080546040517f7c9bb663000000000000000000000000000000000000000000000000000000008152600481019290925260248201526044016106e7565b610b9f61069f611957565b60005b818114610e0a5760008a8a83818110610bbd57610bbd612c48565b9050602002016020810190610bd29190612834565b905073ffffffffffffffffffffffffffffffffffffffff8116610c21576040517f9c89d57f00000000000000000000000000000000000000000000000000000000815260040160405180910390fd5b6000898984818110610c3557610c35612c48565b90506020020135905080600003610c90576040517fd49c192700000000000000000000000000000000000000000000000000000000815273ffffffffffffffffffffffffffffffffffffffff831660048201526024016106e7565b73ffffffffffffffffffffffffffffffffffffffff82166000908152600160205260409020548015610d06576040517f6dbaa9b400000000000000000000000000000000000000000000000000000000815273ffffffffffffffffffffffffffffffffffffffff841660048201526024016106e7565b6000898986818110610d1a57610d1a612c48565b73ffffffffffffffffffffffffffffffffffffffff87166000908152600160209081526040808320899055600282529091209102929092013591829055509050878786818110610d6c57610d6c612c48565b9050602002016020810190610d819190612c77565b73ffffffffffffffffffffffffffffffffffffffff8516600090815260046020526040902080547fffffffffffffffffffffffffffffffffffffffffffffffffffffffffffffff0016911515919091179055610ddd8184612c35565b60056000828254610dee9190612c35565b925050819055505050505080610e0390612c94565b9050610ba2565b507f44fbb8621bc7a734e344e0d7f6b84824cf97e0d8d611f9f8502e42ff0b1dee438989898989898989604051610e48989796959493929190612d17565b60405180910390a1505050505050505050565b610e6661069f611957565b610e7881610e72611b03565b90611b31565b50565b6006546040517f70a082310000000000000000000000000000000000000000000000000000000081523060048201526000919073ffffffffffffffffffffffffffffffffffffffff7f000000000000000000000000000000000000000000000000000000000000000016906370a0823190602401602060405180830381865afa158015610f0c573d6000803e3d6000fd5b505050506040513d601f19601f82011682018060405250810190610f309190612de0565b610f3a9190612c22565b90506000805b85811015610ff0577f000000000000000000000000000000000000000000000000000000000000000073ffffffffffffffffffffffffffffffffffffffff16878783818110610f9157610f91612c48565b9050602002016020810190610fa69190612834565b73ffffffffffffffffffffffffffffffffffffffff1603610fe857848482818110610fd357610fd3612c48565b9050602002013582610fe59190612c35565b91505b600101610f40565b5081811115611035576040517f7ce4d19d00000000000000000000000000000000000000000000000000000000815260048101839052602481018290526044016106e7565b611043888888888888611bf5565b5050505050505050565b600061107461105a611b03565b5473ffffffffffffffffffffffffffffffffffffffff1690565b905090565b610e78611084611957565b8261108d6119fe565b9190611ce1565b600061107461105a611961565b60006110e583836110b06119fe565b60009283526020908152604080842073ffffffffffffffffffffffffffffffffffffffff909316845291905290205460ff1690565b9392505050565b60006110f6611957565b905081600003611152576040517f09bc7f2b00000000000000000000000000000000000000000000000000000000815273ffffffffffffffffffffffffffffffffffffffff8083166004830152841660248201526044016106e7565b60026000541461119c576000546040517f7c9bb6630000000000000000000000000000000000000000000000000000000081526002600482015260248101919091526044016106e7565b6111d07f7370656e64657200000000000000000000000000000000000000000000000000826111c96119fe565b9190611d85565b73ffffffffffffffffffffffffffffffffffffffff831660009081526002602052604090205480156112c3578281106112905761120d8382612c22565b73ffffffffffffffffffffffffffffffffffffffff858116600081815260026020908152604080832095909555845193871684528301919091529181018590526060810182905260808101919091527fc8832e1605166eecba94f0e3919e05a79787269b7b9f7e7b9766b187b44a7e899060a0015b60405180910390a150505050565b73ffffffffffffffffffffffffffffffffffffffff84166000908152600260205260408120556112c08184612c22565b92505b73ffffffffffffffffffffffffffffffffffffffff841660009081526001602052604090205480156113b25783811061137f576113008482612c22565b73ffffffffffffffffffffffffffffffffffffffff8681166000818152600160209081526040808320959095558451938816845283019190915281830185905260608201879052608082015290517fc8832e1605166eecba94f0e3919e05a79787269b7b9f7e7b9766b187b44a7e899181900360a00190a15050505050565b73ffffffffffffffffffffffffffffffffffffffff85166000908152600160205260408120556113af8185612c22565b93505b73ffffffffffffffffffffffffffffffffffffffff851660009081526003602052604090205484811015611439576040517f1734392500000000000000000000000000000000000000000000000000000000815273ffffffffffffffffffffffffffffffffffffffff808616600483015287166024820152604481018690526064016106e7565b6114438582612c22565b73ffffffffffffffffffffffffffffffffffffffff87166000908152600360205260408120919091556006805487929061147e908490612c22565b909155505073ffffffffffffffffffffffffffffffffffffffff7f00000000000000000000000000000000000000000000000000000000000000001663a9059cbb6114ca61105a611b03565b6040517fffffffff0000000000000000000000000000000000000000000000000000000060e084901b16815273ffffffffffffffffffffffffffffffffffffffff9091166004820152602481018890526044016020604051808303816000875af115801561153c573d6000803e3d6000fd5b505050506040513d601f19601f820116820180604052508101906115609190612bd6565b506040805173ffffffffffffffffffffffffffffffffffffffff80871682528816602082015290810184905260608101839052608081018690527fc8832e1605166eecba94f0e3919e05a79787269b7b9f7e7b9766b187b44a7e899060a00160405180910390a1505050505050565b6115da61069f611957565b8483811415806115ea5750808214155b15611621576040517f6582533600000000000000000000000000000000000000000000000000000000815260040160405180910390fd5b60005b818110156110435785858281811061163e5761163e612c48565b90506020020160208101906116539190612834565b73ffffffffffffffffffffffffffffffffffffffff166323b872dd308a8a8581811061168157611681612c48565b90506020020160208101906116969190612834565b8787868181106116a8576116a8612c48565b6040517fffffffff0000000000000000000000000000000000000000000000000000000060e088901b16815273ffffffffffffffffffffffffffffffffffffffff958616600482015294909316602485015250602090910201356044820152606401600060405180830381600087803b15801561172457600080fd5b505af1158015611738573d6000803e3d6000fd5b50505050806001019050611624565b6000611751611957565b905061175f816106a7611961565b61075a83838361176d6119fe565b929190611e0b565b610e78611780611957565b82611789611961565b9190611ed5565b61179b61069f611957565b828181146117d5576040517f6582533600000000000000000000000000000000000000000000000000000000815260040160405180910390fd5b60005b818110156118475761183f8484838181106117f5576117f5612c48565b9050602002013587878481811061180e5761180e612c48565b90506020020160208101906118239190612834565b73ffffffffffffffffffffffffffffffffffffffff1690611fe9565b6001016117d8565b505050505050565b6000806105f760017fca9d3e17f264b0f3984e2634e94adb37fa3e6a8103f06aeae6fa59e21c769f5e612c22565b60007c01000000000000000000000000000000000000000000000000000000007fffffffff000000000000000000000000000000000000000000000000000000008316016118cd575060006105f7565b7ffe003659000000000000000000000000000000000000000000000000000000007fffffffff0000000000000000000000000000000000000000000000000000000083160161191e575060016105f7565b507fffffffff00000000000000000000000000000000000000000000000000000000166000908152602091909152604090205460ff1690565b6000611074612143565b6000806105f760017fc9ed16f33ab3a66c84bfd83099ccb2a8845871e2e1c1928f63797152f0fd54cd612c22565b815473ffffffffffffffffffffffffffffffffffffffff8281169116146119fa576040517f2ef4875e00000000000000000000000000000000000000000000000000000000815273ffffffffffffffffffffffffffffffffffffffff821660048201526024016106e7565b5050565b6000806105f760017fc8827d3282af6f37b64c3e9e6f3ac9df286ab0bb0fccd6f8661bf19adb368b23612c22565b60008381526020858152604080832073ffffffffffffffffffffffffffffffffffffffff8616845290915290205460ff16610a125760008381526020858152604080832073ffffffffffffffffffffffffffffffffffffffff8681168086529184529382902080547fffffffffffffffffffffffffffffffffffffffffffffffffffffffffffffff00166001179055815187815292830152918316918101919091527f2f8788117e7eff1d82e926ec794901d17c78024a50270940304540a733656f0d90606001611282565b36600061076a61228a565b6000806105f760017f4fb5f8cdfbce77f22b0931a39e9f476a60a0f66524b2f379e96485471eb700ae612c22565b73ffffffffffffffffffffffffffffffffffffffff8116611b7e576040517f40b539cf00000000000000000000000000000000000000000000000000000000815260040160405180910390fd5b81547fffffffffffffffffffffffff00000000000000000000000000000000000000001673ffffffffffffffffffffffffffffffffffffffff821690811783556040519081527fdd880d24a789958a6398c99c2e54ce31bc10a638cbc42f7dd34285479ae0f8559060200160405180910390a15050565b611c0061069f611957565b848381141580611c105750808214155b15611c47576040517f6582533600000000000000000000000000000000000000000000000000000000815260040160405180910390fd5b60005b8181101561104357611cd9888883818110611c6757611c67612c48565b9050602002016020810190611c7c9190612834565b858584818110611c8e57611c8e612c48565b90506020020135888885818110611ca757611ca7612c48565b9050602002016020810190611cbc9190612834565b73ffffffffffffffffffffffffffffffffffffffff1691906123f4565b600101611c4a565b611cec838284611d85565b60008181526020848152604080832073ffffffffffffffffffffffffffffffffffffffff86168085529083529281902080547fffffffffffffffffffffffffffffffffffffffffffffffffffffffffffffff0016905580518481529182018390528101919091527ff6391f5c32d9c69d2a47ea670b442974b53935d1edc7fd64eb21e047a839171b9060600160405180910390a1505050565b60008281526020848152604080832073ffffffffffffffffffffffffffffffffffffffff8516845290915290205460ff1661075a576040517f7aa728820000000000000000000000000000000000000000000000000000000081526004810183905273ffffffffffffffffffffffffffffffffffffffff821660248201526044016106e7565b60008381526020858152604080832073ffffffffffffffffffffffffffffffffffffffff8616845290915290205460ff1615610a125760008381526020858152604080832073ffffffffffffffffffffffffffffffffffffffff8681168086529184529382902080547fffffffffffffffffffffffffffffffffffffffffffffffffffffffffffffff00169055815187815292830152918316918101919091527ff6391f5c32d9c69d2a47ea670b442974b53935d1edc7fd64eb21e047a839171b90606001611282565b825473ffffffffffffffffffffffffffffffffffffffff9081169083168114611f42576040517f2ef4875e00000000000000000000000000000000000000000000000000000000815273ffffffffffffffffffffffffffffffffffffffff841660048201526024016106e7565b8173ffffffffffffffffffffffffffffffffffffffff168173ffffffffffffffffffffffffffffffffffffffff1614610a125783547fffffffffffffffffffffffff00000000000000000000000000000000000000001673ffffffffffffffffffffffffffffffffffffffff8381169182178655604051908316907f8be0079c531659141344cd1fd0a4f28419497f9722a3daafe3b4186f6b6457e090600090a350505050565b80471015612053576040517f08c379a000000000000000000000000000000000000000000000000000000000815260206004820152601d60248201527f416464726573733a20696e73756666696369656e742062616c616e636500000060448201526064016106e7565b60008273ffffffffffffffffffffffffffffffffffffffff168260405160006040518083038185875af1925050503d80600081146120ad576040519150601f19603f3d011682016040523d82523d6000602084013e6120b2565b606091505b505090508061075a576040517f08c379a000000000000000000000000000000000000000000000000000000000815260206004820152603a60248201527f416464726573733a20756e61626c6520746f2073656e642076616c75652c207260448201527f6563697069656e74206d6179206861766520726576657274656400000000000060648201526084016106e7565b6000333214806121535750601836105b1561215d57503390565b7fffffffffffffffffffffffffffffffffffffffffffffffffffffffffffffffec36013560601c7f000000000000000000000000000000000000000000000000000000000000000073ffffffffffffffffffffffffffffffffffffffff1633148061227957506040517f8929a8ca00000000000000000000000000000000000000000000000000000000815273ffffffffffffffffffffffffffffffffffffffff82811660048301523360248301527f00000000000000000000000000000000000000000000000000000000000000001690638929a8ca90604401602060405180830381865afa158015612255573d6000803e3d6000fd5b505050506040513d601f19601f820116820180604052508101906122799190612bd6565b1561228357919050565b3391505090565b3660003332148061229b5750601836105b156122a95750600091369150565b3373ffffffffffffffffffffffffffffffffffffffff7f00000000000000000000000000000000000000000000000000000000000000001614806123de575073ffffffffffffffffffffffffffffffffffffffff7f000000000000000000000000000000000000000000000000000000000000000016638929a8ca367fffffffffffffffffffffffffffffffffffffffffffffffffffffffffffffffec013560601c6040517fffffffff0000000000000000000000000000000000000000000000000000000060e084901b16815273ffffffffffffffffffffffffffffffffffffffff9091166004820152336024820152604401602060405180830381865afa1580156123ba573d6000803e3d6000fd5b505050506040513d601f19601f820116820180604052508101906123de9190612bd6565b156123eb5761076a612481565b50600091369150565b6040805173ffffffffffffffffffffffffffffffffffffffff8416602482015260448082018490528251808303909101815260649091019091526020810180517bffffffffffffffffffffffffffffffffffffffffffffffffffffffff167fa9059cbb0000000000000000000000000000000000000000000000000000000017905261075a9084906124b2565b36600061076a7fffffffffffffffffffffffffffffffffffffffffffffffffffffffffffffffec8301828481612df9565b6000612514826040518060400160405280602081526020017f5361666545524332303a206c6f772d6c6576656c2063616c6c206661696c65648152508573ffffffffffffffffffffffffffffffffffffffff166125c19092919063ffffffff16565b90508051600014806125355750808060200190518101906125359190612bd6565b61075a576040517f08c379a000000000000000000000000000000000000000000000000000000000815260206004820152602a60248201527f5361666545524332303a204552433230206f7065726174696f6e20646964206e60448201527f6f7420737563636565640000000000000000000000000000000000000000000060648201526084016106e7565b60606125d084846000856125d8565b949350505050565b60608247101561266a576040517f08c379a000000000000000000000000000000000000000000000000000000000815260206004820152602660248201527f416464726573733a20696e73756666696369656e742062616c616e636520666f60448201527f722063616c6c000000000000000000000000000000000000000000000000000060648201526084016106e7565b6000808673ffffffffffffffffffffffffffffffffffffffff1685876040516126939190612e47565b60006040518083038185875af1925050503d80600081146126d0576040519150601f19603f3d011682016040523d82523d6000602084013e6126d5565b606091505b50915091506126e6878383876126f1565b979650505050505050565b606083156127875782516000036127805773ffffffffffffffffffffffffffffffffffffffff85163b612780576040517f08c379a000000000000000000000000000000000000000000000000000000000815260206004820152601d60248201527f416464726573733a2063616c6c20746f206e6f6e2d636f6e747261637400000060448201526064016106e7565b50816125d0565b6125d0838381511561279c5781518083602001fd5b806040517f08c379a00000000000000000000000000000000000000000000000000000000081526004016106e79190612e63565b6000602082840312156127e257600080fd5b81357fffffffff00000000000000000000000000000000000000000000000000000000811681146110e557600080fd5b73ffffffffffffffffffffffffffffffffffffffff81168114610e7857600080fd5b60006020828403121561284657600080fd5b81356110e581612812565b60006020828403121561286357600080fd5b5035919050565b6000806040838503121561287d57600080fd5b82359150602083013561288f81612812565b809150509250929050565b60208152816020820152818360408301376000818301604090810191909152601f9092017fffffffffffffffffffffffffffffffffffffffffffffffffffffffffffffffe0160101919050565b6000806000806000608086880312156128ff57600080fd5b853561290a81612812565b9450602086013561291a81612812565b935060408601359250606086013567ffffffffffffffff8082111561293e57600080fd5b818801915088601f83011261295257600080fd5b81358181111561296157600080fd5b89602082850101111561297357600080fd5b9699959850939650602001949392505050565b60008083601f84011261299857600080fd5b50813567ffffffffffffffff8111156129b057600080fd5b6020830191508360208260051b85010111156129cb57600080fd5b9250929050565b6000806000806000806000806080898b0312156129ee57600080fd5b883567ffffffffffffffff80821115612a0657600080fd5b612a128c838d01612986565b909a50985060208b0135915080821115612a2b57600080fd5b612a378c838d01612986565b909850965060408b0135915080821115612a5057600080fd5b612a5c8c838d01612986565b909650945060608b0135915080821115612a7557600080fd5b50612a828b828c01612986565b999c989b5096995094979396929594505050565b60008060008060008060608789031215612aaf57600080fd5b863567ffffffffffffffff80821115612ac757600080fd5b612ad38a838b01612986565b90985096506020890135915080821115612aec57600080fd5b612af88a838b01612986565b90965094506040890135915080821115612b1157600080fd5b50612b1e89828a01612986565b979a9699509497509295939492505050565b60008060408385031215612b4357600080fd5b8235612b4e81612812565b946020939093013593505050565b60008060008060408587031215612b7257600080fd5b843567ffffffffffffffff80821115612b8a57600080fd5b612b9688838901612986565b90965094506020870135915080821115612baf57600080fd5b50612bbc87828801612986565b95989497509550505050565b8015158114610e7857600080fd5b600060208284031215612be857600080fd5b81516110e581612bc8565b7f4e487b7100000000000000000000000000000000000000000000000000000000600052601160045260246000fd5b818103818111156105f7576105f7612bf3565b808201808211156105f7576105f7612bf3565b7f4e487b7100000000000000000000000000000000000000000000000000000000600052603260045260246000fd5b600060208284031215612c8957600080fd5b81356110e581612bc8565b60007fffffffffffffffffffffffffffffffffffffffffffffffffffffffffffffffff8203612cc557612cc5612bf3565b5060010190565b81835260007f07ffffffffffffffffffffffffffffffffffffffffffffffffffffffffffffff831115612cfe57600080fd5b8260051b80836020870137939093016020019392505050565b6080808252810188905260008960a08301825b8b811015612d67578235612d3d81612812565b73ffffffffffffffffffffffffffffffffffffffff16825260209283019290910190600101612d2a565b50602091508381036020850152612d7f818a8c612ccc565b90508381036040850152612d9481888a612ccc565b848103606086015285815286915060200160005b86811015612dcf578235612dbb81612bc8565b151582529183019190830190600101612da8565b509c9b505050505050505050505050565b600060208284031215612df257600080fd5b5051919050565b60008085851115612e0957600080fd5b83861115612e1657600080fd5b5050820193919092039150565b60005b83811015612e3e578181015183820152602001612e26565b50506000910152565b60008251612e59818460208701612e23565b9190910192915050565b6020815260008251806020840152612e82816040850160208701612e23565b601f017fffffffffffffffffffffffffffffffffffffffffffffffffffffffffffffffe016919091016040019291505056fea2646970667358221220d9f6b85ee2cb478600b031b646cf545deded3540da8d7f9192542e8cc92b9b1964736f6c63430008160033",
  "linkReferences": {},
  "deployedLinkReferences": {}
}