{
  "_format": "hh-sol-artifact-1",
  "contractName": "OCPointMerkleClaimMock",
  "sourceName": "contracts/mocks/payment/OCPointMerkleClaimMock.sol",
  "abi": [
    {
      "inputs": [
        {
          "internalType": "address",
          "name": "ecpContractAddress",
          "type": "address"
        },
        {
          "internalType": "contract IForwarderRegistry",
          "name": "forwarderRegistry",
          "type": "address"
        }
      ],
      "stateMutability": "nonpayable",
      "type": "constructor"
    },
    {
      "inputs": [
        {
          "internalType": "address",
          "name": "recipient",
          "type": "address"
        },
        {
          "internalType": "uint256[]",
          "name": "amounts",
          "type": "uint256[]"
        },
        {
          "internalType": "bytes32[]",
          "name": "depositReasonCodes",
          "type": "bytes32[]"
        },
        {
          "internalType": "uint256",
          "name": "treeCounter",
          "type": "uint256"
        }
      ],
      "name": "AlreadyClaimed",
      "type": "error"
    },
    {
      "inputs": [],
      "name": "IllegalInterfaceId",
      "type": "error"
    },
    {
      "inputs": [],
      "name": "InconsistentArrayLengths",
      "type": "error"
    },
    {
      "inputs": [
        {
          "internalType": "address",
          "name": "invalidOCPointContractAddress",
          "type": "address"
        }
      ],
      "name": "InvalidOCPointContractAddress",
      "type": "error"
    },
    {
      "inputs": [
        {
          "internalType": "address",
          "name": "recipient",
          "type": "address"
        },
        {
          "internalType": "uint256[]",
          "name": "amounts",
          "type": "uint256[]"
        },
        {
          "internalType": "bytes32[]",
          "name": "depositReasonCodes",
          "type": "bytes32[]"
        },
        {
          "internalType": "uint256",
          "name": "treeCounter",
          "type": "uint256"
        }
      ],
      "name": "InvalidProof",
      "type": "error"
    },
    {
      "inputs": [
        {
          "internalType": "address",
          "name": "account",
          "type": "address"
        }
      ],
      "name": "NotContractOwner",
      "type": "error"
    },
    {
      "inputs": [],
      "name": "NotPaused",
      "type": "error"
    },
    {
      "inputs": [
        {
          "internalType": "bytes32",
          "name": "role",
          "type": "bytes32"
        },
        {
          "internalType": "address",
          "name": "account",
          "type": "address"
        }
      ],
      "name": "NotRoleHolder",
      "type": "error"
    },
    {
      "inputs": [],
      "name": "Paused",
      "type": "error"
    },
    {
      "anonymous": false,
      "inputs": [
        {
          "indexed": false,
          "internalType": "bytes32",
          "name": "root",
          "type": "bytes32"
        }
      ],
      "name": "MerkleRootSet",
      "type": "event"
    },
    {
      "anonymous": false,
      "inputs": [
        {
          "indexed": true,
          "internalType": "address",
          "name": "previousOwner",
          "type": "address"
        },
        {
          "indexed": true,
          "internalType": "address",
          "name": "newOwner",
          "type": "address"
        }
      ],
      "name": "OwnershipTransferred",
      "type": "event"
    },
    {
      "anonymous": false,
      "inputs": [],
      "name": "Pause",
      "type": "event"
    },
    {
      "anonymous": false,
      "inputs": [
        {
          "indexed": true,
          "internalType": "bytes32",
          "name": "root",
          "type": "bytes32"
        },
        {
          "indexed": true,
          "internalType": "address",
          "name": "recipient",
          "type": "address"
        },
        {
          "indexed": false,
          "internalType": "uint256[]",
          "name": "amounts",
          "type": "uint256[]"
        },
        {
          "indexed": false,
          "internalType": "bytes32[]",
          "name": "depositReasonCodes",
          "type": "bytes32[]"
        },
        {
          "indexed": false,
          "internalType": "uint256",
          "name": "treeCounter",
          "type": "uint256"
        }
      ],
      "name": "PayoutClaimed",
      "type": "event"
    },
    {
      "anonymous": false,
      "inputs": [
        {
          "indexed": false,
          "internalType": "bytes32",
          "name": "role",
          "type": "bytes32"
        },
        {
          "indexed": false,
          "internalType": "address",
          "name": "account",
          "type": "address"
        },
        {
          "indexed": false,
          "internalType": "address",
          "name": "operator",
          "type": "address"
        }
      ],
      "name": "RoleGranted",
      "type": "event"
    },
    {
      "anonymous": false,
      "inputs": [
        {
          "indexed": false,
          "internalType": "bytes32",
          "name": "role",
          "type": "bytes32"
        },
        {
          "indexed": false,
          "internalType": "address",
          "name": "account",
          "type": "address"
        },
        {
          "indexed": false,
          "internalType": "address",
          "name": "operator",
          "type": "address"
        }
      ],
      "name": "RoleRevoked",
      "type": "event"
    },
    {
      "anonymous": false,
      "inputs": [],
      "name": "Unpause",
      "type": "event"
    },
    {
      "inputs": [],
      "name": "OC_POINT",
      "outputs": [
        {
          "internalType": "contract IPoints",
          "name": "",
          "type": "address"
        }
      ],
      "stateMutability": "view",
      "type": "function"
    },
    {
      "inputs": [],
      "name": "OPERATOR_ROLE",
      "outputs": [
        {
          "internalType": "bytes32",
          "name": "",
          "type": "bytes32"
        }
      ],
      "stateMutability": "view",
      "type": "function"
    },
    {
      "inputs": [],
      "name": "__msgData",
      "outputs": [
        {
          "internalType": "bytes",
          "name": "",
          "type": "bytes"
        }
      ],
      "stateMutability": "view",
      "type": "function"
    },
    {
      "inputs": [],
      "name": "__msgSender",
      "outputs": [
        {
          "internalType": "address",
          "name": "",
          "type": "address"
        }
      ],
      "stateMutability": "view",
      "type": "function"
    },
    {
      "inputs": [
        {
          "internalType": "address",
          "name": "recipient",
          "type": "address"
        },
        {
          "internalType": "uint256[]",
          "name": "amounts",
          "type": "uint256[]"
        },
        {
          "internalType": "bytes32[]",
          "name": "depositReasonCodes",
          "type": "bytes32[]"
        },
        {
          "internalType": "bytes32[]",
          "name": "proof",
          "type": "bytes32[]"
        }
      ],
      "name": "claimPayout",
      "outputs": [],
      "stateMutability": "nonpayable",
      "type": "function"
    },
    {
      "inputs": [
        {
          "internalType": "bytes32",
          "name": "",
          "type": "bytes32"
        }
      ],
      "name": "claimed",
      "outputs": [
        {
          "internalType": "bool",
          "name": "",
          "type": "bool"
        }
      ],
      "stateMutability": "view",
      "type": "function"
    },
    {
      "inputs": [],
      "name": "forwarderRegistry",
      "outputs": [
        {
          "internalType": "contract IForwarderRegistry",
          "name": "",
          "type": "address"
        }
      ],
      "stateMutability": "view",
      "type": "function"
    },
    {
      "inputs": [
        {
          "internalType": "bytes32",
          "name": "role",
          "type": "bytes32"
        },
        {
          "internalType": "address",
          "name": "account",
          "type": "address"
        }
      ],
      "name": "grantRole",
      "outputs": [],
      "stateMutability": "nonpayable",
      "type": "function"
    },
    {
      "inputs": [
        {
          "internalType": "bytes32",
          "name": "role",
          "type": "bytes32"
        },
        {
          "internalType": "address",
          "name": "account",
          "type": "address"
        }
      ],
      "name": "hasRole",
      "outputs": [
        {
          "internalType": "bool",
          "name": "hasRole_",
          "type": "bool"
        }
      ],
      "stateMutability": "view",
      "type": "function"
    },
    {
      "inputs": [
        {
          "internalType": "address",
          "name": "forwarder",
          "type": "address"
        }
      ],
      "name": "isTrustedForwarder",
      "outputs": [
        {
          "internalType": "bool",
          "name": "",
          "type": "bool"
        }
      ],
      "stateMutability": "view",
      "type": "function"
    },
    {
      "inputs": [],
      "name": "owner",
      "outputs": [
        {
          "internalType": "address",
          "name": "",
          "type": "address"
        }
      ],
      "stateMutability": "view",
      "type": "function"
    },
    {
      "inputs": [],
      "name": "pause",
      "outputs": [],
      "stateMutability": "nonpayable",
      "type": "function"
    },
    {
      "inputs": [],
      "name": "paused",
      "outputs": [
        {
          "internalType": "bool",
          "name": "",
          "type": "bool"
        }
      ],
      "stateMutability": "view",
      "type": "function"
    },
    {
      "inputs": [
        {
          "internalType": "address[]",
          "name": "accounts",
          "type": "address[]"
        },
        {
          "internalType": "contract IERC20[]",
          "name": "tokens",
          "type": "address[]"
        },
        {
          "internalType": "uint256[]",
          "name": "amounts",
          "type": "uint256[]"
        }
      ],
      "name": "recoverERC20s",
      "outputs": [],
      "stateMutability": "nonpayable",
      "type": "function"
    },
    {
      "inputs": [
        {
          "internalType": "address[]",
          "name": "accounts",
          "type": "address[]"
        },
        {
          "internalType": "contract IERC721[]",
          "name": "contracts",
          "type": "address[]"
        },
        {
          "internalType": "uint256[]",
          "name": "tokenIds",
          "type": "uint256[]"
        }
      ],
      "name": "recoverERC721s",
      "outputs": [],
      "stateMutability": "nonpayable",
      "type": "function"
    },
    {
      "inputs": [
        {
          "internalType": "address payable[]",
          "name": "accounts",
          "type": "address[]"
        },
        {
          "internalType": "uint256[]",
          "name": "amounts",
          "type": "uint256[]"
        }
      ],
      "name": "recoverETH",
      "outputs": [],
      "stateMutability": "nonpayable",
      "type": "function"
    },
    {
      "inputs": [
        {
          "internalType": "bytes32",
          "name": "role",
          "type": "bytes32"
        }
      ],
      "name": "renounceRole",
      "outputs": [],
      "stateMutability": "nonpayable",
      "type": "function"
    },
    {
      "inputs": [
        {
          "internalType": "bytes32",
          "name": "role",
          "type": "bytes32"
        },
        {
          "internalType": "address",
          "name": "account",
          "type": "address"
        }
      ],
      "name": "revokeRole",
      "outputs": [],
      "stateMutability": "nonpayable",
      "type": "function"
    },
    {
      "inputs": [],
      "name": "root",
      "outputs": [
        {
          "internalType": "bytes32",
          "name": "",
          "type": "bytes32"
        }
      ],
      "stateMutability": "view",
      "type": "function"
    },
    {
      "inputs": [
        {
          "internalType": "bytes32",
          "name": "merkleRoot",
          "type": "bytes32"
        }
      ],
      "name": "setMerkleRoot",
      "outputs": [],
      "stateMutability": "nonpayable",
      "type": "function"
    },
    {
      "inputs": [
        {
          "internalType": "bytes4",
          "name": "interfaceId",
          "type": "bytes4"
        }
      ],
      "name": "supportsInterface",
      "outputs": [
        {
          "internalType": "bool",
          "name": "",
          "type": "bool"
        }
      ],
      "stateMutability": "view",
      "type": "function"
    },
    {
      "inputs": [
        {
          "internalType": "address",
          "name": "newOwner",
          "type": "address"
        }
      ],
      "name": "transferOwnership",
      "outputs": [],
      "stateMutability": "nonpayable",
      "type": "function"
    },
    {
      "inputs": [],
      "name": "treeCounter",
      "outputs": [
        {
          "internalType": "uint256",
          "name": "",
          "type": "uint256"
        }
      ],
      "stateMutability": "view",
      "type": "function"
    },
    {
      "inputs": [],
      "name": "unpause",
      "outputs": [],
      "stateMutability": "nonpayable",
      "type": "function"
    }
  ],
  "bytecode": "0x60c06040523480156200001157600080fd5b506040516200251538038062002515833981016040819052620000349162000283565b81818080336200004f8162000048620000bd565b90620000f3565b506001600160a01b03908116608052831690506200008f5760405163743638c560e01b81526001600160a01b038316600482015260240160405180910390fd5b6001600160a01b03821660a052620000b36001620000ac6200016e565b906200019e565b50505050620002e4565b600080620000ed60017fc9ed16f33ab3a66c84bfd83099ccb2a8845871e2e1c1928f63797152f0fd54cd620002c2565b92915050565b6001600160a01b038116156200014a5781546001600160a01b0319166001600160a01b03821690811783556040516000907f8be0079c531659141344cd1fd0a4f28419497f9722a3daafe3b4186f6b6457e0908290a35b6200016a6307f5828d60e41b600162000162620001dd565b91906200020d565b5050565b600080620000ed60017f0186a05f63b1553398ad5ea3233c0ce68b8c9eecc47717f123c5c2b42fbd6d9f620002c2565b80156200016a57815460ff191660011782556040517f6985a02210a168e66602d3235cb6db0e70f92b3ba4d376a33c0f3d9434bff62590600090a15050565b600080620000ed60017fca9d3e17f264b0f3984e2634e94adb37fa3e6a8103f06aeae6fa59e21c769f5e620002c2565b600160e01b6001600160e01b03198316016200023c576040516372c683bb60e01b815260040160405180910390fd5b6001600160e01b03199190911660009081526020929092526040909120805460ff1916911515919091179055565b6001600160a01b03811681146200028057600080fd5b50565b600080604083850312156200029757600080fd5b8251620002a4816200026a565b6020840151909250620002b7816200026a565b809150509250929050565b81810381811115620000ed57634e487b7160e01b600052601160045260246000fd5b60805160a0516121e1620003346000396000818161025b01526107910152600081816101de0152818161028d0152818161157d01528181611605015281816116b801526116f601526121e16000f3fe608060405234801561001057600080fd5b50600436106101985760003560e01c80638456cb59116100e3578063d1a91ff21161008c578063f2fde38b11610066578063f2fde38b1461039b578063f5b541a6146103ae578063f7ba94bd146103d557600080fd5b8063d1a91ff214610377578063d547741f1461037f578063ebf0c7171461039257600080fd5b806391d14854116100bd57806391d148541461032e578063c3666c3614610341578063cc3c0f061461035457600080fd5b80638456cb591461030b5780638bb9c5bf146103135780638da5cb5b1461032657600080fd5b80634d18b3651161014557806373c8a9581161011f57806373c8a958146102d25780637cb64759146102e557806383d0365f146102f857600080fd5b80634d18b36514610256578063572b6c051461027d5780635c975abb146102ca57600080fd5b80632f2ff15d116101765780632f2ff15d1461022357806331e66e1e146102385780633f4ba83a1461024e57600080fd5b806301ffc9a71461019d5780632a5d085d146101c55780632b4c9f16146101dc575b600080fd5b6101b06101ab366004611bde565b6103e8565b60405190151581526020015b60405180910390f35b6101ce60015481565b6040519081526020016101bc565b7f00000000000000000000000000000000000000000000000000000000000000005b60405173ffffffffffffffffffffffffffffffffffffffff90911681526020016101bc565b610236610231366004611c42565b610402565b005b61024061043b565b6040516101bc929190611c72565b61023661044e565b6101fe7f000000000000000000000000000000000000000000000000000000000000000081565b6101b061028b366004611cbf565b7f000000000000000000000000000000000000000000000000000000000000000073ffffffffffffffffffffffffffffffffffffffff90811691161490565b6101b061049b565b6102366102e0366004611d28565b6104b4565b6102366102f3366004611dc2565b6105b2565b610236610306366004611ddb565b6105fd565b6102366108f9565b610236610321366004611dc2565b610935565b6101fe610953565b6101b061033c366004611c42565b61097a565b61023661034f366004611d28565b6109c5565b6101b0610362366004611dc2565b60026020526000908152604090205460ff1681565b6101fe610b3d565b61023661038d366004611c42565b610b47565b6101ce60005481565b6102366103a9366004611cbf565b610b75565b6101ce7f97667070c54ef182b0f5858b034beac1b6f3089aa2d3188bb1e8929f4fa9b92981565b6102366103e3366004611e88565b610b90565b60006103fc826103f6610c4f565b90610c7d565b92915050565b600061040c610d57565b90506104208161041a610d61565b90610d8f565b61043683838361042e610dfe565b929190610e2c565b505050565b366000610446610f03565b915091509091565b6104897f97667070c54ef182b0f5858b034beac1b6f3089aa2d3188bb1e8929f4fa9b92961047a610d57565b610482610dfe565b9190610f0e565b610499610494610f94565b610fc2565b565b60006104af6104a8610f94565b5460ff1690565b905090565b6104c76104bf610d57565b61041a610d61565b8483811415806104d75750808214155b1561050e576040517f6582533600000000000000000000000000000000000000000000000000000000815260040160405180910390fd5b60005b818110156105a8576105a088888381811061052e5761052e611ef4565b90506020020160208101906105439190611cbf565b85858481811061055557610555611ef4565b9050602002013588888581811061056e5761056e611ef4565b90506020020160208101906105839190611cbf565b73ffffffffffffffffffffffffffffffffffffffff16919061101d565b600101610511565b5050505050505050565b6105ba61044e565b600081905560018054810190556040518181527f42cbc405e4dbf1b691e85b9a34b08ecfcf7a9ad9078bf4d645ccfa1fac11c10b9060200160405180910390a150565b61060d610608610f94565b6110aa565b848314610646576040517f6582533600000000000000000000000000000000000000000000000000000000815260040160405180910390fd5b600080546001546040519192909161066c908b908b908b908b908b908890602001611f65565b604080517fffffffffffffffffffffffffffffffffffffffffffffffffffffffffffffffe081840301815291815281516020928301206000818152600290935291205490915060ff1615610701578989898989866040517fd1f8ed140000000000000000000000000000000000000000000000000000000081526004016106f896959493929190612003565b60405180910390fd5b61070d858585846110e6565b61074f578989898989866040517ff7df00bc0000000000000000000000000000000000000000000000000000000081526004016106f896959493929190612003565b600081815260026020526040812080547fffffffffffffffffffffffffffffffffffffffffffffffffffffffffffffff001660011790555b88811015610895577f000000000000000000000000000000000000000000000000000000000000000073ffffffffffffffffffffffffffffffffffffffff166326b3293f8c8c8c858181106107de576107de611ef4565b905060200201358b8b868181106107f7576107f7611ef4565b6040517fffffffff0000000000000000000000000000000000000000000000000000000060e088901b16815273ffffffffffffffffffffffffffffffffffffffff9095166004860152602485019390935250602090910201356044820152606401600060405180830381600087803b15801561087257600080fd5b505af1158015610886573d6000803e3d6000fd5b50505050806001019050610787565b508973ffffffffffffffffffffffffffffffffffffffff16837fa07eb2b1b10609fd93c36ce28bb2e2615ab86d999a48269a9253553a64a45f3b8b8b8b8b886040516108e595949392919061205a565b60405180910390a350505050505050505050565b6109257f97667070c54ef182b0f5858b034beac1b6f3089aa2d3188bb1e8929f4fa9b92961047a610d57565b610499610930610f94565b611100565b610950610940610d57565b82610949610dfe565b919061115e565b50565b60006104af610960610d61565b5473ffffffffffffffffffffffffffffffffffffffff1690565b60006109be8383610989610dfe565b60009283526020908152604080842073ffffffffffffffffffffffffffffffffffffffff909316845291905290205460ff1690565b9392505050565b6109d06104bf610d57565b8483811415806109e05750808214155b15610a17576040517f6582533600000000000000000000000000000000000000000000000000000000815260040160405180910390fd5b60005b818110156105a857858582818110610a3457610a34611ef4565b9050602002016020810190610a499190611cbf565b73ffffffffffffffffffffffffffffffffffffffff166323b872dd308a8a85818110610a7757610a77611ef4565b9050602002016020810190610a8c9190611cbf565b878786818110610a9e57610a9e611ef4565b6040517fffffffff0000000000000000000000000000000000000000000000000000000060e088901b16815273ffffffffffffffffffffffffffffffffffffffff958616600482015294909316602485015250602090910201356044820152606401600060405180830381600087803b158015610b1a57600080fd5b505af1158015610b2e573d6000803e3d6000fd5b50505050806001019050610a1a565b60006104af610d57565b6000610b51610d57565b9050610b5f8161041a610d61565b610436838383610b6d610dfe565b929190611202565b610950610b80610d57565b82610b89610d61565b91906112cc565b610b9b6104bf610d57565b82818114610bd5576040517f6582533600000000000000000000000000000000000000000000000000000000815260040160405180910390fd5b60005b81811015610c4757610c3f848483818110610bf557610bf5611ef4565b90506020020135878784818110610c0e57610c0e611ef4565b9050602002016020810190610c239190611cbf565b73ffffffffffffffffffffffffffffffffffffffff16906113e0565b600101610bd8565b505050505050565b6000806103fc60017fca9d3e17f264b0f3984e2634e94adb37fa3e6a8103f06aeae6fa59e21c769f5e612094565b60007c01000000000000000000000000000000000000000000000000000000007fffffffff00000000000000000000000000000000000000000000000000000000831601610ccd575060006103fc565b7ffe003659000000000000000000000000000000000000000000000000000000007fffffffff00000000000000000000000000000000000000000000000000000000831601610d1e575060016103fc565b507fffffffff00000000000000000000000000000000000000000000000000000000166000908152602091909152604090205460ff1690565b60006104af61153a565b6000806103fc60017fc9ed16f33ab3a66c84bfd83099ccb2a8845871e2e1c1928f63797152f0fd54cd612094565b815473ffffffffffffffffffffffffffffffffffffffff828116911614610dfa576040517f2ef4875e00000000000000000000000000000000000000000000000000000000815273ffffffffffffffffffffffffffffffffffffffff821660048201526024016106f8565b5050565b6000806103fc60017fc8827d3282af6f37b64c3e9e6f3ac9df286ab0bb0fccd6f8661bf19adb368b23612094565b60008381526020858152604080832073ffffffffffffffffffffffffffffffffffffffff8616845290915290205460ff16610efd5760008381526020858152604080832073ffffffffffffffffffffffffffffffffffffffff8681168086529184529382902080547fffffffffffffffffffffffffffffffffffffffffffffffffffffffffffffff00166001179055815187815292830152918316918101919091527f2f8788117e7eff1d82e926ec794901d17c78024a50270940304540a733656f0d906060015b60405180910390a15b50505050565b366000610446611681565b60008281526020848152604080832073ffffffffffffffffffffffffffffffffffffffff8516845290915290205460ff16610436576040517f7aa728820000000000000000000000000000000000000000000000000000000081526004810183905273ffffffffffffffffffffffffffffffffffffffff821660248201526044016106f8565b6000806103fc60017f0186a05f63b1553398ad5ea3233c0ce68b8c9eecc47717f123c5c2b42fbd6d9f612094565b610fcb816117eb565b80547fffffffffffffffffffffffffffffffffffffffffffffffffffffffffffffff001681556040517f7805862f689e2f13df9f062ff482ad3ad112aca9e0847911ed832e158c525b3390600090a150565b6040805173ffffffffffffffffffffffffffffffffffffffff8416602482015260448082018490528251808303909101815260649091019091526020810180517bffffffffffffffffffffffffffffffffffffffffffffffffffffffff167fa9059cbb00000000000000000000000000000000000000000000000000000000179052610436908490611826565b805460ff1615610950576040517f9e87fac800000000000000000000000000000000000000000000000000000000815260040160405180910390fd5b6000826110f4868685611935565b1490505b949350505050565b611109816110aa565b80547fffffffffffffffffffffffffffffffffffffffffffffffffffffffffffffff001660011781556040517f6985a02210a168e66602d3235cb6db0e70f92b3ba4d376a33c0f3d9434bff62590600090a150565b611169838284610f0e565b60008181526020848152604080832073ffffffffffffffffffffffffffffffffffffffff86168085529083529281902080547fffffffffffffffffffffffffffffffffffffffffffffffffffffffffffffff0016905580518481529182018390528101919091527ff6391f5c32d9c69d2a47ea670b442974b53935d1edc7fd64eb21e047a839171b9060600160405180910390a1505050565b60008381526020858152604080832073ffffffffffffffffffffffffffffffffffffffff8616845290915290205460ff1615610efd5760008381526020858152604080832073ffffffffffffffffffffffffffffffffffffffff8681168086529184529382902080547fffffffffffffffffffffffffffffffffffffffffffffffffffffffffffffff00169055815187815292830152918316918101919091527ff6391f5c32d9c69d2a47ea670b442974b53935d1edc7fd64eb21e047a839171b90606001610ef4565b825473ffffffffffffffffffffffffffffffffffffffff9081169083168114611339576040517f2ef4875e00000000000000000000000000000000000000000000000000000000815273ffffffffffffffffffffffffffffffffffffffff841660048201526024016106f8565b8173ffffffffffffffffffffffffffffffffffffffff168173ffffffffffffffffffffffffffffffffffffffff1614610efd5783547fffffffffffffffffffffffff00000000000000000000000000000000000000001673ffffffffffffffffffffffffffffffffffffffff8381169182178655604051908316907f8be0079c531659141344cd1fd0a4f28419497f9722a3daafe3b4186f6b6457e090600090a350505050565b8047101561144a576040517f08c379a000000000000000000000000000000000000000000000000000000000815260206004820152601d60248201527f416464726573733a20696e73756666696369656e742062616c616e636500000060448201526064016106f8565b60008273ffffffffffffffffffffffffffffffffffffffff168260405160006040518083038185875af1925050503d80600081146114a4576040519150601f19603f3d011682016040523d82523d6000602084013e6114a9565b606091505b5050905080610436576040517f08c379a000000000000000000000000000000000000000000000000000000000815260206004820152603a60248201527f416464726573733a20756e61626c6520746f2073656e642076616c75652c207260448201527f6563697069656e74206d6179206861766520726576657274656400000000000060648201526084016106f8565b60003332148061154a5750601836105b1561155457503390565b7fffffffffffffffffffffffffffffffffffffffffffffffffffffffffffffffec36013560601c7f000000000000000000000000000000000000000000000000000000000000000073ffffffffffffffffffffffffffffffffffffffff1633148061167057506040517f8929a8ca00000000000000000000000000000000000000000000000000000000815273ffffffffffffffffffffffffffffffffffffffff82811660048301523360248301527f00000000000000000000000000000000000000000000000000000000000000001690638929a8ca90604401602060405180830381865afa15801561164c573d6000803e3d6000fd5b505050506040513d601f19601f8201168201806040525081019061167091906120ce565b1561167a57919050565b3391505090565b366000333214806116925750601836105b156116a05750600091369150565b3373ffffffffffffffffffffffffffffffffffffffff7f00000000000000000000000000000000000000000000000000000000000000001614806117d5575073ffffffffffffffffffffffffffffffffffffffff7f000000000000000000000000000000000000000000000000000000000000000016638929a8ca367fffffffffffffffffffffffffffffffffffffffffffffffffffffffffffffffec013560601c6040517fffffffff0000000000000000000000000000000000000000000000000000000060e084901b16815273ffffffffffffffffffffffffffffffffffffffff9091166004820152336024820152604401602060405180830381865afa1580156117b1573d6000803e3d6000fd5b505050506040513d601f19601f820116820180604052508101906117d591906120ce565b156117e257610446611977565b50600091369150565b805460ff16610950576040517f6cd6020100000000000000000000000000000000000000000000000000000000815260040160405180910390fd5b6000611888826040518060400160405280602081526020017f5361666545524332303a206c6f772d6c6576656c2063616c6c206661696c65648152508573ffffffffffffffffffffffffffffffffffffffff166119a89092919063ffffffff16565b90508051600014806118a95750808060200190518101906118a991906120ce565b610436576040517f08c379a000000000000000000000000000000000000000000000000000000000815260206004820152602a60248201527f5361666545524332303a204552433230206f7065726174696f6e20646964206e60448201527f6f7420737563636565640000000000000000000000000000000000000000000060648201526084016106f8565b600081815b8481101561196e576119648287878481811061195857611958611ef4565b905060200201356119b7565b915060010161193a565b50949350505050565b3660006104467fffffffffffffffffffffffffffffffffffffffffffffffffffffffffffffffec83018284816120f0565b60606110f884846000856119e6565b60008183106119d35760008281526020849052604090206109be565b60008381526020839052604090206109be565b606082471015611a78576040517f08c379a000000000000000000000000000000000000000000000000000000000815260206004820152602660248201527f416464726573733a20696e73756666696369656e742062616c616e636520666f60448201527f722063616c6c000000000000000000000000000000000000000000000000000060648201526084016106f8565b6000808673ffffffffffffffffffffffffffffffffffffffff168587604051611aa1919061213e565b60006040518083038185875af1925050503d8060008114611ade576040519150601f19603f3d011682016040523d82523d6000602084013e611ae3565b606091505b5091509150611af487838387611aff565b979650505050505050565b60608315611b95578251600003611b8e5773ffffffffffffffffffffffffffffffffffffffff85163b611b8e576040517f08c379a000000000000000000000000000000000000000000000000000000000815260206004820152601d60248201527f416464726573733a2063616c6c20746f206e6f6e2d636f6e747261637400000060448201526064016106f8565b50816110f8565b6110f88383815115611baa5781518083602001fd5b806040517f08c379a00000000000000000000000000000000000000000000000000000000081526004016106f8919061215a565b600060208284031215611bf057600080fd5b81357fffffffff00000000000000000000000000000000000000000000000000000000811681146109be57600080fd5b73ffffffffffffffffffffffffffffffffffffffff8116811461095057600080fd5b60008060408385031215611c5557600080fd5b823591506020830135611c6781611c20565b809150509250929050565b60208152816020820152818360408301376000818301604090810191909152601f9092017fffffffffffffffffffffffffffffffffffffffffffffffffffffffffffffffe0160101919050565b600060208284031215611cd157600080fd5b81356109be81611c20565b60008083601f840112611cee57600080fd5b50813567ffffffffffffffff811115611d0657600080fd5b6020830191508360208260051b8501011115611d2157600080fd5b9250929050565b60008060008060008060608789031215611d4157600080fd5b863567ffffffffffffffff80821115611d5957600080fd5b611d658a838b01611cdc565b90985096506020890135915080821115611d7e57600080fd5b611d8a8a838b01611cdc565b90965094506040890135915080821115611da357600080fd5b50611db089828a01611cdc565b979a9699509497509295939492505050565b600060208284031215611dd457600080fd5b5035919050565b60008060008060008060006080888a031215611df657600080fd5b8735611e0181611c20565b9650602088013567ffffffffffffffff80821115611e1e57600080fd5b611e2a8b838c01611cdc565b909850965060408a0135915080821115611e4357600080fd5b611e4f8b838c01611cdc565b909650945060608a0135915080821115611e6857600080fd5b50611e758a828b01611cdc565b989b979a50959850939692959293505050565b60008060008060408587031215611e9e57600080fd5b843567ffffffffffffffff80821115611eb657600080fd5b611ec288838901611cdc565b90965094506020870135915080821115611edb57600080fd5b50611ee887828801611cdc565b95989497509550505050565b7f4e487b7100000000000000000000000000000000000000000000000000000000600052603260045260246000fd5b60007f07ffffffffffffffffffffffffffffffffffffffffffffffffffffffffffffff831115611f5257600080fd5b8260051b80838637939093019392505050565b7fffffffffffffffffffffffffffffffffffffffff0000000000000000000000008760601b1681526000611fa7611fa060148401888a611f23565b8587611f23565b928352505060200195945050505050565b81835260007f07ffffffffffffffffffffffffffffffffffffffffffffffffffffffffffffff831115611fea57600080fd5b8260051b80836020870137939093016020019392505050565b73ffffffffffffffffffffffffffffffffffffffff87168152608060208201526000612033608083018789611fb8565b8281036040840152612046818688611fb8565b915050826060830152979650505050505050565b60608152600061206e606083018789611fb8565b8281036020840152612081818688611fb8565b9150508260408301529695505050505050565b818103818111156103fc577f4e487b7100000000000000000000000000000000000000000000000000000000600052601160045260246000fd5b6000602082840312156120e057600080fd5b815180151581146109be57600080fd5b6000808585111561210057600080fd5b8386111561210d57600080fd5b5050820193919092039150565b60005b8381101561213557818101518382015260200161211d565b50506000910152565b6000825161215081846020870161211a565b9190910192915050565b602081526000825180602084015261217981604085016020870161211a565b601f017fffffffffffffffffffffffffffffffffffffffffffffffffffffffffffffffe016919091016040019291505056fea26469706673582212202644840d1bc8e7f91ac5b58ac8f90826152913f860d050456d79ce592cdb692f64736f6c63430008160033",
  "linkReferences": {},
  "deployedLinkReferences": {}
}