{
  "_format": "hh-sol-artifact-1",
  "contractName": "OpenCampusIssuersDIDRegistry",
  "sourceName": "contracts/vc/OpenCampusIssuersDIDRegistry.sol",
  "abi": [
    {
      "inputs": [],
      "stateMutability": "nonpayable",
      "type": "constructor"
    },
    {
      "inputs": [],
      "name": "IllegalInterfaceId",
      "type": "error"
    },
    {
      "inputs": [],
      "name": "InvalidIssuer",
      "type": "error"
    },
    {
      "inputs": [
        {
          "internalType": "address",
          "name": "account",
          "type": "address"
        }
      ],
      "name": "NotContractOwner",
      "type": "error"
    },
    {
      "inputs": [
        {
          "internalType": "bytes32",
          "name": "role",
          "type": "bytes32"
        },
        {
          "internalType": "address",
          "name": "account",
          "type": "address"
        }
      ],
      "name": "NotRoleHolder",
      "type": "error"
    },
    {
      "anonymous": false,
      "inputs": [
        {
          "indexed": true,
          "internalType": "bytes32",
          "name": "hashedDid",
          "type": "bytes32"
        },
        {
          "indexed": true,
          "internalType": "address",
          "name": "issuerAddress",
          "type": "address"
        },
        {
          "indexed": false,
          "internalType": "address",
          "name": "operator",
          "type": "address"
        }
      ],
      "name": "IssuerAdded",
      "type": "event"
    },
    {
      "anonymous": false,
      "inputs": [
        {
          "indexed": true,
          "internalType": "bytes32",
          "name": "hashedDid",
          "type": "bytes32"
        },
        {
          "indexed": true,
          "internalType": "address",
          "name": "issuerAddress",
          "type": "address"
        },
        {
          "indexed": false,
          "internalType": "address",
          "name": "operator",
          "type": "address"
        }
      ],
      "name": "IssuerRemoved",
      "type": "event"
    },
    {
      "anonymous": false,
      "inputs": [
        {
          "indexed": true,
          "internalType": "address",
          "name": "previousOwner",
          "type": "address"
        },
        {
          "indexed": true,
          "internalType": "address",
          "name": "newOwner",
          "type": "address"
        }
      ],
      "name": "OwnershipTransferred",
      "type": "event"
    },
    {
      "anonymous": false,
      "inputs": [
        {
          "indexed": false,
          "internalType": "bytes32",
          "name": "role",
          "type": "bytes32"
        },
        {
          "indexed": false,
          "internalType": "address",
          "name": "account",
          "type": "address"
        },
        {
          "indexed": false,
          "internalType": "address",
          "name": "operator",
          "type": "address"
        }
      ],
      "name": "RoleGranted",
      "type": "event"
    },
    {
      "anonymous": false,
      "inputs": [
        {
          "indexed": false,
          "internalType": "bytes32",
          "name": "role",
          "type": "bytes32"
        },
        {
          "indexed": false,
          "internalType": "address",
          "name": "account",
          "type": "address"
        },
        {
          "indexed": false,
          "internalType": "address",
          "name": "operator",
          "type": "address"
        }
      ],
      "name": "RoleRevoked",
      "type": "event"
    },
    {
      "inputs": [],
      "name": "OPERATOR_ROLE",
      "outputs": [
        {
          "internalType": "bytes32",
          "name": "",
          "type": "bytes32"
        }
      ],
      "stateMutability": "view",
      "type": "function"
    },
    {
      "inputs": [
        {
          "internalType": "string",
          "name": "did",
          "type": "string"
        },
        {
          "internalType": "address",
          "name": "issuerAddress",
          "type": "address"
        }
      ],
      "name": "addIssuer",
      "outputs": [],
      "stateMutability": "nonpayable",
      "type": "function"
    },
    {
      "inputs": [
        {
          "internalType": "bytes32",
          "name": "role",
          "type": "bytes32"
        },
        {
          "internalType": "address",
          "name": "account",
          "type": "address"
        }
      ],
      "name": "grantRole",
      "outputs": [],
      "stateMutability": "nonpayable",
      "type": "function"
    },
    {
      "inputs": [
        {
          "internalType": "bytes32",
          "name": "role",
          "type": "bytes32"
        },
        {
          "internalType": "address",
          "name": "account",
          "type": "address"
        }
      ],
      "name": "hasRole",
      "outputs": [
        {
          "internalType": "bool",
          "name": "hasRole_",
          "type": "bool"
        }
      ],
      "stateMutability": "view",
      "type": "function"
    },
    {
      "inputs": [
        {
          "internalType": "bytes32",
          "name": "hashedDid",
          "type": "bytes32"
        },
        {
          "internalType": "address",
          "name": "issuerAddress",
          "type": "address"
        }
      ],
      "name": "isIssuerAllowed",
      "outputs": [
        {
          "internalType": "bool",
          "name": "allowed",
          "type": "bool"
        }
      ],
      "stateMutability": "view",
      "type": "function"
    },
    {
      "inputs": [
        {
          "internalType": "string",
          "name": "did",
          "type": "string"
        },
        {
          "internalType": "address",
          "name": "issuerAddress",
          "type": "address"
        }
      ],
      "name": "isIssuerAllowedByDid",
      "outputs": [
        {
          "internalType": "bool",
          "name": "allowed",
          "type": "bool"
        }
      ],
      "stateMutability": "view",
      "type": "function"
    },
    {
      "inputs": [
        {
          "internalType": "bytes32",
          "name": "",
          "type": "bytes32"
        },
        {
          "internalType": "address",
          "name": "",
          "type": "address"
        }
      ],
      "name": "issuers",
      "outputs": [
        {
          "internalType": "bool",
          "name": "",
          "type": "bool"
        }
      ],
      "stateMutability": "view",
      "type": "function"
    },
    {
      "inputs": [],
      "name": "owner",
      "outputs": [
        {
          "internalType": "address",
          "name": "",
          "type": "address"
        }
      ],
      "stateMutability": "view",
      "type": "function"
    },
    {
      "inputs": [
        {
          "internalType": "string",
          "name": "did",
          "type": "string"
        },
        {
          "internalType": "address",
          "name": "issuerAddress",
          "type": "address"
        }
      ],
      "name": "removeIssuer",
      "outputs": [],
      "stateMutability": "nonpayable",
      "type": "function"
    },
    {
      "inputs": [
        {
          "internalType": "bytes32",
          "name": "role",
          "type": "bytes32"
        }
      ],
      "name": "renounceRole",
      "outputs": [],
      "stateMutability": "nonpayable",
      "type": "function"
    },
    {
      "inputs": [
        {
          "internalType": "bytes32",
          "name": "role",
          "type": "bytes32"
        },
        {
          "internalType": "address",
          "name": "account",
          "type": "address"
        }
      ],
      "name": "revokeRole",
      "outputs": [],
      "stateMutability": "nonpayable",
      "type": "function"
    },
    {
      "inputs": [
        {
          "internalType": "bytes4",
          "name": "interfaceId",
          "type": "bytes4"
        }
      ],
      "name": "supportsInterface",
      "outputs": [
        {
          "internalType": "bool",
          "name": "",
          "type": "bool"
        }
      ],
      "stateMutability": "view",
      "type": "function"
    },
    {
      "inputs": [
        {
          "internalType": "address",
          "name": "newOwner",
          "type": "address"
        }
      ],
      "name": "transferOwnership",
      "outputs": [],
      "stateMutability": "nonpayable",
      "type": "function"
    }
  ],
  "bytecode": "0x608060405234801561001057600080fd5b50336100248161001e61002a565b9061005e565b5061017f565b60008061005860017fc9ed16f33ab3a66c84bfd83099ccb2a8845871e2e1c1928f63797152f0fd54cd61015e565b92915050565b6001600160a01b038116156100b45781546001600160a01b0319166001600160a01b03821690811783556040516000907f8be0079c531659141344cd1fd0a4f28419497f9722a3daafe3b4186f6b6457e0908290a35b6100d06307f5828d60e41b60016100c96100d4565b9190610102565b5050565b60008061005860017fca9d3e17f264b0f3984e2634e94adb37fa3e6a8103f06aeae6fa59e21c769f5e61015e565b600160e01b6001600160e01b0319831601610130576040516372c683bb60e01b815260040160405180910390fd5b6001600160e01b03199190911660009081526020929092526040909120805460ff1916911515919091179055565b8181038181111561005857634e487b7160e01b600052601160045260246000fd5b610dea806200018f6000396000f3fe608060405234801561001057600080fd5b50600436106100df5760003560e01c80638da5cb5b1161008c578063d547741f11610066578063d547741f146101f1578063f2fde38b14610204578063f5b541a614610217578063f9236a391461024c57600080fd5b80638da5cb5b1461019e57806391d14854146101cb578063a4359baa146101de57600080fd5b80637fd1c3f5116100bd5780637fd1c3f514610165578063874cd2c6146101785780638bb9c5bf1461018b57600080fd5b806301ffc9a7146100e45780632f2ff15d1461010c578063370e2a5814610121575b600080fd5b6100f76100f2366004610c1e565b610277565b60405190151581526020015b60405180910390f35b61011f61011a366004610c89565b610291565b005b6100f761012f366004610c89565b60009182526020828152604080842073ffffffffffffffffffffffffffffffffffffffff93909316845291905290205460ff1690565b61011f610173366004610cb5565b6102bf565b6100f7610186366004610cb5565b6103ca565b61011f610199366004610d36565b61044d565b6101a6610464565b60405173ffffffffffffffffffffffffffffffffffffffff9091168152602001610103565b6100f76101d9366004610c89565b610490565b61011f6101ec366004610cb5565b6104db565b61011f6101ff366004610c89565b610630565b61011f610212366004610d4f565b610653565b61023e7f6f70657261746f7200000000000000000000000000000000000000000000000081565b604051908152602001610103565b6100f761025a366004610c89565b600060208181529281526040808220909352908152205460ff1681565b600061028b82610285610667565b90610695565b92915050565b336102a48161029e61076f565b9061079d565b6102ba8383836102b2610811565b92919061083f565b505050565b6102f37f6f70657261746f72000000000000000000000000000000000000000000000000336102ec610811565b9190610916565b60008383604051602001610308929190610d6a565b604080518083037fffffffffffffffffffffffffffffffffffffffffffffffffffffffffffffffe00181528282528051602091820120600081815280835283812073ffffffffffffffffffffffffffffffffffffffff881680835290845293902080547fffffffffffffffffffffffffffffffffffffffffffffffffffffffffffffff001690553384529350909183917f7cb2c2db725b2d0e3d4d4ece05ac156a559aeb3602ddaadff2383a9f877e855691015b60405180910390a350505050565b60008084846040516020016103e0929190610d6a565b604080517fffffffffffffffffffffffffffffffffffffffffffffffffffffffffffffffe08184030181529181528151602092830120600090815280835281812073ffffffffffffffffffffffffffffffffffffffff8716825290925290205460ff169150509392505050565b610461338261045a610811565b919061099c565b50565b600061048b61047161076f565b5473ffffffffffffffffffffffffffffffffffffffff1690565b905090565b60006104d4838361049f610811565b60009283526020908152604080842073ffffffffffffffffffffffffffffffffffffffff909316845291905290205460ff1690565b9392505050565b6105087f6f70657261746f72000000000000000000000000000000000000000000000000336102ec610811565b811580610529575073ffffffffffffffffffffffffffffffffffffffff8116155b15610560576040517fbdbfe21600000000000000000000000000000000000000000000000000000000815260040160405180910390fd5b60008383604051602001610575929190610d6a565b604080517fffffffffffffffffffffffffffffffffffffffffffffffffffffffffffffffe08184030181528282528051602091820120600081815280835283812073ffffffffffffffffffffffffffffffffffffffff881680835290845293902080547fffffffffffffffffffffffffffffffffffffffffffffffffffffffffffffff001660011790553384529350909183917fcdaed052a071eb5e150b5780cc3c27ccb7e084e19ea728e894702ded67669a2c91016103bc565b3361063d8161029e61076f565b6102ba83838361064b610811565b929190610a40565b610461338261066061076f565b9190610b0a565b60008061028b60017fca9d3e17f264b0f3984e2634e94adb37fa3e6a8103f06aeae6fa59e21c769f5e610d7a565b60007c01000000000000000000000000000000000000000000000000000000007fffffffff000000000000000000000000000000000000000000000000000000008316016106e55750600061028b565b7ffe003659000000000000000000000000000000000000000000000000000000007fffffffff000000000000000000000000000000000000000000000000000000008316016107365750600161028b565b507fffffffff00000000000000000000000000000000000000000000000000000000166000908152602091909152604090205460ff1690565b60008061028b60017fc9ed16f33ab3a66c84bfd83099ccb2a8845871e2e1c1928f63797152f0fd54cd610d7a565b815473ffffffffffffffffffffffffffffffffffffffff82811691161461080d576040517f2ef4875e00000000000000000000000000000000000000000000000000000000815273ffffffffffffffffffffffffffffffffffffffff821660048201526024015b60405180910390fd5b5050565b60008061028b60017fc8827d3282af6f37b64c3e9e6f3ac9df286ab0bb0fccd6f8661bf19adb368b23610d7a565b60008381526020858152604080832073ffffffffffffffffffffffffffffffffffffffff8616845290915290205460ff166109105760008381526020858152604080832073ffffffffffffffffffffffffffffffffffffffff8681168086529184529382902080547fffffffffffffffffffffffffffffffffffffffffffffffffffffffffffffff00166001179055815187815292830152918316918101919091527f2f8788117e7eff1d82e926ec794901d17c78024a50270940304540a733656f0d906060015b60405180910390a15b50505050565b60008281526020848152604080832073ffffffffffffffffffffffffffffffffffffffff8516845290915290205460ff166102ba576040517f7aa728820000000000000000000000000000000000000000000000000000000081526004810183905273ffffffffffffffffffffffffffffffffffffffff82166024820152604401610804565b6109a7838284610916565b60008181526020848152604080832073ffffffffffffffffffffffffffffffffffffffff86168085529083529281902080547fffffffffffffffffffffffffffffffffffffffffffffffffffffffffffffff0016905580518481529182018390528101919091527ff6391f5c32d9c69d2a47ea670b442974b53935d1edc7fd64eb21e047a839171b9060600160405180910390a1505050565b60008381526020858152604080832073ffffffffffffffffffffffffffffffffffffffff8616845290915290205460ff16156109105760008381526020858152604080832073ffffffffffffffffffffffffffffffffffffffff8681168086529184529382902080547fffffffffffffffffffffffffffffffffffffffffffffffffffffffffffffff00169055815187815292830152918316918101919091527ff6391f5c32d9c69d2a47ea670b442974b53935d1edc7fd64eb21e047a839171b90606001610907565b825473ffffffffffffffffffffffffffffffffffffffff9081169083168114610b77576040517f2ef4875e00000000000000000000000000000000000000000000000000000000815273ffffffffffffffffffffffffffffffffffffffff84166004820152602401610804565b8173ffffffffffffffffffffffffffffffffffffffff168173ffffffffffffffffffffffffffffffffffffffff16146109105783547fffffffffffffffffffffffff00000000000000000000000000000000000000001673ffffffffffffffffffffffffffffffffffffffff8381169182178655604051908316907f8be0079c531659141344cd1fd0a4f28419497f9722a3daafe3b4186f6b6457e090600090a350505050565b600060208284031215610c3057600080fd5b81357fffffffff00000000000000000000000000000000000000000000000000000000811681146104d457600080fd5b803573ffffffffffffffffffffffffffffffffffffffff81168114610c8457600080fd5b919050565b60008060408385031215610c9c57600080fd5b82359150610cac60208401610c60565b90509250929050565b600080600060408486031215610cca57600080fd5b833567ffffffffffffffff80821115610ce257600080fd5b818601915086601f830112610cf657600080fd5b813581811115610d0557600080fd5b876020828501011115610d1757600080fd5b602092830195509350610d2d9186019050610c60565b90509250925092565b600060208284031215610d4857600080fd5b5035919050565b600060208284031215610d6157600080fd5b6104d482610c60565b8183823760009101908152919050565b8181038181111561028b577f4e487b7100000000000000000000000000000000000000000000000000000000600052601160045260246000fdfea2646970667358221220893bda74b340b9b94dff554fcf472f63e661a8615fe8f95a5e98bc6194b52da164736f6c63430008160033",
  "linkReferences": {},
  "deployedLinkReferences": {}
}