{
  "_format": "hh-sol-artifact-1",
  "contractName": "EDULandRental",
  "sourceName": "contracts/land/EDULandRental.sol",
  "abi": [
    {
      "inputs": [
        {
          "internalType": "address",
          "name": "landAddress",
          "type": "address"
        },
        {
          "internalType": "address",
          "name": "pointsAddress",
          "type": "address"
        },
        {
          "internalType": "address",
          "name": "landPriceHelperAddress",
          "type": "address"
        },
        {
          "internalType": "uint256",
          "name": "maintenanceFee_",
          "type": "uint256"
        },
        {
          "internalType": "uint256",
          "name": "maintenanceFeeDenominator_",
          "type": "uint256"
        },
        {
          "internalType": "uint256",
          "name": "minRentalDuration_",
          "type": "uint256"
        },
        {
          "internalType": "uint256",
          "name": "maxRentalDuration_",
          "type": "uint256"
        },
        {
          "internalType": "uint256",
          "name": "maxRentalCountPerCall_",
          "type": "uint256"
        },
        {
          "internalType": "uint256",
          "name": "maxTokenSupply_",
          "type": "uint256"
        },
        {
          "internalType": "contract IForwarderRegistry",
          "name": "forwarderRegistry",
          "type": "address"
        }
      ],
      "stateMutability": "nonpayable",
      "type": "constructor"
    },
    {
      "inputs": [
        {
          "internalType": "uint256",
          "name": "calculatedFee",
          "type": "uint256"
        },
        {
          "internalType": "uint256",
          "name": "maxFee",
          "type": "uint256"
        }
      ],
      "name": "FeeExceeded",
      "type": "error"
    },
    {
      "inputs": [],
      "name": "IllegalInterfaceId",
      "type": "error"
    },
    {
      "inputs": [],
      "name": "InconsistentArrayLengths",
      "type": "error"
    },
    {
      "inputs": [],
      "name": "InvalidTokenIdsParam",
      "type": "error"
    },
    {
      "inputs": [
        {
          "internalType": "address",
          "name": "account",
          "type": "address"
        }
      ],
      "name": "NotContractOwner",
      "type": "error"
    },
    {
      "inputs": [
        {
          "internalType": "bytes32",
          "name": "role",
          "type": "bytes32"
        },
        {
          "internalType": "address",
          "name": "account",
          "type": "address"
        }
      ],
      "name": "NotRoleHolder",
      "type": "error"
    },
    {
      "inputs": [],
      "name": "RentalCountPerCallLimitExceeded",
      "type": "error"
    },
    {
      "inputs": [
        {
          "internalType": "uint256",
          "name": "tokenId",
          "type": "uint256"
        },
        {
          "internalType": "uint256",
          "name": "duration",
          "type": "uint256"
        },
        {
          "internalType": "uint256",
          "name": "limit",
          "type": "uint256"
        }
      ],
      "name": "RentalDurationTooHigh",
      "type": "error"
    },
    {
      "inputs": [
        {
          "internalType": "uint256",
          "name": "tokenId",
          "type": "uint256"
        },
        {
          "internalType": "uint256",
          "name": "duration",
          "type": "uint256"
        },
        {
          "internalType": "uint256",
          "name": "limit",
          "type": "uint256"
        }
      ],
      "name": "RentalDurationTooLow",
      "type": "error"
    },
    {
      "inputs": [
        {
          "internalType": "uint256",
          "name": "tokenId",
          "type": "uint256"
        }
      ],
      "name": "TokenAlreadyRented",
      "type": "error"
    },
    {
      "inputs": [
        {
          "internalType": "uint256",
          "name": "tokenId",
          "type": "uint256"
        }
      ],
      "name": "TokenNotExpired",
      "type": "error"
    },
    {
      "inputs": [
        {
          "internalType": "uint256",
          "name": "tokenId",
          "type": "uint256"
        }
      ],
      "name": "TokenNotRented",
      "type": "error"
    },
    {
      "inputs": [
        {
          "internalType": "uint256",
          "name": "tokenId",
          "type": "uint256"
        }
      ],
      "name": "UnsupportedTokenId",
      "type": "error"
    },
    {
      "anonymous": false,
      "inputs": [
        {
          "indexed": false,
          "internalType": "uint256[]",
          "name": "tokenIds",
          "type": "uint256[]"
        }
      ],
      "name": "Collected",
      "type": "event"
    },
    {
      "anonymous": false,
      "inputs": [
        {
          "indexed": false,
          "internalType": "address",
          "name": "newRentalFeeHelper",
          "type": "address"
        }
      ],
      "name": "LandPriceHelperUpdated",
      "type": "event"
    },
    {
      "anonymous": false,
      "inputs": [
        {
          "indexed": false,
          "internalType": "uint256",
          "name": "newMaintenanceFee",
          "type": "uint256"
        },
        {
          "indexed": false,
          "internalType": "uint256",
          "name": "newMaintenanceFeeDenominator",
          "type": "uint256"
        }
      ],
      "name": "MaintenanceFeeUpdated",
      "type": "event"
    },
    {
      "anonymous": false,
      "inputs": [
        {
          "indexed": false,
          "internalType": "uint256",
          "name": "newMaxRentalCountPerCall",
          "type": "uint256"
        }
      ],
      "name": "MaxRentalCountPerCallUpdated",
      "type": "event"
    },
    {
      "anonymous": false,
      "inputs": [
        {
          "indexed": false,
          "internalType": "uint256",
          "name": "newMaxRentalDuration",
          "type": "uint256"
        }
      ],
      "name": "MaxRentalDurationUpdated",
      "type": "event"
    },
    {
      "anonymous": false,
      "inputs": [
        {
          "indexed": false,
          "internalType": "uint256",
          "name": "newMaxTokenSupply",
          "type": "uint256"
        }
      ],
      "name": "MaxTokenSupplyUpdated",
      "type": "event"
    },
    {
      "anonymous": false,
      "inputs": [
        {
          "indexed": false,
          "internalType": "uint256",
          "name": "newMinRentalDuration",
          "type": "uint256"
        }
      ],
      "name": "MinRentalDurationUpdated",
      "type": "event"
    },
    {
      "anonymous": false,
      "inputs": [
        {
          "indexed": true,
          "internalType": "address",
          "name": "previousOwner",
          "type": "address"
        },
        {
          "indexed": true,
          "internalType": "address",
          "name": "newOwner",
          "type": "address"
        }
      ],
      "name": "OwnershipTransferred",
      "type": "event"
    },
    {
      "anonymous": false,
      "inputs": [
        {
          "indexed": true,
          "internalType": "address",
          "name": "renter",
          "type": "address"
        },
        {
          "indexed": false,
          "internalType": "uint256[]",
          "name": "tokenIds",
          "type": "uint256[]"
        },
        {
          "components": [
            {
              "internalType": "uint256",
              "name": "beginDate",
              "type": "uint256"
            },
            {
              "internalType": "uint256",
              "name": "endDate",
              "type": "uint256"
            },
            {
              "internalType": "uint256",
              "name": "fee",
              "type": "uint256"
            }
          ],
          "indexed": false,
          "internalType": "struct EDULandRental.RentalInfo[]",
          "name": "rentals",
          "type": "tuple[]"
        }
      ],
      "name": "Rental",
      "type": "event"
    },
    {
      "anonymous": false,
      "inputs": [
        {
          "indexed": false,
          "internalType": "bytes32",
          "name": "role",
          "type": "bytes32"
        },
        {
          "indexed": false,
          "internalType": "address",
          "name": "account",
          "type": "address"
        },
        {
          "indexed": false,
          "internalType": "address",
          "name": "operator",
          "type": "address"
        }
      ],
      "name": "RoleGranted",
      "type": "event"
    },
    {
      "anonymous": false,
      "inputs": [
        {
          "indexed": false,
          "internalType": "bytes32",
          "name": "role",
          "type": "bytes32"
        },
        {
          "indexed": false,
          "internalType": "address",
          "name": "account",
          "type": "address"
        },
        {
          "indexed": false,
          "internalType": "address",
          "name": "operator",
          "type": "address"
        }
      ],
      "name": "RoleRevoked",
      "type": "event"
    },
    {
      "inputs": [],
      "name": "EDU_LAND",
      "outputs": [
        {
          "internalType": "contract IEDULand",
          "name": "",
          "type": "address"
        }
      ],
      "stateMutability": "view",
      "type": "function"
    },
    {
      "inputs": [],
      "name": "OPERATOR_ROLE",
      "outputs": [
        {
          "internalType": "bytes32",
          "name": "",
          "type": "bytes32"
        }
      ],
      "stateMutability": "view",
      "type": "function"
    },
    {
      "inputs": [],
      "name": "POINTS",
      "outputs": [
        {
          "internalType": "contract Points",
          "name": "",
          "type": "address"
        }
      ],
      "stateMutability": "view",
      "type": "function"
    },
    {
      "inputs": [],
      "name": "RENTAL_CONSUME_CODE",
      "outputs": [
        {
          "internalType": "bytes32",
          "name": "",
          "type": "bytes32"
        }
      ],
      "stateMutability": "view",
      "type": "function"
    },
    {
      "inputs": [
        {
          "internalType": "uint256[]",
          "name": "tokenIds",
          "type": "uint256[]"
        }
      ],
      "name": "calculateElapsedTimeForExpiredTokens",
      "outputs": [
        {
          "internalType": "uint256",
          "name": "elapsedTime",
          "type": "uint256"
        }
      ],
      "stateMutability": "view",
      "type": "function"
    },
    {
      "inputs": [
        {
          "internalType": "uint256[]",
          "name": "tokenIds",
          "type": "uint256[]"
        }
      ],
      "name": "collectExpiredTokens",
      "outputs": [],
      "stateMutability": "nonpayable",
      "type": "function"
    },
    {
      "inputs": [
        {
          "internalType": "address",
          "name": "account",
          "type": "address"
        },
        {
          "internalType": "uint256[]",
          "name": "tokenIds",
          "type": "uint256[]"
        },
        {
          "internalType": "uint256[]",
          "name": "durations",
          "type": "uint256[]"
        },
        {
          "internalType": "uint256[]",
          "name": "expiredTokenIds",
          "type": "uint256[]"
        }
      ],
      "name": "estimateRentalFee",
      "outputs": [
        {
          "internalType": "uint256",
          "name": "fee",
          "type": "uint256"
        }
      ],
      "stateMutability": "view",
      "type": "function"
    },
    {
      "inputs": [],
      "name": "forwarderRegistry",
      "outputs": [
        {
          "internalType": "contract IForwarderRegistry",
          "name": "",
          "type": "address"
        }
      ],
      "stateMutability": "view",
      "type": "function"
    },
    {
      "inputs": [
        {
          "internalType": "bytes32",
          "name": "role",
          "type": "bytes32"
        },
        {
          "internalType": "address",
          "name": "account",
          "type": "address"
        }
      ],
      "name": "grantRole",
      "outputs": [],
      "stateMutability": "nonpayable",
      "type": "function"
    },
    {
      "inputs": [
        {
          "internalType": "bytes32",
          "name": "role",
          "type": "bytes32"
        },
        {
          "internalType": "address",
          "name": "account",
          "type": "address"
        }
      ],
      "name": "hasRole",
      "outputs": [
        {
          "internalType": "bool",
          "name": "hasRole_",
          "type": "bool"
        }
      ],
      "stateMutability": "view",
      "type": "function"
    },
    {
      "inputs": [
        {
          "internalType": "address",
          "name": "forwarder",
          "type": "address"
        }
      ],
      "name": "isTrustedForwarder",
      "outputs": [
        {
          "internalType": "bool",
          "name": "",
          "type": "bool"
        }
      ],
      "stateMutability": "view",
      "type": "function"
    },
    {
      "inputs": [],
      "name": "landPriceHelper",
      "outputs": [
        {
          "internalType": "contract IEDULandPriceHelper",
          "name": "",
          "type": "address"
        }
      ],
      "stateMutability": "view",
      "type": "function"
    },
    {
      "inputs": [],
      "name": "maintenanceFee",
      "outputs": [
        {
          "internalType": "uint256",
          "name": "",
          "type": "uint256"
        }
      ],
      "stateMutability": "view",
      "type": "function"
    },
    {
      "inputs": [],
      "name": "maintenanceFeeDenominator",
      "outputs": [
        {
          "internalType": "uint256",
          "name": "",
          "type": "uint256"
        }
      ],
      "stateMutability": "view",
      "type": "function"
    },
    {
      "inputs": [],
      "name": "maxRentalCountPerCall",
      "outputs": [
        {
          "internalType": "uint256",
          "name": "",
          "type": "uint256"
        }
      ],
      "stateMutability": "view",
      "type": "function"
    },
    {
      "inputs": [],
      "name": "maxRentalDuration",
      "outputs": [
        {
          "internalType": "uint256",
          "name": "",
          "type": "uint256"
        }
      ],
      "stateMutability": "view",
      "type": "function"
    },
    {
      "inputs": [],
      "name": "maxTokenSupply",
      "outputs": [
        {
          "internalType": "uint256",
          "name": "",
          "type": "uint256"
        }
      ],
      "stateMutability": "view",
      "type": "function"
    },
    {
      "inputs": [],
      "name": "minRentalDuration",
      "outputs": [
        {
          "internalType": "uint256",
          "name": "",
          "type": "uint256"
        }
      ],
      "stateMutability": "view",
      "type": "function"
    },
    {
      "inputs": [],
      "name": "owner",
      "outputs": [
        {
          "internalType": "address",
          "name": "",
          "type": "address"
        }
      ],
      "stateMutability": "view",
      "type": "function"
    },
    {
      "inputs": [
        {
          "internalType": "address[]",
          "name": "accounts",
          "type": "address[]"
        },
        {
          "internalType": "contract IERC20[]",
          "name": "tokens",
          "type": "address[]"
        },
        {
          "internalType": "uint256[]",
          "name": "amounts",
          "type": "uint256[]"
        }
      ],
      "name": "recoverERC20s",
      "outputs": [],
      "stateMutability": "nonpayable",
      "type": "function"
    },
    {
      "inputs": [
        {
          "internalType": "address[]",
          "name": "accounts",
          "type": "address[]"
        },
        {
          "internalType": "contract IERC721[]",
          "name": "contracts",
          "type": "address[]"
        },
        {
          "internalType": "uint256[]",
          "name": "tokenIds",
          "type": "uint256[]"
        }
      ],
      "name": "recoverERC721s",
      "outputs": [],
      "stateMutability": "nonpayable",
      "type": "function"
    },
    {
      "inputs": [
        {
          "internalType": "address payable[]",
          "name": "accounts",
          "type": "address[]"
        },
        {
          "internalType": "uint256[]",
          "name": "amounts",
          "type": "uint256[]"
        }
      ],
      "name": "recoverETH",
      "outputs": [],
      "stateMutability": "nonpayable",
      "type": "function"
    },
    {
      "inputs": [
        {
          "internalType": "bytes32",
          "name": "role",
          "type": "bytes32"
        }
      ],
      "name": "renounceRole",
      "outputs": [],
      "stateMutability": "nonpayable",
      "type": "function"
    },
    {
      "inputs": [
        {
          "internalType": "address",
          "name": "account",
          "type": "address"
        },
        {
          "internalType": "uint256[]",
          "name": "tokenIds",
          "type": "uint256[]"
        },
        {
          "internalType": "uint256[]",
          "name": "durations",
          "type": "uint256[]"
        },
        {
          "internalType": "uint256[]",
          "name": "expiredTokenIds",
          "type": "uint256[]"
        },
        {
          "internalType": "uint256",
          "name": "maxFee",
          "type": "uint256"
        }
      ],
      "name": "rent",
      "outputs": [],
      "stateMutability": "nonpayable",
      "type": "function"
    },
    {
      "inputs": [
        {
          "internalType": "uint256",
          "name": "",
          "type": "uint256"
        }
      ],
      "name": "rentals",
      "outputs": [
        {
          "internalType": "uint256",
          "name": "beginDate",
          "type": "uint256"
        },
        {
          "internalType": "uint256",
          "name": "endDate",
          "type": "uint256"
        },
        {
          "internalType": "uint256",
          "name": "fee",
          "type": "uint256"
        }
      ],
      "stateMutability": "view",
      "type": "function"
    },
    {
      "inputs": [
        {
          "internalType": "uint256",
          "name": "tokenId",
          "type": "uint256"
        }
      ],
      "name": "renterOf",
      "outputs": [
        {
          "internalType": "address",
          "name": "",
          "type": "address"
        }
      ],
      "stateMutability": "view",
      "type": "function"
    },
    {
      "inputs": [
        {
          "internalType": "bytes32",
          "name": "role",
          "type": "bytes32"
        },
        {
          "internalType": "address",
          "name": "account",
          "type": "address"
        }
      ],
      "name": "revokeRole",
      "outputs": [],
      "stateMutability": "nonpayable",
      "type": "function"
    },
    {
      "inputs": [
        {
          "internalType": "address",
          "name": "newLandPriceHelper",
          "type": "address"
        }
      ],
      "name": "setLandPriceHelper",
      "outputs": [],
      "stateMutability": "nonpayable",
      "type": "function"
    },
    {
      "inputs": [
        {
          "internalType": "uint256",
          "name": "newMaintenanceFee",
          "type": "uint256"
        },
        {
          "internalType": "uint256",
          "name": "newMaintenanceFeeDenominator",
          "type": "uint256"
        }
      ],
      "name": "setMaintenanceFee",
      "outputs": [],
      "stateMutability": "nonpayable",
      "type": "function"
    },
    {
      "inputs": [
        {
          "internalType": "uint256",
          "name": "newRentalCountPerCall",
          "type": "uint256"
        }
      ],
      "name": "setMaxRentalCountPerCall",
      "outputs": [],
      "stateMutability": "nonpayable",
      "type": "function"
    },
    {
      "inputs": [
        {
          "internalType": "uint256",
          "name": "newMaxRentalDuration",
          "type": "uint256"
        }
      ],
      "name": "setMaxRentalDuration",
      "outputs": [],
      "stateMutability": "nonpayable",
      "type": "function"
    },
    {
      "inputs": [
        {
          "internalType": "uint256",
          "name": "newMaxTokenSupply",
          "type": "uint256"
        }
      ],
      "name": "setMaxTokenSupply",
      "outputs": [],
      "stateMutability": "nonpayable",
      "type": "function"
    },
    {
      "inputs": [
        {
          "internalType": "uint256",
          "name": "newMinRentalDuration",
          "type": "uint256"
        }
      ],
      "name": "setMinRentalDuration",
      "outputs": [],
      "stateMutability": "nonpayable",
      "type": "function"
    },
    {
      "inputs": [
        {
          "internalType": "bytes4",
          "name": "interfaceId",
          "type": "bytes4"
        }
      ],
      "name": "supportsInterface",
      "outputs": [
        {
          "internalType": "bool",
          "name": "",
          "type": "bool"
        }
      ],
      "stateMutability": "view",
      "type": "function"
    },
    {
      "inputs": [],
      "name": "totalEffectiveRentalTime",
      "outputs": [
        {
          "internalType": "uint256",
          "name": "",
          "type": "uint256"
        }
      ],
      "stateMutability": "view",
      "type": "function"
    },
    {
      "inputs": [
        {
          "internalType": "address",
          "name": "newOwner",
          "type": "address"
        }
      ],
      "name": "transferOwnership",
      "outputs": [],
      "stateMutability": "nonpayable",
      "type": "function"
    }
  ],
  "bytecode": "0x60e06040523480156200001157600080fd5b506040516200355e3803806200355e83398101604081905262000034916200033c565b8080336200004d8162000046620001e5565b906200021b565b506001600160a01b039081166080528b811660c0528a811660a052600080546001600160a01b031916918b1691821790556040519081527fd99014e6f6a21a1f7025e1599288b52168db6241486596946f759a520d4ddfea915060200160405180910390a16002879055600386905560408051888152602081018890527f788db483524e27f5a39a54daaeb81bb48059af776767d0c1f600ef6e996d2818910160405180910390a160048590556040518581527f7d9d1c986503049ed25e197e416ddaeef53d62a8479d6371784f05a9d9da98249060200160405180910390a160058490556040518481527fb4f38443948b39b669154b83689d2dfa2a4cb2b1fd458118da3d1bcdacfc56089060200160405180910390a160068390556040518381527faa06aa6d79ce3cb966afe332af120b3aa8252dc355d1d2dae1368babec5f3ee59060200160405180910390a160018290556040518281527fb8b290c068ed53e46165f3ca5215dcc2972ae26ae4c8fb5adc71a1c135f855139060200160405180910390a15050505050505050505062000405565b6000806200021560017fc9ed16f33ab3a66c84bfd83099ccb2a8845871e2e1c1928f63797152f0fd54cd620003e3565b92915050565b6001600160a01b03811615620002725781546001600160a01b0319166001600160a01b03821690811783556040516000907f8be0079c531659141344cd1fd0a4f28419497f9722a3daafe3b4186f6b6457e0908290a35b620002926307f5828d60e41b60016200028a62000296565b9190620002c6565b5050565b6000806200021560017fca9d3e17f264b0f3984e2634e94adb37fa3e6a8103f06aeae6fa59e21c769f5e620003e3565b600160e01b6001600160e01b0319831601620002f5576040516372c683bb60e01b815260040160405180910390fd5b6001600160e01b03199190911660009081526020929092526040909120805460ff1916911515919091179055565b6001600160a01b03811681146200033957600080fd5b50565b6000806000806000806000806000806101408b8d0312156200035d57600080fd5b8a516200036a8162000323565b60208c0151909a506200037d8162000323565b60408c0151909950620003908162000323565b8098505060608b0151965060808b0151955060a08b0151945060c08b0151935060e08b015192506101008b015191506101208b0151620003d08162000323565b809150509295989b9194979a5092959850565b818103818111156200021557634e487b7160e01b600052601160045260246000fd5b60805160a05160c0516130e36200047b600039600081816102a50152818161068201528181610a9901528181610b790152818161174601528181611e5b0152611f2a0152600081816104130152610e0501526000818161030e015281816103a2015281816125da015261266201526130e36000f3fe608060405234801561001057600080fd5b506004361061025c5760003560e01c80638bb9c5bf11610145578063dd286177116100bd578063f5b541a61161008c578063f7ba94bd11610071578063f7ba94bd146105ae578063f7df6bad146105c1578063fb203c17146105d457600080fd5b8063f5b541a61461057e578063f7032194146105a557600080fd5b8063dd2861771461051e578063e077f62b14610545578063e4f095d914610558578063f2fde38b1461056b57600080fd5b8063b07ed98211610114578063b65dd451116100f9578063b65dd451146104e5578063c3666c36146104f8578063d547741f1461050b57600080fd5b8063b07ed982146104c9578063b2b47e3b146104dc57600080fd5b80638bb9c5bf146104515780638da5cb5b1461046457806391d148541461046c578063af94a1d11461047f57600080fd5b806350f7c204116101d857806373c8a958116101a75780637f6e42811161018c5780637f6e42811461040e57806385ca80761461043557806388b681fe1461043e57600080fd5b806373c8a958146103f25780637ce4026f1461040557600080fd5b806350f7c204146103765780635625ac511461037f578063572b6c051461039257806370243bcc146103df57600080fd5b80632b4c9f161161022f57806334f1a8d31161021457806334f1a8d3146103475780633d9f01fb14610350578063409ad1961461036357600080fd5b80632b4c9f161461030c5780632f2ff15d1461033257600080fd5b806301ffc9a714610261578063046604491461028957806315e682cb146102a05780631aabc61d146102ec575b600080fd5b61027461026f3660046129fc565b6105e7565b60405190151581526020015b60405180910390f35b61029260025481565b604051908152602001610280565b6102c77f000000000000000000000000000000000000000000000000000000000000000081565b60405173ffffffffffffffffffffffffffffffffffffffff9091168152602001610280565b6000546102c79073ffffffffffffffffffffffffffffffffffffffff1681565b7f00000000000000000000000000000000000000000000000000000000000000006102c7565b610345610340366004612a60565b610601565b005b61029260045481565b6102c761035e366004612a90565b61063a565b610345610371366004612af5565b61073c565b61029260015481565b61034561038d366004612ba9565b610f40565b6102746103a0366004612bcb565b7f000000000000000000000000000000000000000000000000000000000000000073ffffffffffffffffffffffffffffffffffffffff90811691161490565b6102926103ed366004612be8565b610fc2565b610345610400366004612c2a565b6110b4565b61029260055481565b6102c77f000000000000000000000000000000000000000000000000000000000000000081565b61029260085481565b61034561044c366004612be8565b6111b2565b61034561045f366004612a90565b6111dd565b6102c76111fb565b61027461047a366004612a60565b611227565b6104ae61048d366004612a90565b60076020526000908152604090208054600182015460029092015490919083565b60408051938452602084019290925290820152606001610280565b6103456104d7366004612a90565b611272565b61029260035481565b6103456104f3366004612a90565b6112da565b610345610506366004612c2a565b61133b565b610345610519366004612a60565b6114b3565b6102927f0e67d2d2c46f23cfff9f76c16187348901bf73ba32dcf6893f2a2a4b25be75f881565b610292610553366004612cc4565b6114e1565b610345610566366004612a90565b6118ad565b610345610579366004612bcb565b61190e565b6102927f97667070c54ef182b0f5858b034beac1b6f3089aa2d3188bb1e8929f4fa9b92981565b61029260065481565b6103456105bc366004612d71565b611929565b6103456105cf366004612bcb565b6119e8565b6103456105e2366004612a90565b611a87565b60006105fb826105f5611ae8565b90611b16565b92915050565b600061060b611bf0565b905061061f81610619611bfa565b90611c28565b61063583838361062d611c97565b929190611cc5565b505050565b600081815260076020526040812060010154421015610702576040517f6352211e000000000000000000000000000000000000000000000000000000008152600481018390527f000000000000000000000000000000000000000000000000000000000000000073ffffffffffffffffffffffffffffffffffffffff1690636352211e90602401602060405180830381865afa1580156106de573d6000803e3d6000fd5b505050506040513d601f19601f820116820180604052508101906105fb9190612ddd565b6040517f1297346f000000000000000000000000000000000000000000000000000000008152600481018390526024015b60405180910390fd5b6006548610610777576040517f2273ee1800000000000000000000000000000000000000000000000000000000815260040160405180910390fd5b8584146107b0576040517f6582533600000000000000000000000000000000000000000000000000000000815260040160405180910390fd5b600088905060008888808060200260200160405190810160405280939291908181526020018383602002808284376000920182905250604080516020808e0282810182019093528d825296975091959194508c93508b9250829185019084908082843760009201829052509394504293925061083191508990508884611d9c565b60085461083e9190612e29565b9050600061084b82612014565b905060008c67ffffffffffffffff81111561086857610868612e3c565b6040519080825280602002602001820160405280156108bd57816020015b6108aa60405180606001604052806000815260200160008152602001600081525090565b8152602001906001900390816108865790505b50905060008060005b8851811015610d915760008982815181106108e3576108e3612e6b565b60200260200101519050600089838151811061090157610901612e6b565b6020026020010151905081600003610948576040517f8ce0857d00000000000000000000000000000000000000000000000000000000815260006004820152602401610733565b6001548210610986576040517f8ce0857d00000000000000000000000000000000000000000000000000000000815260048101839052602401610733565b6004548110156109d457600480546040517f4c642486000000000000000000000000000000000000000000000000000000008152918201849052602482018390526044820152606401610733565b60008281526007602052604081206001810154909103610b4a57600554821115610a3f576005546040517ff1c8a68700000000000000000000000000000000000000000000000000000000815260048101859052602481018490526044810191909152606401610733565b6040517f8832e6e300000000000000000000000000000000000000000000000000000000815273ffffffffffffffffffffffffffffffffffffffff8e811660048301526024820185905260606044830152600060648301527f00000000000000000000000000000000000000000000000000000000000000001690638832e6e390608401600060405180830381600087803b158015610add57600080fd5b505af1158015610af1573d6000803e3d6000fd5b5050508a825550610b02828b612e9a565b600182015560035460025460009190610b1b9085612ead565b610b259190612ec4565b610b2f908a612e9a565b600283018190559050610b428187612e9a565b955050610d33565b6040517f6352211e000000000000000000000000000000000000000000000000000000008152600481018490527f000000000000000000000000000000000000000000000000000000000000000073ffffffffffffffffffffffffffffffffffffffff1690636352211e90602401602060405180830381865afa158015610bd5573d6000803e3d6000fd5b505050506040513d601f19601f82011682018060405250810190610bf99190612ddd565b73ffffffffffffffffffffffffffffffffffffffff168d73ffffffffffffffffffffffffffffffffffffffff16148015610c36575080600101548a105b15610cfe578054610c47908b612e29565b821115610ca157805483908390610c5e908d612e29565b6040517ff1c8a687000000000000000000000000000000000000000000000000000000008152600481019390935260248301919091526044820152606401610733565b81816001016000828254610cb59190612e9a565b909155505060035460025460009190610cce9085612ead565b610cd89190612ec4565b905080826002016000828254610cee9190612e9a565b90915550610b4290508187612e9a565b6040517f139d679900000000000000000000000000000000000000000000000000000000815260048101849052602401610733565b6040805160608101825282548152600183015460208201526002830154918101919091528751889086908110610d6b57610d6b612e6b565b6020908102919091010152610d808287612e9a565b955050600190920191506108c69050565b508915801590610da057508981115b15610de1576040517fd519701100000000000000000000000000000000000000000000000000000000815260048101829052602481018b9052604401610733565b610deb8286612e9a565b60085573ffffffffffffffffffffffffffffffffffffffff7f00000000000000000000000000000000000000000000000000000000000000001663212aac79610e32611bf0565b6040517fffffffff0000000000000000000000000000000000000000000000000000000060e084901b16815273ffffffffffffffffffffffffffffffffffffffff9091166004820152602481018490527f0e67d2d2c46f23cfff9f76c16187348901bf73ba32dcf6893f2a2a4b25be75f86044820152606401600060405180830381600087803b158015610ec557600080fd5b505af1158015610ed9573d6000803e3d6000fd5b505050508873ffffffffffffffffffffffffffffffffffffffff167f71abcae7327579f86b1266a4390233f926d8ce29f0ed821b7b334202bd314e0f8985604051610f25929190612eff565b60405180910390a25050505050505050505050505050505050565b610f7b7f97667070c54ef182b0f5858b034beac1b6f3089aa2d3188bb1e8929f4fa9b929610f6c611bf0565b610f74611c97565b91906120a8565b6002829055600381905560408051838152602081018390527f788db483524e27f5a39a54daaeb81bb48059af776767d0c1f600ef6e996d2818910160405180910390a15050565b600042815b838110156110ac576000858583818110610fe357610fe3612e6b565b90506020020135905060006007600083815260200190815260200160002090508060010154600003611044576040517f1297346f00000000000000000000000000000000000000000000000000000000815260048101839052602401610733565b8060010154841015611085576040517f9be5764a00000000000000000000000000000000000000000000000000000000815260048101839052602401610733565b805460018201546110969190612e29565b6110a09086612e9a565b94505050600101610fc7565b505092915050565b6110c76110bf611bf0565b610619611bfa565b8483811415806110d75750808214155b1561110e576040517f6582533600000000000000000000000000000000000000000000000000000000815260040160405180910390fd5b60005b818110156111a8576111a088888381811061112e5761112e612e6b565b90506020020160208101906111439190612bcb565b85858481811061115557611155612e6b565b9050602002013588888581811061116e5761116e612e6b565b90506020020160208101906111839190612bcb565b73ffffffffffffffffffffffffffffffffffffffff16919061212e565b600101611111565b5050505050505050565b60006111bf838342611d9c565b905080600860008282546111d39190612e29565b9091555050505050565b6111f86111e8611bf0565b826111f1611c97565b91906121bb565b50565b6000611222611208611bfa565b5473ffffffffffffffffffffffffffffffffffffffff1690565b905090565b600061126b8383611236611c97565b60009283526020908152604080842073ffffffffffffffffffffffffffffffffffffffff909316845291905290205460ff1690565b9392505050565b61129e7f97667070c54ef182b0f5858b034beac1b6f3089aa2d3188bb1e8929f4fa9b929610f6c611bf0565b60018190556040518181527fb8b290c068ed53e46165f3ca5215dcc2972ae26ae4c8fb5adc71a1c135f85513906020015b60405180910390a150565b6113067f97667070c54ef182b0f5858b034beac1b6f3089aa2d3188bb1e8929f4fa9b929610f6c611bf0565b60068190556040518181527faa06aa6d79ce3cb966afe332af120b3aa8252dc355d1d2dae1368babec5f3ee5906020016112cf565b6113466110bf611bf0565b8483811415806113565750808214155b1561138d576040517f6582533600000000000000000000000000000000000000000000000000000000815260040160405180910390fd5b60005b818110156111a8578585828181106113aa576113aa612e6b565b90506020020160208101906113bf9190612bcb565b73ffffffffffffffffffffffffffffffffffffffff166323b872dd308a8a858181106113ed576113ed612e6b565b90506020020160208101906114029190612bcb565b87878681811061141457611414612e6b565b6040517fffffffff0000000000000000000000000000000000000000000000000000000060e088901b16815273ffffffffffffffffffffffffffffffffffffffff958616600482015294909316602485015250602090910201356044820152606401600060405180830381600087803b15801561149057600080fd5b505af11580156114a4573d6000803e3d6000fd5b50505050806001019050611390565b60006114bd611bf0565b90506114cb81610619611bfa565b6106358383836114d9611c97565b92919061225f565b600654600090861061151f576040517f2273ee1800000000000000000000000000000000000000000000000000000000815260040160405180910390fd5b858414611558576040517f6582533600000000000000000000000000000000000000000000000000000000815260040160405180910390fd5b4260006115658585610fc2565b9050600061157f8260085461157a9190612e29565b612014565b90506000805b8a81101561189d5760008a8a838181106115a1576115a1612e6b565b90506020020135905060008d8d848181106115be576115be612e6b565b90506020020135905080600003611604576040517f8ce0857d00000000000000000000000000000000000000000000000000000000815260006004820152602401610733565b6001548110611642576040517f8ce0857d00000000000000000000000000000000000000000000000000000000815260048101829052602401610733565b60045482101561169057600480546040517f4c642486000000000000000000000000000000000000000000000000000000008152918201839052602482018490526044820152606401610733565b6000818152600760209081526040808320815160608101835281548152600182015493810184905260029091015491810191909152910361172d5760055483111561171c576005546040517ff1c8a68700000000000000000000000000000000000000000000000000000000815260048101849052602481018590526044810191909152606401610733565b6117268686612e9a565b9450611868565b8f73ffffffffffffffffffffffffffffffffffffffff167f000000000000000000000000000000000000000000000000000000000000000073ffffffffffffffffffffffffffffffffffffffff16636352211e846040518263ffffffff1660e01b815260040161179f91815260200190565b602060405180830381865afa1580156117bc573d6000803e3d6000fd5b505050506040513d601f19601f820116820180604052508101906117e09190612ddd565b73ffffffffffffffffffffffffffffffffffffffff161480156118065750806020015188105b156118335780516118179089612e29565b83111561182e57805182908490610c5e908b612e29565b611868565b6040517f139d679900000000000000000000000000000000000000000000000000000000815260048101839052602401610733565b6003546002546118789085612ead565b6118829190612ec4565b61188c9086612e9a565b945050600190920191506115859050565b509b9a5050505050505050505050565b6118d97f97667070c54ef182b0f5858b034beac1b6f3089aa2d3188bb1e8929f4fa9b929610f6c611bf0565b60058190556040518181527fb4f38443948b39b669154b83689d2dfa2a4cb2b1fd458118da3d1bcdacfc5608906020016112cf565b6111f8611919611bf0565b82611922611bfa565b9190612329565b6119346110bf611bf0565b8281811461196e576040517f6582533600000000000000000000000000000000000000000000000000000000815260040160405180910390fd5b60005b818110156119e0576119d884848381811061198e5761198e612e6b565b905060200201358787848181106119a7576119a7612e6b565b90506020020160208101906119bc9190612bcb565b73ffffffffffffffffffffffffffffffffffffffff169061243d565b600101611971565b505050505050565b611a147f97667070c54ef182b0f5858b034beac1b6f3089aa2d3188bb1e8929f4fa9b929610f6c611bf0565b600080547fffffffffffffffffffffffff00000000000000000000000000000000000000001673ffffffffffffffffffffffffffffffffffffffff83169081179091556040519081527fd99014e6f6a21a1f7025e1599288b52168db6241486596946f759a520d4ddfea906020016112cf565b611ab37f97667070c54ef182b0f5858b034beac1b6f3089aa2d3188bb1e8929f4fa9b929610f6c611bf0565b60048190556040518181527f7d9d1c986503049ed25e197e416ddaeef53d62a8479d6371784f05a9d9da9824906020016112cf565b6000806105fb60017fca9d3e17f264b0f3984e2634e94adb37fa3e6a8103f06aeae6fa59e21c769f5e612e29565b60007c01000000000000000000000000000000000000000000000000000000007fffffffff00000000000000000000000000000000000000000000000000000000831601611b66575060006105fb565b7ffe003659000000000000000000000000000000000000000000000000000000007fffffffff00000000000000000000000000000000000000000000000000000000831601611bb7575060016105fb565b507fffffffff00000000000000000000000000000000000000000000000000000000166000908152602091909152604090205460ff1690565b6000611222612597565b6000806105fb60017fc9ed16f33ab3a66c84bfd83099ccb2a8845871e2e1c1928f63797152f0fd54cd612e29565b815473ffffffffffffffffffffffffffffffffffffffff828116911614611c93576040517f2ef4875e00000000000000000000000000000000000000000000000000000000815273ffffffffffffffffffffffffffffffffffffffff82166004820152602401610733565b5050565b6000806105fb60017fc8827d3282af6f37b64c3e9e6f3ac9df286ab0bb0fccd6f8661bf19adb368b23612e29565b60008381526020858152604080832073ffffffffffffffffffffffffffffffffffffffff8616845290915290205460ff16611d965760008381526020858152604080832073ffffffffffffffffffffffffffffffffffffffff8681168086529184529382902080547fffffffffffffffffffffffffffffffffffffffffffffffffffffffffffffff00166001179055815187815292830152918316918101919091527f2f8788117e7eff1d82e926ec794901d17c78024a50270940304540a733656f0d906060015b60405180910390a15b50505050565b6000805b83811015611fcd576000858583818110611dbc57611dbc612e6b565b90506020020135905060006007600083815260200190815260200160002090508060010154600014158015611df5575080600101548510155b15611f8e5780546001820154611e0b9190612e29565b611e159085612e9a565b600080835560018301819055600283018190556040517f6352211e00000000000000000000000000000000000000000000000000000000815260048101859052919550907f000000000000000000000000000000000000000000000000000000000000000073ffffffffffffffffffffffffffffffffffffffff1690636352211e90602401602060405180830381865afa158015611eb7573d6000803e3d6000fd5b505050506040513d601f19601f82011682018060405250810190611edb9190612ddd565b6040517f79cc679000000000000000000000000000000000000000000000000000000000815273ffffffffffffffffffffffffffffffffffffffff8083166004830152602482018690529192507f0000000000000000000000000000000000000000000000000000000000000000909116906379cc679090604401600060405180830381600087803b158015611f7057600080fd5b505af1158015611f84573d6000803e3d6000fd5b5050505050611fc3565b6040517f9be5764a00000000000000000000000000000000000000000000000000000000815260048101839052602401610733565b5050600101611da0565b50821561126b577f9e5430727c5f2b23597e7cb2670240cc8fbb4031a0dad53562812b380e286b3d8484604051612005929190612f8f565b60405180910390a19392505050565b600080546040517fae1042650000000000000000000000000000000000000000000000000000000081526004810184905273ffffffffffffffffffffffffffffffffffffffff9091169063ae10426590602401602060405180830381865afa158015612084573d6000803e3d6000fd5b505050506040513d601f19601f820116820180604052508101906105fb9190612fe1565b60008281526020848152604080832073ffffffffffffffffffffffffffffffffffffffff8516845290915290205460ff16610635576040517f7aa728820000000000000000000000000000000000000000000000000000000081526004810183905273ffffffffffffffffffffffffffffffffffffffff82166024820152604401610733565b6040805173ffffffffffffffffffffffffffffffffffffffff8416602482015260448082018490528251808303909101815260649091019091526020810180517bffffffffffffffffffffffffffffffffffffffffffffffffffffffff167fa9059cbb000000000000000000000000000000000000000000000000000000001790526106359084906126de565b6121c68382846120a8565b60008181526020848152604080832073ffffffffffffffffffffffffffffffffffffffff86168085529083529281902080547fffffffffffffffffffffffffffffffffffffffffffffffffffffffffffffff0016905580518481529182018390528101919091527ff6391f5c32d9c69d2a47ea670b442974b53935d1edc7fd64eb21e047a839171b9060600160405180910390a1505050565b60008381526020858152604080832073ffffffffffffffffffffffffffffffffffffffff8616845290915290205460ff1615611d965760008381526020858152604080832073ffffffffffffffffffffffffffffffffffffffff8681168086529184529382902080547fffffffffffffffffffffffffffffffffffffffffffffffffffffffffffffff00169055815187815292830152918316918101919091527ff6391f5c32d9c69d2a47ea670b442974b53935d1edc7fd64eb21e047a839171b90606001611d8d565b825473ffffffffffffffffffffffffffffffffffffffff9081169083168114612396576040517f2ef4875e00000000000000000000000000000000000000000000000000000000815273ffffffffffffffffffffffffffffffffffffffff84166004820152602401610733565b8173ffffffffffffffffffffffffffffffffffffffff168173ffffffffffffffffffffffffffffffffffffffff1614611d965783547fffffffffffffffffffffffff00000000000000000000000000000000000000001673ffffffffffffffffffffffffffffffffffffffff8381169182178655604051908316907f8be0079c531659141344cd1fd0a4f28419497f9722a3daafe3b4186f6b6457e090600090a350505050565b804710156124a7576040517f08c379a000000000000000000000000000000000000000000000000000000000815260206004820152601d60248201527f416464726573733a20696e73756666696369656e742062616c616e63650000006044820152606401610733565b60008273ffffffffffffffffffffffffffffffffffffffff168260405160006040518083038185875af1925050503d8060008114612501576040519150601f19603f3d011682016040523d82523d6000602084013e612506565b606091505b5050905080610635576040517f08c379a000000000000000000000000000000000000000000000000000000000815260206004820152603a60248201527f416464726573733a20756e61626c6520746f2073656e642076616c75652c207260448201527f6563697069656e74206d617920686176652072657665727465640000000000006064820152608401610733565b6000333214806125a75750601836105b156125b157503390565b7fffffffffffffffffffffffffffffffffffffffffffffffffffffffffffffffec36013560601c7f000000000000000000000000000000000000000000000000000000000000000073ffffffffffffffffffffffffffffffffffffffff163314806126cd57506040517f8929a8ca00000000000000000000000000000000000000000000000000000000815273ffffffffffffffffffffffffffffffffffffffff82811660048301523360248301527f00000000000000000000000000000000000000000000000000000000000000001690638929a8ca90604401602060405180830381865afa1580156126a9573d6000803e3d6000fd5b505050506040513d601f19601f820116820180604052508101906126cd9190612ffa565b156126d757919050565b3391505090565b6000612740826040518060400160405280602081526020017f5361666545524332303a206c6f772d6c6576656c2063616c6c206661696c65648152508573ffffffffffffffffffffffffffffffffffffffff166127ed9092919063ffffffff16565b90508051600014806127615750808060200190518101906127619190612ffa565b610635576040517f08c379a000000000000000000000000000000000000000000000000000000000815260206004820152602a60248201527f5361666545524332303a204552433230206f7065726174696f6e20646964206e60448201527f6f742073756363656564000000000000000000000000000000000000000000006064820152608401610733565b60606127fc8484600085612804565b949350505050565b606082471015612896576040517f08c379a000000000000000000000000000000000000000000000000000000000815260206004820152602660248201527f416464726573733a20696e73756666696369656e742062616c616e636520666f60448201527f722063616c6c00000000000000000000000000000000000000000000000000006064820152608401610733565b6000808673ffffffffffffffffffffffffffffffffffffffff1685876040516128bf9190613040565b60006040518083038185875af1925050503d80600081146128fc576040519150601f19603f3d011682016040523d82523d6000602084013e612901565b606091505b50915091506129128783838761291d565b979650505050505050565b606083156129b35782516000036129ac5773ffffffffffffffffffffffffffffffffffffffff85163b6129ac576040517f08c379a000000000000000000000000000000000000000000000000000000000815260206004820152601d60248201527f416464726573733a2063616c6c20746f206e6f6e2d636f6e74726163740000006044820152606401610733565b50816127fc565b6127fc83838151156129c85781518083602001fd5b806040517f08c379a0000000000000000000000000000000000000000000000000000000008152600401610733919061305c565b600060208284031215612a0e57600080fd5b81357fffffffff000000000000000000000000000000000000000000000000000000008116811461126b57600080fd5b73ffffffffffffffffffffffffffffffffffffffff811681146111f857600080fd5b60008060408385031215612a7357600080fd5b823591506020830135612a8581612a3e565b809150509250929050565b600060208284031215612aa257600080fd5b5035919050565b60008083601f840112612abb57600080fd5b50813567ffffffffffffffff811115612ad357600080fd5b6020830191508360208260051b8501011115612aee57600080fd5b9250929050565b60008060008060008060008060a0898b031215612b1157600080fd5b8835612b1c81612a3e565b9750602089013567ffffffffffffffff80821115612b3957600080fd5b612b458c838d01612aa9565b909950975060408b0135915080821115612b5e57600080fd5b612b6a8c838d01612aa9565b909750955060608b0135915080821115612b8357600080fd5b50612b908b828c01612aa9565b999c989b50969995989497949560800135949350505050565b60008060408385031215612bbc57600080fd5b50508035926020909101359150565b600060208284031215612bdd57600080fd5b813561126b81612a3e565b60008060208385031215612bfb57600080fd5b823567ffffffffffffffff811115612c1257600080fd5b612c1e85828601612aa9565b90969095509350505050565b60008060008060008060608789031215612c4357600080fd5b863567ffffffffffffffff80821115612c5b57600080fd5b612c678a838b01612aa9565b90985096506020890135915080821115612c8057600080fd5b612c8c8a838b01612aa9565b90965094506040890135915080821115612ca557600080fd5b50612cb289828a01612aa9565b979a9699509497509295939492505050565b60008060008060008060006080888a031215612cdf57600080fd5b8735612cea81612a3e565b9650602088013567ffffffffffffffff80821115612d0757600080fd5b612d138b838c01612aa9565b909850965060408a0135915080821115612d2c57600080fd5b612d388b838c01612aa9565b909650945060608a0135915080821115612d5157600080fd5b50612d5e8a828b01612aa9565b989b979a50959850939692959293505050565b60008060008060408587031215612d8757600080fd5b843567ffffffffffffffff80821115612d9f57600080fd5b612dab88838901612aa9565b90965094506020870135915080821115612dc457600080fd5b50612dd187828801612aa9565b95989497509550505050565b600060208284031215612def57600080fd5b815161126b81612a3e565b7f4e487b7100000000000000000000000000000000000000000000000000000000600052601160045260246000fd5b818103818111156105fb576105fb612dfa565b7f4e487b7100000000000000000000000000000000000000000000000000000000600052604160045260246000fd5b7f4e487b7100000000000000000000000000000000000000000000000000000000600052603260045260246000fd5b808201808211156105fb576105fb612dfa565b80820281158282048414176105fb576105fb612dfa565b600082612efa577f4e487b7100000000000000000000000000000000000000000000000000000000600052601260045260246000fd5b500490565b6040808252835182820181905260009190606090818501906020808901865b83811015612f3a57815185529382019390820190600101612f1e565b5050868303818801528751808452888201938201925060005b81811015612f80578451805185528381015184860152870151878501529382019392850192600101612f53565b50919998505050505050505050565b6020815281602082015260007f07ffffffffffffffffffffffffffffffffffffffffffffffffffffffffffffff831115612fc857600080fd5b8260051b80856040850137919091016040019392505050565b600060208284031215612ff357600080fd5b5051919050565b60006020828403121561300c57600080fd5b8151801515811461126b57600080fd5b60005b8381101561303757818101518382015260200161301f565b50506000910152565b6000825161305281846020870161301c565b9190910192915050565b602081526000825180602084015261307b81604085016020870161301c565b601f017fffffffffffffffffffffffffffffffffffffffffffffffffffffffffffffffe016919091016040019291505056fea2646970667358221220479998d9f50e8c87d5acac2cbd4b80693dca628afadb0c380f0f282490d8834d64736f6c63430008160033",
  "linkReferences": {},
  "deployedLinkReferences": {}
}