{
  "_format": "hh-sol-artifact-1",
  "contractName": "EDULandRental",
  "sourceName": "contracts/land/EDULandRental.sol",
  "abi": [
    {
      "inputs": [
        {
          "internalType": "address",
          "name": "landAddress",
          "type": "address"
        },
        {
          "internalType": "address",
          "name": "pointsAddress",
          "type": "address"
        },
        {
          "internalType": "address",
          "name": "landPriceHelperAddress",
          "type": "address"
        },
        {
          "internalType": "uint256",
          "name": "maintenanceFee_",
          "type": "uint256"
        },
        {
          "internalType": "uint256",
          "name": "maintenanceFeeDenominator_",
          "type": "uint256"
        },
        {
          "internalType": "uint256",
          "name": "minRentalDuration_",
          "type": "uint256"
        },
        {
          "internalType": "uint256",
          "name": "maxRentalDuration_",
          "type": "uint256"
        },
        {
          "internalType": "uint256",
          "name": "maxRentalCountPerCall_",
          "type": "uint256"
        },
        {
          "internalType": "uint256",
          "name": "maxTokenSupply_",
          "type": "uint256"
        },
        {
          "internalType": "contract IForwarderRegistry",
          "name": "forwarderRegistry",
          "type": "address"
        }
      ],
      "stateMutability": "nonpayable",
      "type": "constructor"
    },
    {
      "inputs": [
        {
          "internalType": "uint256",
          "name": "calculatedFee",
          "type": "uint256"
        },
        {
          "internalType": "uint256",
          "name": "maxFee",
          "type": "uint256"
        }
      ],
      "name": "FeeExceeded",
      "type": "error"
    },
    {
      "inputs": [],
      "name": "IllegalInterfaceId",
      "type": "error"
    },
    {
      "inputs": [],
      "name": "InconsistentArrayLengths",
      "type": "error"
    },
    {
      "inputs": [],
      "name": "InvalidTokenIdsParam",
      "type": "error"
    },
    {
      "inputs": [
        {
          "internalType": "address",
          "name": "account",
          "type": "address"
        }
      ],
      "name": "NotContractOwner",
      "type": "error"
    },
    {
      "inputs": [
        {
          "internalType": "bytes32",
          "name": "role",
          "type": "bytes32"
        },
        {
          "internalType": "address",
          "name": "account",
          "type": "address"
        }
      ],
      "name": "NotRoleHolder",
      "type": "error"
    },
    {
      "inputs": [],
      "name": "RentalCountPerCallLimitExceeded",
      "type": "error"
    },
    {
      "inputs": [
        {
          "internalType": "uint256",
          "name": "tokenId",
          "type": "uint256"
        }
      ],
      "name": "RentalDurationTooHigh",
      "type": "error"
    },
    {
      "inputs": [
        {
          "internalType": "uint256",
          "name": "tokenId",
          "type": "uint256"
        }
      ],
      "name": "RentalDurationTooLow",
      "type": "error"
    },
    {
      "inputs": [
        {
          "internalType": "uint256",
          "name": "tokenId",
          "type": "uint256"
        }
      ],
      "name": "TokenAlreadyRented",
      "type": "error"
    },
    {
      "inputs": [
        {
          "internalType": "uint256",
          "name": "tokenId",
          "type": "uint256"
        }
      ],
      "name": "TokenNotExpired",
      "type": "error"
    },
    {
      "inputs": [
        {
          "internalType": "uint256",
          "name": "tokenId",
          "type": "uint256"
        }
      ],
      "name": "TokenNotRented",
      "type": "error"
    },
    {
      "inputs": [
        {
          "internalType": "uint256",
          "name": "tokenId",
          "type": "uint256"
        }
      ],
      "name": "UnsupportedTokenId",
      "type": "error"
    },
    {
      "anonymous": false,
      "inputs": [
        {
          "indexed": false,
          "internalType": "uint256[]",
          "name": "tokenIds",
          "type": "uint256[]"
        }
      ],
      "name": "Collected",
      "type": "event"
    },
    {
      "anonymous": false,
      "inputs": [
        {
          "indexed": false,
          "internalType": "address",
          "name": "newRentalFeeHelper",
          "type": "address"
        }
      ],
      "name": "LandPriceHelperUpdated",
      "type": "event"
    },
    {
      "anonymous": false,
      "inputs": [
        {
          "indexed": false,
          "internalType": "uint256",
          "name": "newMaintenanceFee",
          "type": "uint256"
        },
        {
          "indexed": false,
          "internalType": "uint256",
          "name": "newMaintenanceFeeDenominator",
          "type": "uint256"
        }
      ],
      "name": "MaintenanceFeeUpdated",
      "type": "event"
    },
    {
      "anonymous": false,
      "inputs": [
        {
          "indexed": false,
          "internalType": "uint256",
          "name": "newMaxRentalCountPerCall",
          "type": "uint256"
        }
      ],
      "name": "MaxRentalCountPerCallUpdated",
      "type": "event"
    },
    {
      "anonymous": false,
      "inputs": [
        {
          "indexed": false,
          "internalType": "uint256",
          "name": "newMaxRentalDuration",
          "type": "uint256"
        }
      ],
      "name": "MaxRentalDurationUpdated",
      "type": "event"
    },
    {
      "anonymous": false,
      "inputs": [
        {
          "indexed": false,
          "internalType": "uint256",
          "name": "newMaxTokenSupply",
          "type": "uint256"
        }
      ],
      "name": "MaxTokenSupplyUpdated",
      "type": "event"
    },
    {
      "anonymous": false,
      "inputs": [
        {
          "indexed": false,
          "internalType": "uint256",
          "name": "newMinRentalDuration",
          "type": "uint256"
        }
      ],
      "name": "MinRentalDurationUpdated",
      "type": "event"
    },
    {
      "anonymous": false,
      "inputs": [
        {
          "indexed": true,
          "internalType": "address",
          "name": "previousOwner",
          "type": "address"
        },
        {
          "indexed": true,
          "internalType": "address",
          "name": "newOwner",
          "type": "address"
        }
      ],
      "name": "OwnershipTransferred",
      "type": "event"
    },
    {
      "anonymous": false,
      "inputs": [
        {
          "indexed": true,
          "internalType": "address",
          "name": "renter",
          "type": "address"
        },
        {
          "indexed": false,
          "internalType": "uint256[]",
          "name": "tokenIds",
          "type": "uint256[]"
        },
        {
          "indexed": false,
          "internalType": "uint256[]",
          "name": "beginDates",
          "type": "uint256[]"
        },
        {
          "indexed": false,
          "internalType": "uint256[]",
          "name": "endDates",
          "type": "uint256[]"
        },
        {
          "indexed": false,
          "internalType": "uint256[]",
          "name": "fees",
          "type": "uint256[]"
        }
      ],
      "name": "Rental",
      "type": "event"
    },
    {
      "anonymous": false,
      "inputs": [
        {
          "indexed": false,
          "internalType": "bytes32",
          "name": "role",
          "type": "bytes32"
        },
        {
          "indexed": false,
          "internalType": "address",
          "name": "account",
          "type": "address"
        },
        {
          "indexed": false,
          "internalType": "address",
          "name": "operator",
          "type": "address"
        }
      ],
      "name": "RoleGranted",
      "type": "event"
    },
    {
      "anonymous": false,
      "inputs": [
        {
          "indexed": false,
          "internalType": "bytes32",
          "name": "role",
          "type": "bytes32"
        },
        {
          "indexed": false,
          "internalType": "address",
          "name": "account",
          "type": "address"
        },
        {
          "indexed": false,
          "internalType": "address",
          "name": "operator",
          "type": "address"
        }
      ],
      "name": "RoleRevoked",
      "type": "event"
    },
    {
      "inputs": [],
      "name": "EDU_LAND",
      "outputs": [
        {
          "internalType": "contract IEDULand",
          "name": "",
          "type": "address"
        }
      ],
      "stateMutability": "view",
      "type": "function"
    },
    {
      "inputs": [],
      "name": "OPERATOR_ROLE",
      "outputs": [
        {
          "internalType": "bytes32",
          "name": "",
          "type": "bytes32"
        }
      ],
      "stateMutability": "view",
      "type": "function"
    },
    {
      "inputs": [],
      "name": "POINTS",
      "outputs": [
        {
          "internalType": "contract Points",
          "name": "",
          "type": "address"
        }
      ],
      "stateMutability": "view",
      "type": "function"
    },
    {
      "inputs": [],
      "name": "RENTAL_CONSUME_CODE",
      "outputs": [
        {
          "internalType": "bytes32",
          "name": "",
          "type": "bytes32"
        }
      ],
      "stateMutability": "view",
      "type": "function"
    },
    {
      "inputs": [
        {
          "internalType": "uint256[]",
          "name": "tokenIds",
          "type": "uint256[]"
        }
      ],
      "name": "calculateElapsedTimeForExpiredTokens",
      "outputs": [
        {
          "internalType": "uint256",
          "name": "elapsedTime",
          "type": "uint256"
        }
      ],
      "stateMutability": "view",
      "type": "function"
    },
    {
      "inputs": [
        {
          "internalType": "uint256[]",
          "name": "tokenIds",
          "type": "uint256[]"
        }
      ],
      "name": "collectExpiredTokens",
      "outputs": [],
      "stateMutability": "nonpayable",
      "type": "function"
    },
    {
      "inputs": [
        {
          "internalType": "uint256[]",
          "name": "tokenIds",
          "type": "uint256[]"
        },
        {
          "internalType": "uint256[]",
          "name": "durations",
          "type": "uint256[]"
        },
        {
          "internalType": "uint256[]",
          "name": "expiredTokenIds",
          "type": "uint256[]"
        }
      ],
      "name": "estimateRentalFee",
      "outputs": [
        {
          "internalType": "uint256",
          "name": "fee",
          "type": "uint256"
        }
      ],
      "stateMutability": "view",
      "type": "function"
    },
    {
      "inputs": [],
      "name": "forwarderRegistry",
      "outputs": [
        {
          "internalType": "contract IForwarderRegistry",
          "name": "",
          "type": "address"
        }
      ],
      "stateMutability": "view",
      "type": "function"
    },
    {
      "inputs": [
        {
          "internalType": "bytes32",
          "name": "role",
          "type": "bytes32"
        },
        {
          "internalType": "address",
          "name": "account",
          "type": "address"
        }
      ],
      "name": "grantRole",
      "outputs": [],
      "stateMutability": "nonpayable",
      "type": "function"
    },
    {
      "inputs": [
        {
          "internalType": "bytes32",
          "name": "role",
          "type": "bytes32"
        },
        {
          "internalType": "address",
          "name": "account",
          "type": "address"
        }
      ],
      "name": "hasRole",
      "outputs": [
        {
          "internalType": "bool",
          "name": "hasRole_",
          "type": "bool"
        }
      ],
      "stateMutability": "view",
      "type": "function"
    },
    {
      "inputs": [
        {
          "internalType": "address",
          "name": "forwarder",
          "type": "address"
        }
      ],
      "name": "isTrustedForwarder",
      "outputs": [
        {
          "internalType": "bool",
          "name": "",
          "type": "bool"
        }
      ],
      "stateMutability": "view",
      "type": "function"
    },
    {
      "inputs": [],
      "name": "landPriceHelper",
      "outputs": [
        {
          "internalType": "contract IEDULandPriceHelper",
          "name": "",
          "type": "address"
        }
      ],
      "stateMutability": "view",
      "type": "function"
    },
    {
      "inputs": [],
      "name": "maintenanceFee",
      "outputs": [
        {
          "internalType": "uint256",
          "name": "",
          "type": "uint256"
        }
      ],
      "stateMutability": "view",
      "type": "function"
    },
    {
      "inputs": [],
      "name": "maintenanceFeeDenominator",
      "outputs": [
        {
          "internalType": "uint256",
          "name": "",
          "type": "uint256"
        }
      ],
      "stateMutability": "view",
      "type": "function"
    },
    {
      "inputs": [],
      "name": "maxRentalCountPerCall",
      "outputs": [
        {
          "internalType": "uint256",
          "name": "",
          "type": "uint256"
        }
      ],
      "stateMutability": "view",
      "type": "function"
    },
    {
      "inputs": [],
      "name": "maxRentalDuration",
      "outputs": [
        {
          "internalType": "uint256",
          "name": "",
          "type": "uint256"
        }
      ],
      "stateMutability": "view",
      "type": "function"
    },
    {
      "inputs": [],
      "name": "maxTokenSupply",
      "outputs": [
        {
          "internalType": "uint256",
          "name": "",
          "type": "uint256"
        }
      ],
      "stateMutability": "view",
      "type": "function"
    },
    {
      "inputs": [],
      "name": "minRentalDuration",
      "outputs": [
        {
          "internalType": "uint256",
          "name": "",
          "type": "uint256"
        }
      ],
      "stateMutability": "view",
      "type": "function"
    },
    {
      "inputs": [],
      "name": "owner",
      "outputs": [
        {
          "internalType": "address",
          "name": "",
          "type": "address"
        }
      ],
      "stateMutability": "view",
      "type": "function"
    },
    {
      "inputs": [
        {
          "internalType": "address[]",
          "name": "accounts",
          "type": "address[]"
        },
        {
          "internalType": "contract IERC20[]",
          "name": "tokens",
          "type": "address[]"
        },
        {
          "internalType": "uint256[]",
          "name": "amounts",
          "type": "uint256[]"
        }
      ],
      "name": "recoverERC20s",
      "outputs": [],
      "stateMutability": "nonpayable",
      "type": "function"
    },
    {
      "inputs": [
        {
          "internalType": "address[]",
          "name": "accounts",
          "type": "address[]"
        },
        {
          "internalType": "contract IERC721[]",
          "name": "contracts",
          "type": "address[]"
        },
        {
          "internalType": "uint256[]",
          "name": "tokenIds",
          "type": "uint256[]"
        }
      ],
      "name": "recoverERC721s",
      "outputs": [],
      "stateMutability": "nonpayable",
      "type": "function"
    },
    {
      "inputs": [
        {
          "internalType": "address payable[]",
          "name": "accounts",
          "type": "address[]"
        },
        {
          "internalType": "uint256[]",
          "name": "amounts",
          "type": "uint256[]"
        }
      ],
      "name": "recoverETH",
      "outputs": [],
      "stateMutability": "nonpayable",
      "type": "function"
    },
    {
      "inputs": [
        {
          "internalType": "bytes32",
          "name": "role",
          "type": "bytes32"
        }
      ],
      "name": "renounceRole",
      "outputs": [],
      "stateMutability": "nonpayable",
      "type": "function"
    },
    {
      "inputs": [
        {
          "internalType": "uint256[]",
          "name": "tokenIds",
          "type": "uint256[]"
        },
        {
          "internalType": "uint256[]",
          "name": "durations",
          "type": "uint256[]"
        },
        {
          "internalType": "uint256[]",
          "name": "expiredTokenIds",
          "type": "uint256[]"
        },
        {
          "internalType": "uint256",
          "name": "maxFee",
          "type": "uint256"
        }
      ],
      "name": "rent",
      "outputs": [],
      "stateMutability": "nonpayable",
      "type": "function"
    },
    {
      "inputs": [
        {
          "internalType": "uint256",
          "name": "",
          "type": "uint256"
        }
      ],
      "name": "rentals",
      "outputs": [
        {
          "internalType": "uint256",
          "name": "beginDate",
          "type": "uint256"
        },
        {
          "internalType": "uint256",
          "name": "endDate",
          "type": "uint256"
        },
        {
          "internalType": "uint256",
          "name": "fee",
          "type": "uint256"
        }
      ],
      "stateMutability": "view",
      "type": "function"
    },
    {
      "inputs": [
        {
          "internalType": "uint256",
          "name": "tokenId",
          "type": "uint256"
        }
      ],
      "name": "renterOf",
      "outputs": [
        {
          "internalType": "address",
          "name": "",
          "type": "address"
        }
      ],
      "stateMutability": "view",
      "type": "function"
    },
    {
      "inputs": [
        {
          "internalType": "bytes32",
          "name": "role",
          "type": "bytes32"
        },
        {
          "internalType": "address",
          "name": "account",
          "type": "address"
        }
      ],
      "name": "revokeRole",
      "outputs": [],
      "stateMutability": "nonpayable",
      "type": "function"
    },
    {
      "inputs": [
        {
          "internalType": "address",
          "name": "newLandPriceHelper",
          "type": "address"
        }
      ],
      "name": "setLandPriceHelper",
      "outputs": [],
      "stateMutability": "nonpayable",
      "type": "function"
    },
    {
      "inputs": [
        {
          "internalType": "uint256",
          "name": "newMaintenanceFee",
          "type": "uint256"
        },
        {
          "internalType": "uint256",
          "name": "newMaintenanceFeeDenominator",
          "type": "uint256"
        }
      ],
      "name": "setMaintenanceFee",
      "outputs": [],
      "stateMutability": "nonpayable",
      "type": "function"
    },
    {
      "inputs": [
        {
          "internalType": "uint256",
          "name": "newRentalCountPerCall",
          "type": "uint256"
        }
      ],
      "name": "setMaxRentalCountPerCall",
      "outputs": [],
      "stateMutability": "nonpayable",
      "type": "function"
    },
    {
      "inputs": [
        {
          "internalType": "uint256",
          "name": "newMaxRentalDuration",
          "type": "uint256"
        }
      ],
      "name": "setMaxRentalDuration",
      "outputs": [],
      "stateMutability": "nonpayable",
      "type": "function"
    },
    {
      "inputs": [
        {
          "internalType": "uint256",
          "name": "newMaxTokenSupply",
          "type": "uint256"
        }
      ],
      "name": "setMaxTokenSupply",
      "outputs": [],
      "stateMutability": "nonpayable",
      "type": "function"
    },
    {
      "inputs": [
        {
          "internalType": "uint256",
          "name": "newMinRentalDuration",
          "type": "uint256"
        }
      ],
      "name": "setMinRentalDuration",
      "outputs": [],
      "stateMutability": "nonpayable",
      "type": "function"
    },
    {
      "inputs": [
        {
          "internalType": "bytes4",
          "name": "interfaceId",
          "type": "bytes4"
        }
      ],
      "name": "supportsInterface",
      "outputs": [
        {
          "internalType": "bool",
          "name": "",
          "type": "bool"
        }
      ],
      "stateMutability": "view",
      "type": "function"
    },
    {
      "inputs": [],
      "name": "totalOngoingRentalTime",
      "outputs": [
        {
          "internalType": "uint256",
          "name": "",
          "type": "uint256"
        }
      ],
      "stateMutability": "view",
      "type": "function"
    },
    {
      "inputs": [
        {
          "internalType": "address",
          "name": "newOwner",
          "type": "address"
        }
      ],
      "name": "transferOwnership",
      "outputs": [],
      "stateMutability": "nonpayable",
      "type": "function"
    }
  ],
  "bytecode": "0x60e06040523480156200001157600080fd5b50604051620034f0380380620034f083398101604081905262000034916200033c565b8080336200004d8162000046620001e5565b906200021b565b506001600160a01b039081166080528b811660c0528a811660a052600080546001600160a01b031916918b1691821790556040519081527fd99014e6f6a21a1f7025e1599288b52168db6241486596946f759a520d4ddfea915060200160405180910390a16002879055600386905560408051888152602081018890527f788db483524e27f5a39a54daaeb81bb48059af776767d0c1f600ef6e996d2818910160405180910390a160048590556040518581527f7d9d1c986503049ed25e197e416ddaeef53d62a8479d6371784f05a9d9da98249060200160405180910390a160058490556040518481527fb4f38443948b39b669154b83689d2dfa2a4cb2b1fd458118da3d1bcdacfc56089060200160405180910390a160068390556040518381527faa06aa6d79ce3cb966afe332af120b3aa8252dc355d1d2dae1368babec5f3ee59060200160405180910390a160018290556040518281527fb8b290c068ed53e46165f3ca5215dcc2972ae26ae4c8fb5adc71a1c135f855139060200160405180910390a15050505050505050505062000405565b6000806200021560017fc9ed16f33ab3a66c84bfd83099ccb2a8845871e2e1c1928f63797152f0fd54cd620003e3565b92915050565b6001600160a01b03811615620002725781546001600160a01b0319166001600160a01b03821690811783556040516000907f8be0079c531659141344cd1fd0a4f28419497f9722a3daafe3b4186f6b6457e0908290a35b620002926307f5828d60e41b60016200028a62000296565b9190620002c6565b5050565b6000806200021560017fca9d3e17f264b0f3984e2634e94adb37fa3e6a8103f06aeae6fa59e21c769f5e620003e3565b600160e01b6001600160e01b0319831601620002f5576040516372c683bb60e01b815260040160405180910390fd5b6001600160e01b03199190911660009081526020929092526040909120805460ff1916911515919091179055565b6001600160a01b03811681146200033957600080fd5b50565b6000806000806000806000806000806101408b8d0312156200035d57600080fd5b8a516200036a8162000323565b60208c0151909a506200037d8162000323565b60408c0151909950620003908162000323565b8098505060608b0151965060808b0151955060a08b0151945060c08b0151935060e08b015192506101008b015191506101208b0151620003d08162000323565b809150509295989b9194979a5092959850565b818103818111156200021557634e487b7160e01b600052601160045260246000fd5b60805160a05160c0516130756200047b600039600081816102a5015281816109b601528181610afa01528181610f4a015281816117d501528181611dc10152611e900152600081816104130152610e05015260008181610323015281816103a20152818161270e015261279601526130756000f3fe608060405234801561001057600080fd5b506004361061025c5760003560e01c80638da5cb5b11610145578063dd286177116100bd578063f5b541a61161008c578063f7ba94bd11610071578063f7ba94bd146105ae578063f7df6bad146105c1578063fb203c17146105d457600080fd5b8063f5b541a61461057e578063f7032194146105a557600080fd5b8063dd2861771461051e578063e105c43c14610545578063e4f095d914610558578063f2fde38b1461056b57600080fd5b8063b07ed98211610114578063b65dd451116100f9578063b65dd451146104e5578063c3666c36146104f8578063d547741f1461050b57600080fd5b8063b07ed982146104c9578063b2b47e3b146104dc57600080fd5b80638da5cb5b1461045b57806391d1485414610463578063a5f7375814610476578063af94a1d11461047f57600080fd5b806350f7c204116101d857806373c8a958116101a75780637f6e42811161018c5780637f6e42811461040e57806388b681fe146104355780638bb9c5bf1461044857600080fd5b806373c8a958146103f25780637ce4026f1461040557600080fd5b806350f7c204146103765780635625ac511461037f578063572b6c051461039257806370243bcc146103df57600080fd5b806321d428161161022f5780632f2ff15d116102145780632f2ff15d1461034757806334f1a8d31461035a5780633d9f01fb1461036357600080fd5b806321d428161461030c5780632b4c9f161461032157600080fd5b806301ffc9a714610261578063046604491461028957806315e682cb146102a05780631aabc61d146102ec575b600080fd5b61027461026f366004612a92565b6105e7565b60405190151581526020015b60405180910390f35b61029260025481565b604051908152602001610280565b6102c77f000000000000000000000000000000000000000000000000000000000000000081565b60405173ffffffffffffffffffffffffffffffffffffffff9091168152602001610280565b6000546102c79073ffffffffffffffffffffffffffffffffffffffff1681565b61031f61031a366004612b20565b610601565b005b7f00000000000000000000000000000000000000000000000000000000000000006102c7565b61031f610355366004612be5565b610ec9565b61029260045481565b6102c7610371366004612c15565b610f02565b61029260015481565b61031f61038d366004612c2e565b610fff565b6102746103a0366004612c50565b7f000000000000000000000000000000000000000000000000000000000000000073ffffffffffffffffffffffffffffffffffffffff90811691161490565b6102926103ed366004612c6d565b611081565b61031f610400366004612caf565b611110565b61029260055481565b6102c77f000000000000000000000000000000000000000000000000000000000000000081565b61031f610443366004612c6d565b61120e565b61031f610456366004612c15565b61123b565b6102c7611259565b610274610471366004612be5565b611285565b61029260085481565b6104ae61048d366004612c15565b60076020526000908152604090208054600182015460029092015490919083565b60408051938452602084019290925290820152606001610280565b61031f6104d7366004612c15565b6112d0565b61029260035481565b61031f6104f3366004612c15565b611338565b61031f610506366004612caf565b611399565b61031f610519366004612be5565b611511565b6102927f0e67d2d2c46f23cfff9f76c16187348901bf73ba32dcf6893f2a2a4b25be75f881565b610292610553366004612caf565b61153f565b61031f610566366004612c15565b61196d565b61031f610579366004612c50565b6119ce565b6102927f97667070c54ef182b0f5858b034beac1b6f3089aa2d3188bb1e8929f4fa9b92981565b61029260065481565b61031f6105bc366004612d49565b6119e9565b61031f6105cf366004612c50565b611aa8565b61031f6105e2366004612c15565b611b47565b60006105fb826105f5611ba8565b90611bd6565b92915050565b60008787808060200260200160405190810160405280939291908181526020018383602002808284376000920182905250604080516020808d0282810182019093528c825296975091959194508b93508a925082918501908490808284376000920191909152505060065485519394509092111591506106af9050576040517f2273ee1800000000000000000000000000000000000000000000000000000000815260040160405180910390fd5b80518251146106ea576040517f6582533600000000000000000000000000000000000000000000000000000000815260040160405180910390fd5b60006106f4611cb0565b905042600061070588888484611cba565b6008546107129190612de4565b9050600061071f82611fa6565b90506000865167ffffffffffffffff81111561073d5761073d612df7565b604051908082528060200260200182016040528015610766578160200160208202803683370190505b5090506000875167ffffffffffffffff81111561078557610785612df7565b6040519080825280602002602001820160405280156107ae578160200160208202803683370190505b5090506000885167ffffffffffffffff8111156107cd576107cd612df7565b6040519080825280602002602001820160405280156107f6578160200160208202803683370190505b50905060008060005b8b51811015610d365760008c828151811061081c5761081c612e26565b6020026020010151905060008c838151811061083a5761083a612e26565b6020026020010151905081600003610886576040517f8ce0857d000000000000000000000000000000000000000000000000000000008152600060048201526024015b60405180910390fd5b60015482106108c4576040517f8ce0857d0000000000000000000000000000000000000000000000000000000081526004810183905260240161087d565b600554811115610903576040517fb479b6550000000000000000000000000000000000000000000000000000000081526004810183905260240161087d565b60008281526007602052604081206001810154909103610acb5760045482101561095c576040517f508a9a3a0000000000000000000000000000000000000000000000000000000081526004810184905260240161087d565b6040517f8832e6e300000000000000000000000000000000000000000000000000000000815273ffffffffffffffffffffffffffffffffffffffff8e811660048301526024820185905260606044830152600060648301527f00000000000000000000000000000000000000000000000000000000000000001690638832e6e390608401600060405180830381600087803b1580156109fa57600080fd5b505af1158015610a0e573d6000803e3d6000fd5b5050508c8255506000610a21838e612e55565b60018301819055600354600254919250600091610a3e9086612e68565b610a489190612e7f565b610a52908d612e55565b600284018190559050610a658188612e55565b96508d8b8781518110610a7a57610a7a612e26565b602002602001018181525050818a8781518110610a9957610a99612e26565b60200260200101818152505080898781518110610ab857610ab8612e26565b6020026020010181815250505050610d1b565b6040517f6352211e000000000000000000000000000000000000000000000000000000008152600481018490527f000000000000000000000000000000000000000000000000000000000000000073ffffffffffffffffffffffffffffffffffffffff1690636352211e90602401602060405180830381865afa158015610b56573d6000803e3d6000fd5b505050506040513d601f19601f82011682018060405250810190610b7a9190612eba565b73ffffffffffffffffffffffffffffffffffffffff168d73ffffffffffffffffffffffffffffffffffffffff16148015610bb7575080600101548c105b15610ce6576000610bc8838e612e55565b6001830154600454919250908190610be09084612de4565b1015610c1b576040517f508a9a3a0000000000000000000000000000000000000000000000000000000081526004810186905260240161087d565b6000610c278284612de4565b60018501849055600354600254919250600091610c449084612e68565b610c4e9190612e7f565b610c58908f612e55565b905080856002016000828254610c6e9190612e55565b90915550610c7e9050818a612e55565b9850828d8981518110610c9357610c93612e26565b602002602001018181525050838c8981518110610cb257610cb2612e26565b602002602001018181525050808b8981518110610cd157610cd1612e26565b60200260200101818152505050505050610d1b565b6040517f139d67990000000000000000000000000000000000000000000000000000000081526004810184905260240161087d565b610d258287612e55565b955050600190920191506107ff9050565b508b15801590610d4557508b81115b15610d86576040517fd519701100000000000000000000000000000000000000000000000000000000815260048101829052602481018d905260440161087d565b610d908288612e55565b6008556040517f212aac7900000000000000000000000000000000000000000000000000000000815273ffffffffffffffffffffffffffffffffffffffff8a81166004830152602482018390527f0e67d2d2c46f23cfff9f76c16187348901bf73ba32dcf6893f2a2a4b25be75f860448301527f0000000000000000000000000000000000000000000000000000000000000000169063212aac7990606401600060405180830381600087803b158015610e4957600080fd5b505af1158015610e5d573d6000803e3d6000fd5b505050508873ffffffffffffffffffffffffffffffffffffffff167f34a3f395b50735b2b7b8f7ece79da6b46efdb3f0aeb0eb5871dcff84354d03758c878787604051610ead9493929190612f13565b60405180910390a2505050505050505050505050505050505050565b6000610ed3611cb0565b9050610ee781610ee161203a565b90612068565b610efd838383610ef56120d7565b929190612105565b505050565b600081815260076020526040812060010154421015610fca576040517f6352211e000000000000000000000000000000000000000000000000000000008152600481018390527f000000000000000000000000000000000000000000000000000000000000000073ffffffffffffffffffffffffffffffffffffffff1690636352211e90602401602060405180830381865afa158015610fa6573d6000803e3d6000fd5b505050506040513d601f19601f820116820180604052508101906105fb9190612eba565b6040517f1297346f0000000000000000000000000000000000000000000000000000000081526004810183905260240161087d565b61103a7f97667070c54ef182b0f5858b034beac1b6f3089aa2d3188bb1e8929f4fa9b92961102b611cb0565b6110336120d7565b91906121dc565b6002829055600381905560408051838152602081018390527f788db483524e27f5a39a54daaeb81bb48059af776767d0c1f600ef6e996d2818910160405180910390a15050565b600042815b838110156111085760008585838181106110a2576110a2612e26565b905060200201359050600060076000838152602001908152602001600020905080600101546000141580156110db575080600101548410155b156110fe57805460018201546110f19190612de4565b6110fb9086612e55565b94505b5050600101611086565b505092915050565b61112361111b611cb0565b610ee161203a565b8483811415806111335750808214155b1561116a576040517f6582533600000000000000000000000000000000000000000000000000000000815260040160405180910390fd5b60005b81811015611204576111fc88888381811061118a5761118a612e26565b905060200201602081019061119f9190612c50565b8585848181106111b1576111b1612e26565b905060200201358888858181106111ca576111ca612e26565b90506020020160208101906111df9190612c50565b73ffffffffffffffffffffffffffffffffffffffff169190612262565b60010161116d565b5050505050505050565b600061121d8383426001611cba565b905080600860008282546112319190612de4565b9091555050505050565b611256611246611cb0565b8261124f6120d7565b91906122ef565b50565b600061128061126661203a565b5473ffffffffffffffffffffffffffffffffffffffff1690565b905090565b60006112c983836112946120d7565b60009283526020908152604080842073ffffffffffffffffffffffffffffffffffffffff909316845291905290205460ff1690565b9392505050565b6112fc7f97667070c54ef182b0f5858b034beac1b6f3089aa2d3188bb1e8929f4fa9b92961102b611cb0565b60018190556040518181527fb8b290c068ed53e46165f3ca5215dcc2972ae26ae4c8fb5adc71a1c135f85513906020015b60405180910390a150565b6113647f97667070c54ef182b0f5858b034beac1b6f3089aa2d3188bb1e8929f4fa9b92961102b611cb0565b60068190556040518181527faa06aa6d79ce3cb966afe332af120b3aa8252dc355d1d2dae1368babec5f3ee59060200161132d565b6113a461111b611cb0565b8483811415806113b45750808214155b156113eb576040517f6582533600000000000000000000000000000000000000000000000000000000815260040160405180910390fd5b60005b818110156112045785858281811061140857611408612e26565b905060200201602081019061141d9190612c50565b73ffffffffffffffffffffffffffffffffffffffff166323b872dd308a8a8581811061144b5761144b612e26565b90506020020160208101906114609190612c50565b87878681811061147257611472612e26565b6040517fffffffff0000000000000000000000000000000000000000000000000000000060e088901b16815273ffffffffffffffffffffffffffffffffffffffff958616600482015294909316602485015250602090910201356044820152606401600060405180830381600087803b1580156114ee57600080fd5b505af1158015611502573d6000803e3d6000fd5b505050508060010190506113ee565b600061151b611cb0565b905061152981610ee161203a565b610efd8383836115376120d7565b929190612393565b60065460009086111561157e576040517f2273ee1800000000000000000000000000000000000000000000000000000000815260040160405180910390fd5b8584146115b7576040517f6582533600000000000000000000000000000000000000000000000000000000815260040160405180910390fd5b4260006115c48585611081565b905060006115de826008546115d99190612de4565b611fa6565b90506000805b8a8110156119495760008a8a8381811061160057611600612e26565b90506020020135905060008d8d8481811061161d5761161d612e26565b90506020020135905080600003611663576040517f8ce0857d0000000000000000000000000000000000000000000000000000000081526000600482015260240161087d565b60015481106116a1576040517f8ce0857d0000000000000000000000000000000000000000000000000000000081526004810182905260240161087d565b6005548211156116e0576040517fb479b6550000000000000000000000000000000000000000000000000000000081526004810182905260240161087d565b600081815260076020908152604080832081516060810183528154815260018201549381018490526002909101549181019190915291036117855760045483101561175a576040517f508a9a3a0000000000000000000000000000000000000000000000000000000081526004810183905260240161087d565b60035460025461176a9085612e68565b6117749190612e7f565b61177e9086612e55565b945061193e565b61178d611cb0565b6040517f6352211e0000000000000000000000000000000000000000000000000000000081526004810184905273ffffffffffffffffffffffffffffffffffffffff918216917f00000000000000000000000000000000000000000000000000000000000000001690636352211e90602401602060405180830381865afa15801561181c573d6000803e3d6000fd5b505050506040513d601f19601f820116820180604052508101906118409190612eba565b73ffffffffffffffffffffffffffffffffffffffff161480156118665750806020015188105b15611909576000611877848a612e55565b905081602001516004548261188c9190612de4565b10156118c7576040517f508a9a3a0000000000000000000000000000000000000000000000000000000081526004810184905260240161087d565b60008260200151826118d99190612de4565b9050600354600254826118ec9190612e68565b6118f69190612e7f565b6119009088612e55565b9650505061193e565b6040517f139d67990000000000000000000000000000000000000000000000000000000081526004810183905260240161087d565b5050506001016115e4565b506119548a83612e68565b61195e9082612e55565b9b9a5050505050505050505050565b6119997f97667070c54ef182b0f5858b034beac1b6f3089aa2d3188bb1e8929f4fa9b92961102b611cb0565b60058190556040518181527fb4f38443948b39b669154b83689d2dfa2a4cb2b1fd458118da3d1bcdacfc56089060200161132d565b6112566119d9611cb0565b826119e261203a565b919061245d565b6119f461111b611cb0565b82818114611a2e576040517f6582533600000000000000000000000000000000000000000000000000000000815260040160405180910390fd5b60005b81811015611aa057611a98848483818110611a4e57611a4e612e26565b90506020020135878784818110611a6757611a67612e26565b9050602002016020810190611a7c9190612c50565b73ffffffffffffffffffffffffffffffffffffffff1690612571565b600101611a31565b505050505050565b611ad47f97667070c54ef182b0f5858b034beac1b6f3089aa2d3188bb1e8929f4fa9b92961102b611cb0565b600080547fffffffffffffffffffffffff00000000000000000000000000000000000000001673ffffffffffffffffffffffffffffffffffffffff83169081179091556040519081527fd99014e6f6a21a1f7025e1599288b52168db6241486596946f759a520d4ddfea9060200161132d565b611b737f97667070c54ef182b0f5858b034beac1b6f3089aa2d3188bb1e8929f4fa9b92961102b611cb0565b60048190556040518181527f7d9d1c986503049ed25e197e416ddaeef53d62a8479d6371784f05a9d9da98249060200161132d565b6000806105fb60017fca9d3e17f264b0f3984e2634e94adb37fa3e6a8103f06aeae6fa59e21c769f5e612de4565b60007c01000000000000000000000000000000000000000000000000000000007fffffffff00000000000000000000000000000000000000000000000000000000831601611c26575060006105fb565b7ffe003659000000000000000000000000000000000000000000000000000000007fffffffff00000000000000000000000000000000000000000000000000000000831601611c77575060016105fb565b507fffffffff00000000000000000000000000000000000000000000000000000000166000908152602091909152604090205460ff1690565b60006112806126cb565b6000808467ffffffffffffffff811115611cd657611cd6612df7565b604051908082528060200260200182016040528015611cff578160200160208202803683370190505b5090506000805b86811015611f5c576000888883818110611d2257611d22612e26565b90506020020135905060006007600083815260200190815260200160002090508060010154600014158015611d5b575080600101548810155b15611f175780546001820154611d719190612de4565b611d7b9087612e55565b600080835560018301819055600283018190556040517f6352211e00000000000000000000000000000000000000000000000000000000815260048101859052919750907f000000000000000000000000000000000000000000000000000000000000000073ffffffffffffffffffffffffffffffffffffffff1690636352211e90602401602060405180830381865afa158015611e1d573d6000803e3d6000fd5b505050506040513d601f19601f82011682018060405250810190611e419190612eba565b6040517f79cc679000000000000000000000000000000000000000000000000000000000815273ffffffffffffffffffffffffffffffffffffffff8083166004830152602482018690529192507f0000000000000000000000000000000000000000000000000000000000000000909116906379cc679090604401600060405180830381600087803b158015611ed657600080fd5b505af1158015611eea573d6000803e3d6000fd5b5050505082868581518110611f0157611f01612e26565b6020026020010181815250506001945050611f52565b8615611f52576040517f9be5764a0000000000000000000000000000000000000000000000000000000081526004810183905260240161087d565b5050600101611d06565b508015611f9b577f9e5430727c5f2b23597e7cb2670240cc8fbb4031a0dad53562812b380e286b3d82604051611f929190612f60565b60405180910390a15b50505b949350505050565b600080546040517fae1042650000000000000000000000000000000000000000000000000000000081526004810184905273ffffffffffffffffffffffffffffffffffffffff9091169063ae10426590602401602060405180830381865afa158015612016573d6000803e3d6000fd5b505050506040513d601f19601f820116820180604052508101906105fb9190612f73565b6000806105fb60017fc9ed16f33ab3a66c84bfd83099ccb2a8845871e2e1c1928f63797152f0fd54cd612de4565b815473ffffffffffffffffffffffffffffffffffffffff8281169116146120d3576040517f2ef4875e00000000000000000000000000000000000000000000000000000000815273ffffffffffffffffffffffffffffffffffffffff8216600482015260240161087d565b5050565b6000806105fb60017fc8827d3282af6f37b64c3e9e6f3ac9df286ab0bb0fccd6f8661bf19adb368b23612de4565b60008381526020858152604080832073ffffffffffffffffffffffffffffffffffffffff8616845290915290205460ff166121d65760008381526020858152604080832073ffffffffffffffffffffffffffffffffffffffff8681168086529184529382902080547fffffffffffffffffffffffffffffffffffffffffffffffffffffffffffffff00166001179055815187815292830152918316918101919091527f2f8788117e7eff1d82e926ec794901d17c78024a50270940304540a733656f0d906060015b60405180910390a15b50505050565b60008281526020848152604080832073ffffffffffffffffffffffffffffffffffffffff8516845290915290205460ff16610efd576040517f7aa728820000000000000000000000000000000000000000000000000000000081526004810183905273ffffffffffffffffffffffffffffffffffffffff8216602482015260440161087d565b6040805173ffffffffffffffffffffffffffffffffffffffff8416602482015260448082018490528251808303909101815260649091019091526020810180517bffffffffffffffffffffffffffffffffffffffffffffffffffffffff167fa9059cbb00000000000000000000000000000000000000000000000000000000179052610efd908490612812565b6122fa8382846121dc565b60008181526020848152604080832073ffffffffffffffffffffffffffffffffffffffff86168085529083529281902080547fffffffffffffffffffffffffffffffffffffffffffffffffffffffffffffff0016905580518481529182018390528101919091527ff6391f5c32d9c69d2a47ea670b442974b53935d1edc7fd64eb21e047a839171b9060600160405180910390a1505050565b60008381526020858152604080832073ffffffffffffffffffffffffffffffffffffffff8616845290915290205460ff16156121d65760008381526020858152604080832073ffffffffffffffffffffffffffffffffffffffff8681168086529184529382902080547fffffffffffffffffffffffffffffffffffffffffffffffffffffffffffffff00169055815187815292830152918316918101919091527ff6391f5c32d9c69d2a47ea670b442974b53935d1edc7fd64eb21e047a839171b906060016121cd565b825473ffffffffffffffffffffffffffffffffffffffff90811690831681146124ca576040517f2ef4875e00000000000000000000000000000000000000000000000000000000815273ffffffffffffffffffffffffffffffffffffffff8416600482015260240161087d565b8173ffffffffffffffffffffffffffffffffffffffff168173ffffffffffffffffffffffffffffffffffffffff16146121d65783547fffffffffffffffffffffffff00000000000000000000000000000000000000001673ffffffffffffffffffffffffffffffffffffffff8381169182178655604051908316907f8be0079c531659141344cd1fd0a4f28419497f9722a3daafe3b4186f6b6457e090600090a350505050565b804710156125db576040517f08c379a000000000000000000000000000000000000000000000000000000000815260206004820152601d60248201527f416464726573733a20696e73756666696369656e742062616c616e6365000000604482015260640161087d565b60008273ffffffffffffffffffffffffffffffffffffffff168260405160006040518083038185875af1925050503d8060008114612635576040519150601f19603f3d011682016040523d82523d6000602084013e61263a565b606091505b5050905080610efd576040517f08c379a000000000000000000000000000000000000000000000000000000000815260206004820152603a60248201527f416464726573733a20756e61626c6520746f2073656e642076616c75652c207260448201527f6563697069656e74206d61792068617665207265766572746564000000000000606482015260840161087d565b6000333214806126db5750601836105b156126e557503390565b7fffffffffffffffffffffffffffffffffffffffffffffffffffffffffffffffec36013560601c7f000000000000000000000000000000000000000000000000000000000000000073ffffffffffffffffffffffffffffffffffffffff1633148061280157506040517f8929a8ca00000000000000000000000000000000000000000000000000000000815273ffffffffffffffffffffffffffffffffffffffff82811660048301523360248301527f00000000000000000000000000000000000000000000000000000000000000001690638929a8ca90604401602060405180830381865afa1580156127dd573d6000803e3d6000fd5b505050506040513d601f19601f820116820180604052508101906128019190612f8c565b1561280b57919050565b3391505090565b6000612874826040518060400160405280602081526020017f5361666545524332303a206c6f772d6c6576656c2063616c6c206661696c65648152508573ffffffffffffffffffffffffffffffffffffffff166129219092919063ffffffff16565b90508051600014806128955750808060200190518101906128959190612f8c565b610efd576040517f08c379a000000000000000000000000000000000000000000000000000000000815260206004820152602a60248201527f5361666545524332303a204552433230206f7065726174696f6e20646964206e60448201527f6f74207375636365656400000000000000000000000000000000000000000000606482015260840161087d565b6060611f9e8484600085856000808673ffffffffffffffffffffffffffffffffffffffff1685876040516129559190612fd2565b60006040518083038185875af1925050503d8060008114612992576040519150601f19603f3d011682016040523d82523d6000602084013e612997565b606091505b50915091506129a8878383876129b3565b979650505050505050565b60608315612a49578251600003612a425773ffffffffffffffffffffffffffffffffffffffff85163b612a42576040517f08c379a000000000000000000000000000000000000000000000000000000000815260206004820152601d60248201527f416464726573733a2063616c6c20746f206e6f6e2d636f6e7472616374000000604482015260640161087d565b5081611f9e565b611f9e8383815115612a5e5781518083602001fd5b806040517f08c379a000000000000000000000000000000000000000000000000000000000815260040161087d9190612fee565b600060208284031215612aa457600080fd5b81357fffffffff00000000000000000000000000000000000000000000000000000000811681146112c957600080fd5b60008083601f840112612ae657600080fd5b50813567ffffffffffffffff811115612afe57600080fd5b6020830191508360208260051b8501011115612b1957600080fd5b9250929050565b60008060008060008060006080888a031215612b3b57600080fd5b873567ffffffffffffffff80821115612b5357600080fd5b612b5f8b838c01612ad4565b909950975060208a0135915080821115612b7857600080fd5b612b848b838c01612ad4565b909750955060408a0135915080821115612b9d57600080fd5b50612baa8a828b01612ad4565b989b979a50959894979596606090950135949350505050565b73ffffffffffffffffffffffffffffffffffffffff8116811461125657600080fd5b60008060408385031215612bf857600080fd5b823591506020830135612c0a81612bc3565b809150509250929050565b600060208284031215612c2757600080fd5b5035919050565b60008060408385031215612c4157600080fd5b50508035926020909101359150565b600060208284031215612c6257600080fd5b81356112c981612bc3565b60008060208385031215612c8057600080fd5b823567ffffffffffffffff811115612c9757600080fd5b612ca385828601612ad4565b90969095509350505050565b60008060008060008060608789031215612cc857600080fd5b863567ffffffffffffffff80821115612ce057600080fd5b612cec8a838b01612ad4565b90985096506020890135915080821115612d0557600080fd5b612d118a838b01612ad4565b90965094506040890135915080821115612d2a57600080fd5b50612d3789828a01612ad4565b979a9699509497509295939492505050565b60008060008060408587031215612d5f57600080fd5b843567ffffffffffffffff80821115612d7757600080fd5b612d8388838901612ad4565b90965094506020870135915080821115612d9c57600080fd5b50612da987828801612ad4565b95989497509550505050565b7f4e487b7100000000000000000000000000000000000000000000000000000000600052601160045260246000fd5b818103818111156105fb576105fb612db5565b7f4e487b7100000000000000000000000000000000000000000000000000000000600052604160045260246000fd5b7f4e487b7100000000000000000000000000000000000000000000000000000000600052603260045260246000fd5b808201808211156105fb576105fb612db5565b80820281158282048414176105fb576105fb612db5565b600082612eb5577f4e487b7100000000000000000000000000000000000000000000000000000000600052601260045260246000fd5b500490565b600060208284031215612ecc57600080fd5b81516112c981612bc3565b60008151808452602080850194506020840160005b83811015612f0857815187529582019590820190600101612eec565b509495945050505050565b608081526000612f266080830187612ed7565b8281036020840152612f388187612ed7565b90508281036040840152612f4c8186612ed7565b905082810360608401526129a88185612ed7565b6020815260006112c96020830184612ed7565b600060208284031215612f8557600080fd5b5051919050565b600060208284031215612f9e57600080fd5b815180151581146112c957600080fd5b60005b83811015612fc9578181015183820152602001612fb1565b50506000910152565b60008251612fe4818460208701612fae565b9190910192915050565b602081526000825180602084015261300d816040850160208701612fae565b601f017fffffffffffffffffffffffffffffffffffffffffffffffffffffffffffffffe016919091016040019291505056fea2646970667358221220e310e7eefeb7de47b662cb12a044451ee9a5e95d00b7a5f17f3b981f4322c1fd64736f6c63430008160033",
  "linkReferences": {},
  "deployedLinkReferences": {}
}