{
  "_format": "hh-sol-artifact-1",
  "contractName": "EDULandRental",
  "sourceName": "contracts/land/EDULandRental.sol",
  "abi": [
    {
      "inputs": [
        {
          "internalType": "address",
          "name": "landAddress",
          "type": "address"
        },
        {
          "internalType": "address",
          "name": "pointsAddress",
          "type": "address"
        },
        {
          "internalType": "address",
          "name": "rentalFeeHelperAddress",
          "type": "address"
        },
        {
          "internalType": "uint256",
          "name": "maintenanceFee_",
          "type": "uint256"
        },
        {
          "internalType": "uint256",
          "name": "maintenanceFeeDenominator_",
          "type": "uint256"
        },
        {
          "internalType": "uint256",
          "name": "maxRentalDuration_",
          "type": "uint256"
        },
        {
          "internalType": "uint256",
          "name": "maxRentalCountPerCall_",
          "type": "uint256"
        },
        {
          "internalType": "uint256",
          "name": "maxTokenSupply_",
          "type": "uint256"
        },
        {
          "internalType": "contract IForwarderRegistry",
          "name": "forwarderRegistry",
          "type": "address"
        }
      ],
      "stateMutability": "nonpayable",
      "type": "constructor"
    },
    {
      "inputs": [
        {
          "internalType": "uint256",
          "name": "calculatedFee",
          "type": "uint256"
        },
        {
          "internalType": "uint256",
          "name": "maxFee",
          "type": "uint256"
        }
      ],
      "name": "FeeExceeded",
      "type": "error"
    },
    {
      "inputs": [],
      "name": "IllegalInterfaceId",
      "type": "error"
    },
    {
      "inputs": [],
      "name": "InconsistentArrayLengths",
      "type": "error"
    },
    {
      "inputs": [],
      "name": "InvalidTokenIdsParam",
      "type": "error"
    },
    {
      "inputs": [
        {
          "internalType": "address",
          "name": "account",
          "type": "address"
        }
      ],
      "name": "NotContractOwner",
      "type": "error"
    },
    {
      "inputs": [
        {
          "internalType": "bytes32",
          "name": "role",
          "type": "bytes32"
        },
        {
          "internalType": "address",
          "name": "account",
          "type": "address"
        }
      ],
      "name": "NotRoleHolder",
      "type": "error"
    },
    {
      "inputs": [],
      "name": "RentalCountPerCallLimitExceeded",
      "type": "error"
    },
    {
      "inputs": [
        {
          "internalType": "uint256",
          "name": "tokenId",
          "type": "uint256"
        },
        {
          "internalType": "uint256",
          "name": "duration",
          "type": "uint256"
        }
      ],
      "name": "RentalDurationLimitExceeded",
      "type": "error"
    },
    {
      "inputs": [
        {
          "internalType": "uint256",
          "name": "tokenId",
          "type": "uint256"
        }
      ],
      "name": "TokenAlreadyRented",
      "type": "error"
    },
    {
      "inputs": [
        {
          "internalType": "uint256",
          "name": "tokenId",
          "type": "uint256"
        }
      ],
      "name": "TokenNotExpired",
      "type": "error"
    },
    {
      "inputs": [
        {
          "internalType": "uint256",
          "name": "tokenId",
          "type": "uint256"
        }
      ],
      "name": "TokenNotRented",
      "type": "error"
    },
    {
      "inputs": [
        {
          "internalType": "uint256",
          "name": "tokenId",
          "type": "uint256"
        }
      ],
      "name": "UnsupportedTokenId",
      "type": "error"
    },
    {
      "inputs": [
        {
          "internalType": "uint256",
          "name": "tokenId",
          "type": "uint256"
        }
      ],
      "name": "ZeroRentalDuration",
      "type": "error"
    },
    {
      "anonymous": false,
      "inputs": [
        {
          "indexed": false,
          "internalType": "uint256[]",
          "name": "tokenIds",
          "type": "uint256[]"
        }
      ],
      "name": "Collected",
      "type": "event"
    },
    {
      "anonymous": false,
      "inputs": [
        {
          "indexed": false,
          "internalType": "uint256",
          "name": "newMaintenanceFee",
          "type": "uint256"
        },
        {
          "indexed": false,
          "internalType": "uint256",
          "name": "newMaintenanceFeeDenominator",
          "type": "uint256"
        }
      ],
      "name": "MaintenanceFeeUpdated",
      "type": "event"
    },
    {
      "anonymous": false,
      "inputs": [
        {
          "indexed": false,
          "internalType": "uint256",
          "name": "newMaxRentalCountPerCall",
          "type": "uint256"
        }
      ],
      "name": "MaxRentalCountPerCallUpdated",
      "type": "event"
    },
    {
      "anonymous": false,
      "inputs": [
        {
          "indexed": false,
          "internalType": "uint256",
          "name": "newMaxRentalDuration",
          "type": "uint256"
        }
      ],
      "name": "MaxRentalDurationUpdated",
      "type": "event"
    },
    {
      "anonymous": false,
      "inputs": [
        {
          "indexed": false,
          "internalType": "uint256",
          "name": "newMaxTokenSupply",
          "type": "uint256"
        }
      ],
      "name": "MaxTokenSupplyUpdated",
      "type": "event"
    },
    {
      "anonymous": false,
      "inputs": [
        {
          "indexed": true,
          "internalType": "address",
          "name": "previousOwner",
          "type": "address"
        },
        {
          "indexed": true,
          "internalType": "address",
          "name": "newOwner",
          "type": "address"
        }
      ],
      "name": "OwnershipTransferred",
      "type": "event"
    },
    {
      "anonymous": false,
      "inputs": [
        {
          "indexed": true,
          "internalType": "address",
          "name": "renter",
          "type": "address"
        },
        {
          "indexed": false,
          "internalType": "uint256[]",
          "name": "tokenIds",
          "type": "uint256[]"
        },
        {
          "components": [
            {
              "internalType": "uint256",
              "name": "beginDate",
              "type": "uint256"
            },
            {
              "internalType": "uint256",
              "name": "endDate",
              "type": "uint256"
            },
            {
              "internalType": "uint256",
              "name": "fee",
              "type": "uint256"
            }
          ],
          "indexed": false,
          "internalType": "struct EDULandRental.RentalInfo[]",
          "name": "rentals",
          "type": "tuple[]"
        }
      ],
      "name": "Rental",
      "type": "event"
    },
    {
      "anonymous": false,
      "inputs": [
        {
          "indexed": false,
          "internalType": "address",
          "name": "newRentalFeeHelper",
          "type": "address"
        }
      ],
      "name": "RentalFeeHelperUpdated",
      "type": "event"
    },
    {
      "anonymous": false,
      "inputs": [
        {
          "indexed": false,
          "internalType": "bytes32",
          "name": "role",
          "type": "bytes32"
        },
        {
          "indexed": false,
          "internalType": "address",
          "name": "account",
          "type": "address"
        },
        {
          "indexed": false,
          "internalType": "address",
          "name": "operator",
          "type": "address"
        }
      ],
      "name": "RoleGranted",
      "type": "event"
    },
    {
      "anonymous": false,
      "inputs": [
        {
          "indexed": false,
          "internalType": "bytes32",
          "name": "role",
          "type": "bytes32"
        },
        {
          "indexed": false,
          "internalType": "address",
          "name": "account",
          "type": "address"
        },
        {
          "indexed": false,
          "internalType": "address",
          "name": "operator",
          "type": "address"
        }
      ],
      "name": "RoleRevoked",
      "type": "event"
    },
    {
      "inputs": [],
      "name": "EDU_LAND",
      "outputs": [
        {
          "internalType": "contract IEDULand",
          "name": "",
          "type": "address"
        }
      ],
      "stateMutability": "view",
      "type": "function"
    },
    {
      "inputs": [],
      "name": "OPERATOR_ROLE",
      "outputs": [
        {
          "internalType": "bytes32",
          "name": "",
          "type": "bytes32"
        }
      ],
      "stateMutability": "view",
      "type": "function"
    },
    {
      "inputs": [],
      "name": "POINTS",
      "outputs": [
        {
          "internalType": "contract Points",
          "name": "",
          "type": "address"
        }
      ],
      "stateMutability": "view",
      "type": "function"
    },
    {
      "inputs": [],
      "name": "RENTAL_CONSUME_CODE",
      "outputs": [
        {
          "internalType": "bytes32",
          "name": "",
          "type": "bytes32"
        }
      ],
      "stateMutability": "view",
      "type": "function"
    },
    {
      "inputs": [
        {
          "internalType": "uint256[]",
          "name": "tokenIds",
          "type": "uint256[]"
        }
      ],
      "name": "calculateElapsedTimeForExpiredTokens",
      "outputs": [
        {
          "internalType": "uint256",
          "name": "elapsedTime",
          "type": "uint256"
        }
      ],
      "stateMutability": "view",
      "type": "function"
    },
    {
      "inputs": [
        {
          "internalType": "uint256[]",
          "name": "tokenIds",
          "type": "uint256[]"
        }
      ],
      "name": "collectExpiredTokens",
      "outputs": [],
      "stateMutability": "nonpayable",
      "type": "function"
    },
    {
      "inputs": [
        {
          "internalType": "address",
          "name": "account",
          "type": "address"
        },
        {
          "internalType": "uint256[]",
          "name": "tokenIds",
          "type": "uint256[]"
        },
        {
          "internalType": "uint256[]",
          "name": "durations",
          "type": "uint256[]"
        },
        {
          "internalType": "uint256[]",
          "name": "expiredTokenIds",
          "type": "uint256[]"
        }
      ],
      "name": "estimateRentalFee",
      "outputs": [
        {
          "internalType": "uint256",
          "name": "fee",
          "type": "uint256"
        }
      ],
      "stateMutability": "view",
      "type": "function"
    },
    {
      "inputs": [],
      "name": "forwarderRegistry",
      "outputs": [
        {
          "internalType": "contract IForwarderRegistry",
          "name": "",
          "type": "address"
        }
      ],
      "stateMutability": "view",
      "type": "function"
    },
    {
      "inputs": [
        {
          "internalType": "bytes32",
          "name": "role",
          "type": "bytes32"
        },
        {
          "internalType": "address",
          "name": "account",
          "type": "address"
        }
      ],
      "name": "grantRole",
      "outputs": [],
      "stateMutability": "nonpayable",
      "type": "function"
    },
    {
      "inputs": [
        {
          "internalType": "bytes32",
          "name": "role",
          "type": "bytes32"
        },
        {
          "internalType": "address",
          "name": "account",
          "type": "address"
        }
      ],
      "name": "hasRole",
      "outputs": [
        {
          "internalType": "bool",
          "name": "hasRole_",
          "type": "bool"
        }
      ],
      "stateMutability": "view",
      "type": "function"
    },
    {
      "inputs": [
        {
          "internalType": "address",
          "name": "forwarder",
          "type": "address"
        }
      ],
      "name": "isTrustedForwarder",
      "outputs": [
        {
          "internalType": "bool",
          "name": "",
          "type": "bool"
        }
      ],
      "stateMutability": "view",
      "type": "function"
    },
    {
      "inputs": [],
      "name": "maintenanceFee",
      "outputs": [
        {
          "internalType": "uint256",
          "name": "",
          "type": "uint256"
        }
      ],
      "stateMutability": "view",
      "type": "function"
    },
    {
      "inputs": [],
      "name": "maintenanceFeeDenominator",
      "outputs": [
        {
          "internalType": "uint256",
          "name": "",
          "type": "uint256"
        }
      ],
      "stateMutability": "view",
      "type": "function"
    },
    {
      "inputs": [],
      "name": "maxRentalCountPerCall",
      "outputs": [
        {
          "internalType": "uint256",
          "name": "",
          "type": "uint256"
        }
      ],
      "stateMutability": "view",
      "type": "function"
    },
    {
      "inputs": [],
      "name": "maxRentalDuration",
      "outputs": [
        {
          "internalType": "uint256",
          "name": "",
          "type": "uint256"
        }
      ],
      "stateMutability": "view",
      "type": "function"
    },
    {
      "inputs": [],
      "name": "maxTokenSupply",
      "outputs": [
        {
          "internalType": "uint256",
          "name": "",
          "type": "uint256"
        }
      ],
      "stateMutability": "view",
      "type": "function"
    },
    {
      "inputs": [],
      "name": "owner",
      "outputs": [
        {
          "internalType": "address",
          "name": "",
          "type": "address"
        }
      ],
      "stateMutability": "view",
      "type": "function"
    },
    {
      "inputs": [
        {
          "internalType": "address[]",
          "name": "accounts",
          "type": "address[]"
        },
        {
          "internalType": "contract IERC20[]",
          "name": "tokens",
          "type": "address[]"
        },
        {
          "internalType": "uint256[]",
          "name": "amounts",
          "type": "uint256[]"
        }
      ],
      "name": "recoverERC20s",
      "outputs": [],
      "stateMutability": "nonpayable",
      "type": "function"
    },
    {
      "inputs": [
        {
          "internalType": "address[]",
          "name": "accounts",
          "type": "address[]"
        },
        {
          "internalType": "contract IERC721[]",
          "name": "contracts",
          "type": "address[]"
        },
        {
          "internalType": "uint256[]",
          "name": "tokenIds",
          "type": "uint256[]"
        }
      ],
      "name": "recoverERC721s",
      "outputs": [],
      "stateMutability": "nonpayable",
      "type": "function"
    },
    {
      "inputs": [
        {
          "internalType": "address payable[]",
          "name": "accounts",
          "type": "address[]"
        },
        {
          "internalType": "uint256[]",
          "name": "amounts",
          "type": "uint256[]"
        }
      ],
      "name": "recoverETH",
      "outputs": [],
      "stateMutability": "nonpayable",
      "type": "function"
    },
    {
      "inputs": [
        {
          "internalType": "bytes32",
          "name": "role",
          "type": "bytes32"
        }
      ],
      "name": "renounceRole",
      "outputs": [],
      "stateMutability": "nonpayable",
      "type": "function"
    },
    {
      "inputs": [
        {
          "internalType": "address",
          "name": "account",
          "type": "address"
        },
        {
          "internalType": "uint256[]",
          "name": "tokenIds",
          "type": "uint256[]"
        },
        {
          "internalType": "uint256[]",
          "name": "durations",
          "type": "uint256[]"
        },
        {
          "internalType": "uint256[]",
          "name": "expiredTokenIds",
          "type": "uint256[]"
        },
        {
          "internalType": "uint256",
          "name": "maxFee",
          "type": "uint256"
        }
      ],
      "name": "rent",
      "outputs": [],
      "stateMutability": "nonpayable",
      "type": "function"
    },
    {
      "inputs": [],
      "name": "rentalFeeHelper",
      "outputs": [
        {
          "internalType": "contract IEDULandRentalFeeHelper",
          "name": "",
          "type": "address"
        }
      ],
      "stateMutability": "view",
      "type": "function"
    },
    {
      "inputs": [
        {
          "internalType": "uint256",
          "name": "",
          "type": "uint256"
        }
      ],
      "name": "rentals",
      "outputs": [
        {
          "internalType": "uint256",
          "name": "beginDate",
          "type": "uint256"
        },
        {
          "internalType": "uint256",
          "name": "endDate",
          "type": "uint256"
        },
        {
          "internalType": "uint256",
          "name": "fee",
          "type": "uint256"
        }
      ],
      "stateMutability": "view",
      "type": "function"
    },
    {
      "inputs": [
        {
          "internalType": "uint256",
          "name": "tokenId",
          "type": "uint256"
        }
      ],
      "name": "renterOf",
      "outputs": [
        {
          "internalType": "address",
          "name": "",
          "type": "address"
        }
      ],
      "stateMutability": "view",
      "type": "function"
    },
    {
      "inputs": [
        {
          "internalType": "bytes32",
          "name": "role",
          "type": "bytes32"
        },
        {
          "internalType": "address",
          "name": "account",
          "type": "address"
        }
      ],
      "name": "revokeRole",
      "outputs": [],
      "stateMutability": "nonpayable",
      "type": "function"
    },
    {
      "inputs": [
        {
          "internalType": "uint256",
          "name": "newMaintenanceFee",
          "type": "uint256"
        },
        {
          "internalType": "uint256",
          "name": "newMaintenanceFeeDenominator",
          "type": "uint256"
        }
      ],
      "name": "setMaintenanceFee",
      "outputs": [],
      "stateMutability": "nonpayable",
      "type": "function"
    },
    {
      "inputs": [
        {
          "internalType": "uint256",
          "name": "newRentalCountPerCall",
          "type": "uint256"
        }
      ],
      "name": "setMaxRentalCountPerCall",
      "outputs": [],
      "stateMutability": "nonpayable",
      "type": "function"
    },
    {
      "inputs": [
        {
          "internalType": "uint256",
          "name": "newMaxRentalDuration",
          "type": "uint256"
        }
      ],
      "name": "setMaxRentalDuration",
      "outputs": [],
      "stateMutability": "nonpayable",
      "type": "function"
    },
    {
      "inputs": [
        {
          "internalType": "uint256",
          "name": "newMaxTokenSupply",
          "type": "uint256"
        }
      ],
      "name": "setMaxTokenSupply",
      "outputs": [],
      "stateMutability": "nonpayable",
      "type": "function"
    },
    {
      "inputs": [
        {
          "internalType": "address",
          "name": "newRentalFeeHelper",
          "type": "address"
        }
      ],
      "name": "setRentalFeeHelper",
      "outputs": [],
      "stateMutability": "nonpayable",
      "type": "function"
    },
    {
      "inputs": [
        {
          "internalType": "bytes4",
          "name": "interfaceId",
          "type": "bytes4"
        }
      ],
      "name": "supportsInterface",
      "outputs": [
        {
          "internalType": "bool",
          "name": "",
          "type": "bool"
        }
      ],
      "stateMutability": "view",
      "type": "function"
    },
    {
      "inputs": [],
      "name": "totalEffectiveRentalTime",
      "outputs": [
        {
          "internalType": "uint256",
          "name": "",
          "type": "uint256"
        }
      ],
      "stateMutability": "view",
      "type": "function"
    },
    {
      "inputs": [
        {
          "internalType": "address",
          "name": "newOwner",
          "type": "address"
        }
      ],
      "name": "transferOwnership",
      "outputs": [],
      "stateMutability": "nonpayable",
      "type": "function"
    }
  ],
  "bytecode": "0x60e06040523480156200001157600080fd5b506040516200346138038062003461833981016040819052620000349162000303565b8080336200004d8162000046620001ac565b90620001e2565b506001600160a01b039081166080528a811660c05289811660a052600080546001600160a01b031916918a1691821790556040519081527f32e3c8160f3ad415113c43e56fec4f8cda4518c6d3218dd8806991407acd6d0b915060200160405180910390a16002869055600385905560408051878152602081018790527f788db483524e27f5a39a54daaeb81bb48059af776767d0c1f600ef6e996d2818910160405180910390a160048490556040518481527fb4f38443948b39b669154b83689d2dfa2a4cb2b1fd458118da3d1bcdacfc56089060200160405180910390a160058390556040518381527faa06aa6d79ce3cb966afe332af120b3aa8252dc355d1d2dae1368babec5f3ee59060200160405180910390a160018290556040518281527fb8b290c068ed53e46165f3ca5215dcc2972ae26ae4c8fb5adc71a1c135f855139060200160405180910390a1505050505050505050620003c1565b600080620001dc60017fc9ed16f33ab3a66c84bfd83099ccb2a8845871e2e1c1928f63797152f0fd54cd6200039f565b92915050565b6001600160a01b03811615620002395781546001600160a01b0319166001600160a01b03821690811783556040516000907f8be0079c531659141344cd1fd0a4f28419497f9722a3daafe3b4186f6b6457e0908290a35b620002596307f5828d60e41b6001620002516200025d565b91906200028d565b5050565b600080620001dc60017fca9d3e17f264b0f3984e2634e94adb37fa3e6a8103f06aeae6fa59e21c769f5e6200039f565b600160e01b6001600160e01b0319831601620002bc576040516372c683bb60e01b815260040160405180910390fd5b6001600160e01b03199190911660009081526020929092526040909120805460ff1916911515919091179055565b6001600160a01b03811681146200030057600080fd5b50565b60008060008060008060008060006101208a8c0312156200032357600080fd5b89516200033081620002ea565b60208b01519099506200034381620002ea565b60408b01519098506200035681620002ea565b8097505060608a0151955060808a0151945060a08a0151935060c08a0151925060e08a015191506101008a01516200038e81620002ea565b809150509295985092959850929598565b81810381811115620001dc57634e487b7160e01b600052601160045260246000fd5b60805160a05160c05161302a620004376000396000818161026f0152818161063001528181610a2b01528181610b0b0152818161177501528181611da20152611e710152600081816103e70152610db10152600081816102b8015281816103630152818161252101526125a9015261302a6000f3fe608060405234801561001057600080fd5b50600436106102265760003560e01c806388b681fe1161012a578063c3666c36116100bd578063e4f095d91161008c578063f5b541a611610071578063f5b541a614610552578063f703219414610579578063f7ba94bd1461058257600080fd5b8063e4f095d91461052c578063f2fde38b1461053f57600080fd5b8063c3666c36146104cc578063d547741f146104df578063dd286177146104f2578063e077f62b1461051957600080fd5b8063af94a1d1116100f9578063af94a1d114610453578063b07ed9821461049d578063b2b47e3b146104b0578063b65dd451146104b957600080fd5b806388b681fe146104125780638bb9c5bf146104255780638da5cb5b1461043857806391d148541461044057600080fd5b806350f7c204116101bd57806370243bcc1161018c5780637ce4026f116101715780637ce4026f146103d95780637f6e4281146103e257806385ca80761461040957600080fd5b806370243bcc146103b357806373c8a958146103c657600080fd5b806350f7c204146103375780635625ac5114610340578063572b6c051461035357806364c737da146103a057600080fd5b80632f2ff15d116101f95780632f2ff15d146102dc578063386296f5146102f15780633d9f01fb14610311578063409ad1961461032457600080fd5b806301ffc9a71461022b578063046604491461025357806315e682cb1461026a5780632b4c9f16146102b6575b600080fd5b61023e610239366004612943565b610595565b60405190151581526020015b60405180910390f35b61025c60025481565b60405190815260200161024a565b6102917f000000000000000000000000000000000000000000000000000000000000000081565b60405173ffffffffffffffffffffffffffffffffffffffff909116815260200161024a565b7f0000000000000000000000000000000000000000000000000000000000000000610291565b6102ef6102ea3660046129a7565b6105af565b005b6000546102919073ffffffffffffffffffffffffffffffffffffffff1681565b61029161031f3660046129d7565b6105e8565b6102ef610332366004612a3c565b6106ea565b61025c60015481565b6102ef61034e366004612af0565b610eec565b61023e610361366004612b12565b7f000000000000000000000000000000000000000000000000000000000000000073ffffffffffffffffffffffffffffffffffffffff90811691161490565b6102ef6103ae366004612b12565b610f6e565b61025c6103c1366004612b2f565b611014565b6102ef6103d4366004612b71565b611106565b61025c60045481565b6102917f000000000000000000000000000000000000000000000000000000000000000081565b61025c60075481565b6102ef610420366004612b2f565b611204565b6102ef6104333660046129d7565b61122f565b61029161124d565b61023e61044e3660046129a7565b611279565b6104826104613660046129d7565b60066020526000908152604090208054600182015460029092015490919083565b6040805193845260208401929092529082015260600161024a565b6102ef6104ab3660046129d7565b6112c4565b61025c60035481565b6102ef6104c73660046129d7565b611325565b6102ef6104da366004612b71565b611386565b6102ef6104ed3660046129a7565b6114fe565b61025c7f0e67d2d2c46f23cfff9f76c16187348901bf73ba32dcf6893f2a2a4b25be75f881565b61025c610527366004612c0b565b61152c565b6102ef61053a3660046129d7565b6118f4565b6102ef61054d366004612b12565b611955565b61025c7f97667070c54ef182b0f5858b034beac1b6f3089aa2d3188bb1e8929f4fa9b92981565b61025c60055481565b6102ef610590366004612cb8565b611970565b60006105a9826105a3611a2f565b90611a5d565b92915050565b60006105b9611b37565b90506105cd816105c7611b41565b90611b6f565b6105e38383836105db611bde565b929190611c0c565b505050565b6000818152600660205260408120600101544210156106b0576040517f6352211e000000000000000000000000000000000000000000000000000000008152600481018390527f000000000000000000000000000000000000000000000000000000000000000073ffffffffffffffffffffffffffffffffffffffff1690636352211e90602401602060405180830381865afa15801561068c573d6000803e3d6000fd5b505050506040513d601f19601f820116820180604052508101906105a99190612d24565b6040517f1297346f000000000000000000000000000000000000000000000000000000008152600481018390526024015b60405180910390fd5b6005548610610725576040517f2273ee1800000000000000000000000000000000000000000000000000000000815260040160405180910390fd5b85841461075e576040517f6582533600000000000000000000000000000000000000000000000000000000815260040160405180910390fd5b600088905060008888808060200260200160405190810160405280939291908181526020018383602002808284376000920182905250604080516020808e0282810182019093528d825296975091959194508c93508b925082918501908490808284376000920182905250939450429392506107df91508990508884611ce3565b6007546107ec9190612d70565b905060006107f982611f5b565b905060008c67ffffffffffffffff81111561081657610816612d83565b60405190808252806020026020018201604052801561086b57816020015b61085860405180606001604052806000815260200160008152602001600081525090565b8152602001906001900390816108345790505b50905060008060005b8851811015610d3d57600089828151811061089157610891612db2565b6020026020010151905060008983815181106108af576108af612db2565b60200260200101519050806000036108f6576040517f21bd5ed1000000000000000000000000000000000000000000000000000000008152600481018390526024016106e1565b81600003610933576040517f8ce0857d000000000000000000000000000000000000000000000000000000008152600060048201526024016106e1565b6001548210610971576040517f8ce0857d000000000000000000000000000000000000000000000000000000008152600481018390526024016106e1565b60008281526006602052604081206001810154909103610adc576004548211156109d1576040517fee729b8400000000000000000000000000000000000000000000000000000000815260048101849052602481018390526044016106e1565b6040517f8832e6e300000000000000000000000000000000000000000000000000000000815273ffffffffffffffffffffffffffffffffffffffff8e811660048301526024820185905260606044830152600060648301527f00000000000000000000000000000000000000000000000000000000000000001690638832e6e390608401600060405180830381600087803b158015610a6f57600080fd5b505af1158015610a83573d6000803e3d6000fd5b5050508a825550610a94828b612de1565b600182015560035460025460009190610aad9085612df4565b610ab79190612e0b565b610ac1908a612de1565b600283018190559050610ad48187612de1565b955050610cdf565b6040517f6352211e000000000000000000000000000000000000000000000000000000008152600481018490527f000000000000000000000000000000000000000000000000000000000000000073ffffffffffffffffffffffffffffffffffffffff1690636352211e90602401602060405180830381865afa158015610b67573d6000803e3d6000fd5b505050506040513d601f19601f82011682018060405250810190610b8b9190612d24565b73ffffffffffffffffffffffffffffffffffffffff168d73ffffffffffffffffffffffffffffffffffffffff16148015610bc8575080600101548a105b15610caa57600454815460018301548491610be291612d70565b610bec9190612de1565b1115610c4d57828282600001548360010154610c089190612d70565b610c129190612de1565b6040517fee729b84000000000000000000000000000000000000000000000000000000008152600481019290925260248201526044016106e1565b81816001016000828254610c619190612de1565b909155505060035460025460009190610c7a9085612df4565b610c849190612e0b565b905080826002016000828254610c9a9190612de1565b90915550610ad490508187612de1565b6040517f139d6799000000000000000000000000000000000000000000000000000000008152600481018490526024016106e1565b6040805160608101825282548152600183015460208201526002830154918101919091528751889086908110610d1757610d17612db2565b6020908102919091010152610d2c8287612de1565b955050600190920191506108749050565b508915801590610d4c57508981115b15610d8d576040517fd519701100000000000000000000000000000000000000000000000000000000815260048101829052602481018b90526044016106e1565b610d978286612de1565b60075573ffffffffffffffffffffffffffffffffffffffff7f00000000000000000000000000000000000000000000000000000000000000001663212aac79610dde611b37565b6040517fffffffff0000000000000000000000000000000000000000000000000000000060e084901b16815273ffffffffffffffffffffffffffffffffffffffff9091166004820152602481018490527f0e67d2d2c46f23cfff9f76c16187348901bf73ba32dcf6893f2a2a4b25be75f86044820152606401600060405180830381600087803b158015610e7157600080fd5b505af1158015610e85573d6000803e3d6000fd5b505050508873ffffffffffffffffffffffffffffffffffffffff167f71abcae7327579f86b1266a4390233f926d8ce29f0ed821b7b334202bd314e0f8985604051610ed1929190612e46565b60405180910390a25050505050505050505050505050505050565b610f277f97667070c54ef182b0f5858b034beac1b6f3089aa2d3188bb1e8929f4fa9b929610f18611b37565b610f20611bde565b9190611fef565b6002829055600381905560408051838152602081018390527f788db483524e27f5a39a54daaeb81bb48059af776767d0c1f600ef6e996d2818910160405180910390a15050565b610f9a7f97667070c54ef182b0f5858b034beac1b6f3089aa2d3188bb1e8929f4fa9b929610f18611b37565b600080547fffffffffffffffffffffffff00000000000000000000000000000000000000001673ffffffffffffffffffffffffffffffffffffffff83169081179091556040519081527f32e3c8160f3ad415113c43e56fec4f8cda4518c6d3218dd8806991407acd6d0b906020015b60405180910390a150565b600042815b838110156110fe57600085858381811061103557611035612db2565b90506020020135905060006006600083815260200190815260200160002090508060010154600003611096576040517f1297346f000000000000000000000000000000000000000000000000000000008152600481018390526024016106e1565b80600101548410156110d7576040517f9be5764a000000000000000000000000000000000000000000000000000000008152600481018390526024016106e1565b805460018201546110e89190612d70565b6110f29086612de1565b94505050600101611019565b505092915050565b611119611111611b37565b6105c7611b41565b8483811415806111295750808214155b15611160576040517f6582533600000000000000000000000000000000000000000000000000000000815260040160405180910390fd5b60005b818110156111fa576111f288888381811061118057611180612db2565b90506020020160208101906111959190612b12565b8585848181106111a7576111a7612db2565b905060200201358888858181106111c0576111c0612db2565b90506020020160208101906111d59190612b12565b73ffffffffffffffffffffffffffffffffffffffff169190612075565b600101611163565b5050505050505050565b6000611211838342611ce3565b905080600760008282546112259190612d70565b9091555050505050565b61124a61123a611b37565b82611243611bde565b9190612102565b50565b600061127461125a611b41565b5473ffffffffffffffffffffffffffffffffffffffff1690565b905090565b60006112bd8383611288611bde565b60009283526020908152604080842073ffffffffffffffffffffffffffffffffffffffff909316845291905290205460ff1690565b9392505050565b6112f07f97667070c54ef182b0f5858b034beac1b6f3089aa2d3188bb1e8929f4fa9b929610f18611b37565b60018190556040518181527fb8b290c068ed53e46165f3ca5215dcc2972ae26ae4c8fb5adc71a1c135f8551390602001611009565b6113517f97667070c54ef182b0f5858b034beac1b6f3089aa2d3188bb1e8929f4fa9b929610f18611b37565b60058190556040518181527faa06aa6d79ce3cb966afe332af120b3aa8252dc355d1d2dae1368babec5f3ee590602001611009565b611391611111611b37565b8483811415806113a15750808214155b156113d8576040517f6582533600000000000000000000000000000000000000000000000000000000815260040160405180910390fd5b60005b818110156111fa578585828181106113f5576113f5612db2565b905060200201602081019061140a9190612b12565b73ffffffffffffffffffffffffffffffffffffffff166323b872dd308a8a8581811061143857611438612db2565b905060200201602081019061144d9190612b12565b87878681811061145f5761145f612db2565b6040517fffffffff0000000000000000000000000000000000000000000000000000000060e088901b16815273ffffffffffffffffffffffffffffffffffffffff958616600482015294909316602485015250602090910201356044820152606401600060405180830381600087803b1580156114db57600080fd5b505af11580156114ef573d6000803e3d6000fd5b505050508060010190506113db565b6000611508611b37565b9050611516816105c7611b41565b6105e3838383611524611bde565b9291906121a6565b600554600090861061156a576040517f2273ee1800000000000000000000000000000000000000000000000000000000815260040160405180910390fd5b8584146115a3576040517f6582533600000000000000000000000000000000000000000000000000000000815260040160405180910390fd5b4260006115b08585611014565b905060006115ca826007546115c59190612d70565b611f5b565b90506000805b8a8110156118e45760008a8a838181106115ec576115ec612db2565b90506020020135905060008d8d8481811061160957611609612db2565b9050602002013590508160000361164f576040517f21bd5ed1000000000000000000000000000000000000000000000000000000008152600481018290526024016106e1565b8060000361168c576040517f8ce0857d000000000000000000000000000000000000000000000000000000008152600060048201526024016106e1565b60015481106116ca576040517f8ce0857d000000000000000000000000000000000000000000000000000000008152600481018290526024016106e1565b6000818152600660209081526040808320815160608101835281548152600182015493810184905260029091015491810191909152910361175c5760045483111561174b576040517fee729b8400000000000000000000000000000000000000000000000000000000815260048101839052602481018490526044016106e1565b6117558686612de1565b94506118af565b8f73ffffffffffffffffffffffffffffffffffffffff167f000000000000000000000000000000000000000000000000000000000000000073ffffffffffffffffffffffffffffffffffffffff16636352211e846040518263ffffffff1660e01b81526004016117ce91815260200190565b602060405180830381865afa1580156117eb573d6000803e3d6000fd5b505050506040513d601f19601f8201168201806040525081019061180f9190612d24565b73ffffffffffffffffffffffffffffffffffffffff161480156118355750806020015188105b1561187a5760045481516020830151859161184f91612d70565b6118599190612de1565b111561187557818382600001518360200151610c089190612d70565b6118af565b6040517f139d6799000000000000000000000000000000000000000000000000000000008152600481018390526024016106e1565b6003546002546118bf9085612df4565b6118c99190612e0b565b6118d39086612de1565b945050600190920191506115d09050565b509b9a5050505050505050505050565b6119207f97667070c54ef182b0f5858b034beac1b6f3089aa2d3188bb1e8929f4fa9b929610f18611b37565b60048190556040518181527fb4f38443948b39b669154b83689d2dfa2a4cb2b1fd458118da3d1bcdacfc560890602001611009565b61124a611960611b37565b82611969611b41565b9190612270565b61197b611111611b37565b828181146119b5576040517f6582533600000000000000000000000000000000000000000000000000000000815260040160405180910390fd5b60005b81811015611a2757611a1f8484838181106119d5576119d5612db2565b905060200201358787848181106119ee576119ee612db2565b9050602002016020810190611a039190612b12565b73ffffffffffffffffffffffffffffffffffffffff1690612384565b6001016119b8565b505050505050565b6000806105a960017fca9d3e17f264b0f3984e2634e94adb37fa3e6a8103f06aeae6fa59e21c769f5e612d70565b60007c01000000000000000000000000000000000000000000000000000000007fffffffff00000000000000000000000000000000000000000000000000000000831601611aad575060006105a9565b7ffe003659000000000000000000000000000000000000000000000000000000007fffffffff00000000000000000000000000000000000000000000000000000000831601611afe575060016105a9565b507fffffffff00000000000000000000000000000000000000000000000000000000166000908152602091909152604090205460ff1690565b60006112746124de565b6000806105a960017fc9ed16f33ab3a66c84bfd83099ccb2a8845871e2e1c1928f63797152f0fd54cd612d70565b815473ffffffffffffffffffffffffffffffffffffffff828116911614611bda576040517f2ef4875e00000000000000000000000000000000000000000000000000000000815273ffffffffffffffffffffffffffffffffffffffff821660048201526024016106e1565b5050565b6000806105a960017fc8827d3282af6f37b64c3e9e6f3ac9df286ab0bb0fccd6f8661bf19adb368b23612d70565b60008381526020858152604080832073ffffffffffffffffffffffffffffffffffffffff8616845290915290205460ff16611cdd5760008381526020858152604080832073ffffffffffffffffffffffffffffffffffffffff8681168086529184529382902080547fffffffffffffffffffffffffffffffffffffffffffffffffffffffffffffff00166001179055815187815292830152918316918101919091527f2f8788117e7eff1d82e926ec794901d17c78024a50270940304540a733656f0d906060015b60405180910390a15b50505050565b6000805b83811015611f14576000858583818110611d0357611d03612db2565b90506020020135905060006006600083815260200190815260200160002090508060010154600014158015611d3c575080600101548510155b15611ed55780546001820154611d529190612d70565b611d5c9085612de1565b600080835560018301819055600283018190556040517f6352211e00000000000000000000000000000000000000000000000000000000815260048101859052919550907f000000000000000000000000000000000000000000000000000000000000000073ffffffffffffffffffffffffffffffffffffffff1690636352211e90602401602060405180830381865afa158015611dfe573d6000803e3d6000fd5b505050506040513d601f19601f82011682018060405250810190611e229190612d24565b6040517f79cc679000000000000000000000000000000000000000000000000000000000815273ffffffffffffffffffffffffffffffffffffffff8083166004830152602482018690529192507f0000000000000000000000000000000000000000000000000000000000000000909116906379cc679090604401600060405180830381600087803b158015611eb757600080fd5b505af1158015611ecb573d6000803e3d6000fd5b5050505050611f0a565b6040517f9be5764a000000000000000000000000000000000000000000000000000000008152600481018390526024016106e1565b5050600101611ce7565b5082156112bd577f9e5430727c5f2b23597e7cb2670240cc8fbb4031a0dad53562812b380e286b3d8484604051611f4c929190612ed6565b60405180910390a19392505050565b600080546040517fef1130e70000000000000000000000000000000000000000000000000000000081526004810184905273ffffffffffffffffffffffffffffffffffffffff9091169063ef1130e790602401602060405180830381865afa158015611fcb573d6000803e3d6000fd5b505050506040513d601f19601f820116820180604052508101906105a99190612f28565b60008281526020848152604080832073ffffffffffffffffffffffffffffffffffffffff8516845290915290205460ff166105e3576040517f7aa728820000000000000000000000000000000000000000000000000000000081526004810183905273ffffffffffffffffffffffffffffffffffffffff821660248201526044016106e1565b6040805173ffffffffffffffffffffffffffffffffffffffff8416602482015260448082018490528251808303909101815260649091019091526020810180517bffffffffffffffffffffffffffffffffffffffffffffffffffffffff167fa9059cbb000000000000000000000000000000000000000000000000000000001790526105e3908490612625565b61210d838284611fef565b60008181526020848152604080832073ffffffffffffffffffffffffffffffffffffffff86168085529083529281902080547fffffffffffffffffffffffffffffffffffffffffffffffffffffffffffffff0016905580518481529182018390528101919091527ff6391f5c32d9c69d2a47ea670b442974b53935d1edc7fd64eb21e047a839171b9060600160405180910390a1505050565b60008381526020858152604080832073ffffffffffffffffffffffffffffffffffffffff8616845290915290205460ff1615611cdd5760008381526020858152604080832073ffffffffffffffffffffffffffffffffffffffff8681168086529184529382902080547fffffffffffffffffffffffffffffffffffffffffffffffffffffffffffffff00169055815187815292830152918316918101919091527ff6391f5c32d9c69d2a47ea670b442974b53935d1edc7fd64eb21e047a839171b90606001611cd4565b825473ffffffffffffffffffffffffffffffffffffffff90811690831681146122dd576040517f2ef4875e00000000000000000000000000000000000000000000000000000000815273ffffffffffffffffffffffffffffffffffffffff841660048201526024016106e1565b8173ffffffffffffffffffffffffffffffffffffffff168173ffffffffffffffffffffffffffffffffffffffff1614611cdd5783547fffffffffffffffffffffffff00000000000000000000000000000000000000001673ffffffffffffffffffffffffffffffffffffffff8381169182178655604051908316907f8be0079c531659141344cd1fd0a4f28419497f9722a3daafe3b4186f6b6457e090600090a350505050565b804710156123ee576040517f08c379a000000000000000000000000000000000000000000000000000000000815260206004820152601d60248201527f416464726573733a20696e73756666696369656e742062616c616e636500000060448201526064016106e1565b60008273ffffffffffffffffffffffffffffffffffffffff168260405160006040518083038185875af1925050503d8060008114612448576040519150601f19603f3d011682016040523d82523d6000602084013e61244d565b606091505b50509050806105e3576040517f08c379a000000000000000000000000000000000000000000000000000000000815260206004820152603a60248201527f416464726573733a20756e61626c6520746f2073656e642076616c75652c207260448201527f6563697069656e74206d6179206861766520726576657274656400000000000060648201526084016106e1565b6000333214806124ee5750601836105b156124f857503390565b7fffffffffffffffffffffffffffffffffffffffffffffffffffffffffffffffec36013560601c7f000000000000000000000000000000000000000000000000000000000000000073ffffffffffffffffffffffffffffffffffffffff1633148061261457506040517f8929a8ca00000000000000000000000000000000000000000000000000000000815273ffffffffffffffffffffffffffffffffffffffff82811660048301523360248301527f00000000000000000000000000000000000000000000000000000000000000001690638929a8ca90604401602060405180830381865afa1580156125f0573d6000803e3d6000fd5b505050506040513d601f19601f820116820180604052508101906126149190612f41565b1561261e57919050565b3391505090565b6000612687826040518060400160405280602081526020017f5361666545524332303a206c6f772d6c6576656c2063616c6c206661696c65648152508573ffffffffffffffffffffffffffffffffffffffff166127349092919063ffffffff16565b90508051600014806126a85750808060200190518101906126a89190612f41565b6105e3576040517f08c379a000000000000000000000000000000000000000000000000000000000815260206004820152602a60248201527f5361666545524332303a204552433230206f7065726174696f6e20646964206e60448201527f6f7420737563636565640000000000000000000000000000000000000000000060648201526084016106e1565b6060612743848460008561274b565b949350505050565b6060824710156127dd576040517f08c379a000000000000000000000000000000000000000000000000000000000815260206004820152602660248201527f416464726573733a20696e73756666696369656e742062616c616e636520666f60448201527f722063616c6c000000000000000000000000000000000000000000000000000060648201526084016106e1565b6000808673ffffffffffffffffffffffffffffffffffffffff1685876040516128069190612f87565b60006040518083038185875af1925050503d8060008114612843576040519150601f19603f3d011682016040523d82523d6000602084013e612848565b606091505b509150915061285987838387612864565b979650505050505050565b606083156128fa5782516000036128f35773ffffffffffffffffffffffffffffffffffffffff85163b6128f3576040517f08c379a000000000000000000000000000000000000000000000000000000000815260206004820152601d60248201527f416464726573733a2063616c6c20746f206e6f6e2d636f6e747261637400000060448201526064016106e1565b5081612743565b612743838381511561290f5781518083602001fd5b806040517f08c379a00000000000000000000000000000000000000000000000000000000081526004016106e19190612fa3565b60006020828403121561295557600080fd5b81357fffffffff00000000000000000000000000000000000000000000000000000000811681146112bd57600080fd5b73ffffffffffffffffffffffffffffffffffffffff8116811461124a57600080fd5b600080604083850312156129ba57600080fd5b8235915060208301356129cc81612985565b809150509250929050565b6000602082840312156129e957600080fd5b5035919050565b60008083601f840112612a0257600080fd5b50813567ffffffffffffffff811115612a1a57600080fd5b6020830191508360208260051b8501011115612a3557600080fd5b9250929050565b60008060008060008060008060a0898b031215612a5857600080fd5b8835612a6381612985565b9750602089013567ffffffffffffffff80821115612a8057600080fd5b612a8c8c838d016129f0565b909950975060408b0135915080821115612aa557600080fd5b612ab18c838d016129f0565b909750955060608b0135915080821115612aca57600080fd5b50612ad78b828c016129f0565b999c989b50969995989497949560800135949350505050565b60008060408385031215612b0357600080fd5b50508035926020909101359150565b600060208284031215612b2457600080fd5b81356112bd81612985565b60008060208385031215612b4257600080fd5b823567ffffffffffffffff811115612b5957600080fd5b612b65858286016129f0565b90969095509350505050565b60008060008060008060608789031215612b8a57600080fd5b863567ffffffffffffffff80821115612ba257600080fd5b612bae8a838b016129f0565b90985096506020890135915080821115612bc757600080fd5b612bd38a838b016129f0565b90965094506040890135915080821115612bec57600080fd5b50612bf989828a016129f0565b979a9699509497509295939492505050565b60008060008060008060006080888a031215612c2657600080fd5b8735612c3181612985565b9650602088013567ffffffffffffffff80821115612c4e57600080fd5b612c5a8b838c016129f0565b909850965060408a0135915080821115612c7357600080fd5b612c7f8b838c016129f0565b909650945060608a0135915080821115612c9857600080fd5b50612ca58a828b016129f0565b989b979a50959850939692959293505050565b60008060008060408587031215612cce57600080fd5b843567ffffffffffffffff80821115612ce657600080fd5b612cf2888389016129f0565b90965094506020870135915080821115612d0b57600080fd5b50612d18878288016129f0565b95989497509550505050565b600060208284031215612d3657600080fd5b81516112bd81612985565b7f4e487b7100000000000000000000000000000000000000000000000000000000600052601160045260246000fd5b818103818111156105a9576105a9612d41565b7f4e487b7100000000000000000000000000000000000000000000000000000000600052604160045260246000fd5b7f4e487b7100000000000000000000000000000000000000000000000000000000600052603260045260246000fd5b808201808211156105a9576105a9612d41565b80820281158282048414176105a9576105a9612d41565b600082612e41577f4e487b7100000000000000000000000000000000000000000000000000000000600052601260045260246000fd5b500490565b6040808252835182820181905260009190606090818501906020808901865b83811015612e8157815185529382019390820190600101612e65565b5050868303818801528751808452888201938201925060005b81811015612ec7578451805185528381015184860152870151878501529382019392850192600101612e9a565b50919998505050505050505050565b6020815281602082015260007f07ffffffffffffffffffffffffffffffffffffffffffffffffffffffffffffff831115612f0f57600080fd5b8260051b80856040850137919091016040019392505050565b600060208284031215612f3a57600080fd5b5051919050565b600060208284031215612f5357600080fd5b815180151581146112bd57600080fd5b60005b83811015612f7e578181015183820152602001612f66565b50506000910152565b60008251612f99818460208701612f63565b9190910192915050565b6020815260008251806020840152612fc2816040850160208701612f63565b601f017fffffffffffffffffffffffffffffffffffffffffffffffffffffffffffffffe016919091016040019291505056fea26469706673582212203c199d9fbc42d2907e8d440d400207fe90ac0e6a370dbafd71bb9844f9ce786f64736f6c63430008160033",
  "linkReferences": {},
  "deployedLinkReferences": {}
}