{
  "_format": "hh-sol-artifact-1",
  "contractName": "EDULandRental",
  "sourceName": "contracts/land/EDULandRental.sol",
  "abi": [
    {
      "inputs": [
        {
          "internalType": "address",
          "name": "landAddress",
          "type": "address"
        },
        {
          "internalType": "address",
          "name": "pointsAddress",
          "type": "address"
        },
        {
          "internalType": "address",
          "name": "landPriceHelperAddress",
          "type": "address"
        },
        {
          "internalType": "uint256",
          "name": "maintenanceFee_",
          "type": "uint256"
        },
        {
          "internalType": "uint256",
          "name": "maintenanceFeeDenominator_",
          "type": "uint256"
        },
        {
          "internalType": "uint256",
          "name": "minRentalDuration_",
          "type": "uint256"
        },
        {
          "internalType": "uint256",
          "name": "maxRentalDuration_",
          "type": "uint256"
        },
        {
          "internalType": "uint256",
          "name": "maxRentalCountPerCall_",
          "type": "uint256"
        },
        {
          "internalType": "uint256",
          "name": "maxTokenSupply_",
          "type": "uint256"
        },
        {
          "internalType": "contract IForwarderRegistry",
          "name": "forwarderRegistry",
          "type": "address"
        }
      ],
      "stateMutability": "nonpayable",
      "type": "constructor"
    },
    {
      "inputs": [
        {
          "internalType": "uint256",
          "name": "calculatedFee",
          "type": "uint256"
        },
        {
          "internalType": "uint256",
          "name": "maxFee",
          "type": "uint256"
        }
      ],
      "name": "FeeExceeded",
      "type": "error"
    },
    {
      "inputs": [],
      "name": "IllegalInterfaceId",
      "type": "error"
    },
    {
      "inputs": [],
      "name": "InconsistentArrayLengths",
      "type": "error"
    },
    {
      "inputs": [],
      "name": "InvalidTokenIdsParam",
      "type": "error"
    },
    {
      "inputs": [],
      "name": "NoTokenCollected",
      "type": "error"
    },
    {
      "inputs": [
        {
          "internalType": "address",
          "name": "account",
          "type": "address"
        }
      ],
      "name": "NotContractOwner",
      "type": "error"
    },
    {
      "inputs": [
        {
          "internalType": "bytes32",
          "name": "role",
          "type": "bytes32"
        },
        {
          "internalType": "address",
          "name": "account",
          "type": "address"
        }
      ],
      "name": "NotRoleHolder",
      "type": "error"
    },
    {
      "inputs": [],
      "name": "RentalCountPerCallLimitExceeded",
      "type": "error"
    },
    {
      "inputs": [
        {
          "internalType": "uint256",
          "name": "tokenId",
          "type": "uint256"
        }
      ],
      "name": "RentalDurationTooHigh",
      "type": "error"
    },
    {
      "inputs": [
        {
          "internalType": "uint256",
          "name": "tokenId",
          "type": "uint256"
        }
      ],
      "name": "RentalDurationTooLow",
      "type": "error"
    },
    {
      "inputs": [
        {
          "internalType": "uint256",
          "name": "tokenId",
          "type": "uint256"
        }
      ],
      "name": "TokenAlreadyRented",
      "type": "error"
    },
    {
      "inputs": [
        {
          "internalType": "uint256",
          "name": "tokenId",
          "type": "uint256"
        }
      ],
      "name": "TokenNotExpired",
      "type": "error"
    },
    {
      "inputs": [
        {
          "internalType": "uint256",
          "name": "tokenId",
          "type": "uint256"
        }
      ],
      "name": "TokenNotRented",
      "type": "error"
    },
    {
      "inputs": [
        {
          "internalType": "uint256",
          "name": "tokenId",
          "type": "uint256"
        }
      ],
      "name": "UnsupportedTokenId",
      "type": "error"
    },
    {
      "anonymous": false,
      "inputs": [
        {
          "indexed": false,
          "internalType": "uint256[]",
          "name": "tokenIds",
          "type": "uint256[]"
        }
      ],
      "name": "Collected",
      "type": "event"
    },
    {
      "anonymous": false,
      "inputs": [
        {
          "indexed": false,
          "internalType": "address",
          "name": "newRentalFeeHelper",
          "type": "address"
        }
      ],
      "name": "LandPriceHelperUpdated",
      "type": "event"
    },
    {
      "anonymous": false,
      "inputs": [
        {
          "indexed": false,
          "internalType": "uint256",
          "name": "newMaintenanceFee",
          "type": "uint256"
        },
        {
          "indexed": false,
          "internalType": "uint256",
          "name": "newMaintenanceFeeDenominator",
          "type": "uint256"
        }
      ],
      "name": "MaintenanceFeeUpdated",
      "type": "event"
    },
    {
      "anonymous": false,
      "inputs": [
        {
          "indexed": false,
          "internalType": "uint256",
          "name": "newMaxRentalCountPerCall",
          "type": "uint256"
        }
      ],
      "name": "MaxRentalCountPerCallUpdated",
      "type": "event"
    },
    {
      "anonymous": false,
      "inputs": [
        {
          "indexed": false,
          "internalType": "uint256",
          "name": "newMaxRentalDuration",
          "type": "uint256"
        }
      ],
      "name": "MaxRentalDurationUpdated",
      "type": "event"
    },
    {
      "anonymous": false,
      "inputs": [
        {
          "indexed": false,
          "internalType": "uint256",
          "name": "newMaxTokenSupply",
          "type": "uint256"
        }
      ],
      "name": "MaxTokenSupplyUpdated",
      "type": "event"
    },
    {
      "anonymous": false,
      "inputs": [
        {
          "indexed": false,
          "internalType": "uint256",
          "name": "newMinRentalDuration",
          "type": "uint256"
        }
      ],
      "name": "MinRentalDurationUpdated",
      "type": "event"
    },
    {
      "anonymous": false,
      "inputs": [
        {
          "indexed": true,
          "internalType": "address",
          "name": "previousOwner",
          "type": "address"
        },
        {
          "indexed": true,
          "internalType": "address",
          "name": "newOwner",
          "type": "address"
        }
      ],
      "name": "OwnershipTransferred",
      "type": "event"
    },
    {
      "anonymous": false,
      "inputs": [
        {
          "indexed": true,
          "internalType": "address",
          "name": "renter",
          "type": "address"
        },
        {
          "indexed": false,
          "internalType": "uint256[]",
          "name": "tokenIds",
          "type": "uint256[]"
        },
        {
          "indexed": false,
          "internalType": "uint256[]",
          "name": "beginDates",
          "type": "uint256[]"
        },
        {
          "indexed": false,
          "internalType": "uint256[]",
          "name": "endDates",
          "type": "uint256[]"
        },
        {
          "indexed": false,
          "internalType": "uint256[]",
          "name": "fees",
          "type": "uint256[]"
        }
      ],
      "name": "Rental",
      "type": "event"
    },
    {
      "anonymous": false,
      "inputs": [
        {
          "indexed": false,
          "internalType": "bytes32",
          "name": "role",
          "type": "bytes32"
        },
        {
          "indexed": false,
          "internalType": "address",
          "name": "account",
          "type": "address"
        },
        {
          "indexed": false,
          "internalType": "address",
          "name": "operator",
          "type": "address"
        }
      ],
      "name": "RoleGranted",
      "type": "event"
    },
    {
      "anonymous": false,
      "inputs": [
        {
          "indexed": false,
          "internalType": "bytes32",
          "name": "role",
          "type": "bytes32"
        },
        {
          "indexed": false,
          "internalType": "address",
          "name": "account",
          "type": "address"
        },
        {
          "indexed": false,
          "internalType": "address",
          "name": "operator",
          "type": "address"
        }
      ],
      "name": "RoleRevoked",
      "type": "event"
    },
    {
      "inputs": [],
      "name": "EDU_LAND",
      "outputs": [
        {
          "internalType": "contract IEDULand",
          "name": "",
          "type": "address"
        }
      ],
      "stateMutability": "view",
      "type": "function"
    },
    {
      "inputs": [],
      "name": "OPERATOR_ROLE",
      "outputs": [
        {
          "internalType": "bytes32",
          "name": "",
          "type": "bytes32"
        }
      ],
      "stateMutability": "view",
      "type": "function"
    },
    {
      "inputs": [],
      "name": "POINTS",
      "outputs": [
        {
          "internalType": "contract Points",
          "name": "",
          "type": "address"
        }
      ],
      "stateMutability": "view",
      "type": "function"
    },
    {
      "inputs": [],
      "name": "RENTAL_CONSUME_CODE",
      "outputs": [
        {
          "internalType": "bytes32",
          "name": "",
          "type": "bytes32"
        }
      ],
      "stateMutability": "view",
      "type": "function"
    },
    {
      "inputs": [
        {
          "internalType": "uint256[]",
          "name": "tokenIds",
          "type": "uint256[]"
        }
      ],
      "name": "calculateElapsedTimeForExpiredTokens",
      "outputs": [
        {
          "internalType": "uint256",
          "name": "elapsedTime",
          "type": "uint256"
        }
      ],
      "stateMutability": "view",
      "type": "function"
    },
    {
      "inputs": [
        {
          "internalType": "uint256[]",
          "name": "tokenIds",
          "type": "uint256[]"
        }
      ],
      "name": "collectExpiredTokens",
      "outputs": [],
      "stateMutability": "nonpayable",
      "type": "function"
    },
    {
      "inputs": [
        {
          "internalType": "uint256",
          "name": "totalOngoingRentalTime_",
          "type": "uint256"
        }
      ],
      "name": "estimateLandPrice",
      "outputs": [
        {
          "internalType": "uint256",
          "name": "",
          "type": "uint256"
        }
      ],
      "stateMutability": "view",
      "type": "function"
    },
    {
      "inputs": [
        {
          "internalType": "uint256[]",
          "name": "tokenIds",
          "type": "uint256[]"
        },
        {
          "internalType": "uint256[]",
          "name": "durations",
          "type": "uint256[]"
        },
        {
          "internalType": "uint256[]",
          "name": "expiredTokenIds",
          "type": "uint256[]"
        }
      ],
      "name": "estimateRentalFee",
      "outputs": [
        {
          "internalType": "uint256",
          "name": "fee",
          "type": "uint256"
        }
      ],
      "stateMutability": "view",
      "type": "function"
    },
    {
      "inputs": [],
      "name": "forwarderRegistry",
      "outputs": [
        {
          "internalType": "contract IForwarderRegistry",
          "name": "",
          "type": "address"
        }
      ],
      "stateMutability": "view",
      "type": "function"
    },
    {
      "inputs": [
        {
          "internalType": "bytes32",
          "name": "role",
          "type": "bytes32"
        },
        {
          "internalType": "address",
          "name": "account",
          "type": "address"
        }
      ],
      "name": "grantRole",
      "outputs": [],
      "stateMutability": "nonpayable",
      "type": "function"
    },
    {
      "inputs": [
        {
          "internalType": "bytes32",
          "name": "role",
          "type": "bytes32"
        },
        {
          "internalType": "address",
          "name": "account",
          "type": "address"
        }
      ],
      "name": "hasRole",
      "outputs": [
        {
          "internalType": "bool",
          "name": "hasRole_",
          "type": "bool"
        }
      ],
      "stateMutability": "view",
      "type": "function"
    },
    {
      "inputs": [
        {
          "internalType": "address",
          "name": "forwarder",
          "type": "address"
        }
      ],
      "name": "isTrustedForwarder",
      "outputs": [
        {
          "internalType": "bool",
          "name": "",
          "type": "bool"
        }
      ],
      "stateMutability": "view",
      "type": "function"
    },
    {
      "inputs": [],
      "name": "landPriceHelper",
      "outputs": [
        {
          "internalType": "contract IEDULandPriceHelper",
          "name": "",
          "type": "address"
        }
      ],
      "stateMutability": "view",
      "type": "function"
    },
    {
      "inputs": [],
      "name": "maintenanceFee",
      "outputs": [
        {
          "internalType": "uint256",
          "name": "",
          "type": "uint256"
        }
      ],
      "stateMutability": "view",
      "type": "function"
    },
    {
      "inputs": [],
      "name": "maintenanceFeeDenominator",
      "outputs": [
        {
          "internalType": "uint256",
          "name": "",
          "type": "uint256"
        }
      ],
      "stateMutability": "view",
      "type": "function"
    },
    {
      "inputs": [],
      "name": "maxRentalCountPerCall",
      "outputs": [
        {
          "internalType": "uint256",
          "name": "",
          "type": "uint256"
        }
      ],
      "stateMutability": "view",
      "type": "function"
    },
    {
      "inputs": [],
      "name": "maxRentalDuration",
      "outputs": [
        {
          "internalType": "uint256",
          "name": "",
          "type": "uint256"
        }
      ],
      "stateMutability": "view",
      "type": "function"
    },
    {
      "inputs": [],
      "name": "maxTokenSupply",
      "outputs": [
        {
          "internalType": "uint256",
          "name": "",
          "type": "uint256"
        }
      ],
      "stateMutability": "view",
      "type": "function"
    },
    {
      "inputs": [],
      "name": "minRentalDuration",
      "outputs": [
        {
          "internalType": "uint256",
          "name": "",
          "type": "uint256"
        }
      ],
      "stateMutability": "view",
      "type": "function"
    },
    {
      "inputs": [],
      "name": "owner",
      "outputs": [
        {
          "internalType": "address",
          "name": "",
          "type": "address"
        }
      ],
      "stateMutability": "view",
      "type": "function"
    },
    {
      "inputs": [
        {
          "internalType": "address[]",
          "name": "accounts",
          "type": "address[]"
        },
        {
          "internalType": "contract IERC20[]",
          "name": "tokens",
          "type": "address[]"
        },
        {
          "internalType": "uint256[]",
          "name": "amounts",
          "type": "uint256[]"
        }
      ],
      "name": "recoverERC20s",
      "outputs": [],
      "stateMutability": "nonpayable",
      "type": "function"
    },
    {
      "inputs": [
        {
          "internalType": "address[]",
          "name": "accounts",
          "type": "address[]"
        },
        {
          "internalType": "contract IERC721[]",
          "name": "contracts",
          "type": "address[]"
        },
        {
          "internalType": "uint256[]",
          "name": "tokenIds",
          "type": "uint256[]"
        }
      ],
      "name": "recoverERC721s",
      "outputs": [],
      "stateMutability": "nonpayable",
      "type": "function"
    },
    {
      "inputs": [
        {
          "internalType": "address payable[]",
          "name": "accounts",
          "type": "address[]"
        },
        {
          "internalType": "uint256[]",
          "name": "amounts",
          "type": "uint256[]"
        }
      ],
      "name": "recoverETH",
      "outputs": [],
      "stateMutability": "nonpayable",
      "type": "function"
    },
    {
      "inputs": [
        {
          "internalType": "bytes32",
          "name": "role",
          "type": "bytes32"
        }
      ],
      "name": "renounceRole",
      "outputs": [],
      "stateMutability": "nonpayable",
      "type": "function"
    },
    {
      "inputs": [
        {
          "internalType": "uint256[]",
          "name": "tokenIds",
          "type": "uint256[]"
        },
        {
          "internalType": "uint256[]",
          "name": "durations",
          "type": "uint256[]"
        },
        {
          "internalType": "uint256[]",
          "name": "expiredTokenIds",
          "type": "uint256[]"
        },
        {
          "internalType": "uint256",
          "name": "maxFee",
          "type": "uint256"
        }
      ],
      "name": "rent",
      "outputs": [],
      "stateMutability": "nonpayable",
      "type": "function"
    },
    {
      "inputs": [
        {
          "internalType": "uint256",
          "name": "",
          "type": "uint256"
        }
      ],
      "name": "rentals",
      "outputs": [
        {
          "internalType": "uint256",
          "name": "beginDate",
          "type": "uint256"
        },
        {
          "internalType": "uint256",
          "name": "endDate",
          "type": "uint256"
        },
        {
          "internalType": "uint256",
          "name": "fee",
          "type": "uint256"
        }
      ],
      "stateMutability": "view",
      "type": "function"
    },
    {
      "inputs": [
        {
          "internalType": "uint256",
          "name": "tokenId",
          "type": "uint256"
        }
      ],
      "name": "renterOf",
      "outputs": [
        {
          "internalType": "address",
          "name": "",
          "type": "address"
        }
      ],
      "stateMutability": "view",
      "type": "function"
    },
    {
      "inputs": [
        {
          "internalType": "bytes32",
          "name": "role",
          "type": "bytes32"
        },
        {
          "internalType": "address",
          "name": "account",
          "type": "address"
        }
      ],
      "name": "revokeRole",
      "outputs": [],
      "stateMutability": "nonpayable",
      "type": "function"
    },
    {
      "inputs": [
        {
          "internalType": "address",
          "name": "newLandPriceHelper",
          "type": "address"
        }
      ],
      "name": "setLandPriceHelper",
      "outputs": [],
      "stateMutability": "nonpayable",
      "type": "function"
    },
    {
      "inputs": [
        {
          "internalType": "uint256",
          "name": "newMaintenanceFee",
          "type": "uint256"
        },
        {
          "internalType": "uint256",
          "name": "newMaintenanceFeeDenominator",
          "type": "uint256"
        }
      ],
      "name": "setMaintenanceFee",
      "outputs": [],
      "stateMutability": "nonpayable",
      "type": "function"
    },
    {
      "inputs": [
        {
          "internalType": "uint256",
          "name": "newRentalCountPerCall",
          "type": "uint256"
        }
      ],
      "name": "setMaxRentalCountPerCall",
      "outputs": [],
      "stateMutability": "nonpayable",
      "type": "function"
    },
    {
      "inputs": [
        {
          "internalType": "uint256",
          "name": "newMaxRentalDuration",
          "type": "uint256"
        }
      ],
      "name": "setMaxRentalDuration",
      "outputs": [],
      "stateMutability": "nonpayable",
      "type": "function"
    },
    {
      "inputs": [
        {
          "internalType": "uint256",
          "name": "newMaxTokenSupply",
          "type": "uint256"
        }
      ],
      "name": "setMaxTokenSupply",
      "outputs": [],
      "stateMutability": "nonpayable",
      "type": "function"
    },
    {
      "inputs": [
        {
          "internalType": "uint256",
          "name": "newMinRentalDuration",
          "type": "uint256"
        }
      ],
      "name": "setMinRentalDuration",
      "outputs": [],
      "stateMutability": "nonpayable",
      "type": "function"
    },
    {
      "inputs": [
        {
          "internalType": "bytes4",
          "name": "interfaceId",
          "type": "bytes4"
        }
      ],
      "name": "supportsInterface",
      "outputs": [
        {
          "internalType": "bool",
          "name": "",
          "type": "bool"
        }
      ],
      "stateMutability": "view",
      "type": "function"
    },
    {
      "inputs": [],
      "name": "totalOngoingRentalTime",
      "outputs": [
        {
          "internalType": "uint256",
          "name": "",
          "type": "uint256"
        }
      ],
      "stateMutability": "view",
      "type": "function"
    },
    {
      "inputs": [
        {
          "internalType": "address",
          "name": "newOwner",
          "type": "address"
        }
      ],
      "name": "transferOwnership",
      "outputs": [],
      "stateMutability": "nonpayable",
      "type": "function"
    }
  ],
  "bytecode": "0x60e06040523480156200001157600080fd5b50604051620035563803806200355683398101604081905262000034916200033c565b8080336200004d8162000046620001e5565b906200021b565b506001600160a01b039081166080528b811660c0528a811660a052600080546001600160a01b031916918b1691821790556040519081527fd99014e6f6a21a1f7025e1599288b52168db6241486596946f759a520d4ddfea915060200160405180910390a16002879055600386905560408051888152602081018890527f788db483524e27f5a39a54daaeb81bb48059af776767d0c1f600ef6e996d2818910160405180910390a160048590556040518581527f7d9d1c986503049ed25e197e416ddaeef53d62a8479d6371784f05a9d9da98249060200160405180910390a160058490556040518481527fb4f38443948b39b669154b83689d2dfa2a4cb2b1fd458118da3d1bcdacfc56089060200160405180910390a160068390556040518381527faa06aa6d79ce3cb966afe332af120b3aa8252dc355d1d2dae1368babec5f3ee59060200160405180910390a160018290556040518281527fb8b290c068ed53e46165f3ca5215dcc2972ae26ae4c8fb5adc71a1c135f855139060200160405180910390a15050505050505050505062000405565b6000806200021560017fc9ed16f33ab3a66c84bfd83099ccb2a8845871e2e1c1928f63797152f0fd54cd620003e3565b92915050565b6001600160a01b03811615620002725781546001600160a01b0319166001600160a01b03821690811783556040516000907f8be0079c531659141344cd1fd0a4f28419497f9722a3daafe3b4186f6b6457e0908290a35b620002926307f5828d60e41b60016200028a62000296565b9190620002c6565b5050565b6000806200021560017fca9d3e17f264b0f3984e2634e94adb37fa3e6a8103f06aeae6fa59e21c769f5e620003e3565b600160e01b6001600160e01b0319831601620002f5576040516372c683bb60e01b815260040160405180910390fd5b6001600160e01b03199190911660009081526020929092526040909120805460ff1916911515919091179055565b6001600160a01b03811681146200033957600080fd5b50565b6000806000806000806000806000806101408b8d0312156200035d57600080fd5b8a516200036a8162000323565b60208c0151909a506200037d8162000323565b60408c0151909950620003908162000323565b8098505060608b0151965060808b0151955060a08b0151945060c08b0151935060e08b015192506101008b015191506101208b0151620003d08162000323565b809150509295989b9194979a5092959850565b818103818111156200021557634e487b7160e01b600052601160045260246000fd5b60805160a05160c0516130db6200047b600039600081816102c0015281816109e401528181610b3401528181610f790152818161189301528181611e750152611f4401526000818161042e0152610e3501526000818161033e015281816103bd0152818161277401526127fc01526130db6000f3fe608060405234801561001057600080fd5b50600436106102775760003560e01c80638da5cb5b11610160578063d547741f116100d8578063f5b541a61161008c578063f7ba94bd11610071578063f7ba94bd146105dc578063f7df6bad146105ef578063fb203c171461060257600080fd5b8063f5b541a6146105ac578063f7032194146105d357600080fd5b8063e105c43c116100bd578063e105c43c14610573578063e4f095d914610586578063f2fde38b1461059957600080fd5b8063d547741f14610539578063dd2861771461054c57600080fd5b8063af94a1d11161012f578063b2b47e3b11610114578063b2b47e3b1461050a578063b65dd45114610513578063c3666c361461052657600080fd5b8063af94a1d1146104ad578063b07ed982146104f757600080fd5b80638da5cb5b146104765780638ecd7b731461047e57806391d1485414610491578063a5f73758146104a457600080fd5b806350f7c204116101f357806373c8a958116101c25780637f6e4281116101a75780637f6e42811461042957806388b681fe146104505780638bb9c5bf1461046357600080fd5b806373c8a9581461040d5780637ce4026f1461042057600080fd5b806350f7c204146103915780635625ac511461039a578063572b6c05146103ad57806370243bcc146103fa57600080fd5b806321d428161161024a5780632f2ff15d1161022f5780632f2ff15d1461036257806334f1a8d3146103755780633d9f01fb1461037e57600080fd5b806321d42816146103275780632b4c9f161461033c57600080fd5b806301ffc9a71461027c57806304660449146102a457806315e682cb146102bb5780631aabc61d14610307575b600080fd5b61028f61028a366004612af8565b610615565b60405190151581526020015b60405180910390f35b6102ad60025481565b60405190815260200161029b565b6102e27f000000000000000000000000000000000000000000000000000000000000000081565b60405173ffffffffffffffffffffffffffffffffffffffff909116815260200161029b565b6000546102e29073ffffffffffffffffffffffffffffffffffffffff1681565b61033a610335366004612b86565b61062f565b005b7f00000000000000000000000000000000000000000000000000000000000000006102e2565b61033a610370366004612c4b565b610ef8565b6102ad60045481565b6102e261038c366004612c7b565b610f31565b6102ad60015481565b61033a6103a8366004612c94565b61102e565b61028f6103bb366004612cb6565b7f000000000000000000000000000000000000000000000000000000000000000073ffffffffffffffffffffffffffffffffffffffff90811691161490565b6102ad610408366004612cd3565b6110b0565b61033a61041b366004612d15565b61113f565b6102ad60055481565b6102e27f000000000000000000000000000000000000000000000000000000000000000081565b61033a61045e366004612cd3565b61123d565b61033a610471366004612c7b565b61126a565b6102e2611288565b6102ad61048c366004612c7b565b6112b4565b61028f61049f366004612c4b565b611348565b6102ad60085481565b6104dc6104bb366004612c7b565b60076020526000908152604090208054600182015460029092015490919083565b6040805193845260208401929092529082015260600161029b565b61033a610505366004612c7b565b611393565b6102ad60035481565b61033a610521366004612c7b565b6113fb565b61033a610534366004612d15565b61145c565b61033a610547366004612c4b565b6115d4565b6102ad7f0e67d2d2c46f23cfff9f76c16187348901bf73ba32dcf6893f2a2a4b25be75f881565b6102ad610581366004612d15565b611602565b61033a610594366004612c7b565b611a2b565b61033a6105a7366004612cb6565b611a8c565b6102ad7f97667070c54ef182b0f5858b034beac1b6f3089aa2d3188bb1e8929f4fa9b92981565b6102ad60065481565b61033a6105ea366004612daf565b611aa7565b61033a6105fd366004612cb6565b611b66565b61033a610610366004612c7b565b611c05565b600061062982610623611c66565b90611c94565b92915050565b60008787808060200260200160405190810160405280939291908181526020018383602002808284376000920182905250604080516020808d0282810182019093528c825296975091959194508b93508a9250829185019084908082843760009201919091525050825185519394509290921491506106dc9050576040517f6582533600000000000000000000000000000000000000000000000000000000815260040160405180910390fd5b60065482511115610719576040517f2273ee1800000000000000000000000000000000000000000000000000000000815260040160405180910390fd5b42600061072887878484611d6e565b6008546107359190612e4a565b90506000610742826112b4565b9050600061074e612096565b90506000865167ffffffffffffffff81111561076c5761076c612e5d565b604051908082528060200260200182016040528015610795578160200160208202803683370190505b5090506000875167ffffffffffffffff8111156107b4576107b4612e5d565b6040519080825280602002602001820160405280156107dd578160200160208202803683370190505b5090506000885167ffffffffffffffff8111156107fc576107fc612e5d565b604051908082528060200260200182016040528015610825578160200160208202803683370190505b5090506000805b8a51811015610d6e5760008b828151811061084957610849612e8c565b6020026020010151905060008b838151811061086757610867612e8c565b60200260200101519050816000036108b3576040517f8ce0857d000000000000000000000000000000000000000000000000000000008152600060048201526024015b60405180910390fd5b6001548211156108f2576040517f8ce0857d000000000000000000000000000000000000000000000000000000008152600481018390526024016108aa565b600554811115610931576040517fb479b655000000000000000000000000000000000000000000000000000000008152600481018390526024016108aa565b60008281526007602052604081206001810154909103610b055760045482101561098a576040517f508a9a3a000000000000000000000000000000000000000000000000000000008152600481018490526024016108aa565b6040517f8832e6e300000000000000000000000000000000000000000000000000000000815273ffffffffffffffffffffffffffffffffffffffff8a811660048301526024820185905260606044830152600060648301527f00000000000000000000000000000000000000000000000000000000000000001690638832e6e390608401600060405180830381600087803b158015610a2857600080fd5b505af1158015610a3c573d6000803e3d6000fd5b5050508c8255506000610a4f838e612ebb565b60018301819055600354600254919250600091610a6c9086612ece565b610a769190612ee5565b610a80908d612ebb565b600284018190559050610a938188612ebb565b9650610a9f848e612ebb565b9c508d8a8781518110610ab457610ab4612e8c565b60200260200101818152505081898781518110610ad357610ad3612e8c565b60200260200101818152505080888781518110610af257610af2612e8c565b6020026020010181815250505050610d63565b6040517f6352211e000000000000000000000000000000000000000000000000000000008152600481018490527f000000000000000000000000000000000000000000000000000000000000000073ffffffffffffffffffffffffffffffffffffffff1690636352211e90602401602060405180830381865afa158015610b90573d6000803e3d6000fd5b505050506040513d601f19601f82011682018060405250810190610bb49190612f20565b73ffffffffffffffffffffffffffffffffffffffff168973ffffffffffffffffffffffffffffffffffffffff16148015610bf1575080600101548c105b15610d2e576000610c02838e612ebb565b6001830154600454919250908190610c1a9084612e4a565b1015610c55576040517f508a9a3a000000000000000000000000000000000000000000000000000000008152600481018690526024016108aa565b6000610c618284612e4a565b60018501849055600354600254919250600091610c7e9084612ece565b610c889190612ee5565b610c92908f612ebb565b905080856002016000828254610ca89190612ebb565b90915550610cb89050818a612ebb565b9850818f610cc69190612ebb565b9e50828c8981518110610cdb57610cdb612e8c565b602002602001018181525050838b8981518110610cfa57610cfa612e8c565b602002602001018181525050808a8981518110610d1957610d19612e8c565b60200260200101818152505050505050610d63565b6040517f139d6799000000000000000000000000000000000000000000000000000000008152600481018490526024016108aa565b50505060010161082c565b508a15801590610d7d57508a81115b15610dbe576040517fd519701100000000000000000000000000000000000000000000000000000000815260048101829052602481018c90526044016108aa565b60088790556040517f212aac7900000000000000000000000000000000000000000000000000000000815273ffffffffffffffffffffffffffffffffffffffff8681166004830152602482018390527f0e67d2d2c46f23cfff9f76c16187348901bf73ba32dcf6893f2a2a4b25be75f860448301527f0000000000000000000000000000000000000000000000000000000000000000169063212aac7990606401600060405180830381600087803b158015610e7957600080fd5b505af1158015610e8d573d6000803e3d6000fd5b505050508473ffffffffffffffffffffffffffffffffffffffff167f34a3f395b50735b2b7b8f7ece79da6b46efdb3f0aeb0eb5871dcff84354d03758b868686604051610edd9493929190612f79565b60405180910390a25050505050505050505050505050505050565b6000610f02612096565b9050610f1681610f106120a0565b906120ce565b610f2c838383610f2461213d565b92919061216b565b505050565b600081815260076020526040812060010154421015610ff9576040517f6352211e000000000000000000000000000000000000000000000000000000008152600481018390527f000000000000000000000000000000000000000000000000000000000000000073ffffffffffffffffffffffffffffffffffffffff1690636352211e90602401602060405180830381865afa158015610fd5573d6000803e3d6000fd5b505050506040513d601f19601f820116820180604052508101906106299190612f20565b6040517f1297346f000000000000000000000000000000000000000000000000000000008152600481018390526024016108aa565b6110697f97667070c54ef182b0f5858b034beac1b6f3089aa2d3188bb1e8929f4fa9b92961105a612096565b61106261213d565b9190612242565b6002829055600381905560408051838152602081018390527f788db483524e27f5a39a54daaeb81bb48059af776767d0c1f600ef6e996d2818910160405180910390a15050565b600042815b838110156111375760008585838181106110d1576110d1612e8c565b9050602002013590506000600760008381526020019081526020016000209050806001015460001415801561110a575080600101548410155b1561112d57805460018201546111209190612e4a565b61112a9086612ebb565b94505b50506001016110b5565b505092915050565b61115261114a612096565b610f106120a0565b8483811415806111625750808214155b15611199576040517f6582533600000000000000000000000000000000000000000000000000000000815260040160405180910390fd5b60005b818110156112335761122b8888838181106111b9576111b9612e8c565b90506020020160208101906111ce9190612cb6565b8585848181106111e0576111e0612e8c565b905060200201358888858181106111f9576111f9612e8c565b905060200201602081019061120e9190612cb6565b73ffffffffffffffffffffffffffffffffffffffff1691906122c8565b60010161119c565b5050505050505050565b600061124c8383426001611d6e565b905080600860008282546112609190612e4a565b9091555050505050565b611285611275612096565b8261127e61213d565b9190612355565b50565b60006112af6112956120a0565b5473ffffffffffffffffffffffffffffffffffffffff1690565b905090565b600080546040517fae1042650000000000000000000000000000000000000000000000000000000081526004810184905273ffffffffffffffffffffffffffffffffffffffff9091169063ae10426590602401602060405180830381865afa158015611324573d6000803e3d6000fd5b505050506040513d601f19601f820116820180604052508101906106299190612fc6565b600061138c838361135761213d565b60009283526020908152604080842073ffffffffffffffffffffffffffffffffffffffff909316845291905290205460ff1690565b9392505050565b6113bf7f97667070c54ef182b0f5858b034beac1b6f3089aa2d3188bb1e8929f4fa9b92961105a612096565b60018190556040518181527fb8b290c068ed53e46165f3ca5215dcc2972ae26ae4c8fb5adc71a1c135f85513906020015b60405180910390a150565b6114277f97667070c54ef182b0f5858b034beac1b6f3089aa2d3188bb1e8929f4fa9b92961105a612096565b60068190556040518181527faa06aa6d79ce3cb966afe332af120b3aa8252dc355d1d2dae1368babec5f3ee5906020016113f0565b61146761114a612096565b8483811415806114775750808214155b156114ae576040517f6582533600000000000000000000000000000000000000000000000000000000815260040160405180910390fd5b60005b81811015611233578585828181106114cb576114cb612e8c565b90506020020160208101906114e09190612cb6565b73ffffffffffffffffffffffffffffffffffffffff166323b872dd308a8a8581811061150e5761150e612e8c565b90506020020160208101906115239190612cb6565b87878681811061153557611535612e8c565b6040517fffffffff0000000000000000000000000000000000000000000000000000000060e088901b16815273ffffffffffffffffffffffffffffffffffffffff958616600482015294909316602485015250602090910201356044820152606401600060405180830381600087803b1580156115b157600080fd5b505af11580156115c5573d6000803e3d6000fd5b505050508060010190506114b1565b60006115de612096565b90506115ec81610f106120a0565b610f2c8383836115fa61213d565b9291906123f9565b600085841461163d576040517f6582533600000000000000000000000000000000000000000000000000000000815260040160405180910390fd5b600654861115611679576040517f2273ee1800000000000000000000000000000000000000000000000000000000815260040160405180910390fd5b42600061168685856110b0565b9050600061169b8260085461048c9190612e4a565b90506000805b8a811015611a075760008a8a838181106116bd576116bd612e8c565b90506020020135905060008d8d848181106116da576116da612e8c565b90506020020135905080600003611720576040517f8ce0857d000000000000000000000000000000000000000000000000000000008152600060048201526024016108aa565b60015481111561175f576040517f8ce0857d000000000000000000000000000000000000000000000000000000008152600481018290526024016108aa565b60055482111561179e576040517fb479b655000000000000000000000000000000000000000000000000000000008152600481018290526024016108aa565b6000818152600760209081526040808320815160608101835281548152600182015493810184905260029091015491810191909152910361184357600454831015611818576040517f508a9a3a000000000000000000000000000000000000000000000000000000008152600481018390526024016108aa565b6003546002546118289085612ece565b6118329190612ee5565b61183c9086612ebb565b94506119fc565b61184b612096565b6040517f6352211e0000000000000000000000000000000000000000000000000000000081526004810184905273ffffffffffffffffffffffffffffffffffffffff918216917f00000000000000000000000000000000000000000000000000000000000000001690636352211e90602401602060405180830381865afa1580156118da573d6000803e3d6000fd5b505050506040513d601f19601f820116820180604052508101906118fe9190612f20565b73ffffffffffffffffffffffffffffffffffffffff161480156119245750806020015188105b156119c7576000611935848a612ebb565b905081602001516004548261194a9190612e4a565b1015611985576040517f508a9a3a000000000000000000000000000000000000000000000000000000008152600481018490526024016108aa565b60008260200151826119979190612e4a565b9050600354600254826119aa9190612ece565b6119b49190612ee5565b6119be9088612ebb565b965050506119fc565b6040517f139d6799000000000000000000000000000000000000000000000000000000008152600481018390526024016108aa565b5050506001016116a1565b50611a128a83612ece565b611a1c9082612ebb565b9b9a5050505050505050505050565b611a577f97667070c54ef182b0f5858b034beac1b6f3089aa2d3188bb1e8929f4fa9b92961105a612096565b60058190556040518181527fb4f38443948b39b669154b83689d2dfa2a4cb2b1fd458118da3d1bcdacfc5608906020016113f0565b611285611a97612096565b82611aa06120a0565b91906124c3565b611ab261114a612096565b82818114611aec576040517f6582533600000000000000000000000000000000000000000000000000000000815260040160405180910390fd5b60005b81811015611b5e57611b56848483818110611b0c57611b0c612e8c565b90506020020135878784818110611b2557611b25612e8c565b9050602002016020810190611b3a9190612cb6565b73ffffffffffffffffffffffffffffffffffffffff16906125d7565b600101611aef565b505050505050565b611b927f97667070c54ef182b0f5858b034beac1b6f3089aa2d3188bb1e8929f4fa9b92961105a612096565b600080547fffffffffffffffffffffffff00000000000000000000000000000000000000001673ffffffffffffffffffffffffffffffffffffffff83169081179091556040519081527fd99014e6f6a21a1f7025e1599288b52168db6241486596946f759a520d4ddfea906020016113f0565b611c317f97667070c54ef182b0f5858b034beac1b6f3089aa2d3188bb1e8929f4fa9b92961105a612096565b60048190556040518181527f7d9d1c986503049ed25e197e416ddaeef53d62a8479d6371784f05a9d9da9824906020016113f0565b60008061062960017fca9d3e17f264b0f3984e2634e94adb37fa3e6a8103f06aeae6fa59e21c769f5e612e4a565b60007c01000000000000000000000000000000000000000000000000000000007fffffffff00000000000000000000000000000000000000000000000000000000831601611ce457506000610629565b7ffe003659000000000000000000000000000000000000000000000000000000007fffffffff00000000000000000000000000000000000000000000000000000000831601611d3557506001610629565b507fffffffff00000000000000000000000000000000000000000000000000000000166000908152602091909152604090205460ff1690565b6000808467ffffffffffffffff811115611d8a57611d8a612e5d565b604051908082528060200260200182016040528015611db3578160200160208202803683370190505b5090506000805b86811015612010576000888883818110611dd657611dd6612e8c565b90506020020135905060006007600083815260200190815260200160002090508060010154600014158015611e0f575080600101548810155b15611fcb5780546001820154611e259190612e4a565b611e2f9087612ebb565b600080835560018301819055600283018190556040517f6352211e00000000000000000000000000000000000000000000000000000000815260048101859052919750907f000000000000000000000000000000000000000000000000000000000000000073ffffffffffffffffffffffffffffffffffffffff1690636352211e90602401602060405180830381865afa158015611ed1573d6000803e3d6000fd5b505050506040513d601f19601f82011682018060405250810190611ef59190612f20565b6040517f79cc679000000000000000000000000000000000000000000000000000000000815273ffffffffffffffffffffffffffffffffffffffff8083166004830152602482018690529192507f0000000000000000000000000000000000000000000000000000000000000000909116906379cc679090604401600060405180830381600087803b158015611f8a57600080fd5b505af1158015611f9e573d6000803e3d6000fd5b5050505082868581518110611fb557611fb5612e8c565b6020026020010181815250506001945050612006565b8615612006576040517f9be5764a000000000000000000000000000000000000000000000000000000008152600481018390526024016108aa565b5050600101611dba565b508015612053577f9e5430727c5f2b23597e7cb2670240cc8fbb4031a0dad53562812b380e286b3d826040516120469190612fdf565b60405180910390a161208b565b831561208b576040517f8c59e32400000000000000000000000000000000000000000000000000000000815260040160405180910390fd5b50505b949350505050565b60006112af612731565b60008061062960017fc9ed16f33ab3a66c84bfd83099ccb2a8845871e2e1c1928f63797152f0fd54cd612e4a565b815473ffffffffffffffffffffffffffffffffffffffff828116911614612139576040517f2ef4875e00000000000000000000000000000000000000000000000000000000815273ffffffffffffffffffffffffffffffffffffffff821660048201526024016108aa565b5050565b60008061062960017fc8827d3282af6f37b64c3e9e6f3ac9df286ab0bb0fccd6f8661bf19adb368b23612e4a565b60008381526020858152604080832073ffffffffffffffffffffffffffffffffffffffff8616845290915290205460ff1661223c5760008381526020858152604080832073ffffffffffffffffffffffffffffffffffffffff8681168086529184529382902080547fffffffffffffffffffffffffffffffffffffffffffffffffffffffffffffff00166001179055815187815292830152918316918101919091527f2f8788117e7eff1d82e926ec794901d17c78024a50270940304540a733656f0d906060015b60405180910390a15b50505050565b60008281526020848152604080832073ffffffffffffffffffffffffffffffffffffffff8516845290915290205460ff16610f2c576040517f7aa728820000000000000000000000000000000000000000000000000000000081526004810183905273ffffffffffffffffffffffffffffffffffffffff821660248201526044016108aa565b6040805173ffffffffffffffffffffffffffffffffffffffff8416602482015260448082018490528251808303909101815260649091019091526020810180517bffffffffffffffffffffffffffffffffffffffffffffffffffffffff167fa9059cbb00000000000000000000000000000000000000000000000000000000179052610f2c908490612878565b612360838284612242565b60008181526020848152604080832073ffffffffffffffffffffffffffffffffffffffff86168085529083529281902080547fffffffffffffffffffffffffffffffffffffffffffffffffffffffffffffff0016905580518481529182018390528101919091527ff6391f5c32d9c69d2a47ea670b442974b53935d1edc7fd64eb21e047a839171b9060600160405180910390a1505050565b60008381526020858152604080832073ffffffffffffffffffffffffffffffffffffffff8616845290915290205460ff161561223c5760008381526020858152604080832073ffffffffffffffffffffffffffffffffffffffff8681168086529184529382902080547fffffffffffffffffffffffffffffffffffffffffffffffffffffffffffffff00169055815187815292830152918316918101919091527ff6391f5c32d9c69d2a47ea670b442974b53935d1edc7fd64eb21e047a839171b90606001612233565b825473ffffffffffffffffffffffffffffffffffffffff9081169083168114612530576040517f2ef4875e00000000000000000000000000000000000000000000000000000000815273ffffffffffffffffffffffffffffffffffffffff841660048201526024016108aa565b8173ffffffffffffffffffffffffffffffffffffffff168173ffffffffffffffffffffffffffffffffffffffff161461223c5783547fffffffffffffffffffffffff00000000000000000000000000000000000000001673ffffffffffffffffffffffffffffffffffffffff8381169182178655604051908316907f8be0079c531659141344cd1fd0a4f28419497f9722a3daafe3b4186f6b6457e090600090a350505050565b80471015612641576040517f08c379a000000000000000000000000000000000000000000000000000000000815260206004820152601d60248201527f416464726573733a20696e73756666696369656e742062616c616e636500000060448201526064016108aa565b60008273ffffffffffffffffffffffffffffffffffffffff168260405160006040518083038185875af1925050503d806000811461269b576040519150601f19603f3d011682016040523d82523d6000602084013e6126a0565b606091505b5050905080610f2c576040517f08c379a000000000000000000000000000000000000000000000000000000000815260206004820152603a60248201527f416464726573733a20756e61626c6520746f2073656e642076616c75652c207260448201527f6563697069656e74206d6179206861766520726576657274656400000000000060648201526084016108aa565b6000333214806127415750601836105b1561274b57503390565b7fffffffffffffffffffffffffffffffffffffffffffffffffffffffffffffffec36013560601c7f000000000000000000000000000000000000000000000000000000000000000073ffffffffffffffffffffffffffffffffffffffff1633148061286757506040517f8929a8ca00000000000000000000000000000000000000000000000000000000815273ffffffffffffffffffffffffffffffffffffffff82811660048301523360248301527f00000000000000000000000000000000000000000000000000000000000000001690638929a8ca90604401602060405180830381865afa158015612843573d6000803e3d6000fd5b505050506040513d601f19601f820116820180604052508101906128679190612ff2565b1561287157919050565b3391505090565b60006128da826040518060400160405280602081526020017f5361666545524332303a206c6f772d6c6576656c2063616c6c206661696c65648152508573ffffffffffffffffffffffffffffffffffffffff166129879092919063ffffffff16565b90508051600014806128fb5750808060200190518101906128fb9190612ff2565b610f2c576040517f08c379a000000000000000000000000000000000000000000000000000000000815260206004820152602a60248201527f5361666545524332303a204552433230206f7065726174696f6e20646964206e60448201527f6f7420737563636565640000000000000000000000000000000000000000000060648201526084016108aa565b606061208e8484600085856000808673ffffffffffffffffffffffffffffffffffffffff1685876040516129bb9190613038565b60006040518083038185875af1925050503d80600081146129f8576040519150601f19603f3d011682016040523d82523d6000602084013e6129fd565b606091505b5091509150612a0e87838387612a19565b979650505050505050565b60608315612aaf578251600003612aa85773ffffffffffffffffffffffffffffffffffffffff85163b612aa8576040517f08c379a000000000000000000000000000000000000000000000000000000000815260206004820152601d60248201527f416464726573733a2063616c6c20746f206e6f6e2d636f6e747261637400000060448201526064016108aa565b508161208e565b61208e8383815115612ac45781518083602001fd5b806040517f08c379a00000000000000000000000000000000000000000000000000000000081526004016108aa9190613054565b600060208284031215612b0a57600080fd5b81357fffffffff000000000000000000000000000000000000000000000000000000008116811461138c57600080fd5b60008083601f840112612b4c57600080fd5b50813567ffffffffffffffff811115612b6457600080fd5b6020830191508360208260051b8501011115612b7f57600080fd5b9250929050565b60008060008060008060006080888a031215612ba157600080fd5b873567ffffffffffffffff80821115612bb957600080fd5b612bc58b838c01612b3a565b909950975060208a0135915080821115612bde57600080fd5b612bea8b838c01612b3a565b909750955060408a0135915080821115612c0357600080fd5b50612c108a828b01612b3a565b989b979a50959894979596606090950135949350505050565b73ffffffffffffffffffffffffffffffffffffffff8116811461128557600080fd5b60008060408385031215612c5e57600080fd5b823591506020830135612c7081612c29565b809150509250929050565b600060208284031215612c8d57600080fd5b5035919050565b60008060408385031215612ca757600080fd5b50508035926020909101359150565b600060208284031215612cc857600080fd5b813561138c81612c29565b60008060208385031215612ce657600080fd5b823567ffffffffffffffff811115612cfd57600080fd5b612d0985828601612b3a565b90969095509350505050565b60008060008060008060608789031215612d2e57600080fd5b863567ffffffffffffffff80821115612d4657600080fd5b612d528a838b01612b3a565b90985096506020890135915080821115612d6b57600080fd5b612d778a838b01612b3a565b90965094506040890135915080821115612d9057600080fd5b50612d9d89828a01612b3a565b979a9699509497509295939492505050565b60008060008060408587031215612dc557600080fd5b843567ffffffffffffffff80821115612ddd57600080fd5b612de988838901612b3a565b90965094506020870135915080821115612e0257600080fd5b50612e0f87828801612b3a565b95989497509550505050565b7f4e487b7100000000000000000000000000000000000000000000000000000000600052601160045260246000fd5b8181038181111561062957610629612e1b565b7f4e487b7100000000000000000000000000000000000000000000000000000000600052604160045260246000fd5b7f4e487b7100000000000000000000000000000000000000000000000000000000600052603260045260246000fd5b8082018082111561062957610629612e1b565b808202811582820484141761062957610629612e1b565b600082612f1b577f4e487b7100000000000000000000000000000000000000000000000000000000600052601260045260246000fd5b500490565b600060208284031215612f3257600080fd5b815161138c81612c29565b60008151808452602080850194506020840160005b83811015612f6e57815187529582019590820190600101612f52565b509495945050505050565b608081526000612f8c6080830187612f3d565b8281036020840152612f9e8187612f3d565b90508281036040840152612fb28186612f3d565b90508281036060840152612a0e8185612f3d565b600060208284031215612fd857600080fd5b5051919050565b60208152600061138c6020830184612f3d565b60006020828403121561300457600080fd5b8151801515811461138c57600080fd5b60005b8381101561302f578181015183820152602001613017565b50506000910152565b6000825161304a818460208701613014565b9190910192915050565b6020815260008251806020840152613073816040850160208701613014565b601f017fffffffffffffffffffffffffffffffffffffffffffffffffffffffffffffffe016919091016040019291505056fea2646970667358221220648927a4afa57bf84159349e0a0efc49ec0ae52d7803083bab108be2cb6b7c0e64736f6c63430008160033",
  "linkReferences": {},
  "deployedLinkReferences": {}
}