{
  "_format": "hh-sol-artifact-1",
  "contractName": "EDULandRental",
  "sourceName": "contracts/land/EDULandRental.sol",
  "abi": [
    {
      "inputs": [
        {
          "internalType": "address",
          "name": "landAddress",
          "type": "address"
        },
        {
          "internalType": "address",
          "name": "pointsAddress",
          "type": "address"
        },
        {
          "internalType": "address",
          "name": "landPriceHelperAddress",
          "type": "address"
        },
        {
          "internalType": "uint256",
          "name": "maintenanceFee_",
          "type": "uint256"
        },
        {
          "internalType": "uint256",
          "name": "maintenanceFeeDenominator_",
          "type": "uint256"
        },
        {
          "internalType": "uint256",
          "name": "minRentalDuration_",
          "type": "uint256"
        },
        {
          "internalType": "uint256",
          "name": "maxRentalDuration_",
          "type": "uint256"
        },
        {
          "internalType": "uint256",
          "name": "maxRentalCountPerCall_",
          "type": "uint256"
        },
        {
          "internalType": "uint256",
          "name": "maxTokenSupply_",
          "type": "uint256"
        },
        {
          "internalType": "contract IForwarderRegistry",
          "name": "forwarderRegistry",
          "type": "address"
        }
      ],
      "stateMutability": "nonpayable",
      "type": "constructor"
    },
    {
      "inputs": [
        {
          "internalType": "uint256",
          "name": "calculatedFee",
          "type": "uint256"
        },
        {
          "internalType": "uint256",
          "name": "maxFee",
          "type": "uint256"
        }
      ],
      "name": "FeeExceeded",
      "type": "error"
    },
    {
      "inputs": [],
      "name": "IllegalInterfaceId",
      "type": "error"
    },
    {
      "inputs": [],
      "name": "InconsistentArrayLengths",
      "type": "error"
    },
    {
      "inputs": [],
      "name": "InvalidLandAddress",
      "type": "error"
    },
    {
      "inputs": [],
      "name": "InvalidPointsAddress",
      "type": "error"
    },
    {
      "inputs": [],
      "name": "InvalidTokenIdsParam",
      "type": "error"
    },
    {
      "inputs": [],
      "name": "NoTokenCollected",
      "type": "error"
    },
    {
      "inputs": [
        {
          "internalType": "address",
          "name": "account",
          "type": "address"
        }
      ],
      "name": "NotContractOwner",
      "type": "error"
    },
    {
      "inputs": [
        {
          "internalType": "bytes32",
          "name": "role",
          "type": "bytes32"
        },
        {
          "internalType": "address",
          "name": "account",
          "type": "address"
        }
      ],
      "name": "NotRoleHolder",
      "type": "error"
    },
    {
      "inputs": [],
      "name": "RentalCountPerCallLimitExceeded",
      "type": "error"
    },
    {
      "inputs": [
        {
          "internalType": "uint256",
          "name": "tokenId",
          "type": "uint256"
        }
      ],
      "name": "RentalDurationTooHigh",
      "type": "error"
    },
    {
      "inputs": [
        {
          "internalType": "uint256",
          "name": "tokenId",
          "type": "uint256"
        }
      ],
      "name": "RentalDurationTooLow",
      "type": "error"
    },
    {
      "inputs": [
        {
          "internalType": "uint256",
          "name": "tokenId",
          "type": "uint256"
        }
      ],
      "name": "TokenAlreadyRented",
      "type": "error"
    },
    {
      "inputs": [
        {
          "internalType": "uint256",
          "name": "tokenId",
          "type": "uint256"
        }
      ],
      "name": "TokenNotExpired",
      "type": "error"
    },
    {
      "inputs": [
        {
          "internalType": "uint256",
          "name": "tokenId",
          "type": "uint256"
        }
      ],
      "name": "TokenNotRented",
      "type": "error"
    },
    {
      "inputs": [
        {
          "internalType": "uint256",
          "name": "tokenId",
          "type": "uint256"
        }
      ],
      "name": "UnsupportedTokenId",
      "type": "error"
    },
    {
      "anonymous": false,
      "inputs": [
        {
          "indexed": false,
          "internalType": "uint256[]",
          "name": "tokenIds",
          "type": "uint256[]"
        }
      ],
      "name": "Collected",
      "type": "event"
    },
    {
      "anonymous": false,
      "inputs": [
        {
          "indexed": false,
          "internalType": "address",
          "name": "newLandPriceHelper",
          "type": "address"
        }
      ],
      "name": "LandPriceHelperUpdated",
      "type": "event"
    },
    {
      "anonymous": false,
      "inputs": [
        {
          "indexed": false,
          "internalType": "uint256",
          "name": "newMaintenanceFee",
          "type": "uint256"
        },
        {
          "indexed": false,
          "internalType": "uint256",
          "name": "newMaintenanceFeeDenominator",
          "type": "uint256"
        }
      ],
      "name": "MaintenanceFeeUpdated",
      "type": "event"
    },
    {
      "anonymous": false,
      "inputs": [
        {
          "indexed": false,
          "internalType": "uint256",
          "name": "newMaxRentalCountPerCall",
          "type": "uint256"
        }
      ],
      "name": "MaxRentalCountPerCallUpdated",
      "type": "event"
    },
    {
      "anonymous": false,
      "inputs": [
        {
          "indexed": false,
          "internalType": "uint256",
          "name": "newMaxRentalDuration",
          "type": "uint256"
        }
      ],
      "name": "MaxRentalDurationUpdated",
      "type": "event"
    },
    {
      "anonymous": false,
      "inputs": [
        {
          "indexed": false,
          "internalType": "uint256",
          "name": "newMaxTokenSupply",
          "type": "uint256"
        }
      ],
      "name": "MaxTokenSupplyUpdated",
      "type": "event"
    },
    {
      "anonymous": false,
      "inputs": [
        {
          "indexed": false,
          "internalType": "uint256",
          "name": "newMinRentalDuration",
          "type": "uint256"
        }
      ],
      "name": "MinRentalDurationUpdated",
      "type": "event"
    },
    {
      "anonymous": false,
      "inputs": [
        {
          "indexed": true,
          "internalType": "address",
          "name": "previousOwner",
          "type": "address"
        },
        {
          "indexed": true,
          "internalType": "address",
          "name": "newOwner",
          "type": "address"
        }
      ],
      "name": "OwnershipTransferred",
      "type": "event"
    },
    {
      "anonymous": false,
      "inputs": [
        {
          "indexed": true,
          "internalType": "address",
          "name": "renter",
          "type": "address"
        },
        {
          "indexed": false,
          "internalType": "uint256[]",
          "name": "tokenIds",
          "type": "uint256[]"
        },
        {
          "indexed": false,
          "internalType": "uint256[]",
          "name": "beginDates",
          "type": "uint256[]"
        },
        {
          "indexed": false,
          "internalType": "uint256[]",
          "name": "endDates",
          "type": "uint256[]"
        },
        {
          "indexed": false,
          "internalType": "uint256[]",
          "name": "fees",
          "type": "uint256[]"
        }
      ],
      "name": "Rental",
      "type": "event"
    },
    {
      "anonymous": false,
      "inputs": [
        {
          "indexed": false,
          "internalType": "bytes32",
          "name": "role",
          "type": "bytes32"
        },
        {
          "indexed": false,
          "internalType": "address",
          "name": "account",
          "type": "address"
        },
        {
          "indexed": false,
          "internalType": "address",
          "name": "operator",
          "type": "address"
        }
      ],
      "name": "RoleGranted",
      "type": "event"
    },
    {
      "anonymous": false,
      "inputs": [
        {
          "indexed": false,
          "internalType": "bytes32",
          "name": "role",
          "type": "bytes32"
        },
        {
          "indexed": false,
          "internalType": "address",
          "name": "account",
          "type": "address"
        },
        {
          "indexed": false,
          "internalType": "address",
          "name": "operator",
          "type": "address"
        }
      ],
      "name": "RoleRevoked",
      "type": "event"
    },
    {
      "inputs": [],
      "name": "EDU_LAND",
      "outputs": [
        {
          "internalType": "contract IEDULand",
          "name": "",
          "type": "address"
        }
      ],
      "stateMutability": "view",
      "type": "function"
    },
    {
      "inputs": [],
      "name": "OPERATOR_ROLE",
      "outputs": [
        {
          "internalType": "bytes32",
          "name": "",
          "type": "bytes32"
        }
      ],
      "stateMutability": "view",
      "type": "function"
    },
    {
      "inputs": [],
      "name": "POINTS",
      "outputs": [
        {
          "internalType": "contract Points",
          "name": "",
          "type": "address"
        }
      ],
      "stateMutability": "view",
      "type": "function"
    },
    {
      "inputs": [],
      "name": "RENTAL_CONSUME_CODE",
      "outputs": [
        {
          "internalType": "bytes32",
          "name": "",
          "type": "bytes32"
        }
      ],
      "stateMutability": "view",
      "type": "function"
    },
    {
      "inputs": [
        {
          "internalType": "uint256[]",
          "name": "tokenIds",
          "type": "uint256[]"
        }
      ],
      "name": "calculateElapsedTimeForExpiredTokens",
      "outputs": [
        {
          "internalType": "uint256",
          "name": "elapsedTime",
          "type": "uint256"
        }
      ],
      "stateMutability": "view",
      "type": "function"
    },
    {
      "inputs": [
        {
          "internalType": "uint256[]",
          "name": "tokenIds",
          "type": "uint256[]"
        }
      ],
      "name": "collectExpiredTokens",
      "outputs": [],
      "stateMutability": "nonpayable",
      "type": "function"
    },
    {
      "inputs": [
        {
          "internalType": "uint256",
          "name": "totalOngoingRentalTime_",
          "type": "uint256"
        }
      ],
      "name": "estimateLandPrice",
      "outputs": [
        {
          "internalType": "uint256",
          "name": "",
          "type": "uint256"
        }
      ],
      "stateMutability": "view",
      "type": "function"
    },
    {
      "inputs": [
        {
          "internalType": "uint256[]",
          "name": "tokenIds",
          "type": "uint256[]"
        },
        {
          "internalType": "uint256[]",
          "name": "durations",
          "type": "uint256[]"
        },
        {
          "internalType": "uint256[]",
          "name": "expiredTokenIds",
          "type": "uint256[]"
        }
      ],
      "name": "estimateRentalFee",
      "outputs": [
        {
          "internalType": "uint256",
          "name": "fee",
          "type": "uint256"
        }
      ],
      "stateMutability": "view",
      "type": "function"
    },
    {
      "inputs": [],
      "name": "forwarderRegistry",
      "outputs": [
        {
          "internalType": "contract IForwarderRegistry",
          "name": "",
          "type": "address"
        }
      ],
      "stateMutability": "view",
      "type": "function"
    },
    {
      "inputs": [
        {
          "internalType": "bytes32",
          "name": "role",
          "type": "bytes32"
        },
        {
          "internalType": "address",
          "name": "account",
          "type": "address"
        }
      ],
      "name": "grantRole",
      "outputs": [],
      "stateMutability": "nonpayable",
      "type": "function"
    },
    {
      "inputs": [
        {
          "internalType": "bytes32",
          "name": "role",
          "type": "bytes32"
        },
        {
          "internalType": "address",
          "name": "account",
          "type": "address"
        }
      ],
      "name": "hasRole",
      "outputs": [
        {
          "internalType": "bool",
          "name": "hasRole_",
          "type": "bool"
        }
      ],
      "stateMutability": "view",
      "type": "function"
    },
    {
      "inputs": [
        {
          "internalType": "address",
          "name": "forwarder",
          "type": "address"
        }
      ],
      "name": "isTrustedForwarder",
      "outputs": [
        {
          "internalType": "bool",
          "name": "",
          "type": "bool"
        }
      ],
      "stateMutability": "view",
      "type": "function"
    },
    {
      "inputs": [],
      "name": "landPriceHelper",
      "outputs": [
        {
          "internalType": "contract IEDULandPriceHelper",
          "name": "",
          "type": "address"
        }
      ],
      "stateMutability": "view",
      "type": "function"
    },
    {
      "inputs": [],
      "name": "maintenanceFee",
      "outputs": [
        {
          "internalType": "uint256",
          "name": "",
          "type": "uint256"
        }
      ],
      "stateMutability": "view",
      "type": "function"
    },
    {
      "inputs": [],
      "name": "maintenanceFeeDenominator",
      "outputs": [
        {
          "internalType": "uint256",
          "name": "",
          "type": "uint256"
        }
      ],
      "stateMutability": "view",
      "type": "function"
    },
    {
      "inputs": [],
      "name": "maxRentalCountPerCall",
      "outputs": [
        {
          "internalType": "uint256",
          "name": "",
          "type": "uint256"
        }
      ],
      "stateMutability": "view",
      "type": "function"
    },
    {
      "inputs": [],
      "name": "maxRentalDuration",
      "outputs": [
        {
          "internalType": "uint256",
          "name": "",
          "type": "uint256"
        }
      ],
      "stateMutability": "view",
      "type": "function"
    },
    {
      "inputs": [],
      "name": "maxTokenSupply",
      "outputs": [
        {
          "internalType": "uint256",
          "name": "",
          "type": "uint256"
        }
      ],
      "stateMutability": "view",
      "type": "function"
    },
    {
      "inputs": [],
      "name": "minRentalDuration",
      "outputs": [
        {
          "internalType": "uint256",
          "name": "",
          "type": "uint256"
        }
      ],
      "stateMutability": "view",
      "type": "function"
    },
    {
      "inputs": [],
      "name": "owner",
      "outputs": [
        {
          "internalType": "address",
          "name": "",
          "type": "address"
        }
      ],
      "stateMutability": "view",
      "type": "function"
    },
    {
      "inputs": [
        {
          "internalType": "address[]",
          "name": "accounts",
          "type": "address[]"
        },
        {
          "internalType": "contract IERC20[]",
          "name": "tokens",
          "type": "address[]"
        },
        {
          "internalType": "uint256[]",
          "name": "amounts",
          "type": "uint256[]"
        }
      ],
      "name": "recoverERC20s",
      "outputs": [],
      "stateMutability": "nonpayable",
      "type": "function"
    },
    {
      "inputs": [
        {
          "internalType": "address[]",
          "name": "accounts",
          "type": "address[]"
        },
        {
          "internalType": "contract IERC721[]",
          "name": "contracts",
          "type": "address[]"
        },
        {
          "internalType": "uint256[]",
          "name": "tokenIds",
          "type": "uint256[]"
        }
      ],
      "name": "recoverERC721s",
      "outputs": [],
      "stateMutability": "nonpayable",
      "type": "function"
    },
    {
      "inputs": [
        {
          "internalType": "address payable[]",
          "name": "accounts",
          "type": "address[]"
        },
        {
          "internalType": "uint256[]",
          "name": "amounts",
          "type": "uint256[]"
        }
      ],
      "name": "recoverETH",
      "outputs": [],
      "stateMutability": "nonpayable",
      "type": "function"
    },
    {
      "inputs": [
        {
          "internalType": "bytes32",
          "name": "role",
          "type": "bytes32"
        }
      ],
      "name": "renounceRole",
      "outputs": [],
      "stateMutability": "nonpayable",
      "type": "function"
    },
    {
      "inputs": [
        {
          "internalType": "uint256[]",
          "name": "tokenIds",
          "type": "uint256[]"
        },
        {
          "internalType": "uint256[]",
          "name": "durations",
          "type": "uint256[]"
        },
        {
          "internalType": "uint256[]",
          "name": "expiredTokenIds",
          "type": "uint256[]"
        },
        {
          "internalType": "uint256",
          "name": "maxFee",
          "type": "uint256"
        }
      ],
      "name": "rent",
      "outputs": [],
      "stateMutability": "nonpayable",
      "type": "function"
    },
    {
      "inputs": [
        {
          "internalType": "uint256",
          "name": "",
          "type": "uint256"
        }
      ],
      "name": "rentals",
      "outputs": [
        {
          "internalType": "uint256",
          "name": "beginDate",
          "type": "uint256"
        },
        {
          "internalType": "uint256",
          "name": "endDate",
          "type": "uint256"
        },
        {
          "internalType": "uint256",
          "name": "fee",
          "type": "uint256"
        }
      ],
      "stateMutability": "view",
      "type": "function"
    },
    {
      "inputs": [
        {
          "internalType": "bytes32",
          "name": "role",
          "type": "bytes32"
        },
        {
          "internalType": "address",
          "name": "account",
          "type": "address"
        }
      ],
      "name": "revokeRole",
      "outputs": [],
      "stateMutability": "nonpayable",
      "type": "function"
    },
    {
      "inputs": [
        {
          "internalType": "address",
          "name": "newLandPriceHelper",
          "type": "address"
        }
      ],
      "name": "setLandPriceHelper",
      "outputs": [],
      "stateMutability": "nonpayable",
      "type": "function"
    },
    {
      "inputs": [
        {
          "internalType": "uint256",
          "name": "newMaintenanceFee",
          "type": "uint256"
        },
        {
          "internalType": "uint256",
          "name": "newMaintenanceFeeDenominator",
          "type": "uint256"
        }
      ],
      "name": "setMaintenanceFee",
      "outputs": [],
      "stateMutability": "nonpayable",
      "type": "function"
    },
    {
      "inputs": [
        {
          "internalType": "uint256",
          "name": "newRentalCountPerCall",
          "type": "uint256"
        }
      ],
      "name": "setMaxRentalCountPerCall",
      "outputs": [],
      "stateMutability": "nonpayable",
      "type": "function"
    },
    {
      "inputs": [
        {
          "internalType": "uint256",
          "name": "newMaxRentalDuration",
          "type": "uint256"
        }
      ],
      "name": "setMaxRentalDuration",
      "outputs": [],
      "stateMutability": "nonpayable",
      "type": "function"
    },
    {
      "inputs": [
        {
          "internalType": "uint256",
          "name": "newMaxTokenSupply",
          "type": "uint256"
        }
      ],
      "name": "setMaxTokenSupply",
      "outputs": [],
      "stateMutability": "nonpayable",
      "type": "function"
    },
    {
      "inputs": [
        {
          "internalType": "uint256",
          "name": "newMinRentalDuration",
          "type": "uint256"
        }
      ],
      "name": "setMinRentalDuration",
      "outputs": [],
      "stateMutability": "nonpayable",
      "type": "function"
    },
    {
      "inputs": [
        {
          "internalType": "bytes4",
          "name": "interfaceId",
          "type": "bytes4"
        }
      ],
      "name": "supportsInterface",
      "outputs": [
        {
          "internalType": "bool",
          "name": "",
          "type": "bool"
        }
      ],
      "stateMutability": "view",
      "type": "function"
    },
    {
      "inputs": [],
      "name": "totalOngoingRentalTime",
      "outputs": [
        {
          "internalType": "uint256",
          "name": "",
          "type": "uint256"
        }
      ],
      "stateMutability": "view",
      "type": "function"
    },
    {
      "inputs": [
        {
          "internalType": "address",
          "name": "newOwner",
          "type": "address"
        }
      ],
      "name": "transferOwnership",
      "outputs": [],
      "stateMutability": "nonpayable",
      "type": "function"
    }
  ],
  "bytecode": "0x60e06040523480156200001157600080fd5b50604051620034753803806200347583398101604081905262000034916200038d565b8080336200004d816200004662000236565b906200026c565b506001600160a01b039081166080528b1690506200007e57604051639ae269af60e01b815260040160405180910390fd5b6001600160a01b03808b1660c0528916620000ac5760405163a276d54960e01b815260040160405180910390fd5b6001600160a01b0389811660a052600080546001600160a01b031916918a1691821790556040519081527fd99014e6f6a21a1f7025e1599288b52168db6241486596946f759a520d4ddfea9060200160405180910390a16002879055600386905560408051888152602081018890527f788db483524e27f5a39a54daaeb81bb48059af776767d0c1f600ef6e996d2818910160405180910390a160048590556040518581527f7d9d1c986503049ed25e197e416ddaeef53d62a8479d6371784f05a9d9da98249060200160405180910390a160058490556040518481527fb4f38443948b39b669154b83689d2dfa2a4cb2b1fd458118da3d1bcdacfc56089060200160405180910390a160068390556040518381527faa06aa6d79ce3cb966afe332af120b3aa8252dc355d1d2dae1368babec5f3ee59060200160405180910390a160018290556040518281527fb8b290c068ed53e46165f3ca5215dcc2972ae26ae4c8fb5adc71a1c135f855139060200160405180910390a15050505050505050505062000456565b6000806200026660017fc9ed16f33ab3a66c84bfd83099ccb2a8845871e2e1c1928f63797152f0fd54cd62000434565b92915050565b6001600160a01b03811615620002c35781546001600160a01b0319166001600160a01b03821690811783556040516000907f8be0079c531659141344cd1fd0a4f28419497f9722a3daafe3b4186f6b6457e0908290a35b620002e36307f5828d60e41b6001620002db620002e7565b919062000317565b5050565b6000806200026660017fca9d3e17f264b0f3984e2634e94adb37fa3e6a8103f06aeae6fa59e21c769f5e62000434565b600160e01b6001600160e01b031983160162000346576040516372c683bb60e01b815260040160405180910390fd5b6001600160e01b03199190911660009081526020929092526040909120805460ff1916911515919091179055565b6001600160a01b03811681146200038a57600080fd5b50565b6000806000806000806000806000806101408b8d031215620003ae57600080fd5b8a51620003bb8162000374565b60208c0151909a50620003ce8162000374565b60408c0151909950620003e18162000374565b8098505060608b0151965060808b0151955060a08b0151945060c08b0151935060e08b015192506101008b015191506101208b0151620004218162000374565b809150509295989b9194979a5092959850565b818103818111156200026657634e487b7160e01b600052601160045260246000fd5b60805160a05160c051612fb0620004c5600039600081816102a5015281816109b601528181610b060152818161176801528181611d4a0152611e190152600081816104000152610e070152600081816103230152818161038f0152818161264901526126d10152612fb06000f3fe608060405234801561001057600080fd5b506004361061025c5760003560e01c80638ecd7b7311610145578063dd286177116100bd578063f5b541a61161008c578063f7ba94bd11610071578063f7ba94bd146105ae578063f7df6bad146105c1578063fb203c17146105d457600080fd5b8063f5b541a61461057e578063f7032194146105a557600080fd5b8063dd2861771461051e578063e105c43c14610545578063e4f095d914610558578063f2fde38b1461056b57600080fd5b8063b07ed98211610114578063b65dd451116100f9578063b65dd451146104e5578063c3666c36146104f8578063d547741f1461050b57600080fd5b8063b07ed982146104c9578063b2b47e3b146104dc57600080fd5b80638ecd7b731461045057806391d1485414610463578063a5f7375814610476578063af94a1d11461047f57600080fd5b80635625ac51116101d85780637ce4026f116101a757806388b681fe1161018c57806388b681fe146104225780638bb9c5bf146104355780638da5cb5b1461044857600080fd5b80637ce4026f146103f25780637f6e4281146103fb57600080fd5b80635625ac511461036c578063572b6c051461037f57806370243bcc146103cc57806373c8a958146103df57600080fd5b806321d428161161022f5780632f2ff15d116102145780632f2ff15d1461034757806334f1a8d31461035a57806350f7c2041461036357600080fd5b806321d428161461030c5780632b4c9f161461032157600080fd5b806301ffc9a714610261578063046604491461028957806315e682cb146102a05780631aabc61d146102ec575b600080fd5b61027461026f3660046129cd565b6105e7565b60405190151581526020015b60405180910390f35b61029260025481565b604051908152602001610280565b6102c77f000000000000000000000000000000000000000000000000000000000000000081565b60405173ffffffffffffffffffffffffffffffffffffffff9091168152602001610280565b6000546102c79073ffffffffffffffffffffffffffffffffffffffff1681565b61031f61031a366004612a5b565b610601565b005b7f00000000000000000000000000000000000000000000000000000000000000006102c7565b61031f610355366004612b20565b610eca565b61029260045481565b61029260015481565b61031f61037a366004612b50565b610f03565b61027461038d366004612b72565b7f000000000000000000000000000000000000000000000000000000000000000073ffffffffffffffffffffffffffffffffffffffff90811691161490565b6102926103da366004612b8f565b610f85565b61031f6103ed366004612bd1565b611014565b61029260055481565b6102c77f000000000000000000000000000000000000000000000000000000000000000081565b61031f610430366004612b8f565b611112565b61031f610443366004612c6b565b61113f565b6102c761115d565b61029261045e366004612c6b565b611189565b610274610471366004612b20565b61121d565b61029260085481565b6104ae61048d366004612c6b565b60076020526000908152604090208054600182015460029092015490919083565b60408051938452602084019290925290820152606001610280565b61031f6104d7366004612c6b565b611268565b61029260035481565b61031f6104f3366004612c6b565b6112d0565b61031f610506366004612bd1565b611331565b61031f610519366004612b20565b6114a9565b6102927f0e67d2d2c46f23cfff9f76c16187348901bf73ba32dcf6893f2a2a4b25be75f881565b610292610553366004612bd1565b6114d7565b61031f610566366004612c6b565b611900565b61031f610579366004612b72565b611961565b6102927f97667070c54ef182b0f5858b034beac1b6f3089aa2d3188bb1e8929f4fa9b92981565b61029260065481565b61031f6105bc366004612c84565b61197c565b61031f6105cf366004612b72565b611a3b565b61031f6105e2366004612c6b565b611ada565b60006105fb826105f5611b3b565b90611b69565b92915050565b60008787808060200260200160405190810160405280939291908181526020018383602002808284376000920182905250604080516020808d0282810182019093528c825296975091959194508b93508a9250829185019084908082843760009201919091525050825185519394509290921491506106ae9050576040517f6582533600000000000000000000000000000000000000000000000000000000815260040160405180910390fd5b600654825111156106eb576040517f2273ee1800000000000000000000000000000000000000000000000000000000815260040160405180910390fd5b4260006106fa87878484611c43565b6008546107079190612d1f565b9050600061071482611189565b90506000610720611f6b565b90506000865167ffffffffffffffff81111561073e5761073e612d32565b604051908082528060200260200182016040528015610767578160200160208202803683370190505b5090506000875167ffffffffffffffff81111561078657610786612d32565b6040519080825280602002602001820160405280156107af578160200160208202803683370190505b5090506000885167ffffffffffffffff8111156107ce576107ce612d32565b6040519080825280602002602001820160405280156107f7578160200160208202803683370190505b5090506000805b8a51811015610d405760008b828151811061081b5761081b612d61565b6020026020010151905060008b838151811061083957610839612d61565b6020026020010151905081600003610885576040517f8ce0857d000000000000000000000000000000000000000000000000000000008152600060048201526024015b60405180910390fd5b6001548211156108c4576040517f8ce0857d0000000000000000000000000000000000000000000000000000000081526004810183905260240161087c565b600554811115610903576040517fb479b6550000000000000000000000000000000000000000000000000000000081526004810183905260240161087c565b60008281526007602052604081206001810154909103610ad75760045482101561095c576040517f508a9a3a0000000000000000000000000000000000000000000000000000000081526004810184905260240161087c565b6040517f8832e6e300000000000000000000000000000000000000000000000000000000815273ffffffffffffffffffffffffffffffffffffffff8a811660048301526024820185905260606044830152600060648301527f00000000000000000000000000000000000000000000000000000000000000001690638832e6e390608401600060405180830381600087803b1580156109fa57600080fd5b505af1158015610a0e573d6000803e3d6000fd5b5050508c8255506000610a21838e612d90565b60018301819055600354600254919250600091610a3e9086612da3565b610a489190612dba565b610a52908d612d90565b600284018190559050610a658188612d90565b9650610a71848e612d90565b9c508d8a8781518110610a8657610a86612d61565b60200260200101818152505081898781518110610aa557610aa5612d61565b60200260200101818152505080888781518110610ac457610ac4612d61565b6020026020010181815250505050610d35565b6040517f6352211e000000000000000000000000000000000000000000000000000000008152600481018490527f000000000000000000000000000000000000000000000000000000000000000073ffffffffffffffffffffffffffffffffffffffff1690636352211e90602401602060405180830381865afa158015610b62573d6000803e3d6000fd5b505050506040513d601f19601f82011682018060405250810190610b869190612df5565b73ffffffffffffffffffffffffffffffffffffffff168973ffffffffffffffffffffffffffffffffffffffff16148015610bc3575080600101548c105b15610d00576000610bd4838e612d90565b6001830154600454919250908190610bec9084612d1f565b1015610c27576040517f508a9a3a0000000000000000000000000000000000000000000000000000000081526004810186905260240161087c565b6000610c338284612d1f565b60018501849055600354600254919250600091610c509084612da3565b610c5a9190612dba565b610c64908f612d90565b905080856002016000828254610c7a9190612d90565b90915550610c8a9050818a612d90565b9850818f610c989190612d90565b9e50828c8981518110610cad57610cad612d61565b602002602001018181525050838b8981518110610ccc57610ccc612d61565b602002602001018181525050808a8981518110610ceb57610ceb612d61565b60200260200101818152505050505050610d35565b6040517f139d67990000000000000000000000000000000000000000000000000000000081526004810184905260240161087c565b5050506001016107fe565b508a15801590610d4f57508a81115b15610d90576040517fd519701100000000000000000000000000000000000000000000000000000000815260048101829052602481018c905260440161087c565b60088790556040517f212aac7900000000000000000000000000000000000000000000000000000000815273ffffffffffffffffffffffffffffffffffffffff8681166004830152602482018390527f0e67d2d2c46f23cfff9f76c16187348901bf73ba32dcf6893f2a2a4b25be75f860448301527f0000000000000000000000000000000000000000000000000000000000000000169063212aac7990606401600060405180830381600087803b158015610e4b57600080fd5b505af1158015610e5f573d6000803e3d6000fd5b505050508473ffffffffffffffffffffffffffffffffffffffff167f34a3f395b50735b2b7b8f7ece79da6b46efdb3f0aeb0eb5871dcff84354d03758b868686604051610eaf9493929190612e4e565b60405180910390a25050505050505050505050505050505050565b6000610ed4611f6b565b9050610ee881610ee2611f75565b90611fa3565b610efe838383610ef6612012565b929190612040565b505050565b610f3e7f97667070c54ef182b0f5858b034beac1b6f3089aa2d3188bb1e8929f4fa9b929610f2f611f6b565b610f37612012565b9190612117565b6002829055600381905560408051838152602081018390527f788db483524e27f5a39a54daaeb81bb48059af776767d0c1f600ef6e996d2818910160405180910390a15050565b600042815b8381101561100c576000858583818110610fa657610fa6612d61565b90506020020135905060006007600083815260200190815260200160002090508060010154600014158015610fdf575080600101548410155b156110025780546001820154610ff59190612d1f565b610fff9086612d90565b94505b5050600101610f8a565b505092915050565b61102761101f611f6b565b610ee2611f75565b8483811415806110375750808214155b1561106e576040517f6582533600000000000000000000000000000000000000000000000000000000815260040160405180910390fd5b60005b818110156111085761110088888381811061108e5761108e612d61565b90506020020160208101906110a39190612b72565b8585848181106110b5576110b5612d61565b905060200201358888858181106110ce576110ce612d61565b90506020020160208101906110e39190612b72565b73ffffffffffffffffffffffffffffffffffffffff16919061219d565b600101611071565b5050505050505050565b60006111218383426001611c43565b905080600860008282546111359190612d1f565b9091555050505050565b61115a61114a611f6b565b82611153612012565b919061222a565b50565b600061118461116a611f75565b5473ffffffffffffffffffffffffffffffffffffffff1690565b905090565b600080546040517fae1042650000000000000000000000000000000000000000000000000000000081526004810184905273ffffffffffffffffffffffffffffffffffffffff9091169063ae10426590602401602060405180830381865afa1580156111f9573d6000803e3d6000fd5b505050506040513d601f19601f820116820180604052508101906105fb9190612e9b565b6000611261838361122c612012565b60009283526020908152604080842073ffffffffffffffffffffffffffffffffffffffff909316845291905290205460ff1690565b9392505050565b6112947f97667070c54ef182b0f5858b034beac1b6f3089aa2d3188bb1e8929f4fa9b929610f2f611f6b565b60018190556040518181527fb8b290c068ed53e46165f3ca5215dcc2972ae26ae4c8fb5adc71a1c135f85513906020015b60405180910390a150565b6112fc7f97667070c54ef182b0f5858b034beac1b6f3089aa2d3188bb1e8929f4fa9b929610f2f611f6b565b60068190556040518181527faa06aa6d79ce3cb966afe332af120b3aa8252dc355d1d2dae1368babec5f3ee5906020016112c5565b61133c61101f611f6b565b84838114158061134c5750808214155b15611383576040517f6582533600000000000000000000000000000000000000000000000000000000815260040160405180910390fd5b60005b81811015611108578585828181106113a0576113a0612d61565b90506020020160208101906113b59190612b72565b73ffffffffffffffffffffffffffffffffffffffff166323b872dd308a8a858181106113e3576113e3612d61565b90506020020160208101906113f89190612b72565b87878681811061140a5761140a612d61565b6040517fffffffff0000000000000000000000000000000000000000000000000000000060e088901b16815273ffffffffffffffffffffffffffffffffffffffff958616600482015294909316602485015250602090910201356044820152606401600060405180830381600087803b15801561148657600080fd5b505af115801561149a573d6000803e3d6000fd5b50505050806001019050611386565b60006114b3611f6b565b90506114c181610ee2611f75565b610efe8383836114cf612012565b9291906122ce565b6000858414611512576040517f6582533600000000000000000000000000000000000000000000000000000000815260040160405180910390fd5b60065486111561154e576040517f2273ee1800000000000000000000000000000000000000000000000000000000815260040160405180910390fd5b42600061155b8585610f85565b905060006115708260085461045e9190612d1f565b90506000805b8a8110156118dc5760008a8a8381811061159257611592612d61565b90506020020135905060008d8d848181106115af576115af612d61565b905060200201359050806000036115f5576040517f8ce0857d0000000000000000000000000000000000000000000000000000000081526000600482015260240161087c565b600154811115611634576040517f8ce0857d0000000000000000000000000000000000000000000000000000000081526004810182905260240161087c565b600554821115611673576040517fb479b6550000000000000000000000000000000000000000000000000000000081526004810182905260240161087c565b60008181526007602090815260408083208151606081018352815481526001820154938101849052600290910154918101919091529103611718576004548310156116ed576040517f508a9a3a0000000000000000000000000000000000000000000000000000000081526004810183905260240161087c565b6003546002546116fd9085612da3565b6117079190612dba565b6117119086612d90565b94506118d1565b611720611f6b565b6040517f6352211e0000000000000000000000000000000000000000000000000000000081526004810184905273ffffffffffffffffffffffffffffffffffffffff918216917f00000000000000000000000000000000000000000000000000000000000000001690636352211e90602401602060405180830381865afa1580156117af573d6000803e3d6000fd5b505050506040513d601f19601f820116820180604052508101906117d39190612df5565b73ffffffffffffffffffffffffffffffffffffffff161480156117f95750806020015188105b1561189c57600061180a848a612d90565b905081602001516004548261181f9190612d1f565b101561185a576040517f508a9a3a0000000000000000000000000000000000000000000000000000000081526004810184905260240161087c565b600082602001518261186c9190612d1f565b90506003546002548261187f9190612da3565b6118899190612dba565b6118939088612d90565b965050506118d1565b6040517f139d67990000000000000000000000000000000000000000000000000000000081526004810183905260240161087c565b505050600101611576565b506118e78a83612da3565b6118f19082612d90565b9b9a5050505050505050505050565b61192c7f97667070c54ef182b0f5858b034beac1b6f3089aa2d3188bb1e8929f4fa9b929610f2f611f6b565b60058190556040518181527fb4f38443948b39b669154b83689d2dfa2a4cb2b1fd458118da3d1bcdacfc5608906020016112c5565b61115a61196c611f6b565b82611975611f75565b9190612398565b61198761101f611f6b565b828181146119c1576040517f6582533600000000000000000000000000000000000000000000000000000000815260040160405180910390fd5b60005b81811015611a3357611a2b8484838181106119e1576119e1612d61565b905060200201358787848181106119fa576119fa612d61565b9050602002016020810190611a0f9190612b72565b73ffffffffffffffffffffffffffffffffffffffff16906124ac565b6001016119c4565b505050505050565b611a677f97667070c54ef182b0f5858b034beac1b6f3089aa2d3188bb1e8929f4fa9b929610f2f611f6b565b600080547fffffffffffffffffffffffff00000000000000000000000000000000000000001673ffffffffffffffffffffffffffffffffffffffff83169081179091556040519081527fd99014e6f6a21a1f7025e1599288b52168db6241486596946f759a520d4ddfea906020016112c5565b611b067f97667070c54ef182b0f5858b034beac1b6f3089aa2d3188bb1e8929f4fa9b929610f2f611f6b565b60048190556040518181527f7d9d1c986503049ed25e197e416ddaeef53d62a8479d6371784f05a9d9da9824906020016112c5565b6000806105fb60017fca9d3e17f264b0f3984e2634e94adb37fa3e6a8103f06aeae6fa59e21c769f5e612d1f565b60007c01000000000000000000000000000000000000000000000000000000007fffffffff00000000000000000000000000000000000000000000000000000000831601611bb9575060006105fb565b7ffe003659000000000000000000000000000000000000000000000000000000007fffffffff00000000000000000000000000000000000000000000000000000000831601611c0a575060016105fb565b507fffffffff00000000000000000000000000000000000000000000000000000000166000908152602091909152604090205460ff1690565b6000808467ffffffffffffffff811115611c5f57611c5f612d32565b604051908082528060200260200182016040528015611c88578160200160208202803683370190505b5090506000805b86811015611ee5576000888883818110611cab57611cab612d61565b90506020020135905060006007600083815260200190815260200160002090508060010154600014158015611ce4575080600101548810155b15611ea05780546001820154611cfa9190612d1f565b611d049087612d90565b600080835560018301819055600283018190556040517f6352211e00000000000000000000000000000000000000000000000000000000815260048101859052919750907f000000000000000000000000000000000000000000000000000000000000000073ffffffffffffffffffffffffffffffffffffffff1690636352211e90602401602060405180830381865afa158015611da6573d6000803e3d6000fd5b505050506040513d601f19601f82011682018060405250810190611dca9190612df5565b6040517f79cc679000000000000000000000000000000000000000000000000000000000815273ffffffffffffffffffffffffffffffffffffffff8083166004830152602482018690529192507f0000000000000000000000000000000000000000000000000000000000000000909116906379cc679090604401600060405180830381600087803b158015611e5f57600080fd5b505af1158015611e73573d6000803e3d6000fd5b5050505082868581518110611e8a57611e8a612d61565b6020026020010181815250506001945050611edb565b8615611edb576040517f9be5764a0000000000000000000000000000000000000000000000000000000081526004810183905260240161087c565b5050600101611c8f565b508015611f28577f9e5430727c5f2b23597e7cb2670240cc8fbb4031a0dad53562812b380e286b3d82604051611f1b9190612eb4565b60405180910390a1611f60565b8315611f60576040517f8c59e32400000000000000000000000000000000000000000000000000000000815260040160405180910390fd5b50505b949350505050565b6000611184612606565b6000806105fb60017fc9ed16f33ab3a66c84bfd83099ccb2a8845871e2e1c1928f63797152f0fd54cd612d1f565b815473ffffffffffffffffffffffffffffffffffffffff82811691161461200e576040517f2ef4875e00000000000000000000000000000000000000000000000000000000815273ffffffffffffffffffffffffffffffffffffffff8216600482015260240161087c565b5050565b6000806105fb60017fc8827d3282af6f37b64c3e9e6f3ac9df286ab0bb0fccd6f8661bf19adb368b23612d1f565b60008381526020858152604080832073ffffffffffffffffffffffffffffffffffffffff8616845290915290205460ff166121115760008381526020858152604080832073ffffffffffffffffffffffffffffffffffffffff8681168086529184529382902080547fffffffffffffffffffffffffffffffffffffffffffffffffffffffffffffff00166001179055815187815292830152918316918101919091527f2f8788117e7eff1d82e926ec794901d17c78024a50270940304540a733656f0d906060015b60405180910390a15b50505050565b60008281526020848152604080832073ffffffffffffffffffffffffffffffffffffffff8516845290915290205460ff16610efe576040517f7aa728820000000000000000000000000000000000000000000000000000000081526004810183905273ffffffffffffffffffffffffffffffffffffffff8216602482015260440161087c565b6040805173ffffffffffffffffffffffffffffffffffffffff8416602482015260448082018490528251808303909101815260649091019091526020810180517bffffffffffffffffffffffffffffffffffffffffffffffffffffffff167fa9059cbb00000000000000000000000000000000000000000000000000000000179052610efe90849061274d565b612235838284612117565b60008181526020848152604080832073ffffffffffffffffffffffffffffffffffffffff86168085529083529281902080547fffffffffffffffffffffffffffffffffffffffffffffffffffffffffffffff0016905580518481529182018390528101919091527ff6391f5c32d9c69d2a47ea670b442974b53935d1edc7fd64eb21e047a839171b9060600160405180910390a1505050565b60008381526020858152604080832073ffffffffffffffffffffffffffffffffffffffff8616845290915290205460ff16156121115760008381526020858152604080832073ffffffffffffffffffffffffffffffffffffffff8681168086529184529382902080547fffffffffffffffffffffffffffffffffffffffffffffffffffffffffffffff00169055815187815292830152918316918101919091527ff6391f5c32d9c69d2a47ea670b442974b53935d1edc7fd64eb21e047a839171b90606001612108565b825473ffffffffffffffffffffffffffffffffffffffff9081169083168114612405576040517f2ef4875e00000000000000000000000000000000000000000000000000000000815273ffffffffffffffffffffffffffffffffffffffff8416600482015260240161087c565b8173ffffffffffffffffffffffffffffffffffffffff168173ffffffffffffffffffffffffffffffffffffffff16146121115783547fffffffffffffffffffffffff00000000000000000000000000000000000000001673ffffffffffffffffffffffffffffffffffffffff8381169182178655604051908316907f8be0079c531659141344cd1fd0a4f28419497f9722a3daafe3b4186f6b6457e090600090a350505050565b80471015612516576040517f08c379a000000000000000000000000000000000000000000000000000000000815260206004820152601d60248201527f416464726573733a20696e73756666696369656e742062616c616e6365000000604482015260640161087c565b60008273ffffffffffffffffffffffffffffffffffffffff168260405160006040518083038185875af1925050503d8060008114612570576040519150601f19603f3d011682016040523d82523d6000602084013e612575565b606091505b5050905080610efe576040517f08c379a000000000000000000000000000000000000000000000000000000000815260206004820152603a60248201527f416464726573733a20756e61626c6520746f2073656e642076616c75652c207260448201527f6563697069656e74206d61792068617665207265766572746564000000000000606482015260840161087c565b6000333214806126165750601836105b1561262057503390565b7fffffffffffffffffffffffffffffffffffffffffffffffffffffffffffffffec36013560601c7f000000000000000000000000000000000000000000000000000000000000000073ffffffffffffffffffffffffffffffffffffffff1633148061273c57506040517f8929a8ca00000000000000000000000000000000000000000000000000000000815273ffffffffffffffffffffffffffffffffffffffff82811660048301523360248301527f00000000000000000000000000000000000000000000000000000000000000001690638929a8ca90604401602060405180830381865afa158015612718573d6000803e3d6000fd5b505050506040513d601f19601f8201168201806040525081019061273c9190612ec7565b1561274657919050565b3391505090565b60006127af826040518060400160405280602081526020017f5361666545524332303a206c6f772d6c6576656c2063616c6c206661696c65648152508573ffffffffffffffffffffffffffffffffffffffff1661285c9092919063ffffffff16565b90508051600014806127d05750808060200190518101906127d09190612ec7565b610efe576040517f08c379a000000000000000000000000000000000000000000000000000000000815260206004820152602a60248201527f5361666545524332303a204552433230206f7065726174696f6e20646964206e60448201527f6f74207375636365656400000000000000000000000000000000000000000000606482015260840161087c565b6060611f638484600085856000808673ffffffffffffffffffffffffffffffffffffffff1685876040516128909190612f0d565b60006040518083038185875af1925050503d80600081146128cd576040519150601f19603f3d011682016040523d82523d6000602084013e6128d2565b606091505b50915091506128e3878383876128ee565b979650505050505050565b6060831561298457825160000361297d5773ffffffffffffffffffffffffffffffffffffffff85163b61297d576040517f08c379a000000000000000000000000000000000000000000000000000000000815260206004820152601d60248201527f416464726573733a2063616c6c20746f206e6f6e2d636f6e7472616374000000604482015260640161087c565b5081611f63565b611f6383838151156129995781518083602001fd5b806040517f08c379a000000000000000000000000000000000000000000000000000000000815260040161087c9190612f29565b6000602082840312156129df57600080fd5b81357fffffffff000000000000000000000000000000000000000000000000000000008116811461126157600080fd5b60008083601f840112612a2157600080fd5b50813567ffffffffffffffff811115612a3957600080fd5b6020830191508360208260051b8501011115612a5457600080fd5b9250929050565b60008060008060008060006080888a031215612a7657600080fd5b873567ffffffffffffffff80821115612a8e57600080fd5b612a9a8b838c01612a0f565b909950975060208a0135915080821115612ab357600080fd5b612abf8b838c01612a0f565b909750955060408a0135915080821115612ad857600080fd5b50612ae58a828b01612a0f565b989b979a50959894979596606090950135949350505050565b73ffffffffffffffffffffffffffffffffffffffff8116811461115a57600080fd5b60008060408385031215612b3357600080fd5b823591506020830135612b4581612afe565b809150509250929050565b60008060408385031215612b6357600080fd5b50508035926020909101359150565b600060208284031215612b8457600080fd5b813561126181612afe565b60008060208385031215612ba257600080fd5b823567ffffffffffffffff811115612bb957600080fd5b612bc585828601612a0f565b90969095509350505050565b60008060008060008060608789031215612bea57600080fd5b863567ffffffffffffffff80821115612c0257600080fd5b612c0e8a838b01612a0f565b90985096506020890135915080821115612c2757600080fd5b612c338a838b01612a0f565b90965094506040890135915080821115612c4c57600080fd5b50612c5989828a01612a0f565b979a9699509497509295939492505050565b600060208284031215612c7d57600080fd5b5035919050565b60008060008060408587031215612c9a57600080fd5b843567ffffffffffffffff80821115612cb257600080fd5b612cbe88838901612a0f565b90965094506020870135915080821115612cd757600080fd5b50612ce487828801612a0f565b95989497509550505050565b7f4e487b7100000000000000000000000000000000000000000000000000000000600052601160045260246000fd5b818103818111156105fb576105fb612cf0565b7f4e487b7100000000000000000000000000000000000000000000000000000000600052604160045260246000fd5b7f4e487b7100000000000000000000000000000000000000000000000000000000600052603260045260246000fd5b808201808211156105fb576105fb612cf0565b80820281158282048414176105fb576105fb612cf0565b600082612df0577f4e487b7100000000000000000000000000000000000000000000000000000000600052601260045260246000fd5b500490565b600060208284031215612e0757600080fd5b815161126181612afe565b60008151808452602080850194506020840160005b83811015612e4357815187529582019590820190600101612e27565b509495945050505050565b608081526000612e616080830187612e12565b8281036020840152612e738187612e12565b90508281036040840152612e878186612e12565b905082810360608401526128e38185612e12565b600060208284031215612ead57600080fd5b5051919050565b6020815260006112616020830184612e12565b600060208284031215612ed957600080fd5b8151801515811461126157600080fd5b60005b83811015612f04578181015183820152602001612eec565b50506000910152565b60008251612f1f818460208701612ee9565b9190910192915050565b6020815260008251806020840152612f48816040850160208701612ee9565b601f017fffffffffffffffffffffffffffffffffffffffffffffffffffffffffffffffe016919091016040019291505056fea26469706673582212204c4b86bc81f28fe546c9d463877a54156dd7d748b42e60e4bf46ff2e808fd89d64736f6c63430008160033",
  "linkReferences": {},
  "deployedLinkReferences": {}
}