{
  "_format": "hh-sol-artifact-1",
  "contractName": "EDULandRental",
  "sourceName": "contracts/land/EDULandRental.sol",
  "abi": [
    {
      "inputs": [
        {
          "internalType": "address",
          "name": "nodeKeyAddress",
          "type": "address"
        },
        {
          "internalType": "address",
          "name": "pointsAddress",
          "type": "address"
        },
        {
          "internalType": "address",
          "name": "rentalFeeHelperAddress",
          "type": "address"
        },
        {
          "internalType": "uint256",
          "name": "maintenanceFee_",
          "type": "uint256"
        },
        {
          "internalType": "uint256",
          "name": "maxRentalDuration_",
          "type": "uint256"
        },
        {
          "internalType": "uint256",
          "name": "maxRentalCountPerCall_",
          "type": "uint256"
        },
        {
          "internalType": "uint256",
          "name": "maxTokenSupply_",
          "type": "uint256"
        },
        {
          "internalType": "contract IForwarderRegistry",
          "name": "forwarderRegistry",
          "type": "address"
        }
      ],
      "stateMutability": "nonpayable",
      "type": "constructor"
    },
    {
      "inputs": [
        {
          "internalType": "uint256",
          "name": "calculatedFee",
          "type": "uint256"
        },
        {
          "internalType": "uint256",
          "name": "maxFee",
          "type": "uint256"
        }
      ],
      "name": "FeeExceeded",
      "type": "error"
    },
    {
      "inputs": [],
      "name": "IllegalInterfaceId",
      "type": "error"
    },
    {
      "inputs": [],
      "name": "InconsistentArrayLengths",
      "type": "error"
    },
    {
      "inputs": [],
      "name": "InvalidTokenIdsParam",
      "type": "error"
    },
    {
      "inputs": [
        {
          "internalType": "address",
          "name": "account",
          "type": "address"
        }
      ],
      "name": "NotContractOwner",
      "type": "error"
    },
    {
      "inputs": [
        {
          "internalType": "bytes32",
          "name": "role",
          "type": "bytes32"
        },
        {
          "internalType": "address",
          "name": "account",
          "type": "address"
        }
      ],
      "name": "NotRoleHolder",
      "type": "error"
    },
    {
      "inputs": [],
      "name": "RentalCountPerCallLimitExceeded",
      "type": "error"
    },
    {
      "inputs": [
        {
          "internalType": "uint256",
          "name": "tokenId",
          "type": "uint256"
        },
        {
          "internalType": "uint256",
          "name": "duration",
          "type": "uint256"
        }
      ],
      "name": "RentalDurationLimitExceeded",
      "type": "error"
    },
    {
      "inputs": [
        {
          "internalType": "uint256",
          "name": "tokenId",
          "type": "uint256"
        }
      ],
      "name": "TokenAlreadyRented",
      "type": "error"
    },
    {
      "inputs": [
        {
          "internalType": "uint256",
          "name": "tokenId",
          "type": "uint256"
        }
      ],
      "name": "TokenNotExpired",
      "type": "error"
    },
    {
      "inputs": [
        {
          "internalType": "uint256",
          "name": "tokenId",
          "type": "uint256"
        }
      ],
      "name": "TokenNotRented",
      "type": "error"
    },
    {
      "inputs": [
        {
          "internalType": "uint256",
          "name": "tokenId",
          "type": "uint256"
        }
      ],
      "name": "UnsupportedTokenId",
      "type": "error"
    },
    {
      "inputs": [
        {
          "internalType": "uint256",
          "name": "tokenId",
          "type": "uint256"
        }
      ],
      "name": "ZeroRentalDuration",
      "type": "error"
    },
    {
      "anonymous": false,
      "inputs": [
        {
          "indexed": false,
          "internalType": "uint256[]",
          "name": "tokenIds",
          "type": "uint256[]"
        }
      ],
      "name": "Collected",
      "type": "event"
    },
    {
      "anonymous": false,
      "inputs": [
        {
          "indexed": false,
          "internalType": "uint256",
          "name": "newMaintenanceFee",
          "type": "uint256"
        }
      ],
      "name": "MaintenanceFeeUpdated",
      "type": "event"
    },
    {
      "anonymous": false,
      "inputs": [
        {
          "indexed": false,
          "internalType": "uint256",
          "name": "newMaxRentalCountPerCall",
          "type": "uint256"
        }
      ],
      "name": "MaxRentalCountPerCallUpdated",
      "type": "event"
    },
    {
      "anonymous": false,
      "inputs": [
        {
          "indexed": false,
          "internalType": "uint256",
          "name": "newMaxRentalDuration",
          "type": "uint256"
        }
      ],
      "name": "MaxRentalDurationUpdated",
      "type": "event"
    },
    {
      "anonymous": false,
      "inputs": [
        {
          "indexed": false,
          "internalType": "uint256",
          "name": "newMaxTokenSupply",
          "type": "uint256"
        }
      ],
      "name": "MaxTokenSupplyUpdated",
      "type": "event"
    },
    {
      "anonymous": false,
      "inputs": [
        {
          "indexed": true,
          "internalType": "address",
          "name": "previousOwner",
          "type": "address"
        },
        {
          "indexed": true,
          "internalType": "address",
          "name": "newOwner",
          "type": "address"
        }
      ],
      "name": "OwnershipTransferred",
      "type": "event"
    },
    {
      "anonymous": false,
      "inputs": [
        {
          "indexed": true,
          "internalType": "address",
          "name": "renter",
          "type": "address"
        },
        {
          "indexed": false,
          "internalType": "uint256[]",
          "name": "tokenIds",
          "type": "uint256[]"
        },
        {
          "components": [
            {
              "internalType": "uint256",
              "name": "beginDate",
              "type": "uint256"
            },
            {
              "internalType": "uint256",
              "name": "endDate",
              "type": "uint256"
            },
            {
              "internalType": "uint256",
              "name": "fee",
              "type": "uint256"
            }
          ],
          "indexed": false,
          "internalType": "struct EDULandRental.RentalInfo[]",
          "name": "rentals",
          "type": "tuple[]"
        }
      ],
      "name": "Rental",
      "type": "event"
    },
    {
      "anonymous": false,
      "inputs": [
        {
          "indexed": false,
          "internalType": "address",
          "name": "newRentalFeeHelper",
          "type": "address"
        }
      ],
      "name": "RentalFeeHelperUpdated",
      "type": "event"
    },
    {
      "anonymous": false,
      "inputs": [
        {
          "indexed": false,
          "internalType": "bytes32",
          "name": "role",
          "type": "bytes32"
        },
        {
          "indexed": false,
          "internalType": "address",
          "name": "account",
          "type": "address"
        },
        {
          "indexed": false,
          "internalType": "address",
          "name": "operator",
          "type": "address"
        }
      ],
      "name": "RoleGranted",
      "type": "event"
    },
    {
      "anonymous": false,
      "inputs": [
        {
          "indexed": false,
          "internalType": "bytes32",
          "name": "role",
          "type": "bytes32"
        },
        {
          "indexed": false,
          "internalType": "address",
          "name": "account",
          "type": "address"
        },
        {
          "indexed": false,
          "internalType": "address",
          "name": "operator",
          "type": "address"
        }
      ],
      "name": "RoleRevoked",
      "type": "event"
    },
    {
      "inputs": [],
      "name": "EDU_LAND",
      "outputs": [
        {
          "internalType": "contract IEDULand",
          "name": "",
          "type": "address"
        }
      ],
      "stateMutability": "view",
      "type": "function"
    },
    {
      "inputs": [],
      "name": "OPERATOR_ROLE",
      "outputs": [
        {
          "internalType": "bytes32",
          "name": "",
          "type": "bytes32"
        }
      ],
      "stateMutability": "view",
      "type": "function"
    },
    {
      "inputs": [],
      "name": "POINTS",
      "outputs": [
        {
          "internalType": "contract Points",
          "name": "",
          "type": "address"
        }
      ],
      "stateMutability": "view",
      "type": "function"
    },
    {
      "inputs": [],
      "name": "RENTAL_CONSUME_CODE",
      "outputs": [
        {
          "internalType": "bytes32",
          "name": "",
          "type": "bytes32"
        }
      ],
      "stateMutability": "view",
      "type": "function"
    },
    {
      "inputs": [
        {
          "internalType": "uint256[]",
          "name": "tokenIds",
          "type": "uint256[]"
        }
      ],
      "name": "calculateElapsedTimeForExpiredTokens",
      "outputs": [
        {
          "internalType": "uint256",
          "name": "elapsedTime",
          "type": "uint256"
        }
      ],
      "stateMutability": "view",
      "type": "function"
    },
    {
      "inputs": [
        {
          "internalType": "uint256[]",
          "name": "tokenIds",
          "type": "uint256[]"
        }
      ],
      "name": "collectExpiredTokens",
      "outputs": [],
      "stateMutability": "nonpayable",
      "type": "function"
    },
    {
      "inputs": [
        {
          "internalType": "address",
          "name": "account",
          "type": "address"
        },
        {
          "internalType": "uint256[]",
          "name": "tokenIds",
          "type": "uint256[]"
        },
        {
          "internalType": "uint256[]",
          "name": "durations",
          "type": "uint256[]"
        },
        {
          "internalType": "uint256[]",
          "name": "expiredTokenIds",
          "type": "uint256[]"
        }
      ],
      "name": "estimateRentalFee",
      "outputs": [
        {
          "internalType": "uint256",
          "name": "fee",
          "type": "uint256"
        }
      ],
      "stateMutability": "view",
      "type": "function"
    },
    {
      "inputs": [],
      "name": "forwarderRegistry",
      "outputs": [
        {
          "internalType": "contract IForwarderRegistry",
          "name": "",
          "type": "address"
        }
      ],
      "stateMutability": "view",
      "type": "function"
    },
    {
      "inputs": [
        {
          "internalType": "bytes32",
          "name": "role",
          "type": "bytes32"
        },
        {
          "internalType": "address",
          "name": "account",
          "type": "address"
        }
      ],
      "name": "grantRole",
      "outputs": [],
      "stateMutability": "nonpayable",
      "type": "function"
    },
    {
      "inputs": [
        {
          "internalType": "bytes32",
          "name": "role",
          "type": "bytes32"
        },
        {
          "internalType": "address",
          "name": "account",
          "type": "address"
        }
      ],
      "name": "hasRole",
      "outputs": [
        {
          "internalType": "bool",
          "name": "hasRole_",
          "type": "bool"
        }
      ],
      "stateMutability": "view",
      "type": "function"
    },
    {
      "inputs": [
        {
          "internalType": "address",
          "name": "forwarder",
          "type": "address"
        }
      ],
      "name": "isTrustedForwarder",
      "outputs": [
        {
          "internalType": "bool",
          "name": "",
          "type": "bool"
        }
      ],
      "stateMutability": "view",
      "type": "function"
    },
    {
      "inputs": [],
      "name": "maintenanceFee",
      "outputs": [
        {
          "internalType": "uint256",
          "name": "",
          "type": "uint256"
        }
      ],
      "stateMutability": "view",
      "type": "function"
    },
    {
      "inputs": [],
      "name": "maxRentalCountPerCall",
      "outputs": [
        {
          "internalType": "uint256",
          "name": "",
          "type": "uint256"
        }
      ],
      "stateMutability": "view",
      "type": "function"
    },
    {
      "inputs": [],
      "name": "maxRentalDuration",
      "outputs": [
        {
          "internalType": "uint256",
          "name": "",
          "type": "uint256"
        }
      ],
      "stateMutability": "view",
      "type": "function"
    },
    {
      "inputs": [],
      "name": "maxTokenSupply",
      "outputs": [
        {
          "internalType": "uint256",
          "name": "",
          "type": "uint256"
        }
      ],
      "stateMutability": "view",
      "type": "function"
    },
    {
      "inputs": [],
      "name": "owner",
      "outputs": [
        {
          "internalType": "address",
          "name": "",
          "type": "address"
        }
      ],
      "stateMutability": "view",
      "type": "function"
    },
    {
      "inputs": [
        {
          "internalType": "address[]",
          "name": "accounts",
          "type": "address[]"
        },
        {
          "internalType": "contract IERC20[]",
          "name": "tokens",
          "type": "address[]"
        },
        {
          "internalType": "uint256[]",
          "name": "amounts",
          "type": "uint256[]"
        }
      ],
      "name": "recoverERC20s",
      "outputs": [],
      "stateMutability": "nonpayable",
      "type": "function"
    },
    {
      "inputs": [
        {
          "internalType": "address[]",
          "name": "accounts",
          "type": "address[]"
        },
        {
          "internalType": "contract IERC721[]",
          "name": "contracts",
          "type": "address[]"
        },
        {
          "internalType": "uint256[]",
          "name": "tokenIds",
          "type": "uint256[]"
        }
      ],
      "name": "recoverERC721s",
      "outputs": [],
      "stateMutability": "nonpayable",
      "type": "function"
    },
    {
      "inputs": [
        {
          "internalType": "address payable[]",
          "name": "accounts",
          "type": "address[]"
        },
        {
          "internalType": "uint256[]",
          "name": "amounts",
          "type": "uint256[]"
        }
      ],
      "name": "recoverETH",
      "outputs": [],
      "stateMutability": "nonpayable",
      "type": "function"
    },
    {
      "inputs": [
        {
          "internalType": "bytes32",
          "name": "role",
          "type": "bytes32"
        }
      ],
      "name": "renounceRole",
      "outputs": [],
      "stateMutability": "nonpayable",
      "type": "function"
    },
    {
      "inputs": [
        {
          "internalType": "address",
          "name": "account",
          "type": "address"
        },
        {
          "internalType": "uint256[]",
          "name": "tokenIds",
          "type": "uint256[]"
        },
        {
          "internalType": "uint256[]",
          "name": "durations",
          "type": "uint256[]"
        },
        {
          "internalType": "uint256[]",
          "name": "expiredTokenIds",
          "type": "uint256[]"
        },
        {
          "internalType": "uint256",
          "name": "maxFee",
          "type": "uint256"
        }
      ],
      "name": "rent",
      "outputs": [],
      "stateMutability": "nonpayable",
      "type": "function"
    },
    {
      "inputs": [],
      "name": "rentalFeeHelper",
      "outputs": [
        {
          "internalType": "contract IEDULandRentalFeeHelper",
          "name": "",
          "type": "address"
        }
      ],
      "stateMutability": "view",
      "type": "function"
    },
    {
      "inputs": [
        {
          "internalType": "uint256",
          "name": "",
          "type": "uint256"
        }
      ],
      "name": "rentals",
      "outputs": [
        {
          "internalType": "uint256",
          "name": "beginDate",
          "type": "uint256"
        },
        {
          "internalType": "uint256",
          "name": "endDate",
          "type": "uint256"
        },
        {
          "internalType": "uint256",
          "name": "fee",
          "type": "uint256"
        }
      ],
      "stateMutability": "view",
      "type": "function"
    },
    {
      "inputs": [
        {
          "internalType": "uint256",
          "name": "tokenId",
          "type": "uint256"
        }
      ],
      "name": "renterOf",
      "outputs": [
        {
          "internalType": "address",
          "name": "",
          "type": "address"
        }
      ],
      "stateMutability": "view",
      "type": "function"
    },
    {
      "inputs": [
        {
          "internalType": "bytes32",
          "name": "role",
          "type": "bytes32"
        },
        {
          "internalType": "address",
          "name": "account",
          "type": "address"
        }
      ],
      "name": "revokeRole",
      "outputs": [],
      "stateMutability": "nonpayable",
      "type": "function"
    },
    {
      "inputs": [
        {
          "internalType": "uint256",
          "name": "newMaintenanceFee",
          "type": "uint256"
        }
      ],
      "name": "setMaintenanceFee",
      "outputs": [],
      "stateMutability": "nonpayable",
      "type": "function"
    },
    {
      "inputs": [
        {
          "internalType": "uint256",
          "name": "newRentalCountPerCall",
          "type": "uint256"
        }
      ],
      "name": "setMaxRentalCountPerCall",
      "outputs": [],
      "stateMutability": "nonpayable",
      "type": "function"
    },
    {
      "inputs": [
        {
          "internalType": "uint256",
          "name": "newMaxRentalDuration",
          "type": "uint256"
        }
      ],
      "name": "setMaxRentalDuration",
      "outputs": [],
      "stateMutability": "nonpayable",
      "type": "function"
    },
    {
      "inputs": [
        {
          "internalType": "uint256",
          "name": "newMaxTokenSupply",
          "type": "uint256"
        }
      ],
      "name": "setMaxTokenSupply",
      "outputs": [],
      "stateMutability": "nonpayable",
      "type": "function"
    },
    {
      "inputs": [
        {
          "internalType": "address",
          "name": "newRentalFeeHelper",
          "type": "address"
        }
      ],
      "name": "setRentalFeeHelper",
      "outputs": [],
      "stateMutability": "nonpayable",
      "type": "function"
    },
    {
      "inputs": [
        {
          "internalType": "bytes4",
          "name": "interfaceId",
          "type": "bytes4"
        }
      ],
      "name": "supportsInterface",
      "outputs": [
        {
          "internalType": "bool",
          "name": "",
          "type": "bool"
        }
      ],
      "stateMutability": "view",
      "type": "function"
    },
    {
      "inputs": [],
      "name": "totalEffectiveRentalTime",
      "outputs": [
        {
          "internalType": "uint256",
          "name": "",
          "type": "uint256"
        }
      ],
      "stateMutability": "view",
      "type": "function"
    },
    {
      "inputs": [
        {
          "internalType": "address",
          "name": "newOwner",
          "type": "address"
        }
      ],
      "name": "transferOwnership",
      "outputs": [],
      "stateMutability": "nonpayable",
      "type": "function"
    }
  ],
  "bytecode": "0x60e06040523480156200001157600080fd5b506040516200328c3803806200328c8339810160408190526200003491620001f2565b8080336200004d81620000466200009b565b90620000d1565b506001600160a01b0390811660805298891660c052505094861660a052600080546001600160a01b0319169490961693909317909455600255600392909255600491909155600155620002a6565b600080620000cb60017fc9ed16f33ab3a66c84bfd83099ccb2a8845871e2e1c1928f63797152f0fd54cd62000284565b92915050565b6001600160a01b03811615620001285781546001600160a01b0319166001600160a01b03821690811783556040516000907f8be0079c531659141344cd1fd0a4f28419497f9722a3daafe3b4186f6b6457e0908290a35b620001486307f5828d60e41b6001620001406200014c565b91906200017c565b5050565b600080620000cb60017fca9d3e17f264b0f3984e2634e94adb37fa3e6a8103f06aeae6fa59e21c769f5e62000284565b600160e01b6001600160e01b0319831601620001ab576040516372c683bb60e01b815260040160405180910390fd5b6001600160e01b03199190911660009081526020929092526040909120805460ff1916911515919091179055565b6001600160a01b0381168114620001ef57600080fd5b50565b600080600080600080600080610100898b0312156200021057600080fd5b88516200021d81620001d9565b60208a01519098506200023081620001d9565b60408a01519097506200024381620001d9565b80965050606089015194506080890151935060a0890151925060c0890151915060e08901516200027381620001d9565b809150509295985092959890939650565b81810381811115620000cb57634e487b7160e01b600052601160045260246000fd5b60805160a05160c051612f706200031c600039600081816102540152818161060c01528181610a0701528181610ada0152818161172501528181611d450152611e140152600081816103cc0152610d7301526000818161029d01528181610335015281816124c4015261254c0152612f706000f3fe608060405234801561001057600080fd5b506004361061020b5760003560e01c806385ca80761161012a578063c3666c36116100bd578063e4f095d91161008c578063f5b541a611610071578063f5b541a61461052e578063f703219414610555578063f7ba94bd1461055e57600080fd5b8063e4f095d914610508578063f2fde38b1461051b57600080fd5b8063c3666c36146104a8578063d547741f146104bb578063dd286177146104ce578063e077f62b146104f557600080fd5b806391d14854116100f957806391d1485414610425578063af94a1d114610438578063b07ed98214610482578063b65dd4511461049557600080fd5b806385ca8076146103ee57806388b681fe146103f75780638bb9c5bf1461040a5780638da5cb5b1461041d57600080fd5b806350f7c204116101a257806373c8a9581161017157806373c8a95814610398578063747c5252146103ab5780637ce4026f146103be5780637f6e4281146103c757600080fd5b806350f7c2041461031c578063572b6c051461032557806364c737da1461037257806370243bcc1461038557600080fd5b80632f2ff15d116101de5780632f2ff15d146102c1578063386296f5146102d65780633d9f01fb146102f6578063409ad1961461030957600080fd5b806301ffc9a714610210578063046604491461023857806315e682cb1461024f5780632b4c9f161461029b575b600080fd5b61022361021e3660046128e6565b610571565b60405190151581526020015b60405180910390f35b61024160025481565b60405190815260200161022f565b6102767f000000000000000000000000000000000000000000000000000000000000000081565b60405173ffffffffffffffffffffffffffffffffffffffff909116815260200161022f565b7f0000000000000000000000000000000000000000000000000000000000000000610276565b6102d46102cf36600461294a565b61058b565b005b6000546102769073ffffffffffffffffffffffffffffffffffffffff1681565b61027661030436600461297a565b6105c4565b6102d46103173660046129df565b6106c6565b61024160015481565b610223610333366004612a93565b7f000000000000000000000000000000000000000000000000000000000000000073ffffffffffffffffffffffffffffffffffffffff90811691161490565b6102d4610380366004612a93565b610eae565b610241610393366004612ab0565b610f63565b6102d46103a6366004612af2565b611055565b6102d46103b936600461297a565b611153565b61024160035481565b6102767f000000000000000000000000000000000000000000000000000000000000000081565b61024160065481565b6102d4610405366004612ab0565b6111b4565b6102d461041836600461297a565b6111df565b6102766111fd565b61022361043336600461294a565b611229565b61046761044636600461297a565b60056020526000908152604090208054600182015460029092015490919083565b6040805193845260208401929092529082015260600161022f565b6102d461049036600461297a565b611274565b6102d46104a336600461297a565b6112d5565b6102d46104b6366004612af2565b611336565b6102d46104c936600461294a565b6114ae565b6102417f0e67d2d2c46f23cfff9f76c16187348901bf73ba32dcf6893f2a2a4b25be75f881565b610241610503366004612b8c565b6114dc565b6102d461051636600461297a565b611897565b6102d4610529366004612a93565b6118f8565b6102417f97667070c54ef182b0f5858b034beac1b6f3089aa2d3188bb1e8929f4fa9b92981565b61024160045481565b6102d461056c366004612c39565b611913565b60006105858261057f6119d2565b90611a00565b92915050565b6000610595611ada565b90506105a9816105a3611ae4565b90611b12565b6105bf8383836105b7611b81565b929190611baf565b505050565b60008181526005602052604081206001015442101561068c576040517f6352211e000000000000000000000000000000000000000000000000000000008152600481018390527f000000000000000000000000000000000000000000000000000000000000000073ffffffffffffffffffffffffffffffffffffffff1690636352211e90602401602060405180830381865afa158015610668573d6000803e3d6000fd5b505050506040513d601f19601f820116820180604052508101906105859190612ca5565b6040517f1297346f000000000000000000000000000000000000000000000000000000008152600481018390526024015b60405180910390fd5b6004548610610701576040517f2273ee1800000000000000000000000000000000000000000000000000000000815260040160405180910390fd5b85841461073a576040517f6582533600000000000000000000000000000000000000000000000000000000815260040160405180910390fd5b600088905060008888808060200260200160405190810160405280939291908181526020018383602002808284376000920182905250604080516020808e0282810182019093528d825296975091959194508c93508b925082918501908490808284376000920182905250939450429392506107bb91508990508884611c86565b6006546107c89190612cf1565b905060006107d582611efe565b905060008c67ffffffffffffffff8111156107f2576107f2612d04565b60405190808252806020026020018201604052801561084757816020015b61083460405180606001604052806000815260200160008152602001600081525090565b8152602001906001900390816108105790505b50905060008060005b8851811015610cff57600089828151811061086d5761086d612d33565b60200260200101519050600089838151811061088b5761088b612d33565b60200260200101519050806000036108d2576040517f21bd5ed1000000000000000000000000000000000000000000000000000000008152600481018390526024016106bd565b8160000361090f576040517f8ce0857d000000000000000000000000000000000000000000000000000000008152600060048201526024016106bd565b600154821061094d576040517f8ce0857d000000000000000000000000000000000000000000000000000000008152600481018390526024016106bd565b60008281526005602052604081206001810154909103610aab576003548211156109ad576040517fee729b8400000000000000000000000000000000000000000000000000000000815260048101849052602481018390526044016106bd565b6040517f8832e6e300000000000000000000000000000000000000000000000000000000815273ffffffffffffffffffffffffffffffffffffffff8e811660048301526024820185905260606044830152600060648301527f00000000000000000000000000000000000000000000000000000000000000001690638832e6e390608401600060405180830381600087803b158015610a4b57600080fd5b505af1158015610a5f573d6000803e3d6000fd5b5050508a825550610a70828b612d62565b6001820155600254600090610a86908490612d75565b610a90908a612d62565b600283018190559050610aa38187612d62565b955050610ca1565b6040517f6352211e000000000000000000000000000000000000000000000000000000008152600481018490527f000000000000000000000000000000000000000000000000000000000000000073ffffffffffffffffffffffffffffffffffffffff1690636352211e90602401602060405180830381865afa158015610b36573d6000803e3d6000fd5b505050506040513d601f19601f82011682018060405250810190610b5a9190612ca5565b73ffffffffffffffffffffffffffffffffffffffff168d73ffffffffffffffffffffffffffffffffffffffff16148015610b97575080600101548a105b15610c6c57600354815460018301548491610bb191612cf1565b610bbb9190612d62565b1115610c1c57828282600001548360010154610bd79190612cf1565b610be19190612d62565b6040517fee729b84000000000000000000000000000000000000000000000000000000008152600481019290925260248201526044016106bd565b81816001016000828254610c309190612d62565b9091555050600254600090610c46908490612d75565b905080826002016000828254610c5c9190612d62565b90915550610aa390508187612d62565b6040517f139d6799000000000000000000000000000000000000000000000000000000008152600481018490526024016106bd565b6040805160608101825282548152600183015460208201526002830154918101919091528751889086908110610cd957610cd9612d33565b6020908102919091010152610cee8287612d62565b955050600190920191506108509050565b508915801590610d0e57508981115b15610d4f576040517fd519701100000000000000000000000000000000000000000000000000000000815260048101829052602481018b90526044016106bd565b610d598286612d62565b60065573ffffffffffffffffffffffffffffffffffffffff7f00000000000000000000000000000000000000000000000000000000000000001663212aac79610da0611ada565b6040517fffffffff0000000000000000000000000000000000000000000000000000000060e084901b16815273ffffffffffffffffffffffffffffffffffffffff9091166004820152602481018490527f0e67d2d2c46f23cfff9f76c16187348901bf73ba32dcf6893f2a2a4b25be75f86044820152606401600060405180830381600087803b158015610e3357600080fd5b505af1158015610e47573d6000803e3d6000fd5b505050508873ffffffffffffffffffffffffffffffffffffffff167f71abcae7327579f86b1266a4390233f926d8ce29f0ed821b7b334202bd314e0f8985604051610e93929190612d8c565b60405180910390a25050505050505050505050505050505050565b610ee97f97667070c54ef182b0f5858b034beac1b6f3089aa2d3188bb1e8929f4fa9b929610eda611ada565b610ee2611b81565b9190611f92565b600080547fffffffffffffffffffffffff00000000000000000000000000000000000000001673ffffffffffffffffffffffffffffffffffffffff83169081179091556040519081527f32e3c8160f3ad415113c43e56fec4f8cda4518c6d3218dd8806991407acd6d0b906020015b60405180910390a150565b600042815b8381101561104d576000858583818110610f8457610f84612d33565b90506020020135905060006005600083815260200190815260200160002090508060010154600003610fe5576040517f1297346f000000000000000000000000000000000000000000000000000000008152600481018390526024016106bd565b8060010154841015611026576040517f9be5764a000000000000000000000000000000000000000000000000000000008152600481018390526024016106bd565b805460018201546110379190612cf1565b6110419086612d62565b94505050600101610f68565b505092915050565b611068611060611ada565b6105a3611ae4565b8483811415806110785750808214155b156110af576040517f6582533600000000000000000000000000000000000000000000000000000000815260040160405180910390fd5b60005b81811015611149576111418888838181106110cf576110cf612d33565b90506020020160208101906110e49190612a93565b8585848181106110f6576110f6612d33565b9050602002013588888581811061110f5761110f612d33565b90506020020160208101906111249190612a93565b73ffffffffffffffffffffffffffffffffffffffff169190612018565b6001016110b2565b5050505050505050565b61117f7f97667070c54ef182b0f5858b034beac1b6f3089aa2d3188bb1e8929f4fa9b929610eda611ada565b60028190556040518181527fd204911f1cc3daf409d9a2c495f3970d7d5cf956918752458fcea074d2c53b0b90602001610f58565b60006111c1838342611c86565b905080600660008282546111d59190612cf1565b9091555050505050565b6111fa6111ea611ada565b826111f3611b81565b91906120a5565b50565b600061122461120a611ae4565b5473ffffffffffffffffffffffffffffffffffffffff1690565b905090565b600061126d8383611238611b81565b60009283526020908152604080842073ffffffffffffffffffffffffffffffffffffffff909316845291905290205460ff1690565b9392505050565b6112a07f97667070c54ef182b0f5858b034beac1b6f3089aa2d3188bb1e8929f4fa9b929610eda611ada565b60018190556040518181527fb8b290c068ed53e46165f3ca5215dcc2972ae26ae4c8fb5adc71a1c135f8551390602001610f58565b6113017f97667070c54ef182b0f5858b034beac1b6f3089aa2d3188bb1e8929f4fa9b929610eda611ada565b60048190556040518181527faa06aa6d79ce3cb966afe332af120b3aa8252dc355d1d2dae1368babec5f3ee590602001610f58565b611341611060611ada565b8483811415806113515750808214155b15611388576040517f6582533600000000000000000000000000000000000000000000000000000000815260040160405180910390fd5b60005b81811015611149578585828181106113a5576113a5612d33565b90506020020160208101906113ba9190612a93565b73ffffffffffffffffffffffffffffffffffffffff166323b872dd308a8a858181106113e8576113e8612d33565b90506020020160208101906113fd9190612a93565b87878681811061140f5761140f612d33565b6040517fffffffff0000000000000000000000000000000000000000000000000000000060e088901b16815273ffffffffffffffffffffffffffffffffffffffff958616600482015294909316602485015250602090910201356044820152606401600060405180830381600087803b15801561148b57600080fd5b505af115801561149f573d6000803e3d6000fd5b5050505080600101905061138b565b60006114b8611ada565b90506114c6816105a3611ae4565b6105bf8383836114d4611b81565b929190612149565b600454600090861061151a576040517f2273ee1800000000000000000000000000000000000000000000000000000000815260040160405180910390fd5b858414611553576040517f6582533600000000000000000000000000000000000000000000000000000000815260040160405180910390fd5b4260006115608585610f63565b9050600061157a826006546115759190612cf1565b611efe565b90506000805b8a8110156118875760008a8a8381811061159c5761159c612d33565b90506020020135905060008d8d848181106115b9576115b9612d33565b905060200201359050816000036115ff576040517f21bd5ed1000000000000000000000000000000000000000000000000000000008152600481018290526024016106bd565b8060000361163c576040517f8ce0857d000000000000000000000000000000000000000000000000000000008152600060048201526024016106bd565b600154811061167a576040517f8ce0857d000000000000000000000000000000000000000000000000000000008152600481018290526024016106bd565b6000818152600560209081526040808320815160608101835281548152600182015493810184905260029091015491810191909152910361170c576003548311156116fb576040517fee729b8400000000000000000000000000000000000000000000000000000000815260048101839052602481018490526044016106bd565b6117058686612d62565b945061185f565b8f73ffffffffffffffffffffffffffffffffffffffff167f000000000000000000000000000000000000000000000000000000000000000073ffffffffffffffffffffffffffffffffffffffff16636352211e846040518263ffffffff1660e01b815260040161177e91815260200190565b602060405180830381865afa15801561179b573d6000803e3d6000fd5b505050506040513d601f19601f820116820180604052508101906117bf9190612ca5565b73ffffffffffffffffffffffffffffffffffffffff161480156117e55750806020015188105b1561182a576003548151602083015185916117ff91612cf1565b6118099190612d62565b111561182557818382600001518360200151610bd79190612cf1565b61185f565b6040517f139d6799000000000000000000000000000000000000000000000000000000008152600481018390526024016106bd565b60025461186c9084612d75565b6118769086612d62565b945050600190920191506115809050565b509b9a5050505050505050505050565b6118c37f97667070c54ef182b0f5858b034beac1b6f3089aa2d3188bb1e8929f4fa9b929610eda611ada565b60038190556040518181527fb4f38443948b39b669154b83689d2dfa2a4cb2b1fd458118da3d1bcdacfc560890602001610f58565b6111fa611903611ada565b8261190c611ae4565b9190612213565b61191e611060611ada565b82818114611958576040517f6582533600000000000000000000000000000000000000000000000000000000815260040160405180910390fd5b60005b818110156119ca576119c284848381811061197857611978612d33565b9050602002013587878481811061199157611991612d33565b90506020020160208101906119a69190612a93565b73ffffffffffffffffffffffffffffffffffffffff1690612327565b60010161195b565b505050505050565b60008061058560017fca9d3e17f264b0f3984e2634e94adb37fa3e6a8103f06aeae6fa59e21c769f5e612cf1565b60007c01000000000000000000000000000000000000000000000000000000007fffffffff00000000000000000000000000000000000000000000000000000000831601611a5057506000610585565b7ffe003659000000000000000000000000000000000000000000000000000000007fffffffff00000000000000000000000000000000000000000000000000000000831601611aa157506001610585565b507fffffffff00000000000000000000000000000000000000000000000000000000166000908152602091909152604090205460ff1690565b6000611224612481565b60008061058560017fc9ed16f33ab3a66c84bfd83099ccb2a8845871e2e1c1928f63797152f0fd54cd612cf1565b815473ffffffffffffffffffffffffffffffffffffffff828116911614611b7d576040517f2ef4875e00000000000000000000000000000000000000000000000000000000815273ffffffffffffffffffffffffffffffffffffffff821660048201526024016106bd565b5050565b60008061058560017fc8827d3282af6f37b64c3e9e6f3ac9df286ab0bb0fccd6f8661bf19adb368b23612cf1565b60008381526020858152604080832073ffffffffffffffffffffffffffffffffffffffff8616845290915290205460ff16611c805760008381526020858152604080832073ffffffffffffffffffffffffffffffffffffffff8681168086529184529382902080547fffffffffffffffffffffffffffffffffffffffffffffffffffffffffffffff00166001179055815187815292830152918316918101919091527f2f8788117e7eff1d82e926ec794901d17c78024a50270940304540a733656f0d906060015b60405180910390a15b50505050565b6000805b83811015611eb7576000858583818110611ca657611ca6612d33565b90506020020135905060006005600083815260200190815260200160002090508060010154600014158015611cdf575080600101548510155b15611e785780546001820154611cf59190612cf1565b611cff9085612d62565b600080835560018301819055600283018190556040517f6352211e00000000000000000000000000000000000000000000000000000000815260048101859052919550907f000000000000000000000000000000000000000000000000000000000000000073ffffffffffffffffffffffffffffffffffffffff1690636352211e90602401602060405180830381865afa158015611da1573d6000803e3d6000fd5b505050506040513d601f19601f82011682018060405250810190611dc59190612ca5565b6040517f79cc679000000000000000000000000000000000000000000000000000000000815273ffffffffffffffffffffffffffffffffffffffff8083166004830152602482018690529192507f0000000000000000000000000000000000000000000000000000000000000000909116906379cc679090604401600060405180830381600087803b158015611e5a57600080fd5b505af1158015611e6e573d6000803e3d6000fd5b5050505050611ead565b6040517f9be5764a000000000000000000000000000000000000000000000000000000008152600481018390526024016106bd565b5050600101611c8a565b50821561126d577f9e5430727c5f2b23597e7cb2670240cc8fbb4031a0dad53562812b380e286b3d8484604051611eef929190612e1c565b60405180910390a19392505050565b600080546040517fef1130e70000000000000000000000000000000000000000000000000000000081526004810184905273ffffffffffffffffffffffffffffffffffffffff9091169063ef1130e790602401602060405180830381865afa158015611f6e573d6000803e3d6000fd5b505050506040513d601f19601f820116820180604052508101906105859190612e6e565b60008281526020848152604080832073ffffffffffffffffffffffffffffffffffffffff8516845290915290205460ff166105bf576040517f7aa728820000000000000000000000000000000000000000000000000000000081526004810183905273ffffffffffffffffffffffffffffffffffffffff821660248201526044016106bd565b6040805173ffffffffffffffffffffffffffffffffffffffff8416602482015260448082018490528251808303909101815260649091019091526020810180517bffffffffffffffffffffffffffffffffffffffffffffffffffffffff167fa9059cbb000000000000000000000000000000000000000000000000000000001790526105bf9084906125c8565b6120b0838284611f92565b60008181526020848152604080832073ffffffffffffffffffffffffffffffffffffffff86168085529083529281902080547fffffffffffffffffffffffffffffffffffffffffffffffffffffffffffffff0016905580518481529182018390528101919091527ff6391f5c32d9c69d2a47ea670b442974b53935d1edc7fd64eb21e047a839171b9060600160405180910390a1505050565b60008381526020858152604080832073ffffffffffffffffffffffffffffffffffffffff8616845290915290205460ff1615611c805760008381526020858152604080832073ffffffffffffffffffffffffffffffffffffffff8681168086529184529382902080547fffffffffffffffffffffffffffffffffffffffffffffffffffffffffffffff00169055815187815292830152918316918101919091527ff6391f5c32d9c69d2a47ea670b442974b53935d1edc7fd64eb21e047a839171b90606001611c77565b825473ffffffffffffffffffffffffffffffffffffffff9081169083168114612280576040517f2ef4875e00000000000000000000000000000000000000000000000000000000815273ffffffffffffffffffffffffffffffffffffffff841660048201526024016106bd565b8173ffffffffffffffffffffffffffffffffffffffff168173ffffffffffffffffffffffffffffffffffffffff1614611c805783547fffffffffffffffffffffffff00000000000000000000000000000000000000001673ffffffffffffffffffffffffffffffffffffffff8381169182178655604051908316907f8be0079c531659141344cd1fd0a4f28419497f9722a3daafe3b4186f6b6457e090600090a350505050565b80471015612391576040517f08c379a000000000000000000000000000000000000000000000000000000000815260206004820152601d60248201527f416464726573733a20696e73756666696369656e742062616c616e636500000060448201526064016106bd565b60008273ffffffffffffffffffffffffffffffffffffffff168260405160006040518083038185875af1925050503d80600081146123eb576040519150601f19603f3d011682016040523d82523d6000602084013e6123f0565b606091505b50509050806105bf576040517f08c379a000000000000000000000000000000000000000000000000000000000815260206004820152603a60248201527f416464726573733a20756e61626c6520746f2073656e642076616c75652c207260448201527f6563697069656e74206d6179206861766520726576657274656400000000000060648201526084016106bd565b6000333214806124915750601836105b1561249b57503390565b7fffffffffffffffffffffffffffffffffffffffffffffffffffffffffffffffec36013560601c7f000000000000000000000000000000000000000000000000000000000000000073ffffffffffffffffffffffffffffffffffffffff163314806125b757506040517f8929a8ca00000000000000000000000000000000000000000000000000000000815273ffffffffffffffffffffffffffffffffffffffff82811660048301523360248301527f00000000000000000000000000000000000000000000000000000000000000001690638929a8ca90604401602060405180830381865afa158015612593573d6000803e3d6000fd5b505050506040513d601f19601f820116820180604052508101906125b79190612e87565b156125c157919050565b3391505090565b600061262a826040518060400160405280602081526020017f5361666545524332303a206c6f772d6c6576656c2063616c6c206661696c65648152508573ffffffffffffffffffffffffffffffffffffffff166126d79092919063ffffffff16565b905080516000148061264b57508080602001905181019061264b9190612e87565b6105bf576040517f08c379a000000000000000000000000000000000000000000000000000000000815260206004820152602a60248201527f5361666545524332303a204552433230206f7065726174696f6e20646964206e60448201527f6f7420737563636565640000000000000000000000000000000000000000000060648201526084016106bd565b60606126e684846000856126ee565b949350505050565b606082471015612780576040517f08c379a000000000000000000000000000000000000000000000000000000000815260206004820152602660248201527f416464726573733a20696e73756666696369656e742062616c616e636520666f60448201527f722063616c6c000000000000000000000000000000000000000000000000000060648201526084016106bd565b6000808673ffffffffffffffffffffffffffffffffffffffff1685876040516127a99190612ecd565b60006040518083038185875af1925050503d80600081146127e6576040519150601f19603f3d011682016040523d82523d6000602084013e6127eb565b606091505b50915091506127fc87838387612807565b979650505050505050565b6060831561289d5782516000036128965773ffffffffffffffffffffffffffffffffffffffff85163b612896576040517f08c379a000000000000000000000000000000000000000000000000000000000815260206004820152601d60248201527f416464726573733a2063616c6c20746f206e6f6e2d636f6e747261637400000060448201526064016106bd565b50816126e6565b6126e683838151156128b25781518083602001fd5b806040517f08c379a00000000000000000000000000000000000000000000000000000000081526004016106bd9190612ee9565b6000602082840312156128f857600080fd5b81357fffffffff000000000000000000000000000000000000000000000000000000008116811461126d57600080fd5b73ffffffffffffffffffffffffffffffffffffffff811681146111fa57600080fd5b6000806040838503121561295d57600080fd5b82359150602083013561296f81612928565b809150509250929050565b60006020828403121561298c57600080fd5b5035919050565b60008083601f8401126129a557600080fd5b50813567ffffffffffffffff8111156129bd57600080fd5b6020830191508360208260051b85010111156129d857600080fd5b9250929050565b60008060008060008060008060a0898b0312156129fb57600080fd5b8835612a0681612928565b9750602089013567ffffffffffffffff80821115612a2357600080fd5b612a2f8c838d01612993565b909950975060408b0135915080821115612a4857600080fd5b612a548c838d01612993565b909750955060608b0135915080821115612a6d57600080fd5b50612a7a8b828c01612993565b999c989b50969995989497949560800135949350505050565b600060208284031215612aa557600080fd5b813561126d81612928565b60008060208385031215612ac357600080fd5b823567ffffffffffffffff811115612ada57600080fd5b612ae685828601612993565b90969095509350505050565b60008060008060008060608789031215612b0b57600080fd5b863567ffffffffffffffff80821115612b2357600080fd5b612b2f8a838b01612993565b90985096506020890135915080821115612b4857600080fd5b612b548a838b01612993565b90965094506040890135915080821115612b6d57600080fd5b50612b7a89828a01612993565b979a9699509497509295939492505050565b60008060008060008060006080888a031215612ba757600080fd5b8735612bb281612928565b9650602088013567ffffffffffffffff80821115612bcf57600080fd5b612bdb8b838c01612993565b909850965060408a0135915080821115612bf457600080fd5b612c008b838c01612993565b909650945060608a0135915080821115612c1957600080fd5b50612c268a828b01612993565b989b979a50959850939692959293505050565b60008060008060408587031215612c4f57600080fd5b843567ffffffffffffffff80821115612c6757600080fd5b612c7388838901612993565b90965094506020870135915080821115612c8c57600080fd5b50612c9987828801612993565b95989497509550505050565b600060208284031215612cb757600080fd5b815161126d81612928565b7f4e487b7100000000000000000000000000000000000000000000000000000000600052601160045260246000fd5b8181038181111561058557610585612cc2565b7f4e487b7100000000000000000000000000000000000000000000000000000000600052604160045260246000fd5b7f4e487b7100000000000000000000000000000000000000000000000000000000600052603260045260246000fd5b8082018082111561058557610585612cc2565b808202811582820484141761058557610585612cc2565b6040808252835182820181905260009190606090818501906020808901865b83811015612dc757815185529382019390820190600101612dab565b5050868303818801528751808452888201938201925060005b81811015612e0d578451805185528381015184860152870151878501529382019392850192600101612de0565b50919998505050505050505050565b6020815281602082015260007f07ffffffffffffffffffffffffffffffffffffffffffffffffffffffffffffff831115612e5557600080fd5b8260051b80856040850137919091016040019392505050565b600060208284031215612e8057600080fd5b5051919050565b600060208284031215612e9957600080fd5b8151801515811461126d57600080fd5b60005b83811015612ec4578181015183820152602001612eac565b50506000910152565b60008251612edf818460208701612ea9565b9190910192915050565b6020815260008251806020840152612f08816040850160208701612ea9565b601f017fffffffffffffffffffffffffffffffffffffffffffffffffffffffffffffffe016919091016040019291505056fea2646970667358221220b0326b129e9f919d2b9d4932f2d435d2d8fa63d4896ca60fcfe5f63e4cad71ee64736f6c63430008160033",
  "linkReferences": {},
  "deployedLinkReferences": {}
}