{
  "_format": "hh-sol-artifact-1",
  "contractName": "EDULandRental",
  "sourceName": "contracts/land/EDULandRental.sol",
  "abi": [
    {
      "inputs": [
        {
          "internalType": "address",
          "name": "landAddress",
          "type": "address"
        },
        {
          "internalType": "address",
          "name": "pointsAddress",
          "type": "address"
        },
        {
          "internalType": "address",
          "name": "landPriceHelperAddress",
          "type": "address"
        },
        {
          "internalType": "uint256",
          "name": "maintenanceFee_",
          "type": "uint256"
        },
        {
          "internalType": "uint256",
          "name": "maintenanceFeeDenominator_",
          "type": "uint256"
        },
        {
          "internalType": "uint256",
          "name": "minRentalDuration_",
          "type": "uint256"
        },
        {
          "internalType": "uint256",
          "name": "maxRentalDuration_",
          "type": "uint256"
        },
        {
          "internalType": "uint256",
          "name": "maxRentalCountPerCall_",
          "type": "uint256"
        },
        {
          "internalType": "uint256",
          "name": "maxTokenSupply_",
          "type": "uint256"
        },
        {
          "internalType": "contract IForwarderRegistry",
          "name": "forwarderRegistry",
          "type": "address"
        }
      ],
      "stateMutability": "nonpayable",
      "type": "constructor"
    },
    {
      "inputs": [
        {
          "internalType": "uint256",
          "name": "calculatedFee",
          "type": "uint256"
        },
        {
          "internalType": "uint256",
          "name": "maxFee",
          "type": "uint256"
        }
      ],
      "name": "FeeExceeded",
      "type": "error"
    },
    {
      "inputs": [],
      "name": "IllegalInterfaceId",
      "type": "error"
    },
    {
      "inputs": [],
      "name": "InconsistentArrayLengths",
      "type": "error"
    },
    {
      "inputs": [],
      "name": "InvalidTokenIdsParam",
      "type": "error"
    },
    {
      "inputs": [
        {
          "internalType": "address",
          "name": "account",
          "type": "address"
        }
      ],
      "name": "NotContractOwner",
      "type": "error"
    },
    {
      "inputs": [
        {
          "internalType": "bytes32",
          "name": "role",
          "type": "bytes32"
        },
        {
          "internalType": "address",
          "name": "account",
          "type": "address"
        }
      ],
      "name": "NotRoleHolder",
      "type": "error"
    },
    {
      "inputs": [],
      "name": "RentalCountPerCallLimitExceeded",
      "type": "error"
    },
    {
      "inputs": [
        {
          "internalType": "uint256",
          "name": "tokenId",
          "type": "uint256"
        },
        {
          "internalType": "uint256",
          "name": "duration",
          "type": "uint256"
        },
        {
          "internalType": "uint256",
          "name": "limit",
          "type": "uint256"
        }
      ],
      "name": "RentalDurationTooHigh",
      "type": "error"
    },
    {
      "inputs": [
        {
          "internalType": "uint256",
          "name": "tokenId",
          "type": "uint256"
        },
        {
          "internalType": "uint256",
          "name": "duration",
          "type": "uint256"
        },
        {
          "internalType": "uint256",
          "name": "limit",
          "type": "uint256"
        }
      ],
      "name": "RentalDurationTooLow",
      "type": "error"
    },
    {
      "inputs": [
        {
          "internalType": "uint256",
          "name": "tokenId",
          "type": "uint256"
        }
      ],
      "name": "TokenAlreadyRented",
      "type": "error"
    },
    {
      "inputs": [
        {
          "internalType": "uint256",
          "name": "tokenId",
          "type": "uint256"
        }
      ],
      "name": "TokenNotExpired",
      "type": "error"
    },
    {
      "inputs": [
        {
          "internalType": "uint256",
          "name": "tokenId",
          "type": "uint256"
        }
      ],
      "name": "TokenNotRented",
      "type": "error"
    },
    {
      "inputs": [
        {
          "internalType": "uint256",
          "name": "tokenId",
          "type": "uint256"
        }
      ],
      "name": "UnsupportedTokenId",
      "type": "error"
    },
    {
      "anonymous": false,
      "inputs": [
        {
          "indexed": false,
          "internalType": "uint256[]",
          "name": "tokenIds",
          "type": "uint256[]"
        }
      ],
      "name": "Collected",
      "type": "event"
    },
    {
      "anonymous": false,
      "inputs": [
        {
          "indexed": false,
          "internalType": "address",
          "name": "newRentalFeeHelper",
          "type": "address"
        }
      ],
      "name": "LandPriceHelperUpdated",
      "type": "event"
    },
    {
      "anonymous": false,
      "inputs": [
        {
          "indexed": false,
          "internalType": "uint256",
          "name": "newMaintenanceFee",
          "type": "uint256"
        },
        {
          "indexed": false,
          "internalType": "uint256",
          "name": "newMaintenanceFeeDenominator",
          "type": "uint256"
        }
      ],
      "name": "MaintenanceFeeUpdated",
      "type": "event"
    },
    {
      "anonymous": false,
      "inputs": [
        {
          "indexed": false,
          "internalType": "uint256",
          "name": "newMaxRentalCountPerCall",
          "type": "uint256"
        }
      ],
      "name": "MaxRentalCountPerCallUpdated",
      "type": "event"
    },
    {
      "anonymous": false,
      "inputs": [
        {
          "indexed": false,
          "internalType": "uint256",
          "name": "newMaxRentalDuration",
          "type": "uint256"
        }
      ],
      "name": "MaxRentalDurationUpdated",
      "type": "event"
    },
    {
      "anonymous": false,
      "inputs": [
        {
          "indexed": false,
          "internalType": "uint256",
          "name": "newMaxTokenSupply",
          "type": "uint256"
        }
      ],
      "name": "MaxTokenSupplyUpdated",
      "type": "event"
    },
    {
      "anonymous": false,
      "inputs": [
        {
          "indexed": false,
          "internalType": "uint256",
          "name": "newMinRentalDuration",
          "type": "uint256"
        }
      ],
      "name": "MinRentalDurationUpdated",
      "type": "event"
    },
    {
      "anonymous": false,
      "inputs": [
        {
          "indexed": true,
          "internalType": "address",
          "name": "previousOwner",
          "type": "address"
        },
        {
          "indexed": true,
          "internalType": "address",
          "name": "newOwner",
          "type": "address"
        }
      ],
      "name": "OwnershipTransferred",
      "type": "event"
    },
    {
      "anonymous": false,
      "inputs": [
        {
          "indexed": true,
          "internalType": "address",
          "name": "renter",
          "type": "address"
        },
        {
          "indexed": false,
          "internalType": "uint256[]",
          "name": "tokenIds",
          "type": "uint256[]"
        },
        {
          "components": [
            {
              "internalType": "uint256",
              "name": "beginDate",
              "type": "uint256"
            },
            {
              "internalType": "uint256",
              "name": "endDate",
              "type": "uint256"
            },
            {
              "internalType": "uint256",
              "name": "fee",
              "type": "uint256"
            }
          ],
          "indexed": false,
          "internalType": "struct EDULandRental.RentalInfo[]",
          "name": "rentals",
          "type": "tuple[]"
        }
      ],
      "name": "Rental",
      "type": "event"
    },
    {
      "anonymous": false,
      "inputs": [
        {
          "indexed": false,
          "internalType": "bytes32",
          "name": "role",
          "type": "bytes32"
        },
        {
          "indexed": false,
          "internalType": "address",
          "name": "account",
          "type": "address"
        },
        {
          "indexed": false,
          "internalType": "address",
          "name": "operator",
          "type": "address"
        }
      ],
      "name": "RoleGranted",
      "type": "event"
    },
    {
      "anonymous": false,
      "inputs": [
        {
          "indexed": false,
          "internalType": "bytes32",
          "name": "role",
          "type": "bytes32"
        },
        {
          "indexed": false,
          "internalType": "address",
          "name": "account",
          "type": "address"
        },
        {
          "indexed": false,
          "internalType": "address",
          "name": "operator",
          "type": "address"
        }
      ],
      "name": "RoleRevoked",
      "type": "event"
    },
    {
      "inputs": [],
      "name": "EDU_LAND",
      "outputs": [
        {
          "internalType": "contract IEDULand",
          "name": "",
          "type": "address"
        }
      ],
      "stateMutability": "view",
      "type": "function"
    },
    {
      "inputs": [],
      "name": "OPERATOR_ROLE",
      "outputs": [
        {
          "internalType": "bytes32",
          "name": "",
          "type": "bytes32"
        }
      ],
      "stateMutability": "view",
      "type": "function"
    },
    {
      "inputs": [],
      "name": "POINTS",
      "outputs": [
        {
          "internalType": "contract Points",
          "name": "",
          "type": "address"
        }
      ],
      "stateMutability": "view",
      "type": "function"
    },
    {
      "inputs": [],
      "name": "RENTAL_CONSUME_CODE",
      "outputs": [
        {
          "internalType": "bytes32",
          "name": "",
          "type": "bytes32"
        }
      ],
      "stateMutability": "view",
      "type": "function"
    },
    {
      "inputs": [
        {
          "internalType": "uint256[]",
          "name": "tokenIds",
          "type": "uint256[]"
        }
      ],
      "name": "calculateElapsedTimeForExpiredTokens",
      "outputs": [
        {
          "internalType": "uint256",
          "name": "elapsedTime",
          "type": "uint256"
        }
      ],
      "stateMutability": "view",
      "type": "function"
    },
    {
      "inputs": [
        {
          "internalType": "uint256[]",
          "name": "tokenIds",
          "type": "uint256[]"
        }
      ],
      "name": "collectExpiredTokens",
      "outputs": [],
      "stateMutability": "nonpayable",
      "type": "function"
    },
    {
      "inputs": [
        {
          "internalType": "uint256[]",
          "name": "tokenIds",
          "type": "uint256[]"
        },
        {
          "internalType": "uint256[]",
          "name": "durations",
          "type": "uint256[]"
        },
        {
          "internalType": "uint256[]",
          "name": "expiredTokenIds",
          "type": "uint256[]"
        }
      ],
      "name": "estimateRentalFee",
      "outputs": [
        {
          "internalType": "uint256",
          "name": "fee",
          "type": "uint256"
        }
      ],
      "stateMutability": "view",
      "type": "function"
    },
    {
      "inputs": [],
      "name": "forwarderRegistry",
      "outputs": [
        {
          "internalType": "contract IForwarderRegistry",
          "name": "",
          "type": "address"
        }
      ],
      "stateMutability": "view",
      "type": "function"
    },
    {
      "inputs": [
        {
          "internalType": "bytes32",
          "name": "role",
          "type": "bytes32"
        },
        {
          "internalType": "address",
          "name": "account",
          "type": "address"
        }
      ],
      "name": "grantRole",
      "outputs": [],
      "stateMutability": "nonpayable",
      "type": "function"
    },
    {
      "inputs": [
        {
          "internalType": "bytes32",
          "name": "role",
          "type": "bytes32"
        },
        {
          "internalType": "address",
          "name": "account",
          "type": "address"
        }
      ],
      "name": "hasRole",
      "outputs": [
        {
          "internalType": "bool",
          "name": "hasRole_",
          "type": "bool"
        }
      ],
      "stateMutability": "view",
      "type": "function"
    },
    {
      "inputs": [
        {
          "internalType": "address",
          "name": "forwarder",
          "type": "address"
        }
      ],
      "name": "isTrustedForwarder",
      "outputs": [
        {
          "internalType": "bool",
          "name": "",
          "type": "bool"
        }
      ],
      "stateMutability": "view",
      "type": "function"
    },
    {
      "inputs": [],
      "name": "landPriceHelper",
      "outputs": [
        {
          "internalType": "contract IEDULandPriceHelper",
          "name": "",
          "type": "address"
        }
      ],
      "stateMutability": "view",
      "type": "function"
    },
    {
      "inputs": [],
      "name": "maintenanceFee",
      "outputs": [
        {
          "internalType": "uint256",
          "name": "",
          "type": "uint256"
        }
      ],
      "stateMutability": "view",
      "type": "function"
    },
    {
      "inputs": [],
      "name": "maintenanceFeeDenominator",
      "outputs": [
        {
          "internalType": "uint256",
          "name": "",
          "type": "uint256"
        }
      ],
      "stateMutability": "view",
      "type": "function"
    },
    {
      "inputs": [],
      "name": "maxRentalCountPerCall",
      "outputs": [
        {
          "internalType": "uint256",
          "name": "",
          "type": "uint256"
        }
      ],
      "stateMutability": "view",
      "type": "function"
    },
    {
      "inputs": [],
      "name": "maxRentalDuration",
      "outputs": [
        {
          "internalType": "uint256",
          "name": "",
          "type": "uint256"
        }
      ],
      "stateMutability": "view",
      "type": "function"
    },
    {
      "inputs": [],
      "name": "maxTokenSupply",
      "outputs": [
        {
          "internalType": "uint256",
          "name": "",
          "type": "uint256"
        }
      ],
      "stateMutability": "view",
      "type": "function"
    },
    {
      "inputs": [],
      "name": "minRentalDuration",
      "outputs": [
        {
          "internalType": "uint256",
          "name": "",
          "type": "uint256"
        }
      ],
      "stateMutability": "view",
      "type": "function"
    },
    {
      "inputs": [],
      "name": "owner",
      "outputs": [
        {
          "internalType": "address",
          "name": "",
          "type": "address"
        }
      ],
      "stateMutability": "view",
      "type": "function"
    },
    {
      "inputs": [
        {
          "internalType": "address[]",
          "name": "accounts",
          "type": "address[]"
        },
        {
          "internalType": "contract IERC20[]",
          "name": "tokens",
          "type": "address[]"
        },
        {
          "internalType": "uint256[]",
          "name": "amounts",
          "type": "uint256[]"
        }
      ],
      "name": "recoverERC20s",
      "outputs": [],
      "stateMutability": "nonpayable",
      "type": "function"
    },
    {
      "inputs": [
        {
          "internalType": "address[]",
          "name": "accounts",
          "type": "address[]"
        },
        {
          "internalType": "contract IERC721[]",
          "name": "contracts",
          "type": "address[]"
        },
        {
          "internalType": "uint256[]",
          "name": "tokenIds",
          "type": "uint256[]"
        }
      ],
      "name": "recoverERC721s",
      "outputs": [],
      "stateMutability": "nonpayable",
      "type": "function"
    },
    {
      "inputs": [
        {
          "internalType": "address payable[]",
          "name": "accounts",
          "type": "address[]"
        },
        {
          "internalType": "uint256[]",
          "name": "amounts",
          "type": "uint256[]"
        }
      ],
      "name": "recoverETH",
      "outputs": [],
      "stateMutability": "nonpayable",
      "type": "function"
    },
    {
      "inputs": [
        {
          "internalType": "bytes32",
          "name": "role",
          "type": "bytes32"
        }
      ],
      "name": "renounceRole",
      "outputs": [],
      "stateMutability": "nonpayable",
      "type": "function"
    },
    {
      "inputs": [
        {
          "internalType": "uint256[]",
          "name": "tokenIds",
          "type": "uint256[]"
        },
        {
          "internalType": "uint256[]",
          "name": "durations",
          "type": "uint256[]"
        },
        {
          "internalType": "uint256[]",
          "name": "expiredTokenIds",
          "type": "uint256[]"
        },
        {
          "internalType": "uint256",
          "name": "maxFee",
          "type": "uint256"
        }
      ],
      "name": "rent",
      "outputs": [],
      "stateMutability": "nonpayable",
      "type": "function"
    },
    {
      "inputs": [
        {
          "internalType": "uint256",
          "name": "",
          "type": "uint256"
        }
      ],
      "name": "rentals",
      "outputs": [
        {
          "internalType": "uint256",
          "name": "beginDate",
          "type": "uint256"
        },
        {
          "internalType": "uint256",
          "name": "endDate",
          "type": "uint256"
        },
        {
          "internalType": "uint256",
          "name": "fee",
          "type": "uint256"
        }
      ],
      "stateMutability": "view",
      "type": "function"
    },
    {
      "inputs": [
        {
          "internalType": "uint256",
          "name": "tokenId",
          "type": "uint256"
        }
      ],
      "name": "renterOf",
      "outputs": [
        {
          "internalType": "address",
          "name": "",
          "type": "address"
        }
      ],
      "stateMutability": "view",
      "type": "function"
    },
    {
      "inputs": [
        {
          "internalType": "bytes32",
          "name": "role",
          "type": "bytes32"
        },
        {
          "internalType": "address",
          "name": "account",
          "type": "address"
        }
      ],
      "name": "revokeRole",
      "outputs": [],
      "stateMutability": "nonpayable",
      "type": "function"
    },
    {
      "inputs": [
        {
          "internalType": "address",
          "name": "newLandPriceHelper",
          "type": "address"
        }
      ],
      "name": "setLandPriceHelper",
      "outputs": [],
      "stateMutability": "nonpayable",
      "type": "function"
    },
    {
      "inputs": [
        {
          "internalType": "uint256",
          "name": "newMaintenanceFee",
          "type": "uint256"
        },
        {
          "internalType": "uint256",
          "name": "newMaintenanceFeeDenominator",
          "type": "uint256"
        }
      ],
      "name": "setMaintenanceFee",
      "outputs": [],
      "stateMutability": "nonpayable",
      "type": "function"
    },
    {
      "inputs": [
        {
          "internalType": "uint256",
          "name": "newRentalCountPerCall",
          "type": "uint256"
        }
      ],
      "name": "setMaxRentalCountPerCall",
      "outputs": [],
      "stateMutability": "nonpayable",
      "type": "function"
    },
    {
      "inputs": [
        {
          "internalType": "uint256",
          "name": "newMaxRentalDuration",
          "type": "uint256"
        }
      ],
      "name": "setMaxRentalDuration",
      "outputs": [],
      "stateMutability": "nonpayable",
      "type": "function"
    },
    {
      "inputs": [
        {
          "internalType": "uint256",
          "name": "newMaxTokenSupply",
          "type": "uint256"
        }
      ],
      "name": "setMaxTokenSupply",
      "outputs": [],
      "stateMutability": "nonpayable",
      "type": "function"
    },
    {
      "inputs": [
        {
          "internalType": "uint256",
          "name": "newMinRentalDuration",
          "type": "uint256"
        }
      ],
      "name": "setMinRentalDuration",
      "outputs": [],
      "stateMutability": "nonpayable",
      "type": "function"
    },
    {
      "inputs": [
        {
          "internalType": "bytes4",
          "name": "interfaceId",
          "type": "bytes4"
        }
      ],
      "name": "supportsInterface",
      "outputs": [
        {
          "internalType": "bool",
          "name": "",
          "type": "bool"
        }
      ],
      "stateMutability": "view",
      "type": "function"
    },
    {
      "inputs": [],
      "name": "totalOngoingRentalTime",
      "outputs": [
        {
          "internalType": "uint256",
          "name": "",
          "type": "uint256"
        }
      ],
      "stateMutability": "view",
      "type": "function"
    },
    {
      "inputs": [
        {
          "internalType": "address",
          "name": "newOwner",
          "type": "address"
        }
      ],
      "name": "transferOwnership",
      "outputs": [],
      "stateMutability": "nonpayable",
      "type": "function"
    }
  ],
  "bytecode": "0x60e06040523480156200001157600080fd5b50604051620033ac380380620033ac83398101604081905262000034916200033c565b8080336200004d8162000046620001e5565b906200021b565b506001600160a01b039081166080528b811660c0528a811660a052600080546001600160a01b031916918b1691821790556040519081527fd99014e6f6a21a1f7025e1599288b52168db6241486596946f759a520d4ddfea915060200160405180910390a16002879055600386905560408051888152602081018890527f788db483524e27f5a39a54daaeb81bb48059af776767d0c1f600ef6e996d2818910160405180910390a160048590556040518581527f7d9d1c986503049ed25e197e416ddaeef53d62a8479d6371784f05a9d9da98249060200160405180910390a160058490556040518481527fb4f38443948b39b669154b83689d2dfa2a4cb2b1fd458118da3d1bcdacfc56089060200160405180910390a160068390556040518381527faa06aa6d79ce3cb966afe332af120b3aa8252dc355d1d2dae1368babec5f3ee59060200160405180910390a160018290556040518281527fb8b290c068ed53e46165f3ca5215dcc2972ae26ae4c8fb5adc71a1c135f855139060200160405180910390a15050505050505050505062000405565b6000806200021560017fc9ed16f33ab3a66c84bfd83099ccb2a8845871e2e1c1928f63797152f0fd54cd620003e3565b92915050565b6001600160a01b03811615620002725781546001600160a01b0319166001600160a01b03821690811783556040516000907f8be0079c531659141344cd1fd0a4f28419497f9722a3daafe3b4186f6b6457e0908290a35b620002926307f5828d60e41b60016200028a62000296565b9190620002c6565b5050565b6000806200021560017fca9d3e17f264b0f3984e2634e94adb37fa3e6a8103f06aeae6fa59e21c769f5e620003e3565b600160e01b6001600160e01b0319831601620002f5576040516372c683bb60e01b815260040160405180910390fd5b6001600160e01b03199190911660009081526020929092526040909120805460ff1916911515919091179055565b6001600160a01b03811681146200033957600080fd5b50565b6000806000806000806000806000806101408b8d0312156200035d57600080fd5b8a516200036a8162000323565b60208c0151909a506200037d8162000323565b60408c0151909950620003908162000323565b8098505060608b0151965060808b0151955060a08b0151945060c08b0151935060e08b015192506101008b015191506101208b0151620003d08162000323565b809150509295989b9194979a5092959850565b818103818111156200021557634e487b7160e01b600052601160045260246000fd5b60805160a05160c051612f316200047b600039600081816102a50152818161096b01528181610a4b01528181610e25015281816116da01528181611c5e0152611d2d0152600081816104130152610ce6015260008181610323015281816103a2015281816125ab01526126330152612f316000f3fe608060405234801561001057600080fd5b506004361061025c5760003560e01c80638da5cb5b11610145578063dd286177116100bd578063f5b541a61161008c578063f7ba94bd11610071578063f7ba94bd146105ae578063f7df6bad146105c1578063fb203c17146105d457600080fd5b8063f5b541a61461057e578063f7032194146105a557600080fd5b8063dd2861771461051e578063e105c43c14610545578063e4f095d914610558578063f2fde38b1461056b57600080fd5b8063b07ed98211610114578063b65dd451116100f9578063b65dd451146104e5578063c3666c36146104f8578063d547741f1461050b57600080fd5b8063b07ed982146104c9578063b2b47e3b146104dc57600080fd5b80638da5cb5b1461045b57806391d1485414610463578063a5f7375814610476578063af94a1d11461047f57600080fd5b806350f7c204116101d857806373c8a958116101a75780637f6e42811161018c5780637f6e42811461040e57806388b681fe146104355780638bb9c5bf1461044857600080fd5b806373c8a958146103f25780637ce4026f1461040557600080fd5b806350f7c204146103765780635625ac511461037f578063572b6c051461039257806370243bcc146103df57600080fd5b806321d428161161022f5780632f2ff15d116102145780632f2ff15d1461034757806334f1a8d31461035a5780633d9f01fb1461036357600080fd5b806321d428161461030c5780632b4c9f161461032157600080fd5b806301ffc9a714610261578063046604491461028957806315e682cb146102a05780631aabc61d146102ec575b600080fd5b61027461026f36600461292f565b6105e7565b60405190151581526020015b60405180910390f35b61029260025481565b604051908152602001610280565b6102c77f000000000000000000000000000000000000000000000000000000000000000081565b60405173ffffffffffffffffffffffffffffffffffffffff9091168152602001610280565b6000546102c79073ffffffffffffffffffffffffffffffffffffffff1681565b61031f61031a3660046129bd565b610601565b005b7f00000000000000000000000000000000000000000000000000000000000000006102c7565b61031f610355366004612a82565b610da4565b61029260045481565b6102c7610371366004612ab2565b610ddd565b61029260015481565b61031f61038d366004612acb565b610eda565b6102746103a0366004612aed565b7f000000000000000000000000000000000000000000000000000000000000000073ffffffffffffffffffffffffffffffffffffffff90811691161490565b6102926103ed366004612b0a565b610f5c565b61031f610400366004612b4c565b610feb565b61029260055481565b6102c77f000000000000000000000000000000000000000000000000000000000000000081565b61031f610443366004612b0a565b6110e9565b61031f610456366004612ab2565b611116565b6102c7611134565b610274610471366004612a82565b611160565b61029260085481565b6104ae61048d366004612ab2565b60076020526000908152604090208054600182015460029092015490919083565b60408051938452602084019290925290820152606001610280565b61031f6104d7366004612ab2565b6111ab565b61029260035481565b61031f6104f3366004612ab2565b611213565b61031f610506366004612b4c565b611274565b61031f610519366004612a82565b6113ec565b6102927f0e67d2d2c46f23cfff9f76c16187348901bf73ba32dcf6893f2a2a4b25be75f881565b610292610553366004612b4c565b61141a565b61031f610566366004612ab2565b61180a565b61031f610579366004612aed565b61186b565b6102927f97667070c54ef182b0f5858b034beac1b6f3089aa2d3188bb1e8929f4fa9b92981565b61029260065481565b61031f6105bc366004612be6565b611886565b61031f6105cf366004612aed565b611945565b61031f6105e2366004612ab2565b6119e4565b60006105fb826105f5611a45565b90611a73565b92915050565b600654861061063c576040517f2273ee1800000000000000000000000000000000000000000000000000000000815260040160405180910390fd5b858414610675576040517f6582533600000000000000000000000000000000000000000000000000000000815260040160405180910390fd5b600061067f611b4d565b905060008888808060200260200160405190810160405280939291908181526020018383602002808284376000920182905250604080516020808e0282810182019093528d825296975091959194508c93508b925082918501908490808284376000920182905250939450429392506106fe9150899050888484611b57565b60085461070b9190612c81565b9050600061071882611e43565b905060008c67ffffffffffffffff81111561073557610735612c94565b60405190808252806020026020018201604052801561078a57816020015b61077760405180606001604052806000815260200160008152602001600081525090565b8152602001906001900390816107535790505b50905060008060005b8851811015610c175760008982815181106107b0576107b0612cc3565b6020026020010151905060008983815181106107ce576107ce612cc3565b602002602001015190508160000361081a576040517f8ce0857d000000000000000000000000000000000000000000000000000000008152600060048201526024015b60405180910390fd5b6001548210610858576040517f8ce0857d00000000000000000000000000000000000000000000000000000000815260048101839052602401610811565b6004548110156108a657600480546040517f4c642486000000000000000000000000000000000000000000000000000000008152918201849052602482018390526044820152606401610811565b6005548111156108f7576005546040517ff1c8a68700000000000000000000000000000000000000000000000000000000815260048101849052602481018390526044810191909152606401610811565b60008281526007602052604081206001810154909103610a1c576040517f8832e6e300000000000000000000000000000000000000000000000000000000815273ffffffffffffffffffffffffffffffffffffffff8e811660048301526024820185905260606044830152600060648301527f00000000000000000000000000000000000000000000000000000000000000001690638832e6e390608401600060405180830381600087803b1580156109af57600080fd5b505af11580156109c3573d6000803e3d6000fd5b5050508a8255506109d4828b612cf2565b6001820155600354600254600091906109ed9085612d05565b6109f79190612d1c565b610a01908a612cf2565b600283018190559050610a148187612cf2565b955050610bb9565b6040517f6352211e000000000000000000000000000000000000000000000000000000008152600481018490527f000000000000000000000000000000000000000000000000000000000000000073ffffffffffffffffffffffffffffffffffffffff1690636352211e90602401602060405180830381865afa158015610aa7573d6000803e3d6000fd5b505050506040513d601f19601f82011682018060405250810190610acb9190612d57565b73ffffffffffffffffffffffffffffffffffffffff168d73ffffffffffffffffffffffffffffffffffffffff16148015610b08575080600101548a105b15610b84576000610b19838c612cf2565b90506000826001015482610b2d9190612c81565b60018401839055600354600254919250600091610b4a9084612d05565b610b549190612d1c565b905080846002016000828254610b6a9190612cf2565b90915550610b7a90508189612cf2565b9750505050610bb9565b6040517f139d679900000000000000000000000000000000000000000000000000000000815260048101849052602401610811565b6040805160608101825282548152600183015460208201526002830154918101919091528751889086908110610bf157610bf1612cc3565b6020908102919091010152610c068287612cf2565b955050600190920191506107939050565b508915801590610c2657508981115b15610c67576040517fd519701100000000000000000000000000000000000000000000000000000000815260048101829052602481018b9052604401610811565b610c718286612cf2565b6008556040517f212aac7900000000000000000000000000000000000000000000000000000000815273ffffffffffffffffffffffffffffffffffffffff8a81166004830152602482018390527f0e67d2d2c46f23cfff9f76c16187348901bf73ba32dcf6893f2a2a4b25be75f860448301527f0000000000000000000000000000000000000000000000000000000000000000169063212aac7990606401600060405180830381600087803b158015610d2a57600080fd5b505af1158015610d3e573d6000803e3d6000fd5b505050508873ffffffffffffffffffffffffffffffffffffffff167f71abcae7327579f86b1266a4390233f926d8ce29f0ed821b7b334202bd314e0f8985604051610d8a929190612db0565b60405180910390a250505050505050505050505050505050565b6000610dae611b4d565b9050610dc281610dbc611ed7565b90611f05565b610dd8838383610dd0611f74565b929190611fa2565b505050565b600081815260076020526040812060010154421015610ea5576040517f6352211e000000000000000000000000000000000000000000000000000000008152600481018390527f000000000000000000000000000000000000000000000000000000000000000073ffffffffffffffffffffffffffffffffffffffff1690636352211e90602401602060405180830381865afa158015610e81573d6000803e3d6000fd5b505050506040513d601f19601f820116820180604052508101906105fb9190612d57565b6040517f1297346f00000000000000000000000000000000000000000000000000000000815260048101839052602401610811565b610f157f97667070c54ef182b0f5858b034beac1b6f3089aa2d3188bb1e8929f4fa9b929610f06611b4d565b610f0e611f74565b9190612079565b6002829055600381905560408051838152602081018390527f788db483524e27f5a39a54daaeb81bb48059af776767d0c1f600ef6e996d2818910160405180910390a15050565b600042815b83811015610fe3576000858583818110610f7d57610f7d612cc3565b90506020020135905060006007600083815260200190815260200160002090508060010154600014158015610fb6575080600101548410155b15610fd95780546001820154610fcc9190612c81565b610fd69086612cf2565b94505b5050600101610f61565b505092915050565b610ffe610ff6611b4d565b610dbc611ed7565b84838114158061100e5750808214155b15611045576040517f6582533600000000000000000000000000000000000000000000000000000000815260040160405180910390fd5b60005b818110156110df576110d788888381811061106557611065612cc3565b905060200201602081019061107a9190612aed565b85858481811061108c5761108c612cc3565b905060200201358888858181106110a5576110a5612cc3565b90506020020160208101906110ba9190612aed565b73ffffffffffffffffffffffffffffffffffffffff1691906120ff565b600101611048565b5050505050505050565b60006110f88383426001611b57565b9050806008600082825461110c9190612c81565b9091555050505050565b611131611121611b4d565b8261112a611f74565b919061218c565b50565b600061115b611141611ed7565b5473ffffffffffffffffffffffffffffffffffffffff1690565b905090565b60006111a4838361116f611f74565b60009283526020908152604080842073ffffffffffffffffffffffffffffffffffffffff909316845291905290205460ff1690565b9392505050565b6111d77f97667070c54ef182b0f5858b034beac1b6f3089aa2d3188bb1e8929f4fa9b929610f06611b4d565b60018190556040518181527fb8b290c068ed53e46165f3ca5215dcc2972ae26ae4c8fb5adc71a1c135f85513906020015b60405180910390a150565b61123f7f97667070c54ef182b0f5858b034beac1b6f3089aa2d3188bb1e8929f4fa9b929610f06611b4d565b60068190556040518181527faa06aa6d79ce3cb966afe332af120b3aa8252dc355d1d2dae1368babec5f3ee590602001611208565b61127f610ff6611b4d565b84838114158061128f5750808214155b156112c6576040517f6582533600000000000000000000000000000000000000000000000000000000815260040160405180910390fd5b60005b818110156110df578585828181106112e3576112e3612cc3565b90506020020160208101906112f89190612aed565b73ffffffffffffffffffffffffffffffffffffffff166323b872dd308a8a8581811061132657611326612cc3565b905060200201602081019061133b9190612aed565b87878681811061134d5761134d612cc3565b6040517fffffffff0000000000000000000000000000000000000000000000000000000060e088901b16815273ffffffffffffffffffffffffffffffffffffffff958616600482015294909316602485015250602090910201356044820152606401600060405180830381600087803b1580156113c957600080fd5b505af11580156113dd573d6000803e3d6000fd5b505050508060010190506112c9565b60006113f6611b4d565b905061140481610dbc611ed7565b610dd8838383611412611f74565b929190612230565b6006546000908610611458576040517f2273ee1800000000000000000000000000000000000000000000000000000000815260040160405180910390fd5b858414611491576040517f6582533600000000000000000000000000000000000000000000000000000000815260040160405180910390fd5b42600061149e8585610f5c565b905060006114b8826008546114b39190612c81565b611e43565b90506000805b8a8110156117fb5760008a8a838181106114da576114da612cc3565b90506020020135905060008d8d848181106114f7576114f7612cc3565b9050602002013590508060000361153d576040517f8ce0857d00000000000000000000000000000000000000000000000000000000815260006004820152602401610811565b600154811061157b576040517f8ce0857d00000000000000000000000000000000000000000000000000000000815260048101829052602401610811565b6004548210156115c957600480546040517f4c642486000000000000000000000000000000000000000000000000000000008152918201839052602482018490526044820152606401610811565b60055482111561161a576005546040517ff1c8a68700000000000000000000000000000000000000000000000000000000815260048101839052602481018490526044810191909152606401610811565b6000818152600760209081526040808320815160608101835281548152600182015493810184905260029091015491810191909152910361168a576003546002546116659085612d05565b61166f9190612d1c565b6116799087612cf2565b6116839086612cf2565b94506117f0565b611692611b4d565b6040517f6352211e0000000000000000000000000000000000000000000000000000000081526004810184905273ffffffffffffffffffffffffffffffffffffffff918216917f00000000000000000000000000000000000000000000000000000000000000001690636352211e90602401602060405180830381865afa158015611721573d6000803e3d6000fd5b505050506040513d601f19601f820116820180604052508101906117459190612d57565b73ffffffffffffffffffffffffffffffffffffffff1614801561176b5750806020015188105b156117bb576020810151600090611782858b612cf2565b61178c9190612c81565b90506003546002548261179f9190612d05565b6117a99190612d1c565b6117b39087612cf2565b9550506117f0565b6040517f139d679900000000000000000000000000000000000000000000000000000000815260048101839052602401610811565b5050506001016114be565b509a9950505050505050505050565b6118367f97667070c54ef182b0f5858b034beac1b6f3089aa2d3188bb1e8929f4fa9b929610f06611b4d565b60058190556040518181527fb4f38443948b39b669154b83689d2dfa2a4cb2b1fd458118da3d1bcdacfc560890602001611208565b611131611876611b4d565b8261187f611ed7565b91906122fa565b611891610ff6611b4d565b828181146118cb576040517f6582533600000000000000000000000000000000000000000000000000000000815260040160405180910390fd5b60005b8181101561193d576119358484838181106118eb576118eb612cc3565b9050602002013587878481811061190457611904612cc3565b90506020020160208101906119199190612aed565b73ffffffffffffffffffffffffffffffffffffffff169061240e565b6001016118ce565b505050505050565b6119717f97667070c54ef182b0f5858b034beac1b6f3089aa2d3188bb1e8929f4fa9b929610f06611b4d565b600080547fffffffffffffffffffffffff00000000000000000000000000000000000000001673ffffffffffffffffffffffffffffffffffffffff83169081179091556040519081527fd99014e6f6a21a1f7025e1599288b52168db6241486596946f759a520d4ddfea90602001611208565b611a107f97667070c54ef182b0f5858b034beac1b6f3089aa2d3188bb1e8929f4fa9b929610f06611b4d565b60048190556040518181527f7d9d1c986503049ed25e197e416ddaeef53d62a8479d6371784f05a9d9da982490602001611208565b6000806105fb60017fca9d3e17f264b0f3984e2634e94adb37fa3e6a8103f06aeae6fa59e21c769f5e612c81565b60007c01000000000000000000000000000000000000000000000000000000007fffffffff00000000000000000000000000000000000000000000000000000000831601611ac3575060006105fb565b7ffe003659000000000000000000000000000000000000000000000000000000007fffffffff00000000000000000000000000000000000000000000000000000000831601611b14575060016105fb565b507fffffffff00000000000000000000000000000000000000000000000000000000166000908152602091909152604090205460ff1690565b600061115b612568565b6000808467ffffffffffffffff811115611b7357611b73612c94565b604051908082528060200260200182016040528015611b9c578160200160208202803683370190505b5090506000805b86811015611df9576000888883818110611bbf57611bbf612cc3565b90506020020135905060006007600083815260200190815260200160002090508060010154600014158015611bf8575080600101548810155b15611db45780546001820154611c0e9190612c81565b611c189087612cf2565b600080835560018301819055600283018190556040517f6352211e00000000000000000000000000000000000000000000000000000000815260048101859052919750907f000000000000000000000000000000000000000000000000000000000000000073ffffffffffffffffffffffffffffffffffffffff1690636352211e90602401602060405180830381865afa158015611cba573d6000803e3d6000fd5b505050506040513d601f19601f82011682018060405250810190611cde9190612d57565b6040517f79cc679000000000000000000000000000000000000000000000000000000000815273ffffffffffffffffffffffffffffffffffffffff8083166004830152602482018690529192507f0000000000000000000000000000000000000000000000000000000000000000909116906379cc679090604401600060405180830381600087803b158015611d7357600080fd5b505af1158015611d87573d6000803e3d6000fd5b5050505082868581518110611d9e57611d9e612cc3565b6020026020010181815250506001945050611def565b8615611def576040517f9be5764a00000000000000000000000000000000000000000000000000000000815260048101839052602401610811565b5050600101611ba3565b508015611e38577f9e5430727c5f2b23597e7cb2670240cc8fbb4031a0dad53562812b380e286b3d82604051611e2f9190612e1c565b60405180910390a15b50505b949350505050565b600080546040517fae1042650000000000000000000000000000000000000000000000000000000081526004810184905273ffffffffffffffffffffffffffffffffffffffff9091169063ae10426590602401602060405180830381865afa158015611eb3573d6000803e3d6000fd5b505050506040513d601f19601f820116820180604052508101906105fb9190612e2f565b6000806105fb60017fc9ed16f33ab3a66c84bfd83099ccb2a8845871e2e1c1928f63797152f0fd54cd612c81565b815473ffffffffffffffffffffffffffffffffffffffff828116911614611f70576040517f2ef4875e00000000000000000000000000000000000000000000000000000000815273ffffffffffffffffffffffffffffffffffffffff82166004820152602401610811565b5050565b6000806105fb60017fc8827d3282af6f37b64c3e9e6f3ac9df286ab0bb0fccd6f8661bf19adb368b23612c81565b60008381526020858152604080832073ffffffffffffffffffffffffffffffffffffffff8616845290915290205460ff166120735760008381526020858152604080832073ffffffffffffffffffffffffffffffffffffffff8681168086529184529382902080547fffffffffffffffffffffffffffffffffffffffffffffffffffffffffffffff00166001179055815187815292830152918316918101919091527f2f8788117e7eff1d82e926ec794901d17c78024a50270940304540a733656f0d906060015b60405180910390a15b50505050565b60008281526020848152604080832073ffffffffffffffffffffffffffffffffffffffff8516845290915290205460ff16610dd8576040517f7aa728820000000000000000000000000000000000000000000000000000000081526004810183905273ffffffffffffffffffffffffffffffffffffffff82166024820152604401610811565b6040805173ffffffffffffffffffffffffffffffffffffffff8416602482015260448082018490528251808303909101815260649091019091526020810180517bffffffffffffffffffffffffffffffffffffffffffffffffffffffff167fa9059cbb00000000000000000000000000000000000000000000000000000000179052610dd89084906126af565b612197838284612079565b60008181526020848152604080832073ffffffffffffffffffffffffffffffffffffffff86168085529083529281902080547fffffffffffffffffffffffffffffffffffffffffffffffffffffffffffffff0016905580518481529182018390528101919091527ff6391f5c32d9c69d2a47ea670b442974b53935d1edc7fd64eb21e047a839171b9060600160405180910390a1505050565b60008381526020858152604080832073ffffffffffffffffffffffffffffffffffffffff8616845290915290205460ff16156120735760008381526020858152604080832073ffffffffffffffffffffffffffffffffffffffff8681168086529184529382902080547fffffffffffffffffffffffffffffffffffffffffffffffffffffffffffffff00169055815187815292830152918316918101919091527ff6391f5c32d9c69d2a47ea670b442974b53935d1edc7fd64eb21e047a839171b9060600161206a565b825473ffffffffffffffffffffffffffffffffffffffff9081169083168114612367576040517f2ef4875e00000000000000000000000000000000000000000000000000000000815273ffffffffffffffffffffffffffffffffffffffff84166004820152602401610811565b8173ffffffffffffffffffffffffffffffffffffffff168173ffffffffffffffffffffffffffffffffffffffff16146120735783547fffffffffffffffffffffffff00000000000000000000000000000000000000001673ffffffffffffffffffffffffffffffffffffffff8381169182178655604051908316907f8be0079c531659141344cd1fd0a4f28419497f9722a3daafe3b4186f6b6457e090600090a350505050565b80471015612478576040517f08c379a000000000000000000000000000000000000000000000000000000000815260206004820152601d60248201527f416464726573733a20696e73756666696369656e742062616c616e63650000006044820152606401610811565b60008273ffffffffffffffffffffffffffffffffffffffff168260405160006040518083038185875af1925050503d80600081146124d2576040519150601f19603f3d011682016040523d82523d6000602084013e6124d7565b606091505b5050905080610dd8576040517f08c379a000000000000000000000000000000000000000000000000000000000815260206004820152603a60248201527f416464726573733a20756e61626c6520746f2073656e642076616c75652c207260448201527f6563697069656e74206d617920686176652072657665727465640000000000006064820152608401610811565b6000333214806125785750601836105b1561258257503390565b7fffffffffffffffffffffffffffffffffffffffffffffffffffffffffffffffec36013560601c7f000000000000000000000000000000000000000000000000000000000000000073ffffffffffffffffffffffffffffffffffffffff1633148061269e57506040517f8929a8ca00000000000000000000000000000000000000000000000000000000815273ffffffffffffffffffffffffffffffffffffffff82811660048301523360248301527f00000000000000000000000000000000000000000000000000000000000000001690638929a8ca90604401602060405180830381865afa15801561267a573d6000803e3d6000fd5b505050506040513d601f19601f8201168201806040525081019061269e9190612e48565b156126a857919050565b3391505090565b6000612711826040518060400160405280602081526020017f5361666545524332303a206c6f772d6c6576656c2063616c6c206661696c65648152508573ffffffffffffffffffffffffffffffffffffffff166127be9092919063ffffffff16565b90508051600014806127325750808060200190518101906127329190612e48565b610dd8576040517f08c379a000000000000000000000000000000000000000000000000000000000815260206004820152602a60248201527f5361666545524332303a204552433230206f7065726174696f6e20646964206e60448201527f6f742073756363656564000000000000000000000000000000000000000000006064820152608401610811565b6060611e3b8484600085856000808673ffffffffffffffffffffffffffffffffffffffff1685876040516127f29190612e8e565b60006040518083038185875af1925050503d806000811461282f576040519150601f19603f3d011682016040523d82523d6000602084013e612834565b606091505b509150915061284587838387612850565b979650505050505050565b606083156128e65782516000036128df5773ffffffffffffffffffffffffffffffffffffffff85163b6128df576040517f08c379a000000000000000000000000000000000000000000000000000000000815260206004820152601d60248201527f416464726573733a2063616c6c20746f206e6f6e2d636f6e74726163740000006044820152606401610811565b5081611e3b565b611e3b83838151156128fb5781518083602001fd5b806040517f08c379a00000000000000000000000000000000000000000000000000000000081526004016108119190612eaa565b60006020828403121561294157600080fd5b81357fffffffff00000000000000000000000000000000000000000000000000000000811681146111a457600080fd5b60008083601f84011261298357600080fd5b50813567ffffffffffffffff81111561299b57600080fd5b6020830191508360208260051b85010111156129b657600080fd5b9250929050565b60008060008060008060006080888a0312156129d857600080fd5b873567ffffffffffffffff808211156129f057600080fd5b6129fc8b838c01612971565b909950975060208a0135915080821115612a1557600080fd5b612a218b838c01612971565b909750955060408a0135915080821115612a3a57600080fd5b50612a478a828b01612971565b989b979a50959894979596606090950135949350505050565b73ffffffffffffffffffffffffffffffffffffffff8116811461113157600080fd5b60008060408385031215612a9557600080fd5b823591506020830135612aa781612a60565b809150509250929050565b600060208284031215612ac457600080fd5b5035919050565b60008060408385031215612ade57600080fd5b50508035926020909101359150565b600060208284031215612aff57600080fd5b81356111a481612a60565b60008060208385031215612b1d57600080fd5b823567ffffffffffffffff811115612b3457600080fd5b612b4085828601612971565b90969095509350505050565b60008060008060008060608789031215612b6557600080fd5b863567ffffffffffffffff80821115612b7d57600080fd5b612b898a838b01612971565b90985096506020890135915080821115612ba257600080fd5b612bae8a838b01612971565b90965094506040890135915080821115612bc757600080fd5b50612bd489828a01612971565b979a9699509497509295939492505050565b60008060008060408587031215612bfc57600080fd5b843567ffffffffffffffff80821115612c1457600080fd5b612c2088838901612971565b90965094506020870135915080821115612c3957600080fd5b50612c4687828801612971565b95989497509550505050565b7f4e487b7100000000000000000000000000000000000000000000000000000000600052601160045260246000fd5b818103818111156105fb576105fb612c52565b7f4e487b7100000000000000000000000000000000000000000000000000000000600052604160045260246000fd5b7f4e487b7100000000000000000000000000000000000000000000000000000000600052603260045260246000fd5b808201808211156105fb576105fb612c52565b80820281158282048414176105fb576105fb612c52565b600082612d52577f4e487b7100000000000000000000000000000000000000000000000000000000600052601260045260246000fd5b500490565b600060208284031215612d6957600080fd5b81516111a481612a60565b60008151808452602080850194506020840160005b83811015612da557815187529582019590820190600101612d89565b509495945050505050565b60006040808352612dc46040840186612d74565b83810360208581019190915285518083528682019282019060005b81811015612e0e5784518051845284810151858501528601518684015293830193606090920191600101612ddf565b509098975050505050505050565b6020815260006111a46020830184612d74565b600060208284031215612e4157600080fd5b5051919050565b600060208284031215612e5a57600080fd5b815180151581146111a457600080fd5b60005b83811015612e85578181015183820152602001612e6d565b50506000910152565b60008251612ea0818460208701612e6a565b9190910192915050565b6020815260008251806020840152612ec9816040850160208701612e6a565b601f017fffffffffffffffffffffffffffffffffffffffffffffffffffffffffffffffe016919091016040019291505056fea2646970667358221220c3e66471b353251eaa137a03e2e2b4590c7ceb7787425a7ea5d6074f26c8ff3b64736f6c63430008160033",
  "linkReferences": {},
  "deployedLinkReferences": {}
}