{
  "_format": "hh-sol-artifact-1",
  "contractName": "EDUCreditsManager",
  "sourceName": "contracts/payment/EDUCreditsManager.sol",
  "abi": [
    {
      "inputs": [
        {
          "internalType": "contract IERC20",
          "name": "eduToken",
          "type": "address"
        },
        {
          "internalType": "address payable",
          "name": "payoutWallet",
          "type": "address"
        },
        {
          "internalType": "address",
          "name": "unclaimedEDUHolder",
          "type": "address"
        },
        {
          "internalType": "contract IForwarderRegistry",
          "name": "forwarderRegistry",
          "type": "address"
        }
      ],
      "stateMutability": "nonpayable",
      "type": "constructor"
    },
    {
      "inputs": [],
      "name": "IllegalInterfaceId",
      "type": "error"
    },
    {
      "inputs": [],
      "name": "InconsistentArrayLengths",
      "type": "error"
    },
    {
      "inputs": [
        {
          "internalType": "address",
          "name": "spender",
          "type": "address"
        },
        {
          "internalType": "address",
          "name": "user",
          "type": "address"
        },
        {
          "internalType": "uint256",
          "name": "amount",
          "type": "uint256"
        }
      ],
      "name": "InsufficientCredits",
      "type": "error"
    },
    {
      "inputs": [
        {
          "internalType": "address",
          "name": "account",
          "type": "address"
        }
      ],
      "name": "NotContractOwner",
      "type": "error"
    },
    {
      "inputs": [
        {
          "internalType": "bytes32",
          "name": "role",
          "type": "bytes32"
        },
        {
          "internalType": "address",
          "name": "account",
          "type": "address"
        }
      ],
      "name": "NotRoleHolder",
      "type": "error"
    },
    {
      "inputs": [
        {
          "internalType": "uint256",
          "name": "expectedPhase",
          "type": "uint256"
        },
        {
          "internalType": "uint256",
          "name": "actualPhase",
          "type": "uint256"
        }
      ],
      "name": "OnlyDuringPhase",
      "type": "error"
    },
    {
      "inputs": [
        {
          "internalType": "uint256",
          "name": "phase",
          "type": "uint256"
        }
      ],
      "name": "SettingInvalidPhase",
      "type": "error"
    },
    {
      "inputs": [],
      "name": "UnrecoverableEDU",
      "type": "error"
    },
    {
      "inputs": [
        {
          "internalType": "address",
          "name": "user",
          "type": "address"
        }
      ],
      "name": "UserCreditsAlreadySet",
      "type": "error"
    },
    {
      "inputs": [],
      "name": "ZeroAddressPayoutWallet",
      "type": "error"
    },
    {
      "inputs": [],
      "name": "ZeroAddressUser",
      "type": "error"
    },
    {
      "inputs": [
        {
          "internalType": "address",
          "name": "spender",
          "type": "address"
        },
        {
          "internalType": "address",
          "name": "user",
          "type": "address"
        }
      ],
      "name": "ZeroSpendAmount",
      "type": "error"
    },
    {
      "inputs": [
        {
          "internalType": "address",
          "name": "user",
          "type": "address"
        }
      ],
      "name": "ZeroValueUnclaimedCredits",
      "type": "error"
    },
    {
      "anonymous": false,
      "inputs": [
        {
          "indexed": false,
          "internalType": "address",
          "name": "spender",
          "type": "address"
        },
        {
          "indexed": false,
          "internalType": "address",
          "name": "user",
          "type": "address"
        },
        {
          "indexed": false,
          "internalType": "uint256",
          "name": "bonusSpent",
          "type": "uint256"
        },
        {
          "indexed": false,
          "internalType": "uint256",
          "name": "unclaimedSpent",
          "type": "uint256"
        },
        {
          "indexed": false,
          "internalType": "uint256",
          "name": "depositedSpent",
          "type": "uint256"
        }
      ],
      "name": "CreditsSpent",
      "type": "event"
    },
    {
      "anonymous": false,
      "inputs": [
        {
          "indexed": false,
          "internalType": "address[]",
          "name": "users",
          "type": "address[]"
        },
        {
          "indexed": false,
          "internalType": "uint256[]",
          "name": "unclaimed",
          "type": "uint256[]"
        },
        {
          "indexed": false,
          "internalType": "uint256[]",
          "name": "bonus",
          "type": "uint256[]"
        },
        {
          "indexed": false,
          "internalType": "bool[]",
          "name": "diamondHands",
          "type": "bool[]"
        }
      ],
      "name": "InitialCreditsSet",
      "type": "event"
    },
    {
      "anonymous": false,
      "inputs": [
        {
          "indexed": true,
          "internalType": "address",
          "name": "previousOwner",
          "type": "address"
        },
        {
          "indexed": true,
          "internalType": "address",
          "name": "newOwner",
          "type": "address"
        }
      ],
      "name": "OwnershipTransferred",
      "type": "event"
    },
    {
      "anonymous": false,
      "inputs": [
        {
          "indexed": false,
          "internalType": "address",
          "name": "payoutWallet",
          "type": "address"
        }
      ],
      "name": "PayoutWalletSet",
      "type": "event"
    },
    {
      "anonymous": false,
      "inputs": [
        {
          "indexed": false,
          "internalType": "uint256",
          "name": "phase",
          "type": "uint256"
        }
      ],
      "name": "PhaseSet",
      "type": "event"
    },
    {
      "anonymous": false,
      "inputs": [
        {
          "indexed": false,
          "internalType": "bytes32",
          "name": "role",
          "type": "bytes32"
        },
        {
          "indexed": false,
          "internalType": "address",
          "name": "account",
          "type": "address"
        },
        {
          "indexed": false,
          "internalType": "address",
          "name": "operator",
          "type": "address"
        }
      ],
      "name": "RoleGranted",
      "type": "event"
    },
    {
      "anonymous": false,
      "inputs": [
        {
          "indexed": false,
          "internalType": "bytes32",
          "name": "role",
          "type": "bytes32"
        },
        {
          "indexed": false,
          "internalType": "address",
          "name": "account",
          "type": "address"
        },
        {
          "indexed": false,
          "internalType": "address",
          "name": "operator",
          "type": "address"
        }
      ],
      "name": "RoleRevoked",
      "type": "event"
    },
    {
      "inputs": [],
      "name": "DEPOSIT_PHASE",
      "outputs": [
        {
          "internalType": "uint256",
          "name": "",
          "type": "uint256"
        }
      ],
      "stateMutability": "view",
      "type": "function"
    },
    {
      "inputs": [],
      "name": "EDU_TOKEN",
      "outputs": [
        {
          "internalType": "contract IERC20",
          "name": "",
          "type": "address"
        }
      ],
      "stateMutability": "view",
      "type": "function"
    },
    {
      "inputs": [],
      "name": "INIT_PHASE",
      "outputs": [
        {
          "internalType": "uint256",
          "name": "",
          "type": "uint256"
        }
      ],
      "stateMutability": "view",
      "type": "function"
    },
    {
      "inputs": [],
      "name": "SALE_PHASE",
      "outputs": [
        {
          "internalType": "uint256",
          "name": "",
          "type": "uint256"
        }
      ],
      "stateMutability": "view",
      "type": "function"
    },
    {
      "inputs": [],
      "name": "SPENDER_ROLE",
      "outputs": [
        {
          "internalType": "bytes32",
          "name": "",
          "type": "bytes32"
        }
      ],
      "stateMutability": "view",
      "type": "function"
    },
    {
      "inputs": [],
      "name": "UNCLAIMED_EDU_HOLDER",
      "outputs": [
        {
          "internalType": "address",
          "name": "",
          "type": "address"
        }
      ],
      "stateMutability": "view",
      "type": "function"
    },
    {
      "inputs": [],
      "name": "WITHDRAW_PHASE",
      "outputs": [
        {
          "internalType": "uint256",
          "name": "",
          "type": "uint256"
        }
      ],
      "stateMutability": "view",
      "type": "function"
    },
    {
      "inputs": [],
      "name": "currentPhase",
      "outputs": [
        {
          "internalType": "uint256",
          "name": "",
          "type": "uint256"
        }
      ],
      "stateMutability": "view",
      "type": "function"
    },
    {
      "inputs": [],
      "name": "forwarderRegistry",
      "outputs": [
        {
          "internalType": "contract IForwarderRegistry",
          "name": "",
          "type": "address"
        }
      ],
      "stateMutability": "view",
      "type": "function"
    },
    {
      "inputs": [
        {
          "internalType": "bytes32",
          "name": "role",
          "type": "bytes32"
        },
        {
          "internalType": "address",
          "name": "account",
          "type": "address"
        }
      ],
      "name": "grantRole",
      "outputs": [],
      "stateMutability": "nonpayable",
      "type": "function"
    },
    {
      "inputs": [
        {
          "internalType": "bytes32",
          "name": "role",
          "type": "bytes32"
        },
        {
          "internalType": "address",
          "name": "account",
          "type": "address"
        }
      ],
      "name": "hasRole",
      "outputs": [
        {
          "internalType": "bool",
          "name": "hasRole_",
          "type": "bool"
        }
      ],
      "stateMutability": "view",
      "type": "function"
    },
    {
      "inputs": [
        {
          "internalType": "address",
          "name": "forwarder",
          "type": "address"
        }
      ],
      "name": "isTrustedForwarder",
      "outputs": [
        {
          "internalType": "bool",
          "name": "",
          "type": "bool"
        }
      ],
      "stateMutability": "view",
      "type": "function"
    },
    {
      "inputs": [
        {
          "internalType": "address",
          "name": "",
          "type": "address"
        },
        {
          "internalType": "address",
          "name": "from",
          "type": "address"
        },
        {
          "internalType": "uint256",
          "name": "value",
          "type": "uint256"
        },
        {
          "internalType": "bytes",
          "name": "",
          "type": "bytes"
        }
      ],
      "name": "onERC20Received",
      "outputs": [
        {
          "internalType": "bytes4",
          "name": "magicValue",
          "type": "bytes4"
        }
      ],
      "stateMutability": "nonpayable",
      "type": "function"
    },
    {
      "inputs": [],
      "name": "owner",
      "outputs": [
        {
          "internalType": "address",
          "name": "",
          "type": "address"
        }
      ],
      "stateMutability": "view",
      "type": "function"
    },
    {
      "inputs": [],
      "name": "payoutWallet",
      "outputs": [
        {
          "internalType": "address payable",
          "name": "wallet",
          "type": "address"
        }
      ],
      "stateMutability": "view",
      "type": "function"
    },
    {
      "inputs": [
        {
          "internalType": "address[]",
          "name": "accounts",
          "type": "address[]"
        },
        {
          "internalType": "contract IERC20[]",
          "name": "tokens",
          "type": "address[]"
        },
        {
          "internalType": "uint256[]",
          "name": "amounts",
          "type": "uint256[]"
        }
      ],
      "name": "recoverERC20s",
      "outputs": [],
      "stateMutability": "nonpayable",
      "type": "function"
    },
    {
      "inputs": [
        {
          "internalType": "address[]",
          "name": "accounts",
          "type": "address[]"
        },
        {
          "internalType": "contract IERC721[]",
          "name": "contracts",
          "type": "address[]"
        },
        {
          "internalType": "uint256[]",
          "name": "tokenIds",
          "type": "uint256[]"
        }
      ],
      "name": "recoverERC721s",
      "outputs": [],
      "stateMutability": "nonpayable",
      "type": "function"
    },
    {
      "inputs": [
        {
          "internalType": "address payable[]",
          "name": "accounts",
          "type": "address[]"
        },
        {
          "internalType": "uint256[]",
          "name": "amounts",
          "type": "uint256[]"
        }
      ],
      "name": "recoverETH",
      "outputs": [],
      "stateMutability": "nonpayable",
      "type": "function"
    },
    {
      "inputs": [
        {
          "internalType": "bytes32",
          "name": "role",
          "type": "bytes32"
        }
      ],
      "name": "renounceRole",
      "outputs": [],
      "stateMutability": "nonpayable",
      "type": "function"
    },
    {
      "inputs": [
        {
          "internalType": "bytes32",
          "name": "role",
          "type": "bytes32"
        },
        {
          "internalType": "address",
          "name": "account",
          "type": "address"
        }
      ],
      "name": "revokeRole",
      "outputs": [],
      "stateMutability": "nonpayable",
      "type": "function"
    },
    {
      "inputs": [
        {
          "internalType": "address[]",
          "name": "users",
          "type": "address[]"
        },
        {
          "internalType": "uint256[]",
          "name": "unclaimedCredits",
          "type": "uint256[]"
        },
        {
          "internalType": "uint256[]",
          "name": "bonusCredits",
          "type": "uint256[]"
        },
        {
          "internalType": "bool[]",
          "name": "diamondHands",
          "type": "bool[]"
        }
      ],
      "name": "setInitialCredits",
      "outputs": [],
      "stateMutability": "nonpayable",
      "type": "function"
    },
    {
      "inputs": [
        {
          "internalType": "address payable",
          "name": "newPayoutWallet",
          "type": "address"
        }
      ],
      "name": "setPayoutWallet",
      "outputs": [],
      "stateMutability": "nonpayable",
      "type": "function"
    },
    {
      "inputs": [
        {
          "internalType": "uint256",
          "name": "phase",
          "type": "uint256"
        }
      ],
      "name": "setPhase",
      "outputs": [],
      "stateMutability": "nonpayable",
      "type": "function"
    },
    {
      "inputs": [
        {
          "internalType": "address",
          "name": "user",
          "type": "address"
        },
        {
          "internalType": "uint256",
          "name": "amount",
          "type": "uint256"
        }
      ],
      "name": "spend",
      "outputs": [],
      "stateMutability": "nonpayable",
      "type": "function"
    },
    {
      "inputs": [
        {
          "internalType": "bytes4",
          "name": "interfaceId",
          "type": "bytes4"
        }
      ],
      "name": "supportsInterface",
      "outputs": [
        {
          "internalType": "bool",
          "name": "",
          "type": "bool"
        }
      ],
      "stateMutability": "view",
      "type": "function"
    },
    {
      "inputs": [],
      "name": "totalCredits",
      "outputs": [
        {
          "internalType": "uint256",
          "name": "",
          "type": "uint256"
        }
      ],
      "stateMutability": "view",
      "type": "function"
    },
    {
      "inputs": [],
      "name": "totalDeposited",
      "outputs": [
        {
          "internalType": "uint256",
          "name": "",
          "type": "uint256"
        }
      ],
      "stateMutability": "view",
      "type": "function"
    },
    {
      "inputs": [
        {
          "internalType": "address",
          "name": "newOwner",
          "type": "address"
        }
      ],
      "name": "transferOwnership",
      "outputs": [],
      "stateMutability": "nonpayable",
      "type": "function"
    },
    {
      "inputs": [
        {
          "internalType": "address",
          "name": "",
          "type": "address"
        }
      ],
      "name": "userCredits",
      "outputs": [
        {
          "internalType": "uint256",
          "name": "unclaimed",
          "type": "uint256"
        },
        {
          "internalType": "uint256",
          "name": "bonus",
          "type": "uint256"
        },
        {
          "internalType": "uint256",
          "name": "deposited",
          "type": "uint256"
        },
        {
          "internalType": "bool",
          "name": "diamondHand",
          "type": "bool"
        }
      ],
      "stateMutability": "view",
      "type": "function"
    },
    {
      "inputs": [],
      "name": "withdraw",
      "outputs": [],
      "stateMutability": "nonpayable",
      "type": "function"
    }
  ],
  "bytecode": "0x60e06040525f805534801562000013575f80fd5b5060405162002d1438038062002d148339810160408190526200003691620002de565b80808433620000508162000049620000df565b9062000114565b5062000067816200006062000186565b90620001b5565b5062000088634fc3585960e01b600162000080620001c1565b9190620001f0565b6001600160a01b0390811660805285811660a052831660c052506040515f81527f63dd78a2037d9ff47ab1e6cf980c9d036bb47de0b5812d2203bfa833f35e0a189060200160405180910390a15050505062000363565b5f806200010e60017fc9ed16f33ab3a66c84bfd83099ccb2a8845871e2e1c1928f63797152f0fd54cd62000343565b92915050565b6001600160a01b038116156200016a5781546001600160a01b0319166001600160a01b03821690811783556040515f907f8be0079c531659141344cd1fd0a4f28419497f9722a3daafe3b4186f6b6457e0908290a35b620001826307f5828d60e41b600162000080620001c1565b5050565b5f806200010e60017f4fb5f8cdfbce77f22b0931a39e9f476a60a0f66524b2f379e96485471eb700ae62000343565b6200018282826200024c565b5f806200010e60017fca9d3e17f264b0f3984e2634e94adb37fa3e6a8103f06aeae6fa59e21c769f5e62000343565b600160e01b6001600160e01b03198316016200021f576040516372c683bb60e01b815260040160405180910390fd5b6001600160e01b0319919091165f9081526020929092526040909120805460ff1916911515919091179055565b6001600160a01b03811662000274576040516340b539cf60e01b815260040160405180910390fd5b81546001600160a01b0319166001600160a01b03821690811783556040519081527fdd880d24a789958a6398c99c2e54ce31bc10a638cbc42f7dd34285479ae0f8559060200160405180910390a15050565b6001600160a01b0381168114620002db575f80fd5b50565b5f805f8060808587031215620002f2575f80fd5b8451620002ff81620002c6565b60208601519094506200031281620002c6565b60408601519093506200032581620002c6565b60608601519092506200033881620002c6565b939692955090935050565b818103818111156200010e57634e487b7160e01b5f52601160045260245ffd5b60805160a05160c051612947620003cd5f395f8181610335015261069a01525f81816103a9015281816106d1015281816107b301528181610c7d01528181610cff01526111a901525f81816102770152818161036701528181611e660152611eee01526129475ff3fe608060405234801561000f575f80fd5b50600436106101d1575f3560e01c806373c8a958116100fe578063ad6b333b1161009e578063d547741f1161006e578063d547741f146104a7578063f2fde38b146104ba578063f7ba94bd146104cd578063ff50abdc146104e0575f80fd5b8063ad6b333b14610470578063af7d6ca314610478578063b5bd3eb91461048b578063c3666c3614610494575f80fd5b80638bb9c5bf116100d95780638bb9c5bf1461043b5780638da5cb5b1461044e5780638de17b741461045657806391d148541461045d575f80fd5b806373c8a958146104185780638488bb4e1461042b5780638b785d4914610433575f80fd5b80633ccfd60b116101745780635df2dcbc116101445780635df2dcbc146103a4578063687f34e0146103cb5780636b8f9c43146103de57806372c16a24146103f1575f80fd5b80633ccfd60b146102e45780634fc35859146102ec5780635188730214610330578063572b6c0514610357575f80fd5b806320babb92116101af57806320babb921461021b5780632b4c9f16146102755780632cc82655146102bc5780632f2ff15d146102d1575f80fd5b806301ffc9a7146101d5578063055ad42e146101fd578063148c2b5a14610213575b5f80fd5b6101e86101e33660046122e7565b6104e9565b60405190151581526020015b60405180910390f35b6102055f5481565b6040519081526020016101f4565b610205600281565b610253610229366004612347565b600160208190525f9182526040909120805491810154600282015460039092015490919060ff1684565b60408051948552602085019390935291830152151560608201526080016101f4565b7f00000000000000000000000000000000000000000000000000000000000000005b60405173ffffffffffffffffffffffffffffffffffffffff90911681526020016101f4565b6102cf6102ca366004612362565b610502565b005b6102cf6102df366004612379565b610599565b6102cf6105cb565b6102ff6102fa3660046123a7565b610825565b6040517fffffffff0000000000000000000000000000000000000000000000000000000090911681526020016101f4565b6102977f000000000000000000000000000000000000000000000000000000000000000081565b6101e8610365366004612347565b7f000000000000000000000000000000000000000000000000000000000000000073ffffffffffffffffffffffffffffffffffffffff90811691161490565b6102977f000000000000000000000000000000000000000000000000000000000000000081565b6102cf6103d9366004612486565b610908565b6102cf6103ec366004612347565b610c14565b6102057f7370656e6465720000000000000000000000000000000000000000000000000081565b6102cf610426366004612541565b610c34565b610297610e02565b610205600381565b6102cf610449366004612362565b610e2d565b610297610e48565b6102055f81565b6101e861046b366004612379565b610e54565b610205600181565b6102cf6104863660046125d4565b610e9d565b61020560025481565b6102cf6104a2366004612541565b6112d0565b6102cf6104b5366004612379565b611441565b6102cf6104c8366004612347565b61146e565b6102cf6104db3660046125fe565b611489565b61020560035481565b5f6104fc826104f6611546565b90611573565b92915050565b61051b61050d61164a565b610515611653565b90611680565b600381111561055e576040517f96666719000000000000000000000000000000000000000000000000000000008152600481018290526024015b60405180910390fd5b5f819055604051600181527f63dd78a2037d9ff47ab1e6cf980c9d036bb47de0b5812d2203bfa833f35e0a189060200160405180910390a150565b5f6105a261164a565b90506105b081610515611653565b6105c68383836105be6116ef565b92919061171c565b505050565b60035f5414610613575f546040517f7c9bb663000000000000000000000000000000000000000000000000000000008152600360048201526024810191909152604401610555565b5f61061c61164a565b90505f60015f61062a61164a565b73ffffffffffffffffffffffffffffffffffffffff16815260208101919091526040015f208054909150801561073d575f82556040517f23b872dd00000000000000000000000000000000000000000000000000000000815273ffffffffffffffffffffffffffffffffffffffff7f0000000000000000000000000000000000000000000000000000000000000000811660048301528481166024830152604482018390527f000000000000000000000000000000000000000000000000000000000000000016906323b872dd906064016020604051808303815f875af1158015610717573d5f803e3d5ffd5b505050506040513d601f19601f8201168201806040525081019061073b9190612672565b505b6002820154801561081f575f83600201819055508060035f82825461076291906126ba565b90915550506040517fa9059cbb00000000000000000000000000000000000000000000000000000000815273ffffffffffffffffffffffffffffffffffffffff8581166004830152602482018390527f0000000000000000000000000000000000000000000000000000000000000000169063a9059cbb906044016020604051808303815f875af11580156107f9573d5f803e3d5ffd5b505050506040513d601f19601f8201168201806040525081019061081d9190612672565b505b50505050565b5f60015f541461086e575f546040517f7c9bb663000000000000000000000000000000000000000000000000000000008152600160048201526024810191909152604401610555565b73ffffffffffffffffffffffffffffffffffffffff85165f908152600160205260408120600281018054919287926108a79084906126cd565b925050819055508460035f8282546108bf91906126cd565b925050819055508460025f8282546108d791906126cd565b909155507f4fc358590000000000000000000000000000000000000000000000000000000098975050505050505050565b8685811415806109185750808414155b806109235750808214155b1561095a576040517f6582533600000000000000000000000000000000000000000000000000000000815260040160405180910390fd5b5f541561099f575f80546040517f7c9bb66300000000000000000000000000000000000000000000000000000000815260048101929092526024820152604401610555565b6109aa61050d61164a565b5f5b818114610bc3575f8a8a838181106109c6576109c66126e0565b90506020020160208101906109db9190612347565b905073ffffffffffffffffffffffffffffffffffffffff8116610a2a576040517f9c89d57f00000000000000000000000000000000000000000000000000000000815260040160405180910390fd5b5f898984818110610a3d57610a3d6126e0565b905060200201359050805f03610a97576040517fd49c192700000000000000000000000000000000000000000000000000000000815273ffffffffffffffffffffffffffffffffffffffff83166004820152602401610555565b73ffffffffffffffffffffffffffffffffffffffff82165f908152600160205260409020805415610b0c576040517f6dbaa9b400000000000000000000000000000000000000000000000000000000815273ffffffffffffffffffffffffffffffffffffffff84166004820152602401610555565b5f898986818110610b1f57610b1f6126e0565b85855560200291909101356001840181905591508890508786818110610b4757610b476126e0565b9050602002016020810190610b5c919061270d565b6003830180547fffffffffffffffffffffffffffffffffffffffffffffffffffffffffffffff0016911515919091179055610b9781846126cd565b60025f828254610ba791906126cd565b925050819055505050505080610bbc90612728565b90506109ac565b507f44fbb8621bc7a734e344e0d7f6b84824cf97e0d8d611f9f8502e42ff0b1dee438989898989898989604051610c019897969594939291906127a8565b60405180910390a1505050505050505050565b610c1f61050d61164a565b610c3181610c2b6117f0565b9061181d565b50565b6003546040517f70a082310000000000000000000000000000000000000000000000000000000081523060048201525f919073ffffffffffffffffffffffffffffffffffffffff7f000000000000000000000000000000000000000000000000000000000000000016906370a0823190602401602060405180830381865afa158015610cc2573d5f803e3d5ffd5b505050506040513d601f19601f82011682018060405250810190610ce6919061286d565b610cf091906126ba565b90505f805b85811015610daf577f000000000000000000000000000000000000000000000000000000000000000073ffffffffffffffffffffffffffffffffffffffff16878783818110610d4657610d466126e0565b9050602002016020810190610d5b9190612347565b73ffffffffffffffffffffffffffffffffffffffff1603610d9d57848482818110610d8857610d886126e0565b9050602002013582610d9a91906126cd565b91505b80610da781612728565b915050610cf5565b5081811115610dea576040517f9207916000000000000000000000000000000000000000000000000000000000815260040160405180910390fd5b610df88888888888886118e1565b5050505050505050565b5f610e28610e0e6117f0565b5473ffffffffffffffffffffffffffffffffffffffff1690565b905090565b610c31610e3861164a565b82610e416116ef565b91906119cb565b5f610e28610e0e611653565b5f610e968383610e626116ef565b5f9283526020908152604080842073ffffffffffffffffffffffffffffffffffffffff909316845291905290205460ff1690565b9392505050565b5f610ea661164a565b9050815f03610f01576040517f09bc7f2b00000000000000000000000000000000000000000000000000000000815273ffffffffffffffffffffffffffffffffffffffff808316600483015284166024820152604401610555565b60025f5414610f49575f546040517f7c9bb663000000000000000000000000000000000000000000000000000000008152600260048201526024810191909152604401610555565b610f7d7f7370656e6465720000000000000000000000000000000000000000000000000082610f766116ef565b9190611a6e565b73ffffffffffffffffffffffffffffffffffffffff83165f90815260016020819052604082209081015490919080156110525784811061103c5784836001015f828254610fca91906126ba565b90915550506040805173ffffffffffffffffffffffffffffffffffffffff8087168252881660208201529081018690525f6060820181905260808201527fc8832e1605166eecba94f0e3919e05a79787269b7b9f7e7b9766b187b44a7e899060a00160405180910390a1505050505050565b5f600184015561104c81866126ba565b94508091505b82545f9080156110fc578681106110e95786855f015f82825461107591906126ba565b90915550506040805173ffffffffffffffffffffffffffffffffffffffff80891682528a166020820152908101859052606081018890525f60808201527fc8832e1605166eecba94f0e3919e05a79787269b7b9f7e7b9766b187b44a7e899060a00160405180910390a15050505050505050565b5f85556110f681886126ba565b96508091505b600285015487811015611162576040517f1734392500000000000000000000000000000000000000000000000000000000815273ffffffffffffffffffffffffffffffffffffffff80891660048301528a16602482015260448101899052606401610555565b87866002015f82825461117591906126ba565b925050819055508760035f82825461118d91906126ba565b909155505073ffffffffffffffffffffffffffffffffffffffff7f00000000000000000000000000000000000000000000000000000000000000001663a9059cbb6111d9610e0e6117f0565b6040517fffffffff0000000000000000000000000000000000000000000000000000000060e084901b16815273ffffffffffffffffffffffffffffffffffffffff9091166004820152602481018b90526044016020604051808303815f875af1158015611248573d5f803e3d5ffd5b505050506040513d601f19601f8201168201806040525081019061126c9190612672565b506040805173ffffffffffffffffffffffffffffffffffffffff808a1682528b16602082015290810186905260608101849052608081018990527fc8832e1605166eecba94f0e3919e05a79787269b7b9f7e7b9766b187b44a7e899060a001610c01565b6112db61050d61164a565b8483811415806112eb5750808214155b15611322576040517f6582533600000000000000000000000000000000000000000000000000000000815260040160405180910390fd5b5f5b818114610df85785858281811061133d5761133d6126e0565b90506020020160208101906113529190612347565b73ffffffffffffffffffffffffffffffffffffffff166323b872dd308a8a85818110611380576113806126e0565b90506020020160208101906113959190612347565b8787868181106113a7576113a76126e0565b6040517fffffffff0000000000000000000000000000000000000000000000000000000060e088901b16815273ffffffffffffffffffffffffffffffffffffffff9586166004820152949093166024850152506020909102013560448201526064015f604051808303815f87803b158015611420575f80fd5b505af1158015611432573d5f803e3d5ffd5b50505050806001019050611324565b5f61144a61164a565b905061145881610515611653565b6105c68383836114666116ef565b929190611af3565b610c3161147961164a565b82611482611653565b9190611bbb565b61149461050d61164a565b828181146114ce576040517f6582533600000000000000000000000000000000000000000000000000000000815260040160405180910390fd5b5f5b81811461153e576115368484838181106114ec576114ec6126e0565b90506020020135878784818110611505576115056126e0565b905060200201602081019061151a9190612347565b73ffffffffffffffffffffffffffffffffffffffff1690611cce565b6001016114d0565b505050505050565b5f806104fc60017fca9d3e17f264b0f3984e2634e94adb37fa3e6a8103f06aeae6fa59e21c769f5e6126ba565b5f7c01000000000000000000000000000000000000000000000000000000007fffffffff000000000000000000000000000000000000000000000000000000008316016115c157505f6104fc565b7ffe003659000000000000000000000000000000000000000000000000000000007fffffffff00000000000000000000000000000000000000000000000000000000831601611612575060016104fc565b507fffffffff00000000000000000000000000000000000000000000000000000000165f908152602091909152604090205460ff1690565b5f610e28611e24565b5f806104fc60017fc9ed16f33ab3a66c84bfd83099ccb2a8845871e2e1c1928f63797152f0fd54cd6126ba565b815473ffffffffffffffffffffffffffffffffffffffff8281169116146116eb576040517f2ef4875e00000000000000000000000000000000000000000000000000000000815273ffffffffffffffffffffffffffffffffffffffff82166004820152602401610555565b5050565b5f806104fc60017fc8827d3282af6f37b64c3e9e6f3ac9df286ab0bb0fccd6f8661bf19adb368b236126ba565b5f8381526020858152604080832073ffffffffffffffffffffffffffffffffffffffff8616845290915290205460ff1661081f575f8381526020858152604080832073ffffffffffffffffffffffffffffffffffffffff8681168086529184529382902080547fffffffffffffffffffffffffffffffffffffffffffffffffffffffffffffff00166001179055815187815292830152918316918101919091527f2f8788117e7eff1d82e926ec794901d17c78024a50270940304540a733656f0d906060015b60405180910390a150505050565b5f806104fc60017f4fb5f8cdfbce77f22b0931a39e9f476a60a0f66524b2f379e96485471eb700ae6126ba565b73ffffffffffffffffffffffffffffffffffffffff811661186a576040517f40b539cf00000000000000000000000000000000000000000000000000000000815260040160405180910390fd5b81547fffffffffffffffffffffffff00000000000000000000000000000000000000001673ffffffffffffffffffffffffffffffffffffffff821690811783556040519081527fdd880d24a789958a6398c99c2e54ce31bc10a638cbc42f7dd34285479ae0f8559060200160405180910390a15050565b6118ec61050d61164a565b8483811415806118fc5750808214155b15611933576040517f6582533600000000000000000000000000000000000000000000000000000000815260040160405180910390fd5b5f5b818114610df8576119c3888883818110611951576119516126e0565b90506020020160208101906119669190612347565b858584818110611978576119786126e0565b90506020020135888885818110611991576119916126e0565b90506020020160208101906119a69190612347565b73ffffffffffffffffffffffffffffffffffffffff169190611f68565b600101611935565b6119d6838284611a6e565b5f8181526020848152604080832073ffffffffffffffffffffffffffffffffffffffff86168085529083529281902080547fffffffffffffffffffffffffffffffffffffffffffffffffffffffffffffff0016905580518481529182018390528101919091527ff6391f5c32d9c69d2a47ea670b442974b53935d1edc7fd64eb21e047a839171b9060600160405180910390a1505050565b5f8281526020848152604080832073ffffffffffffffffffffffffffffffffffffffff8516845290915290205460ff166105c6576040517f7aa728820000000000000000000000000000000000000000000000000000000081526004810183905273ffffffffffffffffffffffffffffffffffffffff82166024820152604401610555565b5f8381526020858152604080832073ffffffffffffffffffffffffffffffffffffffff8616845290915290205460ff161561081f575f8381526020858152604080832073ffffffffffffffffffffffffffffffffffffffff8681168086529184529382902080547fffffffffffffffffffffffffffffffffffffffffffffffffffffffffffffff00169055815187815292830152918316918101919091527ff6391f5c32d9c69d2a47ea670b442974b53935d1edc7fd64eb21e047a839171b906060016117e2565b825473ffffffffffffffffffffffffffffffffffffffff9081169083168114611c28576040517f2ef4875e00000000000000000000000000000000000000000000000000000000815273ffffffffffffffffffffffffffffffffffffffff84166004820152602401610555565b8173ffffffffffffffffffffffffffffffffffffffff168173ffffffffffffffffffffffffffffffffffffffff161461081f5783547fffffffffffffffffffffffff00000000000000000000000000000000000000001673ffffffffffffffffffffffffffffffffffffffff8381169182178655604051908316907f8be0079c531659141344cd1fd0a4f28419497f9722a3daafe3b4186f6b6457e0905f90a350505050565b80471015611d38576040517f08c379a000000000000000000000000000000000000000000000000000000000815260206004820152601d60248201527f416464726573733a20696e73756666696369656e742062616c616e63650000006044820152606401610555565b5f8273ffffffffffffffffffffffffffffffffffffffff16826040515f6040518083038185875af1925050503d805f8114611d8e576040519150601f19603f3d011682016040523d82523d5f602084013e611d93565b606091505b50509050806105c6576040517f08c379a000000000000000000000000000000000000000000000000000000000815260206004820152603a60248201527f416464726573733a20756e61626c6520746f2073656e642076616c75652c207260448201527f6563697069656e74206d617920686176652072657665727465640000000000006064820152608401610555565b5f33321480611e335750601836105b15611e3d57503390565b7fffffffffffffffffffffffffffffffffffffffffffffffffffffffffffffffec36013560601c7f000000000000000000000000000000000000000000000000000000000000000073ffffffffffffffffffffffffffffffffffffffff16331480611f5757506040517f8929a8ca00000000000000000000000000000000000000000000000000000000815273ffffffffffffffffffffffffffffffffffffffff82811660048301523360248301527f00000000000000000000000000000000000000000000000000000000000000001690638929a8ca90604401602060405180830381865afa158015611f33573d5f803e3d5ffd5b505050506040513d601f19601f82011682018060405250810190611f579190612672565b15611f6157919050565b3391505090565b6040805173ffffffffffffffffffffffffffffffffffffffff848116602483015260448083018590528351808403909101815260649092018352602080830180517bffffffffffffffffffffffffffffffffffffffffffffffffffffffff167fa9059cbb0000000000000000000000000000000000000000000000000000000017905283518085019094528084527f5361666545524332303a206c6f772d6c6576656c2063616c6c206661696c6564908401526105c6928692915f916120329185169084906120de565b905080515f14806120525750808060200190518101906120529190612672565b6105c6576040517f08c379a000000000000000000000000000000000000000000000000000000000815260206004820152602a60248201527f5361666545524332303a204552433230206f7065726174696f6e20646964206e60448201527f6f742073756363656564000000000000000000000000000000000000000000006064820152608401610555565b60606120ec84845f856120f4565b949350505050565b606082471015612186576040517f08c379a000000000000000000000000000000000000000000000000000000000815260206004820152602660248201527f416464726573733a20696e73756666696369656e742062616c616e636520666f60448201527f722063616c6c00000000000000000000000000000000000000000000000000006064820152608401610555565b5f808673ffffffffffffffffffffffffffffffffffffffff1685876040516121ae91906128a6565b5f6040518083038185875af1925050503d805f81146121e8576040519150601f19603f3d011682016040523d82523d5f602084013e6121ed565b606091505b50915091506121fe87838387612209565b979650505050505050565b6060831561229e5782515f036122975773ffffffffffffffffffffffffffffffffffffffff85163b612297576040517f08c379a000000000000000000000000000000000000000000000000000000000815260206004820152601d60248201527f416464726573733a2063616c6c20746f206e6f6e2d636f6e74726163740000006044820152606401610555565b50816120ec565b6120ec83838151156122b35781518083602001fd5b806040517f08c379a000000000000000000000000000000000000000000000000000000000815260040161055591906128c1565b5f602082840312156122f7575f80fd5b81357fffffffff0000000000000000000000000000000000000000000000000000000081168114610e96575f80fd5b73ffffffffffffffffffffffffffffffffffffffff81168114610c31575f80fd5b5f60208284031215612357575f80fd5b8135610e9681612326565b5f60208284031215612372575f80fd5b5035919050565b5f806040838503121561238a575f80fd5b82359150602083013561239c81612326565b809150509250929050565b5f805f805f608086880312156123bb575f80fd5b85356123c681612326565b945060208601356123d681612326565b935060408601359250606086013567ffffffffffffffff808211156123f9575f80fd5b818801915088601f83011261240c575f80fd5b81358181111561241a575f80fd5b89602082850101111561242b575f80fd5b9699959850939650602001949392505050565b5f8083601f84011261244e575f80fd5b50813567ffffffffffffffff811115612465575f80fd5b6020830191508360208260051b850101111561247f575f80fd5b9250929050565b5f805f805f805f806080898b03121561249d575f80fd5b883567ffffffffffffffff808211156124b4575f80fd5b6124c08c838d0161243e565b909a50985060208b01359150808211156124d8575f80fd5b6124e48c838d0161243e565b909850965060408b01359150808211156124fc575f80fd5b6125088c838d0161243e565b909650945060608b0135915080821115612520575f80fd5b5061252d8b828c0161243e565b999c989b5096995094979396929594505050565b5f805f805f8060608789031215612556575f80fd5b863567ffffffffffffffff8082111561256d575f80fd5b6125798a838b0161243e565b90985096506020890135915080821115612591575f80fd5b61259d8a838b0161243e565b909650945060408901359150808211156125b5575f80fd5b506125c289828a0161243e565b979a9699509497509295939492505050565b5f80604083850312156125e5575f80fd5b82356125f081612326565b946020939093013593505050565b5f805f8060408587031215612611575f80fd5b843567ffffffffffffffff80821115612628575f80fd5b6126348883890161243e565b9096509450602087013591508082111561264c575f80fd5b506126598782880161243e565b95989497509550505050565b8015158114610c31575f80fd5b5f60208284031215612682575f80fd5b8151610e9681612665565b7f4e487b71000000000000000000000000000000000000000000000000000000005f52601160045260245ffd5b818103818111156104fc576104fc61268d565b808201808211156104fc576104fc61268d565b7f4e487b71000000000000000000000000000000000000000000000000000000005f52603260045260245ffd5b5f6020828403121561271d575f80fd5b8135610e9681612665565b5f7fffffffffffffffffffffffffffffffffffffffffffffffffffffffffffffffff82036127585761275861268d565b5060010190565b8183525f7f07ffffffffffffffffffffffffffffffffffffffffffffffffffffffffffffff83111561278f575f80fd5b8260051b80836020870137939093016020019392505050565b608080825281018890525f8960a08301825b8b8110156127f75782356127cd81612326565b73ffffffffffffffffffffffffffffffffffffffff168252602092830192909101906001016127ba565b50602091508381038285015261280e818a8c61275f565b9050838103604085015261282381888a61275f565b848103606086015285815286915082015f5b8681101561285c57823561284881612665565b151582529183019190830190600101612835565b509c9b505050505050505050505050565b5f6020828403121561287d575f80fd5b5051919050565b5f5b8381101561289e578181015183820152602001612886565b50505f910152565b5f82516128b7818460208701612884565b9190910192915050565b602081525f82518060208401526128df816040850160208701612884565b601f017fffffffffffffffffffffffffffffffffffffffffffffffffffffffffffffffe016919091016040019291505056fea2646970667358221220ba1c5b788ea0fd8400d79422ef44c0c3dcac27837a689b0bc499635826785aff64736f6c63430008150033",
  "linkReferences": {},
  "deployedLinkReferences": {}
}