{
  "_format": "hh-sol-artifact-1",
  "contractName": "EDUCreditsManager",
  "sourceName": "contracts/payment/EDUCreditsManager.sol",
  "abi": [
    {
      "inputs": [
        {
          "internalType": "contract IERC20",
          "name": "eduToken",
          "type": "address"
        },
        {
          "internalType": "address payable",
          "name": "payoutWallet",
          "type": "address"
        },
        {
          "internalType": "address",
          "name": "unclaimedEDUHolder",
          "type": "address"
        },
        {
          "internalType": "contract IForwarderRegistry",
          "name": "forwarderRegistry",
          "type": "address"
        }
      ],
      "stateMutability": "nonpayable",
      "type": "constructor"
    },
    {
      "inputs": [],
      "name": "IllegalInterfaceId",
      "type": "error"
    },
    {
      "inputs": [],
      "name": "InconsistentArrayLengths",
      "type": "error"
    },
    {
      "inputs": [
        {
          "internalType": "address",
          "name": "spender",
          "type": "address"
        },
        {
          "internalType": "address",
          "name": "user",
          "type": "address"
        },
        {
          "internalType": "uint256",
          "name": "amount",
          "type": "uint256"
        }
      ],
      "name": "InsufficientCredits",
      "type": "error"
    },
    {
      "inputs": [
        {
          "internalType": "address",
          "name": "account",
          "type": "address"
        }
      ],
      "name": "NotContractOwner",
      "type": "error"
    },
    {
      "inputs": [
        {
          "internalType": "bytes32",
          "name": "role",
          "type": "bytes32"
        },
        {
          "internalType": "address",
          "name": "account",
          "type": "address"
        }
      ],
      "name": "NotRoleHolder",
      "type": "error"
    },
    {
      "inputs": [
        {
          "internalType": "uint256",
          "name": "expectedPhase",
          "type": "uint256"
        },
        {
          "internalType": "uint256",
          "name": "actualPhase",
          "type": "uint256"
        }
      ],
      "name": "OnlyDuringPhase",
      "type": "error"
    },
    {
      "inputs": [
        {
          "internalType": "uint256",
          "name": "phase",
          "type": "uint256"
        }
      ],
      "name": "SettingInvalidPhase",
      "type": "error"
    },
    {
      "inputs": [
        {
          "internalType": "uint256",
          "name": "recoverable",
          "type": "uint256"
        },
        {
          "internalType": "uint256",
          "name": "recovering",
          "type": "uint256"
        }
      ],
      "name": "UnrecoverableEDU",
      "type": "error"
    },
    {
      "inputs": [
        {
          "internalType": "address",
          "name": "user",
          "type": "address"
        }
      ],
      "name": "UserCreditsAlreadySet",
      "type": "error"
    },
    {
      "inputs": [],
      "name": "ZeroAddressPayoutWallet",
      "type": "error"
    },
    {
      "inputs": [],
      "name": "ZeroAddressUser",
      "type": "error"
    },
    {
      "inputs": [
        {
          "internalType": "address",
          "name": "spender",
          "type": "address"
        },
        {
          "internalType": "address",
          "name": "user",
          "type": "address"
        }
      ],
      "name": "ZeroSpendAmount",
      "type": "error"
    },
    {
      "inputs": [
        {
          "internalType": "address",
          "name": "user",
          "type": "address"
        }
      ],
      "name": "ZeroValueUnclaimedCredits",
      "type": "error"
    },
    {
      "anonymous": false,
      "inputs": [
        {
          "indexed": false,
          "internalType": "address",
          "name": "spender",
          "type": "address"
        },
        {
          "indexed": false,
          "internalType": "address",
          "name": "user",
          "type": "address"
        },
        {
          "indexed": false,
          "internalType": "uint256",
          "name": "bonusSpent",
          "type": "uint256"
        },
        {
          "indexed": false,
          "internalType": "uint256",
          "name": "unclaimedSpent",
          "type": "uint256"
        },
        {
          "indexed": false,
          "internalType": "uint256",
          "name": "depositedSpent",
          "type": "uint256"
        }
      ],
      "name": "CreditsSpent",
      "type": "event"
    },
    {
      "anonymous": false,
      "inputs": [
        {
          "indexed": false,
          "internalType": "address[]",
          "name": "users",
          "type": "address[]"
        },
        {
          "indexed": false,
          "internalType": "uint256[]",
          "name": "unclaimed",
          "type": "uint256[]"
        },
        {
          "indexed": false,
          "internalType": "uint256[]",
          "name": "bonus",
          "type": "uint256[]"
        },
        {
          "indexed": false,
          "internalType": "bool[]",
          "name": "diamondHands",
          "type": "bool[]"
        }
      ],
      "name": "InitialCreditsSet",
      "type": "event"
    },
    {
      "anonymous": false,
      "inputs": [
        {
          "indexed": true,
          "internalType": "address",
          "name": "previousOwner",
          "type": "address"
        },
        {
          "indexed": true,
          "internalType": "address",
          "name": "newOwner",
          "type": "address"
        }
      ],
      "name": "OwnershipTransferred",
      "type": "event"
    },
    {
      "anonymous": false,
      "inputs": [
        {
          "indexed": false,
          "internalType": "address",
          "name": "payoutWallet",
          "type": "address"
        }
      ],
      "name": "PayoutWalletSet",
      "type": "event"
    },
    {
      "anonymous": false,
      "inputs": [
        {
          "indexed": false,
          "internalType": "uint256",
          "name": "phase",
          "type": "uint256"
        }
      ],
      "name": "PhaseSet",
      "type": "event"
    },
    {
      "anonymous": false,
      "inputs": [
        {
          "indexed": false,
          "internalType": "bytes32",
          "name": "role",
          "type": "bytes32"
        },
        {
          "indexed": false,
          "internalType": "address",
          "name": "account",
          "type": "address"
        },
        {
          "indexed": false,
          "internalType": "address",
          "name": "operator",
          "type": "address"
        }
      ],
      "name": "RoleGranted",
      "type": "event"
    },
    {
      "anonymous": false,
      "inputs": [
        {
          "indexed": false,
          "internalType": "bytes32",
          "name": "role",
          "type": "bytes32"
        },
        {
          "indexed": false,
          "internalType": "address",
          "name": "account",
          "type": "address"
        },
        {
          "indexed": false,
          "internalType": "address",
          "name": "operator",
          "type": "address"
        }
      ],
      "name": "RoleRevoked",
      "type": "event"
    },
    {
      "inputs": [],
      "name": "DEPOSIT_PHASE",
      "outputs": [
        {
          "internalType": "uint256",
          "name": "",
          "type": "uint256"
        }
      ],
      "stateMutability": "view",
      "type": "function"
    },
    {
      "inputs": [],
      "name": "EDU_TOKEN",
      "outputs": [
        {
          "internalType": "contract IERC20",
          "name": "",
          "type": "address"
        }
      ],
      "stateMutability": "view",
      "type": "function"
    },
    {
      "inputs": [],
      "name": "INIT_PHASE",
      "outputs": [
        {
          "internalType": "uint256",
          "name": "",
          "type": "uint256"
        }
      ],
      "stateMutability": "view",
      "type": "function"
    },
    {
      "inputs": [],
      "name": "SALE_PHASE",
      "outputs": [
        {
          "internalType": "uint256",
          "name": "",
          "type": "uint256"
        }
      ],
      "stateMutability": "view",
      "type": "function"
    },
    {
      "inputs": [],
      "name": "SPENDER_ROLE",
      "outputs": [
        {
          "internalType": "bytes32",
          "name": "",
          "type": "bytes32"
        }
      ],
      "stateMutability": "view",
      "type": "function"
    },
    {
      "inputs": [],
      "name": "UNCLAIMED_EDU_HOLDER",
      "outputs": [
        {
          "internalType": "address",
          "name": "",
          "type": "address"
        }
      ],
      "stateMutability": "view",
      "type": "function"
    },
    {
      "inputs": [],
      "name": "WITHDRAW_PHASE",
      "outputs": [
        {
          "internalType": "uint256",
          "name": "",
          "type": "uint256"
        }
      ],
      "stateMutability": "view",
      "type": "function"
    },
    {
      "inputs": [
        {
          "internalType": "address",
          "name": "",
          "type": "address"
        }
      ],
      "name": "bonus",
      "outputs": [
        {
          "internalType": "uint256",
          "name": "",
          "type": "uint256"
        }
      ],
      "stateMutability": "view",
      "type": "function"
    },
    {
      "inputs": [],
      "name": "currentPhase",
      "outputs": [
        {
          "internalType": "uint256",
          "name": "",
          "type": "uint256"
        }
      ],
      "stateMutability": "view",
      "type": "function"
    },
    {
      "inputs": [
        {
          "internalType": "address",
          "name": "",
          "type": "address"
        }
      ],
      "name": "deposited",
      "outputs": [
        {
          "internalType": "uint256",
          "name": "",
          "type": "uint256"
        }
      ],
      "stateMutability": "view",
      "type": "function"
    },
    {
      "inputs": [
        {
          "internalType": "address",
          "name": "",
          "type": "address"
        }
      ],
      "name": "diamondHand",
      "outputs": [
        {
          "internalType": "bool",
          "name": "",
          "type": "bool"
        }
      ],
      "stateMutability": "view",
      "type": "function"
    },
    {
      "inputs": [],
      "name": "forwarderRegistry",
      "outputs": [
        {
          "internalType": "contract IForwarderRegistry",
          "name": "",
          "type": "address"
        }
      ],
      "stateMutability": "view",
      "type": "function"
    },
    {
      "inputs": [
        {
          "internalType": "bytes32",
          "name": "role",
          "type": "bytes32"
        },
        {
          "internalType": "address",
          "name": "account",
          "type": "address"
        }
      ],
      "name": "grantRole",
      "outputs": [],
      "stateMutability": "nonpayable",
      "type": "function"
    },
    {
      "inputs": [
        {
          "internalType": "bytes32",
          "name": "role",
          "type": "bytes32"
        },
        {
          "internalType": "address",
          "name": "account",
          "type": "address"
        }
      ],
      "name": "hasRole",
      "outputs": [
        {
          "internalType": "bool",
          "name": "hasRole_",
          "type": "bool"
        }
      ],
      "stateMutability": "view",
      "type": "function"
    },
    {
      "inputs": [
        {
          "internalType": "address",
          "name": "forwarder",
          "type": "address"
        }
      ],
      "name": "isTrustedForwarder",
      "outputs": [
        {
          "internalType": "bool",
          "name": "",
          "type": "bool"
        }
      ],
      "stateMutability": "view",
      "type": "function"
    },
    {
      "inputs": [
        {
          "internalType": "address",
          "name": "",
          "type": "address"
        },
        {
          "internalType": "address",
          "name": "from",
          "type": "address"
        },
        {
          "internalType": "uint256",
          "name": "value",
          "type": "uint256"
        },
        {
          "internalType": "bytes",
          "name": "",
          "type": "bytes"
        }
      ],
      "name": "onERC20Received",
      "outputs": [
        {
          "internalType": "bytes4",
          "name": "magicValue",
          "type": "bytes4"
        }
      ],
      "stateMutability": "nonpayable",
      "type": "function"
    },
    {
      "inputs": [],
      "name": "owner",
      "outputs": [
        {
          "internalType": "address",
          "name": "",
          "type": "address"
        }
      ],
      "stateMutability": "view",
      "type": "function"
    },
    {
      "inputs": [],
      "name": "payoutWallet",
      "outputs": [
        {
          "internalType": "address payable",
          "name": "wallet",
          "type": "address"
        }
      ],
      "stateMutability": "view",
      "type": "function"
    },
    {
      "inputs": [
        {
          "internalType": "address[]",
          "name": "accounts",
          "type": "address[]"
        },
        {
          "internalType": "contract IERC20[]",
          "name": "tokens",
          "type": "address[]"
        },
        {
          "internalType": "uint256[]",
          "name": "amounts",
          "type": "uint256[]"
        }
      ],
      "name": "recoverERC20s",
      "outputs": [],
      "stateMutability": "nonpayable",
      "type": "function"
    },
    {
      "inputs": [
        {
          "internalType": "address[]",
          "name": "accounts",
          "type": "address[]"
        },
        {
          "internalType": "contract IERC721[]",
          "name": "contracts",
          "type": "address[]"
        },
        {
          "internalType": "uint256[]",
          "name": "tokenIds",
          "type": "uint256[]"
        }
      ],
      "name": "recoverERC721s",
      "outputs": [],
      "stateMutability": "nonpayable",
      "type": "function"
    },
    {
      "inputs": [
        {
          "internalType": "address payable[]",
          "name": "accounts",
          "type": "address[]"
        },
        {
          "internalType": "uint256[]",
          "name": "amounts",
          "type": "uint256[]"
        }
      ],
      "name": "recoverETH",
      "outputs": [],
      "stateMutability": "nonpayable",
      "type": "function"
    },
    {
      "inputs": [
        {
          "internalType": "bytes32",
          "name": "role",
          "type": "bytes32"
        }
      ],
      "name": "renounceRole",
      "outputs": [],
      "stateMutability": "nonpayable",
      "type": "function"
    },
    {
      "inputs": [
        {
          "internalType": "bytes32",
          "name": "role",
          "type": "bytes32"
        },
        {
          "internalType": "address",
          "name": "account",
          "type": "address"
        }
      ],
      "name": "revokeRole",
      "outputs": [],
      "stateMutability": "nonpayable",
      "type": "function"
    },
    {
      "inputs": [
        {
          "internalType": "address[]",
          "name": "users",
          "type": "address[]"
        },
        {
          "internalType": "uint256[]",
          "name": "unclaimedCredits",
          "type": "uint256[]"
        },
        {
          "internalType": "uint256[]",
          "name": "bonusCredits",
          "type": "uint256[]"
        },
        {
          "internalType": "bool[]",
          "name": "diamondHands",
          "type": "bool[]"
        }
      ],
      "name": "setInitialCredits",
      "outputs": [],
      "stateMutability": "nonpayable",
      "type": "function"
    },
    {
      "inputs": [
        {
          "internalType": "address payable",
          "name": "newPayoutWallet",
          "type": "address"
        }
      ],
      "name": "setPayoutWallet",
      "outputs": [],
      "stateMutability": "nonpayable",
      "type": "function"
    },
    {
      "inputs": [
        {
          "internalType": "uint256",
          "name": "phase",
          "type": "uint256"
        }
      ],
      "name": "setPhase",
      "outputs": [],
      "stateMutability": "nonpayable",
      "type": "function"
    },
    {
      "inputs": [
        {
          "internalType": "address",
          "name": "user",
          "type": "address"
        },
        {
          "internalType": "uint256",
          "name": "amount",
          "type": "uint256"
        }
      ],
      "name": "spend",
      "outputs": [],
      "stateMutability": "nonpayable",
      "type": "function"
    },
    {
      "inputs": [
        {
          "internalType": "bytes4",
          "name": "interfaceId",
          "type": "bytes4"
        }
      ],
      "name": "supportsInterface",
      "outputs": [
        {
          "internalType": "bool",
          "name": "",
          "type": "bool"
        }
      ],
      "stateMutability": "view",
      "type": "function"
    },
    {
      "inputs": [],
      "name": "totalCredits",
      "outputs": [
        {
          "internalType": "uint256",
          "name": "",
          "type": "uint256"
        }
      ],
      "stateMutability": "view",
      "type": "function"
    },
    {
      "inputs": [],
      "name": "totalDeposited",
      "outputs": [
        {
          "internalType": "uint256",
          "name": "",
          "type": "uint256"
        }
      ],
      "stateMutability": "view",
      "type": "function"
    },
    {
      "inputs": [
        {
          "internalType": "address",
          "name": "newOwner",
          "type": "address"
        }
      ],
      "name": "transferOwnership",
      "outputs": [],
      "stateMutability": "nonpayable",
      "type": "function"
    },
    {
      "inputs": [
        {
          "internalType": "address",
          "name": "",
          "type": "address"
        }
      ],
      "name": "unclaimed",
      "outputs": [
        {
          "internalType": "uint256",
          "name": "",
          "type": "uint256"
        }
      ],
      "stateMutability": "view",
      "type": "function"
    },
    {
      "inputs": [
        {
          "internalType": "address",
          "name": "account",
          "type": "address"
        }
      ],
      "name": "userCredits",
      "outputs": [
        {
          "components": [
            {
              "internalType": "uint256",
              "name": "unclaimed",
              "type": "uint256"
            },
            {
              "internalType": "uint256",
              "name": "bonus",
              "type": "uint256"
            },
            {
              "internalType": "uint256",
              "name": "deposited",
              "type": "uint256"
            },
            {
              "internalType": "bool",
              "name": "diamondHand",
              "type": "bool"
            }
          ],
          "internalType": "struct EDUCreditsManager.UserCredits",
          "name": "credits",
          "type": "tuple"
        }
      ],
      "stateMutability": "view",
      "type": "function"
    },
    {
      "inputs": [],
      "name": "withdraw",
      "outputs": [],
      "stateMutability": "nonpayable",
      "type": "function"
    }
  ],
  "bytecode": "0x60e0604052600080553480156200001557600080fd5b5060405162003045380380620030458339810160408190526200003891620002e7565b8080843362000052816200004b620000e2565b9062000118565b506200006981620000626200018b565b90620001bb565b506200008a634fc3585960e01b600162000082620001c7565b9190620001f7565b6001600160a01b0390811660805285811660a052831660c05250604051600081527f63dd78a2037d9ff47ab1e6cf980c9d036bb47de0b5812d2203bfa833f35e0a189060200160405180910390a15050505062000371565b6000806200011260017fc9ed16f33ab3a66c84bfd83099ccb2a8845871e2e1c1928f63797152f0fd54cd6200034f565b92915050565b6001600160a01b038116156200016f5781546001600160a01b0319166001600160a01b03821690811783556040516000907f8be0079c531659141344cd1fd0a4f28419497f9722a3daafe3b4186f6b6457e0908290a35b620001876307f5828d60e41b600162000082620001c7565b5050565b6000806200011260017f4fb5f8cdfbce77f22b0931a39e9f476a60a0f66524b2f379e96485471eb700ae6200034f565b62000187828262000254565b6000806200011260017fca9d3e17f264b0f3984e2634e94adb37fa3e6a8103f06aeae6fa59e21c769f5e6200034f565b600160e01b6001600160e01b031983160162000226576040516372c683bb60e01b815260040160405180910390fd5b6001600160e01b03199190911660009081526020929092526040909120805460ff1916911515919091179055565b6001600160a01b0381166200027c576040516340b539cf60e01b815260040160405180910390fd5b81546001600160a01b0319166001600160a01b03821690811783556040519081527fdd880d24a789958a6398c99c2e54ce31bc10a638cbc42f7dd34285479ae0f8559060200160405180910390a15050565b6001600160a01b0381168114620002e457600080fd5b50565b60008060008060808587031215620002fe57600080fd5b84516200030b81620002ce565b60208601519094506200031e81620002ce565b60408601519093506200033181620002ce565b60608601519092506200034481620002ce565b939692955090935050565b818103818111156200011257634e487b7160e01b600052601160045260246000fd5b60805160a05160c051612c65620003e0600039600081816103bd0152610802015260008181610431015281816108390152818161096101528181610e8101528181610f0601526114560152600081816102bc015281816103ef0152818161213701526121bf0152612c656000f3fe608060405234801561001057600080fd5b50600436106102265760003560e01c806373c8a9581161012a578063af7d6ca3116100bd578063d547741f1161008c578063f2fde38b11610071578063f2fde38b14610583578063f7ba94bd14610596578063ff50abdc146105a957600080fd5b8063d547741f14610550578063d8cb4aa31461056357600080fd5b8063af7d6ca314610501578063b5bd3eb914610514578063c3666c361461051d578063cb13cddb1461053057600080fd5b80638da5cb5b116100f95780638da5cb5b146104d65780638de17b74146104de57806391d14854146104e6578063ad6b333b146104f957600080fd5b806373c8a958146104a05780638488bb4e146104b35780638b785d49146104bb5780638bb9c5bf146104c357600080fd5b80634fc35859116101bd578063572b6c051161018c578063687f34e011610171578063687f34e0146104535780636b8f9c431461046657806372c16a241461047957600080fd5b8063572b6c05146103df5780635df2dcbc1461042c57600080fd5b80634fc3585914610331578063505bd3da14610375578063508fc9051461039557806351887302146103b857600080fd5b80632b4c9f16116101f95780632b4c9f16146102ba5780632cc82655146103015780632f2ff15d146103165780633ccfd60b1461032957600080fd5b806301ffc9a71461022b578063055ad42e14610253578063148c2b5a1461026a57806320babb9214610272575b600080fd5b61023e6102393660046125c2565b6105b2565b60405190151581526020015b60405180910390f35b61025c60005481565b60405190815260200161024a565b61025c600281565b610285610280366004612626565b6105cc565b60405161024a919081518152602080830151908201526040808301519082015260609182015115159181019190915260800190565b7f00000000000000000000000000000000000000000000000000000000000000005b60405173ffffffffffffffffffffffffffffffffffffffff909116815260200161024a565b61031461030f366004612643565b610663565b005b61031461032436600461265c565b6106fb565b61031461072e565b61034461033f36600461268c565b6109d4565b6040517fffffffff00000000000000000000000000000000000000000000000000000000909116815260200161024a565b61025c610383366004612626565b60016020526000908152604090205481565b61023e6103a3366004612626565b60046020526000908152604090205460ff1681565b6102dc7f000000000000000000000000000000000000000000000000000000000000000081565b61023e6103ed366004612626565b7f000000000000000000000000000000000000000000000000000000000000000073ffffffffffffffffffffffffffffffffffffffff90811691161490565b6102dc7f000000000000000000000000000000000000000000000000000000000000000081565b610314610461366004612777565b610ab7565b610314610474366004612626565b610e17565b61025c7f7370656e6465720000000000000000000000000000000000000000000000000081565b6103146104ae36600461283b565b610e37565b6102dc611009565b61025c600381565b6103146104d1366004612643565b611035565b6102dc611050565b61025c600081565b61023e6104f436600461265c565b61105d565b61025c600181565b61031461050f3660046128d5565b6110a8565b61025c60055481565b61031461052b36600461283b565b61158b565b61025c61053e366004612626565b60036020526000908152604090205481565b61031461055e36600461265c565b611703565b61025c610571366004612626565b60026020526000908152604090205481565b610314610591366004612626565b611731565b6103146105a4366004612901565b61174c565b61025c60065481565b60006105c6826105c061180b565b90611839565b92915050565b6105f960405180608001604052806000815260200160008152602001600081526020016000151581525090565b506040805160808101825273ffffffffffffffffffffffffffffffffffffffff9092166000818152600160209081528382205485528282526002815283822054818601528282526003815283822054858501529181526004909152205460ff161515606082015290565b61067c61066e611913565b61067661191d565b9061194b565b60038111156106bf576040517f96666719000000000000000000000000000000000000000000000000000000008152600481018290526024015b60405180910390fd5b6000819055604051600181527f63dd78a2037d9ff47ab1e6cf980c9d036bb47de0b5812d2203bfa833f35e0a189060200160405180910390a150565b6000610705611913565b90506107138161067661191d565b6107298383836107216119ba565b9291906119e8565b505050565b600360005414610778576000546040517f7c9bb6630000000000000000000000000000000000000000000000000000000081526003600482015260248101919091526044016106b6565b6000610782611913565b73ffffffffffffffffffffffffffffffffffffffff811660009081526001602052604090205490915080156108aa5773ffffffffffffffffffffffffffffffffffffffff82811660008181526001602052604080822091909155517f23b872dd0000000000000000000000000000000000000000000000000000000081527f0000000000000000000000000000000000000000000000000000000000000000831660048201526024810191909152604481018390527f0000000000000000000000000000000000000000000000000000000000000000909116906323b872dd906064016020604051808303816000875af1158015610884573d6000803e3d6000fd5b505050506040513d601f19601f820116820180604052508101906108a8919061297b565b505b73ffffffffffffffffffffffffffffffffffffffff821660009081526003602052604090205480156107295773ffffffffffffffffffffffffffffffffffffffff83166000908152600360205260408120819055600680548392906109109084906129c7565b90915550506040517fa9059cbb00000000000000000000000000000000000000000000000000000000815273ffffffffffffffffffffffffffffffffffffffff8481166004830152602482018390527f0000000000000000000000000000000000000000000000000000000000000000169063a9059cbb906044016020604051808303816000875af11580156109aa573d6000803e3d6000fd5b505050506040513d601f19601f820116820180604052508101906109ce919061297b565b50505050565b6000600160005414610a20576000546040517f7c9bb6630000000000000000000000000000000000000000000000000000000081526001600482015260248101919091526044016106b6565b73ffffffffffffffffffffffffffffffffffffffff851660009081526003602052604081208054869290610a559084906129da565b925050819055508360066000828254610a6e91906129da565b925050819055508360056000828254610a8791906129da565b909155507f4fc3585900000000000000000000000000000000000000000000000000000000979650505050505050565b868581141580610ac75750808414155b80610ad25750808214155b15610b09576040517f6582533600000000000000000000000000000000000000000000000000000000815260040160405180910390fd5b60005415610b5057600080546040517f7c9bb663000000000000000000000000000000000000000000000000000000008152600481019290925260248201526044016106b6565b610b5b61066e611913565b60005b818114610dc65760008a8a83818110610b7957610b796129ed565b9050602002016020810190610b8e9190612626565b905073ffffffffffffffffffffffffffffffffffffffff8116610bdd576040517f9c89d57f00000000000000000000000000000000000000000000000000000000815260040160405180910390fd5b6000898984818110610bf157610bf16129ed565b90506020020135905080600003610c4c576040517fd49c192700000000000000000000000000000000000000000000000000000000815273ffffffffffffffffffffffffffffffffffffffff831660048201526024016106b6565b73ffffffffffffffffffffffffffffffffffffffff82166000908152600160205260409020548015610cc2576040517f6dbaa9b400000000000000000000000000000000000000000000000000000000815273ffffffffffffffffffffffffffffffffffffffff841660048201526024016106b6565b6000898986818110610cd657610cd66129ed565b73ffffffffffffffffffffffffffffffffffffffff87166000908152600160209081526040808320899055600282529091209102929092013591829055509050878786818110610d2857610d286129ed565b9050602002016020810190610d3d9190612a1c565b73ffffffffffffffffffffffffffffffffffffffff8516600090815260046020526040902080547fffffffffffffffffffffffffffffffffffffffffffffffffffffffffffffff0016911515919091179055610d9981846129da565b60056000828254610daa91906129da565b925050819055505050505080610dbf90612a39565b9050610b5e565b507f44fbb8621bc7a734e344e0d7f6b84824cf97e0d8d611f9f8502e42ff0b1dee438989898989898989604051610e04989796959493929190612abc565b60405180910390a1505050505050505050565b610e2261066e611913565b610e3481610e2e611ab4565b90611ae2565b50565b6006546040517f70a082310000000000000000000000000000000000000000000000000000000081523060048201526000919073ffffffffffffffffffffffffffffffffffffffff7f000000000000000000000000000000000000000000000000000000000000000016906370a0823190602401602060405180830381865afa158015610ec8573d6000803e3d6000fd5b505050506040513d601f19601f82011682018060405250810190610eec9190612b85565b610ef691906129c7565b90506000805b85811015610fac577f000000000000000000000000000000000000000000000000000000000000000073ffffffffffffffffffffffffffffffffffffffff16878783818110610f4d57610f4d6129ed565b9050602002016020810190610f629190612626565b73ffffffffffffffffffffffffffffffffffffffff1603610fa457848482818110610f8f57610f8f6129ed565b9050602002013582610fa191906129da565b91505b600101610efc565b5081811115610ff1576040517f7ce4d19d00000000000000000000000000000000000000000000000000000000815260048101839052602481018290526044016106b6565b610fff888888888888611ba6565b5050505050505050565b6000611030611016611ab4565b5473ffffffffffffffffffffffffffffffffffffffff1690565b905090565b610e34611040611913565b826110496119ba565b9190611c92565b600061103061101661191d565b60006110a1838361106c6119ba565b60009283526020908152604080842073ffffffffffffffffffffffffffffffffffffffff909316845291905290205460ff1690565b9392505050565b60006110b2611913565b90508160000361110e576040517f09bc7f2b00000000000000000000000000000000000000000000000000000000815273ffffffffffffffffffffffffffffffffffffffff8083166004830152841660248201526044016106b6565b600260005414611158576000546040517f7c9bb6630000000000000000000000000000000000000000000000000000000081526002600482015260248101919091526044016106b6565b61118c7f7370656e64657200000000000000000000000000000000000000000000000000826111856119ba565b9190611d36565b73ffffffffffffffffffffffffffffffffffffffff8316600090815260026020526040902054801561127f5782811061124c576111c983826129c7565b73ffffffffffffffffffffffffffffffffffffffff858116600081815260026020908152604080832095909555845193871684528301919091529181018590526060810182905260808101919091527fc8832e1605166eecba94f0e3919e05a79787269b7b9f7e7b9766b187b44a7e899060a0015b60405180910390a150505050565b73ffffffffffffffffffffffffffffffffffffffff841660009081526002602052604081205561127c81846129c7565b92505b73ffffffffffffffffffffffffffffffffffffffff8416600090815260016020526040902054801561136e5783811061133b576112bc84826129c7565b73ffffffffffffffffffffffffffffffffffffffff8681166000818152600160209081526040808320959095558451938816845283019190915281830185905260608201879052608082015290517fc8832e1605166eecba94f0e3919e05a79787269b7b9f7e7b9766b187b44a7e899181900360a00190a15050505050565b73ffffffffffffffffffffffffffffffffffffffff851660009081526001602052604081205561136b81856129c7565b93505b73ffffffffffffffffffffffffffffffffffffffff8516600090815260036020526040902054848110156113f5576040517f1734392500000000000000000000000000000000000000000000000000000000815273ffffffffffffffffffffffffffffffffffffffff808616600483015287166024820152604481018690526064016106b6565b6113ff85826129c7565b73ffffffffffffffffffffffffffffffffffffffff87166000908152600360205260408120919091556006805487929061143a9084906129c7565b909155505073ffffffffffffffffffffffffffffffffffffffff7f00000000000000000000000000000000000000000000000000000000000000001663a9059cbb611486611016611ab4565b6040517fffffffff0000000000000000000000000000000000000000000000000000000060e084901b16815273ffffffffffffffffffffffffffffffffffffffff9091166004820152602481018890526044016020604051808303816000875af11580156114f8573d6000803e3d6000fd5b505050506040513d601f19601f8201168201806040525081019061151c919061297b565b506040805173ffffffffffffffffffffffffffffffffffffffff80871682528816602082015290810184905260608101839052608081018690527fc8832e1605166eecba94f0e3919e05a79787269b7b9f7e7b9766b187b44a7e899060a00160405180910390a1505050505050565b61159661066e611913565b8483811415806115a65750808214155b156115dd576040517f6582533600000000000000000000000000000000000000000000000000000000815260040160405180910390fd5b60005b81811015610fff578585828181106115fa576115fa6129ed565b905060200201602081019061160f9190612626565b73ffffffffffffffffffffffffffffffffffffffff166323b872dd308a8a8581811061163d5761163d6129ed565b90506020020160208101906116529190612626565b878786818110611664576116646129ed565b6040517fffffffff0000000000000000000000000000000000000000000000000000000060e088901b16815273ffffffffffffffffffffffffffffffffffffffff958616600482015294909316602485015250602090910201356044820152606401600060405180830381600087803b1580156116e057600080fd5b505af11580156116f4573d6000803e3d6000fd5b505050508060010190506115e0565b600061170d611913565b905061171b8161067661191d565b6107298383836117296119ba565b929190611dbc565b610e3461173c611913565b8261174561191d565b9190611e86565b61175761066e611913565b82818114611791576040517f6582533600000000000000000000000000000000000000000000000000000000815260040160405180910390fd5b60005b81811015611803576117fb8484838181106117b1576117b16129ed565b905060200201358787848181106117ca576117ca6129ed565b90506020020160208101906117df9190612626565b73ffffffffffffffffffffffffffffffffffffffff1690611f9a565b600101611794565b505050505050565b6000806105c660017fca9d3e17f264b0f3984e2634e94adb37fa3e6a8103f06aeae6fa59e21c769f5e6129c7565b60007c01000000000000000000000000000000000000000000000000000000007fffffffff00000000000000000000000000000000000000000000000000000000831601611889575060006105c6565b7ffe003659000000000000000000000000000000000000000000000000000000007fffffffff000000000000000000000000000000000000000000000000000000008316016118da575060016105c6565b507fffffffff00000000000000000000000000000000000000000000000000000000166000908152602091909152604090205460ff1690565b60006110306120f4565b6000806105c660017fc9ed16f33ab3a66c84bfd83099ccb2a8845871e2e1c1928f63797152f0fd54cd6129c7565b815473ffffffffffffffffffffffffffffffffffffffff8281169116146119b6576040517f2ef4875e00000000000000000000000000000000000000000000000000000000815273ffffffffffffffffffffffffffffffffffffffff821660048201526024016106b6565b5050565b6000806105c660017fc8827d3282af6f37b64c3e9e6f3ac9df286ab0bb0fccd6f8661bf19adb368b236129c7565b60008381526020858152604080832073ffffffffffffffffffffffffffffffffffffffff8616845290915290205460ff166109ce5760008381526020858152604080832073ffffffffffffffffffffffffffffffffffffffff8681168086529184529382902080547fffffffffffffffffffffffffffffffffffffffffffffffffffffffffffffff00166001179055815187815292830152918316918101919091527f2f8788117e7eff1d82e926ec794901d17c78024a50270940304540a733656f0d9060600161123e565b6000806105c660017f4fb5f8cdfbce77f22b0931a39e9f476a60a0f66524b2f379e96485471eb700ae6129c7565b73ffffffffffffffffffffffffffffffffffffffff8116611b2f576040517f40b539cf00000000000000000000000000000000000000000000000000000000815260040160405180910390fd5b81547fffffffffffffffffffffffff00000000000000000000000000000000000000001673ffffffffffffffffffffffffffffffffffffffff821690811783556040519081527fdd880d24a789958a6398c99c2e54ce31bc10a638cbc42f7dd34285479ae0f8559060200160405180910390a15050565b611bb161066e611913565b848381141580611bc15750808214155b15611bf8576040517f6582533600000000000000000000000000000000000000000000000000000000815260040160405180910390fd5b60005b81811015610fff57611c8a888883818110611c1857611c186129ed565b9050602002016020810190611c2d9190612626565b858584818110611c3f57611c3f6129ed565b90506020020135888885818110611c5857611c586129ed565b9050602002016020810190611c6d9190612626565b73ffffffffffffffffffffffffffffffffffffffff16919061223b565b600101611bfb565b611c9d838284611d36565b60008181526020848152604080832073ffffffffffffffffffffffffffffffffffffffff86168085529083529281902080547fffffffffffffffffffffffffffffffffffffffffffffffffffffffffffffff0016905580518481529182018390528101919091527ff6391f5c32d9c69d2a47ea670b442974b53935d1edc7fd64eb21e047a839171b9060600160405180910390a1505050565b60008281526020848152604080832073ffffffffffffffffffffffffffffffffffffffff8516845290915290205460ff16610729576040517f7aa728820000000000000000000000000000000000000000000000000000000081526004810183905273ffffffffffffffffffffffffffffffffffffffff821660248201526044016106b6565b60008381526020858152604080832073ffffffffffffffffffffffffffffffffffffffff8616845290915290205460ff16156109ce5760008381526020858152604080832073ffffffffffffffffffffffffffffffffffffffff8681168086529184529382902080547fffffffffffffffffffffffffffffffffffffffffffffffffffffffffffffff00169055815187815292830152918316918101919091527ff6391f5c32d9c69d2a47ea670b442974b53935d1edc7fd64eb21e047a839171b9060600161123e565b825473ffffffffffffffffffffffffffffffffffffffff9081169083168114611ef3576040517f2ef4875e00000000000000000000000000000000000000000000000000000000815273ffffffffffffffffffffffffffffffffffffffff841660048201526024016106b6565b8173ffffffffffffffffffffffffffffffffffffffff168173ffffffffffffffffffffffffffffffffffffffff16146109ce5783547fffffffffffffffffffffffff00000000000000000000000000000000000000001673ffffffffffffffffffffffffffffffffffffffff8381169182178655604051908316907f8be0079c531659141344cd1fd0a4f28419497f9722a3daafe3b4186f6b6457e090600090a350505050565b80471015612004576040517f08c379a000000000000000000000000000000000000000000000000000000000815260206004820152601d60248201527f416464726573733a20696e73756666696369656e742062616c616e636500000060448201526064016106b6565b60008273ffffffffffffffffffffffffffffffffffffffff168260405160006040518083038185875af1925050503d806000811461205e576040519150601f19603f3d011682016040523d82523d6000602084013e612063565b606091505b5050905080610729576040517f08c379a000000000000000000000000000000000000000000000000000000000815260206004820152603a60248201527f416464726573733a20756e61626c6520746f2073656e642076616c75652c207260448201527f6563697069656e74206d6179206861766520726576657274656400000000000060648201526084016106b6565b6000333214806121045750601836105b1561210e57503390565b7fffffffffffffffffffffffffffffffffffffffffffffffffffffffffffffffec36013560601c7f000000000000000000000000000000000000000000000000000000000000000073ffffffffffffffffffffffffffffffffffffffff1633148061222a57506040517f8929a8ca00000000000000000000000000000000000000000000000000000000815273ffffffffffffffffffffffffffffffffffffffff82811660048301523360248301527f00000000000000000000000000000000000000000000000000000000000000001690638929a8ca90604401602060405180830381865afa158015612206573d6000803e3d6000fd5b505050506040513d601f19601f8201168201806040525081019061222a919061297b565b1561223457919050565b3391505090565b6040805173ffffffffffffffffffffffffffffffffffffffff848116602483015260448083018590528351808403909101815260649092018352602080830180517bffffffffffffffffffffffffffffffffffffffffffffffffffffffff167fa9059cbb0000000000000000000000000000000000000000000000000000000017905283518085019094528084527f5361666545524332303a206c6f772d6c6576656c2063616c6c206661696c656490840152610729928692916000916123069185169084906123b3565b9050805160001480612327575080806020019051810190612327919061297b565b610729576040517f08c379a000000000000000000000000000000000000000000000000000000000815260206004820152602a60248201527f5361666545524332303a204552433230206f7065726174696f6e20646964206e60448201527f6f7420737563636565640000000000000000000000000000000000000000000060648201526084016106b6565b60606123c284846000856123ca565b949350505050565b60608247101561245c576040517f08c379a000000000000000000000000000000000000000000000000000000000815260206004820152602660248201527f416464726573733a20696e73756666696369656e742062616c616e636520666f60448201527f722063616c6c000000000000000000000000000000000000000000000000000060648201526084016106b6565b6000808673ffffffffffffffffffffffffffffffffffffffff1685876040516124859190612bc2565b60006040518083038185875af1925050503d80600081146124c2576040519150601f19603f3d011682016040523d82523d6000602084013e6124c7565b606091505b50915091506124d8878383876124e3565b979650505050505050565b606083156125795782516000036125725773ffffffffffffffffffffffffffffffffffffffff85163b612572576040517f08c379a000000000000000000000000000000000000000000000000000000000815260206004820152601d60248201527f416464726573733a2063616c6c20746f206e6f6e2d636f6e747261637400000060448201526064016106b6565b50816123c2565b6123c2838381511561258e5781518083602001fd5b806040517f08c379a00000000000000000000000000000000000000000000000000000000081526004016106b69190612bde565b6000602082840312156125d457600080fd5b81357fffffffff00000000000000000000000000000000000000000000000000000000811681146110a157600080fd5b73ffffffffffffffffffffffffffffffffffffffff81168114610e3457600080fd5b60006020828403121561263857600080fd5b81356110a181612604565b60006020828403121561265557600080fd5b5035919050565b6000806040838503121561266f57600080fd5b82359150602083013561268181612604565b809150509250929050565b6000806000806000608086880312156126a457600080fd5b85356126af81612604565b945060208601356126bf81612604565b935060408601359250606086013567ffffffffffffffff808211156126e357600080fd5b818801915088601f8301126126f757600080fd5b81358181111561270657600080fd5b89602082850101111561271857600080fd5b9699959850939650602001949392505050565b60008083601f84011261273d57600080fd5b50813567ffffffffffffffff81111561275557600080fd5b6020830191508360208260051b850101111561277057600080fd5b9250929050565b6000806000806000806000806080898b03121561279357600080fd5b883567ffffffffffffffff808211156127ab57600080fd5b6127b78c838d0161272b565b909a50985060208b01359150808211156127d057600080fd5b6127dc8c838d0161272b565b909850965060408b01359150808211156127f557600080fd5b6128018c838d0161272b565b909650945060608b013591508082111561281a57600080fd5b506128278b828c0161272b565b999c989b5096995094979396929594505050565b6000806000806000806060878903121561285457600080fd5b863567ffffffffffffffff8082111561286c57600080fd5b6128788a838b0161272b565b9098509650602089013591508082111561289157600080fd5b61289d8a838b0161272b565b909650945060408901359150808211156128b657600080fd5b506128c389828a0161272b565b979a9699509497509295939492505050565b600080604083850312156128e857600080fd5b82356128f381612604565b946020939093013593505050565b6000806000806040858703121561291757600080fd5b843567ffffffffffffffff8082111561292f57600080fd5b61293b8883890161272b565b9096509450602087013591508082111561295457600080fd5b506129618782880161272b565b95989497509550505050565b8015158114610e3457600080fd5b60006020828403121561298d57600080fd5b81516110a18161296d565b7f4e487b7100000000000000000000000000000000000000000000000000000000600052601160045260246000fd5b818103818111156105c6576105c6612998565b808201808211156105c6576105c6612998565b7f4e487b7100000000000000000000000000000000000000000000000000000000600052603260045260246000fd5b600060208284031215612a2e57600080fd5b81356110a18161296d565b60007fffffffffffffffffffffffffffffffffffffffffffffffffffffffffffffffff8203612a6a57612a6a612998565b5060010190565b81835260007f07ffffffffffffffffffffffffffffffffffffffffffffffffffffffffffffff831115612aa357600080fd5b8260051b80836020870137939093016020019392505050565b6080808252810188905260008960a08301825b8b811015612b0c578235612ae281612604565b73ffffffffffffffffffffffffffffffffffffffff16825260209283019290910190600101612acf565b50602091508381036020850152612b24818a8c612a71565b90508381036040850152612b3981888a612a71565b848103606086015285815286915060200160005b86811015612b74578235612b608161296d565b151582529183019190830190600101612b4d565b509c9b505050505050505050505050565b600060208284031215612b9757600080fd5b5051919050565b60005b83811015612bb9578181015183820152602001612ba1565b50506000910152565b60008251612bd4818460208701612b9e565b9190910192915050565b6020815260008251806020840152612bfd816040850160208701612b9e565b601f017fffffffffffffffffffffffffffffffffffffffffffffffffffffffffffffffe016919091016040019291505056fea26469706673582212206529949084171b8b2cf4f4b7f0f88899ce61f77ceb9af6cda9205202fa74329164736f6c63430008160033",
  "linkReferences": {},
  "deployedLinkReferences": {}
}