{
  "_format": "hh-sol-artifact-1",
  "contractName": "EDULandRewardsKYCController",
  "sourceName": "contracts/land/EDULandRewardsKYCController.sol",
  "abi": [
    {
      "inputs": [
        {
          "internalType": "address",
          "name": "messageSigner_",
          "type": "address"
        },
        {
          "internalType": "contract IEDULandRewards",
          "name": "eduLandRewards",
          "type": "address"
        },
        {
          "internalType": "contract IForwarderRegistry",
          "name": "forwarderRegistry",
          "type": "address"
        }
      ],
      "stateMutability": "nonpayable",
      "type": "constructor"
    },
    {
      "inputs": [
        {
          "internalType": "address",
          "name": "wallet",
          "type": "address"
        },
        {
          "internalType": "uint256",
          "name": "expireAt",
          "type": "uint256"
        },
        {
          "internalType": "bytes",
          "name": "signature",
          "type": "bytes"
        }
      ],
      "name": "ExpiredSignature",
      "type": "error"
    },
    {
      "inputs": [],
      "name": "IllegalInterfaceId",
      "type": "error"
    },
    {
      "inputs": [],
      "name": "InvalidShortString",
      "type": "error"
    },
    {
      "inputs": [
        {
          "internalType": "address",
          "name": "wallet",
          "type": "address"
        },
        {
          "internalType": "uint256",
          "name": "expireAt",
          "type": "uint256"
        },
        {
          "internalType": "bytes",
          "name": "signature",
          "type": "bytes"
        }
      ],
      "name": "InvalidSignature",
      "type": "error"
    },
    {
      "inputs": [
        {
          "internalType": "address",
          "name": "account",
          "type": "address"
        }
      ],
      "name": "NotContractOwner",
      "type": "error"
    },
    {
      "inputs": [
        {
          "internalType": "bytes32",
          "name": "role",
          "type": "bytes32"
        },
        {
          "internalType": "address",
          "name": "account",
          "type": "address"
        }
      ],
      "name": "NotRoleHolder",
      "type": "error"
    },
    {
      "inputs": [
        {
          "internalType": "string",
          "name": "str",
          "type": "string"
        }
      ],
      "name": "StringTooLong",
      "type": "error"
    },
    {
      "anonymous": false,
      "inputs": [],
      "name": "EIP712DomainChanged",
      "type": "event"
    },
    {
      "anonymous": false,
      "inputs": [
        {
          "indexed": false,
          "internalType": "address[]",
          "name": "wallets",
          "type": "address[]"
        }
      ],
      "name": "KycWalletsAdded",
      "type": "event"
    },
    {
      "anonymous": false,
      "inputs": [
        {
          "indexed": false,
          "internalType": "address[]",
          "name": "wallets",
          "type": "address[]"
        }
      ],
      "name": "KycWalletsRemoved",
      "type": "event"
    },
    {
      "anonymous": false,
      "inputs": [
        {
          "indexed": false,
          "internalType": "address",
          "name": "messageSigner",
          "type": "address"
        }
      ],
      "name": "MessageSignerSet",
      "type": "event"
    },
    {
      "anonymous": false,
      "inputs": [
        {
          "indexed": true,
          "internalType": "address",
          "name": "previousOwner",
          "type": "address"
        },
        {
          "indexed": true,
          "internalType": "address",
          "name": "newOwner",
          "type": "address"
        }
      ],
      "name": "OwnershipTransferred",
      "type": "event"
    },
    {
      "anonymous": false,
      "inputs": [
        {
          "indexed": false,
          "internalType": "bytes32",
          "name": "role",
          "type": "bytes32"
        },
        {
          "indexed": false,
          "internalType": "address",
          "name": "account",
          "type": "address"
        },
        {
          "indexed": false,
          "internalType": "address",
          "name": "operator",
          "type": "address"
        }
      ],
      "name": "RoleGranted",
      "type": "event"
    },
    {
      "anonymous": false,
      "inputs": [
        {
          "indexed": false,
          "internalType": "bytes32",
          "name": "role",
          "type": "bytes32"
        },
        {
          "indexed": false,
          "internalType": "address",
          "name": "account",
          "type": "address"
        },
        {
          "indexed": false,
          "internalType": "address",
          "name": "operator",
          "type": "address"
        }
      ],
      "name": "RoleRevoked",
      "type": "event"
    },
    {
      "inputs": [],
      "name": "EDU_LAND_REWARDS",
      "outputs": [
        {
          "internalType": "contract IEDULandRewards",
          "name": "",
          "type": "address"
        }
      ],
      "stateMutability": "view",
      "type": "function"
    },
    {
      "inputs": [],
      "name": "OPERATOR_ROLE",
      "outputs": [
        {
          "internalType": "bytes32",
          "name": "",
          "type": "bytes32"
        }
      ],
      "stateMutability": "view",
      "type": "function"
    },
    {
      "inputs": [
        {
          "internalType": "address",
          "name": "wallet",
          "type": "address"
        },
        {
          "internalType": "uint256",
          "name": "expireAt",
          "type": "uint256"
        },
        {
          "internalType": "bytes",
          "name": "signature",
          "type": "bytes"
        }
      ],
      "name": "addKycWallet",
      "outputs": [],
      "stateMutability": "nonpayable",
      "type": "function"
    },
    {
      "inputs": [
        {
          "internalType": "address[]",
          "name": "wallets",
          "type": "address[]"
        }
      ],
      "name": "addKycWallets",
      "outputs": [],
      "stateMutability": "nonpayable",
      "type": "function"
    },
    {
      "inputs": [],
      "name": "eip712Domain",
      "outputs": [
        {
          "internalType": "bytes1",
          "name": "fields",
          "type": "bytes1"
        },
        {
          "internalType": "string",
          "name": "name",
          "type": "string"
        },
        {
          "internalType": "string",
          "name": "version",
          "type": "string"
        },
        {
          "internalType": "uint256",
          "name": "chainId",
          "type": "uint256"
        },
        {
          "internalType": "address",
          "name": "verifyingContract",
          "type": "address"
        },
        {
          "internalType": "bytes32",
          "name": "salt",
          "type": "bytes32"
        },
        {
          "internalType": "uint256[]",
          "name": "extensions",
          "type": "uint256[]"
        }
      ],
      "stateMutability": "view",
      "type": "function"
    },
    {
      "inputs": [],
      "name": "forwarderRegistry",
      "outputs": [
        {
          "internalType": "contract IForwarderRegistry",
          "name": "",
          "type": "address"
        }
      ],
      "stateMutability": "view",
      "type": "function"
    },
    {
      "inputs": [
        {
          "internalType": "bytes32",
          "name": "role",
          "type": "bytes32"
        },
        {
          "internalType": "address",
          "name": "account",
          "type": "address"
        }
      ],
      "name": "grantRole",
      "outputs": [],
      "stateMutability": "nonpayable",
      "type": "function"
    },
    {
      "inputs": [
        {
          "internalType": "bytes32",
          "name": "role",
          "type": "bytes32"
        },
        {
          "internalType": "address",
          "name": "account",
          "type": "address"
        }
      ],
      "name": "hasRole",
      "outputs": [
        {
          "internalType": "bool",
          "name": "hasRole_",
          "type": "bool"
        }
      ],
      "stateMutability": "view",
      "type": "function"
    },
    {
      "inputs": [
        {
          "internalType": "address",
          "name": "forwarder",
          "type": "address"
        }
      ],
      "name": "isTrustedForwarder",
      "outputs": [
        {
          "internalType": "bool",
          "name": "",
          "type": "bool"
        }
      ],
      "stateMutability": "view",
      "type": "function"
    },
    {
      "inputs": [],
      "name": "messageSigner",
      "outputs": [
        {
          "internalType": "address",
          "name": "",
          "type": "address"
        }
      ],
      "stateMutability": "view",
      "type": "function"
    },
    {
      "inputs": [],
      "name": "owner",
      "outputs": [
        {
          "internalType": "address",
          "name": "",
          "type": "address"
        }
      ],
      "stateMutability": "view",
      "type": "function"
    },
    {
      "inputs": [
        {
          "internalType": "address[]",
          "name": "wallets",
          "type": "address[]"
        }
      ],
      "name": "removeKycWallets",
      "outputs": [],
      "stateMutability": "nonpayable",
      "type": "function"
    },
    {
      "inputs": [
        {
          "internalType": "bytes32",
          "name": "role",
          "type": "bytes32"
        }
      ],
      "name": "renounceRole",
      "outputs": [],
      "stateMutability": "nonpayable",
      "type": "function"
    },
    {
      "inputs": [
        {
          "internalType": "bytes32",
          "name": "role",
          "type": "bytes32"
        },
        {
          "internalType": "address",
          "name": "account",
          "type": "address"
        }
      ],
      "name": "revokeRole",
      "outputs": [],
      "stateMutability": "nonpayable",
      "type": "function"
    },
    {
      "inputs": [
        {
          "internalType": "address",
          "name": "messageSigner_",
          "type": "address"
        }
      ],
      "name": "setMessageSigner",
      "outputs": [],
      "stateMutability": "nonpayable",
      "type": "function"
    },
    {
      "inputs": [
        {
          "internalType": "bytes4",
          "name": "interfaceId",
          "type": "bytes4"
        }
      ],
      "name": "supportsInterface",
      "outputs": [
        {
          "internalType": "bool",
          "name": "",
          "type": "bool"
        }
      ],
      "stateMutability": "view",
      "type": "function"
    },
    {
      "inputs": [
        {
          "internalType": "address",
          "name": "newOwner",
          "type": "address"
        }
      ],
      "name": "transferOwnership",
      "outputs": [],
      "stateMutability": "nonpayable",
      "type": "function"
    }
  ],
  "bytecode": "0x6101a06040523480156200001257600080fd5b50604051620022e8380380620022e88339810160408190526200003591620003a6565b6040518060400160405280601b81526020017f4544554c616e64526577617264734b5943436f6e74726f6c6c65720000000000815250604051806040016040528060038152602001620312e360ec1b815250828033620000a6816200009f620001cc60201b60201c565b9062000202565b506001600160a01b031660805250620000c18260006200027d565b61014052620000d28160016200027d565b61016052815160208084019190912061010052815190820120610120524660c052620001626101005161012051604080517f8b73c3c69bb8fe3d512ecc4cf759cc79239f7b179b0ffacaa9a75d522b39400f60208201529081019290925260608201524660808201523060a082015260009060c00160405160208183030381529060405280519060200120905090565b60a05250503060e0526001600160a01b0382811661018052600280546001600160a01b03191691851691821790556040519081527f66b8dbbd7f4a59921c0e0f594b6fb8434e778851611f323b7c3d00d07a74b1209060200160405180910390a150505062000605565b600080620001fc60017fc9ed16f33ab3a66c84bfd83099ccb2a8845871e2e1c1928f63797152f0fd54cd620003fa565b92915050565b6001600160a01b03811615620002595781546001600160a01b0319166001600160a01b03821690811783556040516000907f8be0079c531659141344cd1fd0a4f28419497f9722a3daafe3b4186f6b6457e0908290a35b620002796307f5828d60e41b600162000271620002b4565b9190620002e4565b5050565b60006020835110156200029d57620002958362000341565b9050620001fc565b81620002aa8482620004c3565b5060ff9392505050565b600080620001fc60017fca9d3e17f264b0f3984e2634e94adb37fa3e6a8103f06aeae6fa59e21c769f5e620003fa565b600160e01b6001600160e01b031983160162000313576040516372c683bb60e01b815260040160405180910390fd5b6001600160e01b03199190911660009081526020929092526040909120805460ff1916911515919091179055565b600080829050601f8151111562000378578260405163305a27a960e01b81526004016200036f91906200058f565b60405180910390fd5b80516200038582620005e0565b179392505050565b6001600160a01b0381168114620003a357600080fd5b50565b600080600060608486031215620003bc57600080fd5b8351620003c9816200038d565b6020850151909350620003dc816200038d565b6040850151909250620003ef816200038d565b809150509250925092565b81810381811115620001fc57634e487b7160e01b600052601160045260246000fd5b634e487b7160e01b600052604160045260246000fd5b600181811c908216806200044757607f821691505b6020821081036200046857634e487b7160e01b600052602260045260246000fd5b50919050565b601f821115620004be576000816000526020600020601f850160051c81016020861015620004995750805b601f850160051c820191505b81811015620004ba57828155600101620004a5565b5050505b505050565b81516001600160401b03811115620004df57620004df6200041c565b620004f781620004f0845462000432565b846200046e565b602080601f8311600181146200052f5760008415620005165750858301515b600019600386901b1c1916600185901b178555620004ba565b600085815260208120601f198616915b8281101562000560578886015182559484019460019091019084016200053f565b50858210156200057f5787850151600019600388901b60f8161c191681555b5050505050600190811b01905550565b60006020808352835180602085015260005b81811015620005bf57858101830151858201604001528201620005a1565b506000604082860101526040601f19601f8301168501019250505092915050565b80516020808301519190811015620004685760001960209190910360031b1b16919050565b60805160a05160c05160e0516101005161012051610140516101605161018051611c48620006a0600039600081816102c2015281816103be0152818161070d015261081f015260006108f1015260006108c70152600061133c015260006113140152600061126f01526000611299015260006112c30152600081816101a4015281816101fe0152818161115101526111d90152611c486000f3fe608060405234801561001057600080fd5b506004361061011b5760003560e01c80637cd727ba116100b257806391d1485411610081578063d955bab311610066578063d955bab3146102bd578063f2fde38b146102e4578063f5b541a6146102f757600080fd5b806391d1485414610297578063d547741f146102aa57600080fd5b80637cd727ba1461024e57806384b0196e146102615780638bb9c5bf1461027c5780638da5cb5b1461028f57600080fd5b80632f2ff15d116100ee5780632f2ff15d146101c85780634b36df53146101db578063572b6c05146101ee578063688e10811461023b57600080fd5b806301ffc9a714610120578063080387b414610148578063229d683d1461018d5780632b4c9f16146101a2575b600080fd5b61013361012e3660046116f4565b61032c565b60405190151581526020015b60405180910390f35b6002546101689073ffffffffffffffffffffffffffffffffffffffff1681565b60405173ffffffffffffffffffffffffffffffffffffffff909116815260200161013f565b6101a061019b366004611736565b610346565b005b7f0000000000000000000000000000000000000000000000000000000000000000610168565b6101a06101d63660046117d4565b610464565b6101a06101e9366004611800565b61049d565b6101336101fc366004611800565b7f000000000000000000000000000000000000000000000000000000000000000073ffffffffffffffffffffffffffffffffffffffff90811691161490565b6101a061024936600461181b565b610529565b6101a061025c366004611736565b6107b6565b6102696108b9565b60405161013f9796959493929190611906565b6101a061028a3660046119c8565b61095d565b61016861097b565b6101336102a53660046117d4565b6109a7565b6101a06102b83660046117d4565b6109f2565b6101687f000000000000000000000000000000000000000000000000000000000000000081565b6101a06102f2366004611800565b610a20565b61031e7f97667070c54ef182b0f5858b034beac1b6f3089aa2d3188bb1e8929f4fa9b92981565b60405190815260200161013f565b60006103408261033a610a3b565b90610a69565b92915050565b6103817f97667070c54ef182b0f5858b034beac1b6f3089aa2d3188bb1e8929f4fa9b929610372610b43565b61037a610b4d565b9190610b7b565b6040517f229d683d00000000000000000000000000000000000000000000000000000000815273ffffffffffffffffffffffffffffffffffffffff7f0000000000000000000000000000000000000000000000000000000000000000169063229d683d906103f590859085906004016119e1565b600060405180830381600087803b15801561040f57600080fd5b505af1158015610423573d6000803e3d6000fd5b505050507fce2bd94f673db625f203578fd574af903b9fd5dc2593832add8ba27b9057de3a82826040516104589291906119e1565b60405180910390a15050565b600061046e610b43565b90506104828161047c610c01565b90610c2f565b610498838383610490610b4d565b929190610c9e565b505050565b6104b06104a8610b43565b61047c610c01565b600280547fffffffffffffffffffffffff00000000000000000000000000000000000000001673ffffffffffffffffffffffffffffffffffffffff83169081179091556040519081527f66b8dbbd7f4a59921c0e0f594b6fb8434e778851611f323b7c3d00d07a74b1209060200160405180910390a150565b82421061057357838383836040517f9ea5f74a00000000000000000000000000000000000000000000000000000000815260040161056a9493929190611a3a565b60405180910390fd5b604080517f97063d02622584e48ff438de7aad453d789fda5192a24c72c3f7e5a05a6fa9fb602082015273ffffffffffffffffffffffffffffffffffffffff861691810191909152606081018490526000906105e79060800160405160208183030381529060405280519060200120610d75565b9050600061062d84848080601f0160208091040260200160405190810160405280939291908181526020018383808284376000920191909152508693925050610dbd9050565b60025490915073ffffffffffffffffffffffffffffffffffffffff80831691161461068c57858585856040517f7f064e7400000000000000000000000000000000000000000000000000000000815260040161056a9493929190611a3a565b6040805160018082528183019092526000916020808301908036833701905050905086816000815181106106c2576106c2611aab565b73ffffffffffffffffffffffffffffffffffffffff92831660209182029290920101526040517f229d683d0000000000000000000000000000000000000000000000000000000081527f00000000000000000000000000000000000000000000000000000000000000009091169063229d683d90610744908490600401611ada565b600060405180830381600087803b15801561075e57600080fd5b505af1158015610772573d6000803e3d6000fd5b505050507fce2bd94f673db625f203578fd574af903b9fd5dc2593832add8ba27b9057de3a816040516107a59190611ada565b60405180910390a150505050505050565b6107e27f97667070c54ef182b0f5858b034beac1b6f3089aa2d3188bb1e8929f4fa9b929610372610b43565b6040517f7cd727ba00000000000000000000000000000000000000000000000000000000815273ffffffffffffffffffffffffffffffffffffffff7f00000000000000000000000000000000000000000000000000000000000000001690637cd727ba9061085690859085906004016119e1565b600060405180830381600087803b15801561087057600080fd5b505af1158015610884573d6000803e3d6000fd5b505050507f9063cc81f7b7355a42e797c2e706377c4431f539572eb4c2ef6f2011ae19a96682826040516104589291906119e1565b6000606080828080836108ec7f000000000000000000000000000000000000000000000000000000000000000083610de1565b6109177f00000000000000000000000000000000000000000000000000000000000000006001610de1565b604080516000808252602082019092527f0f000000000000000000000000000000000000000000000000000000000000009b939a50919850469750309650945092509050565b610978610968610b43565b82610971610b4d565b9190610e8c565b50565b60006109a2610988610c01565b5473ffffffffffffffffffffffffffffffffffffffff1690565b905090565b60006109eb83836109b6610b4d565b60009283526020908152604080842073ffffffffffffffffffffffffffffffffffffffff909316845291905290205460ff1690565b9392505050565b60006109fc610b43565b9050610a0a8161047c610c01565b610498838383610a18610b4d565b929190610f30565b610978610a2b610b43565b82610a34610c01565b9190610ffa565b60008061034060017fca9d3e17f264b0f3984e2634e94adb37fa3e6a8103f06aeae6fa59e21c769f5e611b34565b60007c01000000000000000000000000000000000000000000000000000000007fffffffff00000000000000000000000000000000000000000000000000000000831601610ab957506000610340565b7ffe003659000000000000000000000000000000000000000000000000000000007fffffffff00000000000000000000000000000000000000000000000000000000831601610b0a57506001610340565b507fffffffff00000000000000000000000000000000000000000000000000000000166000908152602091909152604090205460ff1690565b60006109a261110e565b60008061034060017fc8827d3282af6f37b64c3e9e6f3ac9df286ab0bb0fccd6f8661bf19adb368b23611b34565b60008281526020848152604080832073ffffffffffffffffffffffffffffffffffffffff8516845290915290205460ff16610498576040517f7aa728820000000000000000000000000000000000000000000000000000000081526004810183905273ffffffffffffffffffffffffffffffffffffffff8216602482015260440161056a565b60008061034060017fc9ed16f33ab3a66c84bfd83099ccb2a8845871e2e1c1928f63797152f0fd54cd611b34565b815473ffffffffffffffffffffffffffffffffffffffff828116911614610c9a576040517f2ef4875e00000000000000000000000000000000000000000000000000000000815273ffffffffffffffffffffffffffffffffffffffff8216600482015260240161056a565b5050565b60008381526020858152604080832073ffffffffffffffffffffffffffffffffffffffff8616845290915290205460ff16610d6f5760008381526020858152604080832073ffffffffffffffffffffffffffffffffffffffff8681168086529184529382902080547fffffffffffffffffffffffffffffffffffffffffffffffffffffffffffffff00166001179055815187815292830152918316918101919091527f2f8788117e7eff1d82e926ec794901d17c78024a50270940304540a733656f0d906060015b60405180910390a15b50505050565b6000610340610d82611255565b836040517f19010000000000000000000000000000000000000000000000000000000000008152600281019290925260228201526042902090565b6000806000610dcc858561138d565b91509150610dd9816113d2565b509392505050565b606060ff8314610dfb57610df483611585565b9050610340565b818054610e0790611b6e565b80601f0160208091040260200160405190810160405280929190818152602001828054610e3390611b6e565b8015610e805780601f10610e5557610100808354040283529160200191610e80565b820191906000526020600020905b815481529060010190602001808311610e6357829003601f168201915b50505050509050610340565b610e97838284610b7b565b60008181526020848152604080832073ffffffffffffffffffffffffffffffffffffffff86168085529083529281902080547fffffffffffffffffffffffffffffffffffffffffffffffffffffffffffffff0016905580518481529182018390528101919091527ff6391f5c32d9c69d2a47ea670b442974b53935d1edc7fd64eb21e047a839171b9060600160405180910390a1505050565b60008381526020858152604080832073ffffffffffffffffffffffffffffffffffffffff8616845290915290205460ff1615610d6f5760008381526020858152604080832073ffffffffffffffffffffffffffffffffffffffff8681168086529184529382902080547fffffffffffffffffffffffffffffffffffffffffffffffffffffffffffffff00169055815187815292830152918316918101919091527ff6391f5c32d9c69d2a47ea670b442974b53935d1edc7fd64eb21e047a839171b90606001610d66565b825473ffffffffffffffffffffffffffffffffffffffff9081169083168114611067576040517f2ef4875e00000000000000000000000000000000000000000000000000000000815273ffffffffffffffffffffffffffffffffffffffff8416600482015260240161056a565b8173ffffffffffffffffffffffffffffffffffffffff168173ffffffffffffffffffffffffffffffffffffffff1614610d6f5783547fffffffffffffffffffffffff00000000000000000000000000000000000000001673ffffffffffffffffffffffffffffffffffffffff8381169182178655604051908316907f8be0079c531659141344cd1fd0a4f28419497f9722a3daafe3b4186f6b6457e090600090a350505050565b60003332148061111e5750601836105b1561112857503390565b7fffffffffffffffffffffffffffffffffffffffffffffffffffffffffffffffec36013560601c7f000000000000000000000000000000000000000000000000000000000000000073ffffffffffffffffffffffffffffffffffffffff1633148061124457506040517f8929a8ca00000000000000000000000000000000000000000000000000000000815273ffffffffffffffffffffffffffffffffffffffff82811660048301523360248301527f00000000000000000000000000000000000000000000000000000000000000001690638929a8ca90604401602060405180830381865afa158015611220573d6000803e3d6000fd5b505050506040513d601f19601f820116820180604052508101906112449190611bc1565b1561124e57919050565b3391505090565b60003073ffffffffffffffffffffffffffffffffffffffff7f0000000000000000000000000000000000000000000000000000000000000000161480156112bb57507f000000000000000000000000000000000000000000000000000000000000000046145b156112e557507f000000000000000000000000000000000000000000000000000000000000000090565b6109a2604080517f8b73c3c69bb8fe3d512ecc4cf759cc79239f7b179b0ffacaa9a75d522b39400f60208201527f0000000000000000000000000000000000000000000000000000000000000000918101919091527f000000000000000000000000000000000000000000000000000000000000000060608201524660808201523060a082015260009060c00160405160208183030381529060405280519060200120905090565b60008082516041036113c35760208301516040840151606085015160001a6113b7878285856115c4565b945094505050506113cb565b506000905060025b9250929050565b60008160048111156113e6576113e6611be3565b036113ee5750565b600181600481111561140257611402611be3565b03611469576040517f08c379a000000000000000000000000000000000000000000000000000000000815260206004820152601860248201527f45434453413a20696e76616c6964207369676e61747572650000000000000000604482015260640161056a565b600281600481111561147d5761147d611be3565b036114e4576040517f08c379a000000000000000000000000000000000000000000000000000000000815260206004820152601f60248201527f45434453413a20696e76616c6964207369676e6174757265206c656e67746800604482015260640161056a565b60038160048111156114f8576114f8611be3565b03610978576040517f08c379a000000000000000000000000000000000000000000000000000000000815260206004820152602260248201527f45434453413a20696e76616c6964207369676e6174757265202773272076616c60448201527f7565000000000000000000000000000000000000000000000000000000000000606482015260840161056a565b60606000611592836116b3565b604080516020808252818301909252919250600091906020820181803683375050509182525060208101929092525090565b6000807f7fffffffffffffffffffffffffffffff5d576e7357a4501ddfe92f46681b20a08311156115fb57506000905060036116aa565b6040805160008082526020820180845289905260ff881692820192909252606081018690526080810185905260019060a0016020604051602081039080840390855afa15801561164f573d6000803e3d6000fd5b50506040517fffffffffffffffffffffffffffffffffffffffffffffffffffffffffffffffe0015191505073ffffffffffffffffffffffffffffffffffffffff81166116a3576000600192509250506116aa565b9150600090505b94509492505050565b600060ff8216601f811115610340576040517fb3512b0c00000000000000000000000000000000000000000000000000000000815260040160405180910390fd5b60006020828403121561170657600080fd5b81357fffffffff00000000000000000000000000000000000000000000000000000000811681146109eb57600080fd5b6000806020838503121561174957600080fd5b823567ffffffffffffffff8082111561176157600080fd5b818501915085601f83011261177557600080fd5b81358181111561178457600080fd5b8660208260051b850101111561179957600080fd5b60209290920196919550909350505050565b803573ffffffffffffffffffffffffffffffffffffffff811681146117cf57600080fd5b919050565b600080604083850312156117e757600080fd5b823591506117f7602084016117ab565b90509250929050565b60006020828403121561181257600080fd5b6109eb826117ab565b6000806000806060858703121561183157600080fd5b61183a856117ab565b935060208501359250604085013567ffffffffffffffff8082111561185e57600080fd5b818701915087601f83011261187257600080fd5b81358181111561188157600080fd5b88602082850101111561189357600080fd5b95989497505060200194505050565b6000815180845260005b818110156118c8576020818501810151868301820152016118ac565b5060006020828601015260207fffffffffffffffffffffffffffffffffffffffffffffffffffffffffffffffe0601f83011685010191505092915050565b7fff00000000000000000000000000000000000000000000000000000000000000881681526000602060e0602084015261194360e084018a6118a2565b8381036040850152611955818a6118a2565b6060850189905273ffffffffffffffffffffffffffffffffffffffff8816608086015260a0850187905284810360c08601528551808252602080880193509091019060005b818110156119b65783518352928401929184019160010161199a565b50909c9b505050505050505050505050565b6000602082840312156119da57600080fd5b5035919050565b60208082528181018390526000908460408401835b86811015611a2f5773ffffffffffffffffffffffffffffffffffffffff611a1c846117ab565b16825291830191908301906001016119f6565b509695505050505050565b73ffffffffffffffffffffffffffffffffffffffff8516815283602082015260606040820152816060820152818360808301376000818301608090810191909152601f9092017fffffffffffffffffffffffffffffffffffffffffffffffffffffffffffffffe01601019392505050565b7f4e487b7100000000000000000000000000000000000000000000000000000000600052603260045260246000fd5b6020808252825182820181905260009190848201906040850190845b81811015611b2857835173ffffffffffffffffffffffffffffffffffffffff1683529284019291840191600101611af6565b50909695505050505050565b81810381811115610340577f4e487b7100000000000000000000000000000000000000000000000000000000600052601160045260246000fd5b600181811c90821680611b8257607f821691505b602082108103611bbb577f4e487b7100000000000000000000000000000000000000000000000000000000600052602260045260246000fd5b50919050565b600060208284031215611bd357600080fd5b815180151581146109eb57600080fd5b7f4e487b7100000000000000000000000000000000000000000000000000000000600052602160045260246000fdfea264697066735822122084fe9ce692bcea91386fdddc2670a4f276663066b6879aa432459ff57e48548c64736f6c63430008160033",
  "linkReferences": {},
  "deployedLinkReferences": {}
}