{
  "_format": "hh-sol-artifact-1",
  "contractName": "EDULandRewardsKYCController",
  "sourceName": "contracts/land/EDULandRewardsKYCController.sol",
  "abi": [
    {
      "inputs": [
        {
          "internalType": "address",
          "name": "eduLandRewardsAddress",
          "type": "address"
        },
        {
          "internalType": "address",
          "name": "kycCertificateNftAddress",
          "type": "address"
        },
        {
          "internalType": "string",
          "name": "vcIssuerDid",
          "type": "string"
        },
        {
          "internalType": "contract IForwarderRegistry",
          "name": "forwarderRegistry",
          "type": "address"
        }
      ],
      "stateMutability": "nonpayable",
      "type": "constructor"
    },
    {
      "inputs": [],
      "name": "InvalidEduLandRewardsAddress",
      "type": "error"
    },
    {
      "inputs": [
        {
          "internalType": "uint256",
          "name": "vcId",
          "type": "uint256"
        }
      ],
      "name": "InvalidIssuerDid",
      "type": "error"
    },
    {
      "inputs": [],
      "name": "InvalidKycCertificateNFTAddress",
      "type": "error"
    },
    {
      "inputs": [],
      "name": "KycWalletAlreadySet",
      "type": "error"
    },
    {
      "inputs": [
        {
          "internalType": "uint256",
          "name": "vcId",
          "type": "uint256"
        }
      ],
      "name": "RevokedVc",
      "type": "error"
    },
    {
      "inputs": [
        {
          "internalType": "uint256",
          "name": "vcId",
          "type": "uint256"
        }
      ],
      "name": "VcNotRevoked",
      "type": "error"
    },
    {
      "anonymous": false,
      "inputs": [
        {
          "indexed": false,
          "internalType": "address[]",
          "name": "accounts",
          "type": "address[]"
        }
      ],
      "name": "KycWalletsAdded",
      "type": "event"
    },
    {
      "anonymous": false,
      "inputs": [
        {
          "indexed": false,
          "internalType": "address[]",
          "name": "accounts",
          "type": "address[]"
        }
      ],
      "name": "KycWalletsRemoved",
      "type": "event"
    },
    {
      "inputs": [],
      "name": "EDU_LAND_REWARDS",
      "outputs": [
        {
          "internalType": "contract RewardsKYC",
          "name": "",
          "type": "address"
        }
      ],
      "stateMutability": "view",
      "type": "function"
    },
    {
      "inputs": [],
      "name": "KYC_CERTIFICATE_NFT",
      "outputs": [
        {
          "internalType": "contract OpenCampusCertificateNFTv1",
          "name": "",
          "type": "address"
        }
      ],
      "stateMutability": "view",
      "type": "function"
    },
    {
      "inputs": [],
      "name": "VC_ISSUER_DID_HASH",
      "outputs": [
        {
          "internalType": "bytes32",
          "name": "",
          "type": "bytes32"
        }
      ],
      "stateMutability": "view",
      "type": "function"
    },
    {
      "inputs": [
        {
          "internalType": "uint256",
          "name": "vcId",
          "type": "uint256"
        }
      ],
      "name": "addKycWallet",
      "outputs": [],
      "stateMutability": "nonpayable",
      "type": "function"
    },
    {
      "inputs": [
        {
          "internalType": "uint256[]",
          "name": "vcIds",
          "type": "uint256[]"
        }
      ],
      "name": "addKycWallets",
      "outputs": [],
      "stateMutability": "nonpayable",
      "type": "function"
    },
    {
      "inputs": [],
      "name": "forwarderRegistry",
      "outputs": [
        {
          "internalType": "contract IForwarderRegistry",
          "name": "",
          "type": "address"
        }
      ],
      "stateMutability": "view",
      "type": "function"
    },
    {
      "inputs": [
        {
          "internalType": "address",
          "name": "forwarder",
          "type": "address"
        }
      ],
      "name": "isTrustedForwarder",
      "outputs": [
        {
          "internalType": "bool",
          "name": "",
          "type": "bool"
        }
      ],
      "stateMutability": "view",
      "type": "function"
    },
    {
      "inputs": [
        {
          "internalType": "address[]",
          "name": "accounts",
          "type": "address[]"
        }
      ],
      "name": "removeKycWallets",
      "outputs": [],
      "stateMutability": "nonpayable",
      "type": "function"
    },
    {
      "inputs": [
        {
          "internalType": "address",
          "name": "account",
          "type": "address"
        }
      ],
      "name": "vcIdPerAccount",
      "outputs": [
        {
          "internalType": "uint256",
          "name": "vcId",
          "type": "uint256"
        }
      ],
      "stateMutability": "view",
      "type": "function"
    }
  ],
  "bytecode": "0x6101006040523480156200001257600080fd5b5060405162001923380380620019238339810160408190526200003591620000f1565b6001600160a01b03808216608052841662000063576040516395267c7d60e01b815260040160405180910390fd5b6001600160a01b0383166200008b57604051636f7a8df160e11b815260040160405180910390fd5b506001600160a01b0392831660a052911660c052805160209091012060e05262000204565b6001600160a01b0381168114620000c657600080fd5b50565b634e487b7160e01b600052604160045260246000fd5b8051620000ec81620000b0565b919050565b600080600080608085870312156200010857600080fd5b84516200011581620000b0565b809450506020808601516200012a81620000b0565b60408701519094506001600160401b03808211156200014857600080fd5b818801915088601f8301126200015d57600080fd5b815181811115620001725762000172620000c9565b604051601f8201601f19908116603f011681019083821181831017156200019d576200019d620000c9565b816040528281528b86848701011115620001b657600080fd5b600093505b82841015620001da5784840186015181850187015292850192620001bb565b6000868483010152809750505050505050620001f960608601620000df565b905092959194509250565b60805160a05160c05160e0516116846200029f6000396000818161010e015281816104f10152610a4801526000818161020d0152818161023301528181610337015281816104380152818161087d0152818161098f01528181610aa501528181610d4b0152610ec00152600081816101e6015281816107a301528181610c9f01526111c501526000818160bf015261016101526116846000f3fe608060405234801561001057600080fd5b50600436106100a35760003560e01c8063572b6c05116100765780637cd727ba1161005b5780637cd727ba146101ce578063d955bab3146101e1578063f97060a61461020857600080fd5b8063572b6c05146101515780636e27084e146101ae57600080fd5b806308e77ef1146100a85780632b4c9f16146100bd5780632dd444c0146101095780634d1e5e3c1461013e575b600080fd5b6100bb6100b63660046112a7565b61022f565b005b7f00000000000000000000000000000000000000000000000000000000000000005b60405173ffffffffffffffffffffffffffffffffffffffff90911681526020015b60405180910390f35b6101307f000000000000000000000000000000000000000000000000000000000000000081565b604051908152602001610100565b6100bb61014c3660046112e9565b61084b565b61019e61015f366004611327565b7f000000000000000000000000000000000000000000000000000000000000000073ffffffffffffffffffffffffffffffffffffffff90811691161490565b6040519015158152602001610100565b6101306101bc366004611327565b60006020819052908152604090205481565b6100bb6101dc3660046112a7565b610d47565b6100df7f000000000000000000000000000000000000000000000000000000000000000081565b6100df7f000000000000000000000000000000000000000000000000000000000000000081565b60007f000000000000000000000000000000000000000000000000000000000000000073ffffffffffffffffffffffffffffffffffffffff1663f0f2740d6040518163ffffffff1660e01b8152600401602060405180830381865afa15801561029c573d6000803e3d6000fd5b505050506040513d601f19601f820116820180604052508101906102c0919061134b565b90508160008167ffffffffffffffff8111156102de576102de611368565b604051908082528060200260200182016040528015610307578160200160208202803683370190505b5090506000805b838110156106b357600087878381811061032a5761032a611397565b90506020020135905060007f000000000000000000000000000000000000000000000000000000000000000073ffffffffffffffffffffffffffffffffffffffff16636352211e836040518263ffffffff1660e01b815260040161039091815260200190565b602060405180830381865afa1580156103ad573d6000803e3d6000fd5b505050506040513d601f19601f820116820180604052508101906103d1919061134b565b73ffffffffffffffffffffffffffffffffffffffff8116600090815260208190526040902054909150156104065750506106ab565b6040517f4bae2be8000000000000000000000000000000000000000000000000000000008152600481018390526000907f000000000000000000000000000000000000000000000000000000000000000073ffffffffffffffffffffffffffffffffffffffff1690634bae2be890602401600060405180830381865afa158015610494573d6000803e3d6000fd5b505050506040513d6000823e601f3d9081017fffffffffffffffffffffffffffffffffffffffffffffffffffffffffffffffe01682016040526104da91908101906114bc565b5095505050505050600081805190602001209050807f00000000000000000000000000000000000000000000000000000000000000001461054f576040517fed778042000000000000000000000000000000000000000000000000000000008152600481018590526024015b60405180910390fd5b6040517fa3a2656a000000000000000000000000000000000000000000000000000000008152600481018290526024810185905260009073ffffffffffffffffffffffffffffffffffffffff8b169063a3a2656a90604401602060405180830381865afa1580156105c4573d6000803e3d6000fd5b505050506040513d601f19601f820116820180604052508101906105e89190611573565b90508015610625576040517f5d326d8400000000000000000000000000000000000000000000000000000000815260048101869052602401610546565b73ffffffffffffffffffffffffffffffffffffffff8416600090815260208190526040902085905583888861065981611595565b99508151811061066b5761066b611397565b602002602001019073ffffffffffffffffffffffffffffffffffffffff16908173ffffffffffffffffffffffffffffffffffffffff168152505050505050505b60010161030e565b5080156108435760008167ffffffffffffffff8111156106d5576106d5611368565b6040519080825280602002602001820160405280156106fe578160200160208202803683370190505b50905060005b828110156107655783818151811061071e5761071e611397565b602002602001015182828151811061073857610738611397565b73ffffffffffffffffffffffffffffffffffffffff90921660209283029190910190910152600101610704565b506040517f229d683d00000000000000000000000000000000000000000000000000000000815273ffffffffffffffffffffffffffffffffffffffff7f0000000000000000000000000000000000000000000000000000000000000000169063229d683d906107d89084906004016115f4565b600060405180830381600087803b1580156107f257600080fd5b505af1158015610806573d6000803e3d6000fd5b505050507fce2bd94f673db625f203578fd574af903b9fd5dc2593832add8ba27b9057de3a8160405161083991906115f4565b60405180910390a1505b505050505050565b6040517f6352211e000000000000000000000000000000000000000000000000000000008152600481018290526000907f000000000000000000000000000000000000000000000000000000000000000073ffffffffffffffffffffffffffffffffffffffff1690636352211e90602401602060405180830381865afa1580156108d9573d6000803e3d6000fd5b505050506040513d601f19601f820116820180604052508101906108fd919061134b565b73ffffffffffffffffffffffffffffffffffffffff81166000908152602081905260409020549091501561095d576040517fb00704f400000000000000000000000000000000000000000000000000000000815260040160405180910390fd5b6040517f4bae2be8000000000000000000000000000000000000000000000000000000008152600481018390526000907f000000000000000000000000000000000000000000000000000000000000000073ffffffffffffffffffffffffffffffffffffffff1690634bae2be890602401600060405180830381865afa1580156109eb573d6000803e3d6000fd5b505050506040513d6000823e601f3d9081017fffffffffffffffffffffffffffffffffffffffffffffffffffffffffffffffe0168201604052610a3191908101906114bc565b5095505050505050600081805190602001209050807f000000000000000000000000000000000000000000000000000000000000000014610aa1576040517fed77804200000000000000000000000000000000000000000000000000000000815260048101859052602401610546565b60007f000000000000000000000000000000000000000000000000000000000000000073ffffffffffffffffffffffffffffffffffffffff1663f0f2740d6040518163ffffffff1660e01b8152600401602060405180830381865afa158015610b0e573d6000803e3d6000fd5b505050506040513d601f19601f82011682018060405250810190610b32919061134b565b6040517fa3a2656a000000000000000000000000000000000000000000000000000000008152600481018490526024810187905273ffffffffffffffffffffffffffffffffffffffff919091169063a3a2656a90604401602060405180830381865afa158015610ba6573d6000803e3d6000fd5b505050506040513d601f19601f82011682018060405250810190610bca9190611573565b90508015610c07576040517f5d326d8400000000000000000000000000000000000000000000000000000000815260048101869052602401610546565b604080516001808252818301909252600091602080830190803683370190505090508481600081518110610c3d57610c3d611397565b73ffffffffffffffffffffffffffffffffffffffff928316602091820292909201810191909152868216600090815290819052604090819020889055517f229d683d0000000000000000000000000000000000000000000000000000000081527f00000000000000000000000000000000000000000000000000000000000000009091169063229d683d90610cd69084906004016115f4565b600060405180830381600087803b158015610cf057600080fd5b505af1158015610d04573d6000803e3d6000fd5b505050507fce2bd94f673db625f203578fd574af903b9fd5dc2593832add8ba27b9057de3a81604051610d3791906115f4565b60405180910390a1505050505050565b60007f000000000000000000000000000000000000000000000000000000000000000073ffffffffffffffffffffffffffffffffffffffff1663f0f2740d6040518163ffffffff1660e01b8152600401602060405180830381865afa158015610db4573d6000803e3d6000fd5b505050506040513d601f19601f82011682018060405250810190610dd8919061134b565b90508160008167ffffffffffffffff811115610df657610df6611368565b604051908082528060200260200182016040528015610e1f578160200160208202803683370190505b5090506000805b838110156110d5576000878783818110610e4257610e42611397565b9050602002016020810190610e579190611327565b73ffffffffffffffffffffffffffffffffffffffff8116600090815260208190526040812054919250819003610e8e5750506110cd565b6040517f4bae2be8000000000000000000000000000000000000000000000000000000008152600481018290526000907f000000000000000000000000000000000000000000000000000000000000000073ffffffffffffffffffffffffffffffffffffffff1690634bae2be890602401600060405180830381865afa158015610f1c573d6000803e3d6000fd5b505050506040513d6000823e601f3d9081017fffffffffffffffffffffffffffffffffffffffffffffffffffffffffffffffe0168201604052610f6291908101906114bc565b50805160208201206040517fa3a2656a00000000000000000000000000000000000000000000000000000000815260048101829052602481018a905291975095506000945073ffffffffffffffffffffffffffffffffffffffff8e16935063a3a2656a92506044019050602060405180830381865afa158015610fe9573d6000803e3d6000fd5b505050506040513d601f19601f8201168201806040525081019061100d9190611573565b905080611049576040517f73bb640300000000000000000000000000000000000000000000000000000000815260048101859052602401610546565b73ffffffffffffffffffffffffffffffffffffffff851660009081526020819052604081205584888861107b81611595565b99508151811061108d5761108d611397565b602002602001019073ffffffffffffffffffffffffffffffffffffffff16908173ffffffffffffffffffffffffffffffffffffffff168152505050505050505b600101610e26565b5080156108435760008167ffffffffffffffff8111156110f7576110f7611368565b604051908082528060200260200182016040528015611120578160200160208202803683370190505b50905060005b828110156111875783818151811061114057611140611397565b602002602001015182828151811061115a5761115a611397565b73ffffffffffffffffffffffffffffffffffffffff90921660209283029190910190910152600101611126565b506040517f7cd727ba00000000000000000000000000000000000000000000000000000000815273ffffffffffffffffffffffffffffffffffffffff7f00000000000000000000000000000000000000000000000000000000000000001690637cd727ba906111fa9084906004016115f4565b600060405180830381600087803b15801561121457600080fd5b505af1158015611228573d6000803e3d6000fd5b505050507f9063cc81f7b7355a42e797c2e706377c4431f539572eb4c2ef6f2011ae19a9668160405161083991906115f4565b60008083601f84011261126d57600080fd5b50813567ffffffffffffffff81111561128557600080fd5b6020830191508360208260051b85010111156112a057600080fd5b9250929050565b600080602083850312156112ba57600080fd5b823567ffffffffffffffff8111156112d157600080fd5b6112dd8582860161125b565b90969095509350505050565b6000602082840312156112fb57600080fd5b5035919050565b73ffffffffffffffffffffffffffffffffffffffff8116811461132457600080fd5b50565b60006020828403121561133957600080fd5b813561134481611302565b9392505050565b60006020828403121561135d57600080fd5b815161134481611302565b7f4e487b7100000000000000000000000000000000000000000000000000000000600052604160045260246000fd5b7f4e487b7100000000000000000000000000000000000000000000000000000000600052603260045260246000fd5b805161ffff811681146113d857600080fd5b919050565b805167ffffffffffffffff811681146113d857600080fd5b600082601f83011261140657600080fd5b815167ffffffffffffffff8082111561142157611421611368565b604051601f83017fffffffffffffffffffffffffffffffffffffffffffffffffffffffffffffffe0908116603f0116810190828211818310171561146757611467611368565b816040528381526020925086602085880101111561148457600080fd5b600091505b838210156114a65785820183015181830184015290820190611489565b6000602085830101528094505050505092915050565b600080600080600080600060e0888a0312156114d757600080fd5b6114e0886113c6565b96506114ee602089016113c6565b95506114fc604089016113dd565b945061150a606089016113dd565b9350611518608089016113dd565b925060a088015167ffffffffffffffff8082111561153557600080fd5b6115418b838c016113f5565b935060c08a015191508082111561155757600080fd5b506115648a828b016113f5565b91505092959891949750929550565b60006020828403121561158557600080fd5b8151801515811461134457600080fd5b60007fffffffffffffffffffffffffffffffffffffffffffffffffffffffffffffffff82036115ed577f4e487b7100000000000000000000000000000000000000000000000000000000600052601160045260246000fd5b5060010190565b6020808252825182820181905260009190848201906040850190845b8181101561164257835173ffffffffffffffffffffffffffffffffffffffff1683529284019291840191600101611610565b5090969550505050505056fea2646970667358221220f632ded360b474a8d462939cd75edaaf4f3d7628dd08131f074efff1a83582db64736f6c63430008160033",
  "linkReferences": {},
  "deployedLinkReferences": {}
}