{
  "_format": "hh-sol-artifact-1",
  "contractName": "EDULandRewardsKYCController",
  "sourceName": "contracts/land/EDULandRewardsKYCController.sol",
  "abi": [
    {
      "inputs": [
        {
          "internalType": "address",
          "name": "eduLandRewardsAddress",
          "type": "address"
        },
        {
          "internalType": "address",
          "name": "kycCertificateNftAddress",
          "type": "address"
        },
        {
          "internalType": "string",
          "name": "vcIssuerDid",
          "type": "string"
        },
        {
          "internalType": "contract IForwarderRegistry",
          "name": "forwarderRegistry",
          "type": "address"
        }
      ],
      "stateMutability": "nonpayable",
      "type": "constructor"
    },
    {
      "inputs": [],
      "name": "InvalidEduLandRewardsAddress",
      "type": "error"
    },
    {
      "inputs": [
        {
          "internalType": "uint256",
          "name": "vcId",
          "type": "uint256"
        }
      ],
      "name": "InvalidIssuerDid",
      "type": "error"
    },
    {
      "inputs": [],
      "name": "InvalidKycCertificateNFTAddress",
      "type": "error"
    },
    {
      "inputs": [
        {
          "internalType": "address",
          "name": "account",
          "type": "address"
        },
        {
          "internalType": "uint256",
          "name": "vcId",
          "type": "uint256"
        }
      ],
      "name": "KycWalletAlreadySet",
      "type": "error"
    },
    {
      "inputs": [
        {
          "internalType": "address",
          "name": "account",
          "type": "address"
        }
      ],
      "name": "KycWalletNotSet",
      "type": "error"
    },
    {
      "inputs": [
        {
          "internalType": "uint256",
          "name": "vcId",
          "type": "uint256"
        }
      ],
      "name": "RevokedVc",
      "type": "error"
    },
    {
      "inputs": [
        {
          "internalType": "uint256",
          "name": "vcId",
          "type": "uint256"
        }
      ],
      "name": "VcNotRevoked",
      "type": "error"
    },
    {
      "anonymous": false,
      "inputs": [
        {
          "indexed": false,
          "internalType": "address[]",
          "name": "accounts",
          "type": "address[]"
        }
      ],
      "name": "KycWalletsAdded",
      "type": "event"
    },
    {
      "anonymous": false,
      "inputs": [
        {
          "indexed": false,
          "internalType": "address[]",
          "name": "accounts",
          "type": "address[]"
        }
      ],
      "name": "KycWalletsRemoved",
      "type": "event"
    },
    {
      "inputs": [],
      "name": "EDU_LAND_REWARDS",
      "outputs": [
        {
          "internalType": "contract RewardsKYC",
          "name": "",
          "type": "address"
        }
      ],
      "stateMutability": "view",
      "type": "function"
    },
    {
      "inputs": [],
      "name": "KYC_CERTIFICATE_NFT",
      "outputs": [
        {
          "internalType": "contract OpenCampusCertificateNFTv1",
          "name": "",
          "type": "address"
        }
      ],
      "stateMutability": "view",
      "type": "function"
    },
    {
      "inputs": [],
      "name": "VC_ISSUER_DID_HASH",
      "outputs": [
        {
          "internalType": "bytes32",
          "name": "",
          "type": "bytes32"
        }
      ],
      "stateMutability": "view",
      "type": "function"
    },
    {
      "inputs": [
        {
          "internalType": "uint256[]",
          "name": "vcIds",
          "type": "uint256[]"
        }
      ],
      "name": "addKycWallets",
      "outputs": [],
      "stateMutability": "nonpayable",
      "type": "function"
    },
    {
      "inputs": [],
      "name": "forwarderRegistry",
      "outputs": [
        {
          "internalType": "contract IForwarderRegistry",
          "name": "",
          "type": "address"
        }
      ],
      "stateMutability": "view",
      "type": "function"
    },
    {
      "inputs": [
        {
          "internalType": "address",
          "name": "forwarder",
          "type": "address"
        }
      ],
      "name": "isTrustedForwarder",
      "outputs": [
        {
          "internalType": "bool",
          "name": "",
          "type": "bool"
        }
      ],
      "stateMutability": "view",
      "type": "function"
    },
    {
      "inputs": [
        {
          "internalType": "address[]",
          "name": "accounts",
          "type": "address[]"
        }
      ],
      "name": "removeKycWallets",
      "outputs": [],
      "stateMutability": "nonpayable",
      "type": "function"
    },
    {
      "inputs": [
        {
          "internalType": "address",
          "name": "account",
          "type": "address"
        }
      ],
      "name": "vcIdPerAccount",
      "outputs": [
        {
          "internalType": "uint256",
          "name": "vcId",
          "type": "uint256"
        }
      ],
      "stateMutability": "view",
      "type": "function"
    }
  ],
  "bytecode": "0x6101006040523480156200001257600080fd5b5060405162001215380380620012158339810160408190526200003591620000f1565b6001600160a01b03808216608052841662000063576040516395267c7d60e01b815260040160405180910390fd5b6001600160a01b0383166200008b57604051636f7a8df160e11b815260040160405180910390fd5b506001600160a01b0392831660a052911660c052805160209091012060e05262000204565b6001600160a01b0381168114620000c657600080fd5b50565b634e487b7160e01b600052604160045260246000fd5b8051620000ec81620000b0565b919050565b600080600080608085870312156200010857600080fd5b84516200011581620000b0565b809450506020808601516200012a81620000b0565b60408701519094506001600160401b03808211156200014857600080fd5b818801915088601f8301126200015d57600080fd5b815181811115620001725762000172620000c9565b604051601f8201601f19908116603f011681019083821181831017156200019d576200019d620000c9565b816040528281528b86848701011115620001b657600080fd5b600093505b82841015620001da5784840186015181850187015292850192620001bb565b6000868483010152809750505050505050620001f960608601620000df565b905092959194509250565b60805160a05160c05160e051610f9a6200027b6000396000818160f301526105110152600081816101df0152818161024d01528181610308015281816104580152818161078001526108ef0152600081816101b8015281816106d70152610ae701526000818160a401526101330152610f9a6000f3fe608060405234801561001057600080fd5b50600436106100885760003560e01c80636e27084e1161005b5780636e27084e146101805780637cd727ba146101a0578063d955bab3146101b3578063f97060a6146101da57600080fd5b806308e77ef11461008d5780632b4c9f16146100a25780632dd444c0146100ee578063572b6c0514610123575b600080fd5b6100a061009b366004610bda565b610201565b005b7f00000000000000000000000000000000000000000000000000000000000000005b60405173ffffffffffffffffffffffffffffffffffffffff90911681526020015b60405180910390f35b6101157f000000000000000000000000000000000000000000000000000000000000000081565b6040519081526020016100e5565b610170610131366004610c41565b7f000000000000000000000000000000000000000000000000000000000000000073ffffffffffffffffffffffffffffffffffffffff90811691161490565b60405190151581526020016100e5565b61011561018e366004610c41565b60006020819052908152604090205481565b6100a06101ae366004610bda565b61077c565b6100c47f000000000000000000000000000000000000000000000000000000000000000081565b6100c47f000000000000000000000000000000000000000000000000000000000000000081565b8060008167ffffffffffffffff81111561021d5761021d610c65565b604051908082528060200260200182016040528015610246578160200160208202803683370190505b50905060007f000000000000000000000000000000000000000000000000000000000000000073ffffffffffffffffffffffffffffffffffffffff1663f0f2740d6040518163ffffffff1660e01b8152600401602060405180830381865afa1580156102b6573d6000803e3d6000fd5b505050506040513d601f19601f820116820180604052508101906102da9190610c94565b905060005b838110156106995760008686838181106102fb576102fb610cb1565b90506020020135905060007f000000000000000000000000000000000000000000000000000000000000000073ffffffffffffffffffffffffffffffffffffffff16636352211e836040518263ffffffff1660e01b815260040161036191815260200190565b602060405180830381865afa15801561037e573d6000803e3d6000fd5b505050506040513d601f19601f820116820180604052508101906103a29190610c94565b73ffffffffffffffffffffffffffffffffffffffff811660009081526020819052604090205490915015610426576040517fb638fab100000000000000000000000000000000000000000000000000000000815273ffffffffffffffffffffffffffffffffffffffff82166004820152602481018390526044015b60405180910390fd5b6040517f4bae2be8000000000000000000000000000000000000000000000000000000008152600481018390526000907f000000000000000000000000000000000000000000000000000000000000000073ffffffffffffffffffffffffffffffffffffffff1690634bae2be890602401600060405180830381865afa1580156104b4573d6000803e3d6000fd5b505050506040513d6000823e601f3d9081017fffffffffffffffffffffffffffffffffffffffffffffffffffffffffffffffe01682016040526104fa9190810190610dd6565b5095505050505050600081805190602001209050807f00000000000000000000000000000000000000000000000000000000000000001461056a576040517fed7780420000000000000000000000000000000000000000000000000000000081526004810185905260240161041d565b6040517fa3a2656a000000000000000000000000000000000000000000000000000000008152600481018290526024810185905260009073ffffffffffffffffffffffffffffffffffffffff88169063a3a2656a90604401602060405180830381865afa1580156105df573d6000803e3d6000fd5b505050506040513d601f19601f820116820180604052508101906106039190610e8d565b90508015610640576040517f5d326d840000000000000000000000000000000000000000000000000000000081526004810186905260240161041d565b8388878151811061065357610653610cb1565b73ffffffffffffffffffffffffffffffffffffffff92831660209182029290920181019190915294166000908152938490525050604090912091909155506001016102df565b506040517f229d683d00000000000000000000000000000000000000000000000000000000815273ffffffffffffffffffffffffffffffffffffffff7f0000000000000000000000000000000000000000000000000000000000000000169063229d683d9061070c908590600401610eaf565b600060405180830381600087803b15801561072657600080fd5b505af115801561073a573d6000803e3d6000fd5b505050507fce2bd94f673db625f203578fd574af903b9fd5dc2593832add8ba27b9057de3a8260405161076d9190610eaf565b60405180910390a15050505050565b60007f000000000000000000000000000000000000000000000000000000000000000073ffffffffffffffffffffffffffffffffffffffff1663f0f2740d6040518163ffffffff1660e01b8152600401602060405180830381865afa1580156107e9573d6000803e3d6000fd5b505050506040513d601f19601f8201168201806040525081019061080d9190610c94565b905060005b82811015610aa957600084848381811061082e5761082e610cb1565b90506020020160208101906108439190610c41565b73ffffffffffffffffffffffffffffffffffffffff81166000908152602081905260408120549192508190036108bd576040517fe5e1e2a900000000000000000000000000000000000000000000000000000000815273ffffffffffffffffffffffffffffffffffffffff8316600482015260240161041d565b6040517f4bae2be8000000000000000000000000000000000000000000000000000000008152600481018290526000907f000000000000000000000000000000000000000000000000000000000000000073ffffffffffffffffffffffffffffffffffffffff1690634bae2be890602401600060405180830381865afa15801561094b573d6000803e3d6000fd5b505050506040513d6000823e601f3d9081017fffffffffffffffffffffffffffffffffffffffffffffffffffffffffffffffe01682016040526109919190810190610dd6565b50805160208201206040517fa3a2656a00000000000000000000000000000000000000000000000000000000815260048101829052602481018a905291975095506000945073ffffffffffffffffffffffffffffffffffffffff8b16935063a3a2656a92506044019050602060405180830381865afa158015610a18573d6000803e3d6000fd5b505050506040513d601f19601f82011682018060405250810190610a3c9190610e8d565b905080610a78576040517f73bb64030000000000000000000000000000000000000000000000000000000081526004810185905260240161041d565b5050505073ffffffffffffffffffffffffffffffffffffffff16600090815260208190526040812055600101610812565b506040517f7cd727ba00000000000000000000000000000000000000000000000000000000815273ffffffffffffffffffffffffffffffffffffffff7f00000000000000000000000000000000000000000000000000000000000000001690637cd727ba90610b1e9086908690600401610f09565b600060405180830381600087803b158015610b3857600080fd5b505af1158015610b4c573d6000803e3d6000fd5b505050507f9063cc81f7b7355a42e797c2e706377c4431f539572eb4c2ef6f2011ae19a9668383604051610b81929190610f09565b60405180910390a1505050565b60008083601f840112610ba057600080fd5b50813567ffffffffffffffff811115610bb857600080fd5b6020830191508360208260051b8501011115610bd357600080fd5b9250929050565b60008060208385031215610bed57600080fd5b823567ffffffffffffffff811115610c0457600080fd5b610c1085828601610b8e565b90969095509350505050565b73ffffffffffffffffffffffffffffffffffffffff81168114610c3e57600080fd5b50565b600060208284031215610c5357600080fd5b8135610c5e81610c1c565b9392505050565b7f4e487b7100000000000000000000000000000000000000000000000000000000600052604160045260246000fd5b600060208284031215610ca657600080fd5b8151610c5e81610c1c565b7f4e487b7100000000000000000000000000000000000000000000000000000000600052603260045260246000fd5b805161ffff81168114610cf257600080fd5b919050565b805167ffffffffffffffff81168114610cf257600080fd5b600082601f830112610d2057600080fd5b815167ffffffffffffffff80821115610d3b57610d3b610c65565b604051601f83017fffffffffffffffffffffffffffffffffffffffffffffffffffffffffffffffe0908116603f01168101908282118183101715610d8157610d81610c65565b8160405283815260209250866020858801011115610d9e57600080fd5b600091505b83821015610dc05785820183015181830184015290820190610da3565b6000602085830101528094505050505092915050565b600080600080600080600060e0888a031215610df157600080fd5b610dfa88610ce0565b9650610e0860208901610ce0565b9550610e1660408901610cf7565b9450610e2460608901610cf7565b9350610e3260808901610cf7565b925060a088015167ffffffffffffffff80821115610e4f57600080fd5b610e5b8b838c01610d0f565b935060c08a0151915080821115610e7157600080fd5b50610e7e8a828b01610d0f565b91505092959891949750929550565b600060208284031215610e9f57600080fd5b81518015158114610c5e57600080fd5b6020808252825182820181905260009190848201906040850190845b81811015610efd57835173ffffffffffffffffffffffffffffffffffffffff1683529284019291840191600101610ecb565b50909695505050505050565b60208082528181018390526000908460408401835b86811015610f59578235610f3181610c1c565b73ffffffffffffffffffffffffffffffffffffffff1682529183019190830190600101610f1e565b50969550505050505056fea26469706673582212200ca4732629dd7d9ca6edd8c2c7cd89e1128d8f15437c90e8cff1d47df1d0e1ec64736f6c63430008160033",
  "linkReferences": {},
  "deployedLinkReferences": {}
}