{
  "_format": "hh-sol-artifact-1",
  "contractName": "EDULandRewardsKYCController",
  "sourceName": "contracts/land/EDULandRewardsKYCController.sol",
  "abi": [
    {
      "inputs": [
        {
          "internalType": "address",
          "name": "eduLandRewardsAddress",
          "type": "address"
        },
        {
          "internalType": "address",
          "name": "kycCertificateNftAddress",
          "type": "address"
        },
        {
          "internalType": "string",
          "name": "vcIssuerDid",
          "type": "string"
        },
        {
          "internalType": "contract IForwarderRegistry",
          "name": "forwarderRegistry",
          "type": "address"
        }
      ],
      "stateMutability": "nonpayable",
      "type": "constructor"
    },
    {
      "inputs": [],
      "name": "InvalidEduLandRewardsAddress",
      "type": "error"
    },
    {
      "inputs": [
        {
          "internalType": "uint256",
          "name": "vcId",
          "type": "uint256"
        }
      ],
      "name": "InvalidIssuerDid",
      "type": "error"
    },
    {
      "inputs": [],
      "name": "InvalidKycCertificateNFTAddress",
      "type": "error"
    },
    {
      "inputs": [],
      "name": "KycWalletAlreadySet",
      "type": "error"
    },
    {
      "inputs": [],
      "name": "NoWalletToBeAdded",
      "type": "error"
    },
    {
      "inputs": [],
      "name": "NoWalletToBeRemoved",
      "type": "error"
    },
    {
      "inputs": [
        {
          "internalType": "uint256",
          "name": "vcId",
          "type": "uint256"
        }
      ],
      "name": "RevokedVc",
      "type": "error"
    },
    {
      "inputs": [
        {
          "internalType": "uint256",
          "name": "vcId",
          "type": "uint256"
        }
      ],
      "name": "VcNotRevoked",
      "type": "error"
    },
    {
      "anonymous": false,
      "inputs": [
        {
          "indexed": false,
          "internalType": "address[]",
          "name": "accounts",
          "type": "address[]"
        }
      ],
      "name": "KycWalletsAdded",
      "type": "event"
    },
    {
      "anonymous": false,
      "inputs": [
        {
          "indexed": false,
          "internalType": "address[]",
          "name": "accounts",
          "type": "address[]"
        }
      ],
      "name": "KycWalletsRemoved",
      "type": "event"
    },
    {
      "inputs": [],
      "name": "EDU_LAND_REWARDS",
      "outputs": [
        {
          "internalType": "contract RewardsKYC",
          "name": "",
          "type": "address"
        }
      ],
      "stateMutability": "view",
      "type": "function"
    },
    {
      "inputs": [],
      "name": "KYC_CERTIFICATE_NFT",
      "outputs": [
        {
          "internalType": "contract OpenCampusCertificateNFTv1",
          "name": "",
          "type": "address"
        }
      ],
      "stateMutability": "view",
      "type": "function"
    },
    {
      "inputs": [],
      "name": "VC_ISSUER_DID_HASH",
      "outputs": [
        {
          "internalType": "bytes32",
          "name": "",
          "type": "bytes32"
        }
      ],
      "stateMutability": "view",
      "type": "function"
    },
    {
      "inputs": [
        {
          "internalType": "uint256",
          "name": "vcId",
          "type": "uint256"
        }
      ],
      "name": "addKycWallet",
      "outputs": [],
      "stateMutability": "nonpayable",
      "type": "function"
    },
    {
      "inputs": [
        {
          "internalType": "uint256[]",
          "name": "vcIds",
          "type": "uint256[]"
        }
      ],
      "name": "addKycWallets",
      "outputs": [],
      "stateMutability": "nonpayable",
      "type": "function"
    },
    {
      "inputs": [],
      "name": "forwarderRegistry",
      "outputs": [
        {
          "internalType": "contract IForwarderRegistry",
          "name": "",
          "type": "address"
        }
      ],
      "stateMutability": "view",
      "type": "function"
    },
    {
      "inputs": [
        {
          "internalType": "address",
          "name": "forwarder",
          "type": "address"
        }
      ],
      "name": "isTrustedForwarder",
      "outputs": [
        {
          "internalType": "bool",
          "name": "",
          "type": "bool"
        }
      ],
      "stateMutability": "view",
      "type": "function"
    },
    {
      "inputs": [
        {
          "internalType": "address[]",
          "name": "accounts",
          "type": "address[]"
        }
      ],
      "name": "removeKycWallets",
      "outputs": [],
      "stateMutability": "nonpayable",
      "type": "function"
    },
    {
      "inputs": [
        {
          "internalType": "address",
          "name": "account",
          "type": "address"
        }
      ],
      "name": "vcIdPerAccount",
      "outputs": [
        {
          "internalType": "uint256",
          "name": "vcId",
          "type": "uint256"
        }
      ],
      "stateMutability": "view",
      "type": "function"
    }
  ],
  "bytecode": "0x6101006040523480156200001257600080fd5b506040516200198a3803806200198a8339810160408190526200003591620000f1565b6001600160a01b03808216608052841662000063576040516395267c7d60e01b815260040160405180910390fd5b6001600160a01b0383166200008b57604051636f7a8df160e11b815260040160405180910390fd5b506001600160a01b0392831660a052911660c052805160209091012060e05262000204565b6001600160a01b0381168114620000c657600080fd5b50565b634e487b7160e01b600052604160045260246000fd5b8051620000ec81620000b0565b919050565b600080600080608085870312156200010857600080fd5b84516200011581620000b0565b809450506020808601516200012a81620000b0565b60408701519094506001600160401b03808211156200014857600080fd5b818801915088601f8301126200015d57600080fd5b815181811115620001725762000172620000c9565b604051601f8201601f19908116603f011681019083821181831017156200019d576200019d620000c9565b816040528281528b86848701011115620001b657600080fd5b600093505b82841015620001da5784840186015181850187015292850192620001bb565b6000868483010152809750505050505050620001f960608601620000df565b905092959194509250565b60805160a05160c05160e0516116eb6200029f6000396000818161010e015281816104f10152610a7b01526000818161020d015281816102330152818161033701528181610438015281816108b0015281816109c201528181610ad801528181610d7e0152610ef30152600081816101e6015281816107d701528181610cd2015261122c01526000818160bf015261016101526116eb6000f3fe608060405234801561001057600080fd5b50600436106100a35760003560e01c8063572b6c05116100765780637cd727ba1161005b5780637cd727ba146101ce578063d955bab3146101e1578063f97060a61461020857600080fd5b8063572b6c05146101515780636e27084e146101ae57600080fd5b806308e77ef1146100a85780632b4c9f16146100bd5780632dd444c0146101095780634d1e5e3c1461013e575b600080fd5b6100bb6100b636600461130e565b61022f565b005b7f00000000000000000000000000000000000000000000000000000000000000005b60405173ffffffffffffffffffffffffffffffffffffffff90911681526020015b60405180910390f35b6101307f000000000000000000000000000000000000000000000000000000000000000081565b604051908152602001610100565b6100bb61014c366004611350565b61087e565b61019e61015f36600461138e565b7f000000000000000000000000000000000000000000000000000000000000000073ffffffffffffffffffffffffffffffffffffffff90811691161490565b6040519015158152602001610100565b6101306101bc36600461138e565b60006020819052908152604090205481565b6100bb6101dc36600461130e565b610d7a565b6100df7f000000000000000000000000000000000000000000000000000000000000000081565b6100df7f000000000000000000000000000000000000000000000000000000000000000081565b60007f000000000000000000000000000000000000000000000000000000000000000073ffffffffffffffffffffffffffffffffffffffff1663f0f2740d6040518163ffffffff1660e01b8152600401602060405180830381865afa15801561029c573d6000803e3d6000fd5b505050506040513d601f19601f820116820180604052508101906102c091906113b2565b90508160008167ffffffffffffffff8111156102de576102de6113cf565b604051908082528060200260200182016040528015610307578160200160208202803683370190505b5090506000805b838110156106b357600087878381811061032a5761032a6113fe565b90506020020135905060007f000000000000000000000000000000000000000000000000000000000000000073ffffffffffffffffffffffffffffffffffffffff16636352211e836040518263ffffffff1660e01b815260040161039091815260200190565b602060405180830381865afa1580156103ad573d6000803e3d6000fd5b505050506040513d601f19601f820116820180604052508101906103d191906113b2565b73ffffffffffffffffffffffffffffffffffffffff8116600090815260208190526040902054909150156104065750506106ab565b6040517f4bae2be8000000000000000000000000000000000000000000000000000000008152600481018390526000907f000000000000000000000000000000000000000000000000000000000000000073ffffffffffffffffffffffffffffffffffffffff1690634bae2be890602401600060405180830381865afa158015610494573d6000803e3d6000fd5b505050506040513d6000823e601f3d9081017fffffffffffffffffffffffffffffffffffffffffffffffffffffffffffffffe01682016040526104da9190810190611523565b5095505050505050600081805190602001209050807f00000000000000000000000000000000000000000000000000000000000000001461054f576040517fed778042000000000000000000000000000000000000000000000000000000008152600481018590526024015b60405180910390fd5b6040517fa3a2656a000000000000000000000000000000000000000000000000000000008152600481018290526024810185905260009073ffffffffffffffffffffffffffffffffffffffff8b169063a3a2656a90604401602060405180830381865afa1580156105c4573d6000803e3d6000fd5b505050506040513d601f19601f820116820180604052508101906105e891906115da565b90508015610625576040517f5d326d8400000000000000000000000000000000000000000000000000000000815260048101869052602401610546565b73ffffffffffffffffffffffffffffffffffffffff84166000908152602081905260409020859055838888610659816115fc565b99508151811061066b5761066b6113fe565b602002602001019073ffffffffffffffffffffffffffffffffffffffff16908173ffffffffffffffffffffffffffffffffffffffff168152505050505050505b60010161030e565b50806000036106ee576040517fa541486200000000000000000000000000000000000000000000000000000000815260040160405180910390fd5b60008167ffffffffffffffff811115610709576107096113cf565b604051908082528060200260200182016040528015610732578160200160208202803683370190505b50905060005b8281101561079957838181518110610752576107526113fe565b602002602001015182828151811061076c5761076c6113fe565b73ffffffffffffffffffffffffffffffffffffffff90921660209283029190910190910152600101610738565b506040517f229d683d00000000000000000000000000000000000000000000000000000000815273ffffffffffffffffffffffffffffffffffffffff7f0000000000000000000000000000000000000000000000000000000000000000169063229d683d9061080c90849060040161165b565b600060405180830381600087803b15801561082657600080fd5b505af115801561083a573d6000803e3d6000fd5b505050507fce2bd94f673db625f203578fd574af903b9fd5dc2593832add8ba27b9057de3a8160405161086d919061165b565b60405180910390a150505050505050565b6040517f6352211e000000000000000000000000000000000000000000000000000000008152600481018290526000907f000000000000000000000000000000000000000000000000000000000000000073ffffffffffffffffffffffffffffffffffffffff1690636352211e90602401602060405180830381865afa15801561090c573d6000803e3d6000fd5b505050506040513d601f19601f8201168201806040525081019061093091906113b2565b73ffffffffffffffffffffffffffffffffffffffff811660009081526020819052604090205490915015610990576040517fb00704f400000000000000000000000000000000000000000000000000000000815260040160405180910390fd5b6040517f4bae2be8000000000000000000000000000000000000000000000000000000008152600481018390526000907f000000000000000000000000000000000000000000000000000000000000000073ffffffffffffffffffffffffffffffffffffffff1690634bae2be890602401600060405180830381865afa158015610a1e573d6000803e3d6000fd5b505050506040513d6000823e601f3d9081017fffffffffffffffffffffffffffffffffffffffffffffffffffffffffffffffe0168201604052610a649190810190611523565b5095505050505050600081805190602001209050807f000000000000000000000000000000000000000000000000000000000000000014610ad4576040517fed77804200000000000000000000000000000000000000000000000000000000815260048101859052602401610546565b60007f000000000000000000000000000000000000000000000000000000000000000073ffffffffffffffffffffffffffffffffffffffff1663f0f2740d6040518163ffffffff1660e01b8152600401602060405180830381865afa158015610b41573d6000803e3d6000fd5b505050506040513d601f19601f82011682018060405250810190610b6591906113b2565b6040517fa3a2656a000000000000000000000000000000000000000000000000000000008152600481018490526024810187905273ffffffffffffffffffffffffffffffffffffffff919091169063a3a2656a90604401602060405180830381865afa158015610bd9573d6000803e3d6000fd5b505050506040513d601f19601f82011682018060405250810190610bfd91906115da565b90508015610c3a576040517f5d326d8400000000000000000000000000000000000000000000000000000000815260048101869052602401610546565b604080516001808252818301909252600091602080830190803683370190505090508481600081518110610c7057610c706113fe565b73ffffffffffffffffffffffffffffffffffffffff928316602091820292909201810191909152868216600090815290819052604090819020889055517f229d683d0000000000000000000000000000000000000000000000000000000081527f00000000000000000000000000000000000000000000000000000000000000009091169063229d683d90610d0990849060040161165b565b600060405180830381600087803b158015610d2357600080fd5b505af1158015610d37573d6000803e3d6000fd5b505050507fce2bd94f673db625f203578fd574af903b9fd5dc2593832add8ba27b9057de3a81604051610d6a919061165b565b60405180910390a1505050505050565b60007f000000000000000000000000000000000000000000000000000000000000000073ffffffffffffffffffffffffffffffffffffffff1663f0f2740d6040518163ffffffff1660e01b8152600401602060405180830381865afa158015610de7573d6000803e3d6000fd5b505050506040513d601f19601f82011682018060405250810190610e0b91906113b2565b90508160008167ffffffffffffffff811115610e2957610e296113cf565b604051908082528060200260200182016040528015610e52578160200160208202803683370190505b5090506000805b83811015611108576000878783818110610e7557610e756113fe565b9050602002016020810190610e8a919061138e565b73ffffffffffffffffffffffffffffffffffffffff8116600090815260208190526040812054919250819003610ec1575050611100565b6040517f4bae2be8000000000000000000000000000000000000000000000000000000008152600481018290526000907f000000000000000000000000000000000000000000000000000000000000000073ffffffffffffffffffffffffffffffffffffffff1690634bae2be890602401600060405180830381865afa158015610f4f573d6000803e3d6000fd5b505050506040513d6000823e601f3d9081017fffffffffffffffffffffffffffffffffffffffffffffffffffffffffffffffe0168201604052610f959190810190611523565b50805160208201206040517fa3a2656a00000000000000000000000000000000000000000000000000000000815260048101829052602481018a905291975095506000945073ffffffffffffffffffffffffffffffffffffffff8e16935063a3a2656a92506044019050602060405180830381865afa15801561101c573d6000803e3d6000fd5b505050506040513d601f19601f8201168201806040525081019061104091906115da565b90508061107c576040517f73bb640300000000000000000000000000000000000000000000000000000000815260048101859052602401610546565b73ffffffffffffffffffffffffffffffffffffffff85166000908152602081905260408120558488886110ae816115fc565b9950815181106110c0576110c06113fe565b602002602001019073ffffffffffffffffffffffffffffffffffffffff16908173ffffffffffffffffffffffffffffffffffffffff168152505050505050505b600101610e59565b5080600003611143576040517f67574b5e00000000000000000000000000000000000000000000000000000000815260040160405180910390fd5b60008167ffffffffffffffff81111561115e5761115e6113cf565b604051908082528060200260200182016040528015611187578160200160208202803683370190505b50905060005b828110156111ee578381815181106111a7576111a76113fe565b60200260200101518282815181106111c1576111c16113fe565b73ffffffffffffffffffffffffffffffffffffffff9092166020928302919091019091015260010161118d565b506040517f7cd727ba00000000000000000000000000000000000000000000000000000000815273ffffffffffffffffffffffffffffffffffffffff7f00000000000000000000000000000000000000000000000000000000000000001690637cd727ba9061126190849060040161165b565b600060405180830381600087803b15801561127b57600080fd5b505af115801561128f573d6000803e3d6000fd5b505050507f9063cc81f7b7355a42e797c2e706377c4431f539572eb4c2ef6f2011ae19a9668160405161086d919061165b565b60008083601f8401126112d457600080fd5b50813567ffffffffffffffff8111156112ec57600080fd5b6020830191508360208260051b850101111561130757600080fd5b9250929050565b6000806020838503121561132157600080fd5b823567ffffffffffffffff81111561133857600080fd5b611344858286016112c2565b90969095509350505050565b60006020828403121561136257600080fd5b5035919050565b73ffffffffffffffffffffffffffffffffffffffff8116811461138b57600080fd5b50565b6000602082840312156113a057600080fd5b81356113ab81611369565b9392505050565b6000602082840312156113c457600080fd5b81516113ab81611369565b7f4e487b7100000000000000000000000000000000000000000000000000000000600052604160045260246000fd5b7f4e487b7100000000000000000000000000000000000000000000000000000000600052603260045260246000fd5b805161ffff8116811461143f57600080fd5b919050565b805167ffffffffffffffff8116811461143f57600080fd5b600082601f83011261146d57600080fd5b815167ffffffffffffffff80821115611488576114886113cf565b604051601f83017fffffffffffffffffffffffffffffffffffffffffffffffffffffffffffffffe0908116603f011681019082821181831017156114ce576114ce6113cf565b81604052838152602092508660208588010111156114eb57600080fd5b600091505b8382101561150d57858201830151818301840152908201906114f0565b6000602085830101528094505050505092915050565b600080600080600080600060e0888a03121561153e57600080fd5b6115478861142d565b96506115556020890161142d565b955061156360408901611444565b945061157160608901611444565b935061157f60808901611444565b925060a088015167ffffffffffffffff8082111561159c57600080fd5b6115a88b838c0161145c565b935060c08a01519150808211156115be57600080fd5b506115cb8a828b0161145c565b91505092959891949750929550565b6000602082840312156115ec57600080fd5b815180151581146113ab57600080fd5b60007fffffffffffffffffffffffffffffffffffffffffffffffffffffffffffffffff8203611654577f4e487b7100000000000000000000000000000000000000000000000000000000600052601160045260246000fd5b5060010190565b6020808252825182820181905260009190848201906040850190845b818110156116a957835173ffffffffffffffffffffffffffffffffffffffff1683529284019291840191600101611677565b5090969550505050505056fea2646970667358221220b03df03b40dfc23aed104a5ff94dbda6303460ffa943aefd598ad9e213b2c6db64736f6c63430008160033",
  "linkReferences": {},
  "deployedLinkReferences": {}
}