{
  "_format": "hh-sol-artifact-1",
  "contractName": "EDULandRewardsKYCController",
  "sourceName": "contracts/land/EDULandRewardsKYCController.sol",
  "abi": [
    {
      "inputs": [
        {
          "internalType": "address",
          "name": "eduLandRewardsAddress",
          "type": "address"
        },
        {
          "internalType": "address",
          "name": "certificateNFTv1Address",
          "type": "address"
        },
        {
          "internalType": "address",
          "name": "vcIssuerAddress",
          "type": "address"
        },
        {
          "internalType": "contract IForwarderRegistry",
          "name": "forwarderRegistry",
          "type": "address"
        }
      ],
      "stateMutability": "nonpayable",
      "type": "constructor"
    },
    {
      "inputs": [],
      "name": "InvalidCertificateNFTv1Address",
      "type": "error"
    },
    {
      "inputs": [],
      "name": "InvalidEduLandRewardsAddress",
      "type": "error"
    },
    {
      "inputs": [],
      "name": "InvalidVcIssuerAddress",
      "type": "error"
    },
    {
      "inputs": [
        {
          "internalType": "address",
          "name": "account",
          "type": "address"
        },
        {
          "internalType": "uint256",
          "name": "vcId",
          "type": "uint256"
        }
      ],
      "name": "KycWalletAlreadySet",
      "type": "error"
    },
    {
      "inputs": [
        {
          "internalType": "address",
          "name": "account",
          "type": "address"
        }
      ],
      "name": "KycWalletNotSet",
      "type": "error"
    },
    {
      "inputs": [
        {
          "internalType": "uint256",
          "name": "vcId",
          "type": "uint256"
        }
      ],
      "name": "RevokedVc",
      "type": "error"
    },
    {
      "inputs": [
        {
          "internalType": "uint256",
          "name": "vcId",
          "type": "uint256"
        },
        {
          "internalType": "string",
          "name": "issuerDid",
          "type": "string"
        }
      ],
      "name": "VcIssuerNotAllowed",
      "type": "error"
    },
    {
      "inputs": [
        {
          "internalType": "uint256",
          "name": "vcId",
          "type": "uint256"
        }
      ],
      "name": "VcNotRevoked",
      "type": "error"
    },
    {
      "anonymous": false,
      "inputs": [
        {
          "indexed": false,
          "internalType": "address[]",
          "name": "accounts",
          "type": "address[]"
        }
      ],
      "name": "KycWalletsAdded",
      "type": "event"
    },
    {
      "anonymous": false,
      "inputs": [
        {
          "indexed": false,
          "internalType": "address[]",
          "name": "accounts",
          "type": "address[]"
        }
      ],
      "name": "KycWalletsRemoved",
      "type": "event"
    },
    {
      "inputs": [],
      "name": "EDU_LAND_REWARDS",
      "outputs": [
        {
          "internalType": "contract RewardsKYC",
          "name": "",
          "type": "address"
        }
      ],
      "stateMutability": "view",
      "type": "function"
    },
    {
      "inputs": [],
      "name": "VC_ISSUER",
      "outputs": [
        {
          "internalType": "address",
          "name": "",
          "type": "address"
        }
      ],
      "stateMutability": "view",
      "type": "function"
    },
    {
      "inputs": [],
      "name": "VC_ISSUERS_DID_REGISTRY",
      "outputs": [
        {
          "internalType": "contract IIssuersDIDRegistry",
          "name": "",
          "type": "address"
        }
      ],
      "stateMutability": "view",
      "type": "function"
    },
    {
      "inputs": [],
      "name": "VC_NFT_V1",
      "outputs": [
        {
          "internalType": "contract OpenCampusCertificateNFTv1",
          "name": "",
          "type": "address"
        }
      ],
      "stateMutability": "view",
      "type": "function"
    },
    {
      "inputs": [
        {
          "internalType": "uint256[]",
          "name": "vcIds",
          "type": "uint256[]"
        }
      ],
      "name": "addKycWallets",
      "outputs": [],
      "stateMutability": "nonpayable",
      "type": "function"
    },
    {
      "inputs": [],
      "name": "forwarderRegistry",
      "outputs": [
        {
          "internalType": "contract IForwarderRegistry",
          "name": "",
          "type": "address"
        }
      ],
      "stateMutability": "view",
      "type": "function"
    },
    {
      "inputs": [
        {
          "internalType": "address",
          "name": "forwarder",
          "type": "address"
        }
      ],
      "name": "isTrustedForwarder",
      "outputs": [
        {
          "internalType": "bool",
          "name": "",
          "type": "bool"
        }
      ],
      "stateMutability": "view",
      "type": "function"
    },
    {
      "inputs": [
        {
          "internalType": "address[]",
          "name": "accounts",
          "type": "address[]"
        }
      ],
      "name": "removeKycWallets",
      "outputs": [],
      "stateMutability": "nonpayable",
      "type": "function"
    },
    {
      "inputs": [
        {
          "internalType": "address",
          "name": "account",
          "type": "address"
        }
      ],
      "name": "vcIdPerAccount",
      "outputs": [
        {
          "internalType": "uint256",
          "name": "vcId",
          "type": "uint256"
        }
      ],
      "stateMutability": "view",
      "type": "function"
    }
  ],
  "bytecode": "0x6101206040523480156200001257600080fd5b50604051620014a9380380620014a9833981016040819052620000359162000163565b6001600160a01b03808216608052841662000063576040516395267c7d60e01b815260040160405180910390fd5b6001600160a01b0383166200008b5760405163099e84bb60e31b815260040160405180910390fd5b6001600160a01b038216620000b357604051633899461f60e01b815260040160405180910390fd5b6001600160a01b0380851660a052831660c08190526040805163043d901560e51b815290516387b202a0916004808201926020929091908290030181865afa15801562000104573d6000803e3d6000fd5b505050506040513d601f19601f820116820180604052508101906200012a9190620001cb565b6001600160a01b0390811660e052919091166101005250620001f2915050565b6001600160a01b03811681146200016057600080fd5b50565b600080600080608085870312156200017a57600080fd5b845162000187816200014a565b60208601519094506200019a816200014a565b6040860151909350620001ad816200014a565b6060860151909250620001c0816200014a565b939692955090935050565b600060208284031215620001de57600080fd5b8151620001eb816200014a565b9392505050565b60805160a05160c05160e0516101005161121f6200028a600039600081816101ac0152818161028f01526108780152600081816101d3015281816105ab0152610afc015260008181610221015281816102b40152818161036f015281816104bf0152818161089d0152610a0c0152600081816101fa015281816107ce0152610cc501526000818160bf0152610119015261121f6000f3fe608060405234801561001057600080fd5b50600436106100a35760003560e01c80637cd727ba11610076578063ce1b9d2d1161005b578063ce1b9d2d146101ce578063d955bab3146101f5578063da01af291461021c57600080fd5b80637cd727ba14610194578063a804eee9146101a757600080fd5b806308e77ef1146100a85780632b4c9f16146100bd578063572b6c05146101095780636e27084e14610166575b600080fd5b6100bb6100b6366004610db9565b610243565b005b7f00000000000000000000000000000000000000000000000000000000000000005b60405173ffffffffffffffffffffffffffffffffffffffff90911681526020015b60405180910390f35b610156610117366004610e20565b7f000000000000000000000000000000000000000000000000000000000000000073ffffffffffffffffffffffffffffffffffffffff90811691161490565b6040519015158152602001610100565b610186610174366004610e20565b60006020819052908152604090205481565b604051908152602001610100565b6100bb6101a2366004610db9565b610874565b6100df7f000000000000000000000000000000000000000000000000000000000000000081565b6100df7f000000000000000000000000000000000000000000000000000000000000000081565b6100df7f000000000000000000000000000000000000000000000000000000000000000081565b6100df7f000000000000000000000000000000000000000000000000000000000000000081565b8060008167ffffffffffffffff81111561025f5761025f610e44565b604051908082528060200260200182016040528015610288578160200160208202803683370190505b50905060007f0000000000000000000000000000000000000000000000000000000000000000905060007f000000000000000000000000000000000000000000000000000000000000000073ffffffffffffffffffffffffffffffffffffffff1663f0f2740d6040518163ffffffff1660e01b8152600401602060405180830381865afa15801561031d573d6000803e3d6000fd5b505050506040513d601f19601f820116820180604052508101906103419190610e73565b905060005b8481101561079057600087878381811061036257610362610e90565b90506020020135905060007f000000000000000000000000000000000000000000000000000000000000000073ffffffffffffffffffffffffffffffffffffffff16636352211e836040518263ffffffff1660e01b81526004016103c891815260200190565b602060405180830381865afa1580156103e5573d6000803e3d6000fd5b505050506040513d601f19601f820116820180604052508101906104099190610e73565b73ffffffffffffffffffffffffffffffffffffffff81166000908152602081905260409020549091501561048d576040517fb638fab100000000000000000000000000000000000000000000000000000000815273ffffffffffffffffffffffffffffffffffffffff82166004820152602481018390526044015b60405180910390fd5b6040517f4bae2be8000000000000000000000000000000000000000000000000000000008152600481018390526000907f000000000000000000000000000000000000000000000000000000000000000073ffffffffffffffffffffffffffffffffffffffff1690634bae2be890602401600060405180830381865afa15801561051b573d6000803e3d6000fd5b505050506040513d6000823e601f3d9081017fffffffffffffffffffffffffffffffffffffffffffffffffffffffffffffffe01682016040526105619190810190610fb8565b50805160208201206040517f6f176f7e000000000000000000000000000000000000000000000000000000008152919750955073ffffffffffffffffffffffffffffffffffffffff7f0000000000000000000000000000000000000000000000000000000000000000169450636f176f7e93506105e692508691508b906004016110b9565b602060405180830381865afa158015610603573d6000803e3d6000fd5b505050506040513d601f19601f8201168201806040525081019061062791906110f1565b6106615783826040517f190a2a1a000000000000000000000000000000000000000000000000000000008152600401610484929190611113565b6040517fa3a2656a000000000000000000000000000000000000000000000000000000008152600481018290526024810185905260009073ffffffffffffffffffffffffffffffffffffffff88169063a3a2656a90604401602060405180830381865afa1580156106d6573d6000803e3d6000fd5b505050506040513d601f19601f820116820180604052508101906106fa91906110f1565b90508015610737576040517f5d326d8400000000000000000000000000000000000000000000000000000000815260048101869052602401610484565b8389878151811061074a5761074a610e90565b73ffffffffffffffffffffffffffffffffffffffff9283166020918202929092018101919091529416600090815293849052505060409091209190915550600101610346565b506040517f229d683d00000000000000000000000000000000000000000000000000000000815273ffffffffffffffffffffffffffffffffffffffff7f0000000000000000000000000000000000000000000000000000000000000000169063229d683d90610803908690600401611134565b600060405180830381600087803b15801561081d57600080fd5b505af1158015610831573d6000803e3d6000fd5b505050507fce2bd94f673db625f203578fd574af903b9fd5dc2593832add8ba27b9057de3a836040516108649190611134565b60405180910390a1505050505050565b60007f0000000000000000000000000000000000000000000000000000000000000000905060007f000000000000000000000000000000000000000000000000000000000000000073ffffffffffffffffffffffffffffffffffffffff1663f0f2740d6040518163ffffffff1660e01b8152600401602060405180830381865afa158015610906573d6000803e3d6000fd5b505050506040513d601f19601f8201168201806040525081019061092a9190610e73565b905060005b83811015610c8757600085858381811061094b5761094b610e90565b90506020020160208101906109609190610e20565b73ffffffffffffffffffffffffffffffffffffffff81166000908152602081905260408120549192508190036109da576040517fe5e1e2a900000000000000000000000000000000000000000000000000000000815273ffffffffffffffffffffffffffffffffffffffff83166004820152602401610484565b6040517f4bae2be8000000000000000000000000000000000000000000000000000000008152600481018290526000907f000000000000000000000000000000000000000000000000000000000000000073ffffffffffffffffffffffffffffffffffffffff1690634bae2be890602401600060405180830381865afa158015610a68573d6000803e3d6000fd5b505050506040513d6000823e601f3d9081017fffffffffffffffffffffffffffffffffffffffffffffffffffffffffffffffe0168201604052610aae9190810190610fb8565b50805160208201206040517f6f176f7e00000000000000000000000000000000000000000000000000000000815291975095506000945073ffffffffffffffffffffffffffffffffffffffff7f0000000000000000000000000000000000000000000000000000000000000000169350636f176f7e9250610b36915086908c906004016110b9565b602060405180830381865afa158015610b53573d6000803e3d6000fd5b505050506040513d601f19601f82011682018060405250810190610b7791906110f1565b90508015610c56576040517fa3a2656a000000000000000000000000000000000000000000000000000000008152600481018390526024810185905260009073ffffffffffffffffffffffffffffffffffffffff89169063a3a2656a90604401602060405180830381865afa158015610bf4573d6000803e3d6000fd5b505050506040513d601f19601f82011682018060405250810190610c1891906110f1565b905080610c54576040517f73bb640300000000000000000000000000000000000000000000000000000000815260048101869052602401610484565b505b5050505073ffffffffffffffffffffffffffffffffffffffff1660009081526020819052604081205560010161092f565b506040517f7cd727ba00000000000000000000000000000000000000000000000000000000815273ffffffffffffffffffffffffffffffffffffffff7f00000000000000000000000000000000000000000000000000000000000000001690637cd727ba90610cfc908790879060040161118e565b600060405180830381600087803b158015610d1657600080fd5b505af1158015610d2a573d6000803e3d6000fd5b505050507f9063cc81f7b7355a42e797c2e706377c4431f539572eb4c2ef6f2011ae19a9668484604051610d5f92919061118e565b60405180910390a150505050565b60008083601f840112610d7f57600080fd5b50813567ffffffffffffffff811115610d9757600080fd5b6020830191508360208260051b8501011115610db257600080fd5b9250929050565b60008060208385031215610dcc57600080fd5b823567ffffffffffffffff811115610de357600080fd5b610def85828601610d6d565b90969095509350505050565b73ffffffffffffffffffffffffffffffffffffffff81168114610e1d57600080fd5b50565b600060208284031215610e3257600080fd5b8135610e3d81610dfb565b9392505050565b7f4e487b7100000000000000000000000000000000000000000000000000000000600052604160045260246000fd5b600060208284031215610e8557600080fd5b8151610e3d81610dfb565b7f4e487b7100000000000000000000000000000000000000000000000000000000600052603260045260246000fd5b805161ffff81168114610ed157600080fd5b919050565b805167ffffffffffffffff81168114610ed157600080fd5b60005b83811015610f09578181015183820152602001610ef1565b50506000910152565b600082601f830112610f2357600080fd5b815167ffffffffffffffff80821115610f3e57610f3e610e44565b604051601f83017fffffffffffffffffffffffffffffffffffffffffffffffffffffffffffffffe0908116603f01168101908282118183101715610f8457610f84610e44565b81604052838152866020858801011115610f9d57600080fd5b610fae846020830160208901610eee565b9695505050505050565b600080600080600080600060e0888a031215610fd357600080fd5b610fdc88610ebf565b9650610fea60208901610ebf565b9550610ff860408901610ed6565b945061100660608901610ed6565b935061101460808901610ed6565b925060a088015167ffffffffffffffff8082111561103157600080fd5b61103d8b838c01610f12565b935060c08a015191508082111561105357600080fd5b506110608a828b01610f12565b91505092959891949750929550565b60008151808452611087816020860160208601610eee565b601f017fffffffffffffffffffffffffffffffffffffffffffffffffffffffffffffffe0169290920160200192915050565b6040815260006110cc604083018561106f565b905073ffffffffffffffffffffffffffffffffffffffff831660208301529392505050565b60006020828403121561110357600080fd5b81518015158114610e3d57600080fd5b82815260406020820152600061112c604083018461106f565b949350505050565b6020808252825182820181905260009190848201906040850190845b8181101561118257835173ffffffffffffffffffffffffffffffffffffffff1683529284019291840191600101611150565b50909695505050505050565b60208082528181018390526000908460408401835b868110156111de5782356111b681610dfb565b73ffffffffffffffffffffffffffffffffffffffff16825291830191908301906001016111a3565b50969550505050505056fea26469706673582212204671fbb40cd92d582f68e8cc309d46575ad0fec8dbdf84a9b141163f69b533e664736f6c63430008160033",
  "linkReferences": {},
  "deployedLinkReferences": {}
}