{
  "_format": "hh-sol-artifact-1",
  "contractName": "EDULandRewardsKYCController",
  "sourceName": "contracts/land/EDULandRewardsKYCController.sol",
  "abi": [
    {
      "inputs": [
        {
          "internalType": "address",
          "name": "eduLandRewardsAddress",
          "type": "address"
        },
        {
          "internalType": "address",
          "name": "certificateNFTv1Address",
          "type": "address"
        },
        {
          "internalType": "address",
          "name": "vcIssuer_",
          "type": "address"
        },
        {
          "internalType": "contract IForwarderRegistry",
          "name": "forwarderRegistry",
          "type": "address"
        }
      ],
      "stateMutability": "nonpayable",
      "type": "constructor"
    },
    {
      "inputs": [],
      "name": "IllegalInterfaceId",
      "type": "error"
    },
    {
      "inputs": [],
      "name": "InvalidCertificateNFTv1Address",
      "type": "error"
    },
    {
      "inputs": [],
      "name": "InvalidEduLandRewardsAddress",
      "type": "error"
    },
    {
      "inputs": [
        {
          "internalType": "bytes32",
          "name": "issuerDid",
          "type": "bytes32"
        }
      ],
      "name": "InvalidVcIssuerDid",
      "type": "error"
    },
    {
      "inputs": [
        {
          "internalType": "address",
          "name": "account",
          "type": "address"
        },
        {
          "internalType": "uint256",
          "name": "vcId",
          "type": "uint256"
        }
      ],
      "name": "KycWalletAlreadySet",
      "type": "error"
    },
    {
      "inputs": [
        {
          "internalType": "address",
          "name": "account",
          "type": "address"
        }
      ],
      "name": "KycWalletNotSet",
      "type": "error"
    },
    {
      "inputs": [
        {
          "internalType": "address",
          "name": "account",
          "type": "address"
        }
      ],
      "name": "NotContractOwner",
      "type": "error"
    },
    {
      "inputs": [
        {
          "internalType": "bytes32",
          "name": "role",
          "type": "bytes32"
        },
        {
          "internalType": "address",
          "name": "account",
          "type": "address"
        }
      ],
      "name": "NotRoleHolder",
      "type": "error"
    },
    {
      "inputs": [
        {
          "internalType": "uint256",
          "name": "vcId",
          "type": "uint256"
        }
      ],
      "name": "RevokedVc",
      "type": "error"
    },
    {
      "inputs": [
        {
          "internalType": "uint256",
          "name": "vcId",
          "type": "uint256"
        }
      ],
      "name": "VcNotRevoked",
      "type": "error"
    },
    {
      "anonymous": false,
      "inputs": [
        {
          "indexed": false,
          "internalType": "address[]",
          "name": "accounts",
          "type": "address[]"
        }
      ],
      "name": "KycWalletsAdded",
      "type": "event"
    },
    {
      "anonymous": false,
      "inputs": [
        {
          "indexed": false,
          "internalType": "address[]",
          "name": "accounts",
          "type": "address[]"
        }
      ],
      "name": "KycWalletsRemoved",
      "type": "event"
    },
    {
      "anonymous": false,
      "inputs": [
        {
          "indexed": true,
          "internalType": "address",
          "name": "previousOwner",
          "type": "address"
        },
        {
          "indexed": true,
          "internalType": "address",
          "name": "newOwner",
          "type": "address"
        }
      ],
      "name": "OwnershipTransferred",
      "type": "event"
    },
    {
      "anonymous": false,
      "inputs": [
        {
          "indexed": false,
          "internalType": "bytes32",
          "name": "role",
          "type": "bytes32"
        },
        {
          "indexed": false,
          "internalType": "address",
          "name": "account",
          "type": "address"
        },
        {
          "indexed": false,
          "internalType": "address",
          "name": "operator",
          "type": "address"
        }
      ],
      "name": "RoleGranted",
      "type": "event"
    },
    {
      "anonymous": false,
      "inputs": [
        {
          "indexed": false,
          "internalType": "bytes32",
          "name": "role",
          "type": "bytes32"
        },
        {
          "indexed": false,
          "internalType": "address",
          "name": "account",
          "type": "address"
        },
        {
          "indexed": false,
          "internalType": "address",
          "name": "operator",
          "type": "address"
        }
      ],
      "name": "RoleRevoked",
      "type": "event"
    },
    {
      "anonymous": false,
      "inputs": [
        {
          "indexed": false,
          "internalType": "address",
          "name": "vcIssuer",
          "type": "address"
        }
      ],
      "name": "VcIssuerSet",
      "type": "event"
    },
    {
      "inputs": [],
      "name": "EDU_LAND_REWARDS",
      "outputs": [
        {
          "internalType": "contract RewardsKYC",
          "name": "",
          "type": "address"
        }
      ],
      "stateMutability": "view",
      "type": "function"
    },
    {
      "inputs": [],
      "name": "OPERATOR_ROLE",
      "outputs": [
        {
          "internalType": "bytes32",
          "name": "",
          "type": "bytes32"
        }
      ],
      "stateMutability": "view",
      "type": "function"
    },
    {
      "inputs": [],
      "name": "VC_ISSUERS_DID_REGISTRY",
      "outputs": [
        {
          "internalType": "contract IIssuersDIDRegistry",
          "name": "",
          "type": "address"
        }
      ],
      "stateMutability": "view",
      "type": "function"
    },
    {
      "inputs": [],
      "name": "VC_NFT_V1",
      "outputs": [
        {
          "internalType": "contract OpenCampusCertificateNFTv1",
          "name": "",
          "type": "address"
        }
      ],
      "stateMutability": "view",
      "type": "function"
    },
    {
      "inputs": [
        {
          "internalType": "uint256[]",
          "name": "vcIds",
          "type": "uint256[]"
        }
      ],
      "name": "addKycWallets",
      "outputs": [],
      "stateMutability": "nonpayable",
      "type": "function"
    },
    {
      "inputs": [],
      "name": "forwarderRegistry",
      "outputs": [
        {
          "internalType": "contract IForwarderRegistry",
          "name": "",
          "type": "address"
        }
      ],
      "stateMutability": "view",
      "type": "function"
    },
    {
      "inputs": [
        {
          "internalType": "bytes32",
          "name": "role",
          "type": "bytes32"
        },
        {
          "internalType": "address",
          "name": "account",
          "type": "address"
        }
      ],
      "name": "grantRole",
      "outputs": [],
      "stateMutability": "nonpayable",
      "type": "function"
    },
    {
      "inputs": [
        {
          "internalType": "bytes32",
          "name": "role",
          "type": "bytes32"
        },
        {
          "internalType": "address",
          "name": "account",
          "type": "address"
        }
      ],
      "name": "hasRole",
      "outputs": [
        {
          "internalType": "bool",
          "name": "hasRole_",
          "type": "bool"
        }
      ],
      "stateMutability": "view",
      "type": "function"
    },
    {
      "inputs": [
        {
          "internalType": "address",
          "name": "forwarder",
          "type": "address"
        }
      ],
      "name": "isTrustedForwarder",
      "outputs": [
        {
          "internalType": "bool",
          "name": "",
          "type": "bool"
        }
      ],
      "stateMutability": "view",
      "type": "function"
    },
    {
      "inputs": [],
      "name": "owner",
      "outputs": [
        {
          "internalType": "address",
          "name": "",
          "type": "address"
        }
      ],
      "stateMutability": "view",
      "type": "function"
    },
    {
      "inputs": [
        {
          "internalType": "address[]",
          "name": "accounts",
          "type": "address[]"
        }
      ],
      "name": "removeKycWallets",
      "outputs": [],
      "stateMutability": "nonpayable",
      "type": "function"
    },
    {
      "inputs": [
        {
          "internalType": "bytes32",
          "name": "role",
          "type": "bytes32"
        }
      ],
      "name": "renounceRole",
      "outputs": [],
      "stateMutability": "nonpayable",
      "type": "function"
    },
    {
      "inputs": [
        {
          "internalType": "bytes32",
          "name": "role",
          "type": "bytes32"
        },
        {
          "internalType": "address",
          "name": "account",
          "type": "address"
        }
      ],
      "name": "revokeRole",
      "outputs": [],
      "stateMutability": "nonpayable",
      "type": "function"
    },
    {
      "inputs": [
        {
          "internalType": "address",
          "name": "vcIssuer_",
          "type": "address"
        }
      ],
      "name": "setVcIssuer",
      "outputs": [],
      "stateMutability": "nonpayable",
      "type": "function"
    },
    {
      "inputs": [
        {
          "internalType": "bytes4",
          "name": "interfaceId",
          "type": "bytes4"
        }
      ],
      "name": "supportsInterface",
      "outputs": [
        {
          "internalType": "bool",
          "name": "",
          "type": "bool"
        }
      ],
      "stateMutability": "view",
      "type": "function"
    },
    {
      "inputs": [
        {
          "internalType": "address",
          "name": "newOwner",
          "type": "address"
        }
      ],
      "name": "transferOwnership",
      "outputs": [],
      "stateMutability": "nonpayable",
      "type": "function"
    },
    {
      "inputs": [
        {
          "internalType": "address",
          "name": "account",
          "type": "address"
        }
      ],
      "name": "vcIdPerAccount",
      "outputs": [
        {
          "internalType": "uint256",
          "name": "vcId",
          "type": "uint256"
        }
      ],
      "stateMutability": "view",
      "type": "function"
    },
    {
      "inputs": [],
      "name": "vcIssuer",
      "outputs": [
        {
          "internalType": "address",
          "name": "",
          "type": "address"
        }
      ],
      "stateMutability": "view",
      "type": "function"
    }
  ],
  "bytecode": "0x6101006040523480156200001257600080fd5b50604051620020e6380380620020e68339810160408190526200003591620002d6565b8080336200004e81620000476200017f565b90620001b5565b506001600160a01b03908116608052851690506200007f576040516395267c7d60e01b815260040160405180910390fd5b6001600160a01b0380851660a0528316620000ad5760405163099e84bb60e31b815260040160405180910390fd5b6001600160a01b03831660c08190526040805163043d901560e51b815290516387b202a0916004808201926020929091908290030181865afa158015620000f8573d6000803e3d6000fd5b505050506040513d601f19601f820116820180604052508101906200011e91906200033e565b6001600160a01b0390811660e052600080546001600160a01b03191691841691821790556040519081527f11aa07701dadad84173032b56a7b7b67109b06cebc643a54fc6cb7126aa4d7b49060200160405180910390a15050505062000387565b600080620001af60017fc9ed16f33ab3a66c84bfd83099ccb2a8845871e2e1c1928f63797152f0fd54cd62000365565b92915050565b6001600160a01b038116156200020c5781546001600160a01b0319166001600160a01b03821690811783556040516000907f8be0079c531659141344cd1fd0a4f28419497f9722a3daafe3b4186f6b6457e0908290a35b6200022c6307f5828d60e41b60016200022462000230565b919062000260565b5050565b600080620001af60017fca9d3e17f264b0f3984e2634e94adb37fa3e6a8103f06aeae6fa59e21c769f5e62000365565b600160e01b6001600160e01b03198316016200028f576040516372c683bb60e01b815260040160405180910390fd5b6001600160e01b03199190911660009081526020929092526040909120805460ff1916911515919091179055565b6001600160a01b0381168114620002d357600080fd5b50565b60008060008060808587031215620002ed57600080fd5b8451620002fa81620002bd565b60208601519094506200030d81620002bd565b60408601519093506200032081620002bd565b60608601519092506200033381620002bd565b939692955090935050565b6000602082840312156200035157600080fd5b81516200035e81620002bd565b9392505050565b81810381811115620001af57634e487b7160e01b600052601160045260246000fd5b60805160a05160c05160e051611cd162000415600039600081816102c6015281816107060152610c940152600081816103270152818161040f015281816104ca0152818161061a01528181610a530152610ba40152600081816103000152818161092b0152610e6001526000818161017a015281816101e201528181611694015261171c0152611cd16000f3fe608060405234801561001057600080fd5b50600436106101365760003560e01c80638bb9c5bf116100b2578063d547741f11610081578063da01af2911610066578063da01af2914610322578063f2fde38b14610349578063f5b541a61461035c57600080fd5b8063d547741f146102e8578063d955bab3146102fb57600080fd5b80638bb9c5bf146102935780638da5cb5b146102a657806391d14854146102ae578063ce1b9d2d146102c157600080fd5b8063572b6c05116101095780637cd727ba116100ee5780637cd727ba1461024d578063863de770146102605780638776d0d61461027357600080fd5b8063572b6c05146101d25780636e27084e1461021f57600080fd5b806301ffc9a71461013b57806308e77ef1146101635780632b4c9f16146101785780632f2ff15d146101bf575b600080fd5b61014e610149366004611798565b610383565b60405190151581526020015b60405180910390f35b610176610171366004611826565b61039d565b005b7f00000000000000000000000000000000000000000000000000000000000000005b60405173ffffffffffffffffffffffffffffffffffffffff909116815260200161015a565b6101766101cd36600461188a565b6109d1565b61014e6101e03660046118ba565b7f000000000000000000000000000000000000000000000000000000000000000073ffffffffffffffffffffffffffffffffffffffff90811691161490565b61023f61022d3660046118ba565b60016020526000908152604090205481565b60405190815260200161015a565b61017661025b366004611826565b610a0a565b61017661026e3660046118ba565b610f08565b60005461019a9073ffffffffffffffffffffffffffffffffffffffff1681565b6101766102a13660046118d7565b610fbc565b61019a610fda565b61014e6102bc36600461188a565b611006565b61019a7f000000000000000000000000000000000000000000000000000000000000000081565b6101766102f636600461188a565b611051565b61019a7f000000000000000000000000000000000000000000000000000000000000000081565b61019a7f000000000000000000000000000000000000000000000000000000000000000081565b6101766103573660046118ba565b61107f565b61023f7f97667070c54ef182b0f5858b034beac1b6f3089aa2d3188bb1e8929f4fa9b92981565b60006103978261039161109a565b906110c8565b92915050565b8060008167ffffffffffffffff8111156103b9576103b96118f0565b6040519080825280602002602001820160405280156103e2578160200160208202803683370190505b50905060008060009054906101000a900473ffffffffffffffffffffffffffffffffffffffff16905060007f000000000000000000000000000000000000000000000000000000000000000073ffffffffffffffffffffffffffffffffffffffff1663f0f2740d6040518163ffffffff1660e01b8152600401602060405180830381865afa158015610478573d6000803e3d6000fd5b505050506040513d601f19601f8201168201806040525081019061049c919061191f565b905060005b848110156108ed5760008787838181106104bd576104bd61193c565b90506020020135905060007f000000000000000000000000000000000000000000000000000000000000000073ffffffffffffffffffffffffffffffffffffffff16636352211e836040518263ffffffff1660e01b815260040161052391815260200190565b602060405180830381865afa158015610540573d6000803e3d6000fd5b505050506040513d601f19601f82011682018060405250810190610564919061191f565b73ffffffffffffffffffffffffffffffffffffffff8116600090815260016020526040902054909150156105e8576040517fb638fab100000000000000000000000000000000000000000000000000000000815273ffffffffffffffffffffffffffffffffffffffff82166004820152602481018390526044015b60405180910390fd5b6040517f4bae2be8000000000000000000000000000000000000000000000000000000008152600481018390526000907f000000000000000000000000000000000000000000000000000000000000000073ffffffffffffffffffffffffffffffffffffffff1690634bae2be890602401600060405180830381865afa158015610676573d6000803e3d6000fd5b505050506040513d6000823e601f3d9081017fffffffffffffffffffffffffffffffffffffffffffffffffffffffffffffffe01682016040526106bc9190810190611a64565b50805160208201206040517f6f176f7e000000000000000000000000000000000000000000000000000000008152919750955073ffffffffffffffffffffffffffffffffffffffff7f0000000000000000000000000000000000000000000000000000000000000000169450636f176f7e935061074192508691508b90600401611b1b565b602060405180830381865afa15801561075e573d6000803e3d6000fd5b505050506040513d601f19601f820116820180604052508101906107829190611b8a565b6107bb576040517fb2e2476b000000000000000000000000000000000000000000000000000000008152600481018290526024016105df565b6040517fa3a2656a000000000000000000000000000000000000000000000000000000008152600481018290526024810185905260009073ffffffffffffffffffffffffffffffffffffffff88169063a3a2656a90604401602060405180830381865afa158015610830573d6000803e3d6000fd5b505050506040513d601f19601f820116820180604052508101906108549190611b8a565b90508015610891576040517f5d326d84000000000000000000000000000000000000000000000000000000008152600481018690526024016105df565b838987815181106108a4576108a461193c565b73ffffffffffffffffffffffffffffffffffffffff92831660209182029290920181019190915294166000908152600194859052604090209490945550509190910190506104a1565b506040517f229d683d00000000000000000000000000000000000000000000000000000000815273ffffffffffffffffffffffffffffffffffffffff7f0000000000000000000000000000000000000000000000000000000000000000169063229d683d90610960908690600401611bac565b600060405180830381600087803b15801561097a57600080fd5b505af115801561098e573d6000803e3d6000fd5b505050507fce2bd94f673db625f203578fd574af903b9fd5dc2593832add8ba27b9057de3a836040516109c19190611bac565b60405180910390a1505050505050565b60006109db6111a2565b90506109ef816109e96111ac565b906111da565b610a058383836109fd611249565b929190611277565b505050565b60008054604080517ff0f2740d000000000000000000000000000000000000000000000000000000008152905173ffffffffffffffffffffffffffffffffffffffff92831693927f0000000000000000000000000000000000000000000000000000000000000000169163f0f2740d9160048083019260209291908290030181865afa158015610a9e573d6000803e3d6000fd5b505050506040513d601f19601f82011682018060405250810190610ac2919061191f565b905060005b83811015610e22576000858583818110610ae357610ae361193c565b9050602002016020810190610af891906118ba565b73ffffffffffffffffffffffffffffffffffffffff8116600090815260016020526040812054919250819003610b72576040517fe5e1e2a900000000000000000000000000000000000000000000000000000000815273ffffffffffffffffffffffffffffffffffffffff831660048201526024016105df565b6040517f4bae2be8000000000000000000000000000000000000000000000000000000008152600481018290526000907f000000000000000000000000000000000000000000000000000000000000000073ffffffffffffffffffffffffffffffffffffffff1690634bae2be890602401600060405180830381865afa158015610c00573d6000803e3d6000fd5b505050506040513d6000823e601f3d9081017fffffffffffffffffffffffffffffffffffffffffffffffffffffffffffffffe0168201604052610c469190810190611a64565b50805160208201206040517f6f176f7e00000000000000000000000000000000000000000000000000000000815291975095506000945073ffffffffffffffffffffffffffffffffffffffff7f0000000000000000000000000000000000000000000000000000000000000000169350636f176f7e9250610cce915086908c90600401611b1b565b602060405180830381865afa158015610ceb573d6000803e3d6000fd5b505050506040513d601f19601f82011682018060405250810190610d0f9190611b8a565b90508015610dee576040517fa3a2656a000000000000000000000000000000000000000000000000000000008152600481018390526024810185905260009073ffffffffffffffffffffffffffffffffffffffff89169063a3a2656a90604401602060405180830381865afa158015610d8c573d6000803e3d6000fd5b505050506040513d601f19601f82011682018060405250810190610db09190611b8a565b905080610dec576040517f73bb6403000000000000000000000000000000000000000000000000000000008152600481018690526024016105df565b505b5050505073ffffffffffffffffffffffffffffffffffffffff16600090815260016020819052604082209190915501610ac7565b506040517f7cd727ba00000000000000000000000000000000000000000000000000000000815273ffffffffffffffffffffffffffffffffffffffff7f00000000000000000000000000000000000000000000000000000000000000001690637cd727ba90610e979087908790600401611c06565b600060405180830381600087803b158015610eb157600080fd5b505af1158015610ec5573d6000803e3d6000fd5b505050507f9063cc81f7b7355a42e797c2e706377c4431f539572eb4c2ef6f2011ae19a9668484604051610efa929190611c06565b60405180910390a150505050565b610f437f97667070c54ef182b0f5858b034beac1b6f3089aa2d3188bb1e8929f4fa9b929610f346111a2565b610f3c611249565b9190611349565b600080547fffffffffffffffffffffffff00000000000000000000000000000000000000001673ffffffffffffffffffffffffffffffffffffffff83169081179091556040519081527f11aa07701dadad84173032b56a7b7b67109b06cebc643a54fc6cb7126aa4d7b49060200160405180910390a150565b610fd7610fc76111a2565b82610fd0611249565b91906113cf565b50565b6000611001610fe76111ac565b5473ffffffffffffffffffffffffffffffffffffffff1690565b905090565b600061104a8383611015611249565b60009283526020908152604080842073ffffffffffffffffffffffffffffffffffffffff909316845291905290205460ff1690565b9392505050565b600061105b6111a2565b9050611069816109e96111ac565b610a05838383611077611249565b929190611473565b610fd761108a6111a2565b826110936111ac565b919061153d565b60008061039760017fca9d3e17f264b0f3984e2634e94adb37fa3e6a8103f06aeae6fa59e21c769f5e611c61565b60007c01000000000000000000000000000000000000000000000000000000007fffffffff0000000000000000000000000000000000000000000000000000000083160161111857506000610397565b7ffe003659000000000000000000000000000000000000000000000000000000007fffffffff0000000000000000000000000000000000000000000000000000000083160161116957506001610397565b507fffffffff00000000000000000000000000000000000000000000000000000000166000908152602091909152604090205460ff1690565b6000611001611651565b60008061039760017fc9ed16f33ab3a66c84bfd83099ccb2a8845871e2e1c1928f63797152f0fd54cd611c61565b815473ffffffffffffffffffffffffffffffffffffffff828116911614611245576040517f2ef4875e00000000000000000000000000000000000000000000000000000000815273ffffffffffffffffffffffffffffffffffffffff821660048201526024016105df565b5050565b60008061039760017fc8827d3282af6f37b64c3e9e6f3ac9df286ab0bb0fccd6f8661bf19adb368b23611c61565b60008381526020858152604080832073ffffffffffffffffffffffffffffffffffffffff8616845290915290205460ff166113435760008381526020858152604080832073ffffffffffffffffffffffffffffffffffffffff8681168086529184529382902080547fffffffffffffffffffffffffffffffffffffffffffffffffffffffffffffff00166001179055815187815292830152918316918101919091527f2f8788117e7eff1d82e926ec794901d17c78024a50270940304540a733656f0d90606001610efa565b50505050565b60008281526020848152604080832073ffffffffffffffffffffffffffffffffffffffff8516845290915290205460ff16610a05576040517f7aa728820000000000000000000000000000000000000000000000000000000081526004810183905273ffffffffffffffffffffffffffffffffffffffff821660248201526044016105df565b6113da838284611349565b60008181526020848152604080832073ffffffffffffffffffffffffffffffffffffffff86168085529083529281902080547fffffffffffffffffffffffffffffffffffffffffffffffffffffffffffffff0016905580518481529182018390528101919091527ff6391f5c32d9c69d2a47ea670b442974b53935d1edc7fd64eb21e047a839171b9060600160405180910390a1505050565b60008381526020858152604080832073ffffffffffffffffffffffffffffffffffffffff8616845290915290205460ff16156113435760008381526020858152604080832073ffffffffffffffffffffffffffffffffffffffff8681168086529184529382902080547fffffffffffffffffffffffffffffffffffffffffffffffffffffffffffffff00169055815187815292830152918316918101919091527ff6391f5c32d9c69d2a47ea670b442974b53935d1edc7fd64eb21e047a839171b90606001610efa565b825473ffffffffffffffffffffffffffffffffffffffff90811690831681146115aa576040517f2ef4875e00000000000000000000000000000000000000000000000000000000815273ffffffffffffffffffffffffffffffffffffffff841660048201526024016105df565b8173ffffffffffffffffffffffffffffffffffffffff168173ffffffffffffffffffffffffffffffffffffffff16146113435783547fffffffffffffffffffffffff00000000000000000000000000000000000000001673ffffffffffffffffffffffffffffffffffffffff8381169182178655604051908316907f8be0079c531659141344cd1fd0a4f28419497f9722a3daafe3b4186f6b6457e090600090a350505050565b6000333214806116615750601836105b1561166b57503390565b7fffffffffffffffffffffffffffffffffffffffffffffffffffffffffffffffec36013560601c7f000000000000000000000000000000000000000000000000000000000000000073ffffffffffffffffffffffffffffffffffffffff1633148061178757506040517f8929a8ca00000000000000000000000000000000000000000000000000000000815273ffffffffffffffffffffffffffffffffffffffff82811660048301523360248301527f00000000000000000000000000000000000000000000000000000000000000001690638929a8ca90604401602060405180830381865afa158015611763573d6000803e3d6000fd5b505050506040513d601f19601f820116820180604052508101906117879190611b8a565b1561179157919050565b3391505090565b6000602082840312156117aa57600080fd5b81357fffffffff000000000000000000000000000000000000000000000000000000008116811461104a57600080fd5b60008083601f8401126117ec57600080fd5b50813567ffffffffffffffff81111561180457600080fd5b6020830191508360208260051b850101111561181f57600080fd5b9250929050565b6000806020838503121561183957600080fd5b823567ffffffffffffffff81111561185057600080fd5b61185c858286016117da565b90969095509350505050565b73ffffffffffffffffffffffffffffffffffffffff81168114610fd757600080fd5b6000806040838503121561189d57600080fd5b8235915060208301356118af81611868565b809150509250929050565b6000602082840312156118cc57600080fd5b813561104a81611868565b6000602082840312156118e957600080fd5b5035919050565b7f4e487b7100000000000000000000000000000000000000000000000000000000600052604160045260246000fd5b60006020828403121561193157600080fd5b815161104a81611868565b7f4e487b7100000000000000000000000000000000000000000000000000000000600052603260045260246000fd5b805161ffff8116811461197d57600080fd5b919050565b805167ffffffffffffffff8116811461197d57600080fd5b60005b838110156119b557818101518382015260200161199d565b50506000910152565b600082601f8301126119cf57600080fd5b815167ffffffffffffffff808211156119ea576119ea6118f0565b604051601f83017fffffffffffffffffffffffffffffffffffffffffffffffffffffffffffffffe0908116603f01168101908282118183101715611a3057611a306118f0565b81604052838152866020858801011115611a4957600080fd5b611a5a84602083016020890161199a565b9695505050505050565b600080600080600080600060e0888a031215611a7f57600080fd5b611a888861196b565b9650611a966020890161196b565b9550611aa460408901611982565b9450611ab260608901611982565b9350611ac060808901611982565b925060a088015167ffffffffffffffff80821115611add57600080fd5b611ae98b838c016119be565b935060c08a0151915080821115611aff57600080fd5b50611b0c8a828b016119be565b91505092959891949750929550565b6040815260008351806040840152611b3a81606085016020880161199a565b73ffffffffffffffffffffffffffffffffffffffff93909316602083015250601f919091017fffffffffffffffffffffffffffffffffffffffffffffffffffffffffffffffe01601606001919050565b600060208284031215611b9c57600080fd5b8151801515811461104a57600080fd5b6020808252825182820181905260009190848201906040850190845b81811015611bfa57835173ffffffffffffffffffffffffffffffffffffffff1683529284019291840191600101611bc8565b50909695505050505050565b60208082528181018390526000908460408401835b86811015611c56578235611c2e81611868565b73ffffffffffffffffffffffffffffffffffffffff1682529183019190830190600101611c1b565b509695505050505050565b81810381811115610397577f4e487b7100000000000000000000000000000000000000000000000000000000600052601160045260246000fdfea2646970667358221220917a9d6fabf1f65909c4cdf3adf4d38dd7b4fe87d1b5433cdbda2bbd498e26f164736f6c63430008160033",
  "linkReferences": {},
  "deployedLinkReferences": {}
}