{
  "_format": "hh-sol-artifact-1",
  "contractName": "EDULandRental",
  "sourceName": "contracts/token/ERC721/EDULandRental.sol",
  "abi": [
    {
      "inputs": [
        {
          "internalType": "address",
          "name": "nodeKeyAddress",
          "type": "address"
        },
        {
          "internalType": "address",
          "name": "pointsAddress",
          "type": "address"
        },
        {
          "internalType": "uint256",
          "name": "maintenanceFee_",
          "type": "uint256"
        },
        {
          "internalType": "uint256",
          "name": "maxRentalDuration_",
          "type": "uint256"
        },
        {
          "internalType": "uint256",
          "name": "maxRentalCountPerCall_",
          "type": "uint256"
        },
        {
          "internalType": "uint256",
          "name": "maxTokenSupply_",
          "type": "uint256"
        },
        {
          "internalType": "contract IForwarderRegistry",
          "name": "forwarderRegistry",
          "type": "address"
        }
      ],
      "stateMutability": "nonpayable",
      "type": "constructor"
    },
    {
      "inputs": [
        {
          "internalType": "uint256",
          "name": "calculatedFee",
          "type": "uint256"
        },
        {
          "internalType": "uint256",
          "name": "maxFee",
          "type": "uint256"
        }
      ],
      "name": "FeeExceeded",
      "type": "error"
    },
    {
      "inputs": [],
      "name": "IllegalInterfaceId",
      "type": "error"
    },
    {
      "inputs": [],
      "name": "InconsistentArrayLengths",
      "type": "error"
    },
    {
      "inputs": [],
      "name": "InvalidTokenIdsParam",
      "type": "error"
    },
    {
      "inputs": [
        {
          "internalType": "address",
          "name": "account",
          "type": "address"
        }
      ],
      "name": "NotContractOwner",
      "type": "error"
    },
    {
      "inputs": [
        {
          "internalType": "bytes32",
          "name": "role",
          "type": "bytes32"
        },
        {
          "internalType": "address",
          "name": "account",
          "type": "address"
        }
      ],
      "name": "NotRoleHolder",
      "type": "error"
    },
    {
      "inputs": [],
      "name": "RentalCountPerCallLimitExceeded",
      "type": "error"
    },
    {
      "inputs": [
        {
          "internalType": "uint256",
          "name": "tokenId",
          "type": "uint256"
        },
        {
          "internalType": "uint256",
          "name": "duration",
          "type": "uint256"
        }
      ],
      "name": "RentalDurationLimitExceeded",
      "type": "error"
    },
    {
      "inputs": [
        {
          "internalType": "uint256",
          "name": "tokenId",
          "type": "uint256"
        }
      ],
      "name": "TokenAlreadyRented",
      "type": "error"
    },
    {
      "inputs": [
        {
          "internalType": "uint256",
          "name": "tokenId",
          "type": "uint256"
        }
      ],
      "name": "TokenNotExpired",
      "type": "error"
    },
    {
      "inputs": [
        {
          "internalType": "uint256",
          "name": "tokenId",
          "type": "uint256"
        }
      ],
      "name": "TokenNotRented",
      "type": "error"
    },
    {
      "inputs": [
        {
          "internalType": "uint256",
          "name": "tokenId",
          "type": "uint256"
        }
      ],
      "name": "UnsupportedTokenId",
      "type": "error"
    },
    {
      "inputs": [
        {
          "internalType": "uint256",
          "name": "tokenId",
          "type": "uint256"
        }
      ],
      "name": "ZeroRentalDuration",
      "type": "error"
    },
    {
      "anonymous": false,
      "inputs": [
        {
          "indexed": false,
          "internalType": "uint256[]",
          "name": "tokenIds",
          "type": "uint256[]"
        }
      ],
      "name": "Collected",
      "type": "event"
    },
    {
      "anonymous": false,
      "inputs": [
        {
          "indexed": false,
          "internalType": "uint256",
          "name": "newMaintenanceFee",
          "type": "uint256"
        }
      ],
      "name": "MaintenanceFeeUpdated",
      "type": "event"
    },
    {
      "anonymous": false,
      "inputs": [
        {
          "indexed": false,
          "internalType": "uint256",
          "name": "newMaxRentalCountPerCall",
          "type": "uint256"
        }
      ],
      "name": "MaxRentalCountPerCallUpdated",
      "type": "event"
    },
    {
      "anonymous": false,
      "inputs": [
        {
          "indexed": false,
          "internalType": "uint256",
          "name": "newMaxRentalDuration",
          "type": "uint256"
        }
      ],
      "name": "MaxRentalDurationUpdated",
      "type": "event"
    },
    {
      "anonymous": false,
      "inputs": [
        {
          "indexed": false,
          "internalType": "uint256",
          "name": "newMaxTokenSupply",
          "type": "uint256"
        }
      ],
      "name": "MaxTokenSupplyUpdated",
      "type": "event"
    },
    {
      "anonymous": false,
      "inputs": [
        {
          "indexed": true,
          "internalType": "address",
          "name": "previousOwner",
          "type": "address"
        },
        {
          "indexed": true,
          "internalType": "address",
          "name": "newOwner",
          "type": "address"
        }
      ],
      "name": "OwnershipTransferred",
      "type": "event"
    },
    {
      "anonymous": false,
      "inputs": [
        {
          "indexed": true,
          "internalType": "address",
          "name": "renter",
          "type": "address"
        },
        {
          "indexed": false,
          "internalType": "uint256[]",
          "name": "tokenIds",
          "type": "uint256[]"
        },
        {
          "components": [
            {
              "internalType": "uint256",
              "name": "beginDate",
              "type": "uint256"
            },
            {
              "internalType": "uint256",
              "name": "endDate",
              "type": "uint256"
            },
            {
              "internalType": "uint256",
              "name": "fee",
              "type": "uint256"
            }
          ],
          "indexed": false,
          "internalType": "struct EDULandRental.RentalInfo[]",
          "name": "rentals",
          "type": "tuple[]"
        }
      ],
      "name": "Rental",
      "type": "event"
    },
    {
      "anonymous": false,
      "inputs": [
        {
          "indexed": false,
          "internalType": "bytes32",
          "name": "role",
          "type": "bytes32"
        },
        {
          "indexed": false,
          "internalType": "address",
          "name": "account",
          "type": "address"
        },
        {
          "indexed": false,
          "internalType": "address",
          "name": "operator",
          "type": "address"
        }
      ],
      "name": "RoleGranted",
      "type": "event"
    },
    {
      "anonymous": false,
      "inputs": [
        {
          "indexed": false,
          "internalType": "bytes32",
          "name": "role",
          "type": "bytes32"
        },
        {
          "indexed": false,
          "internalType": "address",
          "name": "account",
          "type": "address"
        },
        {
          "indexed": false,
          "internalType": "address",
          "name": "operator",
          "type": "address"
        }
      ],
      "name": "RoleRevoked",
      "type": "event"
    },
    {
      "inputs": [],
      "name": "EDU_LAND",
      "outputs": [
        {
          "internalType": "contract IEDULand",
          "name": "",
          "type": "address"
        }
      ],
      "stateMutability": "view",
      "type": "function"
    },
    {
      "inputs": [],
      "name": "OPERATOR_ROLE",
      "outputs": [
        {
          "internalType": "bytes32",
          "name": "",
          "type": "bytes32"
        }
      ],
      "stateMutability": "view",
      "type": "function"
    },
    {
      "inputs": [],
      "name": "POINTS",
      "outputs": [
        {
          "internalType": "contract Points",
          "name": "",
          "type": "address"
        }
      ],
      "stateMutability": "view",
      "type": "function"
    },
    {
      "inputs": [],
      "name": "RENTAL_CONSUME_CODE",
      "outputs": [
        {
          "internalType": "bytes32",
          "name": "",
          "type": "bytes32"
        }
      ],
      "stateMutability": "view",
      "type": "function"
    },
    {
      "inputs": [
        {
          "internalType": "uint256[]",
          "name": "tokenIds",
          "type": "uint256[]"
        }
      ],
      "name": "calculateElapsedTimeForExpiredTokens",
      "outputs": [
        {
          "internalType": "uint256",
          "name": "elapsedTime",
          "type": "uint256"
        }
      ],
      "stateMutability": "view",
      "type": "function"
    },
    {
      "inputs": [
        {
          "internalType": "uint256[]",
          "name": "tokenIds",
          "type": "uint256[]"
        }
      ],
      "name": "collectExpiredTokens",
      "outputs": [],
      "stateMutability": "nonpayable",
      "type": "function"
    },
    {
      "inputs": [
        {
          "internalType": "address",
          "name": "account",
          "type": "address"
        },
        {
          "internalType": "uint256[]",
          "name": "tokenIds",
          "type": "uint256[]"
        },
        {
          "internalType": "uint256[]",
          "name": "durations",
          "type": "uint256[]"
        },
        {
          "internalType": "uint256[]",
          "name": "expiredTokenIds",
          "type": "uint256[]"
        }
      ],
      "name": "estimateRentalFee",
      "outputs": [
        {
          "internalType": "uint256",
          "name": "fee",
          "type": "uint256"
        }
      ],
      "stateMutability": "view",
      "type": "function"
    },
    {
      "inputs": [],
      "name": "forwarderRegistry",
      "outputs": [
        {
          "internalType": "contract IForwarderRegistry",
          "name": "",
          "type": "address"
        }
      ],
      "stateMutability": "view",
      "type": "function"
    },
    {
      "inputs": [
        {
          "internalType": "bytes32",
          "name": "role",
          "type": "bytes32"
        },
        {
          "internalType": "address",
          "name": "account",
          "type": "address"
        }
      ],
      "name": "grantRole",
      "outputs": [],
      "stateMutability": "nonpayable",
      "type": "function"
    },
    {
      "inputs": [
        {
          "internalType": "bytes32",
          "name": "role",
          "type": "bytes32"
        },
        {
          "internalType": "address",
          "name": "account",
          "type": "address"
        }
      ],
      "name": "hasRole",
      "outputs": [
        {
          "internalType": "bool",
          "name": "hasRole_",
          "type": "bool"
        }
      ],
      "stateMutability": "view",
      "type": "function"
    },
    {
      "inputs": [
        {
          "internalType": "address",
          "name": "forwarder",
          "type": "address"
        }
      ],
      "name": "isTrustedForwarder",
      "outputs": [
        {
          "internalType": "bool",
          "name": "",
          "type": "bool"
        }
      ],
      "stateMutability": "view",
      "type": "function"
    },
    {
      "inputs": [],
      "name": "maintenanceFee",
      "outputs": [
        {
          "internalType": "uint256",
          "name": "",
          "type": "uint256"
        }
      ],
      "stateMutability": "view",
      "type": "function"
    },
    {
      "inputs": [],
      "name": "maxRentalCountPerCall",
      "outputs": [
        {
          "internalType": "uint256",
          "name": "",
          "type": "uint256"
        }
      ],
      "stateMutability": "view",
      "type": "function"
    },
    {
      "inputs": [],
      "name": "maxRentalDuration",
      "outputs": [
        {
          "internalType": "uint256",
          "name": "",
          "type": "uint256"
        }
      ],
      "stateMutability": "view",
      "type": "function"
    },
    {
      "inputs": [],
      "name": "maxTokenSupply",
      "outputs": [
        {
          "internalType": "uint256",
          "name": "",
          "type": "uint256"
        }
      ],
      "stateMutability": "view",
      "type": "function"
    },
    {
      "inputs": [],
      "name": "owner",
      "outputs": [
        {
          "internalType": "address",
          "name": "",
          "type": "address"
        }
      ],
      "stateMutability": "view",
      "type": "function"
    },
    {
      "inputs": [
        {
          "internalType": "address[]",
          "name": "accounts",
          "type": "address[]"
        },
        {
          "internalType": "contract IERC20[]",
          "name": "tokens",
          "type": "address[]"
        },
        {
          "internalType": "uint256[]",
          "name": "amounts",
          "type": "uint256[]"
        }
      ],
      "name": "recoverERC20s",
      "outputs": [],
      "stateMutability": "nonpayable",
      "type": "function"
    },
    {
      "inputs": [
        {
          "internalType": "address[]",
          "name": "accounts",
          "type": "address[]"
        },
        {
          "internalType": "contract IERC721[]",
          "name": "contracts",
          "type": "address[]"
        },
        {
          "internalType": "uint256[]",
          "name": "tokenIds",
          "type": "uint256[]"
        }
      ],
      "name": "recoverERC721s",
      "outputs": [],
      "stateMutability": "nonpayable",
      "type": "function"
    },
    {
      "inputs": [
        {
          "internalType": "address payable[]",
          "name": "accounts",
          "type": "address[]"
        },
        {
          "internalType": "uint256[]",
          "name": "amounts",
          "type": "uint256[]"
        }
      ],
      "name": "recoverETH",
      "outputs": [],
      "stateMutability": "nonpayable",
      "type": "function"
    },
    {
      "inputs": [
        {
          "internalType": "bytes32",
          "name": "role",
          "type": "bytes32"
        }
      ],
      "name": "renounceRole",
      "outputs": [],
      "stateMutability": "nonpayable",
      "type": "function"
    },
    {
      "inputs": [
        {
          "internalType": "address",
          "name": "account",
          "type": "address"
        },
        {
          "internalType": "uint256[]",
          "name": "tokenIds",
          "type": "uint256[]"
        },
        {
          "internalType": "uint256[]",
          "name": "durations",
          "type": "uint256[]"
        },
        {
          "internalType": "uint256[]",
          "name": "expiredTokenIds",
          "type": "uint256[]"
        },
        {
          "internalType": "uint256",
          "name": "maxFee",
          "type": "uint256"
        }
      ],
      "name": "rent",
      "outputs": [],
      "stateMutability": "nonpayable",
      "type": "function"
    },
    {
      "inputs": [
        {
          "internalType": "uint256",
          "name": "",
          "type": "uint256"
        }
      ],
      "name": "rentals",
      "outputs": [
        {
          "internalType": "uint256",
          "name": "beginDate",
          "type": "uint256"
        },
        {
          "internalType": "uint256",
          "name": "endDate",
          "type": "uint256"
        },
        {
          "internalType": "uint256",
          "name": "fee",
          "type": "uint256"
        }
      ],
      "stateMutability": "view",
      "type": "function"
    },
    {
      "inputs": [
        {
          "internalType": "uint256",
          "name": "tokenId",
          "type": "uint256"
        }
      ],
      "name": "renterOf",
      "outputs": [
        {
          "internalType": "address",
          "name": "",
          "type": "address"
        }
      ],
      "stateMutability": "view",
      "type": "function"
    },
    {
      "inputs": [
        {
          "internalType": "bytes32",
          "name": "role",
          "type": "bytes32"
        },
        {
          "internalType": "address",
          "name": "account",
          "type": "address"
        }
      ],
      "name": "revokeRole",
      "outputs": [],
      "stateMutability": "nonpayable",
      "type": "function"
    },
    {
      "inputs": [
        {
          "internalType": "uint256",
          "name": "newMaintenanceFee",
          "type": "uint256"
        }
      ],
      "name": "setMaintenanceFee",
      "outputs": [],
      "stateMutability": "nonpayable",
      "type": "function"
    },
    {
      "inputs": [
        {
          "internalType": "uint256",
          "name": "newRentalCountPerCall",
          "type": "uint256"
        }
      ],
      "name": "setMaxRentalCountPerCall",
      "outputs": [],
      "stateMutability": "nonpayable",
      "type": "function"
    },
    {
      "inputs": [
        {
          "internalType": "uint256",
          "name": "newMaxRentalDuration",
          "type": "uint256"
        }
      ],
      "name": "setMaxRentalDuration",
      "outputs": [],
      "stateMutability": "nonpayable",
      "type": "function"
    },
    {
      "inputs": [
        {
          "internalType": "uint256",
          "name": "newMaxTokenSupply",
          "type": "uint256"
        }
      ],
      "name": "setMaxTokenSupply",
      "outputs": [],
      "stateMutability": "nonpayable",
      "type": "function"
    },
    {
      "inputs": [
        {
          "internalType": "bytes4",
          "name": "interfaceId",
          "type": "bytes4"
        }
      ],
      "name": "supportsInterface",
      "outputs": [
        {
          "internalType": "bool",
          "name": "",
          "type": "bool"
        }
      ],
      "stateMutability": "view",
      "type": "function"
    },
    {
      "inputs": [],
      "name": "totalEffectiveRentalTime",
      "outputs": [
        {
          "internalType": "uint256",
          "name": "",
          "type": "uint256"
        }
      ],
      "stateMutability": "view",
      "type": "function"
    },
    {
      "inputs": [
        {
          "internalType": "address",
          "name": "newOwner",
          "type": "address"
        }
      ],
      "name": "transferOwnership",
      "outputs": [],
      "stateMutability": "nonpayable",
      "type": "function"
    }
  ],
  "bytecode": "0x60e06040523480156200001157600080fd5b50604051620031e4380380620031e48339810160408190526200003491620001da565b8080336200004d816200004662000083565b90620000b9565b506001600160a01b0390811660805297881660c05250509390941660a05260019190915560025560039190915560005562000278565b600080620000b360017fc9ed16f33ab3a66c84bfd83099ccb2a8845871e2e1c1928f63797152f0fd54cd62000256565b92915050565b6001600160a01b03811615620001105781546001600160a01b0319166001600160a01b03821690811783556040516000907f8be0079c531659141344cd1fd0a4f28419497f9722a3daafe3b4186f6b6457e0908290a35b620001306307f5828d60e41b60016200012862000134565b919062000164565b5050565b600080620000b360017fca9d3e17f264b0f3984e2634e94adb37fa3e6a8103f06aeae6fa59e21c769f5e62000256565b600160e01b6001600160e01b031983160162000193576040516372c683bb60e01b815260040160405180910390fd5b6001600160e01b03199190911660009081526020929092526040909120805460ff1916911515919091179055565b6001600160a01b0381168114620001d757600080fd5b50565b600080600080600080600060e0888a031215620001f657600080fd5b87516200020381620001c1565b60208901519097506200021681620001c1565b8096505060408801519450606088015193506080880151925060a0880151915060c08801516200024681620001c1565b8091505092959891949750929550565b81810381811115620000b357634e487b7160e01b600052601160045260246000fd5b60805160a05160c051612ef6620002ee6000396000818161022e015281816105b3015281816109ae01528181610a830152818161162f01528181611c4f0152611d1e0152600081816103730152610d1c015260008181610277015281816102ef01528181612394015261241c0152612ef66000f3fe608060405234801561001057600080fd5b50600436106101e55760003560e01c806388b681fe1161010f578063d547741f116100a2578063f2fde38b11610071578063f2fde38b146104c2578063f5b541a6146104d5578063f7032194146104fc578063f7ba94bd1461050557600080fd5b8063d547741f14610462578063dd28617714610475578063e077f62b1461049c578063e4f095d9146104af57600080fd5b8063af94a1d1116100de578063af94a1d1146103df578063b07ed98214610429578063b65dd4511461043c578063c3666c361461044f57600080fd5b806388b681fe1461039e5780638bb9c5bf146103b15780638da5cb5b146103c457806391d14854146103cc57600080fd5b806350f7c20411610187578063747c525211610156578063747c5252146103525780637ce4026f146103655780637f6e42811461036e57806385ca80761461039557600080fd5b806350f7c204146102d6578063572b6c05146102df57806370243bcc1461032c57806373c8a9581461033f57600080fd5b80632b4c9f16116101c35780632b4c9f16146102755780632f2ff15d1461029b5780633d9f01fb146102b0578063409ad196146102c357600080fd5b806301ffc9a7146101ea578063046604491461021257806315e682cb14610229575b600080fd5b6101fd6101f836600461284a565b610518565b60405190151581526020015b60405180910390f35b61021b60015481565b604051908152602001610209565b6102507f000000000000000000000000000000000000000000000000000000000000000081565b60405173ffffffffffffffffffffffffffffffffffffffff9091168152602001610209565b7f0000000000000000000000000000000000000000000000000000000000000000610250565b6102ae6102a93660046128ae565b610532565b005b6102506102be3660046128de565b61056b565b6102ae6102d1366004612943565b61066d565b61021b60005481565b6101fd6102ed3660046129f7565b7f000000000000000000000000000000000000000000000000000000000000000073ffffffffffffffffffffffffffffffffffffffff90811691161490565b61021b61033a366004612a14565b610e57565b6102ae61034d366004612a56565b610f49565b6102ae6103603660046128de565b611047565b61021b60025481565b6102507f000000000000000000000000000000000000000000000000000000000000000081565b61021b60055481565b6102ae6103ac366004612a14565b6110be565b6102ae6103bf3660046128de565b6110e9565b610250611107565b6101fd6103da3660046128ae565b611133565b61040e6103ed3660046128de565b60046020526000908152604090208054600182015460029092015490919083565b60408051938452602084019290925290820152606001610209565b6102ae6104373660046128de565b61117e565b6102ae61044a3660046128de565b6111df565b6102ae61045d366004612a56565b611240565b6102ae6104703660046128ae565b6113b8565b61021b7f0e67d2d2c46f23cfff9f76c16187348901bf73ba32dcf6893f2a2a4b25be75f881565b61021b6104aa366004612af0565b6113e6565b6102ae6104bd3660046128de565b6117a1565b6102ae6104d03660046129f7565b611802565b61021b7f97667070c54ef182b0f5858b034beac1b6f3089aa2d3188bb1e8929f4fa9b92981565b61021b60035481565b6102ae610513366004612b9d565b61181d565b600061052c826105266118dc565b9061190a565b92915050565b600061053c6119e4565b90506105508161054a6119ee565b90611a1c565b61056683838361055e611a8b565b929190611ab9565b505050565b600081815260046020526040812060010154421015610633576040517f6352211e000000000000000000000000000000000000000000000000000000008152600481018390527f000000000000000000000000000000000000000000000000000000000000000073ffffffffffffffffffffffffffffffffffffffff1690636352211e90602401602060405180830381865afa15801561060f573d6000803e3d6000fd5b505050506040513d601f19601f8201168201806040525081019061052c9190612c09565b6040517f1297346f000000000000000000000000000000000000000000000000000000008152600481018390526024015b60405180910390fd5b60035486106106a8576040517f2273ee1800000000000000000000000000000000000000000000000000000000815260040160405180910390fd5b8584146106e1576040517f6582533600000000000000000000000000000000000000000000000000000000815260040160405180910390fd5b600088905060008888808060200260200160405190810160405280939291908181526020018383602002808284376000920182905250604080516020808e0282810182019093528d825296975091959194508c93508b9250829185019084908082843760009201829052509394504293925061076291508990508884611b90565b60055461076f9190612c55565b9050600061077c82611e08565b905060008c67ffffffffffffffff81111561079957610799612c68565b6040519080825280602002602001820160405280156107ee57816020015b6107db60405180606001604052806000815260200160008152602001600081525090565b8152602001906001900390816107b75790505b50905060008060005b8851811015610ca857600089828151811061081457610814612c97565b60200260200101519050600089838151811061083257610832612c97565b6020026020010151905080600003610879576040517f21bd5ed100000000000000000000000000000000000000000000000000000000815260048101839052602401610664565b816000036108b6576040517f8ce0857d00000000000000000000000000000000000000000000000000000000815260006004820152602401610664565b60005482106108f4576040517f8ce0857d00000000000000000000000000000000000000000000000000000000815260048101839052602401610664565b60008281526004602052604081206001810154909103610a5457600254821115610954576040517fee729b840000000000000000000000000000000000000000000000000000000081526004810184905260248101839052604401610664565b6040517f8832e6e300000000000000000000000000000000000000000000000000000000815273ffffffffffffffffffffffffffffffffffffffff8e811660048301526024820185905260606044830152600060648301527f00000000000000000000000000000000000000000000000000000000000000001690638832e6e390608401600060405180830381600087803b1580156109f257600080fd5b505af1158015610a06573d6000803e3d6000fd5b5050508a825550610a17828b612cc6565b8160010181905550600082600154610a2f9190612cd9565b610a39908a612cc6565b600283018190559050610a4c8187612cc6565b955050610c4a565b6040517f6352211e000000000000000000000000000000000000000000000000000000008152600481018490527f000000000000000000000000000000000000000000000000000000000000000073ffffffffffffffffffffffffffffffffffffffff1690636352211e90602401602060405180830381865afa158015610adf573d6000803e3d6000fd5b505050506040513d601f19601f82011682018060405250810190610b039190612c09565b73ffffffffffffffffffffffffffffffffffffffff168d73ffffffffffffffffffffffffffffffffffffffff16148015610b40575080600101548a105b15610c1557600254815460018301548491610b5a91612c55565b610b649190612cc6565b1115610bc557828282600001548360010154610b809190612c55565b610b8a9190612cc6565b6040517fee729b8400000000000000000000000000000000000000000000000000000000815260048101929092526024820152604401610664565b81816001016000828254610bd99190612cc6565b9091555050600154600090610bef908490612cd9565b905080826002016000828254610c059190612cc6565b90915550610a4c90508187612cc6565b6040517f139d679900000000000000000000000000000000000000000000000000000000815260048101849052602401610664565b6040805160608101825282548152600183015460208201526002830154918101919091528751889086908110610c8257610c82612c97565b6020908102919091010152610c978287612cc6565b955050600190920191506107f79050565b508915801590610cb757508981115b15610cf8576040517fd519701100000000000000000000000000000000000000000000000000000000815260048101829052602481018b9052604401610664565b610d028286612cc6565b60055573ffffffffffffffffffffffffffffffffffffffff7f00000000000000000000000000000000000000000000000000000000000000001663212aac79610d496119e4565b6040517fffffffff0000000000000000000000000000000000000000000000000000000060e084901b16815273ffffffffffffffffffffffffffffffffffffffff9091166004820152602481018490527f0e67d2d2c46f23cfff9f76c16187348901bf73ba32dcf6893f2a2a4b25be75f86044820152606401600060405180830381600087803b158015610ddc57600080fd5b505af1158015610df0573d6000803e3d6000fd5b505050508873ffffffffffffffffffffffffffffffffffffffff167f71abcae7327579f86b1266a4390233f926d8ce29f0ed821b7b334202bd314e0f8985604051610e3c929190612cf0565b60405180910390a25050505050505050505050505050505050565b600042815b83811015610f41576000858583818110610e7857610e78612c97565b90506020020135905060006004600083815260200190815260200160002090508060010154600003610ed9576040517f1297346f00000000000000000000000000000000000000000000000000000000815260048101839052602401610664565b8060010154841015610f1a576040517f9be5764a00000000000000000000000000000000000000000000000000000000815260048101839052602401610664565b80546001820154610f2b9190612c55565b610f359086612cc6565b94505050600101610e5c565b505092915050565b610f5c610f546119e4565b61054a6119ee565b848381141580610f6c5750808214155b15610fa3576040517f6582533600000000000000000000000000000000000000000000000000000000815260040160405180910390fd5b60005b8181101561103d57611035888883818110610fc357610fc3612c97565b9050602002016020810190610fd891906129f7565b858584818110610fea57610fea612c97565b9050602002013588888581811061100357611003612c97565b905060200201602081019061101891906129f7565b73ffffffffffffffffffffffffffffffffffffffff169190611e62565b600101610fa6565b5050505050505050565b6110827f97667070c54ef182b0f5858b034beac1b6f3089aa2d3188bb1e8929f4fa9b9296110736119e4565b61107b611a8b565b9190611eef565b60018190556040518181527fd204911f1cc3daf409d9a2c495f3970d7d5cf956918752458fcea074d2c53b0b906020015b60405180910390a150565b60006110cb838342611b90565b905080600560008282546110df9190612c55565b9091555050505050565b6111046110f46119e4565b826110fd611a8b565b9190611f75565b50565b600061112e6111146119ee565b5473ffffffffffffffffffffffffffffffffffffffff1690565b905090565b60006111778383611142611a8b565b60009283526020908152604080842073ffffffffffffffffffffffffffffffffffffffff909316845291905290205460ff1690565b9392505050565b6111aa7f97667070c54ef182b0f5858b034beac1b6f3089aa2d3188bb1e8929f4fa9b9296110736119e4565b60008190556040518181527fb8b290c068ed53e46165f3ca5215dcc2972ae26ae4c8fb5adc71a1c135f85513906020016110b3565b61120b7f97667070c54ef182b0f5858b034beac1b6f3089aa2d3188bb1e8929f4fa9b9296110736119e4565b60038190556040518181527faa06aa6d79ce3cb966afe332af120b3aa8252dc355d1d2dae1368babec5f3ee5906020016110b3565b61124b610f546119e4565b84838114158061125b5750808214155b15611292576040517f6582533600000000000000000000000000000000000000000000000000000000815260040160405180910390fd5b60005b8181101561103d578585828181106112af576112af612c97565b90506020020160208101906112c491906129f7565b73ffffffffffffffffffffffffffffffffffffffff166323b872dd308a8a858181106112f2576112f2612c97565b905060200201602081019061130791906129f7565b87878681811061131957611319612c97565b6040517fffffffff0000000000000000000000000000000000000000000000000000000060e088901b16815273ffffffffffffffffffffffffffffffffffffffff958616600482015294909316602485015250602090910201356044820152606401600060405180830381600087803b15801561139557600080fd5b505af11580156113a9573d6000803e3d6000fd5b50505050806001019050611295565b60006113c26119e4565b90506113d08161054a6119ee565b6105668383836113de611a8b565b929190612019565b6003546000908610611424576040517f2273ee1800000000000000000000000000000000000000000000000000000000815260040160405180910390fd5b85841461145d576040517f6582533600000000000000000000000000000000000000000000000000000000815260040160405180910390fd5b42600061146a8585610e57565b905060006114848260055461147f9190612c55565b611e08565b90506000805b8a8110156117915760008a8a838181106114a6576114a6612c97565b90506020020135905060008d8d848181106114c3576114c3612c97565b90506020020135905081600003611509576040517f21bd5ed100000000000000000000000000000000000000000000000000000000815260048101829052602401610664565b80600003611546576040517f8ce0857d00000000000000000000000000000000000000000000000000000000815260006004820152602401610664565b6000548110611584576040517f8ce0857d00000000000000000000000000000000000000000000000000000000815260048101829052602401610664565b6000818152600460209081526040808320815160608101835281548152600182015493810184905260029091015491810191909152910361161657600254831115611605576040517fee729b840000000000000000000000000000000000000000000000000000000081526004810183905260248101849052604401610664565b61160f8686612cc6565b9450611769565b8f73ffffffffffffffffffffffffffffffffffffffff167f000000000000000000000000000000000000000000000000000000000000000073ffffffffffffffffffffffffffffffffffffffff16636352211e846040518263ffffffff1660e01b815260040161168891815260200190565b602060405180830381865afa1580156116a5573d6000803e3d6000fd5b505050506040513d601f19601f820116820180604052508101906116c99190612c09565b73ffffffffffffffffffffffffffffffffffffffff161480156116ef5750806020015188105b156117345760025481516020830151859161170991612c55565b6117139190612cc6565b111561172f57818382600001518360200151610b809190612c55565b611769565b6040517f139d679900000000000000000000000000000000000000000000000000000000815260048101839052602401610664565b6001546117769084612cd9565b6117809086612cc6565b9450506001909201915061148a9050565b509b9a5050505050505050505050565b6117cd7f97667070c54ef182b0f5858b034beac1b6f3089aa2d3188bb1e8929f4fa9b9296110736119e4565b60028190556040518181527fb4f38443948b39b669154b83689d2dfa2a4cb2b1fd458118da3d1bcdacfc5608906020016110b3565b61110461180d6119e4565b826118166119ee565b91906120e3565b611828610f546119e4565b82818114611862576040517f6582533600000000000000000000000000000000000000000000000000000000815260040160405180910390fd5b60005b818110156118d4576118cc84848381811061188257611882612c97565b9050602002013587878481811061189b5761189b612c97565b90506020020160208101906118b091906129f7565b73ffffffffffffffffffffffffffffffffffffffff16906121f7565b600101611865565b505050505050565b60008061052c60017fca9d3e17f264b0f3984e2634e94adb37fa3e6a8103f06aeae6fa59e21c769f5e612c55565b60007c01000000000000000000000000000000000000000000000000000000007fffffffff0000000000000000000000000000000000000000000000000000000083160161195a5750600061052c565b7ffe003659000000000000000000000000000000000000000000000000000000007fffffffff000000000000000000000000000000000000000000000000000000008316016119ab5750600161052c565b507fffffffff00000000000000000000000000000000000000000000000000000000166000908152602091909152604090205460ff1690565b600061112e612351565b60008061052c60017fc9ed16f33ab3a66c84bfd83099ccb2a8845871e2e1c1928f63797152f0fd54cd612c55565b815473ffffffffffffffffffffffffffffffffffffffff828116911614611a87576040517f2ef4875e00000000000000000000000000000000000000000000000000000000815273ffffffffffffffffffffffffffffffffffffffff82166004820152602401610664565b5050565b60008061052c60017fc8827d3282af6f37b64c3e9e6f3ac9df286ab0bb0fccd6f8661bf19adb368b23612c55565b60008381526020858152604080832073ffffffffffffffffffffffffffffffffffffffff8616845290915290205460ff16611b8a5760008381526020858152604080832073ffffffffffffffffffffffffffffffffffffffff8681168086529184529382902080547fffffffffffffffffffffffffffffffffffffffffffffffffffffffffffffff00166001179055815187815292830152918316918101919091527f2f8788117e7eff1d82e926ec794901d17c78024a50270940304540a733656f0d906060015b60405180910390a15b50505050565b6000805b83811015611dc1576000858583818110611bb057611bb0612c97565b90506020020135905060006004600083815260200190815260200160002090508060010154600014158015611be9575080600101548510155b15611d825780546001820154611bff9190612c55565b611c099085612cc6565b600080835560018301819055600283018190556040517f6352211e00000000000000000000000000000000000000000000000000000000815260048101859052919550907f000000000000000000000000000000000000000000000000000000000000000073ffffffffffffffffffffffffffffffffffffffff1690636352211e90602401602060405180830381865afa158015611cab573d6000803e3d6000fd5b505050506040513d601f19601f82011682018060405250810190611ccf9190612c09565b6040517f79cc679000000000000000000000000000000000000000000000000000000000815273ffffffffffffffffffffffffffffffffffffffff8083166004830152602482018690529192507f0000000000000000000000000000000000000000000000000000000000000000909116906379cc679090604401600060405180830381600087803b158015611d6457600080fd5b505af1158015611d78573d6000803e3d6000fd5b5050505050611db7565b6040517f9be5764a00000000000000000000000000000000000000000000000000000000815260048101839052602401610664565b5050600101611b94565b508215611177577f9e5430727c5f2b23597e7cb2670240cc8fbb4031a0dad53562812b380e286b3d8484604051611df9929190612d80565b60405180910390a19392505050565b6000670de0b6b3a764000067099e8db03256ce5d611e2f611e2a606486612dd2565b612498565b611e3885612498565b611e429190612cc6565b611e4e906101f4612cd9565b611e589190612cd9565b61052c9190612dd2565b6040805173ffffffffffffffffffffffffffffffffffffffff8416602482015260448082018490528251808303909101815260649091019091526020810180517bffffffffffffffffffffffffffffffffffffffffffffffffffffffff167fa9059cbb0000000000000000000000000000000000000000000000000000000017905261056690849061252c565b60008281526020848152604080832073ffffffffffffffffffffffffffffffffffffffff8516845290915290205460ff16610566576040517f7aa728820000000000000000000000000000000000000000000000000000000081526004810183905273ffffffffffffffffffffffffffffffffffffffff82166024820152604401610664565b611f80838284611eef565b60008181526020848152604080832073ffffffffffffffffffffffffffffffffffffffff86168085529083529281902080547fffffffffffffffffffffffffffffffffffffffffffffffffffffffffffffff0016905580518481529182018390528101919091527ff6391f5c32d9c69d2a47ea670b442974b53935d1edc7fd64eb21e047a839171b9060600160405180910390a1505050565b60008381526020858152604080832073ffffffffffffffffffffffffffffffffffffffff8616845290915290205460ff1615611b8a5760008381526020858152604080832073ffffffffffffffffffffffffffffffffffffffff8681168086529184529382902080547fffffffffffffffffffffffffffffffffffffffffffffffffffffffffffffff00169055815187815292830152918316918101919091527ff6391f5c32d9c69d2a47ea670b442974b53935d1edc7fd64eb21e047a839171b90606001611b81565b825473ffffffffffffffffffffffffffffffffffffffff9081169083168114612150576040517f2ef4875e00000000000000000000000000000000000000000000000000000000815273ffffffffffffffffffffffffffffffffffffffff84166004820152602401610664565b8173ffffffffffffffffffffffffffffffffffffffff168173ffffffffffffffffffffffffffffffffffffffff1614611b8a5783547fffffffffffffffffffffffff00000000000000000000000000000000000000001673ffffffffffffffffffffffffffffffffffffffff8381169182178655604051908316907f8be0079c531659141344cd1fd0a4f28419497f9722a3daafe3b4186f6b6457e090600090a350505050565b80471015612261576040517f08c379a000000000000000000000000000000000000000000000000000000000815260206004820152601d60248201527f416464726573733a20696e73756666696369656e742062616c616e63650000006044820152606401610664565b60008273ffffffffffffffffffffffffffffffffffffffff168260405160006040518083038185875af1925050503d80600081146122bb576040519150601f19603f3d011682016040523d82523d6000602084013e6122c0565b606091505b5050905080610566576040517f08c379a000000000000000000000000000000000000000000000000000000000815260206004820152603a60248201527f416464726573733a20756e61626c6520746f2073656e642076616c75652c207260448201527f6563697069656e74206d617920686176652072657665727465640000000000006064820152608401610664565b6000333214806123615750601836105b1561236b57503390565b7fffffffffffffffffffffffffffffffffffffffffffffffffffffffffffffffec36013560601c7f000000000000000000000000000000000000000000000000000000000000000073ffffffffffffffffffffffffffffffffffffffff1633148061248757506040517f8929a8ca00000000000000000000000000000000000000000000000000000000815273ffffffffffffffffffffffffffffffffffffffff82811660048301523360248301527f00000000000000000000000000000000000000000000000000000000000000001690638929a8ca90604401602060405180830381865afa158015612463573d6000803e3d6000fd5b505050506040513d601f19601f820116820180604052508101906124879190612e0d565b1561249157919050565b3391505090565b600080608083901c156124ad57608092831c92015b604083901c156124bf57604092831c92015b602083901c156124d157602092831c92015b601083901c156124e357601092831c92015b600883901c156124f557600892831c92015b600483901c1561250757600492831c92015b600283901c1561251957600292831c92015b600183901c1561052c5760010192915050565b600061258e826040518060400160405280602081526020017f5361666545524332303a206c6f772d6c6576656c2063616c6c206661696c65648152508573ffffffffffffffffffffffffffffffffffffffff1661263b9092919063ffffffff16565b90508051600014806125af5750808060200190518101906125af9190612e0d565b610566576040517f08c379a000000000000000000000000000000000000000000000000000000000815260206004820152602a60248201527f5361666545524332303a204552433230206f7065726174696f6e20646964206e60448201527f6f742073756363656564000000000000000000000000000000000000000000006064820152608401610664565b606061264a8484600085612652565b949350505050565b6060824710156126e4576040517f08c379a000000000000000000000000000000000000000000000000000000000815260206004820152602660248201527f416464726573733a20696e73756666696369656e742062616c616e636520666f60448201527f722063616c6c00000000000000000000000000000000000000000000000000006064820152608401610664565b6000808673ffffffffffffffffffffffffffffffffffffffff16858760405161270d9190612e53565b60006040518083038185875af1925050503d806000811461274a576040519150601f19603f3d011682016040523d82523d6000602084013e61274f565b606091505b50915091506127608783838761276b565b979650505050505050565b606083156128015782516000036127fa5773ffffffffffffffffffffffffffffffffffffffff85163b6127fa576040517f08c379a000000000000000000000000000000000000000000000000000000000815260206004820152601d60248201527f416464726573733a2063616c6c20746f206e6f6e2d636f6e74726163740000006044820152606401610664565b508161264a565b61264a83838151156128165781518083602001fd5b806040517f08c379a00000000000000000000000000000000000000000000000000000000081526004016106649190612e6f565b60006020828403121561285c57600080fd5b81357fffffffff000000000000000000000000000000000000000000000000000000008116811461117757600080fd5b73ffffffffffffffffffffffffffffffffffffffff8116811461110457600080fd5b600080604083850312156128c157600080fd5b8235915060208301356128d38161288c565b809150509250929050565b6000602082840312156128f057600080fd5b5035919050565b60008083601f84011261290957600080fd5b50813567ffffffffffffffff81111561292157600080fd5b6020830191508360208260051b850101111561293c57600080fd5b9250929050565b60008060008060008060008060a0898b03121561295f57600080fd5b883561296a8161288c565b9750602089013567ffffffffffffffff8082111561298757600080fd5b6129938c838d016128f7565b909950975060408b01359150808211156129ac57600080fd5b6129b88c838d016128f7565b909750955060608b01359150808211156129d157600080fd5b506129de8b828c016128f7565b999c989b50969995989497949560800135949350505050565b600060208284031215612a0957600080fd5b81356111778161288c565b60008060208385031215612a2757600080fd5b823567ffffffffffffffff811115612a3e57600080fd5b612a4a858286016128f7565b90969095509350505050565b60008060008060008060608789031215612a6f57600080fd5b863567ffffffffffffffff80821115612a8757600080fd5b612a938a838b016128f7565b90985096506020890135915080821115612aac57600080fd5b612ab88a838b016128f7565b90965094506040890135915080821115612ad157600080fd5b50612ade89828a016128f7565b979a9699509497509295939492505050565b60008060008060008060006080888a031215612b0b57600080fd5b8735612b168161288c565b9650602088013567ffffffffffffffff80821115612b3357600080fd5b612b3f8b838c016128f7565b909850965060408a0135915080821115612b5857600080fd5b612b648b838c016128f7565b909650945060608a0135915080821115612b7d57600080fd5b50612b8a8a828b016128f7565b989b979a50959850939692959293505050565b60008060008060408587031215612bb357600080fd5b843567ffffffffffffffff80821115612bcb57600080fd5b612bd7888389016128f7565b90965094506020870135915080821115612bf057600080fd5b50612bfd878288016128f7565b95989497509550505050565b600060208284031215612c1b57600080fd5b81516111778161288c565b7f4e487b7100000000000000000000000000000000000000000000000000000000600052601160045260246000fd5b8181038181111561052c5761052c612c26565b7f4e487b7100000000000000000000000000000000000000000000000000000000600052604160045260246000fd5b7f4e487b7100000000000000000000000000000000000000000000000000000000600052603260045260246000fd5b8082018082111561052c5761052c612c26565b808202811582820484141761052c5761052c612c26565b6040808252835182820181905260009190606090818501906020808901865b83811015612d2b57815185529382019390820190600101612d0f565b5050868303818801528751808452888201938201925060005b81811015612d71578451805185528381015184860152870151878501529382019392850192600101612d44565b50919998505050505050505050565b6020815281602082015260007f07ffffffffffffffffffffffffffffffffffffffffffffffffffffffffffffff831115612db957600080fd5b8260051b80856040850137919091016040019392505050565b600082612e08577f4e487b7100000000000000000000000000000000000000000000000000000000600052601260045260246000fd5b500490565b600060208284031215612e1f57600080fd5b8151801515811461117757600080fd5b60005b83811015612e4a578181015183820152602001612e32565b50506000910152565b60008251612e65818460208701612e2f565b9190910192915050565b6020815260008251806020840152612e8e816040850160208701612e2f565b601f017fffffffffffffffffffffffffffffffffffffffffffffffffffffffffffffffe016919091016040019291505056fea264697066735822122080339d422ba68aa80c2153d66d58d2d75c64d19dda6edd835f165aa7e8c7cc5464736f6c63430008160033",
  "linkReferences": {},
  "deployedLinkReferences": {}
}