{
  "_format": "hh-sol-artifact-1",
  "contractName": "OpenCampusCertificateNFTv1",
  "sourceName": "contracts/vc/OpenCampusCertificateNFTv1.sol",
  "abi": [
    {
      "inputs": [
        {
          "internalType": "string",
          "name": "tokenName",
          "type": "string"
        },
        {
          "internalType": "string",
          "name": "tokenSymbol",
          "type": "string"
        },
        {
          "internalType": "contract ITokenMetadataResolver",
          "name": "metadataResolver",
          "type": "address"
        }
      ],
      "stateMutability": "nonpayable",
      "type": "constructor"
    },
    {
      "inputs": [],
      "name": "ERC721BalanceOfAddressZero",
      "type": "error"
    },
    {
      "inputs": [
        {
          "internalType": "uint256",
          "name": "tokenId",
          "type": "uint256"
        }
      ],
      "name": "ERC721ExistingToken",
      "type": "error"
    },
    {
      "inputs": [],
      "name": "ERC721MintToAddressZero",
      "type": "error"
    },
    {
      "inputs": [
        {
          "internalType": "uint256",
          "name": "tokenId",
          "type": "uint256"
        }
      ],
      "name": "ERC721NonExistingToken",
      "type": "error"
    },
    {
      "inputs": [],
      "name": "IllegalInterfaceId",
      "type": "error"
    },
    {
      "inputs": [],
      "name": "NoOperatorAllowed",
      "type": "error"
    },
    {
      "inputs": [
        {
          "internalType": "address",
          "name": "account",
          "type": "address"
        }
      ],
      "name": "NotContractOwner",
      "type": "error"
    },
    {
      "inputs": [
        {
          "internalType": "bytes32",
          "name": "role",
          "type": "bytes32"
        },
        {
          "internalType": "address",
          "name": "account",
          "type": "address"
        }
      ],
      "name": "NotRoleHolder",
      "type": "error"
    },
    {
      "inputs": [],
      "name": "TransferNotAllowed",
      "type": "error"
    },
    {
      "anonymous": false,
      "inputs": [
        {
          "indexed": true,
          "internalType": "address",
          "name": "previousOwner",
          "type": "address"
        },
        {
          "indexed": true,
          "internalType": "address",
          "name": "newOwner",
          "type": "address"
        }
      ],
      "name": "OwnershipTransferred",
      "type": "event"
    },
    {
      "anonymous": false,
      "inputs": [
        {
          "indexed": false,
          "internalType": "bytes32",
          "name": "role",
          "type": "bytes32"
        },
        {
          "indexed": false,
          "internalType": "address",
          "name": "account",
          "type": "address"
        },
        {
          "indexed": false,
          "internalType": "address",
          "name": "operator",
          "type": "address"
        }
      ],
      "name": "RoleGranted",
      "type": "event"
    },
    {
      "anonymous": false,
      "inputs": [
        {
          "indexed": false,
          "internalType": "bytes32",
          "name": "role",
          "type": "bytes32"
        },
        {
          "indexed": false,
          "internalType": "address",
          "name": "account",
          "type": "address"
        },
        {
          "indexed": false,
          "internalType": "address",
          "name": "operator",
          "type": "address"
        }
      ],
      "name": "RoleRevoked",
      "type": "event"
    },
    {
      "anonymous": false,
      "inputs": [
        {
          "indexed": true,
          "internalType": "address",
          "name": "from",
          "type": "address"
        },
        {
          "indexed": true,
          "internalType": "address",
          "name": "to",
          "type": "address"
        },
        {
          "indexed": true,
          "internalType": "uint256",
          "name": "tokenId",
          "type": "uint256"
        }
      ],
      "name": "Transfer",
      "type": "event"
    },
    {
      "inputs": [],
      "name": "MINTER_ROLE",
      "outputs": [
        {
          "internalType": "bytes32",
          "name": "",
          "type": "bytes32"
        }
      ],
      "stateMutability": "view",
      "type": "function"
    },
    {
      "inputs": [
        {
          "internalType": "address",
          "name": "to",
          "type": "address"
        },
        {
          "internalType": "uint256",
          "name": "tokenId",
          "type": "uint256"
        }
      ],
      "name": "approve",
      "outputs": [],
      "stateMutability": "nonpayable",
      "type": "function"
    },
    {
      "inputs": [
        {
          "internalType": "address",
          "name": "owner",
          "type": "address"
        }
      ],
      "name": "balanceOf",
      "outputs": [
        {
          "internalType": "uint256",
          "name": "balance",
          "type": "uint256"
        }
      ],
      "stateMutability": "view",
      "type": "function"
    },
    {
      "inputs": [
        {
          "internalType": "uint256",
          "name": "tokenId",
          "type": "uint256"
        }
      ],
      "name": "getApproved",
      "outputs": [
        {
          "internalType": "address",
          "name": "approved",
          "type": "address"
        }
      ],
      "stateMutability": "view",
      "type": "function"
    },
    {
      "inputs": [
        {
          "internalType": "bytes32",
          "name": "role",
          "type": "bytes32"
        },
        {
          "internalType": "address",
          "name": "account",
          "type": "address"
        }
      ],
      "name": "grantRole",
      "outputs": [],
      "stateMutability": "nonpayable",
      "type": "function"
    },
    {
      "inputs": [
        {
          "internalType": "bytes32",
          "name": "role",
          "type": "bytes32"
        },
        {
          "internalType": "address",
          "name": "account",
          "type": "address"
        }
      ],
      "name": "hasRole",
      "outputs": [
        {
          "internalType": "bool",
          "name": "hasRole_",
          "type": "bool"
        }
      ],
      "stateMutability": "view",
      "type": "function"
    },
    {
      "inputs": [
        {
          "internalType": "address",
          "name": "owner",
          "type": "address"
        },
        {
          "internalType": "address",
          "name": "operator",
          "type": "address"
        }
      ],
      "name": "isApprovedForAll",
      "outputs": [
        {
          "internalType": "bool",
          "name": "approvedForAll",
          "type": "bool"
        }
      ],
      "stateMutability": "view",
      "type": "function"
    },
    {
      "inputs": [],
      "name": "metadataResolver",
      "outputs": [
        {
          "internalType": "contract ITokenMetadataResolver",
          "name": "tokenMetadataResolver",
          "type": "address"
        }
      ],
      "stateMutability": "view",
      "type": "function"
    },
    {
      "inputs": [
        {
          "internalType": "address",
          "name": "to",
          "type": "address"
        },
        {
          "internalType": "uint256",
          "name": "tokenId",
          "type": "uint256"
        },
        {
          "components": [
            {
              "internalType": "uint16",
              "name": "schemaVersion",
              "type": "uint16"
            },
            {
              "internalType": "uint16",
              "name": "achievementType",
              "type": "uint16"
            },
            {
              "internalType": "uint64",
              "name": "awardedDate",
              "type": "uint64"
            },
            {
              "internalType": "uint64",
              "name": "validFrom",
              "type": "uint64"
            },
            {
              "internalType": "uint64",
              "name": "validUtil",
              "type": "uint64"
            },
            {
              "internalType": "string",
              "name": "issuerDid",
              "type": "string"
            },
            {
              "internalType": "string",
              "name": "achievementId",
              "type": "string"
            }
          ],
          "internalType": "struct CertificateNFTv1MetaData.MetaData",
          "name": "metadata",
          "type": "tuple"
        }
      ],
      "name": "mint",
      "outputs": [],
      "stateMutability": "nonpayable",
      "type": "function"
    },
    {
      "inputs": [],
      "name": "name",
      "outputs": [
        {
          "internalType": "string",
          "name": "tokenName",
          "type": "string"
        }
      ],
      "stateMutability": "view",
      "type": "function"
    },
    {
      "inputs": [],
      "name": "owner",
      "outputs": [
        {
          "internalType": "address",
          "name": "",
          "type": "address"
        }
      ],
      "stateMutability": "view",
      "type": "function"
    },
    {
      "inputs": [
        {
          "internalType": "uint256",
          "name": "tokenId",
          "type": "uint256"
        }
      ],
      "name": "ownerOf",
      "outputs": [
        {
          "internalType": "address",
          "name": "tokenOwner",
          "type": "address"
        }
      ],
      "stateMutability": "view",
      "type": "function"
    },
    {
      "inputs": [
        {
          "internalType": "bytes32",
          "name": "role",
          "type": "bytes32"
        }
      ],
      "name": "renounceRole",
      "outputs": [],
      "stateMutability": "nonpayable",
      "type": "function"
    },
    {
      "inputs": [
        {
          "internalType": "bytes32",
          "name": "role",
          "type": "bytes32"
        },
        {
          "internalType": "address",
          "name": "account",
          "type": "address"
        }
      ],
      "name": "revokeRole",
      "outputs": [],
      "stateMutability": "nonpayable",
      "type": "function"
    },
    {
      "inputs": [
        {
          "internalType": "address",
          "name": "from",
          "type": "address"
        },
        {
          "internalType": "address",
          "name": "to",
          "type": "address"
        },
        {
          "internalType": "uint256",
          "name": "tokenId",
          "type": "uint256"
        }
      ],
      "name": "safeTransferFrom",
      "outputs": [],
      "stateMutability": "nonpayable",
      "type": "function"
    },
    {
      "inputs": [
        {
          "internalType": "address",
          "name": "from",
          "type": "address"
        },
        {
          "internalType": "address",
          "name": "to",
          "type": "address"
        },
        {
          "internalType": "uint256",
          "name": "tokenId",
          "type": "uint256"
        },
        {
          "internalType": "bytes",
          "name": "data",
          "type": "bytes"
        }
      ],
      "name": "safeTransferFrom",
      "outputs": [],
      "stateMutability": "nonpayable",
      "type": "function"
    },
    {
      "inputs": [
        {
          "internalType": "address",
          "name": "operator",
          "type": "address"
        },
        {
          "internalType": "bool",
          "name": "approved",
          "type": "bool"
        }
      ],
      "name": "setApprovalForAll",
      "outputs": [],
      "stateMutability": "nonpayable",
      "type": "function"
    },
    {
      "inputs": [
        {
          "internalType": "bytes4",
          "name": "interfaceId",
          "type": "bytes4"
        }
      ],
      "name": "supportsInterface",
      "outputs": [
        {
          "internalType": "bool",
          "name": "",
          "type": "bool"
        }
      ],
      "stateMutability": "view",
      "type": "function"
    },
    {
      "inputs": [],
      "name": "symbol",
      "outputs": [
        {
          "internalType": "string",
          "name": "tokenSymbol",
          "type": "string"
        }
      ],
      "stateMutability": "view",
      "type": "function"
    },
    {
      "inputs": [
        {
          "internalType": "uint256",
          "name": "tokenId",
          "type": "uint256"
        }
      ],
      "name": "tokenURI",
      "outputs": [
        {
          "internalType": "string",
          "name": "uri",
          "type": "string"
        }
      ],
      "stateMutability": "view",
      "type": "function"
    },
    {
      "inputs": [
        {
          "internalType": "address",
          "name": "from",
          "type": "address"
        },
        {
          "internalType": "address",
          "name": "to",
          "type": "address"
        },
        {
          "internalType": "uint256",
          "name": "tokenId",
          "type": "uint256"
        }
      ],
      "name": "transferFrom",
      "outputs": [],
      "stateMutability": "nonpayable",
      "type": "function"
    },
    {
      "inputs": [
        {
          "internalType": "address",
          "name": "newOwner",
          "type": "address"
        }
      ],
      "name": "transferOwnership",
      "outputs": [],
      "stateMutability": "nonpayable",
      "type": "function"
    },
    {
      "inputs": [
        {
          "internalType": "uint256",
          "name": "",
          "type": "uint256"
        }
      ],
      "name": "vcData",
      "outputs": [
        {
          "internalType": "uint16",
          "name": "schemaVersion",
          "type": "uint16"
        },
        {
          "internalType": "uint16",
          "name": "achievementType",
          "type": "uint16"
        },
        {
          "internalType": "uint64",
          "name": "awardedDate",
          "type": "uint64"
        },
        {
          "internalType": "uint64",
          "name": "validFrom",
          "type": "uint64"
        },
        {
          "internalType": "uint64",
          "name": "validUtil",
          "type": "uint64"
        },
        {
          "internalType": "string",
          "name": "issuerDid",
          "type": "string"
        },
        {
          "internalType": "string",
          "name": "achievementId",
          "type": "string"
        }
      ],
      "stateMutability": "view",
      "type": "function"
    }
  ],
  "bytecode": "0x60806040523480156200001157600080fd5b5060405162001f6538038062001f65833981016040819052620000349162000339565b3383838362000052838383620000496200008f565b929190620000c5565b6200005c6200010c565b5050506200007b81620000746200012e60201b60201c565b906200015e565b5062000086620001d1565b50505062000545565b600080620000bf60017f7ea68fd2dcf1c056b94db6a0a537aa80d26fa9ab1eacd85da1ba0b61b7e7a8a5620003c6565b92915050565b83620000d2848262000479565b5060018401620000e3838262000479565b5060029390930180546001600160a01b0319166001600160a01b03909416939093179092555050565b6200012c635b5e139f60e01b600162000124620001e4565b919062000214565b565b600080620000bf60017fc9ed16f33ab3a66c84bfd83099ccb2a8845871e2e1c1928f63797152f0fd54cd620003c6565b6001600160a01b03811615620001b55781546001600160a01b0319166001600160a01b03821690811783556040516000907f8be0079c531659141344cd1fd0a4f28419497f9722a3daafe3b4186f6b6457e0908290a35b620001cd6307f5828d60e41b600162000124620001e4565b5050565b6200012c638e773e1360e01b6001620001245b600080620000bf60017fca9d3e17f264b0f3984e2634e94adb37fa3e6a8103f06aeae6fa59e21c769f5e620003c6565b600160e01b6001600160e01b031983160162000243576040516372c683bb60e01b815260040160405180910390fd5b6001600160e01b03199190911660009081526020929092526040909120805460ff1916911515919091179055565b634e487b7160e01b600052604160045260246000fd5b600082601f8301126200029957600080fd5b81516001600160401b0380821115620002b657620002b662000271565b604051601f8301601f19908116603f01168101908282118183101715620002e157620002e162000271565b8160405283815260209250866020858801011115620002ff57600080fd5b600091505b8382101562000323578582018301518183018401529082019062000304565b6000602085830101528094505050505092915050565b6000806000606084860312156200034f57600080fd5b83516001600160401b03808211156200036757600080fd5b620003758783880162000287565b945060208601519150808211156200038c57600080fd5b506200039b8682870162000287565b604086015190935090506001600160a01b0381168114620003bb57600080fd5b809150509250925092565b81810381811115620000bf57634e487b7160e01b600052601160045260246000fd5b600181811c90821680620003fd57607f821691505b6020821081036200041e57634e487b7160e01b600052602260045260246000fd5b50919050565b601f82111562000474576000816000526020600020601f850160051c810160208610156200044f5750805b601f850160051c820191505b8181101562000470578281556001016200045b565b5050505b505050565b81516001600160401b0381111562000495576200049562000271565b620004ad81620004a68454620003e8565b8462000424565b602080601f831160018114620004e55760008415620004cc5750858301515b600019600386901b1c1916600185901b17855562000470565b600085815260208120601f198616915b828110156200051657888601518255948401946001909101908401620004f5565b5085821015620005355787850151600019600388901b60f8161c191681555b5050505050600190811b01905550565b611a1080620005556000396000f3fe608060405234801561001057600080fd5b506004361061018d5760003560e01c80638bb9c5bf116100e3578063b88d4fde1161008c578063d547741f11610066578063d547741f14610343578063e985e9c514610356578063f2fde38b1461036457600080fd5b8063b88d4fde146102fb578063c87b56dd14610309578063d53913931461031c57600080fd5b806395d89b41116100bd57806395d89b41146102d8578063a0c76f62146102e0578063a22cb465146102e857600080fd5b80638bb9c5bf146102aa5780638da5cb5b146102bd57806391d14854146102c557600080fd5b80632f2ff15d1161014557806354c7be061161011f57806354c7be06146102635780636352211e1461027657806370a082311461028957600080fd5b80632f2ff15d1461022a57806342842e0e1461021c5780634bae2be81461023d57600080fd5b8063081812fc11610176578063081812fc146101cf578063095ea7b31461020757806323b872dd1461021c57600080fd5b806301ffc9a71461019257806306fdde03146101ba575b600080fd5b6101a56101a0366004611131565b610377565b60405190151581526020015b60405180910390f35b6101c2610391565b6040516101b191906111e1565b6101e26101dd3660046111f4565b6103a0565b60405173ffffffffffffffffffffffffffffffffffffffff90911681526020016101b1565b61021a610215366004611236565b6103d4565b005b61021a610215366004611260565b61021a61023836600461129c565b610406565b61025061024b3660046111f4565b610434565b6040516101b197969594939291906112c8565b61021a61027136600461132f565b6105ba565b6101e26102843660046111f4565b610623565b61029c61029736600461138d565b610637565b6040519081526020016101b1565b61021a6102b83660046111f4565b61064b565b6101e2610662565b6101a56102d336600461129c565b610689565b6101c26106d4565b6101e26106de565b61021a6102f63660046113a8565b610708565b61021a6102153660046113e4565b6101c26103173660046111f4565b61073a565b61029c7f6d696e746572000000000000000000000000000000000000000000000000000081565b61021a61035136600461129c565b61075d565b6101a56101dd36600461147f565b61021a61037236600461138d565b610780565b600061038b82610385610794565b906107c2565b92915050565b606061039b61089c565b905090565b60006040517f5211920d00000000000000000000000000000000000000000000000000000000815260040160405180910390fd5b6040517f8cd22d1900000000000000000000000000000000000000000000000000000000815260040160405180910390fd5b33610419816104136108ae565b906108dc565b61042f838383610427610950565b92919061097e565b505050565b6000602081905290815260409020805460018201805461ffff808416946201000085049091169367ffffffffffffffff64010000000082048116946c0100000000000000000000000083048216947401000000000000000000000000000000000000000090930490911692916104a9906114a9565b80601f01602080910402602001604051908101604052809291908181526020018280546104d5906114a9565b80156105225780601f106104f757610100808354040283529160200191610522565b820191906000526020600020905b81548152906001019060200180831161050557829003601f168201915b505050505090806002018054610537906114a9565b80601f0160208091040260200160405190810160405280929190818152602001828054610563906114a9565b80156105b05780601f10610585576101008083540402835291602001916105b0565b820191906000526020600020905b81548152906001019060200180831161059357829003601f168201915b5050505050905087565b6105ee7f6d696e7465720000000000000000000000000000000000000000000000000000336105e7610950565b9190610a55565b61060283836105fb610adb565b9190610b09565b6000828152602081905260409020819061061c828261172f565b5050505050565b600061038b82610631610adb565b90610c23565b600061038b82610645610adb565b90610c8c565b61065f3382610658610950565b9190610d08565b50565b600061039b61066f6108ae565b5473ffffffffffffffffffffffffffffffffffffffff1690565b60006106cd8383610698610950565b60009283526020908152604080842073ffffffffffffffffffffffffffffffffffffffff909316845291905290205460ff1690565b9392505050565b606061039b610dac565b600061039b6106eb610dbe565b6002015473ffffffffffffffffffffffffffffffffffffffff1690565b6040517f5211920d00000000000000000000000000000000000000000000000000000000815260040160405180910390fd5b606061074882610631610adb565b5061038b3083610756610dbe565b9190610dec565b3361076a816104136108ae565b61042f838383610778610950565b929190610eac565b61065f338261078d6108ae565b9190610f76565b60008061038b60017fca9d3e17f264b0f3984e2634e94adb37fa3e6a8103f06aeae6fa59e21c769f5e6118d5565b60007c01000000000000000000000000000000000000000000000000000000007fffffffff000000000000000000000000000000000000000000000000000000008316016108125750600061038b565b7ffe003659000000000000000000000000000000000000000000000000000000007fffffffff000000000000000000000000000000000000000000000000000000008316016108635750600161038b565b507fffffffff00000000000000000000000000000000000000000000000000000000166000908152602091909152604090205460ff1690565b606061039b6108a9610dbe565b61108a565b60008061038b60017fc9ed16f33ab3a66c84bfd83099ccb2a8845871e2e1c1928f63797152f0fd54cd6118d5565b815473ffffffffffffffffffffffffffffffffffffffff82811691161461094c576040517f2ef4875e00000000000000000000000000000000000000000000000000000000815273ffffffffffffffffffffffffffffffffffffffff821660048201526024015b60405180910390fd5b5050565b60008061038b60017fc8827d3282af6f37b64c3e9e6f3ac9df286ab0bb0fccd6f8661bf19adb368b236118d5565b60008381526020858152604080832073ffffffffffffffffffffffffffffffffffffffff8616845290915290205460ff16610a4f5760008381526020858152604080832073ffffffffffffffffffffffffffffffffffffffff8681168086529184529382902080547fffffffffffffffffffffffffffffffffffffffffffffffffffffffffffffff00166001179055815187815292830152918316918101919091527f2f8788117e7eff1d82e926ec794901d17c78024a50270940304540a733656f0d906060015b60405180910390a15b50505050565b60008281526020848152604080832073ffffffffffffffffffffffffffffffffffffffff8516845290915290205460ff1661042f576040517f7aa728820000000000000000000000000000000000000000000000000000000081526004810183905273ffffffffffffffffffffffffffffffffffffffff82166024820152604401610943565b60008061038b60017fddf3ee18ae6d688373c219468f8be446e7ae82215f4779d821c7ea5e8c13c0c16118d5565b73ffffffffffffffffffffffffffffffffffffffff8216610b56576040517f7851b9cd00000000000000000000000000000000000000000000000000000000815260040160405180910390fd5b60008181526020849052604090205473ffffffffffffffffffffffffffffffffffffffff1615610bb5576040517f753eceac00000000000000000000000000000000000000000000000000000000815260048101829052602401610943565b60008181526020848152604080832073ffffffffffffffffffffffffffffffffffffffff86169081905580845260018088019093528184208054909301909255518392907fddf252ad1be2c89b69c2b068fc378daa952ba7f163c4a11628f55a4df523b3ef908290a4505050565b60008181526020839052604081205473ffffffffffffffffffffffffffffffffffffffff8116610c82576040517fdd56047500000000000000000000000000000000000000000000000000000000815260048101849052602401610943565b805b949350505050565b600073ffffffffffffffffffffffffffffffffffffffff8216610cdb576040517faefbce4e00000000000000000000000000000000000000000000000000000000815260040160405180910390fd5b5073ffffffffffffffffffffffffffffffffffffffff166000908152600191909101602052604090205490565b610d13838284610a55565b60008181526020848152604080832073ffffffffffffffffffffffffffffffffffffffff86168085529083529281902080547fffffffffffffffffffffffffffffffffffffffffffffffffffffffffffffff0016905580518481529182018390528101919091527ff6391f5c32d9c69d2a47ea670b442974b53935d1edc7fd64eb21e047a839171b9060600160405180910390a1505050565b606061039b610db9610dbe565b611120565b60008061038b60017f7ea68fd2dcf1c056b94db6a0a537aa80d26fa9ab1eacd85da1ba0b61b7e7a8a56118d5565b60028301546040517ff724dad700000000000000000000000000000000000000000000000000000000815273ffffffffffffffffffffffffffffffffffffffff848116600483015260248201849052606092169063f724dad790604401600060405180830381865afa158015610e66573d6000803e3d6000fd5b505050506040513d6000823e601f3d9081017fffffffffffffffffffffffffffffffffffffffffffffffffffffffffffffffe0168201604052610c84919081019061190f565b60008381526020858152604080832073ffffffffffffffffffffffffffffffffffffffff8616845290915290205460ff1615610a4f5760008381526020858152604080832073ffffffffffffffffffffffffffffffffffffffff8681168086529184529382902080547fffffffffffffffffffffffffffffffffffffffffffffffffffffffffffffff00169055815187815292830152918316918101919091527ff6391f5c32d9c69d2a47ea670b442974b53935d1edc7fd64eb21e047a839171b90606001610a46565b825473ffffffffffffffffffffffffffffffffffffffff9081169083168114610fe3576040517f2ef4875e00000000000000000000000000000000000000000000000000000000815273ffffffffffffffffffffffffffffffffffffffff84166004820152602401610943565b8173ffffffffffffffffffffffffffffffffffffffff168173ffffffffffffffffffffffffffffffffffffffff1614610a4f5783547fffffffffffffffffffffffff00000000000000000000000000000000000000001673ffffffffffffffffffffffffffffffffffffffff8381169182178655604051908316907f8be0079c531659141344cd1fd0a4f28419497f9722a3daafe3b4186f6b6457e090600090a350505050565b606081600001805461109b906114a9565b80601f01602080910402602001604051908101604052809291908181526020018280546110c7906114a9565b80156111145780601f106110e957610100808354040283529160200191611114565b820191906000526020600020905b8154815290600101906020018083116110f757829003601f168201915b50505050509050919050565b606081600101805461109b906114a9565b60006020828403121561114357600080fd5b81357fffffffff00000000000000000000000000000000000000000000000000000000811681146106cd57600080fd5b60005b8381101561118e578181015183820152602001611176565b50506000910152565b600081518084526111af816020860160208601611173565b601f017fffffffffffffffffffffffffffffffffffffffffffffffffffffffffffffffe0169290920160200192915050565b6020815260006106cd6020830184611197565b60006020828403121561120657600080fd5b5035919050565b803573ffffffffffffffffffffffffffffffffffffffff8116811461123157600080fd5b919050565b6000806040838503121561124957600080fd5b6112528361120d565b946020939093013593505050565b60008060006060848603121561127557600080fd5b61127e8461120d565b925061128c6020850161120d565b9150604084013590509250925092565b600080604083850312156112af57600080fd5b823591506112bf6020840161120d565b90509250929050565b61ffff88811682528716602082015267ffffffffffffffff868116604083015285811660608301528416608082015260e060a0820181905260009061130f90830185611197565b82810360c08401526113218185611197565b9a9950505050505050505050565b60008060006060848603121561134457600080fd5b61134d8461120d565b925060208401359150604084013567ffffffffffffffff81111561137057600080fd5b840160e0818703121561138257600080fd5b809150509250925092565b60006020828403121561139f57600080fd5b6106cd8261120d565b600080604083850312156113bb57600080fd5b6113c48361120d565b9150602083013580151581146113d957600080fd5b809150509250929050565b6000806000806000608086880312156113fc57600080fd5b6114058661120d565b94506114136020870161120d565b935060408601359250606086013567ffffffffffffffff8082111561143757600080fd5b818801915088601f83011261144b57600080fd5b81358181111561145a57600080fd5b89602082850101111561146c57600080fd5b9699959850939650602001949392505050565b6000806040838503121561149257600080fd5b61149b8361120d565b91506112bf6020840161120d565b600181811c908216806114bd57607f821691505b6020821081036114f6577f4e487b7100000000000000000000000000000000000000000000000000000000600052602260045260246000fd5b50919050565b6000813561ffff8116811461038b57600080fd5b6000813567ffffffffffffffff8116811461038b57600080fd5b60008083357fffffffffffffffffffffffffffffffffffffffffffffffffffffffffffffffe184360301811261155f57600080fd5b83018035915067ffffffffffffffff82111561157a57600080fd5b60200191503681900382131561158f57600080fd5b9250929050565b7f4e487b7100000000000000000000000000000000000000000000000000000000600052604160045260246000fd5b601f82111561042f576000816000526020600020601f850160051c810160208610156115ee5750805b601f850160051c820191505b8181101561160d578281556001016115fa565b505050505050565b67ffffffffffffffff83111561162d5761162d611596565b6116418361163b83546114a9565b836115c5565b6000601f841160018114611693576000851561165d5750838201355b7fffffffffffffffffffffffffffffffffffffffffffffffffffffffffffffffff600387901b1c1916600186901b17835561061c565b6000838152602090207fffffffffffffffffffffffffffffffffffffffffffffffffffffffffffffffe0861690835b828110156116e257868501358255602094850194600190920191016116c2565b508682101561171d577fffffffffffffffffffffffffffffffffffffffffffffffffffffffffffffffff60f88860031b161c19848701351681555b505060018560011b0183555050505050565b61ffff61173b836114fc565b168154817fffffffffffffffffffffffffffffffffffffffffffffffffffffffffffff0000821617835563ffff0000611776602086016114fc565b60101b1680837fffffffffffffffffffffffffffffffffffffffffffffffffffffffff000000008416171784556bffffffffffffffff000000006117bc60408701611510565b60201b16837fffffffffffffffffffffffffffffffffffffffff00000000000000000000000084161782171784555050506118416117fc60608401611510565b82547fffffffffffffffffffffffff0000000000000000ffffffffffffffffffffffff1660609190911b73ffffffffffffffff00000000000000000000000016178255565b61189d61185060808401611510565b82547fffffffff0000000000000000ffffffffffffffffffffffffffffffffffffffff1660a09190911b7bffffffffffffffff000000000000000000000000000000000000000016178255565b6118aa60a083018361152a565b6118b8818360018601611615565b50506118c760c083018361152a565b610a4f818360028601611615565b8181038181111561038b577f4e487b7100000000000000000000000000000000000000000000000000000000600052601160045260246000fd5b60006020828403121561192157600080fd5b815167ffffffffffffffff8082111561193957600080fd5b818401915084601f83011261194d57600080fd5b81518181111561195f5761195f611596565b604051601f82017fffffffffffffffffffffffffffffffffffffffffffffffffffffffffffffffe0908116603f011681019083821181831017156119a5576119a5611596565b816040528281528760208487010111156119be57600080fd5b6119cf836020830160208801611173565b97965050505050505056fea2646970667358221220444a691ab0d08a957503cddd50ad6d3cea6f23e39ccdaefe3b17fb9b99ce9a9864736f6c63430008160033",
  "linkReferences": {},
  "deployedLinkReferences": {}
}