{
  "_format": "hh-sol-artifact-1",
  "contractName": "OpenCampusCertificateNFTv1",
  "sourceName": "contracts/vc/OpenCampusCertificateNFTv1.sol",
  "abi": [
    {
      "inputs": [
        {
          "internalType": "string",
          "name": "tokenName",
          "type": "string"
        },
        {
          "internalType": "string",
          "name": "tokenSymbol",
          "type": "string"
        },
        {
          "internalType": "contract IForwarderRegistry",
          "name": "forwarderRegistry",
          "type": "address"
        },
        {
          "internalType": "contract ITokenMetadataResolver",
          "name": "metadataResolver",
          "type": "address"
        },
        {
          "internalType": "contract IRevocationRegistry",
          "name": "revocationRegistry",
          "type": "address"
        },
        {
          "internalType": "contract IIssuersDIDRegistry",
          "name": "didRegistry",
          "type": "address"
        }
      ],
      "stateMutability": "nonpayable",
      "type": "constructor"
    },
    {
      "inputs": [],
      "name": "ERC721BalanceOfAddressZero",
      "type": "error"
    },
    {
      "inputs": [
        {
          "internalType": "uint256",
          "name": "tokenId",
          "type": "uint256"
        }
      ],
      "name": "ERC721ExistingToken",
      "type": "error"
    },
    {
      "inputs": [],
      "name": "ERC721MintToAddressZero",
      "type": "error"
    },
    {
      "inputs": [
        {
          "internalType": "address",
          "name": "sender",
          "type": "address"
        },
        {
          "internalType": "address",
          "name": "owner",
          "type": "address"
        },
        {
          "internalType": "uint256",
          "name": "tokenId",
          "type": "uint256"
        }
      ],
      "name": "ERC721NonApprovedForApproval",
      "type": "error"
    },
    {
      "inputs": [
        {
          "internalType": "address",
          "name": "sender",
          "type": "address"
        },
        {
          "internalType": "address",
          "name": "owner",
          "type": "address"
        },
        {
          "internalType": "uint256",
          "name": "tokenId",
          "type": "uint256"
        }
      ],
      "name": "ERC721NonApprovedForTransfer",
      "type": "error"
    },
    {
      "inputs": [
        {
          "internalType": "uint256",
          "name": "tokenId",
          "type": "uint256"
        }
      ],
      "name": "ERC721NonExistingToken",
      "type": "error"
    },
    {
      "inputs": [
        {
          "internalType": "address",
          "name": "account",
          "type": "address"
        },
        {
          "internalType": "uint256",
          "name": "tokenId",
          "type": "uint256"
        }
      ],
      "name": "ERC721NonOwnedToken",
      "type": "error"
    },
    {
      "inputs": [
        {
          "internalType": "address",
          "name": "recipient",
          "type": "address"
        },
        {
          "internalType": "uint256",
          "name": "tokenId",
          "type": "uint256"
        }
      ],
      "name": "ERC721SafeTransferRejected",
      "type": "error"
    },
    {
      "inputs": [
        {
          "internalType": "address",
          "name": "account",
          "type": "address"
        }
      ],
      "name": "ERC721SelfApproval",
      "type": "error"
    },
    {
      "inputs": [
        {
          "internalType": "address",
          "name": "account",
          "type": "address"
        }
      ],
      "name": "ERC721SelfApprovalForAll",
      "type": "error"
    },
    {
      "inputs": [],
      "name": "ERC721TransferToAddressZero",
      "type": "error"
    },
    {
      "inputs": [],
      "name": "IllegalInterfaceId",
      "type": "error"
    },
    {
      "inputs": [],
      "name": "InvalidBurn",
      "type": "error"
    },
    {
      "inputs": [
        {
          "internalType": "address",
          "name": "account",
          "type": "address"
        }
      ],
      "name": "NotContractOwner",
      "type": "error"
    },
    {
      "inputs": [
        {
          "internalType": "bytes32",
          "name": "role",
          "type": "bytes32"
        },
        {
          "internalType": "address",
          "name": "account",
          "type": "address"
        }
      ],
      "name": "NotRoleHolder",
      "type": "error"
    },
    {
      "anonymous": false,
      "inputs": [
        {
          "indexed": true,
          "internalType": "address",
          "name": "owner",
          "type": "address"
        },
        {
          "indexed": true,
          "internalType": "address",
          "name": "approved",
          "type": "address"
        },
        {
          "indexed": true,
          "internalType": "uint256",
          "name": "tokenId",
          "type": "uint256"
        }
      ],
      "name": "Approval",
      "type": "event"
    },
    {
      "anonymous": false,
      "inputs": [
        {
          "indexed": true,
          "internalType": "address",
          "name": "owner",
          "type": "address"
        },
        {
          "indexed": true,
          "internalType": "address",
          "name": "operator",
          "type": "address"
        },
        {
          "indexed": false,
          "internalType": "bool",
          "name": "approved",
          "type": "bool"
        }
      ],
      "name": "ApprovalForAll",
      "type": "event"
    },
    {
      "anonymous": false,
      "inputs": [
        {
          "indexed": true,
          "internalType": "address",
          "name": "previousOwner",
          "type": "address"
        },
        {
          "indexed": true,
          "internalType": "address",
          "name": "newOwner",
          "type": "address"
        }
      ],
      "name": "OwnershipTransferred",
      "type": "event"
    },
    {
      "anonymous": false,
      "inputs": [
        {
          "indexed": false,
          "internalType": "bytes32",
          "name": "role",
          "type": "bytes32"
        },
        {
          "indexed": false,
          "internalType": "address",
          "name": "account",
          "type": "address"
        },
        {
          "indexed": false,
          "internalType": "address",
          "name": "operator",
          "type": "address"
        }
      ],
      "name": "RoleGranted",
      "type": "event"
    },
    {
      "anonymous": false,
      "inputs": [
        {
          "indexed": false,
          "internalType": "bytes32",
          "name": "role",
          "type": "bytes32"
        },
        {
          "indexed": false,
          "internalType": "address",
          "name": "account",
          "type": "address"
        },
        {
          "indexed": false,
          "internalType": "address",
          "name": "operator",
          "type": "address"
        }
      ],
      "name": "RoleRevoked",
      "type": "event"
    },
    {
      "anonymous": false,
      "inputs": [
        {
          "indexed": true,
          "internalType": "address",
          "name": "from",
          "type": "address"
        },
        {
          "indexed": true,
          "internalType": "address",
          "name": "to",
          "type": "address"
        },
        {
          "indexed": true,
          "internalType": "uint256",
          "name": "tokenId",
          "type": "uint256"
        }
      ],
      "name": "Transfer",
      "type": "event"
    },
    {
      "inputs": [],
      "name": "MINTER_ROLE",
      "outputs": [
        {
          "internalType": "bytes32",
          "name": "",
          "type": "bytes32"
        }
      ],
      "stateMutability": "view",
      "type": "function"
    },
    {
      "inputs": [],
      "name": "OPERATOR_ROLE",
      "outputs": [
        {
          "internalType": "bytes32",
          "name": "",
          "type": "bytes32"
        }
      ],
      "stateMutability": "view",
      "type": "function"
    },
    {
      "inputs": [
        {
          "internalType": "address",
          "name": "to",
          "type": "address"
        },
        {
          "internalType": "uint256",
          "name": "tokenId",
          "type": "uint256"
        }
      ],
      "name": "approve",
      "outputs": [],
      "stateMutability": "nonpayable",
      "type": "function"
    },
    {
      "inputs": [
        {
          "internalType": "address",
          "name": "owner",
          "type": "address"
        }
      ],
      "name": "balanceOf",
      "outputs": [
        {
          "internalType": "uint256",
          "name": "balance",
          "type": "uint256"
        }
      ],
      "stateMutability": "view",
      "type": "function"
    },
    {
      "inputs": [
        {
          "internalType": "uint256",
          "name": "tokenId",
          "type": "uint256"
        }
      ],
      "name": "burn",
      "outputs": [],
      "stateMutability": "nonpayable",
      "type": "function"
    },
    {
      "inputs": [],
      "name": "forwarderRegistry",
      "outputs": [
        {
          "internalType": "contract IForwarderRegistry",
          "name": "",
          "type": "address"
        }
      ],
      "stateMutability": "view",
      "type": "function"
    },
    {
      "inputs": [
        {
          "internalType": "uint256",
          "name": "tokenId",
          "type": "uint256"
        }
      ],
      "name": "getApproved",
      "outputs": [
        {
          "internalType": "address",
          "name": "approved",
          "type": "address"
        }
      ],
      "stateMutability": "view",
      "type": "function"
    },
    {
      "inputs": [
        {
          "internalType": "bytes32",
          "name": "role",
          "type": "bytes32"
        },
        {
          "internalType": "address",
          "name": "account",
          "type": "address"
        }
      ],
      "name": "grantRole",
      "outputs": [],
      "stateMutability": "nonpayable",
      "type": "function"
    },
    {
      "inputs": [
        {
          "internalType": "bytes32",
          "name": "role",
          "type": "bytes32"
        },
        {
          "internalType": "address",
          "name": "account",
          "type": "address"
        }
      ],
      "name": "hasRole",
      "outputs": [
        {
          "internalType": "bool",
          "name": "hasRole_",
          "type": "bool"
        }
      ],
      "stateMutability": "view",
      "type": "function"
    },
    {
      "inputs": [
        {
          "internalType": "address",
          "name": "owner",
          "type": "address"
        },
        {
          "internalType": "address",
          "name": "operator",
          "type": "address"
        }
      ],
      "name": "isApprovedForAll",
      "outputs": [
        {
          "internalType": "bool",
          "name": "approvedForAll",
          "type": "bool"
        }
      ],
      "stateMutability": "view",
      "type": "function"
    },
    {
      "inputs": [
        {
          "internalType": "address",
          "name": "forwarder",
          "type": "address"
        }
      ],
      "name": "isTrustedForwarder",
      "outputs": [
        {
          "internalType": "bool",
          "name": "",
          "type": "bool"
        }
      ],
      "stateMutability": "view",
      "type": "function"
    },
    {
      "inputs": [],
      "name": "metadataResolver",
      "outputs": [
        {
          "internalType": "contract ITokenMetadataResolver",
          "name": "tokenMetadataResolver",
          "type": "address"
        }
      ],
      "stateMutability": "view",
      "type": "function"
    },
    {
      "inputs": [
        {
          "internalType": "address",
          "name": "to",
          "type": "address"
        },
        {
          "internalType": "uint256",
          "name": "tokenId",
          "type": "uint256"
        },
        {
          "components": [
            {
              "internalType": "uint16",
              "name": "schemaVersion",
              "type": "uint16"
            },
            {
              "internalType": "uint16",
              "name": "achievementType",
              "type": "uint16"
            },
            {
              "internalType": "uint64",
              "name": "awardedDate",
              "type": "uint64"
            },
            {
              "internalType": "uint64",
              "name": "validFrom",
              "type": "uint64"
            },
            {
              "internalType": "uint64",
              "name": "validUtil",
              "type": "uint64"
            },
            {
              "internalType": "string",
              "name": "issuerDid",
              "type": "string"
            },
            {
              "internalType": "string",
              "name": "achievementId",
              "type": "string"
            }
          ],
          "internalType": "struct CertificateNFTv1MetaData.MetaData",
          "name": "metadata",
          "type": "tuple"
        }
      ],
      "name": "mint",
      "outputs": [],
      "stateMutability": "nonpayable",
      "type": "function"
    },
    {
      "inputs": [],
      "name": "name",
      "outputs": [
        {
          "internalType": "string",
          "name": "tokenName",
          "type": "string"
        }
      ],
      "stateMutability": "view",
      "type": "function"
    },
    {
      "inputs": [],
      "name": "owner",
      "outputs": [
        {
          "internalType": "address",
          "name": "",
          "type": "address"
        }
      ],
      "stateMutability": "view",
      "type": "function"
    },
    {
      "inputs": [
        {
          "internalType": "uint256",
          "name": "tokenId",
          "type": "uint256"
        }
      ],
      "name": "ownerOf",
      "outputs": [
        {
          "internalType": "address",
          "name": "tokenOwner",
          "type": "address"
        }
      ],
      "stateMutability": "view",
      "type": "function"
    },
    {
      "inputs": [
        {
          "internalType": "bytes32",
          "name": "role",
          "type": "bytes32"
        }
      ],
      "name": "renounceRole",
      "outputs": [],
      "stateMutability": "nonpayable",
      "type": "function"
    },
    {
      "inputs": [
        {
          "internalType": "bytes32",
          "name": "role",
          "type": "bytes32"
        },
        {
          "internalType": "address",
          "name": "account",
          "type": "address"
        }
      ],
      "name": "revokeRole",
      "outputs": [],
      "stateMutability": "nonpayable",
      "type": "function"
    },
    {
      "inputs": [
        {
          "internalType": "address",
          "name": "from",
          "type": "address"
        },
        {
          "internalType": "address",
          "name": "to",
          "type": "address"
        },
        {
          "internalType": "uint256",
          "name": "tokenId",
          "type": "uint256"
        }
      ],
      "name": "safeTransferFrom",
      "outputs": [],
      "stateMutability": "nonpayable",
      "type": "function"
    },
    {
      "inputs": [
        {
          "internalType": "address",
          "name": "from",
          "type": "address"
        },
        {
          "internalType": "address",
          "name": "to",
          "type": "address"
        },
        {
          "internalType": "uint256",
          "name": "tokenId",
          "type": "uint256"
        },
        {
          "internalType": "bytes",
          "name": "data",
          "type": "bytes"
        }
      ],
      "name": "safeTransferFrom",
      "outputs": [],
      "stateMutability": "nonpayable",
      "type": "function"
    },
    {
      "inputs": [
        {
          "internalType": "address",
          "name": "operator",
          "type": "address"
        },
        {
          "internalType": "bool",
          "name": "approved",
          "type": "bool"
        }
      ],
      "name": "setApprovalForAll",
      "outputs": [],
      "stateMutability": "nonpayable",
      "type": "function"
    },
    {
      "inputs": [
        {
          "internalType": "contract IRevocationRegistry",
          "name": "revocationRegistry",
          "type": "address"
        }
      ],
      "name": "setRevocationRegistry",
      "outputs": [],
      "stateMutability": "nonpayable",
      "type": "function"
    },
    {
      "inputs": [
        {
          "internalType": "bytes4",
          "name": "interfaceId",
          "type": "bytes4"
        }
      ],
      "name": "supportsInterface",
      "outputs": [
        {
          "internalType": "bool",
          "name": "",
          "type": "bool"
        }
      ],
      "stateMutability": "view",
      "type": "function"
    },
    {
      "inputs": [],
      "name": "symbol",
      "outputs": [
        {
          "internalType": "string",
          "name": "tokenSymbol",
          "type": "string"
        }
      ],
      "stateMutability": "view",
      "type": "function"
    },
    {
      "inputs": [
        {
          "internalType": "uint256",
          "name": "tokenId",
          "type": "uint256"
        }
      ],
      "name": "tokenURI",
      "outputs": [
        {
          "internalType": "string",
          "name": "uri",
          "type": "string"
        }
      ],
      "stateMutability": "view",
      "type": "function"
    },
    {
      "inputs": [
        {
          "internalType": "address",
          "name": "from",
          "type": "address"
        },
        {
          "internalType": "address",
          "name": "to",
          "type": "address"
        },
        {
          "internalType": "uint256",
          "name": "tokenId",
          "type": "uint256"
        }
      ],
      "name": "transferFrom",
      "outputs": [],
      "stateMutability": "nonpayable",
      "type": "function"
    },
    {
      "inputs": [
        {
          "internalType": "address",
          "name": "newOwner",
          "type": "address"
        }
      ],
      "name": "transferOwnership",
      "outputs": [],
      "stateMutability": "nonpayable",
      "type": "function"
    },
    {
      "inputs": [
        {
          "internalType": "uint256",
          "name": "",
          "type": "uint256"
        }
      ],
      "name": "vcData",
      "outputs": [
        {
          "internalType": "uint16",
          "name": "schemaVersion",
          "type": "uint16"
        },
        {
          "internalType": "uint16",
          "name": "achievementType",
          "type": "uint16"
        },
        {
          "internalType": "uint64",
          "name": "awardedDate",
          "type": "uint64"
        },
        {
          "internalType": "uint64",
          "name": "validFrom",
          "type": "uint64"
        },
        {
          "internalType": "uint64",
          "name": "validUtil",
          "type": "uint64"
        },
        {
          "internalType": "string",
          "name": "issuerDid",
          "type": "string"
        },
        {
          "internalType": "string",
          "name": "achievementId",
          "type": "string"
        }
      ],
      "stateMutability": "view",
      "type": "function"
    }
  ],
  "bytecode": "0x60c06040523480156200001157600080fd5b506040516200316738038062003167833981016040819052620000349162000389565b838033888887620000548383836200004b620000c6565b929190620000fc565b6200005e62000143565b5050506200007d81620000766200016560201b60201c565b9062000195565b506001600160a01b0316608052506200009562000208565b6001600160a01b0390811660a052600080546001600160a01b0319169290911691909117905550620005c892505050565b600080620000f660017f7ea68fd2dcf1c056b94db6a0a537aa80d26fa9ab1eacd85da1ba0b61b7e7a8a562000449565b92915050565b83620001098482620004fc565b50600184016200011a8382620004fc565b5060029390930180546001600160a01b0319166001600160a01b03909416939093179092555050565b62000163635b5e139f60e01b60016200015b6200021b565b91906200024b565b565b600080620000f660017fc9ed16f33ab3a66c84bfd83099ccb2a8845871e2e1c1928f63797152f0fd54cd62000449565b6001600160a01b03811615620001ec5781546001600160a01b0319166001600160a01b03821690811783556040516000907f8be0079c531659141344cd1fd0a4f28419497f9722a3daafe3b4186f6b6457e0908290a35b620002046307f5828d60e41b60016200015b6200021b565b5050565b62000163638e773e1360e01b60016200015b5b600080620000f660017fca9d3e17f264b0f3984e2634e94adb37fa3e6a8103f06aeae6fa59e21c769f5e62000449565b600160e01b6001600160e01b03198316016200027a576040516372c683bb60e01b815260040160405180910390fd5b6001600160e01b03199190911660009081526020929092526040909120805460ff1916911515919091179055565b634e487b7160e01b600052604160045260246000fd5b600082601f830112620002d057600080fd5b81516001600160401b0380821115620002ed57620002ed620002a8565b604051601f8301601f19908116603f01168101908282118183101715620003185762000318620002a8565b81604052838152602092508660208588010111156200033657600080fd5b600091505b838210156200035a57858201830151818301840152908201906200033b565b6000602085830101528094505050505092915050565b6001600160a01b03811681146200038657600080fd5b50565b60008060008060008060c08789031215620003a357600080fd5b86516001600160401b0380821115620003bb57600080fd5b620003c98a838b01620002be565b97506020890151915080821115620003e057600080fd5b50620003ef89828a01620002be565b9550506040870151620004028162000370565b6060880151909450620004158162000370565b6080880151909350620004288162000370565b60a08801519092506200043b8162000370565b809150509295509295509295565b81810381811115620000f657634e487b7160e01b600052601160045260246000fd5b600181811c908216806200048057607f821691505b602082108103620004a157634e487b7160e01b600052602260045260246000fd5b50919050565b601f821115620004f7576000816000526020600020601f850160051c81016020861015620004d25750805b601f850160051c820191505b81811015620004f357828155600101620004de565b5050505b505050565b81516001600160401b03811115620005185762000518620002a8565b62000530816200052984546200046b565b84620004a7565b602080601f8311600181146200056857600084156200054f5750858301515b600019600386901b1c1916600185901b178555620004f3565b600085815260208120601f198616915b82811015620005995788860151825594840194600190910190840162000578565b5085821015620005b85787850151600019600388901b60f8161c191681555b5050505050600190811b01905550565b60805160a051612b646200060360003960006110f30152600081816102680152818161030e01528181611ebe0152611f460152612b646000f3fe608060405234801561001057600080fd5b50600436106101c45760003560e01c80638bb9c5bf116100f9578063b88d4fde11610097578063d547741f11610071578063d547741f14610430578063e985e9c514610443578063f2fde38b14610456578063f5b541a61461046957600080fd5b8063b88d4fde146103e3578063c87b56dd146103f6578063d53913931461040957600080fd5b806395d89b41116100d357806395d89b41146103ad57806395f94bc4146103b5578063a0c76f62146103c8578063a22cb465146103d057600080fd5b80638bb9c5bf1461037f5780638da5cb5b1461039257806391d148541461039a57600080fd5b806342842e0e1161016657806354c7be061161014057806354c7be06146102eb578063572b6c05146102fe5780636352211e1461034b57806370a082311461035e57600080fd5b806342842e0e1461029f57806342966c68146102b25780634bae2be8146102c557600080fd5b8063095ea7b3116101a2578063095ea7b31461023e57806323b872dd146102535780632b4c9f16146102665780632f2ff15d1461028c57600080fd5b806301ffc9a7146101c957806306fdde03146101f1578063081812fc14610206575b600080fd5b6101dc6101d736600461218b565b610490565b60405190151581526020015b60405180910390f35b6101f96104aa565b6040516101e89190612216565b610219610214366004612229565b6104b9565b60405173ffffffffffffffffffffffffffffffffffffffff90911681526020016101e8565b61025161024c366004612264565b6104cd565b005b610251610261366004612290565b6104ee565b7f0000000000000000000000000000000000000000000000000000000000000000610219565b61025161029a3660046122d1565b610522565b6102516102ad366004612290565b61055b565b6102516102c0366004612229565b610589565b6102d86102d3366004612229565b610787565b6040516101e89796959493929190612301565b6102516102f9366004612368565b61090e565b6101dc61030c3660046123c8565b7f000000000000000000000000000000000000000000000000000000000000000073ffffffffffffffffffffffffffffffffffffffff90811691161490565b610219610359366004612229565b610977565b61037161036c3660046123c8565b610985565b6040519081526020016101e8565b61025161038d366004612229565b610999565b6102196109b7565b6101dc6103a83660046122d1565b6109de565b6101f9610a29565b6102516103c33660046123c8565b610a33565b610219610a8d565b6102516103de3660046123f3565b610ab7565b6102516103f1366004612421565b610ad4565b6101f9610404366004612229565b610b0e565b6103717f6d696e746572000000000000000000000000000000000000000000000000000081565b61025161043e3660046122d1565b610b31565b6101dc6104513660046124c0565b610b5f565b6102516104643660046123c8565b610bad565b6103717f6f70657261746f7200000000000000000000000000000000000000000000000081565b60006104a48261049e610bc8565b90610bf6565b92915050565b60606104b4610cd0565b905090565b60006104a4826104c7610ce2565b90610d10565b6104ea6104d8610dc9565b83836104e2610ce2565b929190610dd3565b5050565b60006104f8610dc9565b9050610504818361104e565b61051c81858585610513610ce2565b9392919061118f565b50505050565b600061052c610dc9565b90506105408161053a61146d565b9061149b565b61055683838361054e611506565b929190611534565b505050565b6000610565610dc9565b9050610571818361104e565b61051c81858585610580610ce2565b9392919061160a565b600081815260016020818152604080842090516105ab93919091019101612541565b604080518083037fffffffffffffffffffffffffffffffffffffffffffffffffffffffffffffffe00181529082905280516020909101206000547fa3a2656a000000000000000000000000000000000000000000000000000000008352600483018290526024830185905290925073ffffffffffffffffffffffffffffffffffffffff169063a3a2656a90604401602060405180830381865afa158015610656573d6000803e3d6000fd5b505050506040513d601f19601f8201168201806040525081019061067a91906125d5565b156107555760006106938361068d610ce2565b90611650565b90507fdead0000000000000000000000000000000000000000000000000000000000006106be610ce2565b600085815260209190915260409020556106d6610ce2565b73ffffffffffffffffffffffffffffffffffffffff82166000818152600192909201602052604080832080547fffffffffffffffffffffffffffffffffffffffffffffffffffffffffffffffff01905551859291907fddf252ad1be2c89b69c2b068fc378daa952ba7f163c4a11628f55a4df523b3ef908390a4505050565b6040517feeddf6ab00000000000000000000000000000000000000000000000000000000815260040160405180910390fd5b60016020819052600091825260409091208054918101805461ffff808516946201000081049091169367ffffffffffffffff64010000000083048116946c01000000000000000000000000840482169474010000000000000000000000000000000000000000909404909116926107fd906124ee565b80601f0160208091040260200160405190810160405280929190818152602001828054610829906124ee565b80156108765780601f1061084b57610100808354040283529160200191610876565b820191906000526020600020905b81548152906001019060200180831161085957829003601f168201915b50505050509080600201805461088b906124ee565b80601f01602080910402602001604051908101604052809291908181526020018280546108b7906124ee565b80156109045780601f106108d957610100808354040283529160200191610904565b820191906000526020600020905b8154815290600101906020018083116108e757829003601f168201915b5050505050905087565b6109427f6d696e74657200000000000000000000000000000000000000000000000000003361093b611506565b91906116b9565b610956838361094f610ce2565b919061173f565b60008281526001602052604090208190610970828261281d565b5050505050565b60006104a48261068d610ce2565b60006104a482610993610ce2565b90611859565b6109b46109a4610dc9565b826109ad611506565b91906118d5565b50565b60006104b46109c461146d565b5473ffffffffffffffffffffffffffffffffffffffff1690565b6000610a2283836109ed611506565b60009283526020908152604080842073ffffffffffffffffffffffffffffffffffffffff909316845291905290205460ff1690565b9392505050565b60606104b4611979565b610a46610a3e610dc9565b61053a61146d565b600080547fffffffffffffffffffffffff00000000000000000000000000000000000000001673ffffffffffffffffffffffffffffffffffffffff92909216919091179055565b60006104b4610a9a61198b565b6002015473ffffffffffffffffffffffffffffffffffffffff1690565b6104ea610ac2610dc9565b8383610acc610ce2565b9291906119b9565b6000610ade610dc9565b9050610aea818561104e565b610b06818787878787610afb610ce2565b959493929190611ad1565b505050505050565b6060610b1c8261068d610ce2565b506104a43083610b2a61198b565b9190611b47565b6000610b3b610dc9565b9050610b498161053a61146d565b610556838383610b57611506565b929190611c07565b6000610a228383610b6e610ce2565b919073ffffffffffffffffffffffffffffffffffffffff9182166000908152600393909301602090815260408085209290931684525290205460ff1690565b6109b4610bb8610dc9565b82610bc161146d565b9190611cd1565b6000806104a460017fca9d3e17f264b0f3984e2634e94adb37fa3e6a8103f06aeae6fa59e21c769f5e6129c3565b60007c01000000000000000000000000000000000000000000000000000000007fffffffff00000000000000000000000000000000000000000000000000000000831601610c46575060006104a4565b7ffe003659000000000000000000000000000000000000000000000000000000007fffffffff00000000000000000000000000000000000000000000000000000000831601610c97575060016104a4565b507fffffffff00000000000000000000000000000000000000000000000000000000166000908152602091909152604090205460ff1690565b60606104b4610cdd61198b565b611de5565b6000806104a460017fddf3ee18ae6d688373c219468f8be446e7ae82215f4779d821c7ea5e8c13c0c16129c3565b60008181526020839052604081205473ffffffffffffffffffffffffffffffffffffffff8116610d74576040517fdd560475000000000000000000000000000000000000000000000000000000008152600481018490526024015b60405180910390fd5b74010000000000000000000000000000000000000000811615610dbf575050600081815260028301602052604090205473ffffffffffffffffffffffffffffffffffffffff166104a4565b60009150506104a4565b60006104b4611e7b565b60008181526020859052604090205473ffffffffffffffffffffffffffffffffffffffff8116610e32576040517fdd56047500000000000000000000000000000000000000000000000000000000815260048101839052602401610d6b565b8073ffffffffffffffffffffffffffffffffffffffff80821690851603610e9d576040517fb7fdc01000000000000000000000000000000000000000000000000000000000815273ffffffffffffffffffffffffffffffffffffffff82166004820152602401610d6b565b610ea8868287611fc2565b610f05576040517fc7563a1800000000000000000000000000000000000000000000000000000000815273ffffffffffffffffffffffffffffffffffffffff80871660048301528216602482015260448101849052606401610d6b565b73ffffffffffffffffffffffffffffffffffffffff8416610f6a5774010000000000000000000000000000000000000000821615610f6557600083815260208790526040902073ffffffffffffffffffffffffffffffffffffffff821690555b610feb565b740100000000000000000000000000000000000000008217808314610f9b5760008481526020889052604090208190555b506000838152600287016020526040902080547fffffffffffffffffffffffff00000000000000000000000000000000000000001673ffffffffffffffffffffffffffffffffffffffff86161790555b828473ffffffffffffffffffffffffffffffffffffffff168273ffffffffffffffffffffffffffffffffffffffff167f8c5be1e5ebec7d5bd14f71427d1e84f3dd0314c0f7b2291e5b200ac8c7c3b92560405160405180910390a4505050505050565b6000818152600160208181526040808420905161107093919091019101612541565b604080518083037fffffffffffffffffffffffffffffffffffffffffffffffffffffffffffffffe00181529082905280516020909101207ff9236a390000000000000000000000000000000000000000000000000000000082526004820181905273ffffffffffffffffffffffffffffffffffffffff85811660248401529092507f0000000000000000000000000000000000000000000000000000000000000000169063f9236a3990604401602060405180830381865afa15801561113a573d6000803e3d6000fd5b505050506040513d601f19601f8201168201806040525081019061115e91906125d5565b610556576105567f6f70657261746f720000000000000000000000000000000000000000000000008461093b611506565b73ffffffffffffffffffffffffffffffffffffffff82166111dc576040517f86c8706700000000000000000000000000000000000000000000000000000000815260040160405180910390fd5b60008181526020869052604090205473ffffffffffffffffffffffffffffffffffffffff811661123b576040517fdd56047500000000000000000000000000000000000000000000000000000000815260048101839052602401610d6b565b73ffffffffffffffffffffffffffffffffffffffff84168173ffffffffffffffffffffffffffffffffffffffff16146112bf576040517f14dbb53600000000000000000000000000000000000000000000000000000000815273ffffffffffffffffffffffffffffffffffffffff8516600482015260248101839052604401610d6b565b6112ca868587611fc2565b61137957740100000000000000000000000000000000000000008116158061131b5750600082815260028701602052604090205473ffffffffffffffffffffffffffffffffffffffff868116911614155b15611379576040517fa4a3018b00000000000000000000000000000000000000000000000000000000815273ffffffffffffffffffffffffffffffffffffffff80871660048301528516602482015260448101839052606401610d6b565b600082815260208790526040902073ffffffffffffffffffffffffffffffffffffffff8085169182905585161461140a5773ffffffffffffffffffffffffffffffffffffffff80851660009081526001808901602052604080832080547fffffffffffffffffffffffffffffffffffffffffffffffffffffffffffffffff0190559286168252919020805490910190555b818373ffffffffffffffffffffffffffffffffffffffff168573ffffffffffffffffffffffffffffffffffffffff167fddf252ad1be2c89b69c2b068fc378daa952ba7f163c4a11628f55a4df523b3ef60405160405180910390a4505050505050565b6000806104a460017fc9ed16f33ab3a66c84bfd83099ccb2a8845871e2e1c1928f63797152f0fd54cd6129c3565b815473ffffffffffffffffffffffffffffffffffffffff8281169116146104ea576040517f2ef4875e00000000000000000000000000000000000000000000000000000000815273ffffffffffffffffffffffffffffffffffffffff82166004820152602401610d6b565b6000806104a460017fc8827d3282af6f37b64c3e9e6f3ac9df286ab0bb0fccd6f8661bf19adb368b236129c3565b60008381526020858152604080832073ffffffffffffffffffffffffffffffffffffffff8616845290915290205460ff1661051c5760008381526020858152604080832073ffffffffffffffffffffffffffffffffffffffff8681168086529184529382902080547fffffffffffffffffffffffffffffffffffffffffffffffffffffffffffffff00166001179055815187815292830152918316918101919091527f2f8788117e7eff1d82e926ec794901d17c78024a50270940304540a733656f0d906060015b60405180910390a150505050565b611617858585858561118f565b73ffffffffffffffffffffffffffffffffffffffff82163b15610970576109708484848460405180602001604052806000815250612037565b60008181526020839052604081205473ffffffffffffffffffffffffffffffffffffffff81166116af576040517fdd56047500000000000000000000000000000000000000000000000000000000815260048101849052602401610d6b565b805b949350505050565b60008281526020848152604080832073ffffffffffffffffffffffffffffffffffffffff8516845290915290205460ff16610556576040517f7aa728820000000000000000000000000000000000000000000000000000000081526004810183905273ffffffffffffffffffffffffffffffffffffffff82166024820152604401610d6b565b73ffffffffffffffffffffffffffffffffffffffff821661178c576040517f7851b9cd00000000000000000000000000000000000000000000000000000000815260040160405180910390fd5b60008181526020849052604090205473ffffffffffffffffffffffffffffffffffffffff16156117eb576040517f753eceac00000000000000000000000000000000000000000000000000000000815260048101829052602401610d6b565b60008181526020848152604080832073ffffffffffffffffffffffffffffffffffffffff86169081905580845260018088019093528184208054909301909255518392907fddf252ad1be2c89b69c2b068fc378daa952ba7f163c4a11628f55a4df523b3ef908290a4505050565b600073ffffffffffffffffffffffffffffffffffffffff82166118a8576040517faefbce4e00000000000000000000000000000000000000000000000000000000815260040160405180910390fd5b5073ffffffffffffffffffffffffffffffffffffffff166000908152600191909101602052604090205490565b6118e08382846116b9565b60008181526020848152604080832073ffffffffffffffffffffffffffffffffffffffff86168085529083529281902080547fffffffffffffffffffffffffffffffffffffffffffffffffffffffffffffff0016905580518481529182018390528101919091527ff6391f5c32d9c69d2a47ea670b442974b53935d1edc7fd64eb21e047a839171b9060600160405180910390a1505050565b60606104b461198661198b565b61214c565b6000806104a460017f7ea68fd2dcf1c056b94db6a0a537aa80d26fa9ab1eacd85da1ba0b61b7e7a8a56129c3565b8273ffffffffffffffffffffffffffffffffffffffff168273ffffffffffffffffffffffffffffffffffffffff1603611a36576040517fe4215c6a00000000000000000000000000000000000000000000000000000000815273ffffffffffffffffffffffffffffffffffffffff84166004820152602401610d6b565b73ffffffffffffffffffffffffffffffffffffffff838116600081815260038701602090815260408083209487168084529482529182902080547fffffffffffffffffffffffffffffffffffffffffffffffffffffffffffffff001686151590811790915591519182527f17307eab39ab6107e8899845ad3d59bd9653f200f220920489ca2b5937696c31910160405180910390a350505050565b611ade878787878761118f565b73ffffffffffffffffffffffffffffffffffffffff84163b15611b3e57611b3e8686868686868080601f01602080910402602001604051908101604052809392919081815260200183838082843760009201919091525061203792505050565b50505050505050565b60028301546040517ff724dad700000000000000000000000000000000000000000000000000000000815273ffffffffffffffffffffffffffffffffffffffff848116600483015260248201849052606092169063f724dad790604401600060405180830381865afa158015611bc1573d6000803e3d6000fd5b505050506040513d6000823e601f3d9081017fffffffffffffffffffffffffffffffffffffffffffffffffffffffffffffffe01682016040526116b191908101906129fd565b60008381526020858152604080832073ffffffffffffffffffffffffffffffffffffffff8616845290915290205460ff161561051c5760008381526020858152604080832073ffffffffffffffffffffffffffffffffffffffff8681168086529184529382902080547fffffffffffffffffffffffffffffffffffffffffffffffffffffffffffffff00169055815187815292830152918316918101919091527ff6391f5c32d9c69d2a47ea670b442974b53935d1edc7fd64eb21e047a839171b906060016115fc565b825473ffffffffffffffffffffffffffffffffffffffff9081169083168114611d3e576040517f2ef4875e00000000000000000000000000000000000000000000000000000000815273ffffffffffffffffffffffffffffffffffffffff84166004820152602401610d6b565b8173ffffffffffffffffffffffffffffffffffffffff168173ffffffffffffffffffffffffffffffffffffffff161461051c5783547fffffffffffffffffffffffff00000000000000000000000000000000000000001673ffffffffffffffffffffffffffffffffffffffff8381169182178655604051908316907f8be0079c531659141344cd1fd0a4f28419497f9722a3daafe3b4186f6b6457e090600090a350505050565b6060816000018054611df6906124ee565b80601f0160208091040260200160405190810160405280929190818152602001828054611e22906124ee565b8015611e6f5780601f10611e4457610100808354040283529160200191611e6f565b820191906000526020600020905b815481529060010190602001808311611e5257829003601f168201915b50505050509050919050565b600033321480611e8b5750601836105b15611e9557503390565b7fffffffffffffffffffffffffffffffffffffffffffffffffffffffffffffffec36013560601c7f000000000000000000000000000000000000000000000000000000000000000073ffffffffffffffffffffffffffffffffffffffff16331480611fb157506040517f8929a8ca00000000000000000000000000000000000000000000000000000000815273ffffffffffffffffffffffffffffffffffffffff82811660048301523360248301527f00000000000000000000000000000000000000000000000000000000000000001690638929a8ca90604401602060405180830381865afa158015611f8d573d6000803e3d6000fd5b505050506040513d601f19601f82011682018060405250810190611fb191906125d5565b15611fbb57919050565b3391505090565b60008173ffffffffffffffffffffffffffffffffffffffff168373ffffffffffffffffffffffffffffffffffffffff1614806116b157505073ffffffffffffffffffffffffffffffffffffffff9182166000908152600393909301602090815260408085209290931684525290205460ff1690565b6040517f150b7a02000000000000000000000000000000000000000000000000000000008082529073ffffffffffffffffffffffffffffffffffffffff85169063150b7a0290612091908990899088908890600401612ac8565b6020604051808303816000875af11580156120b0573d6000803e3d6000fd5b505050506040513d601f19601f820116820180604052508101906120d49190612b11565b7fffffffff000000000000000000000000000000000000000000000000000000001614610970576040517fc215a7a100000000000000000000000000000000000000000000000000000000815273ffffffffffffffffffffffffffffffffffffffff8416600482015260248101839052604401610d6b565b6060816001018054611df6906124ee565b7fffffffff00000000000000000000000000000000000000000000000000000000811681146109b457600080fd5b60006020828403121561219d57600080fd5b8135610a228161215d565b60005b838110156121c35781810151838201526020016121ab565b50506000910152565b600081518084526121e48160208601602086016121a8565b601f017fffffffffffffffffffffffffffffffffffffffffffffffffffffffffffffffe0169290920160200192915050565b602081526000610a2260208301846121cc565b60006020828403121561223b57600080fd5b5035919050565b73ffffffffffffffffffffffffffffffffffffffff811681146109b457600080fd5b6000806040838503121561227757600080fd5b823561228281612242565b946020939093013593505050565b6000806000606084860312156122a557600080fd5b83356122b081612242565b925060208401356122c081612242565b929592945050506040919091013590565b600080604083850312156122e457600080fd5b8235915060208301356122f681612242565b809150509250929050565b61ffff88811682528716602082015267ffffffffffffffff868116604083015285811660608301528416608082015260e060a08201819052600090612348908301856121cc565b82810360c084015261235a81856121cc565b9a9950505050505050505050565b60008060006060848603121561237d57600080fd5b833561238881612242565b925060208401359150604084013567ffffffffffffffff8111156123ab57600080fd5b840160e081870312156123bd57600080fd5b809150509250925092565b6000602082840312156123da57600080fd5b8135610a2281612242565b80151581146109b457600080fd5b6000806040838503121561240657600080fd5b823561241181612242565b915060208301356122f6816123e5565b60008060008060006080868803121561243957600080fd5b853561244481612242565b9450602086013561245481612242565b935060408601359250606086013567ffffffffffffffff8082111561247857600080fd5b818801915088601f83011261248c57600080fd5b81358181111561249b57600080fd5b8960208285010111156124ad57600080fd5b9699959850939650602001949392505050565b600080604083850312156124d357600080fd5b82356124de81612242565b915060208301356122f681612242565b600181811c9082168061250257607f821691505b60208210810361253b577f4e487b7100000000000000000000000000000000000000000000000000000000600052602260045260246000fd5b50919050565b600080835461254f816124ee565b60018281168015612567576001811461259a576125c9565b7fffffffffffffffffffffffffffffffffffffffffffffffffffffffffffffff00841687528215158302870194506125c9565b8760005260208060002060005b858110156125c05781548a8201529084019082016125a7565b50505082870194505b50929695505050505050565b6000602082840312156125e757600080fd5b8151610a22816123e5565b6000813561ffff811681146104a457600080fd5b6000813567ffffffffffffffff811681146104a457600080fd5b60008083357fffffffffffffffffffffffffffffffffffffffffffffffffffffffffffffffe184360301811261265557600080fd5b83018035915067ffffffffffffffff82111561267057600080fd5b60200191503681900382131561268557600080fd5b9250929050565b7f4e487b7100000000000000000000000000000000000000000000000000000000600052604160045260246000fd5b601f821115610556576000816000526020600020601f850160051c810160208610156126e45750805b601f850160051c820191505b81811015610b06578281556001016126f0565b67ffffffffffffffff83111561271b5761271b61268c565b61272f8361272983546124ee565b836126bb565b6000601f841160018114612781576000851561274b5750838201355b7fffffffffffffffffffffffffffffffffffffffffffffffffffffffffffffffff600387901b1c1916600186901b178355610970565b6000838152602090207fffffffffffffffffffffffffffffffffffffffffffffffffffffffffffffffe0861690835b828110156127d057868501358255602094850194600190920191016127b0565b508682101561280b577fffffffffffffffffffffffffffffffffffffffffffffffffffffffffffffffff60f88860031b161c19848701351681555b505060018560011b0183555050505050565b61ffff612829836125f2565b168154817fffffffffffffffffffffffffffffffffffffffffffffffffffffffffffff0000821617835563ffff0000612864602086016125f2565b60101b1680837fffffffffffffffffffffffffffffffffffffffffffffffffffffffff000000008416171784556bffffffffffffffff000000006128aa60408701612606565b60201b16837fffffffffffffffffffffffffffffffffffffffff000000000000000000000000841617821717845550505061292f6128ea60608401612606565b82547fffffffffffffffffffffffff0000000000000000ffffffffffffffffffffffff1660609190911b73ffffffffffffffff00000000000000000000000016178255565b61298b61293e60808401612606565b82547fffffffff0000000000000000ffffffffffffffffffffffffffffffffffffffff1660a09190911b7bffffffffffffffff000000000000000000000000000000000000000016178255565b61299860a0830183612620565b6129a6818360018601612703565b50506129b560c0830183612620565b61051c818360028601612703565b818103818111156104a4577f4e487b7100000000000000000000000000000000000000000000000000000000600052601160045260246000fd5b600060208284031215612a0f57600080fd5b815167ffffffffffffffff80821115612a2757600080fd5b818401915084601f830112612a3b57600080fd5b815181811115612a4d57612a4d61268c565b604051601f82017fffffffffffffffffffffffffffffffffffffffffffffffffffffffffffffffe0908116603f01168101908382118183101715612a9357612a9361268c565b81604052828152876020848701011115612aac57600080fd5b612abd8360208301602088016121a8565b979650505050505050565b600073ffffffffffffffffffffffffffffffffffffffff808716835280861660208401525083604083015260806060830152612b0760808301846121cc565b9695505050505050565b600060208284031215612b2357600080fd5b8151610a228161215d56fea2646970667358221220e05b2d7b739fc8cbf6adaa42e55a925366f3cb5cdc10879dbf6cda94d653163d64736f6c63430008160033",
  "linkReferences": {},
  "deployedLinkReferences": {}
}