{
  "_format": "hh-sol-artifact-1",
  "contractName": "OpenCampusCertificateNFTv1",
  "sourceName": "contracts/vc/OpenCampusCertificateNFTv1.sol",
  "abi": [
    {
      "inputs": [
        {
          "internalType": "string",
          "name": "tokenName",
          "type": "string"
        },
        {
          "internalType": "string",
          "name": "tokenSymbol",
          "type": "string"
        },
        {
          "internalType": "contract ITokenMetadataResolver",
          "name": "metadataResolver",
          "type": "address"
        }
      ],
      "stateMutability": "nonpayable",
      "type": "constructor"
    },
    {
      "inputs": [],
      "name": "ERC721BalanceOfAddressZero",
      "type": "error"
    },
    {
      "inputs": [
        {
          "internalType": "uint256",
          "name": "tokenId",
          "type": "uint256"
        }
      ],
      "name": "ERC721ExistingToken",
      "type": "error"
    },
    {
      "inputs": [],
      "name": "ERC721MintToAddressZero",
      "type": "error"
    },
    {
      "inputs": [
        {
          "internalType": "uint256",
          "name": "tokenId",
          "type": "uint256"
        }
      ],
      "name": "ERC721NonExistingToken",
      "type": "error"
    },
    {
      "inputs": [],
      "name": "IllegalInterfaceId",
      "type": "error"
    },
    {
      "inputs": [],
      "name": "InvalidBurn",
      "type": "error"
    },
    {
      "inputs": [],
      "name": "NoOperatorAllowed",
      "type": "error"
    },
    {
      "inputs": [
        {
          "internalType": "address",
          "name": "account",
          "type": "address"
        }
      ],
      "name": "NotContractOwner",
      "type": "error"
    },
    {
      "inputs": [
        {
          "internalType": "bytes32",
          "name": "role",
          "type": "bytes32"
        },
        {
          "internalType": "address",
          "name": "account",
          "type": "address"
        }
      ],
      "name": "NotRoleHolder",
      "type": "error"
    },
    {
      "inputs": [],
      "name": "RevocationRegistryNotSet",
      "type": "error"
    },
    {
      "inputs": [],
      "name": "TransferNotAllowed",
      "type": "error"
    },
    {
      "anonymous": false,
      "inputs": [
        {
          "indexed": true,
          "internalType": "address",
          "name": "previousOwner",
          "type": "address"
        },
        {
          "indexed": true,
          "internalType": "address",
          "name": "newOwner",
          "type": "address"
        }
      ],
      "name": "OwnershipTransferred",
      "type": "event"
    },
    {
      "anonymous": false,
      "inputs": [
        {
          "indexed": false,
          "internalType": "bytes32",
          "name": "role",
          "type": "bytes32"
        },
        {
          "indexed": false,
          "internalType": "address",
          "name": "account",
          "type": "address"
        },
        {
          "indexed": false,
          "internalType": "address",
          "name": "operator",
          "type": "address"
        }
      ],
      "name": "RoleGranted",
      "type": "event"
    },
    {
      "anonymous": false,
      "inputs": [
        {
          "indexed": false,
          "internalType": "bytes32",
          "name": "role",
          "type": "bytes32"
        },
        {
          "indexed": false,
          "internalType": "address",
          "name": "account",
          "type": "address"
        },
        {
          "indexed": false,
          "internalType": "address",
          "name": "operator",
          "type": "address"
        }
      ],
      "name": "RoleRevoked",
      "type": "event"
    },
    {
      "anonymous": false,
      "inputs": [
        {
          "indexed": true,
          "internalType": "address",
          "name": "from",
          "type": "address"
        },
        {
          "indexed": true,
          "internalType": "address",
          "name": "to",
          "type": "address"
        },
        {
          "indexed": true,
          "internalType": "uint256",
          "name": "tokenId",
          "type": "uint256"
        }
      ],
      "name": "Transfer",
      "type": "event"
    },
    {
      "inputs": [],
      "name": "MINTER_ROLE",
      "outputs": [
        {
          "internalType": "bytes32",
          "name": "",
          "type": "bytes32"
        }
      ],
      "stateMutability": "view",
      "type": "function"
    },
    {
      "inputs": [
        {
          "internalType": "address",
          "name": "to",
          "type": "address"
        },
        {
          "internalType": "uint256",
          "name": "tokenId",
          "type": "uint256"
        }
      ],
      "name": "approve",
      "outputs": [],
      "stateMutability": "nonpayable",
      "type": "function"
    },
    {
      "inputs": [
        {
          "internalType": "address",
          "name": "owner",
          "type": "address"
        }
      ],
      "name": "balanceOf",
      "outputs": [
        {
          "internalType": "uint256",
          "name": "balance",
          "type": "uint256"
        }
      ],
      "stateMutability": "view",
      "type": "function"
    },
    {
      "inputs": [
        {
          "internalType": "uint256",
          "name": "tokenId",
          "type": "uint256"
        }
      ],
      "name": "burn",
      "outputs": [],
      "stateMutability": "nonpayable",
      "type": "function"
    },
    {
      "inputs": [
        {
          "internalType": "uint256",
          "name": "tokenId",
          "type": "uint256"
        }
      ],
      "name": "getApproved",
      "outputs": [
        {
          "internalType": "address",
          "name": "approved",
          "type": "address"
        }
      ],
      "stateMutability": "view",
      "type": "function"
    },
    {
      "inputs": [
        {
          "internalType": "bytes32",
          "name": "role",
          "type": "bytes32"
        },
        {
          "internalType": "address",
          "name": "account",
          "type": "address"
        }
      ],
      "name": "grantRole",
      "outputs": [],
      "stateMutability": "nonpayable",
      "type": "function"
    },
    {
      "inputs": [
        {
          "internalType": "bytes32",
          "name": "role",
          "type": "bytes32"
        },
        {
          "internalType": "address",
          "name": "account",
          "type": "address"
        }
      ],
      "name": "hasRole",
      "outputs": [
        {
          "internalType": "bool",
          "name": "hasRole_",
          "type": "bool"
        }
      ],
      "stateMutability": "view",
      "type": "function"
    },
    {
      "inputs": [
        {
          "internalType": "address",
          "name": "owner",
          "type": "address"
        },
        {
          "internalType": "address",
          "name": "operator",
          "type": "address"
        }
      ],
      "name": "isApprovedForAll",
      "outputs": [
        {
          "internalType": "bool",
          "name": "approvedForAll",
          "type": "bool"
        }
      ],
      "stateMutability": "view",
      "type": "function"
    },
    {
      "inputs": [],
      "name": "metadataResolver",
      "outputs": [
        {
          "internalType": "contract ITokenMetadataResolver",
          "name": "tokenMetadataResolver",
          "type": "address"
        }
      ],
      "stateMutability": "view",
      "type": "function"
    },
    {
      "inputs": [
        {
          "internalType": "address",
          "name": "to",
          "type": "address"
        },
        {
          "internalType": "uint256",
          "name": "tokenId",
          "type": "uint256"
        },
        {
          "components": [
            {
              "internalType": "uint16",
              "name": "schemaVersion",
              "type": "uint16"
            },
            {
              "internalType": "uint16",
              "name": "achievementType",
              "type": "uint16"
            },
            {
              "internalType": "uint64",
              "name": "awardedDate",
              "type": "uint64"
            },
            {
              "internalType": "uint64",
              "name": "validFrom",
              "type": "uint64"
            },
            {
              "internalType": "uint64",
              "name": "validUtil",
              "type": "uint64"
            },
            {
              "internalType": "string",
              "name": "issuerDid",
              "type": "string"
            },
            {
              "internalType": "string",
              "name": "achievementId",
              "type": "string"
            }
          ],
          "internalType": "struct CertificateNFTv1MetaData.MetaData",
          "name": "metadata",
          "type": "tuple"
        }
      ],
      "name": "mint",
      "outputs": [],
      "stateMutability": "nonpayable",
      "type": "function"
    },
    {
      "inputs": [],
      "name": "name",
      "outputs": [
        {
          "internalType": "string",
          "name": "tokenName",
          "type": "string"
        }
      ],
      "stateMutability": "view",
      "type": "function"
    },
    {
      "inputs": [],
      "name": "owner",
      "outputs": [
        {
          "internalType": "address",
          "name": "",
          "type": "address"
        }
      ],
      "stateMutability": "view",
      "type": "function"
    },
    {
      "inputs": [
        {
          "internalType": "uint256",
          "name": "tokenId",
          "type": "uint256"
        }
      ],
      "name": "ownerOf",
      "outputs": [
        {
          "internalType": "address",
          "name": "tokenOwner",
          "type": "address"
        }
      ],
      "stateMutability": "view",
      "type": "function"
    },
    {
      "inputs": [
        {
          "internalType": "bytes32",
          "name": "role",
          "type": "bytes32"
        }
      ],
      "name": "renounceRole",
      "outputs": [],
      "stateMutability": "nonpayable",
      "type": "function"
    },
    {
      "inputs": [
        {
          "internalType": "bytes32",
          "name": "role",
          "type": "bytes32"
        },
        {
          "internalType": "address",
          "name": "account",
          "type": "address"
        }
      ],
      "name": "revokeRole",
      "outputs": [],
      "stateMutability": "nonpayable",
      "type": "function"
    },
    {
      "inputs": [
        {
          "internalType": "address",
          "name": "from",
          "type": "address"
        },
        {
          "internalType": "address",
          "name": "to",
          "type": "address"
        },
        {
          "internalType": "uint256",
          "name": "tokenId",
          "type": "uint256"
        }
      ],
      "name": "safeTransferFrom",
      "outputs": [],
      "stateMutability": "nonpayable",
      "type": "function"
    },
    {
      "inputs": [
        {
          "internalType": "address",
          "name": "from",
          "type": "address"
        },
        {
          "internalType": "address",
          "name": "to",
          "type": "address"
        },
        {
          "internalType": "uint256",
          "name": "tokenId",
          "type": "uint256"
        },
        {
          "internalType": "bytes",
          "name": "data",
          "type": "bytes"
        }
      ],
      "name": "safeTransferFrom",
      "outputs": [],
      "stateMutability": "nonpayable",
      "type": "function"
    },
    {
      "inputs": [
        {
          "internalType": "address",
          "name": "operator",
          "type": "address"
        },
        {
          "internalType": "bool",
          "name": "approved",
          "type": "bool"
        }
      ],
      "name": "setApprovalForAll",
      "outputs": [],
      "stateMutability": "nonpayable",
      "type": "function"
    },
    {
      "inputs": [
        {
          "internalType": "contract IRevocationRegistry",
          "name": "registry",
          "type": "address"
        }
      ],
      "name": "setRevocationRegistry",
      "outputs": [],
      "stateMutability": "nonpayable",
      "type": "function"
    },
    {
      "inputs": [
        {
          "internalType": "bytes4",
          "name": "interfaceId",
          "type": "bytes4"
        }
      ],
      "name": "supportsInterface",
      "outputs": [
        {
          "internalType": "bool",
          "name": "",
          "type": "bool"
        }
      ],
      "stateMutability": "view",
      "type": "function"
    },
    {
      "inputs": [],
      "name": "symbol",
      "outputs": [
        {
          "internalType": "string",
          "name": "tokenSymbol",
          "type": "string"
        }
      ],
      "stateMutability": "view",
      "type": "function"
    },
    {
      "inputs": [
        {
          "internalType": "uint256",
          "name": "tokenId",
          "type": "uint256"
        }
      ],
      "name": "tokenURI",
      "outputs": [
        {
          "internalType": "string",
          "name": "uri",
          "type": "string"
        }
      ],
      "stateMutability": "view",
      "type": "function"
    },
    {
      "inputs": [
        {
          "internalType": "address",
          "name": "from",
          "type": "address"
        },
        {
          "internalType": "address",
          "name": "to",
          "type": "address"
        },
        {
          "internalType": "uint256",
          "name": "tokenId",
          "type": "uint256"
        }
      ],
      "name": "transferFrom",
      "outputs": [],
      "stateMutability": "nonpayable",
      "type": "function"
    },
    {
      "inputs": [
        {
          "internalType": "address",
          "name": "newOwner",
          "type": "address"
        }
      ],
      "name": "transferOwnership",
      "outputs": [],
      "stateMutability": "nonpayable",
      "type": "function"
    },
    {
      "inputs": [
        {
          "internalType": "uint256",
          "name": "",
          "type": "uint256"
        }
      ],
      "name": "vcData",
      "outputs": [
        {
          "internalType": "uint16",
          "name": "schemaVersion",
          "type": "uint16"
        },
        {
          "internalType": "uint16",
          "name": "achievementType",
          "type": "uint16"
        },
        {
          "internalType": "uint64",
          "name": "awardedDate",
          "type": "uint64"
        },
        {
          "internalType": "uint64",
          "name": "validFrom",
          "type": "uint64"
        },
        {
          "internalType": "uint64",
          "name": "validUtil",
          "type": "uint64"
        },
        {
          "internalType": "string",
          "name": "issuerDid",
          "type": "string"
        },
        {
          "internalType": "string",
          "name": "achievementId",
          "type": "string"
        }
      ],
      "stateMutability": "view",
      "type": "function"
    }
  ],
  "bytecode": "0x60806040523480156200001157600080fd5b50604051620022fd380380620022fd833981016040819052620000349162000339565b3383838362000052838383620000496200008f565b929190620000c5565b6200005c6200010c565b5050506200007b81620000746200012e60201b60201c565b906200015e565b5062000086620001d1565b50505062000545565b600080620000bf60017f7ea68fd2dcf1c056b94db6a0a537aa80d26fa9ab1eacd85da1ba0b61b7e7a8a5620003c6565b92915050565b83620000d2848262000479565b5060018401620000e3838262000479565b5060029390930180546001600160a01b0319166001600160a01b03909416939093179092555050565b6200012c635b5e139f60e01b600162000124620001e4565b919062000214565b565b600080620000bf60017fc9ed16f33ab3a66c84bfd83099ccb2a8845871e2e1c1928f63797152f0fd54cd620003c6565b6001600160a01b03811615620001b55781546001600160a01b0319166001600160a01b03821690811783556040516000907f8be0079c531659141344cd1fd0a4f28419497f9722a3daafe3b4186f6b6457e0908290a35b620001cd6307f5828d60e41b600162000124620001e4565b5050565b6200012c638e773e1360e01b6001620001245b600080620000bf60017fca9d3e17f264b0f3984e2634e94adb37fa3e6a8103f06aeae6fa59e21c769f5e620003c6565b600160e01b6001600160e01b031983160162000243576040516372c683bb60e01b815260040160405180910390fd5b6001600160e01b03199190911660009081526020929092526040909120805460ff1916911515919091179055565b634e487b7160e01b600052604160045260246000fd5b600082601f8301126200029957600080fd5b81516001600160401b0380821115620002b657620002b662000271565b604051601f8301601f19908116603f01168101908282118183101715620002e157620002e162000271565b8160405283815260209250866020858801011115620002ff57600080fd5b600091505b8382101562000323578582018301518183018401529082019062000304565b6000602085830101528094505050505092915050565b6000806000606084860312156200034f57600080fd5b83516001600160401b03808211156200036757600080fd5b620003758783880162000287565b945060208601519150808211156200038c57600080fd5b506200039b8682870162000287565b604086015190935090506001600160a01b0381168114620003bb57600080fd5b809150509250925092565b81810381811115620000bf57634e487b7160e01b600052601160045260246000fd5b600181811c90821680620003fd57607f821691505b6020821081036200041e57634e487b7160e01b600052602260045260246000fd5b50919050565b601f82111562000474576000816000526020600020601f850160051c810160208610156200044f5750805b601f850160051c820191505b8181101562000470578281556001016200045b565b5050505b505050565b81516001600160401b0381111562000495576200049562000271565b620004ad81620004a68454620003e8565b8462000424565b602080601f831160018114620004e55760008415620004cc5750858301515b600019600386901b1c1916600185901b17855562000470565b600085815260208120601f198616915b828110156200051657888601518255948401946001909101908401620004f5565b5085821015620005355787850151600019600388901b60f8161c191681555b5050505050600190811b01905550565b611da880620005556000396000f3fe608060405234801561001057600080fd5b50600436106101a35760003560e01c80638bb9c5bf116100ee578063a22cb46511610097578063d539139311610071578063d539139314610358578063d547741f1461037f578063e985e9c514610392578063f2fde38b146103a057600080fd5b8063a22cb46514610324578063b88d4fde14610337578063c87b56dd1461034557600080fd5b806395d89b41116100c857806395d89b411461030157806395f94bc414610309578063a0c76f621461031c57600080fd5b80638bb9c5bf146102d35780638da5cb5b146102e657806391d14854146102ee57600080fd5b806342842e0e1161015057806354c7be061161012a57806354c7be061461028c5780636352211e1461029f57806370a08231146102b257600080fd5b806342842e0e1461023257806342966c68146102535780634bae2be81461026657600080fd5b8063095ea7b311610181578063095ea7b31461021d57806323b872dd146102325780632f2ff15d1461024057600080fd5b806301ffc9a7146101a857806306fdde03146101d0578063081812fc146101e5575b600080fd5b6101bb6101b6366004611408565b6103b3565b60405190151581526020015b60405180910390f35b6101d86103cd565b6040516101c791906114b8565b6101f86101f33660046114cb565b6103dc565b60405173ffffffffffffffffffffffffffffffffffffffff90911681526020016101c7565b61023061022b366004611506565b610410565b005b61023061022b366004611532565b61023061024e366004611573565b610442565b6102306102613660046114cb565b610470565b6102796102743660046114cb565b6106c1565b6040516101c797969594939291906115a3565b61023061029a36600461160a565b610848565b6101f86102ad3660046114cb565b6108b1565b6102c56102c036600461166a565b6108bf565b6040519081526020016101c7565b6102306102e13660046114cb565b6108d3565b6101f86108ea565b6101bb6102fc366004611573565b610911565b6101d861095c565b61023061031736600461166a565b610966565b6101f86109b9565b610230610332366004611695565b6109e3565b61023061022b3660046116c3565b6101d86103533660046114cb565b610a15565b6102c57f6d696e746572000000000000000000000000000000000000000000000000000081565b61023061038d366004611573565b610a38565b6101bb6101f3366004611762565b6102306103ae36600461166a565b610a5b565b60006103c7826103c1610a6f565b90610a9d565b92915050565b60606103d7610b77565b905090565b60006040517f5211920d00000000000000000000000000000000000000000000000000000000815260040160405180910390fd5b6040517f8cd22d1900000000000000000000000000000000000000000000000000000000815260040160405180910390fd5b336104558161044f610b89565b90610bb7565b61046b838383610463610c27565b929190610c55565b505050565b60005473ffffffffffffffffffffffffffffffffffffffff166104bf576040517fa064335c00000000000000000000000000000000000000000000000000000000815260040160405180910390fd5b600081815260016020818152604080842090516104e1939190910191016117e3565b604080518083037fffffffffffffffffffffffffffffffffffffffffffffffffffffffffffffffe00181529082905280516020909101206000547fa3a2656a000000000000000000000000000000000000000000000000000000008352600483018290526024830185905290925073ffffffffffffffffffffffffffffffffffffffff169063a3a2656a90604401602060405180830381865afa15801561058c573d6000803e3d6000fd5b505050506040513d601f19601f820116820180604052508101906105b09190611877565b1561068b5760006105c9836105c3610d2c565b90610d5a565b90507fdead0000000000000000000000000000000000000000000000000000000000006105f4610d2c565b6000858152602091909152604090205561060c610d2c565b73ffffffffffffffffffffffffffffffffffffffff82166000818152600192909201602052604080832080547fffffffffffffffffffffffffffffffffffffffffffffffffffffffffffffffff01905551859291907fddf252ad1be2c89b69c2b068fc378daa952ba7f163c4a11628f55a4df523b3ef908390a4505050565b6040517feeddf6ab00000000000000000000000000000000000000000000000000000000815260040160405180910390fd5b5050565b60016020819052600091825260409091208054918101805461ffff808516946201000081049091169367ffffffffffffffff64010000000083048116946c010000000000000000000000008404821694740100000000000000000000000000000000000000009094049091169261073790611790565b80601f016020809104026020016040519081016040528092919081815260200182805461076390611790565b80156107b05780601f10610785576101008083540402835291602001916107b0565b820191906000526020600020905b81548152906001019060200180831161079357829003601f168201915b5050505050908060020180546107c590611790565b80601f01602080910402602001604051908101604052809291908181526020018280546107f190611790565b801561083e5780601f106108135761010080835404028352916020019161083e565b820191906000526020600020905b81548152906001019060200180831161082157829003601f168201915b5050505050905087565b61087c7f6d696e746572000000000000000000000000000000000000000000000000000033610875610c27565b9190610dc3565b6108908383610889610d2c565b9190610e49565b600082815260016020526040902081906108aa8282611ac7565b5050505050565b60006103c7826105c3610d2c565b60006103c7826108cd610d2c565b90610f63565b6108e733826108e0610c27565b9190610fdf565b50565b60006103d76108f7610b89565b5473ffffffffffffffffffffffffffffffffffffffff1690565b60006109558383610920610c27565b60009283526020908152604080842073ffffffffffffffffffffffffffffffffffffffff909316845291905290205460ff1690565b9392505050565b60606103d7611083565b6109723361044f610b89565b600080547fffffffffffffffffffffffff00000000000000000000000000000000000000001673ffffffffffffffffffffffffffffffffffffffff92909216919091179055565b60006103d76109c6611095565b6002015473ffffffffffffffffffffffffffffffffffffffff1690565b6040517f5211920d00000000000000000000000000000000000000000000000000000000815260040160405180910390fd5b6060610a23826105c3610d2c565b506103c73083610a31611095565b91906110c3565b33610a458161044f610b89565b61046b838383610a53610c27565b929190611183565b6108e73382610a68610b89565b919061124d565b6000806103c760017fca9d3e17f264b0f3984e2634e94adb37fa3e6a8103f06aeae6fa59e21c769f5e611c6d565b60007c01000000000000000000000000000000000000000000000000000000007fffffffff00000000000000000000000000000000000000000000000000000000831601610aed575060006103c7565b7ffe003659000000000000000000000000000000000000000000000000000000007fffffffff00000000000000000000000000000000000000000000000000000000831601610b3e575060016103c7565b507fffffffff00000000000000000000000000000000000000000000000000000000166000908152602091909152604090205460ff1690565b60606103d7610b84611095565b611361565b6000806103c760017fc9ed16f33ab3a66c84bfd83099ccb2a8845871e2e1c1928f63797152f0fd54cd611c6d565b815473ffffffffffffffffffffffffffffffffffffffff8281169116146106bd576040517f2ef4875e00000000000000000000000000000000000000000000000000000000815273ffffffffffffffffffffffffffffffffffffffff821660048201526024015b60405180910390fd5b6000806103c760017fc8827d3282af6f37b64c3e9e6f3ac9df286ab0bb0fccd6f8661bf19adb368b23611c6d565b60008381526020858152604080832073ffffffffffffffffffffffffffffffffffffffff8616845290915290205460ff16610d265760008381526020858152604080832073ffffffffffffffffffffffffffffffffffffffff8681168086529184529382902080547fffffffffffffffffffffffffffffffffffffffffffffffffffffffffffffff00166001179055815187815292830152918316918101919091527f2f8788117e7eff1d82e926ec794901d17c78024a50270940304540a733656f0d906060015b60405180910390a15b50505050565b6000806103c760017fddf3ee18ae6d688373c219468f8be446e7ae82215f4779d821c7ea5e8c13c0c1611c6d565b60008181526020839052604081205473ffffffffffffffffffffffffffffffffffffffff8116610db9576040517fdd56047500000000000000000000000000000000000000000000000000000000815260048101849052602401610c1e565b805b949350505050565b60008281526020848152604080832073ffffffffffffffffffffffffffffffffffffffff8516845290915290205460ff1661046b576040517f7aa728820000000000000000000000000000000000000000000000000000000081526004810183905273ffffffffffffffffffffffffffffffffffffffff82166024820152604401610c1e565b73ffffffffffffffffffffffffffffffffffffffff8216610e96576040517f7851b9cd00000000000000000000000000000000000000000000000000000000815260040160405180910390fd5b60008181526020849052604090205473ffffffffffffffffffffffffffffffffffffffff1615610ef5576040517f753eceac00000000000000000000000000000000000000000000000000000000815260048101829052602401610c1e565b60008181526020848152604080832073ffffffffffffffffffffffffffffffffffffffff86169081905580845260018088019093528184208054909301909255518392907fddf252ad1be2c89b69c2b068fc378daa952ba7f163c4a11628f55a4df523b3ef908290a4505050565b600073ffffffffffffffffffffffffffffffffffffffff8216610fb2576040517faefbce4e00000000000000000000000000000000000000000000000000000000815260040160405180910390fd5b5073ffffffffffffffffffffffffffffffffffffffff166000908152600191909101602052604090205490565b610fea838284610dc3565b60008181526020848152604080832073ffffffffffffffffffffffffffffffffffffffff86168085529083529281902080547fffffffffffffffffffffffffffffffffffffffffffffffffffffffffffffff0016905580518481529182018390528101919091527ff6391f5c32d9c69d2a47ea670b442974b53935d1edc7fd64eb21e047a839171b9060600160405180910390a1505050565b60606103d7611090611095565b6113f7565b6000806103c760017f7ea68fd2dcf1c056b94db6a0a537aa80d26fa9ab1eacd85da1ba0b61b7e7a8a5611c6d565b60028301546040517ff724dad700000000000000000000000000000000000000000000000000000000815273ffffffffffffffffffffffffffffffffffffffff848116600483015260248201849052606092169063f724dad790604401600060405180830381865afa15801561113d573d6000803e3d6000fd5b505050506040513d6000823e601f3d9081017fffffffffffffffffffffffffffffffffffffffffffffffffffffffffffffffe0168201604052610dbb9190810190611ca7565b60008381526020858152604080832073ffffffffffffffffffffffffffffffffffffffff8616845290915290205460ff1615610d265760008381526020858152604080832073ffffffffffffffffffffffffffffffffffffffff8681168086529184529382902080547fffffffffffffffffffffffffffffffffffffffffffffffffffffffffffffff00169055815187815292830152918316918101919091527ff6391f5c32d9c69d2a47ea670b442974b53935d1edc7fd64eb21e047a839171b90606001610d1d565b825473ffffffffffffffffffffffffffffffffffffffff90811690831681146112ba576040517f2ef4875e00000000000000000000000000000000000000000000000000000000815273ffffffffffffffffffffffffffffffffffffffff84166004820152602401610c1e565b8173ffffffffffffffffffffffffffffffffffffffff168173ffffffffffffffffffffffffffffffffffffffff1614610d265783547fffffffffffffffffffffffff00000000000000000000000000000000000000001673ffffffffffffffffffffffffffffffffffffffff8381169182178655604051908316907f8be0079c531659141344cd1fd0a4f28419497f9722a3daafe3b4186f6b6457e090600090a350505050565b606081600001805461137290611790565b80601f016020809104026020016040519081016040528092919081815260200182805461139e90611790565b80156113eb5780601f106113c0576101008083540402835291602001916113eb565b820191906000526020600020905b8154815290600101906020018083116113ce57829003601f168201915b50505050509050919050565b606081600101805461137290611790565b60006020828403121561141a57600080fd5b81357fffffffff000000000000000000000000000000000000000000000000000000008116811461095557600080fd5b60005b8381101561146557818101518382015260200161144d565b50506000910152565b6000815180845261148681602086016020860161144a565b601f017fffffffffffffffffffffffffffffffffffffffffffffffffffffffffffffffe0169290920160200192915050565b602081526000610955602083018461146e565b6000602082840312156114dd57600080fd5b5035919050565b73ffffffffffffffffffffffffffffffffffffffff811681146108e757600080fd5b6000806040838503121561151957600080fd5b8235611524816114e4565b946020939093013593505050565b60008060006060848603121561154757600080fd5b8335611552816114e4565b92506020840135611562816114e4565b929592945050506040919091013590565b6000806040838503121561158657600080fd5b823591506020830135611598816114e4565b809150509250929050565b61ffff88811682528716602082015267ffffffffffffffff868116604083015285811660608301528416608082015260e060a082018190526000906115ea9083018561146e565b82810360c08401526115fc818561146e565b9a9950505050505050505050565b60008060006060848603121561161f57600080fd5b833561162a816114e4565b925060208401359150604084013567ffffffffffffffff81111561164d57600080fd5b840160e0818703121561165f57600080fd5b809150509250925092565b60006020828403121561167c57600080fd5b8135610955816114e4565b80151581146108e757600080fd5b600080604083850312156116a857600080fd5b82356116b3816114e4565b9150602083013561159881611687565b6000806000806000608086880312156116db57600080fd5b85356116e6816114e4565b945060208601356116f6816114e4565b935060408601359250606086013567ffffffffffffffff8082111561171a57600080fd5b818801915088601f83011261172e57600080fd5b81358181111561173d57600080fd5b89602082850101111561174f57600080fd5b9699959850939650602001949392505050565b6000806040838503121561177557600080fd5b8235611780816114e4565b91506020830135611598816114e4565b600181811c908216806117a457607f821691505b6020821081036117dd577f4e487b7100000000000000000000000000000000000000000000000000000000600052602260045260246000fd5b50919050565b60008083546117f181611790565b60018281168015611809576001811461183c5761186b565b7fffffffffffffffffffffffffffffffffffffffffffffffffffffffffffffff008416875282151583028701945061186b565b8760005260208060002060005b858110156118625781548a820152908401908201611849565b50505082870194505b50929695505050505050565b60006020828403121561188957600080fd5b815161095581611687565b6000813561ffff811681146103c757600080fd5b6000813567ffffffffffffffff811681146103c757600080fd5b60008083357fffffffffffffffffffffffffffffffffffffffffffffffffffffffffffffffe18436030181126118f757600080fd5b83018035915067ffffffffffffffff82111561191257600080fd5b60200191503681900382131561192757600080fd5b9250929050565b7f4e487b7100000000000000000000000000000000000000000000000000000000600052604160045260246000fd5b601f82111561046b576000816000526020600020601f850160051c810160208610156119865750805b601f850160051c820191505b818110156119a557828155600101611992565b505050505050565b67ffffffffffffffff8311156119c5576119c561192e565b6119d9836119d38354611790565b8361195d565b6000601f841160018114611a2b57600085156119f55750838201355b7fffffffffffffffffffffffffffffffffffffffffffffffffffffffffffffffff600387901b1c1916600186901b1783556108aa565b6000838152602090207fffffffffffffffffffffffffffffffffffffffffffffffffffffffffffffffe0861690835b82811015611a7a5786850135825560209485019460019092019101611a5a565b5086821015611ab5577fffffffffffffffffffffffffffffffffffffffffffffffffffffffffffffffff60f88860031b161c19848701351681555b505060018560011b0183555050505050565b61ffff611ad383611894565b168154817fffffffffffffffffffffffffffffffffffffffffffffffffffffffffffff0000821617835563ffff0000611b0e60208601611894565b60101b1680837fffffffffffffffffffffffffffffffffffffffffffffffffffffffff000000008416171784556bffffffffffffffff00000000611b54604087016118a8565b60201b16837fffffffffffffffffffffffffffffffffffffffff0000000000000000000000008416178217178455505050611bd9611b94606084016118a8565b82547fffffffffffffffffffffffff0000000000000000ffffffffffffffffffffffff1660609190911b73ffffffffffffffff00000000000000000000000016178255565b611c35611be8608084016118a8565b82547fffffffff0000000000000000ffffffffffffffffffffffffffffffffffffffff1660a09190911b7bffffffffffffffff000000000000000000000000000000000000000016178255565b611c4260a08301836118c2565b611c508183600186016119ad565b5050611c5f60c08301836118c2565b610d268183600286016119ad565b818103818111156103c7577f4e487b7100000000000000000000000000000000000000000000000000000000600052601160045260246000fd5b600060208284031215611cb957600080fd5b815167ffffffffffffffff80821115611cd157600080fd5b818401915084601f830112611ce557600080fd5b815181811115611cf757611cf761192e565b604051601f82017fffffffffffffffffffffffffffffffffffffffffffffffffffffffffffffffe0908116603f01168101908382118183101715611d3d57611d3d61192e565b81604052828152876020848701011115611d5657600080fd5b611d6783602083016020880161144a565b97965050505050505056fea26469706673582212205bc97c30d4bc398f46592441ce52659f21f5553008b2dea26cf0bf814123481864736f6c63430008160033",
  "linkReferences": {},
  "deployedLinkReferences": {}
}