{
  "_format": "hh-sol-artifact-1",
  "contractName": "OpenCampusCertificateNFTv1",
  "sourceName": "contracts/vc/OpenCampusCertificateNFTv1.sol",
  "abi": [
    {
      "inputs": [
        {
          "internalType": "string",
          "name": "tokenName",
          "type": "string"
        },
        {
          "internalType": "string",
          "name": "tokenSymbol",
          "type": "string"
        },
        {
          "internalType": "contract ITokenMetadataResolver",
          "name": "metadataResolver",
          "type": "address"
        },
        {
          "internalType": "contract IRevocationRegistry",
          "name": "revocationRegistry",
          "type": "address"
        },
        {
          "internalType": "contract IIssuersDIDRegistry",
          "name": "didRegistry",
          "type": "address"
        }
      ],
      "stateMutability": "nonpayable",
      "type": "constructor"
    },
    {
      "inputs": [],
      "name": "ERC721BalanceOfAddressZero",
      "type": "error"
    },
    {
      "inputs": [
        {
          "internalType": "uint256",
          "name": "tokenId",
          "type": "uint256"
        }
      ],
      "name": "ERC721ExistingToken",
      "type": "error"
    },
    {
      "inputs": [],
      "name": "ERC721MintToAddressZero",
      "type": "error"
    },
    {
      "inputs": [
        {
          "internalType": "address",
          "name": "sender",
          "type": "address"
        },
        {
          "internalType": "address",
          "name": "owner",
          "type": "address"
        },
        {
          "internalType": "uint256",
          "name": "tokenId",
          "type": "uint256"
        }
      ],
      "name": "ERC721NonApprovedForTransfer",
      "type": "error"
    },
    {
      "inputs": [
        {
          "internalType": "uint256",
          "name": "tokenId",
          "type": "uint256"
        }
      ],
      "name": "ERC721NonExistingToken",
      "type": "error"
    },
    {
      "inputs": [
        {
          "internalType": "address",
          "name": "account",
          "type": "address"
        },
        {
          "internalType": "uint256",
          "name": "tokenId",
          "type": "uint256"
        }
      ],
      "name": "ERC721NonOwnedToken",
      "type": "error"
    },
    {
      "inputs": [
        {
          "internalType": "address",
          "name": "recipient",
          "type": "address"
        },
        {
          "internalType": "uint256",
          "name": "tokenId",
          "type": "uint256"
        }
      ],
      "name": "ERC721SafeTransferRejected",
      "type": "error"
    },
    {
      "inputs": [],
      "name": "IllegalInterfaceId",
      "type": "error"
    },
    {
      "inputs": [],
      "name": "InvalidBurn",
      "type": "error"
    },
    {
      "inputs": [],
      "name": "NoOperatorAllowed",
      "type": "error"
    },
    {
      "inputs": [
        {
          "internalType": "uint256",
          "name": "tokenId",
          "type": "uint256"
        }
      ],
      "name": "NonExistingAllowedTransfer",
      "type": "error"
    },
    {
      "inputs": [
        {
          "internalType": "address",
          "name": "account",
          "type": "address"
        }
      ],
      "name": "NotContractOwner",
      "type": "error"
    },
    {
      "inputs": [
        {
          "internalType": "bytes32",
          "name": "role",
          "type": "bytes32"
        },
        {
          "internalType": "address",
          "name": "account",
          "type": "address"
        }
      ],
      "name": "NotRoleHolder",
      "type": "error"
    },
    {
      "inputs": [
        {
          "internalType": "address",
          "name": "recipient",
          "type": "address"
        }
      ],
      "name": "RedundantAllowedTransfer",
      "type": "error"
    },
    {
      "inputs": [],
      "name": "TransferNotAllowed",
      "type": "error"
    },
    {
      "anonymous": false,
      "inputs": [
        {
          "indexed": true,
          "internalType": "address",
          "name": "recipient",
          "type": "address"
        },
        {
          "indexed": true,
          "internalType": "uint256",
          "name": "tokenId",
          "type": "uint256"
        },
        {
          "indexed": false,
          "internalType": "address",
          "name": "sender",
          "type": "address"
        }
      ],
      "name": "AllowedTransferRemoved",
      "type": "event"
    },
    {
      "anonymous": false,
      "inputs": [
        {
          "indexed": true,
          "internalType": "address",
          "name": "previousOwner",
          "type": "address"
        },
        {
          "indexed": true,
          "internalType": "address",
          "name": "newOwner",
          "type": "address"
        }
      ],
      "name": "OwnershipTransferred",
      "type": "event"
    },
    {
      "anonymous": false,
      "inputs": [
        {
          "indexed": false,
          "internalType": "bytes32",
          "name": "role",
          "type": "bytes32"
        },
        {
          "indexed": false,
          "internalType": "address",
          "name": "account",
          "type": "address"
        },
        {
          "indexed": false,
          "internalType": "address",
          "name": "operator",
          "type": "address"
        }
      ],
      "name": "RoleGranted",
      "type": "event"
    },
    {
      "anonymous": false,
      "inputs": [
        {
          "indexed": false,
          "internalType": "bytes32",
          "name": "role",
          "type": "bytes32"
        },
        {
          "indexed": false,
          "internalType": "address",
          "name": "account",
          "type": "address"
        },
        {
          "indexed": false,
          "internalType": "address",
          "name": "operator",
          "type": "address"
        }
      ],
      "name": "RoleRevoked",
      "type": "event"
    },
    {
      "anonymous": false,
      "inputs": [
        {
          "indexed": true,
          "internalType": "address",
          "name": "from",
          "type": "address"
        },
        {
          "indexed": true,
          "internalType": "address",
          "name": "to",
          "type": "address"
        },
        {
          "indexed": true,
          "internalType": "uint256",
          "name": "tokenId",
          "type": "uint256"
        }
      ],
      "name": "Transfer",
      "type": "event"
    },
    {
      "anonymous": false,
      "inputs": [
        {
          "indexed": true,
          "internalType": "address",
          "name": "recipient",
          "type": "address"
        },
        {
          "indexed": true,
          "internalType": "uint256",
          "name": "tokenId",
          "type": "uint256"
        },
        {
          "indexed": false,
          "internalType": "address",
          "name": "sender",
          "type": "address"
        }
      ],
      "name": "TransferAllowed",
      "type": "event"
    },
    {
      "inputs": [],
      "name": "MINTER_ROLE",
      "outputs": [
        {
          "internalType": "bytes32",
          "name": "",
          "type": "bytes32"
        }
      ],
      "stateMutability": "view",
      "type": "function"
    },
    {
      "inputs": [],
      "name": "OPERATOR_ROLE",
      "outputs": [
        {
          "internalType": "bytes32",
          "name": "",
          "type": "bytes32"
        }
      ],
      "stateMutability": "view",
      "type": "function"
    },
    {
      "inputs": [
        {
          "internalType": "address",
          "name": "recipient",
          "type": "address"
        },
        {
          "internalType": "uint256",
          "name": "tokenId",
          "type": "uint256"
        }
      ],
      "name": "allowTransfer",
      "outputs": [],
      "stateMutability": "nonpayable",
      "type": "function"
    },
    {
      "inputs": [
        {
          "internalType": "uint256",
          "name": "",
          "type": "uint256"
        }
      ],
      "name": "allowedTransfers",
      "outputs": [
        {
          "internalType": "address",
          "name": "",
          "type": "address"
        }
      ],
      "stateMutability": "view",
      "type": "function"
    },
    {
      "inputs": [
        {
          "internalType": "address",
          "name": "to",
          "type": "address"
        },
        {
          "internalType": "uint256",
          "name": "tokenId",
          "type": "uint256"
        }
      ],
      "name": "approve",
      "outputs": [],
      "stateMutability": "nonpayable",
      "type": "function"
    },
    {
      "inputs": [
        {
          "internalType": "address",
          "name": "owner",
          "type": "address"
        }
      ],
      "name": "balanceOf",
      "outputs": [
        {
          "internalType": "uint256",
          "name": "balance",
          "type": "uint256"
        }
      ],
      "stateMutability": "view",
      "type": "function"
    },
    {
      "inputs": [
        {
          "internalType": "uint256",
          "name": "tokenId",
          "type": "uint256"
        }
      ],
      "name": "burn",
      "outputs": [],
      "stateMutability": "nonpayable",
      "type": "function"
    },
    {
      "inputs": [
        {
          "internalType": "uint256",
          "name": "tokenId",
          "type": "uint256"
        }
      ],
      "name": "getApproved",
      "outputs": [
        {
          "internalType": "address",
          "name": "approved",
          "type": "address"
        }
      ],
      "stateMutability": "view",
      "type": "function"
    },
    {
      "inputs": [
        {
          "internalType": "bytes32",
          "name": "role",
          "type": "bytes32"
        },
        {
          "internalType": "address",
          "name": "account",
          "type": "address"
        }
      ],
      "name": "grantRole",
      "outputs": [],
      "stateMutability": "nonpayable",
      "type": "function"
    },
    {
      "inputs": [
        {
          "internalType": "bytes32",
          "name": "role",
          "type": "bytes32"
        },
        {
          "internalType": "address",
          "name": "account",
          "type": "address"
        }
      ],
      "name": "hasRole",
      "outputs": [
        {
          "internalType": "bool",
          "name": "hasRole_",
          "type": "bool"
        }
      ],
      "stateMutability": "view",
      "type": "function"
    },
    {
      "inputs": [
        {
          "internalType": "address",
          "name": "owner",
          "type": "address"
        },
        {
          "internalType": "address",
          "name": "operator",
          "type": "address"
        }
      ],
      "name": "isApprovedForAll",
      "outputs": [
        {
          "internalType": "bool",
          "name": "approvedForAll",
          "type": "bool"
        }
      ],
      "stateMutability": "view",
      "type": "function"
    },
    {
      "inputs": [],
      "name": "metadataResolver",
      "outputs": [
        {
          "internalType": "contract ITokenMetadataResolver",
          "name": "tokenMetadataResolver",
          "type": "address"
        }
      ],
      "stateMutability": "view",
      "type": "function"
    },
    {
      "inputs": [
        {
          "internalType": "address",
          "name": "to",
          "type": "address"
        },
        {
          "internalType": "uint256",
          "name": "tokenId",
          "type": "uint256"
        },
        {
          "components": [
            {
              "internalType": "uint16",
              "name": "schemaVersion",
              "type": "uint16"
            },
            {
              "internalType": "uint16",
              "name": "achievementType",
              "type": "uint16"
            },
            {
              "internalType": "uint64",
              "name": "awardedDate",
              "type": "uint64"
            },
            {
              "internalType": "uint64",
              "name": "validFrom",
              "type": "uint64"
            },
            {
              "internalType": "uint64",
              "name": "validUtil",
              "type": "uint64"
            },
            {
              "internalType": "string",
              "name": "issuerDid",
              "type": "string"
            },
            {
              "internalType": "string",
              "name": "achievementId",
              "type": "string"
            }
          ],
          "internalType": "struct CertificateNFTv1MetaData.MetaData",
          "name": "metadata",
          "type": "tuple"
        }
      ],
      "name": "mint",
      "outputs": [],
      "stateMutability": "nonpayable",
      "type": "function"
    },
    {
      "inputs": [],
      "name": "name",
      "outputs": [
        {
          "internalType": "string",
          "name": "tokenName",
          "type": "string"
        }
      ],
      "stateMutability": "view",
      "type": "function"
    },
    {
      "inputs": [],
      "name": "owner",
      "outputs": [
        {
          "internalType": "address",
          "name": "",
          "type": "address"
        }
      ],
      "stateMutability": "view",
      "type": "function"
    },
    {
      "inputs": [
        {
          "internalType": "uint256",
          "name": "tokenId",
          "type": "uint256"
        }
      ],
      "name": "ownerOf",
      "outputs": [
        {
          "internalType": "address",
          "name": "tokenOwner",
          "type": "address"
        }
      ],
      "stateMutability": "view",
      "type": "function"
    },
    {
      "inputs": [
        {
          "internalType": "uint256",
          "name": "tokenId",
          "type": "uint256"
        }
      ],
      "name": "removeAllowedTransfer",
      "outputs": [],
      "stateMutability": "nonpayable",
      "type": "function"
    },
    {
      "inputs": [
        {
          "internalType": "bytes32",
          "name": "role",
          "type": "bytes32"
        }
      ],
      "name": "renounceRole",
      "outputs": [],
      "stateMutability": "nonpayable",
      "type": "function"
    },
    {
      "inputs": [
        {
          "internalType": "bytes32",
          "name": "role",
          "type": "bytes32"
        },
        {
          "internalType": "address",
          "name": "account",
          "type": "address"
        }
      ],
      "name": "revokeRole",
      "outputs": [],
      "stateMutability": "nonpayable",
      "type": "function"
    },
    {
      "inputs": [
        {
          "internalType": "address",
          "name": "from",
          "type": "address"
        },
        {
          "internalType": "address",
          "name": "to",
          "type": "address"
        },
        {
          "internalType": "uint256",
          "name": "tokenId",
          "type": "uint256"
        }
      ],
      "name": "safeTransferFrom",
      "outputs": [],
      "stateMutability": "nonpayable",
      "type": "function"
    },
    {
      "inputs": [
        {
          "internalType": "address",
          "name": "from",
          "type": "address"
        },
        {
          "internalType": "address",
          "name": "to",
          "type": "address"
        },
        {
          "internalType": "uint256",
          "name": "tokenId",
          "type": "uint256"
        },
        {
          "internalType": "bytes",
          "name": "data",
          "type": "bytes"
        }
      ],
      "name": "safeTransferFrom",
      "outputs": [],
      "stateMutability": "nonpayable",
      "type": "function"
    },
    {
      "inputs": [
        {
          "internalType": "address",
          "name": "operator",
          "type": "address"
        },
        {
          "internalType": "bool",
          "name": "approved",
          "type": "bool"
        }
      ],
      "name": "setApprovalForAll",
      "outputs": [],
      "stateMutability": "nonpayable",
      "type": "function"
    },
    {
      "inputs": [
        {
          "internalType": "contract IRevocationRegistry",
          "name": "revocationRegistry",
          "type": "address"
        }
      ],
      "name": "setRevocationRegistry",
      "outputs": [],
      "stateMutability": "nonpayable",
      "type": "function"
    },
    {
      "inputs": [
        {
          "internalType": "bytes4",
          "name": "interfaceId",
          "type": "bytes4"
        }
      ],
      "name": "supportsInterface",
      "outputs": [
        {
          "internalType": "bool",
          "name": "",
          "type": "bool"
        }
      ],
      "stateMutability": "view",
      "type": "function"
    },
    {
      "inputs": [],
      "name": "symbol",
      "outputs": [
        {
          "internalType": "string",
          "name": "tokenSymbol",
          "type": "string"
        }
      ],
      "stateMutability": "view",
      "type": "function"
    },
    {
      "inputs": [
        {
          "internalType": "uint256",
          "name": "tokenId",
          "type": "uint256"
        }
      ],
      "name": "tokenURI",
      "outputs": [
        {
          "internalType": "string",
          "name": "uri",
          "type": "string"
        }
      ],
      "stateMutability": "view",
      "type": "function"
    },
    {
      "inputs": [
        {
          "internalType": "address",
          "name": "from",
          "type": "address"
        },
        {
          "internalType": "address",
          "name": "to",
          "type": "address"
        },
        {
          "internalType": "uint256",
          "name": "tokenId",
          "type": "uint256"
        }
      ],
      "name": "transferFrom",
      "outputs": [],
      "stateMutability": "nonpayable",
      "type": "function"
    },
    {
      "inputs": [
        {
          "internalType": "address",
          "name": "newOwner",
          "type": "address"
        }
      ],
      "name": "transferOwnership",
      "outputs": [],
      "stateMutability": "nonpayable",
      "type": "function"
    },
    {
      "inputs": [
        {
          "internalType": "uint256",
          "name": "",
          "type": "uint256"
        }
      ],
      "name": "vcData",
      "outputs": [
        {
          "internalType": "uint16",
          "name": "schemaVersion",
          "type": "uint16"
        },
        {
          "internalType": "uint16",
          "name": "achievementType",
          "type": "uint16"
        },
        {
          "internalType": "uint64",
          "name": "awardedDate",
          "type": "uint64"
        },
        {
          "internalType": "uint64",
          "name": "validFrom",
          "type": "uint64"
        },
        {
          "internalType": "uint64",
          "name": "validUtil",
          "type": "uint64"
        },
        {
          "internalType": "string",
          "name": "issuerDid",
          "type": "string"
        },
        {
          "internalType": "string",
          "name": "achievementId",
          "type": "string"
        }
      ],
      "stateMutability": "view",
      "type": "function"
    }
  ],
  "bytecode": "0x60a06040523480156200001157600080fd5b5060405162002df338038062002df3833981016040819052620000349162000379565b338585856200005283838362000049620000b6565b929190620000ec565b6200005c62000133565b5050506200007b81620000746200015560201b60201c565b9062000185565b5062000086620001f8565b6001600160a01b03908116608052600080546001600160a01b0319169290911691909117905550620005a4915050565b600080620000e660017f7ea68fd2dcf1c056b94db6a0a537aa80d26fa9ab1eacd85da1ba0b61b7e7a8a562000425565b92915050565b83620000f98482620004d8565b50600184016200010a8382620004d8565b5060029390930180546001600160a01b0319166001600160a01b03909416939093179092555050565b62000153635b5e139f60e01b60016200014b6200020b565b91906200023b565b565b600080620000e660017fc9ed16f33ab3a66c84bfd83099ccb2a8845871e2e1c1928f63797152f0fd54cd62000425565b6001600160a01b03811615620001dc5781546001600160a01b0319166001600160a01b03821690811783556040516000907f8be0079c531659141344cd1fd0a4f28419497f9722a3daafe3b4186f6b6457e0908290a35b620001f46307f5828d60e41b60016200014b6200020b565b5050565b62000153638e773e1360e01b60016200014b5b600080620000e660017fca9d3e17f264b0f3984e2634e94adb37fa3e6a8103f06aeae6fa59e21c769f5e62000425565b600160e01b6001600160e01b03198316016200026a576040516372c683bb60e01b815260040160405180910390fd5b6001600160e01b03199190911660009081526020929092526040909120805460ff1916911515919091179055565b634e487b7160e01b600052604160045260246000fd5b600082601f830112620002c057600080fd5b81516001600160401b0380821115620002dd57620002dd62000298565b604051601f8301601f19908116603f0116810190828211818310171562000308576200030862000298565b81604052838152602092508660208588010111156200032657600080fd5b600091505b838210156200034a57858201830151818301840152908201906200032b565b6000602085830101528094505050505092915050565b6001600160a01b03811681146200037657600080fd5b50565b600080600080600060a086880312156200039257600080fd5b85516001600160401b0380821115620003aa57600080fd5b620003b889838a01620002ae565b96506020880151915080821115620003cf57600080fd5b50620003de88828901620002ae565b9450506040860151620003f18162000360565b6060870151909350620004048162000360565b6080870151909250620004178162000360565b809150509295509295909350565b81810381811115620000e657634e487b7160e01b600052601160045260246000fd5b600181811c908216806200045c57607f821691505b6020821081036200047d57634e487b7160e01b600052602260045260246000fd5b50919050565b601f821115620004d3576000816000526020600020601f850160051c81016020861015620004ae5750805b601f850160051c820191505b81811015620004cf57828155600101620004ba565b5050505b505050565b81516001600160401b03811115620004f457620004f462000298565b6200050c8162000505845462000447565b8462000483565b602080601f8311600181146200054457600084156200052b5750858301515b600019600386901b1c1916600185901b178555620004cf565b600085815260208120601f198616915b82811015620005755788860151825594840194600190910190840162000554565b5085821015620005945787850151600019600388901b60f8161c191681555b5050505050600190811b01905550565b60805161282c620005c76000396000818161059b0152610a7e015261282c6000f3fe608060405234801561001057600080fd5b50600436106101cf5760003560e01c806370a0823111610104578063a22cb465116100a2578063d547741f11610071578063d547741f14610424578063e985e9c514610437578063f2fde38b14610445578063f5b541a61461045857600080fd5b8063a22cb465146103c4578063b88d4fde146103d7578063c87b56dd146103ea578063d5391393146103fd57600080fd5b806391d14854116100de57806391d148541461038e57806395d89b41146103a157806395f94bc4146103a9578063a0c76f62146103bc57600080fd5b806370a08231146103525780638bb9c5bf146103735780638da5cb5b1461038657600080fd5b80633886d5121161017157806342966c681161014b57806342966c68146102f35780634bae2be81461030657806354c7be061461032c5780636352211e1461033f57600080fd5b80633886d5121461029757806342532616146102cd57806342842e0e146102e057600080fd5b8063095ea7b3116101ad578063095ea7b31461024957806319c02b271461025e57806323b872dd146102715780632f2ff15d1461028457600080fd5b806301ffc9a7146101d457806306fdde03146101fc578063081812fc14610211575b600080fd5b6101e76101e2366004611e15565b61047f565b60405190151581526020015b60405180910390f35b610204610499565b6040516101f39190611ea0565b61022461021f366004611eb3565b6104a8565b60405173ffffffffffffffffffffffffffffffffffffffff90911681526020016101f3565b61025c610257366004611eee565b6104dc565b005b61025c61026c366004611eee565b61050e565b61025c61027f366004611f1a565b610777565b61025c610292366004611f5b565b6109c3565b6102246102a5366004611eb3565b60026020526000908152604090205473ffffffffffffffffffffffffffffffffffffffff1681565b61025c6102db366004611eb3565b6109f1565b61025c6102ee366004611f1a565b610c20565b61025c610301366004611eb3565b610d71565b610319610314366004611eb3565b610f6d565b6040516101f39796959493929190611f8b565b61025c61033a366004611ff2565b6110f4565b61022461034d366004611eb3565b611156565b610365610360366004612052565b611164565b6040519081526020016101f3565b61025c610381366004611eb3565b611178565b61022461118f565b6101e761039c366004611f5b565b6111b6565b610204611201565b61025c6103b7366004612052565b61120b565b61022461125e565b61025c6103d236600461207d565b611288565b61025c6103e53660046120ab565b6112ba565b6102046103f8366004611eb3565b6113f9565b6103657f6d696e746572000000000000000000000000000000000000000000000000000081565b61025c610432366004611f5b565b61141c565b6101e761021f36600461214a565b61025c610453366004612052565b61143f565b6103657f6f70657261746f7200000000000000000000000000000000000000000000000081565b60006104938261048d611453565b90611481565b92915050565b60606104a361155b565b905090565b60006040517f5211920d00000000000000000000000000000000000000000000000000000000815260040160405180910390fd5b6040517f8cd22d1900000000000000000000000000000000000000000000000000000000815260040160405180910390fd5b60008181526001602081815260408084209051610530939190910191016121cb565b604080518083037fffffffffffffffffffffffffffffffffffffffffffffffffffffffffffffffe00181529082905280516020909101207ff9236a390000000000000000000000000000000000000000000000000000000082526004820181905233602483015291507f000000000000000000000000000000000000000000000000000000000000000073ffffffffffffffffffffffffffffffffffffffff169063f9236a3990604401602060405180830381865afa1580156105f7573d6000803e3d6000fd5b505050506040513d601f19601f8201168201806040525081019061061b919061225f565b610653576106537f6f70657261746f720000000000000000000000000000000000000000000000003361064c61156d565b919061159b565b600061066783610661611621565b9061164f565b90508373ffffffffffffffffffffffffffffffffffffffff168173ffffffffffffffffffffffffffffffffffffffff16036106eb576040517f4c349c0000000000000000000000000000000000000000000000000000000000815273ffffffffffffffffffffffffffffffffffffffff851660048201526024015b60405180910390fd5b60008381526002602090815260409182902080547fffffffffffffffffffffffff00000000000000000000000000000000000000001673ffffffffffffffffffffffffffffffffffffffff881690811790915591513381528592917f1617c30910ed9def77a5583fb42361192fa9e1a3ae60209c6281a276f88f9624910160405180910390a350505050565b600061078582610661611621565b905073ffffffffffffffffffffffffffffffffffffffff811633146107df576040517f14dbb536000000000000000000000000000000000000000000000000000000008152336004820152602481018390526044016106e2565b8073ffffffffffffffffffffffffffffffffffffffff168473ffffffffffffffffffffffffffffffffffffffff16141580610841575060008281526002602052604090205473ffffffffffffffffffffffffffffffffffffffff848116911614155b1561089f576040517fa4a3018b00000000000000000000000000000000000000000000000000000000815273ffffffffffffffffffffffffffffffffffffffff808616600483015282166024820152604481018390526064016106e2565b8273ffffffffffffffffffffffffffffffffffffffff166108be611621565b600084815260209190915260409020556108d6611621565b73ffffffffffffffffffffffffffffffffffffffff821660009081526001919091016020526040902080547fffffffffffffffffffffffffffffffffffffffffffffffffffffffffffffffff01905561092d611621565b73ffffffffffffffffffffffffffffffffffffffff808516600081815260019384016020908152604080832080549096019095558682526002905283812080547fffffffffffffffffffffffff00000000000000000000000000000000000000001690559251859391928516917fddf252ad1be2c89b69c2b068fc378daa952ba7f163c4a11628f55a4df523b3ef91a450505050565b336109d6816109d06116b8565b906116e6565b6109ec8383836109e461156d565b929190611751565b505050565b60008181526001602081815260408084209051610a13939190910191016121cb565b604080518083037fffffffffffffffffffffffffffffffffffffffffffffffffffffffffffffffe00181529082905280516020909101207ff9236a390000000000000000000000000000000000000000000000000000000082526004820181905233602483015291507f000000000000000000000000000000000000000000000000000000000000000073ffffffffffffffffffffffffffffffffffffffff169063f9236a3990604401602060405180830381865afa158015610ada573d6000803e3d6000fd5b505050506040513d601f19601f82011682018060405250810190610afe919061225f565b610b2f57610b2f7f6f70657261746f720000000000000000000000000000000000000000000000003361064c61156d565b60008281526002602052604090205473ffffffffffffffffffffffffffffffffffffffff16610b8d576040517fd43553b5000000000000000000000000000000000000000000000000000000008152600481018390526024016106e2565b600082815260026020908152604091829020549151338152849273ffffffffffffffffffffffffffffffffffffffff16917f648e1fca65e8b59490cc7c26438ac6ed40ea5c54de21e85e2ef44a52b8f2ebab910160405180910390a350600090815260026020526040902080547fffffffffffffffffffffffff0000000000000000000000000000000000000000169055565b610c2b838383610777565b73ffffffffffffffffffffffffffffffffffffffff82163b156109ec576040517f150b7a020000000000000000000000000000000000000000000000000000000080825233600483015273ffffffffffffffffffffffffffffffffffffffff858116602484015260448301849052608060648401526000608484015290919084169063150b7a029060a4016020604051808303816000875af1158015610cd5573d6000803e3d6000fd5b505050506040513d601f19601f82011682018060405250810190610cf9919061227c565b7fffffffff0000000000000000000000000000000000000000000000000000000016146109ec576040517fc215a7a100000000000000000000000000000000000000000000000000000000815273ffffffffffffffffffffffffffffffffffffffff83166004820152602481018290526044016106e2565b60008181526001602081815260408084209051610d93939190910191016121cb565b604080518083037fffffffffffffffffffffffffffffffffffffffffffffffffffffffffffffffe00181529082905280516020909101206000547fa3a2656a000000000000000000000000000000000000000000000000000000008352600483018290526024830185905290925073ffffffffffffffffffffffffffffffffffffffff169063a3a2656a90604401602060405180830381865afa158015610e3e573d6000803e3d6000fd5b505050506040513d601f19601f82011682018060405250810190610e62919061225f565b15610f37576000610e7583610661611621565b90507fdead000000000000000000000000000000000000000000000000000000000000610ea0611621565b60008581526020919091526040902055610eb8611621565b73ffffffffffffffffffffffffffffffffffffffff82166000818152600192909201602052604080832080547fffffffffffffffffffffffffffffffffffffffffffffffffffffffffffffffff01905551859291907fddf252ad1be2c89b69c2b068fc378daa952ba7f163c4a11628f55a4df523b3ef908390a4505050565b6040517feeddf6ab00000000000000000000000000000000000000000000000000000000815260040160405180910390fd5b5050565b60016020819052600091825260409091208054918101805461ffff808516946201000081049091169367ffffffffffffffff64010000000083048116946c0100000000000000000000000084048216947401000000000000000000000000000000000000000090940490911692610fe390612178565b80601f016020809104026020016040519081016040528092919081815260200182805461100f90612178565b801561105c5780601f106110315761010080835404028352916020019161105c565b820191906000526020600020905b81548152906001019060200180831161103f57829003601f168201915b50505050509080600201805461107190612178565b80601f016020809104026020016040519081016040528092919081815260200182805461109d90612178565b80156110ea5780601f106110bf576101008083540402835291602001916110ea565b820191906000526020600020905b8154815290600101906020018083116110cd57829003601f168201915b5050505050905087565b6111217f6d696e74657200000000000000000000000000000000000000000000000000003361064c61156d565b611135838361112e611621565b9190611828565b6000828152600160205260409020819061114f82826124cc565b5050505050565b600061049382610661611621565b600061049382611172611621565b90611942565b61118c338261118561156d565b91906119be565b50565b60006104a361119c6116b8565b5473ffffffffffffffffffffffffffffffffffffffff1690565b60006111fa83836111c561156d565b60009283526020908152604080842073ffffffffffffffffffffffffffffffffffffffff909316845291905290205460ff1690565b9392505050565b60606104a3611a62565b611217336109d06116b8565b600080547fffffffffffffffffffffffff00000000000000000000000000000000000000001673ffffffffffffffffffffffffffffffffffffffff92909216919091179055565b60006104a361126b611a74565b6002015473ffffffffffffffffffffffffffffffffffffffff1690565b6040517f5211920d00000000000000000000000000000000000000000000000000000000815260040160405180910390fd5b6112c5858585610777565b73ffffffffffffffffffffffffffffffffffffffff84163b1561114f576040517f150b7a02000000000000000000000000000000000000000000000000000000008082529073ffffffffffffffffffffffffffffffffffffffff86169063150b7a029061133e9033908a90899089908990600401612672565b6020604051808303816000875af115801561135d573d6000803e3d6000fd5b505050506040513d601f19601f82011682018060405250810190611381919061227c565b7fffffffff00000000000000000000000000000000000000000000000000000000161461114f576040517fc215a7a100000000000000000000000000000000000000000000000000000000815273ffffffffffffffffffffffffffffffffffffffff85166004820152602481018490526044016106e2565b606061140782610661611621565b506104933083611415611a74565b9190611aa2565b33611429816109d06116b8565b6109ec83838361143761156d565b929190611b62565b61118c338261144c6116b8565b9190611c2c565b60008061049360017fca9d3e17f264b0f3984e2634e94adb37fa3e6a8103f06aeae6fa59e21c769f5e6126f1565b60007c01000000000000000000000000000000000000000000000000000000007fffffffff000000000000000000000000000000000000000000000000000000008316016114d157506000610493565b7ffe003659000000000000000000000000000000000000000000000000000000007fffffffff0000000000000000000000000000000000000000000000000000000083160161152257506001610493565b507fffffffff00000000000000000000000000000000000000000000000000000000166000908152602091909152604090205460ff1690565b60606104a3611568611a74565b611d40565b60008061049360017fc8827d3282af6f37b64c3e9e6f3ac9df286ab0bb0fccd6f8661bf19adb368b236126f1565b60008281526020848152604080832073ffffffffffffffffffffffffffffffffffffffff8516845290915290205460ff166109ec576040517f7aa728820000000000000000000000000000000000000000000000000000000081526004810183905273ffffffffffffffffffffffffffffffffffffffff821660248201526044016106e2565b60008061049360017fddf3ee18ae6d688373c219468f8be446e7ae82215f4779d821c7ea5e8c13c0c16126f1565b60008181526020839052604081205473ffffffffffffffffffffffffffffffffffffffff81166116ae576040517fdd560475000000000000000000000000000000000000000000000000000000008152600481018490526024016106e2565b805b949350505050565b60008061049360017fc9ed16f33ab3a66c84bfd83099ccb2a8845871e2e1c1928f63797152f0fd54cd6126f1565b815473ffffffffffffffffffffffffffffffffffffffff828116911614610f69576040517f2ef4875e00000000000000000000000000000000000000000000000000000000815273ffffffffffffffffffffffffffffffffffffffff821660048201526024016106e2565b60008381526020858152604080832073ffffffffffffffffffffffffffffffffffffffff8616845290915290205460ff166118225760008381526020858152604080832073ffffffffffffffffffffffffffffffffffffffff8681168086529184529382902080547fffffffffffffffffffffffffffffffffffffffffffffffffffffffffffffff00166001179055815187815292830152918316918101919091527f2f8788117e7eff1d82e926ec794901d17c78024a50270940304540a733656f0d906060015b60405180910390a15b50505050565b73ffffffffffffffffffffffffffffffffffffffff8216611875576040517f7851b9cd00000000000000000000000000000000000000000000000000000000815260040160405180910390fd5b60008181526020849052604090205473ffffffffffffffffffffffffffffffffffffffff16156118d4576040517f753eceac000000000000000000000000000000000000000000000000000000008152600481018290526024016106e2565b60008181526020848152604080832073ffffffffffffffffffffffffffffffffffffffff86169081905580845260018088019093528184208054909301909255518392907fddf252ad1be2c89b69c2b068fc378daa952ba7f163c4a11628f55a4df523b3ef908290a4505050565b600073ffffffffffffffffffffffffffffffffffffffff8216611991576040517faefbce4e00000000000000000000000000000000000000000000000000000000815260040160405180910390fd5b5073ffffffffffffffffffffffffffffffffffffffff166000908152600191909101602052604090205490565b6119c983828461159b565b60008181526020848152604080832073ffffffffffffffffffffffffffffffffffffffff86168085529083529281902080547fffffffffffffffffffffffffffffffffffffffffffffffffffffffffffffff0016905580518481529182018390528101919091527ff6391f5c32d9c69d2a47ea670b442974b53935d1edc7fd64eb21e047a839171b9060600160405180910390a1505050565b60606104a3611a6f611a74565b611dd6565b60008061049360017f7ea68fd2dcf1c056b94db6a0a537aa80d26fa9ab1eacd85da1ba0b61b7e7a8a56126f1565b60028301546040517ff724dad700000000000000000000000000000000000000000000000000000000815273ffffffffffffffffffffffffffffffffffffffff848116600483015260248201849052606092169063f724dad790604401600060405180830381865afa158015611b1c573d6000803e3d6000fd5b505050506040513d6000823e601f3d9081017fffffffffffffffffffffffffffffffffffffffffffffffffffffffffffffffe01682016040526116b0919081019061272b565b60008381526020858152604080832073ffffffffffffffffffffffffffffffffffffffff8616845290915290205460ff16156118225760008381526020858152604080832073ffffffffffffffffffffffffffffffffffffffff8681168086529184529382902080547fffffffffffffffffffffffffffffffffffffffffffffffffffffffffffffff00169055815187815292830152918316918101919091527ff6391f5c32d9c69d2a47ea670b442974b53935d1edc7fd64eb21e047a839171b90606001611819565b825473ffffffffffffffffffffffffffffffffffffffff9081169083168114611c99576040517f2ef4875e00000000000000000000000000000000000000000000000000000000815273ffffffffffffffffffffffffffffffffffffffff841660048201526024016106e2565b8173ffffffffffffffffffffffffffffffffffffffff168173ffffffffffffffffffffffffffffffffffffffff16146118225783547fffffffffffffffffffffffff00000000000000000000000000000000000000001673ffffffffffffffffffffffffffffffffffffffff8381169182178655604051908316907f8be0079c531659141344cd1fd0a4f28419497f9722a3daafe3b4186f6b6457e090600090a350505050565b6060816000018054611d5190612178565b80601f0160208091040260200160405190810160405280929190818152602001828054611d7d90612178565b8015611dca5780601f10611d9f57610100808354040283529160200191611dca565b820191906000526020600020905b815481529060010190602001808311611dad57829003601f168201915b50505050509050919050565b6060816001018054611d5190612178565b7fffffffff000000000000000000000000000000000000000000000000000000008116811461118c57600080fd5b600060208284031215611e2757600080fd5b81356111fa81611de7565b60005b83811015611e4d578181015183820152602001611e35565b50506000910152565b60008151808452611e6e816020860160208601611e32565b601f017fffffffffffffffffffffffffffffffffffffffffffffffffffffffffffffffe0169290920160200192915050565b6020815260006111fa6020830184611e56565b600060208284031215611ec557600080fd5b5035919050565b73ffffffffffffffffffffffffffffffffffffffff8116811461118c57600080fd5b60008060408385031215611f0157600080fd5b8235611f0c81611ecc565b946020939093013593505050565b600080600060608486031215611f2f57600080fd5b8335611f3a81611ecc565b92506020840135611f4a81611ecc565b929592945050506040919091013590565b60008060408385031215611f6e57600080fd5b823591506020830135611f8081611ecc565b809150509250929050565b61ffff88811682528716602082015267ffffffffffffffff868116604083015285811660608301528416608082015260e060a08201819052600090611fd290830185611e56565b82810360c0840152611fe48185611e56565b9a9950505050505050505050565b60008060006060848603121561200757600080fd5b833561201281611ecc565b925060208401359150604084013567ffffffffffffffff81111561203557600080fd5b840160e0818703121561204757600080fd5b809150509250925092565b60006020828403121561206457600080fd5b81356111fa81611ecc565b801515811461118c57600080fd5b6000806040838503121561209057600080fd5b823561209b81611ecc565b91506020830135611f808161206f565b6000806000806000608086880312156120c357600080fd5b85356120ce81611ecc565b945060208601356120de81611ecc565b935060408601359250606086013567ffffffffffffffff8082111561210257600080fd5b818801915088601f83011261211657600080fd5b81358181111561212557600080fd5b89602082850101111561213757600080fd5b9699959850939650602001949392505050565b6000806040838503121561215d57600080fd5b823561216881611ecc565b91506020830135611f8081611ecc565b600181811c9082168061218c57607f821691505b6020821081036121c5577f4e487b7100000000000000000000000000000000000000000000000000000000600052602260045260246000fd5b50919050565b60008083546121d981612178565b600182811680156121f1576001811461222457612253565b7fffffffffffffffffffffffffffffffffffffffffffffffffffffffffffffff0084168752821515830287019450612253565b8760005260208060002060005b8581101561224a5781548a820152908401908201612231565b50505082870194505b50929695505050505050565b60006020828403121561227157600080fd5b81516111fa8161206f565b60006020828403121561228e57600080fd5b81516111fa81611de7565b6000813561ffff8116811461049357600080fd5b6000813567ffffffffffffffff8116811461049357600080fd5b60008083357fffffffffffffffffffffffffffffffffffffffffffffffffffffffffffffffe18436030181126122fc57600080fd5b83018035915067ffffffffffffffff82111561231757600080fd5b60200191503681900382131561232c57600080fd5b9250929050565b7f4e487b7100000000000000000000000000000000000000000000000000000000600052604160045260246000fd5b601f8211156109ec576000816000526020600020601f850160051c8101602086101561238b5750805b601f850160051c820191505b818110156123aa57828155600101612397565b505050505050565b67ffffffffffffffff8311156123ca576123ca612333565b6123de836123d88354612178565b83612362565b6000601f84116001811461243057600085156123fa5750838201355b7fffffffffffffffffffffffffffffffffffffffffffffffffffffffffffffffff600387901b1c1916600186901b17835561114f565b6000838152602090207fffffffffffffffffffffffffffffffffffffffffffffffffffffffffffffffe0861690835b8281101561247f578685013582556020948501946001909201910161245f565b50868210156124ba577fffffffffffffffffffffffffffffffffffffffffffffffffffffffffffffffff60f88860031b161c19848701351681555b505060018560011b0183555050505050565b61ffff6124d883612299565b168154817fffffffffffffffffffffffffffffffffffffffffffffffffffffffffffff0000821617835563ffff000061251360208601612299565b60101b1680837fffffffffffffffffffffffffffffffffffffffffffffffffffffffff000000008416171784556bffffffffffffffff00000000612559604087016122ad565b60201b16837fffffffffffffffffffffffffffffffffffffffff00000000000000000000000084161782171784555050506125de612599606084016122ad565b82547fffffffffffffffffffffffff0000000000000000ffffffffffffffffffffffff1660609190911b73ffffffffffffffff00000000000000000000000016178255565b61263a6125ed608084016122ad565b82547fffffffff0000000000000000ffffffffffffffffffffffffffffffffffffffff1660a09190911b7bffffffffffffffff000000000000000000000000000000000000000016178255565b61264760a08301836122c7565b6126558183600186016123b2565b505061266460c08301836122c7565b6118228183600286016123b2565b600073ffffffffffffffffffffffffffffffffffffffff808816835280871660208401525084604083015260806060830152826080830152828460a0840137600060a0848401015260a07fffffffffffffffffffffffffffffffffffffffffffffffffffffffffffffffe0601f85011683010190509695505050505050565b81810381811115610493577f4e487b7100000000000000000000000000000000000000000000000000000000600052601160045260246000fd5b60006020828403121561273d57600080fd5b815167ffffffffffffffff8082111561275557600080fd5b818401915084601f83011261276957600080fd5b81518181111561277b5761277b612333565b604051601f82017fffffffffffffffffffffffffffffffffffffffffffffffffffffffffffffffe0908116603f011681019083821181831017156127c1576127c1612333565b816040528281528760208487010111156127da57600080fd5b6127eb836020830160208801611e32565b97965050505050505056fea264697066735822122087a9f5cbaf4f8aae8726258c952e68064d610dd28c157f7c2acdd4767ecc5b8364736f6c63430008160033",
  "linkReferences": {},
  "deployedLinkReferences": {}
}