{
  "_format": "hh-sol-artifact-1",
  "contractName": "OpenCampusCertificateNFTv1",
  "sourceName": "contracts/vc/OpenCampusCertificateNFTv1.sol",
  "abi": [
    {
      "inputs": [
        {
          "internalType": "string",
          "name": "tokenName",
          "type": "string"
        },
        {
          "internalType": "string",
          "name": "tokenSymbol",
          "type": "string"
        },
        {
          "internalType": "contract IForwarderRegistry",
          "name": "forwarderRegistry",
          "type": "address"
        },
        {
          "internalType": "contract ITokenMetadataResolver",
          "name": "metadataResolver",
          "type": "address"
        },
        {
          "internalType": "contract IRevocationRegistry",
          "name": "revocationRegistry",
          "type": "address"
        },
        {
          "internalType": "contract IIssuersDIDRegistry",
          "name": "didRegistry",
          "type": "address"
        }
      ],
      "stateMutability": "nonpayable",
      "type": "constructor"
    },
    {
      "inputs": [],
      "name": "ERC721BalanceOfAddressZero",
      "type": "error"
    },
    {
      "inputs": [
        {
          "internalType": "uint256",
          "name": "tokenId",
          "type": "uint256"
        }
      ],
      "name": "ERC721ExistingToken",
      "type": "error"
    },
    {
      "inputs": [],
      "name": "ERC721MintToAddressZero",
      "type": "error"
    },
    {
      "inputs": [
        {
          "internalType": "address",
          "name": "sender",
          "type": "address"
        },
        {
          "internalType": "address",
          "name": "owner",
          "type": "address"
        },
        {
          "internalType": "uint256",
          "name": "tokenId",
          "type": "uint256"
        }
      ],
      "name": "ERC721NonApprovedForApproval",
      "type": "error"
    },
    {
      "inputs": [
        {
          "internalType": "address",
          "name": "sender",
          "type": "address"
        },
        {
          "internalType": "address",
          "name": "owner",
          "type": "address"
        },
        {
          "internalType": "uint256",
          "name": "tokenId",
          "type": "uint256"
        }
      ],
      "name": "ERC721NonApprovedForTransfer",
      "type": "error"
    },
    {
      "inputs": [
        {
          "internalType": "uint256",
          "name": "tokenId",
          "type": "uint256"
        }
      ],
      "name": "ERC721NonExistingToken",
      "type": "error"
    },
    {
      "inputs": [
        {
          "internalType": "address",
          "name": "account",
          "type": "address"
        },
        {
          "internalType": "uint256",
          "name": "tokenId",
          "type": "uint256"
        }
      ],
      "name": "ERC721NonOwnedToken",
      "type": "error"
    },
    {
      "inputs": [
        {
          "internalType": "address",
          "name": "recipient",
          "type": "address"
        },
        {
          "internalType": "uint256",
          "name": "tokenId",
          "type": "uint256"
        }
      ],
      "name": "ERC721SafeTransferRejected",
      "type": "error"
    },
    {
      "inputs": [
        {
          "internalType": "address",
          "name": "account",
          "type": "address"
        }
      ],
      "name": "ERC721SelfApproval",
      "type": "error"
    },
    {
      "inputs": [
        {
          "internalType": "address",
          "name": "account",
          "type": "address"
        }
      ],
      "name": "ERC721SelfApprovalForAll",
      "type": "error"
    },
    {
      "inputs": [],
      "name": "ERC721TransferToAddressZero",
      "type": "error"
    },
    {
      "inputs": [],
      "name": "IllegalInterfaceId",
      "type": "error"
    },
    {
      "inputs": [
        {
          "internalType": "bytes32",
          "name": "hashedDid",
          "type": "bytes32"
        },
        {
          "internalType": "uint256",
          "name": "tokenId",
          "type": "uint256"
        }
      ],
      "name": "InvalidBurn",
      "type": "error"
    },
    {
      "inputs": [
        {
          "internalType": "address",
          "name": "account",
          "type": "address"
        }
      ],
      "name": "NotContractOwner",
      "type": "error"
    },
    {
      "inputs": [
        {
          "internalType": "bytes32",
          "name": "role",
          "type": "bytes32"
        },
        {
          "internalType": "address",
          "name": "account",
          "type": "address"
        }
      ],
      "name": "NotRoleHolder",
      "type": "error"
    },
    {
      "anonymous": false,
      "inputs": [
        {
          "indexed": true,
          "internalType": "address",
          "name": "owner",
          "type": "address"
        },
        {
          "indexed": true,
          "internalType": "address",
          "name": "approved",
          "type": "address"
        },
        {
          "indexed": true,
          "internalType": "uint256",
          "name": "tokenId",
          "type": "uint256"
        }
      ],
      "name": "Approval",
      "type": "event"
    },
    {
      "anonymous": false,
      "inputs": [
        {
          "indexed": true,
          "internalType": "address",
          "name": "owner",
          "type": "address"
        },
        {
          "indexed": true,
          "internalType": "address",
          "name": "operator",
          "type": "address"
        },
        {
          "indexed": false,
          "internalType": "bool",
          "name": "approved",
          "type": "bool"
        }
      ],
      "name": "ApprovalForAll",
      "type": "event"
    },
    {
      "anonymous": false,
      "inputs": [
        {
          "indexed": true,
          "internalType": "address",
          "name": "previousOwner",
          "type": "address"
        },
        {
          "indexed": true,
          "internalType": "address",
          "name": "newOwner",
          "type": "address"
        }
      ],
      "name": "OwnershipTransferred",
      "type": "event"
    },
    {
      "anonymous": false,
      "inputs": [
        {
          "indexed": false,
          "internalType": "bytes32",
          "name": "role",
          "type": "bytes32"
        },
        {
          "indexed": false,
          "internalType": "address",
          "name": "account",
          "type": "address"
        },
        {
          "indexed": false,
          "internalType": "address",
          "name": "operator",
          "type": "address"
        }
      ],
      "name": "RoleGranted",
      "type": "event"
    },
    {
      "anonymous": false,
      "inputs": [
        {
          "indexed": false,
          "internalType": "bytes32",
          "name": "role",
          "type": "bytes32"
        },
        {
          "indexed": false,
          "internalType": "address",
          "name": "account",
          "type": "address"
        },
        {
          "indexed": false,
          "internalType": "address",
          "name": "operator",
          "type": "address"
        }
      ],
      "name": "RoleRevoked",
      "type": "event"
    },
    {
      "anonymous": false,
      "inputs": [
        {
          "indexed": true,
          "internalType": "address",
          "name": "from",
          "type": "address"
        },
        {
          "indexed": true,
          "internalType": "address",
          "name": "to",
          "type": "address"
        },
        {
          "indexed": true,
          "internalType": "uint256",
          "name": "tokenId",
          "type": "uint256"
        }
      ],
      "name": "Transfer",
      "type": "event"
    },
    {
      "inputs": [],
      "name": "DID_REGISTRY",
      "outputs": [
        {
          "internalType": "contract IIssuersDIDRegistry",
          "name": "",
          "type": "address"
        }
      ],
      "stateMutability": "view",
      "type": "function"
    },
    {
      "inputs": [],
      "name": "MINTER_ROLE",
      "outputs": [
        {
          "internalType": "bytes32",
          "name": "",
          "type": "bytes32"
        }
      ],
      "stateMutability": "view",
      "type": "function"
    },
    {
      "inputs": [],
      "name": "OPERATOR_ROLE",
      "outputs": [
        {
          "internalType": "bytes32",
          "name": "",
          "type": "bytes32"
        }
      ],
      "stateMutability": "view",
      "type": "function"
    },
    {
      "inputs": [],
      "name": "_revocationRegistry",
      "outputs": [
        {
          "internalType": "contract IRevocationRegistry",
          "name": "",
          "type": "address"
        }
      ],
      "stateMutability": "view",
      "type": "function"
    },
    {
      "inputs": [
        {
          "internalType": "address",
          "name": "to",
          "type": "address"
        },
        {
          "internalType": "uint256",
          "name": "tokenId",
          "type": "uint256"
        }
      ],
      "name": "approve",
      "outputs": [],
      "stateMutability": "nonpayable",
      "type": "function"
    },
    {
      "inputs": [
        {
          "internalType": "address",
          "name": "owner",
          "type": "address"
        }
      ],
      "name": "balanceOf",
      "outputs": [
        {
          "internalType": "uint256",
          "name": "balance",
          "type": "uint256"
        }
      ],
      "stateMutability": "view",
      "type": "function"
    },
    {
      "inputs": [
        {
          "internalType": "uint256",
          "name": "tokenId",
          "type": "uint256"
        }
      ],
      "name": "burn",
      "outputs": [],
      "stateMutability": "nonpayable",
      "type": "function"
    },
    {
      "inputs": [],
      "name": "forwarderRegistry",
      "outputs": [
        {
          "internalType": "contract IForwarderRegistry",
          "name": "",
          "type": "address"
        }
      ],
      "stateMutability": "view",
      "type": "function"
    },
    {
      "inputs": [
        {
          "internalType": "uint256",
          "name": "tokenId",
          "type": "uint256"
        }
      ],
      "name": "getApproved",
      "outputs": [
        {
          "internalType": "address",
          "name": "approved",
          "type": "address"
        }
      ],
      "stateMutability": "view",
      "type": "function"
    },
    {
      "inputs": [
        {
          "internalType": "bytes32",
          "name": "role",
          "type": "bytes32"
        },
        {
          "internalType": "address",
          "name": "account",
          "type": "address"
        }
      ],
      "name": "grantRole",
      "outputs": [],
      "stateMutability": "nonpayable",
      "type": "function"
    },
    {
      "inputs": [
        {
          "internalType": "bytes32",
          "name": "role",
          "type": "bytes32"
        },
        {
          "internalType": "address",
          "name": "account",
          "type": "address"
        }
      ],
      "name": "hasRole",
      "outputs": [
        {
          "internalType": "bool",
          "name": "hasRole_",
          "type": "bool"
        }
      ],
      "stateMutability": "view",
      "type": "function"
    },
    {
      "inputs": [
        {
          "internalType": "address",
          "name": "owner",
          "type": "address"
        },
        {
          "internalType": "address",
          "name": "operator",
          "type": "address"
        }
      ],
      "name": "isApprovedForAll",
      "outputs": [
        {
          "internalType": "bool",
          "name": "approvedForAll",
          "type": "bool"
        }
      ],
      "stateMutability": "view",
      "type": "function"
    },
    {
      "inputs": [
        {
          "internalType": "address",
          "name": "forwarder",
          "type": "address"
        }
      ],
      "name": "isTrustedForwarder",
      "outputs": [
        {
          "internalType": "bool",
          "name": "",
          "type": "bool"
        }
      ],
      "stateMutability": "view",
      "type": "function"
    },
    {
      "inputs": [],
      "name": "metadataResolver",
      "outputs": [
        {
          "internalType": "contract ITokenMetadataResolver",
          "name": "tokenMetadataResolver",
          "type": "address"
        }
      ],
      "stateMutability": "view",
      "type": "function"
    },
    {
      "inputs": [
        {
          "internalType": "address",
          "name": "to",
          "type": "address"
        },
        {
          "internalType": "uint256",
          "name": "tokenId",
          "type": "uint256"
        },
        {
          "components": [
            {
              "internalType": "uint16",
              "name": "schemaVersion",
              "type": "uint16"
            },
            {
              "internalType": "uint16",
              "name": "achievementType",
              "type": "uint16"
            },
            {
              "internalType": "uint64",
              "name": "awardedDate",
              "type": "uint64"
            },
            {
              "internalType": "uint64",
              "name": "validFrom",
              "type": "uint64"
            },
            {
              "internalType": "uint64",
              "name": "validUtil",
              "type": "uint64"
            },
            {
              "internalType": "string",
              "name": "issuerDid",
              "type": "string"
            },
            {
              "internalType": "string",
              "name": "achievementId",
              "type": "string"
            }
          ],
          "internalType": "struct CertificateNFTv1MetaData.MetaData",
          "name": "metadata",
          "type": "tuple"
        }
      ],
      "name": "mint",
      "outputs": [],
      "stateMutability": "nonpayable",
      "type": "function"
    },
    {
      "inputs": [],
      "name": "name",
      "outputs": [
        {
          "internalType": "string",
          "name": "tokenName",
          "type": "string"
        }
      ],
      "stateMutability": "view",
      "type": "function"
    },
    {
      "inputs": [],
      "name": "owner",
      "outputs": [
        {
          "internalType": "address",
          "name": "",
          "type": "address"
        }
      ],
      "stateMutability": "view",
      "type": "function"
    },
    {
      "inputs": [
        {
          "internalType": "uint256",
          "name": "tokenId",
          "type": "uint256"
        }
      ],
      "name": "ownerOf",
      "outputs": [
        {
          "internalType": "address",
          "name": "tokenOwner",
          "type": "address"
        }
      ],
      "stateMutability": "view",
      "type": "function"
    },
    {
      "inputs": [
        {
          "internalType": "bytes32",
          "name": "role",
          "type": "bytes32"
        }
      ],
      "name": "renounceRole",
      "outputs": [],
      "stateMutability": "nonpayable",
      "type": "function"
    },
    {
      "inputs": [
        {
          "internalType": "bytes32",
          "name": "role",
          "type": "bytes32"
        },
        {
          "internalType": "address",
          "name": "account",
          "type": "address"
        }
      ],
      "name": "revokeRole",
      "outputs": [],
      "stateMutability": "nonpayable",
      "type": "function"
    },
    {
      "inputs": [
        {
          "internalType": "address",
          "name": "from",
          "type": "address"
        },
        {
          "internalType": "address",
          "name": "to",
          "type": "address"
        },
        {
          "internalType": "uint256",
          "name": "tokenId",
          "type": "uint256"
        }
      ],
      "name": "safeTransferFrom",
      "outputs": [],
      "stateMutability": "nonpayable",
      "type": "function"
    },
    {
      "inputs": [
        {
          "internalType": "address",
          "name": "from",
          "type": "address"
        },
        {
          "internalType": "address",
          "name": "to",
          "type": "address"
        },
        {
          "internalType": "uint256",
          "name": "tokenId",
          "type": "uint256"
        },
        {
          "internalType": "bytes",
          "name": "data",
          "type": "bytes"
        }
      ],
      "name": "safeTransferFrom",
      "outputs": [],
      "stateMutability": "nonpayable",
      "type": "function"
    },
    {
      "inputs": [
        {
          "internalType": "address",
          "name": "operator",
          "type": "address"
        },
        {
          "internalType": "bool",
          "name": "approved",
          "type": "bool"
        }
      ],
      "name": "setApprovalForAll",
      "outputs": [],
      "stateMutability": "nonpayable",
      "type": "function"
    },
    {
      "inputs": [
        {
          "internalType": "contract IRevocationRegistry",
          "name": "revocationRegistry",
          "type": "address"
        }
      ],
      "name": "setRevocationRegistry",
      "outputs": [],
      "stateMutability": "nonpayable",
      "type": "function"
    },
    {
      "inputs": [
        {
          "internalType": "bytes4",
          "name": "interfaceId",
          "type": "bytes4"
        }
      ],
      "name": "supportsInterface",
      "outputs": [
        {
          "internalType": "bool",
          "name": "",
          "type": "bool"
        }
      ],
      "stateMutability": "view",
      "type": "function"
    },
    {
      "inputs": [],
      "name": "symbol",
      "outputs": [
        {
          "internalType": "string",
          "name": "tokenSymbol",
          "type": "string"
        }
      ],
      "stateMutability": "view",
      "type": "function"
    },
    {
      "inputs": [
        {
          "internalType": "uint256",
          "name": "tokenId",
          "type": "uint256"
        }
      ],
      "name": "tokenURI",
      "outputs": [
        {
          "internalType": "string",
          "name": "uri",
          "type": "string"
        }
      ],
      "stateMutability": "view",
      "type": "function"
    },
    {
      "inputs": [
        {
          "internalType": "address",
          "name": "from",
          "type": "address"
        },
        {
          "internalType": "address",
          "name": "to",
          "type": "address"
        },
        {
          "internalType": "uint256",
          "name": "tokenId",
          "type": "uint256"
        }
      ],
      "name": "transferFrom",
      "outputs": [],
      "stateMutability": "nonpayable",
      "type": "function"
    },
    {
      "inputs": [
        {
          "internalType": "address",
          "name": "newOwner",
          "type": "address"
        }
      ],
      "name": "transferOwnership",
      "outputs": [],
      "stateMutability": "nonpayable",
      "type": "function"
    },
    {
      "inputs": [
        {
          "internalType": "uint256",
          "name": "",
          "type": "uint256"
        }
      ],
      "name": "vcData",
      "outputs": [
        {
          "internalType": "uint16",
          "name": "schemaVersion",
          "type": "uint16"
        },
        {
          "internalType": "uint16",
          "name": "achievementType",
          "type": "uint16"
        },
        {
          "internalType": "uint64",
          "name": "awardedDate",
          "type": "uint64"
        },
        {
          "internalType": "uint64",
          "name": "validFrom",
          "type": "uint64"
        },
        {
          "internalType": "uint64",
          "name": "validUtil",
          "type": "uint64"
        },
        {
          "internalType": "string",
          "name": "issuerDid",
          "type": "string"
        },
        {
          "internalType": "string",
          "name": "achievementId",
          "type": "string"
        }
      ],
      "stateMutability": "view",
      "type": "function"
    }
  ],
  "bytecode": "0x60c06040523480156200001157600080fd5b50604051620032963803806200329683398101604081905262000034916200046c565b838062000040620000cf565b8888876200005d83838362000054620000e0565b92919062000116565b620000676200015d565b50505062000086816200007f6200017f60201b60201c565b90620001af565b506001600160a01b0316608052506200009e62000222565b6001600160a01b0390811660a052600080546001600160a01b0319169290911691909117905550620006d692505050565b6000620000db6200023a565b905090565b6000806200011060017f7ea68fd2dcf1c056b94db6a0a537aa80d26fa9ab1eacd85da1ba0b61b7e7a8a56200052c565b92915050565b83620001238482620005df565b5060018401620001348382620005df565b5060029390930180546001600160a01b0319166001600160a01b03909416939093179092555050565b6200017d635b5e139f60e01b600162000175620002fe565b91906200032e565b565b6000806200011060017fc9ed16f33ab3a66c84bfd83099ccb2a8845871e2e1c1928f63797152f0fd54cd6200052c565b6001600160a01b03811615620002065781546001600160a01b0319166001600160a01b03821690811783556040516000907f8be0079c531659141344cd1fd0a4f28419497f9722a3daafe3b4186f6b6457e0908290a35b6200021e6307f5828d60e41b600162000175620002fe565b5050565b6200017d6380ac58cd60e01b600162000175620002fe565b6000333214806200024b5750601836105b156200025657503390565b60805136601319013560601c906001600160a01b0316331480620002ec5750608051604051634494d46560e11b81526001600160a01b03838116600483015233602483015290911690638929a8ca90604401602060405180830381865afa158015620002c6573d6000803e3d6000fd5b505050506040513d601f19601f82011682018060405250810190620002ec9190620006ab565b15620002f757919050565b3391505090565b6000806200011060017fca9d3e17f264b0f3984e2634e94adb37fa3e6a8103f06aeae6fa59e21c769f5e6200052c565b600160e01b6001600160e01b03198316016200035d576040516372c683bb60e01b815260040160405180910390fd5b6001600160e01b03199190911660009081526020929092526040909120805460ff1916911515919091179055565b634e487b7160e01b600052604160045260246000fd5b600082601f830112620003b357600080fd5b81516001600160401b0380821115620003d057620003d06200038b565b604051601f8301601f19908116603f01168101908282118183101715620003fb57620003fb6200038b565b81604052838152602092508660208588010111156200041957600080fd5b600091505b838210156200043d57858201830151818301840152908201906200041e565b6000602085830101528094505050505092915050565b6001600160a01b03811681146200046957600080fd5b50565b60008060008060008060c087890312156200048657600080fd5b86516001600160401b03808211156200049e57600080fd5b620004ac8a838b01620003a1565b97506020890151915080821115620004c357600080fd5b50620004d289828a01620003a1565b9550506040870151620004e58162000453565b6060880151909450620004f88162000453565b60808801519093506200050b8162000453565b60a08801519092506200051e8162000453565b809150509295509295509295565b818103818111156200011057634e487b7160e01b600052601160045260246000fd5b600181811c908216806200056357607f821691505b6020821081036200058457634e487b7160e01b600052602260045260246000fd5b50919050565b601f821115620005da576000816000526020600020601f850160051c81016020861015620005b55750805b601f850160051c820191505b81811015620005d657828155600101620005c1565b5050505b505050565b81516001600160401b03811115620005fb57620005fb6200038b565b62000613816200060c84546200054e565b846200058a565b602080601f8311600181146200064b5760008415620006325750858301515b600019600386901b1c1916600185901b178555620005d6565b600085815260208120601f198616915b828110156200067c578886015182559484019460019091019084016200065b565b50858210156200069b5787850151600019600388901b60f8161c191681555b5050505050600190811b01905550565b600060208284031215620006be57600080fd5b81518015158114620006cf57600080fd5b9392505050565b60805160a051612b7e620007186000396000818161039a015261110d01526000818161027e0152818161032401528181611ed80152611f600152612b7e6000f3fe608060405234801561001057600080fd5b50600436106101da5760003560e01c80638bb9c5bf11610104578063b88d4fde116100a2578063e0ca1b1411610071578063e0ca1b1414610480578063e985e9c5146104a0578063f2fde38b146104b3578063f5b541a6146104c657600080fd5b8063b88d4fde14610420578063c87b56dd14610433578063d539139314610446578063d547741f1461046d57600080fd5b806395d89b41116100de57806395d89b41146103ea57806395f94bc4146103f2578063a0c76f6214610405578063a22cb4651461040d57600080fd5b80638bb9c5bf146103bc5780638da5cb5b146103cf57806391d14854146103d757600080fd5b806342842e0e1161017c578063572b6c051161014b578063572b6c05146103145780636352211e1461036157806370a082311461037457806387b202a01461039557600080fd5b806342842e0e146102b557806342966c68146102c85780634bae2be8146102db57806354c7be061461030157600080fd5b8063095ea7b3116101b8578063095ea7b31461025457806323b872dd146102695780632b4c9f161461027c5780632f2ff15d146102a257600080fd5b806301ffc9a7146101df57806306fdde0314610207578063081812fc1461021c575b600080fd5b6101f26101ed3660046121a5565b6104ed565b60405190151581526020015b60405180910390f35b61020f610507565b6040516101fe9190612230565b61022f61022a366004612243565b610516565b60405173ffffffffffffffffffffffffffffffffffffffff90911681526020016101fe565b61026761026236600461227e565b61052a565b005b6102676102773660046122aa565b61054b565b7f000000000000000000000000000000000000000000000000000000000000000061022f565b6102676102b03660046122eb565b61057f565b6102676102c33660046122aa565b6105b8565b6102676102d6366004612243565b6105e6565b6102ee6102e9366004612243565b6107ca565b6040516101fe979695949392919061231b565b61026761030f366004612382565b610951565b6101f26103223660046123e2565b7f000000000000000000000000000000000000000000000000000000000000000073ffffffffffffffffffffffffffffffffffffffff90811691161490565b61022f61036f366004612243565b6109c1565b6103876103823660046123e2565b6109cf565b6040519081526020016101fe565b61022f7f000000000000000000000000000000000000000000000000000000000000000081565b6102676103ca366004612243565b6109e3565b61022f610a01565b6101f26103e53660046122eb565b610a28565b61020f610a73565b6102676104003660046123e2565b610a7d565b61022f610ad7565b61026761041b36600461240d565b610b01565b61026761042e36600461243b565b610b1e565b61020f610441366004612243565b610b58565b6103877f6d696e746572000000000000000000000000000000000000000000000000000081565b61026761047b3660046122eb565b610b7b565b60005461022f9073ffffffffffffffffffffffffffffffffffffffff1681565b6101f26104ae3660046124da565b610ba9565b6102676104c13660046123e2565b610bf7565b6103877f6f70657261746f7200000000000000000000000000000000000000000000000081565b6000610501826104fb610c12565b90610c40565b92915050565b6060610511610d1a565b905090565b600061050182610524610d2c565b90610d5a565b610547610535610e0e565b838361053f610d2c565b929190610e18565b5050565b6000610555610e0e565b90506105618183611093565b61057981858585610570610d2c565b939291906111a9565b50505050565b6000610589610e0e565b905061059d81610597611487565b906114b5565b6105b38383836105ab611520565b92919061154e565b505050565b60006105c2610e0e565b90506105ce8183611093565b610579818585856105dd610d2c565b93929190611624565b60006001600083815260200190815260200160002060010160405161060b919061255b565b60405180910390209050600061062983610623610d2c565b9061166a565b6000546040517fa3a2656a000000000000000000000000000000000000000000000000000000008152600481018590526024810186905291925073ffffffffffffffffffffffffffffffffffffffff169063a3a2656a90604401602060405180830381865afa1580156106a0573d6000803e3d6000fd5b505050506040513d601f19601f820116820180604052508101906106c491906125ef565b15610789577fdead0000000000000000000000000000000000000000000000000000000000006106f2610d2c565b6000858152602091909152604090205561070a610d2c565b73ffffffffffffffffffffffffffffffffffffffff82166000818152600192909201602052604080832080547fffffffffffffffffffffffffffffffffffffffffffffffffffffffffffffffff01905551859291907fddf252ad1be2c89b69c2b068fc378daa952ba7f163c4a11628f55a4df523b3ef908390a4505050565b6040517faca9487600000000000000000000000000000000000000000000000000000000815260048101839052602481018490526044015b60405180910390fd5b60016020819052600091825260409091208054918101805461ffff808516946201000081049091169367ffffffffffffffff64010000000083048116946c010000000000000000000000008404821694740100000000000000000000000000000000000000009094049091169261084090612508565b80601f016020809104026020016040519081016040528092919081815260200182805461086c90612508565b80156108b95780601f1061088e576101008083540402835291602001916108b9565b820191906000526020600020905b81548152906001019060200180831161089c57829003601f168201915b5050505050908060020180546108ce90612508565b80601f01602080910402602001604051908101604052809291908181526020018280546108fa90612508565b80156109475780601f1061091c57610100808354040283529160200191610947565b820191906000526020600020905b81548152906001019060200180831161092a57829003601f168201915b5050505050905087565b61098c7f6d696e746572000000000000000000000000000000000000000000000000000061097d610e0e565b610985611520565b91906116d3565b6109a08383610999610d2c565b9190611759565b600082815260016020526040902081906109ba8282612837565b5050505050565b600061050182610623610d2c565b6000610501826109dd610d2c565b90611873565b6109fe6109ee610e0e565b826109f7611520565b91906118ef565b50565b6000610511610a0e611487565b5473ffffffffffffffffffffffffffffffffffffffff1690565b6000610a6c8383610a37611520565b60009283526020908152604080842073ffffffffffffffffffffffffffffffffffffffff909316845291905290205460ff1690565b9392505050565b6060610511611993565b610a90610a88610e0e565b610597611487565b600080547fffffffffffffffffffffffff00000000000000000000000000000000000000001673ffffffffffffffffffffffffffffffffffffffff92909216919091179055565b6000610511610ae46119a5565b6002015473ffffffffffffffffffffffffffffffffffffffff1690565b610547610b0c610e0e565b8383610b16610d2c565b9291906119d3565b6000610b28610e0e565b9050610b348185611093565b610b50818787878787610b45610d2c565b959493929190611aeb565b505050505050565b6060610b6682610623610d2c565b506105013083610b746119a5565b9190611b61565b6000610b85610e0e565b9050610b9381610597611487565b6105b3838383610ba1611520565b929190611c21565b6000610a6c8383610bb8610d2c565b919073ffffffffffffffffffffffffffffffffffffffff9182166000908152600393909301602090815260408085209290931684525290205460ff1690565b6109fe610c02610e0e565b82610c0b611487565b9190611ceb565b60008061050160017fca9d3e17f264b0f3984e2634e94adb37fa3e6a8103f06aeae6fa59e21c769f5e6129dd565b60007c01000000000000000000000000000000000000000000000000000000007fffffffff00000000000000000000000000000000000000000000000000000000831601610c9057506000610501565b7ffe003659000000000000000000000000000000000000000000000000000000007fffffffff00000000000000000000000000000000000000000000000000000000831601610ce157506001610501565b507fffffffff00000000000000000000000000000000000000000000000000000000166000908152602091909152604090205460ff1690565b6060610511610d276119a5565b611dff565b60008061050160017fddf3ee18ae6d688373c219468f8be446e7ae82215f4779d821c7ea5e8c13c0c16129dd565b60008181526020839052604081205473ffffffffffffffffffffffffffffffffffffffff8116610db9576040517fdd560475000000000000000000000000000000000000000000000000000000008152600481018490526024016107c1565b74010000000000000000000000000000000000000000811615610e04575050600081815260028301602052604090205473ffffffffffffffffffffffffffffffffffffffff16610501565b6000915050610501565b6000610511611e95565b60008181526020859052604090205473ffffffffffffffffffffffffffffffffffffffff8116610e77576040517fdd560475000000000000000000000000000000000000000000000000000000008152600481018390526024016107c1565b8073ffffffffffffffffffffffffffffffffffffffff80821690851603610ee2576040517fb7fdc01000000000000000000000000000000000000000000000000000000000815273ffffffffffffffffffffffffffffffffffffffff821660048201526024016107c1565b610eed868287611fdc565b610f4a576040517fc7563a1800000000000000000000000000000000000000000000000000000000815273ffffffffffffffffffffffffffffffffffffffff808716600483015282166024820152604481018490526064016107c1565b73ffffffffffffffffffffffffffffffffffffffff8416610faf5774010000000000000000000000000000000000000000821615610faa57600083815260208790526040902073ffffffffffffffffffffffffffffffffffffffff821690555b611030565b740100000000000000000000000000000000000000008217808314610fe05760008481526020889052604090208190555b506000838152600287016020526040902080547fffffffffffffffffffffffff00000000000000000000000000000000000000001673ffffffffffffffffffffffffffffffffffffffff86161790555b828473ffffffffffffffffffffffffffffffffffffffff168273ffffffffffffffffffffffffffffffffffffffff167f8c5be1e5ebec7d5bd14f71427d1e84f3dd0314c0f7b2291e5b200ac8c7c3b92560405160405180910390a4505050505050565b6000600160008381526020019081526020016000206001016040516110b8919061255b565b6040519081900381207ff9236a390000000000000000000000000000000000000000000000000000000082526004820181905273ffffffffffffffffffffffffffffffffffffffff85811660248401529092507f0000000000000000000000000000000000000000000000000000000000000000169063f9236a3990604401602060405180830381865afa158015611154573d6000803e3d6000fd5b505050506040513d601f19601f8201168201806040525081019061117891906125ef565b6105b3576105b37f6f70657261746f7200000000000000000000000000000000000000000000000084610985611520565b73ffffffffffffffffffffffffffffffffffffffff82166111f6576040517f86c8706700000000000000000000000000000000000000000000000000000000815260040160405180910390fd5b60008181526020869052604090205473ffffffffffffffffffffffffffffffffffffffff8116611255576040517fdd560475000000000000000000000000000000000000000000000000000000008152600481018390526024016107c1565b73ffffffffffffffffffffffffffffffffffffffff84168173ffffffffffffffffffffffffffffffffffffffff16146112d9576040517f14dbb53600000000000000000000000000000000000000000000000000000000815273ffffffffffffffffffffffffffffffffffffffff85166004820152602481018390526044016107c1565b6112e4868587611fdc565b6113935774010000000000000000000000000000000000000000811615806113355750600082815260028701602052604090205473ffffffffffffffffffffffffffffffffffffffff868116911614155b15611393576040517fa4a3018b00000000000000000000000000000000000000000000000000000000815273ffffffffffffffffffffffffffffffffffffffff808716600483015285166024820152604481018390526064016107c1565b600082815260208790526040902073ffffffffffffffffffffffffffffffffffffffff808516918290558516146114245773ffffffffffffffffffffffffffffffffffffffff80851660009081526001808901602052604080832080547fffffffffffffffffffffffffffffffffffffffffffffffffffffffffffffffff0190559286168252919020805490910190555b818373ffffffffffffffffffffffffffffffffffffffff168573ffffffffffffffffffffffffffffffffffffffff167fddf252ad1be2c89b69c2b068fc378daa952ba7f163c4a11628f55a4df523b3ef60405160405180910390a4505050505050565b60008061050160017fc9ed16f33ab3a66c84bfd83099ccb2a8845871e2e1c1928f63797152f0fd54cd6129dd565b815473ffffffffffffffffffffffffffffffffffffffff828116911614610547576040517f2ef4875e00000000000000000000000000000000000000000000000000000000815273ffffffffffffffffffffffffffffffffffffffff821660048201526024016107c1565b60008061050160017fc8827d3282af6f37b64c3e9e6f3ac9df286ab0bb0fccd6f8661bf19adb368b236129dd565b60008381526020858152604080832073ffffffffffffffffffffffffffffffffffffffff8616845290915290205460ff166105795760008381526020858152604080832073ffffffffffffffffffffffffffffffffffffffff8681168086529184529382902080547fffffffffffffffffffffffffffffffffffffffffffffffffffffffffffffff00166001179055815187815292830152918316918101919091527f2f8788117e7eff1d82e926ec794901d17c78024a50270940304540a733656f0d906060015b60405180910390a150505050565b61163185858585856111a9565b73ffffffffffffffffffffffffffffffffffffffff82163b156109ba576109ba8484848460405180602001604052806000815250612051565b60008181526020839052604081205473ffffffffffffffffffffffffffffffffffffffff81166116c9576040517fdd560475000000000000000000000000000000000000000000000000000000008152600481018490526024016107c1565b805b949350505050565b60008281526020848152604080832073ffffffffffffffffffffffffffffffffffffffff8516845290915290205460ff166105b3576040517f7aa728820000000000000000000000000000000000000000000000000000000081526004810183905273ffffffffffffffffffffffffffffffffffffffff821660248201526044016107c1565b73ffffffffffffffffffffffffffffffffffffffff82166117a6576040517f7851b9cd00000000000000000000000000000000000000000000000000000000815260040160405180910390fd5b60008181526020849052604090205473ffffffffffffffffffffffffffffffffffffffff1615611805576040517f753eceac000000000000000000000000000000000000000000000000000000008152600481018290526024016107c1565b60008181526020848152604080832073ffffffffffffffffffffffffffffffffffffffff86169081905580845260018088019093528184208054909301909255518392907fddf252ad1be2c89b69c2b068fc378daa952ba7f163c4a11628f55a4df523b3ef908290a4505050565b600073ffffffffffffffffffffffffffffffffffffffff82166118c2576040517faefbce4e00000000000000000000000000000000000000000000000000000000815260040160405180910390fd5b5073ffffffffffffffffffffffffffffffffffffffff166000908152600191909101602052604090205490565b6118fa8382846116d3565b60008181526020848152604080832073ffffffffffffffffffffffffffffffffffffffff86168085529083529281902080547fffffffffffffffffffffffffffffffffffffffffffffffffffffffffffffff0016905580518481529182018390528101919091527ff6391f5c32d9c69d2a47ea670b442974b53935d1edc7fd64eb21e047a839171b9060600160405180910390a1505050565b60606105116119a06119a5565b612166565b60008061050160017f7ea68fd2dcf1c056b94db6a0a537aa80d26fa9ab1eacd85da1ba0b61b7e7a8a56129dd565b8273ffffffffffffffffffffffffffffffffffffffff168273ffffffffffffffffffffffffffffffffffffffff1603611a50576040517fe4215c6a00000000000000000000000000000000000000000000000000000000815273ffffffffffffffffffffffffffffffffffffffff841660048201526024016107c1565b73ffffffffffffffffffffffffffffffffffffffff838116600081815260038701602090815260408083209487168084529482529182902080547fffffffffffffffffffffffffffffffffffffffffffffffffffffffffffffff001686151590811790915591519182527f17307eab39ab6107e8899845ad3d59bd9653f200f220920489ca2b5937696c31910160405180910390a350505050565b611af887878787876111a9565b73ffffffffffffffffffffffffffffffffffffffff84163b15611b5857611b588686868686868080601f01602080910402602001604051908101604052809392919081815260200183838082843760009201919091525061205192505050565b50505050505050565b60028301546040517ff724dad700000000000000000000000000000000000000000000000000000000815273ffffffffffffffffffffffffffffffffffffffff848116600483015260248201849052606092169063f724dad790604401600060405180830381865afa158015611bdb573d6000803e3d6000fd5b505050506040513d6000823e601f3d9081017fffffffffffffffffffffffffffffffffffffffffffffffffffffffffffffffe01682016040526116cb9190810190612a17565b60008381526020858152604080832073ffffffffffffffffffffffffffffffffffffffff8616845290915290205460ff16156105795760008381526020858152604080832073ffffffffffffffffffffffffffffffffffffffff8681168086529184529382902080547fffffffffffffffffffffffffffffffffffffffffffffffffffffffffffffff00169055815187815292830152918316918101919091527ff6391f5c32d9c69d2a47ea670b442974b53935d1edc7fd64eb21e047a839171b90606001611616565b825473ffffffffffffffffffffffffffffffffffffffff9081169083168114611d58576040517f2ef4875e00000000000000000000000000000000000000000000000000000000815273ffffffffffffffffffffffffffffffffffffffff841660048201526024016107c1565b8173ffffffffffffffffffffffffffffffffffffffff168173ffffffffffffffffffffffffffffffffffffffff16146105795783547fffffffffffffffffffffffff00000000000000000000000000000000000000001673ffffffffffffffffffffffffffffffffffffffff8381169182178655604051908316907f8be0079c531659141344cd1fd0a4f28419497f9722a3daafe3b4186f6b6457e090600090a350505050565b6060816000018054611e1090612508565b80601f0160208091040260200160405190810160405280929190818152602001828054611e3c90612508565b8015611e895780601f10611e5e57610100808354040283529160200191611e89565b820191906000526020600020905b815481529060010190602001808311611e6c57829003601f168201915b50505050509050919050565b600033321480611ea55750601836105b15611eaf57503390565b7fffffffffffffffffffffffffffffffffffffffffffffffffffffffffffffffec36013560601c7f000000000000000000000000000000000000000000000000000000000000000073ffffffffffffffffffffffffffffffffffffffff16331480611fcb57506040517f8929a8ca00000000000000000000000000000000000000000000000000000000815273ffffffffffffffffffffffffffffffffffffffff82811660048301523360248301527f00000000000000000000000000000000000000000000000000000000000000001690638929a8ca90604401602060405180830381865afa158015611fa7573d6000803e3d6000fd5b505050506040513d601f19601f82011682018060405250810190611fcb91906125ef565b15611fd557919050565b3391505090565b60008173ffffffffffffffffffffffffffffffffffffffff168373ffffffffffffffffffffffffffffffffffffffff1614806116cb57505073ffffffffffffffffffffffffffffffffffffffff9182166000908152600393909301602090815260408085209290931684525290205460ff1690565b6040517f150b7a02000000000000000000000000000000000000000000000000000000008082529073ffffffffffffffffffffffffffffffffffffffff85169063150b7a02906120ab908990899088908890600401612ae2565b6020604051808303816000875af11580156120ca573d6000803e3d6000fd5b505050506040513d601f19601f820116820180604052508101906120ee9190612b2b565b7fffffffff0000000000000000000000000000000000000000000000000000000016146109ba576040517fc215a7a100000000000000000000000000000000000000000000000000000000815273ffffffffffffffffffffffffffffffffffffffff84166004820152602481018390526044016107c1565b6060816001018054611e1090612508565b7fffffffff00000000000000000000000000000000000000000000000000000000811681146109fe57600080fd5b6000602082840312156121b757600080fd5b8135610a6c81612177565b60005b838110156121dd5781810151838201526020016121c5565b50506000910152565b600081518084526121fe8160208601602086016121c2565b601f017fffffffffffffffffffffffffffffffffffffffffffffffffffffffffffffffe0169290920160200192915050565b602081526000610a6c60208301846121e6565b60006020828403121561225557600080fd5b5035919050565b73ffffffffffffffffffffffffffffffffffffffff811681146109fe57600080fd5b6000806040838503121561229157600080fd5b823561229c8161225c565b946020939093013593505050565b6000806000606084860312156122bf57600080fd5b83356122ca8161225c565b925060208401356122da8161225c565b929592945050506040919091013590565b600080604083850312156122fe57600080fd5b8235915060208301356123108161225c565b809150509250929050565b61ffff88811682528716602082015267ffffffffffffffff868116604083015285811660608301528416608082015260e060a08201819052600090612362908301856121e6565b82810360c084015261237481856121e6565b9a9950505050505050505050565b60008060006060848603121561239757600080fd5b83356123a28161225c565b925060208401359150604084013567ffffffffffffffff8111156123c557600080fd5b840160e081870312156123d757600080fd5b809150509250925092565b6000602082840312156123f457600080fd5b8135610a6c8161225c565b80151581146109fe57600080fd5b6000806040838503121561242057600080fd5b823561242b8161225c565b91506020830135612310816123ff565b60008060008060006080868803121561245357600080fd5b853561245e8161225c565b9450602086013561246e8161225c565b935060408601359250606086013567ffffffffffffffff8082111561249257600080fd5b818801915088601f8301126124a657600080fd5b8135818111156124b557600080fd5b8960208285010111156124c757600080fd5b9699959850939650602001949392505050565b600080604083850312156124ed57600080fd5b82356124f88161225c565b915060208301356123108161225c565b600181811c9082168061251c57607f821691505b602082108103612555577f4e487b7100000000000000000000000000000000000000000000000000000000600052602260045260246000fd5b50919050565b600080835461256981612508565b6001828116801561258157600181146125b4576125e3565b7fffffffffffffffffffffffffffffffffffffffffffffffffffffffffffffff00841687528215158302870194506125e3565b8760005260208060002060005b858110156125da5781548a8201529084019082016125c1565b50505082870194505b50929695505050505050565b60006020828403121561260157600080fd5b8151610a6c816123ff565b6000813561ffff8116811461050157600080fd5b6000813567ffffffffffffffff8116811461050157600080fd5b60008083357fffffffffffffffffffffffffffffffffffffffffffffffffffffffffffffffe184360301811261266f57600080fd5b83018035915067ffffffffffffffff82111561268a57600080fd5b60200191503681900382131561269f57600080fd5b9250929050565b7f4e487b7100000000000000000000000000000000000000000000000000000000600052604160045260246000fd5b601f8211156105b3576000816000526020600020601f850160051c810160208610156126fe5750805b601f850160051c820191505b81811015610b505782815560010161270a565b67ffffffffffffffff831115612735576127356126a6565b612749836127438354612508565b836126d5565b6000601f84116001811461279b57600085156127655750838201355b7fffffffffffffffffffffffffffffffffffffffffffffffffffffffffffffffff600387901b1c1916600186901b1783556109ba565b6000838152602090207fffffffffffffffffffffffffffffffffffffffffffffffffffffffffffffffe0861690835b828110156127ea57868501358255602094850194600190920191016127ca565b5086821015612825577fffffffffffffffffffffffffffffffffffffffffffffffffffffffffffffffff60f88860031b161c19848701351681555b505060018560011b0183555050505050565b61ffff6128438361260c565b168154817fffffffffffffffffffffffffffffffffffffffffffffffffffffffffffff0000821617835563ffff000061287e6020860161260c565b60101b1680837fffffffffffffffffffffffffffffffffffffffffffffffffffffffff000000008416171784556bffffffffffffffff000000006128c460408701612620565b60201b16837fffffffffffffffffffffffffffffffffffffffff000000000000000000000000841617821717845550505061294961290460608401612620565b82547fffffffffffffffffffffffff0000000000000000ffffffffffffffffffffffff1660609190911b73ffffffffffffffff00000000000000000000000016178255565b6129a561295860808401612620565b82547fffffffff0000000000000000ffffffffffffffffffffffffffffffffffffffff1660a09190911b7bffffffffffffffff000000000000000000000000000000000000000016178255565b6129b260a083018361263a565b6129c081836001860161271d565b50506129cf60c083018361263a565b61057981836002860161271d565b81810381811115610501577f4e487b7100000000000000000000000000000000000000000000000000000000600052601160045260246000fd5b600060208284031215612a2957600080fd5b815167ffffffffffffffff80821115612a4157600080fd5b818401915084601f830112612a5557600080fd5b815181811115612a6757612a676126a6565b604051601f82017fffffffffffffffffffffffffffffffffffffffffffffffffffffffffffffffe0908116603f01168101908382118183101715612aad57612aad6126a6565b81604052828152876020848701011115612ac657600080fd5b612ad78360208301602088016121c2565b979650505050505050565b600073ffffffffffffffffffffffffffffffffffffffff808716835280861660208401525083604083015260806060830152612b2160808301846121e6565b9695505050505050565b600060208284031215612b3d57600080fd5b8151610a6c8161217756fea2646970667358221220d7226d93bae6ef6372e8435ec7ed6990f9ba13521e0a0440020b8f423e2739ac64736f6c63430008160033",
  "linkReferences": {},
  "deployedLinkReferences": {}
}