{
  "_format": "hh-sol-artifact-1",
  "contractName": "OpenCampusCertificateNFTv1",
  "sourceName": "contracts/vc/OpenCampusCertificateNFTv1.sol",
  "abi": [
    {
      "inputs": [
        {
          "internalType": "string",
          "name": "tokenName",
          "type": "string"
        },
        {
          "internalType": "string",
          "name": "tokenSymbol",
          "type": "string"
        },
        {
          "internalType": "contract ITokenMetadataResolver",
          "name": "metadataResolver",
          "type": "address"
        },
        {
          "internalType": "contract IRevocationRegistry",
          "name": "revocationRegistry",
          "type": "address"
        }
      ],
      "stateMutability": "nonpayable",
      "type": "constructor"
    },
    {
      "inputs": [],
      "name": "ERC721BalanceOfAddressZero",
      "type": "error"
    },
    {
      "inputs": [
        {
          "internalType": "uint256",
          "name": "tokenId",
          "type": "uint256"
        }
      ],
      "name": "ERC721ExistingToken",
      "type": "error"
    },
    {
      "inputs": [],
      "name": "ERC721MintToAddressZero",
      "type": "error"
    },
    {
      "inputs": [
        {
          "internalType": "uint256",
          "name": "tokenId",
          "type": "uint256"
        }
      ],
      "name": "ERC721NonExistingToken",
      "type": "error"
    },
    {
      "inputs": [],
      "name": "IllegalInterfaceId",
      "type": "error"
    },
    {
      "inputs": [],
      "name": "InvalidBurn",
      "type": "error"
    },
    {
      "inputs": [],
      "name": "NoOperatorAllowed",
      "type": "error"
    },
    {
      "inputs": [
        {
          "internalType": "address",
          "name": "account",
          "type": "address"
        }
      ],
      "name": "NotContractOwner",
      "type": "error"
    },
    {
      "inputs": [
        {
          "internalType": "bytes32",
          "name": "role",
          "type": "bytes32"
        },
        {
          "internalType": "address",
          "name": "account",
          "type": "address"
        }
      ],
      "name": "NotRoleHolder",
      "type": "error"
    },
    {
      "inputs": [],
      "name": "TransferNotAllowed",
      "type": "error"
    },
    {
      "anonymous": false,
      "inputs": [
        {
          "indexed": true,
          "internalType": "address",
          "name": "previousOwner",
          "type": "address"
        },
        {
          "indexed": true,
          "internalType": "address",
          "name": "newOwner",
          "type": "address"
        }
      ],
      "name": "OwnershipTransferred",
      "type": "event"
    },
    {
      "anonymous": false,
      "inputs": [
        {
          "indexed": false,
          "internalType": "bytes32",
          "name": "role",
          "type": "bytes32"
        },
        {
          "indexed": false,
          "internalType": "address",
          "name": "account",
          "type": "address"
        },
        {
          "indexed": false,
          "internalType": "address",
          "name": "operator",
          "type": "address"
        }
      ],
      "name": "RoleGranted",
      "type": "event"
    },
    {
      "anonymous": false,
      "inputs": [
        {
          "indexed": false,
          "internalType": "bytes32",
          "name": "role",
          "type": "bytes32"
        },
        {
          "indexed": false,
          "internalType": "address",
          "name": "account",
          "type": "address"
        },
        {
          "indexed": false,
          "internalType": "address",
          "name": "operator",
          "type": "address"
        }
      ],
      "name": "RoleRevoked",
      "type": "event"
    },
    {
      "anonymous": false,
      "inputs": [
        {
          "indexed": true,
          "internalType": "address",
          "name": "from",
          "type": "address"
        },
        {
          "indexed": true,
          "internalType": "address",
          "name": "to",
          "type": "address"
        },
        {
          "indexed": true,
          "internalType": "uint256",
          "name": "tokenId",
          "type": "uint256"
        }
      ],
      "name": "Transfer",
      "type": "event"
    },
    {
      "inputs": [],
      "name": "MINTER_ROLE",
      "outputs": [
        {
          "internalType": "bytes32",
          "name": "",
          "type": "bytes32"
        }
      ],
      "stateMutability": "view",
      "type": "function"
    },
    {
      "inputs": [
        {
          "internalType": "address",
          "name": "to",
          "type": "address"
        },
        {
          "internalType": "uint256",
          "name": "tokenId",
          "type": "uint256"
        }
      ],
      "name": "approve",
      "outputs": [],
      "stateMutability": "nonpayable",
      "type": "function"
    },
    {
      "inputs": [
        {
          "internalType": "address",
          "name": "owner",
          "type": "address"
        }
      ],
      "name": "balanceOf",
      "outputs": [
        {
          "internalType": "uint256",
          "name": "balance",
          "type": "uint256"
        }
      ],
      "stateMutability": "view",
      "type": "function"
    },
    {
      "inputs": [
        {
          "internalType": "uint256",
          "name": "tokenId",
          "type": "uint256"
        }
      ],
      "name": "burn",
      "outputs": [],
      "stateMutability": "nonpayable",
      "type": "function"
    },
    {
      "inputs": [
        {
          "internalType": "uint256",
          "name": "tokenId",
          "type": "uint256"
        }
      ],
      "name": "getApproved",
      "outputs": [
        {
          "internalType": "address",
          "name": "approved",
          "type": "address"
        }
      ],
      "stateMutability": "view",
      "type": "function"
    },
    {
      "inputs": [
        {
          "internalType": "bytes32",
          "name": "role",
          "type": "bytes32"
        },
        {
          "internalType": "address",
          "name": "account",
          "type": "address"
        }
      ],
      "name": "grantRole",
      "outputs": [],
      "stateMutability": "nonpayable",
      "type": "function"
    },
    {
      "inputs": [
        {
          "internalType": "bytes32",
          "name": "role",
          "type": "bytes32"
        },
        {
          "internalType": "address",
          "name": "account",
          "type": "address"
        }
      ],
      "name": "hasRole",
      "outputs": [
        {
          "internalType": "bool",
          "name": "hasRole_",
          "type": "bool"
        }
      ],
      "stateMutability": "view",
      "type": "function"
    },
    {
      "inputs": [
        {
          "internalType": "address",
          "name": "owner",
          "type": "address"
        },
        {
          "internalType": "address",
          "name": "operator",
          "type": "address"
        }
      ],
      "name": "isApprovedForAll",
      "outputs": [
        {
          "internalType": "bool",
          "name": "approvedForAll",
          "type": "bool"
        }
      ],
      "stateMutability": "view",
      "type": "function"
    },
    {
      "inputs": [],
      "name": "metadataResolver",
      "outputs": [
        {
          "internalType": "contract ITokenMetadataResolver",
          "name": "tokenMetadataResolver",
          "type": "address"
        }
      ],
      "stateMutability": "view",
      "type": "function"
    },
    {
      "inputs": [
        {
          "internalType": "address",
          "name": "to",
          "type": "address"
        },
        {
          "internalType": "uint256",
          "name": "tokenId",
          "type": "uint256"
        },
        {
          "components": [
            {
              "internalType": "uint16",
              "name": "schemaVersion",
              "type": "uint16"
            },
            {
              "internalType": "uint16",
              "name": "achievementType",
              "type": "uint16"
            },
            {
              "internalType": "uint64",
              "name": "awardedDate",
              "type": "uint64"
            },
            {
              "internalType": "uint64",
              "name": "validFrom",
              "type": "uint64"
            },
            {
              "internalType": "uint64",
              "name": "validUtil",
              "type": "uint64"
            },
            {
              "internalType": "string",
              "name": "issuerDid",
              "type": "string"
            },
            {
              "internalType": "string",
              "name": "achievementId",
              "type": "string"
            }
          ],
          "internalType": "struct CertificateNFTv1MetaData.MetaData",
          "name": "metadata",
          "type": "tuple"
        }
      ],
      "name": "mint",
      "outputs": [],
      "stateMutability": "nonpayable",
      "type": "function"
    },
    {
      "inputs": [],
      "name": "name",
      "outputs": [
        {
          "internalType": "string",
          "name": "tokenName",
          "type": "string"
        }
      ],
      "stateMutability": "view",
      "type": "function"
    },
    {
      "inputs": [],
      "name": "owner",
      "outputs": [
        {
          "internalType": "address",
          "name": "",
          "type": "address"
        }
      ],
      "stateMutability": "view",
      "type": "function"
    },
    {
      "inputs": [
        {
          "internalType": "uint256",
          "name": "tokenId",
          "type": "uint256"
        }
      ],
      "name": "ownerOf",
      "outputs": [
        {
          "internalType": "address",
          "name": "tokenOwner",
          "type": "address"
        }
      ],
      "stateMutability": "view",
      "type": "function"
    },
    {
      "inputs": [
        {
          "internalType": "bytes32",
          "name": "role",
          "type": "bytes32"
        }
      ],
      "name": "renounceRole",
      "outputs": [],
      "stateMutability": "nonpayable",
      "type": "function"
    },
    {
      "inputs": [
        {
          "internalType": "bytes32",
          "name": "role",
          "type": "bytes32"
        },
        {
          "internalType": "address",
          "name": "account",
          "type": "address"
        }
      ],
      "name": "revokeRole",
      "outputs": [],
      "stateMutability": "nonpayable",
      "type": "function"
    },
    {
      "inputs": [
        {
          "internalType": "address",
          "name": "from",
          "type": "address"
        },
        {
          "internalType": "address",
          "name": "to",
          "type": "address"
        },
        {
          "internalType": "uint256",
          "name": "tokenId",
          "type": "uint256"
        }
      ],
      "name": "safeTransferFrom",
      "outputs": [],
      "stateMutability": "nonpayable",
      "type": "function"
    },
    {
      "inputs": [
        {
          "internalType": "address",
          "name": "from",
          "type": "address"
        },
        {
          "internalType": "address",
          "name": "to",
          "type": "address"
        },
        {
          "internalType": "uint256",
          "name": "tokenId",
          "type": "uint256"
        },
        {
          "internalType": "bytes",
          "name": "data",
          "type": "bytes"
        }
      ],
      "name": "safeTransferFrom",
      "outputs": [],
      "stateMutability": "nonpayable",
      "type": "function"
    },
    {
      "inputs": [
        {
          "internalType": "address",
          "name": "operator",
          "type": "address"
        },
        {
          "internalType": "bool",
          "name": "approved",
          "type": "bool"
        }
      ],
      "name": "setApprovalForAll",
      "outputs": [],
      "stateMutability": "nonpayable",
      "type": "function"
    },
    {
      "inputs": [
        {
          "internalType": "contract IRevocationRegistry",
          "name": "revocationRegistry",
          "type": "address"
        }
      ],
      "name": "setRevocationRegistry",
      "outputs": [],
      "stateMutability": "nonpayable",
      "type": "function"
    },
    {
      "inputs": [
        {
          "internalType": "bytes4",
          "name": "interfaceId",
          "type": "bytes4"
        }
      ],
      "name": "supportsInterface",
      "outputs": [
        {
          "internalType": "bool",
          "name": "",
          "type": "bool"
        }
      ],
      "stateMutability": "view",
      "type": "function"
    },
    {
      "inputs": [],
      "name": "symbol",
      "outputs": [
        {
          "internalType": "string",
          "name": "tokenSymbol",
          "type": "string"
        }
      ],
      "stateMutability": "view",
      "type": "function"
    },
    {
      "inputs": [
        {
          "internalType": "uint256",
          "name": "tokenId",
          "type": "uint256"
        }
      ],
      "name": "tokenURI",
      "outputs": [
        {
          "internalType": "string",
          "name": "uri",
          "type": "string"
        }
      ],
      "stateMutability": "view",
      "type": "function"
    },
    {
      "inputs": [
        {
          "internalType": "address",
          "name": "from",
          "type": "address"
        },
        {
          "internalType": "address",
          "name": "to",
          "type": "address"
        },
        {
          "internalType": "uint256",
          "name": "tokenId",
          "type": "uint256"
        }
      ],
      "name": "transferFrom",
      "outputs": [],
      "stateMutability": "nonpayable",
      "type": "function"
    },
    {
      "inputs": [
        {
          "internalType": "address",
          "name": "newOwner",
          "type": "address"
        }
      ],
      "name": "transferOwnership",
      "outputs": [],
      "stateMutability": "nonpayable",
      "type": "function"
    },
    {
      "inputs": [
        {
          "internalType": "uint256",
          "name": "",
          "type": "uint256"
        }
      ],
      "name": "vcData",
      "outputs": [
        {
          "internalType": "uint16",
          "name": "schemaVersion",
          "type": "uint16"
        },
        {
          "internalType": "uint16",
          "name": "achievementType",
          "type": "uint16"
        },
        {
          "internalType": "uint64",
          "name": "awardedDate",
          "type": "uint64"
        },
        {
          "internalType": "uint64",
          "name": "validFrom",
          "type": "uint64"
        },
        {
          "internalType": "uint64",
          "name": "validUtil",
          "type": "uint64"
        },
        {
          "internalType": "string",
          "name": "issuerDid",
          "type": "string"
        },
        {
          "internalType": "string",
          "name": "achievementId",
          "type": "string"
        }
      ],
      "stateMutability": "view",
      "type": "function"
    }
  ],
  "bytecode": "0x60806040523480156200001157600080fd5b50604051620022ef380380620022ef833981016040819052620000349162000373565b338484846200005283838362000049620000b0565b929190620000e6565b6200005c6200012d565b5050506200007b81620000746200014f60201b60201c565b906200017f565b5062000086620001f2565b600080546001600160a01b0319166001600160a01b03929092169190911790555062000586915050565b600080620000e060017f7ea68fd2dcf1c056b94db6a0a537aa80d26fa9ab1eacd85da1ba0b61b7e7a8a562000407565b92915050565b83620000f38482620004ba565b5060018401620001048382620004ba565b5060029390930180546001600160a01b0319166001600160a01b03909416939093179092555050565b6200014d635b5e139f60e01b60016200014562000205565b919062000235565b565b600080620000e060017fc9ed16f33ab3a66c84bfd83099ccb2a8845871e2e1c1928f63797152f0fd54cd62000407565b6001600160a01b03811615620001d65781546001600160a01b0319166001600160a01b03821690811783556040516000907f8be0079c531659141344cd1fd0a4f28419497f9722a3daafe3b4186f6b6457e0908290a35b620001ee6307f5828d60e41b60016200014562000205565b5050565b6200014d638e773e1360e01b6001620001455b600080620000e060017fca9d3e17f264b0f3984e2634e94adb37fa3e6a8103f06aeae6fa59e21c769f5e62000407565b600160e01b6001600160e01b031983160162000264576040516372c683bb60e01b815260040160405180910390fd5b6001600160e01b03199190911660009081526020929092526040909120805460ff1916911515919091179055565b634e487b7160e01b600052604160045260246000fd5b600082601f830112620002ba57600080fd5b81516001600160401b0380821115620002d757620002d762000292565b604051601f8301601f19908116603f0116810190828211818310171562000302576200030262000292565b81604052838152602092508660208588010111156200032057600080fd5b600091505b8382101562000344578582018301518183018401529082019062000325565b6000602085830101528094505050505092915050565b6001600160a01b03811681146200037057600080fd5b50565b600080600080608085870312156200038a57600080fd5b84516001600160401b0380821115620003a257600080fd5b620003b088838901620002a8565b95506020870151915080821115620003c757600080fd5b50620003d687828801620002a8565b9350506040850151620003e9816200035a565b6060860151909250620003fc816200035a565b939692955090935050565b81810381811115620000e057634e487b7160e01b600052601160045260246000fd5b600181811c908216806200043e57607f821691505b6020821081036200045f57634e487b7160e01b600052602260045260246000fd5b50919050565b601f821115620004b5576000816000526020600020601f850160051c81016020861015620004905750805b601f850160051c820191505b81811015620004b1578281556001016200049c565b5050505b505050565b81516001600160401b03811115620004d657620004d662000292565b620004ee81620004e7845462000429565b8462000465565b602080601f8311600181146200052657600084156200050d5750858301515b600019600386901b1c1916600185901b178555620004b1565b600085815260208120601f198616915b82811015620005575788860151825594840194600190910190840162000536565b5085821015620005765787850151600019600388901b60f8161c191681555b5050505050600190811b01905550565b611d5980620005966000396000f3fe608060405234801561001057600080fd5b50600436106101a35760003560e01c80638bb9c5bf116100ee578063a22cb46511610097578063d539139311610071578063d539139314610358578063d547741f1461037f578063e985e9c514610392578063f2fde38b146103a057600080fd5b8063a22cb46514610324578063b88d4fde14610337578063c87b56dd1461034557600080fd5b806395d89b41116100c857806395d89b411461030157806395f94bc414610309578063a0c76f621461031c57600080fd5b80638bb9c5bf146102d35780638da5cb5b146102e657806391d14854146102ee57600080fd5b806342842e0e1161015057806354c7be061161012a57806354c7be061461028c5780636352211e1461029f57806370a08231146102b257600080fd5b806342842e0e1461023257806342966c68146102535780634bae2be81461026657600080fd5b8063095ea7b311610181578063095ea7b31461021d57806323b872dd146102325780632f2ff15d1461024057600080fd5b806301ffc9a7146101a857806306fdde03146101d0578063081812fc146101e5575b600080fd5b6101bb6101b63660046113b9565b6103b3565b60405190151581526020015b60405180910390f35b6101d86103cd565b6040516101c79190611469565b6101f86101f336600461147c565b6103dc565b60405173ffffffffffffffffffffffffffffffffffffffff90911681526020016101c7565b61023061022b3660046114b7565b610410565b005b61023061022b3660046114e3565b61023061024e366004611524565b610442565b61023061026136600461147c565b610470565b61027961027436600461147c565b610672565b6040516101c79796959493929190611554565b61023061029a3660046115bb565b6107f9565b6101f86102ad36600461147c565b610862565b6102c56102c036600461161b565b610870565b6040519081526020016101c7565b6102306102e136600461147c565b610884565b6101f861089b565b6101bb6102fc366004611524565b6108c2565b6101d861090d565b61023061031736600461161b565b610917565b6101f861096a565b610230610332366004611646565b610994565b61023061022b366004611674565b6101d861035336600461147c565b6109c6565b6102c57f6d696e746572000000000000000000000000000000000000000000000000000081565b61023061038d366004611524565b6109e9565b6101bb6101f3366004611713565b6102306103ae36600461161b565b610a0c565b60006103c7826103c1610a20565b90610a4e565b92915050565b60606103d7610b28565b905090565b60006040517f5211920d00000000000000000000000000000000000000000000000000000000815260040160405180910390fd5b6040517f8cd22d1900000000000000000000000000000000000000000000000000000000815260040160405180910390fd5b336104558161044f610b3a565b90610b68565b61046b838383610463610bd8565b929190610c06565b505050565b6000818152600160208181526040808420905161049293919091019101611794565b604080518083037fffffffffffffffffffffffffffffffffffffffffffffffffffffffffffffffe00181529082905280516020909101206000547fa3a2656a000000000000000000000000000000000000000000000000000000008352600483018290526024830185905290925073ffffffffffffffffffffffffffffffffffffffff169063a3a2656a90604401602060405180830381865afa15801561053d573d6000803e3d6000fd5b505050506040513d601f19601f820116820180604052508101906105619190611828565b1561063c57600061057a83610574610cdd565b90610d0b565b90507fdead0000000000000000000000000000000000000000000000000000000000006105a5610cdd565b600085815260209190915260409020556105bd610cdd565b73ffffffffffffffffffffffffffffffffffffffff82166000818152600192909201602052604080832080547fffffffffffffffffffffffffffffffffffffffffffffffffffffffffffffffff01905551859291907fddf252ad1be2c89b69c2b068fc378daa952ba7f163c4a11628f55a4df523b3ef908390a4505050565b6040517feeddf6ab00000000000000000000000000000000000000000000000000000000815260040160405180910390fd5b5050565b60016020819052600091825260409091208054918101805461ffff808516946201000081049091169367ffffffffffffffff64010000000083048116946c01000000000000000000000000840482169474010000000000000000000000000000000000000000909404909116926106e890611741565b80601f016020809104026020016040519081016040528092919081815260200182805461071490611741565b80156107615780601f1061073657610100808354040283529160200191610761565b820191906000526020600020905b81548152906001019060200180831161074457829003601f168201915b50505050509080600201805461077690611741565b80601f01602080910402602001604051908101604052809291908181526020018280546107a290611741565b80156107ef5780601f106107c4576101008083540402835291602001916107ef565b820191906000526020600020905b8154815290600101906020018083116107d257829003601f168201915b5050505050905087565b61082d7f6d696e746572000000000000000000000000000000000000000000000000000033610826610bd8565b9190610d74565b610841838361083a610cdd565b9190610dfa565b6000828152600160205260409020819061085b8282611a78565b5050505050565b60006103c782610574610cdd565b60006103c78261087e610cdd565b90610f14565b6108983382610891610bd8565b9190610f90565b50565b60006103d76108a8610b3a565b5473ffffffffffffffffffffffffffffffffffffffff1690565b600061090683836108d1610bd8565b60009283526020908152604080842073ffffffffffffffffffffffffffffffffffffffff909316845291905290205460ff1690565b9392505050565b60606103d7611034565b6109233361044f610b3a565b600080547fffffffffffffffffffffffff00000000000000000000000000000000000000001673ffffffffffffffffffffffffffffffffffffffff92909216919091179055565b60006103d7610977611046565b6002015473ffffffffffffffffffffffffffffffffffffffff1690565b6040517f5211920d00000000000000000000000000000000000000000000000000000000815260040160405180910390fd5b60606109d482610574610cdd565b506103c730836109e2611046565b9190611074565b336109f68161044f610b3a565b61046b838383610a04610bd8565b929190611134565b6108983382610a19610b3a565b91906111fe565b6000806103c760017fca9d3e17f264b0f3984e2634e94adb37fa3e6a8103f06aeae6fa59e21c769f5e611c1e565b60007c01000000000000000000000000000000000000000000000000000000007fffffffff00000000000000000000000000000000000000000000000000000000831601610a9e575060006103c7565b7ffe003659000000000000000000000000000000000000000000000000000000007fffffffff00000000000000000000000000000000000000000000000000000000831601610aef575060016103c7565b507fffffffff00000000000000000000000000000000000000000000000000000000166000908152602091909152604090205460ff1690565b60606103d7610b35611046565b611312565b6000806103c760017fc9ed16f33ab3a66c84bfd83099ccb2a8845871e2e1c1928f63797152f0fd54cd611c1e565b815473ffffffffffffffffffffffffffffffffffffffff82811691161461066e576040517f2ef4875e00000000000000000000000000000000000000000000000000000000815273ffffffffffffffffffffffffffffffffffffffff821660048201526024015b60405180910390fd5b6000806103c760017fc8827d3282af6f37b64c3e9e6f3ac9df286ab0bb0fccd6f8661bf19adb368b23611c1e565b60008381526020858152604080832073ffffffffffffffffffffffffffffffffffffffff8616845290915290205460ff16610cd75760008381526020858152604080832073ffffffffffffffffffffffffffffffffffffffff8681168086529184529382902080547fffffffffffffffffffffffffffffffffffffffffffffffffffffffffffffff00166001179055815187815292830152918316918101919091527f2f8788117e7eff1d82e926ec794901d17c78024a50270940304540a733656f0d906060015b60405180910390a15b50505050565b6000806103c760017fddf3ee18ae6d688373c219468f8be446e7ae82215f4779d821c7ea5e8c13c0c1611c1e565b60008181526020839052604081205473ffffffffffffffffffffffffffffffffffffffff8116610d6a576040517fdd56047500000000000000000000000000000000000000000000000000000000815260048101849052602401610bcf565b805b949350505050565b60008281526020848152604080832073ffffffffffffffffffffffffffffffffffffffff8516845290915290205460ff1661046b576040517f7aa728820000000000000000000000000000000000000000000000000000000081526004810183905273ffffffffffffffffffffffffffffffffffffffff82166024820152604401610bcf565b73ffffffffffffffffffffffffffffffffffffffff8216610e47576040517f7851b9cd00000000000000000000000000000000000000000000000000000000815260040160405180910390fd5b60008181526020849052604090205473ffffffffffffffffffffffffffffffffffffffff1615610ea6576040517f753eceac00000000000000000000000000000000000000000000000000000000815260048101829052602401610bcf565b60008181526020848152604080832073ffffffffffffffffffffffffffffffffffffffff86169081905580845260018088019093528184208054909301909255518392907fddf252ad1be2c89b69c2b068fc378daa952ba7f163c4a11628f55a4df523b3ef908290a4505050565b600073ffffffffffffffffffffffffffffffffffffffff8216610f63576040517faefbce4e00000000000000000000000000000000000000000000000000000000815260040160405180910390fd5b5073ffffffffffffffffffffffffffffffffffffffff166000908152600191909101602052604090205490565b610f9b838284610d74565b60008181526020848152604080832073ffffffffffffffffffffffffffffffffffffffff86168085529083529281902080547fffffffffffffffffffffffffffffffffffffffffffffffffffffffffffffff0016905580518481529182018390528101919091527ff6391f5c32d9c69d2a47ea670b442974b53935d1edc7fd64eb21e047a839171b9060600160405180910390a1505050565b60606103d7611041611046565b6113a8565b6000806103c760017f7ea68fd2dcf1c056b94db6a0a537aa80d26fa9ab1eacd85da1ba0b61b7e7a8a5611c1e565b60028301546040517ff724dad700000000000000000000000000000000000000000000000000000000815273ffffffffffffffffffffffffffffffffffffffff848116600483015260248201849052606092169063f724dad790604401600060405180830381865afa1580156110ee573d6000803e3d6000fd5b505050506040513d6000823e601f3d9081017fffffffffffffffffffffffffffffffffffffffffffffffffffffffffffffffe0168201604052610d6c9190810190611c58565b60008381526020858152604080832073ffffffffffffffffffffffffffffffffffffffff8616845290915290205460ff1615610cd75760008381526020858152604080832073ffffffffffffffffffffffffffffffffffffffff8681168086529184529382902080547fffffffffffffffffffffffffffffffffffffffffffffffffffffffffffffff00169055815187815292830152918316918101919091527ff6391f5c32d9c69d2a47ea670b442974b53935d1edc7fd64eb21e047a839171b90606001610cce565b825473ffffffffffffffffffffffffffffffffffffffff908116908316811461126b576040517f2ef4875e00000000000000000000000000000000000000000000000000000000815273ffffffffffffffffffffffffffffffffffffffff84166004820152602401610bcf565b8173ffffffffffffffffffffffffffffffffffffffff168173ffffffffffffffffffffffffffffffffffffffff1614610cd75783547fffffffffffffffffffffffff00000000000000000000000000000000000000001673ffffffffffffffffffffffffffffffffffffffff8381169182178655604051908316907f8be0079c531659141344cd1fd0a4f28419497f9722a3daafe3b4186f6b6457e090600090a350505050565b606081600001805461132390611741565b80601f016020809104026020016040519081016040528092919081815260200182805461134f90611741565b801561139c5780601f106113715761010080835404028352916020019161139c565b820191906000526020600020905b81548152906001019060200180831161137f57829003601f168201915b50505050509050919050565b606081600101805461132390611741565b6000602082840312156113cb57600080fd5b81357fffffffff000000000000000000000000000000000000000000000000000000008116811461090657600080fd5b60005b838110156114165781810151838201526020016113fe565b50506000910152565b600081518084526114378160208601602086016113fb565b601f017fffffffffffffffffffffffffffffffffffffffffffffffffffffffffffffffe0169290920160200192915050565b602081526000610906602083018461141f565b60006020828403121561148e57600080fd5b5035919050565b73ffffffffffffffffffffffffffffffffffffffff8116811461089857600080fd5b600080604083850312156114ca57600080fd5b82356114d581611495565b946020939093013593505050565b6000806000606084860312156114f857600080fd5b833561150381611495565b9250602084013561151381611495565b929592945050506040919091013590565b6000806040838503121561153757600080fd5b82359150602083013561154981611495565b809150509250929050565b61ffff88811682528716602082015267ffffffffffffffff868116604083015285811660608301528416608082015260e060a0820181905260009061159b9083018561141f565b82810360c08401526115ad818561141f565b9a9950505050505050505050565b6000806000606084860312156115d057600080fd5b83356115db81611495565b925060208401359150604084013567ffffffffffffffff8111156115fe57600080fd5b840160e0818703121561161057600080fd5b809150509250925092565b60006020828403121561162d57600080fd5b813561090681611495565b801515811461089857600080fd5b6000806040838503121561165957600080fd5b823561166481611495565b9150602083013561154981611638565b60008060008060006080868803121561168c57600080fd5b853561169781611495565b945060208601356116a781611495565b935060408601359250606086013567ffffffffffffffff808211156116cb57600080fd5b818801915088601f8301126116df57600080fd5b8135818111156116ee57600080fd5b89602082850101111561170057600080fd5b9699959850939650602001949392505050565b6000806040838503121561172657600080fd5b823561173181611495565b9150602083013561154981611495565b600181811c9082168061175557607f821691505b60208210810361178e577f4e487b7100000000000000000000000000000000000000000000000000000000600052602260045260246000fd5b50919050565b60008083546117a281611741565b600182811680156117ba57600181146117ed5761181c565b7fffffffffffffffffffffffffffffffffffffffffffffffffffffffffffffff008416875282151583028701945061181c565b8760005260208060002060005b858110156118135781548a8201529084019082016117fa565b50505082870194505b50929695505050505050565b60006020828403121561183a57600080fd5b815161090681611638565b6000813561ffff811681146103c757600080fd5b6000813567ffffffffffffffff811681146103c757600080fd5b60008083357fffffffffffffffffffffffffffffffffffffffffffffffffffffffffffffffe18436030181126118a857600080fd5b83018035915067ffffffffffffffff8211156118c357600080fd5b6020019150368190038213156118d857600080fd5b9250929050565b7f4e487b7100000000000000000000000000000000000000000000000000000000600052604160045260246000fd5b601f82111561046b576000816000526020600020601f850160051c810160208610156119375750805b601f850160051c820191505b8181101561195657828155600101611943565b505050505050565b67ffffffffffffffff831115611976576119766118df565b61198a836119848354611741565b8361190e565b6000601f8411600181146119dc57600085156119a65750838201355b7fffffffffffffffffffffffffffffffffffffffffffffffffffffffffffffffff600387901b1c1916600186901b17835561085b565b6000838152602090207fffffffffffffffffffffffffffffffffffffffffffffffffffffffffffffffe0861690835b82811015611a2b5786850135825560209485019460019092019101611a0b565b5086821015611a66577fffffffffffffffffffffffffffffffffffffffffffffffffffffffffffffffff60f88860031b161c19848701351681555b505060018560011b0183555050505050565b61ffff611a8483611845565b168154817fffffffffffffffffffffffffffffffffffffffffffffffffffffffffffff0000821617835563ffff0000611abf60208601611845565b60101b1680837fffffffffffffffffffffffffffffffffffffffffffffffffffffffff000000008416171784556bffffffffffffffff00000000611b0560408701611859565b60201b16837fffffffffffffffffffffffffffffffffffffffff0000000000000000000000008416178217178455505050611b8a611b4560608401611859565b82547fffffffffffffffffffffffff0000000000000000ffffffffffffffffffffffff1660609190911b73ffffffffffffffff00000000000000000000000016178255565b611be6611b9960808401611859565b82547fffffffff0000000000000000ffffffffffffffffffffffffffffffffffffffff1660a09190911b7bffffffffffffffff000000000000000000000000000000000000000016178255565b611bf360a0830183611873565b611c0181836001860161195e565b5050611c1060c0830183611873565b610cd781836002860161195e565b818103818111156103c7577f4e487b7100000000000000000000000000000000000000000000000000000000600052601160045260246000fd5b600060208284031215611c6a57600080fd5b815167ffffffffffffffff80821115611c8257600080fd5b818401915084601f830112611c9657600080fd5b815181811115611ca857611ca86118df565b604051601f82017fffffffffffffffffffffffffffffffffffffffffffffffffffffffffffffffe0908116603f01168101908382118183101715611cee57611cee6118df565b81604052828152876020848701011115611d0757600080fd5b611d188360208301602088016113fb565b97965050505050505056fea2646970667358221220d13c50e31ce312acf4034b563a8b5166879ef319687584a095f1b0f5a7dd24e364736f6c63430008160033",
  "linkReferences": {},
  "deployedLinkReferences": {}
}