{
  "_format": "hh-sol-artifact-1",
  "contractName": "OpenCampusCertificateNFTv1",
  "sourceName": "contracts/vc/OpenCampusCertificateNFTv1.sol",
  "abi": [
    {
      "inputs": [
        {
          "internalType": "string",
          "name": "tokenName",
          "type": "string"
        },
        {
          "internalType": "string",
          "name": "tokenSymbol",
          "type": "string"
        },
        {
          "internalType": "contract IForwarderRegistry",
          "name": "forwarderRegistry",
          "type": "address"
        },
        {
          "internalType": "contract ITokenMetadataResolver",
          "name": "metadataResolver",
          "type": "address"
        },
        {
          "internalType": "contract IRevocationRegistry",
          "name": "revocationRegistry_",
          "type": "address"
        },
        {
          "internalType": "contract IIssuersDIDRegistry",
          "name": "didRegistry",
          "type": "address"
        }
      ],
      "stateMutability": "nonpayable",
      "type": "constructor"
    },
    {
      "inputs": [],
      "name": "ERC721BalanceOfAddressZero",
      "type": "error"
    },
    {
      "inputs": [
        {
          "internalType": "uint256",
          "name": "tokenId",
          "type": "uint256"
        }
      ],
      "name": "ERC721ExistingToken",
      "type": "error"
    },
    {
      "inputs": [],
      "name": "ERC721MintToAddressZero",
      "type": "error"
    },
    {
      "inputs": [
        {
          "internalType": "address",
          "name": "sender",
          "type": "address"
        },
        {
          "internalType": "address",
          "name": "owner",
          "type": "address"
        },
        {
          "internalType": "uint256",
          "name": "tokenId",
          "type": "uint256"
        }
      ],
      "name": "ERC721NonApprovedForApproval",
      "type": "error"
    },
    {
      "inputs": [
        {
          "internalType": "address",
          "name": "sender",
          "type": "address"
        },
        {
          "internalType": "address",
          "name": "owner",
          "type": "address"
        },
        {
          "internalType": "uint256",
          "name": "tokenId",
          "type": "uint256"
        }
      ],
      "name": "ERC721NonApprovedForTransfer",
      "type": "error"
    },
    {
      "inputs": [
        {
          "internalType": "uint256",
          "name": "tokenId",
          "type": "uint256"
        }
      ],
      "name": "ERC721NonExistingToken",
      "type": "error"
    },
    {
      "inputs": [
        {
          "internalType": "address",
          "name": "account",
          "type": "address"
        },
        {
          "internalType": "uint256",
          "name": "tokenId",
          "type": "uint256"
        }
      ],
      "name": "ERC721NonOwnedToken",
      "type": "error"
    },
    {
      "inputs": [
        {
          "internalType": "address",
          "name": "recipient",
          "type": "address"
        },
        {
          "internalType": "uint256",
          "name": "tokenId",
          "type": "uint256"
        }
      ],
      "name": "ERC721SafeTransferRejected",
      "type": "error"
    },
    {
      "inputs": [
        {
          "internalType": "address",
          "name": "account",
          "type": "address"
        }
      ],
      "name": "ERC721SelfApproval",
      "type": "error"
    },
    {
      "inputs": [
        {
          "internalType": "address",
          "name": "account",
          "type": "address"
        }
      ],
      "name": "ERC721SelfApprovalForAll",
      "type": "error"
    },
    {
      "inputs": [],
      "name": "ERC721TransferToAddressZero",
      "type": "error"
    },
    {
      "inputs": [],
      "name": "IllegalInterfaceId",
      "type": "error"
    },
    {
      "inputs": [
        {
          "internalType": "address",
          "name": "account",
          "type": "address"
        }
      ],
      "name": "NotContractOwner",
      "type": "error"
    },
    {
      "inputs": [
        {
          "internalType": "bytes32",
          "name": "role",
          "type": "bytes32"
        },
        {
          "internalType": "address",
          "name": "account",
          "type": "address"
        }
      ],
      "name": "NotRoleHolder",
      "type": "error"
    },
    {
      "inputs": [
        {
          "internalType": "bytes32",
          "name": "hashedDid",
          "type": "bytes32"
        },
        {
          "internalType": "uint256",
          "name": "tokenId",
          "type": "uint256"
        }
      ],
      "name": "VcNotRevoked",
      "type": "error"
    },
    {
      "anonymous": false,
      "inputs": [
        {
          "indexed": true,
          "internalType": "address",
          "name": "owner",
          "type": "address"
        },
        {
          "indexed": true,
          "internalType": "address",
          "name": "approved",
          "type": "address"
        },
        {
          "indexed": true,
          "internalType": "uint256",
          "name": "tokenId",
          "type": "uint256"
        }
      ],
      "name": "Approval",
      "type": "event"
    },
    {
      "anonymous": false,
      "inputs": [
        {
          "indexed": true,
          "internalType": "address",
          "name": "owner",
          "type": "address"
        },
        {
          "indexed": true,
          "internalType": "address",
          "name": "operator",
          "type": "address"
        },
        {
          "indexed": false,
          "internalType": "bool",
          "name": "approved",
          "type": "bool"
        }
      ],
      "name": "ApprovalForAll",
      "type": "event"
    },
    {
      "anonymous": false,
      "inputs": [
        {
          "indexed": true,
          "internalType": "address",
          "name": "previousOwner",
          "type": "address"
        },
        {
          "indexed": true,
          "internalType": "address",
          "name": "newOwner",
          "type": "address"
        }
      ],
      "name": "OwnershipTransferred",
      "type": "event"
    },
    {
      "anonymous": false,
      "inputs": [
        {
          "indexed": false,
          "internalType": "bytes32",
          "name": "role",
          "type": "bytes32"
        },
        {
          "indexed": false,
          "internalType": "address",
          "name": "account",
          "type": "address"
        },
        {
          "indexed": false,
          "internalType": "address",
          "name": "operator",
          "type": "address"
        }
      ],
      "name": "RoleGranted",
      "type": "event"
    },
    {
      "anonymous": false,
      "inputs": [
        {
          "indexed": false,
          "internalType": "bytes32",
          "name": "role",
          "type": "bytes32"
        },
        {
          "indexed": false,
          "internalType": "address",
          "name": "account",
          "type": "address"
        },
        {
          "indexed": false,
          "internalType": "address",
          "name": "operator",
          "type": "address"
        }
      ],
      "name": "RoleRevoked",
      "type": "event"
    },
    {
      "anonymous": false,
      "inputs": [
        {
          "indexed": true,
          "internalType": "address",
          "name": "from",
          "type": "address"
        },
        {
          "indexed": true,
          "internalType": "address",
          "name": "to",
          "type": "address"
        },
        {
          "indexed": true,
          "internalType": "uint256",
          "name": "tokenId",
          "type": "uint256"
        }
      ],
      "name": "Transfer",
      "type": "event"
    },
    {
      "inputs": [],
      "name": "DID_REGISTRY",
      "outputs": [
        {
          "internalType": "contract IIssuersDIDRegistry",
          "name": "",
          "type": "address"
        }
      ],
      "stateMutability": "view",
      "type": "function"
    },
    {
      "inputs": [],
      "name": "MINTER_ROLE",
      "outputs": [
        {
          "internalType": "bytes32",
          "name": "",
          "type": "bytes32"
        }
      ],
      "stateMutability": "view",
      "type": "function"
    },
    {
      "inputs": [],
      "name": "OPERATOR_ROLE",
      "outputs": [
        {
          "internalType": "bytes32",
          "name": "",
          "type": "bytes32"
        }
      ],
      "stateMutability": "view",
      "type": "function"
    },
    {
      "inputs": [
        {
          "internalType": "address",
          "name": "to",
          "type": "address"
        },
        {
          "internalType": "uint256",
          "name": "tokenId",
          "type": "uint256"
        }
      ],
      "name": "approve",
      "outputs": [],
      "stateMutability": "nonpayable",
      "type": "function"
    },
    {
      "inputs": [
        {
          "internalType": "address",
          "name": "owner",
          "type": "address"
        }
      ],
      "name": "balanceOf",
      "outputs": [
        {
          "internalType": "uint256",
          "name": "balance",
          "type": "uint256"
        }
      ],
      "stateMutability": "view",
      "type": "function"
    },
    {
      "inputs": [
        {
          "internalType": "uint256",
          "name": "tokenId",
          "type": "uint256"
        }
      ],
      "name": "burn",
      "outputs": [],
      "stateMutability": "nonpayable",
      "type": "function"
    },
    {
      "inputs": [],
      "name": "forwarderRegistry",
      "outputs": [
        {
          "internalType": "contract IForwarderRegistry",
          "name": "",
          "type": "address"
        }
      ],
      "stateMutability": "view",
      "type": "function"
    },
    {
      "inputs": [
        {
          "internalType": "uint256",
          "name": "tokenId",
          "type": "uint256"
        }
      ],
      "name": "getApproved",
      "outputs": [
        {
          "internalType": "address",
          "name": "approved",
          "type": "address"
        }
      ],
      "stateMutability": "view",
      "type": "function"
    },
    {
      "inputs": [
        {
          "internalType": "bytes32",
          "name": "role",
          "type": "bytes32"
        },
        {
          "internalType": "address",
          "name": "account",
          "type": "address"
        }
      ],
      "name": "grantRole",
      "outputs": [],
      "stateMutability": "nonpayable",
      "type": "function"
    },
    {
      "inputs": [
        {
          "internalType": "bytes32",
          "name": "role",
          "type": "bytes32"
        },
        {
          "internalType": "address",
          "name": "account",
          "type": "address"
        }
      ],
      "name": "hasRole",
      "outputs": [
        {
          "internalType": "bool",
          "name": "hasRole_",
          "type": "bool"
        }
      ],
      "stateMutability": "view",
      "type": "function"
    },
    {
      "inputs": [
        {
          "internalType": "address",
          "name": "owner",
          "type": "address"
        },
        {
          "internalType": "address",
          "name": "operator",
          "type": "address"
        }
      ],
      "name": "isApprovedForAll",
      "outputs": [
        {
          "internalType": "bool",
          "name": "approvedForAll",
          "type": "bool"
        }
      ],
      "stateMutability": "view",
      "type": "function"
    },
    {
      "inputs": [
        {
          "internalType": "address",
          "name": "forwarder",
          "type": "address"
        }
      ],
      "name": "isTrustedForwarder",
      "outputs": [
        {
          "internalType": "bool",
          "name": "",
          "type": "bool"
        }
      ],
      "stateMutability": "view",
      "type": "function"
    },
    {
      "inputs": [],
      "name": "metadataResolver",
      "outputs": [
        {
          "internalType": "contract ITokenMetadataResolver",
          "name": "tokenMetadataResolver",
          "type": "address"
        }
      ],
      "stateMutability": "view",
      "type": "function"
    },
    {
      "inputs": [
        {
          "internalType": "address",
          "name": "to",
          "type": "address"
        },
        {
          "internalType": "uint256",
          "name": "tokenId",
          "type": "uint256"
        },
        {
          "components": [
            {
              "internalType": "uint16",
              "name": "schemaVersion",
              "type": "uint16"
            },
            {
              "internalType": "uint16",
              "name": "achievementType",
              "type": "uint16"
            },
            {
              "internalType": "uint64",
              "name": "awardedDate",
              "type": "uint64"
            },
            {
              "internalType": "uint64",
              "name": "validFrom",
              "type": "uint64"
            },
            {
              "internalType": "uint64",
              "name": "validUtil",
              "type": "uint64"
            },
            {
              "internalType": "string",
              "name": "issuerDid",
              "type": "string"
            },
            {
              "internalType": "string",
              "name": "achievementId",
              "type": "string"
            }
          ],
          "internalType": "struct CertificateNFTv1MetaData.MetaData",
          "name": "metadata",
          "type": "tuple"
        }
      ],
      "name": "mint",
      "outputs": [],
      "stateMutability": "nonpayable",
      "type": "function"
    },
    {
      "inputs": [],
      "name": "name",
      "outputs": [
        {
          "internalType": "string",
          "name": "tokenName",
          "type": "string"
        }
      ],
      "stateMutability": "view",
      "type": "function"
    },
    {
      "inputs": [],
      "name": "owner",
      "outputs": [
        {
          "internalType": "address",
          "name": "",
          "type": "address"
        }
      ],
      "stateMutability": "view",
      "type": "function"
    },
    {
      "inputs": [
        {
          "internalType": "uint256",
          "name": "tokenId",
          "type": "uint256"
        }
      ],
      "name": "ownerOf",
      "outputs": [
        {
          "internalType": "address",
          "name": "tokenOwner",
          "type": "address"
        }
      ],
      "stateMutability": "view",
      "type": "function"
    },
    {
      "inputs": [
        {
          "internalType": "bytes32",
          "name": "role",
          "type": "bytes32"
        }
      ],
      "name": "renounceRole",
      "outputs": [],
      "stateMutability": "nonpayable",
      "type": "function"
    },
    {
      "inputs": [],
      "name": "revocationRegistry",
      "outputs": [
        {
          "internalType": "contract IRevocationRegistry",
          "name": "",
          "type": "address"
        }
      ],
      "stateMutability": "view",
      "type": "function"
    },
    {
      "inputs": [
        {
          "internalType": "bytes32",
          "name": "role",
          "type": "bytes32"
        },
        {
          "internalType": "address",
          "name": "account",
          "type": "address"
        }
      ],
      "name": "revokeRole",
      "outputs": [],
      "stateMutability": "nonpayable",
      "type": "function"
    },
    {
      "inputs": [
        {
          "internalType": "address",
          "name": "from",
          "type": "address"
        },
        {
          "internalType": "address",
          "name": "to",
          "type": "address"
        },
        {
          "internalType": "uint256",
          "name": "tokenId",
          "type": "uint256"
        }
      ],
      "name": "safeTransferFrom",
      "outputs": [],
      "stateMutability": "nonpayable",
      "type": "function"
    },
    {
      "inputs": [
        {
          "internalType": "address",
          "name": "from",
          "type": "address"
        },
        {
          "internalType": "address",
          "name": "to",
          "type": "address"
        },
        {
          "internalType": "uint256",
          "name": "tokenId",
          "type": "uint256"
        },
        {
          "internalType": "bytes",
          "name": "data",
          "type": "bytes"
        }
      ],
      "name": "safeTransferFrom",
      "outputs": [],
      "stateMutability": "nonpayable",
      "type": "function"
    },
    {
      "inputs": [
        {
          "internalType": "address",
          "name": "operator",
          "type": "address"
        },
        {
          "internalType": "bool",
          "name": "approved",
          "type": "bool"
        }
      ],
      "name": "setApprovalForAll",
      "outputs": [],
      "stateMutability": "nonpayable",
      "type": "function"
    },
    {
      "inputs": [
        {
          "internalType": "contract IRevocationRegistry",
          "name": "revocationRegistry_",
          "type": "address"
        }
      ],
      "name": "setRevocationRegistry",
      "outputs": [],
      "stateMutability": "nonpayable",
      "type": "function"
    },
    {
      "inputs": [
        {
          "internalType": "bytes4",
          "name": "interfaceId",
          "type": "bytes4"
        }
      ],
      "name": "supportsInterface",
      "outputs": [
        {
          "internalType": "bool",
          "name": "",
          "type": "bool"
        }
      ],
      "stateMutability": "view",
      "type": "function"
    },
    {
      "inputs": [],
      "name": "symbol",
      "outputs": [
        {
          "internalType": "string",
          "name": "tokenSymbol",
          "type": "string"
        }
      ],
      "stateMutability": "view",
      "type": "function"
    },
    {
      "inputs": [
        {
          "internalType": "uint256",
          "name": "tokenId",
          "type": "uint256"
        }
      ],
      "name": "tokenURI",
      "outputs": [
        {
          "internalType": "string",
          "name": "uri",
          "type": "string"
        }
      ],
      "stateMutability": "view",
      "type": "function"
    },
    {
      "inputs": [
        {
          "internalType": "address",
          "name": "from",
          "type": "address"
        },
        {
          "internalType": "address",
          "name": "to",
          "type": "address"
        },
        {
          "internalType": "uint256",
          "name": "tokenId",
          "type": "uint256"
        }
      ],
      "name": "transferFrom",
      "outputs": [],
      "stateMutability": "nonpayable",
      "type": "function"
    },
    {
      "inputs": [
        {
          "internalType": "address",
          "name": "newOwner",
          "type": "address"
        }
      ],
      "name": "transferOwnership",
      "outputs": [],
      "stateMutability": "nonpayable",
      "type": "function"
    },
    {
      "inputs": [
        {
          "internalType": "uint256",
          "name": "",
          "type": "uint256"
        }
      ],
      "name": "vcData",
      "outputs": [
        {
          "internalType": "uint16",
          "name": "schemaVersion",
          "type": "uint16"
        },
        {
          "internalType": "uint16",
          "name": "achievementType",
          "type": "uint16"
        },
        {
          "internalType": "uint64",
          "name": "awardedDate",
          "type": "uint64"
        },
        {
          "internalType": "uint64",
          "name": "validFrom",
          "type": "uint64"
        },
        {
          "internalType": "uint64",
          "name": "validUtil",
          "type": "uint64"
        },
        {
          "internalType": "string",
          "name": "issuerDid",
          "type": "string"
        },
        {
          "internalType": "string",
          "name": "achievementId",
          "type": "string"
        }
      ],
      "stateMutability": "view",
      "type": "function"
    }
  ],
  "bytecode": "0x60c06040523480156200001157600080fd5b506040516200318638038062003186833981016040819052620000349162000389565b838033888887620000548383836200004b620000c6565b929190620000fc565b6200005e62000143565b5050506200007d81620000766200016560201b60201c565b9062000195565b506001600160a01b0316608052506200009562000208565b6001600160a01b0390811660a052600080546001600160a01b0319169290911691909117905550620005c892505050565b600080620000f660017f7ea68fd2dcf1c056b94db6a0a537aa80d26fa9ab1eacd85da1ba0b61b7e7a8a562000449565b92915050565b83620001098482620004fc565b50600184016200011a8382620004fc565b5060029390930180546001600160a01b0319166001600160a01b03909416939093179092555050565b62000163635b5e139f60e01b60016200015b6200021b565b91906200024b565b565b600080620000f660017fc9ed16f33ab3a66c84bfd83099ccb2a8845871e2e1c1928f63797152f0fd54cd62000449565b6001600160a01b03811615620001ec5781546001600160a01b0319166001600160a01b03821690811783556040516000907f8be0079c531659141344cd1fd0a4f28419497f9722a3daafe3b4186f6b6457e0908290a35b620002046307f5828d60e41b60016200015b6200021b565b5050565b620001636380ac58cd60e01b60016200015b5b600080620000f660017fca9d3e17f264b0f3984e2634e94adb37fa3e6a8103f06aeae6fa59e21c769f5e62000449565b600160e01b6001600160e01b03198316016200027a576040516372c683bb60e01b815260040160405180910390fd5b6001600160e01b03199190911660009081526020929092526040909120805460ff1916911515919091179055565b634e487b7160e01b600052604160045260246000fd5b600082601f830112620002d057600080fd5b81516001600160401b0380821115620002ed57620002ed620002a8565b604051601f8301601f19908116603f01168101908282118183101715620003185762000318620002a8565b81604052838152602092508660208588010111156200033657600080fd5b600091505b838210156200035a57858201830151818301840152908201906200033b565b6000602085830101528094505050505092915050565b6001600160a01b03811681146200038657600080fd5b50565b60008060008060008060c08789031215620003a357600080fd5b86516001600160401b0380821115620003bb57600080fd5b620003c98a838b01620002be565b97506020890151915080821115620003e057600080fd5b50620003ef89828a01620002be565b9550506040870151620004028162000370565b6060880151909450620004158162000370565b6080880151909350620004288162000370565b60a08801519092506200043b8162000370565b809150509295509295509295565b81810381811115620000f657634e487b7160e01b600052601160045260246000fd5b600181811c908216806200048057607f821691505b602082108103620004a157634e487b7160e01b600052602260045260246000fd5b50919050565b601f821115620004f7576000816000526020600020601f850160051c81016020861015620004d25750805b601f850160051c820191505b81811015620004f357828155600101620004de565b5050505b505050565b81516001600160401b03811115620005185762000518620002a8565b62000530816200052984546200046b565b84620004a7565b602080601f8311600181146200056857600084156200054f5750858301515b600019600386901b1c1916600185901b178555620004f3565b600085815260208120601f198616915b82811015620005995788860151825594840194600190910190840162000578565b5085821015620005b85787850151600019600388901b60f8161c191681555b5050505050600190811b01905550565b60805160a051612b7c6200060a6000396000818161039a015261110b01526000818161027e0152818161032401528181611ed60152611f5e0152612b7c6000f3fe608060405234801561001057600080fd5b50600436106101da5760003560e01c80638bb9c5bf11610104578063b88d4fde116100a2578063e985e9c511610071578063e985e9c514610480578063f0f2740d14610493578063f2fde38b146104b3578063f5b541a6146104c657600080fd5b8063b88d4fde14610420578063c87b56dd14610433578063d539139314610446578063d547741f1461046d57600080fd5b806395d89b41116100de57806395d89b41146103ea57806395f94bc4146103f2578063a0c76f6214610405578063a22cb4651461040d57600080fd5b80638bb9c5bf146103bc5780638da5cb5b146103cf57806391d14854146103d757600080fd5b806342842e0e1161017c578063572b6c051161014b578063572b6c05146103145780636352211e1461036157806370a082311461037457806387b202a01461039557600080fd5b806342842e0e146102b557806342966c68146102c85780634bae2be8146102db57806354c7be061461030157600080fd5b8063095ea7b3116101b8578063095ea7b31461025457806323b872dd146102695780632b4c9f161461027c5780632f2ff15d146102a257600080fd5b806301ffc9a7146101df57806306fdde0314610207578063081812fc1461021c575b600080fd5b6101f26101ed3660046121a3565b6104ed565b60405190151581526020015b60405180910390f35b61020f610507565b6040516101fe919061222e565b61022f61022a366004612241565b610516565b60405173ffffffffffffffffffffffffffffffffffffffff90911681526020016101fe565b61026761026236600461227c565b61052a565b005b6102676102773660046122a8565b61054b565b7f000000000000000000000000000000000000000000000000000000000000000061022f565b6102676102b03660046122e9565b61057f565b6102676102c33660046122a8565b6105b8565b6102676102d6366004612241565b6105e6565b6102ee6102e9366004612241565b6107c8565b6040516101fe9796959493929190612319565b61026761030f366004612380565b61094f565b6101f26103223660046123e0565b7f000000000000000000000000000000000000000000000000000000000000000073ffffffffffffffffffffffffffffffffffffffff90811691161490565b61022f61036f366004612241565b6109bf565b6103876103823660046123e0565b6109cd565b6040519081526020016101fe565b61022f7f000000000000000000000000000000000000000000000000000000000000000081565b6102676103ca366004612241565b6109e1565b61022f6109ff565b6101f26103e53660046122e9565b610a26565b61020f610a71565b6102676104003660046123e0565b610a7b565b61022f610ad5565b61026761041b36600461240b565b610aff565b61026761042e366004612439565b610b1c565b61020f610441366004612241565b610b56565b6103877f6d696e746572000000000000000000000000000000000000000000000000000081565b61026761047b3660046122e9565b610b79565b6101f261048e3660046124d8565b610ba7565b60005461022f9073ffffffffffffffffffffffffffffffffffffffff1681565b6102676104c13660046123e0565b610bf5565b6103877f6f70657261746f7200000000000000000000000000000000000000000000000081565b6000610501826104fb610c10565b90610c3e565b92915050565b6060610511610d18565b905090565b600061050182610524610d2a565b90610d58565b610547610535610e0c565b838361053f610d2a565b929190610e16565b5050565b6000610555610e0c565b90506105618183611091565b61057981858585610570610d2a565b939291906111a7565b50505050565b6000610589610e0c565b905061059d81610597611485565b906114b3565b6105b38383836105ab61151e565b92919061154c565b505050565b60006105c2610e0c565b90506105ce8183611091565b610579818585856105dd610d2a565b93929190611622565b60006105fa826105f4610d2a565b90611668565b90506000600160008481526020019081526020016000206001016040516106219190612559565b6040519081900381206000547fa3a2656a000000000000000000000000000000000000000000000000000000008352600483018290526024830186905290925073ffffffffffffffffffffffffffffffffffffffff169063a3a2656a90604401602060405180830381865afa15801561069e573d6000803e3d6000fd5b505050506040513d601f19601f820116820180604052508101906106c291906125ed565b15610787577fdead0000000000000000000000000000000000000000000000000000000000006106f0610d2a565b60008581526020919091526040902055610708610d2a565b73ffffffffffffffffffffffffffffffffffffffff83166000818152600192909201602052604080832080547fffffffffffffffffffffffffffffffffffffffffffffffffffffffffffffffff01905551859291907fddf252ad1be2c89b69c2b068fc378daa952ba7f163c4a11628f55a4df523b3ef908390a4505050565b6040517fa0258a6a00000000000000000000000000000000000000000000000000000000815260048101829052602481018490526044015b60405180910390fd5b60016020819052600091825260409091208054918101805461ffff808516946201000081049091169367ffffffffffffffff64010000000083048116946c010000000000000000000000008404821694740100000000000000000000000000000000000000009094049091169261083e90612506565b80601f016020809104026020016040519081016040528092919081815260200182805461086a90612506565b80156108b75780601f1061088c576101008083540402835291602001916108b7565b820191906000526020600020905b81548152906001019060200180831161089a57829003601f168201915b5050505050908060020180546108cc90612506565b80601f01602080910402602001604051908101604052809291908181526020018280546108f890612506565b80156109455780601f1061091a57610100808354040283529160200191610945565b820191906000526020600020905b81548152906001019060200180831161092857829003601f168201915b5050505050905087565b61098a7f6d696e746572000000000000000000000000000000000000000000000000000061097b610e0c565b61098361151e565b91906116d1565b61099e8383610997610d2a565b9190611757565b600082815260016020526040902081906109b88282612835565b5050505050565b6000610501826105f4610d2a565b6000610501826109db610d2a565b90611871565b6109fc6109ec610e0c565b826109f561151e565b91906118ed565b50565b6000610511610a0c611485565b5473ffffffffffffffffffffffffffffffffffffffff1690565b6000610a6a8383610a3561151e565b60009283526020908152604080842073ffffffffffffffffffffffffffffffffffffffff909316845291905290205460ff1690565b9392505050565b6060610511611991565b610a8e610a86610e0c565b610597611485565b600080547fffffffffffffffffffffffff00000000000000000000000000000000000000001673ffffffffffffffffffffffffffffffffffffffff92909216919091179055565b6000610511610ae26119a3565b6002015473ffffffffffffffffffffffffffffffffffffffff1690565b610547610b0a610e0c565b8383610b14610d2a565b9291906119d1565b6000610b26610e0c565b9050610b328185611091565b610b4e818787878787610b43610d2a565b959493929190611ae9565b505050505050565b6060610b64826105f4610d2a565b506105013083610b726119a3565b9190611b5f565b6000610b83610e0c565b9050610b9181610597611485565b6105b3838383610b9f61151e565b929190611c1f565b6000610a6a8383610bb6610d2a565b919073ffffffffffffffffffffffffffffffffffffffff9182166000908152600393909301602090815260408085209290931684525290205460ff1690565b6109fc610c00610e0c565b82610c09611485565b9190611ce9565b60008061050160017fca9d3e17f264b0f3984e2634e94adb37fa3e6a8103f06aeae6fa59e21c769f5e6129db565b60007c01000000000000000000000000000000000000000000000000000000007fffffffff00000000000000000000000000000000000000000000000000000000831601610c8e57506000610501565b7ffe003659000000000000000000000000000000000000000000000000000000007fffffffff00000000000000000000000000000000000000000000000000000000831601610cdf57506001610501565b507fffffffff00000000000000000000000000000000000000000000000000000000166000908152602091909152604090205460ff1690565b6060610511610d256119a3565b611dfd565b60008061050160017fddf3ee18ae6d688373c219468f8be446e7ae82215f4779d821c7ea5e8c13c0c16129db565b60008181526020839052604081205473ffffffffffffffffffffffffffffffffffffffff8116610db7576040517fdd560475000000000000000000000000000000000000000000000000000000008152600481018490526024016107bf565b74010000000000000000000000000000000000000000811615610e02575050600081815260028301602052604090205473ffffffffffffffffffffffffffffffffffffffff16610501565b6000915050610501565b6000610511611e93565b60008181526020859052604090205473ffffffffffffffffffffffffffffffffffffffff8116610e75576040517fdd560475000000000000000000000000000000000000000000000000000000008152600481018390526024016107bf565b8073ffffffffffffffffffffffffffffffffffffffff80821690851603610ee0576040517fb7fdc01000000000000000000000000000000000000000000000000000000000815273ffffffffffffffffffffffffffffffffffffffff821660048201526024016107bf565b610eeb868287611fda565b610f48576040517fc7563a1800000000000000000000000000000000000000000000000000000000815273ffffffffffffffffffffffffffffffffffffffff808716600483015282166024820152604481018490526064016107bf565b73ffffffffffffffffffffffffffffffffffffffff8416610fad5774010000000000000000000000000000000000000000821615610fa857600083815260208790526040902073ffffffffffffffffffffffffffffffffffffffff821690555b61102e565b740100000000000000000000000000000000000000008217808314610fde5760008481526020889052604090208190555b506000838152600287016020526040902080547fffffffffffffffffffffffff00000000000000000000000000000000000000001673ffffffffffffffffffffffffffffffffffffffff86161790555b828473ffffffffffffffffffffffffffffffffffffffff168273ffffffffffffffffffffffffffffffffffffffff167f8c5be1e5ebec7d5bd14f71427d1e84f3dd0314c0f7b2291e5b200ac8c7c3b92560405160405180910390a4505050505050565b6000600160008381526020019081526020016000206001016040516110b69190612559565b6040519081900381207ff9236a390000000000000000000000000000000000000000000000000000000082526004820181905273ffffffffffffffffffffffffffffffffffffffff85811660248401529092507f0000000000000000000000000000000000000000000000000000000000000000169063f9236a3990604401602060405180830381865afa158015611152573d6000803e3d6000fd5b505050506040513d601f19601f8201168201806040525081019061117691906125ed565b6105b3576105b37f6f70657261746f720000000000000000000000000000000000000000000000008461098361151e565b73ffffffffffffffffffffffffffffffffffffffff82166111f4576040517f86c8706700000000000000000000000000000000000000000000000000000000815260040160405180910390fd5b60008181526020869052604090205473ffffffffffffffffffffffffffffffffffffffff8116611253576040517fdd560475000000000000000000000000000000000000000000000000000000008152600481018390526024016107bf565b73ffffffffffffffffffffffffffffffffffffffff84168173ffffffffffffffffffffffffffffffffffffffff16146112d7576040517f14dbb53600000000000000000000000000000000000000000000000000000000815273ffffffffffffffffffffffffffffffffffffffff85166004820152602481018390526044016107bf565b6112e2868587611fda565b6113915774010000000000000000000000000000000000000000811615806113335750600082815260028701602052604090205473ffffffffffffffffffffffffffffffffffffffff868116911614155b15611391576040517fa4a3018b00000000000000000000000000000000000000000000000000000000815273ffffffffffffffffffffffffffffffffffffffff808716600483015285166024820152604481018390526064016107bf565b600082815260208790526040902073ffffffffffffffffffffffffffffffffffffffff808516918290558516146114225773ffffffffffffffffffffffffffffffffffffffff80851660009081526001808901602052604080832080547fffffffffffffffffffffffffffffffffffffffffffffffffffffffffffffffff0190559286168252919020805490910190555b818373ffffffffffffffffffffffffffffffffffffffff168573ffffffffffffffffffffffffffffffffffffffff167fddf252ad1be2c89b69c2b068fc378daa952ba7f163c4a11628f55a4df523b3ef60405160405180910390a4505050505050565b60008061050160017fc9ed16f33ab3a66c84bfd83099ccb2a8845871e2e1c1928f63797152f0fd54cd6129db565b815473ffffffffffffffffffffffffffffffffffffffff828116911614610547576040517f2ef4875e00000000000000000000000000000000000000000000000000000000815273ffffffffffffffffffffffffffffffffffffffff821660048201526024016107bf565b60008061050160017fc8827d3282af6f37b64c3e9e6f3ac9df286ab0bb0fccd6f8661bf19adb368b236129db565b60008381526020858152604080832073ffffffffffffffffffffffffffffffffffffffff8616845290915290205460ff166105795760008381526020858152604080832073ffffffffffffffffffffffffffffffffffffffff8681168086529184529382902080547fffffffffffffffffffffffffffffffffffffffffffffffffffffffffffffff00166001179055815187815292830152918316918101919091527f2f8788117e7eff1d82e926ec794901d17c78024a50270940304540a733656f0d906060015b60405180910390a150505050565b61162f85858585856111a7565b73ffffffffffffffffffffffffffffffffffffffff82163b156109b8576109b8848484846040518060200160405280600081525061204f565b60008181526020839052604081205473ffffffffffffffffffffffffffffffffffffffff81166116c7576040517fdd560475000000000000000000000000000000000000000000000000000000008152600481018490526024016107bf565b805b949350505050565b60008281526020848152604080832073ffffffffffffffffffffffffffffffffffffffff8516845290915290205460ff166105b3576040517f7aa728820000000000000000000000000000000000000000000000000000000081526004810183905273ffffffffffffffffffffffffffffffffffffffff821660248201526044016107bf565b73ffffffffffffffffffffffffffffffffffffffff82166117a4576040517f7851b9cd00000000000000000000000000000000000000000000000000000000815260040160405180910390fd5b60008181526020849052604090205473ffffffffffffffffffffffffffffffffffffffff1615611803576040517f753eceac000000000000000000000000000000000000000000000000000000008152600481018290526024016107bf565b60008181526020848152604080832073ffffffffffffffffffffffffffffffffffffffff86169081905580845260018088019093528184208054909301909255518392907fddf252ad1be2c89b69c2b068fc378daa952ba7f163c4a11628f55a4df523b3ef908290a4505050565b600073ffffffffffffffffffffffffffffffffffffffff82166118c0576040517faefbce4e00000000000000000000000000000000000000000000000000000000815260040160405180910390fd5b5073ffffffffffffffffffffffffffffffffffffffff166000908152600191909101602052604090205490565b6118f88382846116d1565b60008181526020848152604080832073ffffffffffffffffffffffffffffffffffffffff86168085529083529281902080547fffffffffffffffffffffffffffffffffffffffffffffffffffffffffffffff0016905580518481529182018390528101919091527ff6391f5c32d9c69d2a47ea670b442974b53935d1edc7fd64eb21e047a839171b9060600160405180910390a1505050565b606061051161199e6119a3565b612164565b60008061050160017f7ea68fd2dcf1c056b94db6a0a537aa80d26fa9ab1eacd85da1ba0b61b7e7a8a56129db565b8273ffffffffffffffffffffffffffffffffffffffff168273ffffffffffffffffffffffffffffffffffffffff1603611a4e576040517fe4215c6a00000000000000000000000000000000000000000000000000000000815273ffffffffffffffffffffffffffffffffffffffff841660048201526024016107bf565b73ffffffffffffffffffffffffffffffffffffffff838116600081815260038701602090815260408083209487168084529482529182902080547fffffffffffffffffffffffffffffffffffffffffffffffffffffffffffffff001686151590811790915591519182527f17307eab39ab6107e8899845ad3d59bd9653f200f220920489ca2b5937696c31910160405180910390a350505050565b611af687878787876111a7565b73ffffffffffffffffffffffffffffffffffffffff84163b15611b5657611b568686868686868080601f01602080910402602001604051908101604052809392919081815260200183838082843760009201919091525061204f92505050565b50505050505050565b60028301546040517ff724dad700000000000000000000000000000000000000000000000000000000815273ffffffffffffffffffffffffffffffffffffffff848116600483015260248201849052606092169063f724dad790604401600060405180830381865afa158015611bd9573d6000803e3d6000fd5b505050506040513d6000823e601f3d9081017fffffffffffffffffffffffffffffffffffffffffffffffffffffffffffffffe01682016040526116c99190810190612a15565b60008381526020858152604080832073ffffffffffffffffffffffffffffffffffffffff8616845290915290205460ff16156105795760008381526020858152604080832073ffffffffffffffffffffffffffffffffffffffff8681168086529184529382902080547fffffffffffffffffffffffffffffffffffffffffffffffffffffffffffffff00169055815187815292830152918316918101919091527ff6391f5c32d9c69d2a47ea670b442974b53935d1edc7fd64eb21e047a839171b90606001611614565b825473ffffffffffffffffffffffffffffffffffffffff9081169083168114611d56576040517f2ef4875e00000000000000000000000000000000000000000000000000000000815273ffffffffffffffffffffffffffffffffffffffff841660048201526024016107bf565b8173ffffffffffffffffffffffffffffffffffffffff168173ffffffffffffffffffffffffffffffffffffffff16146105795783547fffffffffffffffffffffffff00000000000000000000000000000000000000001673ffffffffffffffffffffffffffffffffffffffff8381169182178655604051908316907f8be0079c531659141344cd1fd0a4f28419497f9722a3daafe3b4186f6b6457e090600090a350505050565b6060816000018054611e0e90612506565b80601f0160208091040260200160405190810160405280929190818152602001828054611e3a90612506565b8015611e875780601f10611e5c57610100808354040283529160200191611e87565b820191906000526020600020905b815481529060010190602001808311611e6a57829003601f168201915b50505050509050919050565b600033321480611ea35750601836105b15611ead57503390565b7fffffffffffffffffffffffffffffffffffffffffffffffffffffffffffffffec36013560601c7f000000000000000000000000000000000000000000000000000000000000000073ffffffffffffffffffffffffffffffffffffffff16331480611fc957506040517f8929a8ca00000000000000000000000000000000000000000000000000000000815273ffffffffffffffffffffffffffffffffffffffff82811660048301523360248301527f00000000000000000000000000000000000000000000000000000000000000001690638929a8ca90604401602060405180830381865afa158015611fa5573d6000803e3d6000fd5b505050506040513d601f19601f82011682018060405250810190611fc991906125ed565b15611fd357919050565b3391505090565b60008173ffffffffffffffffffffffffffffffffffffffff168373ffffffffffffffffffffffffffffffffffffffff1614806116c957505073ffffffffffffffffffffffffffffffffffffffff9182166000908152600393909301602090815260408085209290931684525290205460ff1690565b6040517f150b7a02000000000000000000000000000000000000000000000000000000008082529073ffffffffffffffffffffffffffffffffffffffff85169063150b7a02906120a9908990899088908890600401612ae0565b6020604051808303816000875af11580156120c8573d6000803e3d6000fd5b505050506040513d601f19601f820116820180604052508101906120ec9190612b29565b7fffffffff0000000000000000000000000000000000000000000000000000000016146109b8576040517fc215a7a100000000000000000000000000000000000000000000000000000000815273ffffffffffffffffffffffffffffffffffffffff84166004820152602481018390526044016107bf565b6060816001018054611e0e90612506565b7fffffffff00000000000000000000000000000000000000000000000000000000811681146109fc57600080fd5b6000602082840312156121b557600080fd5b8135610a6a81612175565b60005b838110156121db5781810151838201526020016121c3565b50506000910152565b600081518084526121fc8160208601602086016121c0565b601f017fffffffffffffffffffffffffffffffffffffffffffffffffffffffffffffffe0169290920160200192915050565b602081526000610a6a60208301846121e4565b60006020828403121561225357600080fd5b5035919050565b73ffffffffffffffffffffffffffffffffffffffff811681146109fc57600080fd5b6000806040838503121561228f57600080fd5b823561229a8161225a565b946020939093013593505050565b6000806000606084860312156122bd57600080fd5b83356122c88161225a565b925060208401356122d88161225a565b929592945050506040919091013590565b600080604083850312156122fc57600080fd5b82359150602083013561230e8161225a565b809150509250929050565b61ffff88811682528716602082015267ffffffffffffffff868116604083015285811660608301528416608082015260e060a08201819052600090612360908301856121e4565b82810360c084015261237281856121e4565b9a9950505050505050505050565b60008060006060848603121561239557600080fd5b83356123a08161225a565b925060208401359150604084013567ffffffffffffffff8111156123c357600080fd5b840160e081870312156123d557600080fd5b809150509250925092565b6000602082840312156123f257600080fd5b8135610a6a8161225a565b80151581146109fc57600080fd5b6000806040838503121561241e57600080fd5b82356124298161225a565b9150602083013561230e816123fd565b60008060008060006080868803121561245157600080fd5b853561245c8161225a565b9450602086013561246c8161225a565b935060408601359250606086013567ffffffffffffffff8082111561249057600080fd5b818801915088601f8301126124a457600080fd5b8135818111156124b357600080fd5b8960208285010111156124c557600080fd5b9699959850939650602001949392505050565b600080604083850312156124eb57600080fd5b82356124f68161225a565b9150602083013561230e8161225a565b600181811c9082168061251a57607f821691505b602082108103612553577f4e487b7100000000000000000000000000000000000000000000000000000000600052602260045260246000fd5b50919050565b600080835461256781612506565b6001828116801561257f57600181146125b2576125e1565b7fffffffffffffffffffffffffffffffffffffffffffffffffffffffffffffff00841687528215158302870194506125e1565b8760005260208060002060005b858110156125d85781548a8201529084019082016125bf565b50505082870194505b50929695505050505050565b6000602082840312156125ff57600080fd5b8151610a6a816123fd565b6000813561ffff8116811461050157600080fd5b6000813567ffffffffffffffff8116811461050157600080fd5b60008083357fffffffffffffffffffffffffffffffffffffffffffffffffffffffffffffffe184360301811261266d57600080fd5b83018035915067ffffffffffffffff82111561268857600080fd5b60200191503681900382131561269d57600080fd5b9250929050565b7f4e487b7100000000000000000000000000000000000000000000000000000000600052604160045260246000fd5b601f8211156105b3576000816000526020600020601f850160051c810160208610156126fc5750805b601f850160051c820191505b81811015610b4e57828155600101612708565b67ffffffffffffffff831115612733576127336126a4565b612747836127418354612506565b836126d3565b6000601f84116001811461279957600085156127635750838201355b7fffffffffffffffffffffffffffffffffffffffffffffffffffffffffffffffff600387901b1c1916600186901b1783556109b8565b6000838152602090207fffffffffffffffffffffffffffffffffffffffffffffffffffffffffffffffe0861690835b828110156127e857868501358255602094850194600190920191016127c8565b5086821015612823577fffffffffffffffffffffffffffffffffffffffffffffffffffffffffffffffff60f88860031b161c19848701351681555b505060018560011b0183555050505050565b61ffff6128418361260a565b168154817fffffffffffffffffffffffffffffffffffffffffffffffffffffffffffff0000821617835563ffff000061287c6020860161260a565b60101b1680837fffffffffffffffffffffffffffffffffffffffffffffffffffffffff000000008416171784556bffffffffffffffff000000006128c26040870161261e565b60201b16837fffffffffffffffffffffffffffffffffffffffff00000000000000000000000084161782171784555050506129476129026060840161261e565b82547fffffffffffffffffffffffff0000000000000000ffffffffffffffffffffffff1660609190911b73ffffffffffffffff00000000000000000000000016178255565b6129a36129566080840161261e565b82547fffffffff0000000000000000ffffffffffffffffffffffffffffffffffffffff1660a09190911b7bffffffffffffffff000000000000000000000000000000000000000016178255565b6129b060a0830183612638565b6129be81836001860161271b565b50506129cd60c0830183612638565b61057981836002860161271b565b81810381811115610501577f4e487b7100000000000000000000000000000000000000000000000000000000600052601160045260246000fd5b600060208284031215612a2757600080fd5b815167ffffffffffffffff80821115612a3f57600080fd5b818401915084601f830112612a5357600080fd5b815181811115612a6557612a656126a4565b604051601f82017fffffffffffffffffffffffffffffffffffffffffffffffffffffffffffffffe0908116603f01168101908382118183101715612aab57612aab6126a4565b81604052828152876020848701011115612ac457600080fd5b612ad58360208301602088016121c0565b979650505050505050565b600073ffffffffffffffffffffffffffffffffffffffff808716835280861660208401525083604083015260806060830152612b1f60808301846121e4565b9695505050505050565b600060208284031215612b3b57600080fd5b8151610a6a8161217556fea26469706673582212209a14a0ddefde41e6b54057db133e3402b1856eab102ccc76adccbd21b2beeae964736f6c63430008160033",
  "linkReferences": {},
  "deployedLinkReferences": {}
}