{
  "_format": "hh-sol-artifact-1",
  "contractName": "EDULandPriceHelperV2",
  "sourceName": "contracts/land/EDULandPriceHelperV2.sol",
  "abi": [
    {
      "inputs": [
        {
          "internalType": "uint256",
          "name": "",
          "type": "uint256"
        }
      ],
      "name": "calculatePrice",
      "outputs": [
        {
          "internalType": "uint256",
          "name": "",
          "type": "uint256"
        }
      ],
      "stateMutability": "pure",
      "type": "function"
    }
  ],
  "bytecode": "0x6080604052348015600f57600080fd5b50609f8061001e6000396000f3fe6080604052348015600f57600080fd5b506004361060285760003560e01c8063ae10426514602d575b600080fd5b603f60383660046051565b5061019090565b60405190815260200160405180910390f35b600060208284031215606257600080fd5b503591905056fea2646970667358221220d03cb343f01abbf4d0b80aa8cfb822d115d596b48770ce917671ece772feb19464736f6c63430008160033",
  "linkReferences": {},
  "deployedLinkReferences": {}
}