{
  "_format": "hh-sol-artifact-1",
  "contractName": "RefereeMock",
  "sourceName": "contracts/mocks/land/RefereeMock.sol",
  "abi": [
    {
      "inputs": [
        {
          "internalType": "address",
          "name": "nodeKey",
          "type": "address"
        }
      ],
      "stateMutability": "nonpayable",
      "type": "constructor"
    },
    {
      "anonymous": false,
      "inputs": [
        {
          "indexed": true,
          "internalType": "uint256",
          "name": "batchNumber",
          "type": "uint256"
        },
        {
          "indexed": true,
          "internalType": "uint256",
          "name": "nodeKeyId",
          "type": "uint256"
        }
      ],
      "name": "LogAttest",
      "type": "event"
    },
    {
      "inputs": [],
      "name": "NODE_KEY",
      "outputs": [
        {
          "internalType": "contract INodeKey",
          "name": "",
          "type": "address"
        }
      ],
      "stateMutability": "view",
      "type": "function"
    },
    {
      "inputs": [
        {
          "internalType": "uint256",
          "name": "_batchNumber",
          "type": "uint256"
        },
        {
          "internalType": "uint256",
          "name": "_nodeKeyId",
          "type": "uint256"
        }
      ],
      "name": "attest",
      "outputs": [],
      "stateMutability": "nonpayable",
      "type": "function"
    },
    {
      "inputs": [
        {
          "internalType": "uint256",
          "name": "_batchNumber",
          "type": "uint256"
        },
        {
          "internalType": "uint256[]",
          "name": "_nodeKeyIds",
          "type": "uint256[]"
        }
      ],
      "name": "batchAttest",
      "outputs": [],
      "stateMutability": "nonpayable",
      "type": "function"
    },
    {
      "inputs": [
        {
          "internalType": "uint256[]",
          "name": "_nodeKeyIds",
          "type": "uint256[]"
        },
        {
          "internalType": "uint256",
          "name": "_batchesCount",
          "type": "uint256"
        }
      ],
      "name": "batchClaimReward",
      "outputs": [],
      "stateMutability": "nonpayable",
      "type": "function"
    },
    {
      "inputs": [
        {
          "internalType": "uint256",
          "name": "_nodeKeyId",
          "type": "uint256"
        },
        {
          "internalType": "uint256",
          "name": "_batchesCount",
          "type": "uint256"
        }
      ],
      "name": "claimReward",
      "outputs": [],
      "stateMutability": "nonpayable",
      "type": "function"
    },
    {
      "inputs": [
        {
          "internalType": "uint256",
          "name": "_nodeKeyId",
          "type": "uint256"
        },
        {
          "internalType": "uint256",
          "name": "_batchesCount",
          "type": "uint256"
        }
      ],
      "name": "claimRewardAllNonSuccessfulAttestations",
      "outputs": [],
      "stateMutability": "nonpayable",
      "type": "function"
    },
    {
      "inputs": [],
      "name": "finalize",
      "outputs": [],
      "stateMutability": "nonpayable",
      "type": "function"
    },
    {
      "inputs": [],
      "name": "latestConfirmedTimestamp",
      "outputs": [
        {
          "internalType": "uint256",
          "name": "",
          "type": "uint256"
        }
      ],
      "stateMutability": "view",
      "type": "function"
    },
    {
      "inputs": [],
      "name": "latestFinalizedBatchNumber",
      "outputs": [
        {
          "internalType": "uint256",
          "name": "",
          "type": "uint256"
        }
      ],
      "stateMutability": "view",
      "type": "function"
    },
    {
      "inputs": [],
      "name": "nodeRewards",
      "outputs": [
        {
          "internalType": "contract INodeRewards",
          "name": "",
          "type": "address"
        }
      ],
      "stateMutability": "view",
      "type": "function"
    },
    {
      "inputs": [
        {
          "internalType": "address",
          "name": "_nodeRewards",
          "type": "address"
        }
      ],
      "name": "setNodeRewards",
      "outputs": [],
      "stateMutability": "nonpayable",
      "type": "function"
    }
  ],
  "bytecode": "0x60a060405234801561001057600080fd5b50604051610b2e380380610b2e83398101604081905261002f91610040565b6001600160a01b0316608052610070565b60006020828403121561005257600080fd5b81516001600160a01b038116811461006957600080fd5b9392505050565b608051610aa361008b60003960006101870152610aa36000f3fe608060405234801561001057600080fd5b50600436106100c95760003560e01c8063a3bb24cc11610081578063b1810d801161005b578063b1810d80146101e1578063e38f80b7146101f4578063f9a86a701461021457600080fd5b8063a3bb24cc1461016f578063a5f957f914610182578063af55f20d146101ce57600080fd5b80634bb278f3116100b25780634bb278f314610141578063615668e01461014957806386bb8f371461015c57600080fd5b806333db2467146100ce578063387eb5ea146100ea575b600080fd5b6100d760025481565b6040519081526020015b60405180910390f35b61013f6100f83660046107ca565b600080547fffffffffffffffffffffffff00000000000000000000000000000000000000001673ffffffffffffffffffffffffffffffffffffffff92909216919091179055565b005b61013f61021d565b61013f6101573660046108eb565b6102e5565b61013f61016a366004610930565b610321565b61013f61017d366004610930565b61032f565b6101a97f000000000000000000000000000000000000000000000000000000000000000081565b60405173ffffffffffffffffffffffffffffffffffffffff90911681526020016100e1565b61013f6101dc366004610930565b6103c9565b61013f6101ef366004610952565b61049e565b6000546101a99073ffffffffffffffffffffffffffffffffffffffff1681565b6100d760015481565b600180600082825461022f91906109c8565b90915550506000805460015460025481845260036020526040938490205493517f1bcdb77a00000000000000000000000000000000000000000000000000000000815260048101929092524260248301526044820152606481019290925273ffffffffffffffffffffffffffffffffffffffff1690631bcdb77a90608401600060405180830381600087803b1580156102c757600080fd5b505af11580156102db573d6000803e3d6000fd5b5050426002555050565b60005b825181101561031c57610314838281518110610306576103066109db565b60200260200101518361052e565b6001016102e8565b505050565b61032b828261052e565b5050565b61033982826106b4565b6000546040517fe6ed1180000000000000000000000000000000000000000000000000000000008152600481018490526024810183905273ffffffffffffffffffffffffffffffffffffffff9091169063e6ed1180906044015b600060405180830381600087803b1580156103ad57600080fd5b505af11580156103c1573d6000803e3d6000fd5b505050505050565b60008167ffffffffffffffff8111156103e4576103e4610800565b60405190808252806020026020018201604052801561040d578160200160208202803683370190505b506000546040517f9b6e0d7400000000000000000000000000000000000000000000000000000000815291925073ffffffffffffffffffffffffffffffffffffffff1690639b6e0d74906104679086908590600401610a0a565b600060405180830381600087803b15801561048157600080fd5b505af1158015610495573d6000803e3d6000fd5b50505050505050565b60005b81518110156104d5576104cd838383815181106104c0576104c06109db565b60200260200101516106b4565b6001016104a1565b506000546040517fb7355fb400000000000000000000000000000000000000000000000000000000815273ffffffffffffffffffffffffffffffffffffffff9091169063b7355fb4906103939085908590600401610a0a565b60008281526005602090815260408083205460049092528220909190829061055590610722565b61055f9190610a5a565b905080831161056e5782610570565b805b925060008367ffffffffffffffff81111561058d5761058d610800565b6040519080825280602002602001820160405280156105b6578160200160208202803683370190505b50905060005b848110156106225760008681526004602052604081206105dc9086610732565b90506001548111156105ee5750610622565b6105f96001866109c8565b94508083838151811061060e5761060e6109db565b6020908102919091010152506001016105bc565b506000546040517f9b6e0d7400000000000000000000000000000000000000000000000000000000815273ffffffffffffffffffffffffffffffffffffffff90911690639b6e0d749061067b9088908590600401610a0a565b600060405180830381600087803b15801561069557600080fd5b505af11580156106a9573d6000803e3d6000fd5b505050505050505050565b60008181526004602052604090206106cc9083610745565b5060008281526003602052604081208054600192906106ec9084906109c8565b9091555050604051819083907f5fd522a277163ba7679d6dcfc2c17abf847eb5f2e90d6643c8d24bc4174f8f8390600090a35050565b600061072c825490565b92915050565b600061073e8383610751565b9392505050565b600061073e838361077b565b6000826000018281548110610768576107686109db565b9060005260206000200154905092915050565b60008181526001830160205260408120546107c25750815460018181018455600084815260208082209093018490558454848252828601909352604090209190915561072c565b50600061072c565b6000602082840312156107dc57600080fd5b813573ffffffffffffffffffffffffffffffffffffffff8116811461073e57600080fd5b7f4e487b7100000000000000000000000000000000000000000000000000000000600052604160045260246000fd5b600082601f83011261084057600080fd5b8135602067ffffffffffffffff8083111561085d5761085d610800565b8260051b6040517fffffffffffffffffffffffffffffffffffffffffffffffffffffffffffffffe0603f830116810181811084821117156108a0576108a0610800565b60405293845260208187018101949081019250878511156108c057600080fd5b6020870191505b848210156108e0578135835291830191908301906108c7565b979650505050505050565b600080604083850312156108fe57600080fd5b823567ffffffffffffffff81111561091557600080fd5b6109218582860161082f565b95602094909401359450505050565b6000806040838503121561094357600080fd5b50508035926020909101359150565b6000806040838503121561096557600080fd5b82359150602083013567ffffffffffffffff81111561098357600080fd5b61098f8582860161082f565b9150509250929050565b7f4e487b7100000000000000000000000000000000000000000000000000000000600052601160045260246000fd5b8082018082111561072c5761072c610999565b7f4e487b7100000000000000000000000000000000000000000000000000000000600052603260045260246000fd5b60006040820184835260206040602085015281855180845260608601915060208701935060005b81811015610a4d57845183529383019391830191600101610a31565b5090979650505050505050565b8181038181111561072c5761072c61099956fea264697066735822122021140d71512d0b609d6278c498f07399ca324277614914edcc781c86f847e48e64736f6c63430008160033",
  "linkReferences": {},
  "deployedLinkReferences": {}
}