{
  "_format": "hh-sol-artifact-1",
  "contractName": "EDULandRentalMock",
  "sourceName": "contracts/mocks/land/EDULandRentalMock.sol",
  "abi": [
    {
      "inputs": [
        {
          "internalType": "address",
          "name": "nodeKeyAddress",
          "type": "address"
        },
        {
          "internalType": "address",
          "name": "pointsAddress",
          "type": "address"
        },
        {
          "internalType": "address",
          "name": "rentalFeeHelperAddress",
          "type": "address"
        },
        {
          "internalType": "uint256",
          "name": "maintenceFee_",
          "type": "uint256"
        },
        {
          "internalType": "uint256",
          "name": "maintenanceFeeDenominator_",
          "type": "uint256"
        },
        {
          "internalType": "uint256",
          "name": "maxRentalDuration_",
          "type": "uint256"
        },
        {
          "internalType": "uint256",
          "name": "maxRentalCountPerCall_",
          "type": "uint256"
        },
        {
          "internalType": "uint256",
          "name": "maxTokenSupply_",
          "type": "uint256"
        },
        {
          "internalType": "contract IForwarderRegistry",
          "name": "forwarderRegistry",
          "type": "address"
        }
      ],
      "stateMutability": "nonpayable",
      "type": "constructor"
    },
    {
      "inputs": [
        {
          "internalType": "uint256",
          "name": "calculatedFee",
          "type": "uint256"
        },
        {
          "internalType": "uint256",
          "name": "maxFee",
          "type": "uint256"
        }
      ],
      "name": "FeeExceeded",
      "type": "error"
    },
    {
      "inputs": [],
      "name": "IllegalInterfaceId",
      "type": "error"
    },
    {
      "inputs": [],
      "name": "InconsistentArrayLengths",
      "type": "error"
    },
    {
      "inputs": [],
      "name": "InvalidTokenIdsParam",
      "type": "error"
    },
    {
      "inputs": [
        {
          "internalType": "address",
          "name": "account",
          "type": "address"
        }
      ],
      "name": "NotContractOwner",
      "type": "error"
    },
    {
      "inputs": [
        {
          "internalType": "bytes32",
          "name": "role",
          "type": "bytes32"
        },
        {
          "internalType": "address",
          "name": "account",
          "type": "address"
        }
      ],
      "name": "NotRoleHolder",
      "type": "error"
    },
    {
      "inputs": [],
      "name": "RentalCountPerCallLimitExceeded",
      "type": "error"
    },
    {
      "inputs": [
        {
          "internalType": "uint256",
          "name": "tokenId",
          "type": "uint256"
        },
        {
          "internalType": "uint256",
          "name": "duration",
          "type": "uint256"
        }
      ],
      "name": "RentalDurationLimitExceeded",
      "type": "error"
    },
    {
      "inputs": [
        {
          "internalType": "uint256",
          "name": "tokenId",
          "type": "uint256"
        }
      ],
      "name": "TokenAlreadyRented",
      "type": "error"
    },
    {
      "inputs": [
        {
          "internalType": "uint256",
          "name": "tokenId",
          "type": "uint256"
        }
      ],
      "name": "TokenNotExpired",
      "type": "error"
    },
    {
      "inputs": [
        {
          "internalType": "uint256",
          "name": "tokenId",
          "type": "uint256"
        }
      ],
      "name": "TokenNotRented",
      "type": "error"
    },
    {
      "inputs": [
        {
          "internalType": "uint256",
          "name": "tokenId",
          "type": "uint256"
        }
      ],
      "name": "UnsupportedTokenId",
      "type": "error"
    },
    {
      "inputs": [
        {
          "internalType": "uint256",
          "name": "tokenId",
          "type": "uint256"
        }
      ],
      "name": "ZeroRentalDuration",
      "type": "error"
    },
    {
      "anonymous": false,
      "inputs": [
        {
          "indexed": false,
          "internalType": "uint256[]",
          "name": "tokenIds",
          "type": "uint256[]"
        }
      ],
      "name": "Collected",
      "type": "event"
    },
    {
      "anonymous": false,
      "inputs": [
        {
          "indexed": false,
          "internalType": "uint256",
          "name": "newMaintenanceFee",
          "type": "uint256"
        },
        {
          "indexed": false,
          "internalType": "uint256",
          "name": "newMaintenanceFeeDenominator",
          "type": "uint256"
        }
      ],
      "name": "MaintenanceFeeUpdated",
      "type": "event"
    },
    {
      "anonymous": false,
      "inputs": [
        {
          "indexed": false,
          "internalType": "uint256",
          "name": "newMaxRentalCountPerCall",
          "type": "uint256"
        }
      ],
      "name": "MaxRentalCountPerCallUpdated",
      "type": "event"
    },
    {
      "anonymous": false,
      "inputs": [
        {
          "indexed": false,
          "internalType": "uint256",
          "name": "newMaxRentalDuration",
          "type": "uint256"
        }
      ],
      "name": "MaxRentalDurationUpdated",
      "type": "event"
    },
    {
      "anonymous": false,
      "inputs": [
        {
          "indexed": false,
          "internalType": "uint256",
          "name": "newMaxTokenSupply",
          "type": "uint256"
        }
      ],
      "name": "MaxTokenSupplyUpdated",
      "type": "event"
    },
    {
      "anonymous": false,
      "inputs": [
        {
          "indexed": true,
          "internalType": "address",
          "name": "previousOwner",
          "type": "address"
        },
        {
          "indexed": true,
          "internalType": "address",
          "name": "newOwner",
          "type": "address"
        }
      ],
      "name": "OwnershipTransferred",
      "type": "event"
    },
    {
      "anonymous": false,
      "inputs": [
        {
          "indexed": true,
          "internalType": "address",
          "name": "renter",
          "type": "address"
        },
        {
          "indexed": false,
          "internalType": "uint256[]",
          "name": "tokenIds",
          "type": "uint256[]"
        },
        {
          "components": [
            {
              "internalType": "uint256",
              "name": "beginDate",
              "type": "uint256"
            },
            {
              "internalType": "uint256",
              "name": "endDate",
              "type": "uint256"
            },
            {
              "internalType": "uint256",
              "name": "fee",
              "type": "uint256"
            }
          ],
          "indexed": false,
          "internalType": "struct EDULandRental.RentalInfo[]",
          "name": "rentals",
          "type": "tuple[]"
        }
      ],
      "name": "Rental",
      "type": "event"
    },
    {
      "anonymous": false,
      "inputs": [
        {
          "indexed": false,
          "internalType": "address",
          "name": "newRentalFeeHelper",
          "type": "address"
        }
      ],
      "name": "RentalFeeHelperUpdated",
      "type": "event"
    },
    {
      "anonymous": false,
      "inputs": [
        {
          "indexed": false,
          "internalType": "bytes32",
          "name": "role",
          "type": "bytes32"
        },
        {
          "indexed": false,
          "internalType": "address",
          "name": "account",
          "type": "address"
        },
        {
          "indexed": false,
          "internalType": "address",
          "name": "operator",
          "type": "address"
        }
      ],
      "name": "RoleGranted",
      "type": "event"
    },
    {
      "anonymous": false,
      "inputs": [
        {
          "indexed": false,
          "internalType": "bytes32",
          "name": "role",
          "type": "bytes32"
        },
        {
          "indexed": false,
          "internalType": "address",
          "name": "account",
          "type": "address"
        },
        {
          "indexed": false,
          "internalType": "address",
          "name": "operator",
          "type": "address"
        }
      ],
      "name": "RoleRevoked",
      "type": "event"
    },
    {
      "inputs": [],
      "name": "EDU_LAND",
      "outputs": [
        {
          "internalType": "contract IEDULand",
          "name": "",
          "type": "address"
        }
      ],
      "stateMutability": "view",
      "type": "function"
    },
    {
      "inputs": [],
      "name": "OPERATOR_ROLE",
      "outputs": [
        {
          "internalType": "bytes32",
          "name": "",
          "type": "bytes32"
        }
      ],
      "stateMutability": "view",
      "type": "function"
    },
    {
      "inputs": [],
      "name": "POINTS",
      "outputs": [
        {
          "internalType": "contract Points",
          "name": "",
          "type": "address"
        }
      ],
      "stateMutability": "view",
      "type": "function"
    },
    {
      "inputs": [],
      "name": "RENTAL_CONSUME_CODE",
      "outputs": [
        {
          "internalType": "bytes32",
          "name": "",
          "type": "bytes32"
        }
      ],
      "stateMutability": "view",
      "type": "function"
    },
    {
      "inputs": [],
      "name": "__msgData",
      "outputs": [
        {
          "internalType": "bytes",
          "name": "",
          "type": "bytes"
        }
      ],
      "stateMutability": "view",
      "type": "function"
    },
    {
      "inputs": [
        {
          "internalType": "uint256[]",
          "name": "tokenIds",
          "type": "uint256[]"
        }
      ],
      "name": "calculateElapsedTimeForExpiredTokens",
      "outputs": [
        {
          "internalType": "uint256",
          "name": "elapsedTime",
          "type": "uint256"
        }
      ],
      "stateMutability": "view",
      "type": "function"
    },
    {
      "inputs": [
        {
          "internalType": "uint256[]",
          "name": "tokenIds",
          "type": "uint256[]"
        }
      ],
      "name": "collectExpiredTokens",
      "outputs": [],
      "stateMutability": "nonpayable",
      "type": "function"
    },
    {
      "inputs": [
        {
          "internalType": "address",
          "name": "account",
          "type": "address"
        },
        {
          "internalType": "uint256[]",
          "name": "tokenIds",
          "type": "uint256[]"
        },
        {
          "internalType": "uint256[]",
          "name": "durations",
          "type": "uint256[]"
        },
        {
          "internalType": "uint256[]",
          "name": "expiredTokenIds",
          "type": "uint256[]"
        }
      ],
      "name": "estimateRentalFee",
      "outputs": [
        {
          "internalType": "uint256",
          "name": "fee",
          "type": "uint256"
        }
      ],
      "stateMutability": "view",
      "type": "function"
    },
    {
      "inputs": [],
      "name": "forwarderRegistry",
      "outputs": [
        {
          "internalType": "contract IForwarderRegistry",
          "name": "",
          "type": "address"
        }
      ],
      "stateMutability": "view",
      "type": "function"
    },
    {
      "inputs": [
        {
          "internalType": "bytes32",
          "name": "role",
          "type": "bytes32"
        },
        {
          "internalType": "address",
          "name": "account",
          "type": "address"
        }
      ],
      "name": "grantRole",
      "outputs": [],
      "stateMutability": "nonpayable",
      "type": "function"
    },
    {
      "inputs": [
        {
          "internalType": "bytes32",
          "name": "role",
          "type": "bytes32"
        },
        {
          "internalType": "address",
          "name": "account",
          "type": "address"
        }
      ],
      "name": "hasRole",
      "outputs": [
        {
          "internalType": "bool",
          "name": "hasRole_",
          "type": "bool"
        }
      ],
      "stateMutability": "view",
      "type": "function"
    },
    {
      "inputs": [
        {
          "internalType": "address",
          "name": "forwarder",
          "type": "address"
        }
      ],
      "name": "isTrustedForwarder",
      "outputs": [
        {
          "internalType": "bool",
          "name": "",
          "type": "bool"
        }
      ],
      "stateMutability": "view",
      "type": "function"
    },
    {
      "inputs": [],
      "name": "maintenanceFee",
      "outputs": [
        {
          "internalType": "uint256",
          "name": "",
          "type": "uint256"
        }
      ],
      "stateMutability": "view",
      "type": "function"
    },
    {
      "inputs": [],
      "name": "maintenanceFeeDenominator",
      "outputs": [
        {
          "internalType": "uint256",
          "name": "",
          "type": "uint256"
        }
      ],
      "stateMutability": "view",
      "type": "function"
    },
    {
      "inputs": [],
      "name": "maxRentalCountPerCall",
      "outputs": [
        {
          "internalType": "uint256",
          "name": "",
          "type": "uint256"
        }
      ],
      "stateMutability": "view",
      "type": "function"
    },
    {
      "inputs": [],
      "name": "maxRentalDuration",
      "outputs": [
        {
          "internalType": "uint256",
          "name": "",
          "type": "uint256"
        }
      ],
      "stateMutability": "view",
      "type": "function"
    },
    {
      "inputs": [],
      "name": "maxTokenSupply",
      "outputs": [
        {
          "internalType": "uint256",
          "name": "",
          "type": "uint256"
        }
      ],
      "stateMutability": "view",
      "type": "function"
    },
    {
      "inputs": [],
      "name": "msgData",
      "outputs": [
        {
          "internalType": "bytes",
          "name": "",
          "type": "bytes"
        }
      ],
      "stateMutability": "view",
      "type": "function"
    },
    {
      "inputs": [],
      "name": "owner",
      "outputs": [
        {
          "internalType": "address",
          "name": "",
          "type": "address"
        }
      ],
      "stateMutability": "view",
      "type": "function"
    },
    {
      "inputs": [
        {
          "internalType": "address[]",
          "name": "accounts",
          "type": "address[]"
        },
        {
          "internalType": "contract IERC20[]",
          "name": "tokens",
          "type": "address[]"
        },
        {
          "internalType": "uint256[]",
          "name": "amounts",
          "type": "uint256[]"
        }
      ],
      "name": "recoverERC20s",
      "outputs": [],
      "stateMutability": "nonpayable",
      "type": "function"
    },
    {
      "inputs": [
        {
          "internalType": "address[]",
          "name": "accounts",
          "type": "address[]"
        },
        {
          "internalType": "contract IERC721[]",
          "name": "contracts",
          "type": "address[]"
        },
        {
          "internalType": "uint256[]",
          "name": "tokenIds",
          "type": "uint256[]"
        }
      ],
      "name": "recoverERC721s",
      "outputs": [],
      "stateMutability": "nonpayable",
      "type": "function"
    },
    {
      "inputs": [
        {
          "internalType": "address payable[]",
          "name": "accounts",
          "type": "address[]"
        },
        {
          "internalType": "uint256[]",
          "name": "amounts",
          "type": "uint256[]"
        }
      ],
      "name": "recoverETH",
      "outputs": [],
      "stateMutability": "nonpayable",
      "type": "function"
    },
    {
      "inputs": [
        {
          "internalType": "bytes32",
          "name": "role",
          "type": "bytes32"
        }
      ],
      "name": "renounceRole",
      "outputs": [],
      "stateMutability": "nonpayable",
      "type": "function"
    },
    {
      "inputs": [
        {
          "internalType": "address",
          "name": "account",
          "type": "address"
        },
        {
          "internalType": "uint256[]",
          "name": "tokenIds",
          "type": "uint256[]"
        },
        {
          "internalType": "uint256[]",
          "name": "durations",
          "type": "uint256[]"
        },
        {
          "internalType": "uint256[]",
          "name": "expiredTokenIds",
          "type": "uint256[]"
        },
        {
          "internalType": "uint256",
          "name": "maxFee",
          "type": "uint256"
        }
      ],
      "name": "rent",
      "outputs": [],
      "stateMutability": "nonpayable",
      "type": "function"
    },
    {
      "inputs": [],
      "name": "rentalFeeHelper",
      "outputs": [
        {
          "internalType": "contract IEDULandRentalFeeHelper",
          "name": "",
          "type": "address"
        }
      ],
      "stateMutability": "view",
      "type": "function"
    },
    {
      "inputs": [
        {
          "internalType": "uint256",
          "name": "",
          "type": "uint256"
        }
      ],
      "name": "rentals",
      "outputs": [
        {
          "internalType": "uint256",
          "name": "beginDate",
          "type": "uint256"
        },
        {
          "internalType": "uint256",
          "name": "endDate",
          "type": "uint256"
        },
        {
          "internalType": "uint256",
          "name": "fee",
          "type": "uint256"
        }
      ],
      "stateMutability": "view",
      "type": "function"
    },
    {
      "inputs": [
        {
          "internalType": "uint256",
          "name": "tokenId",
          "type": "uint256"
        }
      ],
      "name": "renterOf",
      "outputs": [
        {
          "internalType": "address",
          "name": "",
          "type": "address"
        }
      ],
      "stateMutability": "view",
      "type": "function"
    },
    {
      "inputs": [
        {
          "internalType": "bytes32",
          "name": "role",
          "type": "bytes32"
        },
        {
          "internalType": "address",
          "name": "account",
          "type": "address"
        }
      ],
      "name": "revokeRole",
      "outputs": [],
      "stateMutability": "nonpayable",
      "type": "function"
    },
    {
      "inputs": [
        {
          "internalType": "uint256",
          "name": "newMaintenanceFee",
          "type": "uint256"
        },
        {
          "internalType": "uint256",
          "name": "newMaintenanceFeeDenominator",
          "type": "uint256"
        }
      ],
      "name": "setMaintenanceFee",
      "outputs": [],
      "stateMutability": "nonpayable",
      "type": "function"
    },
    {
      "inputs": [
        {
          "internalType": "uint256",
          "name": "newRentalCountPerCall",
          "type": "uint256"
        }
      ],
      "name": "setMaxRentalCountPerCall",
      "outputs": [],
      "stateMutability": "nonpayable",
      "type": "function"
    },
    {
      "inputs": [
        {
          "internalType": "uint256",
          "name": "newMaxRentalDuration",
          "type": "uint256"
        }
      ],
      "name": "setMaxRentalDuration",
      "outputs": [],
      "stateMutability": "nonpayable",
      "type": "function"
    },
    {
      "inputs": [
        {
          "internalType": "uint256",
          "name": "newMaxTokenSupply",
          "type": "uint256"
        }
      ],
      "name": "setMaxTokenSupply",
      "outputs": [],
      "stateMutability": "nonpayable",
      "type": "function"
    },
    {
      "inputs": [
        {
          "internalType": "address",
          "name": "newRentalFeeHelper",
          "type": "address"
        }
      ],
      "name": "setRentalFeeHelper",
      "outputs": [],
      "stateMutability": "nonpayable",
      "type": "function"
    },
    {
      "inputs": [
        {
          "internalType": "bytes4",
          "name": "interfaceId",
          "type": "bytes4"
        }
      ],
      "name": "supportsInterface",
      "outputs": [
        {
          "internalType": "bool",
          "name": "",
          "type": "bool"
        }
      ],
      "stateMutability": "view",
      "type": "function"
    },
    {
      "inputs": [],
      "name": "totalEffectiveRentalTime",
      "outputs": [
        {
          "internalType": "uint256",
          "name": "",
          "type": "uint256"
        }
      ],
      "stateMutability": "view",
      "type": "function"
    },
    {
      "inputs": [
        {
          "internalType": "address",
          "name": "newOwner",
          "type": "address"
        }
      ],
      "name": "transferOwnership",
      "outputs": [],
      "stateMutability": "nonpayable",
      "type": "function"
    }
  ],
  "bytecode": "0x60e06040523480156200001157600080fd5b50604051620037ff380380620037ff833981016040819052620000349162000315565b88888888888888888880803362000056816200004f620001be565b90620001f4565b506001600160a01b039081166080528a811660c05289811660a052600080546001600160a01b031916918a1691821790556040519081527f32e3c8160f3ad415113c43e56fec4f8cda4518c6d3218dd8806991407acd6d0b915060200160405180910390a16002869055600385905560408051878152602081018790527f788db483524e27f5a39a54daaeb81bb48059af776767d0c1f600ef6e996d2818910160405180910390a160048490556040518481527fb4f38443948b39b669154b83689d2dfa2a4cb2b1fd458118da3d1bcdacfc56089060200160405180910390a160058390556040518381527faa06aa6d79ce3cb966afe332af120b3aa8252dc355d1d2dae1368babec5f3ee59060200160405180910390a160018290556040518281527fb8b290c068ed53e46165f3ca5215dcc2972ae26ae4c8fb5adc71a1c135f855139060200160405180910390a1505050505050505050505050505050505050620003d3565b600080620001ee60017fc9ed16f33ab3a66c84bfd83099ccb2a8845871e2e1c1928f63797152f0fd54cd620003b1565b92915050565b6001600160a01b038116156200024b5781546001600160a01b0319166001600160a01b03821690811783556040516000907f8be0079c531659141344cd1fd0a4f28419497f9722a3daafe3b4186f6b6457e0908290a35b6200026b6307f5828d60e41b6001620002636200026f565b91906200029f565b5050565b600080620001ee60017fca9d3e17f264b0f3984e2634e94adb37fa3e6a8103f06aeae6fa59e21c769f5e620003b1565b600160e01b6001600160e01b0319831601620002ce576040516372c683bb60e01b815260040160405180910390fd5b6001600160e01b03199190911660009081526020929092526040909120805460ff1916911515919091179055565b6001600160a01b03811681146200031257600080fd5b50565b60008060008060008060008060006101208a8c0312156200033557600080fd5b89516200034281620002fc565b60208b01519099506200035581620002fc565b60408b01519098506200036881620002fc565b8097505060608a0151955060808a0151945060a08a0151935060c08a0151925060e08a015191506101008a0151620003a081620002fc565b809150509295985092959850929598565b81810381811115620001ee57634e487b7160e01b600052601160045260246000fd5b60805160a05160c0516133a862000457600039600081816102a5015281816106a401528181610a9f01528181610b7f0152818161187701528181611eaf0152611f7e0152600081816104330152610e250152600081816102ee015281816103af0152818161262e015281816126b60152818161276901526127a701526133a86000f3fe608060405234801561001057600080fd5b506004361061025c5760003560e01c806388b681fe11610145578063c4c2bfdc116100bd578063e4f095d91161008c578063f5b541a611610071578063f5b541a6146105b3578063f7032194146105da578063f7ba94bd146105e357600080fd5b8063e4f095d91461058d578063f2fde38b146105a057600080fd5b8063c4c2bfdc1461052b578063d547741f14610540578063dd28617714610553578063e077f62b1461057a57600080fd5b8063af94a1d111610114578063b2b47e3b116100f9578063b2b47e3b146104fc578063b65dd45114610505578063c3666c361461051857600080fd5b8063af94a1d11461049f578063b07ed982146104e957600080fd5b806388b681fe1461045e5780638bb9c5bf146104715780638da5cb5b1461048457806391d148541461048c57600080fd5b806350f7c204116101d857806370243bcc116101a75780637ce4026f1161018c5780637ce4026f146104255780637f6e42811461042e57806385ca80761461045557600080fd5b806370243bcc146103ff57806373c8a9581461041257600080fd5b806350f7c204146103835780635625ac511461038c578063572b6c051461039f57806364c737da146103ec57600080fd5b80632f2ff15d1161022f578063386296f511610214578063386296f51461033d5780633d9f01fb1461035d578063409ad1961461037057600080fd5b80632f2ff15d1461031257806331e66e1e1461032757600080fd5b806301ffc9a714610261578063046604491461028957806315e682cb146102a05780632b4c9f16146102ec575b600080fd5b61027461026f366004612beb565b6105f6565b60405190151581526020015b60405180910390f35b61029260025481565b604051908152602001610280565b6102c77f000000000000000000000000000000000000000000000000000000000000000081565b60405173ffffffffffffffffffffffffffffffffffffffff9091168152602001610280565b7f00000000000000000000000000000000000000000000000000000000000000006102c7565b610325610320366004612c4f565b610610565b005b61032f610649565b604051610280929190612c7f565b6000546102c79073ffffffffffffffffffffffffffffffffffffffff1681565b6102c761036b366004612ccc565b61065c565b61032561037e366004612d31565b61075e565b61029260015481565b61032561039a366004612de5565b610f60565b6102746103ad366004612e07565b7f000000000000000000000000000000000000000000000000000000000000000073ffffffffffffffffffffffffffffffffffffffff90811691161490565b6103256103fa366004612e07565b610fe2565b61029261040d366004612e24565b611088565b610325610420366004612e66565b61117a565b61029260045481565b6102c77f000000000000000000000000000000000000000000000000000000000000000081565b61029260075481565b61032561046c366004612e24565b611278565b61032561047f366004612ccc565b6112a3565b6102c76112c1565b61027461049a366004612c4f565b6112ed565b6104ce6104ad366004612ccc565b60066020526000908152604090208054600182015460029092015490919083565b60408051938452602084019290925290820152606001610280565b6103256104f7366004612ccc565b611338565b61029260035481565b610325610513366004612ccc565b611399565b610325610526366004612e66565b6113fa565b610533611572565b6040516102809190612f6e565b61032561054e366004612c4f565b611600565b6102927f0e67d2d2c46f23cfff9f76c16187348901bf73ba32dcf6893f2a2a4b25be75f881565b610292610588366004612f81565b61162e565b61032561059b366004612ccc565b6119f6565b6103256105ae366004612e07565b611a57565b6102927f97667070c54ef182b0f5858b034beac1b6f3089aa2d3188bb1e8929f4fa9b92981565b61029260055481565b6103256105f136600461302e565b611a72565b600061060a82610604611b31565b90611b5f565b92915050565b600061061a611c39565b905061062e81610628611c43565b90611c71565b61064483838361063c611ce0565b929190611d0e565b505050565b366000610654611de5565b915091509091565b600081815260066020526040812060010154421015610724576040517f6352211e000000000000000000000000000000000000000000000000000000008152600481018390527f000000000000000000000000000000000000000000000000000000000000000073ffffffffffffffffffffffffffffffffffffffff1690636352211e90602401602060405180830381865afa158015610700573d6000803e3d6000fd5b505050506040513d601f19601f8201168201806040525081019061060a919061309a565b6040517f1297346f000000000000000000000000000000000000000000000000000000008152600481018390526024015b60405180910390fd5b6005548610610799576040517f2273ee1800000000000000000000000000000000000000000000000000000000815260040160405180910390fd5b8584146107d2576040517f6582533600000000000000000000000000000000000000000000000000000000815260040160405180910390fd5b600088905060008888808060200260200160405190810160405280939291908181526020018383602002808284376000920182905250604080516020808e0282810182019093528d825296975091959194508c93508b9250829185019084908082843760009201829052509394504293925061085391508990508884611df0565b60075461086091906130e6565b9050600061086d82612068565b905060008c67ffffffffffffffff81111561088a5761088a6130f9565b6040519080825280602002602001820160405280156108df57816020015b6108cc60405180606001604052806000815260200160008152602001600081525090565b8152602001906001900390816108a85790505b50905060008060005b8851811015610db157600089828151811061090557610905613128565b60200260200101519050600089838151811061092357610923613128565b602002602001015190508060000361096a576040517f21bd5ed100000000000000000000000000000000000000000000000000000000815260048101839052602401610755565b816000036109a7576040517f8ce0857d00000000000000000000000000000000000000000000000000000000815260006004820152602401610755565b60015482106109e5576040517f8ce0857d00000000000000000000000000000000000000000000000000000000815260048101839052602401610755565b60008281526006602052604081206001810154909103610b5057600454821115610a45576040517fee729b840000000000000000000000000000000000000000000000000000000081526004810184905260248101839052604401610755565b6040517f8832e6e300000000000000000000000000000000000000000000000000000000815273ffffffffffffffffffffffffffffffffffffffff8e811660048301526024820185905260606044830152600060648301527f00000000000000000000000000000000000000000000000000000000000000001690638832e6e390608401600060405180830381600087803b158015610ae357600080fd5b505af1158015610af7573d6000803e3d6000fd5b5050508a825550610b08828b613157565b600182015560035460025460009190610b21908561316a565b610b2b9190613181565b610b35908a613157565b600283018190559050610b488187613157565b955050610d53565b6040517f6352211e000000000000000000000000000000000000000000000000000000008152600481018490527f000000000000000000000000000000000000000000000000000000000000000073ffffffffffffffffffffffffffffffffffffffff1690636352211e90602401602060405180830381865afa158015610bdb573d6000803e3d6000fd5b505050506040513d601f19601f82011682018060405250810190610bff919061309a565b73ffffffffffffffffffffffffffffffffffffffff168d73ffffffffffffffffffffffffffffffffffffffff16148015610c3c575080600101548a105b15610d1e57600454815460018301548491610c56916130e6565b610c609190613157565b1115610cc157828282600001548360010154610c7c91906130e6565b610c869190613157565b6040517fee729b8400000000000000000000000000000000000000000000000000000000815260048101929092526024820152604401610755565b81816001016000828254610cd59190613157565b909155505060035460025460009190610cee908561316a565b610cf89190613181565b905080826002016000828254610d0e9190613157565b90915550610b4890508187613157565b6040517f139d679900000000000000000000000000000000000000000000000000000000815260048101849052602401610755565b6040805160608101825282548152600183015460208201526002830154918101919091528751889086908110610d8b57610d8b613128565b6020908102919091010152610da08287613157565b955050600190920191506108e89050565b508915801590610dc057508981115b15610e01576040517fd519701100000000000000000000000000000000000000000000000000000000815260048101829052602481018b9052604401610755565b610e0b8286613157565b60075573ffffffffffffffffffffffffffffffffffffffff7f00000000000000000000000000000000000000000000000000000000000000001663212aac79610e52611c39565b6040517fffffffff0000000000000000000000000000000000000000000000000000000060e084901b16815273ffffffffffffffffffffffffffffffffffffffff9091166004820152602481018490527f0e67d2d2c46f23cfff9f76c16187348901bf73ba32dcf6893f2a2a4b25be75f86044820152606401600060405180830381600087803b158015610ee557600080fd5b505af1158015610ef9573d6000803e3d6000fd5b505050508873ffffffffffffffffffffffffffffffffffffffff167f71abcae7327579f86b1266a4390233f926d8ce29f0ed821b7b334202bd314e0f8985604051610f459291906131bc565b60405180910390a25050505050505050505050505050505050565b610f9b7f97667070c54ef182b0f5858b034beac1b6f3089aa2d3188bb1e8929f4fa9b929610f8c611c39565b610f94611ce0565b91906120fc565b6002829055600381905560408051838152602081018390527f788db483524e27f5a39a54daaeb81bb48059af776767d0c1f600ef6e996d2818910160405180910390a15050565b61100e7f97667070c54ef182b0f5858b034beac1b6f3089aa2d3188bb1e8929f4fa9b929610f8c611c39565b600080547fffffffffffffffffffffffff00000000000000000000000000000000000000001673ffffffffffffffffffffffffffffffffffffffff83169081179091556040519081527f32e3c8160f3ad415113c43e56fec4f8cda4518c6d3218dd8806991407acd6d0b906020015b60405180910390a150565b600042815b838110156111725760008585838181106110a9576110a9613128565b9050602002013590506000600660008381526020019081526020016000209050806001015460000361110a576040517f1297346f00000000000000000000000000000000000000000000000000000000815260048101839052602401610755565b806001015484101561114b576040517f9be5764a00000000000000000000000000000000000000000000000000000000815260048101839052602401610755565b8054600182015461115c91906130e6565b6111669086613157565b9450505060010161108d565b505092915050565b61118d611185611c39565b610628611c43565b84838114158061119d5750808214155b156111d4576040517f6582533600000000000000000000000000000000000000000000000000000000815260040160405180910390fd5b60005b8181101561126e576112668888838181106111f4576111f4613128565b90506020020160208101906112099190612e07565b85858481811061121b5761121b613128565b9050602002013588888581811061123457611234613128565b90506020020160208101906112499190612e07565b73ffffffffffffffffffffffffffffffffffffffff169190612182565b6001016111d7565b5050505050505050565b6000611285838342611df0565b9050806007600082825461129991906130e6565b9091555050505050565b6112be6112ae611c39565b826112b7611ce0565b919061220f565b50565b60006112e86112ce611c43565b5473ffffffffffffffffffffffffffffffffffffffff1690565b905090565b600061133183836112fc611ce0565b60009283526020908152604080842073ffffffffffffffffffffffffffffffffffffffff909316845291905290205460ff1690565b9392505050565b6113647f97667070c54ef182b0f5858b034beac1b6f3089aa2d3188bb1e8929f4fa9b929610f8c611c39565b60018190556040518181527fb8b290c068ed53e46165f3ca5215dcc2972ae26ae4c8fb5adc71a1c135f855139060200161107d565b6113c57f97667070c54ef182b0f5858b034beac1b6f3089aa2d3188bb1e8929f4fa9b929610f8c611c39565b60058190556040518181527faa06aa6d79ce3cb966afe332af120b3aa8252dc355d1d2dae1368babec5f3ee59060200161107d565b611405611185611c39565b8483811415806114155750808214155b1561144c576040517f6582533600000000000000000000000000000000000000000000000000000000815260040160405180910390fd5b60005b8181101561126e5785858281811061146957611469613128565b905060200201602081019061147e9190612e07565b73ffffffffffffffffffffffffffffffffffffffff166323b872dd308a8a858181106114ac576114ac613128565b90506020020160208101906114c19190612e07565b8787868181106114d3576114d3613128565b6040517fffffffff0000000000000000000000000000000000000000000000000000000060e088901b16815273ffffffffffffffffffffffffffffffffffffffff958616600482015294909316602485015250602090910201356044820152606401600060405180830381600087803b15801561154f57600080fd5b505af1158015611563573d6000803e3d6000fd5b5050505080600101905061144f565b6008805461157f9061324c565b80601f01602080910402602001604051908101604052809291908181526020018280546115ab9061324c565b80156115f85780601f106115cd576101008083540402835291602001916115f8565b820191906000526020600020905b8154815290600101906020018083116115db57829003601f168201915b505050505081565b600061160a611c39565b905061161881610628611c43565b610644838383611626611ce0565b9291906122b3565b600554600090861061166c576040517f2273ee1800000000000000000000000000000000000000000000000000000000815260040160405180910390fd5b8584146116a5576040517f6582533600000000000000000000000000000000000000000000000000000000815260040160405180910390fd5b4260006116b28585611088565b905060006116cc826007546116c791906130e6565b612068565b90506000805b8a8110156119e65760008a8a838181106116ee576116ee613128565b90506020020135905060008d8d8481811061170b5761170b613128565b90506020020135905081600003611751576040517f21bd5ed100000000000000000000000000000000000000000000000000000000815260048101829052602401610755565b8060000361178e576040517f8ce0857d00000000000000000000000000000000000000000000000000000000815260006004820152602401610755565b60015481106117cc576040517f8ce0857d00000000000000000000000000000000000000000000000000000000815260048101829052602401610755565b6000818152600660209081526040808320815160608101835281548152600182015493810184905260029091015491810191909152910361185e5760045483111561184d576040517fee729b840000000000000000000000000000000000000000000000000000000081526004810183905260248101849052604401610755565b6118578686613157565b94506119b1565b8f73ffffffffffffffffffffffffffffffffffffffff167f000000000000000000000000000000000000000000000000000000000000000073ffffffffffffffffffffffffffffffffffffffff16636352211e846040518263ffffffff1660e01b81526004016118d091815260200190565b602060405180830381865afa1580156118ed573d6000803e3d6000fd5b505050506040513d601f19601f82011682018060405250810190611911919061309a565b73ffffffffffffffffffffffffffffffffffffffff161480156119375750806020015188105b1561197c57600454815160208301518591611951916130e6565b61195b9190613157565b111561197757818382600001518360200151610c7c91906130e6565b6119b1565b6040517f139d679900000000000000000000000000000000000000000000000000000000815260048101839052602401610755565b6003546002546119c1908561316a565b6119cb9190613181565b6119d59086613157565b945050600190920191506116d29050565b509b9a5050505050505050505050565b611a227f97667070c54ef182b0f5858b034beac1b6f3089aa2d3188bb1e8929f4fa9b929610f8c611c39565b60048190556040518181527fb4f38443948b39b669154b83689d2dfa2a4cb2b1fd458118da3d1bcdacfc56089060200161107d565b6112be611a62611c39565b82611a6b611c43565b919061237d565b611a7d611185611c39565b82818114611ab7576040517f6582533600000000000000000000000000000000000000000000000000000000815260040160405180910390fd5b60005b81811015611b2957611b21848483818110611ad757611ad7613128565b90506020020135878784818110611af057611af0613128565b9050602002016020810190611b059190612e07565b73ffffffffffffffffffffffffffffffffffffffff1690612491565b600101611aba565b505050505050565b60008061060a60017fca9d3e17f264b0f3984e2634e94adb37fa3e6a8103f06aeae6fa59e21c769f5e6130e6565b60007c01000000000000000000000000000000000000000000000000000000007fffffffff00000000000000000000000000000000000000000000000000000000831601611baf5750600061060a565b7ffe003659000000000000000000000000000000000000000000000000000000007fffffffff00000000000000000000000000000000000000000000000000000000831601611c005750600161060a565b507fffffffff00000000000000000000000000000000000000000000000000000000166000908152602091909152604090205460ff1690565b60006112e86125eb565b60008061060a60017fc9ed16f33ab3a66c84bfd83099ccb2a8845871e2e1c1928f63797152f0fd54cd6130e6565b815473ffffffffffffffffffffffffffffffffffffffff828116911614611cdc576040517f2ef4875e00000000000000000000000000000000000000000000000000000000815273ffffffffffffffffffffffffffffffffffffffff82166004820152602401610755565b5050565b60008061060a60017fc8827d3282af6f37b64c3e9e6f3ac9df286ab0bb0fccd6f8661bf19adb368b236130e6565b60008381526020858152604080832073ffffffffffffffffffffffffffffffffffffffff8616845290915290205460ff16611ddf5760008381526020858152604080832073ffffffffffffffffffffffffffffffffffffffff8681168086529184529382902080547fffffffffffffffffffffffffffffffffffffffffffffffffffffffffffffff00166001179055815187815292830152918316918101919091527f2f8788117e7eff1d82e926ec794901d17c78024a50270940304540a733656f0d906060015b60405180910390a15b50505050565b366000610654612732565b6000805b83811015612021576000858583818110611e1057611e10613128565b90506020020135905060006006600083815260200190815260200160002090508060010154600014158015611e49575080600101548510155b15611fe25780546001820154611e5f91906130e6565b611e699085613157565b600080835560018301819055600283018190556040517f6352211e00000000000000000000000000000000000000000000000000000000815260048101859052919550907f000000000000000000000000000000000000000000000000000000000000000073ffffffffffffffffffffffffffffffffffffffff1690636352211e90602401602060405180830381865afa158015611f0b573d6000803e3d6000fd5b505050506040513d601f19601f82011682018060405250810190611f2f919061309a565b6040517f79cc679000000000000000000000000000000000000000000000000000000000815273ffffffffffffffffffffffffffffffffffffffff8083166004830152602482018690529192507f0000000000000000000000000000000000000000000000000000000000000000909116906379cc679090604401600060405180830381600087803b158015611fc457600080fd5b505af1158015611fd8573d6000803e3d6000fd5b5050505050612017565b6040517f9be5764a00000000000000000000000000000000000000000000000000000000815260048101839052602401610755565b5050600101611df4565b508215611331577f9e5430727c5f2b23597e7cb2670240cc8fbb4031a0dad53562812b380e286b3d848460405161205992919061329f565b60405180910390a19392505050565b600080546040517fef1130e70000000000000000000000000000000000000000000000000000000081526004810184905273ffffffffffffffffffffffffffffffffffffffff9091169063ef1130e790602401602060405180830381865afa1580156120d8573d6000803e3d6000fd5b505050506040513d601f19601f8201168201806040525081019061060a91906132f1565b60008281526020848152604080832073ffffffffffffffffffffffffffffffffffffffff8516845290915290205460ff16610644576040517f7aa728820000000000000000000000000000000000000000000000000000000081526004810183905273ffffffffffffffffffffffffffffffffffffffff82166024820152604401610755565b6040805173ffffffffffffffffffffffffffffffffffffffff8416602482015260448082018490528251808303909101815260649091019091526020810180517bffffffffffffffffffffffffffffffffffffffffffffffffffffffff167fa9059cbb0000000000000000000000000000000000000000000000000000000017905261064490849061289c565b61221a8382846120fc565b60008181526020848152604080832073ffffffffffffffffffffffffffffffffffffffff86168085529083529281902080547fffffffffffffffffffffffffffffffffffffffffffffffffffffffffffffff0016905580518481529182018390528101919091527ff6391f5c32d9c69d2a47ea670b442974b53935d1edc7fd64eb21e047a839171b9060600160405180910390a1505050565b60008381526020858152604080832073ffffffffffffffffffffffffffffffffffffffff8616845290915290205460ff1615611ddf5760008381526020858152604080832073ffffffffffffffffffffffffffffffffffffffff8681168086529184529382902080547fffffffffffffffffffffffffffffffffffffffffffffffffffffffffffffff00169055815187815292830152918316918101919091527ff6391f5c32d9c69d2a47ea670b442974b53935d1edc7fd64eb21e047a839171b90606001611dd6565b825473ffffffffffffffffffffffffffffffffffffffff90811690831681146123ea576040517f2ef4875e00000000000000000000000000000000000000000000000000000000815273ffffffffffffffffffffffffffffffffffffffff84166004820152602401610755565b8173ffffffffffffffffffffffffffffffffffffffff168173ffffffffffffffffffffffffffffffffffffffff1614611ddf5783547fffffffffffffffffffffffff00000000000000000000000000000000000000001673ffffffffffffffffffffffffffffffffffffffff8381169182178655604051908316907f8be0079c531659141344cd1fd0a4f28419497f9722a3daafe3b4186f6b6457e090600090a350505050565b804710156124fb576040517f08c379a000000000000000000000000000000000000000000000000000000000815260206004820152601d60248201527f416464726573733a20696e73756666696369656e742062616c616e63650000006044820152606401610755565b60008273ffffffffffffffffffffffffffffffffffffffff168260405160006040518083038185875af1925050503d8060008114612555576040519150601f19603f3d011682016040523d82523d6000602084013e61255a565b606091505b5050905080610644576040517f08c379a000000000000000000000000000000000000000000000000000000000815260206004820152603a60248201527f416464726573733a20756e61626c6520746f2073656e642076616c75652c207260448201527f6563697069656e74206d617920686176652072657665727465640000000000006064820152608401610755565b6000333214806125fb5750601836105b1561260557503390565b7fffffffffffffffffffffffffffffffffffffffffffffffffffffffffffffffec36013560601c7f000000000000000000000000000000000000000000000000000000000000000073ffffffffffffffffffffffffffffffffffffffff1633148061272157506040517f8929a8ca00000000000000000000000000000000000000000000000000000000815273ffffffffffffffffffffffffffffffffffffffff82811660048301523360248301527f00000000000000000000000000000000000000000000000000000000000000001690638929a8ca90604401602060405180830381865afa1580156126fd573d6000803e3d6000fd5b505050506040513d601f19601f82011682018060405250810190612721919061330a565b1561272b57919050565b3391505090565b366000333214806127435750601836105b156127515750600091369150565b3373ffffffffffffffffffffffffffffffffffffffff7f0000000000000000000000000000000000000000000000000000000000000000161480612886575073ffffffffffffffffffffffffffffffffffffffff7f000000000000000000000000000000000000000000000000000000000000000016638929a8ca367fffffffffffffffffffffffffffffffffffffffffffffffffffffffffffffffec013560601c6040517fffffffff0000000000000000000000000000000000000000000000000000000060e084901b16815273ffffffffffffffffffffffffffffffffffffffff9091166004820152336024820152604401602060405180830381865afa158015612862573d6000803e3d6000fd5b505050506040513d601f19601f82011682018060405250810190612886919061330a565b15612893576106546129ab565b50600091369150565b60006128fe826040518060400160405280602081526020017f5361666545524332303a206c6f772d6c6576656c2063616c6c206661696c65648152508573ffffffffffffffffffffffffffffffffffffffff166129dc9092919063ffffffff16565b905080516000148061291f57508080602001905181019061291f919061330a565b610644576040517f08c379a000000000000000000000000000000000000000000000000000000000815260206004820152602a60248201527f5361666545524332303a204552433230206f7065726174696f6e20646964206e60448201527f6f742073756363656564000000000000000000000000000000000000000000006064820152608401610755565b3660006106547fffffffffffffffffffffffffffffffffffffffffffffffffffffffffffffffec830182848161332c565b60606129eb84846000856129f3565b949350505050565b606082471015612a85576040517f08c379a000000000000000000000000000000000000000000000000000000000815260206004820152602660248201527f416464726573733a20696e73756666696369656e742062616c616e636520666f60448201527f722063616c6c00000000000000000000000000000000000000000000000000006064820152608401610755565b6000808673ffffffffffffffffffffffffffffffffffffffff168587604051612aae9190613356565b60006040518083038185875af1925050503d8060008114612aeb576040519150601f19603f3d011682016040523d82523d6000602084013e612af0565b606091505b5091509150612b0187838387612b0c565b979650505050505050565b60608315612ba2578251600003612b9b5773ffffffffffffffffffffffffffffffffffffffff85163b612b9b576040517f08c379a000000000000000000000000000000000000000000000000000000000815260206004820152601d60248201527f416464726573733a2063616c6c20746f206e6f6e2d636f6e74726163740000006044820152606401610755565b50816129eb565b6129eb8383815115612bb75781518083602001fd5b806040517f08c379a00000000000000000000000000000000000000000000000000000000081526004016107559190612f6e565b600060208284031215612bfd57600080fd5b81357fffffffff000000000000000000000000000000000000000000000000000000008116811461133157600080fd5b73ffffffffffffffffffffffffffffffffffffffff811681146112be57600080fd5b60008060408385031215612c6257600080fd5b823591506020830135612c7481612c2d565b809150509250929050565b60208152816020820152818360408301376000818301604090810191909152601f9092017fffffffffffffffffffffffffffffffffffffffffffffffffffffffffffffffe0160101919050565b600060208284031215612cde57600080fd5b5035919050565b60008083601f840112612cf757600080fd5b50813567ffffffffffffffff811115612d0f57600080fd5b6020830191508360208260051b8501011115612d2a57600080fd5b9250929050565b60008060008060008060008060a0898b031215612d4d57600080fd5b8835612d5881612c2d565b9750602089013567ffffffffffffffff80821115612d7557600080fd5b612d818c838d01612ce5565b909950975060408b0135915080821115612d9a57600080fd5b612da68c838d01612ce5565b909750955060608b0135915080821115612dbf57600080fd5b50612dcc8b828c01612ce5565b999c989b50969995989497949560800135949350505050565b60008060408385031215612df857600080fd5b50508035926020909101359150565b600060208284031215612e1957600080fd5b813561133181612c2d565b60008060208385031215612e3757600080fd5b823567ffffffffffffffff811115612e4e57600080fd5b612e5a85828601612ce5565b90969095509350505050565b60008060008060008060608789031215612e7f57600080fd5b863567ffffffffffffffff80821115612e9757600080fd5b612ea38a838b01612ce5565b90985096506020890135915080821115612ebc57600080fd5b612ec88a838b01612ce5565b90965094506040890135915080821115612ee157600080fd5b50612eee89828a01612ce5565b979a9699509497509295939492505050565b60005b83811015612f1b578181015183820152602001612f03565b50506000910152565b60008151808452612f3c816020860160208601612f00565b601f017fffffffffffffffffffffffffffffffffffffffffffffffffffffffffffffffe0169290920160200192915050565b6020815260006113316020830184612f24565b60008060008060008060006080888a031215612f9c57600080fd5b8735612fa781612c2d565b9650602088013567ffffffffffffffff80821115612fc457600080fd5b612fd08b838c01612ce5565b909850965060408a0135915080821115612fe957600080fd5b612ff58b838c01612ce5565b909650945060608a013591508082111561300e57600080fd5b5061301b8a828b01612ce5565b989b979a50959850939692959293505050565b6000806000806040858703121561304457600080fd5b843567ffffffffffffffff8082111561305c57600080fd5b61306888838901612ce5565b9096509450602087013591508082111561308157600080fd5b5061308e87828801612ce5565b95989497509550505050565b6000602082840312156130ac57600080fd5b815161133181612c2d565b7f4e487b7100000000000000000000000000000000000000000000000000000000600052601160045260246000fd5b8181038181111561060a5761060a6130b7565b7f4e487b7100000000000000000000000000000000000000000000000000000000600052604160045260246000fd5b7f4e487b7100000000000000000000000000000000000000000000000000000000600052603260045260246000fd5b8082018082111561060a5761060a6130b7565b808202811582820484141761060a5761060a6130b7565b6000826131b7577f4e487b7100000000000000000000000000000000000000000000000000000000600052601260045260246000fd5b500490565b6040808252835182820181905260009190606090818501906020808901865b838110156131f7578151855293820193908201906001016131db565b5050868303818801528751808452888201938201925060005b8181101561323d578451805185528381015184860152870151878501529382019392850192600101613210565b50919998505050505050505050565b600181811c9082168061326057607f821691505b602082108103613299577f4e487b7100000000000000000000000000000000000000000000000000000000600052602260045260246000fd5b50919050565b6020815281602082015260007f07ffffffffffffffffffffffffffffffffffffffffffffffffffffffffffffff8311156132d857600080fd5b8260051b80856040850137919091016040019392505050565b60006020828403121561330357600080fd5b5051919050565b60006020828403121561331c57600080fd5b8151801515811461133157600080fd5b6000808585111561333c57600080fd5b8386111561334957600080fd5b5050820193919092039150565b60008251613368818460208701612f00565b919091019291505056fea2646970667358221220df2c95474861f1ddadd225af08cbaf61ca576ed24e3a6a59ee9049853273832d64736f6c63430008160033",
  "linkReferences": {},
  "deployedLinkReferences": {}
}