{
  "_format": "hh-sol-artifact-1",
  "contractName": "EDULandRentalMock",
  "sourceName": "contracts/mocks/land/EDULandRentalMock.sol",
  "abi": [
    {
      "inputs": [
        {
          "internalType": "address",
          "name": "nodeKeyAddress",
          "type": "address"
        },
        {
          "internalType": "address",
          "name": "pointsAddress",
          "type": "address"
        },
        {
          "internalType": "address",
          "name": "rentalFeeHelperAddress",
          "type": "address"
        },
        {
          "internalType": "uint256",
          "name": "maintenceFee_",
          "type": "uint256"
        },
        {
          "internalType": "uint256",
          "name": "maintenanceFeeDenominator_",
          "type": "uint256"
        },
        {
          "internalType": "uint256",
          "name": "minRentalDuration_",
          "type": "uint256"
        },
        {
          "internalType": "uint256",
          "name": "maxRentalDuration_",
          "type": "uint256"
        },
        {
          "internalType": "uint256",
          "name": "maxRentalCountPerCall_",
          "type": "uint256"
        },
        {
          "internalType": "uint256",
          "name": "maxTokenSupply_",
          "type": "uint256"
        },
        {
          "internalType": "contract IForwarderRegistry",
          "name": "forwarderRegistry",
          "type": "address"
        }
      ],
      "stateMutability": "nonpayable",
      "type": "constructor"
    },
    {
      "inputs": [
        {
          "internalType": "uint256",
          "name": "calculatedFee",
          "type": "uint256"
        },
        {
          "internalType": "uint256",
          "name": "maxFee",
          "type": "uint256"
        }
      ],
      "name": "FeeExceeded",
      "type": "error"
    },
    {
      "inputs": [],
      "name": "IllegalInterfaceId",
      "type": "error"
    },
    {
      "inputs": [],
      "name": "InconsistentArrayLengths",
      "type": "error"
    },
    {
      "inputs": [],
      "name": "InvalidLandAddress",
      "type": "error"
    },
    {
      "inputs": [],
      "name": "InvalidPointsAddress",
      "type": "error"
    },
    {
      "inputs": [],
      "name": "InvalidTokenIdsParam",
      "type": "error"
    },
    {
      "inputs": [],
      "name": "NoTokenCollected",
      "type": "error"
    },
    {
      "inputs": [
        {
          "internalType": "address",
          "name": "account",
          "type": "address"
        }
      ],
      "name": "NotContractOwner",
      "type": "error"
    },
    {
      "inputs": [
        {
          "internalType": "bytes32",
          "name": "role",
          "type": "bytes32"
        },
        {
          "internalType": "address",
          "name": "account",
          "type": "address"
        }
      ],
      "name": "NotRoleHolder",
      "type": "error"
    },
    {
      "inputs": [],
      "name": "RentalCountPerCallLimitExceeded",
      "type": "error"
    },
    {
      "inputs": [
        {
          "internalType": "uint256",
          "name": "tokenId",
          "type": "uint256"
        }
      ],
      "name": "RentalDurationTooHigh",
      "type": "error"
    },
    {
      "inputs": [
        {
          "internalType": "uint256",
          "name": "tokenId",
          "type": "uint256"
        }
      ],
      "name": "RentalDurationTooLow",
      "type": "error"
    },
    {
      "inputs": [
        {
          "internalType": "uint256",
          "name": "tokenId",
          "type": "uint256"
        }
      ],
      "name": "TokenAlreadyRented",
      "type": "error"
    },
    {
      "inputs": [
        {
          "internalType": "uint256",
          "name": "tokenId",
          "type": "uint256"
        }
      ],
      "name": "TokenNotExpired",
      "type": "error"
    },
    {
      "inputs": [
        {
          "internalType": "uint256",
          "name": "tokenId",
          "type": "uint256"
        }
      ],
      "name": "TokenNotRented",
      "type": "error"
    },
    {
      "inputs": [
        {
          "internalType": "uint256",
          "name": "tokenId",
          "type": "uint256"
        }
      ],
      "name": "UnsupportedTokenId",
      "type": "error"
    },
    {
      "anonymous": false,
      "inputs": [
        {
          "indexed": false,
          "internalType": "uint256[]",
          "name": "tokenIds",
          "type": "uint256[]"
        }
      ],
      "name": "Collected",
      "type": "event"
    },
    {
      "anonymous": false,
      "inputs": [
        {
          "indexed": false,
          "internalType": "address",
          "name": "newLandPriceHelper",
          "type": "address"
        }
      ],
      "name": "LandPriceHelperUpdated",
      "type": "event"
    },
    {
      "anonymous": false,
      "inputs": [
        {
          "indexed": false,
          "internalType": "uint256",
          "name": "newMaintenanceFee",
          "type": "uint256"
        },
        {
          "indexed": false,
          "internalType": "uint256",
          "name": "newMaintenanceFeeDenominator",
          "type": "uint256"
        }
      ],
      "name": "MaintenanceFeeUpdated",
      "type": "event"
    },
    {
      "anonymous": false,
      "inputs": [
        {
          "indexed": false,
          "internalType": "uint256",
          "name": "newMaxRentalCountPerCall",
          "type": "uint256"
        }
      ],
      "name": "MaxRentalCountPerCallUpdated",
      "type": "event"
    },
    {
      "anonymous": false,
      "inputs": [
        {
          "indexed": false,
          "internalType": "uint256",
          "name": "newMaxRentalDuration",
          "type": "uint256"
        }
      ],
      "name": "MaxRentalDurationUpdated",
      "type": "event"
    },
    {
      "anonymous": false,
      "inputs": [
        {
          "indexed": false,
          "internalType": "uint256",
          "name": "newMaxTokenSupply",
          "type": "uint256"
        }
      ],
      "name": "MaxTokenSupplyUpdated",
      "type": "event"
    },
    {
      "anonymous": false,
      "inputs": [
        {
          "indexed": false,
          "internalType": "uint256",
          "name": "newMinRentalDuration",
          "type": "uint256"
        }
      ],
      "name": "MinRentalDurationUpdated",
      "type": "event"
    },
    {
      "anonymous": false,
      "inputs": [
        {
          "indexed": true,
          "internalType": "address",
          "name": "previousOwner",
          "type": "address"
        },
        {
          "indexed": true,
          "internalType": "address",
          "name": "newOwner",
          "type": "address"
        }
      ],
      "name": "OwnershipTransferred",
      "type": "event"
    },
    {
      "anonymous": false,
      "inputs": [
        {
          "indexed": true,
          "internalType": "address",
          "name": "renter",
          "type": "address"
        },
        {
          "indexed": false,
          "internalType": "uint256[]",
          "name": "tokenIds",
          "type": "uint256[]"
        },
        {
          "indexed": false,
          "internalType": "uint256[]",
          "name": "beginDates",
          "type": "uint256[]"
        },
        {
          "indexed": false,
          "internalType": "uint256[]",
          "name": "endDates",
          "type": "uint256[]"
        },
        {
          "indexed": false,
          "internalType": "uint256[]",
          "name": "fees",
          "type": "uint256[]"
        }
      ],
      "name": "Rental",
      "type": "event"
    },
    {
      "anonymous": false,
      "inputs": [
        {
          "indexed": false,
          "internalType": "bytes32",
          "name": "role",
          "type": "bytes32"
        },
        {
          "indexed": false,
          "internalType": "address",
          "name": "account",
          "type": "address"
        },
        {
          "indexed": false,
          "internalType": "address",
          "name": "operator",
          "type": "address"
        }
      ],
      "name": "RoleGranted",
      "type": "event"
    },
    {
      "anonymous": false,
      "inputs": [
        {
          "indexed": false,
          "internalType": "bytes32",
          "name": "role",
          "type": "bytes32"
        },
        {
          "indexed": false,
          "internalType": "address",
          "name": "account",
          "type": "address"
        },
        {
          "indexed": false,
          "internalType": "address",
          "name": "operator",
          "type": "address"
        }
      ],
      "name": "RoleRevoked",
      "type": "event"
    },
    {
      "inputs": [],
      "name": "EDU_LAND",
      "outputs": [
        {
          "internalType": "contract IEDULand",
          "name": "",
          "type": "address"
        }
      ],
      "stateMutability": "view",
      "type": "function"
    },
    {
      "inputs": [],
      "name": "OPERATOR_ROLE",
      "outputs": [
        {
          "internalType": "bytes32",
          "name": "",
          "type": "bytes32"
        }
      ],
      "stateMutability": "view",
      "type": "function"
    },
    {
      "inputs": [],
      "name": "POINTS",
      "outputs": [
        {
          "internalType": "contract Points",
          "name": "",
          "type": "address"
        }
      ],
      "stateMutability": "view",
      "type": "function"
    },
    {
      "inputs": [],
      "name": "RENTAL_CONSUME_CODE",
      "outputs": [
        {
          "internalType": "bytes32",
          "name": "",
          "type": "bytes32"
        }
      ],
      "stateMutability": "view",
      "type": "function"
    },
    {
      "inputs": [],
      "name": "__msgData",
      "outputs": [
        {
          "internalType": "bytes",
          "name": "",
          "type": "bytes"
        }
      ],
      "stateMutability": "view",
      "type": "function"
    },
    {
      "inputs": [
        {
          "internalType": "uint256[]",
          "name": "tokenIds",
          "type": "uint256[]"
        }
      ],
      "name": "calculateElapsedTimeForExpiredTokens",
      "outputs": [
        {
          "internalType": "uint256",
          "name": "elapsedTime",
          "type": "uint256"
        }
      ],
      "stateMutability": "view",
      "type": "function"
    },
    {
      "inputs": [
        {
          "internalType": "uint256[]",
          "name": "tokenIds",
          "type": "uint256[]"
        }
      ],
      "name": "collectExpiredTokens",
      "outputs": [],
      "stateMutability": "nonpayable",
      "type": "function"
    },
    {
      "inputs": [
        {
          "internalType": "uint256",
          "name": "totalOngoingRentalTime_",
          "type": "uint256"
        }
      ],
      "name": "estimateLandPrice",
      "outputs": [
        {
          "internalType": "uint256",
          "name": "",
          "type": "uint256"
        }
      ],
      "stateMutability": "view",
      "type": "function"
    },
    {
      "inputs": [
        {
          "internalType": "uint256[]",
          "name": "tokenIds",
          "type": "uint256[]"
        },
        {
          "internalType": "uint256[]",
          "name": "durations",
          "type": "uint256[]"
        },
        {
          "internalType": "uint256[]",
          "name": "expiredTokenIds",
          "type": "uint256[]"
        }
      ],
      "name": "estimateRentalFee",
      "outputs": [
        {
          "internalType": "uint256",
          "name": "fee",
          "type": "uint256"
        }
      ],
      "stateMutability": "view",
      "type": "function"
    },
    {
      "inputs": [],
      "name": "forwarderRegistry",
      "outputs": [
        {
          "internalType": "contract IForwarderRegistry",
          "name": "",
          "type": "address"
        }
      ],
      "stateMutability": "view",
      "type": "function"
    },
    {
      "inputs": [
        {
          "internalType": "bytes32",
          "name": "role",
          "type": "bytes32"
        },
        {
          "internalType": "address",
          "name": "account",
          "type": "address"
        }
      ],
      "name": "grantRole",
      "outputs": [],
      "stateMutability": "nonpayable",
      "type": "function"
    },
    {
      "inputs": [
        {
          "internalType": "bytes32",
          "name": "role",
          "type": "bytes32"
        },
        {
          "internalType": "address",
          "name": "account",
          "type": "address"
        }
      ],
      "name": "hasRole",
      "outputs": [
        {
          "internalType": "bool",
          "name": "hasRole_",
          "type": "bool"
        }
      ],
      "stateMutability": "view",
      "type": "function"
    },
    {
      "inputs": [
        {
          "internalType": "address",
          "name": "forwarder",
          "type": "address"
        }
      ],
      "name": "isTrustedForwarder",
      "outputs": [
        {
          "internalType": "bool",
          "name": "",
          "type": "bool"
        }
      ],
      "stateMutability": "view",
      "type": "function"
    },
    {
      "inputs": [],
      "name": "landPriceHelper",
      "outputs": [
        {
          "internalType": "contract IEDULandPriceHelper",
          "name": "",
          "type": "address"
        }
      ],
      "stateMutability": "view",
      "type": "function"
    },
    {
      "inputs": [],
      "name": "maintenanceFee",
      "outputs": [
        {
          "internalType": "uint256",
          "name": "",
          "type": "uint256"
        }
      ],
      "stateMutability": "view",
      "type": "function"
    },
    {
      "inputs": [],
      "name": "maintenanceFeeDenominator",
      "outputs": [
        {
          "internalType": "uint256",
          "name": "",
          "type": "uint256"
        }
      ],
      "stateMutability": "view",
      "type": "function"
    },
    {
      "inputs": [],
      "name": "maxRentalCountPerCall",
      "outputs": [
        {
          "internalType": "uint256",
          "name": "",
          "type": "uint256"
        }
      ],
      "stateMutability": "view",
      "type": "function"
    },
    {
      "inputs": [],
      "name": "maxRentalDuration",
      "outputs": [
        {
          "internalType": "uint256",
          "name": "",
          "type": "uint256"
        }
      ],
      "stateMutability": "view",
      "type": "function"
    },
    {
      "inputs": [],
      "name": "maxTokenSupply",
      "outputs": [
        {
          "internalType": "uint256",
          "name": "",
          "type": "uint256"
        }
      ],
      "stateMutability": "view",
      "type": "function"
    },
    {
      "inputs": [],
      "name": "minRentalDuration",
      "outputs": [
        {
          "internalType": "uint256",
          "name": "",
          "type": "uint256"
        }
      ],
      "stateMutability": "view",
      "type": "function"
    },
    {
      "inputs": [],
      "name": "msgData",
      "outputs": [
        {
          "internalType": "bytes",
          "name": "",
          "type": "bytes"
        }
      ],
      "stateMutability": "view",
      "type": "function"
    },
    {
      "inputs": [],
      "name": "owner",
      "outputs": [
        {
          "internalType": "address",
          "name": "",
          "type": "address"
        }
      ],
      "stateMutability": "view",
      "type": "function"
    },
    {
      "inputs": [
        {
          "internalType": "address[]",
          "name": "accounts",
          "type": "address[]"
        },
        {
          "internalType": "contract IERC20[]",
          "name": "tokens",
          "type": "address[]"
        },
        {
          "internalType": "uint256[]",
          "name": "amounts",
          "type": "uint256[]"
        }
      ],
      "name": "recoverERC20s",
      "outputs": [],
      "stateMutability": "nonpayable",
      "type": "function"
    },
    {
      "inputs": [
        {
          "internalType": "address[]",
          "name": "accounts",
          "type": "address[]"
        },
        {
          "internalType": "contract IERC721[]",
          "name": "contracts",
          "type": "address[]"
        },
        {
          "internalType": "uint256[]",
          "name": "tokenIds",
          "type": "uint256[]"
        }
      ],
      "name": "recoverERC721s",
      "outputs": [],
      "stateMutability": "nonpayable",
      "type": "function"
    },
    {
      "inputs": [
        {
          "internalType": "address payable[]",
          "name": "accounts",
          "type": "address[]"
        },
        {
          "internalType": "uint256[]",
          "name": "amounts",
          "type": "uint256[]"
        }
      ],
      "name": "recoverETH",
      "outputs": [],
      "stateMutability": "nonpayable",
      "type": "function"
    },
    {
      "inputs": [
        {
          "internalType": "bytes32",
          "name": "role",
          "type": "bytes32"
        }
      ],
      "name": "renounceRole",
      "outputs": [],
      "stateMutability": "nonpayable",
      "type": "function"
    },
    {
      "inputs": [
        {
          "internalType": "uint256[]",
          "name": "tokenIds",
          "type": "uint256[]"
        },
        {
          "internalType": "uint256[]",
          "name": "durations",
          "type": "uint256[]"
        },
        {
          "internalType": "uint256[]",
          "name": "expiredTokenIds",
          "type": "uint256[]"
        },
        {
          "internalType": "uint256",
          "name": "maxFee",
          "type": "uint256"
        }
      ],
      "name": "rent",
      "outputs": [],
      "stateMutability": "nonpayable",
      "type": "function"
    },
    {
      "inputs": [
        {
          "internalType": "uint256",
          "name": "",
          "type": "uint256"
        }
      ],
      "name": "rentals",
      "outputs": [
        {
          "internalType": "uint256",
          "name": "beginDate",
          "type": "uint256"
        },
        {
          "internalType": "uint256",
          "name": "endDate",
          "type": "uint256"
        },
        {
          "internalType": "uint256",
          "name": "fee",
          "type": "uint256"
        }
      ],
      "stateMutability": "view",
      "type": "function"
    },
    {
      "inputs": [
        {
          "internalType": "bytes32",
          "name": "role",
          "type": "bytes32"
        },
        {
          "internalType": "address",
          "name": "account",
          "type": "address"
        }
      ],
      "name": "revokeRole",
      "outputs": [],
      "stateMutability": "nonpayable",
      "type": "function"
    },
    {
      "inputs": [
        {
          "internalType": "address",
          "name": "newLandPriceHelper",
          "type": "address"
        }
      ],
      "name": "setLandPriceHelper",
      "outputs": [],
      "stateMutability": "nonpayable",
      "type": "function"
    },
    {
      "inputs": [
        {
          "internalType": "uint256",
          "name": "newMaintenanceFee",
          "type": "uint256"
        },
        {
          "internalType": "uint256",
          "name": "newMaintenanceFeeDenominator",
          "type": "uint256"
        }
      ],
      "name": "setMaintenanceFee",
      "outputs": [],
      "stateMutability": "nonpayable",
      "type": "function"
    },
    {
      "inputs": [
        {
          "internalType": "uint256",
          "name": "newRentalCountPerCall",
          "type": "uint256"
        }
      ],
      "name": "setMaxRentalCountPerCall",
      "outputs": [],
      "stateMutability": "nonpayable",
      "type": "function"
    },
    {
      "inputs": [
        {
          "internalType": "uint256",
          "name": "newMaxRentalDuration",
          "type": "uint256"
        }
      ],
      "name": "setMaxRentalDuration",
      "outputs": [],
      "stateMutability": "nonpayable",
      "type": "function"
    },
    {
      "inputs": [
        {
          "internalType": "uint256",
          "name": "newMaxTokenSupply",
          "type": "uint256"
        }
      ],
      "name": "setMaxTokenSupply",
      "outputs": [],
      "stateMutability": "nonpayable",
      "type": "function"
    },
    {
      "inputs": [
        {
          "internalType": "uint256",
          "name": "newMinRentalDuration",
          "type": "uint256"
        }
      ],
      "name": "setMinRentalDuration",
      "outputs": [],
      "stateMutability": "nonpayable",
      "type": "function"
    },
    {
      "inputs": [
        {
          "internalType": "bytes4",
          "name": "interfaceId",
          "type": "bytes4"
        }
      ],
      "name": "supportsInterface",
      "outputs": [
        {
          "internalType": "bool",
          "name": "",
          "type": "bool"
        }
      ],
      "stateMutability": "view",
      "type": "function"
    },
    {
      "inputs": [],
      "name": "totalOngoingRentalTime",
      "outputs": [
        {
          "internalType": "uint256",
          "name": "",
          "type": "uint256"
        }
      ],
      "stateMutability": "view",
      "type": "function"
    },
    {
      "inputs": [
        {
          "internalType": "address",
          "name": "newOwner",
          "type": "address"
        }
      ],
      "name": "transferOwnership",
      "outputs": [],
      "stateMutability": "nonpayable",
      "type": "function"
    }
  ],
  "bytecode": "0x60e06040523480156200001157600080fd5b50604051620038d0380380620038d08339810160408190526200003491620003a1565b898989898989898989898080336200005781620000506200024a565b9062000280565b506001600160a01b039081166080528b1690506200008857604051639ae269af60e01b815260040160405180910390fd5b6001600160a01b03808b1660c0528916620000b65760405163a276d54960e01b815260040160405180910390fd5b6001600160a01b0389811660a052600080546001600160a01b031916918a1691821790556040519081527fd99014e6f6a21a1f7025e1599288b52168db6241486596946f759a520d4ddfea9060200160405180910390a16002879055600386905560408051888152602081018890527f788db483524e27f5a39a54daaeb81bb48059af776767d0c1f600ef6e996d2818910160405180910390a160048590556040518581527f7d9d1c986503049ed25e197e416ddaeef53d62a8479d6371784f05a9d9da98249060200160405180910390a160058490556040518481527fb4f38443948b39b669154b83689d2dfa2a4cb2b1fd458118da3d1bcdacfc56089060200160405180910390a160068390556040518381527faa06aa6d79ce3cb966afe332af120b3aa8252dc355d1d2dae1368babec5f3ee59060200160405180910390a160018290556040518281527fb8b290c068ed53e46165f3ca5215dcc2972ae26ae4c8fb5adc71a1c135f855139060200160405180910390a150505050505050505050505050505050505050506200046a565b6000806200027a60017fc9ed16f33ab3a66c84bfd83099ccb2a8845871e2e1c1928f63797152f0fd54cd62000448565b92915050565b6001600160a01b03811615620002d75781546001600160a01b0319166001600160a01b03821690811783556040516000907f8be0079c531659141344cd1fd0a4f28419497f9722a3daafe3b4186f6b6457e0908290a35b620002f76307f5828d60e41b6001620002ef620002fb565b91906200032b565b5050565b6000806200027a60017fca9d3e17f264b0f3984e2634e94adb37fa3e6a8103f06aeae6fa59e21c769f5e62000448565b600160e01b6001600160e01b03198316016200035a576040516372c683bb60e01b815260040160405180910390fd5b6001600160e01b03199190911660009081526020929092526040909120805460ff1916911515919091179055565b6001600160a01b03811681146200039e57600080fd5b50565b6000806000806000806000806000806101408b8d031215620003c257600080fd5b8a51620003cf8162000388565b60208c0151909a50620003e28162000388565b60408c0151909950620003f58162000388565b8098505060608b0151965060808b0151955060a08b0151945060c08b0151935060e08b015192506101008b015191506101208b0151620004358162000388565b809150509295989b9194979a5092959850565b818103818111156200027a57634e487b7160e01b600052601160045260246000fd5b60805160a05160c0516133e9620004e7600039600081816102db01528181610a1701528181610b670152818161184901528181611f070152611fd601526000818161044c0152610e68015260008181610359015281816103db01528181612811015281816128990152818161294c015261298a01526133e96000f3fe608060405234801561001057600080fd5b50600436106102925760003560e01c80638ecd7b7311610160578063d547741f116100d8578063f5b541a61161008c578063f7ba94bd11610071578063f7ba94bd1461060f578063f7df6bad14610622578063fb203c171461063557600080fd5b8063f5b541a6146105df578063f70321941461060657600080fd5b8063e105c43c116100bd578063e105c43c146105a6578063e4f095d9146105b9578063f2fde38b146105cc57600080fd5b8063d547741f1461056c578063dd2861771461057f57600080fd5b8063b07ed9821161012f578063b65dd45111610114578063b65dd45114610531578063c3666c3614610544578063c4c2bfdc1461055757600080fd5b8063b07ed98214610515578063b2b47e3b1461052857600080fd5b80638ecd7b731461049c57806391d14854146104af578063a5f73758146104c2578063af94a1d1146104cb57600080fd5b806350f7c2041161020e5780637ce4026f116101c257806388b681fe116101a757806388b681fe1461046e5780638bb9c5bf146104815780638da5cb5b1461049457600080fd5b80637ce4026f1461043e5780637f6e42811461044757600080fd5b8063572b6c05116101f3578063572b6c05146103cb57806370243bcc1461041857806373c8a9581461042b57600080fd5b806350f7c204146103af5780635625ac51146103b857600080fd5b806321d42816116102655780632f2ff15d1161024a5780632f2ff15d1461037d57806331e66e1e1461039057806334f1a8d3146103a657600080fd5b806321d42816146103425780632b4c9f161461035757600080fd5b806301ffc9a71461029757806304660449146102bf57806315e682cb146102d65780631aabc61d14610322575b600080fd5b6102aa6102a5366004612d30565b610648565b60405190151581526020015b60405180910390f35b6102c860025481565b6040519081526020016102b6565b6102fd7f000000000000000000000000000000000000000000000000000000000000000081565b60405173ffffffffffffffffffffffffffffffffffffffff90911681526020016102b6565b6000546102fd9073ffffffffffffffffffffffffffffffffffffffff1681565b610355610350366004612dbe565b610662565b005b7f00000000000000000000000000000000000000000000000000000000000000006102fd565b61035561038b366004612e83565b610f2b565b610398610f64565b6040516102b6929190612eb3565b6102c860045481565b6102c860015481565b6103556103c6366004612f00565b610f77565b6102aa6103d9366004612f22565b7f000000000000000000000000000000000000000000000000000000000000000073ffffffffffffffffffffffffffffffffffffffff90811691161490565b6102c8610426366004612f3f565b610ff9565b610355610439366004612f81565b611088565b6102c860055481565b6102fd7f000000000000000000000000000000000000000000000000000000000000000081565b61035561047c366004612f3f565b611186565b61035561048f36600461301b565b6111b3565b6102fd6111d1565b6102c86104aa36600461301b565b6111fd565b6102aa6104bd366004612e83565b611291565b6102c860085481565b6104fa6104d936600461301b565b60076020526000908152604090208054600182015460029092015490919083565b604080519384526020840192909252908201526060016102b6565b61035561052336600461301b565b6112dc565b6102c860035481565b61035561053f36600461301b565b611344565b610355610552366004612f81565b6113a5565b61055f61151d565b6040516102b691906130a2565b61035561057a366004612e83565b6115ab565b6102c87f0e67d2d2c46f23cfff9f76c16187348901bf73ba32dcf6893f2a2a4b25be75f881565b6102c86105b4366004612f81565b6115d9565b6103556105c736600461301b565b611abd565b6103556105da366004612f22565b611b1e565b6102c87f97667070c54ef182b0f5858b034beac1b6f3089aa2d3188bb1e8929f4fa9b92981565b6102c860065481565b61035561061d3660046130b5565b611b39565b610355610630366004612f22565b611bf8565b61035561064336600461301b565b611c97565b600061065c82610656611cf8565b90611d26565b92915050565b60008787808060200260200160405190810160405280939291908181526020018383602002808284376000920182905250604080516020808d0282810182019093528c825296975091959194508b93508a92508291850190849080828437600092019190915250508251855193945092909214915061070f9050576040517f6582533600000000000000000000000000000000000000000000000000000000815260040160405180910390fd5b6006548251111561074c576040517f2273ee1800000000000000000000000000000000000000000000000000000000815260040160405180910390fd5b42600061075b87878484611e00565b6008546107689190613150565b90506000610775826111fd565b90506000610781612128565b90506000865167ffffffffffffffff81111561079f5761079f613163565b6040519080825280602002602001820160405280156107c8578160200160208202803683370190505b5090506000875167ffffffffffffffff8111156107e7576107e7613163565b604051908082528060200260200182016040528015610810578160200160208202803683370190505b5090506000885167ffffffffffffffff81111561082f5761082f613163565b604051908082528060200260200182016040528015610858578160200160208202803683370190505b5090506000805b8a51811015610da15760008b828151811061087c5761087c613192565b6020026020010151905060008b838151811061089a5761089a613192565b60200260200101519050816000036108e6576040517f8ce0857d000000000000000000000000000000000000000000000000000000008152600060048201526024015b60405180910390fd5b600154821115610925576040517f8ce0857d000000000000000000000000000000000000000000000000000000008152600481018390526024016108dd565b600554811115610964576040517fb479b655000000000000000000000000000000000000000000000000000000008152600481018390526024016108dd565b60008281526007602052604081206001810154909103610b38576004548210156109bd576040517f508a9a3a000000000000000000000000000000000000000000000000000000008152600481018490526024016108dd565b6040517f8832e6e300000000000000000000000000000000000000000000000000000000815273ffffffffffffffffffffffffffffffffffffffff8a811660048301526024820185905260606044830152600060648301527f00000000000000000000000000000000000000000000000000000000000000001690638832e6e390608401600060405180830381600087803b158015610a5b57600080fd5b505af1158015610a6f573d6000803e3d6000fd5b5050508c8255506000610a82838e6131c1565b60018301819055600354600254919250600091610a9f90866131d4565b610aa991906131eb565b610ab3908d6131c1565b600284018190559050610ac681886131c1565b9650610ad2848e6131c1565b9c508d8a8781518110610ae757610ae7613192565b60200260200101818152505081898781518110610b0657610b06613192565b60200260200101818152505080888781518110610b2557610b25613192565b6020026020010181815250505050610d96565b6040517f6352211e000000000000000000000000000000000000000000000000000000008152600481018490527f000000000000000000000000000000000000000000000000000000000000000073ffffffffffffffffffffffffffffffffffffffff1690636352211e90602401602060405180830381865afa158015610bc3573d6000803e3d6000fd5b505050506040513d601f19601f82011682018060405250810190610be79190613226565b73ffffffffffffffffffffffffffffffffffffffff168973ffffffffffffffffffffffffffffffffffffffff16148015610c24575080600101548c105b15610d61576000610c35838e6131c1565b6001830154600454919250908190610c4d9084613150565b1015610c88576040517f508a9a3a000000000000000000000000000000000000000000000000000000008152600481018690526024016108dd565b6000610c948284613150565b60018501849055600354600254919250600091610cb190846131d4565b610cbb91906131eb565b610cc5908f6131c1565b905080856002016000828254610cdb91906131c1565b90915550610ceb9050818a6131c1565b9850818f610cf991906131c1565b9e50828c8981518110610d0e57610d0e613192565b602002602001018181525050838b8981518110610d2d57610d2d613192565b602002602001018181525050808a8981518110610d4c57610d4c613192565b60200260200101818152505050505050610d96565b6040517f139d6799000000000000000000000000000000000000000000000000000000008152600481018490526024016108dd565b50505060010161085f565b508a15801590610db057508a81115b15610df1576040517fd519701100000000000000000000000000000000000000000000000000000000815260048101829052602481018c90526044016108dd565b60088790556040517f212aac7900000000000000000000000000000000000000000000000000000000815273ffffffffffffffffffffffffffffffffffffffff8681166004830152602482018390527f0e67d2d2c46f23cfff9f76c16187348901bf73ba32dcf6893f2a2a4b25be75f860448301527f0000000000000000000000000000000000000000000000000000000000000000169063212aac7990606401600060405180830381600087803b158015610eac57600080fd5b505af1158015610ec0573d6000803e3d6000fd5b505050508473ffffffffffffffffffffffffffffffffffffffff167f34a3f395b50735b2b7b8f7ece79da6b46efdb3f0aeb0eb5871dcff84354d03758b868686604051610f10949392919061327f565b60405180910390a25050505050505050505050505050505050565b6000610f35612128565b9050610f4981610f43612132565b90612160565b610f5f838383610f576121cf565b9291906121fd565b505050565b366000610f6f6122d4565b915091509091565b610fb27f97667070c54ef182b0f5858b034beac1b6f3089aa2d3188bb1e8929f4fa9b929610fa3612128565b610fab6121cf565b91906122df565b6002829055600381905560408051838152602081018390527f788db483524e27f5a39a54daaeb81bb48059af776767d0c1f600ef6e996d2818910160405180910390a15050565b600042815b8381101561108057600085858381811061101a5761101a613192565b90506020020135905060006007600083815260200190815260200160002090508060010154600014158015611053575080600101548410155b1561107657805460018201546110699190613150565b61107390866131c1565b94505b5050600101610ffe565b505092915050565b61109b611093612128565b610f43612132565b8483811415806110ab5750808214155b156110e2576040517f6582533600000000000000000000000000000000000000000000000000000000815260040160405180910390fd5b60005b8181101561117c5761117488888381811061110257611102613192565b90506020020160208101906111179190612f22565b85858481811061112957611129613192565b9050602002013588888581811061114257611142613192565b90506020020160208101906111579190612f22565b73ffffffffffffffffffffffffffffffffffffffff169190612365565b6001016110e5565b5050505050505050565b60006111958383426001611e00565b905080600860008282546111a99190613150565b9091555050505050565b6111ce6111be612128565b826111c76121cf565b91906123f2565b50565b60006111f86111de612132565b5473ffffffffffffffffffffffffffffffffffffffff1690565b905090565b600080546040517fae1042650000000000000000000000000000000000000000000000000000000081526004810184905273ffffffffffffffffffffffffffffffffffffffff9091169063ae10426590602401602060405180830381865afa15801561126d573d6000803e3d6000fd5b505050506040513d601f19601f8201168201806040525081019061065c91906132cc565b60006112d583836112a06121cf565b60009283526020908152604080842073ffffffffffffffffffffffffffffffffffffffff909316845291905290205460ff1690565b9392505050565b6113087f97667070c54ef182b0f5858b034beac1b6f3089aa2d3188bb1e8929f4fa9b929610fa3612128565b60018190556040518181527fb8b290c068ed53e46165f3ca5215dcc2972ae26ae4c8fb5adc71a1c135f85513906020015b60405180910390a150565b6113707f97667070c54ef182b0f5858b034beac1b6f3089aa2d3188bb1e8929f4fa9b929610fa3612128565b60068190556040518181527faa06aa6d79ce3cb966afe332af120b3aa8252dc355d1d2dae1368babec5f3ee590602001611339565b6113b0611093612128565b8483811415806113c05750808214155b156113f7576040517f6582533600000000000000000000000000000000000000000000000000000000815260040160405180910390fd5b60005b8181101561117c5785858281811061141457611414613192565b90506020020160208101906114299190612f22565b73ffffffffffffffffffffffffffffffffffffffff166323b872dd308a8a8581811061145757611457613192565b905060200201602081019061146c9190612f22565b87878681811061147e5761147e613192565b6040517fffffffff0000000000000000000000000000000000000000000000000000000060e088901b16815273ffffffffffffffffffffffffffffffffffffffff958616600482015294909316602485015250602090910201356044820152606401600060405180830381600087803b1580156114fa57600080fd5b505af115801561150e573d6000803e3d6000fd5b505050508060010190506113fa565b6009805461152a906132e5565b80601f0160208091040260200160405190810160405280929190818152602001828054611556906132e5565b80156115a35780601f10611578576101008083540402835291602001916115a3565b820191906000526020600020905b81548152906001019060200180831161158657829003601f168201915b505050505081565b60006115b5612128565b90506115c381610f43612132565b610f5f8383836115d16121cf565b929190612496565b6000858414611614576040517f6582533600000000000000000000000000000000000000000000000000000000815260040160405180910390fd5b600654861115611650576040517f2273ee1800000000000000000000000000000000000000000000000000000000815260040160405180910390fd5b42600061165d8585610ff9565b90506000611672826008546104aa9190613150565b90506000805b8a811015611a995760008a8a8381811061169457611694613192565b90506020020135905060008d8d848181106116b1576116b1613192565b905060200201359050806000036116f7576040517f8ce0857d000000000000000000000000000000000000000000000000000000008152600060048201526024016108dd565b600154811115611736576040517f8ce0857d000000000000000000000000000000000000000000000000000000008152600481018290526024016108dd565b600554821115611775576040517fb479b655000000000000000000000000000000000000000000000000000000008152600481018290526024016108dd565b6000818152600760209081526040808320815160608101835281548152600182015493810184905260029091015491810191909152910361181a576004548310156117ef576040517f508a9a3a000000000000000000000000000000000000000000000000000000008152600481018390526024016108dd565b6003546002546117ff90856131d4565b61180991906131eb565b61181390866131c1565b9450611a8e565b6040517f6352211e000000000000000000000000000000000000000000000000000000008152600481018390527f000000000000000000000000000000000000000000000000000000000000000073ffffffffffffffffffffffffffffffffffffffff1690636352211e90602401602060405180830381865afa1580156118a5573d6000803e3d6000fd5b505050506040513d601f19601f820116820180604052508101906118c99190613226565b73ffffffffffffffffffffffffffffffffffffffff166118e7612128565b73ffffffffffffffffffffffffffffffffffffffff1614801561190d5750806020015188105b156119b057600061191e848a6131c1565b90508160200151600454826119339190613150565b101561196e576040517f508a9a3a000000000000000000000000000000000000000000000000000000008152600481018490526024016108dd565b60008260200151826119809190613150565b90506003546002548261199391906131d4565b61199d91906131eb565b6119a790886131c1565b96505050611a8e565b6004548310156119ef576040517f508a9a3a000000000000000000000000000000000000000000000000000000008152600481018390526024016108dd565b6000805b8b811015611a2b578c8c82818110611a0d57611a0d613192565b905060200201358403611a235760019150611a2b565b6001016119f3565b5080611a66576040517f139d6799000000000000000000000000000000000000000000000000000000008152600481018490526024016108dd565b600354600254611a7690866131d4565b611a8091906131eb565b611a8a90876131c1565b9550505b505050600101611678565b50611aa48a836131d4565b611aae90826131c1565b9b9a5050505050505050505050565b611ae97f97667070c54ef182b0f5858b034beac1b6f3089aa2d3188bb1e8929f4fa9b929610fa3612128565b60058190556040518181527fb4f38443948b39b669154b83689d2dfa2a4cb2b1fd458118da3d1bcdacfc560890602001611339565b6111ce611b29612128565b82611b32612132565b9190612560565b611b44611093612128565b82818114611b7e576040517f6582533600000000000000000000000000000000000000000000000000000000815260040160405180910390fd5b60005b81811015611bf057611be8848483818110611b9e57611b9e613192565b90506020020135878784818110611bb757611bb7613192565b9050602002016020810190611bcc9190612f22565b73ffffffffffffffffffffffffffffffffffffffff1690612674565b600101611b81565b505050505050565b611c247f97667070c54ef182b0f5858b034beac1b6f3089aa2d3188bb1e8929f4fa9b929610fa3612128565b600080547fffffffffffffffffffffffff00000000000000000000000000000000000000001673ffffffffffffffffffffffffffffffffffffffff83169081179091556040519081527fd99014e6f6a21a1f7025e1599288b52168db6241486596946f759a520d4ddfea90602001611339565b611cc37f97667070c54ef182b0f5858b034beac1b6f3089aa2d3188bb1e8929f4fa9b929610fa3612128565b60048190556040518181527f7d9d1c986503049ed25e197e416ddaeef53d62a8479d6371784f05a9d9da982490602001611339565b60008061065c60017fca9d3e17f264b0f3984e2634e94adb37fa3e6a8103f06aeae6fa59e21c769f5e613150565b60007c01000000000000000000000000000000000000000000000000000000007fffffffff00000000000000000000000000000000000000000000000000000000831601611d765750600061065c565b7ffe003659000000000000000000000000000000000000000000000000000000007fffffffff00000000000000000000000000000000000000000000000000000000831601611dc75750600161065c565b507fffffffff00000000000000000000000000000000000000000000000000000000166000908152602091909152604090205460ff1690565b6000808467ffffffffffffffff811115611e1c57611e1c613163565b604051908082528060200260200182016040528015611e45578160200160208202803683370190505b5090506000805b868110156120a2576000888883818110611e6857611e68613192565b90506020020135905060006007600083815260200190815260200160002090508060010154600014158015611ea1575080600101548810155b1561205d5780546001820154611eb79190613150565b611ec190876131c1565b600080835560018301819055600283018190556040517f6352211e00000000000000000000000000000000000000000000000000000000815260048101859052919750907f000000000000000000000000000000000000000000000000000000000000000073ffffffffffffffffffffffffffffffffffffffff1690636352211e90602401602060405180830381865afa158015611f63573d6000803e3d6000fd5b505050506040513d601f19601f82011682018060405250810190611f879190613226565b6040517f79cc679000000000000000000000000000000000000000000000000000000000815273ffffffffffffffffffffffffffffffffffffffff8083166004830152602482018690529192507f0000000000000000000000000000000000000000000000000000000000000000909116906379cc679090604401600060405180830381600087803b15801561201c57600080fd5b505af1158015612030573d6000803e3d6000fd5b505050508286858151811061204757612047613192565b6020026020010181815250506001945050612098565b8615612098576040517f9be5764a000000000000000000000000000000000000000000000000000000008152600481018390526024016108dd565b5050600101611e4c565b5080156120e5577f9e5430727c5f2b23597e7cb2670240cc8fbb4031a0dad53562812b380e286b3d826040516120d89190613338565b60405180910390a161211d565b831561211d576040517f8c59e32400000000000000000000000000000000000000000000000000000000815260040160405180910390fd5b50505b949350505050565b60006111f86127ce565b60008061065c60017fc9ed16f33ab3a66c84bfd83099ccb2a8845871e2e1c1928f63797152f0fd54cd613150565b815473ffffffffffffffffffffffffffffffffffffffff8281169116146121cb576040517f2ef4875e00000000000000000000000000000000000000000000000000000000815273ffffffffffffffffffffffffffffffffffffffff821660048201526024016108dd565b5050565b60008061065c60017fc8827d3282af6f37b64c3e9e6f3ac9df286ab0bb0fccd6f8661bf19adb368b23613150565b60008381526020858152604080832073ffffffffffffffffffffffffffffffffffffffff8616845290915290205460ff166122ce5760008381526020858152604080832073ffffffffffffffffffffffffffffffffffffffff8681168086529184529382902080547fffffffffffffffffffffffffffffffffffffffffffffffffffffffffffffff00166001179055815187815292830152918316918101919091527f2f8788117e7eff1d82e926ec794901d17c78024a50270940304540a733656f0d906060015b60405180910390a15b50505050565b366000610f6f612915565b60008281526020848152604080832073ffffffffffffffffffffffffffffffffffffffff8516845290915290205460ff16610f5f576040517f7aa728820000000000000000000000000000000000000000000000000000000081526004810183905273ffffffffffffffffffffffffffffffffffffffff821660248201526044016108dd565b6040805173ffffffffffffffffffffffffffffffffffffffff8416602482015260448082018490528251808303909101815260649091019091526020810180517bffffffffffffffffffffffffffffffffffffffffffffffffffffffff167fa9059cbb00000000000000000000000000000000000000000000000000000000179052610f5f908490612a7f565b6123fd8382846122df565b60008181526020848152604080832073ffffffffffffffffffffffffffffffffffffffff86168085529083529281902080547fffffffffffffffffffffffffffffffffffffffffffffffffffffffffffffff0016905580518481529182018390528101919091527ff6391f5c32d9c69d2a47ea670b442974b53935d1edc7fd64eb21e047a839171b9060600160405180910390a1505050565b60008381526020858152604080832073ffffffffffffffffffffffffffffffffffffffff8616845290915290205460ff16156122ce5760008381526020858152604080832073ffffffffffffffffffffffffffffffffffffffff8681168086529184529382902080547fffffffffffffffffffffffffffffffffffffffffffffffffffffffffffffff00169055815187815292830152918316918101919091527ff6391f5c32d9c69d2a47ea670b442974b53935d1edc7fd64eb21e047a839171b906060016122c5565b825473ffffffffffffffffffffffffffffffffffffffff90811690831681146125cd576040517f2ef4875e00000000000000000000000000000000000000000000000000000000815273ffffffffffffffffffffffffffffffffffffffff841660048201526024016108dd565b8173ffffffffffffffffffffffffffffffffffffffff168173ffffffffffffffffffffffffffffffffffffffff16146122ce5783547fffffffffffffffffffffffff00000000000000000000000000000000000000001673ffffffffffffffffffffffffffffffffffffffff8381169182178655604051908316907f8be0079c531659141344cd1fd0a4f28419497f9722a3daafe3b4186f6b6457e090600090a350505050565b804710156126de576040517f08c379a000000000000000000000000000000000000000000000000000000000815260206004820152601d60248201527f416464726573733a20696e73756666696369656e742062616c616e636500000060448201526064016108dd565b60008273ffffffffffffffffffffffffffffffffffffffff168260405160006040518083038185875af1925050503d8060008114612738576040519150601f19603f3d011682016040523d82523d6000602084013e61273d565b606091505b5050905080610f5f576040517f08c379a000000000000000000000000000000000000000000000000000000000815260206004820152603a60248201527f416464726573733a20756e61626c6520746f2073656e642076616c75652c207260448201527f6563697069656e74206d6179206861766520726576657274656400000000000060648201526084016108dd565b6000333214806127de5750601836105b156127e857503390565b7fffffffffffffffffffffffffffffffffffffffffffffffffffffffffffffffec36013560601c7f000000000000000000000000000000000000000000000000000000000000000073ffffffffffffffffffffffffffffffffffffffff1633148061290457506040517f8929a8ca00000000000000000000000000000000000000000000000000000000815273ffffffffffffffffffffffffffffffffffffffff82811660048301523360248301527f00000000000000000000000000000000000000000000000000000000000000001690638929a8ca90604401602060405180830381865afa1580156128e0573d6000803e3d6000fd5b505050506040513d601f19601f82011682018060405250810190612904919061334b565b1561290e57919050565b3391505090565b366000333214806129265750601836105b156129345750600091369150565b3373ffffffffffffffffffffffffffffffffffffffff7f0000000000000000000000000000000000000000000000000000000000000000161480612a69575073ffffffffffffffffffffffffffffffffffffffff7f000000000000000000000000000000000000000000000000000000000000000016638929a8ca367fffffffffffffffffffffffffffffffffffffffffffffffffffffffffffffffec013560601c6040517fffffffff0000000000000000000000000000000000000000000000000000000060e084901b16815273ffffffffffffffffffffffffffffffffffffffff9091166004820152336024820152604401602060405180830381865afa158015612a45573d6000803e3d6000fd5b505050506040513d601f19601f82011682018060405250810190612a69919061334b565b15612a7657610f6f612b8e565b50600091369150565b6000612ae1826040518060400160405280602081526020017f5361666545524332303a206c6f772d6c6576656c2063616c6c206661696c65648152508573ffffffffffffffffffffffffffffffffffffffff16612bbf9092919063ffffffff16565b9050805160001480612b02575080806020019051810190612b02919061334b565b610f5f576040517f08c379a000000000000000000000000000000000000000000000000000000000815260206004820152602a60248201527f5361666545524332303a204552433230206f7065726174696f6e20646964206e60448201527f6f7420737563636565640000000000000000000000000000000000000000000060648201526084016108dd565b366000610f6f7fffffffffffffffffffffffffffffffffffffffffffffffffffffffffffffffec830182848161336d565b60606121208484600085856000808673ffffffffffffffffffffffffffffffffffffffff168587604051612bf39190613397565b60006040518083038185875af1925050503d8060008114612c30576040519150601f19603f3d011682016040523d82523d6000602084013e612c35565b606091505b5091509150612c4687838387612c51565b979650505050505050565b60608315612ce7578251600003612ce05773ffffffffffffffffffffffffffffffffffffffff85163b612ce0576040517f08c379a000000000000000000000000000000000000000000000000000000000815260206004820152601d60248201527f416464726573733a2063616c6c20746f206e6f6e2d636f6e747261637400000060448201526064016108dd565b5081612120565b6121208383815115612cfc5781518083602001fd5b806040517f08c379a00000000000000000000000000000000000000000000000000000000081526004016108dd91906130a2565b600060208284031215612d4257600080fd5b81357fffffffff00000000000000000000000000000000000000000000000000000000811681146112d557600080fd5b60008083601f840112612d8457600080fd5b50813567ffffffffffffffff811115612d9c57600080fd5b6020830191508360208260051b8501011115612db757600080fd5b9250929050565b60008060008060008060006080888a031215612dd957600080fd5b873567ffffffffffffffff80821115612df157600080fd5b612dfd8b838c01612d72565b909950975060208a0135915080821115612e1657600080fd5b612e228b838c01612d72565b909750955060408a0135915080821115612e3b57600080fd5b50612e488a828b01612d72565b989b979a50959894979596606090950135949350505050565b73ffffffffffffffffffffffffffffffffffffffff811681146111ce57600080fd5b60008060408385031215612e9657600080fd5b823591506020830135612ea881612e61565b809150509250929050565b60208152816020820152818360408301376000818301604090810191909152601f9092017fffffffffffffffffffffffffffffffffffffffffffffffffffffffffffffffe0160101919050565b60008060408385031215612f1357600080fd5b50508035926020909101359150565b600060208284031215612f3457600080fd5b81356112d581612e61565b60008060208385031215612f5257600080fd5b823567ffffffffffffffff811115612f6957600080fd5b612f7585828601612d72565b90969095509350505050565b60008060008060008060608789031215612f9a57600080fd5b863567ffffffffffffffff80821115612fb257600080fd5b612fbe8a838b01612d72565b90985096506020890135915080821115612fd757600080fd5b612fe38a838b01612d72565b90965094506040890135915080821115612ffc57600080fd5b5061300989828a01612d72565b979a9699509497509295939492505050565b60006020828403121561302d57600080fd5b5035919050565b60005b8381101561304f578181015183820152602001613037565b50506000910152565b60008151808452613070816020860160208601613034565b601f017fffffffffffffffffffffffffffffffffffffffffffffffffffffffffffffffe0169290920160200192915050565b6020815260006112d56020830184613058565b600080600080604085870312156130cb57600080fd5b843567ffffffffffffffff808211156130e357600080fd5b6130ef88838901612d72565b9096509450602087013591508082111561310857600080fd5b5061311587828801612d72565b95989497509550505050565b7f4e487b7100000000000000000000000000000000000000000000000000000000600052601160045260246000fd5b8181038181111561065c5761065c613121565b7f4e487b7100000000000000000000000000000000000000000000000000000000600052604160045260246000fd5b7f4e487b7100000000000000000000000000000000000000000000000000000000600052603260045260246000fd5b8082018082111561065c5761065c613121565b808202811582820484141761065c5761065c613121565b600082613221577f4e487b7100000000000000000000000000000000000000000000000000000000600052601260045260246000fd5b500490565b60006020828403121561323857600080fd5b81516112d581612e61565b60008151808452602080850194506020840160005b8381101561327457815187529582019590820190600101613258565b509495945050505050565b6080815260006132926080830187613243565b82810360208401526132a48187613243565b905082810360408401526132b88186613243565b90508281036060840152612c468185613243565b6000602082840312156132de57600080fd5b5051919050565b600181811c908216806132f957607f821691505b602082108103613332577f4e487b7100000000000000000000000000000000000000000000000000000000600052602260045260246000fd5b50919050565b6020815260006112d56020830184613243565b60006020828403121561335d57600080fd5b815180151581146112d557600080fd5b6000808585111561337d57600080fd5b8386111561338a57600080fd5b5050820193919092039150565b600082516133a9818460208701613034565b919091019291505056fea2646970667358221220fe2cd1e885635e738b4f31cbd09438a83a753305b7eeefaeb2e22b798c31125164736f6c63430008160033",
  "linkReferences": {},
  "deployedLinkReferences": {}
}