{
  "_format": "hh-sol-artifact-1",
  "contractName": "EDULandRentalMock",
  "sourceName": "contracts/mocks/land/EDULandRentalMock.sol",
  "abi": [
    {
      "inputs": [
        {
          "internalType": "address",
          "name": "nodeKeyAddress",
          "type": "address"
        },
        {
          "internalType": "address",
          "name": "pointsAddress",
          "type": "address"
        },
        {
          "internalType": "address",
          "name": "rentalFeeHelperAddress",
          "type": "address"
        },
        {
          "internalType": "uint256",
          "name": "maintenceFee_",
          "type": "uint256"
        },
        {
          "internalType": "uint256",
          "name": "maxRentalDuration_",
          "type": "uint256"
        },
        {
          "internalType": "uint256",
          "name": "maxRentalCountPerCall_",
          "type": "uint256"
        },
        {
          "internalType": "uint256",
          "name": "maxTokenSupply_",
          "type": "uint256"
        },
        {
          "internalType": "contract IForwarderRegistry",
          "name": "forwarderRegistry",
          "type": "address"
        }
      ],
      "stateMutability": "nonpayable",
      "type": "constructor"
    },
    {
      "inputs": [
        {
          "internalType": "uint256",
          "name": "calculatedFee",
          "type": "uint256"
        },
        {
          "internalType": "uint256",
          "name": "maxFee",
          "type": "uint256"
        }
      ],
      "name": "FeeExceeded",
      "type": "error"
    },
    {
      "inputs": [],
      "name": "IllegalInterfaceId",
      "type": "error"
    },
    {
      "inputs": [],
      "name": "InconsistentArrayLengths",
      "type": "error"
    },
    {
      "inputs": [],
      "name": "InvalidTokenIdsParam",
      "type": "error"
    },
    {
      "inputs": [
        {
          "internalType": "address",
          "name": "account",
          "type": "address"
        }
      ],
      "name": "NotContractOwner",
      "type": "error"
    },
    {
      "inputs": [
        {
          "internalType": "bytes32",
          "name": "role",
          "type": "bytes32"
        },
        {
          "internalType": "address",
          "name": "account",
          "type": "address"
        }
      ],
      "name": "NotRoleHolder",
      "type": "error"
    },
    {
      "inputs": [],
      "name": "RentalCountPerCallLimitExceeded",
      "type": "error"
    },
    {
      "inputs": [
        {
          "internalType": "uint256",
          "name": "tokenId",
          "type": "uint256"
        },
        {
          "internalType": "uint256",
          "name": "duration",
          "type": "uint256"
        }
      ],
      "name": "RentalDurationLimitExceeded",
      "type": "error"
    },
    {
      "inputs": [
        {
          "internalType": "uint256",
          "name": "tokenId",
          "type": "uint256"
        }
      ],
      "name": "TokenAlreadyRented",
      "type": "error"
    },
    {
      "inputs": [
        {
          "internalType": "uint256",
          "name": "tokenId",
          "type": "uint256"
        }
      ],
      "name": "TokenNotExpired",
      "type": "error"
    },
    {
      "inputs": [
        {
          "internalType": "uint256",
          "name": "tokenId",
          "type": "uint256"
        }
      ],
      "name": "TokenNotRented",
      "type": "error"
    },
    {
      "inputs": [
        {
          "internalType": "uint256",
          "name": "tokenId",
          "type": "uint256"
        }
      ],
      "name": "UnsupportedTokenId",
      "type": "error"
    },
    {
      "inputs": [
        {
          "internalType": "uint256",
          "name": "tokenId",
          "type": "uint256"
        }
      ],
      "name": "ZeroRentalDuration",
      "type": "error"
    },
    {
      "anonymous": false,
      "inputs": [
        {
          "indexed": false,
          "internalType": "uint256[]",
          "name": "tokenIds",
          "type": "uint256[]"
        }
      ],
      "name": "Collected",
      "type": "event"
    },
    {
      "anonymous": false,
      "inputs": [
        {
          "indexed": false,
          "internalType": "uint256",
          "name": "newMaintenanceFee",
          "type": "uint256"
        }
      ],
      "name": "MaintenanceFeeUpdated",
      "type": "event"
    },
    {
      "anonymous": false,
      "inputs": [
        {
          "indexed": false,
          "internalType": "uint256",
          "name": "newMaxRentalCountPerCall",
          "type": "uint256"
        }
      ],
      "name": "MaxRentalCountPerCallUpdated",
      "type": "event"
    },
    {
      "anonymous": false,
      "inputs": [
        {
          "indexed": false,
          "internalType": "uint256",
          "name": "newMaxRentalDuration",
          "type": "uint256"
        }
      ],
      "name": "MaxRentalDurationUpdated",
      "type": "event"
    },
    {
      "anonymous": false,
      "inputs": [
        {
          "indexed": false,
          "internalType": "uint256",
          "name": "newMaxTokenSupply",
          "type": "uint256"
        }
      ],
      "name": "MaxTokenSupplyUpdated",
      "type": "event"
    },
    {
      "anonymous": false,
      "inputs": [
        {
          "indexed": true,
          "internalType": "address",
          "name": "previousOwner",
          "type": "address"
        },
        {
          "indexed": true,
          "internalType": "address",
          "name": "newOwner",
          "type": "address"
        }
      ],
      "name": "OwnershipTransferred",
      "type": "event"
    },
    {
      "anonymous": false,
      "inputs": [
        {
          "indexed": true,
          "internalType": "address",
          "name": "renter",
          "type": "address"
        },
        {
          "indexed": false,
          "internalType": "uint256[]",
          "name": "tokenIds",
          "type": "uint256[]"
        },
        {
          "components": [
            {
              "internalType": "uint256",
              "name": "beginDate",
              "type": "uint256"
            },
            {
              "internalType": "uint256",
              "name": "endDate",
              "type": "uint256"
            },
            {
              "internalType": "uint256",
              "name": "fee",
              "type": "uint256"
            }
          ],
          "indexed": false,
          "internalType": "struct EDULandRental.RentalInfo[]",
          "name": "rentals",
          "type": "tuple[]"
        }
      ],
      "name": "Rental",
      "type": "event"
    },
    {
      "anonymous": false,
      "inputs": [
        {
          "indexed": false,
          "internalType": "address",
          "name": "newRentalFeeHelper",
          "type": "address"
        }
      ],
      "name": "RentalFeeHelperUpdated",
      "type": "event"
    },
    {
      "anonymous": false,
      "inputs": [
        {
          "indexed": false,
          "internalType": "bytes32",
          "name": "role",
          "type": "bytes32"
        },
        {
          "indexed": false,
          "internalType": "address",
          "name": "account",
          "type": "address"
        },
        {
          "indexed": false,
          "internalType": "address",
          "name": "operator",
          "type": "address"
        }
      ],
      "name": "RoleGranted",
      "type": "event"
    },
    {
      "anonymous": false,
      "inputs": [
        {
          "indexed": false,
          "internalType": "bytes32",
          "name": "role",
          "type": "bytes32"
        },
        {
          "indexed": false,
          "internalType": "address",
          "name": "account",
          "type": "address"
        },
        {
          "indexed": false,
          "internalType": "address",
          "name": "operator",
          "type": "address"
        }
      ],
      "name": "RoleRevoked",
      "type": "event"
    },
    {
      "inputs": [],
      "name": "EDU_LAND",
      "outputs": [
        {
          "internalType": "contract IEDULand",
          "name": "",
          "type": "address"
        }
      ],
      "stateMutability": "view",
      "type": "function"
    },
    {
      "inputs": [],
      "name": "OPERATOR_ROLE",
      "outputs": [
        {
          "internalType": "bytes32",
          "name": "",
          "type": "bytes32"
        }
      ],
      "stateMutability": "view",
      "type": "function"
    },
    {
      "inputs": [],
      "name": "POINTS",
      "outputs": [
        {
          "internalType": "contract Points",
          "name": "",
          "type": "address"
        }
      ],
      "stateMutability": "view",
      "type": "function"
    },
    {
      "inputs": [],
      "name": "RENTAL_CONSUME_CODE",
      "outputs": [
        {
          "internalType": "bytes32",
          "name": "",
          "type": "bytes32"
        }
      ],
      "stateMutability": "view",
      "type": "function"
    },
    {
      "inputs": [],
      "name": "__msgData",
      "outputs": [
        {
          "internalType": "bytes",
          "name": "",
          "type": "bytes"
        }
      ],
      "stateMutability": "view",
      "type": "function"
    },
    {
      "inputs": [
        {
          "internalType": "uint256[]",
          "name": "tokenIds",
          "type": "uint256[]"
        }
      ],
      "name": "calculateElapsedTimeForExpiredTokens",
      "outputs": [
        {
          "internalType": "uint256",
          "name": "elapsedTime",
          "type": "uint256"
        }
      ],
      "stateMutability": "view",
      "type": "function"
    },
    {
      "inputs": [
        {
          "internalType": "uint256[]",
          "name": "tokenIds",
          "type": "uint256[]"
        }
      ],
      "name": "collectExpiredTokens",
      "outputs": [],
      "stateMutability": "nonpayable",
      "type": "function"
    },
    {
      "inputs": [
        {
          "internalType": "address",
          "name": "account",
          "type": "address"
        },
        {
          "internalType": "uint256[]",
          "name": "tokenIds",
          "type": "uint256[]"
        },
        {
          "internalType": "uint256[]",
          "name": "durations",
          "type": "uint256[]"
        },
        {
          "internalType": "uint256[]",
          "name": "expiredTokenIds",
          "type": "uint256[]"
        }
      ],
      "name": "estimateRentalFee",
      "outputs": [
        {
          "internalType": "uint256",
          "name": "fee",
          "type": "uint256"
        }
      ],
      "stateMutability": "view",
      "type": "function"
    },
    {
      "inputs": [],
      "name": "forwarderRegistry",
      "outputs": [
        {
          "internalType": "contract IForwarderRegistry",
          "name": "",
          "type": "address"
        }
      ],
      "stateMutability": "view",
      "type": "function"
    },
    {
      "inputs": [
        {
          "internalType": "bytes32",
          "name": "role",
          "type": "bytes32"
        },
        {
          "internalType": "address",
          "name": "account",
          "type": "address"
        }
      ],
      "name": "grantRole",
      "outputs": [],
      "stateMutability": "nonpayable",
      "type": "function"
    },
    {
      "inputs": [
        {
          "internalType": "bytes32",
          "name": "role",
          "type": "bytes32"
        },
        {
          "internalType": "address",
          "name": "account",
          "type": "address"
        }
      ],
      "name": "hasRole",
      "outputs": [
        {
          "internalType": "bool",
          "name": "hasRole_",
          "type": "bool"
        }
      ],
      "stateMutability": "view",
      "type": "function"
    },
    {
      "inputs": [
        {
          "internalType": "address",
          "name": "forwarder",
          "type": "address"
        }
      ],
      "name": "isTrustedForwarder",
      "outputs": [
        {
          "internalType": "bool",
          "name": "",
          "type": "bool"
        }
      ],
      "stateMutability": "view",
      "type": "function"
    },
    {
      "inputs": [],
      "name": "maintenanceFee",
      "outputs": [
        {
          "internalType": "uint256",
          "name": "",
          "type": "uint256"
        }
      ],
      "stateMutability": "view",
      "type": "function"
    },
    {
      "inputs": [],
      "name": "maxRentalCountPerCall",
      "outputs": [
        {
          "internalType": "uint256",
          "name": "",
          "type": "uint256"
        }
      ],
      "stateMutability": "view",
      "type": "function"
    },
    {
      "inputs": [],
      "name": "maxRentalDuration",
      "outputs": [
        {
          "internalType": "uint256",
          "name": "",
          "type": "uint256"
        }
      ],
      "stateMutability": "view",
      "type": "function"
    },
    {
      "inputs": [],
      "name": "maxTokenSupply",
      "outputs": [
        {
          "internalType": "uint256",
          "name": "",
          "type": "uint256"
        }
      ],
      "stateMutability": "view",
      "type": "function"
    },
    {
      "inputs": [],
      "name": "msgData",
      "outputs": [
        {
          "internalType": "bytes",
          "name": "",
          "type": "bytes"
        }
      ],
      "stateMutability": "view",
      "type": "function"
    },
    {
      "inputs": [],
      "name": "owner",
      "outputs": [
        {
          "internalType": "address",
          "name": "",
          "type": "address"
        }
      ],
      "stateMutability": "view",
      "type": "function"
    },
    {
      "inputs": [
        {
          "internalType": "address[]",
          "name": "accounts",
          "type": "address[]"
        },
        {
          "internalType": "contract IERC20[]",
          "name": "tokens",
          "type": "address[]"
        },
        {
          "internalType": "uint256[]",
          "name": "amounts",
          "type": "uint256[]"
        }
      ],
      "name": "recoverERC20s",
      "outputs": [],
      "stateMutability": "nonpayable",
      "type": "function"
    },
    {
      "inputs": [
        {
          "internalType": "address[]",
          "name": "accounts",
          "type": "address[]"
        },
        {
          "internalType": "contract IERC721[]",
          "name": "contracts",
          "type": "address[]"
        },
        {
          "internalType": "uint256[]",
          "name": "tokenIds",
          "type": "uint256[]"
        }
      ],
      "name": "recoverERC721s",
      "outputs": [],
      "stateMutability": "nonpayable",
      "type": "function"
    },
    {
      "inputs": [
        {
          "internalType": "address payable[]",
          "name": "accounts",
          "type": "address[]"
        },
        {
          "internalType": "uint256[]",
          "name": "amounts",
          "type": "uint256[]"
        }
      ],
      "name": "recoverETH",
      "outputs": [],
      "stateMutability": "nonpayable",
      "type": "function"
    },
    {
      "inputs": [
        {
          "internalType": "bytes32",
          "name": "role",
          "type": "bytes32"
        }
      ],
      "name": "renounceRole",
      "outputs": [],
      "stateMutability": "nonpayable",
      "type": "function"
    },
    {
      "inputs": [
        {
          "internalType": "address",
          "name": "account",
          "type": "address"
        },
        {
          "internalType": "uint256[]",
          "name": "tokenIds",
          "type": "uint256[]"
        },
        {
          "internalType": "uint256[]",
          "name": "durations",
          "type": "uint256[]"
        },
        {
          "internalType": "uint256[]",
          "name": "expiredTokenIds",
          "type": "uint256[]"
        },
        {
          "internalType": "uint256",
          "name": "maxFee",
          "type": "uint256"
        }
      ],
      "name": "rent",
      "outputs": [],
      "stateMutability": "nonpayable",
      "type": "function"
    },
    {
      "inputs": [],
      "name": "rentalFeeHelper",
      "outputs": [
        {
          "internalType": "contract IEDULandRentalFeeHelper",
          "name": "",
          "type": "address"
        }
      ],
      "stateMutability": "view",
      "type": "function"
    },
    {
      "inputs": [
        {
          "internalType": "uint256",
          "name": "",
          "type": "uint256"
        }
      ],
      "name": "rentals",
      "outputs": [
        {
          "internalType": "uint256",
          "name": "beginDate",
          "type": "uint256"
        },
        {
          "internalType": "uint256",
          "name": "endDate",
          "type": "uint256"
        },
        {
          "internalType": "uint256",
          "name": "fee",
          "type": "uint256"
        }
      ],
      "stateMutability": "view",
      "type": "function"
    },
    {
      "inputs": [
        {
          "internalType": "uint256",
          "name": "tokenId",
          "type": "uint256"
        }
      ],
      "name": "renterOf",
      "outputs": [
        {
          "internalType": "address",
          "name": "",
          "type": "address"
        }
      ],
      "stateMutability": "view",
      "type": "function"
    },
    {
      "inputs": [
        {
          "internalType": "bytes32",
          "name": "role",
          "type": "bytes32"
        },
        {
          "internalType": "address",
          "name": "account",
          "type": "address"
        }
      ],
      "name": "revokeRole",
      "outputs": [],
      "stateMutability": "nonpayable",
      "type": "function"
    },
    {
      "inputs": [
        {
          "internalType": "uint256",
          "name": "newMaintenanceFee",
          "type": "uint256"
        }
      ],
      "name": "setMaintenanceFee",
      "outputs": [],
      "stateMutability": "nonpayable",
      "type": "function"
    },
    {
      "inputs": [
        {
          "internalType": "uint256",
          "name": "newRentalCountPerCall",
          "type": "uint256"
        }
      ],
      "name": "setMaxRentalCountPerCall",
      "outputs": [],
      "stateMutability": "nonpayable",
      "type": "function"
    },
    {
      "inputs": [
        {
          "internalType": "uint256",
          "name": "newMaxRentalDuration",
          "type": "uint256"
        }
      ],
      "name": "setMaxRentalDuration",
      "outputs": [],
      "stateMutability": "nonpayable",
      "type": "function"
    },
    {
      "inputs": [
        {
          "internalType": "uint256",
          "name": "newMaxTokenSupply",
          "type": "uint256"
        }
      ],
      "name": "setMaxTokenSupply",
      "outputs": [],
      "stateMutability": "nonpayable",
      "type": "function"
    },
    {
      "inputs": [
        {
          "internalType": "address",
          "name": "newRentalFeeHelper",
          "type": "address"
        }
      ],
      "name": "setRentalFeeHelper",
      "outputs": [],
      "stateMutability": "nonpayable",
      "type": "function"
    },
    {
      "inputs": [
        {
          "internalType": "bytes4",
          "name": "interfaceId",
          "type": "bytes4"
        }
      ],
      "name": "supportsInterface",
      "outputs": [
        {
          "internalType": "bool",
          "name": "",
          "type": "bool"
        }
      ],
      "stateMutability": "view",
      "type": "function"
    },
    {
      "inputs": [],
      "name": "totalEffectiveRentalTime",
      "outputs": [
        {
          "internalType": "uint256",
          "name": "",
          "type": "uint256"
        }
      ],
      "stateMutability": "view",
      "type": "function"
    },
    {
      "inputs": [
        {
          "internalType": "address",
          "name": "newOwner",
          "type": "address"
        }
      ],
      "name": "transferOwnership",
      "outputs": [],
      "stateMutability": "nonpayable",
      "type": "function"
    }
  ],
  "bytecode": "0x60e06040523480156200001157600080fd5b506040516200362938038062003629833981016040819052620000349162000203565b878787878787878780803362000055816200004e620000ac565b90620000e2565b506001600160a01b0390811660805298891660c052505094861660a052600080546001600160a01b031916949096169390931790945560025560039290925560049190915560015550620002b79650505050505050565b600080620000dc60017fc9ed16f33ab3a66c84bfd83099ccb2a8845871e2e1c1928f63797152f0fd54cd62000295565b92915050565b6001600160a01b03811615620001395781546001600160a01b0319166001600160a01b03821690811783556040516000907f8be0079c531659141344cd1fd0a4f28419497f9722a3daafe3b4186f6b6457e0908290a35b620001596307f5828d60e41b6001620001516200015d565b91906200018d565b5050565b600080620000dc60017fca9d3e17f264b0f3984e2634e94adb37fa3e6a8103f06aeae6fa59e21c769f5e62000295565b600160e01b6001600160e01b0319831601620001bc576040516372c683bb60e01b815260040160405180910390fd5b6001600160e01b03199190911660009081526020929092526040909120805460ff1916911515919091179055565b6001600160a01b03811681146200020057600080fd5b50565b600080600080600080600080610100898b0312156200022157600080fd5b88516200022e81620001ea565b60208a01519098506200024181620001ea565b60408a01519097506200025481620001ea565b80965050606089015194506080890151935060a0890151925060c0890151915060e08901516200028481620001ea565b809150509295985092959890939650565b81810381811115620000dc57634e487b7160e01b600052601160045260246000fd5b60805160a05160c0516132ee6200033b6000396000818161028a0152818161068001528181610a7b01528181610b4e0152818161182701528181611e520152611f210152600081816104180152610de70152600081816102d301528181610381015281816125d1015281816126590152818161270c015261274a01526132ee6000f3fe608060405234801561001057600080fd5b50600436106102415760003560e01c806385ca807611610145578063c4c2bfdc116100bd578063e4f095d91161008c578063f5b541a611610071578063f5b541a61461058f578063f7032194146105b6578063f7ba94bd146105bf57600080fd5b8063e4f095d914610569578063f2fde38b1461057c57600080fd5b8063c4c2bfdc14610507578063d547741f1461051c578063dd2861771461052f578063e077f62b1461055657600080fd5b806391d1485411610114578063b07ed982116100f9578063b07ed982146104ce578063b65dd451146104e1578063c3666c36146104f457600080fd5b806391d1485414610471578063af94a1d11461048457600080fd5b806385ca80761461043a57806388b681fe146104435780638bb9c5bf146104565780638da5cb5b1461046957600080fd5b8063409ad196116101d857806370243bcc116101a7578063747c52521161018c578063747c5252146103f75780637ce4026f1461040a5780637f6e42811461041357600080fd5b806370243bcc146103d157806373c8a958146103e457600080fd5b8063409ad1961461035557806350f7c20414610368578063572b6c051461037157806364c737da146103be57600080fd5b80632f2ff15d116102145780632f2ff15d146102f757806331e66e1e1461030c578063386296f5146103225780633d9f01fb1461034257600080fd5b806301ffc9a714610246578063046604491461026e57806315e682cb146102855780632b4c9f16146102d1575b600080fd5b610259610254366004612b8e565b6105d2565b60405190151581526020015b60405180910390f35b61027760025481565b604051908152602001610265565b6102ac7f000000000000000000000000000000000000000000000000000000000000000081565b60405173ffffffffffffffffffffffffffffffffffffffff9091168152602001610265565b7f00000000000000000000000000000000000000000000000000000000000000006102ac565b61030a610305366004612bf2565b6105ec565b005b610314610625565b604051610265929190612c22565b6000546102ac9073ffffffffffffffffffffffffffffffffffffffff1681565b6102ac610350366004612c6f565b610638565b61030a610363366004612cd4565b61073a565b61027760015481565b61025961037f366004612d88565b7f000000000000000000000000000000000000000000000000000000000000000073ffffffffffffffffffffffffffffffffffffffff90811691161490565b61030a6103cc366004612d88565b610f22565b6102776103df366004612da5565b610fd7565b61030a6103f2366004612de7565b6110c9565b61030a610405366004612c6f565b6111c7565b61027760035481565b6102ac7f000000000000000000000000000000000000000000000000000000000000000081565b61027760065481565b61030a610451366004612da5565b611228565b61030a610464366004612c6f565b611253565b6102ac611271565b61025961047f366004612bf2565b61129d565b6104b3610492366004612c6f565b60056020526000908152604090208054600182015460029092015490919083565b60408051938452602084019290925290820152606001610265565b61030a6104dc366004612c6f565b6112e8565b61030a6104ef366004612c6f565b611349565b61030a610502366004612de7565b6113aa565b61050f611522565b6040516102659190612eef565b61030a61052a366004612bf2565b6115b0565b6102777f0e67d2d2c46f23cfff9f76c16187348901bf73ba32dcf6893f2a2a4b25be75f881565b610277610564366004612f02565b6115de565b61030a610577366004612c6f565b611999565b61030a61058a366004612d88565b6119fa565b6102777f97667070c54ef182b0f5858b034beac1b6f3089aa2d3188bb1e8929f4fa9b92981565b61027760045481565b61030a6105cd366004612faf565b611a15565b60006105e6826105e0611ad4565b90611b02565b92915050565b60006105f6611bdc565b905061060a81610604611be6565b90611c14565b610620838383610618611c83565b929190611cb1565b505050565b366000610630611d88565b915091509091565b600081815260056020526040812060010154421015610700576040517f6352211e000000000000000000000000000000000000000000000000000000008152600481018390527f000000000000000000000000000000000000000000000000000000000000000073ffffffffffffffffffffffffffffffffffffffff1690636352211e90602401602060405180830381865afa1580156106dc573d6000803e3d6000fd5b505050506040513d601f19601f820116820180604052508101906105e6919061301b565b6040517f1297346f000000000000000000000000000000000000000000000000000000008152600481018390526024015b60405180910390fd5b6004548610610775576040517f2273ee1800000000000000000000000000000000000000000000000000000000815260040160405180910390fd5b8584146107ae576040517f6582533600000000000000000000000000000000000000000000000000000000815260040160405180910390fd5b600088905060008888808060200260200160405190810160405280939291908181526020018383602002808284376000920182905250604080516020808e0282810182019093528d825296975091959194508c93508b9250829185019084908082843760009201829052509394504293925061082f91508990508884611d93565b60065461083c9190613067565b905060006108498261200b565b905060008c67ffffffffffffffff8111156108665761086661307a565b6040519080825280602002602001820160405280156108bb57816020015b6108a860405180606001604052806000815260200160008152602001600081525090565b8152602001906001900390816108845790505b50905060008060005b8851811015610d735760008982815181106108e1576108e16130a9565b6020026020010151905060008983815181106108ff576108ff6130a9565b6020026020010151905080600003610946576040517f21bd5ed100000000000000000000000000000000000000000000000000000000815260048101839052602401610731565b81600003610983576040517f8ce0857d00000000000000000000000000000000000000000000000000000000815260006004820152602401610731565b60015482106109c1576040517f8ce0857d00000000000000000000000000000000000000000000000000000000815260048101839052602401610731565b60008281526005602052604081206001810154909103610b1f57600354821115610a21576040517fee729b840000000000000000000000000000000000000000000000000000000081526004810184905260248101839052604401610731565b6040517f8832e6e300000000000000000000000000000000000000000000000000000000815273ffffffffffffffffffffffffffffffffffffffff8e811660048301526024820185905260606044830152600060648301527f00000000000000000000000000000000000000000000000000000000000000001690638832e6e390608401600060405180830381600087803b158015610abf57600080fd5b505af1158015610ad3573d6000803e3d6000fd5b5050508a825550610ae4828b6130d8565b6001820155600254600090610afa9084906130eb565b610b04908a6130d8565b600283018190559050610b1781876130d8565b955050610d15565b6040517f6352211e000000000000000000000000000000000000000000000000000000008152600481018490527f000000000000000000000000000000000000000000000000000000000000000073ffffffffffffffffffffffffffffffffffffffff1690636352211e90602401602060405180830381865afa158015610baa573d6000803e3d6000fd5b505050506040513d601f19601f82011682018060405250810190610bce919061301b565b73ffffffffffffffffffffffffffffffffffffffff168d73ffffffffffffffffffffffffffffffffffffffff16148015610c0b575080600101548a105b15610ce057600354815460018301548491610c2591613067565b610c2f91906130d8565b1115610c9057828282600001548360010154610c4b9190613067565b610c5591906130d8565b6040517fee729b8400000000000000000000000000000000000000000000000000000000815260048101929092526024820152604401610731565b81816001016000828254610ca491906130d8565b9091555050600254600090610cba9084906130eb565b905080826002016000828254610cd091906130d8565b90915550610b17905081876130d8565b6040517f139d679900000000000000000000000000000000000000000000000000000000815260048101849052602401610731565b6040805160608101825282548152600183015460208201526002830154918101919091528751889086908110610d4d57610d4d6130a9565b6020908102919091010152610d6282876130d8565b955050600190920191506108c49050565b508915801590610d8257508981115b15610dc3576040517fd519701100000000000000000000000000000000000000000000000000000000815260048101829052602481018b9052604401610731565b610dcd82866130d8565b60065573ffffffffffffffffffffffffffffffffffffffff7f00000000000000000000000000000000000000000000000000000000000000001663212aac79610e14611bdc565b6040517fffffffff0000000000000000000000000000000000000000000000000000000060e084901b16815273ffffffffffffffffffffffffffffffffffffffff9091166004820152602481018490527f0e67d2d2c46f23cfff9f76c16187348901bf73ba32dcf6893f2a2a4b25be75f86044820152606401600060405180830381600087803b158015610ea757600080fd5b505af1158015610ebb573d6000803e3d6000fd5b505050508873ffffffffffffffffffffffffffffffffffffffff167f71abcae7327579f86b1266a4390233f926d8ce29f0ed821b7b334202bd314e0f8985604051610f07929190613102565b60405180910390a25050505050505050505050505050505050565b610f5d7f97667070c54ef182b0f5858b034beac1b6f3089aa2d3188bb1e8929f4fa9b929610f4e611bdc565b610f56611c83565b919061209f565b600080547fffffffffffffffffffffffff00000000000000000000000000000000000000001673ffffffffffffffffffffffffffffffffffffffff83169081179091556040519081527f32e3c8160f3ad415113c43e56fec4f8cda4518c6d3218dd8806991407acd6d0b906020015b60405180910390a150565b600042815b838110156110c1576000858583818110610ff857610ff86130a9565b90506020020135905060006005600083815260200190815260200160002090508060010154600003611059576040517f1297346f00000000000000000000000000000000000000000000000000000000815260048101839052602401610731565b806001015484101561109a576040517f9be5764a00000000000000000000000000000000000000000000000000000000815260048101839052602401610731565b805460018201546110ab9190613067565b6110b590866130d8565b94505050600101610fdc565b505092915050565b6110dc6110d4611bdc565b610604611be6565b8483811415806110ec5750808214155b15611123576040517f6582533600000000000000000000000000000000000000000000000000000000815260040160405180910390fd5b60005b818110156111bd576111b5888883818110611143576111436130a9565b90506020020160208101906111589190612d88565b85858481811061116a5761116a6130a9565b90506020020135888885818110611183576111836130a9565b90506020020160208101906111989190612d88565b73ffffffffffffffffffffffffffffffffffffffff169190612125565b600101611126565b5050505050505050565b6111f37f97667070c54ef182b0f5858b034beac1b6f3089aa2d3188bb1e8929f4fa9b929610f4e611bdc565b60028190556040518181527fd204911f1cc3daf409d9a2c495f3970d7d5cf956918752458fcea074d2c53b0b90602001610fcc565b6000611235838342611d93565b905080600660008282546112499190613067565b9091555050505050565b61126e61125e611bdc565b82611267611c83565b91906121b2565b50565b600061129861127e611be6565b5473ffffffffffffffffffffffffffffffffffffffff1690565b905090565b60006112e183836112ac611c83565b60009283526020908152604080842073ffffffffffffffffffffffffffffffffffffffff909316845291905290205460ff1690565b9392505050565b6113147f97667070c54ef182b0f5858b034beac1b6f3089aa2d3188bb1e8929f4fa9b929610f4e611bdc565b60018190556040518181527fb8b290c068ed53e46165f3ca5215dcc2972ae26ae4c8fb5adc71a1c135f8551390602001610fcc565b6113757f97667070c54ef182b0f5858b034beac1b6f3089aa2d3188bb1e8929f4fa9b929610f4e611bdc565b60048190556040518181527faa06aa6d79ce3cb966afe332af120b3aa8252dc355d1d2dae1368babec5f3ee590602001610fcc565b6113b56110d4611bdc565b8483811415806113c55750808214155b156113fc576040517f6582533600000000000000000000000000000000000000000000000000000000815260040160405180910390fd5b60005b818110156111bd57858582818110611419576114196130a9565b905060200201602081019061142e9190612d88565b73ffffffffffffffffffffffffffffffffffffffff166323b872dd308a8a8581811061145c5761145c6130a9565b90506020020160208101906114719190612d88565b878786818110611483576114836130a9565b6040517fffffffff0000000000000000000000000000000000000000000000000000000060e088901b16815273ffffffffffffffffffffffffffffffffffffffff958616600482015294909316602485015250602090910201356044820152606401600060405180830381600087803b1580156114ff57600080fd5b505af1158015611513573d6000803e3d6000fd5b505050508060010190506113ff565b6007805461152f90613192565b80601f016020809104026020016040519081016040528092919081815260200182805461155b90613192565b80156115a85780601f1061157d576101008083540402835291602001916115a8565b820191906000526020600020905b81548152906001019060200180831161158b57829003601f168201915b505050505081565b60006115ba611bdc565b90506115c881610604611be6565b6106208383836115d6611c83565b929190612256565b600454600090861061161c576040517f2273ee1800000000000000000000000000000000000000000000000000000000815260040160405180910390fd5b858414611655576040517f6582533600000000000000000000000000000000000000000000000000000000815260040160405180910390fd5b4260006116628585610fd7565b9050600061167c826006546116779190613067565b61200b565b90506000805b8a8110156119895760008a8a8381811061169e5761169e6130a9565b90506020020135905060008d8d848181106116bb576116bb6130a9565b90506020020135905081600003611701576040517f21bd5ed100000000000000000000000000000000000000000000000000000000815260048101829052602401610731565b8060000361173e576040517f8ce0857d00000000000000000000000000000000000000000000000000000000815260006004820152602401610731565b600154811061177c576040517f8ce0857d00000000000000000000000000000000000000000000000000000000815260048101829052602401610731565b6000818152600560209081526040808320815160608101835281548152600182015493810184905260029091015491810191909152910361180e576003548311156117fd576040517fee729b840000000000000000000000000000000000000000000000000000000081526004810183905260248101849052604401610731565b61180786866130d8565b9450611961565b8f73ffffffffffffffffffffffffffffffffffffffff167f000000000000000000000000000000000000000000000000000000000000000073ffffffffffffffffffffffffffffffffffffffff16636352211e846040518263ffffffff1660e01b815260040161188091815260200190565b602060405180830381865afa15801561189d573d6000803e3d6000fd5b505050506040513d601f19601f820116820180604052508101906118c1919061301b565b73ffffffffffffffffffffffffffffffffffffffff161480156118e75750806020015188105b1561192c5760035481516020830151859161190191613067565b61190b91906130d8565b111561192757818382600001518360200151610c4b9190613067565b611961565b6040517f139d679900000000000000000000000000000000000000000000000000000000815260048101839052602401610731565b60025461196e90846130eb565b61197890866130d8565b945050600190920191506116829050565b509b9a5050505050505050505050565b6119c57f97667070c54ef182b0f5858b034beac1b6f3089aa2d3188bb1e8929f4fa9b929610f4e611bdc565b60038190556040518181527fb4f38443948b39b669154b83689d2dfa2a4cb2b1fd458118da3d1bcdacfc560890602001610fcc565b61126e611a05611bdc565b82611a0e611be6565b9190612320565b611a206110d4611bdc565b82818114611a5a576040517f6582533600000000000000000000000000000000000000000000000000000000815260040160405180910390fd5b60005b81811015611acc57611ac4848483818110611a7a57611a7a6130a9565b90506020020135878784818110611a9357611a936130a9565b9050602002016020810190611aa89190612d88565b73ffffffffffffffffffffffffffffffffffffffff1690612434565b600101611a5d565b505050505050565b6000806105e660017fca9d3e17f264b0f3984e2634e94adb37fa3e6a8103f06aeae6fa59e21c769f5e613067565b60007c01000000000000000000000000000000000000000000000000000000007fffffffff00000000000000000000000000000000000000000000000000000000831601611b52575060006105e6565b7ffe003659000000000000000000000000000000000000000000000000000000007fffffffff00000000000000000000000000000000000000000000000000000000831601611ba3575060016105e6565b507fffffffff00000000000000000000000000000000000000000000000000000000166000908152602091909152604090205460ff1690565b600061129861258e565b6000806105e660017fc9ed16f33ab3a66c84bfd83099ccb2a8845871e2e1c1928f63797152f0fd54cd613067565b815473ffffffffffffffffffffffffffffffffffffffff828116911614611c7f576040517f2ef4875e00000000000000000000000000000000000000000000000000000000815273ffffffffffffffffffffffffffffffffffffffff82166004820152602401610731565b5050565b6000806105e660017fc8827d3282af6f37b64c3e9e6f3ac9df286ab0bb0fccd6f8661bf19adb368b23613067565b60008381526020858152604080832073ffffffffffffffffffffffffffffffffffffffff8616845290915290205460ff16611d825760008381526020858152604080832073ffffffffffffffffffffffffffffffffffffffff8681168086529184529382902080547fffffffffffffffffffffffffffffffffffffffffffffffffffffffffffffff00166001179055815187815292830152918316918101919091527f2f8788117e7eff1d82e926ec794901d17c78024a50270940304540a733656f0d906060015b60405180910390a15b50505050565b3660006106306126d5565b6000805b83811015611fc4576000858583818110611db357611db36130a9565b90506020020135905060006005600083815260200190815260200160002090508060010154600014158015611dec575080600101548510155b15611f855780546001820154611e029190613067565b611e0c90856130d8565b600080835560018301819055600283018190556040517f6352211e00000000000000000000000000000000000000000000000000000000815260048101859052919550907f000000000000000000000000000000000000000000000000000000000000000073ffffffffffffffffffffffffffffffffffffffff1690636352211e90602401602060405180830381865afa158015611eae573d6000803e3d6000fd5b505050506040513d601f19601f82011682018060405250810190611ed2919061301b565b6040517f79cc679000000000000000000000000000000000000000000000000000000000815273ffffffffffffffffffffffffffffffffffffffff8083166004830152602482018690529192507f0000000000000000000000000000000000000000000000000000000000000000909116906379cc679090604401600060405180830381600087803b158015611f6757600080fd5b505af1158015611f7b573d6000803e3d6000fd5b5050505050611fba565b6040517f9be5764a00000000000000000000000000000000000000000000000000000000815260048101839052602401610731565b5050600101611d97565b5082156112e1577f9e5430727c5f2b23597e7cb2670240cc8fbb4031a0dad53562812b380e286b3d8484604051611ffc9291906131e5565b60405180910390a19392505050565b600080546040517fef1130e70000000000000000000000000000000000000000000000000000000081526004810184905273ffffffffffffffffffffffffffffffffffffffff9091169063ef1130e790602401602060405180830381865afa15801561207b573d6000803e3d6000fd5b505050506040513d601f19601f820116820180604052508101906105e69190613237565b60008281526020848152604080832073ffffffffffffffffffffffffffffffffffffffff8516845290915290205460ff16610620576040517f7aa728820000000000000000000000000000000000000000000000000000000081526004810183905273ffffffffffffffffffffffffffffffffffffffff82166024820152604401610731565b6040805173ffffffffffffffffffffffffffffffffffffffff8416602482015260448082018490528251808303909101815260649091019091526020810180517bffffffffffffffffffffffffffffffffffffffffffffffffffffffff167fa9059cbb0000000000000000000000000000000000000000000000000000000017905261062090849061283f565b6121bd83828461209f565b60008181526020848152604080832073ffffffffffffffffffffffffffffffffffffffff86168085529083529281902080547fffffffffffffffffffffffffffffffffffffffffffffffffffffffffffffff0016905580518481529182018390528101919091527ff6391f5c32d9c69d2a47ea670b442974b53935d1edc7fd64eb21e047a839171b9060600160405180910390a1505050565b60008381526020858152604080832073ffffffffffffffffffffffffffffffffffffffff8616845290915290205460ff1615611d825760008381526020858152604080832073ffffffffffffffffffffffffffffffffffffffff8681168086529184529382902080547fffffffffffffffffffffffffffffffffffffffffffffffffffffffffffffff00169055815187815292830152918316918101919091527ff6391f5c32d9c69d2a47ea670b442974b53935d1edc7fd64eb21e047a839171b90606001611d79565b825473ffffffffffffffffffffffffffffffffffffffff908116908316811461238d576040517f2ef4875e00000000000000000000000000000000000000000000000000000000815273ffffffffffffffffffffffffffffffffffffffff84166004820152602401610731565b8173ffffffffffffffffffffffffffffffffffffffff168173ffffffffffffffffffffffffffffffffffffffff1614611d825783547fffffffffffffffffffffffff00000000000000000000000000000000000000001673ffffffffffffffffffffffffffffffffffffffff8381169182178655604051908316907f8be0079c531659141344cd1fd0a4f28419497f9722a3daafe3b4186f6b6457e090600090a350505050565b8047101561249e576040517f08c379a000000000000000000000000000000000000000000000000000000000815260206004820152601d60248201527f416464726573733a20696e73756666696369656e742062616c616e63650000006044820152606401610731565b60008273ffffffffffffffffffffffffffffffffffffffff168260405160006040518083038185875af1925050503d80600081146124f8576040519150601f19603f3d011682016040523d82523d6000602084013e6124fd565b606091505b5050905080610620576040517f08c379a000000000000000000000000000000000000000000000000000000000815260206004820152603a60248201527f416464726573733a20756e61626c6520746f2073656e642076616c75652c207260448201527f6563697069656e74206d617920686176652072657665727465640000000000006064820152608401610731565b60003332148061259e5750601836105b156125a857503390565b7fffffffffffffffffffffffffffffffffffffffffffffffffffffffffffffffec36013560601c7f000000000000000000000000000000000000000000000000000000000000000073ffffffffffffffffffffffffffffffffffffffff163314806126c457506040517f8929a8ca00000000000000000000000000000000000000000000000000000000815273ffffffffffffffffffffffffffffffffffffffff82811660048301523360248301527f00000000000000000000000000000000000000000000000000000000000000001690638929a8ca90604401602060405180830381865afa1580156126a0573d6000803e3d6000fd5b505050506040513d601f19601f820116820180604052508101906126c49190613250565b156126ce57919050565b3391505090565b366000333214806126e65750601836105b156126f45750600091369150565b3373ffffffffffffffffffffffffffffffffffffffff7f0000000000000000000000000000000000000000000000000000000000000000161480612829575073ffffffffffffffffffffffffffffffffffffffff7f000000000000000000000000000000000000000000000000000000000000000016638929a8ca367fffffffffffffffffffffffffffffffffffffffffffffffffffffffffffffffec013560601c6040517fffffffff0000000000000000000000000000000000000000000000000000000060e084901b16815273ffffffffffffffffffffffffffffffffffffffff9091166004820152336024820152604401602060405180830381865afa158015612805573d6000803e3d6000fd5b505050506040513d601f19601f820116820180604052508101906128299190613250565b156128365761063061294e565b50600091369150565b60006128a1826040518060400160405280602081526020017f5361666545524332303a206c6f772d6c6576656c2063616c6c206661696c65648152508573ffffffffffffffffffffffffffffffffffffffff1661297f9092919063ffffffff16565b90508051600014806128c25750808060200190518101906128c29190613250565b610620576040517f08c379a000000000000000000000000000000000000000000000000000000000815260206004820152602a60248201527f5361666545524332303a204552433230206f7065726174696f6e20646964206e60448201527f6f742073756363656564000000000000000000000000000000000000000000006064820152608401610731565b3660006106307fffffffffffffffffffffffffffffffffffffffffffffffffffffffffffffffec8301828481613272565b606061298e8484600085612996565b949350505050565b606082471015612a28576040517f08c379a000000000000000000000000000000000000000000000000000000000815260206004820152602660248201527f416464726573733a20696e73756666696369656e742062616c616e636520666f60448201527f722063616c6c00000000000000000000000000000000000000000000000000006064820152608401610731565b6000808673ffffffffffffffffffffffffffffffffffffffff168587604051612a51919061329c565b60006040518083038185875af1925050503d8060008114612a8e576040519150601f19603f3d011682016040523d82523d6000602084013e612a93565b606091505b5091509150612aa487838387612aaf565b979650505050505050565b60608315612b45578251600003612b3e5773ffffffffffffffffffffffffffffffffffffffff85163b612b3e576040517f08c379a000000000000000000000000000000000000000000000000000000000815260206004820152601d60248201527f416464726573733a2063616c6c20746f206e6f6e2d636f6e74726163740000006044820152606401610731565b508161298e565b61298e8383815115612b5a5781518083602001fd5b806040517f08c379a00000000000000000000000000000000000000000000000000000000081526004016107319190612eef565b600060208284031215612ba057600080fd5b81357fffffffff00000000000000000000000000000000000000000000000000000000811681146112e157600080fd5b73ffffffffffffffffffffffffffffffffffffffff8116811461126e57600080fd5b60008060408385031215612c0557600080fd5b823591506020830135612c1781612bd0565b809150509250929050565b60208152816020820152818360408301376000818301604090810191909152601f9092017fffffffffffffffffffffffffffffffffffffffffffffffffffffffffffffffe0160101919050565b600060208284031215612c8157600080fd5b5035919050565b60008083601f840112612c9a57600080fd5b50813567ffffffffffffffff811115612cb257600080fd5b6020830191508360208260051b8501011115612ccd57600080fd5b9250929050565b60008060008060008060008060a0898b031215612cf057600080fd5b8835612cfb81612bd0565b9750602089013567ffffffffffffffff80821115612d1857600080fd5b612d248c838d01612c88565b909950975060408b0135915080821115612d3d57600080fd5b612d498c838d01612c88565b909750955060608b0135915080821115612d6257600080fd5b50612d6f8b828c01612c88565b999c989b50969995989497949560800135949350505050565b600060208284031215612d9a57600080fd5b81356112e181612bd0565b60008060208385031215612db857600080fd5b823567ffffffffffffffff811115612dcf57600080fd5b612ddb85828601612c88565b90969095509350505050565b60008060008060008060608789031215612e0057600080fd5b863567ffffffffffffffff80821115612e1857600080fd5b612e248a838b01612c88565b90985096506020890135915080821115612e3d57600080fd5b612e498a838b01612c88565b90965094506040890135915080821115612e6257600080fd5b50612e6f89828a01612c88565b979a9699509497509295939492505050565b60005b83811015612e9c578181015183820152602001612e84565b50506000910152565b60008151808452612ebd816020860160208601612e81565b601f017fffffffffffffffffffffffffffffffffffffffffffffffffffffffffffffffe0169290920160200192915050565b6020815260006112e16020830184612ea5565b60008060008060008060006080888a031215612f1d57600080fd5b8735612f2881612bd0565b9650602088013567ffffffffffffffff80821115612f4557600080fd5b612f518b838c01612c88565b909850965060408a0135915080821115612f6a57600080fd5b612f768b838c01612c88565b909650945060608a0135915080821115612f8f57600080fd5b50612f9c8a828b01612c88565b989b979a50959850939692959293505050565b60008060008060408587031215612fc557600080fd5b843567ffffffffffffffff80821115612fdd57600080fd5b612fe988838901612c88565b9096509450602087013591508082111561300257600080fd5b5061300f87828801612c88565b95989497509550505050565b60006020828403121561302d57600080fd5b81516112e181612bd0565b7f4e487b7100000000000000000000000000000000000000000000000000000000600052601160045260246000fd5b818103818111156105e6576105e6613038565b7f4e487b7100000000000000000000000000000000000000000000000000000000600052604160045260246000fd5b7f4e487b7100000000000000000000000000000000000000000000000000000000600052603260045260246000fd5b808201808211156105e6576105e6613038565b80820281158282048414176105e6576105e6613038565b6040808252835182820181905260009190606090818501906020808901865b8381101561313d57815185529382019390820190600101613121565b5050868303818801528751808452888201938201925060005b81811015613183578451805185528381015184860152870151878501529382019392850192600101613156565b50919998505050505050505050565b600181811c908216806131a657607f821691505b6020821081036131df577f4e487b7100000000000000000000000000000000000000000000000000000000600052602260045260246000fd5b50919050565b6020815281602082015260007f07ffffffffffffffffffffffffffffffffffffffffffffffffffffffffffffff83111561321e57600080fd5b8260051b80856040850137919091016040019392505050565b60006020828403121561324957600080fd5b5051919050565b60006020828403121561326257600080fd5b815180151581146112e157600080fd5b6000808585111561328257600080fd5b8386111561328f57600080fd5b5050820193919092039150565b600082516132ae818460208701612e81565b919091019291505056fea2646970667358221220954da99d3bba40ad6982dba3b4235b544eccb1534499903427b892f07cde708d64736f6c63430008160033",
  "linkReferences": {},
  "deployedLinkReferences": {}
}