{
  "_format": "hh-sol-artifact-1",
  "contractName": "EDULandRentalMock",
  "sourceName": "contracts/mocks/land/EDULandRentalMock.sol",
  "abi": [
    {
      "inputs": [
        {
          "internalType": "address",
          "name": "nodeKeyAddress",
          "type": "address"
        },
        {
          "internalType": "address",
          "name": "pointsAddress",
          "type": "address"
        },
        {
          "internalType": "address",
          "name": "rentalFeeHelperAddress",
          "type": "address"
        },
        {
          "internalType": "uint256",
          "name": "maintenceFee_",
          "type": "uint256"
        },
        {
          "internalType": "uint256",
          "name": "maintenanceFeeDenominator_",
          "type": "uint256"
        },
        {
          "internalType": "uint256",
          "name": "minRentalDuration_",
          "type": "uint256"
        },
        {
          "internalType": "uint256",
          "name": "maxRentalDuration_",
          "type": "uint256"
        },
        {
          "internalType": "uint256",
          "name": "maxRentalCountPerCall_",
          "type": "uint256"
        },
        {
          "internalType": "uint256",
          "name": "maxTokenSupply_",
          "type": "uint256"
        },
        {
          "internalType": "contract IForwarderRegistry",
          "name": "forwarderRegistry",
          "type": "address"
        }
      ],
      "stateMutability": "nonpayable",
      "type": "constructor"
    },
    {
      "inputs": [
        {
          "internalType": "uint256",
          "name": "calculatedFee",
          "type": "uint256"
        },
        {
          "internalType": "uint256",
          "name": "maxFee",
          "type": "uint256"
        }
      ],
      "name": "FeeExceeded",
      "type": "error"
    },
    {
      "inputs": [],
      "name": "IllegalInterfaceId",
      "type": "error"
    },
    {
      "inputs": [],
      "name": "InconsistentArrayLengths",
      "type": "error"
    },
    {
      "inputs": [],
      "name": "InvalidTokenIdsParam",
      "type": "error"
    },
    {
      "inputs": [
        {
          "internalType": "address",
          "name": "account",
          "type": "address"
        }
      ],
      "name": "NotContractOwner",
      "type": "error"
    },
    {
      "inputs": [
        {
          "internalType": "bytes32",
          "name": "role",
          "type": "bytes32"
        },
        {
          "internalType": "address",
          "name": "account",
          "type": "address"
        }
      ],
      "name": "NotRoleHolder",
      "type": "error"
    },
    {
      "inputs": [],
      "name": "RentalCountPerCallLimitExceeded",
      "type": "error"
    },
    {
      "inputs": [
        {
          "internalType": "uint256",
          "name": "tokenId",
          "type": "uint256"
        },
        {
          "internalType": "uint256",
          "name": "duration",
          "type": "uint256"
        },
        {
          "internalType": "uint256",
          "name": "limit",
          "type": "uint256"
        }
      ],
      "name": "RentalDurationTooHigh",
      "type": "error"
    },
    {
      "inputs": [
        {
          "internalType": "uint256",
          "name": "tokenId",
          "type": "uint256"
        },
        {
          "internalType": "uint256",
          "name": "duration",
          "type": "uint256"
        },
        {
          "internalType": "uint256",
          "name": "limit",
          "type": "uint256"
        }
      ],
      "name": "RentalDurationTooLow",
      "type": "error"
    },
    {
      "inputs": [
        {
          "internalType": "uint256",
          "name": "tokenId",
          "type": "uint256"
        }
      ],
      "name": "TokenAlreadyRented",
      "type": "error"
    },
    {
      "inputs": [
        {
          "internalType": "uint256",
          "name": "tokenId",
          "type": "uint256"
        }
      ],
      "name": "TokenNotExpired",
      "type": "error"
    },
    {
      "inputs": [
        {
          "internalType": "uint256",
          "name": "tokenId",
          "type": "uint256"
        }
      ],
      "name": "TokenNotRented",
      "type": "error"
    },
    {
      "inputs": [
        {
          "internalType": "uint256",
          "name": "tokenId",
          "type": "uint256"
        }
      ],
      "name": "UnsupportedTokenId",
      "type": "error"
    },
    {
      "anonymous": false,
      "inputs": [
        {
          "indexed": false,
          "internalType": "uint256[]",
          "name": "tokenIds",
          "type": "uint256[]"
        }
      ],
      "name": "Collected",
      "type": "event"
    },
    {
      "anonymous": false,
      "inputs": [
        {
          "indexed": false,
          "internalType": "address",
          "name": "newRentalFeeHelper",
          "type": "address"
        }
      ],
      "name": "LandPriceHelperUpdated",
      "type": "event"
    },
    {
      "anonymous": false,
      "inputs": [
        {
          "indexed": false,
          "internalType": "uint256",
          "name": "newMaintenanceFee",
          "type": "uint256"
        },
        {
          "indexed": false,
          "internalType": "uint256",
          "name": "newMaintenanceFeeDenominator",
          "type": "uint256"
        }
      ],
      "name": "MaintenanceFeeUpdated",
      "type": "event"
    },
    {
      "anonymous": false,
      "inputs": [
        {
          "indexed": false,
          "internalType": "uint256",
          "name": "newMaxRentalCountPerCall",
          "type": "uint256"
        }
      ],
      "name": "MaxRentalCountPerCallUpdated",
      "type": "event"
    },
    {
      "anonymous": false,
      "inputs": [
        {
          "indexed": false,
          "internalType": "uint256",
          "name": "newMaxRentalDuration",
          "type": "uint256"
        }
      ],
      "name": "MaxRentalDurationUpdated",
      "type": "event"
    },
    {
      "anonymous": false,
      "inputs": [
        {
          "indexed": false,
          "internalType": "uint256",
          "name": "newMaxTokenSupply",
          "type": "uint256"
        }
      ],
      "name": "MaxTokenSupplyUpdated",
      "type": "event"
    },
    {
      "anonymous": false,
      "inputs": [
        {
          "indexed": false,
          "internalType": "uint256",
          "name": "newMinRentalDuration",
          "type": "uint256"
        }
      ],
      "name": "MinRentalDurationUpdated",
      "type": "event"
    },
    {
      "anonymous": false,
      "inputs": [
        {
          "indexed": true,
          "internalType": "address",
          "name": "previousOwner",
          "type": "address"
        },
        {
          "indexed": true,
          "internalType": "address",
          "name": "newOwner",
          "type": "address"
        }
      ],
      "name": "OwnershipTransferred",
      "type": "event"
    },
    {
      "anonymous": false,
      "inputs": [
        {
          "indexed": true,
          "internalType": "address",
          "name": "renter",
          "type": "address"
        },
        {
          "indexed": false,
          "internalType": "uint256[]",
          "name": "tokenIds",
          "type": "uint256[]"
        },
        {
          "components": [
            {
              "internalType": "uint256",
              "name": "beginDate",
              "type": "uint256"
            },
            {
              "internalType": "uint256",
              "name": "endDate",
              "type": "uint256"
            },
            {
              "internalType": "uint256",
              "name": "fee",
              "type": "uint256"
            }
          ],
          "indexed": false,
          "internalType": "struct EDULandRental.RentalInfo[]",
          "name": "rentals",
          "type": "tuple[]"
        }
      ],
      "name": "Rental",
      "type": "event"
    },
    {
      "anonymous": false,
      "inputs": [
        {
          "indexed": false,
          "internalType": "bytes32",
          "name": "role",
          "type": "bytes32"
        },
        {
          "indexed": false,
          "internalType": "address",
          "name": "account",
          "type": "address"
        },
        {
          "indexed": false,
          "internalType": "address",
          "name": "operator",
          "type": "address"
        }
      ],
      "name": "RoleGranted",
      "type": "event"
    },
    {
      "anonymous": false,
      "inputs": [
        {
          "indexed": false,
          "internalType": "bytes32",
          "name": "role",
          "type": "bytes32"
        },
        {
          "indexed": false,
          "internalType": "address",
          "name": "account",
          "type": "address"
        },
        {
          "indexed": false,
          "internalType": "address",
          "name": "operator",
          "type": "address"
        }
      ],
      "name": "RoleRevoked",
      "type": "event"
    },
    {
      "inputs": [],
      "name": "EDU_LAND",
      "outputs": [
        {
          "internalType": "contract IEDULand",
          "name": "",
          "type": "address"
        }
      ],
      "stateMutability": "view",
      "type": "function"
    },
    {
      "inputs": [],
      "name": "OPERATOR_ROLE",
      "outputs": [
        {
          "internalType": "bytes32",
          "name": "",
          "type": "bytes32"
        }
      ],
      "stateMutability": "view",
      "type": "function"
    },
    {
      "inputs": [],
      "name": "POINTS",
      "outputs": [
        {
          "internalType": "contract Points",
          "name": "",
          "type": "address"
        }
      ],
      "stateMutability": "view",
      "type": "function"
    },
    {
      "inputs": [],
      "name": "RENTAL_CONSUME_CODE",
      "outputs": [
        {
          "internalType": "bytes32",
          "name": "",
          "type": "bytes32"
        }
      ],
      "stateMutability": "view",
      "type": "function"
    },
    {
      "inputs": [],
      "name": "__msgData",
      "outputs": [
        {
          "internalType": "bytes",
          "name": "",
          "type": "bytes"
        }
      ],
      "stateMutability": "view",
      "type": "function"
    },
    {
      "inputs": [
        {
          "internalType": "uint256[]",
          "name": "tokenIds",
          "type": "uint256[]"
        }
      ],
      "name": "calculateElapsedTimeForExpiredTokens",
      "outputs": [
        {
          "internalType": "uint256",
          "name": "elapsedTime",
          "type": "uint256"
        }
      ],
      "stateMutability": "view",
      "type": "function"
    },
    {
      "inputs": [
        {
          "internalType": "uint256[]",
          "name": "tokenIds",
          "type": "uint256[]"
        }
      ],
      "name": "collectExpiredTokens",
      "outputs": [],
      "stateMutability": "nonpayable",
      "type": "function"
    },
    {
      "inputs": [
        {
          "internalType": "address",
          "name": "account",
          "type": "address"
        },
        {
          "internalType": "uint256[]",
          "name": "tokenIds",
          "type": "uint256[]"
        },
        {
          "internalType": "uint256[]",
          "name": "durations",
          "type": "uint256[]"
        },
        {
          "internalType": "uint256[]",
          "name": "expiredTokenIds",
          "type": "uint256[]"
        }
      ],
      "name": "estimateRentalFee",
      "outputs": [
        {
          "internalType": "uint256",
          "name": "fee",
          "type": "uint256"
        }
      ],
      "stateMutability": "view",
      "type": "function"
    },
    {
      "inputs": [],
      "name": "forwarderRegistry",
      "outputs": [
        {
          "internalType": "contract IForwarderRegistry",
          "name": "",
          "type": "address"
        }
      ],
      "stateMutability": "view",
      "type": "function"
    },
    {
      "inputs": [
        {
          "internalType": "bytes32",
          "name": "role",
          "type": "bytes32"
        },
        {
          "internalType": "address",
          "name": "account",
          "type": "address"
        }
      ],
      "name": "grantRole",
      "outputs": [],
      "stateMutability": "nonpayable",
      "type": "function"
    },
    {
      "inputs": [
        {
          "internalType": "bytes32",
          "name": "role",
          "type": "bytes32"
        },
        {
          "internalType": "address",
          "name": "account",
          "type": "address"
        }
      ],
      "name": "hasRole",
      "outputs": [
        {
          "internalType": "bool",
          "name": "hasRole_",
          "type": "bool"
        }
      ],
      "stateMutability": "view",
      "type": "function"
    },
    {
      "inputs": [
        {
          "internalType": "address",
          "name": "forwarder",
          "type": "address"
        }
      ],
      "name": "isTrustedForwarder",
      "outputs": [
        {
          "internalType": "bool",
          "name": "",
          "type": "bool"
        }
      ],
      "stateMutability": "view",
      "type": "function"
    },
    {
      "inputs": [],
      "name": "landPriceHelper",
      "outputs": [
        {
          "internalType": "contract IEDULandPriceHelper",
          "name": "",
          "type": "address"
        }
      ],
      "stateMutability": "view",
      "type": "function"
    },
    {
      "inputs": [],
      "name": "maintenanceFee",
      "outputs": [
        {
          "internalType": "uint256",
          "name": "",
          "type": "uint256"
        }
      ],
      "stateMutability": "view",
      "type": "function"
    },
    {
      "inputs": [],
      "name": "maintenanceFeeDenominator",
      "outputs": [
        {
          "internalType": "uint256",
          "name": "",
          "type": "uint256"
        }
      ],
      "stateMutability": "view",
      "type": "function"
    },
    {
      "inputs": [],
      "name": "maxRentalCountPerCall",
      "outputs": [
        {
          "internalType": "uint256",
          "name": "",
          "type": "uint256"
        }
      ],
      "stateMutability": "view",
      "type": "function"
    },
    {
      "inputs": [],
      "name": "maxRentalDuration",
      "outputs": [
        {
          "internalType": "uint256",
          "name": "",
          "type": "uint256"
        }
      ],
      "stateMutability": "view",
      "type": "function"
    },
    {
      "inputs": [],
      "name": "maxTokenSupply",
      "outputs": [
        {
          "internalType": "uint256",
          "name": "",
          "type": "uint256"
        }
      ],
      "stateMutability": "view",
      "type": "function"
    },
    {
      "inputs": [],
      "name": "minRentalDuration",
      "outputs": [
        {
          "internalType": "uint256",
          "name": "",
          "type": "uint256"
        }
      ],
      "stateMutability": "view",
      "type": "function"
    },
    {
      "inputs": [],
      "name": "msgData",
      "outputs": [
        {
          "internalType": "bytes",
          "name": "",
          "type": "bytes"
        }
      ],
      "stateMutability": "view",
      "type": "function"
    },
    {
      "inputs": [],
      "name": "owner",
      "outputs": [
        {
          "internalType": "address",
          "name": "",
          "type": "address"
        }
      ],
      "stateMutability": "view",
      "type": "function"
    },
    {
      "inputs": [
        {
          "internalType": "address[]",
          "name": "accounts",
          "type": "address[]"
        },
        {
          "internalType": "contract IERC20[]",
          "name": "tokens",
          "type": "address[]"
        },
        {
          "internalType": "uint256[]",
          "name": "amounts",
          "type": "uint256[]"
        }
      ],
      "name": "recoverERC20s",
      "outputs": [],
      "stateMutability": "nonpayable",
      "type": "function"
    },
    {
      "inputs": [
        {
          "internalType": "address[]",
          "name": "accounts",
          "type": "address[]"
        },
        {
          "internalType": "contract IERC721[]",
          "name": "contracts",
          "type": "address[]"
        },
        {
          "internalType": "uint256[]",
          "name": "tokenIds",
          "type": "uint256[]"
        }
      ],
      "name": "recoverERC721s",
      "outputs": [],
      "stateMutability": "nonpayable",
      "type": "function"
    },
    {
      "inputs": [
        {
          "internalType": "address payable[]",
          "name": "accounts",
          "type": "address[]"
        },
        {
          "internalType": "uint256[]",
          "name": "amounts",
          "type": "uint256[]"
        }
      ],
      "name": "recoverETH",
      "outputs": [],
      "stateMutability": "nonpayable",
      "type": "function"
    },
    {
      "inputs": [
        {
          "internalType": "bytes32",
          "name": "role",
          "type": "bytes32"
        }
      ],
      "name": "renounceRole",
      "outputs": [],
      "stateMutability": "nonpayable",
      "type": "function"
    },
    {
      "inputs": [
        {
          "internalType": "address",
          "name": "account",
          "type": "address"
        },
        {
          "internalType": "uint256[]",
          "name": "tokenIds",
          "type": "uint256[]"
        },
        {
          "internalType": "uint256[]",
          "name": "durations",
          "type": "uint256[]"
        },
        {
          "internalType": "uint256[]",
          "name": "expiredTokenIds",
          "type": "uint256[]"
        },
        {
          "internalType": "uint256",
          "name": "maxFee",
          "type": "uint256"
        }
      ],
      "name": "rent",
      "outputs": [],
      "stateMutability": "nonpayable",
      "type": "function"
    },
    {
      "inputs": [
        {
          "internalType": "uint256",
          "name": "",
          "type": "uint256"
        }
      ],
      "name": "rentals",
      "outputs": [
        {
          "internalType": "uint256",
          "name": "beginDate",
          "type": "uint256"
        },
        {
          "internalType": "uint256",
          "name": "endDate",
          "type": "uint256"
        },
        {
          "internalType": "uint256",
          "name": "fee",
          "type": "uint256"
        }
      ],
      "stateMutability": "view",
      "type": "function"
    },
    {
      "inputs": [
        {
          "internalType": "uint256",
          "name": "tokenId",
          "type": "uint256"
        }
      ],
      "name": "renterOf",
      "outputs": [
        {
          "internalType": "address",
          "name": "",
          "type": "address"
        }
      ],
      "stateMutability": "view",
      "type": "function"
    },
    {
      "inputs": [
        {
          "internalType": "bytes32",
          "name": "role",
          "type": "bytes32"
        },
        {
          "internalType": "address",
          "name": "account",
          "type": "address"
        }
      ],
      "name": "revokeRole",
      "outputs": [],
      "stateMutability": "nonpayable",
      "type": "function"
    },
    {
      "inputs": [
        {
          "internalType": "address",
          "name": "newLandPriceHelper",
          "type": "address"
        }
      ],
      "name": "setLandPriceHelper",
      "outputs": [],
      "stateMutability": "nonpayable",
      "type": "function"
    },
    {
      "inputs": [
        {
          "internalType": "uint256",
          "name": "newMaintenanceFee",
          "type": "uint256"
        },
        {
          "internalType": "uint256",
          "name": "newMaintenanceFeeDenominator",
          "type": "uint256"
        }
      ],
      "name": "setMaintenanceFee",
      "outputs": [],
      "stateMutability": "nonpayable",
      "type": "function"
    },
    {
      "inputs": [
        {
          "internalType": "uint256",
          "name": "newRentalCountPerCall",
          "type": "uint256"
        }
      ],
      "name": "setMaxRentalCountPerCall",
      "outputs": [],
      "stateMutability": "nonpayable",
      "type": "function"
    },
    {
      "inputs": [
        {
          "internalType": "uint256",
          "name": "newMaxRentalDuration",
          "type": "uint256"
        }
      ],
      "name": "setMaxRentalDuration",
      "outputs": [],
      "stateMutability": "nonpayable",
      "type": "function"
    },
    {
      "inputs": [
        {
          "internalType": "uint256",
          "name": "newMaxTokenSupply",
          "type": "uint256"
        }
      ],
      "name": "setMaxTokenSupply",
      "outputs": [],
      "stateMutability": "nonpayable",
      "type": "function"
    },
    {
      "inputs": [
        {
          "internalType": "uint256",
          "name": "newMinRentalDuration",
          "type": "uint256"
        }
      ],
      "name": "setMinRentalDuration",
      "outputs": [],
      "stateMutability": "nonpayable",
      "type": "function"
    },
    {
      "inputs": [
        {
          "internalType": "bytes4",
          "name": "interfaceId",
          "type": "bytes4"
        }
      ],
      "name": "supportsInterface",
      "outputs": [
        {
          "internalType": "bool",
          "name": "",
          "type": "bool"
        }
      ],
      "stateMutability": "view",
      "type": "function"
    },
    {
      "inputs": [],
      "name": "totalEffectiveRentalTime",
      "outputs": [
        {
          "internalType": "uint256",
          "name": "",
          "type": "uint256"
        }
      ],
      "stateMutability": "view",
      "type": "function"
    },
    {
      "inputs": [
        {
          "internalType": "address",
          "name": "newOwner",
          "type": "address"
        }
      ],
      "name": "transferOwnership",
      "outputs": [],
      "stateMutability": "nonpayable",
      "type": "function"
    }
  ],
  "bytecode": "0x60e06040523480156200001157600080fd5b50604051620038fe380380620038fe833981016040819052620000349162000350565b89898989898989898989808033620000578162000050620001f9565b906200022f565b506001600160a01b039081166080528b811660c0528a811660a052600080546001600160a01b031916918b1691821790556040519081527fd99014e6f6a21a1f7025e1599288b52168db6241486596946f759a520d4ddfea915060200160405180910390a16002879055600386905560408051888152602081018890527f788db483524e27f5a39a54daaeb81bb48059af776767d0c1f600ef6e996d2818910160405180910390a160048590556040518581527f7d9d1c986503049ed25e197e416ddaeef53d62a8479d6371784f05a9d9da98249060200160405180910390a160058490556040518481527fb4f38443948b39b669154b83689d2dfa2a4cb2b1fd458118da3d1bcdacfc56089060200160405180910390a160068390556040518381527faa06aa6d79ce3cb966afe332af120b3aa8252dc355d1d2dae1368babec5f3ee59060200160405180910390a160018290556040518281527fb8b290c068ed53e46165f3ca5215dcc2972ae26ae4c8fb5adc71a1c135f855139060200160405180910390a1505050505050505050505050505050505050505062000419565b6000806200022960017fc9ed16f33ab3a66c84bfd83099ccb2a8845871e2e1c1928f63797152f0fd54cd620003f7565b92915050565b6001600160a01b03811615620002865781546001600160a01b0319166001600160a01b03821690811783556040516000907f8be0079c531659141344cd1fd0a4f28419497f9722a3daafe3b4186f6b6457e0908290a35b620002a66307f5828d60e41b60016200029e620002aa565b9190620002da565b5050565b6000806200022960017fca9d3e17f264b0f3984e2634e94adb37fa3e6a8103f06aeae6fa59e21c769f5e620003f7565b600160e01b6001600160e01b031983160162000309576040516372c683bb60e01b815260040160405180910390fd5b6001600160e01b03199190911660009081526020929092526040909120805460ff1916911515919091179055565b6001600160a01b03811681146200034d57600080fd5b50565b6000806000806000806000806000806101408b8d0312156200037157600080fd5b8a516200037e8162000337565b60208c0151909a50620003918162000337565b60408c0151909950620003a48162000337565b8098505060608b0151965060808b0151955060a08b0151945060c08b0151935060e08b015192506101008b015191506101208b0151620003e48162000337565b809150509295989b9194979a5092959850565b818103818111156200022957634e487b7160e01b600052601160045260246000fd5b60805160a05160c0516134616200049d600039600081816102db015281816106f601528181610b0d01528181610bed0152818161184801528181611f68015261203701526000818161045f0152610e79015260008181610344015281816103ee015281816126e70152818161276f01528181612822015261286001526134616000f3fe608060405234801561001057600080fd5b50600436106102925760003560e01c80638bb9c5bf11610160578063d547741f116100d8578063f5b541a61161008c578063f7ba94bd11610071578063f7ba94bd1461060f578063f7df6bad14610622578063fb203c171461063557600080fd5b8063f5b541a6146105df578063f70321941461060657600080fd5b8063e077f62b116100bd578063e077f62b146105a6578063e4f095d9146105b9578063f2fde38b146105cc57600080fd5b8063d547741f1461056c578063dd2861771461057f57600080fd5b8063b07ed9821161012f578063b65dd45111610114578063b65dd45114610531578063c3666c3614610544578063c4c2bfdc1461055757600080fd5b8063b07ed98214610515578063b2b47e3b1461052857600080fd5b80638bb9c5bf1461049d5780638da5cb5b146104b057806391d14854146104b8578063af94a1d1146104cb57600080fd5b8063409ad1961161020e57806373c8a958116101c25780637f6e4281116101a75780637f6e42811461045a57806385ca80761461048157806388b681fe1461048a57600080fd5b806373c8a9581461043e5780637ce4026f1461045157600080fd5b80635625ac51116101f35780635625ac51146103cb578063572b6c05146103de57806370243bcc1461042b57600080fd5b8063409ad196146103af57806350f7c204146103c257600080fd5b80632b4c9f161161026557806331e66e1e1161024a57806331e66e1e1461037d57806334f1a8d3146103935780633d9f01fb1461039c57600080fd5b80632b4c9f16146103425780632f2ff15d1461036857600080fd5b806301ffc9a71461029757806304660449146102bf57806315e682cb146102d65780631aabc61d14610322575b600080fd5b6102aa6102a5366004612ca4565b610648565b60405190151581526020015b60405180910390f35b6102c860025481565b6040519081526020016102b6565b6102fd7f000000000000000000000000000000000000000000000000000000000000000081565b60405173ffffffffffffffffffffffffffffffffffffffff90911681526020016102b6565b6000546102fd9073ffffffffffffffffffffffffffffffffffffffff1681565b7f00000000000000000000000000000000000000000000000000000000000000006102fd565b61037b610376366004612d08565b610662565b005b61038561069b565b6040516102b6929190612d38565b6102c860045481565b6102fd6103aa366004612d85565b6106ae565b61037b6103bd366004612dea565b6107b0565b6102c860015481565b61037b6103d9366004612e9e565b610fb4565b6102aa6103ec366004612ec0565b7f000000000000000000000000000000000000000000000000000000000000000073ffffffffffffffffffffffffffffffffffffffff90811691161490565b6102c8610439366004612edd565b611036565b61037b61044c366004612f1f565b611128565b6102c860055481565b6102fd7f000000000000000000000000000000000000000000000000000000000000000081565b6102c860085481565b61037b610498366004612edd565b611226565b61037b6104ab366004612d85565b611251565b6102fd61126f565b6102aa6104c6366004612d08565b61129b565b6104fa6104d9366004612d85565b60076020526000908152604090208054600182015460029092015490919083565b604080519384526020840192909252908201526060016102b6565b61037b610523366004612d85565b6112e6565b6102c860035481565b61037b61053f366004612d85565b61134e565b61037b610552366004612f1f565b6113af565b61055f611527565b6040516102b69190613027565b61037b61057a366004612d08565b6115b5565b6102c87f0e67d2d2c46f23cfff9f76c16187348901bf73ba32dcf6893f2a2a4b25be75f881565b6102c86105b436600461303a565b6115e3565b61037b6105c7366004612d85565b6119af565b61037b6105da366004612ec0565b611a10565b6102c87f97667070c54ef182b0f5858b034beac1b6f3089aa2d3188bb1e8929f4fa9b92981565b6102c860065481565b61037b61061d3660046130e7565b611a2b565b61037b610630366004612ec0565b611aea565b61037b610643366004612d85565b611b89565b600061065c82610656611bea565b90611c18565b92915050565b600061066c611cf2565b90506106808161067a611cfc565b90611d2a565b61069683838361068e611d99565b929190611dc7565b505050565b3660006106a6611e9e565b915091509091565b600081815260076020526040812060010154421015610776576040517f6352211e000000000000000000000000000000000000000000000000000000008152600481018390527f000000000000000000000000000000000000000000000000000000000000000073ffffffffffffffffffffffffffffffffffffffff1690636352211e90602401602060405180830381865afa158015610752573d6000803e3d6000fd5b505050506040513d601f19601f8201168201806040525081019061065c9190613153565b6040517f1297346f000000000000000000000000000000000000000000000000000000008152600481018390526024015b60405180910390fd5b60065486106107eb576040517f2273ee1800000000000000000000000000000000000000000000000000000000815260040160405180910390fd5b858414610824576040517f6582533600000000000000000000000000000000000000000000000000000000815260040160405180910390fd5b600088905060008888808060200260200160405190810160405280939291908181526020018383602002808284376000920182905250604080516020808e0282810182019093528d825296975091959194508c93508b925082918501908490808284376000920182905250939450429392506108a591508990508884611ea9565b6008546108b2919061319f565b905060006108bf82612121565b905060008c67ffffffffffffffff8111156108dc576108dc6131b2565b60405190808252806020026020018201604052801561093157816020015b61091e60405180606001604052806000815260200160008152602001600081525090565b8152602001906001900390816108fa5790505b50905060008060005b8851811015610e05576000898281518110610957576109576131e1565b602002602001015190506000898381518110610975576109756131e1565b60200260200101519050816000036109bc576040517f8ce0857d000000000000000000000000000000000000000000000000000000008152600060048201526024016107a7565b60015482106109fa576040517f8ce0857d000000000000000000000000000000000000000000000000000000008152600481018390526024016107a7565b600454811015610a4857600480546040517f4c6424860000000000000000000000000000000000000000000000000000000081529182018490526024820183905260448201526064016107a7565b60008281526007602052604081206001810154909103610bbe57600554821115610ab3576005546040517ff1c8a687000000000000000000000000000000000000000000000000000000008152600481018590526024810184905260448101919091526064016107a7565b6040517f8832e6e300000000000000000000000000000000000000000000000000000000815273ffffffffffffffffffffffffffffffffffffffff8e811660048301526024820185905260606044830152600060648301527f00000000000000000000000000000000000000000000000000000000000000001690638832e6e390608401600060405180830381600087803b158015610b5157600080fd5b505af1158015610b65573d6000803e3d6000fd5b5050508a825550610b76828b613210565b600182015560035460025460009190610b8f9085613223565b610b99919061323a565b610ba3908a613210565b600283018190559050610bb68187613210565b955050610da7565b6040517f6352211e000000000000000000000000000000000000000000000000000000008152600481018490527f000000000000000000000000000000000000000000000000000000000000000073ffffffffffffffffffffffffffffffffffffffff1690636352211e90602401602060405180830381865afa158015610c49573d6000803e3d6000fd5b505050506040513d601f19601f82011682018060405250810190610c6d9190613153565b73ffffffffffffffffffffffffffffffffffffffff168d73ffffffffffffffffffffffffffffffffffffffff16148015610caa575080600101548a105b15610d72578054610cbb908b61319f565b821115610d1557805483908390610cd2908d61319f565b6040517ff1c8a6870000000000000000000000000000000000000000000000000000000081526004810193909352602483019190915260448201526064016107a7565b81816001016000828254610d299190613210565b909155505060035460025460009190610d429085613223565b610d4c919061323a565b905080826002016000828254610d629190613210565b90915550610bb690508187613210565b6040517f139d6799000000000000000000000000000000000000000000000000000000008152600481018490526024016107a7565b6040805160608101825282548152600183015460208201526002830154918101919091528751889086908110610ddf57610ddf6131e1565b6020908102919091010152610df48287613210565b9550506001909201915061093a9050565b508915801590610e1457508981115b15610e55576040517fd519701100000000000000000000000000000000000000000000000000000000815260048101829052602481018b90526044016107a7565b610e5f8286613210565b60085573ffffffffffffffffffffffffffffffffffffffff7f00000000000000000000000000000000000000000000000000000000000000001663212aac79610ea6611cf2565b6040517fffffffff0000000000000000000000000000000000000000000000000000000060e084901b16815273ffffffffffffffffffffffffffffffffffffffff9091166004820152602481018490527f0e67d2d2c46f23cfff9f76c16187348901bf73ba32dcf6893f2a2a4b25be75f86044820152606401600060405180830381600087803b158015610f3957600080fd5b505af1158015610f4d573d6000803e3d6000fd5b505050508873ffffffffffffffffffffffffffffffffffffffff167f71abcae7327579f86b1266a4390233f926d8ce29f0ed821b7b334202bd314e0f8985604051610f99929190613275565b60405180910390a25050505050505050505050505050505050565b610fef7f97667070c54ef182b0f5858b034beac1b6f3089aa2d3188bb1e8929f4fa9b929610fe0611cf2565b610fe8611d99565b91906121b5565b6002829055600381905560408051838152602081018390527f788db483524e27f5a39a54daaeb81bb48059af776767d0c1f600ef6e996d2818910160405180910390a15050565b600042815b83811015611120576000858583818110611057576110576131e1565b905060200201359050600060076000838152602001908152602001600020905080600101546000036110b8576040517f1297346f000000000000000000000000000000000000000000000000000000008152600481018390526024016107a7565b80600101548410156110f9576040517f9be5764a000000000000000000000000000000000000000000000000000000008152600481018390526024016107a7565b8054600182015461110a919061319f565b6111149086613210565b9450505060010161103b565b505092915050565b61113b611133611cf2565b61067a611cfc565b84838114158061114b5750808214155b15611182576040517f6582533600000000000000000000000000000000000000000000000000000000815260040160405180910390fd5b60005b8181101561121c576112148888838181106111a2576111a26131e1565b90506020020160208101906111b79190612ec0565b8585848181106111c9576111c96131e1565b905060200201358888858181106111e2576111e26131e1565b90506020020160208101906111f79190612ec0565b73ffffffffffffffffffffffffffffffffffffffff16919061223b565b600101611185565b5050505050505050565b6000611233838342611ea9565b90508060086000828254611247919061319f565b9091555050505050565b61126c61125c611cf2565b82611265611d99565b91906122c8565b50565b600061129661127c611cfc565b5473ffffffffffffffffffffffffffffffffffffffff1690565b905090565b60006112df83836112aa611d99565b60009283526020908152604080842073ffffffffffffffffffffffffffffffffffffffff909316845291905290205460ff1690565b9392505050565b6113127f97667070c54ef182b0f5858b034beac1b6f3089aa2d3188bb1e8929f4fa9b929610fe0611cf2565b60018190556040518181527fb8b290c068ed53e46165f3ca5215dcc2972ae26ae4c8fb5adc71a1c135f85513906020015b60405180910390a150565b61137a7f97667070c54ef182b0f5858b034beac1b6f3089aa2d3188bb1e8929f4fa9b929610fe0611cf2565b60068190556040518181527faa06aa6d79ce3cb966afe332af120b3aa8252dc355d1d2dae1368babec5f3ee590602001611343565b6113ba611133611cf2565b8483811415806113ca5750808214155b15611401576040517f6582533600000000000000000000000000000000000000000000000000000000815260040160405180910390fd5b60005b8181101561121c5785858281811061141e5761141e6131e1565b90506020020160208101906114339190612ec0565b73ffffffffffffffffffffffffffffffffffffffff166323b872dd308a8a85818110611461576114616131e1565b90506020020160208101906114769190612ec0565b878786818110611488576114886131e1565b6040517fffffffff0000000000000000000000000000000000000000000000000000000060e088901b16815273ffffffffffffffffffffffffffffffffffffffff958616600482015294909316602485015250602090910201356044820152606401600060405180830381600087803b15801561150457600080fd5b505af1158015611518573d6000803e3d6000fd5b50505050806001019050611404565b6009805461153490613305565b80601f016020809104026020016040519081016040528092919081815260200182805461156090613305565b80156115ad5780601f10611582576101008083540402835291602001916115ad565b820191906000526020600020905b81548152906001019060200180831161159057829003601f168201915b505050505081565b60006115bf611cf2565b90506115cd8161067a611cfc565b6106968383836115db611d99565b92919061236c565b6006546000908610611621576040517f2273ee1800000000000000000000000000000000000000000000000000000000815260040160405180910390fd5b85841461165a576040517f6582533600000000000000000000000000000000000000000000000000000000815260040160405180910390fd5b4260006116678585611036565b905060006116818260085461167c919061319f565b612121565b90506000805b8a81101561199f5760008a8a838181106116a3576116a36131e1565b90506020020135905060008d8d848181106116c0576116c06131e1565b90506020020135905080600003611706576040517f8ce0857d000000000000000000000000000000000000000000000000000000008152600060048201526024016107a7565b6001548110611744576040517f8ce0857d000000000000000000000000000000000000000000000000000000008152600481018290526024016107a7565b60045482101561179257600480546040517f4c6424860000000000000000000000000000000000000000000000000000000081529182018390526024820184905260448201526064016107a7565b6000818152600760209081526040808320815160608101835281548152600182015493810184905260029091015491810191909152910361182f5760055483111561181e576005546040517ff1c8a687000000000000000000000000000000000000000000000000000000008152600481018490526024810185905260448101919091526064016107a7565b6118288686613210565b945061196a565b8f73ffffffffffffffffffffffffffffffffffffffff167f000000000000000000000000000000000000000000000000000000000000000073ffffffffffffffffffffffffffffffffffffffff16636352211e846040518263ffffffff1660e01b81526004016118a191815260200190565b602060405180830381865afa1580156118be573d6000803e3d6000fd5b505050506040513d601f19601f820116820180604052508101906118e29190613153565b73ffffffffffffffffffffffffffffffffffffffff161480156119085750806020015188105b15611935578051611919908961319f565b83111561193057805182908490610cd2908b61319f565b61196a565b6040517f139d6799000000000000000000000000000000000000000000000000000000008152600481018390526024016107a7565b60035460025461197a9085613223565b611984919061323a565b61198e9086613210565b945050600190920191506116879050565b509b9a5050505050505050505050565b6119db7f97667070c54ef182b0f5858b034beac1b6f3089aa2d3188bb1e8929f4fa9b929610fe0611cf2565b60058190556040518181527fb4f38443948b39b669154b83689d2dfa2a4cb2b1fd458118da3d1bcdacfc560890602001611343565b61126c611a1b611cf2565b82611a24611cfc565b9190612436565b611a36611133611cf2565b82818114611a70576040517f6582533600000000000000000000000000000000000000000000000000000000815260040160405180910390fd5b60005b81811015611ae257611ada848483818110611a9057611a906131e1565b90506020020135878784818110611aa957611aa96131e1565b9050602002016020810190611abe9190612ec0565b73ffffffffffffffffffffffffffffffffffffffff169061254a565b600101611a73565b505050505050565b611b167f97667070c54ef182b0f5858b034beac1b6f3089aa2d3188bb1e8929f4fa9b929610fe0611cf2565b600080547fffffffffffffffffffffffff00000000000000000000000000000000000000001673ffffffffffffffffffffffffffffffffffffffff83169081179091556040519081527fd99014e6f6a21a1f7025e1599288b52168db6241486596946f759a520d4ddfea90602001611343565b611bb57f97667070c54ef182b0f5858b034beac1b6f3089aa2d3188bb1e8929f4fa9b929610fe0611cf2565b60048190556040518181527f7d9d1c986503049ed25e197e416ddaeef53d62a8479d6371784f05a9d9da982490602001611343565b60008061065c60017fca9d3e17f264b0f3984e2634e94adb37fa3e6a8103f06aeae6fa59e21c769f5e61319f565b60007c01000000000000000000000000000000000000000000000000000000007fffffffff00000000000000000000000000000000000000000000000000000000831601611c685750600061065c565b7ffe003659000000000000000000000000000000000000000000000000000000007fffffffff00000000000000000000000000000000000000000000000000000000831601611cb95750600161065c565b507fffffffff00000000000000000000000000000000000000000000000000000000166000908152602091909152604090205460ff1690565b60006112966126a4565b60008061065c60017fc9ed16f33ab3a66c84bfd83099ccb2a8845871e2e1c1928f63797152f0fd54cd61319f565b815473ffffffffffffffffffffffffffffffffffffffff828116911614611d95576040517f2ef4875e00000000000000000000000000000000000000000000000000000000815273ffffffffffffffffffffffffffffffffffffffff821660048201526024016107a7565b5050565b60008061065c60017fc8827d3282af6f37b64c3e9e6f3ac9df286ab0bb0fccd6f8661bf19adb368b2361319f565b60008381526020858152604080832073ffffffffffffffffffffffffffffffffffffffff8616845290915290205460ff16611e985760008381526020858152604080832073ffffffffffffffffffffffffffffffffffffffff8681168086529184529382902080547fffffffffffffffffffffffffffffffffffffffffffffffffffffffffffffff00166001179055815187815292830152918316918101919091527f2f8788117e7eff1d82e926ec794901d17c78024a50270940304540a733656f0d906060015b60405180910390a15b50505050565b3660006106a66127eb565b6000805b838110156120da576000858583818110611ec957611ec96131e1565b90506020020135905060006007600083815260200190815260200160002090508060010154600014158015611f02575080600101548510155b1561209b5780546001820154611f18919061319f565b611f229085613210565b600080835560018301819055600283018190556040517f6352211e00000000000000000000000000000000000000000000000000000000815260048101859052919550907f000000000000000000000000000000000000000000000000000000000000000073ffffffffffffffffffffffffffffffffffffffff1690636352211e90602401602060405180830381865afa158015611fc4573d6000803e3d6000fd5b505050506040513d601f19601f82011682018060405250810190611fe89190613153565b6040517f79cc679000000000000000000000000000000000000000000000000000000000815273ffffffffffffffffffffffffffffffffffffffff8083166004830152602482018690529192507f0000000000000000000000000000000000000000000000000000000000000000909116906379cc679090604401600060405180830381600087803b15801561207d57600080fd5b505af1158015612091573d6000803e3d6000fd5b50505050506120d0565b6040517f9be5764a000000000000000000000000000000000000000000000000000000008152600481018390526024016107a7565b5050600101611ead565b5082156112df577f9e5430727c5f2b23597e7cb2670240cc8fbb4031a0dad53562812b380e286b3d8484604051612112929190613358565b60405180910390a19392505050565b600080546040517fae1042650000000000000000000000000000000000000000000000000000000081526004810184905273ffffffffffffffffffffffffffffffffffffffff9091169063ae10426590602401602060405180830381865afa158015612191573d6000803e3d6000fd5b505050506040513d601f19601f8201168201806040525081019061065c91906133aa565b60008281526020848152604080832073ffffffffffffffffffffffffffffffffffffffff8516845290915290205460ff16610696576040517f7aa728820000000000000000000000000000000000000000000000000000000081526004810183905273ffffffffffffffffffffffffffffffffffffffff821660248201526044016107a7565b6040805173ffffffffffffffffffffffffffffffffffffffff8416602482015260448082018490528251808303909101815260649091019091526020810180517bffffffffffffffffffffffffffffffffffffffffffffffffffffffff167fa9059cbb00000000000000000000000000000000000000000000000000000000179052610696908490612955565b6122d38382846121b5565b60008181526020848152604080832073ffffffffffffffffffffffffffffffffffffffff86168085529083529281902080547fffffffffffffffffffffffffffffffffffffffffffffffffffffffffffffff0016905580518481529182018390528101919091527ff6391f5c32d9c69d2a47ea670b442974b53935d1edc7fd64eb21e047a839171b9060600160405180910390a1505050565b60008381526020858152604080832073ffffffffffffffffffffffffffffffffffffffff8616845290915290205460ff1615611e985760008381526020858152604080832073ffffffffffffffffffffffffffffffffffffffff8681168086529184529382902080547fffffffffffffffffffffffffffffffffffffffffffffffffffffffffffffff00169055815187815292830152918316918101919091527ff6391f5c32d9c69d2a47ea670b442974b53935d1edc7fd64eb21e047a839171b90606001611e8f565b825473ffffffffffffffffffffffffffffffffffffffff90811690831681146124a3576040517f2ef4875e00000000000000000000000000000000000000000000000000000000815273ffffffffffffffffffffffffffffffffffffffff841660048201526024016107a7565b8173ffffffffffffffffffffffffffffffffffffffff168173ffffffffffffffffffffffffffffffffffffffff1614611e985783547fffffffffffffffffffffffff00000000000000000000000000000000000000001673ffffffffffffffffffffffffffffffffffffffff8381169182178655604051908316907f8be0079c531659141344cd1fd0a4f28419497f9722a3daafe3b4186f6b6457e090600090a350505050565b804710156125b4576040517f08c379a000000000000000000000000000000000000000000000000000000000815260206004820152601d60248201527f416464726573733a20696e73756666696369656e742062616c616e636500000060448201526064016107a7565b60008273ffffffffffffffffffffffffffffffffffffffff168260405160006040518083038185875af1925050503d806000811461260e576040519150601f19603f3d011682016040523d82523d6000602084013e612613565b606091505b5050905080610696576040517f08c379a000000000000000000000000000000000000000000000000000000000815260206004820152603a60248201527f416464726573733a20756e61626c6520746f2073656e642076616c75652c207260448201527f6563697069656e74206d6179206861766520726576657274656400000000000060648201526084016107a7565b6000333214806126b45750601836105b156126be57503390565b7fffffffffffffffffffffffffffffffffffffffffffffffffffffffffffffffec36013560601c7f000000000000000000000000000000000000000000000000000000000000000073ffffffffffffffffffffffffffffffffffffffff163314806127da57506040517f8929a8ca00000000000000000000000000000000000000000000000000000000815273ffffffffffffffffffffffffffffffffffffffff82811660048301523360248301527f00000000000000000000000000000000000000000000000000000000000000001690638929a8ca90604401602060405180830381865afa1580156127b6573d6000803e3d6000fd5b505050506040513d601f19601f820116820180604052508101906127da91906133c3565b156127e457919050565b3391505090565b366000333214806127fc5750601836105b1561280a5750600091369150565b3373ffffffffffffffffffffffffffffffffffffffff7f000000000000000000000000000000000000000000000000000000000000000016148061293f575073ffffffffffffffffffffffffffffffffffffffff7f000000000000000000000000000000000000000000000000000000000000000016638929a8ca367fffffffffffffffffffffffffffffffffffffffffffffffffffffffffffffffec013560601c6040517fffffffff0000000000000000000000000000000000000000000000000000000060e084901b16815273ffffffffffffffffffffffffffffffffffffffff9091166004820152336024820152604401602060405180830381865afa15801561291b573d6000803e3d6000fd5b505050506040513d601f19601f8201168201806040525081019061293f91906133c3565b1561294c576106a6612a64565b50600091369150565b60006129b7826040518060400160405280602081526020017f5361666545524332303a206c6f772d6c6576656c2063616c6c206661696c65648152508573ffffffffffffffffffffffffffffffffffffffff16612a959092919063ffffffff16565b90508051600014806129d85750808060200190518101906129d891906133c3565b610696576040517f08c379a000000000000000000000000000000000000000000000000000000000815260206004820152602a60248201527f5361666545524332303a204552433230206f7065726174696f6e20646964206e60448201527f6f7420737563636565640000000000000000000000000000000000000000000060648201526084016107a7565b3660006106a67fffffffffffffffffffffffffffffffffffffffffffffffffffffffffffffffec83018284816133e5565b6060612aa48484600085612aac565b949350505050565b606082471015612b3e576040517f08c379a000000000000000000000000000000000000000000000000000000000815260206004820152602660248201527f416464726573733a20696e73756666696369656e742062616c616e636520666f60448201527f722063616c6c000000000000000000000000000000000000000000000000000060648201526084016107a7565b6000808673ffffffffffffffffffffffffffffffffffffffff168587604051612b67919061340f565b60006040518083038185875af1925050503d8060008114612ba4576040519150601f19603f3d011682016040523d82523d6000602084013e612ba9565b606091505b5091509150612bba87838387612bc5565b979650505050505050565b60608315612c5b578251600003612c545773ffffffffffffffffffffffffffffffffffffffff85163b612c54576040517f08c379a000000000000000000000000000000000000000000000000000000000815260206004820152601d60248201527f416464726573733a2063616c6c20746f206e6f6e2d636f6e747261637400000060448201526064016107a7565b5081612aa4565b612aa48383815115612c705781518083602001fd5b806040517f08c379a00000000000000000000000000000000000000000000000000000000081526004016107a79190613027565b600060208284031215612cb657600080fd5b81357fffffffff00000000000000000000000000000000000000000000000000000000811681146112df57600080fd5b73ffffffffffffffffffffffffffffffffffffffff8116811461126c57600080fd5b60008060408385031215612d1b57600080fd5b823591506020830135612d2d81612ce6565b809150509250929050565b60208152816020820152818360408301376000818301604090810191909152601f9092017fffffffffffffffffffffffffffffffffffffffffffffffffffffffffffffffe0160101919050565b600060208284031215612d9757600080fd5b5035919050565b60008083601f840112612db057600080fd5b50813567ffffffffffffffff811115612dc857600080fd5b6020830191508360208260051b8501011115612de357600080fd5b9250929050565b60008060008060008060008060a0898b031215612e0657600080fd5b8835612e1181612ce6565b9750602089013567ffffffffffffffff80821115612e2e57600080fd5b612e3a8c838d01612d9e565b909950975060408b0135915080821115612e5357600080fd5b612e5f8c838d01612d9e565b909750955060608b0135915080821115612e7857600080fd5b50612e858b828c01612d9e565b999c989b50969995989497949560800135949350505050565b60008060408385031215612eb157600080fd5b50508035926020909101359150565b600060208284031215612ed257600080fd5b81356112df81612ce6565b60008060208385031215612ef057600080fd5b823567ffffffffffffffff811115612f0757600080fd5b612f1385828601612d9e565b90969095509350505050565b60008060008060008060608789031215612f3857600080fd5b863567ffffffffffffffff80821115612f5057600080fd5b612f5c8a838b01612d9e565b90985096506020890135915080821115612f7557600080fd5b612f818a838b01612d9e565b90965094506040890135915080821115612f9a57600080fd5b50612fa789828a01612d9e565b979a9699509497509295939492505050565b60005b83811015612fd4578181015183820152602001612fbc565b50506000910152565b60008151808452612ff5816020860160208601612fb9565b601f017fffffffffffffffffffffffffffffffffffffffffffffffffffffffffffffffe0169290920160200192915050565b6020815260006112df6020830184612fdd565b60008060008060008060006080888a03121561305557600080fd5b873561306081612ce6565b9650602088013567ffffffffffffffff8082111561307d57600080fd5b6130898b838c01612d9e565b909850965060408a01359150808211156130a257600080fd5b6130ae8b838c01612d9e565b909650945060608a01359150808211156130c757600080fd5b506130d48a828b01612d9e565b989b979a50959850939692959293505050565b600080600080604085870312156130fd57600080fd5b843567ffffffffffffffff8082111561311557600080fd5b61312188838901612d9e565b9096509450602087013591508082111561313a57600080fd5b5061314787828801612d9e565b95989497509550505050565b60006020828403121561316557600080fd5b81516112df81612ce6565b7f4e487b7100000000000000000000000000000000000000000000000000000000600052601160045260246000fd5b8181038181111561065c5761065c613170565b7f4e487b7100000000000000000000000000000000000000000000000000000000600052604160045260246000fd5b7f4e487b7100000000000000000000000000000000000000000000000000000000600052603260045260246000fd5b8082018082111561065c5761065c613170565b808202811582820484141761065c5761065c613170565b600082613270577f4e487b7100000000000000000000000000000000000000000000000000000000600052601260045260246000fd5b500490565b6040808252835182820181905260009190606090818501906020808901865b838110156132b057815185529382019390820190600101613294565b5050868303818801528751808452888201938201925060005b818110156132f65784518051855283810151848601528701518785015293820193928501926001016132c9565b50919998505050505050505050565b600181811c9082168061331957607f821691505b602082108103613352577f4e487b7100000000000000000000000000000000000000000000000000000000600052602260045260246000fd5b50919050565b6020815281602082015260007f07ffffffffffffffffffffffffffffffffffffffffffffffffffffffffffffff83111561339157600080fd5b8260051b80856040850137919091016040019392505050565b6000602082840312156133bc57600080fd5b5051919050565b6000602082840312156133d557600080fd5b815180151581146112df57600080fd5b600080858511156133f557600080fd5b8386111561340257600080fd5b5050820193919092039150565b60008251613421818460208701612fb9565b919091019291505056fea26469706673582212207be4c0e5dcdaab99b1328a5f270ac38fffc6abd0f681394d12f9e73f645f2e6164736f6c63430008160033",
  "linkReferences": {},
  "deployedLinkReferences": {}
}