{
  "_format": "hh-sol-artifact-1",
  "contractName": "EDULandRentalMock",
  "sourceName": "contracts/mocks/land/EDULandRentalMock.sol",
  "abi": [
    {
      "inputs": [
        {
          "internalType": "address",
          "name": "nodeKeyAddress",
          "type": "address"
        },
        {
          "internalType": "address",
          "name": "pointsAddress",
          "type": "address"
        },
        {
          "internalType": "address",
          "name": "rentalFeeHelperAddress",
          "type": "address"
        },
        {
          "internalType": "uint256",
          "name": "maintenceFee_",
          "type": "uint256"
        },
        {
          "internalType": "uint256",
          "name": "maintenanceFeeDenominator_",
          "type": "uint256"
        },
        {
          "internalType": "uint256",
          "name": "minRentalDuration_",
          "type": "uint256"
        },
        {
          "internalType": "uint256",
          "name": "maxRentalDuration_",
          "type": "uint256"
        },
        {
          "internalType": "uint256",
          "name": "maxRentalCountPerCall_",
          "type": "uint256"
        },
        {
          "internalType": "uint256",
          "name": "maxTokenSupply_",
          "type": "uint256"
        },
        {
          "internalType": "contract IForwarderRegistry",
          "name": "forwarderRegistry",
          "type": "address"
        }
      ],
      "stateMutability": "nonpayable",
      "type": "constructor"
    },
    {
      "inputs": [
        {
          "internalType": "uint256",
          "name": "calculatedFee",
          "type": "uint256"
        },
        {
          "internalType": "uint256",
          "name": "maxFee",
          "type": "uint256"
        }
      ],
      "name": "FeeExceeded",
      "type": "error"
    },
    {
      "inputs": [],
      "name": "IllegalInterfaceId",
      "type": "error"
    },
    {
      "inputs": [],
      "name": "InconsistentArrayLengths",
      "type": "error"
    },
    {
      "inputs": [],
      "name": "InvalidTokenIdsParam",
      "type": "error"
    },
    {
      "inputs": [
        {
          "internalType": "address",
          "name": "account",
          "type": "address"
        }
      ],
      "name": "NotContractOwner",
      "type": "error"
    },
    {
      "inputs": [
        {
          "internalType": "bytes32",
          "name": "role",
          "type": "bytes32"
        },
        {
          "internalType": "address",
          "name": "account",
          "type": "address"
        }
      ],
      "name": "NotRoleHolder",
      "type": "error"
    },
    {
      "inputs": [],
      "name": "RentalCountPerCallLimitExceeded",
      "type": "error"
    },
    {
      "inputs": [
        {
          "internalType": "uint256",
          "name": "tokenId",
          "type": "uint256"
        }
      ],
      "name": "RentalDurationTooHigh",
      "type": "error"
    },
    {
      "inputs": [
        {
          "internalType": "uint256",
          "name": "tokenId",
          "type": "uint256"
        }
      ],
      "name": "RentalDurationTooLow",
      "type": "error"
    },
    {
      "inputs": [
        {
          "internalType": "uint256",
          "name": "tokenId",
          "type": "uint256"
        }
      ],
      "name": "TokenAlreadyRented",
      "type": "error"
    },
    {
      "inputs": [
        {
          "internalType": "uint256",
          "name": "tokenId",
          "type": "uint256"
        }
      ],
      "name": "TokenNotExpired",
      "type": "error"
    },
    {
      "inputs": [
        {
          "internalType": "uint256",
          "name": "tokenId",
          "type": "uint256"
        }
      ],
      "name": "TokenNotRented",
      "type": "error"
    },
    {
      "inputs": [
        {
          "internalType": "uint256",
          "name": "tokenId",
          "type": "uint256"
        }
      ],
      "name": "UnsupportedTokenId",
      "type": "error"
    },
    {
      "anonymous": false,
      "inputs": [
        {
          "indexed": false,
          "internalType": "uint256[]",
          "name": "tokenIds",
          "type": "uint256[]"
        }
      ],
      "name": "Collected",
      "type": "event"
    },
    {
      "anonymous": false,
      "inputs": [
        {
          "indexed": false,
          "internalType": "address",
          "name": "newRentalFeeHelper",
          "type": "address"
        }
      ],
      "name": "LandPriceHelperUpdated",
      "type": "event"
    },
    {
      "anonymous": false,
      "inputs": [
        {
          "indexed": false,
          "internalType": "uint256",
          "name": "newMaintenanceFee",
          "type": "uint256"
        },
        {
          "indexed": false,
          "internalType": "uint256",
          "name": "newMaintenanceFeeDenominator",
          "type": "uint256"
        }
      ],
      "name": "MaintenanceFeeUpdated",
      "type": "event"
    },
    {
      "anonymous": false,
      "inputs": [
        {
          "indexed": false,
          "internalType": "uint256",
          "name": "newMaxRentalCountPerCall",
          "type": "uint256"
        }
      ],
      "name": "MaxRentalCountPerCallUpdated",
      "type": "event"
    },
    {
      "anonymous": false,
      "inputs": [
        {
          "indexed": false,
          "internalType": "uint256",
          "name": "newMaxRentalDuration",
          "type": "uint256"
        }
      ],
      "name": "MaxRentalDurationUpdated",
      "type": "event"
    },
    {
      "anonymous": false,
      "inputs": [
        {
          "indexed": false,
          "internalType": "uint256",
          "name": "newMaxTokenSupply",
          "type": "uint256"
        }
      ],
      "name": "MaxTokenSupplyUpdated",
      "type": "event"
    },
    {
      "anonymous": false,
      "inputs": [
        {
          "indexed": false,
          "internalType": "uint256",
          "name": "newMinRentalDuration",
          "type": "uint256"
        }
      ],
      "name": "MinRentalDurationUpdated",
      "type": "event"
    },
    {
      "anonymous": false,
      "inputs": [
        {
          "indexed": true,
          "internalType": "address",
          "name": "previousOwner",
          "type": "address"
        },
        {
          "indexed": true,
          "internalType": "address",
          "name": "newOwner",
          "type": "address"
        }
      ],
      "name": "OwnershipTransferred",
      "type": "event"
    },
    {
      "anonymous": false,
      "inputs": [
        {
          "indexed": true,
          "internalType": "address",
          "name": "renter",
          "type": "address"
        },
        {
          "indexed": false,
          "internalType": "uint256[]",
          "name": "tokenIds",
          "type": "uint256[]"
        },
        {
          "indexed": false,
          "internalType": "uint256[]",
          "name": "beginDates",
          "type": "uint256[]"
        },
        {
          "indexed": false,
          "internalType": "uint256[]",
          "name": "endDates",
          "type": "uint256[]"
        },
        {
          "indexed": false,
          "internalType": "uint256[]",
          "name": "fees",
          "type": "uint256[]"
        }
      ],
      "name": "Rental",
      "type": "event"
    },
    {
      "anonymous": false,
      "inputs": [
        {
          "indexed": false,
          "internalType": "bytes32",
          "name": "role",
          "type": "bytes32"
        },
        {
          "indexed": false,
          "internalType": "address",
          "name": "account",
          "type": "address"
        },
        {
          "indexed": false,
          "internalType": "address",
          "name": "operator",
          "type": "address"
        }
      ],
      "name": "RoleGranted",
      "type": "event"
    },
    {
      "anonymous": false,
      "inputs": [
        {
          "indexed": false,
          "internalType": "bytes32",
          "name": "role",
          "type": "bytes32"
        },
        {
          "indexed": false,
          "internalType": "address",
          "name": "account",
          "type": "address"
        },
        {
          "indexed": false,
          "internalType": "address",
          "name": "operator",
          "type": "address"
        }
      ],
      "name": "RoleRevoked",
      "type": "event"
    },
    {
      "inputs": [],
      "name": "EDU_LAND",
      "outputs": [
        {
          "internalType": "contract IEDULand",
          "name": "",
          "type": "address"
        }
      ],
      "stateMutability": "view",
      "type": "function"
    },
    {
      "inputs": [],
      "name": "OPERATOR_ROLE",
      "outputs": [
        {
          "internalType": "bytes32",
          "name": "",
          "type": "bytes32"
        }
      ],
      "stateMutability": "view",
      "type": "function"
    },
    {
      "inputs": [],
      "name": "POINTS",
      "outputs": [
        {
          "internalType": "contract Points",
          "name": "",
          "type": "address"
        }
      ],
      "stateMutability": "view",
      "type": "function"
    },
    {
      "inputs": [],
      "name": "RENTAL_CONSUME_CODE",
      "outputs": [
        {
          "internalType": "bytes32",
          "name": "",
          "type": "bytes32"
        }
      ],
      "stateMutability": "view",
      "type": "function"
    },
    {
      "inputs": [],
      "name": "__msgData",
      "outputs": [
        {
          "internalType": "bytes",
          "name": "",
          "type": "bytes"
        }
      ],
      "stateMutability": "view",
      "type": "function"
    },
    {
      "inputs": [
        {
          "internalType": "uint256[]",
          "name": "tokenIds",
          "type": "uint256[]"
        }
      ],
      "name": "calculateElapsedTimeForExpiredTokens",
      "outputs": [
        {
          "internalType": "uint256",
          "name": "elapsedTime",
          "type": "uint256"
        }
      ],
      "stateMutability": "view",
      "type": "function"
    },
    {
      "inputs": [
        {
          "internalType": "uint256[]",
          "name": "tokenIds",
          "type": "uint256[]"
        }
      ],
      "name": "collectExpiredTokens",
      "outputs": [],
      "stateMutability": "nonpayable",
      "type": "function"
    },
    {
      "inputs": [
        {
          "internalType": "uint256",
          "name": "totalOngoingRentalTime_",
          "type": "uint256"
        }
      ],
      "name": "estimateLandPrice",
      "outputs": [
        {
          "internalType": "uint256",
          "name": "",
          "type": "uint256"
        }
      ],
      "stateMutability": "view",
      "type": "function"
    },
    {
      "inputs": [
        {
          "internalType": "uint256[]",
          "name": "tokenIds",
          "type": "uint256[]"
        },
        {
          "internalType": "uint256[]",
          "name": "durations",
          "type": "uint256[]"
        },
        {
          "internalType": "uint256[]",
          "name": "expiredTokenIds",
          "type": "uint256[]"
        }
      ],
      "name": "estimateRentalFee",
      "outputs": [
        {
          "internalType": "uint256",
          "name": "fee",
          "type": "uint256"
        }
      ],
      "stateMutability": "view",
      "type": "function"
    },
    {
      "inputs": [],
      "name": "forwarderRegistry",
      "outputs": [
        {
          "internalType": "contract IForwarderRegistry",
          "name": "",
          "type": "address"
        }
      ],
      "stateMutability": "view",
      "type": "function"
    },
    {
      "inputs": [
        {
          "internalType": "bytes32",
          "name": "role",
          "type": "bytes32"
        },
        {
          "internalType": "address",
          "name": "account",
          "type": "address"
        }
      ],
      "name": "grantRole",
      "outputs": [],
      "stateMutability": "nonpayable",
      "type": "function"
    },
    {
      "inputs": [
        {
          "internalType": "bytes32",
          "name": "role",
          "type": "bytes32"
        },
        {
          "internalType": "address",
          "name": "account",
          "type": "address"
        }
      ],
      "name": "hasRole",
      "outputs": [
        {
          "internalType": "bool",
          "name": "hasRole_",
          "type": "bool"
        }
      ],
      "stateMutability": "view",
      "type": "function"
    },
    {
      "inputs": [
        {
          "internalType": "address",
          "name": "forwarder",
          "type": "address"
        }
      ],
      "name": "isTrustedForwarder",
      "outputs": [
        {
          "internalType": "bool",
          "name": "",
          "type": "bool"
        }
      ],
      "stateMutability": "view",
      "type": "function"
    },
    {
      "inputs": [],
      "name": "landPriceHelper",
      "outputs": [
        {
          "internalType": "contract IEDULandPriceHelper",
          "name": "",
          "type": "address"
        }
      ],
      "stateMutability": "view",
      "type": "function"
    },
    {
      "inputs": [],
      "name": "maintenanceFee",
      "outputs": [
        {
          "internalType": "uint256",
          "name": "",
          "type": "uint256"
        }
      ],
      "stateMutability": "view",
      "type": "function"
    },
    {
      "inputs": [],
      "name": "maintenanceFeeDenominator",
      "outputs": [
        {
          "internalType": "uint256",
          "name": "",
          "type": "uint256"
        }
      ],
      "stateMutability": "view",
      "type": "function"
    },
    {
      "inputs": [],
      "name": "maxRentalCountPerCall",
      "outputs": [
        {
          "internalType": "uint256",
          "name": "",
          "type": "uint256"
        }
      ],
      "stateMutability": "view",
      "type": "function"
    },
    {
      "inputs": [],
      "name": "maxRentalDuration",
      "outputs": [
        {
          "internalType": "uint256",
          "name": "",
          "type": "uint256"
        }
      ],
      "stateMutability": "view",
      "type": "function"
    },
    {
      "inputs": [],
      "name": "maxTokenSupply",
      "outputs": [
        {
          "internalType": "uint256",
          "name": "",
          "type": "uint256"
        }
      ],
      "stateMutability": "view",
      "type": "function"
    },
    {
      "inputs": [],
      "name": "minRentalDuration",
      "outputs": [
        {
          "internalType": "uint256",
          "name": "",
          "type": "uint256"
        }
      ],
      "stateMutability": "view",
      "type": "function"
    },
    {
      "inputs": [],
      "name": "msgData",
      "outputs": [
        {
          "internalType": "bytes",
          "name": "",
          "type": "bytes"
        }
      ],
      "stateMutability": "view",
      "type": "function"
    },
    {
      "inputs": [],
      "name": "owner",
      "outputs": [
        {
          "internalType": "address",
          "name": "",
          "type": "address"
        }
      ],
      "stateMutability": "view",
      "type": "function"
    },
    {
      "inputs": [
        {
          "internalType": "address[]",
          "name": "accounts",
          "type": "address[]"
        },
        {
          "internalType": "contract IERC20[]",
          "name": "tokens",
          "type": "address[]"
        },
        {
          "internalType": "uint256[]",
          "name": "amounts",
          "type": "uint256[]"
        }
      ],
      "name": "recoverERC20s",
      "outputs": [],
      "stateMutability": "nonpayable",
      "type": "function"
    },
    {
      "inputs": [
        {
          "internalType": "address[]",
          "name": "accounts",
          "type": "address[]"
        },
        {
          "internalType": "contract IERC721[]",
          "name": "contracts",
          "type": "address[]"
        },
        {
          "internalType": "uint256[]",
          "name": "tokenIds",
          "type": "uint256[]"
        }
      ],
      "name": "recoverERC721s",
      "outputs": [],
      "stateMutability": "nonpayable",
      "type": "function"
    },
    {
      "inputs": [
        {
          "internalType": "address payable[]",
          "name": "accounts",
          "type": "address[]"
        },
        {
          "internalType": "uint256[]",
          "name": "amounts",
          "type": "uint256[]"
        }
      ],
      "name": "recoverETH",
      "outputs": [],
      "stateMutability": "nonpayable",
      "type": "function"
    },
    {
      "inputs": [
        {
          "internalType": "bytes32",
          "name": "role",
          "type": "bytes32"
        }
      ],
      "name": "renounceRole",
      "outputs": [],
      "stateMutability": "nonpayable",
      "type": "function"
    },
    {
      "inputs": [
        {
          "internalType": "uint256[]",
          "name": "tokenIds",
          "type": "uint256[]"
        },
        {
          "internalType": "uint256[]",
          "name": "durations",
          "type": "uint256[]"
        },
        {
          "internalType": "uint256[]",
          "name": "expiredTokenIds",
          "type": "uint256[]"
        },
        {
          "internalType": "uint256",
          "name": "maxFee",
          "type": "uint256"
        }
      ],
      "name": "rent",
      "outputs": [],
      "stateMutability": "nonpayable",
      "type": "function"
    },
    {
      "inputs": [
        {
          "internalType": "uint256",
          "name": "",
          "type": "uint256"
        }
      ],
      "name": "rentals",
      "outputs": [
        {
          "internalType": "uint256",
          "name": "beginDate",
          "type": "uint256"
        },
        {
          "internalType": "uint256",
          "name": "endDate",
          "type": "uint256"
        },
        {
          "internalType": "uint256",
          "name": "fee",
          "type": "uint256"
        }
      ],
      "stateMutability": "view",
      "type": "function"
    },
    {
      "inputs": [
        {
          "internalType": "uint256",
          "name": "tokenId",
          "type": "uint256"
        }
      ],
      "name": "renterOf",
      "outputs": [
        {
          "internalType": "address",
          "name": "",
          "type": "address"
        }
      ],
      "stateMutability": "view",
      "type": "function"
    },
    {
      "inputs": [
        {
          "internalType": "bytes32",
          "name": "role",
          "type": "bytes32"
        },
        {
          "internalType": "address",
          "name": "account",
          "type": "address"
        }
      ],
      "name": "revokeRole",
      "outputs": [],
      "stateMutability": "nonpayable",
      "type": "function"
    },
    {
      "inputs": [
        {
          "internalType": "address",
          "name": "newLandPriceHelper",
          "type": "address"
        }
      ],
      "name": "setLandPriceHelper",
      "outputs": [],
      "stateMutability": "nonpayable",
      "type": "function"
    },
    {
      "inputs": [
        {
          "internalType": "uint256",
          "name": "newMaintenanceFee",
          "type": "uint256"
        },
        {
          "internalType": "uint256",
          "name": "newMaintenanceFeeDenominator",
          "type": "uint256"
        }
      ],
      "name": "setMaintenanceFee",
      "outputs": [],
      "stateMutability": "nonpayable",
      "type": "function"
    },
    {
      "inputs": [
        {
          "internalType": "uint256",
          "name": "newRentalCountPerCall",
          "type": "uint256"
        }
      ],
      "name": "setMaxRentalCountPerCall",
      "outputs": [],
      "stateMutability": "nonpayable",
      "type": "function"
    },
    {
      "inputs": [
        {
          "internalType": "uint256",
          "name": "newMaxRentalDuration",
          "type": "uint256"
        }
      ],
      "name": "setMaxRentalDuration",
      "outputs": [],
      "stateMutability": "nonpayable",
      "type": "function"
    },
    {
      "inputs": [
        {
          "internalType": "uint256",
          "name": "newMaxTokenSupply",
          "type": "uint256"
        }
      ],
      "name": "setMaxTokenSupply",
      "outputs": [],
      "stateMutability": "nonpayable",
      "type": "function"
    },
    {
      "inputs": [
        {
          "internalType": "uint256",
          "name": "newMinRentalDuration",
          "type": "uint256"
        }
      ],
      "name": "setMinRentalDuration",
      "outputs": [],
      "stateMutability": "nonpayable",
      "type": "function"
    },
    {
      "inputs": [
        {
          "internalType": "bytes4",
          "name": "interfaceId",
          "type": "bytes4"
        }
      ],
      "name": "supportsInterface",
      "outputs": [
        {
          "internalType": "bool",
          "name": "",
          "type": "bool"
        }
      ],
      "stateMutability": "view",
      "type": "function"
    },
    {
      "inputs": [],
      "name": "totalOngoingRentalTime",
      "outputs": [
        {
          "internalType": "uint256",
          "name": "",
          "type": "uint256"
        }
      ],
      "stateMutability": "view",
      "type": "function"
    },
    {
      "inputs": [
        {
          "internalType": "address",
          "name": "newOwner",
          "type": "address"
        }
      ],
      "name": "transferOwnership",
      "outputs": [],
      "stateMutability": "nonpayable",
      "type": "function"
    }
  ],
  "bytecode": "0x60e06040523480156200001157600080fd5b50604051620038ba380380620038ba833981016040819052620000349162000350565b89898989898989898989808033620000578162000050620001f9565b906200022f565b506001600160a01b039081166080528b811660c0528a811660a052600080546001600160a01b031916918b1691821790556040519081527fd99014e6f6a21a1f7025e1599288b52168db6241486596946f759a520d4ddfea915060200160405180910390a16002879055600386905560408051888152602081018890527f788db483524e27f5a39a54daaeb81bb48059af776767d0c1f600ef6e996d2818910160405180910390a160048590556040518581527f7d9d1c986503049ed25e197e416ddaeef53d62a8479d6371784f05a9d9da98249060200160405180910390a160058490556040518481527fb4f38443948b39b669154b83689d2dfa2a4cb2b1fd458118da3d1bcdacfc56089060200160405180910390a160068390556040518381527faa06aa6d79ce3cb966afe332af120b3aa8252dc355d1d2dae1368babec5f3ee59060200160405180910390a160018290556040518281527fb8b290c068ed53e46165f3ca5215dcc2972ae26ae4c8fb5adc71a1c135f855139060200160405180910390a1505050505050505050505050505050505050505062000419565b6000806200022960017fc9ed16f33ab3a66c84bfd83099ccb2a8845871e2e1c1928f63797152f0fd54cd620003f7565b92915050565b6001600160a01b03811615620002865781546001600160a01b0319166001600160a01b03821690811783556040516000907f8be0079c531659141344cd1fd0a4f28419497f9722a3daafe3b4186f6b6457e0908290a35b620002a66307f5828d60e41b60016200029e620002aa565b9190620002da565b5050565b6000806200022960017fca9d3e17f264b0f3984e2634e94adb37fa3e6a8103f06aeae6fa59e21c769f5e620003f7565b600160e01b6001600160e01b031983160162000309576040516372c683bb60e01b815260040160405180910390fd5b6001600160e01b03199190911660009081526020929092526040909120805460ff1916911515919091179055565b6001600160a01b03811681146200034d57600080fd5b50565b6000806000806000806000806000806101408b8d0312156200037157600080fd5b8a516200037e8162000337565b60208c0151909a50620003918162000337565b60408c0151909950620003a48162000337565b8098505060608b0151965060808b0151955060a08b0151945060c08b0151935060e08b015192506101008b015191506101208b0151620003e48162000337565b809150509295989b9194979a5092959850565b818103818111156200022957634e487b7160e01b600052601160045260246000fd5b60805160a05160c05161341d6200049d600039600081816102f601528181610a4501528181610b9501528181610fed0152818161199501528181611f77015261204601526000818161047a0152610e960152600081816103740152818161040901528181612845015281816128cd0152818161298001526129be015261341d6000f3fe608060405234801561001057600080fd5b50600436106102ad5760003560e01c80638da5cb5b1161017b578063d547741f116100d8578063f5b541a61161008c578063f7ba94bd11610071578063f7ba94bd1461063d578063f7df6bad14610650578063fb203c171461066357600080fd5b8063f5b541a61461060d578063f70321941461063457600080fd5b8063e105c43c116100bd578063e105c43c146105d4578063e4f095d9146105e7578063f2fde38b146105fa57600080fd5b8063d547741f1461059a578063dd286177146105ad57600080fd5b8063b07ed9821161012f578063b65dd45111610114578063b65dd4511461055f578063c3666c3614610572578063c4c2bfdc1461058557600080fd5b8063b07ed98214610543578063b2b47e3b1461055657600080fd5b806391d148541161016057806391d14854146104dd578063a5f73758146104f0578063af94a1d1146104f957600080fd5b80638da5cb5b146104c25780638ecd7b73146104ca57600080fd5b80633d9f01fb1161022957806373c8a958116101dd5780637f6e4281116101c25780637f6e42811461047557806388b681fe1461049c5780638bb9c5bf146104af57600080fd5b806373c8a958146104595780637ce4026f1461046c57600080fd5b80635625ac511161020e5780635625ac51146103e6578063572b6c05146103f957806370243bcc1461044657600080fd5b80633d9f01fb146103ca57806350f7c204146103dd57600080fd5b806321d42816116102805780632f2ff15d116102655780632f2ff15d1461039857806331e66e1e146103ab57806334f1a8d3146103c157600080fd5b806321d428161461035d5780632b4c9f161461037257600080fd5b806301ffc9a7146102b257806304660449146102da57806315e682cb146102f15780631aabc61d1461033d575b600080fd5b6102c56102c0366004612d64565b610676565b60405190151581526020015b60405180910390f35b6102e360025481565b6040519081526020016102d1565b6103187f000000000000000000000000000000000000000000000000000000000000000081565b60405173ffffffffffffffffffffffffffffffffffffffff90911681526020016102d1565b6000546103189073ffffffffffffffffffffffffffffffffffffffff1681565b61037061036b366004612df2565b610690565b005b7f0000000000000000000000000000000000000000000000000000000000000000610318565b6103706103a6366004612eb7565b610f59565b6103b3610f92565b6040516102d1929190612ee7565b6102e360045481565b6103186103d8366004612f34565b610fa5565b6102e360015481565b6103706103f4366004612f4d565b6110a2565b6102c5610407366004612f6f565b7f000000000000000000000000000000000000000000000000000000000000000073ffffffffffffffffffffffffffffffffffffffff90811691161490565b6102e3610454366004612f8c565b611124565b610370610467366004612fce565b6111b3565b6102e360055481565b6103187f000000000000000000000000000000000000000000000000000000000000000081565b6103706104aa366004612f8c565b6112b1565b6103706104bd366004612f34565b6112de565b6103186112fc565b6102e36104d8366004612f34565b611328565b6102c56104eb366004612eb7565b6113bc565b6102e360085481565b610528610507366004612f34565b60076020526000908152604090208054600182015460029092015490919083565b604080519384526020840192909252908201526060016102d1565b610370610551366004612f34565b611407565b6102e360035481565b61037061056d366004612f34565b61146f565b610370610580366004612fce565b6114d0565b61058d611648565b6040516102d191906130d6565b6103706105a8366004612eb7565b6116d6565b6102e37f0e67d2d2c46f23cfff9f76c16187348901bf73ba32dcf6893f2a2a4b25be75f881565b6102e36105e2366004612fce565b611704565b6103706105f5366004612f34565b611b2d565b610370610608366004612f6f565b611b8e565b6102e37f97667070c54ef182b0f5858b034beac1b6f3089aa2d3188bb1e8929f4fa9b92981565b6102e360065481565b61037061064b3660046130e9565b611ba9565b61037061065e366004612f6f565b611c68565b610370610671366004612f34565b611d07565b600061068a82610684611d68565b90611d96565b92915050565b60008787808060200260200160405190810160405280939291908181526020018383602002808284376000920182905250604080516020808d0282810182019093528c825296975091959194508b93508a92508291850190849080828437600092019190915250508251855193945092909214915061073d9050576040517f6582533600000000000000000000000000000000000000000000000000000000815260040160405180910390fd5b6006548251111561077a576040517f2273ee1800000000000000000000000000000000000000000000000000000000815260040160405180910390fd5b42600061078987878484611e70565b6008546107969190613184565b905060006107a382611328565b905060006107af61215c565b90506000865167ffffffffffffffff8111156107cd576107cd613197565b6040519080825280602002602001820160405280156107f6578160200160208202803683370190505b5090506000875167ffffffffffffffff81111561081557610815613197565b60405190808252806020026020018201604052801561083e578160200160208202803683370190505b5090506000885167ffffffffffffffff81111561085d5761085d613197565b604051908082528060200260200182016040528015610886578160200160208202803683370190505b5090506000805b8a51811015610dcf5760008b82815181106108aa576108aa6131c6565b6020026020010151905060008b83815181106108c8576108c86131c6565b6020026020010151905081600003610914576040517f8ce0857d000000000000000000000000000000000000000000000000000000008152600060048201526024015b60405180910390fd5b600154821115610953576040517f8ce0857d0000000000000000000000000000000000000000000000000000000081526004810183905260240161090b565b600554811115610992576040517fb479b6550000000000000000000000000000000000000000000000000000000081526004810183905260240161090b565b60008281526007602052604081206001810154909103610b66576004548210156109eb576040517f508a9a3a0000000000000000000000000000000000000000000000000000000081526004810184905260240161090b565b6040517f8832e6e300000000000000000000000000000000000000000000000000000000815273ffffffffffffffffffffffffffffffffffffffff8a811660048301526024820185905260606044830152600060648301527f00000000000000000000000000000000000000000000000000000000000000001690638832e6e390608401600060405180830381600087803b158015610a8957600080fd5b505af1158015610a9d573d6000803e3d6000fd5b5050508c8255506000610ab0838e6131f5565b60018301819055600354600254919250600091610acd9086613208565b610ad7919061321f565b610ae1908d6131f5565b600284018190559050610af481886131f5565b9650610b00848e6131f5565b9c508d8a8781518110610b1557610b156131c6565b60200260200101818152505081898781518110610b3457610b346131c6565b60200260200101818152505080888781518110610b5357610b536131c6565b6020026020010181815250505050610dc4565b6040517f6352211e000000000000000000000000000000000000000000000000000000008152600481018490527f000000000000000000000000000000000000000000000000000000000000000073ffffffffffffffffffffffffffffffffffffffff1690636352211e90602401602060405180830381865afa158015610bf1573d6000803e3d6000fd5b505050506040513d601f19601f82011682018060405250810190610c15919061325a565b73ffffffffffffffffffffffffffffffffffffffff168973ffffffffffffffffffffffffffffffffffffffff16148015610c52575080600101548c105b15610d8f576000610c63838e6131f5565b6001830154600454919250908190610c7b9084613184565b1015610cb6576040517f508a9a3a0000000000000000000000000000000000000000000000000000000081526004810186905260240161090b565b6000610cc28284613184565b60018501849055600354600254919250600091610cdf9084613208565b610ce9919061321f565b610cf3908f6131f5565b905080856002016000828254610d0991906131f5565b90915550610d199050818a6131f5565b9850818f610d2791906131f5565b9e50828c8981518110610d3c57610d3c6131c6565b602002602001018181525050838b8981518110610d5b57610d5b6131c6565b602002602001018181525050808a8981518110610d7a57610d7a6131c6565b60200260200101818152505050505050610dc4565b6040517f139d67990000000000000000000000000000000000000000000000000000000081526004810184905260240161090b565b50505060010161088d565b508a15801590610dde57508a81115b15610e1f576040517fd519701100000000000000000000000000000000000000000000000000000000815260048101829052602481018c905260440161090b565b60088790556040517f212aac7900000000000000000000000000000000000000000000000000000000815273ffffffffffffffffffffffffffffffffffffffff8681166004830152602482018390527f0e67d2d2c46f23cfff9f76c16187348901bf73ba32dcf6893f2a2a4b25be75f860448301527f0000000000000000000000000000000000000000000000000000000000000000169063212aac7990606401600060405180830381600087803b158015610eda57600080fd5b505af1158015610eee573d6000803e3d6000fd5b505050508473ffffffffffffffffffffffffffffffffffffffff167f34a3f395b50735b2b7b8f7ece79da6b46efdb3f0aeb0eb5871dcff84354d03758b868686604051610f3e94939291906132b3565b60405180910390a25050505050505050505050505050505050565b6000610f6361215c565b9050610f7781610f71612166565b90612194565b610f8d838383610f85612203565b929190612231565b505050565b366000610f9d612308565b915091509091565b60008181526007602052604081206001015442101561106d576040517f6352211e000000000000000000000000000000000000000000000000000000008152600481018390527f000000000000000000000000000000000000000000000000000000000000000073ffffffffffffffffffffffffffffffffffffffff1690636352211e90602401602060405180830381865afa158015611049573d6000803e3d6000fd5b505050506040513d601f19601f8201168201806040525081019061068a919061325a565b6040517f1297346f0000000000000000000000000000000000000000000000000000000081526004810183905260240161090b565b6110dd7f97667070c54ef182b0f5858b034beac1b6f3089aa2d3188bb1e8929f4fa9b9296110ce61215c565b6110d6612203565b9190612313565b6002829055600381905560408051838152602081018390527f788db483524e27f5a39a54daaeb81bb48059af776767d0c1f600ef6e996d2818910160405180910390a15050565b600042815b838110156111ab576000858583818110611145576111456131c6565b9050602002013590506000600760008381526020019081526020016000209050806001015460001415801561117e575080600101548410155b156111a157805460018201546111949190613184565b61119e90866131f5565b94505b5050600101611129565b505092915050565b6111c66111be61215c565b610f71612166565b8483811415806111d65750808214155b1561120d576040517f6582533600000000000000000000000000000000000000000000000000000000815260040160405180910390fd5b60005b818110156112a75761129f88888381811061122d5761122d6131c6565b90506020020160208101906112429190612f6f565b858584818110611254576112546131c6565b9050602002013588888581811061126d5761126d6131c6565b90506020020160208101906112829190612f6f565b73ffffffffffffffffffffffffffffffffffffffff169190612399565b600101611210565b5050505050505050565b60006112c08383426001611e70565b905080600860008282546112d49190613184565b9091555050505050565b6112f96112e961215c565b826112f2612203565b9190612426565b50565b6000611323611309612166565b5473ffffffffffffffffffffffffffffffffffffffff1690565b905090565b600080546040517fae1042650000000000000000000000000000000000000000000000000000000081526004810184905273ffffffffffffffffffffffffffffffffffffffff9091169063ae10426590602401602060405180830381865afa158015611398573d6000803e3d6000fd5b505050506040513d601f19601f8201168201806040525081019061068a9190613300565b600061140083836113cb612203565b60009283526020908152604080842073ffffffffffffffffffffffffffffffffffffffff909316845291905290205460ff1690565b9392505050565b6114337f97667070c54ef182b0f5858b034beac1b6f3089aa2d3188bb1e8929f4fa9b9296110ce61215c565b60018190556040518181527fb8b290c068ed53e46165f3ca5215dcc2972ae26ae4c8fb5adc71a1c135f85513906020015b60405180910390a150565b61149b7f97667070c54ef182b0f5858b034beac1b6f3089aa2d3188bb1e8929f4fa9b9296110ce61215c565b60068190556040518181527faa06aa6d79ce3cb966afe332af120b3aa8252dc355d1d2dae1368babec5f3ee590602001611464565b6114db6111be61215c565b8483811415806114eb5750808214155b15611522576040517f6582533600000000000000000000000000000000000000000000000000000000815260040160405180910390fd5b60005b818110156112a75785858281811061153f5761153f6131c6565b90506020020160208101906115549190612f6f565b73ffffffffffffffffffffffffffffffffffffffff166323b872dd308a8a85818110611582576115826131c6565b90506020020160208101906115979190612f6f565b8787868181106115a9576115a96131c6565b6040517fffffffff0000000000000000000000000000000000000000000000000000000060e088901b16815273ffffffffffffffffffffffffffffffffffffffff958616600482015294909316602485015250602090910201356044820152606401600060405180830381600087803b15801561162557600080fd5b505af1158015611639573d6000803e3d6000fd5b50505050806001019050611525565b6009805461165590613319565b80601f016020809104026020016040519081016040528092919081815260200182805461168190613319565b80156116ce5780601f106116a3576101008083540402835291602001916116ce565b820191906000526020600020905b8154815290600101906020018083116116b157829003601f168201915b505050505081565b60006116e061215c565b90506116ee81610f71612166565b610f8d8383836116fc612203565b9291906124ca565b600085841461173f576040517f6582533600000000000000000000000000000000000000000000000000000000815260040160405180910390fd5b60065486111561177b576040517f2273ee1800000000000000000000000000000000000000000000000000000000815260040160405180910390fd5b4260006117888585611124565b9050600061179d826008546104d89190613184565b90506000805b8a811015611b095760008a8a838181106117bf576117bf6131c6565b90506020020135905060008d8d848181106117dc576117dc6131c6565b90506020020135905080600003611822576040517f8ce0857d0000000000000000000000000000000000000000000000000000000081526000600482015260240161090b565b600154811115611861576040517f8ce0857d0000000000000000000000000000000000000000000000000000000081526004810182905260240161090b565b6005548211156118a0576040517fb479b6550000000000000000000000000000000000000000000000000000000081526004810182905260240161090b565b600081815260076020908152604080832081516060810183528154815260018201549381018490526002909101549181019190915291036119455760045483101561191a576040517f508a9a3a0000000000000000000000000000000000000000000000000000000081526004810183905260240161090b565b60035460025461192a9085613208565b611934919061321f565b61193e90866131f5565b9450611afe565b61194d61215c565b6040517f6352211e0000000000000000000000000000000000000000000000000000000081526004810184905273ffffffffffffffffffffffffffffffffffffffff918216917f00000000000000000000000000000000000000000000000000000000000000001690636352211e90602401602060405180830381865afa1580156119dc573d6000803e3d6000fd5b505050506040513d601f19601f82011682018060405250810190611a00919061325a565b73ffffffffffffffffffffffffffffffffffffffff16148015611a265750806020015188105b15611ac9576000611a37848a6131f5565b9050816020015160045482611a4c9190613184565b1015611a87576040517f508a9a3a0000000000000000000000000000000000000000000000000000000081526004810184905260240161090b565b6000826020015182611a999190613184565b905060035460025482611aac9190613208565b611ab6919061321f565b611ac090886131f5565b96505050611afe565b6040517f139d67990000000000000000000000000000000000000000000000000000000081526004810183905260240161090b565b5050506001016117a3565b50611b148a83613208565b611b1e90826131f5565b9b9a5050505050505050505050565b611b597f97667070c54ef182b0f5858b034beac1b6f3089aa2d3188bb1e8929f4fa9b9296110ce61215c565b60058190556040518181527fb4f38443948b39b669154b83689d2dfa2a4cb2b1fd458118da3d1bcdacfc560890602001611464565b6112f9611b9961215c565b82611ba2612166565b9190612594565b611bb46111be61215c565b82818114611bee576040517f6582533600000000000000000000000000000000000000000000000000000000815260040160405180910390fd5b60005b81811015611c6057611c58848483818110611c0e57611c0e6131c6565b90506020020135878784818110611c2757611c276131c6565b9050602002016020810190611c3c9190612f6f565b73ffffffffffffffffffffffffffffffffffffffff16906126a8565b600101611bf1565b505050505050565b611c947f97667070c54ef182b0f5858b034beac1b6f3089aa2d3188bb1e8929f4fa9b9296110ce61215c565b600080547fffffffffffffffffffffffff00000000000000000000000000000000000000001673ffffffffffffffffffffffffffffffffffffffff83169081179091556040519081527fd99014e6f6a21a1f7025e1599288b52168db6241486596946f759a520d4ddfea90602001611464565b611d337f97667070c54ef182b0f5858b034beac1b6f3089aa2d3188bb1e8929f4fa9b9296110ce61215c565b60048190556040518181527f7d9d1c986503049ed25e197e416ddaeef53d62a8479d6371784f05a9d9da982490602001611464565b60008061068a60017fca9d3e17f264b0f3984e2634e94adb37fa3e6a8103f06aeae6fa59e21c769f5e613184565b60007c01000000000000000000000000000000000000000000000000000000007fffffffff00000000000000000000000000000000000000000000000000000000831601611de65750600061068a565b7ffe003659000000000000000000000000000000000000000000000000000000007fffffffff00000000000000000000000000000000000000000000000000000000831601611e375750600161068a565b507fffffffff00000000000000000000000000000000000000000000000000000000166000908152602091909152604090205460ff1690565b6000808467ffffffffffffffff811115611e8c57611e8c613197565b604051908082528060200260200182016040528015611eb5578160200160208202803683370190505b5090506000805b86811015612112576000888883818110611ed857611ed86131c6565b90506020020135905060006007600083815260200190815260200160002090508060010154600014158015611f11575080600101548810155b156120cd5780546001820154611f279190613184565b611f3190876131f5565b600080835560018301819055600283018190556040517f6352211e00000000000000000000000000000000000000000000000000000000815260048101859052919750907f000000000000000000000000000000000000000000000000000000000000000073ffffffffffffffffffffffffffffffffffffffff1690636352211e90602401602060405180830381865afa158015611fd3573d6000803e3d6000fd5b505050506040513d601f19601f82011682018060405250810190611ff7919061325a565b6040517f79cc679000000000000000000000000000000000000000000000000000000000815273ffffffffffffffffffffffffffffffffffffffff8083166004830152602482018690529192507f0000000000000000000000000000000000000000000000000000000000000000909116906379cc679090604401600060405180830381600087803b15801561208c57600080fd5b505af11580156120a0573d6000803e3d6000fd5b50505050828685815181106120b7576120b76131c6565b6020026020010181815250506001945050612108565b8615612108576040517f9be5764a0000000000000000000000000000000000000000000000000000000081526004810183905260240161090b565b5050600101611ebc565b508015612151577f9e5430727c5f2b23597e7cb2670240cc8fbb4031a0dad53562812b380e286b3d82604051612148919061336c565b60405180910390a15b50505b949350505050565b6000611323612802565b60008061068a60017fc9ed16f33ab3a66c84bfd83099ccb2a8845871e2e1c1928f63797152f0fd54cd613184565b815473ffffffffffffffffffffffffffffffffffffffff8281169116146121ff576040517f2ef4875e00000000000000000000000000000000000000000000000000000000815273ffffffffffffffffffffffffffffffffffffffff8216600482015260240161090b565b5050565b60008061068a60017fc8827d3282af6f37b64c3e9e6f3ac9df286ab0bb0fccd6f8661bf19adb368b23613184565b60008381526020858152604080832073ffffffffffffffffffffffffffffffffffffffff8616845290915290205460ff166123025760008381526020858152604080832073ffffffffffffffffffffffffffffffffffffffff8681168086529184529382902080547fffffffffffffffffffffffffffffffffffffffffffffffffffffffffffffff00166001179055815187815292830152918316918101919091527f2f8788117e7eff1d82e926ec794901d17c78024a50270940304540a733656f0d906060015b60405180910390a15b50505050565b366000610f9d612949565b60008281526020848152604080832073ffffffffffffffffffffffffffffffffffffffff8516845290915290205460ff16610f8d576040517f7aa728820000000000000000000000000000000000000000000000000000000081526004810183905273ffffffffffffffffffffffffffffffffffffffff8216602482015260440161090b565b6040805173ffffffffffffffffffffffffffffffffffffffff8416602482015260448082018490528251808303909101815260649091019091526020810180517bffffffffffffffffffffffffffffffffffffffffffffffffffffffff167fa9059cbb00000000000000000000000000000000000000000000000000000000179052610f8d908490612ab3565b612431838284612313565b60008181526020848152604080832073ffffffffffffffffffffffffffffffffffffffff86168085529083529281902080547fffffffffffffffffffffffffffffffffffffffffffffffffffffffffffffff0016905580518481529182018390528101919091527ff6391f5c32d9c69d2a47ea670b442974b53935d1edc7fd64eb21e047a839171b9060600160405180910390a1505050565b60008381526020858152604080832073ffffffffffffffffffffffffffffffffffffffff8616845290915290205460ff16156123025760008381526020858152604080832073ffffffffffffffffffffffffffffffffffffffff8681168086529184529382902080547fffffffffffffffffffffffffffffffffffffffffffffffffffffffffffffff00169055815187815292830152918316918101919091527ff6391f5c32d9c69d2a47ea670b442974b53935d1edc7fd64eb21e047a839171b906060016122f9565b825473ffffffffffffffffffffffffffffffffffffffff9081169083168114612601576040517f2ef4875e00000000000000000000000000000000000000000000000000000000815273ffffffffffffffffffffffffffffffffffffffff8416600482015260240161090b565b8173ffffffffffffffffffffffffffffffffffffffff168173ffffffffffffffffffffffffffffffffffffffff16146123025783547fffffffffffffffffffffffff00000000000000000000000000000000000000001673ffffffffffffffffffffffffffffffffffffffff8381169182178655604051908316907f8be0079c531659141344cd1fd0a4f28419497f9722a3daafe3b4186f6b6457e090600090a350505050565b80471015612712576040517f08c379a000000000000000000000000000000000000000000000000000000000815260206004820152601d60248201527f416464726573733a20696e73756666696369656e742062616c616e6365000000604482015260640161090b565b60008273ffffffffffffffffffffffffffffffffffffffff168260405160006040518083038185875af1925050503d806000811461276c576040519150601f19603f3d011682016040523d82523d6000602084013e612771565b606091505b5050905080610f8d576040517f08c379a000000000000000000000000000000000000000000000000000000000815260206004820152603a60248201527f416464726573733a20756e61626c6520746f2073656e642076616c75652c207260448201527f6563697069656e74206d61792068617665207265766572746564000000000000606482015260840161090b565b6000333214806128125750601836105b1561281c57503390565b7fffffffffffffffffffffffffffffffffffffffffffffffffffffffffffffffec36013560601c7f000000000000000000000000000000000000000000000000000000000000000073ffffffffffffffffffffffffffffffffffffffff1633148061293857506040517f8929a8ca00000000000000000000000000000000000000000000000000000000815273ffffffffffffffffffffffffffffffffffffffff82811660048301523360248301527f00000000000000000000000000000000000000000000000000000000000000001690638929a8ca90604401602060405180830381865afa158015612914573d6000803e3d6000fd5b505050506040513d601f19601f82011682018060405250810190612938919061337f565b1561294257919050565b3391505090565b3660003332148061295a5750601836105b156129685750600091369150565b3373ffffffffffffffffffffffffffffffffffffffff7f0000000000000000000000000000000000000000000000000000000000000000161480612a9d575073ffffffffffffffffffffffffffffffffffffffff7f000000000000000000000000000000000000000000000000000000000000000016638929a8ca367fffffffffffffffffffffffffffffffffffffffffffffffffffffffffffffffec013560601c6040517fffffffff0000000000000000000000000000000000000000000000000000000060e084901b16815273ffffffffffffffffffffffffffffffffffffffff9091166004820152336024820152604401602060405180830381865afa158015612a79573d6000803e3d6000fd5b505050506040513d601f19601f82011682018060405250810190612a9d919061337f565b15612aaa57610f9d612bc2565b50600091369150565b6000612b15826040518060400160405280602081526020017f5361666545524332303a206c6f772d6c6576656c2063616c6c206661696c65648152508573ffffffffffffffffffffffffffffffffffffffff16612bf39092919063ffffffff16565b9050805160001480612b36575080806020019051810190612b36919061337f565b610f8d576040517f08c379a000000000000000000000000000000000000000000000000000000000815260206004820152602a60248201527f5361666545524332303a204552433230206f7065726174696f6e20646964206e60448201527f6f74207375636365656400000000000000000000000000000000000000000000606482015260840161090b565b366000610f9d7fffffffffffffffffffffffffffffffffffffffffffffffffffffffffffffffec83018284816133a1565b60606121548484600085856000808673ffffffffffffffffffffffffffffffffffffffff168587604051612c2791906133cb565b60006040518083038185875af1925050503d8060008114612c64576040519150601f19603f3d011682016040523d82523d6000602084013e612c69565b606091505b5091509150612c7a87838387612c85565b979650505050505050565b60608315612d1b578251600003612d145773ffffffffffffffffffffffffffffffffffffffff85163b612d14576040517f08c379a000000000000000000000000000000000000000000000000000000000815260206004820152601d60248201527f416464726573733a2063616c6c20746f206e6f6e2d636f6e7472616374000000604482015260640161090b565b5081612154565b6121548383815115612d305781518083602001fd5b806040517f08c379a000000000000000000000000000000000000000000000000000000000815260040161090b91906130d6565b600060208284031215612d7657600080fd5b81357fffffffff000000000000000000000000000000000000000000000000000000008116811461140057600080fd5b60008083601f840112612db857600080fd5b50813567ffffffffffffffff811115612dd057600080fd5b6020830191508360208260051b8501011115612deb57600080fd5b9250929050565b60008060008060008060006080888a031215612e0d57600080fd5b873567ffffffffffffffff80821115612e2557600080fd5b612e318b838c01612da6565b909950975060208a0135915080821115612e4a57600080fd5b612e568b838c01612da6565b909750955060408a0135915080821115612e6f57600080fd5b50612e7c8a828b01612da6565b989b979a50959894979596606090950135949350505050565b73ffffffffffffffffffffffffffffffffffffffff811681146112f957600080fd5b60008060408385031215612eca57600080fd5b823591506020830135612edc81612e95565b809150509250929050565b60208152816020820152818360408301376000818301604090810191909152601f9092017fffffffffffffffffffffffffffffffffffffffffffffffffffffffffffffffe0160101919050565b600060208284031215612f4657600080fd5b5035919050565b60008060408385031215612f6057600080fd5b50508035926020909101359150565b600060208284031215612f8157600080fd5b813561140081612e95565b60008060208385031215612f9f57600080fd5b823567ffffffffffffffff811115612fb657600080fd5b612fc285828601612da6565b90969095509350505050565b60008060008060008060608789031215612fe757600080fd5b863567ffffffffffffffff80821115612fff57600080fd5b61300b8a838b01612da6565b9098509650602089013591508082111561302457600080fd5b6130308a838b01612da6565b9096509450604089013591508082111561304957600080fd5b5061305689828a01612da6565b979a9699509497509295939492505050565b60005b8381101561308357818101518382015260200161306b565b50506000910152565b600081518084526130a4816020860160208601613068565b601f017fffffffffffffffffffffffffffffffffffffffffffffffffffffffffffffffe0169290920160200192915050565b602081526000611400602083018461308c565b600080600080604085870312156130ff57600080fd5b843567ffffffffffffffff8082111561311757600080fd5b61312388838901612da6565b9096509450602087013591508082111561313c57600080fd5b5061314987828801612da6565b95989497509550505050565b7f4e487b7100000000000000000000000000000000000000000000000000000000600052601160045260246000fd5b8181038181111561068a5761068a613155565b7f4e487b7100000000000000000000000000000000000000000000000000000000600052604160045260246000fd5b7f4e487b7100000000000000000000000000000000000000000000000000000000600052603260045260246000fd5b8082018082111561068a5761068a613155565b808202811582820484141761068a5761068a613155565b600082613255577f4e487b7100000000000000000000000000000000000000000000000000000000600052601260045260246000fd5b500490565b60006020828403121561326c57600080fd5b815161140081612e95565b60008151808452602080850194506020840160005b838110156132a85781518752958201959082019060010161328c565b509495945050505050565b6080815260006132c66080830187613277565b82810360208401526132d88187613277565b905082810360408401526132ec8186613277565b90508281036060840152612c7a8185613277565b60006020828403121561331257600080fd5b5051919050565b600181811c9082168061332d57607f821691505b602082108103613366577f4e487b7100000000000000000000000000000000000000000000000000000000600052602260045260246000fd5b50919050565b6020815260006114006020830184613277565b60006020828403121561339157600080fd5b8151801515811461140057600080fd5b600080858511156133b157600080fd5b838611156133be57600080fd5b5050820193919092039150565b600082516133dd818460208701613068565b919091019291505056fea264697066735822122047e7d550d641b1805de05ab63458f71041f2ad01ff43736ac238cebbc4a3a3cd64736f6c63430008160033",
  "linkReferences": {},
  "deployedLinkReferences": {}
}