{
  "_format": "hh-sol-artifact-1",
  "contractName": "EDULandRentalMock",
  "sourceName": "contracts/mocks/land/EDULandRentalMock.sol",
  "abi": [
    {
      "inputs": [
        {
          "internalType": "address",
          "name": "nodeKeyAddress",
          "type": "address"
        },
        {
          "internalType": "address",
          "name": "pointsAddress",
          "type": "address"
        },
        {
          "internalType": "address",
          "name": "rentalFeeHelperAddress",
          "type": "address"
        },
        {
          "internalType": "uint256",
          "name": "maintenceFee_",
          "type": "uint256"
        },
        {
          "internalType": "uint256",
          "name": "maintenanceFeeDenominator_",
          "type": "uint256"
        },
        {
          "internalType": "uint256",
          "name": "minRentalDuration_",
          "type": "uint256"
        },
        {
          "internalType": "uint256",
          "name": "maxRentalDuration_",
          "type": "uint256"
        },
        {
          "internalType": "uint256",
          "name": "maxRentalCountPerCall_",
          "type": "uint256"
        },
        {
          "internalType": "uint256",
          "name": "maxTokenSupply_",
          "type": "uint256"
        },
        {
          "internalType": "contract IForwarderRegistry",
          "name": "forwarderRegistry",
          "type": "address"
        }
      ],
      "stateMutability": "nonpayable",
      "type": "constructor"
    },
    {
      "inputs": [
        {
          "internalType": "uint256",
          "name": "calculatedFee",
          "type": "uint256"
        },
        {
          "internalType": "uint256",
          "name": "maxFee",
          "type": "uint256"
        }
      ],
      "name": "FeeExceeded",
      "type": "error"
    },
    {
      "inputs": [],
      "name": "IllegalInterfaceId",
      "type": "error"
    },
    {
      "inputs": [],
      "name": "InconsistentArrayLengths",
      "type": "error"
    },
    {
      "inputs": [],
      "name": "InvalidTokenIdsParam",
      "type": "error"
    },
    {
      "inputs": [
        {
          "internalType": "address",
          "name": "account",
          "type": "address"
        }
      ],
      "name": "NotContractOwner",
      "type": "error"
    },
    {
      "inputs": [
        {
          "internalType": "bytes32",
          "name": "role",
          "type": "bytes32"
        },
        {
          "internalType": "address",
          "name": "account",
          "type": "address"
        }
      ],
      "name": "NotRoleHolder",
      "type": "error"
    },
    {
      "inputs": [],
      "name": "RentalCountPerCallLimitExceeded",
      "type": "error"
    },
    {
      "inputs": [
        {
          "internalType": "uint256",
          "name": "tokenId",
          "type": "uint256"
        }
      ],
      "name": "RentalDurationTooHigh",
      "type": "error"
    },
    {
      "inputs": [
        {
          "internalType": "uint256",
          "name": "tokenId",
          "type": "uint256"
        }
      ],
      "name": "RentalDurationTooLow",
      "type": "error"
    },
    {
      "inputs": [
        {
          "internalType": "uint256",
          "name": "tokenId",
          "type": "uint256"
        }
      ],
      "name": "TokenAlreadyRented",
      "type": "error"
    },
    {
      "inputs": [
        {
          "internalType": "uint256",
          "name": "tokenId",
          "type": "uint256"
        }
      ],
      "name": "TokenNotExpired",
      "type": "error"
    },
    {
      "inputs": [
        {
          "internalType": "uint256",
          "name": "tokenId",
          "type": "uint256"
        }
      ],
      "name": "TokenNotRented",
      "type": "error"
    },
    {
      "inputs": [
        {
          "internalType": "uint256",
          "name": "tokenId",
          "type": "uint256"
        }
      ],
      "name": "UnsupportedTokenId",
      "type": "error"
    },
    {
      "anonymous": false,
      "inputs": [
        {
          "indexed": false,
          "internalType": "uint256[]",
          "name": "tokenIds",
          "type": "uint256[]"
        }
      ],
      "name": "Collected",
      "type": "event"
    },
    {
      "anonymous": false,
      "inputs": [
        {
          "indexed": false,
          "internalType": "address",
          "name": "newRentalFeeHelper",
          "type": "address"
        }
      ],
      "name": "LandPriceHelperUpdated",
      "type": "event"
    },
    {
      "anonymous": false,
      "inputs": [
        {
          "indexed": false,
          "internalType": "uint256",
          "name": "newMaintenanceFee",
          "type": "uint256"
        },
        {
          "indexed": false,
          "internalType": "uint256",
          "name": "newMaintenanceFeeDenominator",
          "type": "uint256"
        }
      ],
      "name": "MaintenanceFeeUpdated",
      "type": "event"
    },
    {
      "anonymous": false,
      "inputs": [
        {
          "indexed": false,
          "internalType": "uint256",
          "name": "newMaxRentalCountPerCall",
          "type": "uint256"
        }
      ],
      "name": "MaxRentalCountPerCallUpdated",
      "type": "event"
    },
    {
      "anonymous": false,
      "inputs": [
        {
          "indexed": false,
          "internalType": "uint256",
          "name": "newMaxRentalDuration",
          "type": "uint256"
        }
      ],
      "name": "MaxRentalDurationUpdated",
      "type": "event"
    },
    {
      "anonymous": false,
      "inputs": [
        {
          "indexed": false,
          "internalType": "uint256",
          "name": "newMaxTokenSupply",
          "type": "uint256"
        }
      ],
      "name": "MaxTokenSupplyUpdated",
      "type": "event"
    },
    {
      "anonymous": false,
      "inputs": [
        {
          "indexed": false,
          "internalType": "uint256",
          "name": "newMinRentalDuration",
          "type": "uint256"
        }
      ],
      "name": "MinRentalDurationUpdated",
      "type": "event"
    },
    {
      "anonymous": false,
      "inputs": [
        {
          "indexed": true,
          "internalType": "address",
          "name": "previousOwner",
          "type": "address"
        },
        {
          "indexed": true,
          "internalType": "address",
          "name": "newOwner",
          "type": "address"
        }
      ],
      "name": "OwnershipTransferred",
      "type": "event"
    },
    {
      "anonymous": false,
      "inputs": [
        {
          "indexed": true,
          "internalType": "address",
          "name": "renter",
          "type": "address"
        },
        {
          "indexed": false,
          "internalType": "uint256[]",
          "name": "tokenIds",
          "type": "uint256[]"
        },
        {
          "indexed": false,
          "internalType": "uint256[]",
          "name": "beginDates",
          "type": "uint256[]"
        },
        {
          "indexed": false,
          "internalType": "uint256[]",
          "name": "endDates",
          "type": "uint256[]"
        },
        {
          "indexed": false,
          "internalType": "uint256[]",
          "name": "fees",
          "type": "uint256[]"
        }
      ],
      "name": "Rental",
      "type": "event"
    },
    {
      "anonymous": false,
      "inputs": [
        {
          "indexed": false,
          "internalType": "bytes32",
          "name": "role",
          "type": "bytes32"
        },
        {
          "indexed": false,
          "internalType": "address",
          "name": "account",
          "type": "address"
        },
        {
          "indexed": false,
          "internalType": "address",
          "name": "operator",
          "type": "address"
        }
      ],
      "name": "RoleGranted",
      "type": "event"
    },
    {
      "anonymous": false,
      "inputs": [
        {
          "indexed": false,
          "internalType": "bytes32",
          "name": "role",
          "type": "bytes32"
        },
        {
          "indexed": false,
          "internalType": "address",
          "name": "account",
          "type": "address"
        },
        {
          "indexed": false,
          "internalType": "address",
          "name": "operator",
          "type": "address"
        }
      ],
      "name": "RoleRevoked",
      "type": "event"
    },
    {
      "inputs": [],
      "name": "EDU_LAND",
      "outputs": [
        {
          "internalType": "contract IEDULand",
          "name": "",
          "type": "address"
        }
      ],
      "stateMutability": "view",
      "type": "function"
    },
    {
      "inputs": [],
      "name": "OPERATOR_ROLE",
      "outputs": [
        {
          "internalType": "bytes32",
          "name": "",
          "type": "bytes32"
        }
      ],
      "stateMutability": "view",
      "type": "function"
    },
    {
      "inputs": [],
      "name": "POINTS",
      "outputs": [
        {
          "internalType": "contract Points",
          "name": "",
          "type": "address"
        }
      ],
      "stateMutability": "view",
      "type": "function"
    },
    {
      "inputs": [],
      "name": "RENTAL_CONSUME_CODE",
      "outputs": [
        {
          "internalType": "bytes32",
          "name": "",
          "type": "bytes32"
        }
      ],
      "stateMutability": "view",
      "type": "function"
    },
    {
      "inputs": [],
      "name": "__msgData",
      "outputs": [
        {
          "internalType": "bytes",
          "name": "",
          "type": "bytes"
        }
      ],
      "stateMutability": "view",
      "type": "function"
    },
    {
      "inputs": [
        {
          "internalType": "uint256[]",
          "name": "tokenIds",
          "type": "uint256[]"
        }
      ],
      "name": "calculateElapsedTimeForExpiredTokens",
      "outputs": [
        {
          "internalType": "uint256",
          "name": "elapsedTime",
          "type": "uint256"
        }
      ],
      "stateMutability": "view",
      "type": "function"
    },
    {
      "inputs": [
        {
          "internalType": "uint256[]",
          "name": "tokenIds",
          "type": "uint256[]"
        }
      ],
      "name": "collectExpiredTokens",
      "outputs": [],
      "stateMutability": "nonpayable",
      "type": "function"
    },
    {
      "inputs": [
        {
          "internalType": "uint256[]",
          "name": "tokenIds",
          "type": "uint256[]"
        },
        {
          "internalType": "uint256[]",
          "name": "durations",
          "type": "uint256[]"
        },
        {
          "internalType": "uint256[]",
          "name": "expiredTokenIds",
          "type": "uint256[]"
        }
      ],
      "name": "estimateRentalFee",
      "outputs": [
        {
          "internalType": "uint256",
          "name": "fee",
          "type": "uint256"
        }
      ],
      "stateMutability": "view",
      "type": "function"
    },
    {
      "inputs": [],
      "name": "forwarderRegistry",
      "outputs": [
        {
          "internalType": "contract IForwarderRegistry",
          "name": "",
          "type": "address"
        }
      ],
      "stateMutability": "view",
      "type": "function"
    },
    {
      "inputs": [
        {
          "internalType": "bytes32",
          "name": "role",
          "type": "bytes32"
        },
        {
          "internalType": "address",
          "name": "account",
          "type": "address"
        }
      ],
      "name": "grantRole",
      "outputs": [],
      "stateMutability": "nonpayable",
      "type": "function"
    },
    {
      "inputs": [
        {
          "internalType": "bytes32",
          "name": "role",
          "type": "bytes32"
        },
        {
          "internalType": "address",
          "name": "account",
          "type": "address"
        }
      ],
      "name": "hasRole",
      "outputs": [
        {
          "internalType": "bool",
          "name": "hasRole_",
          "type": "bool"
        }
      ],
      "stateMutability": "view",
      "type": "function"
    },
    {
      "inputs": [
        {
          "internalType": "address",
          "name": "forwarder",
          "type": "address"
        }
      ],
      "name": "isTrustedForwarder",
      "outputs": [
        {
          "internalType": "bool",
          "name": "",
          "type": "bool"
        }
      ],
      "stateMutability": "view",
      "type": "function"
    },
    {
      "inputs": [],
      "name": "landPriceHelper",
      "outputs": [
        {
          "internalType": "contract IEDULandPriceHelper",
          "name": "",
          "type": "address"
        }
      ],
      "stateMutability": "view",
      "type": "function"
    },
    {
      "inputs": [],
      "name": "maintenanceFee",
      "outputs": [
        {
          "internalType": "uint256",
          "name": "",
          "type": "uint256"
        }
      ],
      "stateMutability": "view",
      "type": "function"
    },
    {
      "inputs": [],
      "name": "maintenanceFeeDenominator",
      "outputs": [
        {
          "internalType": "uint256",
          "name": "",
          "type": "uint256"
        }
      ],
      "stateMutability": "view",
      "type": "function"
    },
    {
      "inputs": [],
      "name": "maxRentalCountPerCall",
      "outputs": [
        {
          "internalType": "uint256",
          "name": "",
          "type": "uint256"
        }
      ],
      "stateMutability": "view",
      "type": "function"
    },
    {
      "inputs": [],
      "name": "maxRentalDuration",
      "outputs": [
        {
          "internalType": "uint256",
          "name": "",
          "type": "uint256"
        }
      ],
      "stateMutability": "view",
      "type": "function"
    },
    {
      "inputs": [],
      "name": "maxTokenSupply",
      "outputs": [
        {
          "internalType": "uint256",
          "name": "",
          "type": "uint256"
        }
      ],
      "stateMutability": "view",
      "type": "function"
    },
    {
      "inputs": [],
      "name": "minRentalDuration",
      "outputs": [
        {
          "internalType": "uint256",
          "name": "",
          "type": "uint256"
        }
      ],
      "stateMutability": "view",
      "type": "function"
    },
    {
      "inputs": [],
      "name": "msgData",
      "outputs": [
        {
          "internalType": "bytes",
          "name": "",
          "type": "bytes"
        }
      ],
      "stateMutability": "view",
      "type": "function"
    },
    {
      "inputs": [],
      "name": "owner",
      "outputs": [
        {
          "internalType": "address",
          "name": "",
          "type": "address"
        }
      ],
      "stateMutability": "view",
      "type": "function"
    },
    {
      "inputs": [
        {
          "internalType": "address[]",
          "name": "accounts",
          "type": "address[]"
        },
        {
          "internalType": "contract IERC20[]",
          "name": "tokens",
          "type": "address[]"
        },
        {
          "internalType": "uint256[]",
          "name": "amounts",
          "type": "uint256[]"
        }
      ],
      "name": "recoverERC20s",
      "outputs": [],
      "stateMutability": "nonpayable",
      "type": "function"
    },
    {
      "inputs": [
        {
          "internalType": "address[]",
          "name": "accounts",
          "type": "address[]"
        },
        {
          "internalType": "contract IERC721[]",
          "name": "contracts",
          "type": "address[]"
        },
        {
          "internalType": "uint256[]",
          "name": "tokenIds",
          "type": "uint256[]"
        }
      ],
      "name": "recoverERC721s",
      "outputs": [],
      "stateMutability": "nonpayable",
      "type": "function"
    },
    {
      "inputs": [
        {
          "internalType": "address payable[]",
          "name": "accounts",
          "type": "address[]"
        },
        {
          "internalType": "uint256[]",
          "name": "amounts",
          "type": "uint256[]"
        }
      ],
      "name": "recoverETH",
      "outputs": [],
      "stateMutability": "nonpayable",
      "type": "function"
    },
    {
      "inputs": [
        {
          "internalType": "bytes32",
          "name": "role",
          "type": "bytes32"
        }
      ],
      "name": "renounceRole",
      "outputs": [],
      "stateMutability": "nonpayable",
      "type": "function"
    },
    {
      "inputs": [
        {
          "internalType": "uint256[]",
          "name": "tokenIds",
          "type": "uint256[]"
        },
        {
          "internalType": "uint256[]",
          "name": "durations",
          "type": "uint256[]"
        },
        {
          "internalType": "uint256[]",
          "name": "expiredTokenIds",
          "type": "uint256[]"
        },
        {
          "internalType": "uint256",
          "name": "maxFee",
          "type": "uint256"
        }
      ],
      "name": "rent",
      "outputs": [],
      "stateMutability": "nonpayable",
      "type": "function"
    },
    {
      "inputs": [
        {
          "internalType": "uint256",
          "name": "",
          "type": "uint256"
        }
      ],
      "name": "rentals",
      "outputs": [
        {
          "internalType": "uint256",
          "name": "beginDate",
          "type": "uint256"
        },
        {
          "internalType": "uint256",
          "name": "endDate",
          "type": "uint256"
        },
        {
          "internalType": "uint256",
          "name": "fee",
          "type": "uint256"
        }
      ],
      "stateMutability": "view",
      "type": "function"
    },
    {
      "inputs": [
        {
          "internalType": "uint256",
          "name": "tokenId",
          "type": "uint256"
        }
      ],
      "name": "renterOf",
      "outputs": [
        {
          "internalType": "address",
          "name": "",
          "type": "address"
        }
      ],
      "stateMutability": "view",
      "type": "function"
    },
    {
      "inputs": [
        {
          "internalType": "bytes32",
          "name": "role",
          "type": "bytes32"
        },
        {
          "internalType": "address",
          "name": "account",
          "type": "address"
        }
      ],
      "name": "revokeRole",
      "outputs": [],
      "stateMutability": "nonpayable",
      "type": "function"
    },
    {
      "inputs": [
        {
          "internalType": "address",
          "name": "newLandPriceHelper",
          "type": "address"
        }
      ],
      "name": "setLandPriceHelper",
      "outputs": [],
      "stateMutability": "nonpayable",
      "type": "function"
    },
    {
      "inputs": [
        {
          "internalType": "uint256",
          "name": "newMaintenanceFee",
          "type": "uint256"
        },
        {
          "internalType": "uint256",
          "name": "newMaintenanceFeeDenominator",
          "type": "uint256"
        }
      ],
      "name": "setMaintenanceFee",
      "outputs": [],
      "stateMutability": "nonpayable",
      "type": "function"
    },
    {
      "inputs": [
        {
          "internalType": "uint256",
          "name": "newRentalCountPerCall",
          "type": "uint256"
        }
      ],
      "name": "setMaxRentalCountPerCall",
      "outputs": [],
      "stateMutability": "nonpayable",
      "type": "function"
    },
    {
      "inputs": [
        {
          "internalType": "uint256",
          "name": "newMaxRentalDuration",
          "type": "uint256"
        }
      ],
      "name": "setMaxRentalDuration",
      "outputs": [],
      "stateMutability": "nonpayable",
      "type": "function"
    },
    {
      "inputs": [
        {
          "internalType": "uint256",
          "name": "newMaxTokenSupply",
          "type": "uint256"
        }
      ],
      "name": "setMaxTokenSupply",
      "outputs": [],
      "stateMutability": "nonpayable",
      "type": "function"
    },
    {
      "inputs": [
        {
          "internalType": "uint256",
          "name": "newMinRentalDuration",
          "type": "uint256"
        }
      ],
      "name": "setMinRentalDuration",
      "outputs": [],
      "stateMutability": "nonpayable",
      "type": "function"
    },
    {
      "inputs": [
        {
          "internalType": "bytes4",
          "name": "interfaceId",
          "type": "bytes4"
        }
      ],
      "name": "supportsInterface",
      "outputs": [
        {
          "internalType": "bool",
          "name": "",
          "type": "bool"
        }
      ],
      "stateMutability": "view",
      "type": "function"
    },
    {
      "inputs": [],
      "name": "totalOngoingRentalTime",
      "outputs": [
        {
          "internalType": "uint256",
          "name": "",
          "type": "uint256"
        }
      ],
      "stateMutability": "view",
      "type": "function"
    },
    {
      "inputs": [
        {
          "internalType": "address",
          "name": "newOwner",
          "type": "address"
        }
      ],
      "name": "transferOwnership",
      "outputs": [],
      "stateMutability": "nonpayable",
      "type": "function"
    }
  ],
  "bytecode": "0x60e06040523480156200001157600080fd5b506040516200389038038062003890833981016040819052620000349162000350565b89898989898989898989808033620000578162000050620001f9565b906200022f565b506001600160a01b039081166080528b811660c0528a811660a052600080546001600160a01b031916918b1691821790556040519081527fd99014e6f6a21a1f7025e1599288b52168db6241486596946f759a520d4ddfea915060200160405180910390a16002879055600386905560408051888152602081018890527f788db483524e27f5a39a54daaeb81bb48059af776767d0c1f600ef6e996d2818910160405180910390a160048590556040518581527f7d9d1c986503049ed25e197e416ddaeef53d62a8479d6371784f05a9d9da98249060200160405180910390a160058490556040518481527fb4f38443948b39b669154b83689d2dfa2a4cb2b1fd458118da3d1bcdacfc56089060200160405180910390a160068390556040518381527faa06aa6d79ce3cb966afe332af120b3aa8252dc355d1d2dae1368babec5f3ee59060200160405180910390a160018290556040518281527fb8b290c068ed53e46165f3ca5215dcc2972ae26ae4c8fb5adc71a1c135f855139060200160405180910390a1505050505050505050505050505050505050505062000419565b6000806200022960017fc9ed16f33ab3a66c84bfd83099ccb2a8845871e2e1c1928f63797152f0fd54cd620003f7565b92915050565b6001600160a01b03811615620002865781546001600160a01b0319166001600160a01b03821690811783556040516000907f8be0079c531659141344cd1fd0a4f28419497f9722a3daafe3b4186f6b6457e0908290a35b620002a66307f5828d60e41b60016200029e620002aa565b9190620002da565b5050565b6000806200022960017fca9d3e17f264b0f3984e2634e94adb37fa3e6a8103f06aeae6fa59e21c769f5e620003f7565b600160e01b6001600160e01b031983160162000309576040516372c683bb60e01b815260040160405180910390fd5b6001600160e01b03199190911660009081526020929092526040909120805460ff1916911515919091179055565b6001600160a01b03811681146200034d57600080fd5b50565b6000806000806000806000806000806101408b8d0312156200037157600080fd5b8a516200037e8162000337565b60208c0151909a50620003918162000337565b60408c0151909950620003a48162000337565b8098505060608b0151965060808b0151955060a08b0151945060c08b0151935060e08b015192506101008b015191506101208b0151620003e48162000337565b809150509295989b9194979a5092959850565b818103818111156200022957634e487b7160e01b600052601160045260246000fd5b60805160a05160c0516133f36200049d600039600081816102db01528181610a1701528181610b5b01528181610fbe015281816118d701528181611ec30152611f9201526000818161045f0152610e66015260008181610359015281816103ee0152818161281b015281816128a301528181612956015261299401526133f36000f3fe608060405234801561001057600080fd5b50600436106102925760003560e01c80638da5cb5b11610160578063d547741f116100d8578063f5b541a61161008c578063f7ba94bd11610071578063f7ba94bd1461060f578063f7df6bad14610622578063fb203c171461063557600080fd5b8063f5b541a6146105df578063f70321941461060657600080fd5b8063e105c43c116100bd578063e105c43c146105a6578063e4f095d9146105b9578063f2fde38b146105cc57600080fd5b8063d547741f1461056c578063dd2861771461057f57600080fd5b8063b07ed9821161012f578063b65dd45111610114578063b65dd45114610531578063c3666c3614610544578063c4c2bfdc1461055757600080fd5b8063b07ed98214610515578063b2b47e3b1461052857600080fd5b80638da5cb5b146104a757806391d14854146104af578063a5f73758146104c2578063af94a1d1146104cb57600080fd5b80633d9f01fb1161020e57806373c8a958116101c25780637f6e4281116101a75780637f6e42811461045a57806388b681fe146104815780638bb9c5bf1461049457600080fd5b806373c8a9581461043e5780637ce4026f1461045157600080fd5b80635625ac51116101f35780635625ac51146103cb578063572b6c05146103de57806370243bcc1461042b57600080fd5b80633d9f01fb146103af57806350f7c204146103c257600080fd5b806321d42816116102655780632f2ff15d1161024a5780632f2ff15d1461037d57806331e66e1e1461039057806334f1a8d3146103a657600080fd5b806321d42816146103425780632b4c9f161461035757600080fd5b806301ffc9a71461029757806304660449146102bf57806315e682cb146102d65780631aabc61d14610322575b600080fd5b6102aa6102a5366004612d3a565b610648565b60405190151581526020015b60405180910390f35b6102c860025481565b6040519081526020016102b6565b6102fd7f000000000000000000000000000000000000000000000000000000000000000081565b60405173ffffffffffffffffffffffffffffffffffffffff90911681526020016102b6565b6000546102fd9073ffffffffffffffffffffffffffffffffffffffff1681565b610355610350366004612dc8565b610662565b005b7f00000000000000000000000000000000000000000000000000000000000000006102fd565b61035561038b366004612e8d565b610f2a565b610398610f63565b6040516102b6929190612ebd565b6102c860045481565b6102fd6103bd366004612f0a565b610f76565b6102c860015481565b6103556103d9366004612f23565b611073565b6102aa6103ec366004612f45565b7f000000000000000000000000000000000000000000000000000000000000000073ffffffffffffffffffffffffffffffffffffffff90811691161490565b6102c8610439366004612f62565b6110f5565b61035561044c366004612fa4565b611184565b6102c860055481565b6102fd7f000000000000000000000000000000000000000000000000000000000000000081565b61035561048f366004612f62565b611282565b6103556104a2366004612f0a565b6112af565b6102fd6112cd565b6102aa6104bd366004612e8d565b6112f9565b6102c860085481565b6104fa6104d9366004612f0a565b60076020526000908152604090208054600182015460029092015490919083565b604080519384526020840192909252908201526060016102b6565b610355610523366004612f0a565b611344565b6102c860035481565b61035561053f366004612f0a565b6113ac565b610355610552366004612fa4565b61140d565b61055f611585565b6040516102b691906130ac565b61035561057a366004612e8d565b611613565b6102c87f0e67d2d2c46f23cfff9f76c16187348901bf73ba32dcf6893f2a2a4b25be75f881565b6102c86105b4366004612fa4565b611641565b6103556105c7366004612f0a565b611a6f565b6103556105da366004612f45565b611ad0565b6102c87f97667070c54ef182b0f5858b034beac1b6f3089aa2d3188bb1e8929f4fa9b92981565b6102c860065481565b61035561061d3660046130bf565b611aeb565b610355610630366004612f45565b611baa565b610355610643366004612f0a565b611c49565b600061065c82610656611caa565b90611cd8565b92915050565b60008787808060200260200160405190810160405280939291908181526020018383602002808284376000920182905250604080516020808d0282810182019093528c825296975091959194508b93508a925082918501908490808284376000920191909152505060065485519394509092111591506107109050576040517f2273ee1800000000000000000000000000000000000000000000000000000000815260040160405180910390fd5b805182511461074b576040517f6582533600000000000000000000000000000000000000000000000000000000815260040160405180910390fd5b6000610755611db2565b905042600061076688888484611dbc565b600854610773919061315a565b90506000610780826120a8565b90506000865167ffffffffffffffff81111561079e5761079e61316d565b6040519080825280602002602001820160405280156107c7578160200160208202803683370190505b5090506000875167ffffffffffffffff8111156107e6576107e661316d565b60405190808252806020026020018201604052801561080f578160200160208202803683370190505b5090506000885167ffffffffffffffff81111561082e5761082e61316d565b604051908082528060200260200182016040528015610857578160200160208202803683370190505b50905060008060005b8b51811015610d975760008c828151811061087d5761087d61319c565b6020026020010151905060008c838151811061089b5761089b61319c565b60200260200101519050816000036108e7576040517f8ce0857d000000000000000000000000000000000000000000000000000000008152600060048201526024015b60405180910390fd5b6001548210610925576040517f8ce0857d000000000000000000000000000000000000000000000000000000008152600481018390526024016108de565b600554811115610964576040517fb479b655000000000000000000000000000000000000000000000000000000008152600481018390526024016108de565b60008281526007602052604081206001810154909103610b2c576004548210156109bd576040517f508a9a3a000000000000000000000000000000000000000000000000000000008152600481018490526024016108de565b6040517f8832e6e300000000000000000000000000000000000000000000000000000000815273ffffffffffffffffffffffffffffffffffffffff8e811660048301526024820185905260606044830152600060648301527f00000000000000000000000000000000000000000000000000000000000000001690638832e6e390608401600060405180830381600087803b158015610a5b57600080fd5b505af1158015610a6f573d6000803e3d6000fd5b5050508c8255506000610a82838e6131cb565b60018301819055600354600254919250600091610a9f90866131de565b610aa991906131f5565b610ab3908d6131cb565b600284018190559050610ac681886131cb565b96508d8b8781518110610adb57610adb61319c565b602002602001018181525050818a8781518110610afa57610afa61319c565b60200260200101818152505080898781518110610b1957610b1961319c565b6020026020010181815250505050610d7c565b6040517f6352211e000000000000000000000000000000000000000000000000000000008152600481018490527f000000000000000000000000000000000000000000000000000000000000000073ffffffffffffffffffffffffffffffffffffffff1690636352211e90602401602060405180830381865afa158015610bb7573d6000803e3d6000fd5b505050506040513d601f19601f82011682018060405250810190610bdb9190613230565b73ffffffffffffffffffffffffffffffffffffffff168d73ffffffffffffffffffffffffffffffffffffffff16148015610c18575080600101548c105b15610d47576000610c29838e6131cb565b6001830154600454919250908190610c41908461315a565b1015610c7c576040517f508a9a3a000000000000000000000000000000000000000000000000000000008152600481018690526024016108de565b6000610c88828461315a565b60018501849055600354600254919250600091610ca590846131de565b610caf91906131f5565b610cb9908f6131cb565b905080856002016000828254610ccf91906131cb565b90915550610cdf9050818a6131cb565b9850828d8981518110610cf457610cf461319c565b602002602001018181525050838c8981518110610d1357610d1361319c565b602002602001018181525050808b8981518110610d3257610d3261319c565b60200260200101818152505050505050610d7c565b6040517f139d6799000000000000000000000000000000000000000000000000000000008152600481018490526024016108de565b610d8682876131cb565b955050600190920191506108609050565b508b15801590610da657508b81115b15610de7576040517fd519701100000000000000000000000000000000000000000000000000000000815260048101829052602481018d90526044016108de565b610df182886131cb565b6008556040517f212aac7900000000000000000000000000000000000000000000000000000000815273ffffffffffffffffffffffffffffffffffffffff8a81166004830152602482018390527f0e67d2d2c46f23cfff9f76c16187348901bf73ba32dcf6893f2a2a4b25be75f860448301527f0000000000000000000000000000000000000000000000000000000000000000169063212aac7990606401600060405180830381600087803b158015610eaa57600080fd5b505af1158015610ebe573d6000803e3d6000fd5b505050508873ffffffffffffffffffffffffffffffffffffffff167f34a3f395b50735b2b7b8f7ece79da6b46efdb3f0aeb0eb5871dcff84354d03758c878787604051610f0e9493929190613289565b60405180910390a2505050505050505050505050505050505050565b6000610f34611db2565b9050610f4881610f4261213c565b9061216a565b610f5e838383610f566121d9565b929190612207565b505050565b366000610f6e6122de565b915091509091565b60008181526007602052604081206001015442101561103e576040517f6352211e000000000000000000000000000000000000000000000000000000008152600481018390527f000000000000000000000000000000000000000000000000000000000000000073ffffffffffffffffffffffffffffffffffffffff1690636352211e90602401602060405180830381865afa15801561101a573d6000803e3d6000fd5b505050506040513d601f19601f8201168201806040525081019061065c9190613230565b6040517f1297346f000000000000000000000000000000000000000000000000000000008152600481018390526024016108de565b6110ae7f97667070c54ef182b0f5858b034beac1b6f3089aa2d3188bb1e8929f4fa9b92961109f611db2565b6110a76121d9565b91906122e9565b6002829055600381905560408051838152602081018390527f788db483524e27f5a39a54daaeb81bb48059af776767d0c1f600ef6e996d2818910160405180910390a15050565b600042815b8381101561117c5760008585838181106111165761111661319c565b9050602002013590506000600760008381526020019081526020016000209050806001015460001415801561114f575080600101548410155b156111725780546001820154611165919061315a565b61116f90866131cb565b94505b50506001016110fa565b505092915050565b61119761118f611db2565b610f4261213c565b8483811415806111a75750808214155b156111de576040517f6582533600000000000000000000000000000000000000000000000000000000815260040160405180910390fd5b60005b81811015611278576112708888838181106111fe576111fe61319c565b90506020020160208101906112139190612f45565b8585848181106112255761122561319c565b9050602002013588888581811061123e5761123e61319c565b90506020020160208101906112539190612f45565b73ffffffffffffffffffffffffffffffffffffffff16919061236f565b6001016111e1565b5050505050505050565b60006112918383426001611dbc565b905080600860008282546112a5919061315a565b9091555050505050565b6112ca6112ba611db2565b826112c36121d9565b91906123fc565b50565b60006112f46112da61213c565b5473ffffffffffffffffffffffffffffffffffffffff1690565b905090565b600061133d83836113086121d9565b60009283526020908152604080842073ffffffffffffffffffffffffffffffffffffffff909316845291905290205460ff1690565b9392505050565b6113707f97667070c54ef182b0f5858b034beac1b6f3089aa2d3188bb1e8929f4fa9b92961109f611db2565b60018190556040518181527fb8b290c068ed53e46165f3ca5215dcc2972ae26ae4c8fb5adc71a1c135f85513906020015b60405180910390a150565b6113d87f97667070c54ef182b0f5858b034beac1b6f3089aa2d3188bb1e8929f4fa9b92961109f611db2565b60068190556040518181527faa06aa6d79ce3cb966afe332af120b3aa8252dc355d1d2dae1368babec5f3ee5906020016113a1565b61141861118f611db2565b8483811415806114285750808214155b1561145f576040517f6582533600000000000000000000000000000000000000000000000000000000815260040160405180910390fd5b60005b818110156112785785858281811061147c5761147c61319c565b90506020020160208101906114919190612f45565b73ffffffffffffffffffffffffffffffffffffffff166323b872dd308a8a858181106114bf576114bf61319c565b90506020020160208101906114d49190612f45565b8787868181106114e6576114e661319c565b6040517fffffffff0000000000000000000000000000000000000000000000000000000060e088901b16815273ffffffffffffffffffffffffffffffffffffffff958616600482015294909316602485015250602090910201356044820152606401600060405180830381600087803b15801561156257600080fd5b505af1158015611576573d6000803e3d6000fd5b50505050806001019050611462565b60098054611592906132d6565b80601f01602080910402602001604051908101604052809291908181526020018280546115be906132d6565b801561160b5780601f106115e05761010080835404028352916020019161160b565b820191906000526020600020905b8154815290600101906020018083116115ee57829003601f168201915b505050505081565b600061161d611db2565b905061162b81610f4261213c565b610f5e8383836116396121d9565b9291906124a0565b600654600090861115611680576040517f2273ee1800000000000000000000000000000000000000000000000000000000815260040160405180910390fd5b8584146116b9576040517f6582533600000000000000000000000000000000000000000000000000000000815260040160405180910390fd5b4260006116c685856110f5565b905060006116e0826008546116db919061315a565b6120a8565b90506000805b8a811015611a4b5760008a8a838181106117025761170261319c565b90506020020135905060008d8d8481811061171f5761171f61319c565b90506020020135905080600003611765576040517f8ce0857d000000000000000000000000000000000000000000000000000000008152600060048201526024016108de565b60015481106117a3576040517f8ce0857d000000000000000000000000000000000000000000000000000000008152600481018290526024016108de565b6005548211156117e2576040517fb479b655000000000000000000000000000000000000000000000000000000008152600481018290526024016108de565b600081815260076020908152604080832081516060810183528154815260018201549381018490526002909101549181019190915291036118875760045483101561185c576040517f508a9a3a000000000000000000000000000000000000000000000000000000008152600481018390526024016108de565b60035460025461186c90856131de565b61187691906131f5565b61188090866131cb565b9450611a40565b61188f611db2565b6040517f6352211e0000000000000000000000000000000000000000000000000000000081526004810184905273ffffffffffffffffffffffffffffffffffffffff918216917f00000000000000000000000000000000000000000000000000000000000000001690636352211e90602401602060405180830381865afa15801561191e573d6000803e3d6000fd5b505050506040513d601f19601f820116820180604052508101906119429190613230565b73ffffffffffffffffffffffffffffffffffffffff161480156119685750806020015188105b15611a0b576000611979848a6131cb565b905081602001516004548261198e919061315a565b10156119c9576040517f508a9a3a000000000000000000000000000000000000000000000000000000008152600481018490526024016108de565b60008260200151826119db919061315a565b9050600354600254826119ee91906131de565b6119f891906131f5565b611a0290886131cb565b96505050611a40565b6040517f139d6799000000000000000000000000000000000000000000000000000000008152600481018390526024016108de565b5050506001016116e6565b50611a568a836131de565b611a6090826131cb565b9b9a5050505050505050505050565b611a9b7f97667070c54ef182b0f5858b034beac1b6f3089aa2d3188bb1e8929f4fa9b92961109f611db2565b60058190556040518181527fb4f38443948b39b669154b83689d2dfa2a4cb2b1fd458118da3d1bcdacfc5608906020016113a1565b6112ca611adb611db2565b82611ae461213c565b919061256a565b611af661118f611db2565b82818114611b30576040517f6582533600000000000000000000000000000000000000000000000000000000815260040160405180910390fd5b60005b81811015611ba257611b9a848483818110611b5057611b5061319c565b90506020020135878784818110611b6957611b6961319c565b9050602002016020810190611b7e9190612f45565b73ffffffffffffffffffffffffffffffffffffffff169061267e565b600101611b33565b505050505050565b611bd67f97667070c54ef182b0f5858b034beac1b6f3089aa2d3188bb1e8929f4fa9b92961109f611db2565b600080547fffffffffffffffffffffffff00000000000000000000000000000000000000001673ffffffffffffffffffffffffffffffffffffffff83169081179091556040519081527fd99014e6f6a21a1f7025e1599288b52168db6241486596946f759a520d4ddfea906020016113a1565b611c757f97667070c54ef182b0f5858b034beac1b6f3089aa2d3188bb1e8929f4fa9b92961109f611db2565b60048190556040518181527f7d9d1c986503049ed25e197e416ddaeef53d62a8479d6371784f05a9d9da9824906020016113a1565b60008061065c60017fca9d3e17f264b0f3984e2634e94adb37fa3e6a8103f06aeae6fa59e21c769f5e61315a565b60007c01000000000000000000000000000000000000000000000000000000007fffffffff00000000000000000000000000000000000000000000000000000000831601611d285750600061065c565b7ffe003659000000000000000000000000000000000000000000000000000000007fffffffff00000000000000000000000000000000000000000000000000000000831601611d795750600161065c565b507fffffffff00000000000000000000000000000000000000000000000000000000166000908152602091909152604090205460ff1690565b60006112f46127d8565b6000808467ffffffffffffffff811115611dd857611dd861316d565b604051908082528060200260200182016040528015611e01578160200160208202803683370190505b5090506000805b8681101561205e576000888883818110611e2457611e2461319c565b90506020020135905060006007600083815260200190815260200160002090508060010154600014158015611e5d575080600101548810155b156120195780546001820154611e73919061315a565b611e7d90876131cb565b600080835560018301819055600283018190556040517f6352211e00000000000000000000000000000000000000000000000000000000815260048101859052919750907f000000000000000000000000000000000000000000000000000000000000000073ffffffffffffffffffffffffffffffffffffffff1690636352211e90602401602060405180830381865afa158015611f1f573d6000803e3d6000fd5b505050506040513d601f19601f82011682018060405250810190611f439190613230565b6040517f79cc679000000000000000000000000000000000000000000000000000000000815273ffffffffffffffffffffffffffffffffffffffff8083166004830152602482018690529192507f0000000000000000000000000000000000000000000000000000000000000000909116906379cc679090604401600060405180830381600087803b158015611fd857600080fd5b505af1158015611fec573d6000803e3d6000fd5b50505050828685815181106120035761200361319c565b6020026020010181815250506001945050612054565b8615612054576040517f9be5764a000000000000000000000000000000000000000000000000000000008152600481018390526024016108de565b5050600101611e08565b50801561209d577f9e5430727c5f2b23597e7cb2670240cc8fbb4031a0dad53562812b380e286b3d826040516120949190613329565b60405180910390a15b50505b949350505050565b600080546040517fae1042650000000000000000000000000000000000000000000000000000000081526004810184905273ffffffffffffffffffffffffffffffffffffffff9091169063ae10426590602401602060405180830381865afa158015612118573d6000803e3d6000fd5b505050506040513d601f19601f8201168201806040525081019061065c919061333c565b60008061065c60017fc9ed16f33ab3a66c84bfd83099ccb2a8845871e2e1c1928f63797152f0fd54cd61315a565b815473ffffffffffffffffffffffffffffffffffffffff8281169116146121d5576040517f2ef4875e00000000000000000000000000000000000000000000000000000000815273ffffffffffffffffffffffffffffffffffffffff821660048201526024016108de565b5050565b60008061065c60017fc8827d3282af6f37b64c3e9e6f3ac9df286ab0bb0fccd6f8661bf19adb368b2361315a565b60008381526020858152604080832073ffffffffffffffffffffffffffffffffffffffff8616845290915290205460ff166122d85760008381526020858152604080832073ffffffffffffffffffffffffffffffffffffffff8681168086529184529382902080547fffffffffffffffffffffffffffffffffffffffffffffffffffffffffffffff00166001179055815187815292830152918316918101919091527f2f8788117e7eff1d82e926ec794901d17c78024a50270940304540a733656f0d906060015b60405180910390a15b50505050565b366000610f6e61291f565b60008281526020848152604080832073ffffffffffffffffffffffffffffffffffffffff8516845290915290205460ff16610f5e576040517f7aa728820000000000000000000000000000000000000000000000000000000081526004810183905273ffffffffffffffffffffffffffffffffffffffff821660248201526044016108de565b6040805173ffffffffffffffffffffffffffffffffffffffff8416602482015260448082018490528251808303909101815260649091019091526020810180517bffffffffffffffffffffffffffffffffffffffffffffffffffffffff167fa9059cbb00000000000000000000000000000000000000000000000000000000179052610f5e908490612a89565b6124078382846122e9565b60008181526020848152604080832073ffffffffffffffffffffffffffffffffffffffff86168085529083529281902080547fffffffffffffffffffffffffffffffffffffffffffffffffffffffffffffff0016905580518481529182018390528101919091527ff6391f5c32d9c69d2a47ea670b442974b53935d1edc7fd64eb21e047a839171b9060600160405180910390a1505050565b60008381526020858152604080832073ffffffffffffffffffffffffffffffffffffffff8616845290915290205460ff16156122d85760008381526020858152604080832073ffffffffffffffffffffffffffffffffffffffff8681168086529184529382902080547fffffffffffffffffffffffffffffffffffffffffffffffffffffffffffffff00169055815187815292830152918316918101919091527ff6391f5c32d9c69d2a47ea670b442974b53935d1edc7fd64eb21e047a839171b906060016122cf565b825473ffffffffffffffffffffffffffffffffffffffff90811690831681146125d7576040517f2ef4875e00000000000000000000000000000000000000000000000000000000815273ffffffffffffffffffffffffffffffffffffffff841660048201526024016108de565b8173ffffffffffffffffffffffffffffffffffffffff168173ffffffffffffffffffffffffffffffffffffffff16146122d85783547fffffffffffffffffffffffff00000000000000000000000000000000000000001673ffffffffffffffffffffffffffffffffffffffff8381169182178655604051908316907f8be0079c531659141344cd1fd0a4f28419497f9722a3daafe3b4186f6b6457e090600090a350505050565b804710156126e8576040517f08c379a000000000000000000000000000000000000000000000000000000000815260206004820152601d60248201527f416464726573733a20696e73756666696369656e742062616c616e636500000060448201526064016108de565b60008273ffffffffffffffffffffffffffffffffffffffff168260405160006040518083038185875af1925050503d8060008114612742576040519150601f19603f3d011682016040523d82523d6000602084013e612747565b606091505b5050905080610f5e576040517f08c379a000000000000000000000000000000000000000000000000000000000815260206004820152603a60248201527f416464726573733a20756e61626c6520746f2073656e642076616c75652c207260448201527f6563697069656e74206d6179206861766520726576657274656400000000000060648201526084016108de565b6000333214806127e85750601836105b156127f257503390565b7fffffffffffffffffffffffffffffffffffffffffffffffffffffffffffffffec36013560601c7f000000000000000000000000000000000000000000000000000000000000000073ffffffffffffffffffffffffffffffffffffffff1633148061290e57506040517f8929a8ca00000000000000000000000000000000000000000000000000000000815273ffffffffffffffffffffffffffffffffffffffff82811660048301523360248301527f00000000000000000000000000000000000000000000000000000000000000001690638929a8ca90604401602060405180830381865afa1580156128ea573d6000803e3d6000fd5b505050506040513d601f19601f8201168201806040525081019061290e9190613355565b1561291857919050565b3391505090565b366000333214806129305750601836105b1561293e5750600091369150565b3373ffffffffffffffffffffffffffffffffffffffff7f0000000000000000000000000000000000000000000000000000000000000000161480612a73575073ffffffffffffffffffffffffffffffffffffffff7f000000000000000000000000000000000000000000000000000000000000000016638929a8ca367fffffffffffffffffffffffffffffffffffffffffffffffffffffffffffffffec013560601c6040517fffffffff0000000000000000000000000000000000000000000000000000000060e084901b16815273ffffffffffffffffffffffffffffffffffffffff9091166004820152336024820152604401602060405180830381865afa158015612a4f573d6000803e3d6000fd5b505050506040513d601f19601f82011682018060405250810190612a739190613355565b15612a8057610f6e612b98565b50600091369150565b6000612aeb826040518060400160405280602081526020017f5361666545524332303a206c6f772d6c6576656c2063616c6c206661696c65648152508573ffffffffffffffffffffffffffffffffffffffff16612bc99092919063ffffffff16565b9050805160001480612b0c575080806020019051810190612b0c9190613355565b610f5e576040517f08c379a000000000000000000000000000000000000000000000000000000000815260206004820152602a60248201527f5361666545524332303a204552433230206f7065726174696f6e20646964206e60448201527f6f7420737563636565640000000000000000000000000000000000000000000060648201526084016108de565b366000610f6e7fffffffffffffffffffffffffffffffffffffffffffffffffffffffffffffffec8301828481613377565b60606120a08484600085856000808673ffffffffffffffffffffffffffffffffffffffff168587604051612bfd91906133a1565b60006040518083038185875af1925050503d8060008114612c3a576040519150601f19603f3d011682016040523d82523d6000602084013e612c3f565b606091505b5091509150612c5087838387612c5b565b979650505050505050565b60608315612cf1578251600003612cea5773ffffffffffffffffffffffffffffffffffffffff85163b612cea576040517f08c379a000000000000000000000000000000000000000000000000000000000815260206004820152601d60248201527f416464726573733a2063616c6c20746f206e6f6e2d636f6e747261637400000060448201526064016108de565b50816120a0565b6120a08383815115612d065781518083602001fd5b806040517f08c379a00000000000000000000000000000000000000000000000000000000081526004016108de91906130ac565b600060208284031215612d4c57600080fd5b81357fffffffff000000000000000000000000000000000000000000000000000000008116811461133d57600080fd5b60008083601f840112612d8e57600080fd5b50813567ffffffffffffffff811115612da657600080fd5b6020830191508360208260051b8501011115612dc157600080fd5b9250929050565b60008060008060008060006080888a031215612de357600080fd5b873567ffffffffffffffff80821115612dfb57600080fd5b612e078b838c01612d7c565b909950975060208a0135915080821115612e2057600080fd5b612e2c8b838c01612d7c565b909750955060408a0135915080821115612e4557600080fd5b50612e528a828b01612d7c565b989b979a50959894979596606090950135949350505050565b73ffffffffffffffffffffffffffffffffffffffff811681146112ca57600080fd5b60008060408385031215612ea057600080fd5b823591506020830135612eb281612e6b565b809150509250929050565b60208152816020820152818360408301376000818301604090810191909152601f9092017fffffffffffffffffffffffffffffffffffffffffffffffffffffffffffffffe0160101919050565b600060208284031215612f1c57600080fd5b5035919050565b60008060408385031215612f3657600080fd5b50508035926020909101359150565b600060208284031215612f5757600080fd5b813561133d81612e6b565b60008060208385031215612f7557600080fd5b823567ffffffffffffffff811115612f8c57600080fd5b612f9885828601612d7c565b90969095509350505050565b60008060008060008060608789031215612fbd57600080fd5b863567ffffffffffffffff80821115612fd557600080fd5b612fe18a838b01612d7c565b90985096506020890135915080821115612ffa57600080fd5b6130068a838b01612d7c565b9096509450604089013591508082111561301f57600080fd5b5061302c89828a01612d7c565b979a9699509497509295939492505050565b60005b83811015613059578181015183820152602001613041565b50506000910152565b6000815180845261307a81602086016020860161303e565b601f017fffffffffffffffffffffffffffffffffffffffffffffffffffffffffffffffe0169290920160200192915050565b60208152600061133d6020830184613062565b600080600080604085870312156130d557600080fd5b843567ffffffffffffffff808211156130ed57600080fd5b6130f988838901612d7c565b9096509450602087013591508082111561311257600080fd5b5061311f87828801612d7c565b95989497509550505050565b7f4e487b7100000000000000000000000000000000000000000000000000000000600052601160045260246000fd5b8181038181111561065c5761065c61312b565b7f4e487b7100000000000000000000000000000000000000000000000000000000600052604160045260246000fd5b7f4e487b7100000000000000000000000000000000000000000000000000000000600052603260045260246000fd5b8082018082111561065c5761065c61312b565b808202811582820484141761065c5761065c61312b565b60008261322b577f4e487b7100000000000000000000000000000000000000000000000000000000600052601260045260246000fd5b500490565b60006020828403121561324257600080fd5b815161133d81612e6b565b60008151808452602080850194506020840160005b8381101561327e57815187529582019590820190600101613262565b509495945050505050565b60808152600061329c608083018761324d565b82810360208401526132ae818761324d565b905082810360408401526132c2818661324d565b90508281036060840152612c50818561324d565b600181811c908216806132ea57607f821691505b602082108103613323577f4e487b7100000000000000000000000000000000000000000000000000000000600052602260045260246000fd5b50919050565b60208152600061133d602083018461324d565b60006020828403121561334e57600080fd5b5051919050565b60006020828403121561336757600080fd5b8151801515811461133d57600080fd5b6000808585111561338757600080fd5b8386111561339457600080fd5b5050820193919092039150565b600082516133b381846020870161303e565b919091019291505056fea2646970667358221220767f103814f3a2c7c08ab8dbacd1cc330964928379e80a8096384b52b015bb2764736f6c63430008160033",
  "linkReferences": {},
  "deployedLinkReferences": {}
}