{
  "_format": "hh-sol-artifact-1",
  "contractName": "EDULandRentalMock",
  "sourceName": "contracts/mocks/land/EDULandRentalMock.sol",
  "abi": [
    {
      "inputs": [
        {
          "internalType": "address",
          "name": "nodeKeyAddress",
          "type": "address"
        },
        {
          "internalType": "address",
          "name": "pointsAddress",
          "type": "address"
        },
        {
          "internalType": "address",
          "name": "rentalFeeHelperAddress",
          "type": "address"
        },
        {
          "internalType": "uint256",
          "name": "maintenceFee_",
          "type": "uint256"
        },
        {
          "internalType": "uint256",
          "name": "maintenanceFeeDenominator_",
          "type": "uint256"
        },
        {
          "internalType": "uint256",
          "name": "minRentalDuration_",
          "type": "uint256"
        },
        {
          "internalType": "uint256",
          "name": "maxRentalDuration_",
          "type": "uint256"
        },
        {
          "internalType": "uint256",
          "name": "maxRentalCountPerCall_",
          "type": "uint256"
        },
        {
          "internalType": "uint256",
          "name": "maxTokenSupply_",
          "type": "uint256"
        },
        {
          "internalType": "contract IForwarderRegistry",
          "name": "forwarderRegistry",
          "type": "address"
        }
      ],
      "stateMutability": "nonpayable",
      "type": "constructor"
    },
    {
      "inputs": [
        {
          "internalType": "uint256",
          "name": "calculatedFee",
          "type": "uint256"
        },
        {
          "internalType": "uint256",
          "name": "maxFee",
          "type": "uint256"
        }
      ],
      "name": "FeeExceeded",
      "type": "error"
    },
    {
      "inputs": [],
      "name": "IllegalInterfaceId",
      "type": "error"
    },
    {
      "inputs": [],
      "name": "InconsistentArrayLengths",
      "type": "error"
    },
    {
      "inputs": [],
      "name": "InvalidLandAddress",
      "type": "error"
    },
    {
      "inputs": [],
      "name": "InvalidPointsAddress",
      "type": "error"
    },
    {
      "inputs": [],
      "name": "InvalidTokenIdsParam",
      "type": "error"
    },
    {
      "inputs": [],
      "name": "NoTokenCollected",
      "type": "error"
    },
    {
      "inputs": [
        {
          "internalType": "address",
          "name": "account",
          "type": "address"
        }
      ],
      "name": "NotContractOwner",
      "type": "error"
    },
    {
      "inputs": [
        {
          "internalType": "bytes32",
          "name": "role",
          "type": "bytes32"
        },
        {
          "internalType": "address",
          "name": "account",
          "type": "address"
        }
      ],
      "name": "NotRoleHolder",
      "type": "error"
    },
    {
      "inputs": [],
      "name": "RentalCountPerCallLimitExceeded",
      "type": "error"
    },
    {
      "inputs": [
        {
          "internalType": "uint256",
          "name": "tokenId",
          "type": "uint256"
        }
      ],
      "name": "RentalDurationTooHigh",
      "type": "error"
    },
    {
      "inputs": [
        {
          "internalType": "uint256",
          "name": "tokenId",
          "type": "uint256"
        }
      ],
      "name": "RentalDurationTooLow",
      "type": "error"
    },
    {
      "inputs": [
        {
          "internalType": "uint256",
          "name": "tokenId",
          "type": "uint256"
        }
      ],
      "name": "TokenAlreadyRented",
      "type": "error"
    },
    {
      "inputs": [
        {
          "internalType": "uint256",
          "name": "tokenId",
          "type": "uint256"
        }
      ],
      "name": "TokenNotExpired",
      "type": "error"
    },
    {
      "inputs": [
        {
          "internalType": "uint256",
          "name": "tokenId",
          "type": "uint256"
        }
      ],
      "name": "TokenNotRented",
      "type": "error"
    },
    {
      "inputs": [
        {
          "internalType": "uint256",
          "name": "tokenId",
          "type": "uint256"
        }
      ],
      "name": "UnsupportedTokenId",
      "type": "error"
    },
    {
      "anonymous": false,
      "inputs": [
        {
          "indexed": false,
          "internalType": "uint256[]",
          "name": "tokenIds",
          "type": "uint256[]"
        }
      ],
      "name": "Collected",
      "type": "event"
    },
    {
      "anonymous": false,
      "inputs": [
        {
          "indexed": false,
          "internalType": "address",
          "name": "newLandPriceHelper",
          "type": "address"
        }
      ],
      "name": "LandPriceHelperUpdated",
      "type": "event"
    },
    {
      "anonymous": false,
      "inputs": [
        {
          "indexed": false,
          "internalType": "uint256",
          "name": "newMaintenanceFee",
          "type": "uint256"
        },
        {
          "indexed": false,
          "internalType": "uint256",
          "name": "newMaintenanceFeeDenominator",
          "type": "uint256"
        }
      ],
      "name": "MaintenanceFeeUpdated",
      "type": "event"
    },
    {
      "anonymous": false,
      "inputs": [
        {
          "indexed": false,
          "internalType": "uint256",
          "name": "newMaxRentalCountPerCall",
          "type": "uint256"
        }
      ],
      "name": "MaxRentalCountPerCallUpdated",
      "type": "event"
    },
    {
      "anonymous": false,
      "inputs": [
        {
          "indexed": false,
          "internalType": "uint256",
          "name": "newMaxRentalDuration",
          "type": "uint256"
        }
      ],
      "name": "MaxRentalDurationUpdated",
      "type": "event"
    },
    {
      "anonymous": false,
      "inputs": [
        {
          "indexed": false,
          "internalType": "uint256",
          "name": "newMaxTokenSupply",
          "type": "uint256"
        }
      ],
      "name": "MaxTokenSupplyUpdated",
      "type": "event"
    },
    {
      "anonymous": false,
      "inputs": [
        {
          "indexed": false,
          "internalType": "uint256",
          "name": "newMinRentalDuration",
          "type": "uint256"
        }
      ],
      "name": "MinRentalDurationUpdated",
      "type": "event"
    },
    {
      "anonymous": false,
      "inputs": [
        {
          "indexed": true,
          "internalType": "address",
          "name": "previousOwner",
          "type": "address"
        },
        {
          "indexed": true,
          "internalType": "address",
          "name": "newOwner",
          "type": "address"
        }
      ],
      "name": "OwnershipTransferred",
      "type": "event"
    },
    {
      "anonymous": false,
      "inputs": [
        {
          "indexed": true,
          "internalType": "address",
          "name": "renter",
          "type": "address"
        },
        {
          "indexed": false,
          "internalType": "uint256[]",
          "name": "tokenIds",
          "type": "uint256[]"
        },
        {
          "indexed": false,
          "internalType": "uint256[]",
          "name": "beginDates",
          "type": "uint256[]"
        },
        {
          "indexed": false,
          "internalType": "uint256[]",
          "name": "endDates",
          "type": "uint256[]"
        },
        {
          "indexed": false,
          "internalType": "uint256[]",
          "name": "fees",
          "type": "uint256[]"
        }
      ],
      "name": "Rental",
      "type": "event"
    },
    {
      "anonymous": false,
      "inputs": [
        {
          "indexed": false,
          "internalType": "bytes32",
          "name": "role",
          "type": "bytes32"
        },
        {
          "indexed": false,
          "internalType": "address",
          "name": "account",
          "type": "address"
        },
        {
          "indexed": false,
          "internalType": "address",
          "name": "operator",
          "type": "address"
        }
      ],
      "name": "RoleGranted",
      "type": "event"
    },
    {
      "anonymous": false,
      "inputs": [
        {
          "indexed": false,
          "internalType": "bytes32",
          "name": "role",
          "type": "bytes32"
        },
        {
          "indexed": false,
          "internalType": "address",
          "name": "account",
          "type": "address"
        },
        {
          "indexed": false,
          "internalType": "address",
          "name": "operator",
          "type": "address"
        }
      ],
      "name": "RoleRevoked",
      "type": "event"
    },
    {
      "inputs": [],
      "name": "EDU_LAND",
      "outputs": [
        {
          "internalType": "contract IEDULand",
          "name": "",
          "type": "address"
        }
      ],
      "stateMutability": "view",
      "type": "function"
    },
    {
      "inputs": [],
      "name": "OPERATOR_ROLE",
      "outputs": [
        {
          "internalType": "bytes32",
          "name": "",
          "type": "bytes32"
        }
      ],
      "stateMutability": "view",
      "type": "function"
    },
    {
      "inputs": [],
      "name": "POINTS",
      "outputs": [
        {
          "internalType": "contract Points",
          "name": "",
          "type": "address"
        }
      ],
      "stateMutability": "view",
      "type": "function"
    },
    {
      "inputs": [],
      "name": "RENTAL_CONSUME_CODE",
      "outputs": [
        {
          "internalType": "bytes32",
          "name": "",
          "type": "bytes32"
        }
      ],
      "stateMutability": "view",
      "type": "function"
    },
    {
      "inputs": [],
      "name": "__msgData",
      "outputs": [
        {
          "internalType": "bytes",
          "name": "",
          "type": "bytes"
        }
      ],
      "stateMutability": "view",
      "type": "function"
    },
    {
      "inputs": [
        {
          "internalType": "uint256[]",
          "name": "tokenIds",
          "type": "uint256[]"
        }
      ],
      "name": "calculateElapsedTimeForExpiredTokens",
      "outputs": [
        {
          "internalType": "uint256",
          "name": "elapsedTime",
          "type": "uint256"
        }
      ],
      "stateMutability": "view",
      "type": "function"
    },
    {
      "inputs": [
        {
          "internalType": "uint256[]",
          "name": "tokenIds",
          "type": "uint256[]"
        }
      ],
      "name": "collectExpiredTokens",
      "outputs": [],
      "stateMutability": "nonpayable",
      "type": "function"
    },
    {
      "inputs": [
        {
          "internalType": "uint256",
          "name": "totalOngoingRentalTime_",
          "type": "uint256"
        }
      ],
      "name": "estimateLandPrice",
      "outputs": [
        {
          "internalType": "uint256",
          "name": "",
          "type": "uint256"
        }
      ],
      "stateMutability": "view",
      "type": "function"
    },
    {
      "inputs": [
        {
          "internalType": "uint256[]",
          "name": "tokenIds",
          "type": "uint256[]"
        },
        {
          "internalType": "uint256[]",
          "name": "durations",
          "type": "uint256[]"
        },
        {
          "internalType": "uint256[]",
          "name": "expiredTokenIds",
          "type": "uint256[]"
        }
      ],
      "name": "estimateRentalFee",
      "outputs": [
        {
          "internalType": "uint256",
          "name": "fee",
          "type": "uint256"
        }
      ],
      "stateMutability": "view",
      "type": "function"
    },
    {
      "inputs": [],
      "name": "forwarderRegistry",
      "outputs": [
        {
          "internalType": "contract IForwarderRegistry",
          "name": "",
          "type": "address"
        }
      ],
      "stateMutability": "view",
      "type": "function"
    },
    {
      "inputs": [
        {
          "internalType": "bytes32",
          "name": "role",
          "type": "bytes32"
        },
        {
          "internalType": "address",
          "name": "account",
          "type": "address"
        }
      ],
      "name": "grantRole",
      "outputs": [],
      "stateMutability": "nonpayable",
      "type": "function"
    },
    {
      "inputs": [
        {
          "internalType": "bytes32",
          "name": "role",
          "type": "bytes32"
        },
        {
          "internalType": "address",
          "name": "account",
          "type": "address"
        }
      ],
      "name": "hasRole",
      "outputs": [
        {
          "internalType": "bool",
          "name": "hasRole_",
          "type": "bool"
        }
      ],
      "stateMutability": "view",
      "type": "function"
    },
    {
      "inputs": [
        {
          "internalType": "address",
          "name": "forwarder",
          "type": "address"
        }
      ],
      "name": "isTrustedForwarder",
      "outputs": [
        {
          "internalType": "bool",
          "name": "",
          "type": "bool"
        }
      ],
      "stateMutability": "view",
      "type": "function"
    },
    {
      "inputs": [],
      "name": "landPriceHelper",
      "outputs": [
        {
          "internalType": "contract IEDULandPriceHelper",
          "name": "",
          "type": "address"
        }
      ],
      "stateMutability": "view",
      "type": "function"
    },
    {
      "inputs": [],
      "name": "maintenanceFee",
      "outputs": [
        {
          "internalType": "uint256",
          "name": "",
          "type": "uint256"
        }
      ],
      "stateMutability": "view",
      "type": "function"
    },
    {
      "inputs": [],
      "name": "maintenanceFeeDenominator",
      "outputs": [
        {
          "internalType": "uint256",
          "name": "",
          "type": "uint256"
        }
      ],
      "stateMutability": "view",
      "type": "function"
    },
    {
      "inputs": [],
      "name": "maxRentalCountPerCall",
      "outputs": [
        {
          "internalType": "uint256",
          "name": "",
          "type": "uint256"
        }
      ],
      "stateMutability": "view",
      "type": "function"
    },
    {
      "inputs": [],
      "name": "maxRentalDuration",
      "outputs": [
        {
          "internalType": "uint256",
          "name": "",
          "type": "uint256"
        }
      ],
      "stateMutability": "view",
      "type": "function"
    },
    {
      "inputs": [],
      "name": "maxTokenSupply",
      "outputs": [
        {
          "internalType": "uint256",
          "name": "",
          "type": "uint256"
        }
      ],
      "stateMutability": "view",
      "type": "function"
    },
    {
      "inputs": [],
      "name": "minRentalDuration",
      "outputs": [
        {
          "internalType": "uint256",
          "name": "",
          "type": "uint256"
        }
      ],
      "stateMutability": "view",
      "type": "function"
    },
    {
      "inputs": [],
      "name": "msgData",
      "outputs": [
        {
          "internalType": "bytes",
          "name": "",
          "type": "bytes"
        }
      ],
      "stateMutability": "view",
      "type": "function"
    },
    {
      "inputs": [],
      "name": "owner",
      "outputs": [
        {
          "internalType": "address",
          "name": "",
          "type": "address"
        }
      ],
      "stateMutability": "view",
      "type": "function"
    },
    {
      "inputs": [
        {
          "internalType": "address[]",
          "name": "accounts",
          "type": "address[]"
        },
        {
          "internalType": "contract IERC20[]",
          "name": "tokens",
          "type": "address[]"
        },
        {
          "internalType": "uint256[]",
          "name": "amounts",
          "type": "uint256[]"
        }
      ],
      "name": "recoverERC20s",
      "outputs": [],
      "stateMutability": "nonpayable",
      "type": "function"
    },
    {
      "inputs": [
        {
          "internalType": "address[]",
          "name": "accounts",
          "type": "address[]"
        },
        {
          "internalType": "contract IERC721[]",
          "name": "contracts",
          "type": "address[]"
        },
        {
          "internalType": "uint256[]",
          "name": "tokenIds",
          "type": "uint256[]"
        }
      ],
      "name": "recoverERC721s",
      "outputs": [],
      "stateMutability": "nonpayable",
      "type": "function"
    },
    {
      "inputs": [
        {
          "internalType": "address payable[]",
          "name": "accounts",
          "type": "address[]"
        },
        {
          "internalType": "uint256[]",
          "name": "amounts",
          "type": "uint256[]"
        }
      ],
      "name": "recoverETH",
      "outputs": [],
      "stateMutability": "nonpayable",
      "type": "function"
    },
    {
      "inputs": [
        {
          "internalType": "bytes32",
          "name": "role",
          "type": "bytes32"
        }
      ],
      "name": "renounceRole",
      "outputs": [],
      "stateMutability": "nonpayable",
      "type": "function"
    },
    {
      "inputs": [
        {
          "internalType": "uint256[]",
          "name": "tokenIds",
          "type": "uint256[]"
        },
        {
          "internalType": "uint256[]",
          "name": "durations",
          "type": "uint256[]"
        },
        {
          "internalType": "uint256[]",
          "name": "expiredTokenIds",
          "type": "uint256[]"
        },
        {
          "internalType": "uint256",
          "name": "maxFee",
          "type": "uint256"
        }
      ],
      "name": "rent",
      "outputs": [],
      "stateMutability": "nonpayable",
      "type": "function"
    },
    {
      "inputs": [
        {
          "internalType": "uint256",
          "name": "",
          "type": "uint256"
        }
      ],
      "name": "rentals",
      "outputs": [
        {
          "internalType": "uint256",
          "name": "beginDate",
          "type": "uint256"
        },
        {
          "internalType": "uint256",
          "name": "endDate",
          "type": "uint256"
        },
        {
          "internalType": "uint256",
          "name": "fee",
          "type": "uint256"
        }
      ],
      "stateMutability": "view",
      "type": "function"
    },
    {
      "inputs": [
        {
          "internalType": "bytes32",
          "name": "role",
          "type": "bytes32"
        },
        {
          "internalType": "address",
          "name": "account",
          "type": "address"
        }
      ],
      "name": "revokeRole",
      "outputs": [],
      "stateMutability": "nonpayable",
      "type": "function"
    },
    {
      "inputs": [
        {
          "internalType": "address",
          "name": "newLandPriceHelper",
          "type": "address"
        }
      ],
      "name": "setLandPriceHelper",
      "outputs": [],
      "stateMutability": "nonpayable",
      "type": "function"
    },
    {
      "inputs": [
        {
          "internalType": "uint256",
          "name": "newMaintenanceFee",
          "type": "uint256"
        },
        {
          "internalType": "uint256",
          "name": "newMaintenanceFeeDenominator",
          "type": "uint256"
        }
      ],
      "name": "setMaintenanceFee",
      "outputs": [],
      "stateMutability": "nonpayable",
      "type": "function"
    },
    {
      "inputs": [
        {
          "internalType": "uint256",
          "name": "newRentalCountPerCall",
          "type": "uint256"
        }
      ],
      "name": "setMaxRentalCountPerCall",
      "outputs": [],
      "stateMutability": "nonpayable",
      "type": "function"
    },
    {
      "inputs": [
        {
          "internalType": "uint256",
          "name": "newMaxRentalDuration",
          "type": "uint256"
        }
      ],
      "name": "setMaxRentalDuration",
      "outputs": [],
      "stateMutability": "nonpayable",
      "type": "function"
    },
    {
      "inputs": [
        {
          "internalType": "uint256",
          "name": "newMaxTokenSupply",
          "type": "uint256"
        }
      ],
      "name": "setMaxTokenSupply",
      "outputs": [],
      "stateMutability": "nonpayable",
      "type": "function"
    },
    {
      "inputs": [
        {
          "internalType": "uint256",
          "name": "newMinRentalDuration",
          "type": "uint256"
        }
      ],
      "name": "setMinRentalDuration",
      "outputs": [],
      "stateMutability": "nonpayable",
      "type": "function"
    },
    {
      "inputs": [
        {
          "internalType": "bytes4",
          "name": "interfaceId",
          "type": "bytes4"
        }
      ],
      "name": "supportsInterface",
      "outputs": [
        {
          "internalType": "bool",
          "name": "",
          "type": "bool"
        }
      ],
      "stateMutability": "view",
      "type": "function"
    },
    {
      "inputs": [],
      "name": "totalOngoingRentalTime",
      "outputs": [
        {
          "internalType": "uint256",
          "name": "",
          "type": "uint256"
        }
      ],
      "stateMutability": "view",
      "type": "function"
    },
    {
      "inputs": [
        {
          "internalType": "address",
          "name": "newOwner",
          "type": "address"
        }
      ],
      "name": "transferOwnership",
      "outputs": [],
      "stateMutability": "nonpayable",
      "type": "function"
    }
  ],
  "bytecode": "0x60e06040523480156200001157600080fd5b50604051620036ff380380620036ff8339810160408190526200003491620003a1565b898989898989898989898080336200005781620000506200024a565b9062000280565b506001600160a01b039081166080528b1690506200008857604051639ae269af60e01b815260040160405180910390fd5b6001600160a01b03808b1660c0528916620000b65760405163a276d54960e01b815260040160405180910390fd5b6001600160a01b0389811660a052600080546001600160a01b031916918a1691821790556040519081527fd99014e6f6a21a1f7025e1599288b52168db6241486596946f759a520d4ddfea9060200160405180910390a16002879055600386905560408051888152602081018890527f788db483524e27f5a39a54daaeb81bb48059af776767d0c1f600ef6e996d2818910160405180910390a160048590556040518581527f7d9d1c986503049ed25e197e416ddaeef53d62a8479d6371784f05a9d9da98249060200160405180910390a160058490556040518481527fb4f38443948b39b669154b83689d2dfa2a4cb2b1fd458118da3d1bcdacfc56089060200160405180910390a160068390556040518381527faa06aa6d79ce3cb966afe332af120b3aa8252dc355d1d2dae1368babec5f3ee59060200160405180910390a160018290556040518281527fb8b290c068ed53e46165f3ca5215dcc2972ae26ae4c8fb5adc71a1c135f855139060200160405180910390a150505050505050505050505050505050505050506200046a565b6000806200027a60017fc9ed16f33ab3a66c84bfd83099ccb2a8845871e2e1c1928f63797152f0fd54cd62000448565b92915050565b6001600160a01b03811615620002d75781546001600160a01b0319166001600160a01b03821690811783556040516000907f8be0079c531659141344cd1fd0a4f28419497f9722a3daafe3b4186f6b6457e0908290a35b620002f76307f5828d60e41b6001620002ef620002fb565b91906200032b565b5050565b6000806200027a60017fca9d3e17f264b0f3984e2634e94adb37fa3e6a8103f06aeae6fa59e21c769f5e62000448565b600160e01b6001600160e01b03198316016200035a576040516372c683bb60e01b815260040160405180910390fd5b6001600160e01b03199190911660009081526020929092526040909120805460ff1916911515919091179055565b6001600160a01b03811681146200039e57600080fd5b50565b6000806000806000806000806000806101408b8d031215620003c257600080fd5b8a51620003cf8162000388565b60208c0151909a50620003e28162000388565b60408c0151909950620003f58162000388565b8098505060608b0151965060808b0151955060a08b0151945060c08b0151935060e08b015192506101008b015191506101208b0151620004358162000388565b809150509295989b9194979a5092959850565b818103818111156200027a57634e487b7160e01b600052601160045260246000fd5b60805160a05160c05161321f620004e0600039600081816102db01528181610a1701528181610b6701528181611d3d0152611e0c01526000818161044c0152610e68015260008181610359015281816103db01528181612647015281816126cf0152818161278201526127c0015261321f6000f3fe608060405234801561001057600080fd5b50600436106102925760003560e01c80638ecd7b7311610160578063d547741f116100d8578063f5b541a61161008c578063f7ba94bd11610071578063f7ba94bd1461060f578063f7df6bad14610622578063fb203c171461063557600080fd5b8063f5b541a6146105df578063f70321941461060657600080fd5b8063e105c43c116100bd578063e105c43c146105a6578063e4f095d9146105b9578063f2fde38b146105cc57600080fd5b8063d547741f1461056c578063dd2861771461057f57600080fd5b8063b07ed9821161012f578063b65dd45111610114578063b65dd45114610531578063c3666c3614610544578063c4c2bfdc1461055757600080fd5b8063b07ed98214610515578063b2b47e3b1461052857600080fd5b80638ecd7b731461049c57806391d14854146104af578063a5f73758146104c2578063af94a1d1146104cb57600080fd5b806350f7c2041161020e5780637ce4026f116101c257806388b681fe116101a757806388b681fe1461046e5780638bb9c5bf146104815780638da5cb5b1461049457600080fd5b80637ce4026f1461043e5780637f6e42811461044757600080fd5b8063572b6c05116101f3578063572b6c05146103cb57806370243bcc1461041857806373c8a9581461042b57600080fd5b806350f7c204146103af5780635625ac51146103b857600080fd5b806321d42816116102655780632f2ff15d1161024a5780632f2ff15d1461037d57806331e66e1e1461039057806334f1a8d3146103a657600080fd5b806321d42816146103425780632b4c9f161461035757600080fd5b806301ffc9a71461029757806304660449146102bf57806315e682cb146102d65780631aabc61d14610322575b600080fd5b6102aa6102a5366004612b66565b610648565b60405190151581526020015b60405180910390f35b6102c860025481565b6040519081526020016102b6565b6102fd7f000000000000000000000000000000000000000000000000000000000000000081565b60405173ffffffffffffffffffffffffffffffffffffffff90911681526020016102b6565b6000546102fd9073ffffffffffffffffffffffffffffffffffffffff1681565b610355610350366004612bf4565b610662565b005b7f00000000000000000000000000000000000000000000000000000000000000006102fd565b61035561038b366004612cb9565b610f2b565b610398610f64565b6040516102b6929190612ce9565b6102c860045481565b6102c860015481565b6103556103c6366004612d36565b610f77565b6102aa6103d9366004612d58565b7f000000000000000000000000000000000000000000000000000000000000000073ffffffffffffffffffffffffffffffffffffffff90811691161490565b6102c8610426366004612d75565b610ff9565b610355610439366004612db7565b611088565b6102c860055481565b6102fd7f000000000000000000000000000000000000000000000000000000000000000081565b61035561047c366004612d75565b611186565b61035561048f366004612e51565b6111b3565b6102fd6111d1565b6102c86104aa366004612e51565b6111fd565b6102aa6104bd366004612cb9565b611291565b6102c860085481565b6104fa6104d9366004612e51565b60076020526000908152604090208054600182015460029092015490919083565b604080519384526020840192909252908201526060016102b6565b610355610523366004612e51565b6112dc565b6102c860035481565b61035561053f366004612e51565b611344565b610355610552366004612db7565b6113a5565b61055f61151d565b6040516102b69190612ed8565b61035561057a366004612cb9565b6115ab565b6102c87f0e67d2d2c46f23cfff9f76c16187348901bf73ba32dcf6893f2a2a4b25be75f881565b6102c86105b4366004612db7565b6115d9565b6103556105c7366004612e51565b6118f3565b6103556105da366004612d58565b611954565b6102c87f97667070c54ef182b0f5858b034beac1b6f3089aa2d3188bb1e8929f4fa9b92981565b6102c860065481565b61035561061d366004612eeb565b61196f565b610355610630366004612d58565b611a2e565b610355610643366004612e51565b611acd565b600061065c82610656611b2e565b90611b5c565b92915050565b60008787808060200260200160405190810160405280939291908181526020018383602002808284376000920182905250604080516020808d0282810182019093528c825296975091959194508b93508a92508291850190849080828437600092019190915250508251855193945092909214915061070f9050576040517f6582533600000000000000000000000000000000000000000000000000000000815260040160405180910390fd5b6006548251111561074c576040517f2273ee1800000000000000000000000000000000000000000000000000000000815260040160405180910390fd5b42600061075b87878484611c36565b6008546107689190612f86565b90506000610775826111fd565b90506000610781611f5e565b90506000865167ffffffffffffffff81111561079f5761079f612f99565b6040519080825280602002602001820160405280156107c8578160200160208202803683370190505b5090506000875167ffffffffffffffff8111156107e7576107e7612f99565b604051908082528060200260200182016040528015610810578160200160208202803683370190505b5090506000885167ffffffffffffffff81111561082f5761082f612f99565b604051908082528060200260200182016040528015610858578160200160208202803683370190505b5090506000805b8a51811015610da15760008b828151811061087c5761087c612fc8565b6020026020010151905060008b838151811061089a5761089a612fc8565b60200260200101519050816000036108e6576040517f8ce0857d000000000000000000000000000000000000000000000000000000008152600060048201526024015b60405180910390fd5b600154821115610925576040517f8ce0857d000000000000000000000000000000000000000000000000000000008152600481018390526024016108dd565b600554811115610964576040517fb479b655000000000000000000000000000000000000000000000000000000008152600481018390526024016108dd565b60008281526007602052604081206001810154909103610b38576004548210156109bd576040517f508a9a3a000000000000000000000000000000000000000000000000000000008152600481018490526024016108dd565b6040517f8832e6e300000000000000000000000000000000000000000000000000000000815273ffffffffffffffffffffffffffffffffffffffff8a811660048301526024820185905260606044830152600060648301527f00000000000000000000000000000000000000000000000000000000000000001690638832e6e390608401600060405180830381600087803b158015610a5b57600080fd5b505af1158015610a6f573d6000803e3d6000fd5b5050508c8255506000610a82838e612ff7565b60018301819055600354600254919250600091610a9f908661300a565b610aa99190613021565b610ab3908d612ff7565b600284018190559050610ac68188612ff7565b9650610ad2848e612ff7565b9c508d8a8781518110610ae757610ae7612fc8565b60200260200101818152505081898781518110610b0657610b06612fc8565b60200260200101818152505080888781518110610b2557610b25612fc8565b6020026020010181815250505050610d96565b6040517f6352211e000000000000000000000000000000000000000000000000000000008152600481018490527f000000000000000000000000000000000000000000000000000000000000000073ffffffffffffffffffffffffffffffffffffffff1690636352211e90602401602060405180830381865afa158015610bc3573d6000803e3d6000fd5b505050506040513d601f19601f82011682018060405250810190610be7919061305c565b73ffffffffffffffffffffffffffffffffffffffff168973ffffffffffffffffffffffffffffffffffffffff16148015610c24575080600101548c105b15610d61576000610c35838e612ff7565b6001830154600454919250908190610c4d9084612f86565b1015610c88576040517f508a9a3a000000000000000000000000000000000000000000000000000000008152600481018690526024016108dd565b6000610c948284612f86565b60018501849055600354600254919250600091610cb1908461300a565b610cbb9190613021565b610cc5908f612ff7565b905080856002016000828254610cdb9190612ff7565b90915550610ceb9050818a612ff7565b9850818f610cf99190612ff7565b9e50828c8981518110610d0e57610d0e612fc8565b602002602001018181525050838b8981518110610d2d57610d2d612fc8565b602002602001018181525050808a8981518110610d4c57610d4c612fc8565b60200260200101818152505050505050610d96565b6040517f139d6799000000000000000000000000000000000000000000000000000000008152600481018490526024016108dd565b50505060010161085f565b508a15801590610db057508a81115b15610df1576040517fd519701100000000000000000000000000000000000000000000000000000000815260048101829052602481018c90526044016108dd565b60088790556040517f212aac7900000000000000000000000000000000000000000000000000000000815273ffffffffffffffffffffffffffffffffffffffff8681166004830152602482018390527f0e67d2d2c46f23cfff9f76c16187348901bf73ba32dcf6893f2a2a4b25be75f860448301527f0000000000000000000000000000000000000000000000000000000000000000169063212aac7990606401600060405180830381600087803b158015610eac57600080fd5b505af1158015610ec0573d6000803e3d6000fd5b505050508473ffffffffffffffffffffffffffffffffffffffff167f34a3f395b50735b2b7b8f7ece79da6b46efdb3f0aeb0eb5871dcff84354d03758b868686604051610f1094939291906130b5565b60405180910390a25050505050505050505050505050505050565b6000610f35611f5e565b9050610f4981610f43611f68565b90611f96565b610f5f838383610f57612005565b929190612033565b505050565b366000610f6f61210a565b915091509091565b610fb27f97667070c54ef182b0f5858b034beac1b6f3089aa2d3188bb1e8929f4fa9b929610fa3611f5e565b610fab612005565b9190612115565b6002829055600381905560408051838152602081018390527f788db483524e27f5a39a54daaeb81bb48059af776767d0c1f600ef6e996d2818910160405180910390a15050565b600042815b8381101561108057600085858381811061101a5761101a612fc8565b90506020020135905060006007600083815260200190815260200160002090508060010154600014158015611053575080600101548410155b1561107657805460018201546110699190612f86565b6110739086612ff7565b94505b5050600101610ffe565b505092915050565b61109b611093611f5e565b610f43611f68565b8483811415806110ab5750808214155b156110e2576040517f6582533600000000000000000000000000000000000000000000000000000000815260040160405180910390fd5b60005b8181101561117c5761117488888381811061110257611102612fc8565b90506020020160208101906111179190612d58565b85858481811061112957611129612fc8565b9050602002013588888581811061114257611142612fc8565b90506020020160208101906111579190612d58565b73ffffffffffffffffffffffffffffffffffffffff16919061219b565b6001016110e5565b5050505050505050565b60006111958383426001611c36565b905080600860008282546111a99190612f86565b9091555050505050565b6111ce6111be611f5e565b826111c7612005565b9190612228565b50565b60006111f86111de611f68565b5473ffffffffffffffffffffffffffffffffffffffff1690565b905090565b600080546040517fae1042650000000000000000000000000000000000000000000000000000000081526004810184905273ffffffffffffffffffffffffffffffffffffffff9091169063ae10426590602401602060405180830381865afa15801561126d573d6000803e3d6000fd5b505050506040513d601f19601f8201168201806040525081019061065c9190613102565b60006112d583836112a0612005565b60009283526020908152604080842073ffffffffffffffffffffffffffffffffffffffff909316845291905290205460ff1690565b9392505050565b6113087f97667070c54ef182b0f5858b034beac1b6f3089aa2d3188bb1e8929f4fa9b929610fa3611f5e565b60018190556040518181527fb8b290c068ed53e46165f3ca5215dcc2972ae26ae4c8fb5adc71a1c135f85513906020015b60405180910390a150565b6113707f97667070c54ef182b0f5858b034beac1b6f3089aa2d3188bb1e8929f4fa9b929610fa3611f5e565b60068190556040518181527faa06aa6d79ce3cb966afe332af120b3aa8252dc355d1d2dae1368babec5f3ee590602001611339565b6113b0611093611f5e565b8483811415806113c05750808214155b156113f7576040517f6582533600000000000000000000000000000000000000000000000000000000815260040160405180910390fd5b60005b8181101561117c5785858281811061141457611414612fc8565b90506020020160208101906114299190612d58565b73ffffffffffffffffffffffffffffffffffffffff166323b872dd308a8a8581811061145757611457612fc8565b905060200201602081019061146c9190612d58565b87878681811061147e5761147e612fc8565b6040517fffffffff0000000000000000000000000000000000000000000000000000000060e088901b16815273ffffffffffffffffffffffffffffffffffffffff958616600482015294909316602485015250602090910201356044820152606401600060405180830381600087803b1580156114fa57600080fd5b505af115801561150e573d6000803e3d6000fd5b505050508060010190506113fa565b6009805461152a9061311b565b80601f01602080910402602001604051908101604052809291908181526020018280546115569061311b565b80156115a35780601f10611578576101008083540402835291602001916115a3565b820191906000526020600020905b81548152906001019060200180831161158657829003601f168201915b505050505081565b60006115b5611f5e565b90506115c381610f43611f68565b610f5f8383836115d1612005565b9291906122cc565b6000858414611614576040517f6582533600000000000000000000000000000000000000000000000000000000815260040160405180910390fd5b600654861115611650576040517f2273ee1800000000000000000000000000000000000000000000000000000000815260040160405180910390fd5b42600061165d8585610ff9565b90506000611672826008546104aa9190612f86565b90506000805b8a8110156118cf5760008a8a8381811061169457611694612fc8565b90506020020135905060008d8d848181106116b1576116b1612fc8565b905060200201359050806000036116f7576040517f8ce0857d000000000000000000000000000000000000000000000000000000008152600060048201526024016108dd565b600154811115611736576040517f8ce0857d000000000000000000000000000000000000000000000000000000008152600481018290526024016108dd565b600554821115611775576040517fb479b655000000000000000000000000000000000000000000000000000000008152600481018290526024016108dd565b60008181526007602090815260409182902082516060810184528154815260018201549281018390526002909101549281019290925215806117bb575080602001518810155b1561182a576004548310156117ff576040517f508a9a3a000000000000000000000000000000000000000000000000000000008152600481018390526024016108dd565b60035460025461180f908561300a565b6118199190613021565b6118239086612ff7565b94506118c4565b6000611836848a612ff7565b905081602001516004548261184b9190612f86565b1015611886576040517f508a9a3a000000000000000000000000000000000000000000000000000000008152600481018490526024016108dd565b60008260200151826118989190612f86565b9050600354600254826118ab919061300a565b6118b59190613021565b6118bf9088612ff7565b965050505b505050600101611678565b506118da8a8361300a565b6118e49082612ff7565b9b9a5050505050505050505050565b61191f7f97667070c54ef182b0f5858b034beac1b6f3089aa2d3188bb1e8929f4fa9b929610fa3611f5e565b60058190556040518181527fb4f38443948b39b669154b83689d2dfa2a4cb2b1fd458118da3d1bcdacfc560890602001611339565b6111ce61195f611f5e565b82611968611f68565b9190612396565b61197a611093611f5e565b828181146119b4576040517f6582533600000000000000000000000000000000000000000000000000000000815260040160405180910390fd5b60005b81811015611a2657611a1e8484838181106119d4576119d4612fc8565b905060200201358787848181106119ed576119ed612fc8565b9050602002016020810190611a029190612d58565b73ffffffffffffffffffffffffffffffffffffffff16906124aa565b6001016119b7565b505050505050565b611a5a7f97667070c54ef182b0f5858b034beac1b6f3089aa2d3188bb1e8929f4fa9b929610fa3611f5e565b600080547fffffffffffffffffffffffff00000000000000000000000000000000000000001673ffffffffffffffffffffffffffffffffffffffff83169081179091556040519081527fd99014e6f6a21a1f7025e1599288b52168db6241486596946f759a520d4ddfea90602001611339565b611af97f97667070c54ef182b0f5858b034beac1b6f3089aa2d3188bb1e8929f4fa9b929610fa3611f5e565b60048190556040518181527f7d9d1c986503049ed25e197e416ddaeef53d62a8479d6371784f05a9d9da982490602001611339565b60008061065c60017fca9d3e17f264b0f3984e2634e94adb37fa3e6a8103f06aeae6fa59e21c769f5e612f86565b60007c01000000000000000000000000000000000000000000000000000000007fffffffff00000000000000000000000000000000000000000000000000000000831601611bac5750600061065c565b7ffe003659000000000000000000000000000000000000000000000000000000007fffffffff00000000000000000000000000000000000000000000000000000000831601611bfd5750600161065c565b507fffffffff00000000000000000000000000000000000000000000000000000000166000908152602091909152604090205460ff1690565b6000808467ffffffffffffffff811115611c5257611c52612f99565b604051908082528060200260200182016040528015611c7b578160200160208202803683370190505b5090506000805b86811015611ed8576000888883818110611c9e57611c9e612fc8565b90506020020135905060006007600083815260200190815260200160002090508060010154600014158015611cd7575080600101548810155b15611e935780546001820154611ced9190612f86565b611cf79087612ff7565b600080835560018301819055600283018190556040517f6352211e00000000000000000000000000000000000000000000000000000000815260048101859052919750907f000000000000000000000000000000000000000000000000000000000000000073ffffffffffffffffffffffffffffffffffffffff1690636352211e90602401602060405180830381865afa158015611d99573d6000803e3d6000fd5b505050506040513d601f19601f82011682018060405250810190611dbd919061305c565b6040517f79cc679000000000000000000000000000000000000000000000000000000000815273ffffffffffffffffffffffffffffffffffffffff8083166004830152602482018690529192507f0000000000000000000000000000000000000000000000000000000000000000909116906379cc679090604401600060405180830381600087803b158015611e5257600080fd5b505af1158015611e66573d6000803e3d6000fd5b5050505082868581518110611e7d57611e7d612fc8565b6020026020010181815250506001945050611ece565b8615611ece576040517f9be5764a000000000000000000000000000000000000000000000000000000008152600481018390526024016108dd565b5050600101611c82565b508015611f1b577f9e5430727c5f2b23597e7cb2670240cc8fbb4031a0dad53562812b380e286b3d82604051611f0e919061316e565b60405180910390a1611f53565b8315611f53576040517f8c59e32400000000000000000000000000000000000000000000000000000000815260040160405180910390fd5b50505b949350505050565b60006111f8612604565b60008061065c60017fc9ed16f33ab3a66c84bfd83099ccb2a8845871e2e1c1928f63797152f0fd54cd612f86565b815473ffffffffffffffffffffffffffffffffffffffff828116911614612001576040517f2ef4875e00000000000000000000000000000000000000000000000000000000815273ffffffffffffffffffffffffffffffffffffffff821660048201526024016108dd565b5050565b60008061065c60017fc8827d3282af6f37b64c3e9e6f3ac9df286ab0bb0fccd6f8661bf19adb368b23612f86565b60008381526020858152604080832073ffffffffffffffffffffffffffffffffffffffff8616845290915290205460ff166121045760008381526020858152604080832073ffffffffffffffffffffffffffffffffffffffff8681168086529184529382902080547fffffffffffffffffffffffffffffffffffffffffffffffffffffffffffffff00166001179055815187815292830152918316918101919091527f2f8788117e7eff1d82e926ec794901d17c78024a50270940304540a733656f0d906060015b60405180910390a15b50505050565b366000610f6f61274b565b60008281526020848152604080832073ffffffffffffffffffffffffffffffffffffffff8516845290915290205460ff16610f5f576040517f7aa728820000000000000000000000000000000000000000000000000000000081526004810183905273ffffffffffffffffffffffffffffffffffffffff821660248201526044016108dd565b6040805173ffffffffffffffffffffffffffffffffffffffff8416602482015260448082018490528251808303909101815260649091019091526020810180517bffffffffffffffffffffffffffffffffffffffffffffffffffffffff167fa9059cbb00000000000000000000000000000000000000000000000000000000179052610f5f9084906128b5565b612233838284612115565b60008181526020848152604080832073ffffffffffffffffffffffffffffffffffffffff86168085529083529281902080547fffffffffffffffffffffffffffffffffffffffffffffffffffffffffffffff0016905580518481529182018390528101919091527ff6391f5c32d9c69d2a47ea670b442974b53935d1edc7fd64eb21e047a839171b9060600160405180910390a1505050565b60008381526020858152604080832073ffffffffffffffffffffffffffffffffffffffff8616845290915290205460ff16156121045760008381526020858152604080832073ffffffffffffffffffffffffffffffffffffffff8681168086529184529382902080547fffffffffffffffffffffffffffffffffffffffffffffffffffffffffffffff00169055815187815292830152918316918101919091527ff6391f5c32d9c69d2a47ea670b442974b53935d1edc7fd64eb21e047a839171b906060016120fb565b825473ffffffffffffffffffffffffffffffffffffffff9081169083168114612403576040517f2ef4875e00000000000000000000000000000000000000000000000000000000815273ffffffffffffffffffffffffffffffffffffffff841660048201526024016108dd565b8173ffffffffffffffffffffffffffffffffffffffff168173ffffffffffffffffffffffffffffffffffffffff16146121045783547fffffffffffffffffffffffff00000000000000000000000000000000000000001673ffffffffffffffffffffffffffffffffffffffff8381169182178655604051908316907f8be0079c531659141344cd1fd0a4f28419497f9722a3daafe3b4186f6b6457e090600090a350505050565b80471015612514576040517f08c379a000000000000000000000000000000000000000000000000000000000815260206004820152601d60248201527f416464726573733a20696e73756666696369656e742062616c616e636500000060448201526064016108dd565b60008273ffffffffffffffffffffffffffffffffffffffff168260405160006040518083038185875af1925050503d806000811461256e576040519150601f19603f3d011682016040523d82523d6000602084013e612573565b606091505b5050905080610f5f576040517f08c379a000000000000000000000000000000000000000000000000000000000815260206004820152603a60248201527f416464726573733a20756e61626c6520746f2073656e642076616c75652c207260448201527f6563697069656e74206d6179206861766520726576657274656400000000000060648201526084016108dd565b6000333214806126145750601836105b1561261e57503390565b7fffffffffffffffffffffffffffffffffffffffffffffffffffffffffffffffec36013560601c7f000000000000000000000000000000000000000000000000000000000000000073ffffffffffffffffffffffffffffffffffffffff1633148061273a57506040517f8929a8ca00000000000000000000000000000000000000000000000000000000815273ffffffffffffffffffffffffffffffffffffffff82811660048301523360248301527f00000000000000000000000000000000000000000000000000000000000000001690638929a8ca90604401602060405180830381865afa158015612716573d6000803e3d6000fd5b505050506040513d601f19601f8201168201806040525081019061273a9190613181565b1561274457919050565b3391505090565b3660003332148061275c5750601836105b1561276a5750600091369150565b3373ffffffffffffffffffffffffffffffffffffffff7f000000000000000000000000000000000000000000000000000000000000000016148061289f575073ffffffffffffffffffffffffffffffffffffffff7f000000000000000000000000000000000000000000000000000000000000000016638929a8ca367fffffffffffffffffffffffffffffffffffffffffffffffffffffffffffffffec013560601c6040517fffffffff0000000000000000000000000000000000000000000000000000000060e084901b16815273ffffffffffffffffffffffffffffffffffffffff9091166004820152336024820152604401602060405180830381865afa15801561287b573d6000803e3d6000fd5b505050506040513d601f19601f8201168201806040525081019061289f9190613181565b156128ac57610f6f6129c4565b50600091369150565b6000612917826040518060400160405280602081526020017f5361666545524332303a206c6f772d6c6576656c2063616c6c206661696c65648152508573ffffffffffffffffffffffffffffffffffffffff166129f59092919063ffffffff16565b90508051600014806129385750808060200190518101906129389190613181565b610f5f576040517f08c379a000000000000000000000000000000000000000000000000000000000815260206004820152602a60248201527f5361666545524332303a204552433230206f7065726174696f6e20646964206e60448201527f6f7420737563636565640000000000000000000000000000000000000000000060648201526084016108dd565b366000610f6f7fffffffffffffffffffffffffffffffffffffffffffffffffffffffffffffffec83018284816131a3565b6060611f568484600085856000808673ffffffffffffffffffffffffffffffffffffffff168587604051612a2991906131cd565b60006040518083038185875af1925050503d8060008114612a66576040519150601f19603f3d011682016040523d82523d6000602084013e612a6b565b606091505b5091509150612a7c87838387612a87565b979650505050505050565b60608315612b1d578251600003612b165773ffffffffffffffffffffffffffffffffffffffff85163b612b16576040517f08c379a000000000000000000000000000000000000000000000000000000000815260206004820152601d60248201527f416464726573733a2063616c6c20746f206e6f6e2d636f6e747261637400000060448201526064016108dd565b5081611f56565b611f568383815115612b325781518083602001fd5b806040517f08c379a00000000000000000000000000000000000000000000000000000000081526004016108dd9190612ed8565b600060208284031215612b7857600080fd5b81357fffffffff00000000000000000000000000000000000000000000000000000000811681146112d557600080fd5b60008083601f840112612bba57600080fd5b50813567ffffffffffffffff811115612bd257600080fd5b6020830191508360208260051b8501011115612bed57600080fd5b9250929050565b60008060008060008060006080888a031215612c0f57600080fd5b873567ffffffffffffffff80821115612c2757600080fd5b612c338b838c01612ba8565b909950975060208a0135915080821115612c4c57600080fd5b612c588b838c01612ba8565b909750955060408a0135915080821115612c7157600080fd5b50612c7e8a828b01612ba8565b989b979a50959894979596606090950135949350505050565b73ffffffffffffffffffffffffffffffffffffffff811681146111ce57600080fd5b60008060408385031215612ccc57600080fd5b823591506020830135612cde81612c97565b809150509250929050565b60208152816020820152818360408301376000818301604090810191909152601f9092017fffffffffffffffffffffffffffffffffffffffffffffffffffffffffffffffe0160101919050565b60008060408385031215612d4957600080fd5b50508035926020909101359150565b600060208284031215612d6a57600080fd5b81356112d581612c97565b60008060208385031215612d8857600080fd5b823567ffffffffffffffff811115612d9f57600080fd5b612dab85828601612ba8565b90969095509350505050565b60008060008060008060608789031215612dd057600080fd5b863567ffffffffffffffff80821115612de857600080fd5b612df48a838b01612ba8565b90985096506020890135915080821115612e0d57600080fd5b612e198a838b01612ba8565b90965094506040890135915080821115612e3257600080fd5b50612e3f89828a01612ba8565b979a9699509497509295939492505050565b600060208284031215612e6357600080fd5b5035919050565b60005b83811015612e85578181015183820152602001612e6d565b50506000910152565b60008151808452612ea6816020860160208601612e6a565b601f017fffffffffffffffffffffffffffffffffffffffffffffffffffffffffffffffe0169290920160200192915050565b6020815260006112d56020830184612e8e565b60008060008060408587031215612f0157600080fd5b843567ffffffffffffffff80821115612f1957600080fd5b612f2588838901612ba8565b90965094506020870135915080821115612f3e57600080fd5b50612f4b87828801612ba8565b95989497509550505050565b7f4e487b7100000000000000000000000000000000000000000000000000000000600052601160045260246000fd5b8181038181111561065c5761065c612f57565b7f4e487b7100000000000000000000000000000000000000000000000000000000600052604160045260246000fd5b7f4e487b7100000000000000000000000000000000000000000000000000000000600052603260045260246000fd5b8082018082111561065c5761065c612f57565b808202811582820484141761065c5761065c612f57565b600082613057577f4e487b7100000000000000000000000000000000000000000000000000000000600052601260045260246000fd5b500490565b60006020828403121561306e57600080fd5b81516112d581612c97565b60008151808452602080850194506020840160005b838110156130aa5781518752958201959082019060010161308e565b509495945050505050565b6080815260006130c86080830187613079565b82810360208401526130da8187613079565b905082810360408401526130ee8186613079565b90508281036060840152612a7c8185613079565b60006020828403121561311457600080fd5b5051919050565b600181811c9082168061312f57607f821691505b602082108103613168577f4e487b7100000000000000000000000000000000000000000000000000000000600052602260045260246000fd5b50919050565b6020815260006112d56020830184613079565b60006020828403121561319357600080fd5b815180151581146112d557600080fd5b600080858511156131b357600080fd5b838611156131c057600080fd5b5050820193919092039150565b600082516131df818460208701612e6a565b919091019291505056fea2646970667358221220e917e770122642f049631ec7253a23293bc26b527b74291a859c5f494e98976d64736f6c63430008160033",
  "linkReferences": {},
  "deployedLinkReferences": {}
}