{
  "_format": "hh-sol-artifact-1",
  "contractName": "EDULandRentalMock",
  "sourceName": "contracts/mocks/land/EDULandRentalMock.sol",
  "abi": [
    {
      "inputs": [
        {
          "internalType": "address",
          "name": "nodeKeyAddress",
          "type": "address"
        },
        {
          "internalType": "address",
          "name": "pointsAddress",
          "type": "address"
        },
        {
          "internalType": "address",
          "name": "rentalFeeHelperAddress",
          "type": "address"
        },
        {
          "internalType": "uint256",
          "name": "maintenceFee_",
          "type": "uint256"
        },
        {
          "internalType": "uint256",
          "name": "maintenanceFeeDenominator_",
          "type": "uint256"
        },
        {
          "internalType": "uint256",
          "name": "minRentalDuration_",
          "type": "uint256"
        },
        {
          "internalType": "uint256",
          "name": "maxRentalDuration_",
          "type": "uint256"
        },
        {
          "internalType": "uint256",
          "name": "maxRentalCountPerCall_",
          "type": "uint256"
        },
        {
          "internalType": "uint256",
          "name": "maxTokenSupply_",
          "type": "uint256"
        },
        {
          "internalType": "contract IForwarderRegistry",
          "name": "forwarderRegistry",
          "type": "address"
        }
      ],
      "stateMutability": "nonpayable",
      "type": "constructor"
    },
    {
      "inputs": [
        {
          "internalType": "uint256",
          "name": "calculatedFee",
          "type": "uint256"
        },
        {
          "internalType": "uint256",
          "name": "maxFee",
          "type": "uint256"
        }
      ],
      "name": "FeeExceeded",
      "type": "error"
    },
    {
      "inputs": [],
      "name": "IllegalInterfaceId",
      "type": "error"
    },
    {
      "inputs": [],
      "name": "InconsistentArrayLengths",
      "type": "error"
    },
    {
      "inputs": [],
      "name": "InvalidTokenIdsParam",
      "type": "error"
    },
    {
      "inputs": [
        {
          "internalType": "address",
          "name": "account",
          "type": "address"
        }
      ],
      "name": "NotContractOwner",
      "type": "error"
    },
    {
      "inputs": [
        {
          "internalType": "bytes32",
          "name": "role",
          "type": "bytes32"
        },
        {
          "internalType": "address",
          "name": "account",
          "type": "address"
        }
      ],
      "name": "NotRoleHolder",
      "type": "error"
    },
    {
      "inputs": [],
      "name": "RentalCountPerCallLimitExceeded",
      "type": "error"
    },
    {
      "inputs": [
        {
          "internalType": "uint256",
          "name": "tokenId",
          "type": "uint256"
        }
      ],
      "name": "RentalDurationTooHigh",
      "type": "error"
    },
    {
      "inputs": [
        {
          "internalType": "uint256",
          "name": "tokenId",
          "type": "uint256"
        }
      ],
      "name": "RentalDurationTooLow",
      "type": "error"
    },
    {
      "inputs": [
        {
          "internalType": "uint256",
          "name": "tokenId",
          "type": "uint256"
        }
      ],
      "name": "TokenAlreadyRented",
      "type": "error"
    },
    {
      "inputs": [
        {
          "internalType": "uint256",
          "name": "tokenId",
          "type": "uint256"
        }
      ],
      "name": "TokenNotExpired",
      "type": "error"
    },
    {
      "inputs": [
        {
          "internalType": "uint256",
          "name": "tokenId",
          "type": "uint256"
        }
      ],
      "name": "TokenNotRented",
      "type": "error"
    },
    {
      "inputs": [
        {
          "internalType": "uint256",
          "name": "tokenId",
          "type": "uint256"
        }
      ],
      "name": "UnsupportedTokenId",
      "type": "error"
    },
    {
      "anonymous": false,
      "inputs": [
        {
          "indexed": false,
          "internalType": "uint256[]",
          "name": "tokenIds",
          "type": "uint256[]"
        }
      ],
      "name": "Collected",
      "type": "event"
    },
    {
      "anonymous": false,
      "inputs": [
        {
          "indexed": false,
          "internalType": "address",
          "name": "newRentalFeeHelper",
          "type": "address"
        }
      ],
      "name": "LandPriceHelperUpdated",
      "type": "event"
    },
    {
      "anonymous": false,
      "inputs": [
        {
          "indexed": false,
          "internalType": "uint256",
          "name": "newMaintenanceFee",
          "type": "uint256"
        },
        {
          "indexed": false,
          "internalType": "uint256",
          "name": "newMaintenanceFeeDenominator",
          "type": "uint256"
        }
      ],
      "name": "MaintenanceFeeUpdated",
      "type": "event"
    },
    {
      "anonymous": false,
      "inputs": [
        {
          "indexed": false,
          "internalType": "uint256",
          "name": "newMaxRentalCountPerCall",
          "type": "uint256"
        }
      ],
      "name": "MaxRentalCountPerCallUpdated",
      "type": "event"
    },
    {
      "anonymous": false,
      "inputs": [
        {
          "indexed": false,
          "internalType": "uint256",
          "name": "newMaxRentalDuration",
          "type": "uint256"
        }
      ],
      "name": "MaxRentalDurationUpdated",
      "type": "event"
    },
    {
      "anonymous": false,
      "inputs": [
        {
          "indexed": false,
          "internalType": "uint256",
          "name": "newMaxTokenSupply",
          "type": "uint256"
        }
      ],
      "name": "MaxTokenSupplyUpdated",
      "type": "event"
    },
    {
      "anonymous": false,
      "inputs": [
        {
          "indexed": false,
          "internalType": "uint256",
          "name": "newMinRentalDuration",
          "type": "uint256"
        }
      ],
      "name": "MinRentalDurationUpdated",
      "type": "event"
    },
    {
      "anonymous": false,
      "inputs": [
        {
          "indexed": true,
          "internalType": "address",
          "name": "previousOwner",
          "type": "address"
        },
        {
          "indexed": true,
          "internalType": "address",
          "name": "newOwner",
          "type": "address"
        }
      ],
      "name": "OwnershipTransferred",
      "type": "event"
    },
    {
      "anonymous": false,
      "inputs": [
        {
          "indexed": true,
          "internalType": "address",
          "name": "renter",
          "type": "address"
        },
        {
          "indexed": false,
          "internalType": "uint256[]",
          "name": "tokenIds",
          "type": "uint256[]"
        },
        {
          "components": [
            {
              "internalType": "uint256",
              "name": "beginDate",
              "type": "uint256"
            },
            {
              "internalType": "uint256",
              "name": "endDate",
              "type": "uint256"
            },
            {
              "internalType": "uint256",
              "name": "fee",
              "type": "uint256"
            }
          ],
          "indexed": false,
          "internalType": "struct EDULandRental.RentalInfo[]",
          "name": "rentals",
          "type": "tuple[]"
        }
      ],
      "name": "Rental",
      "type": "event"
    },
    {
      "anonymous": false,
      "inputs": [
        {
          "indexed": false,
          "internalType": "bytes32",
          "name": "role",
          "type": "bytes32"
        },
        {
          "indexed": false,
          "internalType": "address",
          "name": "account",
          "type": "address"
        },
        {
          "indexed": false,
          "internalType": "address",
          "name": "operator",
          "type": "address"
        }
      ],
      "name": "RoleGranted",
      "type": "event"
    },
    {
      "anonymous": false,
      "inputs": [
        {
          "indexed": false,
          "internalType": "bytes32",
          "name": "role",
          "type": "bytes32"
        },
        {
          "indexed": false,
          "internalType": "address",
          "name": "account",
          "type": "address"
        },
        {
          "indexed": false,
          "internalType": "address",
          "name": "operator",
          "type": "address"
        }
      ],
      "name": "RoleRevoked",
      "type": "event"
    },
    {
      "inputs": [],
      "name": "EDU_LAND",
      "outputs": [
        {
          "internalType": "contract IEDULand",
          "name": "",
          "type": "address"
        }
      ],
      "stateMutability": "view",
      "type": "function"
    },
    {
      "inputs": [],
      "name": "OPERATOR_ROLE",
      "outputs": [
        {
          "internalType": "bytes32",
          "name": "",
          "type": "bytes32"
        }
      ],
      "stateMutability": "view",
      "type": "function"
    },
    {
      "inputs": [],
      "name": "POINTS",
      "outputs": [
        {
          "internalType": "contract Points",
          "name": "",
          "type": "address"
        }
      ],
      "stateMutability": "view",
      "type": "function"
    },
    {
      "inputs": [],
      "name": "RENTAL_CONSUME_CODE",
      "outputs": [
        {
          "internalType": "bytes32",
          "name": "",
          "type": "bytes32"
        }
      ],
      "stateMutability": "view",
      "type": "function"
    },
    {
      "inputs": [],
      "name": "__msgData",
      "outputs": [
        {
          "internalType": "bytes",
          "name": "",
          "type": "bytes"
        }
      ],
      "stateMutability": "view",
      "type": "function"
    },
    {
      "inputs": [
        {
          "internalType": "uint256[]",
          "name": "tokenIds",
          "type": "uint256[]"
        }
      ],
      "name": "calculateElapsedTimeForExpiredTokens",
      "outputs": [
        {
          "internalType": "uint256",
          "name": "elapsedTime",
          "type": "uint256"
        }
      ],
      "stateMutability": "view",
      "type": "function"
    },
    {
      "inputs": [
        {
          "internalType": "uint256[]",
          "name": "tokenIds",
          "type": "uint256[]"
        }
      ],
      "name": "collectExpiredTokens",
      "outputs": [],
      "stateMutability": "nonpayable",
      "type": "function"
    },
    {
      "inputs": [
        {
          "internalType": "uint256[]",
          "name": "tokenIds",
          "type": "uint256[]"
        },
        {
          "internalType": "uint256[]",
          "name": "durations",
          "type": "uint256[]"
        },
        {
          "internalType": "uint256[]",
          "name": "expiredTokenIds",
          "type": "uint256[]"
        }
      ],
      "name": "estimateRentalFee",
      "outputs": [
        {
          "internalType": "uint256",
          "name": "fee",
          "type": "uint256"
        }
      ],
      "stateMutability": "view",
      "type": "function"
    },
    {
      "inputs": [],
      "name": "forwarderRegistry",
      "outputs": [
        {
          "internalType": "contract IForwarderRegistry",
          "name": "",
          "type": "address"
        }
      ],
      "stateMutability": "view",
      "type": "function"
    },
    {
      "inputs": [
        {
          "internalType": "bytes32",
          "name": "role",
          "type": "bytes32"
        },
        {
          "internalType": "address",
          "name": "account",
          "type": "address"
        }
      ],
      "name": "grantRole",
      "outputs": [],
      "stateMutability": "nonpayable",
      "type": "function"
    },
    {
      "inputs": [
        {
          "internalType": "bytes32",
          "name": "role",
          "type": "bytes32"
        },
        {
          "internalType": "address",
          "name": "account",
          "type": "address"
        }
      ],
      "name": "hasRole",
      "outputs": [
        {
          "internalType": "bool",
          "name": "hasRole_",
          "type": "bool"
        }
      ],
      "stateMutability": "view",
      "type": "function"
    },
    {
      "inputs": [
        {
          "internalType": "address",
          "name": "forwarder",
          "type": "address"
        }
      ],
      "name": "isTrustedForwarder",
      "outputs": [
        {
          "internalType": "bool",
          "name": "",
          "type": "bool"
        }
      ],
      "stateMutability": "view",
      "type": "function"
    },
    {
      "inputs": [],
      "name": "landPriceHelper",
      "outputs": [
        {
          "internalType": "contract IEDULandPriceHelper",
          "name": "",
          "type": "address"
        }
      ],
      "stateMutability": "view",
      "type": "function"
    },
    {
      "inputs": [],
      "name": "maintenanceFee",
      "outputs": [
        {
          "internalType": "uint256",
          "name": "",
          "type": "uint256"
        }
      ],
      "stateMutability": "view",
      "type": "function"
    },
    {
      "inputs": [],
      "name": "maintenanceFeeDenominator",
      "outputs": [
        {
          "internalType": "uint256",
          "name": "",
          "type": "uint256"
        }
      ],
      "stateMutability": "view",
      "type": "function"
    },
    {
      "inputs": [],
      "name": "maxRentalCountPerCall",
      "outputs": [
        {
          "internalType": "uint256",
          "name": "",
          "type": "uint256"
        }
      ],
      "stateMutability": "view",
      "type": "function"
    },
    {
      "inputs": [],
      "name": "maxRentalDuration",
      "outputs": [
        {
          "internalType": "uint256",
          "name": "",
          "type": "uint256"
        }
      ],
      "stateMutability": "view",
      "type": "function"
    },
    {
      "inputs": [],
      "name": "maxTokenSupply",
      "outputs": [
        {
          "internalType": "uint256",
          "name": "",
          "type": "uint256"
        }
      ],
      "stateMutability": "view",
      "type": "function"
    },
    {
      "inputs": [],
      "name": "minRentalDuration",
      "outputs": [
        {
          "internalType": "uint256",
          "name": "",
          "type": "uint256"
        }
      ],
      "stateMutability": "view",
      "type": "function"
    },
    {
      "inputs": [],
      "name": "msgData",
      "outputs": [
        {
          "internalType": "bytes",
          "name": "",
          "type": "bytes"
        }
      ],
      "stateMutability": "view",
      "type": "function"
    },
    {
      "inputs": [],
      "name": "owner",
      "outputs": [
        {
          "internalType": "address",
          "name": "",
          "type": "address"
        }
      ],
      "stateMutability": "view",
      "type": "function"
    },
    {
      "inputs": [
        {
          "internalType": "address[]",
          "name": "accounts",
          "type": "address[]"
        },
        {
          "internalType": "contract IERC20[]",
          "name": "tokens",
          "type": "address[]"
        },
        {
          "internalType": "uint256[]",
          "name": "amounts",
          "type": "uint256[]"
        }
      ],
      "name": "recoverERC20s",
      "outputs": [],
      "stateMutability": "nonpayable",
      "type": "function"
    },
    {
      "inputs": [
        {
          "internalType": "address[]",
          "name": "accounts",
          "type": "address[]"
        },
        {
          "internalType": "contract IERC721[]",
          "name": "contracts",
          "type": "address[]"
        },
        {
          "internalType": "uint256[]",
          "name": "tokenIds",
          "type": "uint256[]"
        }
      ],
      "name": "recoverERC721s",
      "outputs": [],
      "stateMutability": "nonpayable",
      "type": "function"
    },
    {
      "inputs": [
        {
          "internalType": "address payable[]",
          "name": "accounts",
          "type": "address[]"
        },
        {
          "internalType": "uint256[]",
          "name": "amounts",
          "type": "uint256[]"
        }
      ],
      "name": "recoverETH",
      "outputs": [],
      "stateMutability": "nonpayable",
      "type": "function"
    },
    {
      "inputs": [
        {
          "internalType": "bytes32",
          "name": "role",
          "type": "bytes32"
        }
      ],
      "name": "renounceRole",
      "outputs": [],
      "stateMutability": "nonpayable",
      "type": "function"
    },
    {
      "inputs": [
        {
          "internalType": "uint256[]",
          "name": "tokenIds",
          "type": "uint256[]"
        },
        {
          "internalType": "uint256[]",
          "name": "durations",
          "type": "uint256[]"
        },
        {
          "internalType": "uint256[]",
          "name": "expiredTokenIds",
          "type": "uint256[]"
        },
        {
          "internalType": "uint256",
          "name": "maxFee",
          "type": "uint256"
        }
      ],
      "name": "rent",
      "outputs": [],
      "stateMutability": "nonpayable",
      "type": "function"
    },
    {
      "inputs": [
        {
          "internalType": "uint256",
          "name": "",
          "type": "uint256"
        }
      ],
      "name": "rentals",
      "outputs": [
        {
          "internalType": "uint256",
          "name": "beginDate",
          "type": "uint256"
        },
        {
          "internalType": "uint256",
          "name": "endDate",
          "type": "uint256"
        },
        {
          "internalType": "uint256",
          "name": "fee",
          "type": "uint256"
        }
      ],
      "stateMutability": "view",
      "type": "function"
    },
    {
      "inputs": [
        {
          "internalType": "uint256",
          "name": "tokenId",
          "type": "uint256"
        }
      ],
      "name": "renterOf",
      "outputs": [
        {
          "internalType": "address",
          "name": "",
          "type": "address"
        }
      ],
      "stateMutability": "view",
      "type": "function"
    },
    {
      "inputs": [
        {
          "internalType": "bytes32",
          "name": "role",
          "type": "bytes32"
        },
        {
          "internalType": "address",
          "name": "account",
          "type": "address"
        }
      ],
      "name": "revokeRole",
      "outputs": [],
      "stateMutability": "nonpayable",
      "type": "function"
    },
    {
      "inputs": [
        {
          "internalType": "address",
          "name": "newLandPriceHelper",
          "type": "address"
        }
      ],
      "name": "setLandPriceHelper",
      "outputs": [],
      "stateMutability": "nonpayable",
      "type": "function"
    },
    {
      "inputs": [
        {
          "internalType": "uint256",
          "name": "newMaintenanceFee",
          "type": "uint256"
        },
        {
          "internalType": "uint256",
          "name": "newMaintenanceFeeDenominator",
          "type": "uint256"
        }
      ],
      "name": "setMaintenanceFee",
      "outputs": [],
      "stateMutability": "nonpayable",
      "type": "function"
    },
    {
      "inputs": [
        {
          "internalType": "uint256",
          "name": "newRentalCountPerCall",
          "type": "uint256"
        }
      ],
      "name": "setMaxRentalCountPerCall",
      "outputs": [],
      "stateMutability": "nonpayable",
      "type": "function"
    },
    {
      "inputs": [
        {
          "internalType": "uint256",
          "name": "newMaxRentalDuration",
          "type": "uint256"
        }
      ],
      "name": "setMaxRentalDuration",
      "outputs": [],
      "stateMutability": "nonpayable",
      "type": "function"
    },
    {
      "inputs": [
        {
          "internalType": "uint256",
          "name": "newMaxTokenSupply",
          "type": "uint256"
        }
      ],
      "name": "setMaxTokenSupply",
      "outputs": [],
      "stateMutability": "nonpayable",
      "type": "function"
    },
    {
      "inputs": [
        {
          "internalType": "uint256",
          "name": "newMinRentalDuration",
          "type": "uint256"
        }
      ],
      "name": "setMinRentalDuration",
      "outputs": [],
      "stateMutability": "nonpayable",
      "type": "function"
    },
    {
      "inputs": [
        {
          "internalType": "bytes4",
          "name": "interfaceId",
          "type": "bytes4"
        }
      ],
      "name": "supportsInterface",
      "outputs": [
        {
          "internalType": "bool",
          "name": "",
          "type": "bool"
        }
      ],
      "stateMutability": "view",
      "type": "function"
    },
    {
      "inputs": [],
      "name": "totalOngoingRentalTime",
      "outputs": [
        {
          "internalType": "uint256",
          "name": "",
          "type": "uint256"
        }
      ],
      "stateMutability": "view",
      "type": "function"
    },
    {
      "inputs": [
        {
          "internalType": "address",
          "name": "newOwner",
          "type": "address"
        }
      ],
      "name": "transferOwnership",
      "outputs": [],
      "stateMutability": "nonpayable",
      "type": "function"
    }
  ],
  "bytecode": "0x60e06040523480156200001157600080fd5b50604051620037c0380380620037c0833981016040819052620000349162000350565b89898989898989898989808033620000578162000050620001f9565b906200022f565b506001600160a01b039081166080528b811660c0528a811660a052600080546001600160a01b031916918b1691821790556040519081527fd99014e6f6a21a1f7025e1599288b52168db6241486596946f759a520d4ddfea915060200160405180910390a16002879055600386905560408051888152602081018890527f788db483524e27f5a39a54daaeb81bb48059af776767d0c1f600ef6e996d2818910160405180910390a160048590556040518581527f7d9d1c986503049ed25e197e416ddaeef53d62a8479d6371784f05a9d9da98249060200160405180910390a160058490556040518481527fb4f38443948b39b669154b83689d2dfa2a4cb2b1fd458118da3d1bcdacfc56089060200160405180910390a160068390556040518381527faa06aa6d79ce3cb966afe332af120b3aa8252dc355d1d2dae1368babec5f3ee59060200160405180910390a160018290556040518281527fb8b290c068ed53e46165f3ca5215dcc2972ae26ae4c8fb5adc71a1c135f855139060200160405180910390a1505050505050505050505050505050505050505062000419565b6000806200022960017fc9ed16f33ab3a66c84bfd83099ccb2a8845871e2e1c1928f63797152f0fd54cd620003f7565b92915050565b6001600160a01b03811615620002865781546001600160a01b0319166001600160a01b03821690811783556040516000907f8be0079c531659141344cd1fd0a4f28419497f9722a3daafe3b4186f6b6457e0908290a35b620002a66307f5828d60e41b60016200029e620002aa565b9190620002da565b5050565b6000806200022960017fca9d3e17f264b0f3984e2634e94adb37fa3e6a8103f06aeae6fa59e21c769f5e620003f7565b600160e01b6001600160e01b031983160162000309576040516372c683bb60e01b815260040160405180910390fd5b6001600160e01b03199190911660009081526020929092526040909120805460ff1916911515919091179055565b6001600160a01b03811681146200034d57600080fd5b50565b6000806000806000806000806000806101408b8d0312156200037157600080fd5b8a516200037e8162000337565b60208c0151909a50620003918162000337565b60408c0151909950620003a48162000337565b8098505060608b0151965060808b0151955060a08b0151945060c08b0151935060e08b015192506101008b015191506101208b0151620003e48162000337565b809150509295989b9194979a5092959850565b818103818111156200022957634e487b7160e01b600052601160045260246000fd5b60805160a05160c0516133236200049d600039600081816102db015281816109ab01528181610a8b01528181610ed0015281816117e801528181611dd40152611ea301526000818161045f0152610d7e015260008181610359015281816103ee0152818161272c015281816127b40152818161286701526128a501526133236000f3fe608060405234801561001057600080fd5b50600436106102925760003560e01c80638da5cb5b11610160578063d547741f116100d8578063f5b541a61161008c578063f7ba94bd11610071578063f7ba94bd1461060f578063f7df6bad14610622578063fb203c171461063557600080fd5b8063f5b541a6146105df578063f70321941461060657600080fd5b8063e105c43c116100bd578063e105c43c146105a6578063e4f095d9146105b9578063f2fde38b146105cc57600080fd5b8063d547741f1461056c578063dd2861771461057f57600080fd5b8063b07ed9821161012f578063b65dd45111610114578063b65dd45114610531578063c3666c3614610544578063c4c2bfdc1461055757600080fd5b8063b07ed98214610515578063b2b47e3b1461052857600080fd5b80638da5cb5b146104a757806391d14854146104af578063a5f73758146104c2578063af94a1d1146104cb57600080fd5b80633d9f01fb1161020e57806373c8a958116101c25780637f6e4281116101a75780637f6e42811461045a57806388b681fe146104815780638bb9c5bf1461049457600080fd5b806373c8a9581461043e5780637ce4026f1461045157600080fd5b80635625ac51116101f35780635625ac51146103cb578063572b6c05146103de57806370243bcc1461042b57600080fd5b80633d9f01fb146103af57806350f7c204146103c257600080fd5b806321d42816116102655780632f2ff15d1161024a5780632f2ff15d1461037d57806331e66e1e1461039057806334f1a8d3146103a657600080fd5b806321d42816146103425780632b4c9f161461035757600080fd5b806301ffc9a71461029757806304660449146102bf57806315e682cb146102d65780631aabc61d14610322575b600080fd5b6102aa6102a5366004612c4b565b610648565b60405190151581526020015b60405180910390f35b6102c860025481565b6040519081526020016102b6565b6102fd7f000000000000000000000000000000000000000000000000000000000000000081565b60405173ffffffffffffffffffffffffffffffffffffffff90911681526020016102b6565b6000546102fd9073ffffffffffffffffffffffffffffffffffffffff1681565b610355610350366004612cd9565b610662565b005b7f00000000000000000000000000000000000000000000000000000000000000006102fd565b61035561038b366004612d9e565b610e3c565b610398610e75565b6040516102b6929190612dce565b6102c860045481565b6102fd6103bd366004612e1b565b610e88565b6102c860015481565b6103556103d9366004612e34565b610f85565b6102aa6103ec366004612e56565b7f000000000000000000000000000000000000000000000000000000000000000073ffffffffffffffffffffffffffffffffffffffff90811691161490565b6102c8610439366004612e73565b611007565b61035561044c366004612eb5565b611096565b6102c860055481565b6102fd7f000000000000000000000000000000000000000000000000000000000000000081565b61035561048f366004612e73565b611194565b6103556104a2366004612e1b565b6111c1565b6102fd6111df565b6102aa6104bd366004612d9e565b61120b565b6102c860085481565b6104fa6104d9366004612e1b565b60076020526000908152604090208054600182015460029092015490919083565b604080519384526020840192909252908201526060016102b6565b610355610523366004612e1b565b611256565b6102c860035481565b61035561053f366004612e1b565b6112be565b610355610552366004612eb5565b61131f565b61055f611497565b6040516102b69190612fbd565b61035561057a366004612d9e565b611525565b6102c87f0e67d2d2c46f23cfff9f76c16187348901bf73ba32dcf6893f2a2a4b25be75f881565b6102c86105b4366004612eb5565b611553565b6103556105c7366004612e1b565b611980565b6103556105da366004612e56565b6119e1565b6102c87f97667070c54ef182b0f5858b034beac1b6f3089aa2d3188bb1e8929f4fa9b92981565b6102c860065481565b61035561061d366004612fd0565b6119fc565b610355610630366004612e56565b611abb565b610355610643366004612e1b565b611b5a565b600061065c82610656611bbb565b90611be9565b92915050565b600654861061069d576040517f2273ee1800000000000000000000000000000000000000000000000000000000815260040160405180910390fd5b8584146106d6576040517f6582533600000000000000000000000000000000000000000000000000000000815260040160405180910390fd5b60006106e0611cc3565b905060008888808060200260200160405190810160405280939291908181526020018383602002808284376000920182905250604080516020808e0282810182019093528d825296975091959194508c93508b9250829185019084908082843760009201829052509394504293925061075f9150899050888484611ccd565b60085461076c919061306b565b9050600061077982611fb9565b905060008c67ffffffffffffffff8111156107965761079661307e565b6040519080825280602002602001820160405280156107eb57816020015b6107d860405180606001604052806000815260200160008152602001600081525090565b8152602001906001900390816107b45790505b50905060008060005b8851811015610caf576000898281518110610811576108116130ad565b60200260200101519050600089838151811061082f5761082f6130ad565b602002602001015190508160000361087b576040517f8ce0857d000000000000000000000000000000000000000000000000000000008152600060048201526024015b60405180910390fd5b60015482106108b9576040517f8ce0857d00000000000000000000000000000000000000000000000000000000815260048101839052602401610872565b6005548111156108f8576040517fb479b65500000000000000000000000000000000000000000000000000000000815260048101839052602401610872565b60008281526007602052604081206001810154909103610a5c57600454821015610951576040517f508a9a3a00000000000000000000000000000000000000000000000000000000815260048101849052602401610872565b6040517f8832e6e300000000000000000000000000000000000000000000000000000000815273ffffffffffffffffffffffffffffffffffffffff8e811660048301526024820185905260606044830152600060648301527f00000000000000000000000000000000000000000000000000000000000000001690638832e6e390608401600060405180830381600087803b1580156109ef57600080fd5b505af1158015610a03573d6000803e3d6000fd5b5050508a825550610a14828b6130dc565b600182015560035460025460009190610a2d90856130ef565b610a379190613106565b610a41908a6130dc565b600283018190559050610a5481876130dc565b955050610c51565b6040517f6352211e000000000000000000000000000000000000000000000000000000008152600481018490527f000000000000000000000000000000000000000000000000000000000000000073ffffffffffffffffffffffffffffffffffffffff1690636352211e90602401602060405180830381865afa158015610ae7573d6000803e3d6000fd5b505050506040513d601f19601f82011682018060405250810190610b0b9190613141565b73ffffffffffffffffffffffffffffffffffffffff168d73ffffffffffffffffffffffffffffffffffffffff16148015610b48575080600101548a105b15610c1c576000610b59838c6130dc565b9050816001015460045482610b6e919061306b565b1015610ba9576040517f508a9a3a00000000000000000000000000000000000000000000000000000000815260048101859052602401610872565b6000826001015482610bbb919061306b565b60018401839055600354600254919250600091610bd890846130ef565b610be29190613106565b610bec908c6130dc565b905080846002016000828254610c0291906130dc565b90915550610c12905081896130dc565b9750505050610c51565b6040517f139d679900000000000000000000000000000000000000000000000000000000815260048101849052602401610872565b6040805160608101825282548152600183015460208201526002830154918101919091528751889086908110610c8957610c896130ad565b6020908102919091010152610c9e82876130dc565b955050600190920191506107f49050565b508915801590610cbe57508981115b15610cff576040517fd519701100000000000000000000000000000000000000000000000000000000815260048101829052602481018b9052604401610872565b610d0982866130dc565b6008556040517f212aac7900000000000000000000000000000000000000000000000000000000815273ffffffffffffffffffffffffffffffffffffffff8a81166004830152602482018390527f0e67d2d2c46f23cfff9f76c16187348901bf73ba32dcf6893f2a2a4b25be75f860448301527f0000000000000000000000000000000000000000000000000000000000000000169063212aac7990606401600060405180830381600087803b158015610dc257600080fd5b505af1158015610dd6573d6000803e3d6000fd5b505050508873ffffffffffffffffffffffffffffffffffffffff167f71abcae7327579f86b1266a4390233f926d8ce29f0ed821b7b334202bd314e0f8985604051610e2292919061319a565b60405180910390a250505050505050505050505050505050565b6000610e46611cc3565b9050610e5a81610e5461204d565b9061207b565b610e70838383610e686120ea565b929190612118565b505050565b366000610e806121ef565b915091509091565b600081815260076020526040812060010154421015610f50576040517f6352211e000000000000000000000000000000000000000000000000000000008152600481018390527f000000000000000000000000000000000000000000000000000000000000000073ffffffffffffffffffffffffffffffffffffffff1690636352211e90602401602060405180830381865afa158015610f2c573d6000803e3d6000fd5b505050506040513d601f19601f8201168201806040525081019061065c9190613141565b6040517f1297346f00000000000000000000000000000000000000000000000000000000815260048101839052602401610872565b610fc07f97667070c54ef182b0f5858b034beac1b6f3089aa2d3188bb1e8929f4fa9b929610fb1611cc3565b610fb96120ea565b91906121fa565b6002829055600381905560408051838152602081018390527f788db483524e27f5a39a54daaeb81bb48059af776767d0c1f600ef6e996d2818910160405180910390a15050565b600042815b8381101561108e576000858583818110611028576110286130ad565b90506020020135905060006007600083815260200190815260200160002090508060010154600014158015611061575080600101548410155b156110845780546001820154611077919061306b565b61108190866130dc565b94505b505060010161100c565b505092915050565b6110a96110a1611cc3565b610e5461204d565b8483811415806110b95750808214155b156110f0576040517f6582533600000000000000000000000000000000000000000000000000000000815260040160405180910390fd5b60005b8181101561118a57611182888883818110611110576111106130ad565b90506020020160208101906111259190612e56565b858584818110611137576111376130ad565b90506020020135888885818110611150576111506130ad565b90506020020160208101906111659190612e56565b73ffffffffffffffffffffffffffffffffffffffff169190612280565b6001016110f3565b5050505050505050565b60006111a38383426001611ccd565b905080600860008282546111b7919061306b565b9091555050505050565b6111dc6111cc611cc3565b826111d56120ea565b919061230d565b50565b60006112066111ec61204d565b5473ffffffffffffffffffffffffffffffffffffffff1690565b905090565b600061124f838361121a6120ea565b60009283526020908152604080842073ffffffffffffffffffffffffffffffffffffffff909316845291905290205460ff1690565b9392505050565b6112827f97667070c54ef182b0f5858b034beac1b6f3089aa2d3188bb1e8929f4fa9b929610fb1611cc3565b60018190556040518181527fb8b290c068ed53e46165f3ca5215dcc2972ae26ae4c8fb5adc71a1c135f85513906020015b60405180910390a150565b6112ea7f97667070c54ef182b0f5858b034beac1b6f3089aa2d3188bb1e8929f4fa9b929610fb1611cc3565b60068190556040518181527faa06aa6d79ce3cb966afe332af120b3aa8252dc355d1d2dae1368babec5f3ee5906020016112b3565b61132a6110a1611cc3565b84838114158061133a5750808214155b15611371576040517f6582533600000000000000000000000000000000000000000000000000000000815260040160405180910390fd5b60005b8181101561118a5785858281811061138e5761138e6130ad565b90506020020160208101906113a39190612e56565b73ffffffffffffffffffffffffffffffffffffffff166323b872dd308a8a858181106113d1576113d16130ad565b90506020020160208101906113e69190612e56565b8787868181106113f8576113f86130ad565b6040517fffffffff0000000000000000000000000000000000000000000000000000000060e088901b16815273ffffffffffffffffffffffffffffffffffffffff958616600482015294909316602485015250602090910201356044820152606401600060405180830381600087803b15801561147457600080fd5b505af1158015611488573d6000803e3d6000fd5b50505050806001019050611374565b600980546114a490613206565b80601f01602080910402602001604051908101604052809291908181526020018280546114d090613206565b801561151d5780601f106114f25761010080835404028352916020019161151d565b820191906000526020600020905b81548152906001019060200180831161150057829003601f168201915b505050505081565b600061152f611cc3565b905061153d81610e5461204d565b610e7083838361154b6120ea565b9291906123b1565b6006546000908610611591576040517f2273ee1800000000000000000000000000000000000000000000000000000000815260040160405180910390fd5b8584146115ca576040517f6582533600000000000000000000000000000000000000000000000000000000815260040160405180910390fd5b4260006115d78585611007565b905060006115f1826008546115ec919061306b565b611fb9565b90506000805b8a81101561195c5760008a8a83818110611613576116136130ad565b90506020020135905060008d8d84818110611630576116306130ad565b90506020020135905080600003611676576040517f8ce0857d00000000000000000000000000000000000000000000000000000000815260006004820152602401610872565b60015481106116b4576040517f8ce0857d00000000000000000000000000000000000000000000000000000000815260048101829052602401610872565b6005548211156116f3576040517fb479b65500000000000000000000000000000000000000000000000000000000815260048101829052602401610872565b600081815260076020908152604080832081516060810183528154815260018201549381018490526002909101549181019190915291036117985760045483101561176d576040517f508a9a3a00000000000000000000000000000000000000000000000000000000815260048101839052602401610872565b60035460025461177d90856130ef565b6117879190613106565b61179190866130dc565b9450611951565b6117a0611cc3565b6040517f6352211e0000000000000000000000000000000000000000000000000000000081526004810184905273ffffffffffffffffffffffffffffffffffffffff918216917f00000000000000000000000000000000000000000000000000000000000000001690636352211e90602401602060405180830381865afa15801561182f573d6000803e3d6000fd5b505050506040513d601f19601f820116820180604052508101906118539190613141565b73ffffffffffffffffffffffffffffffffffffffff161480156118795750806020015188105b1561191c57600061188a848a6130dc565b905081602001516004548261189f919061306b565b10156118da576040517f508a9a3a00000000000000000000000000000000000000000000000000000000815260048101849052602401610872565b60008260200151826118ec919061306b565b9050600354600254826118ff91906130ef565b6119099190613106565b61191390886130dc565b96505050611951565b6040517f139d679900000000000000000000000000000000000000000000000000000000815260048101839052602401610872565b5050506001016115f7565b506119678a836130ef565b61197190826130dc565b9b9a5050505050505050505050565b6119ac7f97667070c54ef182b0f5858b034beac1b6f3089aa2d3188bb1e8929f4fa9b929610fb1611cc3565b60058190556040518181527fb4f38443948b39b669154b83689d2dfa2a4cb2b1fd458118da3d1bcdacfc5608906020016112b3565b6111dc6119ec611cc3565b826119f561204d565b919061247b565b611a076110a1611cc3565b82818114611a41576040517f6582533600000000000000000000000000000000000000000000000000000000815260040160405180910390fd5b60005b81811015611ab357611aab848483818110611a6157611a616130ad565b90506020020135878784818110611a7a57611a7a6130ad565b9050602002016020810190611a8f9190612e56565b73ffffffffffffffffffffffffffffffffffffffff169061258f565b600101611a44565b505050505050565b611ae77f97667070c54ef182b0f5858b034beac1b6f3089aa2d3188bb1e8929f4fa9b929610fb1611cc3565b600080547fffffffffffffffffffffffff00000000000000000000000000000000000000001673ffffffffffffffffffffffffffffffffffffffff83169081179091556040519081527fd99014e6f6a21a1f7025e1599288b52168db6241486596946f759a520d4ddfea906020016112b3565b611b867f97667070c54ef182b0f5858b034beac1b6f3089aa2d3188bb1e8929f4fa9b929610fb1611cc3565b60048190556040518181527f7d9d1c986503049ed25e197e416ddaeef53d62a8479d6371784f05a9d9da9824906020016112b3565b60008061065c60017fca9d3e17f264b0f3984e2634e94adb37fa3e6a8103f06aeae6fa59e21c769f5e61306b565b60007c01000000000000000000000000000000000000000000000000000000007fffffffff00000000000000000000000000000000000000000000000000000000831601611c395750600061065c565b7ffe003659000000000000000000000000000000000000000000000000000000007fffffffff00000000000000000000000000000000000000000000000000000000831601611c8a5750600161065c565b507fffffffff00000000000000000000000000000000000000000000000000000000166000908152602091909152604090205460ff1690565b60006112066126e9565b6000808467ffffffffffffffff811115611ce957611ce961307e565b604051908082528060200260200182016040528015611d12578160200160208202803683370190505b5090506000805b86811015611f6f576000888883818110611d3557611d356130ad565b90506020020135905060006007600083815260200190815260200160002090508060010154600014158015611d6e575080600101548810155b15611f2a5780546001820154611d84919061306b565b611d8e90876130dc565b600080835560018301819055600283018190556040517f6352211e00000000000000000000000000000000000000000000000000000000815260048101859052919750907f000000000000000000000000000000000000000000000000000000000000000073ffffffffffffffffffffffffffffffffffffffff1690636352211e90602401602060405180830381865afa158015611e30573d6000803e3d6000fd5b505050506040513d601f19601f82011682018060405250810190611e549190613141565b6040517f79cc679000000000000000000000000000000000000000000000000000000000815273ffffffffffffffffffffffffffffffffffffffff8083166004830152602482018690529192507f0000000000000000000000000000000000000000000000000000000000000000909116906379cc679090604401600060405180830381600087803b158015611ee957600080fd5b505af1158015611efd573d6000803e3d6000fd5b5050505082868581518110611f1457611f146130ad565b6020026020010181815250506001945050611f65565b8615611f65576040517f9be5764a00000000000000000000000000000000000000000000000000000000815260048101839052602401610872565b5050600101611d19565b508015611fae577f9e5430727c5f2b23597e7cb2670240cc8fbb4031a0dad53562812b380e286b3d82604051611fa59190613259565b60405180910390a15b50505b949350505050565b600080546040517fae1042650000000000000000000000000000000000000000000000000000000081526004810184905273ffffffffffffffffffffffffffffffffffffffff9091169063ae10426590602401602060405180830381865afa158015612029573d6000803e3d6000fd5b505050506040513d601f19601f8201168201806040525081019061065c919061326c565b60008061065c60017fc9ed16f33ab3a66c84bfd83099ccb2a8845871e2e1c1928f63797152f0fd54cd61306b565b815473ffffffffffffffffffffffffffffffffffffffff8281169116146120e6576040517f2ef4875e00000000000000000000000000000000000000000000000000000000815273ffffffffffffffffffffffffffffffffffffffff82166004820152602401610872565b5050565b60008061065c60017fc8827d3282af6f37b64c3e9e6f3ac9df286ab0bb0fccd6f8661bf19adb368b2361306b565b60008381526020858152604080832073ffffffffffffffffffffffffffffffffffffffff8616845290915290205460ff166121e95760008381526020858152604080832073ffffffffffffffffffffffffffffffffffffffff8681168086529184529382902080547fffffffffffffffffffffffffffffffffffffffffffffffffffffffffffffff00166001179055815187815292830152918316918101919091527f2f8788117e7eff1d82e926ec794901d17c78024a50270940304540a733656f0d906060015b60405180910390a15b50505050565b366000610e80612830565b60008281526020848152604080832073ffffffffffffffffffffffffffffffffffffffff8516845290915290205460ff16610e70576040517f7aa728820000000000000000000000000000000000000000000000000000000081526004810183905273ffffffffffffffffffffffffffffffffffffffff82166024820152604401610872565b6040805173ffffffffffffffffffffffffffffffffffffffff8416602482015260448082018490528251808303909101815260649091019091526020810180517bffffffffffffffffffffffffffffffffffffffffffffffffffffffff167fa9059cbb00000000000000000000000000000000000000000000000000000000179052610e7090849061299a565b6123188382846121fa565b60008181526020848152604080832073ffffffffffffffffffffffffffffffffffffffff86168085529083529281902080547fffffffffffffffffffffffffffffffffffffffffffffffffffffffffffffff0016905580518481529182018390528101919091527ff6391f5c32d9c69d2a47ea670b442974b53935d1edc7fd64eb21e047a839171b9060600160405180910390a1505050565b60008381526020858152604080832073ffffffffffffffffffffffffffffffffffffffff8616845290915290205460ff16156121e95760008381526020858152604080832073ffffffffffffffffffffffffffffffffffffffff8681168086529184529382902080547fffffffffffffffffffffffffffffffffffffffffffffffffffffffffffffff00169055815187815292830152918316918101919091527ff6391f5c32d9c69d2a47ea670b442974b53935d1edc7fd64eb21e047a839171b906060016121e0565b825473ffffffffffffffffffffffffffffffffffffffff90811690831681146124e8576040517f2ef4875e00000000000000000000000000000000000000000000000000000000815273ffffffffffffffffffffffffffffffffffffffff84166004820152602401610872565b8173ffffffffffffffffffffffffffffffffffffffff168173ffffffffffffffffffffffffffffffffffffffff16146121e95783547fffffffffffffffffffffffff00000000000000000000000000000000000000001673ffffffffffffffffffffffffffffffffffffffff8381169182178655604051908316907f8be0079c531659141344cd1fd0a4f28419497f9722a3daafe3b4186f6b6457e090600090a350505050565b804710156125f9576040517f08c379a000000000000000000000000000000000000000000000000000000000815260206004820152601d60248201527f416464726573733a20696e73756666696369656e742062616c616e63650000006044820152606401610872565b60008273ffffffffffffffffffffffffffffffffffffffff168260405160006040518083038185875af1925050503d8060008114612653576040519150601f19603f3d011682016040523d82523d6000602084013e612658565b606091505b5050905080610e70576040517f08c379a000000000000000000000000000000000000000000000000000000000815260206004820152603a60248201527f416464726573733a20756e61626c6520746f2073656e642076616c75652c207260448201527f6563697069656e74206d617920686176652072657665727465640000000000006064820152608401610872565b6000333214806126f95750601836105b1561270357503390565b7fffffffffffffffffffffffffffffffffffffffffffffffffffffffffffffffec36013560601c7f000000000000000000000000000000000000000000000000000000000000000073ffffffffffffffffffffffffffffffffffffffff1633148061281f57506040517f8929a8ca00000000000000000000000000000000000000000000000000000000815273ffffffffffffffffffffffffffffffffffffffff82811660048301523360248301527f00000000000000000000000000000000000000000000000000000000000000001690638929a8ca90604401602060405180830381865afa1580156127fb573d6000803e3d6000fd5b505050506040513d601f19601f8201168201806040525081019061281f9190613285565b1561282957919050565b3391505090565b366000333214806128415750601836105b1561284f5750600091369150565b3373ffffffffffffffffffffffffffffffffffffffff7f0000000000000000000000000000000000000000000000000000000000000000161480612984575073ffffffffffffffffffffffffffffffffffffffff7f000000000000000000000000000000000000000000000000000000000000000016638929a8ca367fffffffffffffffffffffffffffffffffffffffffffffffffffffffffffffffec013560601c6040517fffffffff0000000000000000000000000000000000000000000000000000000060e084901b16815273ffffffffffffffffffffffffffffffffffffffff9091166004820152336024820152604401602060405180830381865afa158015612960573d6000803e3d6000fd5b505050506040513d601f19601f820116820180604052508101906129849190613285565b1561299157610e80612aa9565b50600091369150565b60006129fc826040518060400160405280602081526020017f5361666545524332303a206c6f772d6c6576656c2063616c6c206661696c65648152508573ffffffffffffffffffffffffffffffffffffffff16612ada9092919063ffffffff16565b9050805160001480612a1d575080806020019051810190612a1d9190613285565b610e70576040517f08c379a000000000000000000000000000000000000000000000000000000000815260206004820152602a60248201527f5361666545524332303a204552433230206f7065726174696f6e20646964206e60448201527f6f742073756363656564000000000000000000000000000000000000000000006064820152608401610872565b366000610e807fffffffffffffffffffffffffffffffffffffffffffffffffffffffffffffffec83018284816132a7565b6060611fb18484600085856000808673ffffffffffffffffffffffffffffffffffffffff168587604051612b0e91906132d1565b60006040518083038185875af1925050503d8060008114612b4b576040519150601f19603f3d011682016040523d82523d6000602084013e612b50565b606091505b5091509150612b6187838387612b6c565b979650505050505050565b60608315612c02578251600003612bfb5773ffffffffffffffffffffffffffffffffffffffff85163b612bfb576040517f08c379a000000000000000000000000000000000000000000000000000000000815260206004820152601d60248201527f416464726573733a2063616c6c20746f206e6f6e2d636f6e74726163740000006044820152606401610872565b5081611fb1565b611fb18383815115612c175781518083602001fd5b806040517f08c379a00000000000000000000000000000000000000000000000000000000081526004016108729190612fbd565b600060208284031215612c5d57600080fd5b81357fffffffff000000000000000000000000000000000000000000000000000000008116811461124f57600080fd5b60008083601f840112612c9f57600080fd5b50813567ffffffffffffffff811115612cb757600080fd5b6020830191508360208260051b8501011115612cd257600080fd5b9250929050565b60008060008060008060006080888a031215612cf457600080fd5b873567ffffffffffffffff80821115612d0c57600080fd5b612d188b838c01612c8d565b909950975060208a0135915080821115612d3157600080fd5b612d3d8b838c01612c8d565b909750955060408a0135915080821115612d5657600080fd5b50612d638a828b01612c8d565b989b979a50959894979596606090950135949350505050565b73ffffffffffffffffffffffffffffffffffffffff811681146111dc57600080fd5b60008060408385031215612db157600080fd5b823591506020830135612dc381612d7c565b809150509250929050565b60208152816020820152818360408301376000818301604090810191909152601f9092017fffffffffffffffffffffffffffffffffffffffffffffffffffffffffffffffe0160101919050565b600060208284031215612e2d57600080fd5b5035919050565b60008060408385031215612e4757600080fd5b50508035926020909101359150565b600060208284031215612e6857600080fd5b813561124f81612d7c565b60008060208385031215612e8657600080fd5b823567ffffffffffffffff811115612e9d57600080fd5b612ea985828601612c8d565b90969095509350505050565b60008060008060008060608789031215612ece57600080fd5b863567ffffffffffffffff80821115612ee657600080fd5b612ef28a838b01612c8d565b90985096506020890135915080821115612f0b57600080fd5b612f178a838b01612c8d565b90965094506040890135915080821115612f3057600080fd5b50612f3d89828a01612c8d565b979a9699509497509295939492505050565b60005b83811015612f6a578181015183820152602001612f52565b50506000910152565b60008151808452612f8b816020860160208601612f4f565b601f017fffffffffffffffffffffffffffffffffffffffffffffffffffffffffffffffe0169290920160200192915050565b60208152600061124f6020830184612f73565b60008060008060408587031215612fe657600080fd5b843567ffffffffffffffff80821115612ffe57600080fd5b61300a88838901612c8d565b9096509450602087013591508082111561302357600080fd5b5061303087828801612c8d565b95989497509550505050565b7f4e487b7100000000000000000000000000000000000000000000000000000000600052601160045260246000fd5b8181038181111561065c5761065c61303c565b7f4e487b7100000000000000000000000000000000000000000000000000000000600052604160045260246000fd5b7f4e487b7100000000000000000000000000000000000000000000000000000000600052603260045260246000fd5b8082018082111561065c5761065c61303c565b808202811582820484141761065c5761065c61303c565b60008261313c577f4e487b7100000000000000000000000000000000000000000000000000000000600052601260045260246000fd5b500490565b60006020828403121561315357600080fd5b815161124f81612d7c565b60008151808452602080850194506020840160005b8381101561318f57815187529582019590820190600101613173565b509495945050505050565b600060408083526131ae604084018661315e565b83810360208581019190915285518083528682019282019060005b818110156131f857845180518452848101518585015286015186840152938301936060909201916001016131c9565b509098975050505050505050565b600181811c9082168061321a57607f821691505b602082108103613253577f4e487b7100000000000000000000000000000000000000000000000000000000600052602260045260246000fd5b50919050565b60208152600061124f602083018461315e565b60006020828403121561327e57600080fd5b5051919050565b60006020828403121561329757600080fd5b8151801515811461124f57600080fd5b600080858511156132b757600080fd5b838611156132c457600080fd5b5050820193919092039150565b600082516132e3818460208701612f4f565b919091019291505056fea26469706673582212205e8e8f22eb3dec92ab9c67e2d688e699d4448fdbb27ad4f40bf208ec426e3f8d64736f6c63430008160033",
  "linkReferences": {},
  "deployedLinkReferences": {}
}