{
  "_format": "hh-sol-artifact-1",
  "contractName": "OpenCampusCertificateRevocationRegistry",
  "sourceName": "contracts/vc/OpenCampusCertificateRevocationRegistry.sol",
  "abi": [
    {
      "inputs": [
        {
          "internalType": "contract IIssuersDIDRegistry",
          "name": "didRegistry",
          "type": "address"
        }
      ],
      "stateMutability": "nonpayable",
      "type": "constructor"
    },
    {
      "inputs": [],
      "name": "IllegalInterfaceId",
      "type": "error"
    },
    {
      "inputs": [],
      "name": "InvalidIssuer",
      "type": "error"
    },
    {
      "inputs": [
        {
          "internalType": "address",
          "name": "account",
          "type": "address"
        }
      ],
      "name": "NotContractOwner",
      "type": "error"
    },
    {
      "anonymous": false,
      "inputs": [
        {
          "indexed": true,
          "internalType": "address",
          "name": "previousOwner",
          "type": "address"
        },
        {
          "indexed": true,
          "internalType": "address",
          "name": "newOwner",
          "type": "address"
        }
      ],
      "name": "OwnershipTransferred",
      "type": "event"
    },
    {
      "anonymous": false,
      "inputs": [
        {
          "indexed": true,
          "internalType": "bytes32",
          "name": "hashedIssuerDid",
          "type": "bytes32"
        },
        {
          "indexed": false,
          "internalType": "address",
          "name": "caller",
          "type": "address"
        },
        {
          "indexed": true,
          "internalType": "uint256",
          "name": "vcId",
          "type": "uint256"
        }
      ],
      "name": "VcRevoked",
      "type": "event"
    },
    {
      "inputs": [
        {
          "internalType": "bytes32",
          "name": "hashedIssuerDid",
          "type": "bytes32"
        },
        {
          "internalType": "uint256[]",
          "name": "vcIds",
          "type": "uint256[]"
        },
        {
          "internalType": "bytes",
          "name": "signature",
          "type": "bytes"
        }
      ],
      "name": "batchRevokeVCs",
      "outputs": [],
      "stateMutability": "nonpayable",
      "type": "function"
    },
    {
      "inputs": [
        {
          "internalType": "bytes32",
          "name": "hashedIssuerDid",
          "type": "bytes32"
        },
        {
          "internalType": "uint256",
          "name": "vcId",
          "type": "uint256"
        }
      ],
      "name": "isRevoked",
      "outputs": [
        {
          "internalType": "bool",
          "name": "revoked",
          "type": "bool"
        }
      ],
      "stateMutability": "view",
      "type": "function"
    },
    {
      "inputs": [],
      "name": "owner",
      "outputs": [
        {
          "internalType": "address",
          "name": "",
          "type": "address"
        }
      ],
      "stateMutability": "view",
      "type": "function"
    },
    {
      "inputs": [
        {
          "internalType": "bytes32",
          "name": "",
          "type": "bytes32"
        },
        {
          "internalType": "uint256",
          "name": "",
          "type": "uint256"
        }
      ],
      "name": "revocations",
      "outputs": [
        {
          "internalType": "address",
          "name": "",
          "type": "address"
        }
      ],
      "stateMutability": "view",
      "type": "function"
    },
    {
      "inputs": [
        {
          "internalType": "bytes32",
          "name": "hashedIssuerDid",
          "type": "bytes32"
        },
        {
          "internalType": "uint256",
          "name": "vcId",
          "type": "uint256"
        },
        {
          "internalType": "bytes",
          "name": "signature",
          "type": "bytes"
        }
      ],
      "name": "revokeVC",
      "outputs": [],
      "stateMutability": "nonpayable",
      "type": "function"
    },
    {
      "inputs": [
        {
          "internalType": "bytes4",
          "name": "interfaceId",
          "type": "bytes4"
        }
      ],
      "name": "supportsInterface",
      "outputs": [
        {
          "internalType": "bool",
          "name": "",
          "type": "bool"
        }
      ],
      "stateMutability": "view",
      "type": "function"
    },
    {
      "inputs": [
        {
          "internalType": "address",
          "name": "newOwner",
          "type": "address"
        }
      ],
      "name": "transferOwnership",
      "outputs": [],
      "stateMutability": "nonpayable",
      "type": "function"
    }
  ],
  "bytecode": "0x60c06040523480156200001157600080fd5b50604051620013673803806200136783398101604081905262000034916200021a565b336200004b8162000044620000dc565b9062000112565b506001600160a01b03166080908152604080517f8cad95687ba82c2ce50e74f7b754645e5117c3a5bec8151c0726d5857980a8666020808301919091527fe951ffb7916e206225d235b0f631570b39e4e0323bc42da6208ae1258c2ecd3e8284015246606083015230828501528251808303909401845260a09182019092528251929091019190912090526200026e565b6000806200010c60017fc9ed16f33ab3a66c84bfd83099ccb2a8845871e2e1c1928f63797152f0fd54cd6200024c565b92915050565b6001600160a01b03811615620001695781546001600160a01b0319166001600160a01b03821690811783556040516000907f8be0079c531659141344cd1fd0a4f28419497f9722a3daafe3b4186f6b6457e0908290a35b620001896307f5828d60e41b6001620001816200018d565b9190620001bd565b5050565b6000806200010c60017fca9d3e17f264b0f3984e2634e94adb37fa3e6a8103f06aeae6fa59e21c769f5e6200024c565b600160e01b6001600160e01b0319831601620001ec576040516372c683bb60e01b815260040160405180910390fd5b6001600160e01b03199190911660009081526020929092526040909120805460ff1916911515919091179055565b6000602082840312156200022d57600080fd5b81516001600160a01b03811681146200024557600080fd5b9392505050565b818103818111156200010c57634e487b7160e01b600052601160045260246000fd5b60805160a0516110be620002a960003960008181610223015261050e0152600081816102f20152818161049701526106c801526110be6000f3fe608060405234801561001057600080fd5b506004361061007d5760003560e01c8063a3a2656a1161005b578063a3a2656a146100ec578063d394ab5a146100ff578063e688c27b1461013d578063f2fde38b1461015057600080fd5b806301ffc9a7146100825780638da5cb5b146100aa57806398fc75a2146100d7575b600080fd5b610095610090366004610dab565b610163565b60405190151581526020015b60405180910390f35b6100b261017d565b60405173ffffffffffffffffffffffffffffffffffffffff90911681526020016100a1565b6100ea6100e5366004610e36565b6101a9565b005b6100956100fa366004610e89565b610430565b6100b261010d366004610e89565b600060208181529281526040808220909352908152205473ffffffffffffffffffffffffffffffffffffffff1681565b6100ea61014b366004610eab565b61050a565b6100ea61015e366004610f56565b610839565b600061017782610171610850565b9061087e565b92915050565b60006101a461018a610958565b5473ffffffffffffffffffffffffffffffffffffffff1690565b905090565b604080517fccd989bd7181bf32a5252e0794fbd3acd778c350d2667f94457755c1849899df6020808301919091528183018790526060808301879052835180840390910181526080830184528051908201207f190100000000000000000000000000000000000000000000000000000000000060a08401527f000000000000000000000000000000000000000000000000000000000000000060a284015260c28084019190915283518084039091018152610102601f86018390049092028301820190935260e282018481526000926102a39287918791829101838280828437600092019190915250508551602087012092915050610986565b6040517ff9236a390000000000000000000000000000000000000000000000000000000081526004810188905273ffffffffffffffffffffffffffffffffffffffff80831660248301529192507f00000000000000000000000000000000000000000000000000000000000000009091169063f9236a3990604401602060405180830381865afa15801561033b573d6000803e3d6000fd5b505050506040513d601f19601f8201168201806040525081019061035f9190610f8c565b156103f65760008681526020818152604080832088845282529182902080547fffffffffffffffffffffffff00000000000000000000000000000000000000001673ffffffffffffffffffffffffffffffffffffffff85169081179091559151918252869188917f2f844f99f3ce1f0191a01a59fd0c17e12427806ea6e7bcaec13443fd6b9f5056910160405180910390a3610428565b6040517fbdbfe21600000000000000000000000000000000000000000000000000000000815260040160405180910390fd5b505050505050565b6000828152602081815260408083208484529091528082205490517ff9236a390000000000000000000000000000000000000000000000000000000081526004810185905273ffffffffffffffffffffffffffffffffffffffff91821660248201819052917f0000000000000000000000000000000000000000000000000000000000000000169063f9236a3990604401602060405180830381865afa1580156104de573d6000803e3d6000fd5b505050506040513d601f19601f820116820180604052508101906105029190610f8c565b949350505050565b60007f00000000000000000000000000000000000000000000000000000000000000007f74c3c2704ed3af9e8114f76711701f9cef0242b680ea2bdec8423e461f3895ab878787604051602001610562929190610fae565b604080517fffffffffffffffffffffffffffffffffffffffffffffffffffffffffffffffe08184030181528282528051602091820120908301949094528101919091526060810191909152608001604051602081830303815290604052805190602001206040516020016106089291907f190100000000000000000000000000000000000000000000000000000000000081526002810192909252602282015260420190565b604080517fffffffffffffffffffffffffffffffffffffffffffffffffffffffffffffffe08184030181526020601f86018190048102840181019092528483529250600091610679918690869081908401838280828437600092019190915250508551602087012092915050610986565b6040517ff9236a390000000000000000000000000000000000000000000000000000000081526004810189905273ffffffffffffffffffffffffffffffffffffffff80831660248301529192507f00000000000000000000000000000000000000000000000000000000000000009091169063f9236a3990604401602060405180830381865afa158015610711573d6000803e3d6000fd5b505050506040513d601f19601f820116820180604052508101906107359190610f8c565b156103f65760005b8581101561082f576000888152602081905260408120839189898581811061076757610767610ff0565b90506020020135815260200190815260200160002060006101000a81548173ffffffffffffffffffffffffffffffffffffffff021916908373ffffffffffffffffffffffffffffffffffffffff1602179055508686828181106107cc576107cc610ff0565b90506020020135887f2f844f99f3ce1f0191a01a59fd0c17e12427806ea6e7bcaec13443fd6b9f50568460405161081f919073ffffffffffffffffffffffffffffffffffffffff91909116815260200190565b60405180910390a360010161073d565b5050505050505050565b61084d3382610846610958565b91906109aa565b50565b60008061017760017fca9d3e17f264b0f3984e2634e94adb37fa3e6a8103f06aeae6fa59e21c769f5e61101f565b60007c01000000000000000000000000000000000000000000000000000000007fffffffff000000000000000000000000000000000000000000000000000000008316016108ce57506000610177565b7ffe003659000000000000000000000000000000000000000000000000000000007fffffffff0000000000000000000000000000000000000000000000000000000083160161091f57506001610177565b507fffffffff00000000000000000000000000000000000000000000000000000000166000908152602091909152604090205460ff1690565b60008061017760017fc9ed16f33ab3a66c84bfd83099ccb2a8845871e2e1c1928f63797152f0fd54cd61101f565b60008060006109958585610ac4565b915091506109a281610b09565b509392505050565b825473ffffffffffffffffffffffffffffffffffffffff9081169083168114610a1c576040517f2ef4875e00000000000000000000000000000000000000000000000000000000815273ffffffffffffffffffffffffffffffffffffffff841660048201526024015b60405180910390fd5b8173ffffffffffffffffffffffffffffffffffffffff168173ffffffffffffffffffffffffffffffffffffffff1614610abe5783547fffffffffffffffffffffffff00000000000000000000000000000000000000001673ffffffffffffffffffffffffffffffffffffffff8381169182178655604051908316907f8be0079c531659141344cd1fd0a4f28419497f9722a3daafe3b4186f6b6457e090600090a35b50505050565b6000808251604103610afa5760208301516040840151606085015160001a610aee87828585610cbc565b94509450505050610b02565b506000905060025b9250929050565b6000816004811115610b1d57610b1d611059565b03610b255750565b6001816004811115610b3957610b39611059565b03610ba0576040517f08c379a000000000000000000000000000000000000000000000000000000000815260206004820152601860248201527f45434453413a20696e76616c6964207369676e617475726500000000000000006044820152606401610a13565b6002816004811115610bb457610bb4611059565b03610c1b576040517f08c379a000000000000000000000000000000000000000000000000000000000815260206004820152601f60248201527f45434453413a20696e76616c6964207369676e6174757265206c656e677468006044820152606401610a13565b6003816004811115610c2f57610c2f611059565b0361084d576040517f08c379a000000000000000000000000000000000000000000000000000000000815260206004820152602260248201527f45434453413a20696e76616c6964207369676e6174757265202773272076616c60448201527f75650000000000000000000000000000000000000000000000000000000000006064820152608401610a13565b6000807f7fffffffffffffffffffffffffffffff5d576e7357a4501ddfe92f46681b20a0831115610cf35750600090506003610da2565b6040805160008082526020820180845289905260ff881692820192909252606081018690526080810185905260019060a0016020604051602081039080840390855afa158015610d47573d6000803e3d6000fd5b50506040517fffffffffffffffffffffffffffffffffffffffffffffffffffffffffffffffe0015191505073ffffffffffffffffffffffffffffffffffffffff8116610d9b57600060019250925050610da2565b9150600090505b94509492505050565b600060208284031215610dbd57600080fd5b81357fffffffff0000000000000000000000000000000000000000000000000000000081168114610ded57600080fd5b9392505050565b60008083601f840112610e0657600080fd5b50813567ffffffffffffffff811115610e1e57600080fd5b602083019150836020828501011115610b0257600080fd5b60008060008060608587031215610e4c57600080fd5b8435935060208501359250604085013567ffffffffffffffff811115610e7157600080fd5b610e7d87828801610df4565b95989497509550505050565b60008060408385031215610e9c57600080fd5b50508035926020909101359150565b600080600080600060608688031215610ec357600080fd5b85359450602086013567ffffffffffffffff80821115610ee257600080fd5b818801915088601f830112610ef657600080fd5b813581811115610f0557600080fd5b8960208260051b8501011115610f1a57600080fd5b602083019650809550506040880135915080821115610f3857600080fd5b50610f4588828901610df4565b969995985093965092949392505050565b600060208284031215610f6857600080fd5b813573ffffffffffffffffffffffffffffffffffffffff81168114610ded57600080fd5b600060208284031215610f9e57600080fd5b81518015158114610ded57600080fd5b60007f07ffffffffffffffffffffffffffffffffffffffffffffffffffffffffffffff831115610fdd57600080fd5b8260051b80858437919091019392505050565b7f4e487b7100000000000000000000000000000000000000000000000000000000600052603260045260246000fd5b81810381811115610177577f4e487b7100000000000000000000000000000000000000000000000000000000600052601160045260246000fd5b7f4e487b7100000000000000000000000000000000000000000000000000000000600052602160045260246000fdfea2646970667358221220f6ae8fcc0428e7e2f468996f4d592ebd11bf5ca4e552120627ebe2ea3d4da7a864736f6c63430008160033",
  "linkReferences": {},
  "deployedLinkReferences": {}
}