{
  "_format": "hh-sol-artifact-1",
  "contractName": "OpenCampusCertificateRevocationRegistry",
  "sourceName": "contracts/vc/OpenCampusCertificateRevocationRegistry.sol",
  "abi": [
    {
      "inputs": [
        {
          "internalType": "contract IIssuersDIDRegistry",
          "name": "didRegistry",
          "type": "address"
        }
      ],
      "stateMutability": "nonpayable",
      "type": "constructor"
    },
    {
      "inputs": [],
      "name": "IllegalInterfaceId",
      "type": "error"
    },
    {
      "inputs": [
        {
          "internalType": "bytes32",
          "name": "hashedDid",
          "type": "bytes32"
        },
        {
          "internalType": "address",
          "name": "signer",
          "type": "address"
        }
      ],
      "name": "InvalidIssuer",
      "type": "error"
    },
    {
      "inputs": [
        {
          "internalType": "address",
          "name": "account",
          "type": "address"
        }
      ],
      "name": "NotContractOwner",
      "type": "error"
    },
    {
      "anonymous": false,
      "inputs": [
        {
          "indexed": true,
          "internalType": "address",
          "name": "previousOwner",
          "type": "address"
        },
        {
          "indexed": true,
          "internalType": "address",
          "name": "newOwner",
          "type": "address"
        }
      ],
      "name": "OwnershipTransferred",
      "type": "event"
    },
    {
      "anonymous": false,
      "inputs": [
        {
          "indexed": true,
          "internalType": "bytes32",
          "name": "hashedIssuerDid",
          "type": "bytes32"
        },
        {
          "indexed": false,
          "internalType": "address",
          "name": "caller",
          "type": "address"
        },
        {
          "indexed": true,
          "internalType": "uint256",
          "name": "vcId",
          "type": "uint256"
        }
      ],
      "name": "VcRevoked",
      "type": "event"
    },
    {
      "inputs": [],
      "name": "DID_REGISTRY",
      "outputs": [
        {
          "internalType": "contract IIssuersDIDRegistry",
          "name": "",
          "type": "address"
        }
      ],
      "stateMutability": "view",
      "type": "function"
    },
    {
      "inputs": [
        {
          "internalType": "bytes32",
          "name": "hashedIssuerDid",
          "type": "bytes32"
        },
        {
          "internalType": "uint256[]",
          "name": "vcIds",
          "type": "uint256[]"
        },
        {
          "internalType": "bytes",
          "name": "signature",
          "type": "bytes"
        }
      ],
      "name": "batchRevokeVCs",
      "outputs": [],
      "stateMutability": "nonpayable",
      "type": "function"
    },
    {
      "inputs": [
        {
          "internalType": "bytes32",
          "name": "hashedIssuerDid",
          "type": "bytes32"
        },
        {
          "internalType": "uint256",
          "name": "vcId",
          "type": "uint256"
        }
      ],
      "name": "isRevoked",
      "outputs": [
        {
          "internalType": "bool",
          "name": "revoked",
          "type": "bool"
        }
      ],
      "stateMutability": "view",
      "type": "function"
    },
    {
      "inputs": [],
      "name": "owner",
      "outputs": [
        {
          "internalType": "address",
          "name": "",
          "type": "address"
        }
      ],
      "stateMutability": "view",
      "type": "function"
    },
    {
      "inputs": [
        {
          "internalType": "bytes32",
          "name": "",
          "type": "bytes32"
        },
        {
          "internalType": "uint256",
          "name": "",
          "type": "uint256"
        }
      ],
      "name": "revocations",
      "outputs": [
        {
          "internalType": "address",
          "name": "",
          "type": "address"
        }
      ],
      "stateMutability": "view",
      "type": "function"
    },
    {
      "inputs": [
        {
          "internalType": "bytes32",
          "name": "hashedIssuerDid",
          "type": "bytes32"
        },
        {
          "internalType": "uint256",
          "name": "vcId",
          "type": "uint256"
        },
        {
          "internalType": "bytes",
          "name": "signature",
          "type": "bytes"
        }
      ],
      "name": "revokeVC",
      "outputs": [],
      "stateMutability": "nonpayable",
      "type": "function"
    },
    {
      "inputs": [
        {
          "internalType": "bytes4",
          "name": "interfaceId",
          "type": "bytes4"
        }
      ],
      "name": "supportsInterface",
      "outputs": [
        {
          "internalType": "bool",
          "name": "",
          "type": "bool"
        }
      ],
      "stateMutability": "view",
      "type": "function"
    },
    {
      "inputs": [
        {
          "internalType": "address",
          "name": "newOwner",
          "type": "address"
        }
      ],
      "name": "transferOwnership",
      "outputs": [],
      "stateMutability": "nonpayable",
      "type": "function"
    }
  ],
  "bytecode": "0x60c06040523480156200001157600080fd5b50604051620014143803806200141483398101604081905262000034916200021a565b336200004b8162000044620000dc565b9062000112565b506001600160a01b03166080908152604080517f8cad95687ba82c2ce50e74f7b754645e5117c3a5bec8151c0726d5857980a8666020808301919091527fe951ffb7916e206225d235b0f631570b39e4e0323bc42da6208ae1258c2ecd3e8284015246606083015230828501528251808303909401845260a09182019092528251929091019190912090526200026e565b6000806200010c60017fc9ed16f33ab3a66c84bfd83099ccb2a8845871e2e1c1928f63797152f0fd54cd6200024c565b92915050565b6001600160a01b03811615620001695781546001600160a01b0319166001600160a01b03821690811783556040516000907f8be0079c531659141344cd1fd0a4f28419497f9722a3daafe3b4186f6b6457e0908290a35b620001896307f5828d60e41b6001620001816200018d565b9190620001bd565b5050565b6000806200010c60017fca9d3e17f264b0f3984e2634e94adb37fa3e6a8103f06aeae6fa59e21c769f5e6200024c565b600160e01b6001600160e01b0319831601620001ec576040516372c683bb60e01b815260040160405180910390fd5b6001600160e01b03199190911660009081526020929092526040909120805460ff1916911515919091179055565b6000602082840312156200022d57600080fd5b81516001600160a01b03811681146200024557600080fd5b9392505050565b818103818111156200010c57634e487b7160e01b600052601160045260246000fd5b60805160a051611165620002af60003960008181610255015261056401526000818160ba01528181610324015281816104ed015261071e01526111656000f3fe608060405234801561001057600080fd5b50600436106100885760003560e01c8063a3a2656a1161005b578063a3a2656a1461011e578063d394ab5a14610131578063e688c27b1461016f578063f2fde38b1461018257600080fd5b806301ffc9a71461008d57806387b202a0146100b55780638da5cb5b1461010157806398fc75a214610109575b600080fd5b6100a061009b366004610e52565b610195565b60405190151581526020015b60405180910390f35b6100dc7f000000000000000000000000000000000000000000000000000000000000000081565b60405173ffffffffffffffffffffffffffffffffffffffff90911681526020016100ac565b6100dc6101af565b61011c610117366004610edd565b6101db565b005b6100a061012c366004610f30565b610486565b6100dc61013f366004610f30565b600060208181529281526040808220909352908152205473ffffffffffffffffffffffffffffffffffffffff1681565b61011c61017d366004610f52565b610560565b61011c610190366004610ffd565b6108e5565b60006101a9826101a36108fc565b9061092a565b92915050565b60006101d66101bc610a04565b5473ffffffffffffffffffffffffffffffffffffffff1690565b905090565b604080517fccd989bd7181bf32a5252e0794fbd3acd778c350d2667f94457755c1849899df6020808301919091528183018790526060808301879052835180840390910181526080830184528051908201207f190100000000000000000000000000000000000000000000000000000000000060a08401527f000000000000000000000000000000000000000000000000000000000000000060a284015260c28084019190915283518084039091018152610102601f86018390049092028301820190935260e282018481526000926102d59287918791829101838280828437600092019190915250508551602087012092915050610a32565b6040517ff9236a390000000000000000000000000000000000000000000000000000000081526004810188905273ffffffffffffffffffffffffffffffffffffffff80831660248301529192507f00000000000000000000000000000000000000000000000000000000000000009091169063f9236a3990604401602060405180830381865afa15801561036d573d6000803e3d6000fd5b505050506040513d601f19601f820116820180604052508101906103919190611033565b156104285760008681526020818152604080832088845282529182902080547fffffffffffffffffffffffff00000000000000000000000000000000000000001673ffffffffffffffffffffffffffffffffffffffff85169081179091559151918252869188917f2f844f99f3ce1f0191a01a59fd0c17e12427806ea6e7bcaec13443fd6b9f5056910160405180910390a361047e565b6040517f360113880000000000000000000000000000000000000000000000000000000081526004810187905273ffffffffffffffffffffffffffffffffffffffff821660248201526044015b60405180910390fd5b505050505050565b6000828152602081815260408083208484529091528082205490517ff9236a390000000000000000000000000000000000000000000000000000000081526004810185905273ffffffffffffffffffffffffffffffffffffffff91821660248201819052917f0000000000000000000000000000000000000000000000000000000000000000169063f9236a3990604401602060405180830381865afa158015610534573d6000803e3d6000fd5b505050506040513d601f19601f820116820180604052508101906105589190611033565b949350505050565b60007f00000000000000000000000000000000000000000000000000000000000000007f74c3c2704ed3af9e8114f76711701f9cef0242b680ea2bdec8423e461f3895ab8787876040516020016105b8929190611055565b604080517fffffffffffffffffffffffffffffffffffffffffffffffffffffffffffffffe081840301815282825280516020918201209083019490945281019190915260608101919091526080016040516020818303038152906040528051906020012060405160200161065e9291907f190100000000000000000000000000000000000000000000000000000000000081526002810192909252602282015260420190565b604080517fffffffffffffffffffffffffffffffffffffffffffffffffffffffffffffffe08184030181526020601f860181900481028401810190925284835292506000916106cf918690869081908401838280828437600092019190915250508551602087012092915050610a32565b6040517ff9236a390000000000000000000000000000000000000000000000000000000081526004810189905273ffffffffffffffffffffffffffffffffffffffff80831660248301529192507f00000000000000000000000000000000000000000000000000000000000000009091169063f9236a3990604401602060405180830381865afa158015610767573d6000803e3d6000fd5b505050506040513d601f19601f8201168201806040525081019061078b9190611033565b1561088b5760005b8581101561088557600088815260208190526040812083918989858181106107bd576107bd611097565b90506020020135815260200190815260200160002060006101000a81548173ffffffffffffffffffffffffffffffffffffffff021916908373ffffffffffffffffffffffffffffffffffffffff16021790555086868281811061082257610822611097565b90506020020135887f2f844f99f3ce1f0191a01a59fd0c17e12427806ea6e7bcaec13443fd6b9f505684604051610875919073ffffffffffffffffffffffffffffffffffffffff91909116815260200190565b60405180910390a3600101610793565b506108dc565b6040517f360113880000000000000000000000000000000000000000000000000000000081526004810188905273ffffffffffffffffffffffffffffffffffffffff82166024820152604401610475565b50505050505050565b6108f933826108f2610a04565b9190610a56565b50565b6000806101a960017fca9d3e17f264b0f3984e2634e94adb37fa3e6a8103f06aeae6fa59e21c769f5e6110c6565b60007c01000000000000000000000000000000000000000000000000000000007fffffffff0000000000000000000000000000000000000000000000000000000083160161097a575060006101a9565b7ffe003659000000000000000000000000000000000000000000000000000000007fffffffff000000000000000000000000000000000000000000000000000000008316016109cb575060016101a9565b507fffffffff00000000000000000000000000000000000000000000000000000000166000908152602091909152604090205460ff1690565b6000806101a960017fc9ed16f33ab3a66c84bfd83099ccb2a8845871e2e1c1928f63797152f0fd54cd6110c6565b6000806000610a418585610b6b565b91509150610a4e81610bb0565b509392505050565b825473ffffffffffffffffffffffffffffffffffffffff9081169083168114610ac3576040517f2ef4875e00000000000000000000000000000000000000000000000000000000815273ffffffffffffffffffffffffffffffffffffffff84166004820152602401610475565b8173ffffffffffffffffffffffffffffffffffffffff168173ffffffffffffffffffffffffffffffffffffffff1614610b655783547fffffffffffffffffffffffff00000000000000000000000000000000000000001673ffffffffffffffffffffffffffffffffffffffff8381169182178655604051908316907f8be0079c531659141344cd1fd0a4f28419497f9722a3daafe3b4186f6b6457e090600090a35b50505050565b6000808251604103610ba15760208301516040840151606085015160001a610b9587828585610d63565b94509450505050610ba9565b506000905060025b9250929050565b6000816004811115610bc457610bc4611100565b03610bcc5750565b6001816004811115610be057610be0611100565b03610c47576040517f08c379a000000000000000000000000000000000000000000000000000000000815260206004820152601860248201527f45434453413a20696e76616c6964207369676e617475726500000000000000006044820152606401610475565b6002816004811115610c5b57610c5b611100565b03610cc2576040517f08c379a000000000000000000000000000000000000000000000000000000000815260206004820152601f60248201527f45434453413a20696e76616c6964207369676e6174757265206c656e677468006044820152606401610475565b6003816004811115610cd657610cd6611100565b036108f9576040517f08c379a000000000000000000000000000000000000000000000000000000000815260206004820152602260248201527f45434453413a20696e76616c6964207369676e6174757265202773272076616c60448201527f75650000000000000000000000000000000000000000000000000000000000006064820152608401610475565b6000807f7fffffffffffffffffffffffffffffff5d576e7357a4501ddfe92f46681b20a0831115610d9a5750600090506003610e49565b6040805160008082526020820180845289905260ff881692820192909252606081018690526080810185905260019060a0016020604051602081039080840390855afa158015610dee573d6000803e3d6000fd5b50506040517fffffffffffffffffffffffffffffffffffffffffffffffffffffffffffffffe0015191505073ffffffffffffffffffffffffffffffffffffffff8116610e4257600060019250925050610e49565b9150600090505b94509492505050565b600060208284031215610e6457600080fd5b81357fffffffff0000000000000000000000000000000000000000000000000000000081168114610e9457600080fd5b9392505050565b60008083601f840112610ead57600080fd5b50813567ffffffffffffffff811115610ec557600080fd5b602083019150836020828501011115610ba957600080fd5b60008060008060608587031215610ef357600080fd5b8435935060208501359250604085013567ffffffffffffffff811115610f1857600080fd5b610f2487828801610e9b565b95989497509550505050565b60008060408385031215610f4357600080fd5b50508035926020909101359150565b600080600080600060608688031215610f6a57600080fd5b85359450602086013567ffffffffffffffff80821115610f8957600080fd5b818801915088601f830112610f9d57600080fd5b813581811115610fac57600080fd5b8960208260051b8501011115610fc157600080fd5b602083019650809550506040880135915080821115610fdf57600080fd5b50610fec88828901610e9b565b969995985093965092949392505050565b60006020828403121561100f57600080fd5b813573ffffffffffffffffffffffffffffffffffffffff81168114610e9457600080fd5b60006020828403121561104557600080fd5b81518015158114610e9457600080fd5b60007f07ffffffffffffffffffffffffffffffffffffffffffffffffffffffffffffff83111561108457600080fd5b8260051b80858437919091019392505050565b7f4e487b7100000000000000000000000000000000000000000000000000000000600052603260045260246000fd5b818103818111156101a9577f4e487b7100000000000000000000000000000000000000000000000000000000600052601160045260246000fd5b7f4e487b7100000000000000000000000000000000000000000000000000000000600052602160045260246000fdfea2646970667358221220979bef043cb586e3dc3938e953fb53a3a47262ed3a9c6164d5c8a3e2bd60f58b64736f6c63430008160033",
  "linkReferences": {},
  "deployedLinkReferences": {}
}