{
  "_format": "hh-sol-artifact-1",
  "contractName": "OpenCampusCertificateRevocationRegistry",
  "sourceName": "contracts/vc/OpenCampusCertificateRevocationRegistry.sol",
  "abi": [
    {
      "inputs": [
        {
          "internalType": "contract IIssuersDIDRegistry",
          "name": "didRegistry",
          "type": "address"
        }
      ],
      "stateMutability": "nonpayable",
      "type": "constructor"
    },
    {
      "inputs": [],
      "name": "IllegalInterfaceId",
      "type": "error"
    },
    {
      "inputs": [],
      "name": "InvalidIssuer",
      "type": "error"
    },
    {
      "inputs": [
        {
          "internalType": "address",
          "name": "account",
          "type": "address"
        }
      ],
      "name": "NotContractOwner",
      "type": "error"
    },
    {
      "anonymous": false,
      "inputs": [
        {
          "indexed": true,
          "internalType": "address",
          "name": "previousOwner",
          "type": "address"
        },
        {
          "indexed": true,
          "internalType": "address",
          "name": "newOwner",
          "type": "address"
        }
      ],
      "name": "OwnershipTransferred",
      "type": "event"
    },
    {
      "anonymous": false,
      "inputs": [
        {
          "indexed": true,
          "internalType": "bytes32",
          "name": "hashedIssuerDid",
          "type": "bytes32"
        },
        {
          "indexed": false,
          "internalType": "address",
          "name": "caller",
          "type": "address"
        },
        {
          "indexed": true,
          "internalType": "uint256",
          "name": "vcId",
          "type": "uint256"
        }
      ],
      "name": "VcRevoked",
      "type": "event"
    },
    {
      "inputs": [],
      "name": "DOMAIN_SEPARATOR",
      "outputs": [
        {
          "internalType": "bytes32",
          "name": "domainSeparator",
          "type": "bytes32"
        }
      ],
      "stateMutability": "view",
      "type": "function"
    },
    {
      "inputs": [
        {
          "internalType": "bytes32",
          "name": "hashedIssuerDid",
          "type": "bytes32"
        },
        {
          "internalType": "uint256[]",
          "name": "vcIds",
          "type": "uint256[]"
        },
        {
          "internalType": "bytes",
          "name": "signature",
          "type": "bytes"
        }
      ],
      "name": "batchRevokeVCs",
      "outputs": [],
      "stateMutability": "nonpayable",
      "type": "function"
    },
    {
      "inputs": [
        {
          "internalType": "bytes32",
          "name": "hashedIssuerDid",
          "type": "bytes32"
        },
        {
          "internalType": "uint256",
          "name": "vcId",
          "type": "uint256"
        }
      ],
      "name": "isRevoked",
      "outputs": [
        {
          "internalType": "bool",
          "name": "revoked",
          "type": "bool"
        }
      ],
      "stateMutability": "view",
      "type": "function"
    },
    {
      "inputs": [],
      "name": "owner",
      "outputs": [
        {
          "internalType": "address",
          "name": "",
          "type": "address"
        }
      ],
      "stateMutability": "view",
      "type": "function"
    },
    {
      "inputs": [
        {
          "internalType": "bytes32",
          "name": "",
          "type": "bytes32"
        },
        {
          "internalType": "uint256",
          "name": "",
          "type": "uint256"
        }
      ],
      "name": "revocations",
      "outputs": [
        {
          "internalType": "address",
          "name": "",
          "type": "address"
        }
      ],
      "stateMutability": "view",
      "type": "function"
    },
    {
      "inputs": [
        {
          "internalType": "bytes32",
          "name": "hashedIssuerDid",
          "type": "bytes32"
        },
        {
          "internalType": "uint256",
          "name": "vcId",
          "type": "uint256"
        },
        {
          "internalType": "bytes",
          "name": "signature",
          "type": "bytes"
        }
      ],
      "name": "revokeVC",
      "outputs": [],
      "stateMutability": "nonpayable",
      "type": "function"
    },
    {
      "inputs": [
        {
          "internalType": "bytes4",
          "name": "interfaceId",
          "type": "bytes4"
        }
      ],
      "name": "supportsInterface",
      "outputs": [
        {
          "internalType": "bool",
          "name": "",
          "type": "bool"
        }
      ],
      "stateMutability": "view",
      "type": "function"
    },
    {
      "inputs": [
        {
          "internalType": "address",
          "name": "newOwner",
          "type": "address"
        }
      ],
      "name": "transferOwnership",
      "outputs": [],
      "stateMutability": "nonpayable",
      "type": "function"
    }
  ],
  "bytecode": "0x60e06040523480156200001157600080fd5b50604051620014583803806200145883398101604081905262000034916200021b565b336200004b8162000044620000dd565b9062000113565b506001600160a01b031660809081524660a0818152604080517f8cad95687ba82c2ce50e74f7b754645e5117c3a5bec8151c0726d5857980a8666020808301919091527fe951ffb7916e206225d235b0f631570b39e4e0323bc42da6208ae1258c2ecd3e8284015260608201949094523081860152815180820390950185529091019052815191012060c0526200026f565b6000806200010d60017fc9ed16f33ab3a66c84bfd83099ccb2a8845871e2e1c1928f63797152f0fd54cd6200024d565b92915050565b6001600160a01b038116156200016a5781546001600160a01b0319166001600160a01b03821690811783556040516000907f8be0079c531659141344cd1fd0a4f28419497f9722a3daafe3b4186f6b6457e0908290a35b6200018a6307f5828d60e41b6001620001826200018e565b9190620001be565b5050565b6000806200010d60017fca9d3e17f264b0f3984e2634e94adb37fa3e6a8103f06aeae6fa59e21c769f5e6200024d565b600160e01b6001600160e01b0319831601620001ed576040516372c683bb60e01b815260040160405180910390fd5b6001600160e01b03199190911660009081526020929092526040909120805460ff1916911515919091179055565b6000602082840312156200022e57600080fd5b81516001600160a01b03811681146200024657600080fd5b9392505050565b818103818111156200010d57634e487b7160e01b600052601160045260246000fd5b60805160a05160c0516111ab620002ad600039600061024a015260006101a30152600081816103f80152818161059d01526107b501526111ab6000f3fe608060405234801561001057600080fd5b50600436106100885760003560e01c8063a3a2656a1161005b578063a3a2656a1461010d578063d394ab5a14610120578063e688c27b1461015e578063f2fde38b1461017157600080fd5b806301ffc9a71461008d5780633644e515146100b55780638da5cb5b146100cb57806398fc75a2146100f8575b600080fd5b6100a061009b366004610e98565b610184565b60405190151581526020015b60405180910390f35b6100bd61019e565b6040519081526020016100ac565b6100d3610270565b60405173ffffffffffffffffffffffffffffffffffffffff90911681526020016100ac565b61010b610106366004610f23565b61029c565b005b6100a061011b366004610f76565b610536565b6100d361012e366004610f76565b600060208181529281526040808220909352908152205473ffffffffffffffffffffffffffffffffffffffff1681565b61010b61016c366004610f98565b610610565b61010b61017f366004611043565b610926565b60006101988261019261093d565b9061096b565b92915050565b6000467f0000000000000000000000000000000000000000000000000000000000000000811461024857604080517f8cad95687ba82c2ce50e74f7b754645e5117c3a5bec8151c0726d5857980a8666020808301919091527fe951ffb7916e206225d235b0f631570b39e4e0323bc42da6208ae1258c2ecd3e8284015260608201849052306080808401919091528351808403909101815260a0909201909252805191012061026a565b7f00000000000000000000000000000000000000000000000000000000000000005b91505090565b600061029761027d610a45565b5473ffffffffffffffffffffffffffffffffffffffff1690565b905090565b60006102a661019e565b604080517fccd989bd7181bf32a5252e0794fbd3acd778c350d2667f94457755c1849899df602082015290810187905260608101869052608001604051602081830303815290604052805190602001206040516020016103389291907f190100000000000000000000000000000000000000000000000000000000000081526002810192909252602282015260420190565b604080517fffffffffffffffffffffffffffffffffffffffffffffffffffffffffffffffe08184030181526020601f860181900481028401810190925284835292506000916103a9918690869081908401838280828437600092019190915250508551602087012092915050610a73565b6040517ff9236a390000000000000000000000000000000000000000000000000000000081526004810188905273ffffffffffffffffffffffffffffffffffffffff80831660248301529192507f00000000000000000000000000000000000000000000000000000000000000009091169063f9236a3990604401602060405180830381865afa158015610441573d6000803e3d6000fd5b505050506040513d601f19601f820116820180604052508101906104659190611079565b156104fc5760008681526020818152604080832088845282529182902080547fffffffffffffffffffffffff00000000000000000000000000000000000000001673ffffffffffffffffffffffffffffffffffffffff85169081179091559151918252869188917f2f844f99f3ce1f0191a01a59fd0c17e12427806ea6e7bcaec13443fd6b9f5056910160405180910390a361052e565b6040517fbdbfe21600000000000000000000000000000000000000000000000000000000815260040160405180910390fd5b505050505050565b6000828152602081815260408083208484529091528082205490517ff9236a390000000000000000000000000000000000000000000000000000000081526004810185905273ffffffffffffffffffffffffffffffffffffffff91821660248201819052917f0000000000000000000000000000000000000000000000000000000000000000169063f9236a3990604401602060405180830381865afa1580156105e4573d6000803e3d6000fd5b505050506040513d601f19601f820116820180604052508101906106089190611079565b949350505050565b600061061a61019e565b7f74c3c2704ed3af9e8114f76711701f9cef0242b680ea2bdec8423e461f3895ab87878760405160200161064f92919061109b565b604080517fffffffffffffffffffffffffffffffffffffffffffffffffffffffffffffffe08184030181528282528051602091820120908301949094528101919091526060810191909152608001604051602081830303815290604052805190602001206040516020016106f59291907f190100000000000000000000000000000000000000000000000000000000000081526002810192909252602282015260420190565b604080517fffffffffffffffffffffffffffffffffffffffffffffffffffffffffffffffe08184030181526020601f86018190048102840181019092528483529250600091610766918690869081908401838280828437600092019190915250508551602087012092915050610a73565b6040517ff9236a390000000000000000000000000000000000000000000000000000000081526004810189905273ffffffffffffffffffffffffffffffffffffffff80831660248301529192507f00000000000000000000000000000000000000000000000000000000000000009091169063f9236a3990604401602060405180830381865afa1580156107fe573d6000803e3d6000fd5b505050506040513d601f19601f820116820180604052508101906108229190611079565b156104fc5760005b8581101561091c5760008881526020819052604081208391898985818110610854576108546110dd565b90506020020135815260200190815260200160002060006101000a81548173ffffffffffffffffffffffffffffffffffffffff021916908373ffffffffffffffffffffffffffffffffffffffff1602179055508686828181106108b9576108b96110dd565b90506020020135887f2f844f99f3ce1f0191a01a59fd0c17e12427806ea6e7bcaec13443fd6b9f50568460405161090c919073ffffffffffffffffffffffffffffffffffffffff91909116815260200190565b60405180910390a360010161082a565b5050505050505050565b61093a3382610933610a45565b9190610a97565b50565b60008061019860017fca9d3e17f264b0f3984e2634e94adb37fa3e6a8103f06aeae6fa59e21c769f5e61110c565b60007c01000000000000000000000000000000000000000000000000000000007fffffffff000000000000000000000000000000000000000000000000000000008316016109bb57506000610198565b7ffe003659000000000000000000000000000000000000000000000000000000007fffffffff00000000000000000000000000000000000000000000000000000000831601610a0c57506001610198565b507fffffffff00000000000000000000000000000000000000000000000000000000166000908152602091909152604090205460ff1690565b60008061019860017fc9ed16f33ab3a66c84bfd83099ccb2a8845871e2e1c1928f63797152f0fd54cd61110c565b6000806000610a828585610bb1565b91509150610a8f81610bf6565b509392505050565b825473ffffffffffffffffffffffffffffffffffffffff9081169083168114610b09576040517f2ef4875e00000000000000000000000000000000000000000000000000000000815273ffffffffffffffffffffffffffffffffffffffff841660048201526024015b60405180910390fd5b8173ffffffffffffffffffffffffffffffffffffffff168173ffffffffffffffffffffffffffffffffffffffff1614610bab5783547fffffffffffffffffffffffff00000000000000000000000000000000000000001673ffffffffffffffffffffffffffffffffffffffff8381169182178655604051908316907f8be0079c531659141344cd1fd0a4f28419497f9722a3daafe3b4186f6b6457e090600090a35b50505050565b6000808251604103610be75760208301516040840151606085015160001a610bdb87828585610da9565b94509450505050610bef565b506000905060025b9250929050565b6000816004811115610c0a57610c0a611146565b03610c125750565b6001816004811115610c2657610c26611146565b03610c8d576040517f08c379a000000000000000000000000000000000000000000000000000000000815260206004820152601860248201527f45434453413a20696e76616c6964207369676e617475726500000000000000006044820152606401610b00565b6002816004811115610ca157610ca1611146565b03610d08576040517f08c379a000000000000000000000000000000000000000000000000000000000815260206004820152601f60248201527f45434453413a20696e76616c6964207369676e6174757265206c656e677468006044820152606401610b00565b6003816004811115610d1c57610d1c611146565b0361093a576040517f08c379a000000000000000000000000000000000000000000000000000000000815260206004820152602260248201527f45434453413a20696e76616c6964207369676e6174757265202773272076616c60448201527f75650000000000000000000000000000000000000000000000000000000000006064820152608401610b00565b6000807f7fffffffffffffffffffffffffffffff5d576e7357a4501ddfe92f46681b20a0831115610de05750600090506003610e8f565b6040805160008082526020820180845289905260ff881692820192909252606081018690526080810185905260019060a0016020604051602081039080840390855afa158015610e34573d6000803e3d6000fd5b50506040517fffffffffffffffffffffffffffffffffffffffffffffffffffffffffffffffe0015191505073ffffffffffffffffffffffffffffffffffffffff8116610e8857600060019250925050610e8f565b9150600090505b94509492505050565b600060208284031215610eaa57600080fd5b81357fffffffff0000000000000000000000000000000000000000000000000000000081168114610eda57600080fd5b9392505050565b60008083601f840112610ef357600080fd5b50813567ffffffffffffffff811115610f0b57600080fd5b602083019150836020828501011115610bef57600080fd5b60008060008060608587031215610f3957600080fd5b8435935060208501359250604085013567ffffffffffffffff811115610f5e57600080fd5b610f6a87828801610ee1565b95989497509550505050565b60008060408385031215610f8957600080fd5b50508035926020909101359150565b600080600080600060608688031215610fb057600080fd5b85359450602086013567ffffffffffffffff80821115610fcf57600080fd5b818801915088601f830112610fe357600080fd5b813581811115610ff257600080fd5b8960208260051b850101111561100757600080fd5b60208301965080955050604088013591508082111561102557600080fd5b5061103288828901610ee1565b969995985093965092949392505050565b60006020828403121561105557600080fd5b813573ffffffffffffffffffffffffffffffffffffffff81168114610eda57600080fd5b60006020828403121561108b57600080fd5b81518015158114610eda57600080fd5b60007f07ffffffffffffffffffffffffffffffffffffffffffffffffffffffffffffff8311156110ca57600080fd5b8260051b80858437919091019392505050565b7f4e487b7100000000000000000000000000000000000000000000000000000000600052603260045260246000fd5b81810381811115610198577f4e487b7100000000000000000000000000000000000000000000000000000000600052601160045260246000fd5b7f4e487b7100000000000000000000000000000000000000000000000000000000600052602160045260246000fdfea2646970667358221220ab9c60f2c86917f86da36d860b55ebca22aab619c19877b681637bc1d680093764736f6c63430008160033",
  "linkReferences": {},
  "deployedLinkReferences": {}
}