{
  "_format": "hh-sol-artifact-1",
  "contractName": "OpenCampusCertificateRevocationRegistry",
  "sourceName": "contracts/vc/OpenCampusCertificateRevocationRegistry.sol",
  "abi": [
    {
      "inputs": [
        {
          "internalType": "contract IIssuersDIDRegistry",
          "name": "didRegistry",
          "type": "address"
        }
      ],
      "stateMutability": "nonpayable",
      "type": "constructor"
    },
    {
      "inputs": [],
      "name": "IllegalInterfaceId",
      "type": "error"
    },
    {
      "inputs": [],
      "name": "InvalidIssuer",
      "type": "error"
    },
    {
      "inputs": [],
      "name": "InvalidNonce",
      "type": "error"
    },
    {
      "inputs": [],
      "name": "InvalidSignature",
      "type": "error"
    },
    {
      "inputs": [
        {
          "internalType": "address",
          "name": "account",
          "type": "address"
        }
      ],
      "name": "NotContractOwner",
      "type": "error"
    },
    {
      "anonymous": false,
      "inputs": [
        {
          "indexed": true,
          "internalType": "address",
          "name": "previousOwner",
          "type": "address"
        },
        {
          "indexed": true,
          "internalType": "address",
          "name": "newOwner",
          "type": "address"
        }
      ],
      "name": "OwnershipTransferred",
      "type": "event"
    },
    {
      "anonymous": false,
      "inputs": [
        {
          "indexed": true,
          "internalType": "bytes32",
          "name": "hashedIssuerDid",
          "type": "bytes32"
        },
        {
          "indexed": false,
          "internalType": "address",
          "name": "caller",
          "type": "address"
        },
        {
          "indexed": true,
          "internalType": "uint256",
          "name": "vcId",
          "type": "uint256"
        }
      ],
      "name": "VcRevoked",
      "type": "event"
    },
    {
      "inputs": [
        {
          "internalType": "bytes32",
          "name": "hashedIssuerDid",
          "type": "bytes32"
        },
        {
          "internalType": "uint256[]",
          "name": "vcIds",
          "type": "uint256[]"
        },
        {
          "internalType": "uint256",
          "name": "nonce",
          "type": "uint256"
        },
        {
          "internalType": "bytes",
          "name": "signature",
          "type": "bytes"
        }
      ],
      "name": "batchRevokeVCs",
      "outputs": [],
      "stateMutability": "nonpayable",
      "type": "function"
    },
    {
      "inputs": [],
      "name": "currentNonce",
      "outputs": [
        {
          "internalType": "uint256",
          "name": "",
          "type": "uint256"
        }
      ],
      "stateMutability": "view",
      "type": "function"
    },
    {
      "inputs": [
        {
          "internalType": "bytes32",
          "name": "hashedIssuerDid",
          "type": "bytes32"
        },
        {
          "internalType": "uint256",
          "name": "vcId",
          "type": "uint256"
        }
      ],
      "name": "isRevoked",
      "outputs": [
        {
          "internalType": "bool",
          "name": "revoked",
          "type": "bool"
        }
      ],
      "stateMutability": "view",
      "type": "function"
    },
    {
      "inputs": [],
      "name": "owner",
      "outputs": [
        {
          "internalType": "address",
          "name": "",
          "type": "address"
        }
      ],
      "stateMutability": "view",
      "type": "function"
    },
    {
      "inputs": [
        {
          "internalType": "bytes32",
          "name": "",
          "type": "bytes32"
        },
        {
          "internalType": "uint256",
          "name": "",
          "type": "uint256"
        }
      ],
      "name": "revocations",
      "outputs": [
        {
          "internalType": "address",
          "name": "",
          "type": "address"
        }
      ],
      "stateMutability": "view",
      "type": "function"
    },
    {
      "inputs": [
        {
          "internalType": "bytes32",
          "name": "hashedIssuerDid",
          "type": "bytes32"
        },
        {
          "internalType": "uint256",
          "name": "vcId",
          "type": "uint256"
        },
        {
          "internalType": "uint256",
          "name": "nonce",
          "type": "uint256"
        },
        {
          "internalType": "bytes",
          "name": "signature",
          "type": "bytes"
        }
      ],
      "name": "revokeVC",
      "outputs": [],
      "stateMutability": "nonpayable",
      "type": "function"
    },
    {
      "inputs": [
        {
          "internalType": "bytes4",
          "name": "interfaceId",
          "type": "bytes4"
        }
      ],
      "name": "supportsInterface",
      "outputs": [
        {
          "internalType": "bool",
          "name": "",
          "type": "bool"
        }
      ],
      "stateMutability": "view",
      "type": "function"
    },
    {
      "inputs": [
        {
          "internalType": "address",
          "name": "newOwner",
          "type": "address"
        }
      ],
      "name": "transferOwnership",
      "outputs": [],
      "stateMutability": "nonpayable",
      "type": "function"
    }
  ],
  "bytecode": "0x60a06040523480156200001157600080fd5b50604051620010833803806200108383398101604081905262000034916200019c565b336200004b81620000446200005e565b9062000094565b506001600160a01b0316608052620001f0565b6000806200008e60017fc9ed16f33ab3a66c84bfd83099ccb2a8845871e2e1c1928f63797152f0fd54cd620001ce565b92915050565b6001600160a01b03811615620000eb5781546001600160a01b0319166001600160a01b03821690811783556040516000907f8be0079c531659141344cd1fd0a4f28419497f9722a3daafe3b4186f6b6457e0908290a35b6200010b6307f5828d60e41b6001620001036200010f565b91906200013f565b5050565b6000806200008e60017fca9d3e17f264b0f3984e2634e94adb37fa3e6a8103f06aeae6fa59e21c769f5e620001ce565b600160e01b6001600160e01b03198316016200016e576040516372c683bb60e01b815260040160405180910390fd5b6001600160e01b03199190911660009081526020929092526040909120805460ff1916911515919091179055565b600060208284031215620001af57600080fd5b81516001600160a01b0381168114620001c757600080fd5b9392505050565b818103818111156200008e57634e487b7160e01b600052601160045260246000fd5b608051610e696200021a600039600081816103350152818161061901526108320152610e696000f3fe608060405234801561001057600080fd5b50600436106100885760003560e01c8063a3a2656a1161005b578063a3a2656a1461010a578063adb610a31461011d578063d394ab5a14610134578063f2fde38b1461017257600080fd5b806301ffc9a71461008d57806312b7ad29146100b55780634c66f71c146100ca5780638da5cb5b146100dd575b600080fd5b6100a061009b366004610b0b565b610185565b60405190151581526020015b60405180910390f35b6100c86100c3366004610b9d565b61019f565b005b6100c86100d8366004610bfe565b610488565b6100e561079f565b60405173ffffffffffffffffffffffffffffffffffffffff90911681526020016100ac565b6100a0610118366004610cb2565b6107cb565b61012660015481565b6040519081526020016100ac565b6100e5610142366004610cb2565b600060208181529281526040808220909352908152205473ffffffffffffffffffffffffffffffffffffffff1681565b6100c8610180366004610cd4565b6108a5565b6000610199826101936108bc565b906108ea565b92915050565b60015483146101da576040517f756688fe00000000000000000000000000000000000000000000000000000000815260040160405180910390fd5b60418114610214576040517f8baa579f00000000000000000000000000000000000000000000000000000000815260040160405180910390fd5b604080516020808201889052918101869052606081018590526021840135918435919085013590600090600190608001604080517fffffffffffffffffffffffffffffffffffffffffffffffffffffffffffffffe08184030181528282528051602091820120600084529083018083525260ff871690820152606081018590526080810184905260a0016020604051602081039080840390855afa1580156102c0573d6000803e3d6000fd5b50506040517fffffffffffffffffffffffffffffffffffffffffffffffffffffffffffffffe08101517ff9236a39000000000000000000000000000000000000000000000000000000008252600482018c905273ffffffffffffffffffffffffffffffffffffffff80821660248401529093507f000000000000000000000000000000000000000000000000000000000000000016915063f9236a3990604401602060405180830381865afa15801561037d573d6000803e3d6000fd5b505050506040513d601f19601f820116820180604052508101906103a19190610d0a565b1561044b576000898152602081815260408083208b845282529182902080547fffffffffffffffffffffffff00000000000000000000000000000000000000001673ffffffffffffffffffffffffffffffffffffffff8516908117909155915191825289918b917f2f844f99f3ce1f0191a01a59fd0c17e12427806ea6e7bcaec13443fd6b9f5056910160405180910390a360016000815461044290610d5b565b9091555061047d565b6040517fbdbfe21600000000000000000000000000000000000000000000000000000000815260040160405180910390fd5b505050505050505050565b60015483146104c3576040517f756688fe00000000000000000000000000000000000000000000000000000000815260040160405180910390fd5b604181146104fd576040517f8baa579f00000000000000000000000000000000000000000000000000000000815260040160405180910390fd5b60405160218301359083359060208086013591600091600191610528918d918d918d918d9101610d93565b604080517fffffffffffffffffffffffffffffffffffffffffffffffffffffffffffffffe08184030181528282528051602091820120600084529083018083525260ff871690820152606081018590526080810184905260a0016020604051602081039080840390855afa1580156105a4573d6000803e3d6000fd5b50506040517fffffffffffffffffffffffffffffffffffffffffffffffffffffffffffffffe08101517ff9236a39000000000000000000000000000000000000000000000000000000008252600482018d905273ffffffffffffffffffffffffffffffffffffffff80821660248401529093507f000000000000000000000000000000000000000000000000000000000000000016915063f9236a3990604401602060405180830381865afa158015610661573d6000803e3d6000fd5b505050506040513d601f19601f820116820180604052508101906106859190610d0a565b1561044b5760005b8881101561077f5760008b815260208190526040812083918c8c858181106106b7576106b7610df1565b90506020020135815260200190815260200160002060006101000a81548173ffffffffffffffffffffffffffffffffffffffff021916908373ffffffffffffffffffffffffffffffffffffffff16021790555089898281811061071c5761071c610df1565b905060200201358b7f2f844f99f3ce1f0191a01a59fd0c17e12427806ea6e7bcaec13443fd6b9f50568460405161076f919073ffffffffffffffffffffffffffffffffffffffff91909116815260200190565b60405180910390a360010161068d565b5060016000815461078f90610d5b565b9091555050505050505050505050565b60006107c66107ac6109c4565b5473ffffffffffffffffffffffffffffffffffffffff1690565b905090565b6000828152602081815260408083208484529091528082205490517ff9236a390000000000000000000000000000000000000000000000000000000081526004810185905273ffffffffffffffffffffffffffffffffffffffff91821660248201819052917f0000000000000000000000000000000000000000000000000000000000000000169063f9236a3990604401602060405180830381865afa158015610879573d6000803e3d6000fd5b505050506040513d601f19601f8201168201806040525081019061089d9190610d0a565b949350505050565b6108b933826108b26109c4565b91906109f2565b50565b60008061019960017fca9d3e17f264b0f3984e2634e94adb37fa3e6a8103f06aeae6fa59e21c769f5e610e20565b60007c01000000000000000000000000000000000000000000000000000000007fffffffff0000000000000000000000000000000000000000000000000000000083160161093a57506000610199565b7ffe003659000000000000000000000000000000000000000000000000000000007fffffffff0000000000000000000000000000000000000000000000000000000083160161098b57506001610199565b507fffffffff00000000000000000000000000000000000000000000000000000000166000908152602091909152604090205460ff1690565b60008061019960017fc9ed16f33ab3a66c84bfd83099ccb2a8845871e2e1c1928f63797152f0fd54cd610e20565b825473ffffffffffffffffffffffffffffffffffffffff9081169083168114610a63576040517f2ef4875e00000000000000000000000000000000000000000000000000000000815273ffffffffffffffffffffffffffffffffffffffff8416600482015260240160405180910390fd5b8173ffffffffffffffffffffffffffffffffffffffff168173ffffffffffffffffffffffffffffffffffffffff1614610b055783547fffffffffffffffffffffffff00000000000000000000000000000000000000001673ffffffffffffffffffffffffffffffffffffffff8381169182178655604051908316907f8be0079c531659141344cd1fd0a4f28419497f9722a3daafe3b4186f6b6457e090600090a35b50505050565b600060208284031215610b1d57600080fd5b81357fffffffff0000000000000000000000000000000000000000000000000000000081168114610b4d57600080fd5b9392505050565b60008083601f840112610b6657600080fd5b50813567ffffffffffffffff811115610b7e57600080fd5b602083019150836020828501011115610b9657600080fd5b9250929050565b600080600080600060808688031215610bb557600080fd5b853594506020860135935060408601359250606086013567ffffffffffffffff811115610be157600080fd5b610bed88828901610b54565b969995985093965092949392505050565b60008060008060008060808789031215610c1757600080fd5b86359550602087013567ffffffffffffffff80821115610c3657600080fd5b818901915089601f830112610c4a57600080fd5b813581811115610c5957600080fd5b8a60208260051b8501011115610c6e57600080fd5b60208301975080965050604089013594506060890135915080821115610c9357600080fd5b50610ca089828a01610b54565b979a9699509497509295939492505050565b60008060408385031215610cc557600080fd5b50508035926020909101359150565b600060208284031215610ce657600080fd5b813573ffffffffffffffffffffffffffffffffffffffff81168114610b4d57600080fd5b600060208284031215610d1c57600080fd5b81518015158114610b4d57600080fd5b7f4e487b7100000000000000000000000000000000000000000000000000000000600052601160045260246000fd5b60007fffffffffffffffffffffffffffffffffffffffffffffffffffffffffffffffff8203610d8c57610d8c610d2c565b5060010190565b8481526060602082015282606082015260007f07ffffffffffffffffffffffffffffffffffffffffffffffffffffffffffffff841115610dd257600080fd5b8360051b80866080850137604083019390935250016080019392505050565b7f4e487b7100000000000000000000000000000000000000000000000000000000600052603260045260246000fd5b8181038181111561019957610199610d2c56fea26469706673582212209e28d931a67c51a7b9bdb87ba9d987e1c8b6242669600cd8bb79a2f562cbb08d64736f6c63430008160033",
  "linkReferences": {},
  "deployedLinkReferences": {}
}