{
  "_format": "hh-sol-artifact-1",
  "contractName": "EDULandRewards",
  "sourceName": "contracts/land/EDULandRewards.sol",
  "abi": [
    {
      "inputs": [
        {
          "internalType": "uint256",
          "name": "maxRewardTimeWindow",
          "type": "uint256"
        },
        {
          "internalType": "address",
          "name": "referee",
          "type": "address"
        },
        {
          "internalType": "address",
          "name": "landAddress",
          "type": "address"
        },
        {
          "internalType": "address",
          "name": "rewardToken",
          "type": "address"
        },
        {
          "internalType": "uint256",
          "name": "rewardPerSecond_",
          "type": "uint256"
        }
      ],
      "stateMutability": "nonpayable",
      "type": "constructor"
    },
    {
      "inputs": [],
      "name": "ETHTransferFailed",
      "type": "error"
    },
    {
      "inputs": [],
      "name": "OnlyKycWallet",
      "type": "error"
    },
    {
      "inputs": [],
      "name": "OnlyReferee",
      "type": "error"
    },
    {
      "anonymous": false,
      "inputs": [
        {
          "indexed": false,
          "internalType": "uint8",
          "name": "version",
          "type": "uint8"
        }
      ],
      "name": "Initialized",
      "type": "event"
    },
    {
      "anonymous": false,
      "inputs": [
        {
          "indexed": false,
          "internalType": "bool",
          "name": "_disabled",
          "type": "bool"
        }
      ],
      "name": "LogSetKycDisabled",
      "type": "event"
    },
    {
      "anonymous": false,
      "inputs": [
        {
          "indexed": false,
          "internalType": "uint256",
          "name": "rewardPerSecond",
          "type": "uint256"
        }
      ],
      "name": "RewardPerSecondUpdated",
      "type": "event"
    },
    {
      "anonymous": false,
      "inputs": [
        {
          "indexed": true,
          "internalType": "bytes32",
          "name": "role",
          "type": "bytes32"
        },
        {
          "indexed": true,
          "internalType": "bytes32",
          "name": "previousAdminRole",
          "type": "bytes32"
        },
        {
          "indexed": true,
          "internalType": "bytes32",
          "name": "newAdminRole",
          "type": "bytes32"
        }
      ],
      "name": "RoleAdminChanged",
      "type": "event"
    },
    {
      "anonymous": false,
      "inputs": [
        {
          "indexed": true,
          "internalType": "bytes32",
          "name": "role",
          "type": "bytes32"
        },
        {
          "indexed": true,
          "internalType": "address",
          "name": "account",
          "type": "address"
        },
        {
          "indexed": true,
          "internalType": "address",
          "name": "sender",
          "type": "address"
        }
      ],
      "name": "RoleGranted",
      "type": "event"
    },
    {
      "anonymous": false,
      "inputs": [
        {
          "indexed": true,
          "internalType": "bytes32",
          "name": "role",
          "type": "bytes32"
        },
        {
          "indexed": true,
          "internalType": "address",
          "name": "account",
          "type": "address"
        },
        {
          "indexed": true,
          "internalType": "address",
          "name": "sender",
          "type": "address"
        }
      ],
      "name": "RoleRevoked",
      "type": "event"
    },
    {
      "inputs": [],
      "name": "ADMIN_KYC_CONTROLLER_ROLE",
      "outputs": [
        {
          "internalType": "bytes32",
          "name": "",
          "type": "bytes32"
        }
      ],
      "stateMutability": "view",
      "type": "function"
    },
    {
      "inputs": [],
      "name": "DEFAULT_ADMIN_ROLE",
      "outputs": [
        {
          "internalType": "bytes32",
          "name": "",
          "type": "bytes32"
        }
      ],
      "stateMutability": "view",
      "type": "function"
    },
    {
      "inputs": [],
      "name": "KYC_CONTROLLER_ROLE",
      "outputs": [
        {
          "internalType": "bytes32",
          "name": "",
          "type": "bytes32"
        }
      ],
      "stateMutability": "view",
      "type": "function"
    },
    {
      "inputs": [],
      "name": "MAX_REWARD_TIME_WINDOW",
      "outputs": [
        {
          "internalType": "uint256",
          "name": "",
          "type": "uint256"
        }
      ],
      "stateMutability": "view",
      "type": "function"
    },
    {
      "inputs": [],
      "name": "NODE_KEY",
      "outputs": [
        {
          "internalType": "contract INodeKey",
          "name": "",
          "type": "address"
        }
      ],
      "stateMutability": "view",
      "type": "function"
    },
    {
      "inputs": [],
      "name": "OWNER_ROLE",
      "outputs": [
        {
          "internalType": "bytes32",
          "name": "",
          "type": "bytes32"
        }
      ],
      "stateMutability": "view",
      "type": "function"
    },
    {
      "inputs": [],
      "name": "REFEREE",
      "outputs": [
        {
          "internalType": "contract IReferee",
          "name": "",
          "type": "address"
        }
      ],
      "stateMutability": "view",
      "type": "function"
    },
    {
      "inputs": [],
      "name": "REWARDS_CONTROLLER_ROLE",
      "outputs": [
        {
          "internalType": "bytes32",
          "name": "",
          "type": "bytes32"
        }
      ],
      "stateMutability": "view",
      "type": "function"
    },
    {
      "inputs": [],
      "name": "REWARD_TOKEN",
      "outputs": [
        {
          "internalType": "address",
          "name": "",
          "type": "address"
        }
      ],
      "stateMutability": "view",
      "type": "function"
    },
    {
      "inputs": [
        {
          "internalType": "address[]",
          "name": "_wallets",
          "type": "address[]"
        }
      ],
      "name": "addKycWallets",
      "outputs": [],
      "stateMutability": "nonpayable",
      "type": "function"
    },
    {
      "inputs": [
        {
          "internalType": "uint256",
          "name": "_nodeKeyId",
          "type": "uint256"
        },
        {
          "internalType": "uint256[]",
          "name": "_batchNumbers",
          "type": "uint256[]"
        }
      ],
      "name": "claimReward",
      "outputs": [],
      "stateMutability": "nonpayable",
      "type": "function"
    },
    {
      "inputs": [],
      "name": "getKycWallets",
      "outputs": [
        {
          "internalType": "address[]",
          "name": "",
          "type": "address[]"
        }
      ],
      "stateMutability": "view",
      "type": "function"
    },
    {
      "inputs": [
        {
          "internalType": "bytes32",
          "name": "role",
          "type": "bytes32"
        }
      ],
      "name": "getRoleAdmin",
      "outputs": [
        {
          "internalType": "bytes32",
          "name": "",
          "type": "bytes32"
        }
      ],
      "stateMutability": "view",
      "type": "function"
    },
    {
      "inputs": [
        {
          "internalType": "bytes32",
          "name": "role",
          "type": "bytes32"
        },
        {
          "internalType": "address",
          "name": "account",
          "type": "address"
        }
      ],
      "name": "grantRole",
      "outputs": [],
      "stateMutability": "nonpayable",
      "type": "function"
    },
    {
      "inputs": [
        {
          "internalType": "bytes32",
          "name": "role",
          "type": "bytes32"
        },
        {
          "internalType": "address",
          "name": "account",
          "type": "address"
        }
      ],
      "name": "hasRole",
      "outputs": [
        {
          "internalType": "bool",
          "name": "",
          "type": "bool"
        }
      ],
      "stateMutability": "view",
      "type": "function"
    },
    {
      "inputs": [],
      "name": "kycDisabled",
      "outputs": [
        {
          "internalType": "bool",
          "name": "",
          "type": "bool"
        }
      ],
      "stateMutability": "view",
      "type": "function"
    },
    {
      "inputs": [
        {
          "internalType": "uint256",
          "name": "_batchNumber",
          "type": "uint256"
        },
        {
          "internalType": "uint256",
          "name": "_nodeKeyId",
          "type": "uint256"
        }
      ],
      "name": "onAttest",
      "outputs": [],
      "stateMutability": "nonpayable",
      "type": "function"
    },
    {
      "inputs": [
        {
          "internalType": "uint256",
          "name": "_batchNumber",
          "type": "uint256"
        },
        {
          "internalType": "uint256[]",
          "name": "_nodeKeyIds",
          "type": "uint256[]"
        }
      ],
      "name": "onBatchAttest",
      "outputs": [],
      "stateMutability": "nonpayable",
      "type": "function"
    },
    {
      "inputs": [
        {
          "internalType": "uint256",
          "name": "_batchNumber",
          "type": "uint256"
        },
        {
          "internalType": "uint256",
          "name": "_l1NodeConfirmedTimestamp",
          "type": "uint256"
        },
        {
          "internalType": "uint256",
          "name": "_prevL1NodeConfirmedTimestamp",
          "type": "uint256"
        },
        {
          "internalType": "uint256",
          "name": "_nrOfSuccessfulAttestations",
          "type": "uint256"
        }
      ],
      "name": "onFinalize",
      "outputs": [],
      "stateMutability": "nonpayable",
      "type": "function"
    },
    {
      "inputs": [
        {
          "internalType": "address[]",
          "name": "_wallets",
          "type": "address[]"
        }
      ],
      "name": "removeKycWallets",
      "outputs": [],
      "stateMutability": "nonpayable",
      "type": "function"
    },
    {
      "inputs": [
        {
          "internalType": "bytes32",
          "name": "role",
          "type": "bytes32"
        },
        {
          "internalType": "address",
          "name": "account",
          "type": "address"
        }
      ],
      "name": "renounceRole",
      "outputs": [],
      "stateMutability": "nonpayable",
      "type": "function"
    },
    {
      "inputs": [
        {
          "internalType": "bytes32",
          "name": "role",
          "type": "bytes32"
        },
        {
          "internalType": "address",
          "name": "account",
          "type": "address"
        }
      ],
      "name": "revokeRole",
      "outputs": [],
      "stateMutability": "nonpayable",
      "type": "function"
    },
    {
      "inputs": [
        {
          "internalType": "uint256",
          "name": "",
          "type": "uint256"
        }
      ],
      "name": "rewardPerLandOfBatch",
      "outputs": [
        {
          "internalType": "uint256",
          "name": "",
          "type": "uint256"
        }
      ],
      "stateMutability": "view",
      "type": "function"
    },
    {
      "inputs": [],
      "name": "rewardPerSecond",
      "outputs": [
        {
          "internalType": "uint256",
          "name": "",
          "type": "uint256"
        }
      ],
      "stateMutability": "view",
      "type": "function"
    },
    {
      "inputs": [
        {
          "internalType": "uint256",
          "name": "",
          "type": "uint256"
        },
        {
          "internalType": "uint256",
          "name": "",
          "type": "uint256"
        }
      ],
      "name": "rewardsRecipients",
      "outputs": [
        {
          "internalType": "address",
          "name": "",
          "type": "address"
        }
      ],
      "stateMutability": "view",
      "type": "function"
    },
    {
      "inputs": [
        {
          "internalType": "bool",
          "name": "_disabled",
          "type": "bool"
        }
      ],
      "name": "setKycDisabled",
      "outputs": [],
      "stateMutability": "nonpayable",
      "type": "function"
    },
    {
      "inputs": [
        {
          "internalType": "uint256",
          "name": "rewardPerSecond_",
          "type": "uint256"
        }
      ],
      "name": "setRewardPerSecond",
      "outputs": [],
      "stateMutability": "nonpayable",
      "type": "function"
    },
    {
      "inputs": [
        {
          "internalType": "bytes4",
          "name": "interfaceId",
          "type": "bytes4"
        }
      ],
      "name": "supportsInterface",
      "outputs": [
        {
          "internalType": "bool",
          "name": "",
          "type": "bool"
        }
      ],
      "stateMutability": "view",
      "type": "function"
    },
    {
      "stateMutability": "payable",
      "type": "receive"
    }
  ],
  "bytecode": "0x6101006040523480156200001257600080fd5b506040516200235c3803806200235c83398101604081905262000035916200024f565b6001600160a01b0382811660805284811660a052831660c05260e0859052609a8190556040518181527f951c6f64eb06ec6a6682072cda71420984dd55199006684bb820a80fd7e987939060200160405180910390a1620000c67fff073d0dcf74639a8d3c1c189ac3a527293f2fbae27f12acbfdaabd420f2a5f36000805160206200233c83398151915262000142565b620001017f6753d6b325cc45d6566c947baabf366ee79f2a1a197e23fbd9074f661fe28cb16000805160206200233c83398151915262000142565b6200011c6000805160206200233c8339815191528062000142565b620001376000805160206200233c833981519152336200018d565b5050505050620002ad565b600082815260656020526040808220600101805490849055905190918391839186917fbd79b86ffe0ab8e8776151514217cd7cacd52c909f66475c3af44e129f0b00ff9190a4505050565b60008281526065602090815260408083206001600160a01b038516845290915290205460ff166200022e5760008281526065602090815260408083206001600160a01b03851684529091529020805460ff19166001179055620001ed3390565b6001600160a01b0316816001600160a01b0316837f2f8788117e7eff1d82e926ec794901d17c78024a50270940304540a733656f0d60405160405180910390a45b5050565b80516001600160a01b03811681146200024a57600080fd5b919050565b600080600080600060a086880312156200026857600080fd5b855194506200027a6020870162000232565b93506200028a6040870162000232565b92506200029a6060870162000232565b9150608086015190509295509295909350565b60805160a05160c05160e05161201d6200031f6000396000818161058a0152610c670152600081816105360152610fa201526000818161049901528181610747015281816109f101528181610a6b0152610bef0152600081816104cd0152818161131101526113ea015261201d6000f3fe6080604052600436106101bb5760003560e01c806391d14854116100ec578063c2a747521161008a578063dcd50d2e11610064578063dcd50d2e146105ec578063e2d18be614610620578063e58378bb14610642578063e6ed11801461067657600080fd5b8063c2a7475214610578578063cbd73cb2146105ac578063d547741f146105cc57600080fd5b80639b6e0d74116100c65780639b6e0d74146104ef578063a217fddf1461050f578063a5f957f914610524578063b7355fb41461055857600080fd5b806391d148541461043457806395126fe61461048757806399248ea7146104bb57600080fd5b80635dff0ce9116101595780637cd727ba116101335780637cd727ba1461039657806386f8a03e146103b65780638ad9c511146103ea5780638f10369a1461041e57600080fd5b80635dff0ce91461032f57806366da5815146103495780636f63b8ab1461036957600080fd5b8063229d683d11610195578063229d683d14610291578063248a9ca3146102b15780632f2ff15d146102ef57806336568abe1461030f57600080fd5b806301ffc9a7146101c75780630f0479b4146101fc5780631bcdb77a1461026f57600080fd5b366101c257005b600080fd5b3480156101d357600080fd5b506101e76101e2366004611ab5565b610696565b60405190151581526020015b60405180910390f35b34801561020857600080fd5b5061024a610217366004611af7565b609c60209081526000928352604080842090915290825290205473ffffffffffffffffffffffffffffffffffffffff1681565b60405173ffffffffffffffffffffffffffffffffffffffff90911681526020016101f3565b34801561027b57600080fd5b5061028f61028a366004611b19565b61072f565b005b34801561029d57600080fd5b5061028f6102ac366004611b97565b6107b0565b3480156102bd57600080fd5b506102e16102cc366004611bd9565b60009081526065602052604090206001015490565b6040519081526020016101f3565b3480156102fb57600080fd5b5061028f61030a366004611c14565b610820565b34801561031b57600080fd5b5061028f61032a366004611c14565b61084a565b34801561033b57600080fd5b506097546101e79060ff1681565b34801561035557600080fd5b5061028f610364366004611bd9565b610902565b34801561037557600080fd5b506102e1610384366004611bd9565b609b6020526000908152604090205481565b3480156103a257600080fd5b5061028f6103b1366004611b97565b610969565b3480156103c257600080fd5b506102e17f6753d6b325cc45d6566c947baabf366ee79f2a1a197e23fbd9074f661fe28cb181565b3480156103f657600080fd5b506102e17fff073d0dcf74639a8d3c1c189ac3a527293f2fbae27f12acbfdaabd420f2a5f381565b34801561042a57600080fd5b506102e1609a5481565b34801561044057600080fd5b506101e761044f366004611c14565b600091825260656020908152604080842073ffffffffffffffffffffffffffffffffffffffff93909316845291905290205460ff1690565b34801561049357600080fd5b5061024a7f000000000000000000000000000000000000000000000000000000000000000081565b3480156104c757600080fd5b5061024a7f000000000000000000000000000000000000000000000000000000000000000081565b3480156104fb57600080fd5b5061028f61050a366004611c44565b6109d9565b34801561051b57600080fd5b506102e1600081565b34801561053057600080fd5b5061024a7f000000000000000000000000000000000000000000000000000000000000000081565b34801561056457600080fd5b5061028f610573366004611c44565b610a53565b34801561058457600080fd5b506102e17f000000000000000000000000000000000000000000000000000000000000000081565b3480156105b857600080fd5b5061028f6105c7366004611c9e565b610b18565b3480156105d857600080fd5b5061028f6105e7366004611c14565b610ba1565b3480156105f857600080fd5b506102e17f05e9bce9d0ef4f3ddc258eb9c04459fd66d9887e1079e0b19880fc501a3ddd5f81565b34801561062c57600080fd5b50610635610bc6565b6040516101f39190611cbb565b34801561064e57600080fd5b506102e17fb19546dff01e856fb3f010c267a7b1c60363cf8a4664e21cc89c26224620214e81565b34801561068257600080fd5b5061028f610691366004611af7565b610bd7565b60007fffffffff0000000000000000000000000000000000000000000000000000000082167f7965db0b00000000000000000000000000000000000000000000000000000000148061072957507f01ffc9a7000000000000000000000000000000000000000000000000000000007fffffffff000000000000000000000000000000000000000000000000000000008316145b92915050565b3373ffffffffffffffffffffffffffffffffffffffff7f0000000000000000000000000000000000000000000000000000000000000000161461079e576040517ffe1bb40d00000000000000000000000000000000000000000000000000000000815260040160405180910390fd5b6107aa84848484610c50565b50505050565b7f6753d6b325cc45d6566c947baabf366ee79f2a1a197e23fbd9074f661fe28cb16107da81610cbc565b60005b828110156107aa576108178484838181106107fa576107fa611d15565b905060200201602081019061080f9190611d44565b609890610cc9565b506001016107dd565b60008281526065602052604090206001015461083b81610cbc565b6108458383610cf2565b505050565b73ffffffffffffffffffffffffffffffffffffffff811633146108f4576040517f08c379a000000000000000000000000000000000000000000000000000000000815260206004820152602f60248201527f416363657373436f6e74726f6c3a2063616e206f6e6c792072656e6f756e636560448201527f20726f6c657320666f722073656c66000000000000000000000000000000000060648201526084015b60405180910390fd5b6108fe8282610de6565b5050565b7fff073d0dcf74639a8d3c1c189ac3a527293f2fbae27f12acbfdaabd420f2a5f361092c81610cbc565b609a8290556040518281527f951c6f64eb06ec6a6682072cda71420984dd55199006684bb820a80fd7e98793906020015b60405180910390a15050565b7f6753d6b325cc45d6566c947baabf366ee79f2a1a197e23fbd9074f661fe28cb161099381610cbc565b60005b828110156107aa576109d08484838181106109b3576109b3611d15565b90506020020160208101906109c89190611d44565b609890610ea1565b50600101610996565b3373ffffffffffffffffffffffffffffffffffffffff7f00000000000000000000000000000000000000000000000000000000000000001614610a48576040517ffe1bb40d00000000000000000000000000000000000000000000000000000000815260040160405180910390fd5b610845838383610ec3565b3373ffffffffffffffffffffffffffffffffffffffff7f00000000000000000000000000000000000000000000000000000000000000001614610ac2576040517ffe1bb40d00000000000000000000000000000000000000000000000000000000815260040160405180910390fd5b60005b818110156107aa57828282818110610adf57610adf611d15565b9050602002013560000315610b1057610b1084848484818110610b0457610b04611d15565b90506020020135610f73565b600101610ac5565b7f6753d6b325cc45d6566c947baabf366ee79f2a1a197e23fbd9074f661fe28cb1610b4281610cbc565b609780547fffffffffffffffffffffffffffffffffffffffffffffffffffffffffffffff00168315159081179091556040519081527fd76c99a8f1eb77feac25a1b5d67950ec13adb34b7d857c57e8d2894aaf3f230d9060200161095d565b600082815260656020526040902060010154610bbc81610cbc565b6108458383610de6565b6060610bd2609861107f565b905090565b3373ffffffffffffffffffffffffffffffffffffffff7f00000000000000000000000000000000000000000000000000000000000000001614610c46576040517ffe1bb40d00000000000000000000000000000000000000000000000000000000815260040160405180910390fd5b6108fe8282610f73565b80156107aa576000610c8b610c658486611d90565b7f000000000000000000000000000000000000000000000000000000000000000061108c565b905081609a5482610c9c9190611da3565b610ca69190611dba565b6000868152609b60205260409020555050505050565b610cc681336110a2565b50565b6000610ceb8373ffffffffffffffffffffffffffffffffffffffff841661115c565b9392505050565b600082815260656020908152604080832073ffffffffffffffffffffffffffffffffffffffff8516845290915290205460ff166108fe57600082815260656020908152604080832073ffffffffffffffffffffffffffffffffffffffff85168452909152902080547fffffffffffffffffffffffffffffffffffffffffffffffffffffffffffffff00166001179055610d883390565b73ffffffffffffffffffffffffffffffffffffffff168173ffffffffffffffffffffffffffffffffffffffff16837f2f8788117e7eff1d82e926ec794901d17c78024a50270940304540a733656f0d60405160405180910390a45050565b600082815260656020908152604080832073ffffffffffffffffffffffffffffffffffffffff8516845290915290205460ff16156108fe57600082815260656020908152604080832073ffffffffffffffffffffffffffffffffffffffff8516808552925280832080547fffffffffffffffffffffffffffffffffffffffffffffffffffffffffffffff0016905551339285917ff6391f5c32d9c69d2a47ea670b442974b53935d1edc7fd64eb21e047a839171b9190a45050565b6000610ceb8373ffffffffffffffffffffffffffffffffffffffff84166111ab565b60005b818110156107aa576000838383818110610ee257610ee2611d15565b602090810292909201356000818152609c845260408082208a83529094529290922080547fffffffffffffffffffffffff000000000000000000000000000000000000000081169091559192505073ffffffffffffffffffffffffffffffffffffffff16610f4f8161129e565b6000828152609b6020526040902054610f699082906112ee565b5050600101610ec6565b6040517f6352211e000000000000000000000000000000000000000000000000000000008152600481018290527f000000000000000000000000000000000000000000000000000000000000000073ffffffffffffffffffffffffffffffffffffffff1690636352211e90602401602060405180830381865afa158015610ffe573d6000803e3d6000fd5b505050506040513d601f19601f820116820180604052508101906110229190611df5565b6000928352609c60209081526040808520938552929052912080547fffffffffffffffffffffffff00000000000000000000000000000000000000001673ffffffffffffffffffffffffffffffffffffffff909216919091179055565b60606000610ceb83611410565b600081831061109b5781610ceb565b5090919050565b600082815260656020908152604080832073ffffffffffffffffffffffffffffffffffffffff8516845290915290205460ff166108fe576110e28161146c565b6110ed83602061148b565b6040516020016110fe929190611e36565b604080517fffffffffffffffffffffffffffffffffffffffffffffffffffffffffffffffe0818403018152908290527f08c379a00000000000000000000000000000000000000000000000000000000082526108eb91600401611eb7565b60008181526001830160205260408120546111a357508154600181810184556000848152602080822090930184905584548482528286019093526040902091909155610729565b506000610729565b600081815260018301602052604081205480156112945760006111cf600183611d90565b85549091506000906111e390600190611d90565b905081811461124857600086600001828154811061120357611203611d15565b906000526020600020015490508087600001848154811061122657611226611d15565b6000918252602080832090910192909255918252600188019052604090208390555b855486908061125957611259611f08565b600190038181906000526020600020016000905590558560010160008681526020019081526020016000206000905560019350505050610729565b6000915050610729565b60975460ff161580156112b757506112b5816116ce565b155b15610cc6576040517f0b15b77a00000000000000000000000000000000000000000000000000000000815260040160405180910390fd5b7fffffffffffffffffffffffff11111111111111111111111111111111111111127f000000000000000000000000000000000000000000000000000000000000000073ffffffffffffffffffffffffffffffffffffffff16016113e55760008273ffffffffffffffffffffffffffffffffffffffff168260405160006040518083038185875af1925050503d80600081146113a5576040519150601f19603f3d011682016040523d82523d6000602084013e6113aa565b606091505b5050905080610845576040517fb12d13eb00000000000000000000000000000000000000000000000000000000815260040160405180910390fd5b6108fe7f000000000000000000000000000000000000000000000000000000000000000083836116db565b60608160000180548060200260200160405190810160405280929190818152602001828054801561146057602002820191906000526020600020905b81548152602001906001019080831161144c575b50505050509050919050565b606061072973ffffffffffffffffffffffffffffffffffffffff831660145b6060600061149a836002611da3565b6114a5906002611f37565b67ffffffffffffffff8111156114bd576114bd611f4a565b6040519080825280601f01601f1916602001820160405280156114e7576020820181803683370190505b5090507f30000000000000000000000000000000000000000000000000000000000000008160008151811061151e5761151e611d15565b60200101907effffffffffffffffffffffffffffffffffffffffffffffffffffffffffffff1916908160001a9053507f78000000000000000000000000000000000000000000000000000000000000008160018151811061158157611581611d15565b60200101907effffffffffffffffffffffffffffffffffffffffffffffffffffffffffffff1916908160001a90535060006115bd846002611da3565b6115c8906001611f37565b90505b6001811115611665577f303132333435363738396162636465660000000000000000000000000000000085600f166010811061160957611609611d15565b1a60f81b82828151811061161f5761161f611d15565b60200101907effffffffffffffffffffffffffffffffffffffffffffffffffffffffffffff1916908160001a90535060049490941c9361165e81611f79565b90506115cb565b508315610ceb576040517f08c379a000000000000000000000000000000000000000000000000000000000815260206004820181905260248201527f537472696e67733a20686578206c656e67746820696e73756666696369656e7460448201526064016108eb565b6000610729609883611768565b6040805173ffffffffffffffffffffffffffffffffffffffff8416602482015260448082018490528251808303909101815260649091019091526020810180517bffffffffffffffffffffffffffffffffffffffffffffffffffffffff167fa9059cbb00000000000000000000000000000000000000000000000000000000179052610845908490611797565b73ffffffffffffffffffffffffffffffffffffffff811660009081526001830160205260408120541515610ceb565b60006117f9826040518060400160405280602081526020017f5361666545524332303a206c6f772d6c6576656c2063616c6c206661696c65648152508573ffffffffffffffffffffffffffffffffffffffff166118a69092919063ffffffff16565b905080516000148061181a57508080602001905181019061181a9190611fae565b610845576040517f08c379a000000000000000000000000000000000000000000000000000000000815260206004820152602a60248201527f5361666545524332303a204552433230206f7065726174696f6e20646964206e60448201527f6f7420737563636565640000000000000000000000000000000000000000000060648201526084016108eb565b60606118b584846000856118bd565b949350505050565b60608247101561194f576040517f08c379a000000000000000000000000000000000000000000000000000000000815260206004820152602660248201527f416464726573733a20696e73756666696369656e742062616c616e636520666f60448201527f722063616c6c000000000000000000000000000000000000000000000000000060648201526084016108eb565b6000808673ffffffffffffffffffffffffffffffffffffffff1685876040516119789190611fcb565b60006040518083038185875af1925050503d80600081146119b5576040519150601f19603f3d011682016040523d82523d6000602084013e6119ba565b606091505b50915091506119cb878383876119d6565b979650505050505050565b60608315611a6c578251600003611a655773ffffffffffffffffffffffffffffffffffffffff85163b611a65576040517f08c379a000000000000000000000000000000000000000000000000000000000815260206004820152601d60248201527f416464726573733a2063616c6c20746f206e6f6e2d636f6e747261637400000060448201526064016108eb565b50816118b5565b6118b58383815115611a815781518083602001fd5b806040517f08c379a00000000000000000000000000000000000000000000000000000000081526004016108eb9190611eb7565b600060208284031215611ac757600080fd5b81357fffffffff0000000000000000000000000000000000000000000000000000000081168114610ceb57600080fd5b60008060408385031215611b0a57600080fd5b50508035926020909101359150565b60008060008060808587031215611b2f57600080fd5b5050823594602084013594506040840135936060013592509050565b60008083601f840112611b5d57600080fd5b50813567ffffffffffffffff811115611b7557600080fd5b6020830191508360208260051b8501011115611b9057600080fd5b9250929050565b60008060208385031215611baa57600080fd5b823567ffffffffffffffff811115611bc157600080fd5b611bcd85828601611b4b565b90969095509350505050565b600060208284031215611beb57600080fd5b5035919050565b73ffffffffffffffffffffffffffffffffffffffff81168114610cc657600080fd5b60008060408385031215611c2757600080fd5b823591506020830135611c3981611bf2565b809150509250929050565b600080600060408486031215611c5957600080fd5b83359250602084013567ffffffffffffffff811115611c7757600080fd5b611c8386828701611b4b565b9497909650939450505050565b8015158114610cc657600080fd5b600060208284031215611cb057600080fd5b8135610ceb81611c90565b6020808252825182820181905260009190848201906040850190845b81811015611d0957835173ffffffffffffffffffffffffffffffffffffffff1683529284019291840191600101611cd7565b50909695505050505050565b7f4e487b7100000000000000000000000000000000000000000000000000000000600052603260045260246000fd5b600060208284031215611d5657600080fd5b8135610ceb81611bf2565b7f4e487b7100000000000000000000000000000000000000000000000000000000600052601160045260246000fd5b8181038181111561072957610729611d61565b808202811582820484141761072957610729611d61565b600082611df0577f4e487b7100000000000000000000000000000000000000000000000000000000600052601260045260246000fd5b500490565b600060208284031215611e0757600080fd5b8151610ceb81611bf2565b60005b83811015611e2d578181015183820152602001611e15565b50506000910152565b7f416363657373436f6e74726f6c3a206163636f756e7420000000000000000000815260008351611e6e816017850160208801611e12565b7f206973206d697373696e6720726f6c65200000000000000000000000000000006017918401918201528351611eab816028840160208801611e12565b01602801949350505050565b6020815260008251806020840152611ed6816040850160208701611e12565b601f017fffffffffffffffffffffffffffffffffffffffffffffffffffffffffffffffe0169190910160400192915050565b7f4e487b7100000000000000000000000000000000000000000000000000000000600052603160045260246000fd5b8082018082111561072957610729611d61565b7f4e487b7100000000000000000000000000000000000000000000000000000000600052604160045260246000fd5b600081611f8857611f88611d61565b507fffffffffffffffffffffffffffffffffffffffffffffffffffffffffffffffff0190565b600060208284031215611fc057600080fd5b8151610ceb81611c90565b60008251611fdd818460208701611e12565b919091019291505056fea2646970667358221220a62a8eae34c3e2af7f636c48f544308cdbd5e4179e877615023ba64c1d05e09064736f6c63430008160033b19546dff01e856fb3f010c267a7b1c60363cf8a4664e21cc89c26224620214e",
  "linkReferences": {},
  "deployedLinkReferences": {}
}