{
  "_format": "hh-sol-artifact-1",
  "contractName": "EDULandRewards",
  "sourceName": "contracts/land/EDULandRewards.sol",
  "abi": [
    {
      "inputs": [
        {
          "internalType": "uint256",
          "name": "maxRewardTimeWindow",
          "type": "uint256"
        },
        {
          "internalType": "address",
          "name": "referee",
          "type": "address"
        },
        {
          "internalType": "address",
          "name": "landAddress",
          "type": "address"
        },
        {
          "internalType": "address",
          "name": "rewardToken",
          "type": "address"
        },
        {
          "internalType": "uint256",
          "name": "rewardPerSecond_",
          "type": "uint256"
        }
      ],
      "stateMutability": "nonpayable",
      "type": "constructor"
    },
    {
      "inputs": [],
      "name": "ETHTransferFailed",
      "type": "error"
    },
    {
      "inputs": [],
      "name": "OnlyKycWallet",
      "type": "error"
    },
    {
      "inputs": [],
      "name": "OnlyReferee",
      "type": "error"
    },
    {
      "anonymous": false,
      "inputs": [
        {
          "indexed": true,
          "internalType": "uint256",
          "name": "batchNumber",
          "type": "uint256"
        },
        {
          "indexed": false,
          "internalType": "uint256",
          "name": "rewardPerLand",
          "type": "uint256"
        }
      ],
      "name": "BatchFinalized",
      "type": "event"
    },
    {
      "anonymous": false,
      "inputs": [
        {
          "indexed": true,
          "internalType": "address",
          "name": "account",
          "type": "address"
        },
        {
          "indexed": true,
          "internalType": "uint256",
          "name": "batchNumber",
          "type": "uint256"
        },
        {
          "indexed": true,
          "internalType": "uint256",
          "name": "tokenId",
          "type": "uint256"
        },
        {
          "indexed": false,
          "internalType": "uint256",
          "name": "amount",
          "type": "uint256"
        }
      ],
      "name": "Claimed",
      "type": "event"
    },
    {
      "anonymous": false,
      "inputs": [
        {
          "indexed": false,
          "internalType": "uint8",
          "name": "version",
          "type": "uint8"
        }
      ],
      "name": "Initialized",
      "type": "event"
    },
    {
      "anonymous": false,
      "inputs": [
        {
          "indexed": false,
          "internalType": "bool",
          "name": "_disabled",
          "type": "bool"
        }
      ],
      "name": "LogSetKycDisabled",
      "type": "event"
    },
    {
      "anonymous": false,
      "inputs": [
        {
          "indexed": false,
          "internalType": "uint256",
          "name": "rewardPerSecond",
          "type": "uint256"
        }
      ],
      "name": "RewardPerSecondUpdated",
      "type": "event"
    },
    {
      "anonymous": false,
      "inputs": [
        {
          "indexed": true,
          "internalType": "bytes32",
          "name": "role",
          "type": "bytes32"
        },
        {
          "indexed": true,
          "internalType": "bytes32",
          "name": "previousAdminRole",
          "type": "bytes32"
        },
        {
          "indexed": true,
          "internalType": "bytes32",
          "name": "newAdminRole",
          "type": "bytes32"
        }
      ],
      "name": "RoleAdminChanged",
      "type": "event"
    },
    {
      "anonymous": false,
      "inputs": [
        {
          "indexed": true,
          "internalType": "bytes32",
          "name": "role",
          "type": "bytes32"
        },
        {
          "indexed": true,
          "internalType": "address",
          "name": "account",
          "type": "address"
        },
        {
          "indexed": true,
          "internalType": "address",
          "name": "sender",
          "type": "address"
        }
      ],
      "name": "RoleGranted",
      "type": "event"
    },
    {
      "anonymous": false,
      "inputs": [
        {
          "indexed": true,
          "internalType": "bytes32",
          "name": "role",
          "type": "bytes32"
        },
        {
          "indexed": true,
          "internalType": "address",
          "name": "account",
          "type": "address"
        },
        {
          "indexed": true,
          "internalType": "address",
          "name": "sender",
          "type": "address"
        }
      ],
      "name": "RoleRevoked",
      "type": "event"
    },
    {
      "inputs": [],
      "name": "ADMIN_KYC_CONTROLLER_ROLE",
      "outputs": [
        {
          "internalType": "bytes32",
          "name": "",
          "type": "bytes32"
        }
      ],
      "stateMutability": "view",
      "type": "function"
    },
    {
      "inputs": [],
      "name": "DEFAULT_ADMIN_ROLE",
      "outputs": [
        {
          "internalType": "bytes32",
          "name": "",
          "type": "bytes32"
        }
      ],
      "stateMutability": "view",
      "type": "function"
    },
    {
      "inputs": [],
      "name": "KYC_CONTROLLER_ROLE",
      "outputs": [
        {
          "internalType": "bytes32",
          "name": "",
          "type": "bytes32"
        }
      ],
      "stateMutability": "view",
      "type": "function"
    },
    {
      "inputs": [],
      "name": "MAX_REWARD_TIME_WINDOW",
      "outputs": [
        {
          "internalType": "uint256",
          "name": "",
          "type": "uint256"
        }
      ],
      "stateMutability": "view",
      "type": "function"
    },
    {
      "inputs": [],
      "name": "NODE_KEY",
      "outputs": [
        {
          "internalType": "contract INodeKey",
          "name": "",
          "type": "address"
        }
      ],
      "stateMutability": "view",
      "type": "function"
    },
    {
      "inputs": [],
      "name": "OWNER_ROLE",
      "outputs": [
        {
          "internalType": "bytes32",
          "name": "",
          "type": "bytes32"
        }
      ],
      "stateMutability": "view",
      "type": "function"
    },
    {
      "inputs": [],
      "name": "REFEREE",
      "outputs": [
        {
          "internalType": "contract IReferee",
          "name": "",
          "type": "address"
        }
      ],
      "stateMutability": "view",
      "type": "function"
    },
    {
      "inputs": [],
      "name": "REWARDS_CONTROLLER_ROLE",
      "outputs": [
        {
          "internalType": "bytes32",
          "name": "",
          "type": "bytes32"
        }
      ],
      "stateMutability": "view",
      "type": "function"
    },
    {
      "inputs": [],
      "name": "REWARD_TOKEN",
      "outputs": [
        {
          "internalType": "address",
          "name": "",
          "type": "address"
        }
      ],
      "stateMutability": "view",
      "type": "function"
    },
    {
      "inputs": [
        {
          "internalType": "address[]",
          "name": "_wallets",
          "type": "address[]"
        }
      ],
      "name": "addKycWallets",
      "outputs": [],
      "stateMutability": "nonpayable",
      "type": "function"
    },
    {
      "inputs": [
        {
          "internalType": "uint256",
          "name": "_nodeKeyId",
          "type": "uint256"
        },
        {
          "internalType": "uint256[]",
          "name": "_batchNumbers",
          "type": "uint256[]"
        }
      ],
      "name": "claimReward",
      "outputs": [],
      "stateMutability": "nonpayable",
      "type": "function"
    },
    {
      "inputs": [],
      "name": "getKycWallets",
      "outputs": [
        {
          "internalType": "address[]",
          "name": "",
          "type": "address[]"
        }
      ],
      "stateMutability": "view",
      "type": "function"
    },
    {
      "inputs": [
        {
          "internalType": "bytes32",
          "name": "role",
          "type": "bytes32"
        }
      ],
      "name": "getRoleAdmin",
      "outputs": [
        {
          "internalType": "bytes32",
          "name": "",
          "type": "bytes32"
        }
      ],
      "stateMutability": "view",
      "type": "function"
    },
    {
      "inputs": [
        {
          "internalType": "bytes32",
          "name": "role",
          "type": "bytes32"
        },
        {
          "internalType": "address",
          "name": "account",
          "type": "address"
        }
      ],
      "name": "grantRole",
      "outputs": [],
      "stateMutability": "nonpayable",
      "type": "function"
    },
    {
      "inputs": [
        {
          "internalType": "bytes32",
          "name": "role",
          "type": "bytes32"
        },
        {
          "internalType": "address",
          "name": "account",
          "type": "address"
        }
      ],
      "name": "hasRole",
      "outputs": [
        {
          "internalType": "bool",
          "name": "",
          "type": "bool"
        }
      ],
      "stateMutability": "view",
      "type": "function"
    },
    {
      "inputs": [
        {
          "internalType": "address",
          "name": "wallet",
          "type": "address"
        }
      ],
      "name": "isKycWallet",
      "outputs": [
        {
          "internalType": "bool",
          "name": "",
          "type": "bool"
        }
      ],
      "stateMutability": "view",
      "type": "function"
    },
    {
      "inputs": [],
      "name": "kycDisabled",
      "outputs": [
        {
          "internalType": "bool",
          "name": "",
          "type": "bool"
        }
      ],
      "stateMutability": "view",
      "type": "function"
    },
    {
      "inputs": [
        {
          "internalType": "uint256",
          "name": "_batchNumber",
          "type": "uint256"
        },
        {
          "internalType": "uint256",
          "name": "_nodeKeyId",
          "type": "uint256"
        }
      ],
      "name": "onAttest",
      "outputs": [],
      "stateMutability": "nonpayable",
      "type": "function"
    },
    {
      "inputs": [
        {
          "internalType": "uint256",
          "name": "_batchNumber",
          "type": "uint256"
        },
        {
          "internalType": "uint256[]",
          "name": "_nodeKeyIds",
          "type": "uint256[]"
        }
      ],
      "name": "onBatchAttest",
      "outputs": [],
      "stateMutability": "nonpayable",
      "type": "function"
    },
    {
      "inputs": [
        {
          "internalType": "uint256",
          "name": "_batchNumber",
          "type": "uint256"
        },
        {
          "internalType": "uint256",
          "name": "_l1NodeConfirmedTimestamp",
          "type": "uint256"
        },
        {
          "internalType": "uint256",
          "name": "_prevL1NodeConfirmedTimestamp",
          "type": "uint256"
        },
        {
          "internalType": "uint256",
          "name": "_nrOfSuccessfulAttestations",
          "type": "uint256"
        }
      ],
      "name": "onFinalize",
      "outputs": [],
      "stateMutability": "nonpayable",
      "type": "function"
    },
    {
      "inputs": [
        {
          "internalType": "address[]",
          "name": "_wallets",
          "type": "address[]"
        }
      ],
      "name": "removeKycWallets",
      "outputs": [],
      "stateMutability": "nonpayable",
      "type": "function"
    },
    {
      "inputs": [
        {
          "internalType": "bytes32",
          "name": "role",
          "type": "bytes32"
        },
        {
          "internalType": "address",
          "name": "account",
          "type": "address"
        }
      ],
      "name": "renounceRole",
      "outputs": [],
      "stateMutability": "nonpayable",
      "type": "function"
    },
    {
      "inputs": [
        {
          "internalType": "bytes32",
          "name": "role",
          "type": "bytes32"
        },
        {
          "internalType": "address",
          "name": "account",
          "type": "address"
        }
      ],
      "name": "revokeRole",
      "outputs": [],
      "stateMutability": "nonpayable",
      "type": "function"
    },
    {
      "inputs": [
        {
          "internalType": "uint256",
          "name": "",
          "type": "uint256"
        }
      ],
      "name": "rewardPerLandOfBatch",
      "outputs": [
        {
          "internalType": "uint256",
          "name": "",
          "type": "uint256"
        }
      ],
      "stateMutability": "view",
      "type": "function"
    },
    {
      "inputs": [],
      "name": "rewardPerSecond",
      "outputs": [
        {
          "internalType": "uint256",
          "name": "",
          "type": "uint256"
        }
      ],
      "stateMutability": "view",
      "type": "function"
    },
    {
      "inputs": [
        {
          "internalType": "uint256",
          "name": "",
          "type": "uint256"
        },
        {
          "internalType": "uint256",
          "name": "",
          "type": "uint256"
        }
      ],
      "name": "rewardsRecipients",
      "outputs": [
        {
          "internalType": "address",
          "name": "",
          "type": "address"
        }
      ],
      "stateMutability": "view",
      "type": "function"
    },
    {
      "inputs": [
        {
          "internalType": "bool",
          "name": "_disabled",
          "type": "bool"
        }
      ],
      "name": "setKycDisabled",
      "outputs": [],
      "stateMutability": "nonpayable",
      "type": "function"
    },
    {
      "inputs": [
        {
          "internalType": "uint256",
          "name": "newRewardPerSecond",
          "type": "uint256"
        }
      ],
      "name": "setRewardPerSecond",
      "outputs": [],
      "stateMutability": "nonpayable",
      "type": "function"
    },
    {
      "inputs": [
        {
          "internalType": "bytes4",
          "name": "interfaceId",
          "type": "bytes4"
        }
      ],
      "name": "supportsInterface",
      "outputs": [
        {
          "internalType": "bool",
          "name": "",
          "type": "bool"
        }
      ],
      "stateMutability": "view",
      "type": "function"
    },
    {
      "stateMutability": "payable",
      "type": "receive"
    }
  ],
  "bytecode": "0x6101006040523480156200001257600080fd5b50604051620023de380380620023de83398101604081905262000035916200024f565b6001600160a01b0382811660805284811660a052831660c05260e0859052609a8190556040518181527f951c6f64eb06ec6a6682072cda71420984dd55199006684bb820a80fd7e987939060200160405180910390a1620000c67fff073d0dcf74639a8d3c1c189ac3a527293f2fbae27f12acbfdaabd420f2a5f3600080516020620023be83398151915262000142565b620001017f6753d6b325cc45d6566c947baabf366ee79f2a1a197e23fbd9074f661fe28cb1600080516020620023be83398151915262000142565b6200011c600080516020620023be8339815191528062000142565b62000137600080516020620023be833981519152336200018d565b5050505050620002ad565b600082815260656020526040808220600101805490849055905190918391839186917fbd79b86ffe0ab8e8776151514217cd7cacd52c909f66475c3af44e129f0b00ff9190a4505050565b60008281526065602090815260408083206001600160a01b038516845290915290205460ff166200022e5760008281526065602090815260408083206001600160a01b03851684529091529020805460ff19166001179055620001ed3390565b6001600160a01b0316816001600160a01b0316837f2f8788117e7eff1d82e926ec794901d17c78024a50270940304540a733656f0d60405160405180910390a45b5050565b80516001600160a01b03811681146200024a57600080fd5b919050565b600080600080600060a086880312156200026857600080fd5b855194506200027a6020870162000232565b93506200028a6040870162000232565b92506200029a6060870162000232565b9150608086015190509295509295909350565b60805160a05160c05160e05161209f6200031f600039600081816105b50152610c9d01526000818161056101526110a50152600081816104c40152818161077201528181610a2701528181610aa10152610c250152600081816104f8015281816113f301526114cc015261209f6000f3fe6080604052600436106101c65760003560e01c8063905eaf1d116100f7578063b7355fb411610095578063dcd50d2e11610064578063dcd50d2e14610617578063e2d18be61461064b578063e58378bb1461066d578063e6ed1180146106a157600080fd5b8063b7355fb414610583578063c2a74752146105a3578063cbd73cb2146105d7578063d547741f146105f757600080fd5b806399248ea7116100d157806399248ea7146104e65780639b6e0d741461051a578063a217fddf1461053a578063a5f957f91461054f57600080fd5b8063905eaf1d1461043f57806391d148541461045f57806395126fe6146104b257600080fd5b80635dff0ce9116101645780637cd727ba1161013e5780637cd727ba146103a157806386f8a03e146103c15780638ad9c511146103f55780638f10369a1461042957600080fd5b80635dff0ce91461033a57806366da5815146103545780636f63b8ab1461037457600080fd5b8063229d683d116101a0578063229d683d1461029c578063248a9ca3146102bc5780632f2ff15d146102fa57806336568abe1461031a57600080fd5b806301ffc9a7146101d25780630f0479b4146102075780631bcdb77a1461027a57600080fd5b366101cd57005b600080fd5b3480156101de57600080fd5b506101f26101ed366004611b37565b6106c1565b60405190151581526020015b60405180910390f35b34801561021357600080fd5b50610255610222366004611b79565b609c60209081526000928352604080842090915290825290205473ffffffffffffffffffffffffffffffffffffffff1681565b60405173ffffffffffffffffffffffffffffffffffffffff90911681526020016101fe565b34801561028657600080fd5b5061029a610295366004611b9b565b61075a565b005b3480156102a857600080fd5b5061029a6102b7366004611c19565b6107db565b3480156102c857600080fd5b506102ec6102d7366004611c5b565b60009081526065602052604090206001015490565b6040519081526020016101fe565b34801561030657600080fd5b5061029a610315366004611c96565b61084b565b34801561032657600080fd5b5061029a610335366004611c96565b610875565b34801561034657600080fd5b506097546101f29060ff1681565b34801561036057600080fd5b5061029a61036f366004611c5b565b61092d565b34801561038057600080fd5b506102ec61038f366004611c5b565b609b6020526000908152604090205481565b3480156103ad57600080fd5b5061029a6103bc366004611c19565b610994565b3480156103cd57600080fd5b506102ec7f6753d6b325cc45d6566c947baabf366ee79f2a1a197e23fbd9074f661fe28cb181565b34801561040157600080fd5b506102ec7fff073d0dcf74639a8d3c1c189ac3a527293f2fbae27f12acbfdaabd420f2a5f381565b34801561043557600080fd5b506102ec609a5481565b34801561044b57600080fd5b506101f261045a366004611cc6565b610a04565b34801561046b57600080fd5b506101f261047a366004611c96565b600091825260656020908152604080842073ffffffffffffffffffffffffffffffffffffffff93909316845291905290205460ff1690565b3480156104be57600080fd5b506102557f000000000000000000000000000000000000000000000000000000000000000081565b3480156104f257600080fd5b506102557f000000000000000000000000000000000000000000000000000000000000000081565b34801561052657600080fd5b5061029a610535366004611ce3565b610a0f565b34801561054657600080fd5b506102ec600081565b34801561055b57600080fd5b506102557f000000000000000000000000000000000000000000000000000000000000000081565b34801561058f57600080fd5b5061029a61059e366004611ce3565b610a89565b3480156105af57600080fd5b506102ec7f000000000000000000000000000000000000000000000000000000000000000081565b3480156105e357600080fd5b5061029a6105f2366004611d3d565b610b4e565b34801561060357600080fd5b5061029a610612366004611c96565b610bd7565b34801561062357600080fd5b506102ec7f05e9bce9d0ef4f3ddc258eb9c04459fd66d9887e1079e0b19880fc501a3ddd5f81565b34801561065757600080fd5b50610660610bfc565b6040516101fe9190611d5a565b34801561067957600080fd5b506102ec7fb19546dff01e856fb3f010c267a7b1c60363cf8a4664e21cc89c26224620214e81565b3480156106ad57600080fd5b5061029a6106bc366004611b79565b610c0d565b60007fffffffff0000000000000000000000000000000000000000000000000000000082167f7965db0b00000000000000000000000000000000000000000000000000000000148061075457507f01ffc9a7000000000000000000000000000000000000000000000000000000007fffffffff000000000000000000000000000000000000000000000000000000008316145b92915050565b3373ffffffffffffffffffffffffffffffffffffffff7f000000000000000000000000000000000000000000000000000000000000000016146107c9576040517ffe1bb40d00000000000000000000000000000000000000000000000000000000815260040160405180910390fd5b6107d584848484610c86565b50505050565b7f6753d6b325cc45d6566c947baabf366ee79f2a1a197e23fbd9074f661fe28cb161080581610d36565b60005b828110156107d55761084284848381811061082557610825611db4565b905060200201602081019061083a9190611cc6565b609890610d43565b50600101610808565b60008281526065602052604090206001015461086681610d36565b6108708383610d6c565b505050565b73ffffffffffffffffffffffffffffffffffffffff8116331461091f576040517f08c379a000000000000000000000000000000000000000000000000000000000815260206004820152602f60248201527f416363657373436f6e74726f6c3a2063616e206f6e6c792072656e6f756e636560448201527f20726f6c657320666f722073656c66000000000000000000000000000000000060648201526084015b60405180910390fd5b6109298282610e60565b5050565b7fff073d0dcf74639a8d3c1c189ac3a527293f2fbae27f12acbfdaabd420f2a5f361095781610d36565b609a8290556040518281527f951c6f64eb06ec6a6682072cda71420984dd55199006684bb820a80fd7e98793906020015b60405180910390a15050565b7f6753d6b325cc45d6566c947baabf366ee79f2a1a197e23fbd9074f661fe28cb16109be81610d36565b60005b828110156107d5576109fb8484838181106109de576109de611db4565b90506020020160208101906109f39190611cc6565b609890610f1b565b506001016109c1565b600061075482610f3d565b3373ffffffffffffffffffffffffffffffffffffffff7f00000000000000000000000000000000000000000000000000000000000000001614610a7e576040517ffe1bb40d00000000000000000000000000000000000000000000000000000000815260040160405180910390fd5b610870838383610f4a565b3373ffffffffffffffffffffffffffffffffffffffff7f00000000000000000000000000000000000000000000000000000000000000001614610af8576040517ffe1bb40d00000000000000000000000000000000000000000000000000000000815260040160405180910390fd5b60005b818110156107d557828282818110610b1557610b15611db4565b9050602002013560000315610b4657610b4684848484818110610b3a57610b3a611db4565b90506020020135611076565b600101610afb565b7f6753d6b325cc45d6566c947baabf366ee79f2a1a197e23fbd9074f661fe28cb1610b7881610d36565b609780547fffffffffffffffffffffffffffffffffffffffffffffffffffffffffffffff00168315159081179091556040519081527fd76c99a8f1eb77feac25a1b5d67950ec13adb34b7d857c57e8d2894aaf3f230d90602001610988565b600082815260656020526040902060010154610bf281610d36565b6108708383610e60565b6060610c086098611182565b905090565b3373ffffffffffffffffffffffffffffffffffffffff7f00000000000000000000000000000000000000000000000000000000000000001614610c7c576040517ffe1bb40d00000000000000000000000000000000000000000000000000000000815260040160405180910390fd5b6109298282611076565b80156107d5576000610cc1610c9b8486611e12565b7f000000000000000000000000000000000000000000000000000000000000000061118f565b9050600082609a5483610cd49190611e25565b610cde9190611e3c565b6000878152609b6020526040908190208290555190915086907fdaf33b9129a7a0fda038b5357d925eac65b91567a5f1a3e563a27a13e542d6b790610d269084815260200190565b60405180910390a2505050505050565b610d4081336111a5565b50565b6000610d658373ffffffffffffffffffffffffffffffffffffffff841661125f565b9392505050565b600082815260656020908152604080832073ffffffffffffffffffffffffffffffffffffffff8516845290915290205460ff1661092957600082815260656020908152604080832073ffffffffffffffffffffffffffffffffffffffff85168452909152902080547fffffffffffffffffffffffffffffffffffffffffffffffffffffffffffffff00166001179055610e023390565b73ffffffffffffffffffffffffffffffffffffffff168173ffffffffffffffffffffffffffffffffffffffff16837f2f8788117e7eff1d82e926ec794901d17c78024a50270940304540a733656f0d60405160405180910390a45050565b600082815260656020908152604080832073ffffffffffffffffffffffffffffffffffffffff8516845290915290205460ff161561092957600082815260656020908152604080832073ffffffffffffffffffffffffffffffffffffffff8516808552925280832080547fffffffffffffffffffffffffffffffffffffffffffffffffffffffffffffff0016905551339285917ff6391f5c32d9c69d2a47ea670b442974b53935d1edc7fd64eb21e047a839171b9190a45050565b6000610d658373ffffffffffffffffffffffffffffffffffffffff84166112ae565b60006107546098836113a1565b60005b818110156107d5576000838383818110610f6957610f69611db4565b90506020020135905080600003610f80575061106e565b6000818152609c60209081526040808320888452909152902080547fffffffffffffffffffffffff0000000000000000000000000000000000000000811690915560975473ffffffffffffffffffffffffffffffffffffffff9091169060ff16158015610ff35750610ff181610f3d565b155b15610fff57505061106e565b6000828152609b602052604090205461101882826113d0565b86838373ffffffffffffffffffffffffffffffffffffffff167f9cdcf2f7714cca3508c7f0110b04a90a80a3a8dd0e35de99689db74d28c5383e8460405161106291815260200190565b60405180910390a45050505b600101610f4d565b6040517f6352211e000000000000000000000000000000000000000000000000000000008152600481018290527f000000000000000000000000000000000000000000000000000000000000000073ffffffffffffffffffffffffffffffffffffffff1690636352211e90602401602060405180830381865afa158015611101573d6000803e3d6000fd5b505050506040513d601f19601f820116820180604052508101906111259190611e77565b6000928352609c60209081526040808520938552929052912080547fffffffffffffffffffffffff00000000000000000000000000000000000000001673ffffffffffffffffffffffffffffffffffffffff909216919091179055565b60606000610d65836114f2565b600081831061119e5781610d65565b5090919050565b600082815260656020908152604080832073ffffffffffffffffffffffffffffffffffffffff8516845290915290205460ff16610929576111e58161154e565b6111f083602061156d565b604051602001611201929190611eb8565b604080517fffffffffffffffffffffffffffffffffffffffffffffffffffffffffffffffe0818403018152908290527f08c379a000000000000000000000000000000000000000000000000000000000825261091691600401611f39565b60008181526001830160205260408120546112a657508154600181810184556000848152602080822090930184905584548482528286019093526040902091909155610754565b506000610754565b600081815260018301602052604081205480156113975760006112d2600183611e12565b85549091506000906112e690600190611e12565b905081811461134b57600086600001828154811061130657611306611db4565b906000526020600020015490508087600001848154811061132957611329611db4565b6000918252602080832090910192909255918252600188019052604090208390555b855486908061135c5761135c611f8a565b600190038181906000526020600020016000905590558560010160008681526020019081526020016000206000905560019350505050610754565b6000915050610754565b73ffffffffffffffffffffffffffffffffffffffff811660009081526001830160205260408120541515610d65565b7fffffffffffffffffffffffff11111111111111111111111111111111111111127f000000000000000000000000000000000000000000000000000000000000000073ffffffffffffffffffffffffffffffffffffffff16016114c75760008273ffffffffffffffffffffffffffffffffffffffff168260405160006040518083038185875af1925050503d8060008114611487576040519150601f19603f3d011682016040523d82523d6000602084013e61148c565b606091505b5050905080610870576040517fb12d13eb00000000000000000000000000000000000000000000000000000000815260040160405180910390fd5b6109297f000000000000000000000000000000000000000000000000000000000000000083836117b0565b60608160000180548060200260200160405190810160405280929190818152602001828054801561154257602002820191906000526020600020905b81548152602001906001019080831161152e575b50505050509050919050565b606061075473ffffffffffffffffffffffffffffffffffffffff831660145b6060600061157c836002611e25565b611587906002611fb9565b67ffffffffffffffff81111561159f5761159f611fcc565b6040519080825280601f01601f1916602001820160405280156115c9576020820181803683370190505b5090507f30000000000000000000000000000000000000000000000000000000000000008160008151811061160057611600611db4565b60200101907effffffffffffffffffffffffffffffffffffffffffffffffffffffffffffff1916908160001a9053507f78000000000000000000000000000000000000000000000000000000000000008160018151811061166357611663611db4565b60200101907effffffffffffffffffffffffffffffffffffffffffffffffffffffffffffff1916908160001a905350600061169f846002611e25565b6116aa906001611fb9565b90505b6001811115611747577f303132333435363738396162636465660000000000000000000000000000000085600f16601081106116eb576116eb611db4565b1a60f81b82828151811061170157611701611db4565b60200101907effffffffffffffffffffffffffffffffffffffffffffffffffffffffffffff1916908160001a90535060049490941c9361174081611ffb565b90506116ad565b508315610d65576040517f08c379a000000000000000000000000000000000000000000000000000000000815260206004820181905260248201527f537472696e67733a20686578206c656e67746820696e73756666696369656e746044820152606401610916565b6040805173ffffffffffffffffffffffffffffffffffffffff848116602483015260448083018590528351808403909101815260649092018352602080830180517bffffffffffffffffffffffffffffffffffffffffffffffffffffffff167fa9059cbb0000000000000000000000000000000000000000000000000000000017905283518085019094528084527f5361666545524332303a206c6f772d6c6576656c2063616c6c206661696c6564908401526108709286929160009161187b918516908490611928565b905080516000148061189c57508080602001905181019061189c9190612030565b610870576040517f08c379a000000000000000000000000000000000000000000000000000000000815260206004820152602a60248201527f5361666545524332303a204552433230206f7065726174696f6e20646964206e60448201527f6f742073756363656564000000000000000000000000000000000000000000006064820152608401610916565b6060611937848460008561193f565b949350505050565b6060824710156119d1576040517f08c379a000000000000000000000000000000000000000000000000000000000815260206004820152602660248201527f416464726573733a20696e73756666696369656e742062616c616e636520666f60448201527f722063616c6c00000000000000000000000000000000000000000000000000006064820152608401610916565b6000808673ffffffffffffffffffffffffffffffffffffffff1685876040516119fa919061204d565b60006040518083038185875af1925050503d8060008114611a37576040519150601f19603f3d011682016040523d82523d6000602084013e611a3c565b606091505b5091509150611a4d87838387611a58565b979650505050505050565b60608315611aee578251600003611ae75773ffffffffffffffffffffffffffffffffffffffff85163b611ae7576040517f08c379a000000000000000000000000000000000000000000000000000000000815260206004820152601d60248201527f416464726573733a2063616c6c20746f206e6f6e2d636f6e74726163740000006044820152606401610916565b5081611937565b6119378383815115611b035781518083602001fd5b806040517f08c379a00000000000000000000000000000000000000000000000000000000081526004016109169190611f39565b600060208284031215611b4957600080fd5b81357fffffffff0000000000000000000000000000000000000000000000000000000081168114610d6557600080fd5b60008060408385031215611b8c57600080fd5b50508035926020909101359150565b60008060008060808587031215611bb157600080fd5b5050823594602084013594506040840135936060013592509050565b60008083601f840112611bdf57600080fd5b50813567ffffffffffffffff811115611bf757600080fd5b6020830191508360208260051b8501011115611c1257600080fd5b9250929050565b60008060208385031215611c2c57600080fd5b823567ffffffffffffffff811115611c4357600080fd5b611c4f85828601611bcd565b90969095509350505050565b600060208284031215611c6d57600080fd5b5035919050565b73ffffffffffffffffffffffffffffffffffffffff81168114610d4057600080fd5b60008060408385031215611ca957600080fd5b823591506020830135611cbb81611c74565b809150509250929050565b600060208284031215611cd857600080fd5b8135610d6581611c74565b600080600060408486031215611cf857600080fd5b83359250602084013567ffffffffffffffff811115611d1657600080fd5b611d2286828701611bcd565b9497909650939450505050565b8015158114610d4057600080fd5b600060208284031215611d4f57600080fd5b8135610d6581611d2f565b6020808252825182820181905260009190848201906040850190845b81811015611da857835173ffffffffffffffffffffffffffffffffffffffff1683529284019291840191600101611d76565b50909695505050505050565b7f4e487b7100000000000000000000000000000000000000000000000000000000600052603260045260246000fd5b7f4e487b7100000000000000000000000000000000000000000000000000000000600052601160045260246000fd5b8181038181111561075457610754611de3565b808202811582820484141761075457610754611de3565b600082611e72577f4e487b7100000000000000000000000000000000000000000000000000000000600052601260045260246000fd5b500490565b600060208284031215611e8957600080fd5b8151610d6581611c74565b60005b83811015611eaf578181015183820152602001611e97565b50506000910152565b7f416363657373436f6e74726f6c3a206163636f756e7420000000000000000000815260008351611ef0816017850160208801611e94565b7f206973206d697373696e6720726f6c65200000000000000000000000000000006017918401918201528351611f2d816028840160208801611e94565b01602801949350505050565b6020815260008251806020840152611f58816040850160208701611e94565b601f017fffffffffffffffffffffffffffffffffffffffffffffffffffffffffffffffe0169190910160400192915050565b7f4e487b7100000000000000000000000000000000000000000000000000000000600052603160045260246000fd5b8082018082111561075457610754611de3565b7f4e487b7100000000000000000000000000000000000000000000000000000000600052604160045260246000fd5b60008161200a5761200a611de3565b507fffffffffffffffffffffffffffffffffffffffffffffffffffffffffffffffff0190565b60006020828403121561204257600080fd5b8151610d6581611d2f565b6000825161205f818460208701611e94565b919091019291505056fea26469706673582212209cc5a3a0e123fa5dcee9d52af2de04577b422a9be7082517fc900e2c4dc7e65664736f6c63430008160033b19546dff01e856fb3f010c267a7b1c60363cf8a4664e21cc89c26224620214e",
  "linkReferences": {},
  "deployedLinkReferences": {}
}