{
  "_format": "hh-sol-artifact-1",
  "contractName": "GenesisTokenEscrowMock",
  "sourceName": "contracts/mocks/escrow/GenesisTokenEscrowMock.sol",
  "abi": [
    {
      "inputs": [
        {
          "internalType": "address",
          "name": "genesisToken_",
          "type": "address"
        },
        {
          "internalType": "contract IForwarderRegistry",
          "name": "forwarderRegistry",
          "type": "address"
        }
      ],
      "stateMutability": "nonpayable",
      "type": "constructor"
    },
    {
      "inputs": [
        {
          "internalType": "uint256",
          "name": "tokenId",
          "type": "uint256"
        }
      ],
      "name": "ExcessiveGenesisToken",
      "type": "error"
    },
    {
      "inputs": [],
      "name": "IllegalInterfaceId",
      "type": "error"
    },
    {
      "inputs": [],
      "name": "InconsistentArrayLengths",
      "type": "error"
    },
    {
      "inputs": [
        {
          "internalType": "uint256",
          "name": "tokenId",
          "type": "uint256"
        }
      ],
      "name": "InsufficientGenesisToken",
      "type": "error"
    },
    {
      "inputs": [
        {
          "internalType": "address",
          "name": "inventory",
          "type": "address"
        }
      ],
      "name": "InvalidInventory",
      "type": "error"
    },
    {
      "inputs": [
        {
          "internalType": "address",
          "name": "account",
          "type": "address"
        }
      ],
      "name": "NotContractOwner",
      "type": "error"
    },
    {
      "inputs": [
        {
          "internalType": "address",
          "name": "account",
          "type": "address"
        },
        {
          "internalType": "address",
          "name": "publisherTokenAddress",
          "type": "address"
        },
        {
          "internalType": "uint256",
          "name": "publisherTokenId",
          "type": "uint256"
        }
      ],
      "name": "NotEscrowed",
      "type": "error"
    },
    {
      "inputs": [
        {
          "internalType": "uint256",
          "name": "tokenId",
          "type": "uint256"
        }
      ],
      "name": "UnsupportedGenesisTokenId",
      "type": "error"
    },
    {
      "anonymous": false,
      "inputs": [
        {
          "indexed": true,
          "internalType": "address",
          "name": "account",
          "type": "address"
        },
        {
          "indexed": false,
          "internalType": "address[]",
          "name": "publisherTokenAddresses",
          "type": "address[]"
        },
        {
          "indexed": false,
          "internalType": "uint256[]",
          "name": "publisherTokenIds",
          "type": "uint256[]"
        },
        {
          "components": [
            {
              "internalType": "uint128",
              "name": "genesis1Quantity",
              "type": "uint128"
            },
            {
              "internalType": "uint128",
              "name": "genesis2Quantity",
              "type": "uint128"
            }
          ],
          "indexed": false,
          "internalType": "struct GenesisTokenEscrow.Escrow[]",
          "name": "escrows",
          "type": "tuple[]"
        }
      ],
      "name": "Deposited",
      "type": "event"
    },
    {
      "anonymous": false,
      "inputs": [
        {
          "indexed": true,
          "internalType": "address",
          "name": "previousOwner",
          "type": "address"
        },
        {
          "indexed": true,
          "internalType": "address",
          "name": "newOwner",
          "type": "address"
        }
      ],
      "name": "OwnershipTransferred",
      "type": "event"
    },
    {
      "anonymous": false,
      "inputs": [
        {
          "indexed": true,
          "internalType": "address",
          "name": "account",
          "type": "address"
        },
        {
          "indexed": false,
          "internalType": "address[]",
          "name": "publisherTokenAddresses",
          "type": "address[]"
        },
        {
          "indexed": false,
          "internalType": "uint256[]",
          "name": "publisherTokenIds",
          "type": "uint256[]"
        }
      ],
      "name": "Withdrawn",
      "type": "event"
    },
    {
      "inputs": [],
      "name": "GENESIS_TOKEN",
      "outputs": [
        {
          "internalType": "contract IERC1155",
          "name": "",
          "type": "address"
        }
      ],
      "stateMutability": "view",
      "type": "function"
    },
    {
      "inputs": [],
      "name": "__msgData",
      "outputs": [
        {
          "internalType": "bytes",
          "name": "",
          "type": "bytes"
        }
      ],
      "stateMutability": "view",
      "type": "function"
    },
    {
      "inputs": [
        {
          "internalType": "address",
          "name": "",
          "type": "address"
        },
        {
          "internalType": "address",
          "name": "",
          "type": "address"
        },
        {
          "internalType": "uint256",
          "name": "",
          "type": "uint256"
        }
      ],
      "name": "escrowed",
      "outputs": [
        {
          "internalType": "uint128",
          "name": "genesis1Quantity",
          "type": "uint128"
        },
        {
          "internalType": "uint128",
          "name": "genesis2Quantity",
          "type": "uint128"
        }
      ],
      "stateMutability": "view",
      "type": "function"
    },
    {
      "inputs": [],
      "name": "forwarderRegistry",
      "outputs": [
        {
          "internalType": "contract IForwarderRegistry",
          "name": "",
          "type": "address"
        }
      ],
      "stateMutability": "view",
      "type": "function"
    },
    {
      "inputs": [
        {
          "internalType": "address",
          "name": "forwarder",
          "type": "address"
        }
      ],
      "name": "isTrustedForwarder",
      "outputs": [
        {
          "internalType": "bool",
          "name": "",
          "type": "bool"
        }
      ],
      "stateMutability": "view",
      "type": "function"
    },
    {
      "inputs": [],
      "name": "msgData",
      "outputs": [
        {
          "internalType": "bytes",
          "name": "",
          "type": "bytes"
        }
      ],
      "stateMutability": "view",
      "type": "function"
    },
    {
      "inputs": [
        {
          "internalType": "address",
          "name": "",
          "type": "address"
        },
        {
          "internalType": "address",
          "name": "from",
          "type": "address"
        },
        {
          "internalType": "uint256[]",
          "name": "ids",
          "type": "uint256[]"
        },
        {
          "internalType": "uint256[]",
          "name": "quantities",
          "type": "uint256[]"
        },
        {
          "internalType": "bytes",
          "name": "data",
          "type": "bytes"
        }
      ],
      "name": "onERC1155BatchReceived",
      "outputs": [
        {
          "internalType": "bytes4",
          "name": "",
          "type": "bytes4"
        }
      ],
      "stateMutability": "nonpayable",
      "type": "function"
    },
    {
      "inputs": [
        {
          "internalType": "address",
          "name": "",
          "type": "address"
        },
        {
          "internalType": "address",
          "name": "from",
          "type": "address"
        },
        {
          "internalType": "uint256",
          "name": "id",
          "type": "uint256"
        },
        {
          "internalType": "uint256",
          "name": "quantity",
          "type": "uint256"
        },
        {
          "internalType": "bytes",
          "name": "data",
          "type": "bytes"
        }
      ],
      "name": "onERC1155Received",
      "outputs": [
        {
          "internalType": "bytes4",
          "name": "",
          "type": "bytes4"
        }
      ],
      "stateMutability": "nonpayable",
      "type": "function"
    },
    {
      "inputs": [],
      "name": "owner",
      "outputs": [
        {
          "internalType": "address",
          "name": "",
          "type": "address"
        }
      ],
      "stateMutability": "view",
      "type": "function"
    },
    {
      "inputs": [
        {
          "internalType": "address[]",
          "name": "accounts",
          "type": "address[]"
        },
        {
          "internalType": "contract IERC20[]",
          "name": "tokens",
          "type": "address[]"
        },
        {
          "internalType": "uint256[]",
          "name": "amounts",
          "type": "uint256[]"
        }
      ],
      "name": "recoverERC20s",
      "outputs": [],
      "stateMutability": "nonpayable",
      "type": "function"
    },
    {
      "inputs": [
        {
          "internalType": "address[]",
          "name": "accounts",
          "type": "address[]"
        },
        {
          "internalType": "contract IERC721[]",
          "name": "contracts",
          "type": "address[]"
        },
        {
          "internalType": "uint256[]",
          "name": "tokenIds",
          "type": "uint256[]"
        }
      ],
      "name": "recoverERC721s",
      "outputs": [],
      "stateMutability": "nonpayable",
      "type": "function"
    },
    {
      "inputs": [
        {
          "internalType": "address payable[]",
          "name": "accounts",
          "type": "address[]"
        },
        {
          "internalType": "uint256[]",
          "name": "amounts",
          "type": "uint256[]"
        }
      ],
      "name": "recoverETH",
      "outputs": [],
      "stateMutability": "nonpayable",
      "type": "function"
    },
    {
      "inputs": [
        {
          "internalType": "bytes4",
          "name": "interfaceId",
          "type": "bytes4"
        }
      ],
      "name": "supportsInterface",
      "outputs": [
        {
          "internalType": "bool",
          "name": "",
          "type": "bool"
        }
      ],
      "stateMutability": "view",
      "type": "function"
    },
    {
      "inputs": [
        {
          "internalType": "address",
          "name": "newOwner",
          "type": "address"
        }
      ],
      "name": "transferOwnership",
      "outputs": [],
      "stateMutability": "nonpayable",
      "type": "function"
    },
    {
      "inputs": [
        {
          "internalType": "address[]",
          "name": "publisherTokenAddresses",
          "type": "address[]"
        },
        {
          "internalType": "uint256[]",
          "name": "publisherTokenIds",
          "type": "uint256[]"
        }
      ],
      "name": "withdraw",
      "outputs": [],
      "stateMutability": "nonpayable",
      "type": "function"
    }
  ],
  "bytecode": "0x60c06040523480156200001157600080fd5b5060405162002f2a38038062002f2a833981016040819052620000349162000214565b81818080336200004f8162000048620000c5565b90620000fb565b5062000070630271189760e51b6001620000686200016e565b91906200019e565b6001600160a01b0390811660805283169050620000af57604051630912efb360e41b81526001600160a01b038316600482015260240160405180910390fd5b506001600160a01b031660a05250620002759050565b600080620000f560017fc9ed16f33ab3a66c84bfd83099ccb2a8845871e2e1c1928f63797152f0fd54cd62000253565b92915050565b6001600160a01b03811615620001525781546001600160a01b0319166001600160a01b03821690811783556040516000907f8be0079c531659141344cd1fd0a4f28419497f9722a3daafe3b4186f6b6457e0908290a35b6200016a6307f5828d60e41b6001620000686200016e565b5050565b600080620000f560017fca9d3e17f264b0f3984e2634e94adb37fa3e6a8103f06aeae6fa59e21c769f5e62000253565b600160e01b6001600160e01b0319831601620001cd576040516372c683bb60e01b815260040160405180910390fd5b6001600160e01b03199190911660009081526020929092526040909120805460ff1916911515919091179055565b6001600160a01b03811681146200021157600080fd5b50565b600080604083850312156200022857600080fd5b82516200023581620001fb565b60208401519092506200024881620001fb565b809150509250929050565b81810381811115620000f557634e487b7160e01b600052601160045260246000fd5b60805160a051612c57620002d3600039600081816102f0015281816104c201528181610e870152610f420152600081816101240152818161021201528181611bbb01528181611bf901528181611d310152611db90152612c576000f3fe608060405234801561001057600080fd5b50600436106100f55760003560e01c8063bc197c8111610097578063ef59df2711610066578063ef59df27146102eb578063f23a6e6114610312578063f2fde38b14610325578063f7ba94bd1461033857600080fd5b8063bc197c811461026c578063c3666c36146102b0578063c4c2bfdc146102c3578063de6d6d96146102d857600080fd5b8063529b35f3116100d3578063529b35f31461017f578063572b6c051461020257806373c8a9581461024f5780638da5cb5b1461026457600080fd5b806301ffc9a7146100fa5780632b4c9f161461012257806331e66e1e14610169575b600080fd5b61010d610108366004612184565b61034b565b60405190151581526020015b60405180910390f35b7f00000000000000000000000000000000000000000000000000000000000000005b60405173ffffffffffffffffffffffffffffffffffffffff9091168152602001610119565b610171610365565b6040516101199291906121cd565b6101d961018d36600461223c565b600060208181529381526040808220855292815282812090935282529020546fffffffffffffffffffffffffffffffff8082169170010000000000000000000000000000000090041682565b604080516fffffffffffffffffffffffffffffffff938416815292909116602083015201610119565b61010d61021036600461227d565b7f000000000000000000000000000000000000000000000000000000000000000073ffffffffffffffffffffffffffffffffffffffff90811691161490565b61026261025d3660046122e6565b610378565b005b61014461047c565b61027f61027a3660046123c2565b6104a8565b6040517fffffffff000000000000000000000000000000000000000000000000000000009091168152602001610119565b6102626102be3660046122e6565b610842565b6102cb6109ba565b60405161011991906124ef565b6102626102e6366004612502565b610a48565b6101447f000000000000000000000000000000000000000000000000000000000000000081565b61027f61032036600461256e565b610f28565b61026261033336600461227d565b6112b8565b610262610346366004612502565b6112d6565b600061035f82610359611395565b906113c3565b92915050565b36600061037061149d565b915091509091565b6103916103836114a8565b61038b6114b2565b906114e0565b8483811415806103a15750808214155b156103d8576040517f6582533600000000000000000000000000000000000000000000000000000000815260040160405180910390fd5b60005b818110156104725761046a8888838181106103f8576103f86125d8565b905060200201602081019061040d919061227d565b85858481811061041f5761041f6125d8565b90506020020135888885818110610438576104386125d8565b905060200201602081019061044d919061227d565b73ffffffffffffffffffffffffffffffffffffffff16919061154f565b6001016103db565b5050505050505050565b60006104a36104896114b2565b5473ffffffffffffffffffffffffffffffffffffffff1690565b905090565b60003373ffffffffffffffffffffffffffffffffffffffff7f0000000000000000000000000000000000000000000000000000000000000000168114610537576040517f912efb3000000000000000000000000000000000000000000000000000000000815273ffffffffffffffffffffffffffffffffffffffff821660048201526024015b60405180910390fd5b600080808061054887890189612796565b93509350935093506105608c8c8c8c888888886115e1565b6000845167ffffffffffffffff81111561057c5761057c612607565b6040519080825280602002602001820160405280156105c157816020015b604080518082019091526000808252602082015281526020019060019003908161059a5790505b5090508d60005b86518110156107ba5773ffffffffffffffffffffffffffffffffffffffff82166000908152602081905260408120885182908a908590811061060c5761060c6125d8565b602002602001015173ffffffffffffffffffffffffffffffffffffffff1673ffffffffffffffffffffffffffffffffffffffff1681526020019081526020016000206000888481518110610662576106626125d8565b60200260200101518152602001908152602001600020905085828151811061068c5761068c6125d8565b6020908102919091010151815482906000906106bb9084906fffffffffffffffffffffffffffffffff166128d0565b92506101000a8154816fffffffffffffffffffffffffffffffff02191690836fffffffffffffffffffffffffffffffff160217905550848281518110610703576107036125d8565b60200260200101518160000160108282829054906101000a90046fffffffffffffffffffffffffffffffff1661073991906128d0565b82546101009290920a6fffffffffffffffffffffffffffffffff81810219909316918316021790915560408051808201909152835480831682527001000000000000000000000000000000009004909116602082015285519091508590849081106107a6576107a66125d8565b6020908102919091010152506001016105c8565b508073ffffffffffffffffffffffffffffffffffffffff167f0e66c6a6cd97f4ba167ce0fcd0c4ddc5a6bc715d604f363be7bc2f056945eae18787856040516108059392919061293c565b60405180910390a2507fbc197c81000000000000000000000000000000000000000000000000000000009f9e505050505050505050505050505050565b61084d6103836114a8565b84838114158061085d5750808214155b15610894576040517f6582533600000000000000000000000000000000000000000000000000000000815260040160405180910390fd5b60005b81811015610472578585828181106108b1576108b16125d8565b90506020020160208101906108c6919061227d565b73ffffffffffffffffffffffffffffffffffffffff166323b872dd308a8a858181106108f4576108f46125d8565b9050602002016020810190610909919061227d565b87878681811061091b5761091b6125d8565b6040517fffffffff0000000000000000000000000000000000000000000000000000000060e088901b16815273ffffffffffffffffffffffffffffffffffffffff958616600482015294909316602485015250602090910201356044820152606401600060405180830381600087803b15801561099757600080fd5b505af11580156109ab573d6000803e3d6000fd5b50505050806001019050610897565b600180546109c790612a08565b80601f01602080910402602001604051908101604052809291908181526020018280546109f390612a08565b8015610a405780601f10610a1557610100808354040283529160200191610a40565b820191906000526020600020905b815481529060010190602001808311610a2357829003601f168201915b505050505081565b828114610a81576040517f6582533600000000000000000000000000000000000000000000000000000000815260040160405180910390fd5b6000610a8b6114a8565b6040805160028082526060820183529293506000929091602083019080368337019050509050600181600081518110610ac657610ac66125d8565b602002602001018181525050600281600181518110610ae757610ae76125d8565b60200260200101818152505060008060005b87811015610dab576000898983818110610b1557610b156125d8565b9050602002016020810190610b2a919061227d565b90506000888884818110610b4057610b406125d8565b73ffffffffffffffffffffffffffffffffffffffff808b1660009081526020818152604080832093891683529281528282209381029590950135808252929094529092208054929350916fffffffffffffffffffffffffffffffff80821692507001000000000000000000000000000000009091041681151580610bd557506fffffffffffffffffffffffffffffffff811615155b15610d4157604051806040016040528060006fffffffffffffffffffffffffffffffff16815260200160006fffffffffffffffffffffffffffffffff168152506000808c73ffffffffffffffffffffffffffffffffffffffff1673ffffffffffffffffffffffffffffffffffffffff16815260200190815260200160002060008773ffffffffffffffffffffffffffffffffffffffff1673ffffffffffffffffffffffffffffffffffffffff168152602001908152602001600020600086815260200190815260200160002060008201518160000160006101000a8154816fffffffffffffffffffffffffffffffff02191690836fffffffffffffffffffffffffffffffff16021790555060208201518160000160106101000a8154816fffffffffffffffffffffffffffffffff02191690836fffffffffffffffffffffffffffffffff1602179055509050508188610d2e91906128d0565b9750610d3a81886128d0565b9650610d9a565b6040517fd91fd18700000000000000000000000000000000000000000000000000000000815273ffffffffffffffffffffffffffffffffffffffff808c166004830152861660248201526044810185905260640161052e565b505060019093019250610af9915050565b508373ffffffffffffffffffffffffffffffffffffffff167f78c340d4ad128ce699aee749013d7fa1512cfb434be2b83c3ce5d99069e026f689898989604051610df89493929190612a5b565b60405180910390a2604080516002808252606082018352600092602083019080368337019050509050826fffffffffffffffffffffffffffffffff1681600081518110610e4757610e476125d8565b602002602001018181525050816fffffffffffffffffffffffffffffffff1681600181518110610e7957610e796125d8565b6020026020010181815250507f000000000000000000000000000000000000000000000000000000000000000073ffffffffffffffffffffffffffffffffffffffff16632eb2c2d630610eca6114a8565b87856040518563ffffffff1660e01b8152600401610eeb9493929190612aff565b600060405180830381600087803b158015610f0557600080fd5b505af1158015610f19573d6000803e3d6000fd5b50505050505050505050505050565b60003373ffffffffffffffffffffffffffffffffffffffff7f0000000000000000000000000000000000000000000000000000000000000000168114610fb2576040517f912efb3000000000000000000000000000000000000000000000000000000000815273ffffffffffffffffffffffffffffffffffffffff8216600482015260240161052e565b600080610fc185870187612b67565b73ffffffffffffffffffffffffffffffffffffffff808c166000908152602081815260408083209386168352928152828220848352905220919350915060018990036110685780548890829060009061102d9084906fffffffffffffffffffffffffffffffff166128d0565b92506101000a8154816fffffffffffffffffffffffffffffffff02191690836fffffffffffffffffffffffffffffffff1602179055506110df565b886002036110aa5780548890829060109061102d90849070010000000000000000000000000000000090046fffffffffffffffffffffffffffffffff166128d0565b6040517f8be93f4f000000000000000000000000000000000000000000000000000000008152600481018a905260240161052e565b60408051600180825281830190925260009160208083019080368337505060408051600180825281830190925292935060009291506020808301908036833750506040805160018082528183019092529293506000929150602082015b604080518082019091526000808252602082015281526020019060019003908161113c5790505090508583600081518110611179576111796125d8565b602002602001019073ffffffffffffffffffffffffffffffffffffffff16908173ffffffffffffffffffffffffffffffffffffffff168152505084826000815181106111c7576111c76125d8565b6020908102919091018101919091526040805180820190915285546fffffffffffffffffffffffffffffffff8082168352700100000000000000000000000000000000909104169181019190915281518290600090611228576112286125d8565b60200260200101819052508c73ffffffffffffffffffffffffffffffffffffffff167f0e66c6a6cd97f4ba167ce0fcd0c4ddc5a6bc715d604f363be7bc2f056945eae184848460405161127d9392919061293c565b60405180910390a2507ff23a6e61000000000000000000000000000000000000000000000000000000009d9c50505050505050505050505050565b6112d36112c36114a8565b826112cc6114b2565b9190611915565b50565b6112e16103836114a8565b8281811461131b576040517f6582533600000000000000000000000000000000000000000000000000000000815260040160405180910390fd5b60005b8181101561138d5761138584848381811061133b5761133b6125d8565b90506020020135878784818110611354576113546125d8565b9050602002016020810190611369919061227d565b73ffffffffffffffffffffffffffffffffffffffff1690611a2a565b60010161131e565b505050505050565b60008061035f60017fca9d3e17f264b0f3984e2634e94adb37fa3e6a8103f06aeae6fa59e21c769f5e612b93565b60007c01000000000000000000000000000000000000000000000000000000007fffffffff000000000000000000000000000000000000000000000000000000008316016114135750600061035f565b7ffe003659000000000000000000000000000000000000000000000000000000007fffffffff000000000000000000000000000000000000000000000000000000008316016114645750600161035f565b507fffffffff00000000000000000000000000000000000000000000000000000000166000908152602091909152604090205460ff1690565b366000610370611b84565b60006104a3611cee565b60008061035f60017fc9ed16f33ab3a66c84bfd83099ccb2a8845871e2e1c1928f63797152f0fd54cd612b93565b815473ffffffffffffffffffffffffffffffffffffffff82811691161461154b576040517f2ef4875e00000000000000000000000000000000000000000000000000000000815273ffffffffffffffffffffffffffffffffffffffff8216600482015260240161052e565b5050565b6040805173ffffffffffffffffffffffffffffffffffffffff8416602482015260448082018490528251808303909101815260649091019091526020810180517bffffffffffffffffffffffffffffffffffffffffffffffffffffffff167fa9059cbb000000000000000000000000000000000000000000000000000000001790526115dc908490611e35565b505050565b825184511461161c576040517f6582533600000000000000000000000000000000000000000000000000000000815260040160405180910390fd5b8151845114611657576040517f6582533600000000000000000000000000000000000000000000000000000000815260040160405180910390fd5b8051845114611692576040517f6582533600000000000000000000000000000000000000000000000000000000815260040160405180910390fd5b60008060005b865181101561171b578481815181106116b3576116b36125d8565b60200260200101516fffffffffffffffffffffffffffffffff16836116d89190612ba6565b92508381815181106116ec576116ec6125d8565b60200260200101516fffffffffffffffffffffffffffffffff16826117119190612ba6565b9150600101611698565b5060005b898110156118925760008b8b8381811061173b5761173b6125d8565b905060200201359050806001036117cc5789898381811061175e5761175e6125d8565b905060200201358410156117a1576040517f07060a1f0000000000000000000000000000000000000000000000000000000081526001600482015260240161052e565b8989838181106117b3576117b36125d8565b90506020020135846117c59190612b93565b9350611889565b80600203611854578989838181106117e6576117e66125d8565b90506020020135831015611829576040517f07060a1f0000000000000000000000000000000000000000000000000000000081526002600482015260240161052e565b89898381811061183b5761183b6125d8565b905060200201358361184d9190612b93565b9250611889565b6040517f8be93f4f0000000000000000000000000000000000000000000000000000000081526004810182905260240161052e565b5060010161171f565b5081156118ce576040517f6cc116570000000000000000000000000000000000000000000000000000000081526001600482015260240161052e565b8015611909576040517f6cc116570000000000000000000000000000000000000000000000000000000081526002600482015260240161052e565b50505050505050505050565b825473ffffffffffffffffffffffffffffffffffffffff9081169083168114611982576040517f2ef4875e00000000000000000000000000000000000000000000000000000000815273ffffffffffffffffffffffffffffffffffffffff8416600482015260240161052e565b8173ffffffffffffffffffffffffffffffffffffffff168173ffffffffffffffffffffffffffffffffffffffff1614611a245783547fffffffffffffffffffffffff00000000000000000000000000000000000000001673ffffffffffffffffffffffffffffffffffffffff8381169182178655604051908316907f8be0079c531659141344cd1fd0a4f28419497f9722a3daafe3b4186f6b6457e090600090a35b50505050565b80471015611a94576040517f08c379a000000000000000000000000000000000000000000000000000000000815260206004820152601d60248201527f416464726573733a20696e73756666696369656e742062616c616e6365000000604482015260640161052e565b60008273ffffffffffffffffffffffffffffffffffffffff168260405160006040518083038185875af1925050503d8060008114611aee576040519150601f19603f3d011682016040523d82523d6000602084013e611af3565b606091505b50509050806115dc576040517f08c379a000000000000000000000000000000000000000000000000000000000815260206004820152603a60248201527f416464726573733a20756e61626c6520746f2073656e642076616c75652c207260448201527f6563697069656e74206d61792068617665207265766572746564000000000000606482015260840161052e565b36600033321480611b955750601836105b15611ba35750600091369150565b3373ffffffffffffffffffffffffffffffffffffffff7f0000000000000000000000000000000000000000000000000000000000000000161480611cd8575073ffffffffffffffffffffffffffffffffffffffff7f000000000000000000000000000000000000000000000000000000000000000016638929a8ca367fffffffffffffffffffffffffffffffffffffffffffffffffffffffffffffffec013560601c6040517fffffffff0000000000000000000000000000000000000000000000000000000060e084901b16815273ffffffffffffffffffffffffffffffffffffffff9091166004820152336024820152604401602060405180830381865afa158015611cb4573d6000803e3d6000fd5b505050506040513d601f19601f82011682018060405250810190611cd89190612bb9565b15611ce557610370611f44565b50600091369150565b600033321480611cfe5750601836105b15611d0857503390565b7fffffffffffffffffffffffffffffffffffffffffffffffffffffffffffffffec36013560601c7f000000000000000000000000000000000000000000000000000000000000000073ffffffffffffffffffffffffffffffffffffffff16331480611e2457506040517f8929a8ca00000000000000000000000000000000000000000000000000000000815273ffffffffffffffffffffffffffffffffffffffff82811660048301523360248301527f00000000000000000000000000000000000000000000000000000000000000001690638929a8ca90604401602060405180830381865afa158015611e00573d6000803e3d6000fd5b505050506040513d601f19601f82011682018060405250810190611e249190612bb9565b15611e2e57919050565b3391505090565b6000611e97826040518060400160405280602081526020017f5361666545524332303a206c6f772d6c6576656c2063616c6c206661696c65648152508573ffffffffffffffffffffffffffffffffffffffff16611f759092919063ffffffff16565b9050805160001480611eb8575080806020019051810190611eb89190612bb9565b6115dc576040517f08c379a000000000000000000000000000000000000000000000000000000000815260206004820152602a60248201527f5361666545524332303a204552433230206f7065726174696f6e20646964206e60448201527f6f74207375636365656400000000000000000000000000000000000000000000606482015260840161052e565b3660006103707fffffffffffffffffffffffffffffffffffffffffffffffffffffffffffffffec8301828481612bdb565b6060611f848484600085611f8c565b949350505050565b60608247101561201e576040517f08c379a000000000000000000000000000000000000000000000000000000000815260206004820152602660248201527f416464726573733a20696e73756666696369656e742062616c616e636520666f60448201527f722063616c6c0000000000000000000000000000000000000000000000000000606482015260840161052e565b6000808673ffffffffffffffffffffffffffffffffffffffff1685876040516120479190612c05565b60006040518083038185875af1925050503d8060008114612084576040519150601f19603f3d011682016040523d82523d6000602084013e612089565b606091505b509150915061209a878383876120a5565b979650505050505050565b6060831561213b5782516000036121345773ffffffffffffffffffffffffffffffffffffffff85163b612134576040517f08c379a000000000000000000000000000000000000000000000000000000000815260206004820152601d60248201527f416464726573733a2063616c6c20746f206e6f6e2d636f6e7472616374000000604482015260640161052e565b5081611f84565b611f8483838151156121505781518083602001fd5b806040517f08c379a000000000000000000000000000000000000000000000000000000000815260040161052e91906124ef565b60006020828403121561219657600080fd5b81357fffffffff00000000000000000000000000000000000000000000000000000000811681146121c657600080fd5b9392505050565b60208152816020820152818360408301376000818301604090810191909152601f9092017fffffffffffffffffffffffffffffffffffffffffffffffffffffffffffffffe0160101919050565b73ffffffffffffffffffffffffffffffffffffffff811681146112d357600080fd5b60008060006060848603121561225157600080fd5b833561225c8161221a565b9250602084013561226c8161221a565b929592945050506040919091013590565b60006020828403121561228f57600080fd5b81356121c68161221a565b60008083601f8401126122ac57600080fd5b50813567ffffffffffffffff8111156122c457600080fd5b6020830191508360208260051b85010111156122df57600080fd5b9250929050565b600080600080600080606087890312156122ff57600080fd5b863567ffffffffffffffff8082111561231757600080fd5b6123238a838b0161229a565b9098509650602089013591508082111561233c57600080fd5b6123488a838b0161229a565b9096509450604089013591508082111561236157600080fd5b5061236e89828a0161229a565b979a9699509497509295939492505050565b60008083601f84011261239257600080fd5b50813567ffffffffffffffff8111156123aa57600080fd5b6020830191508360208285010111156122df57600080fd5b60008060008060008060008060a0898b0312156123de57600080fd5b88356123e98161221a565b975060208901356123f98161221a565b9650604089013567ffffffffffffffff8082111561241657600080fd5b6124228c838d0161229a565b909850965060608b013591508082111561243b57600080fd5b6124478c838d0161229a565b909650945060808b013591508082111561246057600080fd5b5061246d8b828c01612380565b999c989b5096995094979396929594505050565b60005b8381101561249c578181015183820152602001612484565b50506000910152565b600081518084526124bd816020860160208601612481565b601f017fffffffffffffffffffffffffffffffffffffffffffffffffffffffffffffffe0169290920160200192915050565b6020815260006121c660208301846124a5565b6000806000806040858703121561251857600080fd5b843567ffffffffffffffff8082111561253057600080fd5b61253c8883890161229a565b9096509450602087013591508082111561255557600080fd5b506125628782880161229a565b95989497509550505050565b60008060008060008060a0878903121561258757600080fd5b86356125928161221a565b955060208701356125a28161221a565b94506040870135935060608701359250608087013567ffffffffffffffff8111156125cc57600080fd5b61236e89828a01612380565b7f4e487b7100000000000000000000000000000000000000000000000000000000600052603260045260246000fd5b7f4e487b7100000000000000000000000000000000000000000000000000000000600052604160045260246000fd5b604051601f82017fffffffffffffffffffffffffffffffffffffffffffffffffffffffffffffffe016810167ffffffffffffffff8111828210171561267d5761267d612607565b604052919050565b600067ffffffffffffffff82111561269f5761269f612607565b5060051b60200190565b600082601f8301126126ba57600080fd5b813560206126cf6126ca83612685565b612636565b8083825260208201915060208460051b8701019350868411156126f157600080fd5b602086015b8481101561270d57803583529183019183016126f6565b509695505050505050565b600082601f83011261272957600080fd5b813560206127396126ca83612685565b8083825260208201915060208460051b87010193508684111561275b57600080fd5b602086015b8481101561270d5780356fffffffffffffffffffffffffffffffff811681146127895760008081fd5b8352918301918301612760565b600080600080608085870312156127ac57600080fd5b843567ffffffffffffffff808211156127c457600080fd5b818701915087601f8301126127d857600080fd5b813560206127e86126ca83612685565b82815260059290921b8401810191818101908b84111561280757600080fd5b948201945b8386101561282e57853561281f8161221a565b8252948201949082019061280c565b9850508801359250508082111561284457600080fd5b612850888389016126a9565b9450604087013591508082111561286657600080fd5b61287288838901612718565b9350606087013591508082111561288857600080fd5b5061289587828801612718565b91505092959194509250565b7f4e487b7100000000000000000000000000000000000000000000000000000000600052601160045260246000fd5b6fffffffffffffffffffffffffffffffff8181168382160190808211156128f9576128f96128a1565b5092915050565b60008151808452602080850194506020840160005b8381101561293157815187529582019590820190600101612915565b509495945050505050565b606080825284519082018190526000906020906080840190828801845b8281101561298b57815173ffffffffffffffffffffffffffffffffffffffff1684529284019290840190600101612959565b5050508381038285015261299f8187612900565b9050604084820360408601528186518084528484019150848801935060005b818110156129f957845180516fffffffffffffffffffffffffffffffff908116855290870151168684015293850193918301916001016129be565b50909998505050505050505050565b600181811c90821680612a1c57607f821691505b602082108103612a55577f4e487b7100000000000000000000000000000000000000000000000000000000600052602260045260246000fd5b50919050565b6040808252810184905260008560608301825b87811015612aab578235612a818161221a565b73ffffffffffffffffffffffffffffffffffffffff16825260209283019290910190600101612a6e565b5083810360208501528481527f07ffffffffffffffffffffffffffffffffffffffffffffffffffffffffffffff851115612ae457600080fd5b8460051b915081866020830137016020019695505050505050565b600073ffffffffffffffffffffffffffffffffffffffff808716835280861660208401525060a06040830152612b3860a0830185612900565b8281036060840152612b4a8185612900565b838103608090940193909352505060008152602001949350505050565b60008060408385031215612b7a57600080fd5b8235612b858161221a565b946020939093013593505050565b8181038181111561035f5761035f6128a1565b8082018082111561035f5761035f6128a1565b600060208284031215612bcb57600080fd5b815180151581146121c657600080fd5b60008085851115612beb57600080fd5b83861115612bf857600080fd5b5050820193919092039150565b60008251612c17818460208701612481565b919091019291505056fea26469706673582212203dad27b8789cd094a13521293fece505cbe3e5377797064d1f82da155e9248fd64736f6c63430008160033",
  "linkReferences": {},
  "deployedLinkReferences": {}
}