{
  "_format": "hh-sol-artifact-1",
  "contractName": "GenesisTokenEscrowMock",
  "sourceName": "contracts/mocks/escrow/GenesisTokenEscrowMock.sol",
  "abi": [
    {
      "inputs": [
        {
          "internalType": "address",
          "name": "genesisToken_",
          "type": "address"
        },
        {
          "internalType": "contract IForwarderRegistry",
          "name": "forwarderRegistry",
          "type": "address"
        }
      ],
      "stateMutability": "nonpayable",
      "type": "constructor"
    },
    {
      "inputs": [],
      "name": "IllegalInterfaceId",
      "type": "error"
    },
    {
      "inputs": [],
      "name": "InconsistentArrayLengths",
      "type": "error"
    },
    {
      "inputs": [],
      "name": "InvalidInputParams",
      "type": "error"
    },
    {
      "inputs": [
        {
          "internalType": "address",
          "name": "inventory",
          "type": "address"
        }
      ],
      "name": "InvalidInventory",
      "type": "error"
    },
    {
      "inputs": [
        {
          "internalType": "address",
          "name": "account",
          "type": "address"
        }
      ],
      "name": "NotContractOwner",
      "type": "error"
    },
    {
      "inputs": [
        {
          "internalType": "address",
          "name": "account",
          "type": "address"
        },
        {
          "internalType": "address",
          "name": "publisherTokenAddress",
          "type": "address"
        },
        {
          "internalType": "uint256",
          "name": "publisherTokenId",
          "type": "uint256"
        }
      ],
      "name": "NotEscrowed",
      "type": "error"
    },
    {
      "anonymous": false,
      "inputs": [
        {
          "indexed": true,
          "internalType": "address",
          "name": "account",
          "type": "address"
        },
        {
          "indexed": false,
          "internalType": "address[]",
          "name": "publisherTokenAddresses",
          "type": "address[]"
        },
        {
          "indexed": false,
          "internalType": "uint256[]",
          "name": "publisherTokenIds",
          "type": "uint256[]"
        },
        {
          "components": [
            {
              "internalType": "uint128",
              "name": "genesis1Quantity",
              "type": "uint128"
            },
            {
              "internalType": "uint128",
              "name": "genesis2Quantity",
              "type": "uint128"
            }
          ],
          "indexed": false,
          "internalType": "struct GenesisTokenEscrow.Escrow[]",
          "name": "escrows",
          "type": "tuple[]"
        }
      ],
      "name": "Deposited",
      "type": "event"
    },
    {
      "anonymous": false,
      "inputs": [
        {
          "indexed": true,
          "internalType": "address",
          "name": "previousOwner",
          "type": "address"
        },
        {
          "indexed": true,
          "internalType": "address",
          "name": "newOwner",
          "type": "address"
        }
      ],
      "name": "OwnershipTransferred",
      "type": "event"
    },
    {
      "anonymous": false,
      "inputs": [
        {
          "indexed": true,
          "internalType": "address",
          "name": "account",
          "type": "address"
        },
        {
          "indexed": false,
          "internalType": "address[]",
          "name": "publisherTokenAddresses",
          "type": "address[]"
        },
        {
          "indexed": false,
          "internalType": "uint256[]",
          "name": "publisherTokenIds",
          "type": "uint256[]"
        }
      ],
      "name": "Withdrawn",
      "type": "event"
    },
    {
      "inputs": [],
      "name": "GENESIS_TOKEN",
      "outputs": [
        {
          "internalType": "contract IERC1155",
          "name": "",
          "type": "address"
        }
      ],
      "stateMutability": "view",
      "type": "function"
    },
    {
      "inputs": [],
      "name": "__msgData",
      "outputs": [
        {
          "internalType": "bytes",
          "name": "",
          "type": "bytes"
        }
      ],
      "stateMutability": "view",
      "type": "function"
    },
    {
      "inputs": [
        {
          "internalType": "address",
          "name": "",
          "type": "address"
        },
        {
          "internalType": "address",
          "name": "",
          "type": "address"
        },
        {
          "internalType": "uint256",
          "name": "",
          "type": "uint256"
        }
      ],
      "name": "escrowed",
      "outputs": [
        {
          "internalType": "uint128",
          "name": "genesis1Quantity",
          "type": "uint128"
        },
        {
          "internalType": "uint128",
          "name": "genesis2Quantity",
          "type": "uint128"
        }
      ],
      "stateMutability": "view",
      "type": "function"
    },
    {
      "inputs": [],
      "name": "forwarderRegistry",
      "outputs": [
        {
          "internalType": "contract IForwarderRegistry",
          "name": "",
          "type": "address"
        }
      ],
      "stateMutability": "view",
      "type": "function"
    },
    {
      "inputs": [
        {
          "internalType": "address",
          "name": "forwarder",
          "type": "address"
        }
      ],
      "name": "isTrustedForwarder",
      "outputs": [
        {
          "internalType": "bool",
          "name": "",
          "type": "bool"
        }
      ],
      "stateMutability": "view",
      "type": "function"
    },
    {
      "inputs": [],
      "name": "msgData",
      "outputs": [
        {
          "internalType": "bytes",
          "name": "",
          "type": "bytes"
        }
      ],
      "stateMutability": "view",
      "type": "function"
    },
    {
      "inputs": [
        {
          "internalType": "address",
          "name": "",
          "type": "address"
        },
        {
          "internalType": "address",
          "name": "from",
          "type": "address"
        },
        {
          "internalType": "uint256[]",
          "name": "ids",
          "type": "uint256[]"
        },
        {
          "internalType": "uint256[]",
          "name": "quantities",
          "type": "uint256[]"
        },
        {
          "internalType": "bytes",
          "name": "data",
          "type": "bytes"
        }
      ],
      "name": "onERC1155BatchReceived",
      "outputs": [
        {
          "internalType": "bytes4",
          "name": "",
          "type": "bytes4"
        }
      ],
      "stateMutability": "nonpayable",
      "type": "function"
    },
    {
      "inputs": [
        {
          "internalType": "address",
          "name": "",
          "type": "address"
        },
        {
          "internalType": "address",
          "name": "from",
          "type": "address"
        },
        {
          "internalType": "uint256",
          "name": "id",
          "type": "uint256"
        },
        {
          "internalType": "uint256",
          "name": "quantity",
          "type": "uint256"
        },
        {
          "internalType": "bytes",
          "name": "data",
          "type": "bytes"
        }
      ],
      "name": "onERC1155Received",
      "outputs": [
        {
          "internalType": "bytes4",
          "name": "",
          "type": "bytes4"
        }
      ],
      "stateMutability": "nonpayable",
      "type": "function"
    },
    {
      "inputs": [],
      "name": "owner",
      "outputs": [
        {
          "internalType": "address",
          "name": "",
          "type": "address"
        }
      ],
      "stateMutability": "view",
      "type": "function"
    },
    {
      "inputs": [
        {
          "internalType": "address[]",
          "name": "accounts",
          "type": "address[]"
        },
        {
          "internalType": "contract IERC20[]",
          "name": "tokens",
          "type": "address[]"
        },
        {
          "internalType": "uint256[]",
          "name": "amounts",
          "type": "uint256[]"
        }
      ],
      "name": "recoverERC20s",
      "outputs": [],
      "stateMutability": "nonpayable",
      "type": "function"
    },
    {
      "inputs": [
        {
          "internalType": "address[]",
          "name": "accounts",
          "type": "address[]"
        },
        {
          "internalType": "contract IERC721[]",
          "name": "contracts",
          "type": "address[]"
        },
        {
          "internalType": "uint256[]",
          "name": "tokenIds",
          "type": "uint256[]"
        }
      ],
      "name": "recoverERC721s",
      "outputs": [],
      "stateMutability": "nonpayable",
      "type": "function"
    },
    {
      "inputs": [
        {
          "internalType": "address payable[]",
          "name": "accounts",
          "type": "address[]"
        },
        {
          "internalType": "uint256[]",
          "name": "amounts",
          "type": "uint256[]"
        }
      ],
      "name": "recoverETH",
      "outputs": [],
      "stateMutability": "nonpayable",
      "type": "function"
    },
    {
      "inputs": [
        {
          "internalType": "bytes4",
          "name": "interfaceId",
          "type": "bytes4"
        }
      ],
      "name": "supportsInterface",
      "outputs": [
        {
          "internalType": "bool",
          "name": "",
          "type": "bool"
        }
      ],
      "stateMutability": "view",
      "type": "function"
    },
    {
      "inputs": [
        {
          "internalType": "address",
          "name": "newOwner",
          "type": "address"
        }
      ],
      "name": "transferOwnership",
      "outputs": [],
      "stateMutability": "nonpayable",
      "type": "function"
    },
    {
      "inputs": [
        {
          "internalType": "address[]",
          "name": "publisherTokenAddresses",
          "type": "address[]"
        },
        {
          "internalType": "uint256[]",
          "name": "publisherTokenIds",
          "type": "uint256[]"
        }
      ],
      "name": "withdraw",
      "outputs": [],
      "stateMutability": "nonpayable",
      "type": "function"
    }
  ],
  "bytecode": "0x60c06040523480156200001157600080fd5b5060405162002ebd38038062002ebd8339810160408190526200003491620002f2565b8181808062000042620000ce565b620000588162000051620000df565b9062000115565b5062000079630271189760e51b60016200007162000188565b9190620001b8565b6001600160a01b0390811660805283169050620000b857604051630912efb360e41b81526001600160a01b038316600482015260240160405180910390fd5b506001600160a01b031660a052506200037e9050565b6000620000da62000215565b905090565b6000806200010f60017fc9ed16f33ab3a66c84bfd83099ccb2a8845871e2e1c1928f63797152f0fd54cd62000331565b92915050565b6001600160a01b038116156200016c5781546001600160a01b0319166001600160a01b03821690811783556040516000907f8be0079c531659141344cd1fd0a4f28419497f9722a3daafe3b4186f6b6457e0908290a35b620001846307f5828d60e41b60016200007162000188565b5050565b6000806200010f60017fca9d3e17f264b0f3984e2634e94adb37fa3e6a8103f06aeae6fa59e21c769f5e62000331565b600160e01b6001600160e01b0319831601620001e7576040516372c683bb60e01b815260040160405180910390fd5b6001600160e01b03199190911660009081526020929092526040909120805460ff1916911515919091179055565b600033321480620002265750601836105b156200023157503390565b60805136601319013560601c906001600160a01b0316331480620002c75750608051604051634494d46560e11b81526001600160a01b03838116600483015233602483015290911690638929a8ca90604401602060405180830381865afa158015620002a1573d6000803e3d6000fd5b505050506040513d601f19601f82011682018060405250810190620002c7919062000353565b15620002d257919050565b3391505090565b6001600160a01b0381168114620002ef57600080fd5b50565b600080604083850312156200030657600080fd5b82516200031381620002d9565b60208401519092506200032681620002d9565b809150509250929050565b818103818111156200010f57634e487b7160e01b600052601160045260246000fd5b6000602082840312156200036657600080fd5b815180151581146200037757600080fd5b9392505050565b60805160a051612ae8620003d5600039600081816102f00152818161106301526111110152600081816101240152818161021201528181611a4c01528181611a8a01528181611bc20152611c4a0152612ae86000f3fe608060405234801561001057600080fd5b50600436106100f55760003560e01c8063bc197c8111610097578063ef59df2711610066578063ef59df27146102eb578063f23a6e6114610312578063f2fde38b14610325578063f7ba94bd1461033857600080fd5b8063bc197c811461026c578063c3666c36146102b0578063c4c2bfdc146102c3578063de6d6d96146102d857600080fd5b8063529b35f3116100d3578063529b35f31461017f578063572b6c051461020257806373c8a9581461024f5780638da5cb5b1461026457600080fd5b806301ffc9a7146100fa5780632b4c9f161461012257806331e66e1e14610169575b600080fd5b61010d610108366004612015565b61034b565b60405190151581526020015b60405180910390f35b7f00000000000000000000000000000000000000000000000000000000000000005b60405173ffffffffffffffffffffffffffffffffffffffff9091168152602001610119565b610171610365565b60405161011992919061205e565b6101d961018d3660046120cd565b600060208181529381526040808220855292815282812090935282529020546fffffffffffffffffffffffffffffffff8082169170010000000000000000000000000000000090041682565b604080516fffffffffffffffffffffffffffffffff938416815292909116602083015201610119565b61010d61021036600461210e565b7f000000000000000000000000000000000000000000000000000000000000000073ffffffffffffffffffffffffffffffffffffffff90811691161490565b61026261025d366004612177565b610378565b005b61014461047c565b61027f61027a366004612253565b6104a8565b6040517fffffffff000000000000000000000000000000000000000000000000000000009091168152602001610119565b6102626102be366004612177565b610ae2565b6102cb610c5a565b6040516101199190612380565b6102626102e6366004612393565b610ce8565b6101447f000000000000000000000000000000000000000000000000000000000000000081565b61027f6103203660046123ff565b611102565b61026261033336600461210e565b61147d565b610262610346366004612393565b61149b565b600061035f8261035961155a565b90611588565b92915050565b366000610370611662565b915091509091565b61039161038361166d565b61038b611677565b906116a5565b8483811415806103a15750808214155b156103d8576040517f6582533600000000000000000000000000000000000000000000000000000000815260040160405180910390fd5b60005b818110156104725761046a8888838181106103f8576103f8612469565b905060200201602081019061040d919061210e565b85858481811061041f5761041f612469565b9050602002013588888581811061043857610438612469565b905060200201602081019061044d919061210e565b73ffffffffffffffffffffffffffffffffffffffff169190611714565b6001016103db565b5050505050505050565b60006104a3610489611677565b5473ffffffffffffffffffffffffffffffffffffffff1690565b905090565b6000808080806104ba86880188612627565b935093509350935082518451146104fd576040517f6582533600000000000000000000000000000000000000000000000000000000815260040160405180910390fd5b8151845114610538576040517f6582533600000000000000000000000000000000000000000000000000000000815260040160405180910390fd5b8051845114610573576040517f6582533600000000000000000000000000000000000000000000000000000000815260040160405180910390fd5b6000806000865167ffffffffffffffff81111561059257610592612498565b6040519080825280602002602001820160405280156105d757816020015b60408051808201909152600080825260208201528152602001906001900390816105b05790505b5090508e60005b88518110156108425773ffffffffffffffffffffffffffffffffffffffff821660009081526020819052604081208a5182908c908590811061062257610622612469565b602002602001015173ffffffffffffffffffffffffffffffffffffffff1673ffffffffffffffffffffffffffffffffffffffff16815260200190815260200160002060008a848151811061067857610678612469565b6020026020010151815260200190815260200160002090508782815181106106a2576106a2612469565b6020908102919091010151815482906000906106d19084906fffffffffffffffffffffffffffffffff16612761565b92506101000a8154816fffffffffffffffffffffffffffffffff02191690836fffffffffffffffffffffffffffffffff16021790555086828151811061071957610719612469565b60200260200101518160000160108282829054906101000a90046fffffffffffffffffffffffffffffffff1661074f9190612761565b82546101009290920a6fffffffffffffffffffffffffffffffff81810219909316918316021790915560408051808201909152835480831682527001000000000000000000000000000000009004909116602082015285519091508590849081106107bc576107bc612469565b60200260200101819052508782815181106107d9576107d9612469565b60200260200101516fffffffffffffffffffffffffffffffff16866107fe9190612791565b955086828151811061081257610812612469565b60200260200101516fffffffffffffffffffffffffffffffff16856108379190612791565b9450506001016105de565b5060008f8f8080602002602001604051908101604052809392919081815260200183836020028082843760009201829052509394505050505b81518110156109e757600082828151811061089857610898612469565b6020026020010151905080600103610927578f8f838181106108bc576108bc612469565b905060200201358710156108fc576040517fe2a15fa300000000000000000000000000000000000000000000000000000000815260040160405180910390fd5b8f8f8381811061090e5761090e612469565b905060200201358761092091906127a4565b96506109de565b806002036109ac578f8f8381811061094157610941612469565b90506020020135861015610981576040517fe2a15fa300000000000000000000000000000000000000000000000000000000815260040160405180910390fd5b8f8f8381811061099357610993612469565b90506020020135866109a591906127a4565b95506109de565b6040517fe2a15fa300000000000000000000000000000000000000000000000000000000815260040160405180910390fd5b5060010161087b565b508415610a20576040517fe2a15fa300000000000000000000000000000000000000000000000000000000815260040160405180910390fd5b8315610a58576040517fe2a15fa300000000000000000000000000000000000000000000000000000000815260040160405180910390fd5b8173ffffffffffffffffffffffffffffffffffffffff167f0e66c6a6cd97f4ba167ce0fcd0c4ddc5a6bc715d604f363be7bc2f056945eae18a8a86604051610aa2939291906127f3565b60405180910390a2507fbc197c81000000000000000000000000000000000000000000000000000000009850505050505050505098975050505050505050565b610aed61038361166d565b848381141580610afd5750808214155b15610b34576040517f6582533600000000000000000000000000000000000000000000000000000000815260040160405180910390fd5b60005b8181101561047257858582818110610b5157610b51612469565b9050602002016020810190610b66919061210e565b73ffffffffffffffffffffffffffffffffffffffff166323b872dd308a8a85818110610b9457610b94612469565b9050602002016020810190610ba9919061210e565b878786818110610bbb57610bbb612469565b6040517fffffffff0000000000000000000000000000000000000000000000000000000060e088901b16815273ffffffffffffffffffffffffffffffffffffffff958616600482015294909316602485015250602090910201356044820152606401600060405180830381600087803b158015610c3757600080fd5b505af1158015610c4b573d6000803e3d6000fd5b50505050806001019050610b37565b60018054610c67906128bf565b80601f0160208091040260200160405190810160405280929190818152602001828054610c93906128bf565b8015610ce05780601f10610cb557610100808354040283529160200191610ce0565b820191906000526020600020905b815481529060010190602001808311610cc357829003601f168201915b505050505081565b828114610d21576040517f6582533600000000000000000000000000000000000000000000000000000000815260040160405180910390fd5b6000610d2b61166d565b6040805160028082526060820183529293506000929091602083019080368337019050509050600181600081518110610d6657610d66612469565b602002602001018181525050600281600181518110610d8757610d87612469565b60209081029190910101526040805160028082526060820190925260009181602001602082028036833701905050905060005b8681101561100c576000888883818110610dd657610dd6612469565b9050602002016020810190610deb919061210e565b90506000878784818110610e0157610e01612469565b73ffffffffffffffffffffffffffffffffffffffff808a16600090815260208181526040808320938916835292815282822093810295909501358082529285528190208151808301909252546fffffffffffffffffffffffffffffffff8082168084527001000000000000000000000000000000009092041694820194909452909350911580159150610ea9575060208101516fffffffffffffffffffffffffffffffff1615155b15610fa3576040805180820182526000808252602080830182815273ffffffffffffffffffffffffffffffffffffffff808d16845283835285842090891684528252848320878452909152928120915192516fffffffffffffffffffffffffffffffff908116700100000000000000000000000000000000029381169390931790915582518751921691879190610f4257610f42612469565b60200260200101818151610f569190612791565b9150818152505080602001516fffffffffffffffffffffffffffffffff1685600181518110610f8757610f87612469565b60200260200101818151610f9b9190612791565b905250611001565b6040517fd91fd18700000000000000000000000000000000000000000000000000000000815273ffffffffffffffffffffffffffffffffffffffff808916600483015284166024820152604481018390526064015b60405180910390fd5b505050600101610dba565b508273ffffffffffffffffffffffffffffffffffffffff167f78c340d4ad128ce699aee749013d7fa1512cfb434be2b83c3ce5d99069e026f6888888886040516110599493929190612912565b60405180910390a27f000000000000000000000000000000000000000000000000000000000000000073ffffffffffffffffffffffffffffffffffffffff16632eb2c2d6306110a661166d565b85856040518563ffffffff1660e01b81526004016110c794939291906129b6565b600060405180830381600087803b1580156110e157600080fd5b505af11580156110f5573d6000803e3d6000fd5b5050505050505050505050565b60008061110d61166d565b90507f000000000000000000000000000000000000000000000000000000000000000073ffffffffffffffffffffffffffffffffffffffff168173ffffffffffffffffffffffffffffffffffffffff16146111ac576040517f912efb3000000000000000000000000000000000000000000000000000000000815273ffffffffffffffffffffffffffffffffffffffff82166004820152602401610ff8565b6000806111bb85870187612a1e565b73ffffffffffffffffffffffffffffffffffffffff808c16600090815260208181526040808320938616835292815282822084835290522091935091506001899003611262578054889082906000906112279084906fffffffffffffffffffffffffffffffff16612761565b92506101000a8154816fffffffffffffffffffffffffffffffff02191690836fffffffffffffffffffffffffffffffff1602179055506112a4565b886002036109ac5780548890829060109061122790849070010000000000000000000000000000000090046fffffffffffffffffffffffffffffffff16612761565b60408051600180825281830190925260009160208083019080368337505060408051600180825281830190925292935060009291506020808301908036833750506040805160018082528183019092529293506000929150602082015b6040805180820190915260008082526020820152815260200190600190039081611301579050509050858360008151811061133e5761133e612469565b602002602001019073ffffffffffffffffffffffffffffffffffffffff16908173ffffffffffffffffffffffffffffffffffffffff1681525050848260008151811061138c5761138c612469565b6020908102919091018101919091526040805180820190915285546fffffffffffffffffffffffffffffffff80821683527001000000000000000000000000000000009091041691810191909152815182906000906113ed576113ed612469565b60200260200101819052508c73ffffffffffffffffffffffffffffffffffffffff167f0e66c6a6cd97f4ba167ce0fcd0c4ddc5a6bc715d604f363be7bc2f056945eae1848484604051611442939291906127f3565b60405180910390a2507ff23a6e61000000000000000000000000000000000000000000000000000000009d9c50505050505050505050505050565b61149861148861166d565b82611491611677565b91906117a6565b50565b6114a661038361166d565b828181146114e0576040517f6582533600000000000000000000000000000000000000000000000000000000815260040160405180910390fd5b60005b818110156115525761154a84848381811061150057611500612469565b9050602002013587878481811061151957611519612469565b905060200201602081019061152e919061210e565b73ffffffffffffffffffffffffffffffffffffffff16906118bb565b6001016114e3565b505050505050565b60008061035f60017fca9d3e17f264b0f3984e2634e94adb37fa3e6a8103f06aeae6fa59e21c769f5e6127a4565b60007c01000000000000000000000000000000000000000000000000000000007fffffffff000000000000000000000000000000000000000000000000000000008316016115d85750600061035f565b7ffe003659000000000000000000000000000000000000000000000000000000007fffffffff000000000000000000000000000000000000000000000000000000008316016116295750600161035f565b507fffffffff00000000000000000000000000000000000000000000000000000000166000908152602091909152604090205460ff1690565b366000610370611a15565b60006104a3611b7f565b60008061035f60017fc9ed16f33ab3a66c84bfd83099ccb2a8845871e2e1c1928f63797152f0fd54cd6127a4565b815473ffffffffffffffffffffffffffffffffffffffff828116911614611710576040517f2ef4875e00000000000000000000000000000000000000000000000000000000815273ffffffffffffffffffffffffffffffffffffffff82166004820152602401610ff8565b5050565b6040805173ffffffffffffffffffffffffffffffffffffffff8416602482015260448082018490528251808303909101815260649091019091526020810180517bffffffffffffffffffffffffffffffffffffffffffffffffffffffff167fa9059cbb000000000000000000000000000000000000000000000000000000001790526117a1908490611cc6565b505050565b825473ffffffffffffffffffffffffffffffffffffffff9081169083168114611813576040517f2ef4875e00000000000000000000000000000000000000000000000000000000815273ffffffffffffffffffffffffffffffffffffffff84166004820152602401610ff8565b8173ffffffffffffffffffffffffffffffffffffffff168173ffffffffffffffffffffffffffffffffffffffff16146118b55783547fffffffffffffffffffffffff00000000000000000000000000000000000000001673ffffffffffffffffffffffffffffffffffffffff8381169182178655604051908316907f8be0079c531659141344cd1fd0a4f28419497f9722a3daafe3b4186f6b6457e090600090a35b50505050565b80471015611925576040517f08c379a000000000000000000000000000000000000000000000000000000000815260206004820152601d60248201527f416464726573733a20696e73756666696369656e742062616c616e63650000006044820152606401610ff8565b60008273ffffffffffffffffffffffffffffffffffffffff168260405160006040518083038185875af1925050503d806000811461197f576040519150601f19603f3d011682016040523d82523d6000602084013e611984565b606091505b50509050806117a1576040517f08c379a000000000000000000000000000000000000000000000000000000000815260206004820152603a60248201527f416464726573733a20756e61626c6520746f2073656e642076616c75652c207260448201527f6563697069656e74206d617920686176652072657665727465640000000000006064820152608401610ff8565b36600033321480611a265750601836105b15611a345750600091369150565b3373ffffffffffffffffffffffffffffffffffffffff7f0000000000000000000000000000000000000000000000000000000000000000161480611b69575073ffffffffffffffffffffffffffffffffffffffff7f000000000000000000000000000000000000000000000000000000000000000016638929a8ca367fffffffffffffffffffffffffffffffffffffffffffffffffffffffffffffffec013560601c6040517fffffffff0000000000000000000000000000000000000000000000000000000060e084901b16815273ffffffffffffffffffffffffffffffffffffffff9091166004820152336024820152604401602060405180830381865afa158015611b45573d6000803e3d6000fd5b505050506040513d601f19601f82011682018060405250810190611b699190612a4a565b15611b7657610370611dd5565b50600091369150565b600033321480611b8f5750601836105b15611b9957503390565b7fffffffffffffffffffffffffffffffffffffffffffffffffffffffffffffffec36013560601c7f000000000000000000000000000000000000000000000000000000000000000073ffffffffffffffffffffffffffffffffffffffff16331480611cb557506040517f8929a8ca00000000000000000000000000000000000000000000000000000000815273ffffffffffffffffffffffffffffffffffffffff82811660048301523360248301527f00000000000000000000000000000000000000000000000000000000000000001690638929a8ca90604401602060405180830381865afa158015611c91573d6000803e3d6000fd5b505050506040513d601f19601f82011682018060405250810190611cb59190612a4a565b15611cbf57919050565b3391505090565b6000611d28826040518060400160405280602081526020017f5361666545524332303a206c6f772d6c6576656c2063616c6c206661696c65648152508573ffffffffffffffffffffffffffffffffffffffff16611e069092919063ffffffff16565b9050805160001480611d49575080806020019051810190611d499190612a4a565b6117a1576040517f08c379a000000000000000000000000000000000000000000000000000000000815260206004820152602a60248201527f5361666545524332303a204552433230206f7065726174696f6e20646964206e60448201527f6f742073756363656564000000000000000000000000000000000000000000006064820152608401610ff8565b3660006103707fffffffffffffffffffffffffffffffffffffffffffffffffffffffffffffffec8301828481612a6c565b6060611e158484600085611e1d565b949350505050565b606082471015611eaf576040517f08c379a000000000000000000000000000000000000000000000000000000000815260206004820152602660248201527f416464726573733a20696e73756666696369656e742062616c616e636520666f60448201527f722063616c6c00000000000000000000000000000000000000000000000000006064820152608401610ff8565b6000808673ffffffffffffffffffffffffffffffffffffffff168587604051611ed89190612a96565b60006040518083038185875af1925050503d8060008114611f15576040519150601f19603f3d011682016040523d82523d6000602084013e611f1a565b606091505b5091509150611f2b87838387611f36565b979650505050505050565b60608315611fcc578251600003611fc55773ffffffffffffffffffffffffffffffffffffffff85163b611fc5576040517f08c379a000000000000000000000000000000000000000000000000000000000815260206004820152601d60248201527f416464726573733a2063616c6c20746f206e6f6e2d636f6e74726163740000006044820152606401610ff8565b5081611e15565b611e158383815115611fe15781518083602001fd5b806040517f08c379a0000000000000000000000000000000000000000000000000000000008152600401610ff89190612380565b60006020828403121561202757600080fd5b81357fffffffff000000000000000000000000000000000000000000000000000000008116811461205757600080fd5b9392505050565b60208152816020820152818360408301376000818301604090810191909152601f9092017fffffffffffffffffffffffffffffffffffffffffffffffffffffffffffffffe0160101919050565b73ffffffffffffffffffffffffffffffffffffffff8116811461149857600080fd5b6000806000606084860312156120e257600080fd5b83356120ed816120ab565b925060208401356120fd816120ab565b929592945050506040919091013590565b60006020828403121561212057600080fd5b8135612057816120ab565b60008083601f84011261213d57600080fd5b50813567ffffffffffffffff81111561215557600080fd5b6020830191508360208260051b850101111561217057600080fd5b9250929050565b6000806000806000806060878903121561219057600080fd5b863567ffffffffffffffff808211156121a857600080fd5b6121b48a838b0161212b565b909850965060208901359150808211156121cd57600080fd5b6121d98a838b0161212b565b909650945060408901359150808211156121f257600080fd5b506121ff89828a0161212b565b979a9699509497509295939492505050565b60008083601f84011261222357600080fd5b50813567ffffffffffffffff81111561223b57600080fd5b60208301915083602082850101111561217057600080fd5b60008060008060008060008060a0898b03121561226f57600080fd5b883561227a816120ab565b9750602089013561228a816120ab565b9650604089013567ffffffffffffffff808211156122a757600080fd5b6122b38c838d0161212b565b909850965060608b01359150808211156122cc57600080fd5b6122d88c838d0161212b565b909650945060808b01359150808211156122f157600080fd5b506122fe8b828c01612211565b999c989b5096995094979396929594505050565b60005b8381101561232d578181015183820152602001612315565b50506000910152565b6000815180845261234e816020860160208601612312565b601f017fffffffffffffffffffffffffffffffffffffffffffffffffffffffffffffffe0169290920160200192915050565b6020815260006120576020830184612336565b600080600080604085870312156123a957600080fd5b843567ffffffffffffffff808211156123c157600080fd5b6123cd8883890161212b565b909650945060208701359150808211156123e657600080fd5b506123f38782880161212b565b95989497509550505050565b60008060008060008060a0878903121561241857600080fd5b8635612423816120ab565b95506020870135612433816120ab565b94506040870135935060608701359250608087013567ffffffffffffffff81111561245d57600080fd5b6121ff89828a01612211565b7f4e487b7100000000000000000000000000000000000000000000000000000000600052603260045260246000fd5b7f4e487b7100000000000000000000000000000000000000000000000000000000600052604160045260246000fd5b604051601f82017fffffffffffffffffffffffffffffffffffffffffffffffffffffffffffffffe016810167ffffffffffffffff8111828210171561250e5761250e612498565b604052919050565b600067ffffffffffffffff82111561253057612530612498565b5060051b60200190565b600082601f83011261254b57600080fd5b8135602061256061255b83612516565b6124c7565b8083825260208201915060208460051b87010193508684111561258257600080fd5b602086015b8481101561259e5780358352918301918301612587565b509695505050505050565b600082601f8301126125ba57600080fd5b813560206125ca61255b83612516565b8083825260208201915060208460051b8701019350868411156125ec57600080fd5b602086015b8481101561259e5780356fffffffffffffffffffffffffffffffff8116811461261a5760008081fd5b83529183019183016125f1565b6000806000806080858703121561263d57600080fd5b843567ffffffffffffffff8082111561265557600080fd5b818701915087601f83011261266957600080fd5b8135602061267961255b83612516565b82815260059290921b8401810191818101908b84111561269857600080fd5b948201945b838610156126bf5785356126b0816120ab565b8252948201949082019061269d565b985050880135925050808211156126d557600080fd5b6126e18883890161253a565b945060408701359150808211156126f757600080fd5b612703888389016125a9565b9350606087013591508082111561271957600080fd5b50612726878288016125a9565b91505092959194509250565b7f4e487b7100000000000000000000000000000000000000000000000000000000600052601160045260246000fd5b6fffffffffffffffffffffffffffffffff81811683821601908082111561278a5761278a612732565b5092915050565b8082018082111561035f5761035f612732565b8181038181111561035f5761035f612732565b60008151808452602080850194506020840160005b838110156127e8578151875295820195908201906001016127cc565b509495945050505050565b606080825284519082018190526000906020906080840190828801845b8281101561284257815173ffffffffffffffffffffffffffffffffffffffff1684529284019290840190600101612810565b5050508381038285015261285681876127b7565b9050604084820360408601528186518084528484019150848801935060005b818110156128b057845180516fffffffffffffffffffffffffffffffff90811685529087015116868401529385019391830191600101612875565b50909998505050505050505050565b600181811c908216806128d357607f821691505b60208210810361290c577f4e487b7100000000000000000000000000000000000000000000000000000000600052602260045260246000fd5b50919050565b6040808252810184905260008560608301825b87811015612962578235612938816120ab565b73ffffffffffffffffffffffffffffffffffffffff16825260209283019290910190600101612925565b5083810360208501528481527f07ffffffffffffffffffffffffffffffffffffffffffffffffffffffffffffff85111561299b57600080fd5b8460051b915081866020830137016020019695505050505050565b600073ffffffffffffffffffffffffffffffffffffffff808716835280861660208401525060a060408301526129ef60a08301856127b7565b8281036060840152612a0181856127b7565b838103608090940193909352505060008152602001949350505050565b60008060408385031215612a3157600080fd5b8235612a3c816120ab565b946020939093013593505050565b600060208284031215612a5c57600080fd5b8151801515811461205757600080fd5b60008085851115612a7c57600080fd5b83861115612a8957600080fd5b5050820193919092039150565b60008251612aa8818460208701612312565b919091019291505056fea2646970667358221220af3a2b0ea452c0c2cf6bea04c4f195a5685ba0bee76a0895ac30da30198e4a8264736f6c63430008160033",
  "linkReferences": {},
  "deployedLinkReferences": {}
}