{
  "_format": "hh-sol-artifact-1",
  "contractName": "EDuCoinMerkleClaim",
  "sourceName": "contracts/payment/EDuCoinMerkleClaim.sol",
  "abi": [
    {
      "inputs": [
        {
          "internalType": "contract IERC20SafeTransfers",
          "name": "erc20_",
          "type": "address"
        },
        {
          "internalType": "address",
          "name": "messageSigner_",
          "type": "address"
        },
        {
          "internalType": "contract IForwarderRegistry",
          "name": "forwarderRegistry_",
          "type": "address"
        }
      ],
      "stateMutability": "nonpayable",
      "type": "constructor"
    },
    {
      "inputs": [
        {
          "internalType": "address",
          "name": "recipient",
          "type": "address"
        },
        {
          "internalType": "uint256",
          "name": "amount",
          "type": "uint256"
        },
        {
          "internalType": "uint256",
          "name": "nonce",
          "type": "uint256"
        }
      ],
      "name": "AlreadyClaimed",
      "type": "error"
    },
    {
      "inputs": [
        {
          "internalType": "address",
          "name": "recipient",
          "type": "address"
        },
        {
          "internalType": "bytes",
          "name": "signature",
          "type": "bytes"
        },
        {
          "internalType": "uint256",
          "name": "expireAt",
          "type": "uint256"
        }
      ],
      "name": "ExpiredSignature",
      "type": "error"
    },
    {
      "inputs": [],
      "name": "IllegalInterfaceId",
      "type": "error"
    },
    {
      "inputs": [
        {
          "internalType": "address",
          "name": "recipient",
          "type": "address"
        },
        {
          "internalType": "uint256",
          "name": "amount",
          "type": "uint256"
        },
        {
          "internalType": "uint256",
          "name": "nonce",
          "type": "uint256"
        }
      ],
      "name": "InvalidProof",
      "type": "error"
    },
    {
      "inputs": [
        {
          "internalType": "address",
          "name": "recipient",
          "type": "address"
        },
        {
          "internalType": "bytes",
          "name": "signature",
          "type": "bytes"
        },
        {
          "internalType": "uint256",
          "name": "expireAt",
          "type": "uint256"
        }
      ],
      "name": "InvalidSignature",
      "type": "error"
    },
    {
      "inputs": [
        {
          "internalType": "address",
          "name": "account",
          "type": "address"
        }
      ],
      "name": "NotContractOwner",
      "type": "error"
    },
    {
      "inputs": [],
      "name": "NotPaused",
      "type": "error"
    },
    {
      "inputs": [],
      "name": "Paused",
      "type": "error"
    },
    {
      "anonymous": false,
      "inputs": [
        {
          "indexed": false,
          "internalType": "bytes32",
          "name": "root",
          "type": "bytes32"
        }
      ],
      "name": "MerkleRootSet",
      "type": "event"
    },
    {
      "anonymous": false,
      "inputs": [
        {
          "indexed": false,
          "internalType": "address",
          "name": "messageSigner",
          "type": "address"
        }
      ],
      "name": "MessageSignerSet",
      "type": "event"
    },
    {
      "anonymous": false,
      "inputs": [
        {
          "indexed": true,
          "internalType": "address",
          "name": "previousOwner",
          "type": "address"
        },
        {
          "indexed": true,
          "internalType": "address",
          "name": "newOwner",
          "type": "address"
        }
      ],
      "name": "OwnershipTransferred",
      "type": "event"
    },
    {
      "anonymous": false,
      "inputs": [],
      "name": "Pause",
      "type": "event"
    },
    {
      "anonymous": false,
      "inputs": [
        {
          "indexed": true,
          "internalType": "bytes32",
          "name": "root",
          "type": "bytes32"
        },
        {
          "indexed": true,
          "internalType": "address",
          "name": "recipient",
          "type": "address"
        },
        {
          "indexed": false,
          "internalType": "uint256",
          "name": "amount",
          "type": "uint256"
        },
        {
          "indexed": false,
          "internalType": "uint256",
          "name": "nonce",
          "type": "uint256"
        }
      ],
      "name": "PayoutClaimed",
      "type": "event"
    },
    {
      "anonymous": false,
      "inputs": [],
      "name": "Unpause",
      "type": "event"
    },
    {
      "inputs": [],
      "name": "ERC20",
      "outputs": [
        {
          "internalType": "contract IERC20SafeTransfers",
          "name": "",
          "type": "address"
        }
      ],
      "stateMutability": "view",
      "type": "function"
    },
    {
      "inputs": [
        {
          "internalType": "address",
          "name": "recipient",
          "type": "address"
        },
        {
          "internalType": "uint256",
          "name": "amount",
          "type": "uint256"
        },
        {
          "internalType": "bytes32[]",
          "name": "proof",
          "type": "bytes32[]"
        },
        {
          "internalType": "bytes",
          "name": "signature",
          "type": "bytes"
        },
        {
          "internalType": "uint256",
          "name": "expireAt",
          "type": "uint256"
        }
      ],
      "name": "claimPayout",
      "outputs": [],
      "stateMutability": "nonpayable",
      "type": "function"
    },
    {
      "inputs": [
        {
          "internalType": "bytes32",
          "name": "",
          "type": "bytes32"
        }
      ],
      "name": "claimed",
      "outputs": [
        {
          "internalType": "bool",
          "name": "",
          "type": "bool"
        }
      ],
      "stateMutability": "view",
      "type": "function"
    },
    {
      "inputs": [],
      "name": "forwarderRegistry",
      "outputs": [
        {
          "internalType": "contract IForwarderRegistry",
          "name": "",
          "type": "address"
        }
      ],
      "stateMutability": "view",
      "type": "function"
    },
    {
      "inputs": [
        {
          "internalType": "address",
          "name": "forwarder",
          "type": "address"
        }
      ],
      "name": "isTrustedForwarder",
      "outputs": [
        {
          "internalType": "bool",
          "name": "",
          "type": "bool"
        }
      ],
      "stateMutability": "view",
      "type": "function"
    },
    {
      "inputs": [],
      "name": "messageSigner",
      "outputs": [
        {
          "internalType": "address",
          "name": "",
          "type": "address"
        }
      ],
      "stateMutability": "view",
      "type": "function"
    },
    {
      "inputs": [],
      "name": "nonce",
      "outputs": [
        {
          "internalType": "uint256",
          "name": "",
          "type": "uint256"
        }
      ],
      "stateMutability": "view",
      "type": "function"
    },
    {
      "inputs": [],
      "name": "owner",
      "outputs": [
        {
          "internalType": "address",
          "name": "",
          "type": "address"
        }
      ],
      "stateMutability": "view",
      "type": "function"
    },
    {
      "inputs": [],
      "name": "pause",
      "outputs": [],
      "stateMutability": "nonpayable",
      "type": "function"
    },
    {
      "inputs": [],
      "name": "paused",
      "outputs": [
        {
          "internalType": "bool",
          "name": "",
          "type": "bool"
        }
      ],
      "stateMutability": "view",
      "type": "function"
    },
    {
      "inputs": [],
      "name": "root",
      "outputs": [
        {
          "internalType": "bytes32",
          "name": "",
          "type": "bytes32"
        }
      ],
      "stateMutability": "view",
      "type": "function"
    },
    {
      "inputs": [
        {
          "internalType": "bytes32",
          "name": "merkleRoot",
          "type": "bytes32"
        }
      ],
      "name": "setMerkleRoot",
      "outputs": [],
      "stateMutability": "nonpayable",
      "type": "function"
    },
    {
      "inputs": [
        {
          "internalType": "address",
          "name": "messageSigner_",
          "type": "address"
        }
      ],
      "name": "setMessageSigner",
      "outputs": [],
      "stateMutability": "nonpayable",
      "type": "function"
    },
    {
      "inputs": [
        {
          "internalType": "bytes4",
          "name": "interfaceId",
          "type": "bytes4"
        }
      ],
      "name": "supportsInterface",
      "outputs": [
        {
          "internalType": "bool",
          "name": "",
          "type": "bool"
        }
      ],
      "stateMutability": "view",
      "type": "function"
    },
    {
      "inputs": [
        {
          "internalType": "address",
          "name": "newOwner",
          "type": "address"
        }
      ],
      "name": "transferOwnership",
      "outputs": [],
      "stateMutability": "nonpayable",
      "type": "function"
    },
    {
      "inputs": [],
      "name": "unpause",
      "outputs": [],
      "stateMutability": "nonpayable",
      "type": "function"
    }
  ],
  "bytecode": "0x60c06040523480156200001157600080fd5b50604051620019dc380380620019dc833981016040819052620000349162000372565b8080600162000042620000d7565b620000588162000051620000e8565b906200011e565b506200006f816200006862000199565b90620001c9565b506001600160a01b0390811660805284811660a052600080546001600160a01b03191691851691821790556040519081527f66b8dbbd7f4a59921c0e0f594b6fb8434e778851611f323b7c3d00d07a74b120915060200160405180910390a150505062000413565b6000620000e362000208565b905090565b6000806200011860017fc9ed16f33ab3a66c84bfd83099ccb2a8845871e2e1c1928f63797152f0fd54cd620003c6565b92915050565b6001600160a01b03811615620001755781546001600160a01b0319166001600160a01b03821690811783556040516000907f8be0079c531659141344cd1fd0a4f28419497f9722a3daafe3b4186f6b6457e0908290a35b620001956307f5828d60e41b60016200018d620002cc565b9190620002fc565b5050565b6000806200011860017f0186a05f63b1553398ad5ea3233c0ce68b8c9eecc47717f123c5c2b42fbd6d9f620003c6565b80156200019557815460ff191660011782556040517f6985a02210a168e66602d3235cb6db0e70f92b3ba4d376a33c0f3d9434bff62590600090a15050565b600033321480620002195750601836105b156200022457503390565b60805136601319013560601c906001600160a01b0316331480620002ba5750608051604051634494d46560e11b81526001600160a01b03838116600483015233602483015290911690638929a8ca90604401602060405180830381865afa15801562000294573d6000803e3d6000fd5b505050506040513d601f19601f82011682018060405250810190620002ba9190620003e8565b15620002c557919050565b3391505090565b6000806200011860017fca9d3e17f264b0f3984e2634e94adb37fa3e6a8103f06aeae6fa59e21c769f5e620003c6565b600160e01b6001600160e01b03198316016200032b576040516372c683bb60e01b815260040160405180910390fd5b6001600160e01b03199190911660009081526020929092526040909120805460ff1916911515919091179055565b6001600160a01b03811681146200036f57600080fd5b50565b6000806000606084860312156200038857600080fd5b8351620003958162000359565b6020850151909350620003a88162000359565b6040850151909250620003bb8162000359565b809150509250925092565b818103818111156200011857634e487b7160e01b600052601160045260246000fd5b600060208284031215620003fb57600080fd5b815180151581146200040c57600080fd5b9392505050565b60805160a051611587620004556000396000818161026c01526107ce015260008181610174015281816101c501528181610d460152610dce01526115876000f3fe608060405234801561001057600080fd5b50600436106101005760003560e01c80638456cb5911610097578063cc4aa20411610066578063cc4aa20414610267578063ebf0c7171461028e578063f2fde38b14610297578063f5276d82146102aa57600080fd5b80638456cb591461021d5780638da5cb5b14610225578063affed0e01461022d578063cc3c0f061461024457600080fd5b80634b36df53116100d35780634b36df53146101a2578063572b6c05146101b55780635c975abb146102025780637cb647591461020a57600080fd5b806301ffc9a714610105578063080387b41461012d5780632b4c9f16146101725780633f4ba83a14610198575b600080fd5b6101186101133660046111e0565b6102bd565b60405190151581526020015b60405180910390f35b60005461014d9073ffffffffffffffffffffffffffffffffffffffff1681565b60405173ffffffffffffffffffffffffffffffffffffffff9091168152602001610124565b7f000000000000000000000000000000000000000000000000000000000000000061014d565b6101a06102d7565b005b6101a06101b036600461124b565b610302565b6101186101c336600461124b565b7f000000000000000000000000000000000000000000000000000000000000000073ffffffffffffffffffffffffffffffffffffffff90811691161490565b610118610387565b6101a0610218366004611266565b6103a0565b6101a06103f4565b61014d61040f565b61023660025481565b604051908152602001610124565b610118610252366004611266565b60036020526000908152604090205460ff1681565b61014d7f000000000000000000000000000000000000000000000000000000000000000081565b61023660015481565b6101a06102a536600461124b565b610436565b6101a06102b83660046112c1565b610454565b60006102d1826102cb6108ad565b906108db565b92915050565b6102f06102e26109b5565b6102ea6109bf565b906109ed565b6103006102fb610a5c565b610a8a565b565b61030d6102e26109b5565b600080547fffffffffffffffffffffffff00000000000000000000000000000000000000001673ffffffffffffffffffffffffffffffffffffffff83169081179091556040519081527f66b8dbbd7f4a59921c0e0f594b6fb8434e778851611f323b7c3d00d07a74b120906020015b60405180910390a150565b600061039b610394610a5c565b5460ff1690565b905090565b6103ab6102e26109b5565b6103b66102fb610a5c565b60018181556002805490910190556040518181527f42cbc405e4dbf1b691e85b9a34b08ecfcf7a9ad9078bf4d645ccfa1fac11c10b9060200161037c565b6103ff6102e26109b5565b61030061040a610a5c565b610ae5565b600061039b61041c6109bf565b5473ffffffffffffffffffffffffffffffffffffffff1690565b6104516104416109b5565b8261044a6109bf565b9190610b43565b50565b61046461045f610a5c565b610c58565b6002546001544283116104b457888585856040517f86f1d6f80000000000000000000000000000000000000000000000000000000081526004016104ab9493929190611385565b60405180910390fd5b6040517fffffffffffffffffffffffffffffffffffffffff00000000000000000000000030606090811b821660208401528b901b16603482015260488101849052600090606801604080517fffffffffffffffffffffffffffffffffffffffffffffffffffffffffffffffe08184030181528282528051602091820120600054601f8a01839004830285018301909352888452935073ffffffffffffffffffffffffffffffffffffffff9091169161059291899089908190840183828082843760009201919091525061058c9250869150610c949050565b90610cc7565b73ffffffffffffffffffffffffffffffffffffffff16146105e757898686866040517f860713f90000000000000000000000000000000000000000000000000000000081526004016104ab9493929190611385565b6040517fffffffffffffffffffffffffffffffffffffffff00000000000000000000000060608c901b166020820152603481018a905260548101849052600090607401604080517fffffffffffffffffffffffffffffffffffffffffffffffffffffffffffffffe081840301815291815281516020928301206000818152600390935291205490915060ff16156106d0576040517f6508823200000000000000000000000000000000000000000000000000000000815273ffffffffffffffffffffffffffffffffffffffff8c166004820152602481018b9052604481018590526064016104ab565b6106dc89898584610ceb565b610738576040517f3c6ee01b00000000000000000000000000000000000000000000000000000000815273ffffffffffffffffffffffffffffffffffffffff8c166004820152602481018b9052604481018590526064016104ab565b6000818152600360205260409081902080547fffffffffffffffffffffffffffffffffffffffffffffffffffffffffffffff001660011790555173ffffffffffffffffffffffffffffffffffffffff8c169084907fa68c079189004e3175c636199e3e4d2aae420ce461ed29f670552b3eba9d2a03906107c4908e908990918252602082015260400190565b60405180910390a37f000000000000000000000000000000000000000000000000000000000000000073ffffffffffffffffffffffffffffffffffffffff1663b88d4fde61081061040f565b604080516000815260208101918290527fffffffff0000000000000000000000000000000000000000000000000000000060e085901b1690915261085c91908f908f90602481016113f9565b6020604051808303816000875af115801561087b573d6000803e3d6000fd5b505050506040513d601f19601f8201168201806040525081019061089f9190611497565b505050505050505050505050565b6000806102d160017fca9d3e17f264b0f3984e2634e94adb37fa3e6a8103f06aeae6fa59e21c769f5e6114b9565b60007c01000000000000000000000000000000000000000000000000000000007fffffffff0000000000000000000000000000000000000000000000000000000083160161092b575060006102d1565b7ffe003659000000000000000000000000000000000000000000000000000000007fffffffff0000000000000000000000000000000000000000000000000000000083160161097c575060016102d1565b507fffffffff00000000000000000000000000000000000000000000000000000000166000908152602091909152604090205460ff1690565b600061039b610d03565b6000806102d160017fc9ed16f33ab3a66c84bfd83099ccb2a8845871e2e1c1928f63797152f0fd54cd6114b9565b815473ffffffffffffffffffffffffffffffffffffffff828116911614610a58576040517f2ef4875e00000000000000000000000000000000000000000000000000000000815273ffffffffffffffffffffffffffffffffffffffff821660048201526024016104ab565b5050565b6000806102d160017f0186a05f63b1553398ad5ea3233c0ce68b8c9eecc47717f123c5c2b42fbd6d9f6114b9565b610a9381610e4a565b80547fffffffffffffffffffffffffffffffffffffffffffffffffffffffffffffff001681556040517f7805862f689e2f13df9f062ff482ad3ad112aca9e0847911ed832e158c525b3390600090a150565b610aee81610c58565b80547fffffffffffffffffffffffffffffffffffffffffffffffffffffffffffffff001660011781556040517f6985a02210a168e66602d3235cb6db0e70f92b3ba4d376a33c0f3d9434bff62590600090a150565b825473ffffffffffffffffffffffffffffffffffffffff9081169083168114610bb0576040517f2ef4875e00000000000000000000000000000000000000000000000000000000815273ffffffffffffffffffffffffffffffffffffffff841660048201526024016104ab565b8173ffffffffffffffffffffffffffffffffffffffff168173ffffffffffffffffffffffffffffffffffffffff1614610c525783547fffffffffffffffffffffffff00000000000000000000000000000000000000001673ffffffffffffffffffffffffffffffffffffffff8381169182178655604051908316907f8be0079c531659141344cd1fd0a4f28419497f9722a3daafe3b4186f6b6457e090600090a35b50505050565b805460ff1615610451576040517f9e87fac800000000000000000000000000000000000000000000000000000000815260040160405180910390fd5b7f19457468657265756d205369676e6564204d6573736167653a0a3332000000006000908152601c91909152603c902090565b6000806000610cd68585610e85565b91509150610ce381610eca565b509392505050565b600082610cf986868561107d565b1495945050505050565b600033321480610d135750601836105b15610d1d57503390565b7fffffffffffffffffffffffffffffffffffffffffffffffffffffffffffffffec36013560601c7f000000000000000000000000000000000000000000000000000000000000000073ffffffffffffffffffffffffffffffffffffffff16331480610e3957506040517f8929a8ca00000000000000000000000000000000000000000000000000000000815273ffffffffffffffffffffffffffffffffffffffff82811660048301523360248301527f00000000000000000000000000000000000000000000000000000000000000001690638929a8ca90604401602060405180830381865afa158015610e15573d6000803e3d6000fd5b505050506040513d601f19601f82011682018060405250810190610e399190611497565b15610e4357919050565b3391505090565b805460ff16610451576040517f6cd6020100000000000000000000000000000000000000000000000000000000815260040160405180910390fd5b6000808251604103610ebb5760208301516040840151606085015160001a610eaf878285856110bf565b94509450505050610ec3565b506000905060025b9250929050565b6000816004811115610ede57610ede6114f3565b03610ee65750565b6001816004811115610efa57610efa6114f3565b03610f61576040517f08c379a000000000000000000000000000000000000000000000000000000000815260206004820152601860248201527f45434453413a20696e76616c6964207369676e6174757265000000000000000060448201526064016104ab565b6002816004811115610f7557610f756114f3565b03610fdc576040517f08c379a000000000000000000000000000000000000000000000000000000000815260206004820152601f60248201527f45434453413a20696e76616c6964207369676e6174757265206c656e6774680060448201526064016104ab565b6003816004811115610ff057610ff06114f3565b03610451576040517f08c379a000000000000000000000000000000000000000000000000000000000815260206004820152602260248201527f45434453413a20696e76616c6964207369676e6174757265202773272076616c60448201527f756500000000000000000000000000000000000000000000000000000000000060648201526084016104ab565b600081815b848110156110b6576110ac828787848181106110a0576110a0611522565b905060200201356111ae565b9150600101611082565b50949350505050565b6000807f7fffffffffffffffffffffffffffffff5d576e7357a4501ddfe92f46681b20a08311156110f657506000905060036111a5565b6040805160008082526020820180845289905260ff881692820192909252606081018690526080810185905260019060a0016020604051602081039080840390855afa15801561114a573d6000803e3d6000fd5b50506040517fffffffffffffffffffffffffffffffffffffffffffffffffffffffffffffffe0015191505073ffffffffffffffffffffffffffffffffffffffff811661119e576000600192509250506111a5565b9150600090505b94509492505050565b60008183106111ca5760008281526020849052604090206111d9565b60008381526020839052604090205b9392505050565b6000602082840312156111f257600080fd5b81357fffffffff00000000000000000000000000000000000000000000000000000000811681146111d957600080fd5b803573ffffffffffffffffffffffffffffffffffffffff8116811461124657600080fd5b919050565b60006020828403121561125d57600080fd5b6111d982611222565b60006020828403121561127857600080fd5b5035919050565b60008083601f84011261129157600080fd5b50813567ffffffffffffffff8111156112a957600080fd5b602083019150836020828501011115610ec357600080fd5b600080600080600080600060a0888a0312156112dc57600080fd5b6112e588611222565b965060208801359550604088013567ffffffffffffffff8082111561130957600080fd5b818a0191508a601f83011261131d57600080fd5b81358181111561132c57600080fd5b8b60208260051b850101111561134157600080fd5b6020830197508096505060608a013591508082111561135f57600080fd5b5061136c8a828b0161127f565b989b979a50959894979596608090950135949350505050565b73ffffffffffffffffffffffffffffffffffffffff851681526060602082015282606082015282846080830137600060808483010152600060807fffffffffffffffffffffffffffffffffffffffffffffffffffffffffffffffe0601f860116830101905082604083015295945050505050565b600073ffffffffffffffffffffffffffffffffffffffff808716835260208187166020850152856040850152608060608501528451915081608085015260005b828110156114555785810182015185820160a001528101611439565b5050600060a0828501015260a07fffffffffffffffffffffffffffffffffffffffffffffffffffffffffffffffe0601f83011684010191505095945050505050565b6000602082840312156114a957600080fd5b815180151581146111d957600080fd5b818103818111156102d1577f4e487b7100000000000000000000000000000000000000000000000000000000600052601160045260246000fd5b7f4e487b7100000000000000000000000000000000000000000000000000000000600052602160045260246000fd5b7f4e487b7100000000000000000000000000000000000000000000000000000000600052603260045260246000fdfea2646970667358221220b37294143fa7217e1ccbd3aca554d50307abeab9d8276d959b91e40bd5286c5164736f6c63430008160033",
  "linkReferences": {},
  "deployedLinkReferences": {}
}