{
  "_format": "hh-sol-artifact-1",
  "contractName": "EDuCoinMerkleClaim",
  "sourceName": "contracts/payment/EDuCoinMerkleClaim.sol",
  "abi": [
    {
      "inputs": [
        {
          "internalType": "contract IERC20",
          "name": "erc20_",
          "type": "address"
        },
        {
          "internalType": "address",
          "name": "messageSigner_",
          "type": "address"
        },
        {
          "internalType": "address",
          "name": "tokenHolder_",
          "type": "address"
        },
        {
          "internalType": "contract IForwarderRegistry",
          "name": "forwarderRegistry_",
          "type": "address"
        }
      ],
      "stateMutability": "nonpayable",
      "type": "constructor"
    },
    {
      "inputs": [
        {
          "internalType": "address",
          "name": "recipient",
          "type": "address"
        },
        {
          "internalType": "uint256",
          "name": "amount",
          "type": "uint256"
        },
        {
          "internalType": "uint256",
          "name": "treeCounter",
          "type": "uint256"
        }
      ],
      "name": "AlreadyClaimed",
      "type": "error"
    },
    {
      "inputs": [
        {
          "internalType": "address",
          "name": "recipient",
          "type": "address"
        },
        {
          "internalType": "bytes",
          "name": "signature",
          "type": "bytes"
        },
        {
          "internalType": "uint256",
          "name": "expireAt",
          "type": "uint256"
        }
      ],
      "name": "ExpiredSignature",
      "type": "error"
    },
    {
      "inputs": [],
      "name": "IllegalInterfaceId",
      "type": "error"
    },
    {
      "inputs": [],
      "name": "InconsistentArrayLengths",
      "type": "error"
    },
    {
      "inputs": [
        {
          "internalType": "address",
          "name": "recipient",
          "type": "address"
        },
        {
          "internalType": "uint256",
          "name": "amount",
          "type": "uint256"
        },
        {
          "internalType": "uint256",
          "name": "treeCounter",
          "type": "uint256"
        }
      ],
      "name": "InvalidProof",
      "type": "error"
    },
    {
      "inputs": [
        {
          "internalType": "address",
          "name": "recipient",
          "type": "address"
        },
        {
          "internalType": "bytes",
          "name": "signature",
          "type": "bytes"
        },
        {
          "internalType": "uint256",
          "name": "expireAt",
          "type": "uint256"
        }
      ],
      "name": "InvalidSignature",
      "type": "error"
    },
    {
      "inputs": [
        {
          "internalType": "address",
          "name": "account",
          "type": "address"
        }
      ],
      "name": "NotContractOwner",
      "type": "error"
    },
    {
      "inputs": [],
      "name": "NotPaused",
      "type": "error"
    },
    {
      "inputs": [],
      "name": "Paused",
      "type": "error"
    },
    {
      "anonymous": false,
      "inputs": [
        {
          "indexed": false,
          "internalType": "bytes32",
          "name": "root",
          "type": "bytes32"
        }
      ],
      "name": "MerkleRootSet",
      "type": "event"
    },
    {
      "anonymous": false,
      "inputs": [
        {
          "indexed": false,
          "internalType": "address",
          "name": "messageSigner",
          "type": "address"
        }
      ],
      "name": "MessageSignerSet",
      "type": "event"
    },
    {
      "anonymous": false,
      "inputs": [
        {
          "indexed": true,
          "internalType": "address",
          "name": "previousOwner",
          "type": "address"
        },
        {
          "indexed": true,
          "internalType": "address",
          "name": "newOwner",
          "type": "address"
        }
      ],
      "name": "OwnershipTransferred",
      "type": "event"
    },
    {
      "anonymous": false,
      "inputs": [],
      "name": "Pause",
      "type": "event"
    },
    {
      "anonymous": false,
      "inputs": [
        {
          "indexed": true,
          "internalType": "bytes32",
          "name": "root",
          "type": "bytes32"
        },
        {
          "indexed": true,
          "internalType": "address",
          "name": "recipient",
          "type": "address"
        },
        {
          "indexed": false,
          "internalType": "uint256",
          "name": "amount",
          "type": "uint256"
        },
        {
          "indexed": false,
          "internalType": "uint256",
          "name": "treeCounter",
          "type": "uint256"
        }
      ],
      "name": "PayoutClaimed",
      "type": "event"
    },
    {
      "anonymous": false,
      "inputs": [
        {
          "indexed": false,
          "internalType": "address",
          "name": "tokenHolder",
          "type": "address"
        }
      ],
      "name": "TokenHolderSet",
      "type": "event"
    },
    {
      "anonymous": false,
      "inputs": [],
      "name": "Unpause",
      "type": "event"
    },
    {
      "inputs": [],
      "name": "ERC20",
      "outputs": [
        {
          "internalType": "contract IERC20",
          "name": "",
          "type": "address"
        }
      ],
      "stateMutability": "view",
      "type": "function"
    },
    {
      "inputs": [
        {
          "internalType": "address",
          "name": "recipient",
          "type": "address"
        },
        {
          "internalType": "uint256",
          "name": "amount",
          "type": "uint256"
        },
        {
          "internalType": "bytes32[]",
          "name": "proof",
          "type": "bytes32[]"
        },
        {
          "internalType": "bytes",
          "name": "signature",
          "type": "bytes"
        },
        {
          "internalType": "uint256",
          "name": "expireAt",
          "type": "uint256"
        }
      ],
      "name": "claimPayout",
      "outputs": [],
      "stateMutability": "nonpayable",
      "type": "function"
    },
    {
      "inputs": [
        {
          "internalType": "bytes32",
          "name": "",
          "type": "bytes32"
        }
      ],
      "name": "claimed",
      "outputs": [
        {
          "internalType": "bool",
          "name": "",
          "type": "bool"
        }
      ],
      "stateMutability": "view",
      "type": "function"
    },
    {
      "inputs": [],
      "name": "forwarderRegistry",
      "outputs": [
        {
          "internalType": "contract IForwarderRegistry",
          "name": "",
          "type": "address"
        }
      ],
      "stateMutability": "view",
      "type": "function"
    },
    {
      "inputs": [
        {
          "internalType": "address",
          "name": "forwarder",
          "type": "address"
        }
      ],
      "name": "isTrustedForwarder",
      "outputs": [
        {
          "internalType": "bool",
          "name": "",
          "type": "bool"
        }
      ],
      "stateMutability": "view",
      "type": "function"
    },
    {
      "inputs": [],
      "name": "messageSigner",
      "outputs": [
        {
          "internalType": "address",
          "name": "",
          "type": "address"
        }
      ],
      "stateMutability": "view",
      "type": "function"
    },
    {
      "inputs": [],
      "name": "owner",
      "outputs": [
        {
          "internalType": "address",
          "name": "",
          "type": "address"
        }
      ],
      "stateMutability": "view",
      "type": "function"
    },
    {
      "inputs": [],
      "name": "pause",
      "outputs": [],
      "stateMutability": "nonpayable",
      "type": "function"
    },
    {
      "inputs": [],
      "name": "paused",
      "outputs": [
        {
          "internalType": "bool",
          "name": "",
          "type": "bool"
        }
      ],
      "stateMutability": "view",
      "type": "function"
    },
    {
      "inputs": [
        {
          "internalType": "address[]",
          "name": "accounts",
          "type": "address[]"
        },
        {
          "internalType": "contract IERC20[]",
          "name": "tokens",
          "type": "address[]"
        },
        {
          "internalType": "uint256[]",
          "name": "amounts",
          "type": "uint256[]"
        }
      ],
      "name": "recoverERC20s",
      "outputs": [],
      "stateMutability": "nonpayable",
      "type": "function"
    },
    {
      "inputs": [
        {
          "internalType": "address[]",
          "name": "accounts",
          "type": "address[]"
        },
        {
          "internalType": "contract IERC721[]",
          "name": "contracts",
          "type": "address[]"
        },
        {
          "internalType": "uint256[]",
          "name": "tokenIds",
          "type": "uint256[]"
        }
      ],
      "name": "recoverERC721s",
      "outputs": [],
      "stateMutability": "nonpayable",
      "type": "function"
    },
    {
      "inputs": [
        {
          "internalType": "address payable[]",
          "name": "accounts",
          "type": "address[]"
        },
        {
          "internalType": "uint256[]",
          "name": "amounts",
          "type": "uint256[]"
        }
      ],
      "name": "recoverETH",
      "outputs": [],
      "stateMutability": "nonpayable",
      "type": "function"
    },
    {
      "inputs": [],
      "name": "root",
      "outputs": [
        {
          "internalType": "bytes32",
          "name": "",
          "type": "bytes32"
        }
      ],
      "stateMutability": "view",
      "type": "function"
    },
    {
      "inputs": [
        {
          "internalType": "bytes32",
          "name": "merkleRoot",
          "type": "bytes32"
        }
      ],
      "name": "setMerkleRoot",
      "outputs": [],
      "stateMutability": "nonpayable",
      "type": "function"
    },
    {
      "inputs": [
        {
          "internalType": "address",
          "name": "messageSigner_",
          "type": "address"
        }
      ],
      "name": "setMessageSigner",
      "outputs": [],
      "stateMutability": "nonpayable",
      "type": "function"
    },
    {
      "inputs": [
        {
          "internalType": "address",
          "name": "tokenHolder_",
          "type": "address"
        }
      ],
      "name": "setTokenHolder",
      "outputs": [],
      "stateMutability": "nonpayable",
      "type": "function"
    },
    {
      "inputs": [
        {
          "internalType": "bytes4",
          "name": "interfaceId",
          "type": "bytes4"
        }
      ],
      "name": "supportsInterface",
      "outputs": [
        {
          "internalType": "bool",
          "name": "",
          "type": "bool"
        }
      ],
      "stateMutability": "view",
      "type": "function"
    },
    {
      "inputs": [],
      "name": "tokenHolder",
      "outputs": [
        {
          "internalType": "address",
          "name": "",
          "type": "address"
        }
      ],
      "stateMutability": "view",
      "type": "function"
    },
    {
      "inputs": [
        {
          "internalType": "address",
          "name": "newOwner",
          "type": "address"
        }
      ],
      "name": "transferOwnership",
      "outputs": [],
      "stateMutability": "nonpayable",
      "type": "function"
    },
    {
      "inputs": [],
      "name": "treeCounter",
      "outputs": [
        {
          "internalType": "uint256",
          "name": "",
          "type": "uint256"
        }
      ],
      "stateMutability": "view",
      "type": "function"
    },
    {
      "inputs": [],
      "name": "unpause",
      "outputs": [],
      "stateMutability": "nonpayable",
      "type": "function"
    }
  ],
  "bytecode": "0x60c06040523480156200001157600080fd5b50604051620024bd380380620024bd8339810160408190526200003491620003c4565b808060016200004262000129565b6200005881620000516200013a565b9062000170565b506200006f8162000068620001eb565b906200021b565b506001600160a01b0390811660805285811660a052600080546001600160a01b03191691861691821790556040519081527f66b8dbbd7f4a59921c0e0f594b6fb8434e778851611f323b7c3d00d07a74b120915060200160405180910390a1600180546001600160a01b0319166001600160a01b0384169081179091556040519081527ff4f258c9c2ba29a8ac62258935b47c1060456ae57d24667002ea715b9c5e85969060200160405180910390a15050505062000479565b6000620001356200025a565b905090565b6000806200016a60017fc9ed16f33ab3a66c84bfd83099ccb2a8845871e2e1c1928f63797152f0fd54cd6200042c565b92915050565b6001600160a01b03811615620001c75781546001600160a01b0319166001600160a01b03821690811783556040516000907f8be0079c531659141344cd1fd0a4f28419497f9722a3daafe3b4186f6b6457e0908290a35b620001e76307f5828d60e41b6001620001df6200031e565b91906200034e565b5050565b6000806200016a60017f0186a05f63b1553398ad5ea3233c0ce68b8c9eecc47717f123c5c2b42fbd6d9f6200042c565b8015620001e757815460ff191660011782556040517f6985a02210a168e66602d3235cb6db0e70f92b3ba4d376a33c0f3d9434bff62590600090a15050565b6000333214806200026b5750601836105b156200027657503390565b60805136601319013560601c906001600160a01b03163314806200030c5750608051604051634494d46560e11b81526001600160a01b03838116600483015233602483015290911690638929a8ca90604401602060405180830381865afa158015620002e6573d6000803e3d6000fd5b505050506040513d601f19601f820116820180604052508101906200030c91906200044e565b156200031757919050565b3391505090565b6000806200016a60017fca9d3e17f264b0f3984e2634e94adb37fa3e6a8103f06aeae6fa59e21c769f5e6200042c565b600160e01b6001600160e01b03198316016200037d576040516372c683bb60e01b815260040160405180910390fd5b6001600160e01b03199190911660009081526020929092526040909120805460ff1916911515919091179055565b6001600160a01b0381168114620003c157600080fd5b50565b60008060008060808587031215620003db57600080fd5b8451620003e881620003ab565b6020860151909450620003fb81620003ab565b60408601519093506200040e81620003ab565b60608601519092506200042181620003ab565b939692955090935050565b818103818111156200016a57634e487b7160e01b600052601160045260246000fd5b6000602082840312156200046157600080fd5b815180151581146200047257600080fd5b9392505050565b60805160a051612002620004bb600039600081816103290152610bf201526000818161020201528181610273015281816113b5015261143d01526120026000f3fe608060405234801561001057600080fd5b50600436106101775760003560e01c80637cb64759116100d8578063cc4aa2041161008c578063f2fde38b11610066578063f2fde38b14610367578063f5276d821461037a578063f7ba94bd1461038d57600080fd5b8063cc4aa20414610324578063ebf0c7171461034b578063f29d2f281461035457600080fd5b80638da5cb5b116100bd5780638da5cb5b146102e6578063c3666c36146102ee578063cc3c0f061461030157600080fd5b80637cb64759146102cb5780638456cb59146102de57600080fd5b8063420a83e71161012f578063572b6c0511610114578063572b6c05146102635780635c975abb146102b057806373c8a958146102b857600080fd5b8063420a83e7146102305780634b36df531461025057600080fd5b80632a5d085d116101605780632a5d085d146101e95780632b4c9f16146102005780633f4ba83a1461022657600080fd5b806301ffc9a71461017c578063080387b4146101a4575b600080fd5b61018f61018a366004611b65565b6103a0565b60405190151581526020015b60405180910390f35b6000546101c49073ffffffffffffffffffffffffffffffffffffffff1681565b60405173ffffffffffffffffffffffffffffffffffffffff909116815260200161019b565b6101f260035481565b60405190815260200161019b565b7f00000000000000000000000000000000000000000000000000000000000000006101c4565b61022e6103ba565b005b6001546101c49073ffffffffffffffffffffffffffffffffffffffff1681565b61022e61025e366004611bc9565b6103e5565b61018f610271366004611bc9565b7f000000000000000000000000000000000000000000000000000000000000000073ffffffffffffffffffffffffffffffffffffffff90811691161490565b61018f61046a565b61022e6102c6366004611c2b565b610483565b61022e6102d9366004611cc5565b610579565b61022e6105cd565b6101c46105e8565b61022e6102fc366004611c2b565b61060f565b61018f61030f366004611cc5565b60046020526000908152604090205460ff1681565b6101c47f000000000000000000000000000000000000000000000000000000000000000081565b6101f260025481565b61022e610362366004611bc9565b610787565b61022e610375366004611bc9565b610805565b61022e610388366004611cde565b610823565b61022e61039b366004611da1565b610c6f565b60006103b4826103ae610d2e565b90610d5c565b92915050565b6103d36103c5610e36565b6103cd610e40565b90610e6e565b6103e36103de610edd565b610f0b565b565b6103f06103c5610e36565b600080547fffffffffffffffffffffffff00000000000000000000000000000000000000001673ffffffffffffffffffffffffffffffffffffffff83169081179091556040519081527f66b8dbbd7f4a59921c0e0f594b6fb8434e778851611f323b7c3d00d07a74b120906020015b60405180910390a150565b600061047e610477610edd565b5460ff1690565b905090565b61048e6103c5610e36565b84838114158061049e5750808214155b156104d5576040517f6582533600000000000000000000000000000000000000000000000000000000815260040160405180910390fd5b60005b8181101561056f576105678888838181106104f5576104f5611e0d565b905060200201602081019061050a9190611bc9565b85858481811061051c5761051c611e0d565b9050602002013588888581811061053557610535611e0d565b905060200201602081019061054a9190611bc9565b73ffffffffffffffffffffffffffffffffffffffff169190610f66565b6001016104d8565b5050505050505050565b6105846103c5610e36565b61058f6103de610edd565b60028190556003805460010190556040518181527f42cbc405e4dbf1b691e85b9a34b08ecfcf7a9ad9078bf4d645ccfa1fac11c10b9060200161045f565b6105d86103c5610e36565b6103e36105e3610edd565b610ff8565b600061047e6105f5610e40565b5473ffffffffffffffffffffffffffffffffffffffff1690565b61061a6103c5610e36565b84838114158061062a5750808214155b15610661576040517f6582533600000000000000000000000000000000000000000000000000000000815260040160405180910390fd5b60005b8181101561056f5785858281811061067e5761067e611e0d565b90506020020160208101906106939190611bc9565b73ffffffffffffffffffffffffffffffffffffffff166323b872dd308a8a858181106106c1576106c1611e0d565b90506020020160208101906106d69190611bc9565b8787868181106106e8576106e8611e0d565b6040517fffffffff0000000000000000000000000000000000000000000000000000000060e088901b16815273ffffffffffffffffffffffffffffffffffffffff958616600482015294909316602485015250602090910201356044820152606401600060405180830381600087803b15801561076457600080fd5b505af1158015610778573d6000803e3d6000fd5b50505050806001019050610664565b6107926103c5610e36565b600180547fffffffffffffffffffffffff00000000000000000000000000000000000000001673ffffffffffffffffffffffffffffffffffffffff83169081179091556040519081527ff4f258c9c2ba29a8ac62258935b47c1060456ae57d24667002ea715b9c5e85969060200161045f565b610820610810610e36565b82610819610e40565b9190611056565b50565b61083361082e610edd565b61116b565b60035460025442831161088357888585856040517f86f1d6f800000000000000000000000000000000000000000000000000000000815260040161087a9493929190611e3c565b60405180910390fd5b6040517fffffffffffffffffffffffffffffffffffffffff00000000000000000000000030606090811b821660208401528b901b16603482015260488101849052600090606801604080517fffffffffffffffffffffffffffffffffffffffffffffffffffffffffffffffe08184030181528282528051602091820120600054601f8a01839004830285018301909352888452935073ffffffffffffffffffffffffffffffffffffffff9091169161096191899089908190840183828082843760009201919091525061095b92508691506111a79050565b906111da565b73ffffffffffffffffffffffffffffffffffffffff16146109b657898686866040517f860713f900000000000000000000000000000000000000000000000000000000815260040161087a9493929190611e3c565b6040517fffffffffffffffffffffffffffffffffffffffff00000000000000000000000060608c901b166020820152603481018a905260548101849052600090607401604080517fffffffffffffffffffffffffffffffffffffffffffffffffffffffffffffffe081840301815291815281516020928301206000818152600490935291205490915060ff1615610a9f576040517f6508823200000000000000000000000000000000000000000000000000000000815273ffffffffffffffffffffffffffffffffffffffff8c166004820152602481018b90526044810185905260640161087a565b610aab898985846111fe565b610b07576040517f3c6ee01b00000000000000000000000000000000000000000000000000000000815273ffffffffffffffffffffffffffffffffffffffff8c166004820152602481018b90526044810185905260640161087a565b6000818152600460205260409081902080547fffffffffffffffffffffffffffffffffffffffffffffffffffffffffffffff001660011790555173ffffffffffffffffffffffffffffffffffffffff8c169084907fa68c079189004e3175c636199e3e4d2aae420ce461ed29f670552b3eba9d2a0390610b93908e908990918252602082015260400190565b60405180910390a36001546040517f23b872dd00000000000000000000000000000000000000000000000000000000815273ffffffffffffffffffffffffffffffffffffffff91821660048201528c82166024820152604481018c90527f0000000000000000000000000000000000000000000000000000000000000000909116906323b872dd906064016020604051808303816000875af1158015610c3d573d6000803e3d6000fd5b505050506040513d601f19601f82011682018060405250810190610c619190611eb0565b505050505050505050505050565b610c7a6103c5610e36565b82818114610cb4576040517f6582533600000000000000000000000000000000000000000000000000000000815260040160405180910390fd5b60005b81811015610d2657610d1e848483818110610cd457610cd4611e0d565b90506020020135878784818110610ced57610ced611e0d565b9050602002016020810190610d029190611bc9565b73ffffffffffffffffffffffffffffffffffffffff1690611218565b600101610cb7565b505050505050565b6000806103b460017fca9d3e17f264b0f3984e2634e94adb37fa3e6a8103f06aeae6fa59e21c769f5e611ed2565b60007c01000000000000000000000000000000000000000000000000000000007fffffffff00000000000000000000000000000000000000000000000000000000831601610dac575060006103b4565b7ffe003659000000000000000000000000000000000000000000000000000000007fffffffff00000000000000000000000000000000000000000000000000000000831601610dfd575060016103b4565b507fffffffff00000000000000000000000000000000000000000000000000000000166000908152602091909152604090205460ff1690565b600061047e611372565b6000806103b460017fc9ed16f33ab3a66c84bfd83099ccb2a8845871e2e1c1928f63797152f0fd54cd611ed2565b815473ffffffffffffffffffffffffffffffffffffffff828116911614610ed9576040517f2ef4875e00000000000000000000000000000000000000000000000000000000815273ffffffffffffffffffffffffffffffffffffffff8216600482015260240161087a565b5050565b6000806103b460017f0186a05f63b1553398ad5ea3233c0ce68b8c9eecc47717f123c5c2b42fbd6d9f611ed2565b610f14816114b9565b80547fffffffffffffffffffffffffffffffffffffffffffffffffffffffffffffff001681556040517f7805862f689e2f13df9f062ff482ad3ad112aca9e0847911ed832e158c525b3390600090a150565b6040805173ffffffffffffffffffffffffffffffffffffffff8416602482015260448082018490528251808303909101815260649091019091526020810180517bffffffffffffffffffffffffffffffffffffffffffffffffffffffff167fa9059cbb00000000000000000000000000000000000000000000000000000000179052610ff39084906114f4565b505050565b6110018161116b565b80547fffffffffffffffffffffffffffffffffffffffffffffffffffffffffffffff001660011781556040517f6985a02210a168e66602d3235cb6db0e70f92b3ba4d376a33c0f3d9434bff62590600090a150565b825473ffffffffffffffffffffffffffffffffffffffff90811690831681146110c3576040517f2ef4875e00000000000000000000000000000000000000000000000000000000815273ffffffffffffffffffffffffffffffffffffffff8416600482015260240161087a565b8173ffffffffffffffffffffffffffffffffffffffff168173ffffffffffffffffffffffffffffffffffffffff16146111655783547fffffffffffffffffffffffff00000000000000000000000000000000000000001673ffffffffffffffffffffffffffffffffffffffff8381169182178655604051908316907f8be0079c531659141344cd1fd0a4f28419497f9722a3daafe3b4186f6b6457e090600090a35b50505050565b805460ff1615610820576040517f9e87fac800000000000000000000000000000000000000000000000000000000815260040160405180910390fd5b7f19457468657265756d205369676e6564204d6573736167653a0a3332000000006000908152601c91909152603c902090565b60008060006111e98585611603565b915091506111f681611648565b509392505050565b60008261120c8686856117fb565b1490505b949350505050565b80471015611282576040517f08c379a000000000000000000000000000000000000000000000000000000000815260206004820152601d60248201527f416464726573733a20696e73756666696369656e742062616c616e6365000000604482015260640161087a565b60008273ffffffffffffffffffffffffffffffffffffffff168260405160006040518083038185875af1925050503d80600081146112dc576040519150601f19603f3d011682016040523d82523d6000602084013e6112e1565b606091505b5050905080610ff3576040517f08c379a000000000000000000000000000000000000000000000000000000000815260206004820152603a60248201527f416464726573733a20756e61626c6520746f2073656e642076616c75652c207260448201527f6563697069656e74206d61792068617665207265766572746564000000000000606482015260840161087a565b6000333214806113825750601836105b1561138c57503390565b7fffffffffffffffffffffffffffffffffffffffffffffffffffffffffffffffec36013560601c7f000000000000000000000000000000000000000000000000000000000000000073ffffffffffffffffffffffffffffffffffffffff163314806114a857506040517f8929a8ca00000000000000000000000000000000000000000000000000000000815273ffffffffffffffffffffffffffffffffffffffff82811660048301523360248301527f00000000000000000000000000000000000000000000000000000000000000001690638929a8ca90604401602060405180830381865afa158015611484573d6000803e3d6000fd5b505050506040513d601f19601f820116820180604052508101906114a89190611eb0565b156114b257919050565b3391505090565b805460ff16610820576040517f6cd6020100000000000000000000000000000000000000000000000000000000815260040160405180910390fd5b6000611556826040518060400160405280602081526020017f5361666545524332303a206c6f772d6c6576656c2063616c6c206661696c65648152508573ffffffffffffffffffffffffffffffffffffffff1661183d9092919063ffffffff16565b90508051600014806115775750808060200190518101906115779190611eb0565b610ff3576040517f08c379a000000000000000000000000000000000000000000000000000000000815260206004820152602a60248201527f5361666545524332303a204552433230206f7065726174696f6e20646964206e60448201527f6f74207375636365656400000000000000000000000000000000000000000000606482015260840161087a565b60008082516041036116395760208301516040840151606085015160001a61162d8782858561184c565b94509450505050611641565b506000905060025b9250929050565b600081600481111561165c5761165c611f0c565b036116645750565b600181600481111561167857611678611f0c565b036116df576040517f08c379a000000000000000000000000000000000000000000000000000000000815260206004820152601860248201527f45434453413a20696e76616c6964207369676e61747572650000000000000000604482015260640161087a565b60028160048111156116f3576116f3611f0c565b0361175a576040517f08c379a000000000000000000000000000000000000000000000000000000000815260206004820152601f60248201527f45434453413a20696e76616c6964207369676e6174757265206c656e67746800604482015260640161087a565b600381600481111561176e5761176e611f0c565b03610820576040517f08c379a000000000000000000000000000000000000000000000000000000000815260206004820152602260248201527f45434453413a20696e76616c6964207369676e6174757265202773272076616c60448201527f7565000000000000000000000000000000000000000000000000000000000000606482015260840161087a565b600081815b848110156118345761182a8287878481811061181e5761181e611e0d565b9050602002013561193b565b9150600101611800565b50949350505050565b6060611210848460008561196d565b6000807f7fffffffffffffffffffffffffffffff5d576e7357a4501ddfe92f46681b20a08311156118835750600090506003611932565b6040805160008082526020820180845289905260ff881692820192909252606081018690526080810185905260019060a0016020604051602081039080840390855afa1580156118d7573d6000803e3d6000fd5b50506040517fffffffffffffffffffffffffffffffffffffffffffffffffffffffffffffffe0015191505073ffffffffffffffffffffffffffffffffffffffff811661192b57600060019250925050611932565b9150600090505b94509492505050565b6000818310611957576000828152602084905260409020611966565b60008381526020839052604090205b9392505050565b6060824710156119ff576040517f08c379a000000000000000000000000000000000000000000000000000000000815260206004820152602660248201527f416464726573733a20696e73756666696369656e742062616c616e636520666f60448201527f722063616c6c0000000000000000000000000000000000000000000000000000606482015260840161087a565b6000808673ffffffffffffffffffffffffffffffffffffffff168587604051611a289190611f5f565b60006040518083038185875af1925050503d8060008114611a65576040519150601f19603f3d011682016040523d82523d6000602084013e611a6a565b606091505b5091509150611a7b87838387611a86565b979650505050505050565b60608315611b1c578251600003611b155773ffffffffffffffffffffffffffffffffffffffff85163b611b15576040517f08c379a000000000000000000000000000000000000000000000000000000000815260206004820152601d60248201527f416464726573733a2063616c6c20746f206e6f6e2d636f6e7472616374000000604482015260640161087a565b5081611210565b6112108383815115611b315781518083602001fd5b806040517f08c379a000000000000000000000000000000000000000000000000000000000815260040161087a9190611f7b565b600060208284031215611b7757600080fd5b81357fffffffff000000000000000000000000000000000000000000000000000000008116811461196657600080fd5b73ffffffffffffffffffffffffffffffffffffffff8116811461082057600080fd5b600060208284031215611bdb57600080fd5b813561196681611ba7565b60008083601f840112611bf857600080fd5b50813567ffffffffffffffff811115611c1057600080fd5b6020830191508360208260051b850101111561164157600080fd5b60008060008060008060608789031215611c4457600080fd5b863567ffffffffffffffff80821115611c5c57600080fd5b611c688a838b01611be6565b90985096506020890135915080821115611c8157600080fd5b611c8d8a838b01611be6565b90965094506040890135915080821115611ca657600080fd5b50611cb389828a01611be6565b979a9699509497509295939492505050565b600060208284031215611cd757600080fd5b5035919050565b600080600080600080600060a0888a031215611cf957600080fd5b8735611d0481611ba7565b965060208801359550604088013567ffffffffffffffff80821115611d2857600080fd5b611d348b838c01611be6565b909750955060608a0135915080821115611d4d57600080fd5b818a0191508a601f830112611d6157600080fd5b813581811115611d7057600080fd5b8b6020828501011115611d8257600080fd5b6020830195508094505050506080880135905092959891949750929550565b60008060008060408587031215611db757600080fd5b843567ffffffffffffffff80821115611dcf57600080fd5b611ddb88838901611be6565b90965094506020870135915080821115611df457600080fd5b50611e0187828801611be6565b95989497509550505050565b7f4e487b7100000000000000000000000000000000000000000000000000000000600052603260045260246000fd5b73ffffffffffffffffffffffffffffffffffffffff851681526060602082015282606082015282846080830137600060808483010152600060807fffffffffffffffffffffffffffffffffffffffffffffffffffffffffffffffe0601f860116830101905082604083015295945050505050565b600060208284031215611ec257600080fd5b8151801515811461196657600080fd5b818103818111156103b4577f4e487b7100000000000000000000000000000000000000000000000000000000600052601160045260246000fd5b7f4e487b7100000000000000000000000000000000000000000000000000000000600052602160045260246000fd5b60005b83811015611f56578181015183820152602001611f3e565b50506000910152565b60008251611f71818460208701611f3b565b9190910192915050565b6020815260008251806020840152611f9a816040850160208701611f3b565b601f017fffffffffffffffffffffffffffffffffffffffffffffffffffffffffffffffe016919091016040019291505056fea2646970667358221220fd3915f933840e561294e103d2914659f9c2107d56c0c000f2a17c4fd481971064736f6c63430008160033",
  "linkReferences": {},
  "deployedLinkReferences": {}
}