{
  "_format": "hh-sol-artifact-1",
  "contractName": "LimitedOCPointsMerkleClaimMock",
  "sourceName": "contracts/mocks/payment/LimitedOCPointsMerkleClaimMock.sol",
  "abi": [
    {
      "inputs": [
        {
          "internalType": "address",
          "name": "pointsContractAddress",
          "type": "address"
        },
        {
          "internalType": "contract IForwarderRegistry",
          "name": "forwarderRegistry",
          "type": "address"
        }
      ],
      "stateMutability": "nonpayable",
      "type": "constructor"
    },
    {
      "inputs": [
        {
          "internalType": "address",
          "name": "recipient",
          "type": "address"
        },
        {
          "internalType": "uint256",
          "name": "amount",
          "type": "uint256"
        },
        {
          "internalType": "bytes32",
          "name": "reasonCode",
          "type": "bytes32"
        },
        {
          "internalType": "uint256",
          "name": "epochId",
          "type": "uint256"
        }
      ],
      "name": "AlreadyClaimed",
      "type": "error"
    },
    {
      "inputs": [
        {
          "internalType": "uint256",
          "name": "epochId",
          "type": "uint256"
        }
      ],
      "name": "ClaimEpochNotFound",
      "type": "error"
    },
    {
      "inputs": [
        {
          "internalType": "uint256",
          "name": "currentTime",
          "type": "uint256"
        },
        {
          "internalType": "uint256",
          "name": "startTime",
          "type": "uint256"
        },
        {
          "internalType": "uint256",
          "name": "endTime",
          "type": "uint256"
        }
      ],
      "name": "ClaimingEpochNotActive",
      "type": "error"
    },
    {
      "inputs": [],
      "name": "IllegalInterfaceId",
      "type": "error"
    },
    {
      "inputs": [],
      "name": "InconsistentArrayLengths",
      "type": "error"
    },
    {
      "inputs": [
        {
          "internalType": "uint256",
          "name": "amountRequested",
          "type": "uint256"
        },
        {
          "internalType": "uint256",
          "name": "amountAvailable",
          "type": "uint256"
        }
      ],
      "name": "InsufficientPoolAmount",
      "type": "error"
    },
    {
      "inputs": [
        {
          "internalType": "uint256",
          "name": "startTime",
          "type": "uint256"
        },
        {
          "internalType": "uint256",
          "name": "endTime",
          "type": "uint256"
        }
      ],
      "name": "InvalidClaimWindow",
      "type": "error"
    },
    {
      "inputs": [
        {
          "internalType": "address",
          "name": "InvalidPointsContractAddress",
          "type": "address"
        }
      ],
      "name": "InvalidPointsContractAddress",
      "type": "error"
    },
    {
      "inputs": [
        {
          "internalType": "address",
          "name": "recipient",
          "type": "address"
        },
        {
          "internalType": "uint256",
          "name": "amount",
          "type": "uint256"
        },
        {
          "internalType": "bytes32",
          "name": "reasonCode",
          "type": "bytes32"
        },
        {
          "internalType": "uint256",
          "name": "epochId",
          "type": "uint256"
        }
      ],
      "name": "InvalidProof",
      "type": "error"
    },
    {
      "inputs": [
        {
          "internalType": "address",
          "name": "account",
          "type": "address"
        }
      ],
      "name": "NotContractOwner",
      "type": "error"
    },
    {
      "anonymous": false,
      "inputs": [
        {
          "indexed": true,
          "internalType": "uint256",
          "name": "epochId",
          "type": "uint256"
        },
        {
          "indexed": true,
          "internalType": "bytes32",
          "name": "merkleRoot",
          "type": "bytes32"
        },
        {
          "indexed": false,
          "internalType": "uint256",
          "name": "totalAmount",
          "type": "uint256"
        },
        {
          "indexed": false,
          "internalType": "uint256",
          "name": "startTime",
          "type": "uint256"
        },
        {
          "indexed": false,
          "internalType": "uint256",
          "name": "endTime",
          "type": "uint256"
        }
      ],
      "name": "MerkleRootSet",
      "type": "event"
    },
    {
      "anonymous": false,
      "inputs": [
        {
          "indexed": true,
          "internalType": "address",
          "name": "previousOwner",
          "type": "address"
        },
        {
          "indexed": true,
          "internalType": "address",
          "name": "newOwner",
          "type": "address"
        }
      ],
      "name": "OwnershipTransferred",
      "type": "event"
    },
    {
      "anonymous": false,
      "inputs": [
        {
          "indexed": true,
          "internalType": "uint256",
          "name": "epochId",
          "type": "uint256"
        },
        {
          "indexed": true,
          "internalType": "bytes32",
          "name": "merkleRoot",
          "type": "bytes32"
        },
        {
          "indexed": true,
          "internalType": "address",
          "name": "recipient",
          "type": "address"
        },
        {
          "indexed": false,
          "internalType": "uint256",
          "name": "amount",
          "type": "uint256"
        },
        {
          "indexed": false,
          "internalType": "uint256",
          "name": "amountLeft",
          "type": "uint256"
        }
      ],
      "name": "PointsClaimed",
      "type": "event"
    },
    {
      "inputs": [],
      "name": "POINTS_CONTRACT",
      "outputs": [
        {
          "internalType": "contract IPoints",
          "name": "",
          "type": "address"
        }
      ],
      "stateMutability": "view",
      "type": "function"
    },
    {
      "inputs": [],
      "name": "__msgData",
      "outputs": [
        {
          "internalType": "bytes",
          "name": "",
          "type": "bytes"
        }
      ],
      "stateMutability": "view",
      "type": "function"
    },
    {
      "inputs": [],
      "name": "__msgSender",
      "outputs": [
        {
          "internalType": "address",
          "name": "",
          "type": "address"
        }
      ],
      "stateMutability": "view",
      "type": "function"
    },
    {
      "inputs": [
        {
          "internalType": "uint256",
          "name": "epochId",
          "type": "uint256"
        },
        {
          "internalType": "address",
          "name": "recipient",
          "type": "address"
        },
        {
          "internalType": "uint256",
          "name": "amount",
          "type": "uint256"
        },
        {
          "internalType": "bytes32",
          "name": "reasonCode",
          "type": "bytes32"
        }
      ],
      "name": "canClaim",
      "outputs": [
        {
          "internalType": "enum LimitedOCPointsMerkleClaim.ClaimError",
          "name": "",
          "type": "uint8"
        }
      ],
      "stateMutability": "view",
      "type": "function"
    },
    {
      "inputs": [
        {
          "internalType": "uint256",
          "name": "epochId",
          "type": "uint256"
        },
        {
          "internalType": "address",
          "name": "recipient",
          "type": "address"
        },
        {
          "internalType": "uint256",
          "name": "amount",
          "type": "uint256"
        },
        {
          "internalType": "bytes32",
          "name": "reasonCode",
          "type": "bytes32"
        },
        {
          "internalType": "bytes32[]",
          "name": "proof",
          "type": "bytes32[]"
        }
      ],
      "name": "claim",
      "outputs": [],
      "stateMutability": "nonpayable",
      "type": "function"
    },
    {
      "inputs": [
        {
          "internalType": "uint256",
          "name": "",
          "type": "uint256"
        }
      ],
      "name": "claimEpochs",
      "outputs": [
        {
          "internalType": "bytes32",
          "name": "merkleRoot",
          "type": "bytes32"
        },
        {
          "internalType": "uint256",
          "name": "totalAmount",
          "type": "uint256"
        },
        {
          "internalType": "uint256",
          "name": "amountLeft",
          "type": "uint256"
        },
        {
          "internalType": "uint256",
          "name": "startTime",
          "type": "uint256"
        },
        {
          "internalType": "uint256",
          "name": "endTime",
          "type": "uint256"
        }
      ],
      "stateMutability": "view",
      "type": "function"
    },
    {
      "inputs": [
        {
          "internalType": "bytes32",
          "name": "",
          "type": "bytes32"
        }
      ],
      "name": "claimed",
      "outputs": [
        {
          "internalType": "bool",
          "name": "",
          "type": "bool"
        }
      ],
      "stateMutability": "view",
      "type": "function"
    },
    {
      "inputs": [],
      "name": "currentEpochId",
      "outputs": [
        {
          "internalType": "uint256",
          "name": "",
          "type": "uint256"
        }
      ],
      "stateMutability": "view",
      "type": "function"
    },
    {
      "inputs": [],
      "name": "forwarderRegistry",
      "outputs": [
        {
          "internalType": "contract IForwarderRegistry",
          "name": "",
          "type": "address"
        }
      ],
      "stateMutability": "view",
      "type": "function"
    },
    {
      "inputs": [
        {
          "internalType": "address",
          "name": "forwarder",
          "type": "address"
        }
      ],
      "name": "isTrustedForwarder",
      "outputs": [
        {
          "internalType": "bool",
          "name": "",
          "type": "bool"
        }
      ],
      "stateMutability": "view",
      "type": "function"
    },
    {
      "inputs": [],
      "name": "owner",
      "outputs": [
        {
          "internalType": "address",
          "name": "",
          "type": "address"
        }
      ],
      "stateMutability": "view",
      "type": "function"
    },
    {
      "inputs": [
        {
          "internalType": "address[]",
          "name": "accounts",
          "type": "address[]"
        },
        {
          "internalType": "contract IERC20[]",
          "name": "tokens",
          "type": "address[]"
        },
        {
          "internalType": "uint256[]",
          "name": "amounts",
          "type": "uint256[]"
        }
      ],
      "name": "recoverERC20s",
      "outputs": [],
      "stateMutability": "nonpayable",
      "type": "function"
    },
    {
      "inputs": [
        {
          "internalType": "address[]",
          "name": "accounts",
          "type": "address[]"
        },
        {
          "internalType": "contract IERC721[]",
          "name": "contracts",
          "type": "address[]"
        },
        {
          "internalType": "uint256[]",
          "name": "tokenIds",
          "type": "uint256[]"
        }
      ],
      "name": "recoverERC721s",
      "outputs": [],
      "stateMutability": "nonpayable",
      "type": "function"
    },
    {
      "inputs": [
        {
          "internalType": "address payable[]",
          "name": "accounts",
          "type": "address[]"
        },
        {
          "internalType": "uint256[]",
          "name": "amounts",
          "type": "uint256[]"
        }
      ],
      "name": "recoverETH",
      "outputs": [],
      "stateMutability": "nonpayable",
      "type": "function"
    },
    {
      "inputs": [
        {
          "internalType": "bytes32",
          "name": "merkleRoot",
          "type": "bytes32"
        },
        {
          "internalType": "uint256",
          "name": "totalAmount",
          "type": "uint256"
        },
        {
          "internalType": "uint256",
          "name": "startTime",
          "type": "uint256"
        },
        {
          "internalType": "uint256",
          "name": "endTime",
          "type": "uint256"
        }
      ],
      "name": "setMerkleRoot",
      "outputs": [],
      "stateMutability": "nonpayable",
      "type": "function"
    },
    {
      "inputs": [
        {
          "internalType": "bytes4",
          "name": "interfaceId",
          "type": "bytes4"
        }
      ],
      "name": "supportsInterface",
      "outputs": [
        {
          "internalType": "bool",
          "name": "",
          "type": "bool"
        }
      ],
      "stateMutability": "view",
      "type": "function"
    },
    {
      "inputs": [
        {
          "internalType": "address",
          "name": "newOwner",
          "type": "address"
        }
      ],
      "name": "transferOwnership",
      "outputs": [],
      "stateMutability": "nonpayable",
      "type": "function"
    }
  ],
  "bytecode": "0x60c06040523480156200001157600080fd5b5060405162001f2738038062001f278339810160408190526200003491620001fc565b81818080336200004f8162000048620000a5565b90620000db565b506001600160a01b03908116608052831690506200008f576040516302caf95f60e61b81526001600160a01b038316600482015260240160405180910390fd5b506001600160a01b031660a052506200025d9050565b600080620000d560017fc9ed16f33ab3a66c84bfd83099ccb2a8845871e2e1c1928f63797152f0fd54cd6200023b565b92915050565b6001600160a01b03811615620001325781546001600160a01b0319166001600160a01b03821690811783556040516000907f8be0079c531659141344cd1fd0a4f28419497f9722a3daafe3b4186f6b6457e0908290a35b620001526307f5828d60e41b60016200014a62000156565b919062000186565b5050565b600080620000d560017fca9d3e17f264b0f3984e2634e94adb37fa3e6a8103f06aeae6fa59e21c769f5e6200023b565b600160e01b6001600160e01b0319831601620001b5576040516372c683bb60e01b815260040160405180910390fd5b6001600160e01b03199190911660009081526020929092526040909120805460ff1916911515919091179055565b6001600160a01b0381168114620001f957600080fd5b50565b600080604083850312156200021057600080fd5b82516200021d81620001e3565b60208401519092506200023081620001e3565b809150509250929050565b81810381811115620000d557634e487b7160e01b600052601160045260246000fd5b60805160a051611c7a620002ad600039600081816101a9015261068901526000818161015f015281816101f10152818161125701528181611295015281816113cd01526114550152611c7a6000f3fe608060405234801561001057600080fd5b506004361061011b5760003560e01c806373c8a958116100b2578063cc3c0f0611610081578063eacdc5ff11610066578063eacdc5ff1461031e578063f2fde38b14610335578063f7ba94bd1461034857600080fd5b8063cc3c0f06146102f3578063d1a91ff21461031657600080fd5b806373c8a958146102b2578063833d47b6146102c55780638da5cb5b146102d8578063c3666c36146102e057600080fd5b806331e66e1e116100ee57806331e66e1e146101cb578063572b6c05146101e15780635c9a509b1461022e578063673d588a1461029257600080fd5b806301ffc9a7146101205780632035a4dd146101485780632b4c9f161461015d5780632d4c2f93146101a4575b600080fd5b61013361012e3660046117b4565b61035b565b60405190151581526020015b60405180910390f35b61015b610156366004611864565b610375565b005b7f00000000000000000000000000000000000000000000000000000000000000005b60405173ffffffffffffffffffffffffffffffffffffffff909116815260200161013f565b61017f7f000000000000000000000000000000000000000000000000000000000000000081565b6101d3610753565b60405161013f9291906118d7565b6101336101ef366004611924565b7f000000000000000000000000000000000000000000000000000000000000000073ffffffffffffffffffffffffffffffffffffffff90811691161490565b61026a61023c366004611941565b6001602081905260009182526040909120805491810154600282015460038301546004909301549192909185565b604080519586526020860194909452928401919091526060830152608082015260a00161013f565b6102a56102a036600461195a565b610766565b60405161013f9190611997565b61015b6102c03660046119d8565b610877565b61015b6102d3366004611a60565b61097b565b61017f610a80565b61015b6102ee3660046119d8565b610aac565b610133610301366004611941565b60026020526000908152604090205460ff1681565b61017f610c24565b61032760005481565b60405190815260200161013f565b61015b610343366004611924565b610c2e565b61015b610356366004611a92565b610c4c565b600061036f82610369610d0b565b90610d39565b92915050565b600086815260016020526040902080546103c3576040517f07cba261000000000000000000000000000000000000000000000000000000008152600481018890526024015b60405180910390fd5b600381015442908110806103da5750816004015481115b1561042e5760038201546004808401546040517fc06e9f3a000000000000000000000000000000000000000000000000000000008152918201849052602482019290925260448101919091526064016103ba565b6040517fffffffffffffffffffffffffffffffffffffffff000000000000000000000000606089901b166020820152603481018790526054810186905260748101899052600090609401604080517fffffffffffffffffffffffffffffffffffffffffffffffffffffffffffffffe081840301815291815281516020928301206000818152600290935291205490915060ff1615610525576040517f7635807d00000000000000000000000000000000000000000000000000000000815273ffffffffffffffffffffffffffffffffffffffff891660048201526024810188905260448101879052606481018a90526084016103ba565b86836002015410156105735760028301546040517f23090a310000000000000000000000000000000000000000000000000000000081526103ba918991600401918252602082015260400190565b8254610583908690869084610e13565b6105e6576040517fa041b52e00000000000000000000000000000000000000000000000000000000815273ffffffffffffffffffffffffffffffffffffffff891660048201526024810188905260448101879052606481018a90526084016103ba565b6000818152600260208190526040822080547fffffffffffffffffffffffffffffffffffffffffffffffffffffffffffffff0016600117905584018054899290610631908490611afe565b90915550506040517f26b3293f00000000000000000000000000000000000000000000000000000000815273ffffffffffffffffffffffffffffffffffffffff898116600483015260248201899052604482018890527f000000000000000000000000000000000000000000000000000000000000000016906326b3293f90606401600060405180830381600087803b1580156106cd57600080fd5b505af11580156106e1573d6000803e3d6000fd5b505050508773ffffffffffffffffffffffffffffffffffffffff1683600001548a7facb564b139c0c98f98d1aac465303613e3f5b098a49a18f544e414170a81a4e28a8760020154604051610740929190918252602082015260400190565b60405180910390a4505050505050505050565b36600061075e610e2b565b915091509091565b6000848152600160205260408120805461078457600191505061086f565b6003810154429081108061079b5750816004015481115b156107ab5760029250505061086f565b6040517fffffffffffffffffffffffffffffffffffffffff000000000000000000000000606088901b166020820152603481018690526054810185905260748101889052600090609401604080517fffffffffffffffffffffffffffffffffffffffffffffffffffffffffffffffe081840301815291815281516020928301206000818152600290935291205490915060ff161561084f576003935050505061086f565b8583600201541015610867576004935050505061086f565b600093505050505b949350505050565b610890610882610e36565b61088a610e40565b90610e6e565b8483811415806108a05750808214155b156108d7576040517f6582533600000000000000000000000000000000000000000000000000000000815260040160405180910390fd5b60005b81811015610971576109698888838181106108f7576108f7611b38565b905060200201602081019061090c9190611924565b85858481811061091e5761091e611b38565b9050602002013588888581811061093757610937611b38565b905060200201602081019061094c9190611924565b73ffffffffffffffffffffffffffffffffffffffff169190610edd565b6001016108da565b5050505050505050565b610986610882610e36565b80821015806109955750428111155b156109d6576040517f779acdff00000000000000000000000000000000000000000000000000000000815260048101839052602481018290526044016103ba565b600080546040805160a081018252878152602080820188815282840189815260608085018a8152608086018a8152888a526001808752888b209751885594518786015592516002870155516003860155905160049094019390935585540190945581518781529384018690529083018490529091869183917f331c648136af10432045d8cc15dfaee6ca9568922f85cab02d96d5f5286c8920910160405180910390a35050505050565b6000610aa7610a8d610e40565b5473ffffffffffffffffffffffffffffffffffffffff1690565b905090565b610ab7610882610e36565b848381141580610ac75750808214155b15610afe576040517f6582533600000000000000000000000000000000000000000000000000000000815260040160405180910390fd5b60005b8181101561097157858582818110610b1b57610b1b611b38565b9050602002016020810190610b309190611924565b73ffffffffffffffffffffffffffffffffffffffff166323b872dd308a8a85818110610b5e57610b5e611b38565b9050602002016020810190610b739190611924565b878786818110610b8557610b85611b38565b6040517fffffffff0000000000000000000000000000000000000000000000000000000060e088901b16815273ffffffffffffffffffffffffffffffffffffffff958616600482015294909316602485015250602090910201356044820152606401600060405180830381600087803b158015610c0157600080fd5b505af1158015610c15573d6000803e3d6000fd5b50505050806001019050610b01565b6000610aa7610e36565b610c49610c39610e36565b82610c42610e40565b9190610f6f565b50565b610c57610882610e36565b82818114610c91576040517f6582533600000000000000000000000000000000000000000000000000000000815260040160405180910390fd5b60005b81811015610d0357610cfb848483818110610cb157610cb1611b38565b90506020020135878784818110610cca57610cca611b38565b9050602002016020810190610cdf9190611924565b73ffffffffffffffffffffffffffffffffffffffff1690611084565b600101610c94565b505050505050565b60008061036f60017fca9d3e17f264b0f3984e2634e94adb37fa3e6a8103f06aeae6fa59e21c769f5e611afe565b60007c01000000000000000000000000000000000000000000000000000000007fffffffff00000000000000000000000000000000000000000000000000000000831601610d895750600061036f565b7ffe003659000000000000000000000000000000000000000000000000000000007fffffffff00000000000000000000000000000000000000000000000000000000831601610dda5750600161036f565b507fffffffff00000000000000000000000000000000000000000000000000000000166000908152602091909152604090205460ff1690565b600082610e218686856111de565b1495945050505050565b36600061075e611220565b6000610aa761138a565b60008061036f60017fc9ed16f33ab3a66c84bfd83099ccb2a8845871e2e1c1928f63797152f0fd54cd611afe565b815473ffffffffffffffffffffffffffffffffffffffff828116911614610ed9576040517f2ef4875e00000000000000000000000000000000000000000000000000000000815273ffffffffffffffffffffffffffffffffffffffff821660048201526024016103ba565b5050565b6040805173ffffffffffffffffffffffffffffffffffffffff8416602482015260448082018490528251808303909101815260649091019091526020810180517bffffffffffffffffffffffffffffffffffffffffffffffffffffffff167fa9059cbb00000000000000000000000000000000000000000000000000000000179052610f6a9084906114d1565b505050565b825473ffffffffffffffffffffffffffffffffffffffff9081169083168114610fdc576040517f2ef4875e00000000000000000000000000000000000000000000000000000000815273ffffffffffffffffffffffffffffffffffffffff841660048201526024016103ba565b8173ffffffffffffffffffffffffffffffffffffffff168173ffffffffffffffffffffffffffffffffffffffff161461107e5783547fffffffffffffffffffffffff00000000000000000000000000000000000000001673ffffffffffffffffffffffffffffffffffffffff8381169182178655604051908316907f8be0079c531659141344cd1fd0a4f28419497f9722a3daafe3b4186f6b6457e090600090a35b50505050565b804710156110ee576040517f08c379a000000000000000000000000000000000000000000000000000000000815260206004820152601d60248201527f416464726573733a20696e73756666696369656e742062616c616e636500000060448201526064016103ba565b60008273ffffffffffffffffffffffffffffffffffffffff168260405160006040518083038185875af1925050503d8060008114611148576040519150601f19603f3d011682016040523d82523d6000602084013e61114d565b606091505b5050905080610f6a576040517f08c379a000000000000000000000000000000000000000000000000000000000815260206004820152603a60248201527f416464726573733a20756e61626c6520746f2073656e642076616c75652c207260448201527f6563697069656e74206d6179206861766520726576657274656400000000000060648201526084016103ba565b600081815b848110156112175761120d8287878481811061120157611201611b38565b905060200201356115e0565b91506001016111e3565b50949350505050565b366000333214806112315750601836105b1561123f5750600091369150565b3373ffffffffffffffffffffffffffffffffffffffff7f0000000000000000000000000000000000000000000000000000000000000000161480611374575073ffffffffffffffffffffffffffffffffffffffff7f000000000000000000000000000000000000000000000000000000000000000016638929a8ca367fffffffffffffffffffffffffffffffffffffffffffffffffffffffffffffffec013560601c6040517fffffffff0000000000000000000000000000000000000000000000000000000060e084901b16815273ffffffffffffffffffffffffffffffffffffffff9091166004820152336024820152604401602060405180830381865afa158015611350573d6000803e3d6000fd5b505050506040513d601f19601f820116820180604052508101906113749190611b67565b156113815761075e611612565b50600091369150565b60003332148061139a5750601836105b156113a457503390565b7fffffffffffffffffffffffffffffffffffffffffffffffffffffffffffffffec36013560601c7f000000000000000000000000000000000000000000000000000000000000000073ffffffffffffffffffffffffffffffffffffffff163314806114c057506040517f8929a8ca00000000000000000000000000000000000000000000000000000000815273ffffffffffffffffffffffffffffffffffffffff82811660048301523360248301527f00000000000000000000000000000000000000000000000000000000000000001690638929a8ca90604401602060405180830381865afa15801561149c573d6000803e3d6000fd5b505050506040513d601f19601f820116820180604052508101906114c09190611b67565b156114ca57919050565b3391505090565b6000611533826040518060400160405280602081526020017f5361666545524332303a206c6f772d6c6576656c2063616c6c206661696c65648152508573ffffffffffffffffffffffffffffffffffffffff166116439092919063ffffffff16565b90508051600014806115545750808060200190518101906115549190611b67565b610f6a576040517f08c379a000000000000000000000000000000000000000000000000000000000815260206004820152602a60248201527f5361666545524332303a204552433230206f7065726174696f6e20646964206e60448201527f6f7420737563636565640000000000000000000000000000000000000000000060648201526084016103ba565b60008183106115fc57600082815260208490526040902061160b565b60008381526020839052604090205b9392505050565b36600061075e7fffffffffffffffffffffffffffffffffffffffffffffffffffffffffffffffec8301828481611b89565b606061086f8484600085856000808673ffffffffffffffffffffffffffffffffffffffff1685876040516116779190611bd7565b60006040518083038185875af1925050503d80600081146116b4576040519150601f19603f3d011682016040523d82523d6000602084013e6116b9565b606091505b50915091506116ca878383876116d5565b979650505050505050565b6060831561176b5782516000036117645773ffffffffffffffffffffffffffffffffffffffff85163b611764576040517f08c379a000000000000000000000000000000000000000000000000000000000815260206004820152601d60248201527f416464726573733a2063616c6c20746f206e6f6e2d636f6e747261637400000060448201526064016103ba565b508161086f565b61086f83838151156117805781518083602001fd5b806040517f08c379a00000000000000000000000000000000000000000000000000000000081526004016103ba9190611bf3565b6000602082840312156117c657600080fd5b81357fffffffff000000000000000000000000000000000000000000000000000000008116811461160b57600080fd5b73ffffffffffffffffffffffffffffffffffffffff81168114610c4957600080fd5b60008083601f84011261182a57600080fd5b50813567ffffffffffffffff81111561184257600080fd5b6020830191508360208260051b850101111561185d57600080fd5b9250929050565b60008060008060008060a0878903121561187d57600080fd5b86359550602087013561188f816117f6565b94506040870135935060608701359250608087013567ffffffffffffffff8111156118b957600080fd5b6118c589828a01611818565b979a9699509497509295939492505050565b60208152816020820152818360408301376000818301604090810191909152601f9092017fffffffffffffffffffffffffffffffffffffffffffffffffffffffffffffffe0160101919050565b60006020828403121561193657600080fd5b813561160b816117f6565b60006020828403121561195357600080fd5b5035919050565b6000806000806080858703121561197057600080fd5b843593506020850135611982816117f6565b93969395505050506040820135916060013590565b60208101600583106119d2577f4e487b7100000000000000000000000000000000000000000000000000000000600052602160045260246000fd5b91905290565b600080600080600080606087890312156119f157600080fd5b863567ffffffffffffffff80821115611a0957600080fd5b611a158a838b01611818565b90985096506020890135915080821115611a2e57600080fd5b611a3a8a838b01611818565b90965094506040890135915080821115611a5357600080fd5b506118c589828a01611818565b60008060008060808587031215611a7657600080fd5b5050823594602084013594506040840135936060013592509050565b60008060008060408587031215611aa857600080fd5b843567ffffffffffffffff80821115611ac057600080fd5b611acc88838901611818565b90965094506020870135915080821115611ae557600080fd5b50611af287828801611818565b95989497509550505050565b8181038181111561036f577f4e487b7100000000000000000000000000000000000000000000000000000000600052601160045260246000fd5b7f4e487b7100000000000000000000000000000000000000000000000000000000600052603260045260246000fd5b600060208284031215611b7957600080fd5b8151801515811461160b57600080fd5b60008085851115611b9957600080fd5b83861115611ba657600080fd5b5050820193919092039150565b60005b83811015611bce578181015183820152602001611bb6565b50506000910152565b60008251611be9818460208701611bb3565b9190910192915050565b6020815260008251806020840152611c12816040850160208701611bb3565b601f017fffffffffffffffffffffffffffffffffffffffffffffffffffffffffffffffe016919091016040019291505056fea264697066735822122007aac679432f67cee4398d9fba4b3f2bd927fcfc5061355ef590e7a19c1f142664736f6c63430008160033",
  "linkReferences": {},
  "deployedLinkReferences": {}
}