{
  "_format": "hh-sol-artifact-1",
  "contractName": "LimitedOCPointsMerkleClaimMock",
  "sourceName": "contracts/mocks/payment/LimitedOCPointsMerkleClaimMock.sol",
  "abi": [
    {
      "inputs": [
        {
          "internalType": "address",
          "name": "ecpContractAddress",
          "type": "address"
        },
        {
          "internalType": "contract IForwarderRegistry",
          "name": "forwarderRegistry",
          "type": "address"
        }
      ],
      "stateMutability": "nonpayable",
      "type": "constructor"
    },
    {
      "inputs": [
        {
          "internalType": "address",
          "name": "recipient",
          "type": "address"
        },
        {
          "internalType": "uint256",
          "name": "amount",
          "type": "uint256"
        },
        {
          "internalType": "bytes32",
          "name": "reasonCode",
          "type": "bytes32"
        },
        {
          "internalType": "uint256",
          "name": "epochId",
          "type": "uint256"
        }
      ],
      "name": "AlreadyClaimed",
      "type": "error"
    },
    {
      "inputs": [
        {
          "internalType": "uint256",
          "name": "epochId",
          "type": "uint256"
        }
      ],
      "name": "ClaimEpochNotFound",
      "type": "error"
    },
    {
      "inputs": [
        {
          "internalType": "uint256",
          "name": "currentTime",
          "type": "uint256"
        },
        {
          "internalType": "uint256",
          "name": "startTime",
          "type": "uint256"
        },
        {
          "internalType": "uint256",
          "name": "endTime",
          "type": "uint256"
        }
      ],
      "name": "ClaimingEpochNotActive",
      "type": "error"
    },
    {
      "inputs": [],
      "name": "IllegalInterfaceId",
      "type": "error"
    },
    {
      "inputs": [],
      "name": "InconsistentArrayLengths",
      "type": "error"
    },
    {
      "inputs": [
        {
          "internalType": "uint256",
          "name": "amountRequested",
          "type": "uint256"
        },
        {
          "internalType": "uint256",
          "name": "amountAvailable",
          "type": "uint256"
        }
      ],
      "name": "InsufficientPoolAmount",
      "type": "error"
    },
    {
      "inputs": [
        {
          "internalType": "uint256",
          "name": "startTime",
          "type": "uint256"
        },
        {
          "internalType": "uint256",
          "name": "endTime",
          "type": "uint256"
        }
      ],
      "name": "InvalidClaimWindow",
      "type": "error"
    },
    {
      "inputs": [
        {
          "internalType": "address",
          "name": "recipient",
          "type": "address"
        },
        {
          "internalType": "uint256",
          "name": "amount",
          "type": "uint256"
        },
        {
          "internalType": "bytes32",
          "name": "reasonCode",
          "type": "bytes32"
        },
        {
          "internalType": "uint256",
          "name": "epochId",
          "type": "uint256"
        }
      ],
      "name": "InvalidProof",
      "type": "error"
    },
    {
      "inputs": [
        {
          "internalType": "address",
          "name": "InvalidRewardContractAddress",
          "type": "address"
        }
      ],
      "name": "InvalidRewardContractAddress",
      "type": "error"
    },
    {
      "inputs": [
        {
          "internalType": "address",
          "name": "account",
          "type": "address"
        }
      ],
      "name": "NotContractOwner",
      "type": "error"
    },
    {
      "anonymous": false,
      "inputs": [
        {
          "indexed": true,
          "internalType": "uint256",
          "name": "epochId",
          "type": "uint256"
        },
        {
          "indexed": false,
          "internalType": "bytes32",
          "name": "merkleRoot",
          "type": "bytes32"
        },
        {
          "indexed": false,
          "internalType": "uint256",
          "name": "totalAmount",
          "type": "uint256"
        },
        {
          "indexed": false,
          "internalType": "uint256",
          "name": "startTime",
          "type": "uint256"
        },
        {
          "indexed": false,
          "internalType": "uint256",
          "name": "endTime",
          "type": "uint256"
        }
      ],
      "name": "MerkleRootSet",
      "type": "event"
    },
    {
      "anonymous": false,
      "inputs": [
        {
          "indexed": true,
          "internalType": "address",
          "name": "previousOwner",
          "type": "address"
        },
        {
          "indexed": true,
          "internalType": "address",
          "name": "newOwner",
          "type": "address"
        }
      ],
      "name": "OwnershipTransferred",
      "type": "event"
    },
    {
      "anonymous": false,
      "inputs": [
        {
          "indexed": true,
          "internalType": "uint256",
          "name": "epochId",
          "type": "uint256"
        },
        {
          "indexed": true,
          "internalType": "address",
          "name": "recipient",
          "type": "address"
        },
        {
          "indexed": false,
          "internalType": "uint256",
          "name": "amount",
          "type": "uint256"
        },
        {
          "indexed": false,
          "internalType": "uint256",
          "name": "amountLeft",
          "type": "uint256"
        }
      ],
      "name": "RewardClaimed",
      "type": "event"
    },
    {
      "inputs": [],
      "name": "OPERATOR_ROLE",
      "outputs": [
        {
          "internalType": "bytes32",
          "name": "",
          "type": "bytes32"
        }
      ],
      "stateMutability": "view",
      "type": "function"
    },
    {
      "inputs": [],
      "name": "POINTS_CONTRACT",
      "outputs": [
        {
          "internalType": "contract IPoints",
          "name": "",
          "type": "address"
        }
      ],
      "stateMutability": "view",
      "type": "function"
    },
    {
      "inputs": [],
      "name": "__msgData",
      "outputs": [
        {
          "internalType": "bytes",
          "name": "",
          "type": "bytes"
        }
      ],
      "stateMutability": "view",
      "type": "function"
    },
    {
      "inputs": [],
      "name": "__msgSender",
      "outputs": [
        {
          "internalType": "address",
          "name": "",
          "type": "address"
        }
      ],
      "stateMutability": "view",
      "type": "function"
    },
    {
      "inputs": [
        {
          "internalType": "uint256",
          "name": "epochId",
          "type": "uint256"
        },
        {
          "internalType": "address",
          "name": "recipient",
          "type": "address"
        },
        {
          "internalType": "uint256",
          "name": "amount",
          "type": "uint256"
        }
      ],
      "name": "canClaim",
      "outputs": [
        {
          "internalType": "enum LimitedOCPointsMerkleClaim.ClaimError",
          "name": "error",
          "type": "uint8"
        }
      ],
      "stateMutability": "view",
      "type": "function"
    },
    {
      "inputs": [
        {
          "internalType": "uint256",
          "name": "epochId",
          "type": "uint256"
        },
        {
          "internalType": "address",
          "name": "recipient",
          "type": "address"
        },
        {
          "internalType": "uint256",
          "name": "amount",
          "type": "uint256"
        },
        {
          "internalType": "bytes32",
          "name": "reasonCode",
          "type": "bytes32"
        },
        {
          "internalType": "bytes32[]",
          "name": "proof",
          "type": "bytes32[]"
        }
      ],
      "name": "claim",
      "outputs": [],
      "stateMutability": "nonpayable",
      "type": "function"
    },
    {
      "inputs": [
        {
          "internalType": "uint256",
          "name": "",
          "type": "uint256"
        }
      ],
      "name": "claimEpochs",
      "outputs": [
        {
          "internalType": "bytes32",
          "name": "merkleRoot",
          "type": "bytes32"
        },
        {
          "internalType": "uint256",
          "name": "totalAmount",
          "type": "uint256"
        },
        {
          "internalType": "uint256",
          "name": "amountLeft",
          "type": "uint256"
        },
        {
          "internalType": "uint256",
          "name": "startTime",
          "type": "uint256"
        },
        {
          "internalType": "uint256",
          "name": "endTime",
          "type": "uint256"
        }
      ],
      "stateMutability": "view",
      "type": "function"
    },
    {
      "inputs": [
        {
          "internalType": "uint256",
          "name": "",
          "type": "uint256"
        },
        {
          "internalType": "address",
          "name": "",
          "type": "address"
        }
      ],
      "name": "claimed",
      "outputs": [
        {
          "internalType": "bool",
          "name": "",
          "type": "bool"
        }
      ],
      "stateMutability": "view",
      "type": "function"
    },
    {
      "inputs": [],
      "name": "currentEpochId",
      "outputs": [
        {
          "internalType": "uint256",
          "name": "",
          "type": "uint256"
        }
      ],
      "stateMutability": "view",
      "type": "function"
    },
    {
      "inputs": [],
      "name": "forwarderRegistry",
      "outputs": [
        {
          "internalType": "contract IForwarderRegistry",
          "name": "",
          "type": "address"
        }
      ],
      "stateMutability": "view",
      "type": "function"
    },
    {
      "inputs": [
        {
          "internalType": "address",
          "name": "forwarder",
          "type": "address"
        }
      ],
      "name": "isTrustedForwarder",
      "outputs": [
        {
          "internalType": "bool",
          "name": "",
          "type": "bool"
        }
      ],
      "stateMutability": "view",
      "type": "function"
    },
    {
      "inputs": [],
      "name": "owner",
      "outputs": [
        {
          "internalType": "address",
          "name": "",
          "type": "address"
        }
      ],
      "stateMutability": "view",
      "type": "function"
    },
    {
      "inputs": [
        {
          "internalType": "address[]",
          "name": "accounts",
          "type": "address[]"
        },
        {
          "internalType": "contract IERC20[]",
          "name": "tokens",
          "type": "address[]"
        },
        {
          "internalType": "uint256[]",
          "name": "amounts",
          "type": "uint256[]"
        }
      ],
      "name": "recoverERC20s",
      "outputs": [],
      "stateMutability": "nonpayable",
      "type": "function"
    },
    {
      "inputs": [
        {
          "internalType": "address[]",
          "name": "accounts",
          "type": "address[]"
        },
        {
          "internalType": "contract IERC721[]",
          "name": "contracts",
          "type": "address[]"
        },
        {
          "internalType": "uint256[]",
          "name": "tokenIds",
          "type": "uint256[]"
        }
      ],
      "name": "recoverERC721s",
      "outputs": [],
      "stateMutability": "nonpayable",
      "type": "function"
    },
    {
      "inputs": [
        {
          "internalType": "address payable[]",
          "name": "accounts",
          "type": "address[]"
        },
        {
          "internalType": "uint256[]",
          "name": "amounts",
          "type": "uint256[]"
        }
      ],
      "name": "recoverETH",
      "outputs": [],
      "stateMutability": "nonpayable",
      "type": "function"
    },
    {
      "inputs": [
        {
          "internalType": "bytes32",
          "name": "merkleRoot",
          "type": "bytes32"
        },
        {
          "internalType": "uint256",
          "name": "totalAmount",
          "type": "uint256"
        },
        {
          "internalType": "uint256",
          "name": "startTime",
          "type": "uint256"
        },
        {
          "internalType": "uint256",
          "name": "endTime",
          "type": "uint256"
        }
      ],
      "name": "setMerkleRoot",
      "outputs": [],
      "stateMutability": "nonpayable",
      "type": "function"
    },
    {
      "inputs": [
        {
          "internalType": "bytes4",
          "name": "interfaceId",
          "type": "bytes4"
        }
      ],
      "name": "supportsInterface",
      "outputs": [
        {
          "internalType": "bool",
          "name": "",
          "type": "bool"
        }
      ],
      "stateMutability": "view",
      "type": "function"
    },
    {
      "inputs": [
        {
          "internalType": "address",
          "name": "newOwner",
          "type": "address"
        }
      ],
      "name": "transferOwnership",
      "outputs": [],
      "stateMutability": "nonpayable",
      "type": "function"
    }
  ],
  "bytecode": "0x60c06040523480156200001157600080fd5b5060405162001f6e38038062001f6e8339810160408190526200003491620001fc565b81818080336200004f8162000048620000a5565b90620000db565b506001600160a01b03908116608052831690506200008f57604051631aa6c2cd60e31b81526001600160a01b038316600482015260240160405180910390fd5b506001600160a01b031660a052506200025d9050565b600080620000d560017fc9ed16f33ab3a66c84bfd83099ccb2a8845871e2e1c1928f63797152f0fd54cd6200023b565b92915050565b6001600160a01b03811615620001325781546001600160a01b0319166001600160a01b03821690811783556040516000907f8be0079c531659141344cd1fd0a4f28419497f9722a3daafe3b4186f6b6457e0908290a35b620001526307f5828d60e41b60016200014a62000156565b919062000186565b5050565b600080620000d560017fca9d3e17f264b0f3984e2634e94adb37fa3e6a8103f06aeae6fa59e21c769f5e6200023b565b600160e01b6001600160e01b0319831601620001b5576040516372c683bb60e01b815260040160405180910390fd5b6001600160e01b03199190911660009081526020929092526040909120805460ff1916911515919091179055565b6001600160a01b0381168114620001f957600080fd5b50565b600080604083850312156200021057600080fd5b82516200021d81620001e3565b60208401519092506200023081620001e3565b809150509250929050565b81810381811115620000d557634e487b7160e01b600052601160045260246000fd5b60805160a051611cc1620002ad600039600081816101f201526107180152600081816101a80152818161023a01528181611279015281816112b7015281816113ef01526114770152611cc16000f3fe608060405234801561001057600080fd5b50600436106101365760003560e01c806373c8a958116100b2578063d1a91ff211610081578063f2fde38b11610066578063f2fde38b1461035b578063f5b541a61461036e578063f7ba94bd1461039557600080fd5b8063d1a91ff21461033c578063eacdc5ff1461034457600080fd5b806373c8a958146102fb578063833d47b61461030e5780638da5cb5b14610321578063c3666c361461032957600080fd5b80632d4c2f9311610109578063572b6c05116100ee578063572b6c051461022a5780635c9a509b146102775780637124094f146102db57600080fd5b80632d4c2f93146101ed57806331e66e1e1461021457600080fd5b806301ffc9a71461013b578063120aa877146101635780632035a4dd146101915780632b4c9f16146101a6575b600080fd5b61014e6101493660046117d0565b6103a8565b60405190151581526020015b60405180910390f35b61014e610171366004611834565b600260209081526000928352604080842090915290825290205460ff1681565b6101a461019f3660046118b0565b6103c2565b005b7f00000000000000000000000000000000000000000000000000000000000000005b60405173ffffffffffffffffffffffffffffffffffffffff909116815260200161015a565b6101c87f000000000000000000000000000000000000000000000000000000000000000081565b61021c6107dd565b60405161015a929190611923565b61014e610238366004611970565b7f000000000000000000000000000000000000000000000000000000000000000073ffffffffffffffffffffffffffffffffffffffff90811691161490565b6102b361028536600461198d565b6001602081905260009182526040909120805491810154600282015460038301546004909301549192909185565b604080519586526020860194909452928401919091526060830152608082015260a00161015a565b6102ee6102e93660046119a6565b6107f0565b60405161015a91906119de565b6101a4610309366004611a1f565b61089d565b6101a461031c366004611aa7565b6109a1565b6101c8610aa0565b6101a4610337366004611a1f565b610acc565b6101c8610c44565b61034d60005481565b60405190815260200161015a565b6101a4610369366004611970565b610c4e565b61034d7f97667070c54ef182b0f5858b034beac1b6f3089aa2d3188bb1e8929f4fa9b92981565b6101a46103a3366004611ad9565b610c6c565b60006103bc826103b6610d2b565b90610d59565b92915050565b60008681526001602052604090208054610410576040517f07cba261000000000000000000000000000000000000000000000000000000008152600481018890526024015b60405180910390fd5b600381015442908110806104275750816004015481115b1561047b5760038201546004808401546040517fc06e9f3a00000000000000000000000000000000000000000000000000000000815291820184905260248201929092526044810191909152606401610407565b600088815260026020908152604080832073ffffffffffffffffffffffffffffffffffffffff8b16845290915290205460ff1615610512576040517f7635807d00000000000000000000000000000000000000000000000000000000815273ffffffffffffffffffffffffffffffffffffffff88166004820152602481018790526044810186905260648101899052608401610407565b85826002015410156105605760028201546040517f23090a31000000000000000000000000000000000000000000000000000000008152610407918891600401918252602082015260400190565b6040517fffffffffffffffffffffffffffffffffffffffff000000000000000000000000606089901b166020820152603481018790526054810186905260748101899052600090609401604080517fffffffffffffffffffffffffffffffffffffffffffffffffffffffffffffffe0818403018152919052805160209091012083549091506105f3908690869084610e33565b610656576040517fa041b52e00000000000000000000000000000000000000000000000000000000815273ffffffffffffffffffffffffffffffffffffffff891660048201526024810188905260448101879052606481018a9052608401610407565b600089815260026020818152604080842073ffffffffffffffffffffffffffffffffffffffff8d168552909152822080547fffffffffffffffffffffffffffffffffffffffffffffffffffffffffffffff00166001179055840180548992906106c0908490611b45565b90915550506040517f26b3293f00000000000000000000000000000000000000000000000000000000815273ffffffffffffffffffffffffffffffffffffffff898116600483015260248201899052604482018890527f000000000000000000000000000000000000000000000000000000000000000016906326b3293f90606401600060405180830381600087803b15801561075c57600080fd5b505af1158015610770573d6000803e3d6000fd5b505050508773ffffffffffffffffffffffffffffffffffffffff16897ffc6ecd966b430510beae9124efe7dd517ed5286d7ed0ae258f8556c7a9765a448986600201546040516107ca929190918252602082015260400190565b60405180910390a3505050505050505050565b3660006107e8610e4d565b915091509091565b6000838152600160205260408120805461080e576001915050610896565b600381015442908110806108255750816004015481115b1561083557600292505050610896565b600086815260026020908152604080832073ffffffffffffffffffffffffffffffffffffffff8916845290915290205460ff161561087857600392505050610896565b838260020154101561088f57600492505050610896565b6000925050505b9392505050565b6108b66108a8610e58565b6108b0610e62565b90610e90565b8483811415806108c65750808214155b156108fd576040517f6582533600000000000000000000000000000000000000000000000000000000815260040160405180910390fd5b60005b818110156109975761098f88888381811061091d5761091d611b7f565b90506020020160208101906109329190611970565b85858481811061094457610944611b7f565b9050602002013588888581811061095d5761095d611b7f565b90506020020160208101906109729190611970565b73ffffffffffffffffffffffffffffffffffffffff169190610eff565b600101610900565b5050505050505050565b6109ac6108a8610e58565b8082106109ef576040517f779acdff0000000000000000000000000000000000000000000000000000000081526004810183905260248101829052604401610407565b600080546040805160a081018252878152602080820188815282840189815260608085018a815260808087018b8152898b526001808852898c209851895595518887015593516002880155905160038701559151600490950194909455865490910190955582518981529081018890529182018690528101849052909182917f331c648136af10432045d8cc15dfaee6ca9568922f85cab02d96d5f5286c8920910160405180910390a25050505050565b6000610ac7610aad610e62565b5473ffffffffffffffffffffffffffffffffffffffff1690565b905090565b610ad76108a8610e58565b848381141580610ae75750808214155b15610b1e576040517f6582533600000000000000000000000000000000000000000000000000000000815260040160405180910390fd5b60005b8181101561099757858582818110610b3b57610b3b611b7f565b9050602002016020810190610b509190611970565b73ffffffffffffffffffffffffffffffffffffffff166323b872dd308a8a85818110610b7e57610b7e611b7f565b9050602002016020810190610b939190611970565b878786818110610ba557610ba5611b7f565b6040517fffffffff0000000000000000000000000000000000000000000000000000000060e088901b16815273ffffffffffffffffffffffffffffffffffffffff958616600482015294909316602485015250602090910201356044820152606401600060405180830381600087803b158015610c2157600080fd5b505af1158015610c35573d6000803e3d6000fd5b50505050806001019050610b21565b6000610ac7610e58565b610c69610c59610e58565b82610c62610e62565b9190610f91565b50565b610c776108a8610e58565b82818114610cb1576040517f6582533600000000000000000000000000000000000000000000000000000000815260040160405180910390fd5b60005b81811015610d2357610d1b848483818110610cd157610cd1611b7f565b90506020020135878784818110610cea57610cea611b7f565b9050602002016020810190610cff9190611970565b73ffffffffffffffffffffffffffffffffffffffff16906110a6565b600101610cb4565b505050505050565b6000806103bc60017fca9d3e17f264b0f3984e2634e94adb37fa3e6a8103f06aeae6fa59e21c769f5e611b45565b60007c01000000000000000000000000000000000000000000000000000000007fffffffff00000000000000000000000000000000000000000000000000000000831601610da9575060006103bc565b7ffe003659000000000000000000000000000000000000000000000000000000007fffffffff00000000000000000000000000000000000000000000000000000000831601610dfa575060016103bc565b507fffffffff00000000000000000000000000000000000000000000000000000000166000908152602091909152604090205460ff1690565b600082610e41868685611200565b1490505b949350505050565b3660006107e8611242565b6000610ac76113ac565b6000806103bc60017fc9ed16f33ab3a66c84bfd83099ccb2a8845871e2e1c1928f63797152f0fd54cd611b45565b815473ffffffffffffffffffffffffffffffffffffffff828116911614610efb576040517f2ef4875e00000000000000000000000000000000000000000000000000000000815273ffffffffffffffffffffffffffffffffffffffff82166004820152602401610407565b5050565b6040805173ffffffffffffffffffffffffffffffffffffffff8416602482015260448082018490528251808303909101815260649091019091526020810180517bffffffffffffffffffffffffffffffffffffffffffffffffffffffff167fa9059cbb00000000000000000000000000000000000000000000000000000000179052610f8c9084906114f3565b505050565b825473ffffffffffffffffffffffffffffffffffffffff9081169083168114610ffe576040517f2ef4875e00000000000000000000000000000000000000000000000000000000815273ffffffffffffffffffffffffffffffffffffffff84166004820152602401610407565b8173ffffffffffffffffffffffffffffffffffffffff168173ffffffffffffffffffffffffffffffffffffffff16146110a05783547fffffffffffffffffffffffff00000000000000000000000000000000000000001673ffffffffffffffffffffffffffffffffffffffff8381169182178655604051908316907f8be0079c531659141344cd1fd0a4f28419497f9722a3daafe3b4186f6b6457e090600090a35b50505050565b80471015611110576040517f08c379a000000000000000000000000000000000000000000000000000000000815260206004820152601d60248201527f416464726573733a20696e73756666696369656e742062616c616e63650000006044820152606401610407565b60008273ffffffffffffffffffffffffffffffffffffffff168260405160006040518083038185875af1925050503d806000811461116a576040519150601f19603f3d011682016040523d82523d6000602084013e61116f565b606091505b5050905080610f8c576040517f08c379a000000000000000000000000000000000000000000000000000000000815260206004820152603a60248201527f416464726573733a20756e61626c6520746f2073656e642076616c75652c207260448201527f6563697069656e74206d617920686176652072657665727465640000000000006064820152608401610407565b600081815b848110156112395761122f8287878481811061122357611223611b7f565b90506020020135611602565b9150600101611205565b50949350505050565b366000333214806112535750601836105b156112615750600091369150565b3373ffffffffffffffffffffffffffffffffffffffff7f0000000000000000000000000000000000000000000000000000000000000000161480611396575073ffffffffffffffffffffffffffffffffffffffff7f000000000000000000000000000000000000000000000000000000000000000016638929a8ca367fffffffffffffffffffffffffffffffffffffffffffffffffffffffffffffffec013560601c6040517fffffffff0000000000000000000000000000000000000000000000000000000060e084901b16815273ffffffffffffffffffffffffffffffffffffffff9091166004820152336024820152604401602060405180830381865afa158015611372573d6000803e3d6000fd5b505050506040513d601f19601f820116820180604052508101906113969190611bae565b156113a3576107e861162e565b50600091369150565b6000333214806113bc5750601836105b156113c657503390565b7fffffffffffffffffffffffffffffffffffffffffffffffffffffffffffffffec36013560601c7f000000000000000000000000000000000000000000000000000000000000000073ffffffffffffffffffffffffffffffffffffffff163314806114e257506040517f8929a8ca00000000000000000000000000000000000000000000000000000000815273ffffffffffffffffffffffffffffffffffffffff82811660048301523360248301527f00000000000000000000000000000000000000000000000000000000000000001690638929a8ca90604401602060405180830381865afa1580156114be573d6000803e3d6000fd5b505050506040513d601f19601f820116820180604052508101906114e29190611bae565b156114ec57919050565b3391505090565b6000611555826040518060400160405280602081526020017f5361666545524332303a206c6f772d6c6576656c2063616c6c206661696c65648152508573ffffffffffffffffffffffffffffffffffffffff1661165f9092919063ffffffff16565b90508051600014806115765750808060200190518101906115769190611bae565b610f8c576040517f08c379a000000000000000000000000000000000000000000000000000000000815260206004820152602a60248201527f5361666545524332303a204552433230206f7065726174696f6e20646964206e60448201527f6f742073756363656564000000000000000000000000000000000000000000006064820152608401610407565b600081831061161e576000828152602084905260409020610896565b5060009182526020526040902090565b3660006107e87fffffffffffffffffffffffffffffffffffffffffffffffffffffffffffffffec8301828481611bd0565b6060610e458484600085856000808673ffffffffffffffffffffffffffffffffffffffff1685876040516116939190611c1e565b60006040518083038185875af1925050503d80600081146116d0576040519150601f19603f3d011682016040523d82523d6000602084013e6116d5565b606091505b50915091506116e6878383876116f1565b979650505050505050565b606083156117875782516000036117805773ffffffffffffffffffffffffffffffffffffffff85163b611780576040517f08c379a000000000000000000000000000000000000000000000000000000000815260206004820152601d60248201527f416464726573733a2063616c6c20746f206e6f6e2d636f6e74726163740000006044820152606401610407565b5081610e45565b610e45838381511561179c5781518083602001fd5b806040517f08c379a00000000000000000000000000000000000000000000000000000000081526004016104079190611c3a565b6000602082840312156117e257600080fd5b81357fffffffff000000000000000000000000000000000000000000000000000000008116811461089657600080fd5b73ffffffffffffffffffffffffffffffffffffffff81168114610c6957600080fd5b6000806040838503121561184757600080fd5b82359150602083013561185981611812565b809150509250929050565b60008083601f84011261187657600080fd5b50813567ffffffffffffffff81111561188e57600080fd5b6020830191508360208260051b85010111156118a957600080fd5b9250929050565b60008060008060008060a087890312156118c957600080fd5b8635955060208701356118db81611812565b94506040870135935060608701359250608087013567ffffffffffffffff81111561190557600080fd5b61191189828a01611864565b979a9699509497509295939492505050565b60208152816020820152818360408301376000818301604090810191909152601f9092017fffffffffffffffffffffffffffffffffffffffffffffffffffffffffffffffe0160101919050565b60006020828403121561198257600080fd5b813561089681611812565b60006020828403121561199f57600080fd5b5035919050565b6000806000606084860312156119bb57600080fd5b8335925060208401356119cd81611812565b929592945050506040919091013590565b6020810160058310611a19577f4e487b7100000000000000000000000000000000000000000000000000000000600052602160045260246000fd5b91905290565b60008060008060008060608789031215611a3857600080fd5b863567ffffffffffffffff80821115611a5057600080fd5b611a5c8a838b01611864565b90985096506020890135915080821115611a7557600080fd5b611a818a838b01611864565b90965094506040890135915080821115611a9a57600080fd5b5061191189828a01611864565b60008060008060808587031215611abd57600080fd5b5050823594602084013594506040840135936060013592509050565b60008060008060408587031215611aef57600080fd5b843567ffffffffffffffff80821115611b0757600080fd5b611b1388838901611864565b90965094506020870135915080821115611b2c57600080fd5b50611b3987828801611864565b95989497509550505050565b818103818111156103bc577f4e487b7100000000000000000000000000000000000000000000000000000000600052601160045260246000fd5b7f4e487b7100000000000000000000000000000000000000000000000000000000600052603260045260246000fd5b600060208284031215611bc057600080fd5b8151801515811461089657600080fd5b60008085851115611be057600080fd5b83861115611bed57600080fd5b5050820193919092039150565b60005b83811015611c15578181015183820152602001611bfd565b50506000910152565b60008251611c30818460208701611bfa565b9190910192915050565b6020815260008251806020840152611c59816040850160208701611bfa565b601f017fffffffffffffffffffffffffffffffffffffffffffffffffffffffffffffffe016919091016040019291505056fea2646970667358221220c9df6d329720fe94f582008bba2e067a5159761f2f7a3d53ffc40cbf24e3540264736f6c63430008160033",
  "linkReferences": {},
  "deployedLinkReferences": {}
}