{
  "_format": "hh-sol-artifact-1",
  "contractName": "OCPointMerkleClaim",
  "sourceName": "contracts/payment/OCPointMerkleClaim.sol",
  "abi": [
    {
      "inputs": [
        {
          "internalType": "address",
          "name": "ocPointContractAddress",
          "type": "address"
        },
        {
          "internalType": "contract IForwarderRegistry",
          "name": "forwarderRegistry",
          "type": "address"
        }
      ],
      "stateMutability": "nonpayable",
      "type": "constructor"
    },
    {
      "inputs": [
        {
          "internalType": "address",
          "name": "recipient",
          "type": "address"
        },
        {
          "internalType": "uint256[]",
          "name": "amounts",
          "type": "uint256[]"
        },
        {
          "internalType": "bytes32[]",
          "name": "depositReasonCodes",
          "type": "bytes32[]"
        },
        {
          "internalType": "uint256",
          "name": "treeCounter",
          "type": "uint256"
        }
      ],
      "name": "AlreadyClaimed",
      "type": "error"
    },
    {
      "inputs": [],
      "name": "IllegalInterfaceId",
      "type": "error"
    },
    {
      "inputs": [],
      "name": "InconsistentArrayLengths",
      "type": "error"
    },
    {
      "inputs": [
        {
          "internalType": "address",
          "name": "invalidOCPointContractAddress",
          "type": "address"
        }
      ],
      "name": "InvalidOCPointContractAddress",
      "type": "error"
    },
    {
      "inputs": [
        {
          "internalType": "address",
          "name": "recipient",
          "type": "address"
        },
        {
          "internalType": "uint256[]",
          "name": "amounts",
          "type": "uint256[]"
        },
        {
          "internalType": "bytes32[]",
          "name": "depositReasonCodes",
          "type": "bytes32[]"
        },
        {
          "internalType": "uint256",
          "name": "treeCounter",
          "type": "uint256"
        }
      ],
      "name": "InvalidProof",
      "type": "error"
    },
    {
      "inputs": [
        {
          "internalType": "address",
          "name": "account",
          "type": "address"
        }
      ],
      "name": "NotContractOwner",
      "type": "error"
    },
    {
      "inputs": [],
      "name": "NotPaused",
      "type": "error"
    },
    {
      "inputs": [
        {
          "internalType": "bytes32",
          "name": "role",
          "type": "bytes32"
        },
        {
          "internalType": "address",
          "name": "account",
          "type": "address"
        }
      ],
      "name": "NotRoleHolder",
      "type": "error"
    },
    {
      "inputs": [],
      "name": "Paused",
      "type": "error"
    },
    {
      "anonymous": false,
      "inputs": [
        {
          "indexed": false,
          "internalType": "bytes32",
          "name": "root",
          "type": "bytes32"
        }
      ],
      "name": "MerkleRootSet",
      "type": "event"
    },
    {
      "anonymous": false,
      "inputs": [
        {
          "indexed": true,
          "internalType": "address",
          "name": "previousOwner",
          "type": "address"
        },
        {
          "indexed": true,
          "internalType": "address",
          "name": "newOwner",
          "type": "address"
        }
      ],
      "name": "OwnershipTransferred",
      "type": "event"
    },
    {
      "anonymous": false,
      "inputs": [],
      "name": "Pause",
      "type": "event"
    },
    {
      "anonymous": false,
      "inputs": [
        {
          "indexed": true,
          "internalType": "bytes32",
          "name": "root",
          "type": "bytes32"
        },
        {
          "indexed": true,
          "internalType": "address",
          "name": "recipient",
          "type": "address"
        },
        {
          "indexed": false,
          "internalType": "uint256[]",
          "name": "amounts",
          "type": "uint256[]"
        },
        {
          "indexed": false,
          "internalType": "bytes32[]",
          "name": "depositReasonCodes",
          "type": "bytes32[]"
        },
        {
          "indexed": false,
          "internalType": "uint256",
          "name": "treeCounter",
          "type": "uint256"
        }
      ],
      "name": "PayoutClaimed",
      "type": "event"
    },
    {
      "anonymous": false,
      "inputs": [
        {
          "indexed": false,
          "internalType": "bytes32",
          "name": "role",
          "type": "bytes32"
        },
        {
          "indexed": false,
          "internalType": "address",
          "name": "account",
          "type": "address"
        },
        {
          "indexed": false,
          "internalType": "address",
          "name": "operator",
          "type": "address"
        }
      ],
      "name": "RoleGranted",
      "type": "event"
    },
    {
      "anonymous": false,
      "inputs": [
        {
          "indexed": false,
          "internalType": "bytes32",
          "name": "role",
          "type": "bytes32"
        },
        {
          "indexed": false,
          "internalType": "address",
          "name": "account",
          "type": "address"
        },
        {
          "indexed": false,
          "internalType": "address",
          "name": "operator",
          "type": "address"
        }
      ],
      "name": "RoleRevoked",
      "type": "event"
    },
    {
      "anonymous": false,
      "inputs": [],
      "name": "Unpause",
      "type": "event"
    },
    {
      "inputs": [],
      "name": "OCPoint",
      "outputs": [
        {
          "internalType": "contract IPoints",
          "name": "",
          "type": "address"
        }
      ],
      "stateMutability": "view",
      "type": "function"
    },
    {
      "inputs": [],
      "name": "OPERATOR_ROLE",
      "outputs": [
        {
          "internalType": "bytes32",
          "name": "",
          "type": "bytes32"
        }
      ],
      "stateMutability": "view",
      "type": "function"
    },
    {
      "inputs": [
        {
          "internalType": "address",
          "name": "recipient",
          "type": "address"
        },
        {
          "internalType": "uint256[]",
          "name": "amounts",
          "type": "uint256[]"
        },
        {
          "internalType": "bytes32[]",
          "name": "depositReasonCodes",
          "type": "bytes32[]"
        },
        {
          "internalType": "bytes32[]",
          "name": "proof",
          "type": "bytes32[]"
        }
      ],
      "name": "claimPayout",
      "outputs": [],
      "stateMutability": "nonpayable",
      "type": "function"
    },
    {
      "inputs": [
        {
          "internalType": "bytes32",
          "name": "",
          "type": "bytes32"
        }
      ],
      "name": "claimed",
      "outputs": [
        {
          "internalType": "bool",
          "name": "",
          "type": "bool"
        }
      ],
      "stateMutability": "view",
      "type": "function"
    },
    {
      "inputs": [],
      "name": "forwarderRegistry",
      "outputs": [
        {
          "internalType": "contract IForwarderRegistry",
          "name": "",
          "type": "address"
        }
      ],
      "stateMutability": "view",
      "type": "function"
    },
    {
      "inputs": [
        {
          "internalType": "bytes32",
          "name": "role",
          "type": "bytes32"
        },
        {
          "internalType": "address",
          "name": "account",
          "type": "address"
        }
      ],
      "name": "grantRole",
      "outputs": [],
      "stateMutability": "nonpayable",
      "type": "function"
    },
    {
      "inputs": [
        {
          "internalType": "bytes32",
          "name": "role",
          "type": "bytes32"
        },
        {
          "internalType": "address",
          "name": "account",
          "type": "address"
        }
      ],
      "name": "hasRole",
      "outputs": [
        {
          "internalType": "bool",
          "name": "hasRole_",
          "type": "bool"
        }
      ],
      "stateMutability": "view",
      "type": "function"
    },
    {
      "inputs": [
        {
          "internalType": "address",
          "name": "forwarder",
          "type": "address"
        }
      ],
      "name": "isTrustedForwarder",
      "outputs": [
        {
          "internalType": "bool",
          "name": "",
          "type": "bool"
        }
      ],
      "stateMutability": "view",
      "type": "function"
    },
    {
      "inputs": [],
      "name": "owner",
      "outputs": [
        {
          "internalType": "address",
          "name": "",
          "type": "address"
        }
      ],
      "stateMutability": "view",
      "type": "function"
    },
    {
      "inputs": [],
      "name": "pause",
      "outputs": [],
      "stateMutability": "nonpayable",
      "type": "function"
    },
    {
      "inputs": [],
      "name": "paused",
      "outputs": [
        {
          "internalType": "bool",
          "name": "",
          "type": "bool"
        }
      ],
      "stateMutability": "view",
      "type": "function"
    },
    {
      "inputs": [
        {
          "internalType": "address[]",
          "name": "accounts",
          "type": "address[]"
        },
        {
          "internalType": "contract IERC20[]",
          "name": "tokens",
          "type": "address[]"
        },
        {
          "internalType": "uint256[]",
          "name": "amounts",
          "type": "uint256[]"
        }
      ],
      "name": "recoverERC20s",
      "outputs": [],
      "stateMutability": "nonpayable",
      "type": "function"
    },
    {
      "inputs": [
        {
          "internalType": "address[]",
          "name": "accounts",
          "type": "address[]"
        },
        {
          "internalType": "contract IERC721[]",
          "name": "contracts",
          "type": "address[]"
        },
        {
          "internalType": "uint256[]",
          "name": "tokenIds",
          "type": "uint256[]"
        }
      ],
      "name": "recoverERC721s",
      "outputs": [],
      "stateMutability": "nonpayable",
      "type": "function"
    },
    {
      "inputs": [
        {
          "internalType": "address payable[]",
          "name": "accounts",
          "type": "address[]"
        },
        {
          "internalType": "uint256[]",
          "name": "amounts",
          "type": "uint256[]"
        }
      ],
      "name": "recoverETH",
      "outputs": [],
      "stateMutability": "nonpayable",
      "type": "function"
    },
    {
      "inputs": [
        {
          "internalType": "bytes32",
          "name": "role",
          "type": "bytes32"
        }
      ],
      "name": "renounceRole",
      "outputs": [],
      "stateMutability": "nonpayable",
      "type": "function"
    },
    {
      "inputs": [
        {
          "internalType": "bytes32",
          "name": "role",
          "type": "bytes32"
        },
        {
          "internalType": "address",
          "name": "account",
          "type": "address"
        }
      ],
      "name": "revokeRole",
      "outputs": [],
      "stateMutability": "nonpayable",
      "type": "function"
    },
    {
      "inputs": [],
      "name": "root",
      "outputs": [
        {
          "internalType": "bytes32",
          "name": "",
          "type": "bytes32"
        }
      ],
      "stateMutability": "view",
      "type": "function"
    },
    {
      "inputs": [
        {
          "internalType": "bytes32",
          "name": "merkleRoot",
          "type": "bytes32"
        }
      ],
      "name": "setMerkleRoot",
      "outputs": [],
      "stateMutability": "nonpayable",
      "type": "function"
    },
    {
      "inputs": [
        {
          "internalType": "bytes4",
          "name": "interfaceId",
          "type": "bytes4"
        }
      ],
      "name": "supportsInterface",
      "outputs": [
        {
          "internalType": "bool",
          "name": "",
          "type": "bool"
        }
      ],
      "stateMutability": "view",
      "type": "function"
    },
    {
      "inputs": [
        {
          "internalType": "address",
          "name": "newOwner",
          "type": "address"
        }
      ],
      "name": "transferOwnership",
      "outputs": [],
      "stateMutability": "nonpayable",
      "type": "function"
    },
    {
      "inputs": [],
      "name": "treeCounter",
      "outputs": [
        {
          "internalType": "uint256",
          "name": "",
          "type": "uint256"
        }
      ],
      "stateMutability": "view",
      "type": "function"
    },
    {
      "inputs": [],
      "name": "unpause",
      "outputs": [],
      "stateMutability": "nonpayable",
      "type": "function"
    }
  ],
  "bytecode": "0x60c06040523480156200001157600080fd5b50604051620022953803806200229583398101604081905262000034916200027f565b8080336200004d8162000046620000b9565b90620000ef565b506001600160a01b03908116608052831690506200008d5760405163743638c560e01b81526001600160a01b038316600482015260240160405180910390fd5b6001600160a01b03821660a052620000b16001620000aa6200016a565b906200019a565b5050620002e0565b600080620000e960017fc9ed16f33ab3a66c84bfd83099ccb2a8845871e2e1c1928f63797152f0fd54cd620002be565b92915050565b6001600160a01b03811615620001465781546001600160a01b0319166001600160a01b03821690811783556040516000907f8be0079c531659141344cd1fd0a4f28419497f9722a3daafe3b4186f6b6457e0908290a35b620001666307f5828d60e41b60016200015e620001d9565b919062000209565b5050565b600080620000e960017f0186a05f63b1553398ad5ea3233c0ce68b8c9eecc47717f123c5c2b42fbd6d9f620002be565b80156200016657815460ff191660011782556040517f6985a02210a168e66602d3235cb6db0e70f92b3ba4d376a33c0f3d9434bff62590600090a15050565b600080620000e960017fca9d3e17f264b0f3984e2634e94adb37fa3e6a8103f06aeae6fa59e21c769f5e620002be565b600160e01b6001600160e01b031983160162000238576040516372c683bb60e01b815260040160405180910390fd5b6001600160e01b03199190911660009081526020929092526040909120805460ff1916911515919091179055565b6001600160a01b03811681146200027c57600080fd5b50565b600080604083850312156200029357600080fd5b8251620002a08162000266565b6020840151909250620002b38162000266565b809150509250929050565b81810381811115620000e957634e487b7160e01b600052601160045260246000fd5b60805160a051611f7362000322600039600081816102e0015261074a0152600081816101c80152818161023a0152818161152101526115a90152611f736000f3fe608060405234801561001057600080fd5b50600436106101825760003560e01c80638bb9c5bf116100d8578063cc3c0f061161008c578063f2fde38b11610066578063f2fde38b14610367578063f5b541a61461037a578063f7ba94bd146103a157600080fd5b8063cc3c0f0614610328578063d547741f1461034b578063ebf0c7171461035e57600080fd5b80638fad7df3116100bd5780638fad7df3146102db57806391d1485414610302578063c3666c361461031557600080fd5b80638bb9c5bf146102c05780638da5cb5b146102d357600080fd5b8063572b6c051161013a5780637cb64759116101145780637cb647591461029257806383d0365f146102a55780638456cb59146102b857600080fd5b8063572b6c051461022a5780635c975abb1461027757806373c8a9581461027f57600080fd5b80632b4c9f161161016b5780632b4c9f16146101c65780632f2ff15d1461020d5780633f4ba83a1461022257600080fd5b806301ffc9a7146101875780632a5d085d146101af575b600080fd5b61019a6101953660046119e7565b6103b4565b60405190151581526020015b60405180910390f35b6101b860015481565b6040519081526020016101a6565b7f00000000000000000000000000000000000000000000000000000000000000005b60405173ffffffffffffffffffffffffffffffffffffffff90911681526020016101a6565b61022061021b366004611a4b565b6103ce565b005b610220610407565b61019a610238366004611a7b565b7f000000000000000000000000000000000000000000000000000000000000000073ffffffffffffffffffffffffffffffffffffffff90811691161490565b61019a610454565b61022061028d366004611ae4565b61046d565b6102206102a0366004611b7e565b61056b565b6102206102b3366004611b97565b6105b6565b6102206108b2565b6102206102ce366004611b7e565b6108ee565b6101e861090c565b6101e87f000000000000000000000000000000000000000000000000000000000000000081565b61019a610310366004611a4b565b610933565b610220610323366004611ae4565b61097e565b61019a610336366004611b7e565b60026020526000908152604090205460ff1681565b610220610359366004611a4b565b610af6565b6101b860005481565b610220610375366004611a7b565b610b24565b6101b87f97667070c54ef182b0f5858b034beac1b6f3089aa2d3188bb1e8929f4fa9b92981565b6102206103af366004611c44565b610b3f565b60006103c8826103c2610bfe565b90610c2c565b92915050565b60006103d8610d06565b90506103ec816103e6610d10565b90610d3e565b6104028383836103fa610dad565b929190610ddb565b505050565b6104427f97667070c54ef182b0f5858b034beac1b6f3089aa2d3188bb1e8929f4fa9b929610433610d06565b61043b610dad565b9190610eb2565b61045261044d610f38565b610f66565b565b6000610468610461610f38565b5460ff1690565b905090565b610480610478610d06565b6103e6610d10565b8483811415806104905750808214155b156104c7576040517f6582533600000000000000000000000000000000000000000000000000000000815260040160405180910390fd5b60005b81811015610561576105598888838181106104e7576104e7611cb0565b90506020020160208101906104fc9190611a7b565b85858481811061050e5761050e611cb0565b9050602002013588888581811061052757610527611cb0565b905060200201602081019061053c9190611a7b565b73ffffffffffffffffffffffffffffffffffffffff169190610fc1565b6001016104ca565b5050505050505050565b610573610407565b600081905560018054810190556040518181527f42cbc405e4dbf1b691e85b9a34b08ecfcf7a9ad9078bf4d645ccfa1fac11c10b9060200160405180910390a150565b6105c66105c1610f38565b61104e565b8483146105ff576040517f6582533600000000000000000000000000000000000000000000000000000000815260040160405180910390fd5b6000805460015460405191929091610625908b908b908b908b908b908890602001611d21565b604080517fffffffffffffffffffffffffffffffffffffffffffffffffffffffffffffffe081840301815291815281516020928301206000818152600290935291205490915060ff16156106ba578989898989866040517fd1f8ed140000000000000000000000000000000000000000000000000000000081526004016106b196959493929190611dbf565b60405180910390fd5b6106c68585858461108a565b610708578989898989866040517ff7df00bc0000000000000000000000000000000000000000000000000000000081526004016106b196959493929190611dbf565b600081815260026020526040812080547fffffffffffffffffffffffffffffffffffffffffffffffffffffffffffffff001660011790555b8881101561084e577f000000000000000000000000000000000000000000000000000000000000000073ffffffffffffffffffffffffffffffffffffffff166326b3293f8c8c8c8581811061079757610797611cb0565b905060200201358b8b868181106107b0576107b0611cb0565b6040517fffffffff0000000000000000000000000000000000000000000000000000000060e088901b16815273ffffffffffffffffffffffffffffffffffffffff9095166004860152602485019390935250602090910201356044820152606401600060405180830381600087803b15801561082b57600080fd5b505af115801561083f573d6000803e3d6000fd5b50505050806001019050610740565b508973ffffffffffffffffffffffffffffffffffffffff16837fa07eb2b1b10609fd93c36ce28bb2e2615ab86d999a48269a9253553a64a45f3b8b8b8b8b8860405161089e959493929190611e16565b60405180910390a350505050505050505050565b6108de7f97667070c54ef182b0f5858b034beac1b6f3089aa2d3188bb1e8929f4fa9b929610433610d06565b6104526108e9610f38565b6110a4565b6109096108f9610d06565b82610902610dad565b9190611102565b50565b6000610468610919610d10565b5473ffffffffffffffffffffffffffffffffffffffff1690565b60006109778383610942610dad565b60009283526020908152604080842073ffffffffffffffffffffffffffffffffffffffff909316845291905290205460ff1690565b9392505050565b610989610478610d06565b8483811415806109995750808214155b156109d0576040517f6582533600000000000000000000000000000000000000000000000000000000815260040160405180910390fd5b60005b81811015610561578585828181106109ed576109ed611cb0565b9050602002016020810190610a029190611a7b565b73ffffffffffffffffffffffffffffffffffffffff166323b872dd308a8a85818110610a3057610a30611cb0565b9050602002016020810190610a459190611a7b565b878786818110610a5757610a57611cb0565b6040517fffffffff0000000000000000000000000000000000000000000000000000000060e088901b16815273ffffffffffffffffffffffffffffffffffffffff958616600482015294909316602485015250602090910201356044820152606401600060405180830381600087803b158015610ad357600080fd5b505af1158015610ae7573d6000803e3d6000fd5b505050508060010190506109d3565b6000610b00610d06565b9050610b0e816103e6610d10565b610402838383610b1c610dad565b9291906111a6565b610909610b2f610d06565b82610b38610d10565b9190611270565b610b4a610478610d06565b82818114610b84576040517f6582533600000000000000000000000000000000000000000000000000000000815260040160405180910390fd5b60005b81811015610bf657610bee848483818110610ba457610ba4611cb0565b90506020020135878784818110610bbd57610bbd611cb0565b9050602002016020810190610bd29190611a7b565b73ffffffffffffffffffffffffffffffffffffffff1690611384565b600101610b87565b505050505050565b6000806103c860017fca9d3e17f264b0f3984e2634e94adb37fa3e6a8103f06aeae6fa59e21c769f5e611e50565b60007c01000000000000000000000000000000000000000000000000000000007fffffffff00000000000000000000000000000000000000000000000000000000831601610c7c575060006103c8565b7ffe003659000000000000000000000000000000000000000000000000000000007fffffffff00000000000000000000000000000000000000000000000000000000831601610ccd575060016103c8565b507fffffffff00000000000000000000000000000000000000000000000000000000166000908152602091909152604090205460ff1690565b60006104686114de565b6000806103c860017fc9ed16f33ab3a66c84bfd83099ccb2a8845871e2e1c1928f63797152f0fd54cd611e50565b815473ffffffffffffffffffffffffffffffffffffffff828116911614610da9576040517f2ef4875e00000000000000000000000000000000000000000000000000000000815273ffffffffffffffffffffffffffffffffffffffff821660048201526024016106b1565b5050565b6000806103c860017fc8827d3282af6f37b64c3e9e6f3ac9df286ab0bb0fccd6f8661bf19adb368b23611e50565b60008381526020858152604080832073ffffffffffffffffffffffffffffffffffffffff8616845290915290205460ff16610eac5760008381526020858152604080832073ffffffffffffffffffffffffffffffffffffffff8681168086529184529382902080547fffffffffffffffffffffffffffffffffffffffffffffffffffffffffffffff00166001179055815187815292830152918316918101919091527f2f8788117e7eff1d82e926ec794901d17c78024a50270940304540a733656f0d906060015b60405180910390a15b50505050565b60008281526020848152604080832073ffffffffffffffffffffffffffffffffffffffff8516845290915290205460ff16610402576040517f7aa728820000000000000000000000000000000000000000000000000000000081526004810183905273ffffffffffffffffffffffffffffffffffffffff821660248201526044016106b1565b6000806103c860017f0186a05f63b1553398ad5ea3233c0ce68b8c9eecc47717f123c5c2b42fbd6d9f611e50565b610f6f81611625565b80547fffffffffffffffffffffffffffffffffffffffffffffffffffffffffffffff001681556040517f7805862f689e2f13df9f062ff482ad3ad112aca9e0847911ed832e158c525b3390600090a150565b6040805173ffffffffffffffffffffffffffffffffffffffff8416602482015260448082018490528251808303909101815260649091019091526020810180517bffffffffffffffffffffffffffffffffffffffffffffffffffffffff167fa9059cbb00000000000000000000000000000000000000000000000000000000179052610402908490611660565b805460ff1615610909576040517f9e87fac800000000000000000000000000000000000000000000000000000000815260040160405180910390fd5b60008261109886868561176f565b1490505b949350505050565b6110ad8161104e565b80547fffffffffffffffffffffffffffffffffffffffffffffffffffffffffffffff001660011781556040517f6985a02210a168e66602d3235cb6db0e70f92b3ba4d376a33c0f3d9434bff62590600090a150565b61110d838284610eb2565b60008181526020848152604080832073ffffffffffffffffffffffffffffffffffffffff86168085529083529281902080547fffffffffffffffffffffffffffffffffffffffffffffffffffffffffffffff0016905580518481529182018390528101919091527ff6391f5c32d9c69d2a47ea670b442974b53935d1edc7fd64eb21e047a839171b9060600160405180910390a1505050565b60008381526020858152604080832073ffffffffffffffffffffffffffffffffffffffff8616845290915290205460ff1615610eac5760008381526020858152604080832073ffffffffffffffffffffffffffffffffffffffff8681168086529184529382902080547fffffffffffffffffffffffffffffffffffffffffffffffffffffffffffffff00169055815187815292830152918316918101919091527ff6391f5c32d9c69d2a47ea670b442974b53935d1edc7fd64eb21e047a839171b90606001610ea3565b825473ffffffffffffffffffffffffffffffffffffffff90811690831681146112dd576040517f2ef4875e00000000000000000000000000000000000000000000000000000000815273ffffffffffffffffffffffffffffffffffffffff841660048201526024016106b1565b8173ffffffffffffffffffffffffffffffffffffffff168173ffffffffffffffffffffffffffffffffffffffff1614610eac5783547fffffffffffffffffffffffff00000000000000000000000000000000000000001673ffffffffffffffffffffffffffffffffffffffff8381169182178655604051908316907f8be0079c531659141344cd1fd0a4f28419497f9722a3daafe3b4186f6b6457e090600090a350505050565b804710156113ee576040517f08c379a000000000000000000000000000000000000000000000000000000000815260206004820152601d60248201527f416464726573733a20696e73756666696369656e742062616c616e636500000060448201526064016106b1565b60008273ffffffffffffffffffffffffffffffffffffffff168260405160006040518083038185875af1925050503d8060008114611448576040519150601f19603f3d011682016040523d82523d6000602084013e61144d565b606091505b5050905080610402576040517f08c379a000000000000000000000000000000000000000000000000000000000815260206004820152603a60248201527f416464726573733a20756e61626c6520746f2073656e642076616c75652c207260448201527f6563697069656e74206d6179206861766520726576657274656400000000000060648201526084016106b1565b6000333214806114ee5750601836105b156114f857503390565b7fffffffffffffffffffffffffffffffffffffffffffffffffffffffffffffffec36013560601c7f000000000000000000000000000000000000000000000000000000000000000073ffffffffffffffffffffffffffffffffffffffff1633148061161457506040517f8929a8ca00000000000000000000000000000000000000000000000000000000815273ffffffffffffffffffffffffffffffffffffffff82811660048301523360248301527f00000000000000000000000000000000000000000000000000000000000000001690638929a8ca90604401602060405180830381865afa1580156115f0573d6000803e3d6000fd5b505050506040513d601f19601f820116820180604052508101906116149190611e8a565b1561161e57919050565b3391505090565b805460ff16610909576040517f6cd6020100000000000000000000000000000000000000000000000000000000815260040160405180910390fd5b60006116c2826040518060400160405280602081526020017f5361666545524332303a206c6f772d6c6576656c2063616c6c206661696c65648152508573ffffffffffffffffffffffffffffffffffffffff166117b19092919063ffffffff16565b90508051600014806116e35750808060200190518101906116e39190611e8a565b610402576040517f08c379a000000000000000000000000000000000000000000000000000000000815260206004820152602a60248201527f5361666545524332303a204552433230206f7065726174696f6e20646964206e60448201527f6f7420737563636565640000000000000000000000000000000000000000000060648201526084016106b1565b600081815b848110156117a85761179e8287878481811061179257611792611cb0565b905060200201356117c0565b9150600101611774565b50949350505050565b606061109c84846000856117ef565b60008183106117dc576000828152602084905260409020610977565b6000838152602083905260409020610977565b606082471015611881576040517f08c379a000000000000000000000000000000000000000000000000000000000815260206004820152602660248201527f416464726573733a20696e73756666696369656e742062616c616e636520666f60448201527f722063616c6c000000000000000000000000000000000000000000000000000060648201526084016106b1565b6000808673ffffffffffffffffffffffffffffffffffffffff1685876040516118aa9190611ed0565b60006040518083038185875af1925050503d80600081146118e7576040519150601f19603f3d011682016040523d82523d6000602084013e6118ec565b606091505b50915091506118fd87838387611908565b979650505050505050565b6060831561199e5782516000036119975773ffffffffffffffffffffffffffffffffffffffff85163b611997576040517f08c379a000000000000000000000000000000000000000000000000000000000815260206004820152601d60248201527f416464726573733a2063616c6c20746f206e6f6e2d636f6e747261637400000060448201526064016106b1565b508161109c565b61109c83838151156119b35781518083602001fd5b806040517f08c379a00000000000000000000000000000000000000000000000000000000081526004016106b19190611eec565b6000602082840312156119f957600080fd5b81357fffffffff000000000000000000000000000000000000000000000000000000008116811461097757600080fd5b73ffffffffffffffffffffffffffffffffffffffff8116811461090957600080fd5b60008060408385031215611a5e57600080fd5b823591506020830135611a7081611a29565b809150509250929050565b600060208284031215611a8d57600080fd5b813561097781611a29565b60008083601f840112611aaa57600080fd5b50813567ffffffffffffffff811115611ac257600080fd5b6020830191508360208260051b8501011115611add57600080fd5b9250929050565b60008060008060008060608789031215611afd57600080fd5b863567ffffffffffffffff80821115611b1557600080fd5b611b218a838b01611a98565b90985096506020890135915080821115611b3a57600080fd5b611b468a838b01611a98565b90965094506040890135915080821115611b5f57600080fd5b50611b6c89828a01611a98565b979a9699509497509295939492505050565b600060208284031215611b9057600080fd5b5035919050565b60008060008060008060006080888a031215611bb257600080fd5b8735611bbd81611a29565b9650602088013567ffffffffffffffff80821115611bda57600080fd5b611be68b838c01611a98565b909850965060408a0135915080821115611bff57600080fd5b611c0b8b838c01611a98565b909650945060608a0135915080821115611c2457600080fd5b50611c318a828b01611a98565b989b979a50959850939692959293505050565b60008060008060408587031215611c5a57600080fd5b843567ffffffffffffffff80821115611c7257600080fd5b611c7e88838901611a98565b90965094506020870135915080821115611c9757600080fd5b50611ca487828801611a98565b95989497509550505050565b7f4e487b7100000000000000000000000000000000000000000000000000000000600052603260045260246000fd5b60007f07ffffffffffffffffffffffffffffffffffffffffffffffffffffffffffffff831115611d0e57600080fd5b8260051b80838637939093019392505050565b7fffffffffffffffffffffffffffffffffffffffff0000000000000000000000008760601b1681526000611d63611d5c60148401888a611cdf565b8587611cdf565b928352505060200195945050505050565b81835260007f07ffffffffffffffffffffffffffffffffffffffffffffffffffffffffffffff831115611da657600080fd5b8260051b80836020870137939093016020019392505050565b73ffffffffffffffffffffffffffffffffffffffff87168152608060208201526000611def608083018789611d74565b8281036040840152611e02818688611d74565b915050826060830152979650505050505050565b606081526000611e2a606083018789611d74565b8281036020840152611e3d818688611d74565b9150508260408301529695505050505050565b818103818111156103c8577f4e487b7100000000000000000000000000000000000000000000000000000000600052601160045260246000fd5b600060208284031215611e9c57600080fd5b8151801515811461097757600080fd5b60005b83811015611ec7578181015183820152602001611eaf565b50506000910152565b60008251611ee2818460208701611eac565b9190910192915050565b6020815260008251806020840152611f0b816040850160208701611eac565b601f017fffffffffffffffffffffffffffffffffffffffffffffffffffffffffffffffe016919091016040019291505056fea2646970667358221220411f47bc92b6eefce19564b213be88cbf421f7e55ecafee6f2368784558d702c64736f6c63430008160033",
  "linkReferences": {},
  "deployedLinkReferences": {}
}