{
  "_format": "hh-sol-artifact-1",
  "contractName": "PublisherNFTEscrow",
  "sourceName": "contracts/escrow/PublisherNFTEscrow.sol",
  "abi": [
    {
      "inputs": [
        {
          "internalType": "address[]",
          "name": "supportedInventories_",
          "type": "address[]"
        },
        {
          "internalType": "contract IForwarderRegistry",
          "name": "forwarderRegistry",
          "type": "address"
        }
      ],
      "stateMutability": "nonpayable",
      "type": "constructor"
    },
    {
      "inputs": [],
      "name": "IllegalInterfaceId",
      "type": "error"
    },
    {
      "inputs": [],
      "name": "InconsistentArrayLengths",
      "type": "error"
    },
    {
      "inputs": [
        {
          "internalType": "address",
          "name": "account",
          "type": "address"
        }
      ],
      "name": "NotContractOwner",
      "type": "error"
    },
    {
      "inputs": [
        {
          "internalType": "address",
          "name": "inventory",
          "type": "address"
        },
        {
          "internalType": "uint256",
          "name": "id",
          "type": "uint256"
        }
      ],
      "name": "NotEscrowed",
      "type": "error"
    },
    {
      "inputs": [
        {
          "internalType": "address",
          "name": "inventory",
          "type": "address"
        },
        {
          "internalType": "uint256",
          "name": "id",
          "type": "uint256"
        }
      ],
      "name": "NotRecoverable",
      "type": "error"
    },
    {
      "inputs": [
        {
          "internalType": "address",
          "name": "inventory",
          "type": "address"
        }
      ],
      "name": "UnsupportedInventory",
      "type": "error"
    },
    {
      "anonymous": false,
      "inputs": [
        {
          "indexed": true,
          "internalType": "address",
          "name": "account",
          "type": "address"
        },
        {
          "indexed": false,
          "internalType": "address[]",
          "name": "inventories",
          "type": "address[]"
        },
        {
          "indexed": false,
          "internalType": "uint256[]",
          "name": "ids",
          "type": "uint256[]"
        }
      ],
      "name": "Deposited",
      "type": "event"
    },
    {
      "anonymous": false,
      "inputs": [
        {
          "indexed": true,
          "internalType": "address",
          "name": "previousOwner",
          "type": "address"
        },
        {
          "indexed": true,
          "internalType": "address",
          "name": "newOwner",
          "type": "address"
        }
      ],
      "name": "OwnershipTransferred",
      "type": "event"
    },
    {
      "anonymous": false,
      "inputs": [
        {
          "indexed": true,
          "internalType": "address",
          "name": "inventory",
          "type": "address"
        }
      ],
      "name": "SupportedInventoryAdded",
      "type": "event"
    },
    {
      "anonymous": false,
      "inputs": [
        {
          "indexed": true,
          "internalType": "address",
          "name": "inventory",
          "type": "address"
        }
      ],
      "name": "SupportedInventoryRemoved",
      "type": "event"
    },
    {
      "anonymous": false,
      "inputs": [
        {
          "indexed": true,
          "internalType": "address",
          "name": "account",
          "type": "address"
        },
        {
          "indexed": false,
          "internalType": "address[]",
          "name": "inventories",
          "type": "address[]"
        },
        {
          "indexed": false,
          "internalType": "uint256[]",
          "name": "ids",
          "type": "uint256[]"
        }
      ],
      "name": "Withdrawn",
      "type": "event"
    },
    {
      "inputs": [
        {
          "internalType": "address",
          "name": "inventory",
          "type": "address"
        }
      ],
      "name": "addSupportedInventory",
      "outputs": [],
      "stateMutability": "nonpayable",
      "type": "function"
    },
    {
      "inputs": [
        {
          "internalType": "address[]",
          "name": "inventories",
          "type": "address[]"
        },
        {
          "internalType": "uint256[]",
          "name": "ids",
          "type": "uint256[]"
        }
      ],
      "name": "deposit",
      "outputs": [],
      "stateMutability": "nonpayable",
      "type": "function"
    },
    {
      "inputs": [
        {
          "internalType": "address",
          "name": "",
          "type": "address"
        },
        {
          "internalType": "uint256",
          "name": "",
          "type": "uint256"
        }
      ],
      "name": "escrowed",
      "outputs": [
        {
          "internalType": "address",
          "name": "",
          "type": "address"
        }
      ],
      "stateMutability": "view",
      "type": "function"
    },
    {
      "inputs": [],
      "name": "forwarderRegistry",
      "outputs": [
        {
          "internalType": "contract IForwarderRegistry",
          "name": "",
          "type": "address"
        }
      ],
      "stateMutability": "view",
      "type": "function"
    },
    {
      "inputs": [
        {
          "internalType": "address",
          "name": "forwarder",
          "type": "address"
        }
      ],
      "name": "isTrustedForwarder",
      "outputs": [
        {
          "internalType": "bool",
          "name": "",
          "type": "bool"
        }
      ],
      "stateMutability": "view",
      "type": "function"
    },
    {
      "inputs": [
        {
          "internalType": "address",
          "name": "",
          "type": "address"
        },
        {
          "internalType": "address",
          "name": "from",
          "type": "address"
        },
        {
          "internalType": "uint256",
          "name": "id",
          "type": "uint256"
        },
        {
          "internalType": "bytes",
          "name": "",
          "type": "bytes"
        }
      ],
      "name": "onERC721Received",
      "outputs": [
        {
          "internalType": "bytes4",
          "name": "",
          "type": "bytes4"
        }
      ],
      "stateMutability": "nonpayable",
      "type": "function"
    },
    {
      "inputs": [],
      "name": "owner",
      "outputs": [
        {
          "internalType": "address",
          "name": "",
          "type": "address"
        }
      ],
      "stateMutability": "view",
      "type": "function"
    },
    {
      "inputs": [
        {
          "internalType": "address[]",
          "name": "accounts",
          "type": "address[]"
        },
        {
          "internalType": "contract IERC20[]",
          "name": "tokens",
          "type": "address[]"
        },
        {
          "internalType": "uint256[]",
          "name": "amounts",
          "type": "uint256[]"
        }
      ],
      "name": "recoverERC20s",
      "outputs": [],
      "stateMutability": "nonpayable",
      "type": "function"
    },
    {
      "inputs": [
        {
          "internalType": "address[]",
          "name": "accounts",
          "type": "address[]"
        },
        {
          "internalType": "contract IERC721[]",
          "name": "contracts",
          "type": "address[]"
        },
        {
          "internalType": "uint256[]",
          "name": "tokenIds",
          "type": "uint256[]"
        }
      ],
      "name": "recoverERC721s",
      "outputs": [],
      "stateMutability": "nonpayable",
      "type": "function"
    },
    {
      "inputs": [
        {
          "internalType": "address payable[]",
          "name": "accounts",
          "type": "address[]"
        },
        {
          "internalType": "uint256[]",
          "name": "amounts",
          "type": "uint256[]"
        }
      ],
      "name": "recoverETH",
      "outputs": [],
      "stateMutability": "nonpayable",
      "type": "function"
    },
    {
      "inputs": [
        {
          "internalType": "address",
          "name": "inventory",
          "type": "address"
        }
      ],
      "name": "removeSupportedInventory",
      "outputs": [],
      "stateMutability": "nonpayable",
      "type": "function"
    },
    {
      "inputs": [
        {
          "internalType": "address",
          "name": "",
          "type": "address"
        }
      ],
      "name": "supportedInventories",
      "outputs": [
        {
          "internalType": "address",
          "name": "",
          "type": "address"
        }
      ],
      "stateMutability": "view",
      "type": "function"
    },
    {
      "inputs": [
        {
          "internalType": "bytes4",
          "name": "interfaceId",
          "type": "bytes4"
        }
      ],
      "name": "supportsInterface",
      "outputs": [
        {
          "internalType": "bool",
          "name": "",
          "type": "bool"
        }
      ],
      "stateMutability": "view",
      "type": "function"
    },
    {
      "inputs": [
        {
          "internalType": "address",
          "name": "newOwner",
          "type": "address"
        }
      ],
      "name": "transferOwnership",
      "outputs": [],
      "stateMutability": "nonpayable",
      "type": "function"
    },
    {
      "inputs": [
        {
          "internalType": "address[]",
          "name": "inventories",
          "type": "address[]"
        },
        {
          "internalType": "uint256[]",
          "name": "ids",
          "type": "uint256[]"
        }
      ],
      "name": "withdraw",
      "outputs": [],
      "stateMutability": "nonpayable",
      "type": "function"
    }
  ],
  "bytecode": "0x60a06040523480156200001157600080fd5b5060405162002262380380620022628339810160408190526200003491620002c7565b8080336200004d81620000466200015e565b9062000194565b506200006e630a85bd0160e11b60016200006662000207565b919062000237565b6001600160a01b031660805250815160005b8181101562000154576000848281518110620000a057620000a0620003ad565b6020026020010151905060006001600160a01b0316816001600160a01b031603620000ed57604051636341ca2f60e11b81526001600160a01b038216600482015260240160405180910390fd5b6040516001600160a01b038216907fe36f26ee49ead4b9b9d3238ae6fb56ff65903ea161dbb9e98c40300fd0d148af90600090a26001600160a01b0316600081815260016020819052604090912080546001600160a01b0319169092179091550162000080565b50505050620003e5565b6000806200018e60017fc9ed16f33ab3a66c84bfd83099ccb2a8845871e2e1c1928f63797152f0fd54cd620003c3565b92915050565b6001600160a01b03811615620001eb5781546001600160a01b0319166001600160a01b03821690811783556040516000907f8be0079c531659141344cd1fd0a4f28419497f9722a3daafe3b4186f6b6457e0908290a35b620002036307f5828d60e41b60016200006662000207565b5050565b6000806200018e60017fca9d3e17f264b0f3984e2634e94adb37fa3e6a8103f06aeae6fa59e21c769f5e620003c3565b600160e01b6001600160e01b031983160162000266576040516372c683bb60e01b815260040160405180910390fd5b6001600160e01b03199190911660009081526020929092526040909120805460ff1916911515919091179055565b634e487b7160e01b600052604160045260246000fd5b80516001600160a01b0381168114620002c257600080fd5b919050565b60008060408385031215620002db57600080fd5b82516001600160401b0380821115620002f357600080fd5b818501915085601f8301126200030857600080fd5b81516020828211156200031f576200031f62000294565b8160051b604051601f19603f8301168101818110868211171562000347576200034762000294565b6040529283528183019350848101820192898411156200036657600080fd5b948201945b838610156200038f576200037f86620002aa565b855294820194938201936200036b565b9650620003a09050878201620002aa565b9450505050509250929050565b634e487b7160e01b600052603260045260246000fd5b818103818111156200018e57634e487b7160e01b600052601160045260246000fd5b608051611e4c62000416600039600081816101d80152818161024a015281816114fe01526115860152611e4c6000f3fe608060405234801561001057600080fd5b50600436106100f55760003560e01c806373c8a95811610097578063e3264f2411610066578063e3264f24146102c8578063efc908a1146102db578063f2fde38b146102ee578063f7ba94bd1461030157600080fd5b806373c8a958146102875780638da5cb5b1461029a578063c3666c36146102a2578063de6d6d96146102b557600080fd5b80631d03bccd116100d35780631d03bccd1461017b5780632b4c9f16146101d657806341560d9b146101fc578063572b6c051461023a57600080fd5b806301ffc9a7146100fa578063150b7a0214610122578063186d5fcd14610166575b600080fd5b61010d610108366004611920565b610314565b60405190151581526020015b60405180910390f35b61013561013036600461198b565b61032e565b6040517fffffffff000000000000000000000000000000000000000000000000000000009091168152602001610119565b610179610174366004611a2a565b610521565b005b6101b1610189366004611a2a565b60016020526000908152604090205473ffffffffffffffffffffffffffffffffffffffff1681565b60405173ffffffffffffffffffffffffffffffffffffffff9091168152602001610119565b7f00000000000000000000000000000000000000000000000000000000000000006101b1565b6101b161020a366004611a47565b600060208181529281526040808220909352908152205473ffffffffffffffffffffffffffffffffffffffff1681565b61010d610248366004611a2a565b7f000000000000000000000000000000000000000000000000000000000000000073ffffffffffffffffffffffffffffffffffffffff90811691161490565b610179610295366004611abf565b61062f565b6101b1610725565b6101796102b0366004611abf565b610751565b6101796102c3366004611b59565b61097a565b6101796102d6366004611a2a565b610bde565b6101796102e9366004611b59565b610cec565b6101796102fc366004611a2a565b610f2e565b61017961030f366004611b59565b610f4c565b60006103288261032261100b565b90611039565b92915050565b3360008181526001602052604081205490919073ffffffffffffffffffffffffffffffffffffffff166103aa576040517fc683945e00000000000000000000000000000000000000000000000000000000815273ffffffffffffffffffffffffffffffffffffffff821660048201526024015b60405180910390fd5b73ffffffffffffffffffffffffffffffffffffffff818116600090815260208181526040808320898452825280832080547fffffffffffffffffffffffff000000000000000000000000000000000000000016948b1694909417909355825160018082528185019094529192908281019080368337019050509050818160008151811061043957610439611bc5565b73ffffffffffffffffffffffffffffffffffffffff9290921660209283029190910190910152604080516001808252818301909252600091816020016020820280368337019050509050868160008151811061049757610497611bc5565b6020026020010181815250508773ffffffffffffffffffffffffffffffffffffffff167fb8cbb1e4dca5fbc06a0bf84587240c8a2fd00777129726d23014fba5841d559783836040516104eb929190611bf4565b60405180910390a2507f150b7a020000000000000000000000000000000000000000000000000000000098975050505050505050565b61053a61052c611113565b61053461111d565b9061114b565b73ffffffffffffffffffffffffffffffffffffffff811661059f576040517fc683945e00000000000000000000000000000000000000000000000000000000815273ffffffffffffffffffffffffffffffffffffffff821660048201526024016103a1565b60405173ffffffffffffffffffffffffffffffffffffffff8216907fe36f26ee49ead4b9b9d3238ae6fb56ff65903ea161dbb9e98c40300fd0d148af90600090a273ffffffffffffffffffffffffffffffffffffffff16600081815260016020526040902080547fffffffffffffffffffffffff0000000000000000000000000000000000000000169091179055565b61063a61052c611113565b84838114158061064a5750808214155b15610681576040517f6582533600000000000000000000000000000000000000000000000000000000815260040160405180910390fd5b60005b8181101561071b576107138888838181106106a1576106a1611bc5565b90506020020160208101906106b69190611a2a565b8585848181106106c8576106c8611bc5565b905060200201358888858181106106e1576106e1611bc5565b90506020020160208101906106f69190611a2a565b73ffffffffffffffffffffffffffffffffffffffff1691906111ba565b600101610684565b5050505050505050565b600061074c61073261111d565b5473ffffffffffffffffffffffffffffffffffffffff1690565b905090565b61075c61052c611113565b82858114610796576040517f6582533600000000000000000000000000000000000000000000000000000000815260040160405180910390fd5b8181146107cf576040517f6582533600000000000000000000000000000000000000000000000000000000815260040160405180910390fd5b60005b8181101561071b5760008888838181106107ee576107ee611bc5565b90506020020160208101906108039190611a2a565b9050600087878481811061081957610819611bc5565b905060200201602081019061082e9190611a2a565b905080600087878681811061084557610845611bc5565b73ffffffffffffffffffffffffffffffffffffffff858116600090815260208181526040808320948202969096013580835293905293909320549093509091161590506108dd576040517f052ca4a300000000000000000000000000000000000000000000000000000000815273ffffffffffffffffffffffffffffffffffffffff83166004820152602481018290526044016103a1565b6040517f42842e0e00000000000000000000000000000000000000000000000000000000815230600482015273ffffffffffffffffffffffffffffffffffffffff8581166024830152604482018390528416906342842e0e90606401600060405180830381600087803b15801561095357600080fd5b505af1158015610967573d6000803e3d6000fd5b50505050505050508060010190506107d2565b828181146109b4576040517f6582533600000000000000000000000000000000000000000000000000000000815260040160405180910390fd5b60006109be611113565b905060005b82811015610b815760008787838181106109df576109df611bc5565b90506020020160208101906109f49190611a2a565b90506000868684818110610a0a57610a0a611bc5565b73ffffffffffffffffffffffffffffffffffffffff80861660009081526020818152604080832094820296909601358083529390529390932054909350821691861682149050610aa5576040517f37a5157b00000000000000000000000000000000000000000000000000000000815273ffffffffffffffffffffffffffffffffffffffff84166004820152602481018390526044016103a1565b73ffffffffffffffffffffffffffffffffffffffff8381166000818152602081815260408083208784529091529081902080547fffffffffffffffffffffffff0000000000000000000000000000000000000000169055517f42842e0e00000000000000000000000000000000000000000000000000000000815230600482015291831660248301526044820184905284916342842e0e90606401600060405180830381600087803b158015610b5a57600080fd5b505af1158015610b6e573d6000803e3d6000fd5b50505050505050508060010190506109c3565b508073ffffffffffffffffffffffffffffffffffffffff167f78c340d4ad128ce699aee749013d7fa1512cfb434be2b83c3ce5d99069e026f687878787604051610bce9493929190611c85565b60405180910390a2505050505050565b610be961052c611113565b73ffffffffffffffffffffffffffffffffffffffff81811660009081526001602052604090205416610c5f576040517fc683945e00000000000000000000000000000000000000000000000000000000815273ffffffffffffffffffffffffffffffffffffffff821660048201526024016103a1565b60405173ffffffffffffffffffffffffffffffffffffffff8216907fcc1241c30a6f8af5ff3bfd2f805b5a7602526c2250d016ae4cfb639889f6d71990600090a273ffffffffffffffffffffffffffffffffffffffff16600090815260016020526040902080547fffffffffffffffffffffffff0000000000000000000000000000000000000000169055565b82818114610d26576040517f6582533600000000000000000000000000000000000000000000000000000000815260040160405180910390fd5b6000610d30611113565b905060005b82811015610ee1576000878783818110610d5157610d51611bc5565b9050602002016020810190610d669190611a2a565b90506000868684818110610d7c57610d7c611bc5565b73ffffffffffffffffffffffffffffffffffffffff8581166000908152600160209081526040909120549202939093013593509091169050610e02576040517fc683945e00000000000000000000000000000000000000000000000000000000815273ffffffffffffffffffffffffffffffffffffffff831660048201526024016103a1565b73ffffffffffffffffffffffffffffffffffffffff8281166000818152602081815260408083208684529091529081902080547fffffffffffffffffffffffff0000000000000000000000000000000000000000169388169384179055517f23b872dd000000000000000000000000000000000000000000000000000000008152600481019290925230602483015260448201839052906323b872dd90606401600060405180830381600087803b158015610ebc57600080fd5b505af1158015610ed0573d6000803e3d6000fd5b505050505050806001019050610d35565b508073ffffffffffffffffffffffffffffffffffffffff167fb8cbb1e4dca5fbc06a0bf84587240c8a2fd00777129726d23014fba5841d559787878787604051610bce9493929190611c85565b610f49610f39611113565b82610f4261111d565b919061124c565b50565b610f5761052c611113565b82818114610f91576040517f6582533600000000000000000000000000000000000000000000000000000000815260040160405180910390fd5b60005b8181101561100357610ffb848483818110610fb157610fb1611bc5565b90506020020135878784818110610fca57610fca611bc5565b9050602002016020810190610fdf9190611a2a565b73ffffffffffffffffffffffffffffffffffffffff1690611361565b600101610f94565b505050505050565b60008061032860017fca9d3e17f264b0f3984e2634e94adb37fa3e6a8103f06aeae6fa59e21c769f5e611d29565b60007c01000000000000000000000000000000000000000000000000000000007fffffffff0000000000000000000000000000000000000000000000000000000083160161108957506000610328565b7ffe003659000000000000000000000000000000000000000000000000000000007fffffffff000000000000000000000000000000000000000000000000000000008316016110da57506001610328565b507fffffffff00000000000000000000000000000000000000000000000000000000166000908152602091909152604090205460ff1690565b600061074c6114bb565b60008061032860017fc9ed16f33ab3a66c84bfd83099ccb2a8845871e2e1c1928f63797152f0fd54cd611d29565b815473ffffffffffffffffffffffffffffffffffffffff8281169116146111b6576040517f2ef4875e00000000000000000000000000000000000000000000000000000000815273ffffffffffffffffffffffffffffffffffffffff821660048201526024016103a1565b5050565b6040805173ffffffffffffffffffffffffffffffffffffffff8416602482015260448082018490528251808303909101815260649091019091526020810180517bffffffffffffffffffffffffffffffffffffffffffffffffffffffff167fa9059cbb00000000000000000000000000000000000000000000000000000000179052611247908490611602565b505050565b825473ffffffffffffffffffffffffffffffffffffffff90811690831681146112b9576040517f2ef4875e00000000000000000000000000000000000000000000000000000000815273ffffffffffffffffffffffffffffffffffffffff841660048201526024016103a1565b8173ffffffffffffffffffffffffffffffffffffffff168173ffffffffffffffffffffffffffffffffffffffff161461135b5783547fffffffffffffffffffffffff00000000000000000000000000000000000000001673ffffffffffffffffffffffffffffffffffffffff8381169182178655604051908316907f8be0079c531659141344cd1fd0a4f28419497f9722a3daafe3b4186f6b6457e090600090a35b50505050565b804710156113cb576040517f08c379a000000000000000000000000000000000000000000000000000000000815260206004820152601d60248201527f416464726573733a20696e73756666696369656e742062616c616e636500000060448201526064016103a1565b60008273ffffffffffffffffffffffffffffffffffffffff168260405160006040518083038185875af1925050503d8060008114611425576040519150601f19603f3d011682016040523d82523d6000602084013e61142a565b606091505b5050905080611247576040517f08c379a000000000000000000000000000000000000000000000000000000000815260206004820152603a60248201527f416464726573733a20756e61626c6520746f2073656e642076616c75652c207260448201527f6563697069656e74206d6179206861766520726576657274656400000000000060648201526084016103a1565b6000333214806114cb5750601836105b156114d557503390565b7fffffffffffffffffffffffffffffffffffffffffffffffffffffffffffffffec36013560601c7f000000000000000000000000000000000000000000000000000000000000000073ffffffffffffffffffffffffffffffffffffffff163314806115f157506040517f8929a8ca00000000000000000000000000000000000000000000000000000000815273ffffffffffffffffffffffffffffffffffffffff82811660048301523360248301527f00000000000000000000000000000000000000000000000000000000000000001690638929a8ca90604401602060405180830381865afa1580156115cd573d6000803e3d6000fd5b505050506040513d601f19601f820116820180604052508101906115f19190611d63565b156115fb57919050565b3391505090565b6000611664826040518060400160405280602081526020017f5361666545524332303a206c6f772d6c6576656c2063616c6c206661696c65648152508573ffffffffffffffffffffffffffffffffffffffff166117119092919063ffffffff16565b90508051600014806116855750808060200190518101906116859190611d63565b611247576040517f08c379a000000000000000000000000000000000000000000000000000000000815260206004820152602a60248201527f5361666545524332303a204552433230206f7065726174696f6e20646964206e60448201527f6f7420737563636565640000000000000000000000000000000000000000000060648201526084016103a1565b60606117208484600085611728565b949350505050565b6060824710156117ba576040517f08c379a000000000000000000000000000000000000000000000000000000000815260206004820152602660248201527f416464726573733a20696e73756666696369656e742062616c616e636520666f60448201527f722063616c6c000000000000000000000000000000000000000000000000000060648201526084016103a1565b6000808673ffffffffffffffffffffffffffffffffffffffff1685876040516117e39190611da9565b60006040518083038185875af1925050503d8060008114611820576040519150601f19603f3d011682016040523d82523d6000602084013e611825565b606091505b509150915061183687838387611841565b979650505050505050565b606083156118d75782516000036118d05773ffffffffffffffffffffffffffffffffffffffff85163b6118d0576040517f08c379a000000000000000000000000000000000000000000000000000000000815260206004820152601d60248201527f416464726573733a2063616c6c20746f206e6f6e2d636f6e747261637400000060448201526064016103a1565b5081611720565b61172083838151156118ec5781518083602001fd5b806040517f08c379a00000000000000000000000000000000000000000000000000000000081526004016103a19190611dc5565b60006020828403121561193257600080fd5b81357fffffffff000000000000000000000000000000000000000000000000000000008116811461196257600080fd5b9392505050565b73ffffffffffffffffffffffffffffffffffffffff81168114610f4957600080fd5b6000806000806000608086880312156119a357600080fd5b85356119ae81611969565b945060208601356119be81611969565b935060408601359250606086013567ffffffffffffffff808211156119e257600080fd5b818801915088601f8301126119f657600080fd5b813581811115611a0557600080fd5b896020828501011115611a1757600080fd5b9699959850939650602001949392505050565b600060208284031215611a3c57600080fd5b813561196281611969565b60008060408385031215611a5a57600080fd5b8235611a6581611969565b946020939093013593505050565b60008083601f840112611a8557600080fd5b50813567ffffffffffffffff811115611a9d57600080fd5b6020830191508360208260051b8501011115611ab857600080fd5b9250929050565b60008060008060008060608789031215611ad857600080fd5b863567ffffffffffffffff80821115611af057600080fd5b611afc8a838b01611a73565b90985096506020890135915080821115611b1557600080fd5b611b218a838b01611a73565b90965094506040890135915080821115611b3a57600080fd5b50611b4789828a01611a73565b979a9699509497509295939492505050565b60008060008060408587031215611b6f57600080fd5b843567ffffffffffffffff80821115611b8757600080fd5b611b9388838901611a73565b90965094506020870135915080821115611bac57600080fd5b50611bb987828801611a73565b95989497509550505050565b7f4e487b7100000000000000000000000000000000000000000000000000000000600052603260045260246000fd5b604080825283519082018190526000906020906060840190828701845b82811015611c4357815173ffffffffffffffffffffffffffffffffffffffff1684529284019290840190600101611c11565b5050508381038285015284518082528583019183019060005b81811015611c7857835183529284019291840191600101611c5c565b5090979650505050505050565b6040808252810184905260008560608301825b87811015611cd5578235611cab81611969565b73ffffffffffffffffffffffffffffffffffffffff16825260209283019290910190600101611c98565b5083810360208501528481527f07ffffffffffffffffffffffffffffffffffffffffffffffffffffffffffffff851115611d0e57600080fd5b8460051b915081866020830137016020019695505050505050565b81810381811115610328577f4e487b7100000000000000000000000000000000000000000000000000000000600052601160045260246000fd5b600060208284031215611d7557600080fd5b8151801515811461196257600080fd5b60005b83811015611da0578181015183820152602001611d88565b50506000910152565b60008251611dbb818460208701611d85565b9190910192915050565b6020815260008251806020840152611de4816040850160208701611d85565b601f017fffffffffffffffffffffffffffffffffffffffffffffffffffffffffffffffe016919091016040019291505056fea2646970667358221220e180debf92f5651e18e07ce0c9fb8881c078f00782c93d7fbd3a2d1b7488804c64736f6c63430008160033",
  "linkReferences": {},
  "deployedLinkReferences": {}
}