{
  "_format": "hh-sol-artifact-1",
  "contractName": "PublisherNFTEscrow",
  "sourceName": "contracts/escrow/PublisherNFTEscrow.sol",
  "abi": [
    {
      "inputs": [
        {
          "internalType": "address[]",
          "name": "supportedInventories_",
          "type": "address[]"
        },
        {
          "internalType": "contract IForwarderRegistry",
          "name": "forwarderRegistry",
          "type": "address"
        }
      ],
      "stateMutability": "nonpayable",
      "type": "constructor"
    },
    {
      "inputs": [],
      "name": "IllegalInterfaceId",
      "type": "error"
    },
    {
      "inputs": [],
      "name": "InconsistentArrayLengths",
      "type": "error"
    },
    {
      "inputs": [
        {
          "internalType": "address",
          "name": "account",
          "type": "address"
        }
      ],
      "name": "NotContractOwner",
      "type": "error"
    },
    {
      "inputs": [
        {
          "internalType": "address",
          "name": "inventory",
          "type": "address"
        },
        {
          "internalType": "uint256",
          "name": "id",
          "type": "uint256"
        }
      ],
      "name": "NotEscrowed",
      "type": "error"
    },
    {
      "inputs": [
        {
          "internalType": "address",
          "name": "inventory",
          "type": "address"
        },
        {
          "internalType": "uint256",
          "name": "id",
          "type": "uint256"
        }
      ],
      "name": "NotRecoverable",
      "type": "error"
    },
    {
      "inputs": [
        {
          "internalType": "address",
          "name": "inventory",
          "type": "address"
        }
      ],
      "name": "UnsupportedInventory",
      "type": "error"
    },
    {
      "anonymous": false,
      "inputs": [
        {
          "indexed": true,
          "internalType": "address",
          "name": "account",
          "type": "address"
        },
        {
          "indexed": false,
          "internalType": "address[]",
          "name": "inventories",
          "type": "address[]"
        },
        {
          "indexed": false,
          "internalType": "uint256[]",
          "name": "ids",
          "type": "uint256[]"
        }
      ],
      "name": "Deposited",
      "type": "event"
    },
    {
      "anonymous": false,
      "inputs": [
        {
          "indexed": true,
          "internalType": "address",
          "name": "previousOwner",
          "type": "address"
        },
        {
          "indexed": true,
          "internalType": "address",
          "name": "newOwner",
          "type": "address"
        }
      ],
      "name": "OwnershipTransferred",
      "type": "event"
    },
    {
      "anonymous": false,
      "inputs": [
        {
          "indexed": true,
          "internalType": "address",
          "name": "inventory",
          "type": "address"
        }
      ],
      "name": "SupportedInventoryAdded",
      "type": "event"
    },
    {
      "anonymous": false,
      "inputs": [
        {
          "indexed": true,
          "internalType": "address",
          "name": "inventory",
          "type": "address"
        }
      ],
      "name": "SupportedInventoryRemoved",
      "type": "event"
    },
    {
      "anonymous": false,
      "inputs": [
        {
          "indexed": true,
          "internalType": "address",
          "name": "account",
          "type": "address"
        },
        {
          "indexed": false,
          "internalType": "address[]",
          "name": "inventories",
          "type": "address[]"
        },
        {
          "indexed": false,
          "internalType": "uint256[]",
          "name": "ids",
          "type": "uint256[]"
        }
      ],
      "name": "Withdrawn",
      "type": "event"
    },
    {
      "inputs": [
        {
          "internalType": "address",
          "name": "inventory",
          "type": "address"
        }
      ],
      "name": "addSupportedInventory",
      "outputs": [],
      "stateMutability": "nonpayable",
      "type": "function"
    },
    {
      "inputs": [
        {
          "internalType": "address[]",
          "name": "inventories",
          "type": "address[]"
        },
        {
          "internalType": "uint256[]",
          "name": "ids",
          "type": "uint256[]"
        }
      ],
      "name": "deposit",
      "outputs": [],
      "stateMutability": "nonpayable",
      "type": "function"
    },
    {
      "inputs": [
        {
          "internalType": "address",
          "name": "",
          "type": "address"
        },
        {
          "internalType": "uint256",
          "name": "",
          "type": "uint256"
        }
      ],
      "name": "escrowed",
      "outputs": [
        {
          "internalType": "address",
          "name": "",
          "type": "address"
        }
      ],
      "stateMutability": "view",
      "type": "function"
    },
    {
      "inputs": [],
      "name": "forwarderRegistry",
      "outputs": [
        {
          "internalType": "contract IForwarderRegistry",
          "name": "",
          "type": "address"
        }
      ],
      "stateMutability": "view",
      "type": "function"
    },
    {
      "inputs": [
        {
          "internalType": "address",
          "name": "forwarder",
          "type": "address"
        }
      ],
      "name": "isTrustedForwarder",
      "outputs": [
        {
          "internalType": "bool",
          "name": "",
          "type": "bool"
        }
      ],
      "stateMutability": "view",
      "type": "function"
    },
    {
      "inputs": [
        {
          "internalType": "address",
          "name": "",
          "type": "address"
        },
        {
          "internalType": "address",
          "name": "from",
          "type": "address"
        },
        {
          "internalType": "uint256",
          "name": "id",
          "type": "uint256"
        },
        {
          "internalType": "bytes",
          "name": "",
          "type": "bytes"
        }
      ],
      "name": "onERC721Received",
      "outputs": [
        {
          "internalType": "bytes4",
          "name": "",
          "type": "bytes4"
        }
      ],
      "stateMutability": "nonpayable",
      "type": "function"
    },
    {
      "inputs": [],
      "name": "owner",
      "outputs": [
        {
          "internalType": "address",
          "name": "",
          "type": "address"
        }
      ],
      "stateMutability": "view",
      "type": "function"
    },
    {
      "inputs": [
        {
          "internalType": "address[]",
          "name": "accounts",
          "type": "address[]"
        },
        {
          "internalType": "contract IERC20[]",
          "name": "tokens",
          "type": "address[]"
        },
        {
          "internalType": "uint256[]",
          "name": "amounts",
          "type": "uint256[]"
        }
      ],
      "name": "recoverERC20s",
      "outputs": [],
      "stateMutability": "nonpayable",
      "type": "function"
    },
    {
      "inputs": [
        {
          "internalType": "address[]",
          "name": "accounts",
          "type": "address[]"
        },
        {
          "internalType": "contract IERC721[]",
          "name": "contracts",
          "type": "address[]"
        },
        {
          "internalType": "uint256[]",
          "name": "tokenIds",
          "type": "uint256[]"
        }
      ],
      "name": "recoverERC721s",
      "outputs": [],
      "stateMutability": "nonpayable",
      "type": "function"
    },
    {
      "inputs": [
        {
          "internalType": "address payable[]",
          "name": "accounts",
          "type": "address[]"
        },
        {
          "internalType": "uint256[]",
          "name": "amounts",
          "type": "uint256[]"
        }
      ],
      "name": "recoverETH",
      "outputs": [],
      "stateMutability": "nonpayable",
      "type": "function"
    },
    {
      "inputs": [
        {
          "internalType": "address",
          "name": "inventory",
          "type": "address"
        }
      ],
      "name": "removeSupportedInventory",
      "outputs": [],
      "stateMutability": "nonpayable",
      "type": "function"
    },
    {
      "inputs": [
        {
          "internalType": "address",
          "name": "",
          "type": "address"
        }
      ],
      "name": "supportedInventories",
      "outputs": [
        {
          "internalType": "address",
          "name": "",
          "type": "address"
        }
      ],
      "stateMutability": "view",
      "type": "function"
    },
    {
      "inputs": [
        {
          "internalType": "bytes4",
          "name": "interfaceId",
          "type": "bytes4"
        }
      ],
      "name": "supportsInterface",
      "outputs": [
        {
          "internalType": "bool",
          "name": "",
          "type": "bool"
        }
      ],
      "stateMutability": "view",
      "type": "function"
    },
    {
      "inputs": [
        {
          "internalType": "address",
          "name": "newOwner",
          "type": "address"
        }
      ],
      "name": "transferOwnership",
      "outputs": [],
      "stateMutability": "nonpayable",
      "type": "function"
    },
    {
      "inputs": [
        {
          "internalType": "address[]",
          "name": "inventories",
          "type": "address[]"
        },
        {
          "internalType": "uint256[]",
          "name": "ids",
          "type": "uint256[]"
        }
      ],
      "name": "withdraw",
      "outputs": [],
      "stateMutability": "nonpayable",
      "type": "function"
    }
  ],
  "bytecode": "0x60a06040523480156200001157600080fd5b50604051620023d2380380620023d28339810160408190526200003491620003ff565b808062000040620000d2565b62000056816200004f620000e3565b9062000119565b5062000077630a85bd0160e11b60016200006f6200018c565b9190620001bc565b6001600160a01b031660805250815160005b81811015620000c857620000bf848281518110620000ab57620000ab620004e5565b60200260200101516200021960201b60201c565b60010162000089565b5050505062000548565b6000620000de620002ce565b905090565b6000806200011360017fc9ed16f33ab3a66c84bfd83099ccb2a8845871e2e1c1928f63797152f0fd54cd620004fb565b92915050565b6001600160a01b03811615620001705781546001600160a01b0319166001600160a01b03821690811783556040516000907f8be0079c531659141344cd1fd0a4f28419497f9722a3daafe3b4186f6b6457e0908290a35b620001886307f5828d60e41b60016200006f6200018c565b5050565b6000806200011360017fca9d3e17f264b0f3984e2634e94adb37fa3e6a8103f06aeae6fa59e21c769f5e620004fb565b600160e01b6001600160e01b0319831601620001eb576040516372c683bb60e01b815260040160405180910390fd5b6001600160e01b03199190911660009081526020929092526040909120805460ff1916911515919091179055565b6200023862000227620000d2565b62000231620000e3565b9062000392565b6001600160a01b0381166200027057604051636341ca2f60e11b81526001600160a01b03821660048201526024015b60405180910390fd5b6040516001600160a01b038216907fe36f26ee49ead4b9b9d3238ae6fb56ff65903ea161dbb9e98c40300fd0d148af90600090a26001600160a01b0316600081815260016020526040902080546001600160a01b0319169091179055565b600033321480620002df5750601836105b15620002ea57503390565b60805136601319013560601c906001600160a01b0316331480620003805750608051604051634494d46560e11b81526001600160a01b03838116600483015233602483015290911690638929a8ca90604401602060405180830381865afa1580156200035a573d6000803e3d6000fd5b505050506040513d601f19601f820116820180604052508101906200038091906200051d565b156200038b57919050565b3391505090565b81546001600160a01b03828116911614620001885760405163177a43af60e11b81526001600160a01b038216600482015260240162000267565b634e487b7160e01b600052604160045260246000fd5b80516001600160a01b0381168114620003fa57600080fd5b919050565b600080604083850312156200041357600080fd5b82516001600160401b03808211156200042b57600080fd5b818501915085601f8301126200044057600080fd5b8151602082821115620004575762000457620003cc565b8160051b604051601f19603f830116810181811086821117156200047f576200047f620003cc565b6040529283528183019350848101820192898411156200049e57600080fd5b948201945b83861015620004c757620004b786620003e2565b85529482019493820193620004a3565b9650620004d89050878201620003e2565b9450505050509250929050565b634e487b7160e01b600052603260045260246000fd5b818103818111156200011357634e487b7160e01b600052601160045260246000fd5b6000602082840312156200053057600080fd5b815180151581146200054157600080fd5b9392505050565b608051611e5962000579600039600081816101d80152818161024a0152818161150b01526115930152611e596000f3fe608060405234801561001057600080fd5b50600436106100f55760003560e01c806373c8a95811610097578063e3264f2411610066578063e3264f24146102c8578063efc908a1146102db578063f2fde38b146102ee578063f7ba94bd1461030157600080fd5b806373c8a958146102875780638da5cb5b1461029a578063c3666c36146102a2578063de6d6d96146102b557600080fd5b80631d03bccd116100d35780631d03bccd1461017b5780632b4c9f16146101d657806341560d9b146101fc578063572b6c051461023a57600080fd5b806301ffc9a7146100fa578063150b7a0214610122578063186d5fcd14610166575b600080fd5b61010d61010836600461192d565b610314565b60405190151581526020015b60405180910390f35b610135610130366004611998565b61032e565b6040517fffffffff000000000000000000000000000000000000000000000000000000009091168152602001610119565b610179610174366004611a37565b61052e565b005b6101b1610189366004611a37565b60016020526000908152604090205473ffffffffffffffffffffffffffffffffffffffff1681565b60405173ffffffffffffffffffffffffffffffffffffffff9091168152602001610119565b7f00000000000000000000000000000000000000000000000000000000000000006101b1565b6101b161020a366004611a54565b600060208181529281526040808220909352908152205473ffffffffffffffffffffffffffffffffffffffff1681565b61010d610248366004611a37565b7f000000000000000000000000000000000000000000000000000000000000000073ffffffffffffffffffffffffffffffffffffffff90811691161490565b610179610295366004611acc565b61063c565b6101b1610732565b6101796102b0366004611acc565b61075e565b6101796102c3366004611b66565b610987565b6101796102d6366004611a37565b610beb565b6101796102e9366004611b66565b610cf9565b6101796102fc366004611a37565b610f3b565b61017961030f366004611b66565b610f59565b600061032882610322611018565b90611046565b92915050565b600080610339611120565b73ffffffffffffffffffffffffffffffffffffffff808216600090815260016020526040902054919250166103b7576040517fc683945e00000000000000000000000000000000000000000000000000000000815273ffffffffffffffffffffffffffffffffffffffff821660048201526024015b60405180910390fd5b73ffffffffffffffffffffffffffffffffffffffff818116600090815260208181526040808320898452825280832080547fffffffffffffffffffffffff000000000000000000000000000000000000000016948b1694909417909355825160018082528185019094529192908281019080368337019050509050818160008151811061044657610446611bd2565b73ffffffffffffffffffffffffffffffffffffffff929092166020928302919091019091015260408051600180825281830190925260009181602001602082028036833701905050905086816000815181106104a4576104a4611bd2565b6020026020010181815250508773ffffffffffffffffffffffffffffffffffffffff167fb8cbb1e4dca5fbc06a0bf84587240c8a2fd00777129726d23014fba5841d559783836040516104f8929190611c01565b60405180910390a2507f150b7a020000000000000000000000000000000000000000000000000000000098975050505050505050565b610547610539611120565b61054161112a565b90611158565b73ffffffffffffffffffffffffffffffffffffffff81166105ac576040517fc683945e00000000000000000000000000000000000000000000000000000000815273ffffffffffffffffffffffffffffffffffffffff821660048201526024016103ae565b60405173ffffffffffffffffffffffffffffffffffffffff8216907fe36f26ee49ead4b9b9d3238ae6fb56ff65903ea161dbb9e98c40300fd0d148af90600090a273ffffffffffffffffffffffffffffffffffffffff16600081815260016020526040902080547fffffffffffffffffffffffff0000000000000000000000000000000000000000169091179055565b610647610539611120565b8483811415806106575750808214155b1561068e576040517f6582533600000000000000000000000000000000000000000000000000000000815260040160405180910390fd5b60005b81811015610728576107208888838181106106ae576106ae611bd2565b90506020020160208101906106c39190611a37565b8585848181106106d5576106d5611bd2565b905060200201358888858181106106ee576106ee611bd2565b90506020020160208101906107039190611a37565b73ffffffffffffffffffffffffffffffffffffffff1691906111c7565b600101610691565b5050505050505050565b600061075961073f61112a565b5473ffffffffffffffffffffffffffffffffffffffff1690565b905090565b610769610539611120565b828581146107a3576040517f6582533600000000000000000000000000000000000000000000000000000000815260040160405180910390fd5b8181146107dc576040517f6582533600000000000000000000000000000000000000000000000000000000815260040160405180910390fd5b60005b818110156107285760008888838181106107fb576107fb611bd2565b90506020020160208101906108109190611a37565b9050600087878481811061082657610826611bd2565b905060200201602081019061083b9190611a37565b905080600087878681811061085257610852611bd2565b73ffffffffffffffffffffffffffffffffffffffff858116600090815260208181526040808320948202969096013580835293905293909320549093509091161590506108ea576040517f052ca4a300000000000000000000000000000000000000000000000000000000815273ffffffffffffffffffffffffffffffffffffffff83166004820152602481018290526044016103ae565b6040517f42842e0e00000000000000000000000000000000000000000000000000000000815230600482015273ffffffffffffffffffffffffffffffffffffffff8581166024830152604482018390528416906342842e0e90606401600060405180830381600087803b15801561096057600080fd5b505af1158015610974573d6000803e3d6000fd5b50505050505050508060010190506107df565b828181146109c1576040517f6582533600000000000000000000000000000000000000000000000000000000815260040160405180910390fd5b60006109cb611120565b905060005b82811015610b8e5760008787838181106109ec576109ec611bd2565b9050602002016020810190610a019190611a37565b90506000868684818110610a1757610a17611bd2565b73ffffffffffffffffffffffffffffffffffffffff80861660009081526020818152604080832094820296909601358083529390529390932054909350821691861682149050610ab2576040517f37a5157b00000000000000000000000000000000000000000000000000000000815273ffffffffffffffffffffffffffffffffffffffff84166004820152602481018390526044016103ae565b73ffffffffffffffffffffffffffffffffffffffff8381166000818152602081815260408083208784529091529081902080547fffffffffffffffffffffffff0000000000000000000000000000000000000000169055517f42842e0e00000000000000000000000000000000000000000000000000000000815230600482015291831660248301526044820184905284916342842e0e90606401600060405180830381600087803b158015610b6757600080fd5b505af1158015610b7b573d6000803e3d6000fd5b50505050505050508060010190506109d0565b508073ffffffffffffffffffffffffffffffffffffffff167f78c340d4ad128ce699aee749013d7fa1512cfb434be2b83c3ce5d99069e026f687878787604051610bdb9493929190611c92565b60405180910390a2505050505050565b610bf6610539611120565b73ffffffffffffffffffffffffffffffffffffffff81811660009081526001602052604090205416610c6c576040517fc683945e00000000000000000000000000000000000000000000000000000000815273ffffffffffffffffffffffffffffffffffffffff821660048201526024016103ae565b60405173ffffffffffffffffffffffffffffffffffffffff8216907fcc1241c30a6f8af5ff3bfd2f805b5a7602526c2250d016ae4cfb639889f6d71990600090a273ffffffffffffffffffffffffffffffffffffffff16600090815260016020526040902080547fffffffffffffffffffffffff0000000000000000000000000000000000000000169055565b82818114610d33576040517f6582533600000000000000000000000000000000000000000000000000000000815260040160405180910390fd5b6000610d3d611120565b905060005b82811015610eee576000878783818110610d5e57610d5e611bd2565b9050602002016020810190610d739190611a37565b90506000868684818110610d8957610d89611bd2565b73ffffffffffffffffffffffffffffffffffffffff8581166000908152600160209081526040909120549202939093013593509091169050610e0f576040517fc683945e00000000000000000000000000000000000000000000000000000000815273ffffffffffffffffffffffffffffffffffffffff831660048201526024016103ae565b73ffffffffffffffffffffffffffffffffffffffff8281166000818152602081815260408083208684529091529081902080547fffffffffffffffffffffffff0000000000000000000000000000000000000000169388169384179055517f23b872dd000000000000000000000000000000000000000000000000000000008152600481019290925230602483015260448201839052906323b872dd90606401600060405180830381600087803b158015610ec957600080fd5b505af1158015610edd573d6000803e3d6000fd5b505050505050806001019050610d42565b508073ffffffffffffffffffffffffffffffffffffffff167fb8cbb1e4dca5fbc06a0bf84587240c8a2fd00777129726d23014fba5841d559787878787604051610bdb9493929190611c92565b610f56610f46611120565b82610f4f61112a565b9190611259565b50565b610f64610539611120565b82818114610f9e576040517f6582533600000000000000000000000000000000000000000000000000000000815260040160405180910390fd5b60005b8181101561101057611008848483818110610fbe57610fbe611bd2565b90506020020135878784818110610fd757610fd7611bd2565b9050602002016020810190610fec9190611a37565b73ffffffffffffffffffffffffffffffffffffffff169061136e565b600101610fa1565b505050505050565b60008061032860017fca9d3e17f264b0f3984e2634e94adb37fa3e6a8103f06aeae6fa59e21c769f5e611d36565b60007c01000000000000000000000000000000000000000000000000000000007fffffffff0000000000000000000000000000000000000000000000000000000083160161109657506000610328565b7ffe003659000000000000000000000000000000000000000000000000000000007fffffffff000000000000000000000000000000000000000000000000000000008316016110e757506001610328565b507fffffffff00000000000000000000000000000000000000000000000000000000166000908152602091909152604090205460ff1690565b60006107596114c8565b60008061032860017fc9ed16f33ab3a66c84bfd83099ccb2a8845871e2e1c1928f63797152f0fd54cd611d36565b815473ffffffffffffffffffffffffffffffffffffffff8281169116146111c3576040517f2ef4875e00000000000000000000000000000000000000000000000000000000815273ffffffffffffffffffffffffffffffffffffffff821660048201526024016103ae565b5050565b6040805173ffffffffffffffffffffffffffffffffffffffff8416602482015260448082018490528251808303909101815260649091019091526020810180517bffffffffffffffffffffffffffffffffffffffffffffffffffffffff167fa9059cbb0000000000000000000000000000000000000000000000000000000017905261125490849061160f565b505050565b825473ffffffffffffffffffffffffffffffffffffffff90811690831681146112c6576040517f2ef4875e00000000000000000000000000000000000000000000000000000000815273ffffffffffffffffffffffffffffffffffffffff841660048201526024016103ae565b8173ffffffffffffffffffffffffffffffffffffffff168173ffffffffffffffffffffffffffffffffffffffff16146113685783547fffffffffffffffffffffffff00000000000000000000000000000000000000001673ffffffffffffffffffffffffffffffffffffffff8381169182178655604051908316907f8be0079c531659141344cd1fd0a4f28419497f9722a3daafe3b4186f6b6457e090600090a35b50505050565b804710156113d8576040517f08c379a000000000000000000000000000000000000000000000000000000000815260206004820152601d60248201527f416464726573733a20696e73756666696369656e742062616c616e636500000060448201526064016103ae565b60008273ffffffffffffffffffffffffffffffffffffffff168260405160006040518083038185875af1925050503d8060008114611432576040519150601f19603f3d011682016040523d82523d6000602084013e611437565b606091505b5050905080611254576040517f08c379a000000000000000000000000000000000000000000000000000000000815260206004820152603a60248201527f416464726573733a20756e61626c6520746f2073656e642076616c75652c207260448201527f6563697069656e74206d6179206861766520726576657274656400000000000060648201526084016103ae565b6000333214806114d85750601836105b156114e257503390565b7fffffffffffffffffffffffffffffffffffffffffffffffffffffffffffffffec36013560601c7f000000000000000000000000000000000000000000000000000000000000000073ffffffffffffffffffffffffffffffffffffffff163314806115fe57506040517f8929a8ca00000000000000000000000000000000000000000000000000000000815273ffffffffffffffffffffffffffffffffffffffff82811660048301523360248301527f00000000000000000000000000000000000000000000000000000000000000001690638929a8ca90604401602060405180830381865afa1580156115da573d6000803e3d6000fd5b505050506040513d601f19601f820116820180604052508101906115fe9190611d70565b1561160857919050565b3391505090565b6000611671826040518060400160405280602081526020017f5361666545524332303a206c6f772d6c6576656c2063616c6c206661696c65648152508573ffffffffffffffffffffffffffffffffffffffff1661171e9092919063ffffffff16565b90508051600014806116925750808060200190518101906116929190611d70565b611254576040517f08c379a000000000000000000000000000000000000000000000000000000000815260206004820152602a60248201527f5361666545524332303a204552433230206f7065726174696f6e20646964206e60448201527f6f7420737563636565640000000000000000000000000000000000000000000060648201526084016103ae565b606061172d8484600085611735565b949350505050565b6060824710156117c7576040517f08c379a000000000000000000000000000000000000000000000000000000000815260206004820152602660248201527f416464726573733a20696e73756666696369656e742062616c616e636520666f60448201527f722063616c6c000000000000000000000000000000000000000000000000000060648201526084016103ae565b6000808673ffffffffffffffffffffffffffffffffffffffff1685876040516117f09190611db6565b60006040518083038185875af1925050503d806000811461182d576040519150601f19603f3d011682016040523d82523d6000602084013e611832565b606091505b50915091506118438783838761184e565b979650505050505050565b606083156118e45782516000036118dd5773ffffffffffffffffffffffffffffffffffffffff85163b6118dd576040517f08c379a000000000000000000000000000000000000000000000000000000000815260206004820152601d60248201527f416464726573733a2063616c6c20746f206e6f6e2d636f6e747261637400000060448201526064016103ae565b508161172d565b61172d83838151156118f95781518083602001fd5b806040517f08c379a00000000000000000000000000000000000000000000000000000000081526004016103ae9190611dd2565b60006020828403121561193f57600080fd5b81357fffffffff000000000000000000000000000000000000000000000000000000008116811461196f57600080fd5b9392505050565b73ffffffffffffffffffffffffffffffffffffffff81168114610f5657600080fd5b6000806000806000608086880312156119b057600080fd5b85356119bb81611976565b945060208601356119cb81611976565b935060408601359250606086013567ffffffffffffffff808211156119ef57600080fd5b818801915088601f830112611a0357600080fd5b813581811115611a1257600080fd5b896020828501011115611a2457600080fd5b9699959850939650602001949392505050565b600060208284031215611a4957600080fd5b813561196f81611976565b60008060408385031215611a6757600080fd5b8235611a7281611976565b946020939093013593505050565b60008083601f840112611a9257600080fd5b50813567ffffffffffffffff811115611aaa57600080fd5b6020830191508360208260051b8501011115611ac557600080fd5b9250929050565b60008060008060008060608789031215611ae557600080fd5b863567ffffffffffffffff80821115611afd57600080fd5b611b098a838b01611a80565b90985096506020890135915080821115611b2257600080fd5b611b2e8a838b01611a80565b90965094506040890135915080821115611b4757600080fd5b50611b5489828a01611a80565b979a9699509497509295939492505050565b60008060008060408587031215611b7c57600080fd5b843567ffffffffffffffff80821115611b9457600080fd5b611ba088838901611a80565b90965094506020870135915080821115611bb957600080fd5b50611bc687828801611a80565b95989497509550505050565b7f4e487b7100000000000000000000000000000000000000000000000000000000600052603260045260246000fd5b604080825283519082018190526000906020906060840190828701845b82811015611c5057815173ffffffffffffffffffffffffffffffffffffffff1684529284019290840190600101611c1e565b5050508381038285015284518082528583019183019060005b81811015611c8557835183529284019291840191600101611c69565b5090979650505050505050565b6040808252810184905260008560608301825b87811015611ce2578235611cb881611976565b73ffffffffffffffffffffffffffffffffffffffff16825260209283019290910190600101611ca5565b5083810360208501528481527f07ffffffffffffffffffffffffffffffffffffffffffffffffffffffffffffff851115611d1b57600080fd5b8460051b915081866020830137016020019695505050505050565b81810381811115610328577f4e487b7100000000000000000000000000000000000000000000000000000000600052601160045260246000fd5b600060208284031215611d8257600080fd5b8151801515811461196f57600080fd5b60005b83811015611dad578181015183820152602001611d95565b50506000910152565b60008251611dc8818460208701611d92565b9190910192915050565b6020815260008251806020840152611df1816040850160208701611d92565b601f017fffffffffffffffffffffffffffffffffffffffffffffffffffffffffffffffe016919091016040019291505056fea2646970667358221220f265bacc8a5760e3c1bb5334c0399a280da54caec2db2fa4eb831f26d41cf88764736f6c63430008160033",
  "linkReferences": {},
  "deployedLinkReferences": {}
}