{
  "_format": "hh-sol-artifact-1",
  "contractName": "PublisherNFTSale",
  "sourceName": "contracts/sale/PublisherNFTSale.sol",
  "abi": [
    {
      "inputs": [
        {
          "internalType": "contract IERC1155",
          "name": "genesisToken",
          "type": "address"
        },
        {
          "internalType": "contract EDUCreditsManager",
          "name": "eduCreditsManager",
          "type": "address"
        },
        {
          "internalType": "contract ILayerZeroEndpoint",
          "name": "lzEndpoint",
          "type": "address"
        },
        {
          "internalType": "uint16",
          "name": "lzDstChainId",
          "type": "uint16"
        },
        {
          "internalType": "uint256",
          "name": "mintPrice",
          "type": "uint256"
        },
        {
          "internalType": "uint256",
          "name": "mintSupplyLimit",
          "type": "uint256"
        },
        {
          "internalType": "uint256[]",
          "name": "timestamps",
          "type": "uint256[]"
        },
        {
          "internalType": "uint256[]",
          "name": "discountThresholds",
          "type": "uint256[]"
        },
        {
          "internalType": "uint256[]",
          "name": "discountPercentages",
          "type": "uint256[]"
        },
        {
          "internalType": "contract IForwarderRegistry",
          "name": "forwarderRegistry",
          "type": "address"
        }
      ],
      "stateMutability": "nonpayable",
      "type": "constructor"
    },
    {
      "inputs": [],
      "name": "IllegalInterfaceId",
      "type": "error"
    },
    {
      "inputs": [],
      "name": "InsufficientMintSupply",
      "type": "error"
    },
    {
      "inputs": [],
      "name": "InvalidDiscountPercentages",
      "type": "error"
    },
    {
      "inputs": [],
      "name": "InvalidDiscountThresholds",
      "type": "error"
    },
    {
      "inputs": [],
      "name": "InvalidTimestamps",
      "type": "error"
    },
    {
      "inputs": [],
      "name": "NotADiamondHand",
      "type": "error"
    },
    {
      "inputs": [],
      "name": "NotADiamondHandNorAGenesisNFTOwner",
      "type": "error"
    },
    {
      "inputs": [
        {
          "internalType": "address",
          "name": "account",
          "type": "address"
        }
      ],
      "name": "NotContractOwner",
      "type": "error"
    },
    {
      "inputs": [],
      "name": "SaleEnded",
      "type": "error"
    },
    {
      "inputs": [],
      "name": "SaleNotStarted",
      "type": "error"
    },
    {
      "anonymous": false,
      "inputs": [
        {
          "indexed": false,
          "internalType": "address",
          "name": "sender",
          "type": "address"
        },
        {
          "indexed": false,
          "internalType": "uint256",
          "name": "nbTokens",
          "type": "uint256"
        },
        {
          "indexed": false,
          "internalType": "uint256",
          "name": "discountThreshold",
          "type": "uint256"
        }
      ],
      "name": "MintInitiated",
      "type": "event"
    },
    {
      "anonymous": false,
      "inputs": [
        {
          "indexed": true,
          "internalType": "address",
          "name": "previousOwner",
          "type": "address"
        },
        {
          "indexed": true,
          "internalType": "address",
          "name": "newOwner",
          "type": "address"
        }
      ],
      "name": "OwnershipTransferred",
      "type": "event"
    },
    {
      "inputs": [],
      "name": "DISCOUNT_PERCENTAGE_1",
      "outputs": [
        {
          "internalType": "uint256",
          "name": "",
          "type": "uint256"
        }
      ],
      "stateMutability": "view",
      "type": "function"
    },
    {
      "inputs": [],
      "name": "DISCOUNT_PERCENTAGE_2",
      "outputs": [
        {
          "internalType": "uint256",
          "name": "",
          "type": "uint256"
        }
      ],
      "stateMutability": "view",
      "type": "function"
    },
    {
      "inputs": [],
      "name": "DISCOUNT_PERCENTAGE_3",
      "outputs": [
        {
          "internalType": "uint256",
          "name": "",
          "type": "uint256"
        }
      ],
      "stateMutability": "view",
      "type": "function"
    },
    {
      "inputs": [],
      "name": "DISCOUNT_THRESHOLD_1",
      "outputs": [
        {
          "internalType": "uint256",
          "name": "",
          "type": "uint256"
        }
      ],
      "stateMutability": "view",
      "type": "function"
    },
    {
      "inputs": [],
      "name": "DISCOUNT_THRESHOLD_2",
      "outputs": [
        {
          "internalType": "uint256",
          "name": "",
          "type": "uint256"
        }
      ],
      "stateMutability": "view",
      "type": "function"
    },
    {
      "inputs": [],
      "name": "DISCOUNT_THRESHOLD_3",
      "outputs": [
        {
          "internalType": "uint256",
          "name": "",
          "type": "uint256"
        }
      ],
      "stateMutability": "view",
      "type": "function"
    },
    {
      "inputs": [],
      "name": "EDU_CREDITS_MANAGER",
      "outputs": [
        {
          "internalType": "contract EDUCreditsManager",
          "name": "",
          "type": "address"
        }
      ],
      "stateMutability": "view",
      "type": "function"
    },
    {
      "inputs": [],
      "name": "GENESIS_TOKEN",
      "outputs": [
        {
          "internalType": "contract IERC1155",
          "name": "",
          "type": "address"
        }
      ],
      "stateMutability": "view",
      "type": "function"
    },
    {
      "inputs": [],
      "name": "LZ_DST_CHAINID",
      "outputs": [
        {
          "internalType": "uint16",
          "name": "",
          "type": "uint16"
        }
      ],
      "stateMutability": "view",
      "type": "function"
    },
    {
      "inputs": [],
      "name": "LZ_ENDPOINT",
      "outputs": [
        {
          "internalType": "contract ILayerZeroEndpoint",
          "name": "",
          "type": "address"
        }
      ],
      "stateMutability": "view",
      "type": "function"
    },
    {
      "inputs": [],
      "name": "MINT_PRICE",
      "outputs": [
        {
          "internalType": "uint256",
          "name": "",
          "type": "uint256"
        }
      ],
      "stateMutability": "view",
      "type": "function"
    },
    {
      "inputs": [],
      "name": "MINT_SUPPLY_LIMIT",
      "outputs": [
        {
          "internalType": "uint256",
          "name": "",
          "type": "uint256"
        }
      ],
      "stateMutability": "view",
      "type": "function"
    },
    {
      "inputs": [],
      "name": "PHASE1_START_TIMESTAMP",
      "outputs": [
        {
          "internalType": "uint256",
          "name": "",
          "type": "uint256"
        }
      ],
      "stateMutability": "view",
      "type": "function"
    },
    {
      "inputs": [],
      "name": "PHASE2_START_TIMESTAMP",
      "outputs": [
        {
          "internalType": "uint256",
          "name": "",
          "type": "uint256"
        }
      ],
      "stateMutability": "view",
      "type": "function"
    },
    {
      "inputs": [],
      "name": "PHASE3_START_TIMESTAMP",
      "outputs": [
        {
          "internalType": "uint256",
          "name": "",
          "type": "uint256"
        }
      ],
      "stateMutability": "view",
      "type": "function"
    },
    {
      "inputs": [],
      "name": "SALE_END_TIMESTAMP",
      "outputs": [
        {
          "internalType": "uint256",
          "name": "",
          "type": "uint256"
        }
      ],
      "stateMutability": "view",
      "type": "function"
    },
    {
      "inputs": [
        {
          "internalType": "address",
          "name": "account",
          "type": "address"
        }
      ],
      "name": "canMint",
      "outputs": [
        {
          "internalType": "bool",
          "name": "",
          "type": "bool"
        }
      ],
      "stateMutability": "view",
      "type": "function"
    },
    {
      "inputs": [],
      "name": "currentSalePhase",
      "outputs": [
        {
          "internalType": "uint256",
          "name": "",
          "type": "uint256"
        }
      ],
      "stateMutability": "view",
      "type": "function"
    },
    {
      "inputs": [],
      "name": "forwarderRegistry",
      "outputs": [
        {
          "internalType": "contract IForwarderRegistry",
          "name": "",
          "type": "address"
        }
      ],
      "stateMutability": "view",
      "type": "function"
    },
    {
      "inputs": [],
      "name": "getMintPrice",
      "outputs": [
        {
          "internalType": "uint256",
          "name": "price",
          "type": "uint256"
        },
        {
          "internalType": "uint256",
          "name": "discountThreshold",
          "type": "uint256"
        }
      ],
      "stateMutability": "view",
      "type": "function"
    },
    {
      "inputs": [
        {
          "internalType": "address",
          "name": "forwarder",
          "type": "address"
        }
      ],
      "name": "isTrustedForwarder",
      "outputs": [
        {
          "internalType": "bool",
          "name": "",
          "type": "bool"
        }
      ],
      "stateMutability": "view",
      "type": "function"
    },
    {
      "inputs": [],
      "name": "lzDstAddress",
      "outputs": [
        {
          "internalType": "address",
          "name": "",
          "type": "address"
        }
      ],
      "stateMutability": "view",
      "type": "function"
    },
    {
      "inputs": [
        {
          "internalType": "uint256",
          "name": "nbTokens",
          "type": "uint256"
        }
      ],
      "name": "mint",
      "outputs": [],
      "stateMutability": "nonpayable",
      "type": "function"
    },
    {
      "inputs": [],
      "name": "mintCount",
      "outputs": [
        {
          "internalType": "uint256",
          "name": "",
          "type": "uint256"
        }
      ],
      "stateMutability": "view",
      "type": "function"
    },
    {
      "inputs": [],
      "name": "owner",
      "outputs": [
        {
          "internalType": "address",
          "name": "",
          "type": "address"
        }
      ],
      "stateMutability": "view",
      "type": "function"
    },
    {
      "inputs": [
        {
          "internalType": "address",
          "name": "lzDstAddress_",
          "type": "address"
        }
      ],
      "name": "setLzDstAddress",
      "outputs": [],
      "stateMutability": "nonpayable",
      "type": "function"
    },
    {
      "inputs": [
        {
          "internalType": "bytes4",
          "name": "interfaceId",
          "type": "bytes4"
        }
      ],
      "name": "supportsInterface",
      "outputs": [
        {
          "internalType": "bool",
          "name": "",
          "type": "bool"
        }
      ],
      "stateMutability": "view",
      "type": "function"
    },
    {
      "inputs": [
        {
          "internalType": "address",
          "name": "newOwner",
          "type": "address"
        }
      ],
      "name": "transferOwnership",
      "outputs": [],
      "stateMutability": "nonpayable",
      "type": "function"
    },
    {
      "inputs": [
        {
          "internalType": "address",
          "name": "to",
          "type": "address"
        }
      ],
      "name": "withdraw",
      "outputs": [],
      "stateMutability": "nonpayable",
      "type": "function"
    }
  ],
  "bytecode": "0x6102a06040523480156200001257600080fd5b506040516200260538038062002605833981016040819052620000359162000667565b8080336200004e81620000476200043f565b9062000475565b506001600160a01b039081166080528b811660a0528a811660c052891660e0525061ffff871661010052610120869052610140859052835184906000906200009a576200009a6200076d565b602002602001015184600181518110620000b857620000b86200076d565b602002602001015111158062000108575083600181518110620000df57620000df6200076d565b602002602001015184600281518110620000fd57620000fd6200076d565b602002602001015111155b806200014e5750836002815181106200012557620001256200076d565b6020026020010151846003815181106200014357620001436200076d565b602002602001015111155b156200016d5760405163d22806e360e01b815260040160405180910390fd5b836000815181106200018357620001836200076d565b6020026020010151610160818152505083600181518110620001a957620001a96200076d565b6020026020010151610180818152505083600281518110620001cf57620001cf6200076d565b60200260200101516101a0818152505083600381518110620001f557620001f56200076d565b60200260200101516101c08181525050826000815181106200021b576200021b6200076d565b6020026020010151836001815181106200023957620002396200076d565b6020026020010151111580620002895750826001815181106200026057620002606200076d565b6020026020010151836002815181106200027e576200027e6200076d565b602002602001015111155b15620002a85760405163ae2a357360e01b815260040160405180910390fd5b82600081518110620002be57620002be6200076d565b60200260200101516101e0818152505082600181518110620002e457620002e46200076d565b60200260200101516102008181525050826002815181106200030a576200030a6200076d565b60200260200101516102208181525050816000815181106200033057620003306200076d565b6020026020010151826001815181106200034e576200034e6200076d565b60200260200101511115806200039e5750816001815181106200037557620003756200076d565b6020026020010151826002815181106200039357620003936200076d565b602002602001015111155b15620003bd5760405163ebda279160e01b815260040160405180910390fd5b81600081518110620003d357620003d36200076d565b6020026020010151610240818152505081600181518110620003f957620003f96200076d565b60200260200101516102608181525050816002815181106200041f576200041f6200076d565b6020026020010151610280818152505050505050505050505050620007a5565b6000806200046f60017fc9ed16f33ab3a66c84bfd83099ccb2a8845871e2e1c1928f63797152f0fd54cd62000783565b92915050565b6001600160a01b03811615620004cc5781546001600160a01b0319166001600160a01b03821690811783556040516000907f8be0079c531659141344cd1fd0a4f28419497f9722a3daafe3b4186f6b6457e0908290a35b620004ec6307f5828d60e41b6001620004e4620004f0565b919062000520565b5050565b6000806200046f60017fca9d3e17f264b0f3984e2634e94adb37fa3e6a8103f06aeae6fa59e21c769f5e62000783565b600160e01b6001600160e01b03198316016200054f576040516372c683bb60e01b815260040160405180910390fd5b6001600160e01b03199190911660009081526020929092526040909120805460ff1916911515919091179055565b80516001600160a01b03811681146200059557600080fd5b919050565b805161ffff811681146200059557600080fd5b634e487b7160e01b600052604160045260246000fd5b600082601f830112620005d557600080fd5b815160206001600160401b0380831115620005f457620005f4620005ad565b8260051b604051601f19603f830116810181811084821117156200061c576200061c620005ad565b6040529384528581018301938381019250878511156200063b57600080fd5b83870191505b848210156200065c5781518352918301919083019062000641565b979650505050505050565b6000806000806000806000806000806101408b8d0312156200068857600080fd5b620006938b6200057d565b9950620006a360208c016200057d565b9850620006b360408c016200057d565b9750620006c360608c016200059a565b60808c015160a08d015160c08e015192995090975095506001600160401b0380821115620006f057600080fd5b620006fe8e838f01620005c3565b955060e08d01519150808211156200071557600080fd5b620007238e838f01620005c3565b94506101008d01519150808211156200073b57600080fd5b506200074a8d828e01620005c3565b9250506200075c6101208c016200057d565b90509295989b9194979a5092959850565b634e487b7160e01b600052603260045260246000fd5b818103818111156200046f57634e487b7160e01b600052601160045260246000fd5b60805160a05160c05160e05161010051610120516101405161016051610180516101a0516101c0516101e0516102005161022051610240516102605161028051611c9462000971600039600081816103ab0152610fef015260008181610340015261106001526000818161052601526110d10152600081816104160152610fc3015260008181610201015261103401526000818161027d01526110a50152600081816102a4015281816106e70152818161111a01526114d0015260008181610477015281816107410152818161114a01526114fe0152600081816104d80152818161076901528181611179015261152b01526000818161054d015281816109f9015281816113d101526115580152600081816105740152610b4901526000818161043d0152610f0d01526000818161049e01528181610d130152610e410152600081816104ff01528181610ce50152610e120152600081816103ef015281816107d301528181610a6301528181610bcd01528181610f32015281816111e3015261143b01526000818161059b015281816108910152818161094f0152818161129f015261135d015260008181610233015281816102eb0152818161189101526119190152611c946000f3fe608060405234801561001057600080fd5b50600436106101cf5760003560e01c8063a7f93ebd11610104578063c8767f2f116100a2578063e36d820511610071578063e36d82051461056f578063ef59df2714610596578063f2fde38b146105bd578063f53da97e146105d057600080fd5b8063c8767f2f146104d3578063cd4d1c64146104fa578063d7f6216314610521578063dba535d71461054857600080fd5b8063c002d23d116100de578063c002d23d14610438578063c2ba47441461045f578063c482350414610472578063c834c9791461049957600080fd5b8063a7f93ebd146103cd578063ae8384d0146103ea578063b68ba08b1461041157600080fd5b806357e33a27116101715780639659867e1161014b5780639659867e1461036a57806396a3804514610373578063a0712d6814610393578063a0e5d770146103a657600080fd5b806357e33a2714610328578063812042031461033b5780638da5cb5b1461036257600080fd5b80632d3ccf3f116101ad5780632d3ccf3f146102785780634210830d1461029f57806351cff8d9146102c6578063572b6c05146102db57600080fd5b806301ffc9a7146101d45780631d1f42ec146101fc5780632b4c9f1614610231575b600080fd5b6101e76101e2366004611995565b6105d8565b60405190151581526020015b60405180910390f35b6102237f000000000000000000000000000000000000000000000000000000000000000081565b6040519081526020016101f3565b7f00000000000000000000000000000000000000000000000000000000000000005b60405173ffffffffffffffffffffffffffffffffffffffff90911681526020016101f3565b6102237f000000000000000000000000000000000000000000000000000000000000000081565b6102237f000000000000000000000000000000000000000000000000000000000000000081565b6102d96102d43660046119de565b6105f2565b005b6101e76102e93660046119de565b7f000000000000000000000000000000000000000000000000000000000000000073ffffffffffffffffffffffffffffffffffffffff90811691161490565b6102d96103363660046119de565b61065b565b6102237f000000000000000000000000000000000000000000000000000000000000000081565b6102536106ad565b61022360015481565b6000546102539073ffffffffffffffffffffffffffffffffffffffff1681565b6102d96103a1366004611a14565b6106d9565b6102237f000000000000000000000000000000000000000000000000000000000000000081565b6103d5610f08565b604080519283526020830191909152016101f3565b6102537f000000000000000000000000000000000000000000000000000000000000000081565b6102237f000000000000000000000000000000000000000000000000000000000000000081565b6102237f000000000000000000000000000000000000000000000000000000000000000081565b6101e761046d3660046119de565b611116565b6102237f000000000000000000000000000000000000000000000000000000000000000081565b6104c07f000000000000000000000000000000000000000000000000000000000000000081565b60405161ffff90911681526020016101f3565b6102237f000000000000000000000000000000000000000000000000000000000000000081565b6102537f000000000000000000000000000000000000000000000000000000000000000081565b6102237f000000000000000000000000000000000000000000000000000000000000000081565b6102237f000000000000000000000000000000000000000000000000000000000000000081565b6102237f000000000000000000000000000000000000000000000000000000000000000081565b6102537f000000000000000000000000000000000000000000000000000000000000000081565b6102d96105cb3660046119de565b6114ae565b6102236114cc565b60006105ec826105e6611589565b906115b7565b92915050565b61060b6105fd611691565b61060561169b565b906116c9565b4780156106575760405173ffffffffffffffffffffffffffffffffffffffff83169082156108fc029083906000818181858888f19350505050158015610655573d6000803e3d6000fd5b505b5050565b6106666105fd611691565b600080547fffffffffffffffffffffffff00000000000000000000000000000000000000001673ffffffffffffffffffffffffffffffffffffffff92909216919091179055565b60006106d46106ba61169b565b5473ffffffffffffffffffffffffffffffffffffffff1690565b905090565b60006106e3611691565b90507f000000000000000000000000000000000000000000000000000000000000000042111561073f576040517f0bd8a3eb00000000000000000000000000000000000000000000000000000000815260040160405180910390fd5b7f0000000000000000000000000000000000000000000000000000000000000000421015610b36577f000000000000000000000000000000000000000000000000000000000000000042106109f7576040517f508fc90500000000000000000000000000000000000000000000000000000000815273ffffffffffffffffffffffffffffffffffffffff82811660048301527f0000000000000000000000000000000000000000000000000000000000000000169063508fc90590602401602060405180830381865afa15801561081a573d6000803e3d6000fd5b505050506040513d601f19601f8201168201806040525081019061083e9190611a2d565b1580156108fd57506040517efdd58e00000000000000000000000000000000000000000000000000000000815273ffffffffffffffffffffffffffffffffffffffff8281166004830152600060248301527f0000000000000000000000000000000000000000000000000000000000000000169062fdd58e90604401602060405180830381865afa1580156108d7573d6000803e3d6000fd5b505050506040513d601f19601f820116820180604052508101906108fb9190611a4f565b155b80156109bb57506040517efdd58e00000000000000000000000000000000000000000000000000000000815273ffffffffffffffffffffffffffffffffffffffff8281166004830152600160248301527f0000000000000000000000000000000000000000000000000000000000000000169062fdd58e90604401602060405180830381865afa158015610995573d6000803e3d6000fd5b505050506040513d601f19601f820116820180604052508101906109b99190611a4f565b155b156109f2576040517feca8f22000000000000000000000000000000000000000000000000000000000815260040160405180910390fd5b610b36565b7f00000000000000000000000000000000000000000000000000000000000000004210610b04576040517f508fc90500000000000000000000000000000000000000000000000000000000815273ffffffffffffffffffffffffffffffffffffffff82811660048301527f0000000000000000000000000000000000000000000000000000000000000000169063508fc90590602401602060405180830381865afa158015610aaa573d6000803e3d6000fd5b505050506040513d601f19601f82011682018060405250810190610ace9190611a2d565b6109f2576040517fdc460b7300000000000000000000000000000000000000000000000000000000815260040160405180910390fd5b6040517f2d0a346e00000000000000000000000000000000000000000000000000000000815260040160405180910390fd5b6001546000610b458483611a97565b90507f0000000000000000000000000000000000000000000000000000000000000000811115610ba1576040517f7b838b0200000000000000000000000000000000000000000000000000000000815260040160405180910390fd5b6001819055600080610bb1610f08565b909250905073ffffffffffffffffffffffffffffffffffffffff7f00000000000000000000000000000000000000000000000000000000000000001663af7d6ca386610bfd8986611aaa565b6040517fffffffff0000000000000000000000000000000000000000000000000000000060e085901b16815273ffffffffffffffffffffffffffffffffffffffff90921660048301526024820152604401600060405180830381600087803b158015610c6857600080fd5b505af1158015610c7c573d6000803e3d6000fd5b50506040805173ffffffffffffffffffffffffffffffffffffffff89811660208301528183018b90528251808303840181526060830193849052600080547f40a7bb100000000000000000000000000000000000000000000000000000000090955290955093507f00000000000000000000000000000000000000000000000000000000000000008116926340a7bb1092610d41927f000000000000000000000000000000000000000000000000000000000000000092169087908790606401611b25565b6040805180830381865afa158015610d5d573d6000803e3d6000fd5b505050506040513d601f19601f82011682018060405250810190610d819190611b7e565b5060008054604080517fffffffffffffffffffffffffffffffffffffffff000000000000000000000000606093841b81166020830152309384901b1660348201528151808203602801815260488201928390527fc58031000000000000000000000000000000000000000000000000000000000090925293945073ffffffffffffffffffffffffffffffffffffffff7f0000000000000000000000000000000000000000000000000000000000000000169363c5803100938693610e6e937f00000000000000000000000000000000000000000000000000000000000000009390928a9291604c01611ba2565b6000604051808303818588803b158015610e8757600080fd5b505af1158015610e9b573d6000803e3d6000fd5b50506040805173ffffffffffffffffffffffffffffffffffffffff8c168152602081018d90529081018790527f6b9646daf37cd2bfd6cf46c729da3ea690a73a6555404e5f0299e15a865ed38493506060019150610ef69050565b60405180910390a15050505050505050565b6000807f0000000000000000000000000000000000000000000000000000000000000000915060007f000000000000000000000000000000000000000000000000000000000000000073ffffffffffffffffffffffffffffffffffffffff1663b5bd3eb96040518163ffffffff1660e01b8152600401602060405180830381865afa158015610f9b573d6000803e3d6000fd5b505050506040513d601f19601f82011682018060405250810190610fbf9190611a4f565b90507f000000000000000000000000000000000000000000000000000000000000000081106110325760646110147f000000000000000000000000000000000000000000000000000000000000000082611c10565b61101e9085611aaa565b6110289190611c23565b9360039350915050565b7f000000000000000000000000000000000000000000000000000000000000000081106110a35760646110857f000000000000000000000000000000000000000000000000000000000000000082611c10565b61108f9085611aaa565b6110999190611c23565b9360029350915050565b7f000000000000000000000000000000000000000000000000000000000000000081106111115760646110f67f000000000000000000000000000000000000000000000000000000000000000082611c10565b6111009085611aaa565b61110a9190611c23565b9250600191505b509091565b60007f000000000000000000000000000000000000000000000000000000000000000042111561114857506000919050565b7f0000000000000000000000000000000000000000000000000000000000000000421061117757506001919050565b7f000000000000000000000000000000000000000000000000000000000000000042106113cf576040517f508fc90500000000000000000000000000000000000000000000000000000000815273ffffffffffffffffffffffffffffffffffffffff83811660048301527f0000000000000000000000000000000000000000000000000000000000000000169063508fc90590602401602060405180830381865afa15801561122a573d6000803e3d6000fd5b505050506040513d601f19601f8201168201806040525081019061124e9190611a2d565b8061130c57506040517efdd58e00000000000000000000000000000000000000000000000000000000815273ffffffffffffffffffffffffffffffffffffffff8381166004830152600060248301527f0000000000000000000000000000000000000000000000000000000000000000169062fdd58e90604401602060405180830381865afa1580156112e5573d6000803e3d6000fd5b505050506040513d601f19601f820116820180604052508101906113099190611a4f565b15155b806105ec57506040517efdd58e00000000000000000000000000000000000000000000000000000000815273ffffffffffffffffffffffffffffffffffffffff8381166004830152600160248301527f0000000000000000000000000000000000000000000000000000000000000000169062fdd58e90604401602060405180830381865afa1580156113a3573d6000803e3d6000fd5b505050506040513d601f19601f820116820180604052508101906113c79190611a4f565b151592915050565b7f000000000000000000000000000000000000000000000000000000000000000042106114a6576040517f508fc90500000000000000000000000000000000000000000000000000000000815273ffffffffffffffffffffffffffffffffffffffff83811660048301527f0000000000000000000000000000000000000000000000000000000000000000169063508fc90590602401602060405180830381865afa158015611482573d6000803e3d6000fd5b505050506040513d601f19601f820116820180604052508101906105ec9190611a2d565b506000919050565b6114c96114b9611691565b826114c261169b565b9190611739565b50565b60007f00000000000000000000000000000000000000000000000000000000000000004211156114fc5750600490565b7f000000000000000000000000000000000000000000000000000000000000000042106115295750600390565b7f000000000000000000000000000000000000000000000000000000000000000042106115565750600290565b7f000000000000000000000000000000000000000000000000000000000000000042106115835750600190565b50600090565b6000806105ec60017fca9d3e17f264b0f3984e2634e94adb37fa3e6a8103f06aeae6fa59e21c769f5e611c10565b60007c01000000000000000000000000000000000000000000000000000000007fffffffff00000000000000000000000000000000000000000000000000000000831601611607575060006105ec565b7ffe003659000000000000000000000000000000000000000000000000000000007fffffffff00000000000000000000000000000000000000000000000000000000831601611658575060016105ec565b507fffffffff00000000000000000000000000000000000000000000000000000000166000908152602091909152604090205460ff1690565b60006106d461184e565b6000806105ec60017fc9ed16f33ab3a66c84bfd83099ccb2a8845871e2e1c1928f63797152f0fd54cd611c10565b815473ffffffffffffffffffffffffffffffffffffffff828116911614610657576040517f2ef4875e00000000000000000000000000000000000000000000000000000000815273ffffffffffffffffffffffffffffffffffffffff821660048201526024015b60405180910390fd5b825473ffffffffffffffffffffffffffffffffffffffff90811690831681146117a6576040517f2ef4875e00000000000000000000000000000000000000000000000000000000815273ffffffffffffffffffffffffffffffffffffffff84166004820152602401611730565b8173ffffffffffffffffffffffffffffffffffffffff168173ffffffffffffffffffffffffffffffffffffffff16146118485783547fffffffffffffffffffffffff00000000000000000000000000000000000000001673ffffffffffffffffffffffffffffffffffffffff8381169182178655604051908316907f8be0079c531659141344cd1fd0a4f28419497f9722a3daafe3b4186f6b6457e090600090a35b50505050565b60003332148061185e5750601836105b1561186857503390565b7fffffffffffffffffffffffffffffffffffffffffffffffffffffffffffffffec36013560601c7f000000000000000000000000000000000000000000000000000000000000000073ffffffffffffffffffffffffffffffffffffffff1633148061198457506040517f8929a8ca00000000000000000000000000000000000000000000000000000000815273ffffffffffffffffffffffffffffffffffffffff82811660048301523360248301527f00000000000000000000000000000000000000000000000000000000000000001690638929a8ca90604401602060405180830381865afa158015611960573d6000803e3d6000fd5b505050506040513d601f19601f820116820180604052508101906119849190611a2d565b1561198e57919050565b3391505090565b6000602082840312156119a757600080fd5b81357fffffffff00000000000000000000000000000000000000000000000000000000811681146119d757600080fd5b9392505050565b6000602082840312156119f057600080fd5b813573ffffffffffffffffffffffffffffffffffffffff811681146119d757600080fd5b600060208284031215611a2657600080fd5b5035919050565b600060208284031215611a3f57600080fd5b815180151581146119d757600080fd5b600060208284031215611a6157600080fd5b5051919050565b7f4e487b7100000000000000000000000000000000000000000000000000000000600052601160045260246000fd5b808201808211156105ec576105ec611a68565b80820281158282048414176105ec576105ec611a68565b6000815180845260005b81811015611ae757602081850181015186830182015201611acb565b5060006020828601015260207fffffffffffffffffffffffffffffffffffffffffffffffffffffffffffffffe0601f83011685010191505092915050565b61ffff8516815273ffffffffffffffffffffffffffffffffffffffff8416602082015260a060408201526000611b5e60a0830185611ac1565b921515606083015250808203608090910152600081526020019392505050565b60008060408385031215611b9157600080fd5b505080516020909101519092909150565b61ffff8616815260c060208201526000611bbf60c0830187611ac1565b8281036040840152611bd18187611ac1565b73ffffffffffffffffffffffffffffffffffffffff95861660608501529390941660808301525080820360a09091015260008152602001949350505050565b818103818111156105ec576105ec611a68565b600082611c59577f4e487b7100000000000000000000000000000000000000000000000000000000600052601260045260246000fd5b50049056fea2646970667358221220385a0232996fd6d62d631eff93dcac57f817f9a9e1306d57463e1e1e8683f79464736f6c63430008150033",
  "linkReferences": {},
  "deployedLinkReferences": {}
}