{
  "_format": "hh-sol-artifact-1",
  "contractName": "PublisherNFTSale",
  "sourceName": "contracts/sale/PublisherNFTSale.sol",
  "abi": [
    {
      "inputs": [
        {
          "internalType": "contract IERC1155",
          "name": "genesisToken",
          "type": "address"
        },
        {
          "internalType": "contract EDUCreditsManager",
          "name": "eduCreditsManager",
          "type": "address"
        },
        {
          "internalType": "contract ILayerZeroEndpoint",
          "name": "lzEndpoint",
          "type": "address"
        },
        {
          "internalType": "uint16",
          "name": "lzDstChainId",
          "type": "uint16"
        },
        {
          "internalType": "uint256",
          "name": "mintPrice",
          "type": "uint256"
        },
        {
          "internalType": "uint256",
          "name": "mintSupplyLimit",
          "type": "uint256"
        },
        {
          "internalType": "uint256[]",
          "name": "timestamps",
          "type": "uint256[]"
        },
        {
          "internalType": "uint256[]",
          "name": "discountThresholds",
          "type": "uint256[]"
        },
        {
          "internalType": "uint256[]",
          "name": "discountPercentages",
          "type": "uint256[]"
        },
        {
          "internalType": "contract IForwarderRegistry",
          "name": "forwarderRegistry",
          "type": "address"
        }
      ],
      "stateMutability": "payable",
      "type": "constructor"
    },
    {
      "inputs": [],
      "name": "IllegalInterfaceId",
      "type": "error"
    },
    {
      "inputs": [],
      "name": "InsufficientMintSupply",
      "type": "error"
    },
    {
      "inputs": [],
      "name": "InvalidDiscountPercentages",
      "type": "error"
    },
    {
      "inputs": [],
      "name": "InvalidDiscountThresholds",
      "type": "error"
    },
    {
      "inputs": [],
      "name": "InvalidTimestamps",
      "type": "error"
    },
    {
      "inputs": [],
      "name": "LzDstAddressAlreadySet",
      "type": "error"
    },
    {
      "inputs": [],
      "name": "LzDstAddressNotSet",
      "type": "error"
    },
    {
      "inputs": [],
      "name": "NotADiamondHand",
      "type": "error"
    },
    {
      "inputs": [],
      "name": "NotADiamondHandNorAGenesisNFTOwner",
      "type": "error"
    },
    {
      "inputs": [
        {
          "internalType": "address",
          "name": "account",
          "type": "address"
        }
      ],
      "name": "NotContractOwner",
      "type": "error"
    },
    {
      "inputs": [],
      "name": "SaleEnded",
      "type": "error"
    },
    {
      "inputs": [],
      "name": "SaleNotStarted",
      "type": "error"
    },
    {
      "anonymous": false,
      "inputs": [
        {
          "indexed": false,
          "internalType": "address",
          "name": "sender",
          "type": "address"
        },
        {
          "indexed": false,
          "internalType": "uint256",
          "name": "nbTokens",
          "type": "uint256"
        },
        {
          "indexed": false,
          "internalType": "uint256",
          "name": "discountThreshold",
          "type": "uint256"
        }
      ],
      "name": "MintInitiated",
      "type": "event"
    },
    {
      "anonymous": false,
      "inputs": [
        {
          "indexed": true,
          "internalType": "address",
          "name": "previousOwner",
          "type": "address"
        },
        {
          "indexed": true,
          "internalType": "address",
          "name": "newOwner",
          "type": "address"
        }
      ],
      "name": "OwnershipTransferred",
      "type": "event"
    },
    {
      "inputs": [],
      "name": "DISCOUNT_PERCENTAGE_1",
      "outputs": [
        {
          "internalType": "uint256",
          "name": "",
          "type": "uint256"
        }
      ],
      "stateMutability": "view",
      "type": "function"
    },
    {
      "inputs": [],
      "name": "DISCOUNT_PERCENTAGE_2",
      "outputs": [
        {
          "internalType": "uint256",
          "name": "",
          "type": "uint256"
        }
      ],
      "stateMutability": "view",
      "type": "function"
    },
    {
      "inputs": [],
      "name": "DISCOUNT_PERCENTAGE_3",
      "outputs": [
        {
          "internalType": "uint256",
          "name": "",
          "type": "uint256"
        }
      ],
      "stateMutability": "view",
      "type": "function"
    },
    {
      "inputs": [],
      "name": "DISCOUNT_THRESHOLD_1",
      "outputs": [
        {
          "internalType": "uint256",
          "name": "",
          "type": "uint256"
        }
      ],
      "stateMutability": "view",
      "type": "function"
    },
    {
      "inputs": [],
      "name": "DISCOUNT_THRESHOLD_2",
      "outputs": [
        {
          "internalType": "uint256",
          "name": "",
          "type": "uint256"
        }
      ],
      "stateMutability": "view",
      "type": "function"
    },
    {
      "inputs": [],
      "name": "DISCOUNT_THRESHOLD_3",
      "outputs": [
        {
          "internalType": "uint256",
          "name": "",
          "type": "uint256"
        }
      ],
      "stateMutability": "view",
      "type": "function"
    },
    {
      "inputs": [],
      "name": "EDU_CREDITS_MANAGER",
      "outputs": [
        {
          "internalType": "contract EDUCreditsManager",
          "name": "",
          "type": "address"
        }
      ],
      "stateMutability": "view",
      "type": "function"
    },
    {
      "inputs": [],
      "name": "GENESIS_TOKEN",
      "outputs": [
        {
          "internalType": "contract IERC1155",
          "name": "",
          "type": "address"
        }
      ],
      "stateMutability": "view",
      "type": "function"
    },
    {
      "inputs": [],
      "name": "LZ_DST_CHAINID",
      "outputs": [
        {
          "internalType": "uint16",
          "name": "",
          "type": "uint16"
        }
      ],
      "stateMutability": "view",
      "type": "function"
    },
    {
      "inputs": [],
      "name": "LZ_ENDPOINT",
      "outputs": [
        {
          "internalType": "contract ILayerZeroEndpoint",
          "name": "",
          "type": "address"
        }
      ],
      "stateMutability": "view",
      "type": "function"
    },
    {
      "inputs": [],
      "name": "MINT_PRICE",
      "outputs": [
        {
          "internalType": "uint256",
          "name": "",
          "type": "uint256"
        }
      ],
      "stateMutability": "view",
      "type": "function"
    },
    {
      "inputs": [],
      "name": "MINT_SUPPLY_LIMIT",
      "outputs": [
        {
          "internalType": "uint256",
          "name": "",
          "type": "uint256"
        }
      ],
      "stateMutability": "view",
      "type": "function"
    },
    {
      "inputs": [],
      "name": "PHASE1_START_TIMESTAMP",
      "outputs": [
        {
          "internalType": "uint256",
          "name": "",
          "type": "uint256"
        }
      ],
      "stateMutability": "view",
      "type": "function"
    },
    {
      "inputs": [],
      "name": "PHASE2_START_TIMESTAMP",
      "outputs": [
        {
          "internalType": "uint256",
          "name": "",
          "type": "uint256"
        }
      ],
      "stateMutability": "view",
      "type": "function"
    },
    {
      "inputs": [],
      "name": "PHASE3_START_TIMESTAMP",
      "outputs": [
        {
          "internalType": "uint256",
          "name": "",
          "type": "uint256"
        }
      ],
      "stateMutability": "view",
      "type": "function"
    },
    {
      "inputs": [],
      "name": "SALE_END_TIMESTAMP",
      "outputs": [
        {
          "internalType": "uint256",
          "name": "",
          "type": "uint256"
        }
      ],
      "stateMutability": "view",
      "type": "function"
    },
    {
      "inputs": [
        {
          "internalType": "address",
          "name": "account",
          "type": "address"
        }
      ],
      "name": "canMint",
      "outputs": [
        {
          "internalType": "bool",
          "name": "",
          "type": "bool"
        }
      ],
      "stateMutability": "view",
      "type": "function"
    },
    {
      "inputs": [],
      "name": "currentMintPrice",
      "outputs": [
        {
          "internalType": "uint256",
          "name": "price",
          "type": "uint256"
        },
        {
          "internalType": "uint256",
          "name": "discountThreshold",
          "type": "uint256"
        }
      ],
      "stateMutability": "view",
      "type": "function"
    },
    {
      "inputs": [],
      "name": "currentSalePhase",
      "outputs": [
        {
          "internalType": "uint256",
          "name": "",
          "type": "uint256"
        }
      ],
      "stateMutability": "view",
      "type": "function"
    },
    {
      "inputs": [],
      "name": "forwarderRegistry",
      "outputs": [
        {
          "internalType": "contract IForwarderRegistry",
          "name": "",
          "type": "address"
        }
      ],
      "stateMutability": "view",
      "type": "function"
    },
    {
      "inputs": [
        {
          "internalType": "address",
          "name": "forwarder",
          "type": "address"
        }
      ],
      "name": "isTrustedForwarder",
      "outputs": [
        {
          "internalType": "bool",
          "name": "",
          "type": "bool"
        }
      ],
      "stateMutability": "view",
      "type": "function"
    },
    {
      "inputs": [],
      "name": "lzDstAddress",
      "outputs": [
        {
          "internalType": "address",
          "name": "",
          "type": "address"
        }
      ],
      "stateMutability": "view",
      "type": "function"
    },
    {
      "inputs": [
        {
          "internalType": "uint256",
          "name": "nbTokens",
          "type": "uint256"
        }
      ],
      "name": "mint",
      "outputs": [],
      "stateMutability": "nonpayable",
      "type": "function"
    },
    {
      "inputs": [],
      "name": "mintCount",
      "outputs": [
        {
          "internalType": "uint256",
          "name": "",
          "type": "uint256"
        }
      ],
      "stateMutability": "view",
      "type": "function"
    },
    {
      "inputs": [],
      "name": "owner",
      "outputs": [
        {
          "internalType": "address",
          "name": "",
          "type": "address"
        }
      ],
      "stateMutability": "view",
      "type": "function"
    },
    {
      "inputs": [
        {
          "internalType": "address",
          "name": "lzDstAddress_",
          "type": "address"
        }
      ],
      "name": "setLzDstAddress",
      "outputs": [],
      "stateMutability": "nonpayable",
      "type": "function"
    },
    {
      "inputs": [
        {
          "internalType": "bytes4",
          "name": "interfaceId",
          "type": "bytes4"
        }
      ],
      "name": "supportsInterface",
      "outputs": [
        {
          "internalType": "bool",
          "name": "",
          "type": "bool"
        }
      ],
      "stateMutability": "view",
      "type": "function"
    },
    {
      "inputs": [
        {
          "internalType": "address",
          "name": "newOwner",
          "type": "address"
        }
      ],
      "name": "transferOwnership",
      "outputs": [],
      "stateMutability": "nonpayable",
      "type": "function"
    },
    {
      "inputs": [
        {
          "internalType": "address",
          "name": "to",
          "type": "address"
        }
      ],
      "name": "withdraw",
      "outputs": [],
      "stateMutability": "nonpayable",
      "type": "function"
    },
    {
      "stateMutability": "payable",
      "type": "receive"
    }
  ],
  "bytecode": "0x6102a0604052604051620027a5380380620027a5833981016040819052620000279162000659565b80803362000040816200003962000431565b9062000467565b506001600160a01b039081166080528b811660a0528a811660c052891660e0525061ffff871661010052610120869052610140859052835184906000906200008c576200008c6200075f565b602002602001015184600181518110620000aa57620000aa6200075f565b6020026020010151111580620000fa575083600181518110620000d157620000d16200075f565b602002602001015184600281518110620000ef57620000ef6200075f565b602002602001015111155b80620001405750836002815181106200011757620001176200075f565b6020026020010151846003815181106200013557620001356200075f565b602002602001015111155b156200015f5760405163d22806e360e01b815260040160405180910390fd5b836000815181106200017557620001756200075f565b60200260200101516101608181525050836001815181106200019b576200019b6200075f565b6020026020010151610180818152505083600281518110620001c157620001c16200075f565b60200260200101516101a0818152505083600381518110620001e757620001e76200075f565b60200260200101516101c08181525050826000815181106200020d576200020d6200075f565b6020026020010151836001815181106200022b576200022b6200075f565b60200260200101511115806200027b5750826001815181106200025257620002526200075f565b6020026020010151836002815181106200027057620002706200075f565b602002602001015111155b156200029a5760405163ae2a357360e01b815260040160405180910390fd5b82600081518110620002b057620002b06200075f565b60200260200101516101e0818152505082600181518110620002d657620002d66200075f565b6020026020010151610200818152505082600281518110620002fc57620002fc6200075f565b60200260200101516102208181525050816000815181106200032257620003226200075f565b6020026020010151826001815181106200034057620003406200075f565b6020026020010151111580620003905750816001815181106200036757620003676200075f565b6020026020010151826002815181106200038557620003856200075f565b602002602001015111155b15620003af5760405163ebda279160e01b815260040160405180910390fd5b81600081518110620003c557620003c56200075f565b6020026020010151610240818152505081600181518110620003eb57620003eb6200075f565b60200260200101516102608181525050816002815181106200041157620004116200075f565b602002602001015161028081815250505050505050505050505062000797565b6000806200046160017fc9ed16f33ab3a66c84bfd83099ccb2a8845871e2e1c1928f63797152f0fd54cd62000775565b92915050565b6001600160a01b03811615620004be5781546001600160a01b0319166001600160a01b03821690811783556040516000907f8be0079c531659141344cd1fd0a4f28419497f9722a3daafe3b4186f6b6457e0908290a35b620004de6307f5828d60e41b6001620004d6620004e2565b919062000512565b5050565b6000806200046160017fca9d3e17f264b0f3984e2634e94adb37fa3e6a8103f06aeae6fa59e21c769f5e62000775565b600160e01b6001600160e01b031983160162000541576040516372c683bb60e01b815260040160405180910390fd5b6001600160e01b03199190911660009081526020929092526040909120805460ff1916911515919091179055565b80516001600160a01b03811681146200058757600080fd5b919050565b805161ffff811681146200058757600080fd5b634e487b7160e01b600052604160045260246000fd5b600082601f830112620005c757600080fd5b815160206001600160401b0380831115620005e657620005e66200059f565b8260051b604051601f19603f830116810181811084821117156200060e576200060e6200059f565b6040529384528581018301938381019250878511156200062d57600080fd5b83870191505b848210156200064e5781518352918301919083019062000633565b979650505050505050565b6000806000806000806000806000806101408b8d0312156200067a57600080fd5b620006858b6200056f565b99506200069560208c016200056f565b9850620006a560408c016200056f565b9750620006b560608c016200058c565b60808c015160a08d015160c08e015192995090975095506001600160401b0380821115620006e257600080fd5b620006f08e838f01620005b5565b955060e08d01519150808211156200070757600080fd5b620007158e838f01620005b5565b94506101008d01519150808211156200072d57600080fd5b506200073c8d828e01620005b5565b9250506200074e6101208c016200056f565b90509295989b9194979a5092959850565b634e487b7160e01b600052603260045260246000fd5b818103818111156200046157634e487b7160e01b600052601160045260246000fd5b60805160a05160c05160e05161010051610120516101405161016051610180516101a0516101c0516101e0516102005161022051610240516102605161028051611e7a6200092b6000396000818161048901526108500152600081816103dd01526108c101526000818161065c01526109320152600081816104f1015261082401526000818161024301526108950152600081816102d9015261090601526000818161030d01526116b101526000818161057901526116df0152600081816105f4015261170c01526000818161069001526117390152600081816106c40152610efb015260008181610525015261076e0152600081816105ad0152818161115c015261128c0152600081816106280152818161112e015261125d0152600081816104bd0152818161079301528181610b4d01528181610c4001528181610f7f015281816113c901526114880152600081816106f801528181610cfe01528181610dbc0152818161154401526116020152600081816102820152818161036e01528181611a720152611afa0152611e7a6000f3fe6080604052600436106101c65760003560e01c8063a0e5d770116100f7578063c8767f2f11610095578063e36d820511610064578063e36d8205146106b2578063ef59df27146106e6578063f2fde38b1461071a578063f53da97e1461073a57600080fd5b8063c8767f2f146105e2578063cd4d1c6414610616578063d7f621631461064a578063dba535d71461067e57600080fd5b8063c002d23d116100d1578063c002d23d14610513578063c2ba474414610547578063c482350414610567578063c834c9791461059b57600080fd5b8063a0e5d77014610477578063ae8384d0146104ab578063b68ba08b146104df57600080fd5b8063572b6c05116101645780638da5cb5b1161013e5780638da5cb5b146103ff5780639659867e1461041457806396a380451461042a578063a0712d681461045757600080fd5b8063572b6c051461035157806357e33a27146103ab57806381204203146103cb57600080fd5b80632b4c9f16116101a05780632b4c9f16146102735780632d3ccf3f146102c75780634210830d146102fb57806351cff8d91461032f57600080fd5b806301ffc9a7146101d25780630561942a146102075780631d1f42ec1461023157600080fd5b366101cd57005b600080fd5b3480156101de57600080fd5b506101f26101ed366004611b76565b61074f565b60405190151581526020015b60405180910390f35b34801561021357600080fd5b5061021c610769565b604080519283526020830191909152016101fe565b34801561023d57600080fd5b506102657f000000000000000000000000000000000000000000000000000000000000000081565b6040519081526020016101fe565b34801561027f57600080fd5b507f00000000000000000000000000000000000000000000000000000000000000005b60405173ffffffffffffffffffffffffffffffffffffffff90911681526020016101fe565b3480156102d357600080fd5b506102657f000000000000000000000000000000000000000000000000000000000000000081565b34801561030757600080fd5b506102657f000000000000000000000000000000000000000000000000000000000000000081565b34801561033b57600080fd5b5061034f61034a366004611bb8565b610977565b005b34801561035d57600080fd5b506101f261036c366004611bb8565b7f000000000000000000000000000000000000000000000000000000000000000073ffffffffffffffffffffffffffffffffffffffff90811691161490565b3480156103b757600080fd5b5061034f6103c6366004611bb8565b6109e0565b3480156103d757600080fd5b506102657f000000000000000000000000000000000000000000000000000000000000000081565b34801561040b57600080fd5b506102a2610a82565b34801561042057600080fd5b5061026560015481565b34801561043657600080fd5b506000546102a29073ffffffffffffffffffffffffffffffffffffffff1681565b34801561046357600080fd5b5061034f610472366004611bee565b610aae565b34801561048357600080fd5b506102657f000000000000000000000000000000000000000000000000000000000000000081565b3480156104b757600080fd5b506102a27f000000000000000000000000000000000000000000000000000000000000000081565b3480156104eb57600080fd5b506102657f000000000000000000000000000000000000000000000000000000000000000081565b34801561051f57600080fd5b506102657f000000000000000000000000000000000000000000000000000000000000000081565b34801561055357600080fd5b506101f2610562366004611bb8565b61135e565b34801561057357600080fd5b506102657f000000000000000000000000000000000000000000000000000000000000000081565b3480156105a757600080fd5b506105cf7f000000000000000000000000000000000000000000000000000000000000000081565b60405161ffff90911681526020016101fe565b3480156105ee57600080fd5b506102657f000000000000000000000000000000000000000000000000000000000000000081565b34801561062257600080fd5b506102a27f000000000000000000000000000000000000000000000000000000000000000081565b34801561065657600080fd5b506102657f000000000000000000000000000000000000000000000000000000000000000081565b34801561068a57600080fd5b506102657f000000000000000000000000000000000000000000000000000000000000000081565b3480156106be57600080fd5b506102657f000000000000000000000000000000000000000000000000000000000000000081565b3480156106f257600080fd5b506102a27f000000000000000000000000000000000000000000000000000000000000000081565b34801561072657600080fd5b5061034f610735366004611bb8565b61168f565b34801561074657600080fd5b506102656116ad565b60006107638261075d61176a565b90611798565b92915050565b6000807f0000000000000000000000000000000000000000000000000000000000000000915060007f000000000000000000000000000000000000000000000000000000000000000073ffffffffffffffffffffffffffffffffffffffff1663b5bd3eb96040518163ffffffff1660e01b8152600401602060405180830381865afa1580156107fc573d6000803e3d6000fd5b505050506040513d601f19601f820116820180604052508101906108209190611c07565b90507f000000000000000000000000000000000000000000000000000000000000000081106108935760646108757f000000000000000000000000000000000000000000000000000000000000000082611c4f565b61087f9085611c62565b6108899190611c79565b9360039350915050565b7f000000000000000000000000000000000000000000000000000000000000000081106109045760646108e67f000000000000000000000000000000000000000000000000000000000000000082611c4f565b6108f09085611c62565b6108fa9190611c79565b9360029350915050565b7f000000000000000000000000000000000000000000000000000000000000000081106109725760646109577f000000000000000000000000000000000000000000000000000000000000000082611c4f565b6109619085611c62565b61096b9190611c79565b9250600191505b509091565b610990610982611872565b61098a61187c565b906118aa565b4780156109dc5760405173ffffffffffffffffffffffffffffffffffffffff83169082156108fc029083906000818181858888f193505050501580156109da573d6000803e3d6000fd5b505b5050565b6109eb610982611872565b60005473ffffffffffffffffffffffffffffffffffffffff1615610a3b576040517f5ccf468900000000000000000000000000000000000000000000000000000000815260040160405180910390fd5b600080547fffffffffffffffffffffffff00000000000000000000000000000000000000001673ffffffffffffffffffffffffffffffffffffffff92909216919091179055565b6000610aa9610a8f61187c565b5473ffffffffffffffffffffffffffffffffffffffff1690565b905090565b6000610ab8611872565b90506000610ac46116ad565b905080600003610b00576040517f2d0a346e00000000000000000000000000000000000000000000000000000000815260040160405180910390fd5b80600103610bf3576040517f508fc90500000000000000000000000000000000000000000000000000000000815273ffffffffffffffffffffffffffffffffffffffff83811660048301527f0000000000000000000000000000000000000000000000000000000000000000169063508fc90590602401602060405180830381865afa158015610b94573d6000803e3d6000fd5b505050506040513d601f19601f82011682018060405250810190610bb89190611cb4565b610bee576040517fdc460b7300000000000000000000000000000000000000000000000000000000815260040160405180910390fd5b610e99565b80600203610e5f576040517f508fc90500000000000000000000000000000000000000000000000000000000815273ffffffffffffffffffffffffffffffffffffffff83811660048301527f0000000000000000000000000000000000000000000000000000000000000000169063508fc90590602401602060405180830381865afa158015610c87573d6000803e3d6000fd5b505050506040513d601f19601f82011682018060405250810190610cab9190611cb4565b158015610d6a57506040517efdd58e00000000000000000000000000000000000000000000000000000000815273ffffffffffffffffffffffffffffffffffffffff8381166004830152600060248301527f0000000000000000000000000000000000000000000000000000000000000000169062fdd58e90604401602060405180830381865afa158015610d44573d6000803e3d6000fd5b505050506040513d601f19601f82011682018060405250810190610d689190611c07565b155b8015610e2857506040517efdd58e00000000000000000000000000000000000000000000000000000000815273ffffffffffffffffffffffffffffffffffffffff8381166004830152600160248301527f0000000000000000000000000000000000000000000000000000000000000000169062fdd58e90604401602060405180830381865afa158015610e02573d6000803e3d6000fd5b505050506040513d601f19601f82011682018060405250810190610e269190611c07565b155b15610bee576040517feca8f22000000000000000000000000000000000000000000000000000000000815260040160405180910390fd5b60038114610e99576040517f0bd8a3eb00000000000000000000000000000000000000000000000000000000815260040160405180910390fd5b60005473ffffffffffffffffffffffffffffffffffffffff16610ee8576040517fb9281de400000000000000000000000000000000000000000000000000000000815260040160405180910390fd5b6001546000610ef78583611cd6565b90507f0000000000000000000000000000000000000000000000000000000000000000811115610f53576040517f7b838b0200000000000000000000000000000000000000000000000000000000815260040160405180910390fd5b6001819055600080610f63610769565b909250905073ffffffffffffffffffffffffffffffffffffffff7f00000000000000000000000000000000000000000000000000000000000000001663af7d6ca387610faf8a86611c62565b6040517fffffffff0000000000000000000000000000000000000000000000000000000060e085901b16815273ffffffffffffffffffffffffffffffffffffffff90921660048301526024820152604401600060405180830381600087803b15801561101a57600080fd5b505af115801561102e573d6000803e3d6000fd5b50506040805173ffffffffffffffffffffffffffffffffffffffff8a1660208201528082018b9052815180820383018152606090910190915291506000905061107989617530611c62565b6110859061c350611cd6565b6040517e01000000000000000000000000000000000000000000000000000000000000602082015260228101829052909150600090604201604080517fffffffffffffffffffffffffffffffffffffffffffffffffffffffffffffffe081840301815290829052600080547f40a7bb100000000000000000000000000000000000000000000000000000000084529193509173ffffffffffffffffffffffffffffffffffffffff7f00000000000000000000000000000000000000000000000000000000000000008116926340a7bb109261118c927f0000000000000000000000000000000000000000000000000000000000000000921690899087908990600401611d4d565b6040805180830381865afa1580156111a8573d6000803e3d6000fd5b505050506040513d601f19601f820116820180604052508101906111cc9190611dac565b5060008054604080517fffffffffffffffffffffffffffffffffffffffff000000000000000000000000606093841b81166020830152309384901b1660348201528151808203602801815260488201928390527fc58031000000000000000000000000000000000000000000000000000000000090925293945073ffffffffffffffffffffffffffffffffffffffff7f0000000000000000000000000000000000000000000000000000000000000000169363c58031009386936112bb937f00000000000000000000000000000000000000000000000000000000000000009390928c92918b90604c01611dd0565b6000604051808303818588803b1580156112d457600080fd5b505af11580156112e8573d6000803e3d6000fd5b50505050507f6b9646daf37cd2bfd6cf46c729da3ea690a73a6555404e5f0299e15a865ed3848a8c876040516113499392919073ffffffffffffffffffffffffffffffffffffffff9390931683526020830191909152604082015260600190565b60405180910390a15050505050505050505050565b6000806113696116ad565b90508060000361137c5750600092915050565b8060010361143b576040517f508fc90500000000000000000000000000000000000000000000000000000000815273ffffffffffffffffffffffffffffffffffffffff84811660048301527f0000000000000000000000000000000000000000000000000000000000000000169063508fc90590602401602060405180830381865afa158015611410573d6000803e3d6000fd5b505050506040513d601f19601f820116820180604052508101906114349190611cb4565b9392505050565b80600203611675576040517f508fc90500000000000000000000000000000000000000000000000000000000815273ffffffffffffffffffffffffffffffffffffffff84811660048301527f0000000000000000000000000000000000000000000000000000000000000000169063508fc90590602401602060405180830381865afa1580156114cf573d6000803e3d6000fd5b505050506040513d601f19601f820116820180604052508101906114f39190611cb4565b806115b157506040517efdd58e00000000000000000000000000000000000000000000000000000000815273ffffffffffffffffffffffffffffffffffffffff8481166004830152600060248301527f0000000000000000000000000000000000000000000000000000000000000000169062fdd58e90604401602060405180830381865afa15801561158a573d6000803e3d6000fd5b505050506040513d601f19601f820116820180604052508101906115ae9190611c07565b15155b8061143457506040517efdd58e00000000000000000000000000000000000000000000000000000000815273ffffffffffffffffffffffffffffffffffffffff8481166004830152600160248301527f0000000000000000000000000000000000000000000000000000000000000000169062fdd58e90604401602060405180830381865afa158015611648573d6000803e3d6000fd5b505050506040513d601f19601f8201168201806040525081019061166c9190611c07565b15159392505050565b806003036116865750600192915050565b50600092915050565b6116aa61169a611872565b826116a361187c565b919061191a565b50565b60007f00000000000000000000000000000000000000000000000000000000000000004211156116dd5750600490565b7f0000000000000000000000000000000000000000000000000000000000000000421061170a5750600390565b7f000000000000000000000000000000000000000000000000000000000000000042106117375750600290565b7f000000000000000000000000000000000000000000000000000000000000000042106117645750600190565b50600090565b60008061076360017fca9d3e17f264b0f3984e2634e94adb37fa3e6a8103f06aeae6fa59e21c769f5e611c4f565b60007c01000000000000000000000000000000000000000000000000000000007fffffffff000000000000000000000000000000000000000000000000000000008316016117e857506000610763565b7ffe003659000000000000000000000000000000000000000000000000000000007fffffffff0000000000000000000000000000000000000000000000000000000083160161183957506001610763565b507fffffffff00000000000000000000000000000000000000000000000000000000166000908152602091909152604090205460ff1690565b6000610aa9611a2f565b60008061076360017fc9ed16f33ab3a66c84bfd83099ccb2a8845871e2e1c1928f63797152f0fd54cd611c4f565b815473ffffffffffffffffffffffffffffffffffffffff8281169116146109dc576040517f2ef4875e00000000000000000000000000000000000000000000000000000000815273ffffffffffffffffffffffffffffffffffffffff821660048201526024015b60405180910390fd5b825473ffffffffffffffffffffffffffffffffffffffff9081169083168114611987576040517f2ef4875e00000000000000000000000000000000000000000000000000000000815273ffffffffffffffffffffffffffffffffffffffff84166004820152602401611911565b8173ffffffffffffffffffffffffffffffffffffffff168173ffffffffffffffffffffffffffffffffffffffff1614611a295783547fffffffffffffffffffffffff00000000000000000000000000000000000000001673ffffffffffffffffffffffffffffffffffffffff8381169182178655604051908316907f8be0079c531659141344cd1fd0a4f28419497f9722a3daafe3b4186f6b6457e090600090a35b50505050565b600033321480611a3f5750601836105b15611a4957503390565b7fffffffffffffffffffffffffffffffffffffffffffffffffffffffffffffffec36013560601c7f000000000000000000000000000000000000000000000000000000000000000073ffffffffffffffffffffffffffffffffffffffff16331480611b6557506040517f8929a8ca00000000000000000000000000000000000000000000000000000000815273ffffffffffffffffffffffffffffffffffffffff82811660048301523360248301527f00000000000000000000000000000000000000000000000000000000000000001690638929a8ca90604401602060405180830381865afa158015611b41573d6000803e3d6000fd5b505050506040513d601f19601f82011682018060405250810190611b659190611cb4565b15611b6f57919050565b3391505090565b600060208284031215611b8857600080fd5b81357fffffffff000000000000000000000000000000000000000000000000000000008116811461143457600080fd5b600060208284031215611bca57600080fd5b813573ffffffffffffffffffffffffffffffffffffffff8116811461143457600080fd5b600060208284031215611c0057600080fd5b5035919050565b600060208284031215611c1957600080fd5b5051919050565b7f4e487b7100000000000000000000000000000000000000000000000000000000600052601160045260246000fd5b8181038181111561076357610763611c20565b808202811582820484141761076357610763611c20565b600082611caf577f4e487b7100000000000000000000000000000000000000000000000000000000600052601260045260246000fd5b500490565b600060208284031215611cc657600080fd5b8151801515811461143457600080fd5b8082018082111561076357610763611c20565b6000815180845260005b81811015611d0f57602081850181015186830182015201611cf3565b5060006020828601015260207fffffffffffffffffffffffffffffffffffffffffffffffffffffffffffffffe0601f83011685010191505092915050565b61ffff8616815273ffffffffffffffffffffffffffffffffffffffff8516602082015260a060408201526000611d8660a0830186611ce9565b84151560608401528281036080840152611da08185611ce9565b98975050505050505050565b60008060408385031215611dbf57600080fd5b505080516020909101519092909150565b61ffff8716815260c060208201526000611ded60c0830188611ce9565b8281036040840152611dff8188611ce9565b73ffffffffffffffffffffffffffffffffffffffff87811660608601528616608085015283810360a08501529050611e378185611ce9565b999850505050505050505056fea2646970667358221220c4319ed2d611d1b287ee8fda2f89539793014fbf1dd0800afd5fe3ef320ea8ae64736f6c63430008150033",
  "linkReferences": {},
  "deployedLinkReferences": {}
}