{
  "_format": "hh-sol-artifact-1",
  "contractName": "PublisherNFTSale",
  "sourceName": "contracts/sale/PublisherNFTSale.sol",
  "abi": [
    {
      "inputs": [
        {
          "internalType": "contract IERC1155",
          "name": "genesisToken",
          "type": "address"
        },
        {
          "internalType": "contract EDUCreditsManager",
          "name": "eduCreditsManager",
          "type": "address"
        },
        {
          "internalType": "contract ILayerZeroEndpoint",
          "name": "lzEndpoint",
          "type": "address"
        },
        {
          "internalType": "uint16",
          "name": "lzDstChainId",
          "type": "uint16"
        },
        {
          "internalType": "uint256",
          "name": "mintPrice",
          "type": "uint256"
        },
        {
          "internalType": "uint256",
          "name": "mintSupplyLimit",
          "type": "uint256"
        },
        {
          "internalType": "uint256",
          "name": "mintLimitPerAddress",
          "type": "uint256"
        },
        {
          "internalType": "uint256[]",
          "name": "timestamps",
          "type": "uint256[]"
        },
        {
          "internalType": "uint256[]",
          "name": "discountThresholds",
          "type": "uint256[]"
        },
        {
          "internalType": "uint256[]",
          "name": "discountPercentages",
          "type": "uint256[]"
        },
        {
          "internalType": "contract IForwarderRegistry",
          "name": "forwarderRegistry",
          "type": "address"
        }
      ],
      "stateMutability": "payable",
      "type": "constructor"
    },
    {
      "inputs": [],
      "name": "AddressMintingLimitReached",
      "type": "error"
    },
    {
      "inputs": [],
      "name": "IllegalInterfaceId",
      "type": "error"
    },
    {
      "inputs": [],
      "name": "InsufficientMintSupply",
      "type": "error"
    },
    {
      "inputs": [],
      "name": "InvalidDiscountPercentages",
      "type": "error"
    },
    {
      "inputs": [],
      "name": "InvalidDiscountThresholds",
      "type": "error"
    },
    {
      "inputs": [],
      "name": "InvalidTimestamps",
      "type": "error"
    },
    {
      "inputs": [],
      "name": "LzDstAddressAlreadySet",
      "type": "error"
    },
    {
      "inputs": [],
      "name": "LzDstAddressNotSet",
      "type": "error"
    },
    {
      "inputs": [],
      "name": "MintingTooManyTokens",
      "type": "error"
    },
    {
      "inputs": [],
      "name": "MintingZeroTokens",
      "type": "error"
    },
    {
      "inputs": [],
      "name": "NotADiamondHand",
      "type": "error"
    },
    {
      "inputs": [],
      "name": "NotADiamondHandNorAGenesisNFTOwner",
      "type": "error"
    },
    {
      "inputs": [
        {
          "internalType": "address",
          "name": "account",
          "type": "address"
        }
      ],
      "name": "NotContractOwner",
      "type": "error"
    },
    {
      "inputs": [],
      "name": "SaleEnded",
      "type": "error"
    },
    {
      "inputs": [],
      "name": "SaleNotStarted",
      "type": "error"
    },
    {
      "anonymous": false,
      "inputs": [
        {
          "indexed": false,
          "internalType": "address",
          "name": "sender",
          "type": "address"
        },
        {
          "indexed": false,
          "internalType": "uint256",
          "name": "nbTokens",
          "type": "uint256"
        },
        {
          "indexed": false,
          "internalType": "uint256",
          "name": "discountThreshold",
          "type": "uint256"
        }
      ],
      "name": "MintInitiated",
      "type": "event"
    },
    {
      "anonymous": false,
      "inputs": [
        {
          "indexed": true,
          "internalType": "address",
          "name": "previousOwner",
          "type": "address"
        },
        {
          "indexed": true,
          "internalType": "address",
          "name": "newOwner",
          "type": "address"
        }
      ],
      "name": "OwnershipTransferred",
      "type": "event"
    },
    {
      "inputs": [],
      "name": "DISCOUNT_PERCENTAGE_1",
      "outputs": [
        {
          "internalType": "uint256",
          "name": "",
          "type": "uint256"
        }
      ],
      "stateMutability": "view",
      "type": "function"
    },
    {
      "inputs": [],
      "name": "DISCOUNT_PERCENTAGE_2",
      "outputs": [
        {
          "internalType": "uint256",
          "name": "",
          "type": "uint256"
        }
      ],
      "stateMutability": "view",
      "type": "function"
    },
    {
      "inputs": [],
      "name": "DISCOUNT_PERCENTAGE_3",
      "outputs": [
        {
          "internalType": "uint256",
          "name": "",
          "type": "uint256"
        }
      ],
      "stateMutability": "view",
      "type": "function"
    },
    {
      "inputs": [],
      "name": "DISCOUNT_THRESHOLD_1",
      "outputs": [
        {
          "internalType": "uint256",
          "name": "",
          "type": "uint256"
        }
      ],
      "stateMutability": "view",
      "type": "function"
    },
    {
      "inputs": [],
      "name": "DISCOUNT_THRESHOLD_2",
      "outputs": [
        {
          "internalType": "uint256",
          "name": "",
          "type": "uint256"
        }
      ],
      "stateMutability": "view",
      "type": "function"
    },
    {
      "inputs": [],
      "name": "DISCOUNT_THRESHOLD_3",
      "outputs": [
        {
          "internalType": "uint256",
          "name": "",
          "type": "uint256"
        }
      ],
      "stateMutability": "view",
      "type": "function"
    },
    {
      "inputs": [],
      "name": "EDU_CREDITS_MANAGER",
      "outputs": [
        {
          "internalType": "contract EDUCreditsManager",
          "name": "",
          "type": "address"
        }
      ],
      "stateMutability": "view",
      "type": "function"
    },
    {
      "inputs": [],
      "name": "GENESIS_TOKEN",
      "outputs": [
        {
          "internalType": "contract IERC1155",
          "name": "",
          "type": "address"
        }
      ],
      "stateMutability": "view",
      "type": "function"
    },
    {
      "inputs": [],
      "name": "LZ_DST_CHAINID",
      "outputs": [
        {
          "internalType": "uint16",
          "name": "",
          "type": "uint16"
        }
      ],
      "stateMutability": "view",
      "type": "function"
    },
    {
      "inputs": [],
      "name": "LZ_ENDPOINT",
      "outputs": [
        {
          "internalType": "contract ILayerZeroEndpoint",
          "name": "",
          "type": "address"
        }
      ],
      "stateMutability": "view",
      "type": "function"
    },
    {
      "inputs": [],
      "name": "MINT_LIMIT_PER_ADDRESS",
      "outputs": [
        {
          "internalType": "uint256",
          "name": "",
          "type": "uint256"
        }
      ],
      "stateMutability": "view",
      "type": "function"
    },
    {
      "inputs": [],
      "name": "MINT_PRICE",
      "outputs": [
        {
          "internalType": "uint256",
          "name": "",
          "type": "uint256"
        }
      ],
      "stateMutability": "view",
      "type": "function"
    },
    {
      "inputs": [],
      "name": "MINT_SUPPLY_LIMIT",
      "outputs": [
        {
          "internalType": "uint256",
          "name": "",
          "type": "uint256"
        }
      ],
      "stateMutability": "view",
      "type": "function"
    },
    {
      "inputs": [],
      "name": "PHASE1_START_TIMESTAMP",
      "outputs": [
        {
          "internalType": "uint256",
          "name": "",
          "type": "uint256"
        }
      ],
      "stateMutability": "view",
      "type": "function"
    },
    {
      "inputs": [],
      "name": "PHASE2_START_TIMESTAMP",
      "outputs": [
        {
          "internalType": "uint256",
          "name": "",
          "type": "uint256"
        }
      ],
      "stateMutability": "view",
      "type": "function"
    },
    {
      "inputs": [],
      "name": "PHASE3_START_TIMESTAMP",
      "outputs": [
        {
          "internalType": "uint256",
          "name": "",
          "type": "uint256"
        }
      ],
      "stateMutability": "view",
      "type": "function"
    },
    {
      "inputs": [],
      "name": "SALE_END_TIMESTAMP",
      "outputs": [
        {
          "internalType": "uint256",
          "name": "",
          "type": "uint256"
        }
      ],
      "stateMutability": "view",
      "type": "function"
    },
    {
      "inputs": [
        {
          "internalType": "address",
          "name": "account",
          "type": "address"
        }
      ],
      "name": "canMint",
      "outputs": [
        {
          "internalType": "bool",
          "name": "",
          "type": "bool"
        }
      ],
      "stateMutability": "view",
      "type": "function"
    },
    {
      "inputs": [],
      "name": "currentMintPrice",
      "outputs": [
        {
          "internalType": "uint256",
          "name": "price",
          "type": "uint256"
        },
        {
          "internalType": "uint256",
          "name": "discountThreshold",
          "type": "uint256"
        }
      ],
      "stateMutability": "view",
      "type": "function"
    },
    {
      "inputs": [],
      "name": "currentSalePhase",
      "outputs": [
        {
          "internalType": "uint256",
          "name": "",
          "type": "uint256"
        }
      ],
      "stateMutability": "view",
      "type": "function"
    },
    {
      "inputs": [],
      "name": "forwarderRegistry",
      "outputs": [
        {
          "internalType": "contract IForwarderRegistry",
          "name": "",
          "type": "address"
        }
      ],
      "stateMutability": "view",
      "type": "function"
    },
    {
      "inputs": [
        {
          "internalType": "address",
          "name": "forwarder",
          "type": "address"
        }
      ],
      "name": "isTrustedForwarder",
      "outputs": [
        {
          "internalType": "bool",
          "name": "",
          "type": "bool"
        }
      ],
      "stateMutability": "view",
      "type": "function"
    },
    {
      "inputs": [],
      "name": "lzDstAddress",
      "outputs": [
        {
          "internalType": "address",
          "name": "",
          "type": "address"
        }
      ],
      "stateMutability": "view",
      "type": "function"
    },
    {
      "inputs": [
        {
          "internalType": "uint256",
          "name": "nbTokens",
          "type": "uint256"
        }
      ],
      "name": "mint",
      "outputs": [],
      "stateMutability": "nonpayable",
      "type": "function"
    },
    {
      "inputs": [],
      "name": "mintCount",
      "outputs": [
        {
          "internalType": "uint256",
          "name": "",
          "type": "uint256"
        }
      ],
      "stateMutability": "view",
      "type": "function"
    },
    {
      "inputs": [
        {
          "internalType": "address",
          "name": "",
          "type": "address"
        }
      ],
      "name": "mintCountPerAddress",
      "outputs": [
        {
          "internalType": "uint256",
          "name": "",
          "type": "uint256"
        }
      ],
      "stateMutability": "view",
      "type": "function"
    },
    {
      "inputs": [],
      "name": "owner",
      "outputs": [
        {
          "internalType": "address",
          "name": "",
          "type": "address"
        }
      ],
      "stateMutability": "view",
      "type": "function"
    },
    {
      "inputs": [
        {
          "internalType": "address",
          "name": "lzDstAddress_",
          "type": "address"
        }
      ],
      "name": "setLzDstAddress",
      "outputs": [],
      "stateMutability": "nonpayable",
      "type": "function"
    },
    {
      "inputs": [
        {
          "internalType": "bytes4",
          "name": "interfaceId",
          "type": "bytes4"
        }
      ],
      "name": "supportsInterface",
      "outputs": [
        {
          "internalType": "bool",
          "name": "",
          "type": "bool"
        }
      ],
      "stateMutability": "view",
      "type": "function"
    },
    {
      "inputs": [
        {
          "internalType": "address",
          "name": "newOwner",
          "type": "address"
        }
      ],
      "name": "transferOwnership",
      "outputs": [],
      "stateMutability": "nonpayable",
      "type": "function"
    },
    {
      "inputs": [
        {
          "internalType": "address",
          "name": "to",
          "type": "address"
        }
      ],
      "name": "withdraw",
      "outputs": [],
      "stateMutability": "nonpayable",
      "type": "function"
    },
    {
      "stateMutability": "payable",
      "type": "receive"
    }
  ],
  "bytecode": "0x6102c06040526040516200294f3803806200294f833981016040819052620000279162000660565b80803362000040816200003962000438565b906200046e565b506001600160a01b039081166080528c811660a0528b811660c0528a1660e0525061ffff881661010052610120879052610140869052610160859052835184906000906200009257620000926200077c565b602002602001015184600181518110620000b057620000b06200077c565b602002602001015111158062000100575083600181518110620000d757620000d76200077c565b602002602001015184600281518110620000f557620000f56200077c565b602002602001015111155b80620001465750836002815181106200011d576200011d6200077c565b6020026020010151846003815181106200013b576200013b6200077c565b602002602001015111155b15620001655760405163d22806e360e01b815260040160405180910390fd5b836000815181106200017b576200017b6200077c565b6020026020010151610180818152505083600181518110620001a157620001a16200077c565b60200260200101516101a0818152505083600281518110620001c757620001c76200077c565b60200260200101516101c0818152505083600381518110620001ed57620001ed6200077c565b60200260200101516101e08181525050826000815181106200021357620002136200077c565b6020026020010151836001815181106200023157620002316200077c565b6020026020010151111580620002815750826001815181106200025857620002586200077c565b6020026020010151836002815181106200027657620002766200077c565b602002602001015111155b15620002a05760405163ae2a357360e01b815260040160405180910390fd5b82600081518110620002b657620002b66200077c565b6020026020010151610200818152505082600181518110620002dc57620002dc6200077c565b60200260200101516102208181525050826002815181106200030257620003026200077c565b60200260200101516102408181525050816000815181106200032857620003286200077c565b6020026020010151826001815181106200034657620003466200077c565b6020026020010151111580620003965750816001815181106200036d576200036d6200077c565b6020026020010151826002815181106200038b576200038b6200077c565b602002602001015111155b15620003b55760405163ebda279160e01b815260040160405180910390fd5b81600081518110620003cb57620003cb6200077c565b6020026020010151610260818152505081600181518110620003f157620003f16200077c565b60200260200101516102808181525050816002815181106200041757620004176200077c565b60200260200101516102a081815250505050505050505050505050620007b4565b6000806200046860017fc9ed16f33ab3a66c84bfd83099ccb2a8845871e2e1c1928f63797152f0fd54cd62000792565b92915050565b6001600160a01b03811615620004c55781546001600160a01b0319166001600160a01b03821690811783556040516000907f8be0079c531659141344cd1fd0a4f28419497f9722a3daafe3b4186f6b6457e0908290a35b620004e56307f5828d60e41b6001620004dd620004e9565b919062000519565b5050565b6000806200046860017fca9d3e17f264b0f3984e2634e94adb37fa3e6a8103f06aeae6fa59e21c769f5e62000792565b600160e01b6001600160e01b031983160162000548576040516372c683bb60e01b815260040160405180910390fd5b6001600160e01b03199190911660009081526020929092526040909120805460ff1916911515919091179055565b80516001600160a01b03811681146200058e57600080fd5b919050565b805161ffff811681146200058e57600080fd5b634e487b7160e01b600052604160045260246000fd5b600082601f830112620005ce57600080fd5b815160206001600160401b0380831115620005ed57620005ed620005a6565b8260051b604051601f19603f83011681018181108482111715620006155762000615620005a6565b6040529384528581018301938381019250878511156200063457600080fd5b83870191505b8482101562000655578151835291830191908301906200063a565b979650505050505050565b60008060008060008060008060008060006101608c8e0312156200068357600080fd5b6200068e8c62000576565b9a506200069e60208d0162000576565b9950620006ae60408d0162000576565b9850620006be60608d0162000593565b975060808c0151965060a08c0151955060c08c0151945060e08c015160018060401b03811115620006ee57600080fd5b620006fc8e828f01620005bc565b6101008e015190955090506001600160401b038111156200071c57600080fd5b6200072a8e828f01620005bc565b6101208e015190945090506001600160401b038111156200074a57600080fd5b620007588e828f01620005bc565b9250506200076a6101408d0162000576565b90509295989b509295989b9093969950565b634e487b7160e01b600052603260045260246000fd5b818103818111156200046857634e487b7160e01b600052601160045260246000fd5b60805160a05160c05160e05161010051610120516101405161016051610180516101a0516101c0516101e05161020051610220516102405161026051610280516102a051611ffc620009536000396000818161050001526108c701526000818161045401526109380152600081816106d301526109a9015260008181610568015261089b01526000818161029b015261090c015260008181610323015261097d01526000818161035701526118330152600081816105f0015261186101526000818161066b015261188e01526000818161070701526118bb0152600061025901526000818161073b0152610fe701526000818161059c01526107e5015260008181610624015281816112dc015261140c01526000818161069f015281816112ae01526113dd0152600081816105340152818161080a01528181610c3901528181610d2c015281816110ff0152818161154b015261160a01526000818161076f01528181610dea01528181610ea8015281816116c601526117840152600081816102cc015281816103b801528181611bf40152611c7c0152611ffc6000f3fe6080604052600436106101dc5760003560e01c8063a0712d6811610102578063c8767f2f11610095578063e36d820511610064578063e36d820514610729578063ef59df271461075d578063f2fde38b14610791578063f53da97e146107b157600080fd5b8063c8767f2f14610659578063cd4d1c641461068d578063d7f62163146106c1578063dba535d7146106f557600080fd5b8063c002d23d116100d1578063c002d23d1461058a578063c2ba4744146105be578063c4823504146105de578063c834c9791461061257600080fd5b8063a0712d68146104ce578063a0e5d770146104ee578063ae8384d014610522578063b68ba08b1461055657600080fd5b806351cff8d91161017a578063812042031161014957806381204203146104425780638da5cb5b146104765780639659867e1461048b57806396a38045146104a157600080fd5b806351cff8d914610379578063572b6c051461039b57806357e33a27146103f55780636dc407f91461041557600080fd5b80631d1f42ec116101b65780631d1f42ec146102895780632b4c9f16146102bd5780632d3ccf3f146103115780634210830d1461034557600080fd5b806301ffc9a7146101e85780630561942a1461021d5780631a5030371461024757600080fd5b366101e357005b600080fd5b3480156101f457600080fd5b50610208610203366004611cf8565b6107c6565b60405190151581526020015b60405180910390f35b34801561022957600080fd5b506102326107e0565b60408051928352602083019190915201610214565b34801561025357600080fd5b5061027b7f000000000000000000000000000000000000000000000000000000000000000081565b604051908152602001610214565b34801561029557600080fd5b5061027b7f000000000000000000000000000000000000000000000000000000000000000081565b3480156102c957600080fd5b507f00000000000000000000000000000000000000000000000000000000000000005b60405173ffffffffffffffffffffffffffffffffffffffff9091168152602001610214565b34801561031d57600080fd5b5061027b7f000000000000000000000000000000000000000000000000000000000000000081565b34801561035157600080fd5b5061027b7f000000000000000000000000000000000000000000000000000000000000000081565b34801561038557600080fd5b50610399610394366004611d3a565b6109ee565b005b3480156103a757600080fd5b506102086103b6366004611d3a565b7f000000000000000000000000000000000000000000000000000000000000000073ffffffffffffffffffffffffffffffffffffffff90811691161490565b34801561040157600080fd5b50610399610410366004611d3a565b610a57565b34801561042157600080fd5b5061027b610430366004611d3a565b60026020526000908152604090205481565b34801561044e57600080fd5b5061027b7f000000000000000000000000000000000000000000000000000000000000000081565b34801561048257600080fd5b506102ec610af9565b34801561049757600080fd5b5061027b60015481565b3480156104ad57600080fd5b506000546102ec9073ffffffffffffffffffffffffffffffffffffffff1681565b3480156104da57600080fd5b506103996104e9366004611d70565b610b25565b3480156104fa57600080fd5b5061027b7f000000000000000000000000000000000000000000000000000000000000000081565b34801561052e57600080fd5b506102ec7f000000000000000000000000000000000000000000000000000000000000000081565b34801561056257600080fd5b5061027b7f000000000000000000000000000000000000000000000000000000000000000081565b34801561059657600080fd5b5061027b7f000000000000000000000000000000000000000000000000000000000000000081565b3480156105ca57600080fd5b506102086105d9366004611d3a565b6114e0565b3480156105ea57600080fd5b5061027b7f000000000000000000000000000000000000000000000000000000000000000081565b34801561061e57600080fd5b506106467f000000000000000000000000000000000000000000000000000000000000000081565b60405161ffff9091168152602001610214565b34801561066557600080fd5b5061027b7f000000000000000000000000000000000000000000000000000000000000000081565b34801561069957600080fd5b506102ec7f000000000000000000000000000000000000000000000000000000000000000081565b3480156106cd57600080fd5b5061027b7f000000000000000000000000000000000000000000000000000000000000000081565b34801561070157600080fd5b5061027b7f000000000000000000000000000000000000000000000000000000000000000081565b34801561073557600080fd5b5061027b7f000000000000000000000000000000000000000000000000000000000000000081565b34801561076957600080fd5b506102ec7f000000000000000000000000000000000000000000000000000000000000000081565b34801561079d57600080fd5b506103996107ac366004611d3a565b611811565b3480156107bd57600080fd5b5061027b61182f565b60006107da826107d46118ec565b9061191a565b92915050565b6000807f0000000000000000000000000000000000000000000000000000000000000000915060007f000000000000000000000000000000000000000000000000000000000000000073ffffffffffffffffffffffffffffffffffffffff1663b5bd3eb96040518163ffffffff1660e01b8152600401602060405180830381865afa158015610873573d6000803e3d6000fd5b505050506040513d601f19601f820116820180604052508101906108979190611d89565b90507f0000000000000000000000000000000000000000000000000000000000000000811061090a5760646108ec7f000000000000000000000000000000000000000000000000000000000000000082611dd1565b6108f69085611de4565b6109009190611dfb565b9360039350915050565b7f0000000000000000000000000000000000000000000000000000000000000000811061097b57606461095d7f000000000000000000000000000000000000000000000000000000000000000082611dd1565b6109679085611de4565b6109719190611dfb565b9360029350915050565b7f000000000000000000000000000000000000000000000000000000000000000081106109e95760646109ce7f000000000000000000000000000000000000000000000000000000000000000082611dd1565b6109d89085611de4565b6109e29190611dfb565b9250600191505b509091565b610a076109f96119f4565b610a016119fe565b90611a2c565b478015610a535760405173ffffffffffffffffffffffffffffffffffffffff83169082156108fc029083906000818181858888f19350505050158015610a51573d6000803e3d6000fd5b505b5050565b610a626109f96119f4565b60005473ffffffffffffffffffffffffffffffffffffffff1615610ab2576040517f5ccf468900000000000000000000000000000000000000000000000000000000815260040160405180910390fd5b600080547fffffffffffffffffffffffff00000000000000000000000000000000000000001673ffffffffffffffffffffffffffffffffffffffff92909216919091179055565b6000610b20610b066119fe565b5473ffffffffffffffffffffffffffffffffffffffff1690565b905090565b80600003610b5f576040517f445dc49e00000000000000000000000000000000000000000000000000000000815260040160405180910390fd5b6002811115610b9a576040517f8a0cd58100000000000000000000000000000000000000000000000000000000815260040160405180910390fd5b6000610ba46119f4565b90506000610bb061182f565b905080600003610bec576040517f2d0a346e00000000000000000000000000000000000000000000000000000000815260040160405180910390fd5b80600103610cdf576040517f508fc90500000000000000000000000000000000000000000000000000000000815273ffffffffffffffffffffffffffffffffffffffff83811660048301527f0000000000000000000000000000000000000000000000000000000000000000169063508fc90590602401602060405180830381865afa158015610c80573d6000803e3d6000fd5b505050506040513d601f19601f82011682018060405250810190610ca49190611e36565b610cda576040517fdc460b7300000000000000000000000000000000000000000000000000000000815260040160405180910390fd5b610f85565b80600203610f4b576040517f508fc90500000000000000000000000000000000000000000000000000000000815273ffffffffffffffffffffffffffffffffffffffff83811660048301527f0000000000000000000000000000000000000000000000000000000000000000169063508fc90590602401602060405180830381865afa158015610d73573d6000803e3d6000fd5b505050506040513d601f19601f82011682018060405250810190610d979190611e36565b158015610e5657506040517efdd58e00000000000000000000000000000000000000000000000000000000815273ffffffffffffffffffffffffffffffffffffffff8381166004830152600060248301527f0000000000000000000000000000000000000000000000000000000000000000169062fdd58e90604401602060405180830381865afa158015610e30573d6000803e3d6000fd5b505050506040513d601f19601f82011682018060405250810190610e549190611d89565b155b8015610f1457506040517efdd58e00000000000000000000000000000000000000000000000000000000815273ffffffffffffffffffffffffffffffffffffffff8381166004830152600160248301527f0000000000000000000000000000000000000000000000000000000000000000169062fdd58e90604401602060405180830381865afa158015610eee573d6000803e3d6000fd5b505050506040513d601f19601f82011682018060405250810190610f129190611d89565b155b15610cda576040517feca8f22000000000000000000000000000000000000000000000000000000000815260040160405180910390fd5b60038114610f85576040517f0bd8a3eb00000000000000000000000000000000000000000000000000000000815260040160405180910390fd5b60005473ffffffffffffffffffffffffffffffffffffffff16610fd4576040517fb9281de400000000000000000000000000000000000000000000000000000000815260040160405180910390fd5b6001546000610fe38583611e58565b90507f000000000000000000000000000000000000000000000000000000000000000081111561103f576040517f7b838b0200000000000000000000000000000000000000000000000000000000815260040160405180910390fd5b600181905573ffffffffffffffffffffffffffffffffffffffff8416600090815260026020526040812054906110758783611e58565b905060028111156110b2576040517f5cc9ef7100000000000000000000000000000000000000000000000000000000815260040160405180910390fd5b73ffffffffffffffffffffffffffffffffffffffff86166000908152600260205260408120829055806110e36107e0565b909250905073ffffffffffffffffffffffffffffffffffffffff7f00000000000000000000000000000000000000000000000000000000000000001663af7d6ca38961112f8c86611de4565b6040517fffffffff0000000000000000000000000000000000000000000000000000000060e085901b16815273ffffffffffffffffffffffffffffffffffffffff90921660048301526024820152604401600060405180830381600087803b15801561119a57600080fd5b505af11580156111ae573d6000803e3d6000fd5b50506040805173ffffffffffffffffffffffffffffffffffffffff8c1660208201528082018d905281518082038301815260609091019091529150600090506111f98b617530611de4565b6112059061c350611e58565b6040517e01000000000000000000000000000000000000000000000000000000000000602082015260228101829052909150600090604201604080517fffffffffffffffffffffffffffffffffffffffffffffffffffffffffffffffe081840301815290829052600080547f40a7bb100000000000000000000000000000000000000000000000000000000084529193509173ffffffffffffffffffffffffffffffffffffffff7f00000000000000000000000000000000000000000000000000000000000000008116926340a7bb109261130c927f0000000000000000000000000000000000000000000000000000000000000000921690899087908990600401611ecf565b6040805180830381865afa158015611328573d6000803e3d6000fd5b505050506040513d601f19601f8201168201806040525081019061134c9190611f2e565b5060008054604080517fffffffffffffffffffffffffffffffffffffffff000000000000000000000000606093841b81166020830152309384901b1660348201528151808203602801815260488201928390527fc58031000000000000000000000000000000000000000000000000000000000090925293945073ffffffffffffffffffffffffffffffffffffffff7f0000000000000000000000000000000000000000000000000000000000000000169363c580310093869361143b937f00000000000000000000000000000000000000000000000000000000000000009390928c92918b90604c01611f52565b6000604051808303818588803b15801561145457600080fd5b505af1158015611468573d6000803e3d6000fd5b50505050507f6b9646daf37cd2bfd6cf46c729da3ea690a73a6555404e5f0299e15a865ed3848c8e876040516114c99392919073ffffffffffffffffffffffffffffffffffffffff9390931683526020830191909152604082015260600190565b60405180910390a150505050505050505050505050565b6000806114eb61182f565b9050806000036114fe5750600092915050565b806001036115bd576040517f508fc90500000000000000000000000000000000000000000000000000000000815273ffffffffffffffffffffffffffffffffffffffff84811660048301527f0000000000000000000000000000000000000000000000000000000000000000169063508fc90590602401602060405180830381865afa158015611592573d6000803e3d6000fd5b505050506040513d601f19601f820116820180604052508101906115b69190611e36565b9392505050565b806002036117f7576040517f508fc90500000000000000000000000000000000000000000000000000000000815273ffffffffffffffffffffffffffffffffffffffff84811660048301527f0000000000000000000000000000000000000000000000000000000000000000169063508fc90590602401602060405180830381865afa158015611651573d6000803e3d6000fd5b505050506040513d601f19601f820116820180604052508101906116759190611e36565b8061173357506040517efdd58e00000000000000000000000000000000000000000000000000000000815273ffffffffffffffffffffffffffffffffffffffff8481166004830152600060248301527f0000000000000000000000000000000000000000000000000000000000000000169062fdd58e90604401602060405180830381865afa15801561170c573d6000803e3d6000fd5b505050506040513d601f19601f820116820180604052508101906117309190611d89565b15155b806115b657506040517efdd58e00000000000000000000000000000000000000000000000000000000815273ffffffffffffffffffffffffffffffffffffffff8481166004830152600160248301527f0000000000000000000000000000000000000000000000000000000000000000169062fdd58e90604401602060405180830381865afa1580156117ca573d6000803e3d6000fd5b505050506040513d601f19601f820116820180604052508101906117ee9190611d89565b15159392505050565b806003036118085750600192915050565b50600092915050565b61182c61181c6119f4565b826118256119fe565b9190611a9c565b50565b60007f000000000000000000000000000000000000000000000000000000000000000042111561185f5750600490565b7f0000000000000000000000000000000000000000000000000000000000000000421061188c5750600390565b7f000000000000000000000000000000000000000000000000000000000000000042106118b95750600290565b7f000000000000000000000000000000000000000000000000000000000000000042106118e65750600190565b50600090565b6000806107da60017fca9d3e17f264b0f3984e2634e94adb37fa3e6a8103f06aeae6fa59e21c769f5e611dd1565b60007c01000000000000000000000000000000000000000000000000000000007fffffffff0000000000000000000000000000000000000000000000000000000083160161196a575060006107da565b7ffe003659000000000000000000000000000000000000000000000000000000007fffffffff000000000000000000000000000000000000000000000000000000008316016119bb575060016107da565b507fffffffff00000000000000000000000000000000000000000000000000000000166000908152602091909152604090205460ff1690565b6000610b20611bb1565b6000806107da60017fc9ed16f33ab3a66c84bfd83099ccb2a8845871e2e1c1928f63797152f0fd54cd611dd1565b815473ffffffffffffffffffffffffffffffffffffffff828116911614610a53576040517f2ef4875e00000000000000000000000000000000000000000000000000000000815273ffffffffffffffffffffffffffffffffffffffff821660048201526024015b60405180910390fd5b825473ffffffffffffffffffffffffffffffffffffffff9081169083168114611b09576040517f2ef4875e00000000000000000000000000000000000000000000000000000000815273ffffffffffffffffffffffffffffffffffffffff84166004820152602401611a93565b8173ffffffffffffffffffffffffffffffffffffffff168173ffffffffffffffffffffffffffffffffffffffff1614611bab5783547fffffffffffffffffffffffff00000000000000000000000000000000000000001673ffffffffffffffffffffffffffffffffffffffff8381169182178655604051908316907f8be0079c531659141344cd1fd0a4f28419497f9722a3daafe3b4186f6b6457e090600090a35b50505050565b600033321480611bc15750601836105b15611bcb57503390565b7fffffffffffffffffffffffffffffffffffffffffffffffffffffffffffffffec36013560601c7f000000000000000000000000000000000000000000000000000000000000000073ffffffffffffffffffffffffffffffffffffffff16331480611ce757506040517f8929a8ca00000000000000000000000000000000000000000000000000000000815273ffffffffffffffffffffffffffffffffffffffff82811660048301523360248301527f00000000000000000000000000000000000000000000000000000000000000001690638929a8ca90604401602060405180830381865afa158015611cc3573d6000803e3d6000fd5b505050506040513d601f19601f82011682018060405250810190611ce79190611e36565b15611cf157919050565b3391505090565b600060208284031215611d0a57600080fd5b81357fffffffff00000000000000000000000000000000000000000000000000000000811681146115b657600080fd5b600060208284031215611d4c57600080fd5b813573ffffffffffffffffffffffffffffffffffffffff811681146115b657600080fd5b600060208284031215611d8257600080fd5b5035919050565b600060208284031215611d9b57600080fd5b5051919050565b7f4e487b7100000000000000000000000000000000000000000000000000000000600052601160045260246000fd5b818103818111156107da576107da611da2565b80820281158282048414176107da576107da611da2565b600082611e31577f4e487b7100000000000000000000000000000000000000000000000000000000600052601260045260246000fd5b500490565b600060208284031215611e4857600080fd5b815180151581146115b657600080fd5b808201808211156107da576107da611da2565b6000815180845260005b81811015611e9157602081850181015186830182015201611e75565b5060006020828601015260207fffffffffffffffffffffffffffffffffffffffffffffffffffffffffffffffe0601f83011685010191505092915050565b61ffff8616815273ffffffffffffffffffffffffffffffffffffffff8516602082015260a060408201526000611f0860a0830186611e6b565b84151560608401528281036080840152611f228185611e6b565b98975050505050505050565b60008060408385031215611f4157600080fd5b505080516020909101519092909150565b61ffff8716815260c060208201526000611f6f60c0830188611e6b565b8281036040840152611f818188611e6b565b73ffffffffffffffffffffffffffffffffffffffff87811660608601528616608085015283810360a08501529050611fb98185611e6b565b999850505050505050505056fea2646970667358221220a5050a30b6f0564cf17eb74bd289e6cbfa9c7ac55f90f112ee9079331917249464736f6c63430008150033",
  "linkReferences": {},
  "deployedLinkReferences": {}
}