{
  "_format": "hh-sol-artifact-1",
  "contractName": "PublisherNFTSale",
  "sourceName": "contracts/sale/PublisherNFTSale.sol",
  "abi": [
    {
      "inputs": [
        {
          "internalType": "contract IERC1155",
          "name": "genesisToken",
          "type": "address"
        },
        {
          "internalType": "contract EDUCreditsManager",
          "name": "eduCreditsManager",
          "type": "address"
        },
        {
          "internalType": "contract ILayerZeroEndpoint",
          "name": "lzEndpoint",
          "type": "address"
        },
        {
          "internalType": "uint16",
          "name": "lzDstChainId",
          "type": "uint16"
        },
        {
          "internalType": "uint256",
          "name": "mintPrice",
          "type": "uint256"
        },
        {
          "internalType": "uint256",
          "name": "mintSupplyLimit",
          "type": "uint256"
        },
        {
          "internalType": "uint256",
          "name": "mintLimitPerAddress",
          "type": "uint256"
        },
        {
          "internalType": "uint256[]",
          "name": "timestamps",
          "type": "uint256[]"
        },
        {
          "internalType": "uint256[]",
          "name": "discountThresholds",
          "type": "uint256[]"
        },
        {
          "internalType": "uint256[]",
          "name": "discountPercentages",
          "type": "uint256[]"
        },
        {
          "internalType": "contract IForwarderRegistry",
          "name": "forwarderRegistry",
          "type": "address"
        }
      ],
      "stateMutability": "payable",
      "type": "constructor"
    },
    {
      "inputs": [],
      "name": "AddressMintingLimitReached",
      "type": "error"
    },
    {
      "inputs": [],
      "name": "IllegalInterfaceId",
      "type": "error"
    },
    {
      "inputs": [],
      "name": "InsufficientMintSupply",
      "type": "error"
    },
    {
      "inputs": [],
      "name": "InvalidDiscountPercentages",
      "type": "error"
    },
    {
      "inputs": [],
      "name": "InvalidDiscountThresholds",
      "type": "error"
    },
    {
      "inputs": [],
      "name": "InvalidTimestamps",
      "type": "error"
    },
    {
      "inputs": [],
      "name": "LzDstAddressAlreadySet",
      "type": "error"
    },
    {
      "inputs": [],
      "name": "LzDstAddressNotSet",
      "type": "error"
    },
    {
      "inputs": [],
      "name": "MintingTooManyTokens",
      "type": "error"
    },
    {
      "inputs": [],
      "name": "MintingZeroTokens",
      "type": "error"
    },
    {
      "inputs": [],
      "name": "NotADiamondHand",
      "type": "error"
    },
    {
      "inputs": [],
      "name": "NotADiamondHandNorAGenesisNFTOwner",
      "type": "error"
    },
    {
      "inputs": [
        {
          "internalType": "address",
          "name": "account",
          "type": "address"
        }
      ],
      "name": "NotContractOwner",
      "type": "error"
    },
    {
      "inputs": [],
      "name": "SaleEnded",
      "type": "error"
    },
    {
      "inputs": [],
      "name": "SaleNotStarted",
      "type": "error"
    },
    {
      "anonymous": false,
      "inputs": [
        {
          "indexed": false,
          "internalType": "address",
          "name": "sender",
          "type": "address"
        },
        {
          "indexed": false,
          "internalType": "uint256",
          "name": "nbTokens",
          "type": "uint256"
        },
        {
          "indexed": false,
          "internalType": "uint256",
          "name": "discountThreshold",
          "type": "uint256"
        }
      ],
      "name": "MintInitiated",
      "type": "event"
    },
    {
      "anonymous": false,
      "inputs": [
        {
          "indexed": true,
          "internalType": "address",
          "name": "previousOwner",
          "type": "address"
        },
        {
          "indexed": true,
          "internalType": "address",
          "name": "newOwner",
          "type": "address"
        }
      ],
      "name": "OwnershipTransferred",
      "type": "event"
    },
    {
      "inputs": [],
      "name": "DISCOUNT_PERCENTAGE_1",
      "outputs": [
        {
          "internalType": "uint256",
          "name": "",
          "type": "uint256"
        }
      ],
      "stateMutability": "view",
      "type": "function"
    },
    {
      "inputs": [],
      "name": "DISCOUNT_PERCENTAGE_2",
      "outputs": [
        {
          "internalType": "uint256",
          "name": "",
          "type": "uint256"
        }
      ],
      "stateMutability": "view",
      "type": "function"
    },
    {
      "inputs": [],
      "name": "DISCOUNT_PERCENTAGE_3",
      "outputs": [
        {
          "internalType": "uint256",
          "name": "",
          "type": "uint256"
        }
      ],
      "stateMutability": "view",
      "type": "function"
    },
    {
      "inputs": [],
      "name": "DISCOUNT_THRESHOLD_1",
      "outputs": [
        {
          "internalType": "uint256",
          "name": "",
          "type": "uint256"
        }
      ],
      "stateMutability": "view",
      "type": "function"
    },
    {
      "inputs": [],
      "name": "DISCOUNT_THRESHOLD_2",
      "outputs": [
        {
          "internalType": "uint256",
          "name": "",
          "type": "uint256"
        }
      ],
      "stateMutability": "view",
      "type": "function"
    },
    {
      "inputs": [],
      "name": "DISCOUNT_THRESHOLD_3",
      "outputs": [
        {
          "internalType": "uint256",
          "name": "",
          "type": "uint256"
        }
      ],
      "stateMutability": "view",
      "type": "function"
    },
    {
      "inputs": [],
      "name": "EDU_CREDITS_MANAGER",
      "outputs": [
        {
          "internalType": "contract EDUCreditsManager",
          "name": "",
          "type": "address"
        }
      ],
      "stateMutability": "view",
      "type": "function"
    },
    {
      "inputs": [],
      "name": "GENESIS_TOKEN",
      "outputs": [
        {
          "internalType": "contract IERC1155",
          "name": "",
          "type": "address"
        }
      ],
      "stateMutability": "view",
      "type": "function"
    },
    {
      "inputs": [],
      "name": "LZ_DST_CHAINID",
      "outputs": [
        {
          "internalType": "uint16",
          "name": "",
          "type": "uint16"
        }
      ],
      "stateMutability": "view",
      "type": "function"
    },
    {
      "inputs": [],
      "name": "LZ_ENDPOINT",
      "outputs": [
        {
          "internalType": "contract ILayerZeroEndpoint",
          "name": "",
          "type": "address"
        }
      ],
      "stateMutability": "view",
      "type": "function"
    },
    {
      "inputs": [],
      "name": "MINT_LIMIT_PER_ADDRESS",
      "outputs": [
        {
          "internalType": "uint256",
          "name": "",
          "type": "uint256"
        }
      ],
      "stateMutability": "view",
      "type": "function"
    },
    {
      "inputs": [],
      "name": "MINT_LIMIT_PER_TX",
      "outputs": [
        {
          "internalType": "uint256",
          "name": "",
          "type": "uint256"
        }
      ],
      "stateMutability": "view",
      "type": "function"
    },
    {
      "inputs": [],
      "name": "MINT_PRICE",
      "outputs": [
        {
          "internalType": "uint256",
          "name": "",
          "type": "uint256"
        }
      ],
      "stateMutability": "view",
      "type": "function"
    },
    {
      "inputs": [],
      "name": "MINT_SUPPLY_LIMIT",
      "outputs": [
        {
          "internalType": "uint256",
          "name": "",
          "type": "uint256"
        }
      ],
      "stateMutability": "view",
      "type": "function"
    },
    {
      "inputs": [],
      "name": "PHASE1_START_TIMESTAMP",
      "outputs": [
        {
          "internalType": "uint256",
          "name": "",
          "type": "uint256"
        }
      ],
      "stateMutability": "view",
      "type": "function"
    },
    {
      "inputs": [],
      "name": "PHASE2_START_TIMESTAMP",
      "outputs": [
        {
          "internalType": "uint256",
          "name": "",
          "type": "uint256"
        }
      ],
      "stateMutability": "view",
      "type": "function"
    },
    {
      "inputs": [],
      "name": "PHASE3_START_TIMESTAMP",
      "outputs": [
        {
          "internalType": "uint256",
          "name": "",
          "type": "uint256"
        }
      ],
      "stateMutability": "view",
      "type": "function"
    },
    {
      "inputs": [],
      "name": "SALE_END_TIMESTAMP",
      "outputs": [
        {
          "internalType": "uint256",
          "name": "",
          "type": "uint256"
        }
      ],
      "stateMutability": "view",
      "type": "function"
    },
    {
      "inputs": [
        {
          "internalType": "address",
          "name": "account",
          "type": "address"
        }
      ],
      "name": "canMint",
      "outputs": [
        {
          "internalType": "bool",
          "name": "",
          "type": "bool"
        }
      ],
      "stateMutability": "view",
      "type": "function"
    },
    {
      "inputs": [],
      "name": "currentMintPrice",
      "outputs": [
        {
          "internalType": "uint256",
          "name": "price",
          "type": "uint256"
        },
        {
          "internalType": "uint256",
          "name": "discountThreshold",
          "type": "uint256"
        }
      ],
      "stateMutability": "view",
      "type": "function"
    },
    {
      "inputs": [],
      "name": "currentSalePhase",
      "outputs": [
        {
          "internalType": "uint256",
          "name": "",
          "type": "uint256"
        }
      ],
      "stateMutability": "view",
      "type": "function"
    },
    {
      "inputs": [],
      "name": "forwarderRegistry",
      "outputs": [
        {
          "internalType": "contract IForwarderRegistry",
          "name": "",
          "type": "address"
        }
      ],
      "stateMutability": "view",
      "type": "function"
    },
    {
      "inputs": [
        {
          "internalType": "address",
          "name": "forwarder",
          "type": "address"
        }
      ],
      "name": "isTrustedForwarder",
      "outputs": [
        {
          "internalType": "bool",
          "name": "",
          "type": "bool"
        }
      ],
      "stateMutability": "view",
      "type": "function"
    },
    {
      "inputs": [],
      "name": "lzDstAddress",
      "outputs": [
        {
          "internalType": "address",
          "name": "",
          "type": "address"
        }
      ],
      "stateMutability": "view",
      "type": "function"
    },
    {
      "inputs": [
        {
          "internalType": "uint256",
          "name": "nbTokens",
          "type": "uint256"
        }
      ],
      "name": "mint",
      "outputs": [],
      "stateMutability": "nonpayable",
      "type": "function"
    },
    {
      "inputs": [],
      "name": "mintCount",
      "outputs": [
        {
          "internalType": "uint256",
          "name": "",
          "type": "uint256"
        }
      ],
      "stateMutability": "view",
      "type": "function"
    },
    {
      "inputs": [
        {
          "internalType": "address",
          "name": "",
          "type": "address"
        }
      ],
      "name": "mintCountPerAddress",
      "outputs": [
        {
          "internalType": "uint256",
          "name": "",
          "type": "uint256"
        }
      ],
      "stateMutability": "view",
      "type": "function"
    },
    {
      "inputs": [],
      "name": "owner",
      "outputs": [
        {
          "internalType": "address",
          "name": "",
          "type": "address"
        }
      ],
      "stateMutability": "view",
      "type": "function"
    },
    {
      "inputs": [
        {
          "internalType": "address",
          "name": "lzDstAddress_",
          "type": "address"
        }
      ],
      "name": "setLzDstAddress",
      "outputs": [],
      "stateMutability": "nonpayable",
      "type": "function"
    },
    {
      "inputs": [
        {
          "internalType": "bytes4",
          "name": "interfaceId",
          "type": "bytes4"
        }
      ],
      "name": "supportsInterface",
      "outputs": [
        {
          "internalType": "bool",
          "name": "",
          "type": "bool"
        }
      ],
      "stateMutability": "view",
      "type": "function"
    },
    {
      "inputs": [
        {
          "internalType": "address",
          "name": "newOwner",
          "type": "address"
        }
      ],
      "name": "transferOwnership",
      "outputs": [],
      "stateMutability": "nonpayable",
      "type": "function"
    },
    {
      "inputs": [
        {
          "internalType": "address",
          "name": "to",
          "type": "address"
        }
      ],
      "name": "withdraw",
      "outputs": [],
      "stateMutability": "nonpayable",
      "type": "function"
    },
    {
      "stateMutability": "payable",
      "type": "receive"
    }
  ],
  "bytecode": "0x6102c06040526040516200299338038062002993833981016040819052620000279162000660565b80803362000040816200003962000438565b906200046e565b506001600160a01b039081166080528c811660a0528b811660c0528a1660e0525061ffff881661010052610120879052610140869052610160859052835184906000906200009257620000926200077c565b602002602001015184600181518110620000b057620000b06200077c565b602002602001015111158062000100575083600181518110620000d757620000d76200077c565b602002602001015184600281518110620000f557620000f56200077c565b602002602001015111155b80620001465750836002815181106200011d576200011d6200077c565b6020026020010151846003815181106200013b576200013b6200077c565b602002602001015111155b15620001655760405163d22806e360e01b815260040160405180910390fd5b836000815181106200017b576200017b6200077c565b6020026020010151610180818152505083600181518110620001a157620001a16200077c565b60200260200101516101a0818152505083600281518110620001c757620001c76200077c565b60200260200101516101c0818152505083600381518110620001ed57620001ed6200077c565b60200260200101516101e08181525050826000815181106200021357620002136200077c565b6020026020010151836001815181106200023157620002316200077c565b6020026020010151111580620002815750826001815181106200025857620002586200077c565b6020026020010151836002815181106200027657620002766200077c565b602002602001015111155b15620002a05760405163ae2a357360e01b815260040160405180910390fd5b82600081518110620002b657620002b66200077c565b6020026020010151610200818152505082600181518110620002dc57620002dc6200077c565b60200260200101516102208181525050826002815181106200030257620003026200077c565b60200260200101516102408181525050816000815181106200032857620003286200077c565b6020026020010151826001815181106200034657620003466200077c565b6020026020010151111580620003965750816001815181106200036d576200036d6200077c565b6020026020010151826002815181106200038b576200038b6200077c565b602002602001015111155b15620003b55760405163ebda279160e01b815260040160405180910390fd5b81600081518110620003cb57620003cb6200077c565b6020026020010151610260818152505081600181518110620003f157620003f16200077c565b60200260200101516102808181525050816002815181106200041757620004176200077c565b60200260200101516102a081815250505050505050505050505050620007b4565b6000806200046860017fc9ed16f33ab3a66c84bfd83099ccb2a8845871e2e1c1928f63797152f0fd54cd62000792565b92915050565b6001600160a01b03811615620004c55781546001600160a01b0319166001600160a01b03821690811783556040516000907f8be0079c531659141344cd1fd0a4f28419497f9722a3daafe3b4186f6b6457e0908290a35b620004e56307f5828d60e41b6001620004dd620004e9565b919062000519565b5050565b6000806200046860017fca9d3e17f264b0f3984e2634e94adb37fa3e6a8103f06aeae6fa59e21c769f5e62000792565b600160e01b6001600160e01b031983160162000548576040516372c683bb60e01b815260040160405180910390fd5b6001600160e01b03199190911660009081526020929092526040909120805460ff1916911515919091179055565b80516001600160a01b03811681146200058e57600080fd5b919050565b805161ffff811681146200058e57600080fd5b634e487b7160e01b600052604160045260246000fd5b600082601f830112620005ce57600080fd5b815160206001600160401b0380831115620005ed57620005ed620005a6565b8260051b604051601f19603f83011681018181108482111715620006155762000615620005a6565b6040529384528581018301938381019250878511156200063457600080fd5b83870191505b8482101562000655578151835291830191908301906200063a565b979650505050505050565b60008060008060008060008060008060006101608c8e0312156200068357600080fd5b6200068e8c62000576565b9a506200069e60208d0162000576565b9950620006ae60408d0162000576565b9850620006be60608d0162000593565b975060808c0151965060a08c0151955060c08c0151945060e08c015160018060401b03811115620006ee57600080fd5b620006fc8e828f01620005bc565b6101008e015190955090506001600160401b038111156200071c57600080fd5b6200072a8e828f01620005bc565b6101208e015190945090506001600160401b038111156200074a57600080fd5b620007588e828f01620005bc565b9250506200076a6101408d0162000576565b90509295989b509295989b9093969950565b634e487b7160e01b600052603260045260246000fd5b818103818111156200046857634e487b7160e01b600052601160045260246000fd5b60805160a05160c05160e05161010051610120516101405161016051610180516101a0516101c0516101e05161020051610220516102405161026051610280516102a0516120396200095a6000396000818161052001526108e701526000818161047401526109580152600081816106f301526109c901526000818161058801526108bb0152600081816102bb015261092c015260008181610343015261099d0152600081816103770152611870015260008181610610015261189e01526000818161068b01526118cb01526000818161072701526118f8015260008181610287015261109a01526000818161075b01526110080152600081816105bc01526108050152600081816106440152818161131901526114460152600081816106bf015281816112ec01526114020152600081816105540152818161082a01528181610c5901528181610d4c0152818161113f01528181611588015261164701526000818161078f01528181610e0a01528181610ec80152818161170301526117c10152600081816102ec015281816103d801528181611c310152611cb901526120396000f3fe6080604052600436106101e75760003560e01c8063a0712d6811610102578063c8767f2f11610095578063e36d820511610064578063e36d820514610749578063ef59df271461077d578063f2fde38b146107b1578063f53da97e146107d157600080fd5b8063c8767f2f14610679578063cd4d1c64146106ad578063d7f62163146106e1578063dba535d71461071557600080fd5b8063c002d23d116100d1578063c002d23d146105aa578063c2ba4744146105de578063c4823504146105fe578063c834c9791461063257600080fd5b8063a0712d68146104ee578063a0e5d7701461050e578063ae8384d014610542578063b68ba08b1461057657600080fd5b806351cff8d91161017a578063812042031161014957806381204203146104625780638da5cb5b146104965780639659867e146104ab57806396a38045146104c157600080fd5b806351cff8d914610399578063572b6c05146103bb57806357e33a27146104155780636dc407f91461043557600080fd5b80631d1f42ec116101b65780631d1f42ec146102a95780632b4c9f16146102dd5780632d3ccf3f146103315780634210830d1461036557600080fd5b806301ffc9a7146101f35780630561942a1461022857806318ab42c5146102525780631a5030371461027557600080fd5b366101ee57005b600080fd5b3480156101ff57600080fd5b5061021361020e366004611d35565b6107e6565b60405190151581526020015b60405180910390f35b34801561023457600080fd5b5061023d610800565b6040805192835260208301919091520161021f565b34801561025e57600080fd5b50610267600a81565b60405190815260200161021f565b34801561028157600080fd5b506102677f000000000000000000000000000000000000000000000000000000000000000081565b3480156102b557600080fd5b506102677f000000000000000000000000000000000000000000000000000000000000000081565b3480156102e957600080fd5b507f00000000000000000000000000000000000000000000000000000000000000005b60405173ffffffffffffffffffffffffffffffffffffffff909116815260200161021f565b34801561033d57600080fd5b506102677f000000000000000000000000000000000000000000000000000000000000000081565b34801561037157600080fd5b506102677f000000000000000000000000000000000000000000000000000000000000000081565b3480156103a557600080fd5b506103b96103b4366004611d77565b610a0e565b005b3480156103c757600080fd5b506102136103d6366004611d77565b7f000000000000000000000000000000000000000000000000000000000000000073ffffffffffffffffffffffffffffffffffffffff90811691161490565b34801561042157600080fd5b506103b9610430366004611d77565b610a77565b34801561044157600080fd5b50610267610450366004611d77565b60026020526000908152604090205481565b34801561046e57600080fd5b506102677f000000000000000000000000000000000000000000000000000000000000000081565b3480156104a257600080fd5b5061030c610b19565b3480156104b757600080fd5b5061026760015481565b3480156104cd57600080fd5b5060005461030c9073ffffffffffffffffffffffffffffffffffffffff1681565b3480156104fa57600080fd5b506103b9610509366004611dad565b610b45565b34801561051a57600080fd5b506102677f000000000000000000000000000000000000000000000000000000000000000081565b34801561054e57600080fd5b5061030c7f000000000000000000000000000000000000000000000000000000000000000081565b34801561058257600080fd5b506102677f000000000000000000000000000000000000000000000000000000000000000081565b3480156105b657600080fd5b506102677f000000000000000000000000000000000000000000000000000000000000000081565b3480156105ea57600080fd5b506102136105f9366004611d77565b61151d565b34801561060a57600080fd5b506102677f000000000000000000000000000000000000000000000000000000000000000081565b34801561063e57600080fd5b506106667f000000000000000000000000000000000000000000000000000000000000000081565b60405161ffff909116815260200161021f565b34801561068557600080fd5b506102677f000000000000000000000000000000000000000000000000000000000000000081565b3480156106b957600080fd5b5061030c7f000000000000000000000000000000000000000000000000000000000000000081565b3480156106ed57600080fd5b506102677f000000000000000000000000000000000000000000000000000000000000000081565b34801561072157600080fd5b506102677f000000000000000000000000000000000000000000000000000000000000000081565b34801561075557600080fd5b506102677f000000000000000000000000000000000000000000000000000000000000000081565b34801561078957600080fd5b5061030c7f000000000000000000000000000000000000000000000000000000000000000081565b3480156107bd57600080fd5b506103b96107cc366004611d77565b61184e565b3480156107dd57600080fd5b5061026761186c565b60006107fa826107f4611929565b90611957565b92915050565b6000807f0000000000000000000000000000000000000000000000000000000000000000915060007f000000000000000000000000000000000000000000000000000000000000000073ffffffffffffffffffffffffffffffffffffffff1663b5bd3eb96040518163ffffffff1660e01b8152600401602060405180830381865afa158015610893573d6000803e3d6000fd5b505050506040513d601f19601f820116820180604052508101906108b79190611dc6565b90507f0000000000000000000000000000000000000000000000000000000000000000811061092a57606461090c7f000000000000000000000000000000000000000000000000000000000000000082611e0e565b6109169085611e21565b6109209190611e38565b9360039350915050565b7f0000000000000000000000000000000000000000000000000000000000000000811061099b57606461097d7f000000000000000000000000000000000000000000000000000000000000000082611e0e565b6109879085611e21565b6109919190611e38565b9360029350915050565b7f00000000000000000000000000000000000000000000000000000000000000008110610a095760646109ee7f000000000000000000000000000000000000000000000000000000000000000082611e0e565b6109f89085611e21565b610a029190611e38565b9250600191505b509091565b610a27610a19611a31565b610a21611a3b565b90611a69565b478015610a735760405173ffffffffffffffffffffffffffffffffffffffff83169082156108fc029083906000818181858888f19350505050158015610a71573d6000803e3d6000fd5b505b5050565b610a82610a19611a31565b60005473ffffffffffffffffffffffffffffffffffffffff1615610ad2576040517f5ccf468900000000000000000000000000000000000000000000000000000000815260040160405180910390fd5b600080547fffffffffffffffffffffffff00000000000000000000000000000000000000001673ffffffffffffffffffffffffffffffffffffffff92909216919091179055565b6000610b40610b26611a3b565b5473ffffffffffffffffffffffffffffffffffffffff1690565b905090565b80600003610b7f576040517f445dc49e00000000000000000000000000000000000000000000000000000000815260040160405180910390fd5b600a811115610bba576040517f8a0cd58100000000000000000000000000000000000000000000000000000000815260040160405180910390fd5b6000610bc4611a31565b90506000610bd061186c565b905080600003610c0c576040517f2d0a346e00000000000000000000000000000000000000000000000000000000815260040160405180910390fd5b80600103610cff576040517f508fc90500000000000000000000000000000000000000000000000000000000815273ffffffffffffffffffffffffffffffffffffffff83811660048301527f0000000000000000000000000000000000000000000000000000000000000000169063508fc90590602401602060405180830381865afa158015610ca0573d6000803e3d6000fd5b505050506040513d601f19601f82011682018060405250810190610cc49190611e73565b610cfa576040517fdc460b7300000000000000000000000000000000000000000000000000000000815260040160405180910390fd5b610fa5565b80600203610f6b576040517f508fc90500000000000000000000000000000000000000000000000000000000815273ffffffffffffffffffffffffffffffffffffffff83811660048301527f0000000000000000000000000000000000000000000000000000000000000000169063508fc90590602401602060405180830381865afa158015610d93573d6000803e3d6000fd5b505050506040513d601f19601f82011682018060405250810190610db79190611e73565b158015610e7657506040517efdd58e00000000000000000000000000000000000000000000000000000000815273ffffffffffffffffffffffffffffffffffffffff8381166004830152600160248301527f0000000000000000000000000000000000000000000000000000000000000000169062fdd58e90604401602060405180830381865afa158015610e50573d6000803e3d6000fd5b505050506040513d601f19601f82011682018060405250810190610e749190611dc6565b155b8015610f3457506040517efdd58e00000000000000000000000000000000000000000000000000000000815273ffffffffffffffffffffffffffffffffffffffff8381166004830152600260248301527f0000000000000000000000000000000000000000000000000000000000000000169062fdd58e90604401602060405180830381865afa158015610f0e573d6000803e3d6000fd5b505050506040513d601f19601f82011682018060405250810190610f329190611dc6565b155b15610cfa576040517feca8f22000000000000000000000000000000000000000000000000000000000815260040160405180910390fd5b60038114610fa5576040517f0bd8a3eb00000000000000000000000000000000000000000000000000000000815260040160405180910390fd5b60005473ffffffffffffffffffffffffffffffffffffffff1680610ff5576040517fb9281de400000000000000000000000000000000000000000000000000000000815260040160405180910390fd5b60015460006110048683611e95565b90507f0000000000000000000000000000000000000000000000000000000000000000811115611060576040517f7b838b0200000000000000000000000000000000000000000000000000000000815260040160405180910390fd5b600181905573ffffffffffffffffffffffffffffffffffffffff8516600090815260026020526040812054906110968883611e95565b90507f00000000000000000000000000000000000000000000000000000000000000008111156110f2576040517f5cc9ef7100000000000000000000000000000000000000000000000000000000815260040160405180910390fd5b73ffffffffffffffffffffffffffffffffffffffff8716600090815260026020526040812082905580611123610800565b909250905073ffffffffffffffffffffffffffffffffffffffff7f00000000000000000000000000000000000000000000000000000000000000001663af7d6ca38a61116f8d86611e21565b6040517fffffffff0000000000000000000000000000000000000000000000000000000060e085901b16815273ffffffffffffffffffffffffffffffffffffffff90921660048301526024820152604401600060405180830381600087803b1580156111da57600080fd5b505af11580156111ee573d6000803e3d6000fd5b50506040805173ffffffffffffffffffffffffffffffffffffffff8d1660208201528082018e905281518082038301815260609091019091529150600090506112398c617530611e21565b611246906201e848611e95565b6040517e01000000000000000000000000000000000000000000000000000000000000602082015260228101829052909150600090604201604080517fffffffffffffffffffffffffffffffffffffffffffffffffffffffffffffffe0818403018152908290527f40a7bb10000000000000000000000000000000000000000000000000000000008252915060009073ffffffffffffffffffffffffffffffffffffffff7f000000000000000000000000000000000000000000000000000000000000000016906340a7bb1090611349907f0000000000000000000000000000000000000000000000000000000000000000908f90899087908990600401611f0c565b6040805180830381865afa158015611365573d6000803e3d6000fd5b505050506040513d601f19601f820116820180604052508101906113899190611f6b565b506040805160608e811b7fffffffffffffffffffffffffffffffffffffffff0000000000000000000000009081166020840152309182901b1660348301528251602881840301815260488301938490527fc5803100000000000000000000000000000000000000000000000000000000009093529293507f000000000000000000000000000000000000000000000000000000000000000073ffffffffffffffffffffffffffffffffffffffff169263c5803100928592611477927f000000000000000000000000000000000000000000000000000000000000000092918b91906000908b90604c01611f8f565b6000604051808303818588803b15801561149057600080fd5b505af11580156114a4573d6000803e3d6000fd5b50505050507f6b9646daf37cd2bfd6cf46c729da3ea690a73a6555404e5f0299e15a865ed3848d8f876040516115059392919073ffffffffffffffffffffffffffffffffffffffff9390931683526020830191909152604082015260600190565b60405180910390a15050505050505050505050505050565b60008061152861186c565b90508060000361153b5750600092915050565b806001036115fa576040517f508fc90500000000000000000000000000000000000000000000000000000000815273ffffffffffffffffffffffffffffffffffffffff84811660048301527f0000000000000000000000000000000000000000000000000000000000000000169063508fc90590602401602060405180830381865afa1580156115cf573d6000803e3d6000fd5b505050506040513d601f19601f820116820180604052508101906115f39190611e73565b9392505050565b80600203611834576040517f508fc90500000000000000000000000000000000000000000000000000000000815273ffffffffffffffffffffffffffffffffffffffff84811660048301527f0000000000000000000000000000000000000000000000000000000000000000169063508fc90590602401602060405180830381865afa15801561168e573d6000803e3d6000fd5b505050506040513d601f19601f820116820180604052508101906116b29190611e73565b8061177057506040517efdd58e00000000000000000000000000000000000000000000000000000000815273ffffffffffffffffffffffffffffffffffffffff8481166004830152600160248301527f0000000000000000000000000000000000000000000000000000000000000000169062fdd58e90604401602060405180830381865afa158015611749573d6000803e3d6000fd5b505050506040513d601f19601f8201168201806040525081019061176d9190611dc6565b15155b806115f357506040517efdd58e00000000000000000000000000000000000000000000000000000000815273ffffffffffffffffffffffffffffffffffffffff8481166004830152600260248301527f0000000000000000000000000000000000000000000000000000000000000000169062fdd58e90604401602060405180830381865afa158015611807573d6000803e3d6000fd5b505050506040513d601f19601f8201168201806040525081019061182b9190611dc6565b15159392505050565b806003036118455750600192915050565b50600092915050565b611869611859611a31565b82611862611a3b565b9190611ad9565b50565b60007f000000000000000000000000000000000000000000000000000000000000000042111561189c5750600490565b7f000000000000000000000000000000000000000000000000000000000000000042106118c95750600390565b7f000000000000000000000000000000000000000000000000000000000000000042106118f65750600290565b7f000000000000000000000000000000000000000000000000000000000000000042106119235750600190565b50600090565b6000806107fa60017fca9d3e17f264b0f3984e2634e94adb37fa3e6a8103f06aeae6fa59e21c769f5e611e0e565b60007c01000000000000000000000000000000000000000000000000000000007fffffffff000000000000000000000000000000000000000000000000000000008316016119a7575060006107fa565b7ffe003659000000000000000000000000000000000000000000000000000000007fffffffff000000000000000000000000000000000000000000000000000000008316016119f8575060016107fa565b507fffffffff00000000000000000000000000000000000000000000000000000000166000908152602091909152604090205460ff1690565b6000610b40611bee565b6000806107fa60017fc9ed16f33ab3a66c84bfd83099ccb2a8845871e2e1c1928f63797152f0fd54cd611e0e565b815473ffffffffffffffffffffffffffffffffffffffff828116911614610a73576040517f2ef4875e00000000000000000000000000000000000000000000000000000000815273ffffffffffffffffffffffffffffffffffffffff821660048201526024015b60405180910390fd5b825473ffffffffffffffffffffffffffffffffffffffff9081169083168114611b46576040517f2ef4875e00000000000000000000000000000000000000000000000000000000815273ffffffffffffffffffffffffffffffffffffffff84166004820152602401611ad0565b8173ffffffffffffffffffffffffffffffffffffffff168173ffffffffffffffffffffffffffffffffffffffff1614611be85783547fffffffffffffffffffffffff00000000000000000000000000000000000000001673ffffffffffffffffffffffffffffffffffffffff8381169182178655604051908316907f8be0079c531659141344cd1fd0a4f28419497f9722a3daafe3b4186f6b6457e090600090a35b50505050565b600033321480611bfe5750601836105b15611c0857503390565b7fffffffffffffffffffffffffffffffffffffffffffffffffffffffffffffffec36013560601c7f000000000000000000000000000000000000000000000000000000000000000073ffffffffffffffffffffffffffffffffffffffff16331480611d2457506040517f8929a8ca00000000000000000000000000000000000000000000000000000000815273ffffffffffffffffffffffffffffffffffffffff82811660048301523360248301527f00000000000000000000000000000000000000000000000000000000000000001690638929a8ca90604401602060405180830381865afa158015611d00573d6000803e3d6000fd5b505050506040513d601f19601f82011682018060405250810190611d249190611e73565b15611d2e57919050565b3391505090565b600060208284031215611d4757600080fd5b81357fffffffff00000000000000000000000000000000000000000000000000000000811681146115f357600080fd5b600060208284031215611d8957600080fd5b813573ffffffffffffffffffffffffffffffffffffffff811681146115f357600080fd5b600060208284031215611dbf57600080fd5b5035919050565b600060208284031215611dd857600080fd5b5051919050565b7f4e487b7100000000000000000000000000000000000000000000000000000000600052601160045260246000fd5b818103818111156107fa576107fa611ddf565b80820281158282048414176107fa576107fa611ddf565b600082611e6e577f4e487b7100000000000000000000000000000000000000000000000000000000600052601260045260246000fd5b500490565b600060208284031215611e8557600080fd5b815180151581146115f357600080fd5b808201808211156107fa576107fa611ddf565b6000815180845260005b81811015611ece57602081850181015186830182015201611eb2565b5060006020828601015260207fffffffffffffffffffffffffffffffffffffffffffffffffffffffffffffffe0601f83011685010191505092915050565b61ffff8616815273ffffffffffffffffffffffffffffffffffffffff8516602082015260a060408201526000611f4560a0830186611ea8565b84151560608401528281036080840152611f5f8185611ea8565b98975050505050505050565b60008060408385031215611f7e57600080fd5b505080516020909101519092909150565b61ffff8716815260c060208201526000611fac60c0830188611ea8565b8281036040840152611fbe8188611ea8565b73ffffffffffffffffffffffffffffffffffffffff87811660608601528616608085015283810360a08501529050611ff68185611ea8565b999850505050505050505056fea2646970667358221220cbc3e1cd38d6ecce0a5b34a74b8ce37f1f9b43aa49b8428751ae5ebd9fa9500964736f6c63430008150033",
  "linkReferences": {},
  "deployedLinkReferences": {}
}