{
  "_format": "hh-sol-artifact-1",
  "contractName": "PublisherNFTSale",
  "sourceName": "contracts/sale/PublisherNFTSale.sol",
  "abi": [
    {
      "inputs": [
        {
          "internalType": "contract IERC1155",
          "name": "genesisToken",
          "type": "address"
        },
        {
          "internalType": "contract EDUCreditsManager",
          "name": "eduCreditsManager",
          "type": "address"
        },
        {
          "internalType": "contract ILayerZeroEndpoint",
          "name": "lzEndpoint",
          "type": "address"
        },
        {
          "internalType": "uint16",
          "name": "lzDstChainId",
          "type": "uint16"
        },
        {
          "internalType": "uint256",
          "name": "mintPrice",
          "type": "uint256"
        },
        {
          "internalType": "uint256",
          "name": "mintSupplyLimit",
          "type": "uint256"
        },
        {
          "internalType": "uint256",
          "name": "mintLimitPerAddress",
          "type": "uint256"
        },
        {
          "internalType": "uint256[]",
          "name": "timestamps",
          "type": "uint256[]"
        },
        {
          "internalType": "uint256[]",
          "name": "discountThresholds",
          "type": "uint256[]"
        },
        {
          "internalType": "uint256[]",
          "name": "discountPercentages",
          "type": "uint256[]"
        },
        {
          "internalType": "contract IForwarderRegistry",
          "name": "forwarderRegistry",
          "type": "address"
        }
      ],
      "stateMutability": "payable",
      "type": "constructor"
    },
    {
      "inputs": [],
      "name": "AddressMintingLimitReached",
      "type": "error"
    },
    {
      "inputs": [],
      "name": "IllegalInterfaceId",
      "type": "error"
    },
    {
      "inputs": [],
      "name": "InsufficientMintSupply",
      "type": "error"
    },
    {
      "inputs": [],
      "name": "InvalidDiscountPercentages",
      "type": "error"
    },
    {
      "inputs": [],
      "name": "InvalidDiscountPercentagesLength",
      "type": "error"
    },
    {
      "inputs": [],
      "name": "InvalidDiscountThresholdsLength",
      "type": "error"
    },
    {
      "inputs": [],
      "name": "InvalidTimestampsLength",
      "type": "error"
    },
    {
      "inputs": [],
      "name": "LzDstAddressAlreadySet",
      "type": "error"
    },
    {
      "inputs": [],
      "name": "LzDstAddressNotSet",
      "type": "error"
    },
    {
      "inputs": [],
      "name": "MintingTooManyTokens",
      "type": "error"
    },
    {
      "inputs": [],
      "name": "MintingZeroTokens",
      "type": "error"
    },
    {
      "inputs": [],
      "name": "NonIncreasingDiscountPercentages",
      "type": "error"
    },
    {
      "inputs": [],
      "name": "NonIncreasingDiscountThresholds",
      "type": "error"
    },
    {
      "inputs": [],
      "name": "NonIncreasingTimestamps",
      "type": "error"
    },
    {
      "inputs": [],
      "name": "NotADiamondHand",
      "type": "error"
    },
    {
      "inputs": [],
      "name": "NotADiamondHandNorAGenesisNFTOwner",
      "type": "error"
    },
    {
      "inputs": [
        {
          "internalType": "address",
          "name": "account",
          "type": "address"
        }
      ],
      "name": "NotContractOwner",
      "type": "error"
    },
    {
      "inputs": [],
      "name": "SaleEnded",
      "type": "error"
    },
    {
      "inputs": [],
      "name": "SaleNotStarted",
      "type": "error"
    },
    {
      "inputs": [],
      "name": "TransferFailed",
      "type": "error"
    },
    {
      "inputs": [],
      "name": "ZeroMintLimitPerAddress",
      "type": "error"
    },
    {
      "inputs": [],
      "name": "ZeroMintPrice",
      "type": "error"
    },
    {
      "inputs": [],
      "name": "ZeroMintSupplyLimit",
      "type": "error"
    },
    {
      "anonymous": false,
      "inputs": [
        {
          "indexed": false,
          "internalType": "address",
          "name": "sender",
          "type": "address"
        },
        {
          "indexed": false,
          "internalType": "uint256",
          "name": "nbTokens",
          "type": "uint256"
        },
        {
          "indexed": false,
          "internalType": "uint256",
          "name": "discountThreshold",
          "type": "uint256"
        }
      ],
      "name": "MintInitiated",
      "type": "event"
    },
    {
      "anonymous": false,
      "inputs": [
        {
          "indexed": true,
          "internalType": "address",
          "name": "previousOwner",
          "type": "address"
        },
        {
          "indexed": true,
          "internalType": "address",
          "name": "newOwner",
          "type": "address"
        }
      ],
      "name": "OwnershipTransferred",
      "type": "event"
    },
    {
      "inputs": [],
      "name": "DISCOUNT_PERCENTAGE_1",
      "outputs": [
        {
          "internalType": "uint256",
          "name": "",
          "type": "uint256"
        }
      ],
      "stateMutability": "view",
      "type": "function"
    },
    {
      "inputs": [],
      "name": "DISCOUNT_PERCENTAGE_2",
      "outputs": [
        {
          "internalType": "uint256",
          "name": "",
          "type": "uint256"
        }
      ],
      "stateMutability": "view",
      "type": "function"
    },
    {
      "inputs": [],
      "name": "DISCOUNT_PERCENTAGE_3",
      "outputs": [
        {
          "internalType": "uint256",
          "name": "",
          "type": "uint256"
        }
      ],
      "stateMutability": "view",
      "type": "function"
    },
    {
      "inputs": [],
      "name": "DISCOUNT_THRESHOLD_1",
      "outputs": [
        {
          "internalType": "uint256",
          "name": "",
          "type": "uint256"
        }
      ],
      "stateMutability": "view",
      "type": "function"
    },
    {
      "inputs": [],
      "name": "DISCOUNT_THRESHOLD_2",
      "outputs": [
        {
          "internalType": "uint256",
          "name": "",
          "type": "uint256"
        }
      ],
      "stateMutability": "view",
      "type": "function"
    },
    {
      "inputs": [],
      "name": "DISCOUNT_THRESHOLD_3",
      "outputs": [
        {
          "internalType": "uint256",
          "name": "",
          "type": "uint256"
        }
      ],
      "stateMutability": "view",
      "type": "function"
    },
    {
      "inputs": [],
      "name": "EDU_CREDITS_MANAGER",
      "outputs": [
        {
          "internalType": "contract EDUCreditsManager",
          "name": "",
          "type": "address"
        }
      ],
      "stateMutability": "view",
      "type": "function"
    },
    {
      "inputs": [],
      "name": "GENESIS_TOKEN",
      "outputs": [
        {
          "internalType": "contract IERC1155",
          "name": "",
          "type": "address"
        }
      ],
      "stateMutability": "view",
      "type": "function"
    },
    {
      "inputs": [],
      "name": "LZ_DST_CHAINID",
      "outputs": [
        {
          "internalType": "uint16",
          "name": "",
          "type": "uint16"
        }
      ],
      "stateMutability": "view",
      "type": "function"
    },
    {
      "inputs": [],
      "name": "LZ_ENDPOINT",
      "outputs": [
        {
          "internalType": "contract ILayerZeroEndpoint",
          "name": "",
          "type": "address"
        }
      ],
      "stateMutability": "view",
      "type": "function"
    },
    {
      "inputs": [],
      "name": "MINT_LIMIT_PER_ADDRESS",
      "outputs": [
        {
          "internalType": "uint256",
          "name": "",
          "type": "uint256"
        }
      ],
      "stateMutability": "view",
      "type": "function"
    },
    {
      "inputs": [],
      "name": "MINT_LIMIT_PER_TX",
      "outputs": [
        {
          "internalType": "uint256",
          "name": "",
          "type": "uint256"
        }
      ],
      "stateMutability": "view",
      "type": "function"
    },
    {
      "inputs": [],
      "name": "MINT_PRICE",
      "outputs": [
        {
          "internalType": "uint256",
          "name": "",
          "type": "uint256"
        }
      ],
      "stateMutability": "view",
      "type": "function"
    },
    {
      "inputs": [],
      "name": "MINT_SUPPLY_LIMIT",
      "outputs": [
        {
          "internalType": "uint256",
          "name": "",
          "type": "uint256"
        }
      ],
      "stateMutability": "view",
      "type": "function"
    },
    {
      "inputs": [],
      "name": "PHASE1_START_TIMESTAMP",
      "outputs": [
        {
          "internalType": "uint256",
          "name": "",
          "type": "uint256"
        }
      ],
      "stateMutability": "view",
      "type": "function"
    },
    {
      "inputs": [],
      "name": "PHASE2_START_TIMESTAMP",
      "outputs": [
        {
          "internalType": "uint256",
          "name": "",
          "type": "uint256"
        }
      ],
      "stateMutability": "view",
      "type": "function"
    },
    {
      "inputs": [],
      "name": "PHASE3_START_TIMESTAMP",
      "outputs": [
        {
          "internalType": "uint256",
          "name": "",
          "type": "uint256"
        }
      ],
      "stateMutability": "view",
      "type": "function"
    },
    {
      "inputs": [],
      "name": "SALE_END_TIMESTAMP",
      "outputs": [
        {
          "internalType": "uint256",
          "name": "",
          "type": "uint256"
        }
      ],
      "stateMutability": "view",
      "type": "function"
    },
    {
      "inputs": [
        {
          "internalType": "address",
          "name": "account",
          "type": "address"
        }
      ],
      "name": "canMint",
      "outputs": [
        {
          "internalType": "bool",
          "name": "",
          "type": "bool"
        }
      ],
      "stateMutability": "view",
      "type": "function"
    },
    {
      "inputs": [],
      "name": "currentMintPrice",
      "outputs": [
        {
          "internalType": "uint256",
          "name": "price",
          "type": "uint256"
        },
        {
          "internalType": "uint256",
          "name": "discountThreshold",
          "type": "uint256"
        }
      ],
      "stateMutability": "view",
      "type": "function"
    },
    {
      "inputs": [],
      "name": "currentSalePhase",
      "outputs": [
        {
          "internalType": "uint256",
          "name": "",
          "type": "uint256"
        }
      ],
      "stateMutability": "view",
      "type": "function"
    },
    {
      "inputs": [],
      "name": "forwarderRegistry",
      "outputs": [
        {
          "internalType": "contract IForwarderRegistry",
          "name": "",
          "type": "address"
        }
      ],
      "stateMutability": "view",
      "type": "function"
    },
    {
      "inputs": [],
      "name": "getLzCallbackGasUsage",
      "outputs": [
        {
          "internalType": "uint128",
          "name": "base",
          "type": "uint128"
        },
        {
          "internalType": "uint128",
          "name": "perToken",
          "type": "uint128"
        }
      ],
      "stateMutability": "view",
      "type": "function"
    },
    {
      "inputs": [
        {
          "internalType": "address",
          "name": "forwarder",
          "type": "address"
        }
      ],
      "name": "isTrustedForwarder",
      "outputs": [
        {
          "internalType": "bool",
          "name": "",
          "type": "bool"
        }
      ],
      "stateMutability": "view",
      "type": "function"
    },
    {
      "inputs": [],
      "name": "lzCallbackGasUsage",
      "outputs": [
        {
          "internalType": "uint256",
          "name": "",
          "type": "uint256"
        }
      ],
      "stateMutability": "view",
      "type": "function"
    },
    {
      "inputs": [],
      "name": "lzDstAddress",
      "outputs": [
        {
          "internalType": "address",
          "name": "",
          "type": "address"
        }
      ],
      "stateMutability": "view",
      "type": "function"
    },
    {
      "inputs": [
        {
          "internalType": "uint256",
          "name": "nbTokens",
          "type": "uint256"
        }
      ],
      "name": "mint",
      "outputs": [],
      "stateMutability": "nonpayable",
      "type": "function"
    },
    {
      "inputs": [],
      "name": "mintCount",
      "outputs": [
        {
          "internalType": "uint256",
          "name": "",
          "type": "uint256"
        }
      ],
      "stateMutability": "view",
      "type": "function"
    },
    {
      "inputs": [
        {
          "internalType": "address",
          "name": "",
          "type": "address"
        }
      ],
      "name": "mintCountPerAddress",
      "outputs": [
        {
          "internalType": "uint256",
          "name": "",
          "type": "uint256"
        }
      ],
      "stateMutability": "view",
      "type": "function"
    },
    {
      "inputs": [],
      "name": "owner",
      "outputs": [
        {
          "internalType": "address",
          "name": "",
          "type": "address"
        }
      ],
      "stateMutability": "view",
      "type": "function"
    },
    {
      "inputs": [
        {
          "internalType": "uint128",
          "name": "base",
          "type": "uint128"
        },
        {
          "internalType": "uint128",
          "name": "perToken",
          "type": "uint128"
        }
      ],
      "name": "setLzCallbackGasUsage",
      "outputs": [],
      "stateMutability": "nonpayable",
      "type": "function"
    },
    {
      "inputs": [
        {
          "internalType": "address",
          "name": "lzDstAddress_",
          "type": "address"
        }
      ],
      "name": "setLzDstAddress",
      "outputs": [],
      "stateMutability": "nonpayable",
      "type": "function"
    },
    {
      "inputs": [
        {
          "internalType": "bytes4",
          "name": "interfaceId",
          "type": "bytes4"
        }
      ],
      "name": "supportsInterface",
      "outputs": [
        {
          "internalType": "bool",
          "name": "",
          "type": "bool"
        }
      ],
      "stateMutability": "view",
      "type": "function"
    },
    {
      "inputs": [
        {
          "internalType": "address",
          "name": "newOwner",
          "type": "address"
        }
      ],
      "name": "transferOwnership",
      "outputs": [],
      "stateMutability": "nonpayable",
      "type": "function"
    },
    {
      "inputs": [
        {
          "internalType": "address",
          "name": "to",
          "type": "address"
        }
      ],
      "name": "withdraw",
      "outputs": [],
      "stateMutability": "nonpayable",
      "type": "function"
    },
    {
      "stateMutability": "payable",
      "type": "receive"
    }
  ],
  "bytecode": "0x6102c060405260405162002cc338038062002cc383398101604081905262000027916200078e565b80803362000040816200003962000563565b9062000599565b506001600160a01b031660805250600087900362000071576040516301d6003760e51b815260040160405180910390fd5b856000036200009357604051634ea99c6d60e11b815260040160405180910390fd5b84600003620000b55760405163758d8ebf60e01b815260040160405180910390fd5b8351600414620000d85760405163027e48a560e01b815260040160405180910390fd5b8251600314620000fb57604051631397459760e11b815260040160405180910390fd5b81516003146200011e5760405163060c8e7b60e11b815260040160405180910390fd5b83600081518110620001345762000134620008aa565b602002602001015184600181518110620001525762000152620008aa565b6020026020010151111580620001a2575083600181518110620001795762000179620008aa565b602002602001015184600281518110620001975762000197620008aa565b602002602001015111155b80620001e8575083600281518110620001bf57620001bf620008aa565b602002602001015184600381518110620001dd57620001dd620008aa565b602002602001015111155b15620002075760405163ec2e9ce360e01b815260040160405180910390fd5b826000815181106200021d576200021d620008aa565b6020026020010151836001815181106200023b576200023b620008aa565b60200260200101511115806200028b575082600181518110620002625762000262620008aa565b602002602001015183600281518110620002805762000280620008aa565b602002602001015111155b15620002aa5760405163eccc5abd60e01b815260040160405180910390fd5b81600081518110620002c057620002c0620008aa565b602002602001015182600181518110620002de57620002de620008aa565b60200260200101511115806200032e575081600181518110620003055762000305620008aa565b602002602001015182600281518110620003235762000323620008aa565b602002602001015111155b156200034d57604051639db5141d60e01b815260040160405180910390fd5b61271082600281518110620003665762000366620008aa565b6020026020010151106200038d5760405163ebda279160e01b815260040160405180910390fd5b6001600160a01b03808c1660a0528a811660c052891660e05261ffff88166101005261012087905261014086905261016085905283518490600090620003d757620003d7620008aa565b6020026020010151610180818152505083600181518110620003fd57620003fd620008aa565b60200260200101516101a0818152505083600281518110620004235762000423620008aa565b60200260200101516101c0818152505083600381518110620004495762000449620008aa565b60200260200101516101e08181525050826000815181106200046f576200046f620008aa565b6020026020010151610200818152505082600181518110620004955762000495620008aa565b6020026020010151610220818152505082600281518110620004bb57620004bb620008aa565b6020026020010151610240818152505081600081518110620004e157620004e1620008aa565b6020026020010151610260818152505081600181518110620005075762000507620008aa565b60200260200101516102808181525050816002815181106200052d576200052d620008aa565b60209081029190910101516102a0527175300000000000000000000000000001e8486001555050505050505050505050620008e2565b6000806200059360017fc9ed16f33ab3a66c84bfd83099ccb2a8845871e2e1c1928f63797152f0fd54cd620008c0565b92915050565b6001600160a01b03811615620005f05781546001600160a01b0319166001600160a01b03821690811783556040516000907f8be0079c531659141344cd1fd0a4f28419497f9722a3daafe3b4186f6b6457e0908290a35b620006106307f5828d60e41b60016200060862000614565b919062000644565b5050565b6000806200059360017fca9d3e17f264b0f3984e2634e94adb37fa3e6a8103f06aeae6fa59e21c769f5e620008c0565b600160e01b6001600160e01b031983160162000673576040516372c683bb60e01b815260040160405180910390fd5b6001600160e01b03199190911660009081526020929092526040909120805460ff1916911515919091179055565b80516001600160a01b0381168114620006b957600080fd5b919050565b805161ffff81168114620006b957600080fd5b634e487b7160e01b600052604160045260246000fd5b600082601f830112620006f957600080fd5b815160206001600160401b0380831115620007185762000718620006d1565b8260051b604051601f19603f83011681018181108482111715620007405762000740620006d1565b60405293845260208187018101949081019250878511156200076157600080fd5b6020870191505b84821015620007835781518352918301919083019062000768565b979650505050505050565b60008060008060008060008060008060006101608c8e031215620007b157600080fd5b620007bc8c620006a1565b9a50620007cc60208d01620006a1565b9950620007dc60408d01620006a1565b9850620007ec60608d01620006be565b975060808c0151965060a08c0151955060c08c0151945060e08c015160018060401b038111156200081c57600080fd5b6200082a8e828f01620006e7565b6101008e015190955090506001600160401b038111156200084a57600080fd5b620008588e828f01620006e7565b6101208e015190945090506001600160401b038111156200087857600080fd5b620008868e828f01620006e7565b925050620008986101408d01620006a1565b90509295989b509295989b9093969950565b634e487b7160e01b600052603260045260246000fd5b818103818111156200059357634e487b7160e01b600052601160045260246000fd5b60805160a05160c05160e05161010051610120516101405161016051610180516101a0516101c0516101e05161020051610220516102405161026051610280516102a05161223b62000a88600039600081816105e101526109a90152600081816105150152610a1c0152600081816107b40152610a8f015260008181610649015261097c01526000818161032201526109ef0152600081816103e40152610a6201526000818161041801526118ed0152600081816106d1015261191b01526000818161074c01526119480152600081816107e801526119750152600081816102ee0152611bfd01526000818161081c0152611b6901526000818161067d01526108c60152600081816107050152818161139901526114c60152600081816107800152818161136c0152611482015260008181610615015281816108eb01528181610dce01528181610ec1015281816111a40152818161160501526116c401526000818161085001528181610f7f0152818161103d01528181611780015261183e01526000818161038d0152818161047901528181611ddb0152611e63015261223b6000f3fe6080604052600436106102385760003560e01c806396a3804511610138578063c834c979116100b0578063dba535d71161007f578063ef59df2711610064578063ef59df271461083e578063f2fde38b14610872578063f53da97e1461089257600080fd5b8063dba535d7146107d6578063e36d82051461080a57600080fd5b8063c834c979146106f3578063c8767f2f1461073a578063cd4d1c641461076e578063d7f62163146107a257600080fd5b8063ae8384d011610107578063c002d23d116100ec578063c002d23d1461066b578063c2ba47441461069f578063c4823504146106bf57600080fd5b8063ae8384d014610603578063b68ba08b1461063757600080fd5b806396a38045146105625780639e56d9571461058f578063a0712d68146105af578063a0e5d770146105cf57600080fd5b80632d3ccf3f116101cb57806357e33a271161019a578063812042031161017f57806381204203146105035780638da5cb5b146105375780639659867e1461054c57600080fd5b806357e33a27146104b65780636dc407f9146104d657600080fd5b80632d3ccf3f146103d25780634210830d1461040657806351cff8d91461043a578063572b6c051461045c57600080fd5b80631a503037116102075780631a503037146102dc5780631d1f42ec146103105780631f64153b146103445780632b4c9f161461037e57600080fd5b806301ffc9a7146102445780630561942a14610279578063098772cc146102a357806318ab42c5146102c757600080fd5b3661023f57005b600080fd5b34801561025057600080fd5b5061026461025f366004611edf565b6108a7565b60405190151581526020015b60405180910390f35b34801561028557600080fd5b5061028e6108c1565b60408051928352602083019190915201610270565b3480156102af57600080fd5b506102b960015481565b604051908152602001610270565b3480156102d357600080fd5b506102b9600a81565b3480156102e857600080fd5b506102b97f000000000000000000000000000000000000000000000000000000000000000081565b34801561031c57600080fd5b506102b97f000000000000000000000000000000000000000000000000000000000000000081565b34801561035057600080fd5b50600154604080516fffffffffffffffffffffffffffffffff8316815260809290921c602083015201610270565b34801561038a57600080fd5b507f00000000000000000000000000000000000000000000000000000000000000005b60405173ffffffffffffffffffffffffffffffffffffffff9091168152602001610270565b3480156103de57600080fd5b506102b97f000000000000000000000000000000000000000000000000000000000000000081565b34801561041257600080fd5b506102b97f000000000000000000000000000000000000000000000000000000000000000081565b34801561044657600080fd5b5061045a610455366004611f21565b610ae1565b005b34801561046857600080fd5b50610264610477366004611f21565b7f000000000000000000000000000000000000000000000000000000000000000073ffffffffffffffffffffffffffffffffffffffff90811691161490565b3480156104c257600080fd5b5061045a6104d1366004611f21565b610ba1565b3480156104e257600080fd5b506102b96104f1366004611f21565b60036020526000908152604090205481565b34801561050f57600080fd5b506102b97f000000000000000000000000000000000000000000000000000000000000000081565b34801561054357600080fd5b506103ad610c43565b34801561055857600080fd5b506102b960025481565b34801561056e57600080fd5b506000546103ad9073ffffffffffffffffffffffffffffffffffffffff1681565b34801561059b57600080fd5b5061045a6105aa366004611f7c565b610c6f565b3480156105bb57600080fd5b5061045a6105ca366004611faf565b610cba565b3480156105db57600080fd5b506102b97f000000000000000000000000000000000000000000000000000000000000000081565b34801561060f57600080fd5b506103ad7f000000000000000000000000000000000000000000000000000000000000000081565b34801561064357600080fd5b506102b97f000000000000000000000000000000000000000000000000000000000000000081565b34801561067757600080fd5b506102b97f000000000000000000000000000000000000000000000000000000000000000081565b3480156106ab57600080fd5b506102646106ba366004611f21565b61159a565b3480156106cb57600080fd5b506102b97f000000000000000000000000000000000000000000000000000000000000000081565b3480156106ff57600080fd5b506107277f000000000000000000000000000000000000000000000000000000000000000081565b60405161ffff9091168152602001610270565b34801561074657600080fd5b506102b97f000000000000000000000000000000000000000000000000000000000000000081565b34801561077a57600080fd5b506103ad7f000000000000000000000000000000000000000000000000000000000000000081565b3480156107ae57600080fd5b506102b97f000000000000000000000000000000000000000000000000000000000000000081565b3480156107e257600080fd5b506102b97f000000000000000000000000000000000000000000000000000000000000000081565b34801561081657600080fd5b506102b97f000000000000000000000000000000000000000000000000000000000000000081565b34801561084a57600080fd5b506103ad7f000000000000000000000000000000000000000000000000000000000000000081565b34801561087e57600080fd5b5061045a61088d366004611f21565b6118cb565b34801561089e57600080fd5b506102b96118e9565b60006108bb826108b56119a6565b906119d4565b92915050565b6000807f0000000000000000000000000000000000000000000000000000000000000000915060007f000000000000000000000000000000000000000000000000000000000000000073ffffffffffffffffffffffffffffffffffffffff1663b5bd3eb96040518163ffffffff1660e01b8152600401602060405180830381865afa158015610954573d6000803e3d6000fd5b505050506040513d601f19601f820116820180604052508101906109789190611fc8565b90507f000000000000000000000000000000000000000000000000000000000000000081106109ed576127106109ce7f000000000000000000000000000000000000000000000000000000000000000082612010565b6109d89085612023565b6109e2919061203a565b925060039150610acf565b7f00000000000000000000000000000000000000000000000000000000000000008110610a6057612710610a417f000000000000000000000000000000000000000000000000000000000000000082612010565b610a4b9085612023565b610a55919061203a565b925060029150610acf565b7f00000000000000000000000000000000000000000000000000000000000000008110610acf57612710610ab47f000000000000000000000000000000000000000000000000000000000000000082612010565b610abe9085612023565b610ac8919061203a565b9250600191505b82600003610adc57600192505b509091565b610afa610aec611aae565b610af4611ab8565b90611ae6565b478015610b9d5760008273ffffffffffffffffffffffffffffffffffffffff168260405160006040518083038185875af1925050503d8060008114610b5b576040519150601f19603f3d011682016040523d82523d6000602084013e610b60565b606091505b5050905080610b9b576040517f90b8ec1800000000000000000000000000000000000000000000000000000000815260040160405180910390fd5b505b5050565b610bac610aec611aae565b60005473ffffffffffffffffffffffffffffffffffffffff1615610bfc576040517f5ccf468900000000000000000000000000000000000000000000000000000000815260040160405180910390fd5b600080547fffffffffffffffffffffffff00000000000000000000000000000000000000001673ffffffffffffffffffffffffffffffffffffffff92909216919091179055565b6000610c6a610c50611ab8565b5473ffffffffffffffffffffffffffffffffffffffff1690565b905090565b610c7a610aec611aae565b60801b7fffffffffffffffffffffffffffffffff00000000000000000000000000000000166fffffffffffffffffffffffffffffffff9190911617600155565b80600003610cf4576040517f445dc49e00000000000000000000000000000000000000000000000000000000815260040160405180910390fd5b600a811115610d2f576040517f8a0cd58100000000000000000000000000000000000000000000000000000000815260040160405180910390fd5b6000610d39611aae565b90506000610d456118e9565b905080600003610d81576040517f2d0a346e00000000000000000000000000000000000000000000000000000000815260040160405180910390fd5b80600103610e74576040517f508fc90500000000000000000000000000000000000000000000000000000000815273ffffffffffffffffffffffffffffffffffffffff83811660048301527f0000000000000000000000000000000000000000000000000000000000000000169063508fc90590602401602060405180830381865afa158015610e15573d6000803e3d6000fd5b505050506040513d601f19601f82011682018060405250810190610e399190612075565b610e6f576040517fdc460b7300000000000000000000000000000000000000000000000000000000815260040160405180910390fd5b61111a565b806002036110e0576040517f508fc90500000000000000000000000000000000000000000000000000000000815273ffffffffffffffffffffffffffffffffffffffff83811660048301527f0000000000000000000000000000000000000000000000000000000000000000169063508fc90590602401602060405180830381865afa158015610f08573d6000803e3d6000fd5b505050506040513d601f19601f82011682018060405250810190610f2c9190612075565b158015610feb57506040517efdd58e00000000000000000000000000000000000000000000000000000000815273ffffffffffffffffffffffffffffffffffffffff8381166004830152600160248301527f0000000000000000000000000000000000000000000000000000000000000000169062fdd58e90604401602060405180830381865afa158015610fc5573d6000803e3d6000fd5b505050506040513d601f19601f82011682018060405250810190610fe99190611fc8565b155b80156110a957506040517efdd58e00000000000000000000000000000000000000000000000000000000815273ffffffffffffffffffffffffffffffffffffffff8381166004830152600260248301527f0000000000000000000000000000000000000000000000000000000000000000169062fdd58e90604401602060405180830381865afa158015611083573d6000803e3d6000fd5b505050506040513d601f19601f820116820180604052508101906110a79190611fc8565b155b15610e6f576040517feca8f22000000000000000000000000000000000000000000000000000000000815260040160405180910390fd5b6003811461111a576040517f0bd8a3eb00000000000000000000000000000000000000000000000000000000815260040160405180910390fd5b60005473ffffffffffffffffffffffffffffffffffffffff168061116a576040517fb9281de400000000000000000000000000000000000000000000000000000000815260040160405180910390fd5b61117384611b56565b61117d8484611bc8565b6000806111886108c1565b909250905073ffffffffffffffffffffffffffffffffffffffff7f00000000000000000000000000000000000000000000000000000000000000001663af7d6ca3866111d48986612023565b6040517fffffffff0000000000000000000000000000000000000000000000000000000060e085901b16815273ffffffffffffffffffffffffffffffffffffffff90921660048301526024820152604401600060405180830381600087803b15801561123f57600080fd5b505af1158015611253573d6000803e3d6000fd5b50506040805173ffffffffffffffffffffffffffffffffffffffff891660208201528082018a90528151808203830181526060909101909152600180549193506fffffffffffffffffffffffffffffffff8216925060809190911c906000906112bc8b84612023565b6112c69085612097565b60405160f09290921b7fffff0000000000000000000000000000000000000000000000000000000000001660208301526022820152604201604080517fffffffffffffffffffffffffffffffffffffffffffffffffffffffffffffffe0818403018152908290527f40a7bb10000000000000000000000000000000000000000000000000000000008252915060009073ffffffffffffffffffffffffffffffffffffffff7f000000000000000000000000000000000000000000000000000000000000000016906340a7bb10906113c9907f0000000000000000000000000000000000000000000000000000000000000000908c908a908790899060040161210e565b6040805180830381865afa1580156113e5573d6000803e3d6000fd5b505050506040513d601f19601f82011682018060405250810190611409919061216d565b506040805160608b811b7fffffffffffffffffffffffffffffffffffffffff0000000000000000000000009081166020840152309182901b1660348301528251602881840301815260488301938490527fc5803100000000000000000000000000000000000000000000000000000000009093529293507f000000000000000000000000000000000000000000000000000000000000000073ffffffffffffffffffffffffffffffffffffffff169263c58031009285926114f7927f000000000000000000000000000000000000000000000000000000000000000092918c91906000908b90604c01612191565b6000604051808303818588803b15801561151057600080fd5b505af1158015611524573d6000803e3d6000fd5b50505050507f6b9646daf37cd2bfd6cf46c729da3ea690a73a6555404e5f0299e15a865ed3848a8c886040516115859392919073ffffffffffffffffffffffffffffffffffffffff9390931683526020830191909152604082015260600190565b60405180910390a15050505050505050505050565b6000806115a56118e9565b9050806000036115b85750600092915050565b80600103611677576040517f508fc90500000000000000000000000000000000000000000000000000000000815273ffffffffffffffffffffffffffffffffffffffff84811660048301527f0000000000000000000000000000000000000000000000000000000000000000169063508fc90590602401602060405180830381865afa15801561164c573d6000803e3d6000fd5b505050506040513d601f19601f820116820180604052508101906116709190612075565b9392505050565b806002036118b1576040517f508fc90500000000000000000000000000000000000000000000000000000000815273ffffffffffffffffffffffffffffffffffffffff84811660048301527f0000000000000000000000000000000000000000000000000000000000000000169063508fc90590602401602060405180830381865afa15801561170b573d6000803e3d6000fd5b505050506040513d601f19601f8201168201806040525081019061172f9190612075565b806117ed57506040517efdd58e00000000000000000000000000000000000000000000000000000000815273ffffffffffffffffffffffffffffffffffffffff8481166004830152600160248301527f0000000000000000000000000000000000000000000000000000000000000000169062fdd58e90604401602060405180830381865afa1580156117c6573d6000803e3d6000fd5b505050506040513d601f19601f820116820180604052508101906117ea9190611fc8565b15155b8061167057506040517efdd58e00000000000000000000000000000000000000000000000000000000815273ffffffffffffffffffffffffffffffffffffffff8481166004830152600260248301527f0000000000000000000000000000000000000000000000000000000000000000169062fdd58e90604401602060405180830381865afa158015611884573d6000803e3d6000fd5b505050506040513d601f19601f820116820180604052508101906118a89190611fc8565b15159392505050565b806003036118c25750600192915050565b50600092915050565b6118e66118d6611aae565b826118df611ab8565b9190611c83565b50565b60007f00000000000000000000000000000000000000000000000000000000000000004211156119195750600490565b7f000000000000000000000000000000000000000000000000000000000000000042106119465750600390565b7f000000000000000000000000000000000000000000000000000000000000000042106119735750600290565b7f000000000000000000000000000000000000000000000000000000000000000042106119a05750600190565b50600090565b6000806108bb60017fca9d3e17f264b0f3984e2634e94adb37fa3e6a8103f06aeae6fa59e21c769f5e612010565b60007c01000000000000000000000000000000000000000000000000000000007fffffffff00000000000000000000000000000000000000000000000000000000831601611a24575060006108bb565b7ffe003659000000000000000000000000000000000000000000000000000000007fffffffff00000000000000000000000000000000000000000000000000000000831601611a75575060016108bb565b507fffffffff00000000000000000000000000000000000000000000000000000000166000908152602091909152604090205460ff1690565b6000610c6a611d98565b6000806108bb60017fc9ed16f33ab3a66c84bfd83099ccb2a8845871e2e1c1928f63797152f0fd54cd612010565b815473ffffffffffffffffffffffffffffffffffffffff828116911614610b9d576040517f2ef4875e00000000000000000000000000000000000000000000000000000000815273ffffffffffffffffffffffffffffffffffffffff821660048201526024015b60405180910390fd5b6002546000611b658383612097565b90507f0000000000000000000000000000000000000000000000000000000000000000811115611bc1576040517f7b838b0200000000000000000000000000000000000000000000000000000000815260040160405180910390fd5b6002555050565b73ffffffffffffffffffffffffffffffffffffffff811660009081526003602052604081205490611bf98483612097565b90507f0000000000000000000000000000000000000000000000000000000000000000811115611c55576040517f5cc9ef7100000000000000000000000000000000000000000000000000000000815260040160405180910390fd5b73ffffffffffffffffffffffffffffffffffffffff9092166000908152600360205260409020919091555050565b825473ffffffffffffffffffffffffffffffffffffffff9081169083168114611cf0576040517f2ef4875e00000000000000000000000000000000000000000000000000000000815273ffffffffffffffffffffffffffffffffffffffff84166004820152602401611b4d565b8173ffffffffffffffffffffffffffffffffffffffff168173ffffffffffffffffffffffffffffffffffffffff1614611d925783547fffffffffffffffffffffffff00000000000000000000000000000000000000001673ffffffffffffffffffffffffffffffffffffffff8381169182178655604051908316907f8be0079c531659141344cd1fd0a4f28419497f9722a3daafe3b4186f6b6457e090600090a35b50505050565b600033321480611da85750601836105b15611db257503390565b7fffffffffffffffffffffffffffffffffffffffffffffffffffffffffffffffec36013560601c7f000000000000000000000000000000000000000000000000000000000000000073ffffffffffffffffffffffffffffffffffffffff16331480611ece57506040517f8929a8ca00000000000000000000000000000000000000000000000000000000815273ffffffffffffffffffffffffffffffffffffffff82811660048301523360248301527f00000000000000000000000000000000000000000000000000000000000000001690638929a8ca90604401602060405180830381865afa158015611eaa573d6000803e3d6000fd5b505050506040513d601f19601f82011682018060405250810190611ece9190612075565b15611ed857919050565b3391505090565b600060208284031215611ef157600080fd5b81357fffffffff000000000000000000000000000000000000000000000000000000008116811461167057600080fd5b600060208284031215611f3357600080fd5b813573ffffffffffffffffffffffffffffffffffffffff8116811461167057600080fd5b80356fffffffffffffffffffffffffffffffff81168114611f7757600080fd5b919050565b60008060408385031215611f8f57600080fd5b611f9883611f57565b9150611fa660208401611f57565b90509250929050565b600060208284031215611fc157600080fd5b5035919050565b600060208284031215611fda57600080fd5b5051919050565b7f4e487b7100000000000000000000000000000000000000000000000000000000600052601160045260246000fd5b818103818111156108bb576108bb611fe1565b80820281158282048414176108bb576108bb611fe1565b600082612070577f4e487b7100000000000000000000000000000000000000000000000000000000600052601260045260246000fd5b500490565b60006020828403121561208757600080fd5b8151801515811461167057600080fd5b808201808211156108bb576108bb611fe1565b6000815180845260005b818110156120d0576020818501810151868301820152016120b4565b5060006020828601015260207fffffffffffffffffffffffffffffffffffffffffffffffffffffffffffffffe0601f83011685010191505092915050565b61ffff8616815273ffffffffffffffffffffffffffffffffffffffff8516602082015260a06040820152600061214760a08301866120aa565b8415156060840152828103608084015261216181856120aa565b98975050505050505050565b6000806040838503121561218057600080fd5b505080516020909101519092909150565b61ffff8716815260c0602082015260006121ae60c08301886120aa565b82810360408401526121c081886120aa565b73ffffffffffffffffffffffffffffffffffffffff87811660608601528616608085015283810360a085015290506121f881856120aa565b999850505050505050505056fea2646970667358221220df80b6200376168b6c9f30fabc8e925a1caa5185b2eab9a1204629186ab1714e64736f6c63430008160033",
  "linkReferences": {},
  "deployedLinkReferences": {}
}