{
  "_format": "hh-sol-artifact-1",
  "contractName": "LzEndpointMock",
  "sourceName": "contracts/mocks/lz/LzEndpointMock.sol",
  "abi": [
    {
      "inputs": [
        {
          "internalType": "uint16",
          "name": "lzSrcChainId",
          "type": "uint16"
        }
      ],
      "stateMutability": "nonpayable",
      "type": "constructor"
    },
    {
      "inputs": [],
      "name": "LZ_SRC_CHAINID",
      "outputs": [
        {
          "internalType": "uint16",
          "name": "",
          "type": "uint16"
        }
      ],
      "stateMutability": "view",
      "type": "function"
    },
    {
      "inputs": [],
      "name": "destination",
      "outputs": [
        {
          "internalType": "bytes",
          "name": "",
          "type": "bytes"
        }
      ],
      "stateMutability": "view",
      "type": "function"
    },
    {
      "inputs": [
        {
          "internalType": "uint16",
          "name": "",
          "type": "uint16"
        },
        {
          "internalType": "address",
          "name": "",
          "type": "address"
        },
        {
          "internalType": "bytes",
          "name": "",
          "type": "bytes"
        },
        {
          "internalType": "bool",
          "name": "",
          "type": "bool"
        },
        {
          "internalType": "bytes",
          "name": "",
          "type": "bytes"
        }
      ],
      "name": "estimateFees",
      "outputs": [
        {
          "internalType": "uint256",
          "name": "",
          "type": "uint256"
        },
        {
          "internalType": "uint256",
          "name": "",
          "type": "uint256"
        }
      ],
      "stateMutability": "pure",
      "type": "function"
    },
    {
      "inputs": [],
      "name": "payload",
      "outputs": [
        {
          "internalType": "bytes",
          "name": "",
          "type": "bytes"
        }
      ],
      "stateMutability": "view",
      "type": "function"
    },
    {
      "inputs": [],
      "name": "process",
      "outputs": [],
      "stateMutability": "nonpayable",
      "type": "function"
    },
    {
      "inputs": [
        {
          "internalType": "uint16",
          "name": "",
          "type": "uint16"
        },
        {
          "internalType": "bytes",
          "name": "destination_",
          "type": "bytes"
        },
        {
          "internalType": "bytes",
          "name": "payload_",
          "type": "bytes"
        },
        {
          "internalType": "address payable",
          "name": "",
          "type": "address"
        },
        {
          "internalType": "address",
          "name": "",
          "type": "address"
        },
        {
          "internalType": "bytes",
          "name": "",
          "type": "bytes"
        }
      ],
      "name": "send",
      "outputs": [],
      "stateMutability": "payable",
      "type": "function"
    }
  ],
  "bytecode": "0x60a060405234801561001057600080fd5b50604051610aff380380610aff83398101604081905261002f9161003b565b61ffff16608052610066565b60006020828403121561004d57600080fd5b815161ffff8116811461005f57600080fd5b9392505050565b608051610a786100876000396000818160e201526102ce0152610a786000f3fe6080604052600436106100655760003560e01c8063b269681d11610043578063b269681d14610117578063c33fb8771461012c578063c58031001461014357600080fd5b806340a7bb101461006a578063a878f858146100ae578063af536c3f146100d0575b600080fd5b34801561007657600080fd5b506100946100853660046103e9565b60648097509795505050505050565b604080519283526020830191909152015b60405180910390f35b3480156100ba57600080fd5b506100c3610156565b6040516100a59190610496565b3480156100dc57600080fd5b506101047f000000000000000000000000000000000000000000000000000000000000000081565b60405161ffff90911681526020016100a5565b34801561012357600080fd5b506100c36101e4565b34801561013857600080fd5b506101416101f1565b005b610141610151366004610531565b610334565b600180546101639061068a565b80601f016020809104026020016040519081016040528092919081815260200182805461018f9061068a565b80156101dc5780601f106101b1576101008083540402835291602001916101dc565b820191906000526020600020905b8154815290600101906020018083116101bf57829003601f168201915b505050505081565b600080546101639061068a565b60008080546101ff9061068a565b80601f016020809104026020016040519081016040528092919081815260200182805461022b9061068a565b80156102785780601f1061024d57610100808354040283529160200191610278565b820191906000526020600020905b81548152906001019060200180831161025b57829003601f168201915b50505060148301516040517e1d35670000000000000000000000000000000000000000000000000000000081529394509273ffffffffffffffffffffffffffffffffffffffff84169250621d356791506102fe907f0000000000000000000000000000000000000000000000000000000000000000906000908190600190600401610778565b600060405180830381600087803b15801561031857600080fd5b505af115801561032c573d6000803e3d6000fd5b505050505050565b6000610340888261080d565b50600161034e868883610927565b505050505050505050565b803561ffff8116811461036b57600080fd5b919050565b73ffffffffffffffffffffffffffffffffffffffff8116811461039257600080fd5b50565b803561036b81610370565b60008083601f8401126103b257600080fd5b50813567ffffffffffffffff8111156103ca57600080fd5b6020830191508360208285010111156103e257600080fd5b9250929050565b600080600080600080600060a0888a03121561040457600080fd5b61040d88610359565b9650602088013561041d81610370565b9550604088013567ffffffffffffffff8082111561043a57600080fd5b6104468b838c016103a0565b909750955060608a01359150811515821461046057600080fd5b9093506080890135908082111561047657600080fd5b506104838a828b016103a0565b989b979a50959850939692959293505050565b600060208083528351808285015260005b818110156104c3578581018301518582016040015282016104a7565b5060006040828601015260407fffffffffffffffffffffffffffffffffffffffffffffffffffffffffffffffe0601f8301168501019250505092915050565b7f4e487b7100000000000000000000000000000000000000000000000000000000600052604160045260246000fd5b60008060008060008060008060c0898b03121561054d57600080fd5b61055689610359565b9750602089013567ffffffffffffffff8082111561057357600080fd5b818b0191508b601f83011261058757600080fd5b81358181111561059957610599610502565b604051601f82017fffffffffffffffffffffffffffffffffffffffffffffffffffffffffffffffe0908116603f011681019083821181831017156105df576105df610502565b816040528281528e60208487010111156105f857600080fd5b82602086016020830137600060208483010152809b5050505060408b013591508082111561062557600080fd5b6106318c838d016103a0565b909850965086915061064560608c01610395565b955061065360808c01610395565b945060a08b013591508082111561066957600080fd5b506106768b828c016103a0565b999c989b5096995094979396929594505050565b600181811c9082168061069e57607f821691505b6020821081036106d7577f4e487b7100000000000000000000000000000000000000000000000000000000600052602260045260246000fd5b50919050565b600081546106ea8161068a565b808552602060018381168015610707576001811461073f5761076d565b7fffffffffffffffffffffffffffffffffffffffffffffffffffffffffffffff008516838901528284151560051b890101955061076d565b866000528260002060005b858110156107655781548a820186015290830190840161074a565b890184019650505b505050505092915050565b61ffff8516815260806020820152600061079560808301866106dd565b67ffffffffffffffff8516604084015282810360608401526107b781856106dd565b979650505050505050565b601f82111561080857600081815260208120601f850160051c810160208610156107e95750805b601f850160051c820191505b8181101561032c578281556001016107f5565b505050565b815167ffffffffffffffff81111561082757610827610502565b61083b81610835845461068a565b846107c2565b602080601f83116001811461088e57600084156108585750858301515b7fffffffffffffffffffffffffffffffffffffffffffffffffffffffffffffffff600386901b1c1916600185901b17855561032c565b6000858152602081207fffffffffffffffffffffffffffffffffffffffffffffffffffffffffffffffe08616915b828110156108db578886015182559484019460019091019084016108bc565b508582101561091757878501517fffffffffffffffffffffffffffffffffffffffffffffffffffffffffffffffff600388901b60f8161c191681555b5050505050600190811b01905550565b67ffffffffffffffff83111561093f5761093f610502565b6109538361094d835461068a565b836107c2565b6000601f8411600181146109a5576000851561096f5750838201355b7fffffffffffffffffffffffffffffffffffffffffffffffffffffffffffffffff600387901b1c1916600186901b178355610a3b565b6000838152602090207fffffffffffffffffffffffffffffffffffffffffffffffffffffffffffffffe0861690835b828110156109f457868501358255602094850194600190920191016109d4565b5086821015610a2f577fffffffffffffffffffffffffffffffffffffffffffffffffffffffffffffffff60f88860031b161c19848701351681555b505060018560011b0183555b505050505056fea2646970667358221220ba5613ecf3057e07ed8ec345b1c499a8a4803d53028b28a6110bfb7565a6494a64736f6c63430008150033",
  "linkReferences": {},
  "deployedLinkReferences": {}
}