{
  "_format": "hh-sol-artifact-1",
  "contractName": "LzEndpointMock",
  "sourceName": "contracts/mocks/lz/LzEndpointMock.sol",
  "abi": [
    {
      "anonymous": false,
      "inputs": [
        {
          "indexed": false,
          "internalType": "uint16",
          "name": "srcChainId",
          "type": "uint16"
        },
        {
          "indexed": false,
          "internalType": "bytes",
          "name": "srcAddress",
          "type": "bytes"
        }
      ],
      "name": "ForceResume",
      "type": "event"
    },
    {
      "anonymous": false,
      "inputs": [
        {
          "indexed": false,
          "internalType": "uint16",
          "name": "dstChainId",
          "type": "uint16"
        },
        {
          "indexed": false,
          "internalType": "address",
          "name": "srcAddress",
          "type": "address"
        },
        {
          "indexed": false,
          "internalType": "address",
          "name": "dstAddress",
          "type": "address"
        },
        {
          "indexed": false,
          "internalType": "bytes",
          "name": "payload",
          "type": "bytes"
        },
        {
          "indexed": false,
          "internalType": "address payable",
          "name": "refundAddress",
          "type": "address"
        },
        {
          "indexed": false,
          "internalType": "address",
          "name": "zroPaymentAddress",
          "type": "address"
        },
        {
          "indexed": false,
          "internalType": "bytes",
          "name": "adapterParams",
          "type": "bytes"
        }
      ],
      "name": "LzSent",
      "type": "event"
    },
    {
      "anonymous": false,
      "inputs": [
        {
          "indexed": false,
          "internalType": "uint16",
          "name": "srcChainId",
          "type": "uint16"
        },
        {
          "indexed": false,
          "internalType": "bytes",
          "name": "srcAddress",
          "type": "bytes"
        },
        {
          "indexed": false,
          "internalType": "bytes",
          "name": "payload",
          "type": "bytes"
        }
      ],
      "name": "PayloadRetry",
      "type": "event"
    },
    {
      "inputs": [
        {
          "internalType": "uint16",
          "name": "srcChainId",
          "type": "uint16"
        },
        {
          "internalType": "address",
          "name": "srcAddress",
          "type": "address"
        },
        {
          "internalType": "address",
          "name": "dstAddress",
          "type": "address"
        },
        {
          "internalType": "bytes",
          "name": "payload",
          "type": "bytes"
        }
      ],
      "name": "callLzReceive",
      "outputs": [],
      "stateMutability": "nonpayable",
      "type": "function"
    },
    {
      "inputs": [
        {
          "internalType": "uint16",
          "name": "",
          "type": "uint16"
        },
        {
          "internalType": "address",
          "name": "",
          "type": "address"
        },
        {
          "internalType": "bytes",
          "name": "",
          "type": "bytes"
        },
        {
          "internalType": "bool",
          "name": "",
          "type": "bool"
        },
        {
          "internalType": "bytes",
          "name": "",
          "type": "bytes"
        }
      ],
      "name": "estimateFees",
      "outputs": [
        {
          "internalType": "uint256",
          "name": "",
          "type": "uint256"
        },
        {
          "internalType": "uint256",
          "name": "",
          "type": "uint256"
        }
      ],
      "stateMutability": "pure",
      "type": "function"
    },
    {
      "inputs": [
        {
          "internalType": "uint16",
          "name": "srcChainId",
          "type": "uint16"
        },
        {
          "internalType": "bytes",
          "name": "srcAddress",
          "type": "bytes"
        }
      ],
      "name": "forceResumeReceive",
      "outputs": [],
      "stateMutability": "nonpayable",
      "type": "function"
    },
    {
      "inputs": [
        {
          "internalType": "uint16",
          "name": "srcChainId",
          "type": "uint16"
        },
        {
          "internalType": "bytes",
          "name": "srcAddress",
          "type": "bytes"
        },
        {
          "internalType": "bytes",
          "name": "payload",
          "type": "bytes"
        }
      ],
      "name": "retryPayload",
      "outputs": [],
      "stateMutability": "nonpayable",
      "type": "function"
    },
    {
      "inputs": [
        {
          "internalType": "uint16",
          "name": "dstChainId",
          "type": "uint16"
        },
        {
          "internalType": "bytes",
          "name": "destination_",
          "type": "bytes"
        },
        {
          "internalType": "bytes",
          "name": "payload_",
          "type": "bytes"
        },
        {
          "internalType": "address payable",
          "name": "refundAddress",
          "type": "address"
        },
        {
          "internalType": "address",
          "name": "zroPaymentAddress",
          "type": "address"
        },
        {
          "internalType": "bytes",
          "name": "adapterParams",
          "type": "bytes"
        }
      ],
      "name": "send",
      "outputs": [],
      "stateMutability": "payable",
      "type": "function"
    }
  ],
  "bytecode": "0x608060405234801561001057600080fd5b5061097f806100206000396000f3fe60806040526004361061005a5760003560e01c806342d65a8d1161004357806342d65a8d146100c4578063aaff5f16146100e4578063c58031001461010457600080fd5b8063299f86481461005f57806340a7bb1014610081575b600080fd5b34801561006b57600080fd5b5061007f61007a36600461041c565b610117565b005b34801561008d57600080fd5b506100ab61009c3660046104d8565b60648097509795505050505050565b6040805192835260208301919091520160405180910390f35b3480156100d057600080fd5b5061007f6100df366004610585565b610214565b3480156100f057600080fd5b5061007f6100ff3660046105d8565b610254565b61007f610112366004610659565b61029a565b6040517fffffffffffffffffffffffffffffffffffffffff000000000000000000000000606085811b8216602084015284901b166034820152600090604801604080517fffffffffffffffffffffffffffffffffffffffffffffffffffffffffffffffe0818403018152908290527e1d3567000000000000000000000000000000000000000000000000000000008252915073ffffffffffffffffffffffffffffffffffffffff841690621d3567906101db9088908590600090889060040161078b565b600060405180830381600087803b1580156101f557600080fd5b505af1158015610209573d6000803e3d6000fd5b505050505050505050565b7fc68c822d00d40d73b9aaa27691c3871b5a7e5f794314ce27f9398f786316ee8b8383836040516102479392919061081e565b60405180910390a1505050565b7f1a6d7026c337b7297df70656aeca7f9a4720ada04b26206212862f3c6c7e97ed858585858560405161028b959493929190610845565b60405180910390a15050505050565b60006102a588610882565b60601c90506000602889015190507f9a81b7ab85bb0318062b4fbb2d24616f1ce2b5459f3b7578e9f0e266d3f032d78a82848b8b8b8b8b8b6040516102f2999897969594939291906108d2565b60405180910390a150505050505050505050565b803561ffff8116811461031857600080fd5b919050565b73ffffffffffffffffffffffffffffffffffffffff8116811461033f57600080fd5b50565b7f4e487b7100000000000000000000000000000000000000000000000000000000600052604160045260246000fd5b600082601f83011261038257600080fd5b813567ffffffffffffffff8082111561039d5761039d610342565b604051601f83017fffffffffffffffffffffffffffffffffffffffffffffffffffffffffffffffe0908116603f011681019082821181831017156103e3576103e3610342565b816040528381528660208588010111156103fc57600080fd5b836020870160208301376000602085830101528094505050505092915050565b6000806000806080858703121561043257600080fd5b61043b85610306565b9350602085013561044b8161031d565b9250604085013561045b8161031d565b9150606085013567ffffffffffffffff81111561047757600080fd5b61048387828801610371565b91505092959194509250565b60008083601f8401126104a157600080fd5b50813567ffffffffffffffff8111156104b957600080fd5b6020830191508360208285010111156104d157600080fd5b9250929050565b600080600080600080600060a0888a0312156104f357600080fd5b6104fc88610306565b9650602088013561050c8161031d565b9550604088013567ffffffffffffffff8082111561052957600080fd5b6105358b838c0161048f565b909750955060608a01359150811515821461054f57600080fd5b9093506080890135908082111561056557600080fd5b506105728a828b0161048f565b989b979a50959850939692959293505050565b60008060006040848603121561059a57600080fd5b6105a384610306565b9250602084013567ffffffffffffffff8111156105bf57600080fd5b6105cb8682870161048f565b9497909650939450505050565b6000806000806000606086880312156105f057600080fd5b6105f986610306565b9450602086013567ffffffffffffffff8082111561061657600080fd5b61062289838a0161048f565b9096509450604088013591508082111561063b57600080fd5b506106488882890161048f565b969995985093965092949392505050565b60008060008060008060008060c0898b03121561067557600080fd5b61067e89610306565b9750602089013567ffffffffffffffff8082111561069b57600080fd5b6106a78c838d01610371565b985060408b01359150808211156106bd57600080fd5b6106c98c838d0161048f565b909850965060608b013591506106de8261031d565b90945060808a0135906106f08261031d565b90935060a08a0135908082111561070657600080fd5b506107138b828c0161048f565b999c989b5096995094979396929594505050565b6000815180845260005b8181101561074d57602081850181015186830182015201610731565b5060006020828601015260207fffffffffffffffffffffffffffffffffffffffffffffffffffffffffffffffe0601f83011685010191505092915050565b61ffff851681526080602082015260006107a86080830186610727565b67ffffffffffffffff8516604084015282810360608401526107ca8185610727565b979650505050505050565b8183528181602085013750600060208284010152600060207fffffffffffffffffffffffffffffffffffffffffffffffffffffffffffffffe0601f840116840101905092915050565b61ffff8416815260406020820152600061083c6040830184866107d5565b95945050505050565b61ffff861681526060602082015260006108636060830186886107d5565b82810360408401526108768185876107d5565b98975050505050505050565b6000815160208301517fffffffffffffffffffffffffffffffffffffffff000000000000000000000000808216935060148310156108ca5780818460140360031b1b83161693505b505050919050565b61ffff8a168152600073ffffffffffffffffffffffffffffffffffffffff808b166020840152808a16604084015260e0606084015261091560e08401898b6107d5565b818816608085015281871660a085015283810360c08501526109388186886107d5565b9d9c5050505050505050505050505056fea26469706673582212203617c350b0f32b0c2b6472fa631eabf1e44dd7b0143509d3bbe2222e2785962b64736f6c63430008160033",
  "linkReferences": {},
  "deployedLinkReferences": {}
}