{
  "_format": "hh-sol-artifact-1",
  "contractName": "LzEndpointMock",
  "sourceName": "contracts/mocks/lz/LzEndpointMock.sol",
  "abi": [
    {
      "anonymous": false,
      "inputs": [
        {
          "indexed": false,
          "internalType": "uint16",
          "name": "dstChainId",
          "type": "uint16"
        },
        {
          "indexed": false,
          "internalType": "address",
          "name": "srcAddress",
          "type": "address"
        },
        {
          "indexed": false,
          "internalType": "address",
          "name": "dstAddress",
          "type": "address"
        },
        {
          "indexed": false,
          "internalType": "bytes",
          "name": "payload",
          "type": "bytes"
        },
        {
          "indexed": false,
          "internalType": "address payable",
          "name": "refundAddress",
          "type": "address"
        },
        {
          "indexed": false,
          "internalType": "address",
          "name": "zroPaymentAddress",
          "type": "address"
        },
        {
          "indexed": false,
          "internalType": "bytes",
          "name": "adapterParams",
          "type": "bytes"
        }
      ],
      "name": "LzSent",
      "type": "event"
    },
    {
      "inputs": [
        {
          "internalType": "uint16",
          "name": "srcChainId",
          "type": "uint16"
        },
        {
          "internalType": "address",
          "name": "srcAddress",
          "type": "address"
        },
        {
          "internalType": "address",
          "name": "dstAddress",
          "type": "address"
        },
        {
          "internalType": "bytes",
          "name": "payload",
          "type": "bytes"
        }
      ],
      "name": "callLzReceive",
      "outputs": [],
      "stateMutability": "nonpayable",
      "type": "function"
    },
    {
      "inputs": [
        {
          "internalType": "uint16",
          "name": "",
          "type": "uint16"
        },
        {
          "internalType": "address",
          "name": "",
          "type": "address"
        },
        {
          "internalType": "bytes",
          "name": "",
          "type": "bytes"
        },
        {
          "internalType": "bool",
          "name": "",
          "type": "bool"
        },
        {
          "internalType": "bytes",
          "name": "",
          "type": "bytes"
        }
      ],
      "name": "estimateFees",
      "outputs": [
        {
          "internalType": "uint256",
          "name": "",
          "type": "uint256"
        },
        {
          "internalType": "uint256",
          "name": "",
          "type": "uint256"
        }
      ],
      "stateMutability": "pure",
      "type": "function"
    },
    {
      "inputs": [
        {
          "internalType": "uint16",
          "name": "dstChainId",
          "type": "uint16"
        },
        {
          "internalType": "bytes",
          "name": "destination_",
          "type": "bytes"
        },
        {
          "internalType": "bytes",
          "name": "payload_",
          "type": "bytes"
        },
        {
          "internalType": "address payable",
          "name": "refundAddress",
          "type": "address"
        },
        {
          "internalType": "address",
          "name": "zroPaymentAddress",
          "type": "address"
        },
        {
          "internalType": "bytes",
          "name": "adapterParams",
          "type": "bytes"
        }
      ],
      "name": "send",
      "outputs": [],
      "stateMutability": "payable",
      "type": "function"
    }
  ],
  "bytecode": "0x608060405234801561001057600080fd5b5061075b806100206000396000f3fe6080604052600436106100345760003560e01c8063299f86481461003957806340a7bb101461005b578063c58031001461009e575b600080fd5b34801561004557600080fd5b50610059610054366004610330565b6100b1565b005b34801561006757600080fd5b506100856100763660046103ec565b60648097509795505050505050565b6040805192835260208301919091520160405180910390f35b6100596100ac366004610499565b6101ae565b6040517fffffffffffffffffffffffffffffffffffffffff000000000000000000000000606085811b8216602084015284901b166034820152600090604801604080517fffffffffffffffffffffffffffffffffffffffffffffffffffffffffffffffe0818403018152908290527e1d3567000000000000000000000000000000000000000000000000000000008252915073ffffffffffffffffffffffffffffffffffffffff841690621d356790610175908890859060009088906004016105cb565b600060405180830381600087803b15801561018f57600080fd5b505af11580156101a3573d6000803e3d6000fd5b505050505050505050565b60006101b988610615565b60601c90506000602889015190507f9a81b7ab85bb0318062b4fbb2d24616f1ce2b5459f3b7578e9f0e266d3f032d78a82848b8b8b8b8b8b604051610206999897969594939291906106ae565b60405180910390a150505050505050505050565b803561ffff8116811461022c57600080fd5b919050565b73ffffffffffffffffffffffffffffffffffffffff8116811461025357600080fd5b50565b7f4e487b7100000000000000000000000000000000000000000000000000000000600052604160045260246000fd5b600082601f83011261029657600080fd5b813567ffffffffffffffff808211156102b1576102b1610256565b604051601f83017fffffffffffffffffffffffffffffffffffffffffffffffffffffffffffffffe0908116603f011681019082821181831017156102f7576102f7610256565b8160405283815286602085880101111561031057600080fd5b836020870160208301376000602085830101528094505050505092915050565b6000806000806080858703121561034657600080fd5b61034f8561021a565b9350602085013561035f81610231565b9250604085013561036f81610231565b9150606085013567ffffffffffffffff81111561038b57600080fd5b61039787828801610285565b91505092959194509250565b60008083601f8401126103b557600080fd5b50813567ffffffffffffffff8111156103cd57600080fd5b6020830191508360208285010111156103e557600080fd5b9250929050565b600080600080600080600060a0888a03121561040757600080fd5b6104108861021a565b9650602088013561042081610231565b9550604088013567ffffffffffffffff8082111561043d57600080fd5b6104498b838c016103a3565b909750955060608a01359150811515821461046357600080fd5b9093506080890135908082111561047957600080fd5b506104868a828b016103a3565b989b979a50959850939692959293505050565b60008060008060008060008060c0898b0312156104b557600080fd5b6104be8961021a565b9750602089013567ffffffffffffffff808211156104db57600080fd5b6104e78c838d01610285565b985060408b01359150808211156104fd57600080fd5b6105098c838d016103a3565b909850965060608b0135915061051e82610231565b90945060808a01359061053082610231565b90935060a08a0135908082111561054657600080fd5b506105538b828c016103a3565b999c989b5096995094979396929594505050565b6000815180845260005b8181101561058d57602081850181015186830182015201610571565b5060006020828601015260207fffffffffffffffffffffffffffffffffffffffffffffffffffffffffffffffe0601f83011685010191505092915050565b61ffff851681526080602082015260006105e86080830186610567565b67ffffffffffffffff85166040840152828103606084015261060a8185610567565b979650505050505050565b6000815160208301517fffffffffffffffffffffffffffffffffffffffff0000000000000000000000008082169350601483101561065d5780818460140360031b1b83161693505b505050919050565b8183528181602085013750600060208284010152600060207fffffffffffffffffffffffffffffffffffffffffffffffffffffffffffffffe0601f840116840101905092915050565b61ffff8a168152600073ffffffffffffffffffffffffffffffffffffffff808b166020840152808a16604084015260e060608401526106f160e08401898b610665565b818816608085015281871660a085015283810360c0850152610714818688610665565b9d9c5050505050505050505050505056fea2646970667358221220736c17d854a6b5fced70fc5c7603ac3b1330b47d4c2a7b58ef9a4c698b25f7c064736f6c63430008150033",
  "linkReferences": {},
  "deployedLinkReferences": {}
}