{
  "_format": "hh-sol-artifact-1",
  "contractName": "PublisherNFTMinter",
  "sourceName": "contracts/sale/PublisherNFTMinter.sol",
  "abi": [
    {
      "inputs": [
        {
          "internalType": "contract IERC721Mintable",
          "name": "publisherNFT",
          "type": "address"
        },
        {
          "internalType": "contract ILayerZeroEndpoint",
          "name": "lzEndpoint",
          "type": "address"
        },
        {
          "internalType": "uint16",
          "name": "lzSrcChainId",
          "type": "uint16"
        },
        {
          "internalType": "address",
          "name": "lzSrcAddress",
          "type": "address"
        },
        {
          "internalType": "uint256",
          "name": "mintSupplyLimit",
          "type": "uint256"
        }
      ],
      "stateMutability": "nonpayable",
      "type": "constructor"
    },
    {
      "inputs": [
        {
          "internalType": "address",
          "name": "srcAddress",
          "type": "address"
        }
      ],
      "name": "IncorrectSrcAddress",
      "type": "error"
    },
    {
      "inputs": [
        {
          "internalType": "uint16",
          "name": "srcChainId",
          "type": "uint16"
        }
      ],
      "name": "IncorrectSrcChainId",
      "type": "error"
    },
    {
      "inputs": [],
      "name": "InsufficientMintSupply",
      "type": "error"
    },
    {
      "inputs": [
        {
          "internalType": "address",
          "name": "sender",
          "type": "address"
        }
      ],
      "name": "UnauthorizedSender",
      "type": "error"
    },
    {
      "inputs": [],
      "name": "LZ_ENDPOINT",
      "outputs": [
        {
          "internalType": "contract ILayerZeroEndpoint",
          "name": "",
          "type": "address"
        }
      ],
      "stateMutability": "view",
      "type": "function"
    },
    {
      "inputs": [],
      "name": "LZ_SRC_ADDRESS",
      "outputs": [
        {
          "internalType": "address",
          "name": "",
          "type": "address"
        }
      ],
      "stateMutability": "view",
      "type": "function"
    },
    {
      "inputs": [],
      "name": "LZ_SRC_CHAINID",
      "outputs": [
        {
          "internalType": "uint16",
          "name": "",
          "type": "uint16"
        }
      ],
      "stateMutability": "view",
      "type": "function"
    },
    {
      "inputs": [],
      "name": "MINT_SUPPLY_LIMIT",
      "outputs": [
        {
          "internalType": "uint256",
          "name": "",
          "type": "uint256"
        }
      ],
      "stateMutability": "view",
      "type": "function"
    },
    {
      "inputs": [],
      "name": "PUBLISHER_NFT",
      "outputs": [
        {
          "internalType": "contract IERC721Mintable",
          "name": "",
          "type": "address"
        }
      ],
      "stateMutability": "view",
      "type": "function"
    },
    {
      "inputs": [
        {
          "internalType": "uint16",
          "name": "srcChainId",
          "type": "uint16"
        },
        {
          "internalType": "bytes",
          "name": "destination",
          "type": "bytes"
        },
        {
          "internalType": "uint64",
          "name": "",
          "type": "uint64"
        },
        {
          "internalType": "bytes",
          "name": "payload",
          "type": "bytes"
        }
      ],
      "name": "lzReceive",
      "outputs": [],
      "stateMutability": "nonpayable",
      "type": "function"
    },
    {
      "inputs": [],
      "name": "mintCount",
      "outputs": [
        {
          "internalType": "uint256",
          "name": "",
          "type": "uint256"
        }
      ],
      "stateMutability": "view",
      "type": "function"
    }
  ],
  "bytecode": "0x61012060405234801561001157600080fd5b5060405161098038038061098083398101604081905261003091610074565b6001600160a01b0394851660805292841660a05261ffff90911660c05290911660e052610100526100e6565b6001600160a01b038116811461007157600080fd5b50565b600080600080600060a0868803121561008c57600080fd5b85516100978161005c565b60208701519095506100a88161005c565b604087015190945061ffff811681146100c057600080fd5b60608701519093506100d18161005c565b80925050608086015190509295509295909350565b60805160a05160c05160e0516101005161083461014c6000396000818161018b0152610349015260008181609b015261029501526000818161012a015261022501526000818161016401526101c5015260008181610103015261047701526108346000f3fe608060405234801561001057600080fd5b506004361061007c5760003560e01c8063ab75c7761161005b578063ab75c776146100fe578063af536c3f14610125578063cd4d1c641461015f578063e36d82051461018657600080fd5b80621d356714610081578063178e5ae0146100965780639659867e146100e7575b600080fd5b61009461008f366004610581565b6101ad565b005b6100bd7f000000000000000000000000000000000000000000000000000000000000000081565b60405173ffffffffffffffffffffffffffffffffffffffff90911681526020015b60405180910390f35b6100f060005481565b6040519081526020016100de565b6100bd7f000000000000000000000000000000000000000000000000000000000000000081565b61014c7f000000000000000000000000000000000000000000000000000000000000000081565b60405161ffff90911681526020016100de565b6100bd7f000000000000000000000000000000000000000000000000000000000000000081565b6100f07f000000000000000000000000000000000000000000000000000000000000000081565b3373ffffffffffffffffffffffffffffffffffffffff7f00000000000000000000000000000000000000000000000000000000000000001614610223576040517f3fcc3f170000000000000000000000000000000000000000000000000000000081523360048201526024015b60405180910390fd5b7f000000000000000000000000000000000000000000000000000000000000000061ffff168561ffff161461028a576040517f3553eec700000000000000000000000000000000000000000000000000000000815261ffff8616600482015260240161021a565b6000601485015190507f000000000000000000000000000000000000000000000000000000000000000073ffffffffffffffffffffffffffffffffffffffff168173ffffffffffffffffffffffffffffffffffffffff1614610330576040517ffde32d7500000000000000000000000000000000000000000000000000000000815273ffffffffffffffffffffffffffffffffffffffff8216600482015260240161021a565b60008061033f848601866106a6565b60005491935091507f0000000000000000000000000000000000000000000000000000000000000000610372838361071a565b11156103aa576040517f7b838b0200000000000000000000000000000000000000000000000000000000815260040160405180910390fd5b60008267ffffffffffffffff8111156103c5576103c56104ec565b6040519080825280602002602001820160405280156103ee578160200160208202803683370190505b50905060005b838114610434578282828151811061040e5761040e610733565b602090810291909101015261042283610762565b925061042d81610762565b90506103f4565b5060008290556040517f4684d7e900000000000000000000000000000000000000000000000000000000815273ffffffffffffffffffffffffffffffffffffffff7f00000000000000000000000000000000000000000000000000000000000000001690634684d7e9906104ae908790859060040161079a565b600060405180830381600087803b1580156104c857600080fd5b505af11580156104dc573d6000803e3d6000fd5b5050505050505050505050505050565b7f4e487b7100000000000000000000000000000000000000000000000000000000600052604160045260246000fd5b803567ffffffffffffffff8116811461053357600080fd5b919050565b60008083601f84011261054a57600080fd5b50813567ffffffffffffffff81111561056257600080fd5b60208301915083602082850101111561057a57600080fd5b9250929050565b60008060008060006080868803121561059957600080fd5b853561ffff811681146105ab57600080fd5b9450602086013567ffffffffffffffff808211156105c857600080fd5b818801915088601f8301126105dc57600080fd5b8135818111156105ee576105ee6104ec565b604051601f82017fffffffffffffffffffffffffffffffffffffffffffffffffffffffffffffffe0908116603f01168101908382118183101715610634576106346104ec565b816040528281528b602084870101111561064d57600080fd5b826020860160208301376000602084830101528098505050506106726040890161051b565b9450606088013591508082111561068857600080fd5b5061069588828901610538565b969995985093965092949392505050565b600080604083850312156106b957600080fd5b823573ffffffffffffffffffffffffffffffffffffffff811681146106dd57600080fd5b946020939093013593505050565b7f4e487b7100000000000000000000000000000000000000000000000000000000600052601160045260246000fd5b8082018082111561072d5761072d6106eb565b92915050565b7f4e487b7100000000000000000000000000000000000000000000000000000000600052603260045260246000fd5b60007fffffffffffffffffffffffffffffffffffffffffffffffffffffffffffffffff8203610793576107936106eb565b5060010190565b60006040820173ffffffffffffffffffffffffffffffffffffffff851683526020604081850152818551808452606086019150828701935060005b818110156107f1578451835293830193918301916001016107d5565b509097965050505050505056fea2646970667358221220e7ebdba80593fec4090c79486ebcb105fe216fdea6001d00dd35df27c96a787264736f6c63430008150033",
  "linkReferences": {},
  "deployedLinkReferences": {}
}