{
  "_format": "hh-sol-artifact-1",
  "contractName": "PublisherNFTMinter",
  "sourceName": "contracts/sale/PublisherNFTMinter.sol",
  "abi": [
    {
      "inputs": [
        {
          "internalType": "contract IERC721Mintable",
          "name": "publisherNFT",
          "type": "address"
        },
        {
          "internalType": "contract ILayerZeroEndpoint",
          "name": "lzEndpoint",
          "type": "address"
        },
        {
          "internalType": "uint16",
          "name": "lzSrcChainId",
          "type": "uint16"
        },
        {
          "internalType": "address",
          "name": "lzSrcAddress",
          "type": "address"
        },
        {
          "internalType": "uint256",
          "name": "mintSupplyLimit",
          "type": "uint256"
        }
      ],
      "stateMutability": "nonpayable",
      "type": "constructor"
    },
    {
      "inputs": [],
      "name": "IllegalInterfaceId",
      "type": "error"
    },
    {
      "inputs": [
        {
          "internalType": "address",
          "name": "srcAddress",
          "type": "address"
        }
      ],
      "name": "IncorrectSrcAddress",
      "type": "error"
    },
    {
      "inputs": [
        {
          "internalType": "uint16",
          "name": "srcChainId",
          "type": "uint16"
        }
      ],
      "name": "IncorrectSrcChainId",
      "type": "error"
    },
    {
      "inputs": [],
      "name": "InsufficientMintSupply",
      "type": "error"
    },
    {
      "inputs": [
        {
          "internalType": "address",
          "name": "account",
          "type": "address"
        }
      ],
      "name": "NotContractOwner",
      "type": "error"
    },
    {
      "inputs": [
        {
          "internalType": "address",
          "name": "sender",
          "type": "address"
        }
      ],
      "name": "UnauthorizedSender",
      "type": "error"
    },
    {
      "anonymous": false,
      "inputs": [
        {
          "indexed": true,
          "internalType": "address",
          "name": "previousOwner",
          "type": "address"
        },
        {
          "indexed": true,
          "internalType": "address",
          "name": "newOwner",
          "type": "address"
        }
      ],
      "name": "OwnershipTransferred",
      "type": "event"
    },
    {
      "inputs": [],
      "name": "LZ_ENDPOINT",
      "outputs": [
        {
          "internalType": "contract ILayerZeroEndpoint",
          "name": "",
          "type": "address"
        }
      ],
      "stateMutability": "view",
      "type": "function"
    },
    {
      "inputs": [],
      "name": "LZ_SRC_ADDRESS",
      "outputs": [
        {
          "internalType": "address",
          "name": "",
          "type": "address"
        }
      ],
      "stateMutability": "view",
      "type": "function"
    },
    {
      "inputs": [],
      "name": "LZ_SRC_CHAINID",
      "outputs": [
        {
          "internalType": "uint16",
          "name": "",
          "type": "uint16"
        }
      ],
      "stateMutability": "view",
      "type": "function"
    },
    {
      "inputs": [],
      "name": "MINT_SUPPLY_LIMIT",
      "outputs": [
        {
          "internalType": "uint256",
          "name": "",
          "type": "uint256"
        }
      ],
      "stateMutability": "view",
      "type": "function"
    },
    {
      "inputs": [],
      "name": "PUBLISHER_NFT",
      "outputs": [
        {
          "internalType": "contract IERC721Mintable",
          "name": "",
          "type": "address"
        }
      ],
      "stateMutability": "view",
      "type": "function"
    },
    {
      "inputs": [],
      "name": "forceResumeReceive",
      "outputs": [],
      "stateMutability": "nonpayable",
      "type": "function"
    },
    {
      "inputs": [
        {
          "internalType": "uint16",
          "name": "srcChainId",
          "type": "uint16"
        },
        {
          "internalType": "bytes",
          "name": "dstPath",
          "type": "bytes"
        },
        {
          "internalType": "uint64",
          "name": "",
          "type": "uint64"
        },
        {
          "internalType": "bytes",
          "name": "payload",
          "type": "bytes"
        }
      ],
      "name": "lzReceive",
      "outputs": [],
      "stateMutability": "nonpayable",
      "type": "function"
    },
    {
      "inputs": [],
      "name": "mintCount",
      "outputs": [
        {
          "internalType": "uint256",
          "name": "",
          "type": "uint256"
        }
      ],
      "stateMutability": "view",
      "type": "function"
    },
    {
      "inputs": [],
      "name": "owner",
      "outputs": [
        {
          "internalType": "address",
          "name": "",
          "type": "address"
        }
      ],
      "stateMutability": "view",
      "type": "function"
    },
    {
      "inputs": [
        {
          "internalType": "address",
          "name": "minter",
          "type": "address"
        },
        {
          "internalType": "uint256",
          "name": "nbTokens",
          "type": "uint256"
        }
      ],
      "name": "retryPayload",
      "outputs": [],
      "stateMutability": "nonpayable",
      "type": "function"
    },
    {
      "inputs": [
        {
          "internalType": "bytes4",
          "name": "interfaceId",
          "type": "bytes4"
        }
      ],
      "name": "supportsInterface",
      "outputs": [
        {
          "internalType": "bool",
          "name": "",
          "type": "bool"
        }
      ],
      "stateMutability": "view",
      "type": "function"
    },
    {
      "inputs": [
        {
          "internalType": "address",
          "name": "newOwner",
          "type": "address"
        }
      ],
      "name": "transferOwnership",
      "outputs": [],
      "stateMutability": "nonpayable",
      "type": "function"
    }
  ],
  "bytecode": "0x6101206040523480156200001257600080fd5b50604051620012d1380380620012d18339810160408190526200003591620001d1565b336200004c81620000456200007a565b90620000b0565b506001600160a01b0394851660805292841660a05261ffff90911660c05290911660e052610100526200026d565b600080620000aa60017fc9ed16f33ab3a66c84bfd83099ccb2a8845871e2e1c1928f63797152f0fd54cd6200024b565b92915050565b6001600160a01b03811615620001075781546001600160a01b0319166001600160a01b03821690811783556040516000907f8be0079c531659141344cd1fd0a4f28419497f9722a3daafe3b4186f6b6457e0908290a35b620001276307f5828d60e41b60016200011f6200012b565b91906200015b565b5050565b600080620000aa60017fca9d3e17f264b0f3984e2634e94adb37fa3e6a8103f06aeae6fa59e21c769f5e6200024b565b600160e01b6001600160e01b03198316016200018a576040516372c683bb60e01b815260040160405180910390fd5b6001600160e01b03199190911660009081526020929092526040909120805460ff1916911515919091179055565b6001600160a01b0381168114620001ce57600080fd5b50565b600080600080600060a08688031215620001ea57600080fd5b8551620001f781620001b8565b60208701519095506200020a81620001b8565b604087015190945061ffff811681146200022357600080fd5b60608701519093506200023681620001b8565b80925050608086015190509295509295909350565b81810381811115620000aa57634e487b7160e01b600052601160045260246000fd5b60805160a05160c05160e05161010051610fd2620002ff6000396000818161022801526103f901526000818161011a01528181610345015281816105dd01526107700152600081816101bf015281816102d5015281816106ab015261081e0152600081816101f9015281816102750152818161067e01526107f101526000818161019801526105270152610fd26000f3fe608060405234801561001057600080fd5b50600436106100d35760003560e01c8063ab75c77611610081578063dd97c9771161005b578063dd97c9771461021b578063e36d820514610223578063f2fde38b1461024a57600080fd5b8063ab75c77614610193578063af536c3f146101ba578063cd4d1c64146101f457600080fd5b80637923204e116100b25780637923204e146101615780638da5cb5b146101745780639659867e1461017c57600080fd5b80621d3567146100d857806301ffc9a7146100ed578063178e5ae014610115575b600080fd5b6100eb6100e6366004610bdf565b61025d565b005b6101006100fb366004610d04565b61059c565b60405190151581526020015b60405180910390f35b61013c7f000000000000000000000000000000000000000000000000000000000000000081565b60405173ffffffffffffffffffffffffffffffffffffffff909116815260200161010c565b6100eb61016f366004610d6f565b6105b6565b61013c61070b565b61018560005481565b60405190815260200161010c565b61013c7f000000000000000000000000000000000000000000000000000000000000000081565b6101e17f000000000000000000000000000000000000000000000000000000000000000081565b60405161ffff909116815260200161010c565b61013c7f000000000000000000000000000000000000000000000000000000000000000081565b6100eb610737565b6101857f000000000000000000000000000000000000000000000000000000000000000081565b6100eb610258366004610d9b565b61087a565b3373ffffffffffffffffffffffffffffffffffffffff7f000000000000000000000000000000000000000000000000000000000000000016146102d3576040517f3fcc3f170000000000000000000000000000000000000000000000000000000081523360048201526024015b60405180910390fd5b7f000000000000000000000000000000000000000000000000000000000000000061ffff168561ffff161461033a576040517f3553eec700000000000000000000000000000000000000000000000000000000815261ffff861660048201526024016102ca565b6000601485015190507f000000000000000000000000000000000000000000000000000000000000000073ffffffffffffffffffffffffffffffffffffffff168173ffffffffffffffffffffffffffffffffffffffff16146103e0576040517ffde32d7500000000000000000000000000000000000000000000000000000000815273ffffffffffffffffffffffffffffffffffffffff821660048201526024016102ca565b6000806103ef84860186610d6f565b60005491935091507f00000000000000000000000000000000000000000000000000000000000000006104228383610de7565b111561045a576040517f7b838b0200000000000000000000000000000000000000000000000000000000815260040160405180910390fd5b60008267ffffffffffffffff81111561047557610475610b4a565b60405190808252806020026020018201604052801561049e578160200160208202803683370190505b50905060005b8381146104e457828282815181106104be576104be610dfa565b60209081029190910101526104d283610e29565b92506104dd81610e29565b90506104a4565b5060008290556040517f4684d7e900000000000000000000000000000000000000000000000000000000815273ffffffffffffffffffffffffffffffffffffffff7f00000000000000000000000000000000000000000000000000000000000000001690634684d7e99061055e9087908590600401610e61565b600060405180830381600087803b15801561057857600080fd5b505af115801561058c573d6000803e3d6000fd5b5050505050505050505050505050565b60006105b0826105aa610891565b906108bf565b92915050565b604080517fffffffffffffffffffffffffffffffffffffffff0000000000000000000000007f0000000000000000000000000000000000000000000000000000000000000000606090811b8216602084015230901b1660348201528151808203602801815260488201835273ffffffffffffffffffffffffffffffffffffffff858116606884015260888084018690528451808503909101815260a88401948590527faaff5f16000000000000000000000000000000000000000000000000000000009094527f0000000000000000000000000000000000000000000000000000000000000000169263aaff5f16926106d5927f000000000000000000000000000000000000000000000000000000000000000092909160ac01610f2b565b600060405180830381600087803b1580156106ef57600080fd5b505af1158015610703573d6000803e3d6000fd5b505050505050565b6000610732610718610999565b5473ffffffffffffffffffffffffffffffffffffffff1690565b905090565b61074933610743610999565b906109c7565b604080517fffffffffffffffffffffffffffffffffffffffff0000000000000000000000007f0000000000000000000000000000000000000000000000000000000000000000606090811b8216602084015230901b1660348201528151808203602801815260488201928390527f42d65a8d0000000000000000000000000000000000000000000000000000000090925273ffffffffffffffffffffffffffffffffffffffff7f000000000000000000000000000000000000000000000000000000000000000016916342d65a8d91610846917f000000000000000000000000000000000000000000000000000000000000000091604c01610f64565b600060405180830381600087803b15801561086057600080fd5b505af1158015610874573d6000803e3d6000fd5b50505050565b61088e3382610887610999565b9190610a36565b50565b6000806105b060017fca9d3e17f264b0f3984e2634e94adb37fa3e6a8103f06aeae6fa59e21c769f5e610f89565b60007c01000000000000000000000000000000000000000000000000000000007fffffffff0000000000000000000000000000000000000000000000000000000083160161090f575060006105b0565b7ffe003659000000000000000000000000000000000000000000000000000000007fffffffff00000000000000000000000000000000000000000000000000000000831601610960575060016105b0565b507fffffffff00000000000000000000000000000000000000000000000000000000166000908152602091909152604090205460ff1690565b6000806105b060017fc9ed16f33ab3a66c84bfd83099ccb2a8845871e2e1c1928f63797152f0fd54cd610f89565b815473ffffffffffffffffffffffffffffffffffffffff828116911614610a32576040517f2ef4875e00000000000000000000000000000000000000000000000000000000815273ffffffffffffffffffffffffffffffffffffffff821660048201526024016102ca565b5050565b825473ffffffffffffffffffffffffffffffffffffffff9081169083168114610aa3576040517f2ef4875e00000000000000000000000000000000000000000000000000000000815273ffffffffffffffffffffffffffffffffffffffff841660048201526024016102ca565b8173ffffffffffffffffffffffffffffffffffffffff168173ffffffffffffffffffffffffffffffffffffffff16146108745783547fffffffffffffffffffffffff00000000000000000000000000000000000000001673ffffffffffffffffffffffffffffffffffffffff8381169182178655604051908316907f8be0079c531659141344cd1fd0a4f28419497f9722a3daafe3b4186f6b6457e090600090a350505050565b7f4e487b7100000000000000000000000000000000000000000000000000000000600052604160045260246000fd5b803567ffffffffffffffff81168114610b9157600080fd5b919050565b60008083601f840112610ba857600080fd5b50813567ffffffffffffffff811115610bc057600080fd5b602083019150836020828501011115610bd857600080fd5b9250929050565b600080600080600060808688031215610bf757600080fd5b853561ffff81168114610c0957600080fd5b9450602086013567ffffffffffffffff80821115610c2657600080fd5b818801915088601f830112610c3a57600080fd5b813581811115610c4c57610c4c610b4a565b604051601f82017fffffffffffffffffffffffffffffffffffffffffffffffffffffffffffffffe0908116603f01168101908382118183101715610c9257610c92610b4a565b816040528281528b6020848701011115610cab57600080fd5b82602086016020830137600060208483010152809850505050610cd060408901610b79565b94506060880135915080821115610ce657600080fd5b50610cf388828901610b96565b969995985093965092949392505050565b600060208284031215610d1657600080fd5b81357fffffffff0000000000000000000000000000000000000000000000000000000081168114610d4657600080fd5b9392505050565b73ffffffffffffffffffffffffffffffffffffffff8116811461088e57600080fd5b60008060408385031215610d8257600080fd5b8235610d8d81610d4d565b946020939093013593505050565b600060208284031215610dad57600080fd5b8135610d4681610d4d565b7f4e487b7100000000000000000000000000000000000000000000000000000000600052601160045260246000fd5b808201808211156105b0576105b0610db8565b7f4e487b7100000000000000000000000000000000000000000000000000000000600052603260045260246000fd5b60007fffffffffffffffffffffffffffffffffffffffffffffffffffffffffffffffff8203610e5a57610e5a610db8565b5060010190565b60006040820173ffffffffffffffffffffffffffffffffffffffff8516835260206040602085015281855180845260608601915060208701935060005b81811015610eba57845183529383019391830191600101610e9e565b5090979650505050505050565b6000815180845260005b81811015610eed57602081850181015186830182015201610ed1565b5060006020828601015260207fffffffffffffffffffffffffffffffffffffffffffffffffffffffffffffffe0601f83011685010191505092915050565b61ffff84168152606060208201526000610f486060830185610ec7565b8281036040840152610f5a8185610ec7565b9695505050505050565b61ffff83168152604060208201526000610f816040830184610ec7565b949350505050565b818103818111156105b0576105b0610db856fea2646970667358221220dfdae70665fd9e7111dd691c0f4e77747659c612f063894cc1257a5adca3036d64736f6c63430008160033",
  "linkReferences": {},
  "deployedLinkReferences": {}
}