{
  "_format": "hh-sol-artifact-1",
  "contractName": "PublisherNFTEscrowMock",
  "sourceName": "contracts/mocks/escrow/PublisherNFTEscrowMock.sol",
  "abi": [
    {
      "inputs": [
        {
          "internalType": "address[]",
          "name": "_supportedTokens",
          "type": "address[]"
        },
        {
          "internalType": "contract IForwarderRegistry",
          "name": "forwarderRegistry",
          "type": "address"
        }
      ],
      "stateMutability": "nonpayable",
      "type": "constructor"
    },
    {
      "inputs": [],
      "name": "IllegalInterfaceId",
      "type": "error"
    },
    {
      "inputs": [],
      "name": "InconsistentArrayLengths",
      "type": "error"
    },
    {
      "inputs": [
        {
          "internalType": "address",
          "name": "account",
          "type": "address"
        }
      ],
      "name": "NotContractOwner",
      "type": "error"
    },
    {
      "inputs": [
        {
          "internalType": "address",
          "name": "inventory",
          "type": "address"
        },
        {
          "internalType": "uint256",
          "name": "id",
          "type": "uint256"
        }
      ],
      "name": "NotEscrowed",
      "type": "error"
    },
    {
      "inputs": [
        {
          "internalType": "address",
          "name": "inventory",
          "type": "address"
        },
        {
          "internalType": "uint256",
          "name": "id",
          "type": "uint256"
        }
      ],
      "name": "NotRecoverable",
      "type": "error"
    },
    {
      "inputs": [
        {
          "internalType": "address",
          "name": "inventory",
          "type": "address"
        }
      ],
      "name": "UnsupportedInventory",
      "type": "error"
    },
    {
      "anonymous": false,
      "inputs": [
        {
          "indexed": true,
          "internalType": "address",
          "name": "account",
          "type": "address"
        },
        {
          "indexed": false,
          "internalType": "address[]",
          "name": "inventories",
          "type": "address[]"
        },
        {
          "indexed": false,
          "internalType": "uint256[]",
          "name": "ids",
          "type": "uint256[]"
        }
      ],
      "name": "Deposited",
      "type": "event"
    },
    {
      "anonymous": false,
      "inputs": [
        {
          "indexed": true,
          "internalType": "address",
          "name": "previousOwner",
          "type": "address"
        },
        {
          "indexed": true,
          "internalType": "address",
          "name": "newOwner",
          "type": "address"
        }
      ],
      "name": "OwnershipTransferred",
      "type": "event"
    },
    {
      "anonymous": false,
      "inputs": [
        {
          "indexed": true,
          "internalType": "address",
          "name": "inventory",
          "type": "address"
        }
      ],
      "name": "SupportedInventoryAdded",
      "type": "event"
    },
    {
      "anonymous": false,
      "inputs": [
        {
          "indexed": true,
          "internalType": "address",
          "name": "inventory",
          "type": "address"
        }
      ],
      "name": "SupportedInventoryRemoved",
      "type": "event"
    },
    {
      "anonymous": false,
      "inputs": [
        {
          "indexed": true,
          "internalType": "address",
          "name": "account",
          "type": "address"
        },
        {
          "indexed": false,
          "internalType": "address[]",
          "name": "inventories",
          "type": "address[]"
        },
        {
          "indexed": false,
          "internalType": "uint256[]",
          "name": "ids",
          "type": "uint256[]"
        }
      ],
      "name": "Withdrawn",
      "type": "event"
    },
    {
      "inputs": [],
      "name": "__msgData",
      "outputs": [
        {
          "internalType": "bytes",
          "name": "",
          "type": "bytes"
        }
      ],
      "stateMutability": "view",
      "type": "function"
    },
    {
      "inputs": [
        {
          "internalType": "address",
          "name": "inventory",
          "type": "address"
        }
      ],
      "name": "addSupportedInventory",
      "outputs": [],
      "stateMutability": "nonpayable",
      "type": "function"
    },
    {
      "inputs": [
        {
          "internalType": "address[]",
          "name": "inventories",
          "type": "address[]"
        },
        {
          "internalType": "uint256[]",
          "name": "ids",
          "type": "uint256[]"
        }
      ],
      "name": "deposit",
      "outputs": [],
      "stateMutability": "nonpayable",
      "type": "function"
    },
    {
      "inputs": [
        {
          "internalType": "address",
          "name": "",
          "type": "address"
        },
        {
          "internalType": "uint256",
          "name": "",
          "type": "uint256"
        }
      ],
      "name": "escrowed",
      "outputs": [
        {
          "internalType": "address",
          "name": "",
          "type": "address"
        }
      ],
      "stateMutability": "view",
      "type": "function"
    },
    {
      "inputs": [],
      "name": "forwarderRegistry",
      "outputs": [
        {
          "internalType": "contract IForwarderRegistry",
          "name": "",
          "type": "address"
        }
      ],
      "stateMutability": "view",
      "type": "function"
    },
    {
      "inputs": [
        {
          "internalType": "address",
          "name": "forwarder",
          "type": "address"
        }
      ],
      "name": "isTrustedForwarder",
      "outputs": [
        {
          "internalType": "bool",
          "name": "",
          "type": "bool"
        }
      ],
      "stateMutability": "view",
      "type": "function"
    },
    {
      "inputs": [],
      "name": "msgData",
      "outputs": [
        {
          "internalType": "bytes",
          "name": "",
          "type": "bytes"
        }
      ],
      "stateMutability": "view",
      "type": "function"
    },
    {
      "inputs": [
        {
          "internalType": "address",
          "name": "",
          "type": "address"
        },
        {
          "internalType": "address",
          "name": "from",
          "type": "address"
        },
        {
          "internalType": "uint256",
          "name": "id",
          "type": "uint256"
        },
        {
          "internalType": "bytes",
          "name": "",
          "type": "bytes"
        }
      ],
      "name": "onERC721Received",
      "outputs": [
        {
          "internalType": "bytes4",
          "name": "",
          "type": "bytes4"
        }
      ],
      "stateMutability": "nonpayable",
      "type": "function"
    },
    {
      "inputs": [],
      "name": "owner",
      "outputs": [
        {
          "internalType": "address",
          "name": "",
          "type": "address"
        }
      ],
      "stateMutability": "view",
      "type": "function"
    },
    {
      "inputs": [
        {
          "internalType": "address[]",
          "name": "accounts",
          "type": "address[]"
        },
        {
          "internalType": "contract IERC20[]",
          "name": "tokens",
          "type": "address[]"
        },
        {
          "internalType": "uint256[]",
          "name": "amounts",
          "type": "uint256[]"
        }
      ],
      "name": "recoverERC20s",
      "outputs": [],
      "stateMutability": "nonpayable",
      "type": "function"
    },
    {
      "inputs": [
        {
          "internalType": "address[]",
          "name": "accounts",
          "type": "address[]"
        },
        {
          "internalType": "contract IERC721[]",
          "name": "contracts",
          "type": "address[]"
        },
        {
          "internalType": "uint256[]",
          "name": "tokenIds",
          "type": "uint256[]"
        }
      ],
      "name": "recoverERC721s",
      "outputs": [],
      "stateMutability": "nonpayable",
      "type": "function"
    },
    {
      "inputs": [
        {
          "internalType": "address payable[]",
          "name": "accounts",
          "type": "address[]"
        },
        {
          "internalType": "uint256[]",
          "name": "amounts",
          "type": "uint256[]"
        }
      ],
      "name": "recoverETH",
      "outputs": [],
      "stateMutability": "nonpayable",
      "type": "function"
    },
    {
      "inputs": [
        {
          "internalType": "address",
          "name": "inventory",
          "type": "address"
        }
      ],
      "name": "removeSupportedInventory",
      "outputs": [],
      "stateMutability": "nonpayable",
      "type": "function"
    },
    {
      "inputs": [
        {
          "internalType": "address",
          "name": "",
          "type": "address"
        }
      ],
      "name": "supportedInventories",
      "outputs": [
        {
          "internalType": "address",
          "name": "",
          "type": "address"
        }
      ],
      "stateMutability": "view",
      "type": "function"
    },
    {
      "inputs": [
        {
          "internalType": "bytes4",
          "name": "interfaceId",
          "type": "bytes4"
        }
      ],
      "name": "supportsInterface",
      "outputs": [
        {
          "internalType": "bool",
          "name": "",
          "type": "bool"
        }
      ],
      "stateMutability": "view",
      "type": "function"
    },
    {
      "inputs": [
        {
          "internalType": "address",
          "name": "newOwner",
          "type": "address"
        }
      ],
      "name": "transferOwnership",
      "outputs": [],
      "stateMutability": "nonpayable",
      "type": "function"
    },
    {
      "inputs": [
        {
          "internalType": "address[]",
          "name": "inventories",
          "type": "address[]"
        },
        {
          "internalType": "uint256[]",
          "name": "ids",
          "type": "uint256[]"
        }
      ],
      "name": "withdraw",
      "outputs": [],
      "stateMutability": "nonpayable",
      "type": "function"
    }
  ],
  "bytecode": "0x60a06040523480156200001157600080fd5b506040516200275238038062002752833981016040819052620000349162000403565b8181808062000042620000d6565b620000588162000051620000e7565b906200011d565b5062000079630a85bd0160e11b60016200007162000190565b9190620001c0565b6001600160a01b031660805250815160005b81811015620000ca57620000c1848281518110620000ad57620000ad620004e9565b60200260200101516200021d60201b60201c565b6001016200008b565b5050505050506200054c565b6000620000e2620002d2565b905090565b6000806200011760017fc9ed16f33ab3a66c84bfd83099ccb2a8845871e2e1c1928f63797152f0fd54cd620004ff565b92915050565b6001600160a01b03811615620001745781546001600160a01b0319166001600160a01b03821690811783556040516000907f8be0079c531659141344cd1fd0a4f28419497f9722a3daafe3b4186f6b6457e0908290a35b6200018c6307f5828d60e41b60016200007162000190565b5050565b6000806200011760017fca9d3e17f264b0f3984e2634e94adb37fa3e6a8103f06aeae6fa59e21c769f5e620004ff565b600160e01b6001600160e01b0319831601620001ef576040516372c683bb60e01b815260040160405180910390fd5b6001600160e01b03199190911660009081526020929092526040909120805460ff1916911515919091179055565b6200023c6200022b620000d6565b62000235620000e7565b9062000396565b6001600160a01b0381166200027457604051636341ca2f60e11b81526001600160a01b03821660048201526024015b60405180910390fd5b6040516001600160a01b038216907fe36f26ee49ead4b9b9d3238ae6fb56ff65903ea161dbb9e98c40300fd0d148af90600090a26001600160a01b0316600081815260016020526040902080546001600160a01b0319169091179055565b600033321480620002e35750601836105b15620002ee57503390565b60805136601319013560601c906001600160a01b0316331480620003845750608051604051634494d46560e11b81526001600160a01b03838116600483015233602483015290911690638929a8ca90604401602060405180830381865afa1580156200035e573d6000803e3d6000fd5b505050506040513d601f19601f8201168201806040525081019062000384919062000521565b156200038f57919050565b3391505090565b81546001600160a01b038281169116146200018c5760405163177a43af60e11b81526001600160a01b03821660048201526024016200026b565b634e487b7160e01b600052604160045260246000fd5b80516001600160a01b0381168114620003fe57600080fd5b919050565b600080604083850312156200041757600080fd5b82516001600160401b03808211156200042f57600080fd5b818501915085601f8301126200044457600080fd5b81516020828211156200045b576200045b620003d0565b8160051b604051601f19603f83011681018181108682111715620004835762000483620003d0565b604052928352818301935084810182019289841115620004a257600080fd5b948201945b83861015620004cb57620004bb86620003e6565b85529482019493820193620004a7565b9650620004dc9050878201620003e6565b9450505050509250929050565b634e487b7160e01b600052603260045260246000fd5b818103818111156200011757634e487b7160e01b600052601160045260246000fd5b6000602082840312156200053457600080fd5b815180151581146200054557600080fd5b9392505050565b6080516121c76200058b600039600081816101fe01528181610286015281816116080152818161169001528181611743015261178101526121c76000f3fe608060405234801561001057600080fd5b506004361061011b5760003560e01c806373c8a958116100b2578063de6d6d9611610081578063efc908a111610066578063efc908a11461032c578063f2fde38b1461033f578063f7ba94bd1461035257600080fd5b8063de6d6d9614610306578063e3264f241461031957600080fd5b806373c8a958146102c35780638da5cb5b146102d6578063c3666c36146102de578063c4c2bfdc146102f157600080fd5b80632b4c9f16116100ee5780632b4c9f16146101fc57806331e66e1e1461022257806341560d9b14610238578063572b6c051461027657600080fd5b806301ffc9a714610120578063150b7a0214610148578063186d5fcd1461018c5780631d03bccd146101a1575b600080fd5b61013361012e366004611bc5565b610365565b60405190151581526020015b60405180910390f35b61015b610156366004611c30565b61037f565b6040517fffffffff00000000000000000000000000000000000000000000000000000000909116815260200161013f565b61019f61019a366004611ccf565b61057f565b005b6101d76101af366004611ccf565b60016020526000908152604090205473ffffffffffffffffffffffffffffffffffffffff1681565b60405173ffffffffffffffffffffffffffffffffffffffff909116815260200161013f565b7f00000000000000000000000000000000000000000000000000000000000000006101d7565b61022a61068d565b60405161013f929190611cec565b6101d7610246366004611d39565b600060208181529281526040808220909352908152205473ffffffffffffffffffffffffffffffffffffffff1681565b610133610284366004611ccf565b7f000000000000000000000000000000000000000000000000000000000000000073ffffffffffffffffffffffffffffffffffffffff90811691161490565b61019f6102d1366004611db1565b6106a0565b6101d7610796565b61019f6102ec366004611db1565b6107c2565b6102f96109eb565b60405161013f9190611eb9565b61019f610314366004611ecc565b610a79565b61019f610327366004611ccf565b610cdd565b61019f61033a366004611ecc565b610deb565b61019f61034d366004611ccf565b61102d565b61019f610360366004611ecc565b61104b565b60006103798261037361110a565b90611138565b92915050565b60008061038a611212565b73ffffffffffffffffffffffffffffffffffffffff80821660009081526001602052604090205491925016610408576040517fc683945e00000000000000000000000000000000000000000000000000000000815273ffffffffffffffffffffffffffffffffffffffff821660048201526024015b60405180910390fd5b73ffffffffffffffffffffffffffffffffffffffff818116600090815260208181526040808320898452825280832080547fffffffffffffffffffffffff000000000000000000000000000000000000000016948b1694909417909355825160018082528185019094529192908281019080368337019050509050818160008151811061049757610497611f38565b73ffffffffffffffffffffffffffffffffffffffff929092166020928302919091019091015260408051600180825281830190925260009181602001602082028036833701905050905086816000815181106104f5576104f5611f38565b6020026020010181815250508773ffffffffffffffffffffffffffffffffffffffff167fb8cbb1e4dca5fbc06a0bf84587240c8a2fd00777129726d23014fba5841d55978383604051610549929190611f67565b60405180910390a2507f150b7a020000000000000000000000000000000000000000000000000000000098975050505050505050565b61059861058a611212565b61059261121c565b9061124a565b73ffffffffffffffffffffffffffffffffffffffff81166105fd576040517fc683945e00000000000000000000000000000000000000000000000000000000815273ffffffffffffffffffffffffffffffffffffffff821660048201526024016103ff565b60405173ffffffffffffffffffffffffffffffffffffffff8216907fe36f26ee49ead4b9b9d3238ae6fb56ff65903ea161dbb9e98c40300fd0d148af90600090a273ffffffffffffffffffffffffffffffffffffffff16600081815260016020526040902080547fffffffffffffffffffffffff0000000000000000000000000000000000000000169091179055565b3660006106986112b9565b915091509091565b6106ab61058a611212565b8483811415806106bb5750808214155b156106f2576040517f6582533600000000000000000000000000000000000000000000000000000000815260040160405180910390fd5b60005b8181101561078c5761078488888381811061071257610712611f38565b90506020020160208101906107279190611ccf565b85858481811061073957610739611f38565b9050602002013588888581811061075257610752611f38565b90506020020160208101906107679190611ccf565b73ffffffffffffffffffffffffffffffffffffffff1691906112c4565b6001016106f5565b5050505050505050565b60006107bd6107a361121c565b5473ffffffffffffffffffffffffffffffffffffffff1690565b905090565b6107cd61058a611212565b82858114610807576040517f6582533600000000000000000000000000000000000000000000000000000000815260040160405180910390fd5b818114610840576040517f6582533600000000000000000000000000000000000000000000000000000000815260040160405180910390fd5b60005b8181101561078c57600088888381811061085f5761085f611f38565b90506020020160208101906108749190611ccf565b9050600087878481811061088a5761088a611f38565b905060200201602081019061089f9190611ccf565b90508060008787868181106108b6576108b6611f38565b73ffffffffffffffffffffffffffffffffffffffff8581166000908152602081815260408083209482029690960135808352939052939093205490935090911615905061094e576040517f052ca4a300000000000000000000000000000000000000000000000000000000815273ffffffffffffffffffffffffffffffffffffffff83166004820152602481018290526044016103ff565b6040517f42842e0e00000000000000000000000000000000000000000000000000000000815230600482015273ffffffffffffffffffffffffffffffffffffffff8581166024830152604482018390528416906342842e0e90606401600060405180830381600087803b1580156109c457600080fd5b505af11580156109d8573d6000803e3d6000fd5b5050505050505050806001019050610843565b600280546109f890611ff8565b80601f0160208091040260200160405190810160405280929190818152602001828054610a2490611ff8565b8015610a715780601f10610a4657610100808354040283529160200191610a71565b820191906000526020600020905b815481529060010190602001808311610a5457829003601f168201915b505050505081565b82818114610ab3576040517f6582533600000000000000000000000000000000000000000000000000000000815260040160405180910390fd5b6000610abd611212565b905060005b82811015610c80576000878783818110610ade57610ade611f38565b9050602002016020810190610af39190611ccf565b90506000868684818110610b0957610b09611f38565b73ffffffffffffffffffffffffffffffffffffffff80861660009081526020818152604080832094820296909601358083529390529390932054909350821691861682149050610ba4576040517f37a5157b00000000000000000000000000000000000000000000000000000000815273ffffffffffffffffffffffffffffffffffffffff84166004820152602481018390526044016103ff565b73ffffffffffffffffffffffffffffffffffffffff8381166000818152602081815260408083208784529091529081902080547fffffffffffffffffffffffff0000000000000000000000000000000000000000169055517f42842e0e00000000000000000000000000000000000000000000000000000000815230600482015291831660248301526044820184905284916342842e0e90606401600060405180830381600087803b158015610c5957600080fd5b505af1158015610c6d573d6000803e3d6000fd5b5050505050505050806001019050610ac2565b508073ffffffffffffffffffffffffffffffffffffffff167f78c340d4ad128ce699aee749013d7fa1512cfb434be2b83c3ce5d99069e026f687878787604051610ccd949392919061204b565b60405180910390a2505050505050565b610ce861058a611212565b73ffffffffffffffffffffffffffffffffffffffff81811660009081526001602052604090205416610d5e576040517fc683945e00000000000000000000000000000000000000000000000000000000815273ffffffffffffffffffffffffffffffffffffffff821660048201526024016103ff565b60405173ffffffffffffffffffffffffffffffffffffffff8216907fcc1241c30a6f8af5ff3bfd2f805b5a7602526c2250d016ae4cfb639889f6d71990600090a273ffffffffffffffffffffffffffffffffffffffff16600090815260016020526040902080547fffffffffffffffffffffffff0000000000000000000000000000000000000000169055565b82818114610e25576040517f6582533600000000000000000000000000000000000000000000000000000000815260040160405180910390fd5b6000610e2f611212565b905060005b82811015610fe0576000878783818110610e5057610e50611f38565b9050602002016020810190610e659190611ccf565b90506000868684818110610e7b57610e7b611f38565b73ffffffffffffffffffffffffffffffffffffffff8581166000908152600160209081526040909120549202939093013593509091169050610f01576040517fc683945e00000000000000000000000000000000000000000000000000000000815273ffffffffffffffffffffffffffffffffffffffff831660048201526024016103ff565b73ffffffffffffffffffffffffffffffffffffffff8281166000818152602081815260408083208684529091529081902080547fffffffffffffffffffffffff0000000000000000000000000000000000000000169388169384179055517f23b872dd000000000000000000000000000000000000000000000000000000008152600481019290925230602483015260448201839052906323b872dd90606401600060405180830381600087803b158015610fbb57600080fd5b505af1158015610fcf573d6000803e3d6000fd5b505050505050806001019050610e34565b508073ffffffffffffffffffffffffffffffffffffffff167fb8cbb1e4dca5fbc06a0bf84587240c8a2fd00777129726d23014fba5841d559787878787604051610ccd949392919061204b565b611048611038611212565b8261104161121c565b9190611356565b50565b61105661058a611212565b82818114611090576040517f6582533600000000000000000000000000000000000000000000000000000000815260040160405180910390fd5b60005b81811015611102576110fa8484838181106110b0576110b0611f38565b905060200201358787848181106110c9576110c9611f38565b90506020020160208101906110de9190611ccf565b73ffffffffffffffffffffffffffffffffffffffff169061146b565b600101611093565b505050505050565b60008061037960017fca9d3e17f264b0f3984e2634e94adb37fa3e6a8103f06aeae6fa59e21c769f5e6120ef565b60007c01000000000000000000000000000000000000000000000000000000007fffffffff0000000000000000000000000000000000000000000000000000000083160161118857506000610379565b7ffe003659000000000000000000000000000000000000000000000000000000007fffffffff000000000000000000000000000000000000000000000000000000008316016111d957506001610379565b507fffffffff00000000000000000000000000000000000000000000000000000000166000908152602091909152604090205460ff1690565b60006107bd6115c5565b60008061037960017fc9ed16f33ab3a66c84bfd83099ccb2a8845871e2e1c1928f63797152f0fd54cd6120ef565b815473ffffffffffffffffffffffffffffffffffffffff8281169116146112b5576040517f2ef4875e00000000000000000000000000000000000000000000000000000000815273ffffffffffffffffffffffffffffffffffffffff821660048201526024016103ff565b5050565b36600061069861170c565b6040805173ffffffffffffffffffffffffffffffffffffffff8416602482015260448082018490528251808303909101815260649091019091526020810180517bffffffffffffffffffffffffffffffffffffffffffffffffffffffff167fa9059cbb00000000000000000000000000000000000000000000000000000000179052611351908490611876565b505050565b825473ffffffffffffffffffffffffffffffffffffffff90811690831681146113c3576040517f2ef4875e00000000000000000000000000000000000000000000000000000000815273ffffffffffffffffffffffffffffffffffffffff841660048201526024016103ff565b8173ffffffffffffffffffffffffffffffffffffffff168173ffffffffffffffffffffffffffffffffffffffff16146114655783547fffffffffffffffffffffffff00000000000000000000000000000000000000001673ffffffffffffffffffffffffffffffffffffffff8381169182178655604051908316907f8be0079c531659141344cd1fd0a4f28419497f9722a3daafe3b4186f6b6457e090600090a35b50505050565b804710156114d5576040517f08c379a000000000000000000000000000000000000000000000000000000000815260206004820152601d60248201527f416464726573733a20696e73756666696369656e742062616c616e636500000060448201526064016103ff565b60008273ffffffffffffffffffffffffffffffffffffffff168260405160006040518083038185875af1925050503d806000811461152f576040519150601f19603f3d011682016040523d82523d6000602084013e611534565b606091505b5050905080611351576040517f08c379a000000000000000000000000000000000000000000000000000000000815260206004820152603a60248201527f416464726573733a20756e61626c6520746f2073656e642076616c75652c207260448201527f6563697069656e74206d6179206861766520726576657274656400000000000060648201526084016103ff565b6000333214806115d55750601836105b156115df57503390565b7fffffffffffffffffffffffffffffffffffffffffffffffffffffffffffffffec36013560601c7f000000000000000000000000000000000000000000000000000000000000000073ffffffffffffffffffffffffffffffffffffffff163314806116fb57506040517f8929a8ca00000000000000000000000000000000000000000000000000000000815273ffffffffffffffffffffffffffffffffffffffff82811660048301523360248301527f00000000000000000000000000000000000000000000000000000000000000001690638929a8ca90604401602060405180830381865afa1580156116d7573d6000803e3d6000fd5b505050506040513d601f19601f820116820180604052508101906116fb9190612129565b1561170557919050565b3391505090565b3660003332148061171d5750601836105b1561172b5750600091369150565b3373ffffffffffffffffffffffffffffffffffffffff7f0000000000000000000000000000000000000000000000000000000000000000161480611860575073ffffffffffffffffffffffffffffffffffffffff7f000000000000000000000000000000000000000000000000000000000000000016638929a8ca367fffffffffffffffffffffffffffffffffffffffffffffffffffffffffffffffec013560601c6040517fffffffff0000000000000000000000000000000000000000000000000000000060e084901b16815273ffffffffffffffffffffffffffffffffffffffff9091166004820152336024820152604401602060405180830381865afa15801561183c573d6000803e3d6000fd5b505050506040513d601f19601f820116820180604052508101906118609190612129565b1561186d57610698611985565b50600091369150565b60006118d8826040518060400160405280602081526020017f5361666545524332303a206c6f772d6c6576656c2063616c6c206661696c65648152508573ffffffffffffffffffffffffffffffffffffffff166119b69092919063ffffffff16565b90508051600014806118f95750808060200190518101906118f99190612129565b611351576040517f08c379a000000000000000000000000000000000000000000000000000000000815260206004820152602a60248201527f5361666545524332303a204552433230206f7065726174696f6e20646964206e60448201527f6f7420737563636565640000000000000000000000000000000000000000000060648201526084016103ff565b3660006106987fffffffffffffffffffffffffffffffffffffffffffffffffffffffffffffffec830182848161214b565b60606119c584846000856119cd565b949350505050565b606082471015611a5f576040517f08c379a000000000000000000000000000000000000000000000000000000000815260206004820152602660248201527f416464726573733a20696e73756666696369656e742062616c616e636520666f60448201527f722063616c6c000000000000000000000000000000000000000000000000000060648201526084016103ff565b6000808673ffffffffffffffffffffffffffffffffffffffff168587604051611a889190612175565b60006040518083038185875af1925050503d8060008114611ac5576040519150601f19603f3d011682016040523d82523d6000602084013e611aca565b606091505b5091509150611adb87838387611ae6565b979650505050505050565b60608315611b7c578251600003611b755773ffffffffffffffffffffffffffffffffffffffff85163b611b75576040517f08c379a000000000000000000000000000000000000000000000000000000000815260206004820152601d60248201527f416464726573733a2063616c6c20746f206e6f6e2d636f6e747261637400000060448201526064016103ff565b50816119c5565b6119c58383815115611b915781518083602001fd5b806040517f08c379a00000000000000000000000000000000000000000000000000000000081526004016103ff9190611eb9565b600060208284031215611bd757600080fd5b81357fffffffff0000000000000000000000000000000000000000000000000000000081168114611c0757600080fd5b9392505050565b73ffffffffffffffffffffffffffffffffffffffff8116811461104857600080fd5b600080600080600060808688031215611c4857600080fd5b8535611c5381611c0e565b94506020860135611c6381611c0e565b935060408601359250606086013567ffffffffffffffff80821115611c8757600080fd5b818801915088601f830112611c9b57600080fd5b813581811115611caa57600080fd5b896020828501011115611cbc57600080fd5b9699959850939650602001949392505050565b600060208284031215611ce157600080fd5b8135611c0781611c0e565b60208152816020820152818360408301376000818301604090810191909152601f9092017fffffffffffffffffffffffffffffffffffffffffffffffffffffffffffffffe0160101919050565b60008060408385031215611d4c57600080fd5b8235611d5781611c0e565b946020939093013593505050565b60008083601f840112611d7757600080fd5b50813567ffffffffffffffff811115611d8f57600080fd5b6020830191508360208260051b8501011115611daa57600080fd5b9250929050565b60008060008060008060608789031215611dca57600080fd5b863567ffffffffffffffff80821115611de257600080fd5b611dee8a838b01611d65565b90985096506020890135915080821115611e0757600080fd5b611e138a838b01611d65565b90965094506040890135915080821115611e2c57600080fd5b50611e3989828a01611d65565b979a9699509497509295939492505050565b60005b83811015611e66578181015183820152602001611e4e565b50506000910152565b60008151808452611e87816020860160208601611e4b565b601f017fffffffffffffffffffffffffffffffffffffffffffffffffffffffffffffffe0169290920160200192915050565b602081526000611c076020830184611e6f565b60008060008060408587031215611ee257600080fd5b843567ffffffffffffffff80821115611efa57600080fd5b611f0688838901611d65565b90965094506020870135915080821115611f1f57600080fd5b50611f2c87828801611d65565b95989497509550505050565b7f4e487b7100000000000000000000000000000000000000000000000000000000600052603260045260246000fd5b604080825283519082018190526000906020906060840190828701845b82811015611fb657815173ffffffffffffffffffffffffffffffffffffffff1684529284019290840190600101611f84565b5050508381038285015284518082528583019183019060005b81811015611feb57835183529284019291840191600101611fcf565b5090979650505050505050565b600181811c9082168061200c57607f821691505b602082108103612045577f4e487b7100000000000000000000000000000000000000000000000000000000600052602260045260246000fd5b50919050565b6040808252810184905260008560608301825b8781101561209b57823561207181611c0e565b73ffffffffffffffffffffffffffffffffffffffff1682526020928301929091019060010161205e565b5083810360208501528481527f07ffffffffffffffffffffffffffffffffffffffffffffffffffffffffffffff8511156120d457600080fd5b8460051b915081866020830137016020019695505050505050565b81810381811115610379577f4e487b7100000000000000000000000000000000000000000000000000000000600052601160045260246000fd5b60006020828403121561213b57600080fd5b81518015158114611c0757600080fd5b6000808585111561215b57600080fd5b8386111561216857600080fd5b5050820193919092039150565b60008251612187818460208701611e4b565b919091019291505056fea26469706673582212208435891594899d7a6e2eb7d237891c088fd4fc173f2bd093d3009db83b43e52764736f6c63430008160033",
  "linkReferences": {},
  "deployedLinkReferences": {}
}