{
  "_format": "hh-sol-artifact-1",
  "contractName": "PublisherNFTEscrowMock",
  "sourceName": "contracts/mocks/escrow/PublisherNFTEscrowMock.sol",
  "abi": [
    {
      "inputs": [
        {
          "internalType": "address[]",
          "name": "_supportedTokens",
          "type": "address[]"
        },
        {
          "internalType": "contract IForwarderRegistry",
          "name": "forwarderRegistry",
          "type": "address"
        }
      ],
      "stateMutability": "nonpayable",
      "type": "constructor"
    },
    {
      "inputs": [],
      "name": "IllegalInterfaceId",
      "type": "error"
    },
    {
      "inputs": [],
      "name": "InconsistentArrayLengths",
      "type": "error"
    },
    {
      "inputs": [
        {
          "internalType": "address",
          "name": "account",
          "type": "address"
        }
      ],
      "name": "NotContractOwner",
      "type": "error"
    },
    {
      "inputs": [
        {
          "internalType": "address",
          "name": "inventory",
          "type": "address"
        },
        {
          "internalType": "uint256",
          "name": "id",
          "type": "uint256"
        }
      ],
      "name": "NotEscrowed",
      "type": "error"
    },
    {
      "inputs": [
        {
          "internalType": "address",
          "name": "inventory",
          "type": "address"
        },
        {
          "internalType": "uint256",
          "name": "id",
          "type": "uint256"
        }
      ],
      "name": "NotRecoverable",
      "type": "error"
    },
    {
      "inputs": [
        {
          "internalType": "address",
          "name": "inventory",
          "type": "address"
        }
      ],
      "name": "UnsupportedInventory",
      "type": "error"
    },
    {
      "anonymous": false,
      "inputs": [
        {
          "indexed": true,
          "internalType": "address",
          "name": "account",
          "type": "address"
        },
        {
          "indexed": false,
          "internalType": "address[]",
          "name": "inventories",
          "type": "address[]"
        },
        {
          "indexed": false,
          "internalType": "uint256[]",
          "name": "ids",
          "type": "uint256[]"
        }
      ],
      "name": "Deposited",
      "type": "event"
    },
    {
      "anonymous": false,
      "inputs": [
        {
          "indexed": true,
          "internalType": "address",
          "name": "previousOwner",
          "type": "address"
        },
        {
          "indexed": true,
          "internalType": "address",
          "name": "newOwner",
          "type": "address"
        }
      ],
      "name": "OwnershipTransferred",
      "type": "event"
    },
    {
      "anonymous": false,
      "inputs": [
        {
          "indexed": true,
          "internalType": "address",
          "name": "inventory",
          "type": "address"
        }
      ],
      "name": "SupportedInventoryAdded",
      "type": "event"
    },
    {
      "anonymous": false,
      "inputs": [
        {
          "indexed": true,
          "internalType": "address",
          "name": "inventory",
          "type": "address"
        }
      ],
      "name": "SupportedInventoryRemoved",
      "type": "event"
    },
    {
      "anonymous": false,
      "inputs": [
        {
          "indexed": true,
          "internalType": "address",
          "name": "account",
          "type": "address"
        },
        {
          "indexed": false,
          "internalType": "address[]",
          "name": "inventories",
          "type": "address[]"
        },
        {
          "indexed": false,
          "internalType": "uint256[]",
          "name": "ids",
          "type": "uint256[]"
        }
      ],
      "name": "Withdrawn",
      "type": "event"
    },
    {
      "inputs": [],
      "name": "__msgData",
      "outputs": [
        {
          "internalType": "bytes",
          "name": "",
          "type": "bytes"
        }
      ],
      "stateMutability": "view",
      "type": "function"
    },
    {
      "inputs": [
        {
          "internalType": "address",
          "name": "inventory",
          "type": "address"
        }
      ],
      "name": "addSupportedInventory",
      "outputs": [],
      "stateMutability": "nonpayable",
      "type": "function"
    },
    {
      "inputs": [
        {
          "internalType": "address[]",
          "name": "inventories",
          "type": "address[]"
        },
        {
          "internalType": "uint256[]",
          "name": "ids",
          "type": "uint256[]"
        }
      ],
      "name": "deposit",
      "outputs": [],
      "stateMutability": "nonpayable",
      "type": "function"
    },
    {
      "inputs": [
        {
          "internalType": "address",
          "name": "",
          "type": "address"
        },
        {
          "internalType": "uint256",
          "name": "",
          "type": "uint256"
        }
      ],
      "name": "escrowed",
      "outputs": [
        {
          "internalType": "address",
          "name": "",
          "type": "address"
        }
      ],
      "stateMutability": "view",
      "type": "function"
    },
    {
      "inputs": [],
      "name": "forwarderRegistry",
      "outputs": [
        {
          "internalType": "contract IForwarderRegistry",
          "name": "",
          "type": "address"
        }
      ],
      "stateMutability": "view",
      "type": "function"
    },
    {
      "inputs": [
        {
          "internalType": "address",
          "name": "forwarder",
          "type": "address"
        }
      ],
      "name": "isTrustedForwarder",
      "outputs": [
        {
          "internalType": "bool",
          "name": "",
          "type": "bool"
        }
      ],
      "stateMutability": "view",
      "type": "function"
    },
    {
      "inputs": [],
      "name": "msgData",
      "outputs": [
        {
          "internalType": "bytes",
          "name": "",
          "type": "bytes"
        }
      ],
      "stateMutability": "view",
      "type": "function"
    },
    {
      "inputs": [
        {
          "internalType": "address",
          "name": "",
          "type": "address"
        },
        {
          "internalType": "address",
          "name": "from",
          "type": "address"
        },
        {
          "internalType": "uint256",
          "name": "id",
          "type": "uint256"
        },
        {
          "internalType": "bytes",
          "name": "",
          "type": "bytes"
        }
      ],
      "name": "onERC721Received",
      "outputs": [
        {
          "internalType": "bytes4",
          "name": "",
          "type": "bytes4"
        }
      ],
      "stateMutability": "nonpayable",
      "type": "function"
    },
    {
      "inputs": [],
      "name": "owner",
      "outputs": [
        {
          "internalType": "address",
          "name": "",
          "type": "address"
        }
      ],
      "stateMutability": "view",
      "type": "function"
    },
    {
      "inputs": [
        {
          "internalType": "address[]",
          "name": "accounts",
          "type": "address[]"
        },
        {
          "internalType": "contract IERC20[]",
          "name": "tokens",
          "type": "address[]"
        },
        {
          "internalType": "uint256[]",
          "name": "amounts",
          "type": "uint256[]"
        }
      ],
      "name": "recoverERC20s",
      "outputs": [],
      "stateMutability": "nonpayable",
      "type": "function"
    },
    {
      "inputs": [
        {
          "internalType": "address[]",
          "name": "accounts",
          "type": "address[]"
        },
        {
          "internalType": "contract IERC721[]",
          "name": "contracts",
          "type": "address[]"
        },
        {
          "internalType": "uint256[]",
          "name": "tokenIds",
          "type": "uint256[]"
        }
      ],
      "name": "recoverERC721s",
      "outputs": [],
      "stateMutability": "nonpayable",
      "type": "function"
    },
    {
      "inputs": [
        {
          "internalType": "address payable[]",
          "name": "accounts",
          "type": "address[]"
        },
        {
          "internalType": "uint256[]",
          "name": "amounts",
          "type": "uint256[]"
        }
      ],
      "name": "recoverETH",
      "outputs": [],
      "stateMutability": "nonpayable",
      "type": "function"
    },
    {
      "inputs": [
        {
          "internalType": "address",
          "name": "inventory",
          "type": "address"
        }
      ],
      "name": "removeSupportedInventory",
      "outputs": [],
      "stateMutability": "nonpayable",
      "type": "function"
    },
    {
      "inputs": [
        {
          "internalType": "address",
          "name": "",
          "type": "address"
        }
      ],
      "name": "supportedInventories",
      "outputs": [
        {
          "internalType": "address",
          "name": "",
          "type": "address"
        }
      ],
      "stateMutability": "view",
      "type": "function"
    },
    {
      "inputs": [
        {
          "internalType": "bytes4",
          "name": "interfaceId",
          "type": "bytes4"
        }
      ],
      "name": "supportsInterface",
      "outputs": [
        {
          "internalType": "bool",
          "name": "",
          "type": "bool"
        }
      ],
      "stateMutability": "view",
      "type": "function"
    },
    {
      "inputs": [
        {
          "internalType": "address",
          "name": "newOwner",
          "type": "address"
        }
      ],
      "name": "transferOwnership",
      "outputs": [],
      "stateMutability": "nonpayable",
      "type": "function"
    },
    {
      "inputs": [
        {
          "internalType": "address[]",
          "name": "inventories",
          "type": "address[]"
        },
        {
          "internalType": "uint256[]",
          "name": "ids",
          "type": "uint256[]"
        }
      ],
      "name": "withdraw",
      "outputs": [],
      "stateMutability": "nonpayable",
      "type": "function"
    }
  ],
  "bytecode": "0x60a06040523480156200001157600080fd5b50604051620025e2380380620025e28339810160408190526200003491620002cb565b81818080336200004f816200004862000162565b9062000198565b5062000070630a85bd0160e11b6001620000686200020b565b91906200023b565b6001600160a01b031660805250815160005b8181101562000156576000848281518110620000a257620000a2620003b1565b6020026020010151905060006001600160a01b0316816001600160a01b031603620000ef57604051636341ca2f60e11b81526001600160a01b038216600482015260240160405180910390fd5b6040516001600160a01b038216907fe36f26ee49ead4b9b9d3238ae6fb56ff65903ea161dbb9e98c40300fd0d148af90600090a26001600160a01b0316600081815260016020819052604090912080546001600160a01b0319169092179091550162000082565b505050505050620003e9565b6000806200019260017fc9ed16f33ab3a66c84bfd83099ccb2a8845871e2e1c1928f63797152f0fd54cd620003c7565b92915050565b6001600160a01b03811615620001ef5781546001600160a01b0319166001600160a01b03821690811783556040516000907f8be0079c531659141344cd1fd0a4f28419497f9722a3daafe3b4186f6b6457e0908290a35b620002076307f5828d60e41b6001620000686200020b565b5050565b6000806200019260017fca9d3e17f264b0f3984e2634e94adb37fa3e6a8103f06aeae6fa59e21c769f5e620003c7565b600160e01b6001600160e01b03198316016200026a576040516372c683bb60e01b815260040160405180910390fd5b6001600160e01b03199190911660009081526020929092526040909120805460ff1916911515919091179055565b634e487b7160e01b600052604160045260246000fd5b80516001600160a01b0381168114620002c657600080fd5b919050565b60008060408385031215620002df57600080fd5b82516001600160401b0380821115620002f757600080fd5b818501915085601f8301126200030c57600080fd5b815160208282111562000323576200032362000298565b8160051b604051601f19603f830116810181811086821117156200034b576200034b62000298565b6040529283528183019350848101820192898411156200036a57600080fd5b948201945b8386101562000393576200038386620002ae565b855294820194938201936200036f565b9650620003a49050878201620002ae565b9450505050509250929050565b634e487b7160e01b600052603260045260246000fd5b818103818111156200019257634e487b7160e01b600052601160045260246000fd5b6080516121ba62000428600039600081816101fe01528181610286015281816115fb0152818161168301528181611736015261177401526121ba6000f3fe608060405234801561001057600080fd5b506004361061011b5760003560e01c806373c8a958116100b2578063de6d6d9611610081578063efc908a111610066578063efc908a11461032c578063f2fde38b1461033f578063f7ba94bd1461035257600080fd5b8063de6d6d9614610306578063e3264f241461031957600080fd5b806373c8a958146102c35780638da5cb5b146102d6578063c3666c36146102de578063c4c2bfdc146102f157600080fd5b80632b4c9f16116100ee5780632b4c9f16146101fc57806331e66e1e1461022257806341560d9b14610238578063572b6c051461027657600080fd5b806301ffc9a714610120578063150b7a0214610148578063186d5fcd1461018c5780631d03bccd146101a1575b600080fd5b61013361012e366004611bb8565b610365565b60405190151581526020015b60405180910390f35b61015b610156366004611c23565b61037f565b6040517fffffffff00000000000000000000000000000000000000000000000000000000909116815260200161013f565b61019f61019a366004611cc2565b610572565b005b6101d76101af366004611cc2565b60016020526000908152604090205473ffffffffffffffffffffffffffffffffffffffff1681565b60405173ffffffffffffffffffffffffffffffffffffffff909116815260200161013f565b7f00000000000000000000000000000000000000000000000000000000000000006101d7565b61022a610680565b60405161013f929190611cdf565b6101d7610246366004611d2c565b600060208181529281526040808220909352908152205473ffffffffffffffffffffffffffffffffffffffff1681565b610133610284366004611cc2565b7f000000000000000000000000000000000000000000000000000000000000000073ffffffffffffffffffffffffffffffffffffffff90811691161490565b61019f6102d1366004611da4565b610693565b6101d7610789565b61019f6102ec366004611da4565b6107b5565b6102f96109de565b60405161013f9190611eac565b61019f610314366004611ebf565b610a6c565b61019f610327366004611cc2565b610cd0565b61019f61033a366004611ebf565b610dde565b61019f61034d366004611cc2565b611020565b61019f610360366004611ebf565b61103e565b6000610379826103736110fd565b9061112b565b92915050565b3360008181526001602052604081205490919073ffffffffffffffffffffffffffffffffffffffff166103fb576040517fc683945e00000000000000000000000000000000000000000000000000000000815273ffffffffffffffffffffffffffffffffffffffff821660048201526024015b60405180910390fd5b73ffffffffffffffffffffffffffffffffffffffff818116600090815260208181526040808320898452825280832080547fffffffffffffffffffffffff000000000000000000000000000000000000000016948b1694909417909355825160018082528185019094529192908281019080368337019050509050818160008151811061048a5761048a611f2b565b73ffffffffffffffffffffffffffffffffffffffff929092166020928302919091019091015260408051600180825281830190925260009181602001602082028036833701905050905086816000815181106104e8576104e8611f2b565b6020026020010181815250508773ffffffffffffffffffffffffffffffffffffffff167fb8cbb1e4dca5fbc06a0bf84587240c8a2fd00777129726d23014fba5841d5597838360405161053c929190611f5a565b60405180910390a2507f150b7a020000000000000000000000000000000000000000000000000000000098975050505050505050565b61058b61057d611205565b61058561120f565b9061123d565b73ffffffffffffffffffffffffffffffffffffffff81166105f0576040517fc683945e00000000000000000000000000000000000000000000000000000000815273ffffffffffffffffffffffffffffffffffffffff821660048201526024016103f2565b60405173ffffffffffffffffffffffffffffffffffffffff8216907fe36f26ee49ead4b9b9d3238ae6fb56ff65903ea161dbb9e98c40300fd0d148af90600090a273ffffffffffffffffffffffffffffffffffffffff16600081815260016020526040902080547fffffffffffffffffffffffff0000000000000000000000000000000000000000169091179055565b36600061068b6112ac565b915091509091565b61069e61057d611205565b8483811415806106ae5750808214155b156106e5576040517f6582533600000000000000000000000000000000000000000000000000000000815260040160405180910390fd5b60005b8181101561077f5761077788888381811061070557610705611f2b565b905060200201602081019061071a9190611cc2565b85858481811061072c5761072c611f2b565b9050602002013588888581811061074557610745611f2b565b905060200201602081019061075a9190611cc2565b73ffffffffffffffffffffffffffffffffffffffff1691906112b7565b6001016106e8565b5050505050505050565b60006107b061079661120f565b5473ffffffffffffffffffffffffffffffffffffffff1690565b905090565b6107c061057d611205565b828581146107fa576040517f6582533600000000000000000000000000000000000000000000000000000000815260040160405180910390fd5b818114610833576040517f6582533600000000000000000000000000000000000000000000000000000000815260040160405180910390fd5b60005b8181101561077f57600088888381811061085257610852611f2b565b90506020020160208101906108679190611cc2565b9050600087878481811061087d5761087d611f2b565b90506020020160208101906108929190611cc2565b90508060008787868181106108a9576108a9611f2b565b73ffffffffffffffffffffffffffffffffffffffff85811660009081526020818152604080832094820296909601358083529390529390932054909350909116159050610941576040517f052ca4a300000000000000000000000000000000000000000000000000000000815273ffffffffffffffffffffffffffffffffffffffff83166004820152602481018290526044016103f2565b6040517f42842e0e00000000000000000000000000000000000000000000000000000000815230600482015273ffffffffffffffffffffffffffffffffffffffff8581166024830152604482018390528416906342842e0e90606401600060405180830381600087803b1580156109b757600080fd5b505af11580156109cb573d6000803e3d6000fd5b5050505050505050806001019050610836565b600280546109eb90611feb565b80601f0160208091040260200160405190810160405280929190818152602001828054610a1790611feb565b8015610a645780601f10610a3957610100808354040283529160200191610a64565b820191906000526020600020905b815481529060010190602001808311610a4757829003601f168201915b505050505081565b82818114610aa6576040517f6582533600000000000000000000000000000000000000000000000000000000815260040160405180910390fd5b6000610ab0611205565b905060005b82811015610c73576000878783818110610ad157610ad1611f2b565b9050602002016020810190610ae69190611cc2565b90506000868684818110610afc57610afc611f2b565b73ffffffffffffffffffffffffffffffffffffffff80861660009081526020818152604080832094820296909601358083529390529390932054909350821691861682149050610b97576040517f37a5157b00000000000000000000000000000000000000000000000000000000815273ffffffffffffffffffffffffffffffffffffffff84166004820152602481018390526044016103f2565b73ffffffffffffffffffffffffffffffffffffffff8381166000818152602081815260408083208784529091529081902080547fffffffffffffffffffffffff0000000000000000000000000000000000000000169055517f42842e0e00000000000000000000000000000000000000000000000000000000815230600482015291831660248301526044820184905284916342842e0e90606401600060405180830381600087803b158015610c4c57600080fd5b505af1158015610c60573d6000803e3d6000fd5b5050505050505050806001019050610ab5565b508073ffffffffffffffffffffffffffffffffffffffff167f78c340d4ad128ce699aee749013d7fa1512cfb434be2b83c3ce5d99069e026f687878787604051610cc0949392919061203e565b60405180910390a2505050505050565b610cdb61057d611205565b73ffffffffffffffffffffffffffffffffffffffff81811660009081526001602052604090205416610d51576040517fc683945e00000000000000000000000000000000000000000000000000000000815273ffffffffffffffffffffffffffffffffffffffff821660048201526024016103f2565b60405173ffffffffffffffffffffffffffffffffffffffff8216907fcc1241c30a6f8af5ff3bfd2f805b5a7602526c2250d016ae4cfb639889f6d71990600090a273ffffffffffffffffffffffffffffffffffffffff16600090815260016020526040902080547fffffffffffffffffffffffff0000000000000000000000000000000000000000169055565b82818114610e18576040517f6582533600000000000000000000000000000000000000000000000000000000815260040160405180910390fd5b6000610e22611205565b905060005b82811015610fd3576000878783818110610e4357610e43611f2b565b9050602002016020810190610e589190611cc2565b90506000868684818110610e6e57610e6e611f2b565b73ffffffffffffffffffffffffffffffffffffffff8581166000908152600160209081526040909120549202939093013593509091169050610ef4576040517fc683945e00000000000000000000000000000000000000000000000000000000815273ffffffffffffffffffffffffffffffffffffffff831660048201526024016103f2565b73ffffffffffffffffffffffffffffffffffffffff8281166000818152602081815260408083208684529091529081902080547fffffffffffffffffffffffff0000000000000000000000000000000000000000169388169384179055517f23b872dd000000000000000000000000000000000000000000000000000000008152600481019290925230602483015260448201839052906323b872dd90606401600060405180830381600087803b158015610fae57600080fd5b505af1158015610fc2573d6000803e3d6000fd5b505050505050806001019050610e27565b508073ffffffffffffffffffffffffffffffffffffffff167fb8cbb1e4dca5fbc06a0bf84587240c8a2fd00777129726d23014fba5841d559787878787604051610cc0949392919061203e565b61103b61102b611205565b8261103461120f565b9190611349565b50565b61104961057d611205565b82818114611083576040517f6582533600000000000000000000000000000000000000000000000000000000815260040160405180910390fd5b60005b818110156110f5576110ed8484838181106110a3576110a3611f2b565b905060200201358787848181106110bc576110bc611f2b565b90506020020160208101906110d19190611cc2565b73ffffffffffffffffffffffffffffffffffffffff169061145e565b600101611086565b505050505050565b60008061037960017fca9d3e17f264b0f3984e2634e94adb37fa3e6a8103f06aeae6fa59e21c769f5e6120e2565b60007c01000000000000000000000000000000000000000000000000000000007fffffffff0000000000000000000000000000000000000000000000000000000083160161117b57506000610379565b7ffe003659000000000000000000000000000000000000000000000000000000007fffffffff000000000000000000000000000000000000000000000000000000008316016111cc57506001610379565b507fffffffff00000000000000000000000000000000000000000000000000000000166000908152602091909152604090205460ff1690565b60006107b06115b8565b60008061037960017fc9ed16f33ab3a66c84bfd83099ccb2a8845871e2e1c1928f63797152f0fd54cd6120e2565b815473ffffffffffffffffffffffffffffffffffffffff8281169116146112a8576040517f2ef4875e00000000000000000000000000000000000000000000000000000000815273ffffffffffffffffffffffffffffffffffffffff821660048201526024016103f2565b5050565b36600061068b6116ff565b6040805173ffffffffffffffffffffffffffffffffffffffff8416602482015260448082018490528251808303909101815260649091019091526020810180517bffffffffffffffffffffffffffffffffffffffffffffffffffffffff167fa9059cbb00000000000000000000000000000000000000000000000000000000179052611344908490611869565b505050565b825473ffffffffffffffffffffffffffffffffffffffff90811690831681146113b6576040517f2ef4875e00000000000000000000000000000000000000000000000000000000815273ffffffffffffffffffffffffffffffffffffffff841660048201526024016103f2565b8173ffffffffffffffffffffffffffffffffffffffff168173ffffffffffffffffffffffffffffffffffffffff16146114585783547fffffffffffffffffffffffff00000000000000000000000000000000000000001673ffffffffffffffffffffffffffffffffffffffff8381169182178655604051908316907f8be0079c531659141344cd1fd0a4f28419497f9722a3daafe3b4186f6b6457e090600090a35b50505050565b804710156114c8576040517f08c379a000000000000000000000000000000000000000000000000000000000815260206004820152601d60248201527f416464726573733a20696e73756666696369656e742062616c616e636500000060448201526064016103f2565b60008273ffffffffffffffffffffffffffffffffffffffff168260405160006040518083038185875af1925050503d8060008114611522576040519150601f19603f3d011682016040523d82523d6000602084013e611527565b606091505b5050905080611344576040517f08c379a000000000000000000000000000000000000000000000000000000000815260206004820152603a60248201527f416464726573733a20756e61626c6520746f2073656e642076616c75652c207260448201527f6563697069656e74206d6179206861766520726576657274656400000000000060648201526084016103f2565b6000333214806115c85750601836105b156115d257503390565b7fffffffffffffffffffffffffffffffffffffffffffffffffffffffffffffffec36013560601c7f000000000000000000000000000000000000000000000000000000000000000073ffffffffffffffffffffffffffffffffffffffff163314806116ee57506040517f8929a8ca00000000000000000000000000000000000000000000000000000000815273ffffffffffffffffffffffffffffffffffffffff82811660048301523360248301527f00000000000000000000000000000000000000000000000000000000000000001690638929a8ca90604401602060405180830381865afa1580156116ca573d6000803e3d6000fd5b505050506040513d601f19601f820116820180604052508101906116ee919061211c565b156116f857919050565b3391505090565b366000333214806117105750601836105b1561171e5750600091369150565b3373ffffffffffffffffffffffffffffffffffffffff7f0000000000000000000000000000000000000000000000000000000000000000161480611853575073ffffffffffffffffffffffffffffffffffffffff7f000000000000000000000000000000000000000000000000000000000000000016638929a8ca367fffffffffffffffffffffffffffffffffffffffffffffffffffffffffffffffec013560601c6040517fffffffff0000000000000000000000000000000000000000000000000000000060e084901b16815273ffffffffffffffffffffffffffffffffffffffff9091166004820152336024820152604401602060405180830381865afa15801561182f573d6000803e3d6000fd5b505050506040513d601f19601f82011682018060405250810190611853919061211c565b156118605761068b611978565b50600091369150565b60006118cb826040518060400160405280602081526020017f5361666545524332303a206c6f772d6c6576656c2063616c6c206661696c65648152508573ffffffffffffffffffffffffffffffffffffffff166119a99092919063ffffffff16565b90508051600014806118ec5750808060200190518101906118ec919061211c565b611344576040517f08c379a000000000000000000000000000000000000000000000000000000000815260206004820152602a60248201527f5361666545524332303a204552433230206f7065726174696f6e20646964206e60448201527f6f7420737563636565640000000000000000000000000000000000000000000060648201526084016103f2565b36600061068b7fffffffffffffffffffffffffffffffffffffffffffffffffffffffffffffffec830182848161213e565b60606119b884846000856119c0565b949350505050565b606082471015611a52576040517f08c379a000000000000000000000000000000000000000000000000000000000815260206004820152602660248201527f416464726573733a20696e73756666696369656e742062616c616e636520666f60448201527f722063616c6c000000000000000000000000000000000000000000000000000060648201526084016103f2565b6000808673ffffffffffffffffffffffffffffffffffffffff168587604051611a7b9190612168565b60006040518083038185875af1925050503d8060008114611ab8576040519150601f19603f3d011682016040523d82523d6000602084013e611abd565b606091505b5091509150611ace87838387611ad9565b979650505050505050565b60608315611b6f578251600003611b685773ffffffffffffffffffffffffffffffffffffffff85163b611b68576040517f08c379a000000000000000000000000000000000000000000000000000000000815260206004820152601d60248201527f416464726573733a2063616c6c20746f206e6f6e2d636f6e747261637400000060448201526064016103f2565b50816119b8565b6119b88383815115611b845781518083602001fd5b806040517f08c379a00000000000000000000000000000000000000000000000000000000081526004016103f29190611eac565b600060208284031215611bca57600080fd5b81357fffffffff0000000000000000000000000000000000000000000000000000000081168114611bfa57600080fd5b9392505050565b73ffffffffffffffffffffffffffffffffffffffff8116811461103b57600080fd5b600080600080600060808688031215611c3b57600080fd5b8535611c4681611c01565b94506020860135611c5681611c01565b935060408601359250606086013567ffffffffffffffff80821115611c7a57600080fd5b818801915088601f830112611c8e57600080fd5b813581811115611c9d57600080fd5b896020828501011115611caf57600080fd5b9699959850939650602001949392505050565b600060208284031215611cd457600080fd5b8135611bfa81611c01565b60208152816020820152818360408301376000818301604090810191909152601f9092017fffffffffffffffffffffffffffffffffffffffffffffffffffffffffffffffe0160101919050565b60008060408385031215611d3f57600080fd5b8235611d4a81611c01565b946020939093013593505050565b60008083601f840112611d6a57600080fd5b50813567ffffffffffffffff811115611d8257600080fd5b6020830191508360208260051b8501011115611d9d57600080fd5b9250929050565b60008060008060008060608789031215611dbd57600080fd5b863567ffffffffffffffff80821115611dd557600080fd5b611de18a838b01611d58565b90985096506020890135915080821115611dfa57600080fd5b611e068a838b01611d58565b90965094506040890135915080821115611e1f57600080fd5b50611e2c89828a01611d58565b979a9699509497509295939492505050565b60005b83811015611e59578181015183820152602001611e41565b50506000910152565b60008151808452611e7a816020860160208601611e3e565b601f017fffffffffffffffffffffffffffffffffffffffffffffffffffffffffffffffe0169290920160200192915050565b602081526000611bfa6020830184611e62565b60008060008060408587031215611ed557600080fd5b843567ffffffffffffffff80821115611eed57600080fd5b611ef988838901611d58565b90965094506020870135915080821115611f1257600080fd5b50611f1f87828801611d58565b95989497509550505050565b7f4e487b7100000000000000000000000000000000000000000000000000000000600052603260045260246000fd5b604080825283519082018190526000906020906060840190828701845b82811015611fa957815173ffffffffffffffffffffffffffffffffffffffff1684529284019290840190600101611f77565b5050508381038285015284518082528583019183019060005b81811015611fde57835183529284019291840191600101611fc2565b5090979650505050505050565b600181811c90821680611fff57607f821691505b602082108103612038577f4e487b7100000000000000000000000000000000000000000000000000000000600052602260045260246000fd5b50919050565b6040808252810184905260008560608301825b8781101561208e57823561206481611c01565b73ffffffffffffffffffffffffffffffffffffffff16825260209283019290910190600101612051565b5083810360208501528481527f07ffffffffffffffffffffffffffffffffffffffffffffffffffffffffffffff8511156120c757600080fd5b8460051b915081866020830137016020019695505050505050565b81810381811115610379577f4e487b7100000000000000000000000000000000000000000000000000000000600052601160045260246000fd5b60006020828403121561212e57600080fd5b81518015158114611bfa57600080fd5b6000808585111561214e57600080fd5b8386111561215b57600080fd5b5050820193919092039150565b6000825161217a818460208701611e3e565b919091019291505056fea2646970667358221220ae91eee3c35711f56b86873eedf427151a27c5fdafc3a1a76f670fe7d41887a464736f6c63430008160033",
  "linkReferences": {},
  "deployedLinkReferences": {}
}