{
  "_format": "hh-sol-artifact-1",
  "contractName": "EDULand",
  "sourceName": "contracts/land/EDULand.sol",
  "abi": [
    {
      "inputs": [
        {
          "internalType": "string",
          "name": "tokenName",
          "type": "string"
        },
        {
          "internalType": "string",
          "name": "tokenSymbol",
          "type": "string"
        },
        {
          "internalType": "contract ITokenMetadataResolver",
          "name": "metadataResolver",
          "type": "address"
        }
      ],
      "stateMutability": "nonpayable",
      "type": "constructor"
    },
    {
      "inputs": [],
      "name": "ApprovalNotAllowed",
      "type": "error"
    },
    {
      "inputs": [],
      "name": "ERC721BalanceOfAddressZero",
      "type": "error"
    },
    {
      "inputs": [
        {
          "internalType": "uint256",
          "name": "tokenId",
          "type": "uint256"
        }
      ],
      "name": "ERC721ExistingToken",
      "type": "error"
    },
    {
      "inputs": [],
      "name": "ERC721MintToAddressZero",
      "type": "error"
    },
    {
      "inputs": [
        {
          "internalType": "uint256",
          "name": "tokenId",
          "type": "uint256"
        }
      ],
      "name": "ERC721NonExistingToken",
      "type": "error"
    },
    {
      "inputs": [
        {
          "internalType": "address",
          "name": "account",
          "type": "address"
        },
        {
          "internalType": "uint256",
          "name": "tokenId",
          "type": "uint256"
        }
      ],
      "name": "ERC721NonOwnedToken",
      "type": "error"
    },
    {
      "inputs": [
        {
          "internalType": "address",
          "name": "recipient",
          "type": "address"
        },
        {
          "internalType": "uint256",
          "name": "tokenId",
          "type": "uint256"
        }
      ],
      "name": "ERC721SafeTransferRejected",
      "type": "error"
    },
    {
      "inputs": [],
      "name": "ERC721TransferToAddressZero",
      "type": "error"
    },
    {
      "inputs": [],
      "name": "IllegalInterfaceId",
      "type": "error"
    },
    {
      "inputs": [],
      "name": "InconsistentArrayLengths",
      "type": "error"
    },
    {
      "inputs": [
        {
          "internalType": "address",
          "name": "account",
          "type": "address"
        }
      ],
      "name": "NotContractOwner",
      "type": "error"
    },
    {
      "inputs": [
        {
          "internalType": "bytes32",
          "name": "role",
          "type": "bytes32"
        },
        {
          "internalType": "address",
          "name": "account",
          "type": "address"
        }
      ],
      "name": "NotRoleHolder",
      "type": "error"
    },
    {
      "anonymous": false,
      "inputs": [
        {
          "indexed": true,
          "internalType": "address",
          "name": "previousOwner",
          "type": "address"
        },
        {
          "indexed": true,
          "internalType": "address",
          "name": "newOwner",
          "type": "address"
        }
      ],
      "name": "OwnershipTransferred",
      "type": "event"
    },
    {
      "anonymous": false,
      "inputs": [
        {
          "indexed": false,
          "internalType": "bytes32",
          "name": "role",
          "type": "bytes32"
        },
        {
          "indexed": false,
          "internalType": "address",
          "name": "account",
          "type": "address"
        },
        {
          "indexed": false,
          "internalType": "address",
          "name": "operator",
          "type": "address"
        }
      ],
      "name": "RoleGranted",
      "type": "event"
    },
    {
      "anonymous": false,
      "inputs": [
        {
          "indexed": false,
          "internalType": "bytes32",
          "name": "role",
          "type": "bytes32"
        },
        {
          "indexed": false,
          "internalType": "address",
          "name": "account",
          "type": "address"
        },
        {
          "indexed": false,
          "internalType": "address",
          "name": "operator",
          "type": "address"
        }
      ],
      "name": "RoleRevoked",
      "type": "event"
    },
    {
      "anonymous": false,
      "inputs": [
        {
          "indexed": true,
          "internalType": "address",
          "name": "from",
          "type": "address"
        },
        {
          "indexed": true,
          "internalType": "address",
          "name": "to",
          "type": "address"
        },
        {
          "indexed": true,
          "internalType": "uint256",
          "name": "tokenId",
          "type": "uint256"
        }
      ],
      "name": "Transfer",
      "type": "event"
    },
    {
      "inputs": [],
      "name": "OPERATOR_ROLE",
      "outputs": [
        {
          "internalType": "bytes32",
          "name": "",
          "type": "bytes32"
        }
      ],
      "stateMutability": "view",
      "type": "function"
    },
    {
      "inputs": [
        {
          "internalType": "address",
          "name": "",
          "type": "address"
        },
        {
          "internalType": "uint256",
          "name": "",
          "type": "uint256"
        }
      ],
      "name": "approve",
      "outputs": [],
      "stateMutability": "pure",
      "type": "function"
    },
    {
      "inputs": [
        {
          "internalType": "address",
          "name": "owner",
          "type": "address"
        }
      ],
      "name": "balanceOf",
      "outputs": [
        {
          "internalType": "uint256",
          "name": "balance",
          "type": "uint256"
        }
      ],
      "stateMutability": "view",
      "type": "function"
    },
    {
      "inputs": [
        {
          "internalType": "address",
          "name": "from",
          "type": "address"
        },
        {
          "internalType": "uint256[]",
          "name": "tokenIds",
          "type": "uint256[]"
        }
      ],
      "name": "batchBurnFrom",
      "outputs": [],
      "stateMutability": "nonpayable",
      "type": "function"
    },
    {
      "inputs": [
        {
          "internalType": "address",
          "name": "to",
          "type": "address"
        },
        {
          "internalType": "uint256[]",
          "name": "tokenIds",
          "type": "uint256[]"
        }
      ],
      "name": "batchMint",
      "outputs": [],
      "stateMutability": "nonpayable",
      "type": "function"
    },
    {
      "inputs": [
        {
          "internalType": "address",
          "name": "from",
          "type": "address"
        },
        {
          "internalType": "address",
          "name": "to",
          "type": "address"
        },
        {
          "internalType": "uint256[]",
          "name": "tokenIds",
          "type": "uint256[]"
        }
      ],
      "name": "batchTransferFrom",
      "outputs": [],
      "stateMutability": "nonpayable",
      "type": "function"
    },
    {
      "inputs": [
        {
          "internalType": "address",
          "name": "from",
          "type": "address"
        },
        {
          "internalType": "uint256",
          "name": "tokenId",
          "type": "uint256"
        }
      ],
      "name": "burnFrom",
      "outputs": [],
      "stateMutability": "nonpayable",
      "type": "function"
    },
    {
      "inputs": [
        {
          "internalType": "uint256",
          "name": "tokenId",
          "type": "uint256"
        }
      ],
      "name": "getApproved",
      "outputs": [
        {
          "internalType": "address",
          "name": "approved",
          "type": "address"
        }
      ],
      "stateMutability": "view",
      "type": "function"
    },
    {
      "inputs": [
        {
          "internalType": "bytes32",
          "name": "role",
          "type": "bytes32"
        },
        {
          "internalType": "address",
          "name": "account",
          "type": "address"
        }
      ],
      "name": "grantRole",
      "outputs": [],
      "stateMutability": "nonpayable",
      "type": "function"
    },
    {
      "inputs": [
        {
          "internalType": "bytes32",
          "name": "role",
          "type": "bytes32"
        },
        {
          "internalType": "address",
          "name": "account",
          "type": "address"
        }
      ],
      "name": "hasRole",
      "outputs": [
        {
          "internalType": "bool",
          "name": "hasRole_",
          "type": "bool"
        }
      ],
      "stateMutability": "view",
      "type": "function"
    },
    {
      "inputs": [
        {
          "internalType": "address",
          "name": "owner",
          "type": "address"
        },
        {
          "internalType": "address",
          "name": "operator",
          "type": "address"
        }
      ],
      "name": "isApprovedForAll",
      "outputs": [
        {
          "internalType": "bool",
          "name": "approvedForAll",
          "type": "bool"
        }
      ],
      "stateMutability": "view",
      "type": "function"
    },
    {
      "inputs": [],
      "name": "metadataResolver",
      "outputs": [
        {
          "internalType": "contract ITokenMetadataResolver",
          "name": "tokenMetadataResolver",
          "type": "address"
        }
      ],
      "stateMutability": "view",
      "type": "function"
    },
    {
      "inputs": [
        {
          "internalType": "address",
          "name": "to",
          "type": "address"
        },
        {
          "internalType": "uint256",
          "name": "tokenId",
          "type": "uint256"
        }
      ],
      "name": "mint",
      "outputs": [],
      "stateMutability": "nonpayable",
      "type": "function"
    },
    {
      "inputs": [],
      "name": "name",
      "outputs": [
        {
          "internalType": "string",
          "name": "tokenName",
          "type": "string"
        }
      ],
      "stateMutability": "view",
      "type": "function"
    },
    {
      "inputs": [],
      "name": "owner",
      "outputs": [
        {
          "internalType": "address",
          "name": "",
          "type": "address"
        }
      ],
      "stateMutability": "view",
      "type": "function"
    },
    {
      "inputs": [
        {
          "internalType": "uint256",
          "name": "tokenId",
          "type": "uint256"
        }
      ],
      "name": "ownerOf",
      "outputs": [
        {
          "internalType": "address",
          "name": "tokenOwner",
          "type": "address"
        }
      ],
      "stateMutability": "view",
      "type": "function"
    },
    {
      "inputs": [
        {
          "internalType": "address[]",
          "name": "accounts",
          "type": "address[]"
        },
        {
          "internalType": "contract IERC20[]",
          "name": "tokens",
          "type": "address[]"
        },
        {
          "internalType": "uint256[]",
          "name": "amounts",
          "type": "uint256[]"
        }
      ],
      "name": "recoverERC20s",
      "outputs": [],
      "stateMutability": "nonpayable",
      "type": "function"
    },
    {
      "inputs": [
        {
          "internalType": "address[]",
          "name": "accounts",
          "type": "address[]"
        },
        {
          "internalType": "contract IERC721[]",
          "name": "contracts",
          "type": "address[]"
        },
        {
          "internalType": "uint256[]",
          "name": "tokenIds",
          "type": "uint256[]"
        }
      ],
      "name": "recoverERC721s",
      "outputs": [],
      "stateMutability": "nonpayable",
      "type": "function"
    },
    {
      "inputs": [
        {
          "internalType": "address payable[]",
          "name": "accounts",
          "type": "address[]"
        },
        {
          "internalType": "uint256[]",
          "name": "amounts",
          "type": "uint256[]"
        }
      ],
      "name": "recoverETH",
      "outputs": [],
      "stateMutability": "nonpayable",
      "type": "function"
    },
    {
      "inputs": [
        {
          "internalType": "bytes32",
          "name": "role",
          "type": "bytes32"
        }
      ],
      "name": "renounceRole",
      "outputs": [],
      "stateMutability": "nonpayable",
      "type": "function"
    },
    {
      "inputs": [
        {
          "internalType": "bytes32",
          "name": "role",
          "type": "bytes32"
        },
        {
          "internalType": "address",
          "name": "account",
          "type": "address"
        }
      ],
      "name": "revokeRole",
      "outputs": [],
      "stateMutability": "nonpayable",
      "type": "function"
    },
    {
      "inputs": [
        {
          "internalType": "address",
          "name": "to",
          "type": "address"
        },
        {
          "internalType": "uint256",
          "name": "tokenId",
          "type": "uint256"
        },
        {
          "internalType": "bytes",
          "name": "data",
          "type": "bytes"
        }
      ],
      "name": "safeMint",
      "outputs": [],
      "stateMutability": "nonpayable",
      "type": "function"
    },
    {
      "inputs": [
        {
          "internalType": "address",
          "name": "from",
          "type": "address"
        },
        {
          "internalType": "address",
          "name": "to",
          "type": "address"
        },
        {
          "internalType": "uint256",
          "name": "tokenId",
          "type": "uint256"
        }
      ],
      "name": "safeTransferFrom",
      "outputs": [],
      "stateMutability": "nonpayable",
      "type": "function"
    },
    {
      "inputs": [
        {
          "internalType": "address",
          "name": "from",
          "type": "address"
        },
        {
          "internalType": "address",
          "name": "to",
          "type": "address"
        },
        {
          "internalType": "uint256",
          "name": "tokenId",
          "type": "uint256"
        },
        {
          "internalType": "bytes",
          "name": "data",
          "type": "bytes"
        }
      ],
      "name": "safeTransferFrom",
      "outputs": [],
      "stateMutability": "nonpayable",
      "type": "function"
    },
    {
      "inputs": [
        {
          "internalType": "address",
          "name": "",
          "type": "address"
        },
        {
          "internalType": "bool",
          "name": "",
          "type": "bool"
        }
      ],
      "name": "setApprovalForAll",
      "outputs": [],
      "stateMutability": "pure",
      "type": "function"
    },
    {
      "inputs": [
        {
          "internalType": "bytes4",
          "name": "interfaceId",
          "type": "bytes4"
        }
      ],
      "name": "supportsInterface",
      "outputs": [
        {
          "internalType": "bool",
          "name": "",
          "type": "bool"
        }
      ],
      "stateMutability": "view",
      "type": "function"
    },
    {
      "inputs": [],
      "name": "symbol",
      "outputs": [
        {
          "internalType": "string",
          "name": "tokenSymbol",
          "type": "string"
        }
      ],
      "stateMutability": "view",
      "type": "function"
    },
    {
      "inputs": [
        {
          "internalType": "uint256",
          "name": "tokenId",
          "type": "uint256"
        }
      ],
      "name": "tokenURI",
      "outputs": [
        {
          "internalType": "string",
          "name": "uri",
          "type": "string"
        }
      ],
      "stateMutability": "view",
      "type": "function"
    },
    {
      "inputs": [
        {
          "internalType": "address",
          "name": "from",
          "type": "address"
        },
        {
          "internalType": "address",
          "name": "to",
          "type": "address"
        },
        {
          "internalType": "uint256",
          "name": "tokenId",
          "type": "uint256"
        }
      ],
      "name": "transferFrom",
      "outputs": [],
      "stateMutability": "nonpayable",
      "type": "function"
    },
    {
      "inputs": [
        {
          "internalType": "address",
          "name": "newOwner",
          "type": "address"
        }
      ],
      "name": "transferOwnership",
      "outputs": [],
      "stateMutability": "nonpayable",
      "type": "function"
    }
  ],
  "bytecode": "0x60806040523480156200001157600080fd5b50604051620035923803806200359283398101604081905262000034916200039f565b338383836200005283838362000049620000ad565b929190620000e3565b6200005c6200012a565b5050506200007b81620000746200014c60201b60201c565b906200017c565b5062000086620001ef565b6200009062000207565b6200009a6200021f565b620000a462000237565b505050620005ab565b600080620000dd60017f7ea68fd2dcf1c056b94db6a0a537aa80d26fa9ab1eacd85da1ba0b61b7e7a8a56200042c565b92915050565b83620000f08482620004df565b5060018401620001018382620004df565b5060029390930180546001600160a01b0319166001600160a01b03909416939093179092555050565b6200014a635b5e139f60e01b6001620001426200024a565b91906200027a565b565b600080620000dd60017fc9ed16f33ab3a66c84bfd83099ccb2a8845871e2e1c1928f63797152f0fd54cd6200042c565b6001600160a01b03811615620001d35781546001600160a01b0319166001600160a01b03821690811783556040516000907f8be0079c531659141344cd1fd0a4f28419497f9722a3daafe3b4186f6b6457e0908290a35b620001eb6307f5828d60e41b6001620001426200024a565b5050565b6200014a6380ac58cd60e01b6001620001426200024a565b6200014a638e773e1360e01b6001620001426200024a565b6200014a638b8b4ef560e01b6001620001426200024a565b6200014a63f3993d1160e01b6001620001425b600080620000dd60017fca9d3e17f264b0f3984e2634e94adb37fa3e6a8103f06aeae6fa59e21c769f5e6200042c565b600160e01b6001600160e01b0319831601620002a9576040516372c683bb60e01b815260040160405180910390fd5b6001600160e01b03199190911660009081526020929092526040909120805460ff1916911515919091179055565b634e487b7160e01b600052604160045260246000fd5b600082601f830112620002ff57600080fd5b81516001600160401b03808211156200031c576200031c620002d7565b604051601f8301601f19908116603f01168101908282118183101715620003475762000347620002d7565b81604052838152602092508660208588010111156200036557600080fd5b600091505b838210156200038957858201830151818301840152908201906200036a565b6000602085830101528094505050505092915050565b600080600060608486031215620003b557600080fd5b83516001600160401b0380821115620003cd57600080fd5b620003db87838801620002ed565b94506020860151915080821115620003f257600080fd5b506200040186828701620002ed565b604086015190935090506001600160a01b03811681146200042157600080fd5b809150509250925092565b81810381811115620000dd57634e487b7160e01b600052601160045260246000fd5b600181811c908216806200046357607f821691505b6020821081036200048457634e487b7160e01b600052602260045260246000fd5b50919050565b601f821115620004da576000816000526020600020601f850160051c81016020861015620004b55750805b601f850160051c820191505b81811015620004d657828155600101620004c1565b5050505b505050565b81516001600160401b03811115620004fb57620004fb620002d7565b62000513816200050c84546200044e565b846200048a565b602080601f8311600181146200054b5760008415620005325750858301515b600019600386901b1c1916600185901b178555620004d6565b600085815260208120601f198616915b828110156200057c578886015182559484019460019091019084016200055b565b50858210156200059b5787850151600019600388901b60f8161c191681555b5050505050600190811b01905550565b612fd780620005bb6000396000f3fe608060405234801561001057600080fd5b50600436106101da5760003560e01c80638da5cb5b11610104578063c87b56dd116100a2578063f2fde38b11610071578063f2fde38b146103f3578063f3993d1114610406578063f5b541a614610419578063f7ba94bd1461044057600080fd5b8063c87b56dd146103a7578063d547741f146103ba578063e985e9c5146103cd578063f2472965146103e057600080fd5b8063a0c76f62116100de578063a0c76f621461036b578063a22cb46514610373578063b88d4fde14610381578063c3666c361461039457600080fd5b80638da5cb5b1461034857806391d148541461035057806395d89b411461036357600080fd5b806342842e0e1161017c57806373c8a9581161014b57806373c8a958146102fc57806379cc67901461030f5780638832e6e3146103225780638bb9c5bf1461033557600080fd5b806342842e0e146102a25780634684d7e9146102b55780636352211e146102c857806370a08231146102db57600080fd5b8063095ea7b3116101b8578063095ea7b31461025457806323b872dd146102695780632f2ff15d1461027c57806340c10f191461028f57600080fd5b806301ffc9a7146101df57806306fdde0314610207578063081812fc1461021c575b600080fd5b6101f26101ed3660046127d6565b610453565b60405190151581526020015b60405180910390f35b61020f61046d565b6040516101fe9190612861565b61022f61022a366004612874565b61047c565b60405173ffffffffffffffffffffffffffffffffffffffff90911681526020016101fe565b6102676102623660046128af565b610490565b005b6102676102773660046128db565b6104c2565b61026761028a36600461291c565b6104d5565b61026761029d3660046128af565b610503565b6102676102b03660046128db565b610550565b6102676102c3366004612998565b6106aa565b61022f6102d6366004612874565b61071c565b6102ee6102e93660046129ed565b610730565b6040519081526020016101fe565b61026761030a366004612a0a565b610744565b61026761031d3660046128af565b61083c565b610267610330366004612ae6565b610a02565b610267610343366004612874565b610a86565b61022f610a9d565b6101f261035e36600461291c565b610ac4565b61020f610b0f565b61022f610b19565b610267610262366004612b50565b61026761038f366004612b7e565b610b43565b6102676103a2366004612a0a565b610c8c565b61020f6103b5366004612874565b610e02565b6102676103c836600461291c565b610e25565b6101f26103db366004612bf1565b610e48565b6102676103ee366004612998565b610e96565b6102676104013660046129ed565b611096565b610267610414366004612c1f565b6110aa565b6102ee7f97667070c54ef182b0f5858b034beac1b6f3089aa2d3188bb1e8929f4fa9b92981565b61026761044e366004612c78565b611324565b6000610467826104616113d9565b90611407565b92915050565b60606104776114e1565b905090565b60006104678261048a6114f3565b90611521565b6040517f0860716e00000000000000000000000000000000000000000000000000000000815260040160405180910390fd5b336104cf818585856115d5565b50505050565b336104e8816104e2611833565b90611861565b6104fe8383836104f66118cc565b9291906118fa565b505050565b6105387f97667070c54ef182b0f5858b034beac1b6f3089aa2d3188bb1e8929f4fa9b929335b6105316118cc565b91906119d0565b61054c82826105456114f3565b9190611a56565b5050565b3361055d818585856115d5565b73ffffffffffffffffffffffffffffffffffffffff83163b156104cf576040517f150b7a020000000000000000000000000000000000000000000000000000000080825273ffffffffffffffffffffffffffffffffffffffff8381166004840152868116602484015260448301859052608060648401526000608484015290919085169063150b7a029060a4016020604051808303816000875af1158015610609573d6000803e3d6000fd5b505050506040513d601f19601f8201168201806040525081019061062d9190612cd8565b7fffffffff0000000000000000000000000000000000000000000000000000000016146104cf576040517fc215a7a100000000000000000000000000000000000000000000000000000000815273ffffffffffffffffffffffffffffffffffffffff84166004820152602481018390526044015b60405180910390fd5b6106d47f97667070c54ef182b0f5858b034beac1b6f3089aa2d3188bb1e8929f4fa9b92933610529565b6104fe8383838080602002602001604051908101604052809392919081815260200183836020028082843760009201919091525061071592506114f3915050565b9190611b70565b60006104678261072a6114f3565b90611ce8565b60006104678261073e6114f3565b90611d51565b610751335b6104e2611833565b8483811415806107615750808214155b15610798576040517f6582533600000000000000000000000000000000000000000000000000000000815260040160405180910390fd5b60005b818110156108325761082a8888838181106107b8576107b8612cf5565b90506020020160208101906107cd91906129ed565b8585848181106107df576107df612cf5565b905060200201358888858181106107f8576107f8612cf5565b905060200201602081019061080d91906129ed565b73ffffffffffffffffffffffffffffffffffffffff169190611dcd565b60010161079b565b5050505050505050565b6108667f97667070c54ef182b0f5858b034beac1b6f3089aa2d3188bb1e8929f4fa9b92933610529565b60006108706114f3565b60008381526020829052604090205490915073ffffffffffffffffffffffffffffffffffffffff81166108d2576040517fdd560475000000000000000000000000000000000000000000000000000000008152600481018490526024016106a1565b8373ffffffffffffffffffffffffffffffffffffffff168173ffffffffffffffffffffffffffffffffffffffff1614610956576040517f14dbb53600000000000000000000000000000000000000000000000000000000815273ffffffffffffffffffffffffffffffffffffffff85166004820152602481018490526044016106a1565b6000838152602083815260408083207fdead000000000000000000000000000000000000000000000000000000000000905573ffffffffffffffffffffffffffffffffffffffff87168084526001860190925280832080547fffffffffffffffffffffffffffffffffffffffffffffffffffffffffffffffff01905551859291907fddf252ad1be2c89b69c2b068fc378daa952ba7f163c4a11628f55a4df523b3ef908390a450505050565b33610a307f97667070c54ef182b0f5858b034beac1b6f3089aa2d3188bb1e8929f4fa9b929826105316118cc565b610a7f81868686868080601f016020809104026020016040519081016040528093929190818152602001838380828437600092019190915250610a7692506114f3915050565b93929190611e5a565b5050505050565b610a9a3382610a936118cc565b9190611e90565b50565b6000610477610aaa611833565b5473ffffffffffffffffffffffffffffffffffffffff1690565b6000610b088383610ad36118cc565b60009283526020908152604080842073ffffffffffffffffffffffffffffffffffffffff909316845291905290205460ff1690565b9392505050565b6060610477611f34565b6000610477610b26611f46565b6002015473ffffffffffffffffffffffffffffffffffffffff1690565b33610b50818787876115d5565b73ffffffffffffffffffffffffffffffffffffffff85163b15610c84576040517f150b7a02000000000000000000000000000000000000000000000000000000008082529073ffffffffffffffffffffffffffffffffffffffff87169063150b7a0290610bc99085908b908a908a908a90600401612d24565b6020604051808303816000875af1158015610be8573d6000803e3d6000fd5b505050506040513d601f19601f82011682018060405250810190610c0c9190612cd8565b7fffffffff000000000000000000000000000000000000000000000000000000001614610c84576040517fc215a7a100000000000000000000000000000000000000000000000000000000815273ffffffffffffffffffffffffffffffffffffffff86166004820152602481018590526044016106a1565b505050505050565b610c9533610749565b848381141580610ca55750808214155b15610cdc576040517f6582533600000000000000000000000000000000000000000000000000000000815260040160405180910390fd5b60005b8181101561083257858582818110610cf957610cf9612cf5565b9050602002016020810190610d0e91906129ed565b73ffffffffffffffffffffffffffffffffffffffff166323b872dd308a8a85818110610d3c57610d3c612cf5565b9050602002016020810190610d5191906129ed565b878786818110610d6357610d63612cf5565b6040517fffffffff0000000000000000000000000000000000000000000000000000000060e088901b16815273ffffffffffffffffffffffffffffffffffffffff958616600482015294909316602485015250602090910201356044820152606401600060405180830381600087803b158015610ddf57600080fd5b505af1158015610df3573d6000803e3d6000fd5b50505050806001019050610cdf565b6060610e108261072a6114f3565b506104673083610e1e611f46565b9190611f74565b33610e32816104e2611833565b6104fe838383610e406118cc565b929190612034565b6000610b088383610e576114f3565b919073ffffffffffffffffffffffffffffffffffffffff9182166000908152600393909301602090815260408085209290931684525290205460ff1690565b610ec07f97667070c54ef182b0f5858b034beac1b6f3089aa2d3188bb1e8929f4fa9b92933610529565b6000610eca6114f3565b90508160005b8181101561105a576000858583818110610eec57610eec612cf5565b602090810292909201356000818152928790526040909220549192505073ffffffffffffffffffffffffffffffffffffffff8116610f59576040517fdd560475000000000000000000000000000000000000000000000000000000008152600481018390526024016106a1565b8773ffffffffffffffffffffffffffffffffffffffff168173ffffffffffffffffffffffffffffffffffffffff1614610fdd576040517f14dbb53600000000000000000000000000000000000000000000000000000000815273ffffffffffffffffffffffffffffffffffffffff89166004820152602481018390526044016106a1565b6000828152602086905260408082207fdead00000000000000000000000000000000000000000000000000000000000090555183919073ffffffffffffffffffffffffffffffffffffffff8b16907fddf252ad1be2c89b69c2b068fc378daa952ba7f163c4a11628f55a4df523b3ef908390a45050600101610ed0565b508015610a7f5773ffffffffffffffffffffffffffffffffffffffff851660009081526001830160205260409020805482900390555050505050565b610a9a33826110a3611833565b91906120fe565b6110d47f97667070c54ef182b0f5858b034beac1b6f3089aa2d3188bb1e8929f4fa9b92933610529565b73ffffffffffffffffffffffffffffffffffffffff8316611121576040517f86c8706700000000000000000000000000000000000000000000000000000000815260040160405180910390fd5b600061112b6114f3565b90508160005b8181101561129f57600085858381811061114d5761114d612cf5565b602090810292909201356000818152928790526040909220549192505073ffffffffffffffffffffffffffffffffffffffff81166111ba576040517fdd560475000000000000000000000000000000000000000000000000000000008152600481018390526024016106a1565b8873ffffffffffffffffffffffffffffffffffffffff168173ffffffffffffffffffffffffffffffffffffffff161461123e576040517f14dbb53600000000000000000000000000000000000000000000000000000000815273ffffffffffffffffffffffffffffffffffffffff8a166004820152602481018390526044016106a1565b60008281526020869052604080822073ffffffffffffffffffffffffffffffffffffffff808c16918290559151859391928d16917fddf252ad1be2c89b69c2b068fc378daa952ba7f163c4a11628f55a4df523b3ef91a45050600101611131565b508473ffffffffffffffffffffffffffffffffffffffff168673ffffffffffffffffffffffffffffffffffffffff16141580156112db57508015155b15610c845773ffffffffffffffffffffffffffffffffffffffff808716600090815260018401602052604080822080548590039055918716815220805482019055505050505050565b61132d33610749565b82818114611367576040517f6582533600000000000000000000000000000000000000000000000000000000815260040160405180910390fd5b60005b81811015610c84576113d184848381811061138757611387612cf5565b905060200201358787848181106113a0576113a0612cf5565b90506020020160208101906113b591906129ed565b73ffffffffffffffffffffffffffffffffffffffff1690612212565b60010161136a565b60008061046760017fca9d3e17f264b0f3984e2634e94adb37fa3e6a8103f06aeae6fa59e21c769f5e612da3565b60007c01000000000000000000000000000000000000000000000000000000007fffffffff0000000000000000000000000000000000000000000000000000000083160161145757506000610467565b7ffe003659000000000000000000000000000000000000000000000000000000007fffffffff000000000000000000000000000000000000000000000000000000008316016114a857506001610467565b507fffffffff00000000000000000000000000000000000000000000000000000000166000908152602091909152604090205460ff1690565b60606104776114ee611f46565b61236c565b60008061046760017fddf3ee18ae6d688373c219468f8be446e7ae82215f4779d821c7ea5e8c13c0c1612da3565b60008181526020839052604081205473ffffffffffffffffffffffffffffffffffffffff8116611580576040517fdd560475000000000000000000000000000000000000000000000000000000008152600481018490526024016106a1565b740100000000000000000000000000000000000000008116156115cb575050600081815260028301602052604090205473ffffffffffffffffffffffffffffffffffffffff16610467565b6000915050610467565b6116027f97667070c54ef182b0f5858b034beac1b6f3089aa2d3188bb1e8929f4fa9b929856105316118cc565b73ffffffffffffffffffffffffffffffffffffffff821661164f576040517f86c8706700000000000000000000000000000000000000000000000000000000815260040160405180910390fd5b60006116596114f3565b60008381526020829052604090205490915073ffffffffffffffffffffffffffffffffffffffff81166116bb576040517fdd560475000000000000000000000000000000000000000000000000000000008152600481018490526024016106a1565b8473ffffffffffffffffffffffffffffffffffffffff168173ffffffffffffffffffffffffffffffffffffffff161461173f576040517f14dbb53600000000000000000000000000000000000000000000000000000000815273ffffffffffffffffffffffffffffffffffffffff86166004820152602481018490526044016106a1565b600083815260208390526040902073ffffffffffffffffffffffffffffffffffffffff808616918290558616146117d05773ffffffffffffffffffffffffffffffffffffffff80861660009081526001808501602052604080832080547fffffffffffffffffffffffffffffffffffffffffffffffffffffffffffffffff0190559287168252919020805490910190555b828473ffffffffffffffffffffffffffffffffffffffff168673ffffffffffffffffffffffffffffffffffffffff167fddf252ad1be2c89b69c2b068fc378daa952ba7f163c4a11628f55a4df523b3ef60405160405180910390a4505050505050565b60008061046760017fc9ed16f33ab3a66c84bfd83099ccb2a8845871e2e1c1928f63797152f0fd54cd612da3565b815473ffffffffffffffffffffffffffffffffffffffff82811691161461054c576040517f2ef4875e00000000000000000000000000000000000000000000000000000000815273ffffffffffffffffffffffffffffffffffffffff821660048201526024016106a1565b60008061046760017fc8827d3282af6f37b64c3e9e6f3ac9df286ab0bb0fccd6f8661bf19adb368b23612da3565b60008381526020858152604080832073ffffffffffffffffffffffffffffffffffffffff8616845290915290205460ff166104cf5760008381526020858152604080832073ffffffffffffffffffffffffffffffffffffffff8681168086529184529382902080547fffffffffffffffffffffffffffffffffffffffffffffffffffffffffffffff00166001179055815187815292830152918316918101919091527f2f8788117e7eff1d82e926ec794901d17c78024a50270940304540a733656f0d906060015b60405180910390a150505050565b60008281526020848152604080832073ffffffffffffffffffffffffffffffffffffffff8516845290915290205460ff166104fe576040517f7aa728820000000000000000000000000000000000000000000000000000000081526004810183905273ffffffffffffffffffffffffffffffffffffffff821660248201526044016106a1565b73ffffffffffffffffffffffffffffffffffffffff8216611aa3576040517f7851b9cd00000000000000000000000000000000000000000000000000000000815260040160405180910390fd5b60008181526020849052604090205473ffffffffffffffffffffffffffffffffffffffff1615611b02576040517f753eceac000000000000000000000000000000000000000000000000000000008152600481018290526024016106a1565b60008181526020848152604080832073ffffffffffffffffffffffffffffffffffffffff86169081905580845260018088019093528184208054909301909255518392907fddf252ad1be2c89b69c2b068fc378daa952ba7f163c4a11628f55a4df523b3ef908290a4505050565b73ffffffffffffffffffffffffffffffffffffffff8216611bbd576040517f7851b9cd00000000000000000000000000000000000000000000000000000000815260040160405180910390fd5b805160005b81811015611cb3576000838281518110611bde57611bde612cf5565b60200260200101519050611c1c8660000160008381526020019081526020016000205473ffffffffffffffffffffffffffffffffffffffff16151590565b15611c56576040517f753eceac000000000000000000000000000000000000000000000000000000008152600481018290526024016106a1565b60008181526020879052604080822073ffffffffffffffffffffffffffffffffffffffff88169081905590518392907fddf252ad1be2c89b69c2b068fc378daa952ba7f163c4a11628f55a4df523b3ef908290a450600101611bc2565b5073ffffffffffffffffffffffffffffffffffffffff9092166000908152600190930160205250604090912080549091019055565b60008181526020839052604081205473ffffffffffffffffffffffffffffffffffffffff8116611d47576040517fdd560475000000000000000000000000000000000000000000000000000000008152600481018490526024016106a1565b805b949350505050565b600073ffffffffffffffffffffffffffffffffffffffff8216611da0576040517faefbce4e00000000000000000000000000000000000000000000000000000000815260040160405180910390fd5b5073ffffffffffffffffffffffffffffffffffffffff166000908152600191909101602052604090205490565b6040805173ffffffffffffffffffffffffffffffffffffffff8416602482015260448082018490528251808303909101815260649091019091526020810180517bffffffffffffffffffffffffffffffffffffffffffffffffffffffff167fa9059cbb000000000000000000000000000000000000000000000000000000001790526104fe908490612402565b611e65858484611a56565b73ffffffffffffffffffffffffffffffffffffffff83163b15610a7f57610a7f846000858585612511565b611e9b8382846119d0565b60008181526020848152604080832073ffffffffffffffffffffffffffffffffffffffff86168085529083529281902080547fffffffffffffffffffffffffffffffffffffffffffffffffffffffffffffff0016905580518481529182018390528101919091527ff6391f5c32d9c69d2a47ea670b442974b53935d1edc7fd64eb21e047a839171b9060600160405180910390a1505050565b6060610477611f41611f46565b612626565b60008061046760017f7ea68fd2dcf1c056b94db6a0a537aa80d26fa9ab1eacd85da1ba0b61b7e7a8a5612da3565b60028301546040517ff724dad700000000000000000000000000000000000000000000000000000000815273ffffffffffffffffffffffffffffffffffffffff848116600483015260248201849052606092169063f724dad790604401600060405180830381865afa158015611fee573d6000803e3d6000fd5b505050506040513d6000823e601f3d9081017fffffffffffffffffffffffffffffffffffffffffffffffffffffffffffffffe0168201604052611d499190810190612e0c565b60008381526020858152604080832073ffffffffffffffffffffffffffffffffffffffff8616845290915290205460ff16156104cf5760008381526020858152604080832073ffffffffffffffffffffffffffffffffffffffff8681168086529184529382902080547fffffffffffffffffffffffffffffffffffffffffffffffffffffffffffffff00169055815187815292830152918316918101919091527ff6391f5c32d9c69d2a47ea670b442974b53935d1edc7fd64eb21e047a839171b906060016119c2565b825473ffffffffffffffffffffffffffffffffffffffff908116908316811461216b576040517f2ef4875e00000000000000000000000000000000000000000000000000000000815273ffffffffffffffffffffffffffffffffffffffff841660048201526024016106a1565b8173ffffffffffffffffffffffffffffffffffffffff168173ffffffffffffffffffffffffffffffffffffffff16146104cf5783547fffffffffffffffffffffffff00000000000000000000000000000000000000001673ffffffffffffffffffffffffffffffffffffffff8381169182178655604051908316907f8be0079c531659141344cd1fd0a4f28419497f9722a3daafe3b4186f6b6457e090600090a350505050565b8047101561227c576040517f08c379a000000000000000000000000000000000000000000000000000000000815260206004820152601d60248201527f416464726573733a20696e73756666696369656e742062616c616e636500000060448201526064016106a1565b60008273ffffffffffffffffffffffffffffffffffffffff168260405160006040518083038185875af1925050503d80600081146122d6576040519150601f19603f3d011682016040523d82523d6000602084013e6122db565b606091505b50509050806104fe576040517f08c379a000000000000000000000000000000000000000000000000000000000815260206004820152603a60248201527f416464726573733a20756e61626c6520746f2073656e642076616c75652c207260448201527f6563697069656e74206d6179206861766520726576657274656400000000000060648201526084016106a1565b606081600001805461237d90612ecc565b80601f01602080910402602001604051908101604052809291908181526020018280546123a990612ecc565b80156123f65780601f106123cb576101008083540402835291602001916123f6565b820191906000526020600020905b8154815290600101906020018083116123d957829003601f168201915b50505050509050919050565b6000612464826040518060400160405280602081526020017f5361666545524332303a206c6f772d6c6576656c2063616c6c206661696c65648152508573ffffffffffffffffffffffffffffffffffffffff166126379092919063ffffffff16565b90508051600014806124855750808060200190518101906124859190612f1f565b6104fe576040517f08c379a000000000000000000000000000000000000000000000000000000000815260206004820152602a60248201527f5361666545524332303a204552433230206f7065726174696f6e20646964206e60448201527f6f7420737563636565640000000000000000000000000000000000000000000060648201526084016106a1565b6040517f150b7a02000000000000000000000000000000000000000000000000000000008082529073ffffffffffffffffffffffffffffffffffffffff85169063150b7a029061256b908990899088908890600401612f3c565b6020604051808303816000875af115801561258a573d6000803e3d6000fd5b505050506040513d601f19601f820116820180604052508101906125ae9190612cd8565b7fffffffff000000000000000000000000000000000000000000000000000000001614610a7f576040517fc215a7a100000000000000000000000000000000000000000000000000000000815273ffffffffffffffffffffffffffffffffffffffff84166004820152602481018390526044016106a1565b606081600101805461237d90612ecc565b6060611d498484600085856000808673ffffffffffffffffffffffffffffffffffffffff16858760405161266b9190612f85565b60006040518083038185875af1925050503d80600081146126a8576040519150601f19603f3d011682016040523d82523d6000602084013e6126ad565b606091505b50915091506126be878383876126c9565b979650505050505050565b6060831561275f5782516000036127585773ffffffffffffffffffffffffffffffffffffffff85163b612758576040517f08c379a000000000000000000000000000000000000000000000000000000000815260206004820152601d60248201527f416464726573733a2063616c6c20746f206e6f6e2d636f6e747261637400000060448201526064016106a1565b5081611d49565b611d4983838151156127745781518083602001fd5b806040517f08c379a00000000000000000000000000000000000000000000000000000000081526004016106a19190612861565b7fffffffff0000000000000000000000000000000000000000000000000000000081168114610a9a57600080fd5b6000602082840312156127e857600080fd5b8135610b08816127a8565b60005b8381101561280e5781810151838201526020016127f6565b50506000910152565b6000815180845261282f8160208601602086016127f3565b601f017fffffffffffffffffffffffffffffffffffffffffffffffffffffffffffffffe0169290920160200192915050565b602081526000610b086020830184612817565b60006020828403121561288657600080fd5b5035919050565b73ffffffffffffffffffffffffffffffffffffffff81168114610a9a57600080fd5b600080604083850312156128c257600080fd5b82356128cd8161288d565b946020939093013593505050565b6000806000606084860312156128f057600080fd5b83356128fb8161288d565b9250602084013561290b8161288d565b929592945050506040919091013590565b6000806040838503121561292f57600080fd5b8235915060208301356129418161288d565b809150509250929050565b60008083601f84011261295e57600080fd5b50813567ffffffffffffffff81111561297657600080fd5b6020830191508360208260051b850101111561299157600080fd5b9250929050565b6000806000604084860312156129ad57600080fd5b83356129b88161288d565b9250602084013567ffffffffffffffff8111156129d457600080fd5b6129e08682870161294c565b9497909650939450505050565b6000602082840312156129ff57600080fd5b8135610b088161288d565b60008060008060008060608789031215612a2357600080fd5b863567ffffffffffffffff80821115612a3b57600080fd5b612a478a838b0161294c565b90985096506020890135915080821115612a6057600080fd5b612a6c8a838b0161294c565b90965094506040890135915080821115612a8557600080fd5b50612a9289828a0161294c565b979a9699509497509295939492505050565b60008083601f840112612ab657600080fd5b50813567ffffffffffffffff811115612ace57600080fd5b60208301915083602082850101111561299157600080fd5b60008060008060608587031215612afc57600080fd5b8435612b078161288d565b935060208501359250604085013567ffffffffffffffff811115612b2a57600080fd5b612b3687828801612aa4565b95989497509550505050565b8015158114610a9a57600080fd5b60008060408385031215612b6357600080fd5b8235612b6e8161288d565b9150602083013561294181612b42565b600080600080600060808688031215612b9657600080fd5b8535612ba18161288d565b94506020860135612bb18161288d565b935060408601359250606086013567ffffffffffffffff811115612bd457600080fd5b612be088828901612aa4565b969995985093965092949392505050565b60008060408385031215612c0457600080fd5b8235612c0f8161288d565b915060208301356129418161288d565b60008060008060608587031215612c3557600080fd5b8435612c408161288d565b93506020850135612c508161288d565b9250604085013567ffffffffffffffff811115612c6c57600080fd5b612b368782880161294c565b60008060008060408587031215612c8e57600080fd5b843567ffffffffffffffff80821115612ca657600080fd5b612cb28883890161294c565b90965094506020870135915080821115612ccb57600080fd5b50612b368782880161294c565b600060208284031215612cea57600080fd5b8151610b08816127a8565b7f4e487b7100000000000000000000000000000000000000000000000000000000600052603260045260246000fd5b600073ffffffffffffffffffffffffffffffffffffffff808816835280871660208401525084604083015260806060830152826080830152828460a0840137600060a0848401015260a07fffffffffffffffffffffffffffffffffffffffffffffffffffffffffffffffe0601f85011683010190509695505050505050565b81810381811115610467577f4e487b7100000000000000000000000000000000000000000000000000000000600052601160045260246000fd5b7f4e487b7100000000000000000000000000000000000000000000000000000000600052604160045260246000fd5b600060208284031215612e1e57600080fd5b815167ffffffffffffffff80821115612e3657600080fd5b818401915084601f830112612e4a57600080fd5b815181811115612e5c57612e5c612ddd565b604051601f82017fffffffffffffffffffffffffffffffffffffffffffffffffffffffffffffffe0908116603f01168101908382118183101715612ea257612ea2612ddd565b81604052828152876020848701011115612ebb57600080fd5b6126be8360208301602088016127f3565b600181811c90821680612ee057607f821691505b602082108103612f19577f4e487b7100000000000000000000000000000000000000000000000000000000600052602260045260246000fd5b50919050565b600060208284031215612f3157600080fd5b8151610b0881612b42565b600073ffffffffffffffffffffffffffffffffffffffff808716835280861660208401525083604083015260806060830152612f7b6080830184612817565b9695505050505050565b60008251612f978184602087016127f3565b919091019291505056fea2646970667358221220c7b7ffcdeca213f5060f95a55c2e8215093eae35fce3e527f076a86ab4ef579064736f6c63430008160033",
  "linkReferences": {},
  "deployedLinkReferences": {}
}