{
  "_format": "hh-sol-artifact-1",
  "contractName": "OpenCampusCertificateNFTMinter",
  "sourceName": "contracts/vc/OpenCampusCertificateNFTMinter.sol",
  "abi": [
    {
      "inputs": [
        {
          "internalType": "contract IIssuersDIDRegistry",
          "name": "didRegistry",
          "type": "address"
        },
        {
          "internalType": "contract OpenCampusCertificateNFTv1",
          "name": "nftv1",
          "type": "address"
        },
        {
          "internalType": "contract IRevocationRegistry",
          "name": "revocationRegistry",
          "type": "address"
        }
      ],
      "stateMutability": "nonpayable",
      "type": "constructor"
    },
    {
      "inputs": [],
      "name": "IllegalInterfaceId",
      "type": "error"
    },
    {
      "inputs": [],
      "name": "InvalidSignature",
      "type": "error"
    },
    {
      "inputs": [
        {
          "internalType": "bytes32",
          "name": "hashedDid",
          "type": "bytes32"
        },
        {
          "internalType": "address",
          "name": "signer",
          "type": "address"
        }
      ],
      "name": "IssuerNotAllowed",
      "type": "error"
    },
    {
      "inputs": [
        {
          "internalType": "address",
          "name": "account",
          "type": "address"
        }
      ],
      "name": "NotContractOwner",
      "type": "error"
    },
    {
      "inputs": [
        {
          "internalType": "bytes32",
          "name": "hashedDid",
          "type": "bytes32"
        },
        {
          "internalType": "uint256",
          "name": "tokenId",
          "type": "uint256"
        }
      ],
      "name": "VcRevoked",
      "type": "error"
    },
    {
      "anonymous": false,
      "inputs": [
        {
          "indexed": true,
          "internalType": "address",
          "name": "previousOwner",
          "type": "address"
        },
        {
          "indexed": true,
          "internalType": "address",
          "name": "newOwner",
          "type": "address"
        }
      ],
      "name": "OwnershipTransferred",
      "type": "event"
    },
    {
      "inputs": [],
      "name": "DID_REGISTRY",
      "outputs": [
        {
          "internalType": "contract IIssuersDIDRegistry",
          "name": "",
          "type": "address"
        }
      ],
      "stateMutability": "view",
      "type": "function"
    },
    {
      "inputs": [],
      "name": "NFT_V1",
      "outputs": [
        {
          "internalType": "contract OpenCampusCertificateNFTv1",
          "name": "",
          "type": "address"
        }
      ],
      "stateMutability": "view",
      "type": "function"
    },
    {
      "inputs": [],
      "name": "_revocationRegistry",
      "outputs": [
        {
          "internalType": "contract IRevocationRegistry",
          "name": "",
          "type": "address"
        }
      ],
      "stateMutability": "view",
      "type": "function"
    },
    {
      "inputs": [
        {
          "internalType": "address",
          "name": "to",
          "type": "address"
        },
        {
          "internalType": "uint256",
          "name": "tokenId",
          "type": "uint256"
        },
        {
          "components": [
            {
              "internalType": "uint16",
              "name": "schemaVersion",
              "type": "uint16"
            },
            {
              "internalType": "uint16",
              "name": "achievementType",
              "type": "uint16"
            },
            {
              "internalType": "uint64",
              "name": "awardedDate",
              "type": "uint64"
            },
            {
              "internalType": "uint64",
              "name": "validFrom",
              "type": "uint64"
            },
            {
              "internalType": "uint64",
              "name": "validUtil",
              "type": "uint64"
            },
            {
              "internalType": "string",
              "name": "issuerDid",
              "type": "string"
            },
            {
              "internalType": "string",
              "name": "achievementId",
              "type": "string"
            }
          ],
          "internalType": "struct CertificateNFTv1MetaData.MetaData",
          "name": "metadata",
          "type": "tuple"
        },
        {
          "internalType": "bytes",
          "name": "signature",
          "type": "bytes"
        }
      ],
      "name": "mint",
      "outputs": [],
      "stateMutability": "nonpayable",
      "type": "function"
    },
    {
      "inputs": [],
      "name": "owner",
      "outputs": [
        {
          "internalType": "address",
          "name": "",
          "type": "address"
        }
      ],
      "stateMutability": "view",
      "type": "function"
    },
    {
      "inputs": [
        {
          "internalType": "contract IRevocationRegistry",
          "name": "revocationRegistry",
          "type": "address"
        }
      ],
      "name": "setRevocationRegistry",
      "outputs": [],
      "stateMutability": "nonpayable",
      "type": "function"
    },
    {
      "inputs": [
        {
          "internalType": "bytes4",
          "name": "interfaceId",
          "type": "bytes4"
        }
      ],
      "name": "supportsInterface",
      "outputs": [
        {
          "internalType": "bool",
          "name": "",
          "type": "bool"
        }
      ],
      "stateMutability": "view",
      "type": "function"
    },
    {
      "inputs": [
        {
          "internalType": "address",
          "name": "newOwner",
          "type": "address"
        }
      ],
      "name": "transferOwnership",
      "outputs": [],
      "stateMutability": "nonpayable",
      "type": "function"
    }
  ],
  "bytecode": "0x60c06040523480156200001157600080fd5b5060405162000f8e38038062000f8e8339810160408190526200003491620001d2565b336200004b81620000446200007b565b90620000b1565b506001600160a01b0392831660805290821660a052600080546001600160a01b0319169190921617905562000248565b600080620000ab60017fc9ed16f33ab3a66c84bfd83099ccb2a8845871e2e1c1928f63797152f0fd54cd62000226565b92915050565b6001600160a01b03811615620001085781546001600160a01b0319166001600160a01b03821690811783556040516000907f8be0079c531659141344cd1fd0a4f28419497f9722a3daafe3b4186f6b6457e0908290a35b620001286307f5828d60e41b6001620001206200012c565b91906200015c565b5050565b600080620000ab60017fca9d3e17f264b0f3984e2634e94adb37fa3e6a8103f06aeae6fa59e21c769f5e62000226565b600160e01b6001600160e01b03198316016200018b576040516372c683bb60e01b815260040160405180910390fd5b6001600160e01b03199190911660009081526020929092526040909120805460ff1916911515919091179055565b6001600160a01b0381168114620001cf57600080fd5b50565b600080600060608486031215620001e857600080fd5b8351620001f581620001b9565b60208501519093506200020881620001b9565b60408501519092506200021b81620001b9565b809150509250925092565b81810381811115620000ab57634e487b7160e01b600052601160045260246000fd5b60805160a051610d136200027b6000396000818161011b01526104af01526000818160cf01526103220152610d136000f3fe608060405234801561001057600080fd5b50600436106100885760003560e01c80638da5cb5b1161005b5780638da5cb5b1461013d57806395f94bc414610145578063e0ca1b1414610158578063f2fde38b1461017857600080fd5b806301ffc9a71461008d5780634d5b0423146100b557806387b202a0146100ca5780638cf7418314610116575b600080fd5b6100a061009b3660046108d2565b61018b565b60405190151581526020015b60405180910390f35b6100c86100c336600461093d565b6101a5565b005b6100f17f000000000000000000000000000000000000000000000000000000000000000081565b60405173ffffffffffffffffffffffffffffffffffffffff90911681526020016100ac565b6100f17f000000000000000000000000000000000000000000000000000000000000000081565b6100f161057c565b6100c86101533660046109f6565b6105a8565b6000546100f19073ffffffffffffffffffffffffffffffffffffffff1681565b6100c86101863660046109f6565b610601565b600061019f82610199610618565b90610646565b92915050565b604181146101df576040517f8baa579f00000000000000000000000000000000000000000000000000000000815260040160405180910390fd5b60405160218301359083359060208086013591600091600191610208918c918c918c9101610af6565b604080517fffffffffffffffffffffffffffffffffffffffffffffffffffffffffffffffe08184030181528282528051602091820120600084529083018083525260ff871690820152606081018590526080810184905260a0016020604051602081039080840390855afa158015610284573d6000803e3d6000fd5b50506040517fffffffffffffffffffffffffffffffffffffffffffffffffffffffffffffffe001519150600090506102bf60a0890189610c0c565b6040516102cd929190610c71565b6040519081900381207ff9236a390000000000000000000000000000000000000000000000000000000082526004820181905273ffffffffffffffffffffffffffffffffffffffff84811660248401529092507f0000000000000000000000000000000000000000000000000000000000000000169063f9236a3990604401602060405180830381865afa158015610369573d6000803e3d6000fd5b505050506040513d601f19601f8201168201806040525081019061038d9190610c81565b1561051f576000546040517fa3a2656a00000000000000000000000000000000000000000000000000000000815260048101839052602481018b905273ffffffffffffffffffffffffffffffffffffffff9091169063a3a2656a90604401602060405180830381865afa158015610408573d6000803e3d6000fd5b505050506040513d601f19601f8201168201806040525081019061042c9190610c81565b15610472576040517ffd0fef3a00000000000000000000000000000000000000000000000000000000815260048101829052602481018a90526044015b60405180910390fd5b6040517f54c7be0600000000000000000000000000000000000000000000000000000000815273ffffffffffffffffffffffffffffffffffffffff7f000000000000000000000000000000000000000000000000000000000000000016906354c7be06906104e8908d908d908d90600401610af6565b600060405180830381600087803b15801561050257600080fd5b505af1158015610516573d6000803e3d6000fd5b50505050610570565b6040517f14a929ad0000000000000000000000000000000000000000000000000000000081526004810182905273ffffffffffffffffffffffffffffffffffffffff83166024820152604401610469565b50505050505050505050565b60006105a3610589610720565b5473ffffffffffffffffffffffffffffffffffffffff1690565b905090565b6105ba336105b4610720565b9061074e565b600080547fffffffffffffffffffffffff00000000000000000000000000000000000000001673ffffffffffffffffffffffffffffffffffffffff92909216919091179055565b610615338261060e610720565b91906107bd565b50565b60008061019f60017fca9d3e17f264b0f3984e2634e94adb37fa3e6a8103f06aeae6fa59e21c769f5e610ca3565b60007c01000000000000000000000000000000000000000000000000000000007fffffffff000000000000000000000000000000000000000000000000000000008316016106965750600061019f565b7ffe003659000000000000000000000000000000000000000000000000000000007fffffffff000000000000000000000000000000000000000000000000000000008316016106e75750600161019f565b507fffffffff00000000000000000000000000000000000000000000000000000000166000908152602091909152604090205460ff1690565b60008061019f60017fc9ed16f33ab3a66c84bfd83099ccb2a8845871e2e1c1928f63797152f0fd54cd610ca3565b815473ffffffffffffffffffffffffffffffffffffffff8281169116146107b9576040517f2ef4875e00000000000000000000000000000000000000000000000000000000815273ffffffffffffffffffffffffffffffffffffffff82166004820152602401610469565b5050565b825473ffffffffffffffffffffffffffffffffffffffff908116908316811461082a576040517f2ef4875e00000000000000000000000000000000000000000000000000000000815273ffffffffffffffffffffffffffffffffffffffff84166004820152602401610469565b8173ffffffffffffffffffffffffffffffffffffffff168173ffffffffffffffffffffffffffffffffffffffff16146108cc5783547fffffffffffffffffffffffff00000000000000000000000000000000000000001673ffffffffffffffffffffffffffffffffffffffff8381169182178655604051908316907f8be0079c531659141344cd1fd0a4f28419497f9722a3daafe3b4186f6b6457e090600090a35b50505050565b6000602082840312156108e457600080fd5b81357fffffffff000000000000000000000000000000000000000000000000000000008116811461091457600080fd5b9392505050565b73ffffffffffffffffffffffffffffffffffffffff8116811461061557600080fd5b60008060008060006080868803121561095557600080fd5b85356109608161091b565b945060208601359350604086013567ffffffffffffffff8082111561098457600080fd5b9087019060e0828a03121561099857600080fd5b909350606087013590808211156109ae57600080fd5b818801915088601f8301126109c257600080fd5b8135818111156109d157600080fd5b8960208285010111156109e357600080fd5b9699959850939650602001949392505050565b600060208284031215610a0857600080fd5b81356109148161091b565b803561ffff81168114610a2557600080fd5b919050565b803567ffffffffffffffff81168114610a2557600080fd5b60008083357fffffffffffffffffffffffffffffffffffffffffffffffffffffffffffffffe1843603018112610a7757600080fd5b830160208101925035905067ffffffffffffffff811115610a9757600080fd5b803603821315610aa657600080fd5b9250929050565b8183528181602085013750600060208284010152600060207fffffffffffffffffffffffffffffffffffffffffffffffffffffffffffffffe0601f840116840101905092915050565b73ffffffffffffffffffffffffffffffffffffffff8416815282602082015260606040820152600061ffff80610b2b85610a13565b16606084015280610b3e60208601610a13565b1660808401525067ffffffffffffffff610b5a60408501610a2a565b1660a0830152610b6c60608401610a2a565b67ffffffffffffffff1660c0830152610b8760808401610a2a565b67ffffffffffffffff1660e0830152610ba360a0840184610a42565b60e0610100850152610bba61014085018284610aad565b915050610bca60c0850185610a42565b7fffffffffffffffffffffffffffffffffffffffffffffffffffffffffffffffa085840301610120860152610c00838284610aad565b98975050505050505050565b60008083357fffffffffffffffffffffffffffffffffffffffffffffffffffffffffffffffe1843603018112610c4157600080fd5b83018035915067ffffffffffffffff821115610c5c57600080fd5b602001915036819003821315610aa657600080fd5b8183823760009101908152919050565b600060208284031215610c9357600080fd5b8151801515811461091457600080fd5b8181038181111561019f577f4e487b7100000000000000000000000000000000000000000000000000000000600052601160045260246000fdfea26469706673582212202020731f3bad79cada5b898fbf9730640c77ebb1bd3af35836f661eedeca3cdc64736f6c63430008160033",
  "linkReferences": {},
  "deployedLinkReferences": {}
}