{
  "_format": "hh-sol-artifact-1",
  "contractName": "OpenCampusCertificateNFTMinter",
  "sourceName": "contracts/vc/OpenCampusCertificateNFTMinter.sol",
  "abi": [
    {
      "inputs": [
        {
          "internalType": "contract IIssuersDIDRegistry",
          "name": "didRegistry",
          "type": "address"
        },
        {
          "internalType": "contract OpenCampusCertificateNFTv1",
          "name": "nftv1",
          "type": "address"
        },
        {
          "internalType": "contract IRevocationRegistry",
          "name": "revocationRegistry",
          "type": "address"
        }
      ],
      "stateMutability": "nonpayable",
      "type": "constructor"
    },
    {
      "inputs": [],
      "name": "IllegalInterfaceId",
      "type": "error"
    },
    {
      "inputs": [],
      "name": "InvalidSignature",
      "type": "error"
    },
    {
      "inputs": [],
      "name": "IssuerNotAllowed",
      "type": "error"
    },
    {
      "inputs": [
        {
          "internalType": "address",
          "name": "account",
          "type": "address"
        }
      ],
      "name": "NotContractOwner",
      "type": "error"
    },
    {
      "inputs": [],
      "name": "VcRevoked",
      "type": "error"
    },
    {
      "anonymous": false,
      "inputs": [
        {
          "indexed": true,
          "internalType": "address",
          "name": "previousOwner",
          "type": "address"
        },
        {
          "indexed": true,
          "internalType": "address",
          "name": "newOwner",
          "type": "address"
        }
      ],
      "name": "OwnershipTransferred",
      "type": "event"
    },
    {
      "inputs": [
        {
          "internalType": "address",
          "name": "to",
          "type": "address"
        },
        {
          "internalType": "uint256",
          "name": "tokenId",
          "type": "uint256"
        },
        {
          "components": [
            {
              "internalType": "uint16",
              "name": "schemaVersion",
              "type": "uint16"
            },
            {
              "internalType": "uint16",
              "name": "achievementType",
              "type": "uint16"
            },
            {
              "internalType": "uint64",
              "name": "awardedDate",
              "type": "uint64"
            },
            {
              "internalType": "uint64",
              "name": "validFrom",
              "type": "uint64"
            },
            {
              "internalType": "uint64",
              "name": "validUtil",
              "type": "uint64"
            },
            {
              "internalType": "string",
              "name": "issuerDid",
              "type": "string"
            },
            {
              "internalType": "string",
              "name": "achievementId",
              "type": "string"
            }
          ],
          "internalType": "struct CertificateNFTv1MetaData.MetaData",
          "name": "metadata",
          "type": "tuple"
        },
        {
          "internalType": "bytes",
          "name": "signature",
          "type": "bytes"
        }
      ],
      "name": "mint",
      "outputs": [],
      "stateMutability": "nonpayable",
      "type": "function"
    },
    {
      "inputs": [],
      "name": "owner",
      "outputs": [
        {
          "internalType": "address",
          "name": "",
          "type": "address"
        }
      ],
      "stateMutability": "view",
      "type": "function"
    },
    {
      "inputs": [
        {
          "internalType": "contract IRevocationRegistry",
          "name": "revocationRegistry",
          "type": "address"
        }
      ],
      "name": "setRevocationRegistry",
      "outputs": [],
      "stateMutability": "nonpayable",
      "type": "function"
    },
    {
      "inputs": [
        {
          "internalType": "bytes4",
          "name": "interfaceId",
          "type": "bytes4"
        }
      ],
      "name": "supportsInterface",
      "outputs": [
        {
          "internalType": "bool",
          "name": "",
          "type": "bool"
        }
      ],
      "stateMutability": "view",
      "type": "function"
    },
    {
      "inputs": [
        {
          "internalType": "address",
          "name": "newOwner",
          "type": "address"
        }
      ],
      "name": "transferOwnership",
      "outputs": [],
      "stateMutability": "nonpayable",
      "type": "function"
    }
  ],
  "bytecode": "0x60c06040523480156200001157600080fd5b5060405162000efa38038062000efa8339810160408190526200003491620001d2565b336200004b81620000446200007b565b90620000b1565b506001600160a01b0392831660805290821660a052600080546001600160a01b0319169190921617905562000248565b600080620000ab60017fc9ed16f33ab3a66c84bfd83099ccb2a8845871e2e1c1928f63797152f0fd54cd62000226565b92915050565b6001600160a01b03811615620001085781546001600160a01b0319166001600160a01b03821690811783556040516000907f8be0079c531659141344cd1fd0a4f28419497f9722a3daafe3b4186f6b6457e0908290a35b620001286307f5828d60e41b6001620001206200012c565b91906200015c565b5050565b600080620000ab60017fca9d3e17f264b0f3984e2634e94adb37fa3e6a8103f06aeae6fa59e21c769f5e62000226565b600160e01b6001600160e01b03198316016200018b576040516372c683bb60e01b815260040160405180910390fd5b6001600160e01b03199190911660009081526020929092526040909120805460ff1916911515919091179055565b6001600160a01b0381168114620001cf57600080fd5b50565b600080600060608486031215620001e857600080fd5b8351620001f581620001b9565b60208501519093506200020881620001b9565b60408501519092506200021b81620001b9565b809150509250925092565b81810381811115620000ab57634e487b7160e01b600052601160045260246000fd5b60805160a051610c8c6200026e6000396000610442015260006102c40152610c8c6000f3fe608060405234801561001057600080fd5b50600436106100675760003560e01c80638da5cb5b116100505780638da5cb5b146100a957806395f94bc4146100d6578063f2fde38b146100e957600080fd5b806301ffc9a71461006c5780634d5b042314610094575b600080fd5b61007f61007a36600461084b565b6100fc565b60405190151581526020015b60405180910390f35b6100a76100a23660046108b6565b610116565b005b6100b16104f0565b60405173ffffffffffffffffffffffffffffffffffffffff909116815260200161008b565b6100a76100e436600461096f565b61051c565b6100a76100f736600461096f565b610575565b60006101108261010a61058c565b906105ba565b92915050565b60418114610150576040517f8baa579f00000000000000000000000000000000000000000000000000000000815260040160405180910390fd5b60405160218301359083359060208086013591600091600191610179918c918c918c9101610a6f565b604080517fffffffffffffffffffffffffffffffffffffffffffffffffffffffffffffffe08184030181528282528051602091820120600084529083018083525260ff871690820152606081018590526080810184905260a0016020604051602081039080840390855afa1580156101f5573d6000803e3d6000fd5b50506040517fffffffffffffffffffffffffffffffffffffffffffffffffffffffffffffffe0015191506000905061023060a0890189610b85565b604051602001610241929190610bea565b604080518083037fffffffffffffffffffffffffffffffffffffffffffffffffffffffffffffffe00181529082905280516020909101207ff9236a390000000000000000000000000000000000000000000000000000000082526004820181905273ffffffffffffffffffffffffffffffffffffffff84811660248401529092507f0000000000000000000000000000000000000000000000000000000000000000169063f9236a3990604401602060405180830381865afa15801561030b573d6000803e3d6000fd5b505050506040513d601f19601f8201168201806040525081019061032f9190610bfa565b156104b2576000546040517fa3a2656a00000000000000000000000000000000000000000000000000000000815260048101839052602481018b905273ffffffffffffffffffffffffffffffffffffffff9091169063a3a2656a90604401602060405180830381865afa1580156103aa573d6000803e3d6000fd5b505050506040513d601f19601f820116820180604052508101906103ce9190610bfa565b15610405576040517f6e80385700000000000000000000000000000000000000000000000000000000815260040160405180910390fd5b6040517f54c7be0600000000000000000000000000000000000000000000000000000000815273ffffffffffffffffffffffffffffffffffffffff7f000000000000000000000000000000000000000000000000000000000000000016906354c7be069061047b908d908d908d90600401610a6f565b600060405180830381600087803b15801561049557600080fd5b505af11580156104a9573d6000803e3d6000fd5b505050506104e4565b6040517fe41bfc5800000000000000000000000000000000000000000000000000000000815260040160405180910390fd5b50505050505050505050565b60006105176104fd610694565b5473ffffffffffffffffffffffffffffffffffffffff1690565b905090565b61052e33610528610694565b906106c2565b600080547fffffffffffffffffffffffff00000000000000000000000000000000000000001673ffffffffffffffffffffffffffffffffffffffff92909216919091179055565b6105893382610582610694565b9190610736565b50565b60008061011060017fca9d3e17f264b0f3984e2634e94adb37fa3e6a8103f06aeae6fa59e21c769f5e610c1c565b60007c01000000000000000000000000000000000000000000000000000000007fffffffff0000000000000000000000000000000000000000000000000000000083160161060a57506000610110565b7ffe003659000000000000000000000000000000000000000000000000000000007fffffffff0000000000000000000000000000000000000000000000000000000083160161065b57506001610110565b507fffffffff00000000000000000000000000000000000000000000000000000000166000908152602091909152604090205460ff1690565b60008061011060017fc9ed16f33ab3a66c84bfd83099ccb2a8845871e2e1c1928f63797152f0fd54cd610c1c565b815473ffffffffffffffffffffffffffffffffffffffff828116911614610732576040517f2ef4875e00000000000000000000000000000000000000000000000000000000815273ffffffffffffffffffffffffffffffffffffffff821660048201526024015b60405180910390fd5b5050565b825473ffffffffffffffffffffffffffffffffffffffff90811690831681146107a3576040517f2ef4875e00000000000000000000000000000000000000000000000000000000815273ffffffffffffffffffffffffffffffffffffffff84166004820152602401610729565b8173ffffffffffffffffffffffffffffffffffffffff168173ffffffffffffffffffffffffffffffffffffffff16146108455783547fffffffffffffffffffffffff00000000000000000000000000000000000000001673ffffffffffffffffffffffffffffffffffffffff8381169182178655604051908316907f8be0079c531659141344cd1fd0a4f28419497f9722a3daafe3b4186f6b6457e090600090a35b50505050565b60006020828403121561085d57600080fd5b81357fffffffff000000000000000000000000000000000000000000000000000000008116811461088d57600080fd5b9392505050565b73ffffffffffffffffffffffffffffffffffffffff8116811461058957600080fd5b6000806000806000608086880312156108ce57600080fd5b85356108d981610894565b945060208601359350604086013567ffffffffffffffff808211156108fd57600080fd5b9087019060e0828a03121561091157600080fd5b9093506060870135908082111561092757600080fd5b818801915088601f83011261093b57600080fd5b81358181111561094a57600080fd5b89602082850101111561095c57600080fd5b9699959850939650602001949392505050565b60006020828403121561098157600080fd5b813561088d81610894565b803561ffff8116811461099e57600080fd5b919050565b803567ffffffffffffffff8116811461099e57600080fd5b60008083357fffffffffffffffffffffffffffffffffffffffffffffffffffffffffffffffe18436030181126109f057600080fd5b830160208101925035905067ffffffffffffffff811115610a1057600080fd5b803603821315610a1f57600080fd5b9250929050565b8183528181602085013750600060208284010152600060207fffffffffffffffffffffffffffffffffffffffffffffffffffffffffffffffe0601f840116840101905092915050565b73ffffffffffffffffffffffffffffffffffffffff8416815282602082015260606040820152600061ffff80610aa48561098c565b16606084015280610ab76020860161098c565b1660808401525067ffffffffffffffff610ad3604085016109a3565b1660a0830152610ae5606084016109a3565b67ffffffffffffffff1660c0830152610b00608084016109a3565b67ffffffffffffffff1660e0830152610b1c60a08401846109bb565b60e0610100850152610b3361014085018284610a26565b915050610b4360c08501856109bb565b7fffffffffffffffffffffffffffffffffffffffffffffffffffffffffffffffa085840301610120860152610b79838284610a26565b98975050505050505050565b60008083357fffffffffffffffffffffffffffffffffffffffffffffffffffffffffffffffe1843603018112610bba57600080fd5b83018035915067ffffffffffffffff821115610bd557600080fd5b602001915036819003821315610a1f57600080fd5b8183823760009101908152919050565b600060208284031215610c0c57600080fd5b8151801515811461088d57600080fd5b81810381811115610110577f4e487b7100000000000000000000000000000000000000000000000000000000600052601160045260246000fdfea2646970667358221220c850d17984dddfc26f6ed059e6cadf47f74514f4fd4806c907db786b670e4c8b64736f6c63430008160033",
  "linkReferences": {},
  "deployedLinkReferences": {}
}