{
  "_format": "hh-sol-artifact-1",
  "contractName": "OpenCampusCertificateNFTMinter",
  "sourceName": "contracts/vc/OpenCampusCertificateNFTMinter.sol",
  "abi": [
    {
      "inputs": [
        {
          "internalType": "contract IIssuersDIDRegistry",
          "name": "didRegistry",
          "type": "address"
        },
        {
          "internalType": "contract OpenCampusCertificateNFTv1",
          "name": "nftv1",
          "type": "address"
        }
      ],
      "stateMutability": "nonpayable",
      "type": "constructor"
    },
    {
      "inputs": [],
      "name": "IllegalInterfaceId",
      "type": "error"
    },
    {
      "inputs": [],
      "name": "InvalidSignature",
      "type": "error"
    },
    {
      "inputs": [],
      "name": "IssuerNotAllowed",
      "type": "error"
    },
    {
      "inputs": [
        {
          "internalType": "address",
          "name": "account",
          "type": "address"
        }
      ],
      "name": "NotContractOwner",
      "type": "error"
    },
    {
      "inputs": [
        {
          "internalType": "bytes32",
          "name": "role",
          "type": "bytes32"
        },
        {
          "internalType": "address",
          "name": "account",
          "type": "address"
        }
      ],
      "name": "NotRoleHolder",
      "type": "error"
    },
    {
      "inputs": [],
      "name": "VcRevoked",
      "type": "error"
    },
    {
      "anonymous": false,
      "inputs": [
        {
          "indexed": true,
          "internalType": "address",
          "name": "previousOwner",
          "type": "address"
        },
        {
          "indexed": true,
          "internalType": "address",
          "name": "newOwner",
          "type": "address"
        }
      ],
      "name": "OwnershipTransferred",
      "type": "event"
    },
    {
      "anonymous": false,
      "inputs": [
        {
          "indexed": false,
          "internalType": "bytes32",
          "name": "role",
          "type": "bytes32"
        },
        {
          "indexed": false,
          "internalType": "address",
          "name": "account",
          "type": "address"
        },
        {
          "indexed": false,
          "internalType": "address",
          "name": "operator",
          "type": "address"
        }
      ],
      "name": "RoleGranted",
      "type": "event"
    },
    {
      "anonymous": false,
      "inputs": [
        {
          "indexed": false,
          "internalType": "bytes32",
          "name": "role",
          "type": "bytes32"
        },
        {
          "indexed": false,
          "internalType": "address",
          "name": "account",
          "type": "address"
        },
        {
          "indexed": false,
          "internalType": "address",
          "name": "operator",
          "type": "address"
        }
      ],
      "name": "RoleRevoked",
      "type": "event"
    },
    {
      "inputs": [
        {
          "internalType": "bytes32",
          "name": "role",
          "type": "bytes32"
        },
        {
          "internalType": "address",
          "name": "account",
          "type": "address"
        }
      ],
      "name": "grantRole",
      "outputs": [],
      "stateMutability": "nonpayable",
      "type": "function"
    },
    {
      "inputs": [
        {
          "internalType": "bytes32",
          "name": "role",
          "type": "bytes32"
        },
        {
          "internalType": "address",
          "name": "account",
          "type": "address"
        }
      ],
      "name": "hasRole",
      "outputs": [
        {
          "internalType": "bool",
          "name": "hasRole_",
          "type": "bool"
        }
      ],
      "stateMutability": "view",
      "type": "function"
    },
    {
      "inputs": [
        {
          "internalType": "address",
          "name": "to",
          "type": "address"
        },
        {
          "internalType": "uint256",
          "name": "tokenId",
          "type": "uint256"
        },
        {
          "components": [
            {
              "internalType": "uint16",
              "name": "schemaVersion",
              "type": "uint16"
            },
            {
              "internalType": "uint16",
              "name": "achievementType",
              "type": "uint16"
            },
            {
              "internalType": "uint64",
              "name": "awardedDate",
              "type": "uint64"
            },
            {
              "internalType": "uint64",
              "name": "validFrom",
              "type": "uint64"
            },
            {
              "internalType": "uint64",
              "name": "validUtil",
              "type": "uint64"
            },
            {
              "internalType": "string",
              "name": "issuerDid",
              "type": "string"
            },
            {
              "internalType": "string",
              "name": "achievementId",
              "type": "string"
            }
          ],
          "internalType": "struct CertificateNFTv1MetaData.MetaData",
          "name": "metadata",
          "type": "tuple"
        },
        {
          "internalType": "bytes",
          "name": "signature",
          "type": "bytes"
        }
      ],
      "name": "mint",
      "outputs": [],
      "stateMutability": "nonpayable",
      "type": "function"
    },
    {
      "inputs": [],
      "name": "owner",
      "outputs": [
        {
          "internalType": "address",
          "name": "",
          "type": "address"
        }
      ],
      "stateMutability": "view",
      "type": "function"
    },
    {
      "inputs": [
        {
          "internalType": "bytes32",
          "name": "role",
          "type": "bytes32"
        }
      ],
      "name": "renounceRole",
      "outputs": [],
      "stateMutability": "nonpayable",
      "type": "function"
    },
    {
      "inputs": [
        {
          "internalType": "bytes32",
          "name": "role",
          "type": "bytes32"
        },
        {
          "internalType": "address",
          "name": "account",
          "type": "address"
        }
      ],
      "name": "revokeRole",
      "outputs": [],
      "stateMutability": "nonpayable",
      "type": "function"
    },
    {
      "inputs": [
        {
          "internalType": "contract IRevocationRegistry",
          "name": "registry",
          "type": "address"
        }
      ],
      "name": "setRevocationRegistry",
      "outputs": [],
      "stateMutability": "nonpayable",
      "type": "function"
    },
    {
      "inputs": [
        {
          "internalType": "bytes4",
          "name": "interfaceId",
          "type": "bytes4"
        }
      ],
      "name": "supportsInterface",
      "outputs": [
        {
          "internalType": "bool",
          "name": "",
          "type": "bool"
        }
      ],
      "stateMutability": "view",
      "type": "function"
    },
    {
      "inputs": [
        {
          "internalType": "address",
          "name": "newOwner",
          "type": "address"
        }
      ],
      "name": "transferOwnership",
      "outputs": [],
      "stateMutability": "nonpayable",
      "type": "function"
    }
  ],
  "bytecode": "0x60c06040523480156200001157600080fd5b506040516200135c3803806200135c8339810160408190526200003491620001bb565b336200004b816200004462000064565b906200009a565b506001600160a01b039182166080521660a0526200021c565b6000806200009460017fc9ed16f33ab3a66c84bfd83099ccb2a8845871e2e1c1928f63797152f0fd54cd620001fa565b92915050565b6001600160a01b03811615620000f15781546001600160a01b0319166001600160a01b03821690811783556040516000907f8be0079c531659141344cd1fd0a4f28419497f9722a3daafe3b4186f6b6457e0908290a35b620001116307f5828d60e41b60016200010962000115565b919062000145565b5050565b6000806200009460017fca9d3e17f264b0f3984e2634e94adb37fa3e6a8103f06aeae6fa59e21c769f5e620001fa565b600160e01b6001600160e01b031983160162000174576040516372c683bb60e01b815260040160405180910390fd5b6001600160e01b03199190911660009081526020929092526040909120805460ff1916911515919091179055565b6001600160a01b0381168114620001b857600080fd5b50565b60008060408385031215620001cf57600080fd5b8251620001dc81620001a2565b6020840151909250620001ef81620001a2565b809150509250929050565b818103818111156200009457634e487b7160e01b600052601160045260246000fd5b60805160a05161111a62000242600039600061051a0152600061037a015261111a6000f3fe608060405234801561001057600080fd5b50600436106100a35760003560e01c80638da5cb5b1161007657806395f94bc41161005b57806395f94bc41461014b578063d547741f1461015e578063f2fde38b1461017157600080fd5b80638da5cb5b1461010b57806391d148541461013857600080fd5b806301ffc9a7146100a85780632f2ff15d146100d05780634d5b0423146100e55780638bb9c5bf146100f8575b600080fd5b6100bb6100b6366004610c97565b610184565b60405190151581526020015b60405180910390f35b6100e36100de366004610cfb565b61019e565b005b6100e36100f3366004610d2b565b6101cc565b6100e3610106366004610de4565b6105c8565b6101136105df565b60405173ffffffffffffffffffffffffffffffffffffffff90911681526020016100c7565b6100bb610146366004610cfb565b61060b565b6100e3610159366004610dfd565b610656565b6100e361016c366004610cfb565b6106a9565b6100e361017f366004610dfd565b6106cc565b6000610198826101926106e0565b9061070e565b92915050565b336101b1816101ab6107e8565b90610816565b6101c78383836101bf61088a565b9291906108b8565b505050565b60418114610206576040517f8baa579f00000000000000000000000000000000000000000000000000000000815260040160405180910390fd5b6040516021830135908335906020808601359160009160019161022f918c918c918c9101610efd565b604080517fffffffffffffffffffffffffffffffffffffffffffffffffffffffffffffffe08184030181528282528051602091820120600084529083018083525260ff871690820152606081018590526080810184905260a0016020604051602081039080840390855afa1580156102ab573d6000803e3d6000fd5b50506040517fffffffffffffffffffffffffffffffffffffffffffffffffffffffffffffffe001519150600090506102e660a0890189611013565b6040516020016102f7929190611078565b604080518083037fffffffffffffffffffffffffffffffffffffffffffffffffffffffffffffffe00181529082905280516020909101207ff9236a390000000000000000000000000000000000000000000000000000000082526004820181905273ffffffffffffffffffffffffffffffffffffffff84811660248401529092507f0000000000000000000000000000000000000000000000000000000000000000169063f9236a3990604401602060405180830381865afa1580156103c1573d6000803e3d6000fd5b505050506040513d601f19601f820116820180604052508101906103e59190611088565b1561058a5760005473ffffffffffffffffffffffffffffffffffffffff16158015906104a657506000546040517fa3a2656a00000000000000000000000000000000000000000000000000000000815260048101839052602481018b905273ffffffffffffffffffffffffffffffffffffffff9091169063a3a2656a90604401602060405180830381865afa158015610482573d6000803e3d6000fd5b505050506040513d601f19601f820116820180604052508101906104a69190611088565b156104dd576040517f6e80385700000000000000000000000000000000000000000000000000000000815260040160405180910390fd5b6040517f54c7be0600000000000000000000000000000000000000000000000000000000815273ffffffffffffffffffffffffffffffffffffffff7f000000000000000000000000000000000000000000000000000000000000000016906354c7be0690610553908d908d908d90600401610efd565b600060405180830381600087803b15801561056d57600080fd5b505af1158015610581573d6000803e3d6000fd5b505050506105bc565b6040517fe41bfc5800000000000000000000000000000000000000000000000000000000815260040160405180910390fd5b50505050505050505050565b6105dc33826105d561088a565b919061098f565b50565b60006106066105ec6107e8565b5473ffffffffffffffffffffffffffffffffffffffff1690565b905090565b600061064f838361061a61088a565b60009283526020908152604080842073ffffffffffffffffffffffffffffffffffffffff909316845291905290205460ff1690565b9392505050565b610662336101ab6107e8565b600080547fffffffffffffffffffffffff00000000000000000000000000000000000000001673ffffffffffffffffffffffffffffffffffffffff92909216919091179055565b336106b6816101ab6107e8565b6101c78383836106c461088a565b929190610a33565b6105dc33826106d96107e8565b9190610afd565b60008061019860017fca9d3e17f264b0f3984e2634e94adb37fa3e6a8103f06aeae6fa59e21c769f5e6110aa565b60007c01000000000000000000000000000000000000000000000000000000007fffffffff0000000000000000000000000000000000000000000000000000000083160161075e57506000610198565b7ffe003659000000000000000000000000000000000000000000000000000000007fffffffff000000000000000000000000000000000000000000000000000000008316016107af57506001610198565b507fffffffff00000000000000000000000000000000000000000000000000000000166000908152602091909152604090205460ff1690565b60008061019860017fc9ed16f33ab3a66c84bfd83099ccb2a8845871e2e1c1928f63797152f0fd54cd6110aa565b815473ffffffffffffffffffffffffffffffffffffffff828116911614610886576040517f2ef4875e00000000000000000000000000000000000000000000000000000000815273ffffffffffffffffffffffffffffffffffffffff821660048201526024015b60405180910390fd5b5050565b60008061019860017fc8827d3282af6f37b64c3e9e6f3ac9df286ab0bb0fccd6f8661bf19adb368b236110aa565b60008381526020858152604080832073ffffffffffffffffffffffffffffffffffffffff8616845290915290205460ff166109895760008381526020858152604080832073ffffffffffffffffffffffffffffffffffffffff8681168086529184529382902080547fffffffffffffffffffffffffffffffffffffffffffffffffffffffffffffff00166001179055815187815292830152918316918101919091527f2f8788117e7eff1d82e926ec794901d17c78024a50270940304540a733656f0d906060015b60405180910390a15b50505050565b61099a838284610c11565b60008181526020848152604080832073ffffffffffffffffffffffffffffffffffffffff86168085529083529281902080547fffffffffffffffffffffffffffffffffffffffffffffffffffffffffffffff0016905580518481529182018390528101919091527ff6391f5c32d9c69d2a47ea670b442974b53935d1edc7fd64eb21e047a839171b9060600160405180910390a1505050565b60008381526020858152604080832073ffffffffffffffffffffffffffffffffffffffff8616845290915290205460ff16156109895760008381526020858152604080832073ffffffffffffffffffffffffffffffffffffffff8681168086529184529382902080547fffffffffffffffffffffffffffffffffffffffffffffffffffffffffffffff00169055815187815292830152918316918101919091527ff6391f5c32d9c69d2a47ea670b442974b53935d1edc7fd64eb21e047a839171b90606001610980565b825473ffffffffffffffffffffffffffffffffffffffff9081169083168114610b6a576040517f2ef4875e00000000000000000000000000000000000000000000000000000000815273ffffffffffffffffffffffffffffffffffffffff8416600482015260240161087d565b8173ffffffffffffffffffffffffffffffffffffffff168173ffffffffffffffffffffffffffffffffffffffff16146109895783547fffffffffffffffffffffffff00000000000000000000000000000000000000001673ffffffffffffffffffffffffffffffffffffffff8381169182178655604051908316907f8be0079c531659141344cd1fd0a4f28419497f9722a3daafe3b4186f6b6457e090600090a350505050565b60008281526020848152604080832073ffffffffffffffffffffffffffffffffffffffff8516845290915290205460ff166101c7576040517f7aa728820000000000000000000000000000000000000000000000000000000081526004810183905273ffffffffffffffffffffffffffffffffffffffff8216602482015260440161087d565b600060208284031215610ca957600080fd5b81357fffffffff000000000000000000000000000000000000000000000000000000008116811461064f57600080fd5b73ffffffffffffffffffffffffffffffffffffffff811681146105dc57600080fd5b60008060408385031215610d0e57600080fd5b823591506020830135610d2081610cd9565b809150509250929050565b600080600080600060808688031215610d4357600080fd5b8535610d4e81610cd9565b945060208601359350604086013567ffffffffffffffff80821115610d7257600080fd5b9087019060e0828a031215610d8657600080fd5b90935060608701359080821115610d9c57600080fd5b818801915088601f830112610db057600080fd5b813581811115610dbf57600080fd5b896020828501011115610dd157600080fd5b9699959850939650602001949392505050565b600060208284031215610df657600080fd5b5035919050565b600060208284031215610e0f57600080fd5b813561064f81610cd9565b803561ffff81168114610e2c57600080fd5b919050565b803567ffffffffffffffff81168114610e2c57600080fd5b60008083357fffffffffffffffffffffffffffffffffffffffffffffffffffffffffffffffe1843603018112610e7e57600080fd5b830160208101925035905067ffffffffffffffff811115610e9e57600080fd5b803603821315610ead57600080fd5b9250929050565b8183528181602085013750600060208284010152600060207fffffffffffffffffffffffffffffffffffffffffffffffffffffffffffffffe0601f840116840101905092915050565b73ffffffffffffffffffffffffffffffffffffffff8416815282602082015260606040820152600061ffff80610f3285610e1a565b16606084015280610f4560208601610e1a565b1660808401525067ffffffffffffffff610f6160408501610e31565b1660a0830152610f7360608401610e31565b67ffffffffffffffff1660c0830152610f8e60808401610e31565b67ffffffffffffffff1660e0830152610faa60a0840184610e49565b60e0610100850152610fc161014085018284610eb4565b915050610fd160c0850185610e49565b7fffffffffffffffffffffffffffffffffffffffffffffffffffffffffffffffa085840301610120860152611007838284610eb4565b98975050505050505050565b60008083357fffffffffffffffffffffffffffffffffffffffffffffffffffffffffffffffe184360301811261104857600080fd5b83018035915067ffffffffffffffff82111561106357600080fd5b602001915036819003821315610ead57600080fd5b8183823760009101908152919050565b60006020828403121561109a57600080fd5b8151801515811461064f57600080fd5b81810381811115610198577f4e487b7100000000000000000000000000000000000000000000000000000000600052601160045260246000fdfea264697066735822122065d76835fd0032c7be4fb58c9ff2a2e218db3a14e79d3e7c5e0b1bf53c9199ed64736f6c63430008160033",
  "linkReferences": {},
  "deployedLinkReferences": {}
}