{
  "_format": "hh-sol-artifact-1",
  "contractName": "OpenCampusCertificateNFTMinter",
  "sourceName": "contracts/vc/OpenCampusCertificateNFTMinter.sol",
  "abi": [
    {
      "inputs": [
        {
          "internalType": "contract IIssuersDIDRegistry",
          "name": "didRegistry",
          "type": "address"
        },
        {
          "internalType": "contract OpenCampusCertificateNFTv1",
          "name": "nftv1",
          "type": "address"
        },
        {
          "internalType": "contract IRevocationRegistry",
          "name": "revocationRegistry",
          "type": "address"
        }
      ],
      "stateMutability": "nonpayable",
      "type": "constructor"
    },
    {
      "inputs": [],
      "name": "IllegalInterfaceId",
      "type": "error"
    },
    {
      "inputs": [
        {
          "internalType": "bytes32",
          "name": "hashedDid",
          "type": "bytes32"
        },
        {
          "internalType": "address",
          "name": "signer",
          "type": "address"
        }
      ],
      "name": "IssuerNotAllowed",
      "type": "error"
    },
    {
      "inputs": [
        {
          "internalType": "address",
          "name": "account",
          "type": "address"
        }
      ],
      "name": "NotContractOwner",
      "type": "error"
    },
    {
      "inputs": [
        {
          "internalType": "bytes32",
          "name": "hashedDid",
          "type": "bytes32"
        },
        {
          "internalType": "uint256",
          "name": "tokenId",
          "type": "uint256"
        }
      ],
      "name": "VcRevoked",
      "type": "error"
    },
    {
      "anonymous": false,
      "inputs": [
        {
          "indexed": true,
          "internalType": "address",
          "name": "previousOwner",
          "type": "address"
        },
        {
          "indexed": true,
          "internalType": "address",
          "name": "newOwner",
          "type": "address"
        }
      ],
      "name": "OwnershipTransferred",
      "type": "event"
    },
    {
      "inputs": [],
      "name": "DID_REGISTRY",
      "outputs": [
        {
          "internalType": "contract IIssuersDIDRegistry",
          "name": "",
          "type": "address"
        }
      ],
      "stateMutability": "view",
      "type": "function"
    },
    {
      "inputs": [],
      "name": "NFT_V1",
      "outputs": [
        {
          "internalType": "contract OpenCampusCertificateNFTv1",
          "name": "",
          "type": "address"
        }
      ],
      "stateMutability": "view",
      "type": "function"
    },
    {
      "inputs": [],
      "name": "_revocationRegistry",
      "outputs": [
        {
          "internalType": "contract IRevocationRegistry",
          "name": "",
          "type": "address"
        }
      ],
      "stateMutability": "view",
      "type": "function"
    },
    {
      "inputs": [
        {
          "internalType": "address",
          "name": "to",
          "type": "address"
        },
        {
          "internalType": "uint256",
          "name": "tokenId",
          "type": "uint256"
        },
        {
          "components": [
            {
              "internalType": "uint16",
              "name": "schemaVersion",
              "type": "uint16"
            },
            {
              "internalType": "uint16",
              "name": "achievementType",
              "type": "uint16"
            },
            {
              "internalType": "uint64",
              "name": "awardedDate",
              "type": "uint64"
            },
            {
              "internalType": "uint64",
              "name": "validFrom",
              "type": "uint64"
            },
            {
              "internalType": "uint64",
              "name": "validUtil",
              "type": "uint64"
            },
            {
              "internalType": "string",
              "name": "issuerDid",
              "type": "string"
            },
            {
              "internalType": "string",
              "name": "achievementId",
              "type": "string"
            }
          ],
          "internalType": "struct CertificateNFTv1MetaData.MetaData",
          "name": "metadata",
          "type": "tuple"
        },
        {
          "internalType": "bytes",
          "name": "signature",
          "type": "bytes"
        }
      ],
      "name": "mint",
      "outputs": [],
      "stateMutability": "nonpayable",
      "type": "function"
    },
    {
      "inputs": [],
      "name": "owner",
      "outputs": [
        {
          "internalType": "address",
          "name": "",
          "type": "address"
        }
      ],
      "stateMutability": "view",
      "type": "function"
    },
    {
      "inputs": [
        {
          "internalType": "contract IRevocationRegistry",
          "name": "revocationRegistry",
          "type": "address"
        }
      ],
      "name": "setRevocationRegistry",
      "outputs": [],
      "stateMutability": "nonpayable",
      "type": "function"
    },
    {
      "inputs": [
        {
          "internalType": "bytes4",
          "name": "interfaceId",
          "type": "bytes4"
        }
      ],
      "name": "supportsInterface",
      "outputs": [
        {
          "internalType": "bool",
          "name": "",
          "type": "bool"
        }
      ],
      "stateMutability": "view",
      "type": "function"
    },
    {
      "inputs": [
        {
          "internalType": "address",
          "name": "newOwner",
          "type": "address"
        }
      ],
      "name": "transferOwnership",
      "outputs": [],
      "stateMutability": "nonpayable",
      "type": "function"
    }
  ],
  "bytecode": "0x60c06040523480156200001157600080fd5b5060405162001229380380620012298339810160408190526200003491620001d2565b336200004b81620000446200007b565b90620000b1565b506001600160a01b0392831660805290821660a052600080546001600160a01b0319169190921617905562000248565b600080620000ab60017fc9ed16f33ab3a66c84bfd83099ccb2a8845871e2e1c1928f63797152f0fd54cd62000226565b92915050565b6001600160a01b03811615620001085781546001600160a01b0319166001600160a01b03821690811783556040516000907f8be0079c531659141344cd1fd0a4f28419497f9722a3daafe3b4186f6b6457e0908290a35b620001286307f5828d60e41b6001620001206200012c565b91906200015c565b5050565b600080620000ab60017fca9d3e17f264b0f3984e2634e94adb37fa3e6a8103f06aeae6fa59e21c769f5e62000226565b600160e01b6001600160e01b03198316016200018b576040516372c683bb60e01b815260040160405180910390fd5b6001600160e01b03199190911660009081526020929092526040909120805460ff1916911515919091179055565b6001600160a01b0381168114620001cf57600080fd5b50565b600080600060608486031215620001e857600080fd5b8351620001f581620001b9565b60208501519093506200020881620001b9565b60408501519092506200021b81620001b9565b809150509250925092565b81810381811115620000ab57634e487b7160e01b600052601160045260246000fd5b60805160a051610fae6200027b6000396000818161011b015261041a01526000818160cf015261028d0152610fae6000f3fe608060405234801561001057600080fd5b50600436106100885760003560e01c80638da5cb5b1161005b5780638da5cb5b1461013d57806395f94bc414610145578063e0ca1b1414610158578063f2fde38b1461017857600080fd5b806301ffc9a71461008d5780634d5b0423146100b557806387b202a0146100ca5780638cf7418314610116575b600080fd5b6100a061009b366004610b45565b61018b565b60405190151581526020015b60405180910390f35b6100c86100c3366004610bb0565b6101a5565b005b6100f17f000000000000000000000000000000000000000000000000000000000000000081565b60405173ffffffffffffffffffffffffffffffffffffffff90911681526020016100ac565b6100f17f000000000000000000000000000000000000000000000000000000000000000081565b6100f16104e4565b6100c8610153366004610c69565b610510565b6000546100f19073ffffffffffffffffffffffffffffffffffffffff1681565b6100c8610186366004610c69565b610569565b600061019f82610199610580565b906105ae565b92915050565b600061021983838080601f016020809104026020016040519081016040528093929190818152602001838380828437600092019190915250506040516101f592508a915089908990602001610d62565b6040516020818303038152906040528051906020012061068890919063ffffffff16565b9050600061022a60a0860186610e78565b604051610238929190610edd565b6040519081900381207ff9236a390000000000000000000000000000000000000000000000000000000082526004820181905273ffffffffffffffffffffffffffffffffffffffff84811660248401529092507f0000000000000000000000000000000000000000000000000000000000000000169063f9236a3990604401602060405180830381865afa1580156102d4573d6000803e3d6000fd5b505050506040513d601f19601f820116820180604052508101906102f89190610eed565b1561048a576000546040517fa3a2656a000000000000000000000000000000000000000000000000000000008152600481018390526024810188905273ffffffffffffffffffffffffffffffffffffffff9091169063a3a2656a90604401602060405180830381865afa158015610373573d6000803e3d6000fd5b505050506040513d601f19601f820116820180604052508101906103979190610eed565b156103dd576040517ffd0fef3a00000000000000000000000000000000000000000000000000000000815260048101829052602481018790526044015b60405180910390fd5b6040517f54c7be0600000000000000000000000000000000000000000000000000000000815273ffffffffffffffffffffffffffffffffffffffff7f000000000000000000000000000000000000000000000000000000000000000016906354c7be0690610453908a908a908a90600401610d62565b600060405180830381600087803b15801561046d57600080fd5b505af1158015610481573d6000803e3d6000fd5b505050506104db565b6040517f14a929ad0000000000000000000000000000000000000000000000000000000081526004810182905273ffffffffffffffffffffffffffffffffffffffff831660248201526044016103d4565b50505050505050565b600061050b6104f16106ac565b5473ffffffffffffffffffffffffffffffffffffffff1690565b905090565b6105223361051c6106ac565b906106da565b600080547fffffffffffffffffffffffff00000000000000000000000000000000000000001673ffffffffffffffffffffffffffffffffffffffff92909216919091179055565b61057d33826105766106ac565b9190610749565b50565b60008061019f60017fca9d3e17f264b0f3984e2634e94adb37fa3e6a8103f06aeae6fa59e21c769f5e610f0f565b60007c01000000000000000000000000000000000000000000000000000000007fffffffff000000000000000000000000000000000000000000000000000000008316016105fe5750600061019f565b7ffe003659000000000000000000000000000000000000000000000000000000007fffffffff0000000000000000000000000000000000000000000000000000000083160161064f5750600161019f565b507fffffffff00000000000000000000000000000000000000000000000000000000166000908152602091909152604090205460ff1690565b6000806000610697858561085e565b915091506106a4816108a3565b509392505050565b60008061019f60017fc9ed16f33ab3a66c84bfd83099ccb2a8845871e2e1c1928f63797152f0fd54cd610f0f565b815473ffffffffffffffffffffffffffffffffffffffff828116911614610745576040517f2ef4875e00000000000000000000000000000000000000000000000000000000815273ffffffffffffffffffffffffffffffffffffffff821660048201526024016103d4565b5050565b825473ffffffffffffffffffffffffffffffffffffffff90811690831681146107b6576040517f2ef4875e00000000000000000000000000000000000000000000000000000000815273ffffffffffffffffffffffffffffffffffffffff841660048201526024016103d4565b8173ffffffffffffffffffffffffffffffffffffffff168173ffffffffffffffffffffffffffffffffffffffff16146108585783547fffffffffffffffffffffffff00000000000000000000000000000000000000001673ffffffffffffffffffffffffffffffffffffffff8381169182178655604051908316907f8be0079c531659141344cd1fd0a4f28419497f9722a3daafe3b4186f6b6457e090600090a35b50505050565b60008082516041036108945760208301516040840151606085015160001a61088887828585610a56565b9450945050505061089c565b506000905060025b9250929050565b60008160048111156108b7576108b7610f49565b036108bf5750565b60018160048111156108d3576108d3610f49565b0361093a576040517f08c379a000000000000000000000000000000000000000000000000000000000815260206004820152601860248201527f45434453413a20696e76616c6964207369676e6174757265000000000000000060448201526064016103d4565b600281600481111561094e5761094e610f49565b036109b5576040517f08c379a000000000000000000000000000000000000000000000000000000000815260206004820152601f60248201527f45434453413a20696e76616c6964207369676e6174757265206c656e6774680060448201526064016103d4565b60038160048111156109c9576109c9610f49565b0361057d576040517f08c379a000000000000000000000000000000000000000000000000000000000815260206004820152602260248201527f45434453413a20696e76616c6964207369676e6174757265202773272076616c60448201527f756500000000000000000000000000000000000000000000000000000000000060648201526084016103d4565b6000807f7fffffffffffffffffffffffffffffff5d576e7357a4501ddfe92f46681b20a0831115610a8d5750600090506003610b3c565b6040805160008082526020820180845289905260ff881692820192909252606081018690526080810185905260019060a0016020604051602081039080840390855afa158015610ae1573d6000803e3d6000fd5b50506040517fffffffffffffffffffffffffffffffffffffffffffffffffffffffffffffffe0015191505073ffffffffffffffffffffffffffffffffffffffff8116610b3557600060019250925050610b3c565b9150600090505b94509492505050565b600060208284031215610b5757600080fd5b81357fffffffff0000000000000000000000000000000000000000000000000000000081168114610b8757600080fd5b9392505050565b73ffffffffffffffffffffffffffffffffffffffff8116811461057d57600080fd5b600080600080600060808688031215610bc857600080fd5b8535610bd381610b8e565b945060208601359350604086013567ffffffffffffffff80821115610bf757600080fd5b9087019060e0828a031215610c0b57600080fd5b90935060608701359080821115610c2157600080fd5b818801915088601f830112610c3557600080fd5b813581811115610c4457600080fd5b896020828501011115610c5657600080fd5b9699959850939650602001949392505050565b600060208284031215610c7b57600080fd5b8135610b8781610b8e565b803561ffff81168114610c9857600080fd5b919050565b803567ffffffffffffffff81168114610c9857600080fd5b60008083357fffffffffffffffffffffffffffffffffffffffffffffffffffffffffffffffe1843603018112610cea57600080fd5b830160208101925035905067ffffffffffffffff811115610d0a57600080fd5b80360382131561089c57600080fd5b8183528181602085013750600060208284010152600060207fffffffffffffffffffffffffffffffffffffffffffffffffffffffffffffffe0601f840116840101905092915050565b73ffffffffffffffffffffffffffffffffffffffff8416815282602082015260606040820152600061ffff80610d9785610c86565b16606084015280610daa60208601610c86565b1660808401525067ffffffffffffffff610dc660408501610c9d565b1660a0830152610dd860608401610c9d565b67ffffffffffffffff1660c0830152610df360808401610c9d565b67ffffffffffffffff1660e0830152610e0f60a0840184610cb5565b60e0610100850152610e2661014085018284610d19565b915050610e3660c0850185610cb5565b7fffffffffffffffffffffffffffffffffffffffffffffffffffffffffffffffa085840301610120860152610e6c838284610d19565b98975050505050505050565b60008083357fffffffffffffffffffffffffffffffffffffffffffffffffffffffffffffffe1843603018112610ead57600080fd5b83018035915067ffffffffffffffff821115610ec857600080fd5b60200191503681900382131561089c57600080fd5b8183823760009101908152919050565b600060208284031215610eff57600080fd5b81518015158114610b8757600080fd5b8181038181111561019f577f4e487b7100000000000000000000000000000000000000000000000000000000600052601160045260246000fd5b7f4e487b7100000000000000000000000000000000000000000000000000000000600052602160045260246000fdfea2646970667358221220ccc762a977a2e8e5e1f1c0e969e7ae4a0897aa2efb92d12c271f9cc404fc381a64736f6c63430008160033",
  "linkReferences": {},
  "deployedLinkReferences": {}
}