{
  "_format": "hh-sol-artifact-1",
  "contractName": "EDULand",
  "sourceName": "contracts/token/ERC721/EDULand.sol",
  "abi": [
    {
      "inputs": [
        {
          "internalType": "string",
          "name": "tokenName",
          "type": "string"
        },
        {
          "internalType": "string",
          "name": "tokenSymbol",
          "type": "string"
        },
        {
          "internalType": "contract ITokenMetadataResolver",
          "name": "metadataResolver",
          "type": "address"
        },
        {
          "internalType": "contract IForwarderRegistry",
          "name": "forwarderRegistry",
          "type": "address"
        }
      ],
      "stateMutability": "nonpayable",
      "type": "constructor"
    },
    {
      "inputs": [],
      "name": "ERC721BalanceOfAddressZero",
      "type": "error"
    },
    {
      "inputs": [
        {
          "internalType": "uint256",
          "name": "tokenId",
          "type": "uint256"
        }
      ],
      "name": "ERC721ExistingToken",
      "type": "error"
    },
    {
      "inputs": [],
      "name": "ERC721MintToAddressZero",
      "type": "error"
    },
    {
      "inputs": [
        {
          "internalType": "address",
          "name": "sender",
          "type": "address"
        },
        {
          "internalType": "address",
          "name": "owner",
          "type": "address"
        },
        {
          "internalType": "uint256",
          "name": "tokenId",
          "type": "uint256"
        }
      ],
      "name": "ERC721NonApprovedForApproval",
      "type": "error"
    },
    {
      "inputs": [
        {
          "internalType": "uint256",
          "name": "tokenId",
          "type": "uint256"
        }
      ],
      "name": "ERC721NonExistingToken",
      "type": "error"
    },
    {
      "inputs": [
        {
          "internalType": "address",
          "name": "account",
          "type": "address"
        },
        {
          "internalType": "uint256",
          "name": "tokenId",
          "type": "uint256"
        }
      ],
      "name": "ERC721NonOwnedToken",
      "type": "error"
    },
    {
      "inputs": [
        {
          "internalType": "address",
          "name": "recipient",
          "type": "address"
        },
        {
          "internalType": "uint256",
          "name": "tokenId",
          "type": "uint256"
        }
      ],
      "name": "ERC721SafeTransferRejected",
      "type": "error"
    },
    {
      "inputs": [
        {
          "internalType": "address",
          "name": "account",
          "type": "address"
        }
      ],
      "name": "ERC721SelfApproval",
      "type": "error"
    },
    {
      "inputs": [
        {
          "internalType": "address",
          "name": "account",
          "type": "address"
        }
      ],
      "name": "ERC721SelfApprovalForAll",
      "type": "error"
    },
    {
      "inputs": [],
      "name": "ERC721TransferToAddressZero",
      "type": "error"
    },
    {
      "inputs": [],
      "name": "IllegalInterfaceId",
      "type": "error"
    },
    {
      "inputs": [],
      "name": "InconsistentArrayLengths",
      "type": "error"
    },
    {
      "inputs": [
        {
          "internalType": "address",
          "name": "account",
          "type": "address"
        }
      ],
      "name": "NotContractOwner",
      "type": "error"
    },
    {
      "inputs": [
        {
          "internalType": "bytes32",
          "name": "role",
          "type": "bytes32"
        },
        {
          "internalType": "address",
          "name": "account",
          "type": "address"
        }
      ],
      "name": "NotRoleHolder",
      "type": "error"
    },
    {
      "anonymous": false,
      "inputs": [
        {
          "indexed": true,
          "internalType": "address",
          "name": "owner",
          "type": "address"
        },
        {
          "indexed": true,
          "internalType": "address",
          "name": "approved",
          "type": "address"
        },
        {
          "indexed": true,
          "internalType": "uint256",
          "name": "tokenId",
          "type": "uint256"
        }
      ],
      "name": "Approval",
      "type": "event"
    },
    {
      "anonymous": false,
      "inputs": [
        {
          "indexed": true,
          "internalType": "address",
          "name": "owner",
          "type": "address"
        },
        {
          "indexed": true,
          "internalType": "address",
          "name": "operator",
          "type": "address"
        },
        {
          "indexed": false,
          "internalType": "bool",
          "name": "approved",
          "type": "bool"
        }
      ],
      "name": "ApprovalForAll",
      "type": "event"
    },
    {
      "anonymous": false,
      "inputs": [
        {
          "indexed": true,
          "internalType": "address",
          "name": "previousOwner",
          "type": "address"
        },
        {
          "indexed": true,
          "internalType": "address",
          "name": "newOwner",
          "type": "address"
        }
      ],
      "name": "OwnershipTransferred",
      "type": "event"
    },
    {
      "anonymous": false,
      "inputs": [
        {
          "indexed": false,
          "internalType": "bytes32",
          "name": "role",
          "type": "bytes32"
        },
        {
          "indexed": false,
          "internalType": "address",
          "name": "account",
          "type": "address"
        },
        {
          "indexed": false,
          "internalType": "address",
          "name": "operator",
          "type": "address"
        }
      ],
      "name": "RoleGranted",
      "type": "event"
    },
    {
      "anonymous": false,
      "inputs": [
        {
          "indexed": false,
          "internalType": "bytes32",
          "name": "role",
          "type": "bytes32"
        },
        {
          "indexed": false,
          "internalType": "address",
          "name": "account",
          "type": "address"
        },
        {
          "indexed": false,
          "internalType": "address",
          "name": "operator",
          "type": "address"
        }
      ],
      "name": "RoleRevoked",
      "type": "event"
    },
    {
      "anonymous": false,
      "inputs": [
        {
          "indexed": true,
          "internalType": "address",
          "name": "from",
          "type": "address"
        },
        {
          "indexed": true,
          "internalType": "address",
          "name": "to",
          "type": "address"
        },
        {
          "indexed": true,
          "internalType": "uint256",
          "name": "tokenId",
          "type": "uint256"
        }
      ],
      "name": "Transfer",
      "type": "event"
    },
    {
      "inputs": [],
      "name": "OPERATOR_ROLE",
      "outputs": [
        {
          "internalType": "bytes32",
          "name": "",
          "type": "bytes32"
        }
      ],
      "stateMutability": "view",
      "type": "function"
    },
    {
      "inputs": [
        {
          "internalType": "address",
          "name": "to",
          "type": "address"
        },
        {
          "internalType": "uint256",
          "name": "tokenId",
          "type": "uint256"
        }
      ],
      "name": "approve",
      "outputs": [],
      "stateMutability": "nonpayable",
      "type": "function"
    },
    {
      "inputs": [
        {
          "internalType": "address",
          "name": "owner",
          "type": "address"
        }
      ],
      "name": "balanceOf",
      "outputs": [
        {
          "internalType": "uint256",
          "name": "balance",
          "type": "uint256"
        }
      ],
      "stateMutability": "view",
      "type": "function"
    },
    {
      "inputs": [
        {
          "internalType": "address",
          "name": "from",
          "type": "address"
        },
        {
          "internalType": "uint256[]",
          "name": "tokenIds",
          "type": "uint256[]"
        }
      ],
      "name": "batchBurnFrom",
      "outputs": [],
      "stateMutability": "nonpayable",
      "type": "function"
    },
    {
      "inputs": [
        {
          "internalType": "address",
          "name": "to",
          "type": "address"
        },
        {
          "internalType": "uint256[]",
          "name": "tokenIds",
          "type": "uint256[]"
        }
      ],
      "name": "batchMint",
      "outputs": [],
      "stateMutability": "nonpayable",
      "type": "function"
    },
    {
      "inputs": [
        {
          "internalType": "address",
          "name": "from",
          "type": "address"
        },
        {
          "internalType": "address",
          "name": "to",
          "type": "address"
        },
        {
          "internalType": "uint256[]",
          "name": "tokenIds",
          "type": "uint256[]"
        }
      ],
      "name": "batchTransferFrom",
      "outputs": [],
      "stateMutability": "nonpayable",
      "type": "function"
    },
    {
      "inputs": [
        {
          "internalType": "address",
          "name": "from",
          "type": "address"
        },
        {
          "internalType": "uint256",
          "name": "tokenId",
          "type": "uint256"
        }
      ],
      "name": "burnFrom",
      "outputs": [],
      "stateMutability": "nonpayable",
      "type": "function"
    },
    {
      "inputs": [],
      "name": "forwarderRegistry",
      "outputs": [
        {
          "internalType": "contract IForwarderRegistry",
          "name": "",
          "type": "address"
        }
      ],
      "stateMutability": "view",
      "type": "function"
    },
    {
      "inputs": [
        {
          "internalType": "uint256",
          "name": "tokenId",
          "type": "uint256"
        }
      ],
      "name": "getApproved",
      "outputs": [
        {
          "internalType": "address",
          "name": "approved",
          "type": "address"
        }
      ],
      "stateMutability": "view",
      "type": "function"
    },
    {
      "inputs": [
        {
          "internalType": "bytes32",
          "name": "role",
          "type": "bytes32"
        },
        {
          "internalType": "address",
          "name": "account",
          "type": "address"
        }
      ],
      "name": "grantRole",
      "outputs": [],
      "stateMutability": "nonpayable",
      "type": "function"
    },
    {
      "inputs": [
        {
          "internalType": "bytes32",
          "name": "role",
          "type": "bytes32"
        },
        {
          "internalType": "address",
          "name": "account",
          "type": "address"
        }
      ],
      "name": "hasRole",
      "outputs": [
        {
          "internalType": "bool",
          "name": "hasRole_",
          "type": "bool"
        }
      ],
      "stateMutability": "view",
      "type": "function"
    },
    {
      "inputs": [
        {
          "internalType": "address",
          "name": "owner",
          "type": "address"
        },
        {
          "internalType": "address",
          "name": "operator",
          "type": "address"
        }
      ],
      "name": "isApprovedForAll",
      "outputs": [
        {
          "internalType": "bool",
          "name": "approvedForAll",
          "type": "bool"
        }
      ],
      "stateMutability": "view",
      "type": "function"
    },
    {
      "inputs": [
        {
          "internalType": "address",
          "name": "forwarder",
          "type": "address"
        }
      ],
      "name": "isTrustedForwarder",
      "outputs": [
        {
          "internalType": "bool",
          "name": "",
          "type": "bool"
        }
      ],
      "stateMutability": "view",
      "type": "function"
    },
    {
      "inputs": [],
      "name": "metadataResolver",
      "outputs": [
        {
          "internalType": "contract ITokenMetadataResolver",
          "name": "tokenMetadataResolver",
          "type": "address"
        }
      ],
      "stateMutability": "view",
      "type": "function"
    },
    {
      "inputs": [
        {
          "internalType": "address",
          "name": "to",
          "type": "address"
        },
        {
          "internalType": "uint256",
          "name": "tokenId",
          "type": "uint256"
        }
      ],
      "name": "mint",
      "outputs": [],
      "stateMutability": "nonpayable",
      "type": "function"
    },
    {
      "inputs": [],
      "name": "name",
      "outputs": [
        {
          "internalType": "string",
          "name": "tokenName",
          "type": "string"
        }
      ],
      "stateMutability": "view",
      "type": "function"
    },
    {
      "inputs": [],
      "name": "owner",
      "outputs": [
        {
          "internalType": "address",
          "name": "",
          "type": "address"
        }
      ],
      "stateMutability": "view",
      "type": "function"
    },
    {
      "inputs": [
        {
          "internalType": "uint256",
          "name": "tokenId",
          "type": "uint256"
        }
      ],
      "name": "ownerOf",
      "outputs": [
        {
          "internalType": "address",
          "name": "tokenOwner",
          "type": "address"
        }
      ],
      "stateMutability": "view",
      "type": "function"
    },
    {
      "inputs": [
        {
          "internalType": "address[]",
          "name": "accounts",
          "type": "address[]"
        },
        {
          "internalType": "contract IERC20[]",
          "name": "tokens",
          "type": "address[]"
        },
        {
          "internalType": "uint256[]",
          "name": "amounts",
          "type": "uint256[]"
        }
      ],
      "name": "recoverERC20s",
      "outputs": [],
      "stateMutability": "nonpayable",
      "type": "function"
    },
    {
      "inputs": [
        {
          "internalType": "address[]",
          "name": "accounts",
          "type": "address[]"
        },
        {
          "internalType": "contract IERC721[]",
          "name": "contracts",
          "type": "address[]"
        },
        {
          "internalType": "uint256[]",
          "name": "tokenIds",
          "type": "uint256[]"
        }
      ],
      "name": "recoverERC721s",
      "outputs": [],
      "stateMutability": "nonpayable",
      "type": "function"
    },
    {
      "inputs": [
        {
          "internalType": "address payable[]",
          "name": "accounts",
          "type": "address[]"
        },
        {
          "internalType": "uint256[]",
          "name": "amounts",
          "type": "uint256[]"
        }
      ],
      "name": "recoverETH",
      "outputs": [],
      "stateMutability": "nonpayable",
      "type": "function"
    },
    {
      "inputs": [
        {
          "internalType": "bytes32",
          "name": "role",
          "type": "bytes32"
        }
      ],
      "name": "renounceRole",
      "outputs": [],
      "stateMutability": "nonpayable",
      "type": "function"
    },
    {
      "inputs": [
        {
          "internalType": "bytes32",
          "name": "role",
          "type": "bytes32"
        },
        {
          "internalType": "address",
          "name": "account",
          "type": "address"
        }
      ],
      "name": "revokeRole",
      "outputs": [],
      "stateMutability": "nonpayable",
      "type": "function"
    },
    {
      "inputs": [
        {
          "internalType": "address",
          "name": "to",
          "type": "address"
        },
        {
          "internalType": "uint256",
          "name": "tokenId",
          "type": "uint256"
        },
        {
          "internalType": "bytes",
          "name": "data",
          "type": "bytes"
        }
      ],
      "name": "safeMint",
      "outputs": [],
      "stateMutability": "nonpayable",
      "type": "function"
    },
    {
      "inputs": [
        {
          "internalType": "address",
          "name": "from",
          "type": "address"
        },
        {
          "internalType": "address",
          "name": "to",
          "type": "address"
        },
        {
          "internalType": "uint256",
          "name": "tokenId",
          "type": "uint256"
        }
      ],
      "name": "safeTransferFrom",
      "outputs": [],
      "stateMutability": "nonpayable",
      "type": "function"
    },
    {
      "inputs": [
        {
          "internalType": "address",
          "name": "from",
          "type": "address"
        },
        {
          "internalType": "address",
          "name": "to",
          "type": "address"
        },
        {
          "internalType": "uint256",
          "name": "tokenId",
          "type": "uint256"
        },
        {
          "internalType": "bytes",
          "name": "data",
          "type": "bytes"
        }
      ],
      "name": "safeTransferFrom",
      "outputs": [],
      "stateMutability": "nonpayable",
      "type": "function"
    },
    {
      "inputs": [
        {
          "internalType": "address",
          "name": "operator",
          "type": "address"
        },
        {
          "internalType": "bool",
          "name": "approved",
          "type": "bool"
        }
      ],
      "name": "setApprovalForAll",
      "outputs": [],
      "stateMutability": "nonpayable",
      "type": "function"
    },
    {
      "inputs": [
        {
          "internalType": "bytes4",
          "name": "interfaceId",
          "type": "bytes4"
        }
      ],
      "name": "supportsInterface",
      "outputs": [
        {
          "internalType": "bool",
          "name": "",
          "type": "bool"
        }
      ],
      "stateMutability": "view",
      "type": "function"
    },
    {
      "inputs": [],
      "name": "symbol",
      "outputs": [
        {
          "internalType": "string",
          "name": "tokenSymbol",
          "type": "string"
        }
      ],
      "stateMutability": "view",
      "type": "function"
    },
    {
      "inputs": [
        {
          "internalType": "uint256",
          "name": "tokenId",
          "type": "uint256"
        }
      ],
      "name": "tokenURI",
      "outputs": [
        {
          "internalType": "string",
          "name": "uri",
          "type": "string"
        }
      ],
      "stateMutability": "view",
      "type": "function"
    },
    {
      "inputs": [
        {
          "internalType": "address",
          "name": "from",
          "type": "address"
        },
        {
          "internalType": "address",
          "name": "to",
          "type": "address"
        },
        {
          "internalType": "uint256",
          "name": "tokenId",
          "type": "uint256"
        }
      ],
      "name": "transferFrom",
      "outputs": [],
      "stateMutability": "nonpayable",
      "type": "function"
    },
    {
      "inputs": [
        {
          "internalType": "address",
          "name": "newOwner",
          "type": "address"
        }
      ],
      "name": "transferOwnership",
      "outputs": [],
      "stateMutability": "nonpayable",
      "type": "function"
    }
  ],
  "bytecode": "0x60a06040523480156200001157600080fd5b5060405162003c4f38038062003c4f8339810160408190526200003491620003c8565b808033868686620000548383836200004b620000bd565b929190620000f3565b6200005e6200013a565b5050506200007d81620000766200015c60201b60201c565b906200018c565b506001600160a01b03166080525062000095620001ff565b6200009f62000217565b620000a96200022f565b620000b362000247565b50505050620005db565b600080620000ed60017f7ea68fd2dcf1c056b94db6a0a537aa80d26fa9ab1eacd85da1ba0b61b7e7a8a56200045c565b92915050565b836200010084826200050f565b50600184016200011183826200050f565b5060029390930180546001600160a01b0319166001600160a01b03909416939093179092555050565b6200015a635b5e139f60e01b6001620001526200025a565b91906200028a565b565b600080620000ed60017fc9ed16f33ab3a66c84bfd83099ccb2a8845871e2e1c1928f63797152f0fd54cd6200045c565b6001600160a01b03811615620001e35781546001600160a01b0319166001600160a01b03821690811783556040516000907f8be0079c531659141344cd1fd0a4f28419497f9722a3daafe3b4186f6b6457e0908290a35b620001fb6307f5828d60e41b6001620001526200025a565b5050565b6200015a6380ac58cd60e01b6001620001526200025a565b6200015a638e773e1360e01b6001620001526200025a565b6200015a638b8b4ef560e01b6001620001526200025a565b6200015a63f3993d1160e01b6001620001525b600080620000ed60017fca9d3e17f264b0f3984e2634e94adb37fa3e6a8103f06aeae6fa59e21c769f5e6200045c565b600160e01b6001600160e01b0319831601620002b9576040516372c683bb60e01b815260040160405180910390fd5b6001600160e01b03199190911660009081526020929092526040909120805460ff1916911515919091179055565b634e487b7160e01b600052604160045260246000fd5b600082601f8301126200030f57600080fd5b81516001600160401b03808211156200032c576200032c620002e7565b604051601f8301601f19908116603f01168101908282118183101715620003575762000357620002e7565b81604052838152602092508660208588010111156200037557600080fd5b600091505b838210156200039957858201830151818301840152908201906200037a565b6000602085830101528094505050505092915050565b6001600160a01b0381168114620003c557600080fd5b50565b60008060008060808587031215620003df57600080fd5b84516001600160401b0380821115620003f757600080fd5b6200040588838901620002fd565b955060208701519150808211156200041c57600080fd5b506200042b87828801620002fd565b93505060408501516200043e81620003af565b60608601519092506200045181620003af565b939692955090935050565b81810381811115620000ed57634e487b7160e01b600052601160045260246000fd5b600181811c908216806200049357607f821691505b602082108103620004b457634e487b7160e01b600052602260045260246000fd5b50919050565b601f8211156200050a576000816000526020600020601f850160051c81016020861015620004e55750805b601f850160051c820191505b818110156200050657828155600101620004f1565b5050505b505050565b81516001600160401b038111156200052b576200052b620002e7565b62000543816200053c84546200047e565b84620004ba565b602080601f8311600181146200057b5760008415620005625750858301515b600019600386901b1c1916600185901b17855562000506565b600085815260208120601f198616915b82811015620005ac578886015182559484019460019091019084016200058b565b5085821015620005cb5787850151600019600388901b60f8161c191681555b5050505050600190811b01905550565b6080516136436200060c6000396000818161029401528181610314015281816128f5015261297d01526136436000f3fe608060405234801561001057600080fd5b50600436106101f05760003560e01c80638bb9c5bf1161010f578063c87b56dd116100a2578063f2fde38b11610071578063f2fde38b14610481578063f3993d1114610494578063f5b541a6146104a7578063f7ba94bd146104ce57600080fd5b8063c87b56dd14610435578063d547741f14610448578063e985e9c51461045b578063f24729651461046e57600080fd5b8063a0c76f62116100de578063a0c76f62146103f4578063a22cb465146103fc578063b88d4fde1461040f578063c3666c361461042257600080fd5b80638bb9c5bf146103be5780638da5cb5b146103d157806391d14854146103d957806395d89b41146103ec57600080fd5b806342842e0e1161018757806370a082311161015657806370a082311461036457806373c8a9581461038557806379cc6790146103985780638832e6e3146103ab57600080fd5b806342842e0e146102de5780634684d7e9146102f1578063572b6c05146103045780636352211e1461035157600080fd5b806323b872dd116101c357806323b872dd1461027f5780632b4c9f16146102925780632f2ff15d146102b857806340c10f19146102cb57600080fd5b806301ffc9a7146101f557806306fdde031461021d578063081812fc14610232578063095ea7b31461026a575b600080fd5b610208610203366004612e42565b6104e1565b60405190151581526020015b60405180910390f35b6102256104fb565b6040516102149190612ecd565b610245610240366004612ee0565b61050a565b60405173ffffffffffffffffffffffffffffffffffffffff9091168152602001610214565b61027d610278366004612f1b565b61051e565b005b61027d61028d366004612f47565b61053f565b7f0000000000000000000000000000000000000000000000000000000000000000610245565b61027d6102c6366004612f88565b61054f565b61027d6102d9366004612f1b565b610583565b61027d6102ec366004612f47565b6105d2565b61027d6102ff366004613004565b610768565b610208610312366004613059565b7f000000000000000000000000000000000000000000000000000000000000000073ffffffffffffffffffffffffffffffffffffffff90811691161490565b61024561035f366004612ee0565b6107dc565b610377610372366004613059565b6107f0565b604051908152602001610214565b61027d610393366004613076565b610804565b61027d6103a6366004612f1b565b610902565b61027d6103b9366004613152565b610aca565b61027d6103cc366004612ee0565b610b52565b610245610b70565b6102086103e7366004612f88565b610b97565b610225610be2565b610245610bec565b61027d61040a3660046131bc565b610c16565b61027d61041d3660046131ea565b610c33565b61027d610430366004613076565b610d86565b610225610443366004612ee0565b610efe565b61027d610456366004612f88565b610f21565b61020861046936600461325d565b610f4f565b61027d61047c366004613004565b610f9d565b61027d61048f366004613059565b61119f565b61027d6104a236600461328b565b6111ba565b6103777f97667070c54ef182b0f5858b034beac1b6f3089aa2d3188bb1e8929f4fa9b92981565b61027d6104dc3660046132e4565b611437565b60006104f5826104ef6114ee565b9061151c565b92915050565b60606105056115f6565b905090565b60006104f582610518611608565b90611636565b61053b6105296116ea565b8383610533611608565b9291906116f4565b5050565b61054a83838361196f565b505050565b60006105596116ea565b905061056d81610567611bcb565b90611bf9565b61054a83838361057b611c64565b929190611c92565b6105be7f97667070c54ef182b0f5858b034beac1b6f3089aa2d3188bb1e8929f4fa9b9296105af6116ea565b6105b7611c64565b9190611d68565b61053b82826105cb611608565b9190611dee565b6105dd83838361196f565b73ffffffffffffffffffffffffffffffffffffffff82163b1561054a577f150b7a020000000000000000000000000000000000000000000000000000000073ffffffffffffffffffffffffffffffffffffffff831663150b7a0261063f6116ea565b6040517fffffffff0000000000000000000000000000000000000000000000000000000060e084901b16815273ffffffffffffffffffffffffffffffffffffffff9182166004820152908716602482015260448101859052608060648201526000608482015260a4016020604051808303816000875af11580156106c7573d6000803e3d6000fd5b505050506040513d601f19601f820116820180604052508101906106eb9190613344565b7fffffffff00000000000000000000000000000000000000000000000000000000161461054a576040517fc215a7a100000000000000000000000000000000000000000000000000000000815273ffffffffffffffffffffffffffffffffffffffff83166004820152602481018290526044015b60405180910390fd5b6107947f97667070c54ef182b0f5858b034beac1b6f3089aa2d3188bb1e8929f4fa9b9296105af6116ea565b61054a838383808060200260200160405190810160405280939291908181526020018383602002808284376000920191909152506107d59250611608915050565b9190611f08565b60006104f5826107ea611608565b90612080565b60006104f5826107fe611608565b906120e9565b61081761080f6116ea565b610567611bcb565b8483811415806108275750808214155b1561085e576040517f6582533600000000000000000000000000000000000000000000000000000000815260040160405180910390fd5b60005b818110156108f8576108f088888381811061087e5761087e613361565b90506020020160208101906108939190613059565b8585848181106108a5576108a5613361565b905060200201358888858181106108be576108be613361565b90506020020160208101906108d39190613059565b73ffffffffffffffffffffffffffffffffffffffff169190612165565b600101610861565b5050505050505050565b61092e7f97667070c54ef182b0f5858b034beac1b6f3089aa2d3188bb1e8929f4fa9b9296105af6116ea565b6000610938611608565b60008381526020829052604090205490915073ffffffffffffffffffffffffffffffffffffffff811661099a576040517fdd5604750000000000000000000000000000000000000000000000000000000081526004810184905260240161075f565b8373ffffffffffffffffffffffffffffffffffffffff168173ffffffffffffffffffffffffffffffffffffffff1614610a1e576040517f14dbb53600000000000000000000000000000000000000000000000000000000815273ffffffffffffffffffffffffffffffffffffffff851660048201526024810184905260440161075f565b6000838152602083815260408083207fdead000000000000000000000000000000000000000000000000000000000000905573ffffffffffffffffffffffffffffffffffffffff87168084526001860190925280832080547fffffffffffffffffffffffffffffffffffffffffffffffffffffffffffffffff01905551859291907fddf252ad1be2c89b69c2b068fc378daa952ba7f163c4a11628f55a4df523b3ef908390a450505050565b610af67f97667070c54ef182b0f5858b034beac1b6f3089aa2d3188bb1e8929f4fa9b9296105af6116ea565b610b4c610b016116ea565b858585858080601f016020809104026020016040519081016040528093929190818152602001838380828437600092019190915250610b439250611608915050565b939291906121f2565b50505050565b610b6d610b5d6116ea565b82610b66611c64565b9190612228565b50565b6000610505610b7d611bcb565b5473ffffffffffffffffffffffffffffffffffffffff1690565b6000610bdb8383610ba6611c64565b60009283526020908152604080842073ffffffffffffffffffffffffffffffffffffffff909316845291905290205460ff1690565b9392505050565b60606105056122cc565b6000610505610bf96122de565b6002015473ffffffffffffffffffffffffffffffffffffffff1690565b61053b610c216116ea565b8383610c2b611608565b92919061230c565b610c3e85858561196f565b73ffffffffffffffffffffffffffffffffffffffff84163b15610d7f577f150b7a020000000000000000000000000000000000000000000000000000000073ffffffffffffffffffffffffffffffffffffffff851663150b7a02610ca06116ea565b888787876040518663ffffffff1660e01b8152600401610cc4959493929190613390565b6020604051808303816000875af1158015610ce3573d6000803e3d6000fd5b505050506040513d601f19601f82011682018060405250810190610d079190613344565b7fffffffff000000000000000000000000000000000000000000000000000000001614610d7f576040517fc215a7a100000000000000000000000000000000000000000000000000000000815273ffffffffffffffffffffffffffffffffffffffff851660048201526024810184905260440161075f565b5050505050565b610d9161080f6116ea565b848381141580610da15750808214155b15610dd8576040517f6582533600000000000000000000000000000000000000000000000000000000815260040160405180910390fd5b60005b818110156108f857858582818110610df557610df5613361565b9050602002016020810190610e0a9190613059565b73ffffffffffffffffffffffffffffffffffffffff166323b872dd308a8a85818110610e3857610e38613361565b9050602002016020810190610e4d9190613059565b878786818110610e5f57610e5f613361565b6040517fffffffff0000000000000000000000000000000000000000000000000000000060e088901b16815273ffffffffffffffffffffffffffffffffffffffff958616600482015294909316602485015250602090910201356044820152606401600060405180830381600087803b158015610edb57600080fd5b505af1158015610eef573d6000803e3d6000fd5b50505050806001019050610ddb565b6060610f0c826107ea611608565b506104f53083610f1a6122de565b9190612424565b6000610f2b6116ea565b9050610f3981610567611bcb565b61054a838383610f47611c64565b9291906124e4565b6000610bdb8383610f5e611608565b919073ffffffffffffffffffffffffffffffffffffffff9182166000908152600393909301602090815260408085209290931684525290205460ff1690565b610fc97f97667070c54ef182b0f5858b034beac1b6f3089aa2d3188bb1e8929f4fa9b9296105af6116ea565b6000610fd3611608565b90508160005b81811015611163576000858583818110610ff557610ff5613361565b602090810292909201356000818152928790526040909220549192505073ffffffffffffffffffffffffffffffffffffffff8116611062576040517fdd5604750000000000000000000000000000000000000000000000000000000081526004810183905260240161075f565b8773ffffffffffffffffffffffffffffffffffffffff168173ffffffffffffffffffffffffffffffffffffffff16146110e6576040517f14dbb53600000000000000000000000000000000000000000000000000000000815273ffffffffffffffffffffffffffffffffffffffff891660048201526024810183905260440161075f565b6000828152602086905260408082207fdead00000000000000000000000000000000000000000000000000000000000090555183919073ffffffffffffffffffffffffffffffffffffffff8b16907fddf252ad1be2c89b69c2b068fc378daa952ba7f163c4a11628f55a4df523b3ef908390a45050600101610fd9565b508015610d7f5773ffffffffffffffffffffffffffffffffffffffff851660009081526001830160205260409020805482900390555050505050565b610b6d6111aa6116ea565b826111b3611bcb565b91906125ae565b6111e67f97667070c54ef182b0f5858b034beac1b6f3089aa2d3188bb1e8929f4fa9b9296105af6116ea565b73ffffffffffffffffffffffffffffffffffffffff8316611233576040517f86c8706700000000000000000000000000000000000000000000000000000000815260040160405180910390fd5b600061123d611608565b90508160005b818110156113b157600085858381811061125f5761125f613361565b602090810292909201356000818152928790526040909220549192505073ffffffffffffffffffffffffffffffffffffffff81166112cc576040517fdd5604750000000000000000000000000000000000000000000000000000000081526004810183905260240161075f565b8873ffffffffffffffffffffffffffffffffffffffff168173ffffffffffffffffffffffffffffffffffffffff1614611350576040517f14dbb53600000000000000000000000000000000000000000000000000000000815273ffffffffffffffffffffffffffffffffffffffff8a1660048201526024810183905260440161075f565b60008281526020869052604080822073ffffffffffffffffffffffffffffffffffffffff808c16918290559151859391928d16917fddf252ad1be2c89b69c2b068fc378daa952ba7f163c4a11628f55a4df523b3ef91a45050600101611243565b508473ffffffffffffffffffffffffffffffffffffffff168673ffffffffffffffffffffffffffffffffffffffff16141580156113ed57508015155b1561142f5773ffffffffffffffffffffffffffffffffffffffff8087166000908152600184016020526040808220805485900390559187168152208054820190555b505050505050565b61144261080f6116ea565b8281811461147c576040517f6582533600000000000000000000000000000000000000000000000000000000815260040160405180910390fd5b60005b8181101561142f576114e684848381811061149c5761149c613361565b905060200201358787848181106114b5576114b5613361565b90506020020160208101906114ca9190613059565b73ffffffffffffffffffffffffffffffffffffffff16906126c2565b60010161147f565b6000806104f560017fca9d3e17f264b0f3984e2634e94adb37fa3e6a8103f06aeae6fa59e21c769f5e61340f565b60007c01000000000000000000000000000000000000000000000000000000007fffffffff0000000000000000000000000000000000000000000000000000000083160161156c575060006104f5565b7ffe003659000000000000000000000000000000000000000000000000000000007fffffffff000000000000000000000000000000000000000000000000000000008316016115bd575060016104f5565b507fffffffff00000000000000000000000000000000000000000000000000000000166000908152602091909152604090205460ff1690565b60606105056116036122de565b61281c565b6000806104f560017fddf3ee18ae6d688373c219468f8be446e7ae82215f4779d821c7ea5e8c13c0c161340f565b60008181526020839052604081205473ffffffffffffffffffffffffffffffffffffffff8116611695576040517fdd5604750000000000000000000000000000000000000000000000000000000081526004810184905260240161075f565b740100000000000000000000000000000000000000008116156116e0575050600081815260028301602052604090205473ffffffffffffffffffffffffffffffffffffffff166104f5565b60009150506104f5565b60006105056128b2565b60008181526020859052604090205473ffffffffffffffffffffffffffffffffffffffff8116611753576040517fdd5604750000000000000000000000000000000000000000000000000000000081526004810183905260240161075f565b8073ffffffffffffffffffffffffffffffffffffffff808216908516036117be576040517fb7fdc01000000000000000000000000000000000000000000000000000000000815273ffffffffffffffffffffffffffffffffffffffff8216600482015260240161075f565b6117c98682876129f9565b611826576040517fc7563a1800000000000000000000000000000000000000000000000000000000815273ffffffffffffffffffffffffffffffffffffffff8087166004830152821660248201526044810184905260640161075f565b73ffffffffffffffffffffffffffffffffffffffff841661188b577401000000000000000000000000000000000000000082161561188657600083815260208790526040902073ffffffffffffffffffffffffffffffffffffffff821690555b61190c565b7401000000000000000000000000000000000000000082178083146118bc5760008481526020889052604090208190555b506000838152600287016020526040902080547fffffffffffffffffffffffff00000000000000000000000000000000000000001673ffffffffffffffffffffffffffffffffffffffff86161790555b828473ffffffffffffffffffffffffffffffffffffffff168273ffffffffffffffffffffffffffffffffffffffff167f8c5be1e5ebec7d5bd14f71427d1e84f3dd0314c0f7b2291e5b200ac8c7c3b92560405160405180910390a4505050505050565b61199b7f97667070c54ef182b0f5858b034beac1b6f3089aa2d3188bb1e8929f4fa9b9296105af6116ea565b73ffffffffffffffffffffffffffffffffffffffff82166119e8576040517f86c8706700000000000000000000000000000000000000000000000000000000815260040160405180910390fd5b60006119f2611608565b60008381526020829052604090205490915073ffffffffffffffffffffffffffffffffffffffff8116611a54576040517fdd5604750000000000000000000000000000000000000000000000000000000081526004810184905260240161075f565b8473ffffffffffffffffffffffffffffffffffffffff168173ffffffffffffffffffffffffffffffffffffffff1614611ad8576040517f14dbb53600000000000000000000000000000000000000000000000000000000815273ffffffffffffffffffffffffffffffffffffffff861660048201526024810184905260440161075f565b600083815260208390526040902073ffffffffffffffffffffffffffffffffffffffff80861691829055861614611b695773ffffffffffffffffffffffffffffffffffffffff80861660009081526001808501602052604080832080547fffffffffffffffffffffffffffffffffffffffffffffffffffffffffffffffff0190559287168252919020805490910190555b828473ffffffffffffffffffffffffffffffffffffffff168673ffffffffffffffffffffffffffffffffffffffff167fddf252ad1be2c89b69c2b068fc378daa952ba7f163c4a11628f55a4df523b3ef60405160405180910390a45050505050565b6000806104f560017fc9ed16f33ab3a66c84bfd83099ccb2a8845871e2e1c1928f63797152f0fd54cd61340f565b815473ffffffffffffffffffffffffffffffffffffffff82811691161461053b576040517f2ef4875e00000000000000000000000000000000000000000000000000000000815273ffffffffffffffffffffffffffffffffffffffff8216600482015260240161075f565b6000806104f560017fc8827d3282af6f37b64c3e9e6f3ac9df286ab0bb0fccd6f8661bf19adb368b2361340f565b60008381526020858152604080832073ffffffffffffffffffffffffffffffffffffffff8616845290915290205460ff16610b4c5760008381526020858152604080832073ffffffffffffffffffffffffffffffffffffffff8681168086529184529382902080547fffffffffffffffffffffffffffffffffffffffffffffffffffffffffffffff00166001179055815187815292830152918316918101919091527f2f8788117e7eff1d82e926ec794901d17c78024a50270940304540a733656f0d906060015b60405180910390a150505050565b60008281526020848152604080832073ffffffffffffffffffffffffffffffffffffffff8516845290915290205460ff1661054a576040517f7aa728820000000000000000000000000000000000000000000000000000000081526004810183905273ffffffffffffffffffffffffffffffffffffffff8216602482015260440161075f565b73ffffffffffffffffffffffffffffffffffffffff8216611e3b576040517f7851b9cd00000000000000000000000000000000000000000000000000000000815260040160405180910390fd5b60008181526020849052604090205473ffffffffffffffffffffffffffffffffffffffff1615611e9a576040517f753eceac0000000000000000000000000000000000000000000000000000000081526004810182905260240161075f565b60008181526020848152604080832073ffffffffffffffffffffffffffffffffffffffff86169081905580845260018088019093528184208054909301909255518392907fddf252ad1be2c89b69c2b068fc378daa952ba7f163c4a11628f55a4df523b3ef908290a4505050565b73ffffffffffffffffffffffffffffffffffffffff8216611f55576040517f7851b9cd00000000000000000000000000000000000000000000000000000000815260040160405180910390fd5b805160005b8181101561204b576000838281518110611f7657611f76613361565b60200260200101519050611fb48660000160008381526020019081526020016000205473ffffffffffffffffffffffffffffffffffffffff16151590565b15611fee576040517f753eceac0000000000000000000000000000000000000000000000000000000081526004810182905260240161075f565b60008181526020879052604080822073ffffffffffffffffffffffffffffffffffffffff88169081905590518392907fddf252ad1be2c89b69c2b068fc378daa952ba7f163c4a11628f55a4df523b3ef908290a450600101611f5a565b5073ffffffffffffffffffffffffffffffffffffffff9092166000908152600190930160205250604090912080549091019055565b60008181526020839052604081205473ffffffffffffffffffffffffffffffffffffffff81166120df576040517fdd5604750000000000000000000000000000000000000000000000000000000081526004810184905260240161075f565b805b949350505050565b600073ffffffffffffffffffffffffffffffffffffffff8216612138576040517faefbce4e00000000000000000000000000000000000000000000000000000000815260040160405180910390fd5b5073ffffffffffffffffffffffffffffffffffffffff166000908152600191909101602052604090205490565b6040805173ffffffffffffffffffffffffffffffffffffffff8416602482015260448082018490528251808303909101815260649091019091526020810180517bffffffffffffffffffffffffffffffffffffffffffffffffffffffff167fa9059cbb0000000000000000000000000000000000000000000000000000000017905261054a908490612a6e565b6121fd858484611dee565b73ffffffffffffffffffffffffffffffffffffffff83163b15610d7f57610d7f846000858585612b7d565b612233838284611d68565b60008181526020848152604080832073ffffffffffffffffffffffffffffffffffffffff86168085529083529281902080547fffffffffffffffffffffffffffffffffffffffffffffffffffffffffffffff0016905580518481529182018390528101919091527ff6391f5c32d9c69d2a47ea670b442974b53935d1edc7fd64eb21e047a839171b9060600160405180910390a1505050565b60606105056122d96122de565b612c92565b6000806104f560017f7ea68fd2dcf1c056b94db6a0a537aa80d26fa9ab1eacd85da1ba0b61b7e7a8a561340f565b8273ffffffffffffffffffffffffffffffffffffffff168273ffffffffffffffffffffffffffffffffffffffff1603612389576040517fe4215c6a00000000000000000000000000000000000000000000000000000000815273ffffffffffffffffffffffffffffffffffffffff8416600482015260240161075f565b73ffffffffffffffffffffffffffffffffffffffff838116600081815260038701602090815260408083209487168084529482529182902080547fffffffffffffffffffffffffffffffffffffffffffffffffffffffffffffff001686151590811790915591519182527f17307eab39ab6107e8899845ad3d59bd9653f200f220920489ca2b5937696c31910160405180910390a350505050565b60028301546040517ff724dad700000000000000000000000000000000000000000000000000000000815273ffffffffffffffffffffffffffffffffffffffff848116600483015260248201849052606092169063f724dad790604401600060405180830381865afa15801561249e573d6000803e3d6000fd5b505050506040513d6000823e601f3d9081017fffffffffffffffffffffffffffffffffffffffffffffffffffffffffffffffe01682016040526120e19190810190613478565b60008381526020858152604080832073ffffffffffffffffffffffffffffffffffffffff8616845290915290205460ff1615610b4c5760008381526020858152604080832073ffffffffffffffffffffffffffffffffffffffff8681168086529184529382902080547fffffffffffffffffffffffffffffffffffffffffffffffffffffffffffffff00169055815187815292830152918316918101919091527ff6391f5c32d9c69d2a47ea670b442974b53935d1edc7fd64eb21e047a839171b90606001611d5a565b825473ffffffffffffffffffffffffffffffffffffffff908116908316811461261b576040517f2ef4875e00000000000000000000000000000000000000000000000000000000815273ffffffffffffffffffffffffffffffffffffffff8416600482015260240161075f565b8173ffffffffffffffffffffffffffffffffffffffff168173ffffffffffffffffffffffffffffffffffffffff1614610b4c5783547fffffffffffffffffffffffff00000000000000000000000000000000000000001673ffffffffffffffffffffffffffffffffffffffff8381169182178655604051908316907f8be0079c531659141344cd1fd0a4f28419497f9722a3daafe3b4186f6b6457e090600090a350505050565b8047101561272c576040517f08c379a000000000000000000000000000000000000000000000000000000000815260206004820152601d60248201527f416464726573733a20696e73756666696369656e742062616c616e6365000000604482015260640161075f565b60008273ffffffffffffffffffffffffffffffffffffffff168260405160006040518083038185875af1925050503d8060008114612786576040519150601f19603f3d011682016040523d82523d6000602084013e61278b565b606091505b505090508061054a576040517f08c379a000000000000000000000000000000000000000000000000000000000815260206004820152603a60248201527f416464726573733a20756e61626c6520746f2073656e642076616c75652c207260448201527f6563697069656e74206d61792068617665207265766572746564000000000000606482015260840161075f565b606081600001805461282d90613538565b80601f016020809104026020016040519081016040528092919081815260200182805461285990613538565b80156128a65780601f1061287b576101008083540402835291602001916128a6565b820191906000526020600020905b81548152906001019060200180831161288957829003601f168201915b50505050509050919050565b6000333214806128c25750601836105b156128cc57503390565b7fffffffffffffffffffffffffffffffffffffffffffffffffffffffffffffffec36013560601c7f000000000000000000000000000000000000000000000000000000000000000073ffffffffffffffffffffffffffffffffffffffff163314806129e857506040517f8929a8ca00000000000000000000000000000000000000000000000000000000815273ffffffffffffffffffffffffffffffffffffffff82811660048301523360248301527f00000000000000000000000000000000000000000000000000000000000000001690638929a8ca90604401602060405180830381865afa1580156129c4573d6000803e3d6000fd5b505050506040513d601f19601f820116820180604052508101906129e8919061358b565b156129f257919050565b3391505090565b60008173ffffffffffffffffffffffffffffffffffffffff168373ffffffffffffffffffffffffffffffffffffffff1614806120e157505073ffffffffffffffffffffffffffffffffffffffff9182166000908152600393909301602090815260408085209290931684525290205460ff1690565b6000612ad0826040518060400160405280602081526020017f5361666545524332303a206c6f772d6c6576656c2063616c6c206661696c65648152508573ffffffffffffffffffffffffffffffffffffffff16612ca39092919063ffffffff16565b9050805160001480612af1575080806020019051810190612af1919061358b565b61054a576040517f08c379a000000000000000000000000000000000000000000000000000000000815260206004820152602a60248201527f5361666545524332303a204552433230206f7065726174696f6e20646964206e60448201527f6f74207375636365656400000000000000000000000000000000000000000000606482015260840161075f565b6040517f150b7a02000000000000000000000000000000000000000000000000000000008082529073ffffffffffffffffffffffffffffffffffffffff85169063150b7a0290612bd79089908990889088906004016135a8565b6020604051808303816000875af1158015612bf6573d6000803e3d6000fd5b505050506040513d601f19601f82011682018060405250810190612c1a9190613344565b7fffffffff000000000000000000000000000000000000000000000000000000001614610d7f576040517fc215a7a100000000000000000000000000000000000000000000000000000000815273ffffffffffffffffffffffffffffffffffffffff841660048201526024810183905260440161075f565b606081600101805461282d90613538565b60606120e18484600085856000808673ffffffffffffffffffffffffffffffffffffffff168587604051612cd791906135f1565b60006040518083038185875af1925050503d8060008114612d14576040519150601f19603f3d011682016040523d82523d6000602084013e612d19565b606091505b5091509150612d2a87838387612d35565b979650505050505050565b60608315612dcb578251600003612dc45773ffffffffffffffffffffffffffffffffffffffff85163b612dc4576040517f08c379a000000000000000000000000000000000000000000000000000000000815260206004820152601d60248201527f416464726573733a2063616c6c20746f206e6f6e2d636f6e7472616374000000604482015260640161075f565b50816120e1565b6120e18383815115612de05781518083602001fd5b806040517f08c379a000000000000000000000000000000000000000000000000000000000815260040161075f9190612ecd565b7fffffffff0000000000000000000000000000000000000000000000000000000081168114610b6d57600080fd5b600060208284031215612e5457600080fd5b8135610bdb81612e14565b60005b83811015612e7a578181015183820152602001612e62565b50506000910152565b60008151808452612e9b816020860160208601612e5f565b601f017fffffffffffffffffffffffffffffffffffffffffffffffffffffffffffffffe0169290920160200192915050565b602081526000610bdb6020830184612e83565b600060208284031215612ef257600080fd5b5035919050565b73ffffffffffffffffffffffffffffffffffffffff81168114610b6d57600080fd5b60008060408385031215612f2e57600080fd5b8235612f3981612ef9565b946020939093013593505050565b600080600060608486031215612f5c57600080fd5b8335612f6781612ef9565b92506020840135612f7781612ef9565b929592945050506040919091013590565b60008060408385031215612f9b57600080fd5b823591506020830135612fad81612ef9565b809150509250929050565b60008083601f840112612fca57600080fd5b50813567ffffffffffffffff811115612fe257600080fd5b6020830191508360208260051b8501011115612ffd57600080fd5b9250929050565b60008060006040848603121561301957600080fd5b833561302481612ef9565b9250602084013567ffffffffffffffff81111561304057600080fd5b61304c86828701612fb8565b9497909650939450505050565b60006020828403121561306b57600080fd5b8135610bdb81612ef9565b6000806000806000806060878903121561308f57600080fd5b863567ffffffffffffffff808211156130a757600080fd5b6130b38a838b01612fb8565b909850965060208901359150808211156130cc57600080fd5b6130d88a838b01612fb8565b909650945060408901359150808211156130f157600080fd5b506130fe89828a01612fb8565b979a9699509497509295939492505050565b60008083601f84011261312257600080fd5b50813567ffffffffffffffff81111561313a57600080fd5b602083019150836020828501011115612ffd57600080fd5b6000806000806060858703121561316857600080fd5b843561317381612ef9565b935060208501359250604085013567ffffffffffffffff81111561319657600080fd5b6131a287828801613110565b95989497509550505050565b8015158114610b6d57600080fd5b600080604083850312156131cf57600080fd5b82356131da81612ef9565b91506020830135612fad816131ae565b60008060008060006080868803121561320257600080fd5b853561320d81612ef9565b9450602086013561321d81612ef9565b935060408601359250606086013567ffffffffffffffff81111561324057600080fd5b61324c88828901613110565b969995985093965092949392505050565b6000806040838503121561327057600080fd5b823561327b81612ef9565b91506020830135612fad81612ef9565b600080600080606085870312156132a157600080fd5b84356132ac81612ef9565b935060208501356132bc81612ef9565b9250604085013567ffffffffffffffff8111156132d857600080fd5b6131a287828801612fb8565b600080600080604085870312156132fa57600080fd5b843567ffffffffffffffff8082111561331257600080fd5b61331e88838901612fb8565b9096509450602087013591508082111561333757600080fd5b506131a287828801612fb8565b60006020828403121561335657600080fd5b8151610bdb81612e14565b7f4e487b7100000000000000000000000000000000000000000000000000000000600052603260045260246000fd5b600073ffffffffffffffffffffffffffffffffffffffff808816835280871660208401525084604083015260806060830152826080830152828460a0840137600060a0848401015260a07fffffffffffffffffffffffffffffffffffffffffffffffffffffffffffffffe0601f85011683010190509695505050505050565b818103818111156104f5577f4e487b7100000000000000000000000000000000000000000000000000000000600052601160045260246000fd5b7f4e487b7100000000000000000000000000000000000000000000000000000000600052604160045260246000fd5b60006020828403121561348a57600080fd5b815167ffffffffffffffff808211156134a257600080fd5b818401915084601f8301126134b657600080fd5b8151818111156134c8576134c8613449565b604051601f82017fffffffffffffffffffffffffffffffffffffffffffffffffffffffffffffffe0908116603f0116810190838211818310171561350e5761350e613449565b8160405282815287602084870101111561352757600080fd5b612d2a836020830160208801612e5f565b600181811c9082168061354c57607f821691505b602082108103613585577f4e487b7100000000000000000000000000000000000000000000000000000000600052602260045260246000fd5b50919050565b60006020828403121561359d57600080fd5b8151610bdb816131ae565b600073ffffffffffffffffffffffffffffffffffffffff8087168352808616602084015250836040830152608060608301526135e76080830184612e83565b9695505050505050565b60008251613603818460208701612e5f565b919091019291505056fea2646970667358221220b557decd4b17704a4ac546254593a44ab0b962cf78898a6a16e1209092cf82ee64736f6c63430008160033",
  "linkReferences": {},
  "deployedLinkReferences": {}
}