{
  "_format": "hh-sol-artifact-1",
  "contractName": "EDULandRewardsKYCControllerMock",
  "sourceName": "contracts/mocks/land/EDULandRewardsKYCControllerMock.sol",
  "abi": [
    {
      "inputs": [
        {
          "internalType": "address",
          "name": "eduLandRewardsAddress",
          "type": "address"
        },
        {
          "internalType": "address",
          "name": "kycCertificateNftAddress",
          "type": "address"
        },
        {
          "internalType": "string",
          "name": "vcIssuerDid",
          "type": "string"
        },
        {
          "internalType": "contract IForwarderRegistry",
          "name": "forwarderRegistry",
          "type": "address"
        }
      ],
      "stateMutability": "nonpayable",
      "type": "constructor"
    },
    {
      "inputs": [],
      "name": "InvalidEduLandRewardsAddress",
      "type": "error"
    },
    {
      "inputs": [
        {
          "internalType": "uint256",
          "name": "vcId",
          "type": "uint256"
        }
      ],
      "name": "InvalidIssuerDid",
      "type": "error"
    },
    {
      "inputs": [],
      "name": "InvalidKycCertificateNFTAddress",
      "type": "error"
    },
    {
      "inputs": [],
      "name": "KycWalletAlreadySet",
      "type": "error"
    },
    {
      "inputs": [],
      "name": "NoWalletToBeAdded",
      "type": "error"
    },
    {
      "inputs": [],
      "name": "NoWalletToBeRemoved",
      "type": "error"
    },
    {
      "inputs": [
        {
          "internalType": "uint256",
          "name": "vcId",
          "type": "uint256"
        }
      ],
      "name": "RevokedVc",
      "type": "error"
    },
    {
      "inputs": [
        {
          "internalType": "uint256",
          "name": "vcId",
          "type": "uint256"
        }
      ],
      "name": "VcNotRevoked",
      "type": "error"
    },
    {
      "anonymous": false,
      "inputs": [
        {
          "indexed": false,
          "internalType": "address[]",
          "name": "accounts",
          "type": "address[]"
        }
      ],
      "name": "KycWalletsAdded",
      "type": "event"
    },
    {
      "anonymous": false,
      "inputs": [
        {
          "indexed": false,
          "internalType": "address[]",
          "name": "accounts",
          "type": "address[]"
        }
      ],
      "name": "KycWalletsRemoved",
      "type": "event"
    },
    {
      "inputs": [],
      "name": "EDU_LAND_REWARDS",
      "outputs": [
        {
          "internalType": "contract RewardsKYC",
          "name": "",
          "type": "address"
        }
      ],
      "stateMutability": "view",
      "type": "function"
    },
    {
      "inputs": [],
      "name": "KYC_CERTIFICATE_NFT",
      "outputs": [
        {
          "internalType": "contract OpenCampusCertificateNFTv1",
          "name": "",
          "type": "address"
        }
      ],
      "stateMutability": "view",
      "type": "function"
    },
    {
      "inputs": [],
      "name": "VC_ISSUER_DID_HASH",
      "outputs": [
        {
          "internalType": "bytes32",
          "name": "",
          "type": "bytes32"
        }
      ],
      "stateMutability": "view",
      "type": "function"
    },
    {
      "inputs": [],
      "name": "__msgData",
      "outputs": [
        {
          "internalType": "bytes",
          "name": "",
          "type": "bytes"
        }
      ],
      "stateMutability": "view",
      "type": "function"
    },
    {
      "inputs": [],
      "name": "__msgSender",
      "outputs": [
        {
          "internalType": "address",
          "name": "",
          "type": "address"
        }
      ],
      "stateMutability": "view",
      "type": "function"
    },
    {
      "inputs": [
        {
          "internalType": "uint256",
          "name": "vcId",
          "type": "uint256"
        }
      ],
      "name": "addKycWallet",
      "outputs": [],
      "stateMutability": "nonpayable",
      "type": "function"
    },
    {
      "inputs": [
        {
          "internalType": "uint256[]",
          "name": "vcIds",
          "type": "uint256[]"
        }
      ],
      "name": "addKycWallets",
      "outputs": [],
      "stateMutability": "nonpayable",
      "type": "function"
    },
    {
      "inputs": [],
      "name": "forwarderRegistry",
      "outputs": [
        {
          "internalType": "contract IForwarderRegistry",
          "name": "",
          "type": "address"
        }
      ],
      "stateMutability": "view",
      "type": "function"
    },
    {
      "inputs": [
        {
          "internalType": "address",
          "name": "forwarder",
          "type": "address"
        }
      ],
      "name": "isTrustedForwarder",
      "outputs": [
        {
          "internalType": "bool",
          "name": "",
          "type": "bool"
        }
      ],
      "stateMutability": "view",
      "type": "function"
    },
    {
      "inputs": [
        {
          "internalType": "address[]",
          "name": "accounts",
          "type": "address[]"
        }
      ],
      "name": "removeKycWallets",
      "outputs": [],
      "stateMutability": "nonpayable",
      "type": "function"
    },
    {
      "inputs": [
        {
          "internalType": "address",
          "name": "account",
          "type": "address"
        }
      ],
      "name": "vcIdPerAccount",
      "outputs": [
        {
          "internalType": "uint256",
          "name": "vcId",
          "type": "uint256"
        }
      ],
      "stateMutability": "view",
      "type": "function"
    }
  ],
  "bytecode": "0x6101006040523480156200001257600080fd5b5060405162001d8738038062001d878339810160408190526200003591620000fe565b6001600160a01b03808216608052849084908490849084166200006b576040516395267c7d60e01b815260040160405180910390fd5b6001600160a01b0383166200009357604051636f7a8df160e11b815260040160405180910390fd5b506001600160a01b0392831660a052911660c052805160209091012060e052506200021192505050565b6001600160a01b0381168114620000d357600080fd5b50565b634e487b7160e01b600052604160045260246000fd5b8051620000f981620000bd565b919050565b600080600080608085870312156200011557600080fd5b84516200012281620000bd565b809450506020808601516200013781620000bd565b60408701519094506001600160401b03808211156200015557600080fd5b818801915088601f8301126200016a57600080fd5b8151818111156200017f576200017f620000d6565b604051601f8201601f19908116603f01168101908382118183101715620001aa57620001aa620000d6565b816040528281528b86848701011115620001c357600080fd5b600093505b82841015620001e75784840186015181850187015292850192620001c8565b60008684830101528097505050505050506200020660608601620000ec565b905092959194509250565b60805160a05160c05160e051611abf620002c860003960008181610134015281816105350152610ad2015260008181610251015281816102770152818161037b0152818161047c0152818161090701528181610a1901528181610b2f01528181610dd50152610f4a01526000818161022a0152818161081b01528181610d29015261128301526000818160e50152818161019d01528181611374015281816113b2015281816114ea01526115720152611abf6000f3fe608060405234801561001057600080fd5b50600436106100c95760003560e01c8063572b6c0511610081578063d1a91ff21161005b578063d1a91ff21461021d578063d955bab314610225578063f97060a61461024c57600080fd5b8063572b6c051461018d5780636e27084e146101ea5780637cd727ba1461020a57600080fd5b80632dd444c0116100b25780632dd444c01461012f57806331e66e1e146101645780634d1e5e3c1461017a57600080fd5b806308e77ef1146100ce5780632b4c9f16146100e3575b600080fd5b6100e16100dc36600461166b565b610273565b005b7f00000000000000000000000000000000000000000000000000000000000000005b60405173ffffffffffffffffffffffffffffffffffffffff90911681526020015b60405180910390f35b6101567f000000000000000000000000000000000000000000000000000000000000000081565b604051908152602001610126565b61016c6108c2565b6040516101269291906116ad565b6100e16101883660046116fa565b6108d5565b6101da61019b366004611738565b7f000000000000000000000000000000000000000000000000000000000000000073ffffffffffffffffffffffffffffffffffffffff90811691161490565b6040519015158152602001610126565b6101566101f8366004611738565b60006020819052908152604090205481565b6100e161021836600461166b565b610dd1565b610105611319565b6101057f000000000000000000000000000000000000000000000000000000000000000081565b6101057f000000000000000000000000000000000000000000000000000000000000000081565b60007f000000000000000000000000000000000000000000000000000000000000000073ffffffffffffffffffffffffffffffffffffffff1663f0f2740d6040518163ffffffff1660e01b8152600401602060405180830381865afa1580156102e0573d6000803e3d6000fd5b505050506040513d601f19601f82011682018060405250810190610304919061175c565b90508160008167ffffffffffffffff81111561032257610322611779565b60405190808252806020026020018201604052801561034b578160200160208202803683370190505b5090506000805b838110156106f757600087878381811061036e5761036e6117a8565b90506020020135905060007f000000000000000000000000000000000000000000000000000000000000000073ffffffffffffffffffffffffffffffffffffffff16636352211e836040518263ffffffff1660e01b81526004016103d491815260200190565b602060405180830381865afa1580156103f1573d6000803e3d6000fd5b505050506040513d601f19601f82011682018060405250810190610415919061175c565b73ffffffffffffffffffffffffffffffffffffffff81166000908152602081905260409020549091501561044a5750506106ef565b6040517f4bae2be8000000000000000000000000000000000000000000000000000000008152600481018390526000907f000000000000000000000000000000000000000000000000000000000000000073ffffffffffffffffffffffffffffffffffffffff1690634bae2be890602401600060405180830381865afa1580156104d8573d6000803e3d6000fd5b505050506040513d6000823e601f3d9081017fffffffffffffffffffffffffffffffffffffffffffffffffffffffffffffffe016820160405261051e91908101906118cd565b5095505050505050600081805190602001209050807f000000000000000000000000000000000000000000000000000000000000000014610593576040517fed778042000000000000000000000000000000000000000000000000000000008152600481018590526024015b60405180910390fd5b6040517fa3a2656a000000000000000000000000000000000000000000000000000000008152600481018290526024810185905260009073ffffffffffffffffffffffffffffffffffffffff8b169063a3a2656a90604401602060405180830381865afa158015610608573d6000803e3d6000fd5b505050506040513d601f19601f8201168201806040525081019061062c9190611984565b90508015610669576040517f5d326d840000000000000000000000000000000000000000000000000000000081526004810186905260240161058a565b73ffffffffffffffffffffffffffffffffffffffff8416600090815260208190526040902085905583888861069d816119a6565b9950815181106106af576106af6117a8565b602002602001019073ffffffffffffffffffffffffffffffffffffffff16908173ffffffffffffffffffffffffffffffffffffffff168152505050505050505b600101610352565b5080600003610732576040517fa541486200000000000000000000000000000000000000000000000000000000815260040160405180910390fd5b60008167ffffffffffffffff81111561074d5761074d611779565b604051908082528060200260200182016040528015610776578160200160208202803683370190505b50905060005b828110156107dd57838181518110610796576107966117a8565b60200260200101518282815181106107b0576107b06117a8565b73ffffffffffffffffffffffffffffffffffffffff9092166020928302919091019091015260010161077c565b506040517f229d683d00000000000000000000000000000000000000000000000000000000815273ffffffffffffffffffffffffffffffffffffffff7f0000000000000000000000000000000000000000000000000000000000000000169063229d683d90610850908490600401611a05565b600060405180830381600087803b15801561086a57600080fd5b505af115801561087e573d6000803e3d6000fd5b505050507fce2bd94f673db625f203578fd574af903b9fd5dc2593832add8ba27b9057de3a816040516108b19190611a05565b60405180910390a150505050505050565b3660006108cd611328565b915091509091565b6040517f6352211e000000000000000000000000000000000000000000000000000000008152600481018290526000907f000000000000000000000000000000000000000000000000000000000000000073ffffffffffffffffffffffffffffffffffffffff1690636352211e90602401602060405180830381865afa158015610963573d6000803e3d6000fd5b505050506040513d601f19601f82011682018060405250810190610987919061175c565b73ffffffffffffffffffffffffffffffffffffffff8116600090815260208190526040902054909150156109e7576040517fb00704f400000000000000000000000000000000000000000000000000000000815260040160405180910390fd5b6040517f4bae2be8000000000000000000000000000000000000000000000000000000008152600481018390526000907f000000000000000000000000000000000000000000000000000000000000000073ffffffffffffffffffffffffffffffffffffffff1690634bae2be890602401600060405180830381865afa158015610a75573d6000803e3d6000fd5b505050506040513d6000823e601f3d9081017fffffffffffffffffffffffffffffffffffffffffffffffffffffffffffffffe0168201604052610abb91908101906118cd565b5095505050505050600081805190602001209050807f000000000000000000000000000000000000000000000000000000000000000014610b2b576040517fed7780420000000000000000000000000000000000000000000000000000000081526004810185905260240161058a565b60007f000000000000000000000000000000000000000000000000000000000000000073ffffffffffffffffffffffffffffffffffffffff1663f0f2740d6040518163ffffffff1660e01b8152600401602060405180830381865afa158015610b98573d6000803e3d6000fd5b505050506040513d601f19601f82011682018060405250810190610bbc919061175c565b6040517fa3a2656a000000000000000000000000000000000000000000000000000000008152600481018490526024810187905273ffffffffffffffffffffffffffffffffffffffff919091169063a3a2656a90604401602060405180830381865afa158015610c30573d6000803e3d6000fd5b505050506040513d601f19601f82011682018060405250810190610c549190611984565b90508015610c91576040517f5d326d840000000000000000000000000000000000000000000000000000000081526004810186905260240161058a565b604080516001808252818301909252600091602080830190803683370190505090508481600081518110610cc757610cc76117a8565b73ffffffffffffffffffffffffffffffffffffffff928316602091820292909201810191909152868216600090815290819052604090819020889055517f229d683d0000000000000000000000000000000000000000000000000000000081527f00000000000000000000000000000000000000000000000000000000000000009091169063229d683d90610d60908490600401611a05565b600060405180830381600087803b158015610d7a57600080fd5b505af1158015610d8e573d6000803e3d6000fd5b505050507fce2bd94f673db625f203578fd574af903b9fd5dc2593832add8ba27b9057de3a81604051610dc19190611a05565b60405180910390a1505050505050565b60007f000000000000000000000000000000000000000000000000000000000000000073ffffffffffffffffffffffffffffffffffffffff1663f0f2740d6040518163ffffffff1660e01b8152600401602060405180830381865afa158015610e3e573d6000803e3d6000fd5b505050506040513d601f19601f82011682018060405250810190610e62919061175c565b90508160008167ffffffffffffffff811115610e8057610e80611779565b604051908082528060200260200182016040528015610ea9578160200160208202803683370190505b5090506000805b8381101561115f576000878783818110610ecc57610ecc6117a8565b9050602002016020810190610ee19190611738565b73ffffffffffffffffffffffffffffffffffffffff8116600090815260208190526040812054919250819003610f18575050611157565b6040517f4bae2be8000000000000000000000000000000000000000000000000000000008152600481018290526000907f000000000000000000000000000000000000000000000000000000000000000073ffffffffffffffffffffffffffffffffffffffff1690634bae2be890602401600060405180830381865afa158015610fa6573d6000803e3d6000fd5b505050506040513d6000823e601f3d9081017fffffffffffffffffffffffffffffffffffffffffffffffffffffffffffffffe0168201604052610fec91908101906118cd565b50805160208201206040517fa3a2656a00000000000000000000000000000000000000000000000000000000815260048101829052602481018a905291975095506000945073ffffffffffffffffffffffffffffffffffffffff8e16935063a3a2656a92506044019050602060405180830381865afa158015611073573d6000803e3d6000fd5b505050506040513d601f19601f820116820180604052508101906110979190611984565b9050806110d3576040517f73bb64030000000000000000000000000000000000000000000000000000000081526004810185905260240161058a565b73ffffffffffffffffffffffffffffffffffffffff8516600090815260208190526040812055848888611105816119a6565b995081518110611117576111176117a8565b602002602001019073ffffffffffffffffffffffffffffffffffffffff16908173ffffffffffffffffffffffffffffffffffffffff168152505050505050505b600101610eb0565b508060000361119a576040517f67574b5e00000000000000000000000000000000000000000000000000000000815260040160405180910390fd5b60008167ffffffffffffffff8111156111b5576111b5611779565b6040519080825280602002602001820160405280156111de578160200160208202803683370190505b50905060005b82811015611245578381815181106111fe576111fe6117a8565b6020026020010151828281518110611218576112186117a8565b73ffffffffffffffffffffffffffffffffffffffff909216602092830291909101909101526001016111e4565b506040517f7cd727ba00000000000000000000000000000000000000000000000000000000815273ffffffffffffffffffffffffffffffffffffffff7f00000000000000000000000000000000000000000000000000000000000000001690637cd727ba906112b8908490600401611a05565b600060405180830381600087803b1580156112d257600080fd5b505af11580156112e6573d6000803e3d6000fd5b505050507f9063cc81f7b7355a42e797c2e706377c4431f539572eb4c2ef6f2011ae19a966816040516108b19190611a05565b6000611323611333565b905090565b3660006108cd61133d565b60006113236114a7565b3660003332148061134e5750601836105b1561135c5750600091369150565b3373ffffffffffffffffffffffffffffffffffffffff7f0000000000000000000000000000000000000000000000000000000000000000161480611491575073ffffffffffffffffffffffffffffffffffffffff7f000000000000000000000000000000000000000000000000000000000000000016638929a8ca367fffffffffffffffffffffffffffffffffffffffffffffffffffffffffffffffec013560601c6040517fffffffff0000000000000000000000000000000000000000000000000000000060e084901b16815273ffffffffffffffffffffffffffffffffffffffff9091166004820152336024820152604401602060405180830381865afa15801561146d573d6000803e3d6000fd5b505050506040513d601f19601f820116820180604052508101906114919190611984565b1561149e576108cd6115ee565b50600091369150565b6000333214806114b75750601836105b156114c157503390565b7fffffffffffffffffffffffffffffffffffffffffffffffffffffffffffffffec36013560601c7f000000000000000000000000000000000000000000000000000000000000000073ffffffffffffffffffffffffffffffffffffffff163314806115dd57506040517f8929a8ca00000000000000000000000000000000000000000000000000000000815273ffffffffffffffffffffffffffffffffffffffff82811660048301523360248301527f00000000000000000000000000000000000000000000000000000000000000001690638929a8ca90604401602060405180830381865afa1580156115b9573d6000803e3d6000fd5b505050506040513d601f19601f820116820180604052508101906115dd9190611984565b156115e757919050565b3391505090565b3660006108cd7fffffffffffffffffffffffffffffffffffffffffffffffffffffffffffffffec8301828481611a5f565b60008083601f84011261163157600080fd5b50813567ffffffffffffffff81111561164957600080fd5b6020830191508360208260051b850101111561166457600080fd5b9250929050565b6000806020838503121561167e57600080fd5b823567ffffffffffffffff81111561169557600080fd5b6116a18582860161161f565b90969095509350505050565b60208152816020820152818360408301376000818301604090810191909152601f9092017fffffffffffffffffffffffffffffffffffffffffffffffffffffffffffffffe0160101919050565b60006020828403121561170c57600080fd5b5035919050565b73ffffffffffffffffffffffffffffffffffffffff8116811461173557600080fd5b50565b60006020828403121561174a57600080fd5b813561175581611713565b9392505050565b60006020828403121561176e57600080fd5b815161175581611713565b7f4e487b7100000000000000000000000000000000000000000000000000000000600052604160045260246000fd5b7f4e487b7100000000000000000000000000000000000000000000000000000000600052603260045260246000fd5b805161ffff811681146117e957600080fd5b919050565b805167ffffffffffffffff811681146117e957600080fd5b600082601f83011261181757600080fd5b815167ffffffffffffffff8082111561183257611832611779565b604051601f83017fffffffffffffffffffffffffffffffffffffffffffffffffffffffffffffffe0908116603f0116810190828211818310171561187857611878611779565b816040528381526020925086602085880101111561189557600080fd5b600091505b838210156118b7578582018301518183018401529082019061189a565b6000602085830101528094505050505092915050565b600080600080600080600060e0888a0312156118e857600080fd5b6118f1886117d7565b96506118ff602089016117d7565b955061190d604089016117ee565b945061191b606089016117ee565b9350611929608089016117ee565b925060a088015167ffffffffffffffff8082111561194657600080fd5b6119528b838c01611806565b935060c08a015191508082111561196857600080fd5b506119758a828b01611806565b91505092959891949750929550565b60006020828403121561199657600080fd5b8151801515811461175557600080fd5b60007fffffffffffffffffffffffffffffffffffffffffffffffffffffffffffffffff82036119fe577f4e487b7100000000000000000000000000000000000000000000000000000000600052601160045260246000fd5b5060010190565b6020808252825182820181905260009190848201906040850190845b81811015611a5357835173ffffffffffffffffffffffffffffffffffffffff1683529284019291840191600101611a21565b50909695505050505050565b60008085851115611a6f57600080fd5b83861115611a7c57600080fd5b505082019391909203915056fea264697066735822122024e08f010ccb2846ef8dd7ad94b31819cec1cb02080a377013f96d3cbb68b5dc64736f6c63430008160033",
  "linkReferences": {},
  "deployedLinkReferences": {}
}