{
  "_format": "hh-sol-artifact-1",
  "contractName": "EDULandRewardsKYCControllerMock",
  "sourceName": "contracts/mocks/land/EDULandRewardsKYCControllerMock.sol",
  "abi": [
    {
      "inputs": [
        {
          "internalType": "address",
          "name": "messageSigner",
          "type": "address"
        },
        {
          "internalType": "contract IEDULandRewards",
          "name": "eduLandRewards",
          "type": "address"
        },
        {
          "internalType": "contract IForwarderRegistry",
          "name": "forwarderRegistry",
          "type": "address"
        }
      ],
      "stateMutability": "nonpayable",
      "type": "constructor"
    },
    {
      "inputs": [
        {
          "internalType": "address",
          "name": "wallet",
          "type": "address"
        },
        {
          "internalType": "uint256",
          "name": "expireAt",
          "type": "uint256"
        },
        {
          "internalType": "bytes",
          "name": "signature",
          "type": "bytes"
        }
      ],
      "name": "ExpiredSignature",
      "type": "error"
    },
    {
      "inputs": [],
      "name": "IllegalInterfaceId",
      "type": "error"
    },
    {
      "inputs": [],
      "name": "InvalidShortString",
      "type": "error"
    },
    {
      "inputs": [
        {
          "internalType": "address",
          "name": "wallet",
          "type": "address"
        },
        {
          "internalType": "uint256",
          "name": "expireAt",
          "type": "uint256"
        },
        {
          "internalType": "bytes",
          "name": "signature",
          "type": "bytes"
        }
      ],
      "name": "InvalidSignature",
      "type": "error"
    },
    {
      "inputs": [
        {
          "internalType": "address",
          "name": "account",
          "type": "address"
        }
      ],
      "name": "NotContractOwner",
      "type": "error"
    },
    {
      "inputs": [
        {
          "internalType": "bytes32",
          "name": "role",
          "type": "bytes32"
        },
        {
          "internalType": "address",
          "name": "account",
          "type": "address"
        }
      ],
      "name": "NotRoleHolder",
      "type": "error"
    },
    {
      "inputs": [
        {
          "internalType": "string",
          "name": "str",
          "type": "string"
        }
      ],
      "name": "StringTooLong",
      "type": "error"
    },
    {
      "anonymous": false,
      "inputs": [],
      "name": "EIP712DomainChanged",
      "type": "event"
    },
    {
      "anonymous": false,
      "inputs": [
        {
          "indexed": false,
          "internalType": "address[]",
          "name": "wallets",
          "type": "address[]"
        }
      ],
      "name": "KycWalletsAdded",
      "type": "event"
    },
    {
      "anonymous": false,
      "inputs": [
        {
          "indexed": false,
          "internalType": "address[]",
          "name": "wallets",
          "type": "address[]"
        }
      ],
      "name": "KycWalletsRemoved",
      "type": "event"
    },
    {
      "anonymous": false,
      "inputs": [
        {
          "indexed": false,
          "internalType": "address",
          "name": "messageSigner",
          "type": "address"
        }
      ],
      "name": "MessageSignerSet",
      "type": "event"
    },
    {
      "anonymous": false,
      "inputs": [
        {
          "indexed": true,
          "internalType": "address",
          "name": "previousOwner",
          "type": "address"
        },
        {
          "indexed": true,
          "internalType": "address",
          "name": "newOwner",
          "type": "address"
        }
      ],
      "name": "OwnershipTransferred",
      "type": "event"
    },
    {
      "anonymous": false,
      "inputs": [
        {
          "indexed": false,
          "internalType": "bytes32",
          "name": "role",
          "type": "bytes32"
        },
        {
          "indexed": false,
          "internalType": "address",
          "name": "account",
          "type": "address"
        },
        {
          "indexed": false,
          "internalType": "address",
          "name": "operator",
          "type": "address"
        }
      ],
      "name": "RoleGranted",
      "type": "event"
    },
    {
      "anonymous": false,
      "inputs": [
        {
          "indexed": false,
          "internalType": "bytes32",
          "name": "role",
          "type": "bytes32"
        },
        {
          "indexed": false,
          "internalType": "address",
          "name": "account",
          "type": "address"
        },
        {
          "indexed": false,
          "internalType": "address",
          "name": "operator",
          "type": "address"
        }
      ],
      "name": "RoleRevoked",
      "type": "event"
    },
    {
      "inputs": [],
      "name": "EDU_LAND_REWARDS",
      "outputs": [
        {
          "internalType": "contract IEDULandRewards",
          "name": "",
          "type": "address"
        }
      ],
      "stateMutability": "view",
      "type": "function"
    },
    {
      "inputs": [],
      "name": "OPERATOR_ROLE",
      "outputs": [
        {
          "internalType": "bytes32",
          "name": "",
          "type": "bytes32"
        }
      ],
      "stateMutability": "view",
      "type": "function"
    },
    {
      "inputs": [],
      "name": "__msgData",
      "outputs": [
        {
          "internalType": "bytes",
          "name": "",
          "type": "bytes"
        }
      ],
      "stateMutability": "view",
      "type": "function"
    },
    {
      "inputs": [],
      "name": "__msgSender",
      "outputs": [
        {
          "internalType": "address",
          "name": "",
          "type": "address"
        }
      ],
      "stateMutability": "view",
      "type": "function"
    },
    {
      "inputs": [
        {
          "internalType": "address",
          "name": "wallet",
          "type": "address"
        },
        {
          "internalType": "uint256",
          "name": "expireAt",
          "type": "uint256"
        },
        {
          "internalType": "bytes",
          "name": "signature",
          "type": "bytes"
        }
      ],
      "name": "addKycWallet",
      "outputs": [],
      "stateMutability": "nonpayable",
      "type": "function"
    },
    {
      "inputs": [
        {
          "internalType": "address[]",
          "name": "wallets",
          "type": "address[]"
        }
      ],
      "name": "addKycWallets",
      "outputs": [],
      "stateMutability": "nonpayable",
      "type": "function"
    },
    {
      "inputs": [],
      "name": "eip712Domain",
      "outputs": [
        {
          "internalType": "bytes1",
          "name": "fields",
          "type": "bytes1"
        },
        {
          "internalType": "string",
          "name": "name",
          "type": "string"
        },
        {
          "internalType": "string",
          "name": "version",
          "type": "string"
        },
        {
          "internalType": "uint256",
          "name": "chainId",
          "type": "uint256"
        },
        {
          "internalType": "address",
          "name": "verifyingContract",
          "type": "address"
        },
        {
          "internalType": "bytes32",
          "name": "salt",
          "type": "bytes32"
        },
        {
          "internalType": "uint256[]",
          "name": "extensions",
          "type": "uint256[]"
        }
      ],
      "stateMutability": "view",
      "type": "function"
    },
    {
      "inputs": [],
      "name": "forwarderRegistry",
      "outputs": [
        {
          "internalType": "contract IForwarderRegistry",
          "name": "",
          "type": "address"
        }
      ],
      "stateMutability": "view",
      "type": "function"
    },
    {
      "inputs": [
        {
          "internalType": "bytes32",
          "name": "role",
          "type": "bytes32"
        },
        {
          "internalType": "address",
          "name": "account",
          "type": "address"
        }
      ],
      "name": "grantRole",
      "outputs": [],
      "stateMutability": "nonpayable",
      "type": "function"
    },
    {
      "inputs": [
        {
          "internalType": "bytes32",
          "name": "role",
          "type": "bytes32"
        },
        {
          "internalType": "address",
          "name": "account",
          "type": "address"
        }
      ],
      "name": "hasRole",
      "outputs": [
        {
          "internalType": "bool",
          "name": "hasRole_",
          "type": "bool"
        }
      ],
      "stateMutability": "view",
      "type": "function"
    },
    {
      "inputs": [
        {
          "internalType": "address",
          "name": "forwarder",
          "type": "address"
        }
      ],
      "name": "isTrustedForwarder",
      "outputs": [
        {
          "internalType": "bool",
          "name": "",
          "type": "bool"
        }
      ],
      "stateMutability": "view",
      "type": "function"
    },
    {
      "inputs": [],
      "name": "messageSigner",
      "outputs": [
        {
          "internalType": "address",
          "name": "",
          "type": "address"
        }
      ],
      "stateMutability": "view",
      "type": "function"
    },
    {
      "inputs": [],
      "name": "owner",
      "outputs": [
        {
          "internalType": "address",
          "name": "",
          "type": "address"
        }
      ],
      "stateMutability": "view",
      "type": "function"
    },
    {
      "inputs": [
        {
          "internalType": "address[]",
          "name": "wallets",
          "type": "address[]"
        }
      ],
      "name": "removeKycWallets",
      "outputs": [],
      "stateMutability": "nonpayable",
      "type": "function"
    },
    {
      "inputs": [
        {
          "internalType": "bytes32",
          "name": "role",
          "type": "bytes32"
        }
      ],
      "name": "renounceRole",
      "outputs": [],
      "stateMutability": "nonpayable",
      "type": "function"
    },
    {
      "inputs": [
        {
          "internalType": "bytes32",
          "name": "role",
          "type": "bytes32"
        },
        {
          "internalType": "address",
          "name": "account",
          "type": "address"
        }
      ],
      "name": "revokeRole",
      "outputs": [],
      "stateMutability": "nonpayable",
      "type": "function"
    },
    {
      "inputs": [
        {
          "internalType": "address",
          "name": "messageSigner_",
          "type": "address"
        }
      ],
      "name": "setMessageSigner",
      "outputs": [],
      "stateMutability": "nonpayable",
      "type": "function"
    },
    {
      "inputs": [
        {
          "internalType": "bytes4",
          "name": "interfaceId",
          "type": "bytes4"
        }
      ],
      "name": "supportsInterface",
      "outputs": [
        {
          "internalType": "bool",
          "name": "",
          "type": "bool"
        }
      ],
      "stateMutability": "view",
      "type": "function"
    },
    {
      "inputs": [
        {
          "internalType": "address",
          "name": "newOwner",
          "type": "address"
        }
      ],
      "name": "transferOwnership",
      "outputs": [],
      "stateMutability": "nonpayable",
      "type": "function"
    }
  ],
  "bytecode": "0x6101a06040523480156200001257600080fd5b5060405162002571380380620025718339810160408190526200003591620003ac565b8282826040518060400160405280601b81526020017f4544554c616e64526577617264734b5943436f6e74726f6c6c65720000000000815250604051806040016040528060038152602001620312e360ec1b815250828033620000a981620000a2620001d260201b60201c565b9062000208565b506001600160a01b031660805250620000c482600062000283565b61014052620000d581600162000283565b61016052815160208084019190912061010052815190820120610120524660c052620001656101005161012051604080517f8b73c3c69bb8fe3d512ecc4cf759cc79239f7b179b0ffacaa9a75d522b39400f60208201529081019290925260608201524660808201523060a082015260009060c00160405160208183030381529060405280519060200120905090565b60a05250503060e0526001600160a01b0382811661018052600280546001600160a01b03191691851691821790556040519081527f66b8dbbd7f4a59921c0e0f594b6fb8434e778851611f323b7c3d00d07a74b1209060200160405180910390a15050505050506200060b565b6000806200020260017fc9ed16f33ab3a66c84bfd83099ccb2a8845871e2e1c1928f63797152f0fd54cd62000400565b92915050565b6001600160a01b038116156200025f5781546001600160a01b0319166001600160a01b03821690811783556040516000907f8be0079c531659141344cd1fd0a4f28419497f9722a3daafe3b4186f6b6457e0908290a35b6200027f6307f5828d60e41b600162000277620002ba565b9190620002ea565b5050565b6000602083511015620002a3576200029b8362000347565b905062000202565b81620002b08482620004c9565b5060ff9392505050565b6000806200020260017fca9d3e17f264b0f3984e2634e94adb37fa3e6a8103f06aeae6fa59e21c769f5e62000400565b600160e01b6001600160e01b031983160162000319576040516372c683bb60e01b815260040160405180910390fd5b6001600160e01b03199190911660009081526020929092526040909120805460ff1916911515919091179055565b600080829050601f815111156200037e578260405163305a27a960e01b815260040162000375919062000595565b60405180910390fd5b80516200038b82620005e6565b179392505050565b6001600160a01b0381168114620003a957600080fd5b50565b600080600060608486031215620003c257600080fd5b8351620003cf8162000393565b6020850151909350620003e28162000393565b6040850151909250620003f58162000393565b809150509250925092565b818103818111156200020257634e487b7160e01b600052601160045260246000fd5b634e487b7160e01b600052604160045260246000fd5b600181811c908216806200044d57607f821691505b6020821081036200046e57634e487b7160e01b600052602260045260246000fd5b50919050565b601f821115620004c4576000816000526020600020601f850160051c810160208610156200049f5750805b601f850160051c820191505b81811015620004c057828155600101620004ab565b5050505b505050565b81516001600160401b03811115620004e557620004e562000422565b620004fd81620004f6845462000438565b8462000474565b602080601f8311600181146200053557600084156200051c5750858301515b600019600386901b1c1916600185901b178555620004c0565b600085815260208120601f198616915b82811015620005665788860151825594840194600190910190840162000545565b5085821015620005855787850151600019600388901b60f8161c191681555b5050505050600190811b01905550565b60006020808352835180602085015260005b81811015620005c557858101830151858201604001528201620005a7565b506000604082860101526040601f19601f8301168501019250505092915050565b805160208083015191908110156200046e5760001960209190910360031b1b16919050565b60805160a05160c05160e0516101005161012051610140516101605161018051611ebd620006b46000396000818161031601528181610412015281816107740152610886015260006109580152600061092e01526000611522015260006114fa015260006114550152600061147f015260006114a90152600081816101da0152818161024a015281816111cd015281816112550152818161130801526113460152611ebd6000f3fe608060405234801561001057600080fd5b50600436106101515760003560e01c80637cd727ba116100cd578063d1a91ff211610081578063d955bab311610066578063d955bab314610311578063f2fde38b14610338578063f5b541a61461034b57600080fd5b8063d1a91ff2146102f6578063d547741f146102fe57600080fd5b80638bb9c5bf116100b25780638bb9c5bf146102c85780638da5cb5b146102db57806391d14854146102e357600080fd5b80637cd727ba1461029a57806384b0196e146102ad57600080fd5b80632f2ff15d116101245780634b36df53116101095780634b36df5314610227578063572b6c051461023a578063688e10811461028757600080fd5b80632f2ff15d146101fe57806331e66e1e1461021157600080fd5b806301ffc9a714610156578063080387b41461017e578063229d683d146101c35780632b4c9f16146101d8575b600080fd5b61016961016436600461190b565b610380565b60405190151581526020015b60405180910390f35b60025461019e9073ffffffffffffffffffffffffffffffffffffffff1681565b60405173ffffffffffffffffffffffffffffffffffffffff9091168152602001610175565b6101d66101d136600461194d565b61039a565b005b7f000000000000000000000000000000000000000000000000000000000000000061019e565b6101d661020c3660046119eb565b6104b8565b6102196104f1565b604051610175929190611a60565b6101d6610235366004611a7c565b610504565b610169610248366004611a7c565b7f000000000000000000000000000000000000000000000000000000000000000073ffffffffffffffffffffffffffffffffffffffff90811691161490565b6101d6610295366004611a97565b610590565b6101d66102a836600461194d565b61081d565b6102b5610920565b6040516101759796959493929190611b82565b6101d66102d6366004611c44565b6109c4565b61019e6109e2565b6101696102f13660046119eb565b610a0e565b61019e610a59565b6101d661030c3660046119eb565b610a63565b61019e7f000000000000000000000000000000000000000000000000000000000000000081565b6101d6610346366004611a7c565b610a91565b6103727f97667070c54ef182b0f5858b034beac1b6f3089aa2d3188bb1e8929f4fa9b92981565b604051908152602001610175565b60006103948261038e610aac565b90610ada565b92915050565b6103d57f97667070c54ef182b0f5858b034beac1b6f3089aa2d3188bb1e8929f4fa9b9296103c6610bb4565b6103ce610bbe565b9190610bec565b6040517f229d683d00000000000000000000000000000000000000000000000000000000815273ffffffffffffffffffffffffffffffffffffffff7f0000000000000000000000000000000000000000000000000000000000000000169063229d683d906104499085908590600401611c5d565b600060405180830381600087803b15801561046357600080fd5b505af1158015610477573d6000803e3d6000fd5b505050507fce2bd94f673db625f203578fd574af903b9fd5dc2593832add8ba27b9057de3a82826040516104ac929190611c5d565b60405180910390a15050565b60006104c2610bb4565b90506104d6816104d0610c72565b90610ca0565b6104ec8383836104e4610bbe565b929190610d0f565b505050565b3660006104fc610de6565b915091509091565b61051761050f610bb4565b6104d0610c72565b600280547fffffffffffffffffffffffff00000000000000000000000000000000000000001673ffffffffffffffffffffffffffffffffffffffff83169081179091556040519081527f66b8dbbd7f4a59921c0e0f594b6fb8434e778851611f323b7c3d00d07a74b1209060200160405180910390a150565b8242106105da57838383836040517f9ea5f74a0000000000000000000000000000000000000000000000000000000081526004016105d19493929190611cb6565b60405180910390fd5b604080517f97063d02622584e48ff438de7aad453d789fda5192a24c72c3f7e5a05a6fa9fb602082015273ffffffffffffffffffffffffffffffffffffffff8616918101919091526060810184905260009061064e9060800160405160208183030381529060405280519060200120610df1565b9050600061069484848080601f0160208091040260200160405190810160405280939291908181526020018383808284376000920191909152508693925050610e399050565b60025490915073ffffffffffffffffffffffffffffffffffffffff8083169116146106f357858585856040517f7f064e740000000000000000000000000000000000000000000000000000000081526004016105d19493929190611cb6565b60408051600180825281830190925260009160208083019080368337019050509050868160008151811061072957610729611cf6565b73ffffffffffffffffffffffffffffffffffffffff92831660209182029290920101526040517f229d683d0000000000000000000000000000000000000000000000000000000081527f00000000000000000000000000000000000000000000000000000000000000009091169063229d683d906107ab908490600401611d25565b600060405180830381600087803b1580156107c557600080fd5b505af11580156107d9573d6000803e3d6000fd5b505050507fce2bd94f673db625f203578fd574af903b9fd5dc2593832add8ba27b9057de3a8160405161080c9190611d25565b60405180910390a150505050505050565b6108497f97667070c54ef182b0f5858b034beac1b6f3089aa2d3188bb1e8929f4fa9b9296103c6610bb4565b6040517f7cd727ba00000000000000000000000000000000000000000000000000000000815273ffffffffffffffffffffffffffffffffffffffff7f00000000000000000000000000000000000000000000000000000000000000001690637cd727ba906108bd9085908590600401611c5d565b600060405180830381600087803b1580156108d757600080fd5b505af11580156108eb573d6000803e3d6000fd5b505050507f9063cc81f7b7355a42e797c2e706377c4431f539572eb4c2ef6f2011ae19a96682826040516104ac929190611c5d565b6000606080828080836109537f000000000000000000000000000000000000000000000000000000000000000083610e5d565b61097e7f00000000000000000000000000000000000000000000000000000000000000006001610e5d565b604080516000808252602082019092527f0f000000000000000000000000000000000000000000000000000000000000009b939a50919850469750309650945092509050565b6109df6109cf610bb4565b826109d8610bbe565b9190610f08565b50565b6000610a096109ef610c72565b5473ffffffffffffffffffffffffffffffffffffffff1690565b905090565b6000610a528383610a1d610bbe565b60009283526020908152604080842073ffffffffffffffffffffffffffffffffffffffff909316845291905290205460ff1690565b9392505050565b6000610a09610bb4565b6000610a6d610bb4565b9050610a7b816104d0610c72565b6104ec838383610a89610bbe565b929190610fac565b6109df610a9c610bb4565b82610aa5610c72565b9190611076565b60008061039460017fca9d3e17f264b0f3984e2634e94adb37fa3e6a8103f06aeae6fa59e21c769f5e611d7f565b60007c01000000000000000000000000000000000000000000000000000000007fffffffff00000000000000000000000000000000000000000000000000000000831601610b2a57506000610394565b7ffe003659000000000000000000000000000000000000000000000000000000007fffffffff00000000000000000000000000000000000000000000000000000000831601610b7b57506001610394565b507fffffffff00000000000000000000000000000000000000000000000000000000166000908152602091909152604090205460ff1690565b6000610a0961118a565b60008061039460017fc8827d3282af6f37b64c3e9e6f3ac9df286ab0bb0fccd6f8661bf19adb368b23611d7f565b60008281526020848152604080832073ffffffffffffffffffffffffffffffffffffffff8516845290915290205460ff166104ec576040517f7aa728820000000000000000000000000000000000000000000000000000000081526004810183905273ffffffffffffffffffffffffffffffffffffffff821660248201526044016105d1565b60008061039460017fc9ed16f33ab3a66c84bfd83099ccb2a8845871e2e1c1928f63797152f0fd54cd611d7f565b815473ffffffffffffffffffffffffffffffffffffffff828116911614610d0b576040517f2ef4875e00000000000000000000000000000000000000000000000000000000815273ffffffffffffffffffffffffffffffffffffffff821660048201526024016105d1565b5050565b60008381526020858152604080832073ffffffffffffffffffffffffffffffffffffffff8616845290915290205460ff16610de05760008381526020858152604080832073ffffffffffffffffffffffffffffffffffffffff8681168086529184529382902080547fffffffffffffffffffffffffffffffffffffffffffffffffffffffffffffff00166001179055815187815292830152918316918101919091527f2f8788117e7eff1d82e926ec794901d17c78024a50270940304540a733656f0d906060015b60405180910390a15b50505050565b3660006104fc6112d1565b6000610394610dfe61143b565b836040517f19010000000000000000000000000000000000000000000000000000000000008152600281019290925260228201526042902090565b6000806000610e488585611573565b91509150610e55816115b8565b509392505050565b606060ff8314610e7757610e708361176b565b9050610394565b818054610e8390611db9565b80601f0160208091040260200160405190810160405280929190818152602001828054610eaf90611db9565b8015610efc5780601f10610ed157610100808354040283529160200191610efc565b820191906000526020600020905b815481529060010190602001808311610edf57829003601f168201915b50505050509050610394565b610f13838284610bec565b60008181526020848152604080832073ffffffffffffffffffffffffffffffffffffffff86168085529083529281902080547fffffffffffffffffffffffffffffffffffffffffffffffffffffffffffffff0016905580518481529182018390528101919091527ff6391f5c32d9c69d2a47ea670b442974b53935d1edc7fd64eb21e047a839171b9060600160405180910390a1505050565b60008381526020858152604080832073ffffffffffffffffffffffffffffffffffffffff8616845290915290205460ff1615610de05760008381526020858152604080832073ffffffffffffffffffffffffffffffffffffffff8681168086529184529382902080547fffffffffffffffffffffffffffffffffffffffffffffffffffffffffffffff00169055815187815292830152918316918101919091527ff6391f5c32d9c69d2a47ea670b442974b53935d1edc7fd64eb21e047a839171b90606001610dd7565b825473ffffffffffffffffffffffffffffffffffffffff90811690831681146110e3576040517f2ef4875e00000000000000000000000000000000000000000000000000000000815273ffffffffffffffffffffffffffffffffffffffff841660048201526024016105d1565b8173ffffffffffffffffffffffffffffffffffffffff168173ffffffffffffffffffffffffffffffffffffffff1614610de05783547fffffffffffffffffffffffff00000000000000000000000000000000000000001673ffffffffffffffffffffffffffffffffffffffff8381169182178655604051908316907f8be0079c531659141344cd1fd0a4f28419497f9722a3daafe3b4186f6b6457e090600090a350505050565b60003332148061119a5750601836105b156111a457503390565b7fffffffffffffffffffffffffffffffffffffffffffffffffffffffffffffffec36013560601c7f000000000000000000000000000000000000000000000000000000000000000073ffffffffffffffffffffffffffffffffffffffff163314806112c057506040517f8929a8ca00000000000000000000000000000000000000000000000000000000815273ffffffffffffffffffffffffffffffffffffffff82811660048301523360248301527f00000000000000000000000000000000000000000000000000000000000000001690638929a8ca90604401602060405180830381865afa15801561129c573d6000803e3d6000fd5b505050506040513d601f19601f820116820180604052508101906112c09190611e0c565b156112ca57919050565b3391505090565b366000333214806112e25750601836105b156112f05750600091369150565b3373ffffffffffffffffffffffffffffffffffffffff7f0000000000000000000000000000000000000000000000000000000000000000161480611425575073ffffffffffffffffffffffffffffffffffffffff7f000000000000000000000000000000000000000000000000000000000000000016638929a8ca367fffffffffffffffffffffffffffffffffffffffffffffffffffffffffffffffec013560601c6040517fffffffff0000000000000000000000000000000000000000000000000000000060e084901b16815273ffffffffffffffffffffffffffffffffffffffff9091166004820152336024820152604401602060405180830381865afa158015611401573d6000803e3d6000fd5b505050506040513d601f19601f820116820180604052508101906114259190611e0c565b15611432576104fc6117aa565b50600091369150565b60003073ffffffffffffffffffffffffffffffffffffffff7f0000000000000000000000000000000000000000000000000000000000000000161480156114a157507f000000000000000000000000000000000000000000000000000000000000000046145b156114cb57507f000000000000000000000000000000000000000000000000000000000000000090565b610a09604080517f8b73c3c69bb8fe3d512ecc4cf759cc79239f7b179b0ffacaa9a75d522b39400f60208201527f0000000000000000000000000000000000000000000000000000000000000000918101919091527f000000000000000000000000000000000000000000000000000000000000000060608201524660808201523060a082015260009060c00160405160208183030381529060405280519060200120905090565b60008082516041036115a95760208301516040840151606085015160001a61159d878285856117db565b945094505050506115b1565b506000905060025b9250929050565b60008160048111156115cc576115cc611e2e565b036115d45750565b60018160048111156115e8576115e8611e2e565b0361164f576040517f08c379a000000000000000000000000000000000000000000000000000000000815260206004820152601860248201527f45434453413a20696e76616c6964207369676e6174757265000000000000000060448201526064016105d1565b600281600481111561166357611663611e2e565b036116ca576040517f08c379a000000000000000000000000000000000000000000000000000000000815260206004820152601f60248201527f45434453413a20696e76616c6964207369676e6174757265206c656e6774680060448201526064016105d1565b60038160048111156116de576116de611e2e565b036109df576040517f08c379a000000000000000000000000000000000000000000000000000000000815260206004820152602260248201527f45434453413a20696e76616c6964207369676e6174757265202773272076616c60448201527f756500000000000000000000000000000000000000000000000000000000000060648201526084016105d1565b60606000611778836118ca565b604080516020808252818301909252919250600091906020820181803683375050509182525060208101929092525090565b3660006104fc7fffffffffffffffffffffffffffffffffffffffffffffffffffffffffffffffec8301828481611e5d565b6000807f7fffffffffffffffffffffffffffffff5d576e7357a4501ddfe92f46681b20a083111561181257506000905060036118c1565b6040805160008082526020820180845289905260ff881692820192909252606081018690526080810185905260019060a0016020604051602081039080840390855afa158015611866573d6000803e3d6000fd5b50506040517fffffffffffffffffffffffffffffffffffffffffffffffffffffffffffffffe0015191505073ffffffffffffffffffffffffffffffffffffffff81166118ba576000600192509250506118c1565b9150600090505b94509492505050565b600060ff8216601f811115610394576040517fb3512b0c00000000000000000000000000000000000000000000000000000000815260040160405180910390fd5b60006020828403121561191d57600080fd5b81357fffffffff0000000000000000000000000000000000000000000000000000000081168114610a5257600080fd5b6000806020838503121561196057600080fd5b823567ffffffffffffffff8082111561197857600080fd5b818501915085601f83011261198c57600080fd5b81358181111561199b57600080fd5b8660208260051b85010111156119b057600080fd5b60209290920196919550909350505050565b803573ffffffffffffffffffffffffffffffffffffffff811681146119e657600080fd5b919050565b600080604083850312156119fe57600080fd5b82359150611a0e602084016119c2565b90509250929050565b8183528181602085013750600060208284010152600060207fffffffffffffffffffffffffffffffffffffffffffffffffffffffffffffffe0601f840116840101905092915050565b602081526000611a74602083018486611a17565b949350505050565b600060208284031215611a8e57600080fd5b610a52826119c2565b60008060008060608587031215611aad57600080fd5b611ab6856119c2565b935060208501359250604085013567ffffffffffffffff80821115611ada57600080fd5b818701915087601f830112611aee57600080fd5b813581811115611afd57600080fd5b886020828501011115611b0f57600080fd5b95989497505060200194505050565b6000815180845260005b81811015611b4457602081850181015186830182015201611b28565b5060006020828601015260207fffffffffffffffffffffffffffffffffffffffffffffffffffffffffffffffe0601f83011685010191505092915050565b7fff00000000000000000000000000000000000000000000000000000000000000881681526000602060e06020840152611bbf60e084018a611b1e565b8381036040850152611bd1818a611b1e565b6060850189905273ffffffffffffffffffffffffffffffffffffffff8816608086015260a0850187905284810360c08601528551808252602080880193509091019060005b81811015611c3257835183529284019291840191600101611c16565b50909c9b505050505050505050505050565b600060208284031215611c5657600080fd5b5035919050565b60208082528181018390526000908460408401835b86811015611cab5773ffffffffffffffffffffffffffffffffffffffff611c98846119c2565b1682529183019190830190600101611c72565b509695505050505050565b73ffffffffffffffffffffffffffffffffffffffff85168152836020820152606060408201526000611cec606083018486611a17565b9695505050505050565b7f4e487b7100000000000000000000000000000000000000000000000000000000600052603260045260246000fd5b6020808252825182820181905260009190848201906040850190845b81811015611d7357835173ffffffffffffffffffffffffffffffffffffffff1683529284019291840191600101611d41565b50909695505050505050565b81810381811115610394577f4e487b7100000000000000000000000000000000000000000000000000000000600052601160045260246000fd5b600181811c90821680611dcd57607f821691505b602082108103611e06577f4e487b7100000000000000000000000000000000000000000000000000000000600052602260045260246000fd5b50919050565b600060208284031215611e1e57600080fd5b81518015158114610a5257600080fd5b7f4e487b7100000000000000000000000000000000000000000000000000000000600052602160045260246000fd5b60008085851115611e6d57600080fd5b83861115611e7a57600080fd5b505082019391909203915056fea2646970667358221220d4b2aab2a82871a55613bfaf827a71a04ba0eda7d3862f3e2accc50a48dd46a064736f6c63430008160033",
  "linkReferences": {},
  "deployedLinkReferences": {}
}