{
  "_format": "hh-sol-artifact-1",
  "contractName": "EDULandRewardsKYCControllerMock",
  "sourceName": "contracts/mocks/land/EDULandRewardsKYCControllerMock.sol",
  "abi": [
    {
      "inputs": [
        {
          "internalType": "address",
          "name": "eduLandRewardsAddress",
          "type": "address"
        },
        {
          "internalType": "address",
          "name": "certificateNFTV1Address",
          "type": "address"
        },
        {
          "internalType": "address",
          "name": "vcIssuerAddress",
          "type": "address"
        },
        {
          "internalType": "contract IForwarderRegistry",
          "name": "forwarderRegistry",
          "type": "address"
        }
      ],
      "stateMutability": "nonpayable",
      "type": "constructor"
    },
    {
      "inputs": [],
      "name": "InvalidCertificateNFTv1Address",
      "type": "error"
    },
    {
      "inputs": [],
      "name": "InvalidEduLandRewardsAddress",
      "type": "error"
    },
    {
      "inputs": [],
      "name": "InvalidVcIssuerAddress",
      "type": "error"
    },
    {
      "inputs": [
        {
          "internalType": "address",
          "name": "account",
          "type": "address"
        },
        {
          "internalType": "uint256",
          "name": "vcId",
          "type": "uint256"
        }
      ],
      "name": "KycWalletAlreadySet",
      "type": "error"
    },
    {
      "inputs": [
        {
          "internalType": "address",
          "name": "account",
          "type": "address"
        }
      ],
      "name": "KycWalletNotSet",
      "type": "error"
    },
    {
      "inputs": [
        {
          "internalType": "uint256",
          "name": "vcId",
          "type": "uint256"
        }
      ],
      "name": "RevokedVc",
      "type": "error"
    },
    {
      "inputs": [
        {
          "internalType": "uint256",
          "name": "vcId",
          "type": "uint256"
        },
        {
          "internalType": "string",
          "name": "issuerDid",
          "type": "string"
        }
      ],
      "name": "VcIssuerNotAllowed",
      "type": "error"
    },
    {
      "inputs": [
        {
          "internalType": "uint256",
          "name": "vcId",
          "type": "uint256"
        }
      ],
      "name": "VcNotRevoked",
      "type": "error"
    },
    {
      "anonymous": false,
      "inputs": [
        {
          "indexed": false,
          "internalType": "address[]",
          "name": "accounts",
          "type": "address[]"
        }
      ],
      "name": "KycWalletsAdded",
      "type": "event"
    },
    {
      "anonymous": false,
      "inputs": [
        {
          "indexed": false,
          "internalType": "address[]",
          "name": "accounts",
          "type": "address[]"
        }
      ],
      "name": "KycWalletsRemoved",
      "type": "event"
    },
    {
      "inputs": [],
      "name": "EDU_LAND_REWARDS",
      "outputs": [
        {
          "internalType": "contract RewardsKYC",
          "name": "",
          "type": "address"
        }
      ],
      "stateMutability": "view",
      "type": "function"
    },
    {
      "inputs": [],
      "name": "VC_ISSUER",
      "outputs": [
        {
          "internalType": "address",
          "name": "",
          "type": "address"
        }
      ],
      "stateMutability": "view",
      "type": "function"
    },
    {
      "inputs": [],
      "name": "VC_ISSUERS_DID_REGISTRY",
      "outputs": [
        {
          "internalType": "contract IIssuersDIDRegistry",
          "name": "",
          "type": "address"
        }
      ],
      "stateMutability": "view",
      "type": "function"
    },
    {
      "inputs": [],
      "name": "VC_NFT_V1",
      "outputs": [
        {
          "internalType": "contract OpenCampusCertificateNFTv1",
          "name": "",
          "type": "address"
        }
      ],
      "stateMutability": "view",
      "type": "function"
    },
    {
      "inputs": [],
      "name": "__msgData",
      "outputs": [
        {
          "internalType": "bytes",
          "name": "",
          "type": "bytes"
        }
      ],
      "stateMutability": "view",
      "type": "function"
    },
    {
      "inputs": [],
      "name": "__msgSender",
      "outputs": [
        {
          "internalType": "address",
          "name": "",
          "type": "address"
        }
      ],
      "stateMutability": "view",
      "type": "function"
    },
    {
      "inputs": [
        {
          "internalType": "uint256[]",
          "name": "vcIds",
          "type": "uint256[]"
        }
      ],
      "name": "addKycWallets",
      "outputs": [],
      "stateMutability": "nonpayable",
      "type": "function"
    },
    {
      "inputs": [],
      "name": "forwarderRegistry",
      "outputs": [
        {
          "internalType": "contract IForwarderRegistry",
          "name": "",
          "type": "address"
        }
      ],
      "stateMutability": "view",
      "type": "function"
    },
    {
      "inputs": [
        {
          "internalType": "address",
          "name": "forwarder",
          "type": "address"
        }
      ],
      "name": "isTrustedForwarder",
      "outputs": [
        {
          "internalType": "bool",
          "name": "",
          "type": "bool"
        }
      ],
      "stateMutability": "view",
      "type": "function"
    },
    {
      "inputs": [
        {
          "internalType": "address[]",
          "name": "accounts",
          "type": "address[]"
        }
      ],
      "name": "removeKycWallets",
      "outputs": [],
      "stateMutability": "nonpayable",
      "type": "function"
    },
    {
      "inputs": [
        {
          "internalType": "address",
          "name": "account",
          "type": "address"
        }
      ],
      "name": "vcIdPerAccount",
      "outputs": [
        {
          "internalType": "uint256",
          "name": "vcId",
          "type": "uint256"
        }
      ],
      "stateMutability": "view",
      "type": "function"
    }
  ],
  "bytecode": "0x6101206040523480156200001257600080fd5b50604051620018a5380380620018a583398101604081905262000035916200016f565b6001600160a01b03808216608052849084908490849084166200006b576040516395267c7d60e01b815260040160405180910390fd5b6001600160a01b038316620000935760405163099e84bb60e31b815260040160405180910390fd5b6001600160a01b038216620000bb57604051633899461f60e01b815260040160405180910390fd5b6001600160a01b0380851660a052831660c08190526040805163043d901560e51b815290516387b202a0916004808201926020929091908290030181865afa1580156200010c573d6000803e3d6000fd5b505050506040513d601f19601f82011682018060405250810190620001329190620001d7565b6001600160a01b0390811660e052919091166101005250620001fe95505050505050565b6001600160a01b03811681146200016c57600080fd5b50565b600080600080608085870312156200018657600080fd5b8451620001938162000156565b6020860151909450620001a68162000156565b6040860151909350620001b98162000156565b6060860151909250620001cc8162000156565b939692955090935050565b600060208284031215620001ea57600080fd5b8151620001f78162000156565b9392505050565b60805160a05160c05160e051610100516115f3620002b2600039600081816101e8015281816102d301526108cf01526000818161020f015281816105ef0152610b53015260008181610265015281816102f8015281816103b301528181610503015281816108f40152610a6301526000818161023e015281816108120152610d1c01526000818160e50152818161015501528181610e1f01528181610e5d01528181610f95015261101d01526115f36000f3fe608060405234801561001057600080fd5b50600436106100c95760003560e01c80637cd727ba11610081578063d1a91ff21161005b578063d1a91ff214610231578063d955bab314610239578063da01af291461026057600080fd5b80637cd727ba146101d0578063a804eee9146101e3578063ce1b9d2d1461020a57600080fd5b806331e66e1e116100b257806331e66e1e1461012f578063572b6c05146101455780636e27084e146101a257600080fd5b806308e77ef1146100ce5780632b4c9f16146100e3575b600080fd5b6100e16100dc366004611116565b610287565b005b7f00000000000000000000000000000000000000000000000000000000000000005b60405173ffffffffffffffffffffffffffffffffffffffff90911681526020015b60405180910390f35b6101376108b8565b604051610126929190611158565b6101926101533660046111ca565b7f000000000000000000000000000000000000000000000000000000000000000073ffffffffffffffffffffffffffffffffffffffff90811691161490565b6040519015158152602001610126565b6101c26101b03660046111ca565b60006020819052908152604090205481565b604051908152602001610126565b6100e16101de366004611116565b6108cb565b6101057f000000000000000000000000000000000000000000000000000000000000000081565b6101057f000000000000000000000000000000000000000000000000000000000000000081565b610105610dc4565b6101057f000000000000000000000000000000000000000000000000000000000000000081565b6101057f000000000000000000000000000000000000000000000000000000000000000081565b8060008167ffffffffffffffff8111156102a3576102a36111ee565b6040519080825280602002602001820160405280156102cc578160200160208202803683370190505b50905060007f0000000000000000000000000000000000000000000000000000000000000000905060007f000000000000000000000000000000000000000000000000000000000000000073ffffffffffffffffffffffffffffffffffffffff1663f0f2740d6040518163ffffffff1660e01b8152600401602060405180830381865afa158015610361573d6000803e3d6000fd5b505050506040513d601f19601f82011682018060405250810190610385919061121d565b905060005b848110156107d45760008787838181106103a6576103a661123a565b90506020020135905060007f000000000000000000000000000000000000000000000000000000000000000073ffffffffffffffffffffffffffffffffffffffff16636352211e836040518263ffffffff1660e01b815260040161040c91815260200190565b602060405180830381865afa158015610429573d6000803e3d6000fd5b505050506040513d601f19601f8201168201806040525081019061044d919061121d565b73ffffffffffffffffffffffffffffffffffffffff8116600090815260208190526040902054909150156104d1576040517fb638fab100000000000000000000000000000000000000000000000000000000815273ffffffffffffffffffffffffffffffffffffffff82166004820152602481018390526044015b60405180910390fd5b6040517f4bae2be8000000000000000000000000000000000000000000000000000000008152600481018390526000907f000000000000000000000000000000000000000000000000000000000000000073ffffffffffffffffffffffffffffffffffffffff1690634bae2be890602401600060405180830381865afa15801561055f573d6000803e3d6000fd5b505050506040513d6000823e601f3d9081017fffffffffffffffffffffffffffffffffffffffffffffffffffffffffffffffe01682016040526105a59190810190611362565b50805160208201206040517f6f176f7e000000000000000000000000000000000000000000000000000000008152919750955073ffffffffffffffffffffffffffffffffffffffff7f0000000000000000000000000000000000000000000000000000000000000000169450636f176f7e935061062a92508691508b90600401611463565b602060405180830381865afa158015610647573d6000803e3d6000fd5b505050506040513d601f19601f8201168201806040525081019061066b919061149b565b6106a55783826040517f190a2a1a0000000000000000000000000000000000000000000000000000000081526004016104c89291906114bd565b6040517fa3a2656a000000000000000000000000000000000000000000000000000000008152600481018290526024810185905260009073ffffffffffffffffffffffffffffffffffffffff88169063a3a2656a90604401602060405180830381865afa15801561071a573d6000803e3d6000fd5b505050506040513d601f19601f8201168201806040525081019061073e919061149b565b9050801561077b576040517f5d326d84000000000000000000000000000000000000000000000000000000008152600481018690526024016104c8565b8389878151811061078e5761078e61123a565b73ffffffffffffffffffffffffffffffffffffffff928316602091820292909201810191909152941660009081529384905250506040909120919091555060010161038a565b506040517f229d683d00000000000000000000000000000000000000000000000000000000815273ffffffffffffffffffffffffffffffffffffffff7f0000000000000000000000000000000000000000000000000000000000000000169063229d683d906108479086906004016114de565b600060405180830381600087803b15801561086157600080fd5b505af1158015610875573d6000803e3d6000fd5b505050507fce2bd94f673db625f203578fd574af903b9fd5dc2593832add8ba27b9057de3a836040516108a891906114de565b60405180910390a1505050505050565b3660006108c3610dd3565b915091509091565b60007f0000000000000000000000000000000000000000000000000000000000000000905060007f000000000000000000000000000000000000000000000000000000000000000073ffffffffffffffffffffffffffffffffffffffff1663f0f2740d6040518163ffffffff1660e01b8152600401602060405180830381865afa15801561095d573d6000803e3d6000fd5b505050506040513d601f19601f82011682018060405250810190610981919061121d565b905060005b83811015610cde5760008585838181106109a2576109a261123a565b90506020020160208101906109b791906111ca565b73ffffffffffffffffffffffffffffffffffffffff8116600090815260208190526040812054919250819003610a31576040517fe5e1e2a900000000000000000000000000000000000000000000000000000000815273ffffffffffffffffffffffffffffffffffffffff831660048201526024016104c8565b6040517f4bae2be8000000000000000000000000000000000000000000000000000000008152600481018290526000907f000000000000000000000000000000000000000000000000000000000000000073ffffffffffffffffffffffffffffffffffffffff1690634bae2be890602401600060405180830381865afa158015610abf573d6000803e3d6000fd5b505050506040513d6000823e601f3d9081017fffffffffffffffffffffffffffffffffffffffffffffffffffffffffffffffe0168201604052610b059190810190611362565b50805160208201206040517f6f176f7e00000000000000000000000000000000000000000000000000000000815291975095506000945073ffffffffffffffffffffffffffffffffffffffff7f0000000000000000000000000000000000000000000000000000000000000000169350636f176f7e9250610b8d915086908c90600401611463565b602060405180830381865afa158015610baa573d6000803e3d6000fd5b505050506040513d601f19601f82011682018060405250810190610bce919061149b565b90508015610cad576040517fa3a2656a000000000000000000000000000000000000000000000000000000008152600481018390526024810185905260009073ffffffffffffffffffffffffffffffffffffffff89169063a3a2656a90604401602060405180830381865afa158015610c4b573d6000803e3d6000fd5b505050506040513d601f19601f82011682018060405250810190610c6f919061149b565b905080610cab576040517f73bb6403000000000000000000000000000000000000000000000000000000008152600481018690526024016104c8565b505b5050505073ffffffffffffffffffffffffffffffffffffffff16600090815260208190526040812055600101610986565b506040517f7cd727ba00000000000000000000000000000000000000000000000000000000815273ffffffffffffffffffffffffffffffffffffffff7f00000000000000000000000000000000000000000000000000000000000000001690637cd727ba90610d539087908790600401611538565b600060405180830381600087803b158015610d6d57600080fd5b505af1158015610d81573d6000803e3d6000fd5b505050507f9063cc81f7b7355a42e797c2e706377c4431f539572eb4c2ef6f2011ae19a9668484604051610db6929190611538565b60405180910390a150505050565b6000610dce610dde565b905090565b3660006108c3610de8565b6000610dce610f52565b36600033321480610df95750601836105b15610e075750600091369150565b3373ffffffffffffffffffffffffffffffffffffffff7f0000000000000000000000000000000000000000000000000000000000000000161480610f3c575073ffffffffffffffffffffffffffffffffffffffff7f000000000000000000000000000000000000000000000000000000000000000016638929a8ca367fffffffffffffffffffffffffffffffffffffffffffffffffffffffffffffffec013560601c6040517fffffffff0000000000000000000000000000000000000000000000000000000060e084901b16815273ffffffffffffffffffffffffffffffffffffffff9091166004820152336024820152604401602060405180830381865afa158015610f18573d6000803e3d6000fd5b505050506040513d601f19601f82011682018060405250810190610f3c919061149b565b15610f49576108c3611099565b50600091369150565b600033321480610f625750601836105b15610f6c57503390565b7fffffffffffffffffffffffffffffffffffffffffffffffffffffffffffffffec36013560601c7f000000000000000000000000000000000000000000000000000000000000000073ffffffffffffffffffffffffffffffffffffffff1633148061108857506040517f8929a8ca00000000000000000000000000000000000000000000000000000000815273ffffffffffffffffffffffffffffffffffffffff82811660048301523360248301527f00000000000000000000000000000000000000000000000000000000000000001690638929a8ca90604401602060405180830381865afa158015611064573d6000803e3d6000fd5b505050506040513d601f19601f82011682018060405250810190611088919061149b565b1561109257919050565b3391505090565b3660006108c37fffffffffffffffffffffffffffffffffffffffffffffffffffffffffffffffec8301828481611593565b60008083601f8401126110dc57600080fd5b50813567ffffffffffffffff8111156110f457600080fd5b6020830191508360208260051b850101111561110f57600080fd5b9250929050565b6000806020838503121561112957600080fd5b823567ffffffffffffffff81111561114057600080fd5b61114c858286016110ca565b90969095509350505050565b60208152816020820152818360408301376000818301604090810191909152601f9092017fffffffffffffffffffffffffffffffffffffffffffffffffffffffffffffffe0160101919050565b73ffffffffffffffffffffffffffffffffffffffff811681146111c757600080fd5b50565b6000602082840312156111dc57600080fd5b81356111e7816111a5565b9392505050565b7f4e487b7100000000000000000000000000000000000000000000000000000000600052604160045260246000fd5b60006020828403121561122f57600080fd5b81516111e7816111a5565b7f4e487b7100000000000000000000000000000000000000000000000000000000600052603260045260246000fd5b805161ffff8116811461127b57600080fd5b919050565b805167ffffffffffffffff8116811461127b57600080fd5b60005b838110156112b357818101518382015260200161129b565b50506000910152565b600082601f8301126112cd57600080fd5b815167ffffffffffffffff808211156112e8576112e86111ee565b604051601f83017fffffffffffffffffffffffffffffffffffffffffffffffffffffffffffffffe0908116603f0116810190828211818310171561132e5761132e6111ee565b8160405283815286602085880101111561134757600080fd5b611358846020830160208901611298565b9695505050505050565b600080600080600080600060e0888a03121561137d57600080fd5b61138688611269565b965061139460208901611269565b95506113a260408901611280565b94506113b060608901611280565b93506113be60808901611280565b925060a088015167ffffffffffffffff808211156113db57600080fd5b6113e78b838c016112bc565b935060c08a01519150808211156113fd57600080fd5b5061140a8a828b016112bc565b91505092959891949750929550565b60008151808452611431816020860160208601611298565b601f017fffffffffffffffffffffffffffffffffffffffffffffffffffffffffffffffe0169290920160200192915050565b6040815260006114766040830185611419565b905073ffffffffffffffffffffffffffffffffffffffff831660208301529392505050565b6000602082840312156114ad57600080fd5b815180151581146111e757600080fd5b8281526040602082015260006114d66040830184611419565b949350505050565b6020808252825182820181905260009190848201906040850190845b8181101561152c57835173ffffffffffffffffffffffffffffffffffffffff16835292840192918401916001016114fa565b50909695505050505050565b60208082528181018390526000908460408401835b86811015611588578235611560816111a5565b73ffffffffffffffffffffffffffffffffffffffff168252918301919083019060010161154d565b509695505050505050565b600080858511156115a357600080fd5b838611156115b057600080fd5b505082019391909203915056fea2646970667358221220e1f4bd10362f53d561443b82cfb360bf29da1b1a42e16c771d0eaf95f21c827264736f6c63430008160033",
  "linkReferences": {},
  "deployedLinkReferences": {}
}