{
  "_format": "hh-sol-artifact-1",
  "contractName": "EDULandRewardsKYCControllerMock",
  "sourceName": "contracts/mocks/land/EDULandRewardsKYCControllerMock.sol",
  "abi": [
    {
      "inputs": [
        {
          "internalType": "address",
          "name": "eduLandRewardsAddress",
          "type": "address"
        },
        {
          "internalType": "address",
          "name": "certificateNFTV1Address",
          "type": "address"
        },
        {
          "internalType": "address",
          "name": "vcIssuerAddress",
          "type": "address"
        },
        {
          "internalType": "contract IForwarderRegistry",
          "name": "forwarderRegistry",
          "type": "address"
        }
      ],
      "stateMutability": "nonpayable",
      "type": "constructor"
    },
    {
      "inputs": [],
      "name": "IllegalInterfaceId",
      "type": "error"
    },
    {
      "inputs": [],
      "name": "InvalidCertificateNFTv1Address",
      "type": "error"
    },
    {
      "inputs": [],
      "name": "InvalidEduLandRewardsAddress",
      "type": "error"
    },
    {
      "inputs": [
        {
          "internalType": "bytes32",
          "name": "issuerDid",
          "type": "bytes32"
        }
      ],
      "name": "InvalidVcIssuerDid",
      "type": "error"
    },
    {
      "inputs": [
        {
          "internalType": "address",
          "name": "account",
          "type": "address"
        },
        {
          "internalType": "uint256",
          "name": "vcId",
          "type": "uint256"
        }
      ],
      "name": "KycWalletAlreadySet",
      "type": "error"
    },
    {
      "inputs": [
        {
          "internalType": "address",
          "name": "account",
          "type": "address"
        }
      ],
      "name": "KycWalletNotSet",
      "type": "error"
    },
    {
      "inputs": [
        {
          "internalType": "address",
          "name": "account",
          "type": "address"
        }
      ],
      "name": "NotContractOwner",
      "type": "error"
    },
    {
      "inputs": [
        {
          "internalType": "bytes32",
          "name": "role",
          "type": "bytes32"
        },
        {
          "internalType": "address",
          "name": "account",
          "type": "address"
        }
      ],
      "name": "NotRoleHolder",
      "type": "error"
    },
    {
      "inputs": [
        {
          "internalType": "uint256",
          "name": "vcId",
          "type": "uint256"
        }
      ],
      "name": "RevokedVc",
      "type": "error"
    },
    {
      "inputs": [
        {
          "internalType": "uint256",
          "name": "vcId",
          "type": "uint256"
        }
      ],
      "name": "VcNotRevoked",
      "type": "error"
    },
    {
      "anonymous": false,
      "inputs": [
        {
          "indexed": false,
          "internalType": "address[]",
          "name": "accounts",
          "type": "address[]"
        }
      ],
      "name": "KycWalletsAdded",
      "type": "event"
    },
    {
      "anonymous": false,
      "inputs": [
        {
          "indexed": false,
          "internalType": "address[]",
          "name": "accounts",
          "type": "address[]"
        }
      ],
      "name": "KycWalletsRemoved",
      "type": "event"
    },
    {
      "anonymous": false,
      "inputs": [
        {
          "indexed": true,
          "internalType": "address",
          "name": "previousOwner",
          "type": "address"
        },
        {
          "indexed": true,
          "internalType": "address",
          "name": "newOwner",
          "type": "address"
        }
      ],
      "name": "OwnershipTransferred",
      "type": "event"
    },
    {
      "anonymous": false,
      "inputs": [
        {
          "indexed": false,
          "internalType": "bytes32",
          "name": "role",
          "type": "bytes32"
        },
        {
          "indexed": false,
          "internalType": "address",
          "name": "account",
          "type": "address"
        },
        {
          "indexed": false,
          "internalType": "address",
          "name": "operator",
          "type": "address"
        }
      ],
      "name": "RoleGranted",
      "type": "event"
    },
    {
      "anonymous": false,
      "inputs": [
        {
          "indexed": false,
          "internalType": "bytes32",
          "name": "role",
          "type": "bytes32"
        },
        {
          "indexed": false,
          "internalType": "address",
          "name": "account",
          "type": "address"
        },
        {
          "indexed": false,
          "internalType": "address",
          "name": "operator",
          "type": "address"
        }
      ],
      "name": "RoleRevoked",
      "type": "event"
    },
    {
      "anonymous": false,
      "inputs": [
        {
          "indexed": false,
          "internalType": "address",
          "name": "vcIssuer",
          "type": "address"
        }
      ],
      "name": "VcIssuerSet",
      "type": "event"
    },
    {
      "inputs": [],
      "name": "EDU_LAND_REWARDS",
      "outputs": [
        {
          "internalType": "contract RewardsKYC",
          "name": "",
          "type": "address"
        }
      ],
      "stateMutability": "view",
      "type": "function"
    },
    {
      "inputs": [],
      "name": "OPERATOR_ROLE",
      "outputs": [
        {
          "internalType": "bytes32",
          "name": "",
          "type": "bytes32"
        }
      ],
      "stateMutability": "view",
      "type": "function"
    },
    {
      "inputs": [],
      "name": "VC_ISSUERS_DID_REGISTRY",
      "outputs": [
        {
          "internalType": "contract IIssuersDIDRegistry",
          "name": "",
          "type": "address"
        }
      ],
      "stateMutability": "view",
      "type": "function"
    },
    {
      "inputs": [],
      "name": "VC_NFT_V1",
      "outputs": [
        {
          "internalType": "contract OpenCampusCertificateNFTv1",
          "name": "",
          "type": "address"
        }
      ],
      "stateMutability": "view",
      "type": "function"
    },
    {
      "inputs": [],
      "name": "__msgData",
      "outputs": [
        {
          "internalType": "bytes",
          "name": "",
          "type": "bytes"
        }
      ],
      "stateMutability": "view",
      "type": "function"
    },
    {
      "inputs": [],
      "name": "__msgSender",
      "outputs": [
        {
          "internalType": "address",
          "name": "",
          "type": "address"
        }
      ],
      "stateMutability": "view",
      "type": "function"
    },
    {
      "inputs": [
        {
          "internalType": "uint256[]",
          "name": "vcIds",
          "type": "uint256[]"
        }
      ],
      "name": "addKycWallets",
      "outputs": [],
      "stateMutability": "nonpayable",
      "type": "function"
    },
    {
      "inputs": [],
      "name": "forwarderRegistry",
      "outputs": [
        {
          "internalType": "contract IForwarderRegistry",
          "name": "",
          "type": "address"
        }
      ],
      "stateMutability": "view",
      "type": "function"
    },
    {
      "inputs": [
        {
          "internalType": "bytes32",
          "name": "role",
          "type": "bytes32"
        },
        {
          "internalType": "address",
          "name": "account",
          "type": "address"
        }
      ],
      "name": "grantRole",
      "outputs": [],
      "stateMutability": "nonpayable",
      "type": "function"
    },
    {
      "inputs": [
        {
          "internalType": "bytes32",
          "name": "role",
          "type": "bytes32"
        },
        {
          "internalType": "address",
          "name": "account",
          "type": "address"
        }
      ],
      "name": "hasRole",
      "outputs": [
        {
          "internalType": "bool",
          "name": "hasRole_",
          "type": "bool"
        }
      ],
      "stateMutability": "view",
      "type": "function"
    },
    {
      "inputs": [
        {
          "internalType": "address",
          "name": "forwarder",
          "type": "address"
        }
      ],
      "name": "isTrustedForwarder",
      "outputs": [
        {
          "internalType": "bool",
          "name": "",
          "type": "bool"
        }
      ],
      "stateMutability": "view",
      "type": "function"
    },
    {
      "inputs": [],
      "name": "owner",
      "outputs": [
        {
          "internalType": "address",
          "name": "",
          "type": "address"
        }
      ],
      "stateMutability": "view",
      "type": "function"
    },
    {
      "inputs": [
        {
          "internalType": "address[]",
          "name": "accounts",
          "type": "address[]"
        }
      ],
      "name": "removeKycWallets",
      "outputs": [],
      "stateMutability": "nonpayable",
      "type": "function"
    },
    {
      "inputs": [
        {
          "internalType": "bytes32",
          "name": "role",
          "type": "bytes32"
        }
      ],
      "name": "renounceRole",
      "outputs": [],
      "stateMutability": "nonpayable",
      "type": "function"
    },
    {
      "inputs": [
        {
          "internalType": "bytes32",
          "name": "role",
          "type": "bytes32"
        },
        {
          "internalType": "address",
          "name": "account",
          "type": "address"
        }
      ],
      "name": "revokeRole",
      "outputs": [],
      "stateMutability": "nonpayable",
      "type": "function"
    },
    {
      "inputs": [
        {
          "internalType": "address",
          "name": "vcIssuer_",
          "type": "address"
        }
      ],
      "name": "setVcIssuer",
      "outputs": [],
      "stateMutability": "nonpayable",
      "type": "function"
    },
    {
      "inputs": [
        {
          "internalType": "bytes4",
          "name": "interfaceId",
          "type": "bytes4"
        }
      ],
      "name": "supportsInterface",
      "outputs": [
        {
          "internalType": "bool",
          "name": "",
          "type": "bool"
        }
      ],
      "stateMutability": "view",
      "type": "function"
    },
    {
      "inputs": [
        {
          "internalType": "address",
          "name": "newOwner",
          "type": "address"
        }
      ],
      "name": "transferOwnership",
      "outputs": [],
      "stateMutability": "nonpayable",
      "type": "function"
    },
    {
      "inputs": [
        {
          "internalType": "address",
          "name": "account",
          "type": "address"
        }
      ],
      "name": "vcIdPerAccount",
      "outputs": [
        {
          "internalType": "uint256",
          "name": "vcId",
          "type": "uint256"
        }
      ],
      "stateMutability": "view",
      "type": "function"
    },
    {
      "inputs": [],
      "name": "vcIssuer",
      "outputs": [
        {
          "internalType": "address",
          "name": "",
          "type": "address"
        }
      ],
      "stateMutability": "view",
      "type": "function"
    }
  ],
  "bytecode": "0x6101006040523480156200001257600080fd5b506040516200238a3803806200238a8339810160408190526200003591620002de565b8383838380803362000052816200004b62000187565b90620001bd565b506001600160a01b039081166080528516905062000083576040516395267c7d60e01b815260040160405180910390fd5b6001600160a01b0380851660a0528316620000b15760405163099e84bb60e31b815260040160405180910390fd5b6001600160a01b03831660c08190526040805163043d901560e51b815290516387b202a0916004808201926020929091908290030181865afa158015620000fc573d6000803e3d6000fd5b505050506040513d601f19601f8201168201806040525081019062000122919062000346565b6001600160a01b0390811660e052600080546001600160a01b03191691841691821790556040519081527f11aa07701dadad84173032b56a7b7b67109b06cebc643a54fc6cb7126aa4d7b49060200160405180910390a150505050505050506200038f565b600080620001b760017fc9ed16f33ab3a66c84bfd83099ccb2a8845871e2e1c1928f63797152f0fd54cd6200036d565b92915050565b6001600160a01b03811615620002145781546001600160a01b0319166001600160a01b03821690811783556040516000907f8be0079c531659141344cd1fd0a4f28419497f9722a3daafe3b4186f6b6457e0908290a35b620002346307f5828d60e41b60016200022c62000238565b919062000268565b5050565b600080620001b760017fca9d3e17f264b0f3984e2634e94adb37fa3e6a8103f06aeae6fa59e21c769f5e6200036d565b600160e01b6001600160e01b031983160162000297576040516372c683bb60e01b815260040160405180910390fd5b6001600160e01b03199190911660009081526020929092526040909120805460ff1916911515919091179055565b6001600160a01b0381168114620002db57600080fd5b50565b60008060008060808587031215620002f557600080fd5b84516200030281620002c5565b60208601519094506200031581620002c5565b60408601519093506200032881620002c5565b60608601519092506200033b81620002c5565b939692955090935050565b6000602082840312156200035957600080fd5b81516200036681620002c5565b9392505050565b81810381811115620001b757634e487b7160e01b600052601160045260246000fd5b60805160a05160c05160e051611f5f6200042b600039600081816103120152818161075a0152610cfb01526000818161037b015281816104630152818161051e0152818161066e01528181610aba0152610c0b0152600081816103540152818161097f0152610ec70152600081816101b00152818161022e01528181611710015281816117980152818161184b01526118890152611f5f6000f3fe608060405234801561001057600080fd5b506004361061016c5760003560e01c80638bb9c5bf116100cd578063d547741f11610081578063da01af2911610066578063da01af2914610376578063f2fde38b1461039d578063f5b541a6146103b057600080fd5b8063d547741f1461033c578063d955bab31461034f57600080fd5b806391d14854116100b257806391d14854146102fa578063ce1b9d2d1461030d578063d1a91ff21461033457600080fd5b80638bb9c5bf146102df5780638da5cb5b146102f257600080fd5b8063572b6c05116101245780637cd727ba116101095780637cd727ba14610299578063863de770146102ac5780638776d0d6146102bf57600080fd5b8063572b6c051461021e5780636e27084e1461026b57600080fd5b80632b4c9f16116101555780632b4c9f16146101ae5780632f2ff15d146101f557806331e66e1e1461020857600080fd5b806301ffc9a71461017157806308e77ef114610199575b600080fd5b61018461017f3660046119af565b6103d7565b60405190151581526020015b60405180910390f35b6101ac6101a7366004611a3d565b6103f1565b005b7f00000000000000000000000000000000000000000000000000000000000000005b60405173ffffffffffffffffffffffffffffffffffffffff9091168152602001610190565b6101ac610203366004611aa1565b610a25565b610210610a5e565b604051610190929190611ad1565b61018461022c366004611b1e565b7f000000000000000000000000000000000000000000000000000000000000000073ffffffffffffffffffffffffffffffffffffffff90811691161490565b61028b610279366004611b1e565b60016020526000908152604090205481565b604051908152602001610190565b6101ac6102a7366004611a3d565b610a71565b6101ac6102ba366004611b1e565b610f6f565b6000546101d09073ffffffffffffffffffffffffffffffffffffffff1681565b6101ac6102ed366004611b3b565b611023565b6101d0611041565b610184610308366004611aa1565b61106d565b6101d07f000000000000000000000000000000000000000000000000000000000000000081565b6101d06110b8565b6101ac61034a366004611aa1565b6110c2565b6101d07f000000000000000000000000000000000000000000000000000000000000000081565b6101d07f000000000000000000000000000000000000000000000000000000000000000081565b6101ac6103ab366004611b1e565b6110f0565b61028b7f97667070c54ef182b0f5858b034beac1b6f3089aa2d3188bb1e8929f4fa9b92981565b60006103eb826103e561110b565b90611139565b92915050565b8060008167ffffffffffffffff81111561040d5761040d611b54565b604051908082528060200260200182016040528015610436578160200160208202803683370190505b50905060008060009054906101000a900473ffffffffffffffffffffffffffffffffffffffff16905060007f000000000000000000000000000000000000000000000000000000000000000073ffffffffffffffffffffffffffffffffffffffff1663f0f2740d6040518163ffffffff1660e01b8152600401602060405180830381865afa1580156104cc573d6000803e3d6000fd5b505050506040513d601f19601f820116820180604052508101906104f09190611b83565b905060005b8481101561094157600087878381811061051157610511611ba0565b90506020020135905060007f000000000000000000000000000000000000000000000000000000000000000073ffffffffffffffffffffffffffffffffffffffff16636352211e836040518263ffffffff1660e01b815260040161057791815260200190565b602060405180830381865afa158015610594573d6000803e3d6000fd5b505050506040513d601f19601f820116820180604052508101906105b89190611b83565b73ffffffffffffffffffffffffffffffffffffffff81166000908152600160205260409020549091501561063c576040517fb638fab100000000000000000000000000000000000000000000000000000000815273ffffffffffffffffffffffffffffffffffffffff82166004820152602481018390526044015b60405180910390fd5b6040517f4bae2be8000000000000000000000000000000000000000000000000000000008152600481018390526000907f000000000000000000000000000000000000000000000000000000000000000073ffffffffffffffffffffffffffffffffffffffff1690634bae2be890602401600060405180830381865afa1580156106ca573d6000803e3d6000fd5b505050506040513d6000823e601f3d9081017fffffffffffffffffffffffffffffffffffffffffffffffffffffffffffffffe01682016040526107109190810190611cc8565b50805160208201206040517f6f176f7e000000000000000000000000000000000000000000000000000000008152919750955073ffffffffffffffffffffffffffffffffffffffff7f0000000000000000000000000000000000000000000000000000000000000000169450636f176f7e935061079592508691508b90600401611d7f565b602060405180830381865afa1580156107b2573d6000803e3d6000fd5b505050506040513d601f19601f820116820180604052508101906107d69190611dee565b61080f576040517fb2e2476b00000000000000000000000000000000000000000000000000000000815260048101829052602401610633565b6040517fa3a2656a000000000000000000000000000000000000000000000000000000008152600481018290526024810185905260009073ffffffffffffffffffffffffffffffffffffffff88169063a3a2656a90604401602060405180830381865afa158015610884573d6000803e3d6000fd5b505050506040513d601f19601f820116820180604052508101906108a89190611dee565b905080156108e5576040517f5d326d8400000000000000000000000000000000000000000000000000000000815260048101869052602401610633565b838987815181106108f8576108f8611ba0565b73ffffffffffffffffffffffffffffffffffffffff92831660209182029290920181019190915294166000908152600194859052604090209490945550509190910190506104f5565b506040517f229d683d00000000000000000000000000000000000000000000000000000000815273ffffffffffffffffffffffffffffffffffffffff7f0000000000000000000000000000000000000000000000000000000000000000169063229d683d906109b4908690600401611e10565b600060405180830381600087803b1580156109ce57600080fd5b505af11580156109e2573d6000803e3d6000fd5b505050507fce2bd94f673db625f203578fd574af903b9fd5dc2593832add8ba27b9057de3a83604051610a159190611e10565b60405180910390a1505050505050565b6000610a2f611213565b9050610a4381610a3d61121d565b9061124b565b610a59838383610a516112ba565b9291906112e8565b505050565b366000610a696113ba565b915091509091565b60008054604080517ff0f2740d000000000000000000000000000000000000000000000000000000008152905173ffffffffffffffffffffffffffffffffffffffff92831693927f0000000000000000000000000000000000000000000000000000000000000000169163f0f2740d9160048083019260209291908290030181865afa158015610b05573d6000803e3d6000fd5b505050506040513d601f19601f82011682018060405250810190610b299190611b83565b905060005b83811015610e89576000858583818110610b4a57610b4a611ba0565b9050602002016020810190610b5f9190611b1e565b73ffffffffffffffffffffffffffffffffffffffff8116600090815260016020526040812054919250819003610bd9576040517fe5e1e2a900000000000000000000000000000000000000000000000000000000815273ffffffffffffffffffffffffffffffffffffffff83166004820152602401610633565b6040517f4bae2be8000000000000000000000000000000000000000000000000000000008152600481018290526000907f000000000000000000000000000000000000000000000000000000000000000073ffffffffffffffffffffffffffffffffffffffff1690634bae2be890602401600060405180830381865afa158015610c67573d6000803e3d6000fd5b505050506040513d6000823e601f3d9081017fffffffffffffffffffffffffffffffffffffffffffffffffffffffffffffffe0168201604052610cad9190810190611cc8565b50805160208201206040517f6f176f7e00000000000000000000000000000000000000000000000000000000815291975095506000945073ffffffffffffffffffffffffffffffffffffffff7f0000000000000000000000000000000000000000000000000000000000000000169350636f176f7e9250610d35915086908c90600401611d7f565b602060405180830381865afa158015610d52573d6000803e3d6000fd5b505050506040513d601f19601f82011682018060405250810190610d769190611dee565b90508015610e55576040517fa3a2656a000000000000000000000000000000000000000000000000000000008152600481018390526024810185905260009073ffffffffffffffffffffffffffffffffffffffff89169063a3a2656a90604401602060405180830381865afa158015610df3573d6000803e3d6000fd5b505050506040513d601f19601f82011682018060405250810190610e179190611dee565b905080610e53576040517f73bb640300000000000000000000000000000000000000000000000000000000815260048101869052602401610633565b505b5050505073ffffffffffffffffffffffffffffffffffffffff16600090815260016020819052604082209190915501610b2e565b506040517f7cd727ba00000000000000000000000000000000000000000000000000000000815273ffffffffffffffffffffffffffffffffffffffff7f00000000000000000000000000000000000000000000000000000000000000001690637cd727ba90610efe9087908790600401611e6a565b600060405180830381600087803b158015610f1857600080fd5b505af1158015610f2c573d6000803e3d6000fd5b505050507f9063cc81f7b7355a42e797c2e706377c4431f539572eb4c2ef6f2011ae19a9668484604051610f61929190611e6a565b60405180910390a150505050565b610faa7f97667070c54ef182b0f5858b034beac1b6f3089aa2d3188bb1e8929f4fa9b929610f9b611213565b610fa36112ba565b91906113c5565b600080547fffffffffffffffffffffffff00000000000000000000000000000000000000001673ffffffffffffffffffffffffffffffffffffffff83169081179091556040519081527f11aa07701dadad84173032b56a7b7b67109b06cebc643a54fc6cb7126aa4d7b49060200160405180910390a150565b61103e61102e611213565b826110376112ba565b919061144b565b50565b600061106861104e61121d565b5473ffffffffffffffffffffffffffffffffffffffff1690565b905090565b60006110b1838361107c6112ba565b60009283526020908152604080842073ffffffffffffffffffffffffffffffffffffffff909316845291905290205460ff1690565b9392505050565b6000611068611213565b60006110cc611213565b90506110da81610a3d61121d565b610a598383836110e86112ba565b9291906114ef565b61103e6110fb611213565b8261110461121d565b91906115b9565b6000806103eb60017fca9d3e17f264b0f3984e2634e94adb37fa3e6a8103f06aeae6fa59e21c769f5e611ec5565b60007c01000000000000000000000000000000000000000000000000000000007fffffffff00000000000000000000000000000000000000000000000000000000831601611189575060006103eb565b7ffe003659000000000000000000000000000000000000000000000000000000007fffffffff000000000000000000000000000000000000000000000000000000008316016111da575060016103eb565b507fffffffff00000000000000000000000000000000000000000000000000000000166000908152602091909152604090205460ff1690565b60006110686116cd565b6000806103eb60017fc9ed16f33ab3a66c84bfd83099ccb2a8845871e2e1c1928f63797152f0fd54cd611ec5565b815473ffffffffffffffffffffffffffffffffffffffff8281169116146112b6576040517f2ef4875e00000000000000000000000000000000000000000000000000000000815273ffffffffffffffffffffffffffffffffffffffff82166004820152602401610633565b5050565b6000806103eb60017fc8827d3282af6f37b64c3e9e6f3ac9df286ab0bb0fccd6f8661bf19adb368b23611ec5565b60008381526020858152604080832073ffffffffffffffffffffffffffffffffffffffff8616845290915290205460ff166113b45760008381526020858152604080832073ffffffffffffffffffffffffffffffffffffffff8681168086529184529382902080547fffffffffffffffffffffffffffffffffffffffffffffffffffffffffffffff00166001179055815187815292830152918316918101919091527f2f8788117e7eff1d82e926ec794901d17c78024a50270940304540a733656f0d90606001610f61565b50505050565b366000610a69611814565b60008281526020848152604080832073ffffffffffffffffffffffffffffffffffffffff8516845290915290205460ff16610a59576040517f7aa728820000000000000000000000000000000000000000000000000000000081526004810183905273ffffffffffffffffffffffffffffffffffffffff82166024820152604401610633565b6114568382846113c5565b60008181526020848152604080832073ffffffffffffffffffffffffffffffffffffffff86168085529083529281902080547fffffffffffffffffffffffffffffffffffffffffffffffffffffffffffffff0016905580518481529182018390528101919091527ff6391f5c32d9c69d2a47ea670b442974b53935d1edc7fd64eb21e047a839171b9060600160405180910390a1505050565b60008381526020858152604080832073ffffffffffffffffffffffffffffffffffffffff8616845290915290205460ff16156113b45760008381526020858152604080832073ffffffffffffffffffffffffffffffffffffffff8681168086529184529382902080547fffffffffffffffffffffffffffffffffffffffffffffffffffffffffffffff00169055815187815292830152918316918101919091527ff6391f5c32d9c69d2a47ea670b442974b53935d1edc7fd64eb21e047a839171b90606001610f61565b825473ffffffffffffffffffffffffffffffffffffffff9081169083168114611626576040517f2ef4875e00000000000000000000000000000000000000000000000000000000815273ffffffffffffffffffffffffffffffffffffffff84166004820152602401610633565b8173ffffffffffffffffffffffffffffffffffffffff168173ffffffffffffffffffffffffffffffffffffffff16146113b45783547fffffffffffffffffffffffff00000000000000000000000000000000000000001673ffffffffffffffffffffffffffffffffffffffff8381169182178655604051908316907f8be0079c531659141344cd1fd0a4f28419497f9722a3daafe3b4186f6b6457e090600090a350505050565b6000333214806116dd5750601836105b156116e757503390565b7fffffffffffffffffffffffffffffffffffffffffffffffffffffffffffffffec36013560601c7f000000000000000000000000000000000000000000000000000000000000000073ffffffffffffffffffffffffffffffffffffffff1633148061180357506040517f8929a8ca00000000000000000000000000000000000000000000000000000000815273ffffffffffffffffffffffffffffffffffffffff82811660048301523360248301527f00000000000000000000000000000000000000000000000000000000000000001690638929a8ca90604401602060405180830381865afa1580156117df573d6000803e3d6000fd5b505050506040513d601f19601f820116820180604052508101906118039190611dee565b1561180d57919050565b3391505090565b366000333214806118255750601836105b156118335750600091369150565b3373ffffffffffffffffffffffffffffffffffffffff7f0000000000000000000000000000000000000000000000000000000000000000161480611968575073ffffffffffffffffffffffffffffffffffffffff7f000000000000000000000000000000000000000000000000000000000000000016638929a8ca367fffffffffffffffffffffffffffffffffffffffffffffffffffffffffffffffec013560601c6040517fffffffff0000000000000000000000000000000000000000000000000000000060e084901b16815273ffffffffffffffffffffffffffffffffffffffff9091166004820152336024820152604401602060405180830381865afa158015611944573d6000803e3d6000fd5b505050506040513d601f19601f820116820180604052508101906119689190611dee565b1561197557610a6961197e565b50600091369150565b366000610a697fffffffffffffffffffffffffffffffffffffffffffffffffffffffffffffffec8301828481611eff565b6000602082840312156119c157600080fd5b81357fffffffff00000000000000000000000000000000000000000000000000000000811681146110b157600080fd5b60008083601f840112611a0357600080fd5b50813567ffffffffffffffff811115611a1b57600080fd5b6020830191508360208260051b8501011115611a3657600080fd5b9250929050565b60008060208385031215611a5057600080fd5b823567ffffffffffffffff811115611a6757600080fd5b611a73858286016119f1565b90969095509350505050565b73ffffffffffffffffffffffffffffffffffffffff8116811461103e57600080fd5b60008060408385031215611ab457600080fd5b823591506020830135611ac681611a7f565b809150509250929050565b60208152816020820152818360408301376000818301604090810191909152601f9092017fffffffffffffffffffffffffffffffffffffffffffffffffffffffffffffffe0160101919050565b600060208284031215611b3057600080fd5b81356110b181611a7f565b600060208284031215611b4d57600080fd5b5035919050565b7f4e487b7100000000000000000000000000000000000000000000000000000000600052604160045260246000fd5b600060208284031215611b9557600080fd5b81516110b181611a7f565b7f4e487b7100000000000000000000000000000000000000000000000000000000600052603260045260246000fd5b805161ffff81168114611be157600080fd5b919050565b805167ffffffffffffffff81168114611be157600080fd5b60005b83811015611c19578181015183820152602001611c01565b50506000910152565b600082601f830112611c3357600080fd5b815167ffffffffffffffff80821115611c4e57611c4e611b54565b604051601f83017fffffffffffffffffffffffffffffffffffffffffffffffffffffffffffffffe0908116603f01168101908282118183101715611c9457611c94611b54565b81604052838152866020858801011115611cad57600080fd5b611cbe846020830160208901611bfe565b9695505050505050565b600080600080600080600060e0888a031215611ce357600080fd5b611cec88611bcf565b9650611cfa60208901611bcf565b9550611d0860408901611be6565b9450611d1660608901611be6565b9350611d2460808901611be6565b925060a088015167ffffffffffffffff80821115611d4157600080fd5b611d4d8b838c01611c22565b935060c08a0151915080821115611d6357600080fd5b50611d708a828b01611c22565b91505092959891949750929550565b6040815260008351806040840152611d9e816060850160208801611bfe565b73ffffffffffffffffffffffffffffffffffffffff93909316602083015250601f919091017fffffffffffffffffffffffffffffffffffffffffffffffffffffffffffffffe01601606001919050565b600060208284031215611e0057600080fd5b815180151581146110b157600080fd5b6020808252825182820181905260009190848201906040850190845b81811015611e5e57835173ffffffffffffffffffffffffffffffffffffffff1683529284019291840191600101611e2c565b50909695505050505050565b60208082528181018390526000908460408401835b86811015611eba578235611e9281611a7f565b73ffffffffffffffffffffffffffffffffffffffff1682529183019190830190600101611e7f565b509695505050505050565b818103818111156103eb577f4e487b7100000000000000000000000000000000000000000000000000000000600052601160045260246000fd5b60008085851115611f0f57600080fd5b83861115611f1c57600080fd5b505082019391909203915056fea264697066735822122058e98402850a3985e57a7d6ddf16502e2ffe9c248e49ec7c7fb6aac13de07a7764736f6c63430008160033",
  "linkReferences": {},
  "deployedLinkReferences": {}
}