{
  "_format": "hh-sol-artifact-1",
  "contractName": "EDULandRewardsKYCControllerMock",
  "sourceName": "contracts/mocks/land/EDULandRewardsKYCControllerMock.sol",
  "abi": [
    {
      "inputs": [
        {
          "internalType": "address",
          "name": "eduLandRewardsAddress",
          "type": "address"
        },
        {
          "internalType": "address",
          "name": "kycCertificateNftAddress",
          "type": "address"
        },
        {
          "internalType": "string",
          "name": "vcIssuerDid",
          "type": "string"
        },
        {
          "internalType": "contract IForwarderRegistry",
          "name": "forwarderRegistry",
          "type": "address"
        }
      ],
      "stateMutability": "nonpayable",
      "type": "constructor"
    },
    {
      "inputs": [],
      "name": "InvalidEduLandRewardsAddress",
      "type": "error"
    },
    {
      "inputs": [
        {
          "internalType": "uint256",
          "name": "vcId",
          "type": "uint256"
        }
      ],
      "name": "InvalidIssuerDid",
      "type": "error"
    },
    {
      "inputs": [],
      "name": "InvalidKycCertificateNFTAddress",
      "type": "error"
    },
    {
      "inputs": [
        {
          "internalType": "address",
          "name": "account",
          "type": "address"
        },
        {
          "internalType": "uint256",
          "name": "vcId",
          "type": "uint256"
        }
      ],
      "name": "KycWalletAlreadySet",
      "type": "error"
    },
    {
      "inputs": [
        {
          "internalType": "address",
          "name": "account",
          "type": "address"
        }
      ],
      "name": "KycWalletNotSet",
      "type": "error"
    },
    {
      "inputs": [
        {
          "internalType": "uint256",
          "name": "vcId",
          "type": "uint256"
        }
      ],
      "name": "RevokedVc",
      "type": "error"
    },
    {
      "inputs": [
        {
          "internalType": "uint256",
          "name": "vcId",
          "type": "uint256"
        }
      ],
      "name": "VcNotRevoked",
      "type": "error"
    },
    {
      "anonymous": false,
      "inputs": [
        {
          "indexed": false,
          "internalType": "address[]",
          "name": "accounts",
          "type": "address[]"
        }
      ],
      "name": "KycWalletsAdded",
      "type": "event"
    },
    {
      "anonymous": false,
      "inputs": [
        {
          "indexed": false,
          "internalType": "address[]",
          "name": "accounts",
          "type": "address[]"
        }
      ],
      "name": "KycWalletsRemoved",
      "type": "event"
    },
    {
      "inputs": [],
      "name": "EDU_LAND_REWARDS",
      "outputs": [
        {
          "internalType": "contract RewardsKYC",
          "name": "",
          "type": "address"
        }
      ],
      "stateMutability": "view",
      "type": "function"
    },
    {
      "inputs": [],
      "name": "KYC_CERTIFICATE_NFT",
      "outputs": [
        {
          "internalType": "contract OpenCampusCertificateNFTv1",
          "name": "",
          "type": "address"
        }
      ],
      "stateMutability": "view",
      "type": "function"
    },
    {
      "inputs": [],
      "name": "VC_ISSUER_DID_HASH",
      "outputs": [
        {
          "internalType": "bytes32",
          "name": "",
          "type": "bytes32"
        }
      ],
      "stateMutability": "view",
      "type": "function"
    },
    {
      "inputs": [],
      "name": "__msgData",
      "outputs": [
        {
          "internalType": "bytes",
          "name": "",
          "type": "bytes"
        }
      ],
      "stateMutability": "view",
      "type": "function"
    },
    {
      "inputs": [],
      "name": "__msgSender",
      "outputs": [
        {
          "internalType": "address",
          "name": "",
          "type": "address"
        }
      ],
      "stateMutability": "view",
      "type": "function"
    },
    {
      "inputs": [
        {
          "internalType": "uint256[]",
          "name": "vcIds",
          "type": "uint256[]"
        }
      ],
      "name": "addKycWallets",
      "outputs": [],
      "stateMutability": "nonpayable",
      "type": "function"
    },
    {
      "inputs": [],
      "name": "forwarderRegistry",
      "outputs": [
        {
          "internalType": "contract IForwarderRegistry",
          "name": "",
          "type": "address"
        }
      ],
      "stateMutability": "view",
      "type": "function"
    },
    {
      "inputs": [
        {
          "internalType": "address",
          "name": "forwarder",
          "type": "address"
        }
      ],
      "name": "isTrustedForwarder",
      "outputs": [
        {
          "internalType": "bool",
          "name": "",
          "type": "bool"
        }
      ],
      "stateMutability": "view",
      "type": "function"
    },
    {
      "inputs": [
        {
          "internalType": "address[]",
          "name": "accounts",
          "type": "address[]"
        }
      ],
      "name": "removeKycWallets",
      "outputs": [],
      "stateMutability": "nonpayable",
      "type": "function"
    },
    {
      "inputs": [
        {
          "internalType": "address",
          "name": "account",
          "type": "address"
        }
      ],
      "name": "vcIdPerAccount",
      "outputs": [
        {
          "internalType": "uint256",
          "name": "vcId",
          "type": "uint256"
        }
      ],
      "stateMutability": "view",
      "type": "function"
    }
  ],
  "bytecode": "0x6101006040523480156200001257600080fd5b5060405162001623380380620016238339810160408190526200003591620000fe565b6001600160a01b03808216608052849084908490849084166200006b576040516395267c7d60e01b815260040160405180910390fd5b6001600160a01b0383166200009357604051636f7a8df160e11b815260040160405180910390fd5b506001600160a01b0392831660a052911660c052805160209091012060e052506200021192505050565b6001600160a01b0381168114620000d357600080fd5b50565b634e487b7160e01b600052604160045260246000fd5b8051620000f981620000bd565b919050565b600080600080608085870312156200011557600080fd5b84516200012281620000bd565b809450506020808601516200013781620000bd565b60408701519094506001600160401b03808211156200015557600080fd5b818801915088601f8301126200016a57600080fd5b8151818111156200017f576200017f620000d6565b604051601f8201601f19908116603f01168101908382118183101715620001aa57620001aa620000d6565b816040528281528b86848701011115620001c357600080fd5b600093505b82841015620001e75784840186015181850187015292850192620001c8565b60008684830101528097505050505050506200020660608601620000ec565b905092959194509250565b60805160a05160c05160e05161137e620002a5600039600081816101290152610565015260008181610233015281816102a10152818161035c015281816104ac015281816107e7015261095601526000818161020c0152818161072b0152610b4e01526000818160da0152818161017f01528181610c5001528181610c8e01528181610dc60152610e4e015261137e6000f3fe608060405234801561001057600080fd5b50600436106100be5760003560e01c80636e27084e11610076578063d1a91ff21161005b578063d1a91ff2146101ff578063d955bab314610207578063f97060a61461022e57600080fd5b80636e27084e146101cc5780637cd727ba146101ec57600080fd5b80632dd444c0116100a75780632dd444c01461012457806331e66e1e14610159578063572b6c051461016f57600080fd5b806308e77ef1146100c35780632b4c9f16146100d8575b600080fd5b6100d66100d1366004610f47565b610255565b005b7f00000000000000000000000000000000000000000000000000000000000000005b60405173ffffffffffffffffffffffffffffffffffffffff90911681526020015b60405180910390f35b61014b7f000000000000000000000000000000000000000000000000000000000000000081565b60405190815260200161011b565b6101616107d0565b60405161011b929190610f89565b6101bc61017d366004610ffb565b7f000000000000000000000000000000000000000000000000000000000000000073ffffffffffffffffffffffffffffffffffffffff90811691161490565b604051901515815260200161011b565b61014b6101da366004610ffb565b60006020819052908152604090205481565b6100d66101fa366004610f47565b6107e3565b6100fa610bf5565b6100fa7f000000000000000000000000000000000000000000000000000000000000000081565b6100fa7f000000000000000000000000000000000000000000000000000000000000000081565b8060008167ffffffffffffffff8111156102715761027161101f565b60405190808252806020026020018201604052801561029a578160200160208202803683370190505b50905060007f000000000000000000000000000000000000000000000000000000000000000073ffffffffffffffffffffffffffffffffffffffff1663f0f2740d6040518163ffffffff1660e01b8152600401602060405180830381865afa15801561030a573d6000803e3d6000fd5b505050506040513d601f19601f8201168201806040525081019061032e919061104e565b905060005b838110156106ed57600086868381811061034f5761034f61106b565b90506020020135905060007f000000000000000000000000000000000000000000000000000000000000000073ffffffffffffffffffffffffffffffffffffffff16636352211e836040518263ffffffff1660e01b81526004016103b591815260200190565b602060405180830381865afa1580156103d2573d6000803e3d6000fd5b505050506040513d601f19601f820116820180604052508101906103f6919061104e565b73ffffffffffffffffffffffffffffffffffffffff81166000908152602081905260409020549091501561047a576040517fb638fab100000000000000000000000000000000000000000000000000000000815273ffffffffffffffffffffffffffffffffffffffff82166004820152602481018390526044015b60405180910390fd5b6040517f4bae2be8000000000000000000000000000000000000000000000000000000008152600481018390526000907f000000000000000000000000000000000000000000000000000000000000000073ffffffffffffffffffffffffffffffffffffffff1690634bae2be890602401600060405180830381865afa158015610508573d6000803e3d6000fd5b505050506040513d6000823e601f3d9081017fffffffffffffffffffffffffffffffffffffffffffffffffffffffffffffffe016820160405261054e9190810190611190565b5095505050505050600081805190602001209050807f0000000000000000000000000000000000000000000000000000000000000000146105be576040517fed77804200000000000000000000000000000000000000000000000000000000815260048101859052602401610471565b6040517fa3a2656a000000000000000000000000000000000000000000000000000000008152600481018290526024810185905260009073ffffffffffffffffffffffffffffffffffffffff88169063a3a2656a90604401602060405180830381865afa158015610633573d6000803e3d6000fd5b505050506040513d601f19601f820116820180604052508101906106579190611247565b90508015610694576040517f5d326d8400000000000000000000000000000000000000000000000000000000815260048101869052602401610471565b838887815181106106a7576106a761106b565b73ffffffffffffffffffffffffffffffffffffffff9283166020918202929092018101919091529416600090815293849052505060409091209190915550600101610333565b506040517f229d683d00000000000000000000000000000000000000000000000000000000815273ffffffffffffffffffffffffffffffffffffffff7f0000000000000000000000000000000000000000000000000000000000000000169063229d683d90610760908590600401611269565b600060405180830381600087803b15801561077a57600080fd5b505af115801561078e573d6000803e3d6000fd5b505050507fce2bd94f673db625f203578fd574af903b9fd5dc2593832add8ba27b9057de3a826040516107c19190611269565b60405180910390a15050505050565b3660006107db610c04565b915091509091565b60007f000000000000000000000000000000000000000000000000000000000000000073ffffffffffffffffffffffffffffffffffffffff1663f0f2740d6040518163ffffffff1660e01b8152600401602060405180830381865afa158015610850573d6000803e3d6000fd5b505050506040513d601f19601f82011682018060405250810190610874919061104e565b905060005b82811015610b105760008484838181106108955761089561106b565b90506020020160208101906108aa9190610ffb565b73ffffffffffffffffffffffffffffffffffffffff8116600090815260208190526040812054919250819003610924576040517fe5e1e2a900000000000000000000000000000000000000000000000000000000815273ffffffffffffffffffffffffffffffffffffffff83166004820152602401610471565b6040517f4bae2be8000000000000000000000000000000000000000000000000000000008152600481018290526000907f000000000000000000000000000000000000000000000000000000000000000073ffffffffffffffffffffffffffffffffffffffff1690634bae2be890602401600060405180830381865afa1580156109b2573d6000803e3d6000fd5b505050506040513d6000823e601f3d9081017fffffffffffffffffffffffffffffffffffffffffffffffffffffffffffffffe01682016040526109f89190810190611190565b50805160208201206040517fa3a2656a00000000000000000000000000000000000000000000000000000000815260048101829052602481018a905291975095506000945073ffffffffffffffffffffffffffffffffffffffff8b16935063a3a2656a92506044019050602060405180830381865afa158015610a7f573d6000803e3d6000fd5b505050506040513d601f19601f82011682018060405250810190610aa39190611247565b905080610adf576040517f73bb640300000000000000000000000000000000000000000000000000000000815260048101859052602401610471565b5050505073ffffffffffffffffffffffffffffffffffffffff16600090815260208190526040812055600101610879565b506040517f7cd727ba00000000000000000000000000000000000000000000000000000000815273ffffffffffffffffffffffffffffffffffffffff7f00000000000000000000000000000000000000000000000000000000000000001690637cd727ba90610b8590869086906004016112c3565b600060405180830381600087803b158015610b9f57600080fd5b505af1158015610bb3573d6000803e3d6000fd5b505050507f9063cc81f7b7355a42e797c2e706377c4431f539572eb4c2ef6f2011ae19a9668383604051610be89291906112c3565b60405180910390a1505050565b6000610bff610c0f565b905090565b3660006107db610c19565b6000610bff610d83565b36600033321480610c2a5750601836105b15610c385750600091369150565b3373ffffffffffffffffffffffffffffffffffffffff7f0000000000000000000000000000000000000000000000000000000000000000161480610d6d575073ffffffffffffffffffffffffffffffffffffffff7f000000000000000000000000000000000000000000000000000000000000000016638929a8ca367fffffffffffffffffffffffffffffffffffffffffffffffffffffffffffffffec013560601c6040517fffffffff0000000000000000000000000000000000000000000000000000000060e084901b16815273ffffffffffffffffffffffffffffffffffffffff9091166004820152336024820152604401602060405180830381865afa158015610d49573d6000803e3d6000fd5b505050506040513d601f19601f82011682018060405250810190610d6d9190611247565b15610d7a576107db610eca565b50600091369150565b600033321480610d935750601836105b15610d9d57503390565b7fffffffffffffffffffffffffffffffffffffffffffffffffffffffffffffffec36013560601c7f000000000000000000000000000000000000000000000000000000000000000073ffffffffffffffffffffffffffffffffffffffff16331480610eb957506040517f8929a8ca00000000000000000000000000000000000000000000000000000000815273ffffffffffffffffffffffffffffffffffffffff82811660048301523360248301527f00000000000000000000000000000000000000000000000000000000000000001690638929a8ca90604401602060405180830381865afa158015610e95573d6000803e3d6000fd5b505050506040513d601f19601f82011682018060405250810190610eb99190611247565b15610ec357919050565b3391505090565b3660006107db7fffffffffffffffffffffffffffffffffffffffffffffffffffffffffffffffec830182848161131e565b60008083601f840112610f0d57600080fd5b50813567ffffffffffffffff811115610f2557600080fd5b6020830191508360208260051b8501011115610f4057600080fd5b9250929050565b60008060208385031215610f5a57600080fd5b823567ffffffffffffffff811115610f7157600080fd5b610f7d85828601610efb565b90969095509350505050565b60208152816020820152818360408301376000818301604090810191909152601f9092017fffffffffffffffffffffffffffffffffffffffffffffffffffffffffffffffe0160101919050565b73ffffffffffffffffffffffffffffffffffffffff81168114610ff857600080fd5b50565b60006020828403121561100d57600080fd5b813561101881610fd6565b9392505050565b7f4e487b7100000000000000000000000000000000000000000000000000000000600052604160045260246000fd5b60006020828403121561106057600080fd5b815161101881610fd6565b7f4e487b7100000000000000000000000000000000000000000000000000000000600052603260045260246000fd5b805161ffff811681146110ac57600080fd5b919050565b805167ffffffffffffffff811681146110ac57600080fd5b600082601f8301126110da57600080fd5b815167ffffffffffffffff808211156110f5576110f561101f565b604051601f83017fffffffffffffffffffffffffffffffffffffffffffffffffffffffffffffffe0908116603f0116810190828211818310171561113b5761113b61101f565b816040528381526020925086602085880101111561115857600080fd5b600091505b8382101561117a578582018301518183018401529082019061115d565b6000602085830101528094505050505092915050565b600080600080600080600060e0888a0312156111ab57600080fd5b6111b48861109a565b96506111c26020890161109a565b95506111d0604089016110b1565b94506111de606089016110b1565b93506111ec608089016110b1565b925060a088015167ffffffffffffffff8082111561120957600080fd5b6112158b838c016110c9565b935060c08a015191508082111561122b57600080fd5b506112388a828b016110c9565b91505092959891949750929550565b60006020828403121561125957600080fd5b8151801515811461101857600080fd5b6020808252825182820181905260009190848201906040850190845b818110156112b757835173ffffffffffffffffffffffffffffffffffffffff1683529284019291840191600101611285565b50909695505050505050565b60208082528181018390526000908460408401835b868110156113135782356112eb81610fd6565b73ffffffffffffffffffffffffffffffffffffffff16825291830191908301906001016112d8565b509695505050505050565b6000808585111561132e57600080fd5b8386111561133b57600080fd5b505082019391909203915056fea26469706673582212203883aa8cd8db121f0bae95b320d6b68153ba39e7157dad056e19240c70cab56d64736f6c63430008160033",
  "linkReferences": {},
  "deployedLinkReferences": {}
}