{
  "_format": "hh-sol-artifact-1",
  "contractName": "EDULandRewardsKYCControllerMock",
  "sourceName": "contracts/mocks/land/EDULandRewardsKYCControllerMock.sol",
  "abi": [
    {
      "inputs": [
        {
          "internalType": "address",
          "name": "eduLandRewardsAddress",
          "type": "address"
        },
        {
          "internalType": "address",
          "name": "kycCertificateNftAddress",
          "type": "address"
        },
        {
          "internalType": "string",
          "name": "vcIssuerDid",
          "type": "string"
        },
        {
          "internalType": "contract IForwarderRegistry",
          "name": "forwarderRegistry",
          "type": "address"
        }
      ],
      "stateMutability": "nonpayable",
      "type": "constructor"
    },
    {
      "inputs": [],
      "name": "InvalidEduLandRewardsAddress",
      "type": "error"
    },
    {
      "inputs": [
        {
          "internalType": "uint256",
          "name": "vcId",
          "type": "uint256"
        }
      ],
      "name": "InvalidIssuerDid",
      "type": "error"
    },
    {
      "inputs": [],
      "name": "InvalidKycCertificateNFTAddress",
      "type": "error"
    },
    {
      "inputs": [
        {
          "internalType": "address",
          "name": "account",
          "type": "address"
        },
        {
          "internalType": "uint256",
          "name": "vcId",
          "type": "uint256"
        }
      ],
      "name": "KycWalletAlreadySet",
      "type": "error"
    },
    {
      "inputs": [
        {
          "internalType": "address",
          "name": "account",
          "type": "address"
        }
      ],
      "name": "KycWalletNotSet",
      "type": "error"
    },
    {
      "inputs": [
        {
          "internalType": "uint256",
          "name": "vcId",
          "type": "uint256"
        }
      ],
      "name": "RevokedVc",
      "type": "error"
    },
    {
      "inputs": [
        {
          "internalType": "uint256",
          "name": "vcId",
          "type": "uint256"
        }
      ],
      "name": "VcNotRevoked",
      "type": "error"
    },
    {
      "anonymous": false,
      "inputs": [
        {
          "indexed": false,
          "internalType": "address[]",
          "name": "accounts",
          "type": "address[]"
        }
      ],
      "name": "KycWalletsAdded",
      "type": "event"
    },
    {
      "anonymous": false,
      "inputs": [
        {
          "indexed": false,
          "internalType": "address[]",
          "name": "accounts",
          "type": "address[]"
        }
      ],
      "name": "KycWalletsRemoved",
      "type": "event"
    },
    {
      "inputs": [],
      "name": "EDU_LAND_REWARDS",
      "outputs": [
        {
          "internalType": "contract RewardsKYC",
          "name": "",
          "type": "address"
        }
      ],
      "stateMutability": "view",
      "type": "function"
    },
    {
      "inputs": [],
      "name": "KYC_CERTIFICATE_NFT",
      "outputs": [
        {
          "internalType": "contract OpenCampusCertificateNFTv1",
          "name": "",
          "type": "address"
        }
      ],
      "stateMutability": "view",
      "type": "function"
    },
    {
      "inputs": [],
      "name": "VC_ISSUER_DID_HASH",
      "outputs": [
        {
          "internalType": "bytes32",
          "name": "",
          "type": "bytes32"
        }
      ],
      "stateMutability": "view",
      "type": "function"
    },
    {
      "inputs": [],
      "name": "__msgData",
      "outputs": [
        {
          "internalType": "bytes",
          "name": "",
          "type": "bytes"
        }
      ],
      "stateMutability": "view",
      "type": "function"
    },
    {
      "inputs": [],
      "name": "__msgSender",
      "outputs": [
        {
          "internalType": "address",
          "name": "",
          "type": "address"
        }
      ],
      "stateMutability": "view",
      "type": "function"
    },
    {
      "inputs": [
        {
          "internalType": "uint256[]",
          "name": "vcIds",
          "type": "uint256[]"
        }
      ],
      "name": "addKycWallets",
      "outputs": [],
      "stateMutability": "nonpayable",
      "type": "function"
    },
    {
      "inputs": [],
      "name": "forwarderRegistry",
      "outputs": [
        {
          "internalType": "contract IForwarderRegistry",
          "name": "",
          "type": "address"
        }
      ],
      "stateMutability": "view",
      "type": "function"
    },
    {
      "inputs": [
        {
          "internalType": "address",
          "name": "forwarder",
          "type": "address"
        }
      ],
      "name": "isTrustedForwarder",
      "outputs": [
        {
          "internalType": "bool",
          "name": "",
          "type": "bool"
        }
      ],
      "stateMutability": "view",
      "type": "function"
    },
    {
      "inputs": [
        {
          "internalType": "address[]",
          "name": "accounts",
          "type": "address[]"
        }
      ],
      "name": "removeKycWallets",
      "outputs": [],
      "stateMutability": "nonpayable",
      "type": "function"
    },
    {
      "inputs": [
        {
          "internalType": "address",
          "name": "account",
          "type": "address"
        }
      ],
      "name": "vcIdPerAccount",
      "outputs": [
        {
          "internalType": "uint256",
          "name": "vcId",
          "type": "uint256"
        }
      ],
      "stateMutability": "view",
      "type": "function"
    }
  ],
  "bytecode": "0x6101006040523480156200001257600080fd5b5060405162001629380380620016298339810160408190526200003591620000fe565b6001600160a01b03808216608052849084908490849084166200006b576040516395267c7d60e01b815260040160405180910390fd5b6001600160a01b0383166200009357604051636f7a8df160e11b815260040160405180910390fd5b506001600160a01b0392831660a052911660c052805160209091012060e052506200021192505050565b6001600160a01b0381168114620000d357600080fd5b50565b634e487b7160e01b600052604160045260246000fd5b8051620000f981620000bd565b919050565b600080600080608085870312156200011557600080fd5b84516200012281620000bd565b809450506020808601516200013781620000bd565b60408701519094506001600160401b03808211156200015557600080fd5b818801915088601f8301126200016a57600080fd5b8151818111156200017f576200017f620000d6565b604051601f8201601f19908116603f01168101908382118183101715620001aa57620001aa620000d6565b816040528281528b86848701011115620001c357600080fd5b600093505b82841015620001e75784840186015181850187015292850192620001c8565b60008684830101528097505050505050506200020660608601620000ec565b905092959194509250565b60805160a05160c05160e051611384620002a56000396000818161012901526102a1015260008181610233015281816102c601528181610381015281816104d1015281816107ed015261095c01526000818161020c015281816107300152610b5401526000818160da0152818161017f01528181610c5601528181610c9401528181610dcc0152610e5401526113846000f3fe608060405234801561001057600080fd5b50600436106100be5760003560e01c80636e27084e11610076578063d1a91ff21161005b578063d1a91ff2146101ff578063d955bab314610207578063f97060a61461022e57600080fd5b80636e27084e146101cc5780637cd727ba146101ec57600080fd5b80632dd444c0116100a75780632dd444c01461012457806331e66e1e14610159578063572b6c051461016f57600080fd5b806308e77ef1146100c35780632b4c9f16146100d8575b600080fd5b6100d66100d1366004610f4d565b610255565b005b7f00000000000000000000000000000000000000000000000000000000000000005b60405173ffffffffffffffffffffffffffffffffffffffff90911681526020015b60405180910390f35b61014b7f000000000000000000000000000000000000000000000000000000000000000081565b60405190815260200161011b565b6101616107d6565b60405161011b929190610f8f565b6101bc61017d366004611001565b7f000000000000000000000000000000000000000000000000000000000000000073ffffffffffffffffffffffffffffffffffffffff90811691161490565b604051901515815260200161011b565b61014b6101da366004611001565b60006020819052908152604090205481565b6100d66101fa366004610f4d565b6107e9565b6100fa610bfb565b6100fa7f000000000000000000000000000000000000000000000000000000000000000081565b6100fa7f000000000000000000000000000000000000000000000000000000000000000081565b8060008167ffffffffffffffff81111561027157610271611025565b60405190808252806020026020018201604052801561029a578160200160208202803683370190505b50905060007f0000000000000000000000000000000000000000000000000000000000000000905060007f000000000000000000000000000000000000000000000000000000000000000073ffffffffffffffffffffffffffffffffffffffff1663f0f2740d6040518163ffffffff1660e01b8152600401602060405180830381865afa15801561032f573d6000803e3d6000fd5b505050506040513d601f19601f820116820180604052508101906103539190611054565b905060005b848110156106f257600087878381811061037457610374611071565b90506020020135905060007f000000000000000000000000000000000000000000000000000000000000000073ffffffffffffffffffffffffffffffffffffffff16636352211e836040518263ffffffff1660e01b81526004016103da91815260200190565b602060405180830381865afa1580156103f7573d6000803e3d6000fd5b505050506040513d601f19601f8201168201806040525081019061041b9190611054565b73ffffffffffffffffffffffffffffffffffffffff81166000908152602081905260409020549091501561049f576040517fb638fab100000000000000000000000000000000000000000000000000000000815273ffffffffffffffffffffffffffffffffffffffff82166004820152602481018390526044015b60405180910390fd5b6040517f4bae2be8000000000000000000000000000000000000000000000000000000008152600481018390526000907f000000000000000000000000000000000000000000000000000000000000000073ffffffffffffffffffffffffffffffffffffffff1690634bae2be890602401600060405180830381865afa15801561052d573d6000803e3d6000fd5b505050506040513d6000823e601f3d9081017fffffffffffffffffffffffffffffffffffffffffffffffffffffffffffffffe01682016040526105739190810190611196565b50955050505050506000818051906020012090508087146105c3576040517fed77804200000000000000000000000000000000000000000000000000000000815260048101859052602401610496565b6040517fa3a2656a000000000000000000000000000000000000000000000000000000008152600481018290526024810185905260009073ffffffffffffffffffffffffffffffffffffffff88169063a3a2656a90604401602060405180830381865afa158015610638573d6000803e3d6000fd5b505050506040513d601f19601f8201168201806040525081019061065c919061124d565b90508015610699576040517f5d326d8400000000000000000000000000000000000000000000000000000000815260048101869052602401610496565b838987815181106106ac576106ac611071565b73ffffffffffffffffffffffffffffffffffffffff9283166020918202929092018101919091529416600090815293849052505060409091209190915550600101610358565b506040517f229d683d00000000000000000000000000000000000000000000000000000000815273ffffffffffffffffffffffffffffffffffffffff7f0000000000000000000000000000000000000000000000000000000000000000169063229d683d9061076590869060040161126f565b600060405180830381600087803b15801561077f57600080fd5b505af1158015610793573d6000803e3d6000fd5b505050507fce2bd94f673db625f203578fd574af903b9fd5dc2593832add8ba27b9057de3a836040516107c6919061126f565b60405180910390a1505050505050565b3660006107e1610c0a565b915091509091565b60007f000000000000000000000000000000000000000000000000000000000000000073ffffffffffffffffffffffffffffffffffffffff1663f0f2740d6040518163ffffffff1660e01b8152600401602060405180830381865afa158015610856573d6000803e3d6000fd5b505050506040513d601f19601f8201168201806040525081019061087a9190611054565b905060005b82811015610b1657600084848381811061089b5761089b611071565b90506020020160208101906108b09190611001565b73ffffffffffffffffffffffffffffffffffffffff811660009081526020819052604081205491925081900361092a576040517fe5e1e2a900000000000000000000000000000000000000000000000000000000815273ffffffffffffffffffffffffffffffffffffffff83166004820152602401610496565b6040517f4bae2be8000000000000000000000000000000000000000000000000000000008152600481018290526000907f000000000000000000000000000000000000000000000000000000000000000073ffffffffffffffffffffffffffffffffffffffff1690634bae2be890602401600060405180830381865afa1580156109b8573d6000803e3d6000fd5b505050506040513d6000823e601f3d9081017fffffffffffffffffffffffffffffffffffffffffffffffffffffffffffffffe01682016040526109fe9190810190611196565b50805160208201206040517fa3a2656a00000000000000000000000000000000000000000000000000000000815260048101829052602481018a905291975095506000945073ffffffffffffffffffffffffffffffffffffffff8b16935063a3a2656a92506044019050602060405180830381865afa158015610a85573d6000803e3d6000fd5b505050506040513d601f19601f82011682018060405250810190610aa9919061124d565b905080610ae5576040517f73bb640300000000000000000000000000000000000000000000000000000000815260048101859052602401610496565b5050505073ffffffffffffffffffffffffffffffffffffffff1660009081526020819052604081205560010161087f565b506040517f7cd727ba00000000000000000000000000000000000000000000000000000000815273ffffffffffffffffffffffffffffffffffffffff7f00000000000000000000000000000000000000000000000000000000000000001690637cd727ba90610b8b90869086906004016112c9565b600060405180830381600087803b158015610ba557600080fd5b505af1158015610bb9573d6000803e3d6000fd5b505050507f9063cc81f7b7355a42e797c2e706377c4431f539572eb4c2ef6f2011ae19a9668383604051610bee9291906112c9565b60405180910390a1505050565b6000610c05610c15565b905090565b3660006107e1610c1f565b6000610c05610d89565b36600033321480610c305750601836105b15610c3e5750600091369150565b3373ffffffffffffffffffffffffffffffffffffffff7f0000000000000000000000000000000000000000000000000000000000000000161480610d73575073ffffffffffffffffffffffffffffffffffffffff7f000000000000000000000000000000000000000000000000000000000000000016638929a8ca367fffffffffffffffffffffffffffffffffffffffffffffffffffffffffffffffec013560601c6040517fffffffff0000000000000000000000000000000000000000000000000000000060e084901b16815273ffffffffffffffffffffffffffffffffffffffff9091166004820152336024820152604401602060405180830381865afa158015610d4f573d6000803e3d6000fd5b505050506040513d601f19601f82011682018060405250810190610d73919061124d565b15610d80576107e1610ed0565b50600091369150565b600033321480610d995750601836105b15610da357503390565b7fffffffffffffffffffffffffffffffffffffffffffffffffffffffffffffffec36013560601c7f000000000000000000000000000000000000000000000000000000000000000073ffffffffffffffffffffffffffffffffffffffff16331480610ebf57506040517f8929a8ca00000000000000000000000000000000000000000000000000000000815273ffffffffffffffffffffffffffffffffffffffff82811660048301523360248301527f00000000000000000000000000000000000000000000000000000000000000001690638929a8ca90604401602060405180830381865afa158015610e9b573d6000803e3d6000fd5b505050506040513d601f19601f82011682018060405250810190610ebf919061124d565b15610ec957919050565b3391505090565b3660006107e17fffffffffffffffffffffffffffffffffffffffffffffffffffffffffffffffec8301828481611324565b60008083601f840112610f1357600080fd5b50813567ffffffffffffffff811115610f2b57600080fd5b6020830191508360208260051b8501011115610f4657600080fd5b9250929050565b60008060208385031215610f6057600080fd5b823567ffffffffffffffff811115610f7757600080fd5b610f8385828601610f01565b90969095509350505050565b60208152816020820152818360408301376000818301604090810191909152601f9092017fffffffffffffffffffffffffffffffffffffffffffffffffffffffffffffffe0160101919050565b73ffffffffffffffffffffffffffffffffffffffff81168114610ffe57600080fd5b50565b60006020828403121561101357600080fd5b813561101e81610fdc565b9392505050565b7f4e487b7100000000000000000000000000000000000000000000000000000000600052604160045260246000fd5b60006020828403121561106657600080fd5b815161101e81610fdc565b7f4e487b7100000000000000000000000000000000000000000000000000000000600052603260045260246000fd5b805161ffff811681146110b257600080fd5b919050565b805167ffffffffffffffff811681146110b257600080fd5b600082601f8301126110e057600080fd5b815167ffffffffffffffff808211156110fb576110fb611025565b604051601f83017fffffffffffffffffffffffffffffffffffffffffffffffffffffffffffffffe0908116603f0116810190828211818310171561114157611141611025565b816040528381526020925086602085880101111561115e57600080fd5b600091505b838210156111805785820183015181830184015290820190611163565b6000602085830101528094505050505092915050565b600080600080600080600060e0888a0312156111b157600080fd5b6111ba886110a0565b96506111c8602089016110a0565b95506111d6604089016110b7565b94506111e4606089016110b7565b93506111f2608089016110b7565b925060a088015167ffffffffffffffff8082111561120f57600080fd5b61121b8b838c016110cf565b935060c08a015191508082111561123157600080fd5b5061123e8a828b016110cf565b91505092959891949750929550565b60006020828403121561125f57600080fd5b8151801515811461101e57600080fd5b6020808252825182820181905260009190848201906040850190845b818110156112bd57835173ffffffffffffffffffffffffffffffffffffffff168352928401929184019160010161128b565b50909695505050505050565b60208082528181018390526000908460408401835b868110156113195782356112f181610fdc565b73ffffffffffffffffffffffffffffffffffffffff16825291830191908301906001016112de565b509695505050505050565b6000808585111561133457600080fd5b8386111561134157600080fd5b505082019391909203915056fea264697066735822122083c978fba1c947ef44cca3c99a11a310548cc38e0637b7ed221dd23e4de7526f64736f6c63430008160033",
  "linkReferences": {},
  "deployedLinkReferences": {}
}