{
  "_format": "hh-sol-artifact-1",
  "contractName": "EDULandRewardsKYCControllerMock",
  "sourceName": "contracts/mocks/land/EDULandRewardsKYCControllerMock.sol",
  "abi": [
    {
      "inputs": [
        {
          "internalType": "address",
          "name": "eduLandRewardsAddress",
          "type": "address"
        },
        {
          "internalType": "address",
          "name": "kycCertificateNftAddress",
          "type": "address"
        },
        {
          "internalType": "string",
          "name": "vcIssuerDid",
          "type": "string"
        },
        {
          "internalType": "contract IForwarderRegistry",
          "name": "forwarderRegistry",
          "type": "address"
        }
      ],
      "stateMutability": "nonpayable",
      "type": "constructor"
    },
    {
      "inputs": [],
      "name": "InvalidEduLandRewardsAddress",
      "type": "error"
    },
    {
      "inputs": [
        {
          "internalType": "uint256",
          "name": "vcId",
          "type": "uint256"
        }
      ],
      "name": "InvalidIssuerDid",
      "type": "error"
    },
    {
      "inputs": [],
      "name": "InvalidKycCertificateNFTAddress",
      "type": "error"
    },
    {
      "inputs": [],
      "name": "KycWalletAlreadySet",
      "type": "error"
    },
    {
      "inputs": [
        {
          "internalType": "uint256",
          "name": "vcId",
          "type": "uint256"
        }
      ],
      "name": "RevokedVc",
      "type": "error"
    },
    {
      "inputs": [
        {
          "internalType": "uint256",
          "name": "vcId",
          "type": "uint256"
        }
      ],
      "name": "VcNotRevoked",
      "type": "error"
    },
    {
      "anonymous": false,
      "inputs": [
        {
          "indexed": false,
          "internalType": "address[]",
          "name": "accounts",
          "type": "address[]"
        }
      ],
      "name": "KycWalletsAdded",
      "type": "event"
    },
    {
      "anonymous": false,
      "inputs": [
        {
          "indexed": false,
          "internalType": "address[]",
          "name": "accounts",
          "type": "address[]"
        }
      ],
      "name": "KycWalletsRemoved",
      "type": "event"
    },
    {
      "inputs": [],
      "name": "EDU_LAND_REWARDS",
      "outputs": [
        {
          "internalType": "contract RewardsKYC",
          "name": "",
          "type": "address"
        }
      ],
      "stateMutability": "view",
      "type": "function"
    },
    {
      "inputs": [],
      "name": "KYC_CERTIFICATE_NFT",
      "outputs": [
        {
          "internalType": "contract OpenCampusCertificateNFTv1",
          "name": "",
          "type": "address"
        }
      ],
      "stateMutability": "view",
      "type": "function"
    },
    {
      "inputs": [],
      "name": "VC_ISSUER_DID_HASH",
      "outputs": [
        {
          "internalType": "bytes32",
          "name": "",
          "type": "bytes32"
        }
      ],
      "stateMutability": "view",
      "type": "function"
    },
    {
      "inputs": [],
      "name": "__msgData",
      "outputs": [
        {
          "internalType": "bytes",
          "name": "",
          "type": "bytes"
        }
      ],
      "stateMutability": "view",
      "type": "function"
    },
    {
      "inputs": [],
      "name": "__msgSender",
      "outputs": [
        {
          "internalType": "address",
          "name": "",
          "type": "address"
        }
      ],
      "stateMutability": "view",
      "type": "function"
    },
    {
      "inputs": [
        {
          "internalType": "uint256",
          "name": "vcId",
          "type": "uint256"
        }
      ],
      "name": "addKycWallet",
      "outputs": [],
      "stateMutability": "nonpayable",
      "type": "function"
    },
    {
      "inputs": [
        {
          "internalType": "uint256[]",
          "name": "vcIds",
          "type": "uint256[]"
        }
      ],
      "name": "addKycWallets",
      "outputs": [],
      "stateMutability": "nonpayable",
      "type": "function"
    },
    {
      "inputs": [],
      "name": "forwarderRegistry",
      "outputs": [
        {
          "internalType": "contract IForwarderRegistry",
          "name": "",
          "type": "address"
        }
      ],
      "stateMutability": "view",
      "type": "function"
    },
    {
      "inputs": [
        {
          "internalType": "address",
          "name": "forwarder",
          "type": "address"
        }
      ],
      "name": "isTrustedForwarder",
      "outputs": [
        {
          "internalType": "bool",
          "name": "",
          "type": "bool"
        }
      ],
      "stateMutability": "view",
      "type": "function"
    },
    {
      "inputs": [
        {
          "internalType": "address[]",
          "name": "accounts",
          "type": "address[]"
        }
      ],
      "name": "removeKycWallets",
      "outputs": [],
      "stateMutability": "nonpayable",
      "type": "function"
    },
    {
      "inputs": [
        {
          "internalType": "address",
          "name": "account",
          "type": "address"
        }
      ],
      "name": "vcIdPerAccount",
      "outputs": [
        {
          "internalType": "uint256",
          "name": "vcId",
          "type": "uint256"
        }
      ],
      "stateMutability": "view",
      "type": "function"
    }
  ],
  "bytecode": "0x6101006040523480156200001257600080fd5b5060405162001d2038038062001d208339810160408190526200003591620000fe565b6001600160a01b03808216608052849084908490849084166200006b576040516395267c7d60e01b815260040160405180910390fd5b6001600160a01b0383166200009357604051636f7a8df160e11b815260040160405180910390fd5b506001600160a01b0392831660a052911660c052805160209091012060e052506200021192505050565b6001600160a01b0381168114620000d357600080fd5b50565b634e487b7160e01b600052604160045260246000fd5b8051620000f981620000bd565b919050565b600080600080608085870312156200011557600080fd5b84516200012281620000bd565b809450506020808601516200013781620000bd565b60408701519094506001600160401b03808211156200015557600080fd5b818801915088601f8301126200016a57600080fd5b8151818111156200017f576200017f620000d6565b604051601f8201601f19908116603f01168101908382118183101715620001aa57620001aa620000d6565b816040528281528b86848701011115620001c357600080fd5b600093505b82841015620001e75784840186015181850187015292850192620001c8565b60008684830101528097505050505050506200020660608601620000ec565b905092959194509250565b60805160a05160c05160e051611a58620002c860003960008181610134015281816105350152610a9f015260008181610251015281816102770152818161037b0152818161047c015281816108d4015281816109e601528181610afc01528181610da20152610f1701526000818161022a015281816107e701528181610cf6015261121c01526000818160e50152818161019d0152818161130d0152818161134b01528181611483015261150b0152611a586000f3fe608060405234801561001057600080fd5b50600436106100c95760003560e01c8063572b6c0511610081578063d1a91ff21161005b578063d1a91ff21461021d578063d955bab314610225578063f97060a61461024c57600080fd5b8063572b6c051461018d5780636e27084e146101ea5780637cd727ba1461020a57600080fd5b80632dd444c0116100b25780632dd444c01461012f57806331e66e1e146101645780634d1e5e3c1461017a57600080fd5b806308e77ef1146100ce5780632b4c9f16146100e3575b600080fd5b6100e16100dc366004611604565b610273565b005b7f00000000000000000000000000000000000000000000000000000000000000005b60405173ffffffffffffffffffffffffffffffffffffffff90911681526020015b60405180910390f35b6101567f000000000000000000000000000000000000000000000000000000000000000081565b604051908152602001610126565b61016c61088f565b604051610126929190611646565b6100e1610188366004611693565b6108a2565b6101da61019b3660046116d1565b7f000000000000000000000000000000000000000000000000000000000000000073ffffffffffffffffffffffffffffffffffffffff90811691161490565b6040519015158152602001610126565b6101566101f83660046116d1565b60006020819052908152604090205481565b6100e1610218366004611604565b610d9e565b6101056112b2565b6101057f000000000000000000000000000000000000000000000000000000000000000081565b6101057f000000000000000000000000000000000000000000000000000000000000000081565b60007f000000000000000000000000000000000000000000000000000000000000000073ffffffffffffffffffffffffffffffffffffffff1663f0f2740d6040518163ffffffff1660e01b8152600401602060405180830381865afa1580156102e0573d6000803e3d6000fd5b505050506040513d601f19601f8201168201806040525081019061030491906116f5565b90508160008167ffffffffffffffff81111561032257610322611712565b60405190808252806020026020018201604052801561034b578160200160208202803683370190505b5090506000805b838110156106f757600087878381811061036e5761036e611741565b90506020020135905060007f000000000000000000000000000000000000000000000000000000000000000073ffffffffffffffffffffffffffffffffffffffff16636352211e836040518263ffffffff1660e01b81526004016103d491815260200190565b602060405180830381865afa1580156103f1573d6000803e3d6000fd5b505050506040513d601f19601f8201168201806040525081019061041591906116f5565b73ffffffffffffffffffffffffffffffffffffffff81166000908152602081905260409020549091501561044a5750506106ef565b6040517f4bae2be8000000000000000000000000000000000000000000000000000000008152600481018390526000907f000000000000000000000000000000000000000000000000000000000000000073ffffffffffffffffffffffffffffffffffffffff1690634bae2be890602401600060405180830381865afa1580156104d8573d6000803e3d6000fd5b505050506040513d6000823e601f3d9081017fffffffffffffffffffffffffffffffffffffffffffffffffffffffffffffffe016820160405261051e9190810190611866565b5095505050505050600081805190602001209050807f000000000000000000000000000000000000000000000000000000000000000014610593576040517fed778042000000000000000000000000000000000000000000000000000000008152600481018590526024015b60405180910390fd5b6040517fa3a2656a000000000000000000000000000000000000000000000000000000008152600481018290526024810185905260009073ffffffffffffffffffffffffffffffffffffffff8b169063a3a2656a90604401602060405180830381865afa158015610608573d6000803e3d6000fd5b505050506040513d601f19601f8201168201806040525081019061062c919061191d565b90508015610669576040517f5d326d840000000000000000000000000000000000000000000000000000000081526004810186905260240161058a565b73ffffffffffffffffffffffffffffffffffffffff8416600090815260208190526040902085905583888861069d8161193f565b9950815181106106af576106af611741565b602002602001019073ffffffffffffffffffffffffffffffffffffffff16908173ffffffffffffffffffffffffffffffffffffffff168152505050505050505b600101610352565b5080156108875760008167ffffffffffffffff81111561071957610719611712565b604051908082528060200260200182016040528015610742578160200160208202803683370190505b50905060005b828110156107a95783818151811061076257610762611741565b602002602001015182828151811061077c5761077c611741565b73ffffffffffffffffffffffffffffffffffffffff90921660209283029190910190910152600101610748565b506040517f229d683d00000000000000000000000000000000000000000000000000000000815273ffffffffffffffffffffffffffffffffffffffff7f0000000000000000000000000000000000000000000000000000000000000000169063229d683d9061081c90849060040161199e565b600060405180830381600087803b15801561083657600080fd5b505af115801561084a573d6000803e3d6000fd5b505050507fce2bd94f673db625f203578fd574af903b9fd5dc2593832add8ba27b9057de3a8160405161087d919061199e565b60405180910390a1505b505050505050565b36600061089a6112c1565b915091509091565b6040517f6352211e000000000000000000000000000000000000000000000000000000008152600481018290526000907f000000000000000000000000000000000000000000000000000000000000000073ffffffffffffffffffffffffffffffffffffffff1690636352211e90602401602060405180830381865afa158015610930573d6000803e3d6000fd5b505050506040513d601f19601f8201168201806040525081019061095491906116f5565b73ffffffffffffffffffffffffffffffffffffffff8116600090815260208190526040902054909150156109b4576040517fb00704f400000000000000000000000000000000000000000000000000000000815260040160405180910390fd5b6040517f4bae2be8000000000000000000000000000000000000000000000000000000008152600481018390526000907f000000000000000000000000000000000000000000000000000000000000000073ffffffffffffffffffffffffffffffffffffffff1690634bae2be890602401600060405180830381865afa158015610a42573d6000803e3d6000fd5b505050506040513d6000823e601f3d9081017fffffffffffffffffffffffffffffffffffffffffffffffffffffffffffffffe0168201604052610a889190810190611866565b5095505050505050600081805190602001209050807f000000000000000000000000000000000000000000000000000000000000000014610af8576040517fed7780420000000000000000000000000000000000000000000000000000000081526004810185905260240161058a565b60007f000000000000000000000000000000000000000000000000000000000000000073ffffffffffffffffffffffffffffffffffffffff1663f0f2740d6040518163ffffffff1660e01b8152600401602060405180830381865afa158015610b65573d6000803e3d6000fd5b505050506040513d601f19601f82011682018060405250810190610b8991906116f5565b6040517fa3a2656a000000000000000000000000000000000000000000000000000000008152600481018490526024810187905273ffffffffffffffffffffffffffffffffffffffff919091169063a3a2656a90604401602060405180830381865afa158015610bfd573d6000803e3d6000fd5b505050506040513d601f19601f82011682018060405250810190610c21919061191d565b90508015610c5e576040517f5d326d840000000000000000000000000000000000000000000000000000000081526004810186905260240161058a565b604080516001808252818301909252600091602080830190803683370190505090508481600081518110610c9457610c94611741565b73ffffffffffffffffffffffffffffffffffffffff928316602091820292909201810191909152868216600090815290819052604090819020889055517f229d683d0000000000000000000000000000000000000000000000000000000081527f00000000000000000000000000000000000000000000000000000000000000009091169063229d683d90610d2d90849060040161199e565b600060405180830381600087803b158015610d4757600080fd5b505af1158015610d5b573d6000803e3d6000fd5b505050507fce2bd94f673db625f203578fd574af903b9fd5dc2593832add8ba27b9057de3a81604051610d8e919061199e565b60405180910390a1505050505050565b60007f000000000000000000000000000000000000000000000000000000000000000073ffffffffffffffffffffffffffffffffffffffff1663f0f2740d6040518163ffffffff1660e01b8152600401602060405180830381865afa158015610e0b573d6000803e3d6000fd5b505050506040513d601f19601f82011682018060405250810190610e2f91906116f5565b90508160008167ffffffffffffffff811115610e4d57610e4d611712565b604051908082528060200260200182016040528015610e76578160200160208202803683370190505b5090506000805b8381101561112c576000878783818110610e9957610e99611741565b9050602002016020810190610eae91906116d1565b73ffffffffffffffffffffffffffffffffffffffff8116600090815260208190526040812054919250819003610ee5575050611124565b6040517f4bae2be8000000000000000000000000000000000000000000000000000000008152600481018290526000907f000000000000000000000000000000000000000000000000000000000000000073ffffffffffffffffffffffffffffffffffffffff1690634bae2be890602401600060405180830381865afa158015610f73573d6000803e3d6000fd5b505050506040513d6000823e601f3d9081017fffffffffffffffffffffffffffffffffffffffffffffffffffffffffffffffe0168201604052610fb99190810190611866565b50805160208201206040517fa3a2656a00000000000000000000000000000000000000000000000000000000815260048101829052602481018a905291975095506000945073ffffffffffffffffffffffffffffffffffffffff8e16935063a3a2656a92506044019050602060405180830381865afa158015611040573d6000803e3d6000fd5b505050506040513d601f19601f82011682018060405250810190611064919061191d565b9050806110a0576040517f73bb64030000000000000000000000000000000000000000000000000000000081526004810185905260240161058a565b73ffffffffffffffffffffffffffffffffffffffff85166000908152602081905260408120558488886110d28161193f565b9950815181106110e4576110e4611741565b602002602001019073ffffffffffffffffffffffffffffffffffffffff16908173ffffffffffffffffffffffffffffffffffffffff168152505050505050505b600101610e7d565b5080156108875760008167ffffffffffffffff81111561114e5761114e611712565b604051908082528060200260200182016040528015611177578160200160208202803683370190505b50905060005b828110156111de5783818151811061119757611197611741565b60200260200101518282815181106111b1576111b1611741565b73ffffffffffffffffffffffffffffffffffffffff9092166020928302919091019091015260010161117d565b506040517f7cd727ba00000000000000000000000000000000000000000000000000000000815273ffffffffffffffffffffffffffffffffffffffff7f00000000000000000000000000000000000000000000000000000000000000001690637cd727ba9061125190849060040161199e565b600060405180830381600087803b15801561126b57600080fd5b505af115801561127f573d6000803e3d6000fd5b505050507f9063cc81f7b7355a42e797c2e706377c4431f539572eb4c2ef6f2011ae19a9668160405161087d919061199e565b60006112bc6112cc565b905090565b36600061089a6112d6565b60006112bc611440565b366000333214806112e75750601836105b156112f55750600091369150565b3373ffffffffffffffffffffffffffffffffffffffff7f000000000000000000000000000000000000000000000000000000000000000016148061142a575073ffffffffffffffffffffffffffffffffffffffff7f000000000000000000000000000000000000000000000000000000000000000016638929a8ca367fffffffffffffffffffffffffffffffffffffffffffffffffffffffffffffffec013560601c6040517fffffffff0000000000000000000000000000000000000000000000000000000060e084901b16815273ffffffffffffffffffffffffffffffffffffffff9091166004820152336024820152604401602060405180830381865afa158015611406573d6000803e3d6000fd5b505050506040513d601f19601f8201168201806040525081019061142a919061191d565b156114375761089a611587565b50600091369150565b6000333214806114505750601836105b1561145a57503390565b7fffffffffffffffffffffffffffffffffffffffffffffffffffffffffffffffec36013560601c7f000000000000000000000000000000000000000000000000000000000000000073ffffffffffffffffffffffffffffffffffffffff1633148061157657506040517f8929a8ca00000000000000000000000000000000000000000000000000000000815273ffffffffffffffffffffffffffffffffffffffff82811660048301523360248301527f00000000000000000000000000000000000000000000000000000000000000001690638929a8ca90604401602060405180830381865afa158015611552573d6000803e3d6000fd5b505050506040513d601f19601f82011682018060405250810190611576919061191d565b1561158057919050565b3391505090565b36600061089a7fffffffffffffffffffffffffffffffffffffffffffffffffffffffffffffffec83018284816119f8565b60008083601f8401126115ca57600080fd5b50813567ffffffffffffffff8111156115e257600080fd5b6020830191508360208260051b85010111156115fd57600080fd5b9250929050565b6000806020838503121561161757600080fd5b823567ffffffffffffffff81111561162e57600080fd5b61163a858286016115b8565b90969095509350505050565b60208152816020820152818360408301376000818301604090810191909152601f9092017fffffffffffffffffffffffffffffffffffffffffffffffffffffffffffffffe0160101919050565b6000602082840312156116a557600080fd5b5035919050565b73ffffffffffffffffffffffffffffffffffffffff811681146116ce57600080fd5b50565b6000602082840312156116e357600080fd5b81356116ee816116ac565b9392505050565b60006020828403121561170757600080fd5b81516116ee816116ac565b7f4e487b7100000000000000000000000000000000000000000000000000000000600052604160045260246000fd5b7f4e487b7100000000000000000000000000000000000000000000000000000000600052603260045260246000fd5b805161ffff8116811461178257600080fd5b919050565b805167ffffffffffffffff8116811461178257600080fd5b600082601f8301126117b057600080fd5b815167ffffffffffffffff808211156117cb576117cb611712565b604051601f83017fffffffffffffffffffffffffffffffffffffffffffffffffffffffffffffffe0908116603f0116810190828211818310171561181157611811611712565b816040528381526020925086602085880101111561182e57600080fd5b600091505b838210156118505785820183015181830184015290820190611833565b6000602085830101528094505050505092915050565b600080600080600080600060e0888a03121561188157600080fd5b61188a88611770565b965061189860208901611770565b95506118a660408901611787565b94506118b460608901611787565b93506118c260808901611787565b925060a088015167ffffffffffffffff808211156118df57600080fd5b6118eb8b838c0161179f565b935060c08a015191508082111561190157600080fd5b5061190e8a828b0161179f565b91505092959891949750929550565b60006020828403121561192f57600080fd5b815180151581146116ee57600080fd5b60007fffffffffffffffffffffffffffffffffffffffffffffffffffffffffffffffff8203611997577f4e487b7100000000000000000000000000000000000000000000000000000000600052601160045260246000fd5b5060010190565b6020808252825182820181905260009190848201906040850190845b818110156119ec57835173ffffffffffffffffffffffffffffffffffffffff16835292840192918401916001016119ba565b50909695505050505050565b60008085851115611a0857600080fd5b83861115611a1557600080fd5b505082019391909203915056fea26469706673582212209f07e291a8e00c9b239506438d147fe5d3684dd090c59b99a6d0c135c4ccf91864736f6c63430008160033",
  "linkReferences": {},
  "deployedLinkReferences": {}
}