{
  "_format": "hh-sol-artifact-1",
  "contractName": "OpenCampusCertificateNFTv1Mock",
  "sourceName": "contracts/mocks/vc/OpenCampusCertificateNFTv1Mock.sol",
  "abi": [
    {
      "inputs": [
        {
          "internalType": "string",
          "name": "tokenName",
          "type": "string"
        },
        {
          "internalType": "string",
          "name": "tokenSymbol",
          "type": "string"
        },
        {
          "internalType": "contract IForwarderRegistry",
          "name": "forwarderRegistry",
          "type": "address"
        },
        {
          "internalType": "contract ITokenMetadataResolver",
          "name": "metadataResolver",
          "type": "address"
        },
        {
          "internalType": "contract IRevocationRegistry",
          "name": "revocationRegistry",
          "type": "address"
        },
        {
          "internalType": "contract IIssuersDIDRegistry",
          "name": "didRegistry",
          "type": "address"
        }
      ],
      "stateMutability": "nonpayable",
      "type": "constructor"
    },
    {
      "inputs": [],
      "name": "ERC721BalanceOfAddressZero",
      "type": "error"
    },
    {
      "inputs": [
        {
          "internalType": "uint256",
          "name": "tokenId",
          "type": "uint256"
        }
      ],
      "name": "ERC721ExistingToken",
      "type": "error"
    },
    {
      "inputs": [],
      "name": "ERC721MintToAddressZero",
      "type": "error"
    },
    {
      "inputs": [
        {
          "internalType": "address",
          "name": "sender",
          "type": "address"
        },
        {
          "internalType": "address",
          "name": "owner",
          "type": "address"
        },
        {
          "internalType": "uint256",
          "name": "tokenId",
          "type": "uint256"
        }
      ],
      "name": "ERC721NonApprovedForApproval",
      "type": "error"
    },
    {
      "inputs": [
        {
          "internalType": "address",
          "name": "sender",
          "type": "address"
        },
        {
          "internalType": "address",
          "name": "owner",
          "type": "address"
        },
        {
          "internalType": "uint256",
          "name": "tokenId",
          "type": "uint256"
        }
      ],
      "name": "ERC721NonApprovedForTransfer",
      "type": "error"
    },
    {
      "inputs": [
        {
          "internalType": "uint256",
          "name": "tokenId",
          "type": "uint256"
        }
      ],
      "name": "ERC721NonExistingToken",
      "type": "error"
    },
    {
      "inputs": [
        {
          "internalType": "address",
          "name": "account",
          "type": "address"
        },
        {
          "internalType": "uint256",
          "name": "tokenId",
          "type": "uint256"
        }
      ],
      "name": "ERC721NonOwnedToken",
      "type": "error"
    },
    {
      "inputs": [
        {
          "internalType": "address",
          "name": "recipient",
          "type": "address"
        },
        {
          "internalType": "uint256",
          "name": "tokenId",
          "type": "uint256"
        }
      ],
      "name": "ERC721SafeTransferRejected",
      "type": "error"
    },
    {
      "inputs": [
        {
          "internalType": "address",
          "name": "account",
          "type": "address"
        }
      ],
      "name": "ERC721SelfApproval",
      "type": "error"
    },
    {
      "inputs": [
        {
          "internalType": "address",
          "name": "account",
          "type": "address"
        }
      ],
      "name": "ERC721SelfApprovalForAll",
      "type": "error"
    },
    {
      "inputs": [],
      "name": "ERC721TransferToAddressZero",
      "type": "error"
    },
    {
      "inputs": [],
      "name": "IllegalInterfaceId",
      "type": "error"
    },
    {
      "inputs": [
        {
          "internalType": "address",
          "name": "account",
          "type": "address"
        }
      ],
      "name": "NotContractOwner",
      "type": "error"
    },
    {
      "inputs": [
        {
          "internalType": "bytes32",
          "name": "role",
          "type": "bytes32"
        },
        {
          "internalType": "address",
          "name": "account",
          "type": "address"
        }
      ],
      "name": "NotRoleHolder",
      "type": "error"
    },
    {
      "inputs": [
        {
          "internalType": "bytes32",
          "name": "hashedDid",
          "type": "bytes32"
        },
        {
          "internalType": "uint256",
          "name": "tokenId",
          "type": "uint256"
        }
      ],
      "name": "VcNotRevoked",
      "type": "error"
    },
    {
      "anonymous": false,
      "inputs": [
        {
          "indexed": true,
          "internalType": "address",
          "name": "owner",
          "type": "address"
        },
        {
          "indexed": true,
          "internalType": "address",
          "name": "approved",
          "type": "address"
        },
        {
          "indexed": true,
          "internalType": "uint256",
          "name": "tokenId",
          "type": "uint256"
        }
      ],
      "name": "Approval",
      "type": "event"
    },
    {
      "anonymous": false,
      "inputs": [
        {
          "indexed": true,
          "internalType": "address",
          "name": "owner",
          "type": "address"
        },
        {
          "indexed": true,
          "internalType": "address",
          "name": "operator",
          "type": "address"
        },
        {
          "indexed": false,
          "internalType": "bool",
          "name": "approved",
          "type": "bool"
        }
      ],
      "name": "ApprovalForAll",
      "type": "event"
    },
    {
      "anonymous": false,
      "inputs": [
        {
          "indexed": true,
          "internalType": "address",
          "name": "previousOwner",
          "type": "address"
        },
        {
          "indexed": true,
          "internalType": "address",
          "name": "newOwner",
          "type": "address"
        }
      ],
      "name": "OwnershipTransferred",
      "type": "event"
    },
    {
      "anonymous": false,
      "inputs": [
        {
          "indexed": false,
          "internalType": "bytes32",
          "name": "role",
          "type": "bytes32"
        },
        {
          "indexed": false,
          "internalType": "address",
          "name": "account",
          "type": "address"
        },
        {
          "indexed": false,
          "internalType": "address",
          "name": "operator",
          "type": "address"
        }
      ],
      "name": "RoleGranted",
      "type": "event"
    },
    {
      "anonymous": false,
      "inputs": [
        {
          "indexed": false,
          "internalType": "bytes32",
          "name": "role",
          "type": "bytes32"
        },
        {
          "indexed": false,
          "internalType": "address",
          "name": "account",
          "type": "address"
        },
        {
          "indexed": false,
          "internalType": "address",
          "name": "operator",
          "type": "address"
        }
      ],
      "name": "RoleRevoked",
      "type": "event"
    },
    {
      "anonymous": false,
      "inputs": [
        {
          "indexed": true,
          "internalType": "address",
          "name": "from",
          "type": "address"
        },
        {
          "indexed": true,
          "internalType": "address",
          "name": "to",
          "type": "address"
        },
        {
          "indexed": true,
          "internalType": "uint256",
          "name": "tokenId",
          "type": "uint256"
        }
      ],
      "name": "Transfer",
      "type": "event"
    },
    {
      "inputs": [],
      "name": "DID_REGISTRY",
      "outputs": [
        {
          "internalType": "contract IIssuersDIDRegistry",
          "name": "",
          "type": "address"
        }
      ],
      "stateMutability": "view",
      "type": "function"
    },
    {
      "inputs": [],
      "name": "MINTER_ROLE",
      "outputs": [
        {
          "internalType": "bytes32",
          "name": "",
          "type": "bytes32"
        }
      ],
      "stateMutability": "view",
      "type": "function"
    },
    {
      "inputs": [],
      "name": "OPERATOR_ROLE",
      "outputs": [
        {
          "internalType": "bytes32",
          "name": "",
          "type": "bytes32"
        }
      ],
      "stateMutability": "view",
      "type": "function"
    },
    {
      "inputs": [],
      "name": "__msgData",
      "outputs": [
        {
          "internalType": "bytes",
          "name": "",
          "type": "bytes"
        }
      ],
      "stateMutability": "view",
      "type": "function"
    },
    {
      "inputs": [
        {
          "internalType": "address",
          "name": "to",
          "type": "address"
        },
        {
          "internalType": "uint256",
          "name": "tokenId",
          "type": "uint256"
        }
      ],
      "name": "approve",
      "outputs": [],
      "stateMutability": "nonpayable",
      "type": "function"
    },
    {
      "inputs": [
        {
          "internalType": "address",
          "name": "owner",
          "type": "address"
        }
      ],
      "name": "balanceOf",
      "outputs": [
        {
          "internalType": "uint256",
          "name": "balance",
          "type": "uint256"
        }
      ],
      "stateMutability": "view",
      "type": "function"
    },
    {
      "inputs": [
        {
          "internalType": "uint256",
          "name": "tokenId",
          "type": "uint256"
        }
      ],
      "name": "burn",
      "outputs": [],
      "stateMutability": "nonpayable",
      "type": "function"
    },
    {
      "inputs": [],
      "name": "forwarderRegistry",
      "outputs": [
        {
          "internalType": "contract IForwarderRegistry",
          "name": "",
          "type": "address"
        }
      ],
      "stateMutability": "view",
      "type": "function"
    },
    {
      "inputs": [
        {
          "internalType": "uint256",
          "name": "tokenId",
          "type": "uint256"
        }
      ],
      "name": "getApproved",
      "outputs": [
        {
          "internalType": "address",
          "name": "approved",
          "type": "address"
        }
      ],
      "stateMutability": "view",
      "type": "function"
    },
    {
      "inputs": [
        {
          "internalType": "bytes32",
          "name": "role",
          "type": "bytes32"
        },
        {
          "internalType": "address",
          "name": "account",
          "type": "address"
        }
      ],
      "name": "grantRole",
      "outputs": [],
      "stateMutability": "nonpayable",
      "type": "function"
    },
    {
      "inputs": [
        {
          "internalType": "bytes32",
          "name": "role",
          "type": "bytes32"
        },
        {
          "internalType": "address",
          "name": "account",
          "type": "address"
        }
      ],
      "name": "hasRole",
      "outputs": [
        {
          "internalType": "bool",
          "name": "hasRole_",
          "type": "bool"
        }
      ],
      "stateMutability": "view",
      "type": "function"
    },
    {
      "inputs": [
        {
          "internalType": "address",
          "name": "owner",
          "type": "address"
        },
        {
          "internalType": "address",
          "name": "operator",
          "type": "address"
        }
      ],
      "name": "isApprovedForAll",
      "outputs": [
        {
          "internalType": "bool",
          "name": "approvedForAll",
          "type": "bool"
        }
      ],
      "stateMutability": "view",
      "type": "function"
    },
    {
      "inputs": [
        {
          "internalType": "address",
          "name": "forwarder",
          "type": "address"
        }
      ],
      "name": "isTrustedForwarder",
      "outputs": [
        {
          "internalType": "bool",
          "name": "",
          "type": "bool"
        }
      ],
      "stateMutability": "view",
      "type": "function"
    },
    {
      "inputs": [],
      "name": "metadataResolver",
      "outputs": [
        {
          "internalType": "contract ITokenMetadataResolver",
          "name": "tokenMetadataResolver",
          "type": "address"
        }
      ],
      "stateMutability": "view",
      "type": "function"
    },
    {
      "inputs": [
        {
          "internalType": "address",
          "name": "to",
          "type": "address"
        },
        {
          "internalType": "uint256",
          "name": "tokenId",
          "type": "uint256"
        },
        {
          "components": [
            {
              "internalType": "uint16",
              "name": "schemaVersion",
              "type": "uint16"
            },
            {
              "internalType": "uint16",
              "name": "achievementType",
              "type": "uint16"
            },
            {
              "internalType": "uint64",
              "name": "awardedDate",
              "type": "uint64"
            },
            {
              "internalType": "uint64",
              "name": "validFrom",
              "type": "uint64"
            },
            {
              "internalType": "uint64",
              "name": "validUtil",
              "type": "uint64"
            },
            {
              "internalType": "string",
              "name": "issuerDid",
              "type": "string"
            },
            {
              "internalType": "string",
              "name": "achievementId",
              "type": "string"
            }
          ],
          "internalType": "struct CertificateNFTv1MetaData.MetaData",
          "name": "metadata",
          "type": "tuple"
        }
      ],
      "name": "mint",
      "outputs": [],
      "stateMutability": "nonpayable",
      "type": "function"
    },
    {
      "inputs": [],
      "name": "name",
      "outputs": [
        {
          "internalType": "string",
          "name": "tokenName",
          "type": "string"
        }
      ],
      "stateMutability": "view",
      "type": "function"
    },
    {
      "inputs": [],
      "name": "owner",
      "outputs": [
        {
          "internalType": "address",
          "name": "",
          "type": "address"
        }
      ],
      "stateMutability": "view",
      "type": "function"
    },
    {
      "inputs": [
        {
          "internalType": "uint256",
          "name": "tokenId",
          "type": "uint256"
        }
      ],
      "name": "ownerOf",
      "outputs": [
        {
          "internalType": "address",
          "name": "tokenOwner",
          "type": "address"
        }
      ],
      "stateMutability": "view",
      "type": "function"
    },
    {
      "inputs": [
        {
          "internalType": "bytes32",
          "name": "role",
          "type": "bytes32"
        }
      ],
      "name": "renounceRole",
      "outputs": [],
      "stateMutability": "nonpayable",
      "type": "function"
    },
    {
      "inputs": [],
      "name": "revocationRegistry",
      "outputs": [
        {
          "internalType": "contract IRevocationRegistry",
          "name": "",
          "type": "address"
        }
      ],
      "stateMutability": "view",
      "type": "function"
    },
    {
      "inputs": [
        {
          "internalType": "bytes32",
          "name": "role",
          "type": "bytes32"
        },
        {
          "internalType": "address",
          "name": "account",
          "type": "address"
        }
      ],
      "name": "revokeRole",
      "outputs": [],
      "stateMutability": "nonpayable",
      "type": "function"
    },
    {
      "inputs": [
        {
          "internalType": "address",
          "name": "from",
          "type": "address"
        },
        {
          "internalType": "address",
          "name": "to",
          "type": "address"
        },
        {
          "internalType": "uint256",
          "name": "tokenId",
          "type": "uint256"
        }
      ],
      "name": "safeTransferFrom",
      "outputs": [],
      "stateMutability": "nonpayable",
      "type": "function"
    },
    {
      "inputs": [
        {
          "internalType": "address",
          "name": "from",
          "type": "address"
        },
        {
          "internalType": "address",
          "name": "to",
          "type": "address"
        },
        {
          "internalType": "uint256",
          "name": "tokenId",
          "type": "uint256"
        },
        {
          "internalType": "bytes",
          "name": "data",
          "type": "bytes"
        }
      ],
      "name": "safeTransferFrom",
      "outputs": [],
      "stateMutability": "nonpayable",
      "type": "function"
    },
    {
      "inputs": [
        {
          "internalType": "address",
          "name": "operator",
          "type": "address"
        },
        {
          "internalType": "bool",
          "name": "approved",
          "type": "bool"
        }
      ],
      "name": "setApprovalForAll",
      "outputs": [],
      "stateMutability": "nonpayable",
      "type": "function"
    },
    {
      "inputs": [
        {
          "internalType": "contract IRevocationRegistry",
          "name": "revocationRegistry_",
          "type": "address"
        }
      ],
      "name": "setRevocationRegistry",
      "outputs": [],
      "stateMutability": "nonpayable",
      "type": "function"
    },
    {
      "inputs": [
        {
          "internalType": "bytes4",
          "name": "interfaceId",
          "type": "bytes4"
        }
      ],
      "name": "supportsInterface",
      "outputs": [
        {
          "internalType": "bool",
          "name": "",
          "type": "bool"
        }
      ],
      "stateMutability": "view",
      "type": "function"
    },
    {
      "inputs": [],
      "name": "symbol",
      "outputs": [
        {
          "internalType": "string",
          "name": "tokenSymbol",
          "type": "string"
        }
      ],
      "stateMutability": "view",
      "type": "function"
    },
    {
      "inputs": [
        {
          "internalType": "uint256",
          "name": "tokenId",
          "type": "uint256"
        }
      ],
      "name": "tokenURI",
      "outputs": [
        {
          "internalType": "string",
          "name": "uri",
          "type": "string"
        }
      ],
      "stateMutability": "view",
      "type": "function"
    },
    {
      "inputs": [
        {
          "internalType": "address",
          "name": "from",
          "type": "address"
        },
        {
          "internalType": "address",
          "name": "to",
          "type": "address"
        },
        {
          "internalType": "uint256",
          "name": "tokenId",
          "type": "uint256"
        }
      ],
      "name": "transferFrom",
      "outputs": [],
      "stateMutability": "nonpayable",
      "type": "function"
    },
    {
      "inputs": [
        {
          "internalType": "address",
          "name": "newOwner",
          "type": "address"
        }
      ],
      "name": "transferOwnership",
      "outputs": [],
      "stateMutability": "nonpayable",
      "type": "function"
    },
    {
      "inputs": [
        {
          "internalType": "uint256",
          "name": "",
          "type": "uint256"
        }
      ],
      "name": "vcData",
      "outputs": [
        {
          "internalType": "uint16",
          "name": "schemaVersion",
          "type": "uint16"
        },
        {
          "internalType": "uint16",
          "name": "achievementType",
          "type": "uint16"
        },
        {
          "internalType": "uint64",
          "name": "awardedDate",
          "type": "uint64"
        },
        {
          "internalType": "uint64",
          "name": "validFrom",
          "type": "uint64"
        },
        {
          "internalType": "uint64",
          "name": "validUtil",
          "type": "uint64"
        },
        {
          "internalType": "string",
          "name": "issuerDid",
          "type": "string"
        },
        {
          "internalType": "string",
          "name": "achievementId",
          "type": "string"
        }
      ],
      "stateMutability": "view",
      "type": "function"
    }
  ],
  "bytecode": "0x60c06040523480156200001157600080fd5b50604051620033f1380380620033f1833981016040819052620000349162000395565b8585858585858380338888876200005a83838362000051620000d2565b92919062000108565b620000646200014f565b50505062000083816200007c6200017160201b60201c565b90620001a1565b506001600160a01b0316608052506200009b62000214565b6001600160a01b0390811660a052600080546001600160a01b0319169290911691909117905550620005d498505050505050505050565b6000806200010260017f7ea68fd2dcf1c056b94db6a0a537aa80d26fa9ab1eacd85da1ba0b61b7e7a8a562000455565b92915050565b8362000115848262000508565b506001840162000126838262000508565b5060029390930180546001600160a01b0319166001600160a01b03909416939093179092555050565b6200016f635b5e139f60e01b60016200016762000227565b919062000257565b565b6000806200010260017fc9ed16f33ab3a66c84bfd83099ccb2a8845871e2e1c1928f63797152f0fd54cd62000455565b6001600160a01b03811615620001f85781546001600160a01b0319166001600160a01b03821690811783556040516000907f8be0079c531659141344cd1fd0a4f28419497f9722a3daafe3b4186f6b6457e0908290a35b620002106307f5828d60e41b60016200016762000227565b5050565b6200016f6380ac58cd60e01b6001620001675b6000806200010260017fca9d3e17f264b0f3984e2634e94adb37fa3e6a8103f06aeae6fa59e21c769f5e62000455565b600160e01b6001600160e01b031983160162000286576040516372c683bb60e01b815260040160405180910390fd5b6001600160e01b03199190911660009081526020929092526040909120805460ff1916911515919091179055565b634e487b7160e01b600052604160045260246000fd5b600082601f830112620002dc57600080fd5b81516001600160401b0380821115620002f957620002f9620002b4565b604051601f8301601f19908116603f01168101908282118183101715620003245762000324620002b4565b81604052838152602092508660208588010111156200034257600080fd5b600091505b8382101562000366578582018301518183018401529082019062000347565b6000602085830101528094505050505092915050565b6001600160a01b03811681146200039257600080fd5b50565b60008060008060008060c08789031215620003af57600080fd5b86516001600160401b0380821115620003c757600080fd5b620003d58a838b01620002ca565b97506020890151915080821115620003ec57600080fd5b50620003fb89828a01620002ca565b95505060408701516200040e816200037c565b606088015190945062000421816200037c565b608088015190935062000434816200037c565b60a088015190925062000447816200037c565b809150509295509295509295565b818103818111156200010257634e487b7160e01b600052601160045260246000fd5b600181811c908216806200048c57607f821691505b602082108103620004ad57634e487b7160e01b600052602260045260246000fd5b50919050565b601f82111562000503576000816000526020600020601f850160051c81016020861015620004de5750805b601f850160051c820191505b81811015620004ff57828155600101620004ea565b5050505b505050565b81516001600160401b03811115620005245762000524620002b4565b6200053c8162000535845462000477565b84620004b3565b602080601f8311600181146200057457600084156200055b5750858301515b600019600386901b1c1916600185901b178555620004ff565b600085815260208120601f198616915b82811015620005a55788860151825594840194600190910190840162000584565b5085821015620005c45787850151600019600388901b60f8161c191681555b5050505050600190811b01905550565b60805160a051612dcd62000624600039600081816103bb015261113f0152600081816102890152818161034501528181611f1501528181611f9d015281816120c501526121030152612dcd6000f3fe608060405234801561001057600080fd5b50600436106101e55760003560e01c806387b202a01161010f578063b88d4fde116100a2578063e985e9c511610071578063e985e9c5146104a1578063f0f2740d146104b4578063f2fde38b146104d4578063f5b541a6146104e757600080fd5b8063b88d4fde14610441578063c87b56dd14610454578063d539139314610467578063d547741f1461048e57600080fd5b806395d89b41116100de57806395d89b411461040b57806395f94bc414610413578063a0c76f6214610426578063a22cb4651461042e57600080fd5b806387b202a0146103b65780638bb9c5bf146103dd5780638da5cb5b146103f057806391d14854146103f857600080fd5b806331e66e1e1161018757806354c7be061161015657806354c7be0614610322578063572b6c05146103355780636352211e1461038257806370a082311461039557600080fd5b806331e66e1e146102c057806342842e0e146102d657806342966c68146102e95780634bae2be8146102fc57600080fd5b8063095ea7b3116101c3578063095ea7b31461025f57806323b872dd146102745780632b4c9f16146102875780632f2ff15d146102ad57600080fd5b806301ffc9a7146101ea57806306fdde0314610212578063081812fc14610227575b600080fd5b6101fd6101f836600461237d565b61050e565b60405190151581526020015b60405180910390f35b61021a610528565b6040516102099190612408565b61023a61023536600461241b565b610537565b60405173ffffffffffffffffffffffffffffffffffffffff9091168152602001610209565b61027261026d366004612456565b61054b565b005b610272610282366004612482565b61056c565b7f000000000000000000000000000000000000000000000000000000000000000061023a565b6102726102bb3660046124c3565b6105a0565b6102c86105d9565b6040516102099291906124f3565b6102726102e4366004612482565b6105ec565b6102726102f736600461241b565b61061a565b61030f61030a36600461241b565b6107fc565b6040516102099796959493929190612540565b6102726103303660046125a7565b610983565b6101fd610343366004612607565b7f000000000000000000000000000000000000000000000000000000000000000073ffffffffffffffffffffffffffffffffffffffff90811691161490565b61023a61039036600461241b565b6109f3565b6103a86103a3366004612607565b610a01565b604051908152602001610209565b61023a7f000000000000000000000000000000000000000000000000000000000000000081565b6102726103eb36600461241b565b610a15565b61023a610a33565b6101fd6104063660046124c3565b610a5a565b61021a610aa5565b610272610421366004612607565b610aaf565b61023a610b09565b61027261043c366004612632565b610b33565b61027261044f366004612660565b610b50565b61021a61046236600461241b565b610b8a565b6103a87f6d696e746572000000000000000000000000000000000000000000000000000081565b61027261049c3660046124c3565b610bad565b6101fd6104af3660046126ff565b610bdb565b60005461023a9073ffffffffffffffffffffffffffffffffffffffff1681565b6102726104e2366004612607565b610c29565b6103a87f6f70657261746f7200000000000000000000000000000000000000000000000081565b60006105228261051c610c44565b90610c72565b92915050565b6060610532610d4c565b905090565b600061052282610545610d5e565b90610d8c565b610568610556610e40565b8383610560610d5e565b929190610e4a565b5050565b6000610576610e40565b905061058281836110c5565b61059a81858585610591610d5e565b939291906111db565b50505050565b60006105aa610e40565b90506105be816105b86114b9565b906114e7565b6105d48383836105cc611552565b929190611580565b505050565b3660006105e4611656565b915091509091565b60006105f6610e40565b905061060281836110c5565b61059a81858585610611610d5e565b93929190611661565b600061062e82610628610d5e565b906116a7565b90506000600160008481526020019081526020016000206001016040516106559190612780565b6040519081900381206000547fa3a2656a000000000000000000000000000000000000000000000000000000008352600483018290526024830186905290925073ffffffffffffffffffffffffffffffffffffffff169063a3a2656a90604401602060405180830381865afa1580156106d2573d6000803e3d6000fd5b505050506040513d601f19601f820116820180604052508101906106f69190612814565b156107bb577fdead000000000000000000000000000000000000000000000000000000000000610724610d5e565b6000858152602091909152604090205561073c610d5e565b73ffffffffffffffffffffffffffffffffffffffff83166000818152600192909201602052604080832080547fffffffffffffffffffffffffffffffffffffffffffffffffffffffffffffffff01905551859291907fddf252ad1be2c89b69c2b068fc378daa952ba7f163c4a11628f55a4df523b3ef908390a4505050565b6040517fa0258a6a00000000000000000000000000000000000000000000000000000000815260048101829052602481018490526044015b60405180910390fd5b60016020819052600091825260409091208054918101805461ffff808516946201000081049091169367ffffffffffffffff64010000000083048116946c01000000000000000000000000840482169474010000000000000000000000000000000000000000909404909116926108729061272d565b80601f016020809104026020016040519081016040528092919081815260200182805461089e9061272d565b80156108eb5780601f106108c0576101008083540402835291602001916108eb565b820191906000526020600020905b8154815290600101906020018083116108ce57829003601f168201915b5050505050908060020180546109009061272d565b80601f016020809104026020016040519081016040528092919081815260200182805461092c9061272d565b80156109795780601f1061094e57610100808354040283529160200191610979565b820191906000526020600020905b81548152906001019060200180831161095c57829003601f168201915b5050505050905087565b6109be7f6d696e74657200000000000000000000000000000000000000000000000000006109af610e40565b6109b7611552565b9190611710565b6109d283836109cb610d5e565b9190611796565b600082815260016020526040902081906109ec8282612a5c565b5050505050565b600061052282610628610d5e565b600061052282610a0f610d5e565b906118b0565b610a30610a20610e40565b82610a29611552565b919061192c565b50565b6000610532610a406114b9565b5473ffffffffffffffffffffffffffffffffffffffff1690565b6000610a9e8383610a69611552565b60009283526020908152604080842073ffffffffffffffffffffffffffffffffffffffff909316845291905290205460ff1690565b9392505050565b60606105326119d0565b610ac2610aba610e40565b6105b86114b9565b600080547fffffffffffffffffffffffff00000000000000000000000000000000000000001673ffffffffffffffffffffffffffffffffffffffff92909216919091179055565b6000610532610b166119e2565b6002015473ffffffffffffffffffffffffffffffffffffffff1690565b610568610b3e610e40565b8383610b48610d5e565b929190611a10565b6000610b5a610e40565b9050610b6681856110c5565b610b82818787878787610b77610d5e565b959493929190611b28565b505050505050565b6060610b9882610628610d5e565b506105223083610ba66119e2565b9190611b9e565b6000610bb7610e40565b9050610bc5816105b86114b9565b6105d4838383610bd3611552565b929190611c5e565b6000610a9e8383610bea610d5e565b919073ffffffffffffffffffffffffffffffffffffffff9182166000908152600393909301602090815260408085209290931684525290205460ff1690565b610a30610c34610e40565b82610c3d6114b9565b9190611d28565b60008061052260017fca9d3e17f264b0f3984e2634e94adb37fa3e6a8103f06aeae6fa59e21c769f5e612c02565b60007c01000000000000000000000000000000000000000000000000000000007fffffffff00000000000000000000000000000000000000000000000000000000831601610cc257506000610522565b7ffe003659000000000000000000000000000000000000000000000000000000007fffffffff00000000000000000000000000000000000000000000000000000000831601610d1357506001610522565b507fffffffff00000000000000000000000000000000000000000000000000000000166000908152602091909152604090205460ff1690565b6060610532610d596119e2565b611e3c565b60008061052260017fddf3ee18ae6d688373c219468f8be446e7ae82215f4779d821c7ea5e8c13c0c1612c02565b60008181526020839052604081205473ffffffffffffffffffffffffffffffffffffffff8116610deb576040517fdd560475000000000000000000000000000000000000000000000000000000008152600481018490526024016107f3565b74010000000000000000000000000000000000000000811615610e36575050600081815260028301602052604090205473ffffffffffffffffffffffffffffffffffffffff16610522565b6000915050610522565b6000610532611ed2565b60008181526020859052604090205473ffffffffffffffffffffffffffffffffffffffff8116610ea9576040517fdd560475000000000000000000000000000000000000000000000000000000008152600481018390526024016107f3565b8073ffffffffffffffffffffffffffffffffffffffff80821690851603610f14576040517fb7fdc01000000000000000000000000000000000000000000000000000000000815273ffffffffffffffffffffffffffffffffffffffff821660048201526024016107f3565b610f1f868287612019565b610f7c576040517fc7563a1800000000000000000000000000000000000000000000000000000000815273ffffffffffffffffffffffffffffffffffffffff808716600483015282166024820152604481018490526064016107f3565b73ffffffffffffffffffffffffffffffffffffffff8416610fe15774010000000000000000000000000000000000000000821615610fdc57600083815260208790526040902073ffffffffffffffffffffffffffffffffffffffff821690555b611062565b7401000000000000000000000000000000000000000082178083146110125760008481526020889052604090208190555b506000838152600287016020526040902080547fffffffffffffffffffffffff00000000000000000000000000000000000000001673ffffffffffffffffffffffffffffffffffffffff86161790555b828473ffffffffffffffffffffffffffffffffffffffff168273ffffffffffffffffffffffffffffffffffffffff167f8c5be1e5ebec7d5bd14f71427d1e84f3dd0314c0f7b2291e5b200ac8c7c3b92560405160405180910390a4505050505050565b6000600160008381526020019081526020016000206001016040516110ea9190612780565b6040519081900381207ff9236a390000000000000000000000000000000000000000000000000000000082526004820181905273ffffffffffffffffffffffffffffffffffffffff85811660248401529092507f0000000000000000000000000000000000000000000000000000000000000000169063f9236a3990604401602060405180830381865afa158015611186573d6000803e3d6000fd5b505050506040513d601f19601f820116820180604052508101906111aa9190612814565b6105d4576105d47f6f70657261746f72000000000000000000000000000000000000000000000000846109b7611552565b73ffffffffffffffffffffffffffffffffffffffff8216611228576040517f86c8706700000000000000000000000000000000000000000000000000000000815260040160405180910390fd5b60008181526020869052604090205473ffffffffffffffffffffffffffffffffffffffff8116611287576040517fdd560475000000000000000000000000000000000000000000000000000000008152600481018390526024016107f3565b73ffffffffffffffffffffffffffffffffffffffff84168173ffffffffffffffffffffffffffffffffffffffff161461130b576040517f14dbb53600000000000000000000000000000000000000000000000000000000815273ffffffffffffffffffffffffffffffffffffffff85166004820152602481018390526044016107f3565b611316868587612019565b6113c55774010000000000000000000000000000000000000000811615806113675750600082815260028701602052604090205473ffffffffffffffffffffffffffffffffffffffff868116911614155b156113c5576040517fa4a3018b00000000000000000000000000000000000000000000000000000000815273ffffffffffffffffffffffffffffffffffffffff808716600483015285166024820152604481018390526064016107f3565b600082815260208790526040902073ffffffffffffffffffffffffffffffffffffffff808516918290558516146114565773ffffffffffffffffffffffffffffffffffffffff80851660009081526001808901602052604080832080547fffffffffffffffffffffffffffffffffffffffffffffffffffffffffffffffff0190559286168252919020805490910190555b818373ffffffffffffffffffffffffffffffffffffffff168573ffffffffffffffffffffffffffffffffffffffff167fddf252ad1be2c89b69c2b068fc378daa952ba7f163c4a11628f55a4df523b3ef60405160405180910390a4505050505050565b60008061052260017fc9ed16f33ab3a66c84bfd83099ccb2a8845871e2e1c1928f63797152f0fd54cd612c02565b815473ffffffffffffffffffffffffffffffffffffffff828116911614610568576040517f2ef4875e00000000000000000000000000000000000000000000000000000000815273ffffffffffffffffffffffffffffffffffffffff821660048201526024016107f3565b60008061052260017fc8827d3282af6f37b64c3e9e6f3ac9df286ab0bb0fccd6f8661bf19adb368b23612c02565b60008381526020858152604080832073ffffffffffffffffffffffffffffffffffffffff8616845290915290205460ff1661059a5760008381526020858152604080832073ffffffffffffffffffffffffffffffffffffffff8681168086529184529382902080547fffffffffffffffffffffffffffffffffffffffffffffffffffffffffffffff00166001179055815187815292830152918316918101919091527f2f8788117e7eff1d82e926ec794901d17c78024a50270940304540a733656f0d906060015b60405180910390a150505050565b3660006105e461208e565b61166e85858585856111db565b73ffffffffffffffffffffffffffffffffffffffff82163b156109ec576109ec84848484604051806020016040528060008152506121f8565b60008181526020839052604081205473ffffffffffffffffffffffffffffffffffffffff8116611706576040517fdd560475000000000000000000000000000000000000000000000000000000008152600481018490526024016107f3565b805b949350505050565b60008281526020848152604080832073ffffffffffffffffffffffffffffffffffffffff8516845290915290205460ff166105d4576040517f7aa728820000000000000000000000000000000000000000000000000000000081526004810183905273ffffffffffffffffffffffffffffffffffffffff821660248201526044016107f3565b73ffffffffffffffffffffffffffffffffffffffff82166117e3576040517f7851b9cd00000000000000000000000000000000000000000000000000000000815260040160405180910390fd5b60008181526020849052604090205473ffffffffffffffffffffffffffffffffffffffff1615611842576040517f753eceac000000000000000000000000000000000000000000000000000000008152600481018290526024016107f3565b60008181526020848152604080832073ffffffffffffffffffffffffffffffffffffffff86169081905580845260018088019093528184208054909301909255518392907fddf252ad1be2c89b69c2b068fc378daa952ba7f163c4a11628f55a4df523b3ef908290a4505050565b600073ffffffffffffffffffffffffffffffffffffffff82166118ff576040517faefbce4e00000000000000000000000000000000000000000000000000000000815260040160405180910390fd5b5073ffffffffffffffffffffffffffffffffffffffff166000908152600191909101602052604090205490565b611937838284611710565b60008181526020848152604080832073ffffffffffffffffffffffffffffffffffffffff86168085529083529281902080547fffffffffffffffffffffffffffffffffffffffffffffffffffffffffffffff0016905580518481529182018390528101919091527ff6391f5c32d9c69d2a47ea670b442974b53935d1edc7fd64eb21e047a839171b9060600160405180910390a1505050565b60606105326119dd6119e2565b61230d565b60008061052260017f7ea68fd2dcf1c056b94db6a0a537aa80d26fa9ab1eacd85da1ba0b61b7e7a8a5612c02565b8273ffffffffffffffffffffffffffffffffffffffff168273ffffffffffffffffffffffffffffffffffffffff1603611a8d576040517fe4215c6a00000000000000000000000000000000000000000000000000000000815273ffffffffffffffffffffffffffffffffffffffff841660048201526024016107f3565b73ffffffffffffffffffffffffffffffffffffffff838116600081815260038701602090815260408083209487168084529482529182902080547fffffffffffffffffffffffffffffffffffffffffffffffffffffffffffffff001686151590811790915591519182527f17307eab39ab6107e8899845ad3d59bd9653f200f220920489ca2b5937696c31910160405180910390a350505050565b611b3587878787876111db565b73ffffffffffffffffffffffffffffffffffffffff84163b15611b9557611b958686868686868080601f0160208091040260200160405190810160405280939291908181526020018383808284376000920191909152506121f892505050565b50505050505050565b60028301546040517ff724dad700000000000000000000000000000000000000000000000000000000815273ffffffffffffffffffffffffffffffffffffffff848116600483015260248201849052606092169063f724dad790604401600060405180830381865afa158015611c18573d6000803e3d6000fd5b505050506040513d6000823e601f3d9081017fffffffffffffffffffffffffffffffffffffffffffffffffffffffffffffffe01682016040526117089190810190612c3c565b60008381526020858152604080832073ffffffffffffffffffffffffffffffffffffffff8616845290915290205460ff161561059a5760008381526020858152604080832073ffffffffffffffffffffffffffffffffffffffff8681168086529184529382902080547fffffffffffffffffffffffffffffffffffffffffffffffffffffffffffffff00169055815187815292830152918316918101919091527ff6391f5c32d9c69d2a47ea670b442974b53935d1edc7fd64eb21e047a839171b90606001611648565b825473ffffffffffffffffffffffffffffffffffffffff9081169083168114611d95576040517f2ef4875e00000000000000000000000000000000000000000000000000000000815273ffffffffffffffffffffffffffffffffffffffff841660048201526024016107f3565b8173ffffffffffffffffffffffffffffffffffffffff168173ffffffffffffffffffffffffffffffffffffffff161461059a5783547fffffffffffffffffffffffff00000000000000000000000000000000000000001673ffffffffffffffffffffffffffffffffffffffff8381169182178655604051908316907f8be0079c531659141344cd1fd0a4f28419497f9722a3daafe3b4186f6b6457e090600090a350505050565b6060816000018054611e4d9061272d565b80601f0160208091040260200160405190810160405280929190818152602001828054611e799061272d565b8015611ec65780601f10611e9b57610100808354040283529160200191611ec6565b820191906000526020600020905b815481529060010190602001808311611ea957829003601f168201915b50505050509050919050565b600033321480611ee25750601836105b15611eec57503390565b7fffffffffffffffffffffffffffffffffffffffffffffffffffffffffffffffec36013560601c7f000000000000000000000000000000000000000000000000000000000000000073ffffffffffffffffffffffffffffffffffffffff1633148061200857506040517f8929a8ca00000000000000000000000000000000000000000000000000000000815273ffffffffffffffffffffffffffffffffffffffff82811660048301523360248301527f00000000000000000000000000000000000000000000000000000000000000001690638929a8ca90604401602060405180830381865afa158015611fe4573d6000803e3d6000fd5b505050506040513d601f19601f820116820180604052508101906120089190612814565b1561201257919050565b3391505090565b60008173ffffffffffffffffffffffffffffffffffffffff168373ffffffffffffffffffffffffffffffffffffffff16148061170857505073ffffffffffffffffffffffffffffffffffffffff9182166000908152600393909301602090815260408085209290931684525290205460ff1690565b3660003332148061209f5750601836105b156120ad5750600091369150565b3373ffffffffffffffffffffffffffffffffffffffff7f00000000000000000000000000000000000000000000000000000000000000001614806121e2575073ffffffffffffffffffffffffffffffffffffffff7f000000000000000000000000000000000000000000000000000000000000000016638929a8ca367fffffffffffffffffffffffffffffffffffffffffffffffffffffffffffffffec013560601c6040517fffffffff0000000000000000000000000000000000000000000000000000000060e084901b16815273ffffffffffffffffffffffffffffffffffffffff9091166004820152336024820152604401602060405180830381865afa1580156121be573d6000803e3d6000fd5b505050506040513d601f19601f820116820180604052508101906121e29190612814565b156121ef576105e461231e565b50600091369150565b6040517f150b7a02000000000000000000000000000000000000000000000000000000008082529073ffffffffffffffffffffffffffffffffffffffff85169063150b7a0290612252908990899088908890600401612d07565b6020604051808303816000875af1158015612271573d6000803e3d6000fd5b505050506040513d601f19601f820116820180604052508101906122959190612d50565b7fffffffff0000000000000000000000000000000000000000000000000000000016146109ec576040517fc215a7a100000000000000000000000000000000000000000000000000000000815273ffffffffffffffffffffffffffffffffffffffff84166004820152602481018390526044016107f3565b6060816001018054611e4d9061272d565b3660006105e47fffffffffffffffffffffffffffffffffffffffffffffffffffffffffffffffec8301828481612d6d565b7fffffffff0000000000000000000000000000000000000000000000000000000081168114610a3057600080fd5b60006020828403121561238f57600080fd5b8135610a9e8161234f565b60005b838110156123b557818101518382015260200161239d565b50506000910152565b600081518084526123d681602086016020860161239a565b601f017fffffffffffffffffffffffffffffffffffffffffffffffffffffffffffffffe0169290920160200192915050565b602081526000610a9e60208301846123be565b60006020828403121561242d57600080fd5b5035919050565b73ffffffffffffffffffffffffffffffffffffffff81168114610a3057600080fd5b6000806040838503121561246957600080fd5b823561247481612434565b946020939093013593505050565b60008060006060848603121561249757600080fd5b83356124a281612434565b925060208401356124b281612434565b929592945050506040919091013590565b600080604083850312156124d657600080fd5b8235915060208301356124e881612434565b809150509250929050565b60208152816020820152818360408301376000818301604090810191909152601f9092017fffffffffffffffffffffffffffffffffffffffffffffffffffffffffffffffe0160101919050565b61ffff88811682528716602082015267ffffffffffffffff868116604083015285811660608301528416608082015260e060a08201819052600090612587908301856123be565b82810360c084015261259981856123be565b9a9950505050505050505050565b6000806000606084860312156125bc57600080fd5b83356125c781612434565b925060208401359150604084013567ffffffffffffffff8111156125ea57600080fd5b840160e081870312156125fc57600080fd5b809150509250925092565b60006020828403121561261957600080fd5b8135610a9e81612434565b8015158114610a3057600080fd5b6000806040838503121561264557600080fd5b823561265081612434565b915060208301356124e881612624565b60008060008060006080868803121561267857600080fd5b853561268381612434565b9450602086013561269381612434565b935060408601359250606086013567ffffffffffffffff808211156126b757600080fd5b818801915088601f8301126126cb57600080fd5b8135818111156126da57600080fd5b8960208285010111156126ec57600080fd5b9699959850939650602001949392505050565b6000806040838503121561271257600080fd5b823561271d81612434565b915060208301356124e881612434565b600181811c9082168061274157607f821691505b60208210810361277a577f4e487b7100000000000000000000000000000000000000000000000000000000600052602260045260246000fd5b50919050565b600080835461278e8161272d565b600182811680156127a657600181146127d957612808565b7fffffffffffffffffffffffffffffffffffffffffffffffffffffffffffffff0084168752821515830287019450612808565b8760005260208060002060005b858110156127ff5781548a8201529084019082016127e6565b50505082870194505b50929695505050505050565b60006020828403121561282657600080fd5b8151610a9e81612624565b6000813561ffff8116811461052257600080fd5b6000813567ffffffffffffffff8116811461052257600080fd5b60008083357fffffffffffffffffffffffffffffffffffffffffffffffffffffffffffffffe184360301811261289457600080fd5b83018035915067ffffffffffffffff8211156128af57600080fd5b6020019150368190038213156128c457600080fd5b9250929050565b7f4e487b7100000000000000000000000000000000000000000000000000000000600052604160045260246000fd5b601f8211156105d4576000816000526020600020601f850160051c810160208610156129235750805b601f850160051c820191505b81811015610b825782815560010161292f565b67ffffffffffffffff83111561295a5761295a6128cb565b61296e83612968835461272d565b836128fa565b6000601f8411600181146129c0576000851561298a5750838201355b7fffffffffffffffffffffffffffffffffffffffffffffffffffffffffffffffff600387901b1c1916600186901b1783556109ec565b6000838152602090207fffffffffffffffffffffffffffffffffffffffffffffffffffffffffffffffe0861690835b82811015612a0f57868501358255602094850194600190920191016129ef565b5086821015612a4a577fffffffffffffffffffffffffffffffffffffffffffffffffffffffffffffffff60f88860031b161c19848701351681555b505060018560011b0183555050505050565b61ffff612a6883612831565b168154817fffffffffffffffffffffffffffffffffffffffffffffffffffffffffffff0000821617835563ffff0000612aa360208601612831565b60101b1680837fffffffffffffffffffffffffffffffffffffffffffffffffffffffff000000008416171784556bffffffffffffffff00000000612ae960408701612845565b60201b16837fffffffffffffffffffffffffffffffffffffffff0000000000000000000000008416178217178455505050612b6e612b2960608401612845565b82547fffffffffffffffffffffffff0000000000000000ffffffffffffffffffffffff1660609190911b73ffffffffffffffff00000000000000000000000016178255565b612bca612b7d60808401612845565b82547fffffffff0000000000000000ffffffffffffffffffffffffffffffffffffffff1660a09190911b7bffffffffffffffff000000000000000000000000000000000000000016178255565b612bd760a083018361285f565b612be5818360018601612942565b5050612bf460c083018361285f565b61059a818360028601612942565b81810381811115610522577f4e487b7100000000000000000000000000000000000000000000000000000000600052601160045260246000fd5b600060208284031215612c4e57600080fd5b815167ffffffffffffffff80821115612c6657600080fd5b818401915084601f830112612c7a57600080fd5b815181811115612c8c57612c8c6128cb565b604051601f82017fffffffffffffffffffffffffffffffffffffffffffffffffffffffffffffffe0908116603f01168101908382118183101715612cd257612cd26128cb565b81604052828152876020848701011115612ceb57600080fd5b612cfc83602083016020880161239a565b979650505050505050565b600073ffffffffffffffffffffffffffffffffffffffff808716835280861660208401525083604083015260806060830152612d4660808301846123be565b9695505050505050565b600060208284031215612d6257600080fd5b8151610a9e8161234f565b60008085851115612d7d57600080fd5b83861115612d8a57600080fd5b505082019391909203915056fea264697066735822122020ecceef2a00cc0122307773b6c5dfc16cbdc8c0ea6e9f1800b6e3296197127864736f6c63430008160033",
  "linkReferences": {},
  "deployedLinkReferences": {}
}