{
  "_format": "hh-sol-artifact-1",
  "contractName": "OpenCampusCertificateNFTv1Mock",
  "sourceName": "contracts/mocks/vc/OpenCampusCertificateNFTv1Mock.sol",
  "abi": [
    {
      "inputs": [
        {
          "internalType": "string",
          "name": "tokenName",
          "type": "string"
        },
        {
          "internalType": "string",
          "name": "tokenSymbol",
          "type": "string"
        },
        {
          "internalType": "contract IForwarderRegistry",
          "name": "forwarderRegistry",
          "type": "address"
        },
        {
          "internalType": "contract ITokenMetadataResolver",
          "name": "metadataResolver",
          "type": "address"
        },
        {
          "internalType": "contract IRevocationRegistry",
          "name": "revocationRegistry",
          "type": "address"
        },
        {
          "internalType": "contract IIssuersDIDRegistry",
          "name": "didRegistry",
          "type": "address"
        }
      ],
      "stateMutability": "nonpayable",
      "type": "constructor"
    },
    {
      "inputs": [],
      "name": "ERC721BalanceOfAddressZero",
      "type": "error"
    },
    {
      "inputs": [
        {
          "internalType": "uint256",
          "name": "tokenId",
          "type": "uint256"
        }
      ],
      "name": "ERC721ExistingToken",
      "type": "error"
    },
    {
      "inputs": [],
      "name": "ERC721MintToAddressZero",
      "type": "error"
    },
    {
      "inputs": [
        {
          "internalType": "address",
          "name": "sender",
          "type": "address"
        },
        {
          "internalType": "address",
          "name": "owner",
          "type": "address"
        },
        {
          "internalType": "uint256",
          "name": "tokenId",
          "type": "uint256"
        }
      ],
      "name": "ERC721NonApprovedForApproval",
      "type": "error"
    },
    {
      "inputs": [
        {
          "internalType": "address",
          "name": "sender",
          "type": "address"
        },
        {
          "internalType": "address",
          "name": "owner",
          "type": "address"
        },
        {
          "internalType": "uint256",
          "name": "tokenId",
          "type": "uint256"
        }
      ],
      "name": "ERC721NonApprovedForTransfer",
      "type": "error"
    },
    {
      "inputs": [
        {
          "internalType": "uint256",
          "name": "tokenId",
          "type": "uint256"
        }
      ],
      "name": "ERC721NonExistingToken",
      "type": "error"
    },
    {
      "inputs": [
        {
          "internalType": "address",
          "name": "account",
          "type": "address"
        },
        {
          "internalType": "uint256",
          "name": "tokenId",
          "type": "uint256"
        }
      ],
      "name": "ERC721NonOwnedToken",
      "type": "error"
    },
    {
      "inputs": [
        {
          "internalType": "address",
          "name": "recipient",
          "type": "address"
        },
        {
          "internalType": "uint256",
          "name": "tokenId",
          "type": "uint256"
        }
      ],
      "name": "ERC721SafeTransferRejected",
      "type": "error"
    },
    {
      "inputs": [
        {
          "internalType": "address",
          "name": "account",
          "type": "address"
        }
      ],
      "name": "ERC721SelfApproval",
      "type": "error"
    },
    {
      "inputs": [
        {
          "internalType": "address",
          "name": "account",
          "type": "address"
        }
      ],
      "name": "ERC721SelfApprovalForAll",
      "type": "error"
    },
    {
      "inputs": [],
      "name": "ERC721TransferToAddressZero",
      "type": "error"
    },
    {
      "inputs": [],
      "name": "IllegalInterfaceId",
      "type": "error"
    },
    {
      "inputs": [
        {
          "internalType": "bytes32",
          "name": "hashedDid",
          "type": "bytes32"
        },
        {
          "internalType": "uint256",
          "name": "tokenId",
          "type": "uint256"
        }
      ],
      "name": "InvalidBurn",
      "type": "error"
    },
    {
      "inputs": [
        {
          "internalType": "address",
          "name": "account",
          "type": "address"
        }
      ],
      "name": "NotContractOwner",
      "type": "error"
    },
    {
      "inputs": [
        {
          "internalType": "bytes32",
          "name": "role",
          "type": "bytes32"
        },
        {
          "internalType": "address",
          "name": "account",
          "type": "address"
        }
      ],
      "name": "NotRoleHolder",
      "type": "error"
    },
    {
      "anonymous": false,
      "inputs": [
        {
          "indexed": true,
          "internalType": "address",
          "name": "owner",
          "type": "address"
        },
        {
          "indexed": true,
          "internalType": "address",
          "name": "approved",
          "type": "address"
        },
        {
          "indexed": true,
          "internalType": "uint256",
          "name": "tokenId",
          "type": "uint256"
        }
      ],
      "name": "Approval",
      "type": "event"
    },
    {
      "anonymous": false,
      "inputs": [
        {
          "indexed": true,
          "internalType": "address",
          "name": "owner",
          "type": "address"
        },
        {
          "indexed": true,
          "internalType": "address",
          "name": "operator",
          "type": "address"
        },
        {
          "indexed": false,
          "internalType": "bool",
          "name": "approved",
          "type": "bool"
        }
      ],
      "name": "ApprovalForAll",
      "type": "event"
    },
    {
      "anonymous": false,
      "inputs": [
        {
          "indexed": true,
          "internalType": "address",
          "name": "previousOwner",
          "type": "address"
        },
        {
          "indexed": true,
          "internalType": "address",
          "name": "newOwner",
          "type": "address"
        }
      ],
      "name": "OwnershipTransferred",
      "type": "event"
    },
    {
      "anonymous": false,
      "inputs": [
        {
          "indexed": false,
          "internalType": "bytes32",
          "name": "role",
          "type": "bytes32"
        },
        {
          "indexed": false,
          "internalType": "address",
          "name": "account",
          "type": "address"
        },
        {
          "indexed": false,
          "internalType": "address",
          "name": "operator",
          "type": "address"
        }
      ],
      "name": "RoleGranted",
      "type": "event"
    },
    {
      "anonymous": false,
      "inputs": [
        {
          "indexed": false,
          "internalType": "bytes32",
          "name": "role",
          "type": "bytes32"
        },
        {
          "indexed": false,
          "internalType": "address",
          "name": "account",
          "type": "address"
        },
        {
          "indexed": false,
          "internalType": "address",
          "name": "operator",
          "type": "address"
        }
      ],
      "name": "RoleRevoked",
      "type": "event"
    },
    {
      "anonymous": false,
      "inputs": [
        {
          "indexed": true,
          "internalType": "address",
          "name": "from",
          "type": "address"
        },
        {
          "indexed": true,
          "internalType": "address",
          "name": "to",
          "type": "address"
        },
        {
          "indexed": true,
          "internalType": "uint256",
          "name": "tokenId",
          "type": "uint256"
        }
      ],
      "name": "Transfer",
      "type": "event"
    },
    {
      "inputs": [],
      "name": "DID_REGISTRY",
      "outputs": [
        {
          "internalType": "contract IIssuersDIDRegistry",
          "name": "",
          "type": "address"
        }
      ],
      "stateMutability": "view",
      "type": "function"
    },
    {
      "inputs": [],
      "name": "MINTER_ROLE",
      "outputs": [
        {
          "internalType": "bytes32",
          "name": "",
          "type": "bytes32"
        }
      ],
      "stateMutability": "view",
      "type": "function"
    },
    {
      "inputs": [],
      "name": "OPERATOR_ROLE",
      "outputs": [
        {
          "internalType": "bytes32",
          "name": "",
          "type": "bytes32"
        }
      ],
      "stateMutability": "view",
      "type": "function"
    },
    {
      "inputs": [],
      "name": "__msgData",
      "outputs": [
        {
          "internalType": "bytes",
          "name": "",
          "type": "bytes"
        }
      ],
      "stateMutability": "view",
      "type": "function"
    },
    {
      "inputs": [],
      "name": "_revocationRegistry",
      "outputs": [
        {
          "internalType": "contract IRevocationRegistry",
          "name": "",
          "type": "address"
        }
      ],
      "stateMutability": "view",
      "type": "function"
    },
    {
      "inputs": [
        {
          "internalType": "address",
          "name": "to",
          "type": "address"
        },
        {
          "internalType": "uint256",
          "name": "tokenId",
          "type": "uint256"
        }
      ],
      "name": "approve",
      "outputs": [],
      "stateMutability": "nonpayable",
      "type": "function"
    },
    {
      "inputs": [
        {
          "internalType": "address",
          "name": "owner",
          "type": "address"
        }
      ],
      "name": "balanceOf",
      "outputs": [
        {
          "internalType": "uint256",
          "name": "balance",
          "type": "uint256"
        }
      ],
      "stateMutability": "view",
      "type": "function"
    },
    {
      "inputs": [
        {
          "internalType": "uint256",
          "name": "tokenId",
          "type": "uint256"
        }
      ],
      "name": "burn",
      "outputs": [],
      "stateMutability": "nonpayable",
      "type": "function"
    },
    {
      "inputs": [],
      "name": "forwarderRegistry",
      "outputs": [
        {
          "internalType": "contract IForwarderRegistry",
          "name": "",
          "type": "address"
        }
      ],
      "stateMutability": "view",
      "type": "function"
    },
    {
      "inputs": [
        {
          "internalType": "uint256",
          "name": "tokenId",
          "type": "uint256"
        }
      ],
      "name": "getApproved",
      "outputs": [
        {
          "internalType": "address",
          "name": "approved",
          "type": "address"
        }
      ],
      "stateMutability": "view",
      "type": "function"
    },
    {
      "inputs": [
        {
          "internalType": "bytes32",
          "name": "role",
          "type": "bytes32"
        },
        {
          "internalType": "address",
          "name": "account",
          "type": "address"
        }
      ],
      "name": "grantRole",
      "outputs": [],
      "stateMutability": "nonpayable",
      "type": "function"
    },
    {
      "inputs": [
        {
          "internalType": "bytes32",
          "name": "role",
          "type": "bytes32"
        },
        {
          "internalType": "address",
          "name": "account",
          "type": "address"
        }
      ],
      "name": "hasRole",
      "outputs": [
        {
          "internalType": "bool",
          "name": "hasRole_",
          "type": "bool"
        }
      ],
      "stateMutability": "view",
      "type": "function"
    },
    {
      "inputs": [
        {
          "internalType": "address",
          "name": "owner",
          "type": "address"
        },
        {
          "internalType": "address",
          "name": "operator",
          "type": "address"
        }
      ],
      "name": "isApprovedForAll",
      "outputs": [
        {
          "internalType": "bool",
          "name": "approvedForAll",
          "type": "bool"
        }
      ],
      "stateMutability": "view",
      "type": "function"
    },
    {
      "inputs": [
        {
          "internalType": "address",
          "name": "forwarder",
          "type": "address"
        }
      ],
      "name": "isTrustedForwarder",
      "outputs": [
        {
          "internalType": "bool",
          "name": "",
          "type": "bool"
        }
      ],
      "stateMutability": "view",
      "type": "function"
    },
    {
      "inputs": [],
      "name": "metadataResolver",
      "outputs": [
        {
          "internalType": "contract ITokenMetadataResolver",
          "name": "tokenMetadataResolver",
          "type": "address"
        }
      ],
      "stateMutability": "view",
      "type": "function"
    },
    {
      "inputs": [
        {
          "internalType": "address",
          "name": "to",
          "type": "address"
        },
        {
          "internalType": "uint256",
          "name": "tokenId",
          "type": "uint256"
        },
        {
          "components": [
            {
              "internalType": "uint16",
              "name": "schemaVersion",
              "type": "uint16"
            },
            {
              "internalType": "uint16",
              "name": "achievementType",
              "type": "uint16"
            },
            {
              "internalType": "uint64",
              "name": "awardedDate",
              "type": "uint64"
            },
            {
              "internalType": "uint64",
              "name": "validFrom",
              "type": "uint64"
            },
            {
              "internalType": "uint64",
              "name": "validUtil",
              "type": "uint64"
            },
            {
              "internalType": "string",
              "name": "issuerDid",
              "type": "string"
            },
            {
              "internalType": "string",
              "name": "achievementId",
              "type": "string"
            }
          ],
          "internalType": "struct CertificateNFTv1MetaData.MetaData",
          "name": "metadata",
          "type": "tuple"
        }
      ],
      "name": "mint",
      "outputs": [],
      "stateMutability": "nonpayable",
      "type": "function"
    },
    {
      "inputs": [],
      "name": "name",
      "outputs": [
        {
          "internalType": "string",
          "name": "tokenName",
          "type": "string"
        }
      ],
      "stateMutability": "view",
      "type": "function"
    },
    {
      "inputs": [],
      "name": "owner",
      "outputs": [
        {
          "internalType": "address",
          "name": "",
          "type": "address"
        }
      ],
      "stateMutability": "view",
      "type": "function"
    },
    {
      "inputs": [
        {
          "internalType": "uint256",
          "name": "tokenId",
          "type": "uint256"
        }
      ],
      "name": "ownerOf",
      "outputs": [
        {
          "internalType": "address",
          "name": "tokenOwner",
          "type": "address"
        }
      ],
      "stateMutability": "view",
      "type": "function"
    },
    {
      "inputs": [
        {
          "internalType": "bytes32",
          "name": "role",
          "type": "bytes32"
        }
      ],
      "name": "renounceRole",
      "outputs": [],
      "stateMutability": "nonpayable",
      "type": "function"
    },
    {
      "inputs": [
        {
          "internalType": "bytes32",
          "name": "role",
          "type": "bytes32"
        },
        {
          "internalType": "address",
          "name": "account",
          "type": "address"
        }
      ],
      "name": "revokeRole",
      "outputs": [],
      "stateMutability": "nonpayable",
      "type": "function"
    },
    {
      "inputs": [
        {
          "internalType": "address",
          "name": "from",
          "type": "address"
        },
        {
          "internalType": "address",
          "name": "to",
          "type": "address"
        },
        {
          "internalType": "uint256",
          "name": "tokenId",
          "type": "uint256"
        }
      ],
      "name": "safeTransferFrom",
      "outputs": [],
      "stateMutability": "nonpayable",
      "type": "function"
    },
    {
      "inputs": [
        {
          "internalType": "address",
          "name": "from",
          "type": "address"
        },
        {
          "internalType": "address",
          "name": "to",
          "type": "address"
        },
        {
          "internalType": "uint256",
          "name": "tokenId",
          "type": "uint256"
        },
        {
          "internalType": "bytes",
          "name": "data",
          "type": "bytes"
        }
      ],
      "name": "safeTransferFrom",
      "outputs": [],
      "stateMutability": "nonpayable",
      "type": "function"
    },
    {
      "inputs": [
        {
          "internalType": "address",
          "name": "operator",
          "type": "address"
        },
        {
          "internalType": "bool",
          "name": "approved",
          "type": "bool"
        }
      ],
      "name": "setApprovalForAll",
      "outputs": [],
      "stateMutability": "nonpayable",
      "type": "function"
    },
    {
      "inputs": [
        {
          "internalType": "contract IRevocationRegistry",
          "name": "revocationRegistry",
          "type": "address"
        }
      ],
      "name": "setRevocationRegistry",
      "outputs": [],
      "stateMutability": "nonpayable",
      "type": "function"
    },
    {
      "inputs": [
        {
          "internalType": "bytes4",
          "name": "interfaceId",
          "type": "bytes4"
        }
      ],
      "name": "supportsInterface",
      "outputs": [
        {
          "internalType": "bool",
          "name": "",
          "type": "bool"
        }
      ],
      "stateMutability": "view",
      "type": "function"
    },
    {
      "inputs": [],
      "name": "symbol",
      "outputs": [
        {
          "internalType": "string",
          "name": "tokenSymbol",
          "type": "string"
        }
      ],
      "stateMutability": "view",
      "type": "function"
    },
    {
      "inputs": [
        {
          "internalType": "uint256",
          "name": "tokenId",
          "type": "uint256"
        }
      ],
      "name": "tokenURI",
      "outputs": [
        {
          "internalType": "string",
          "name": "uri",
          "type": "string"
        }
      ],
      "stateMutability": "view",
      "type": "function"
    },
    {
      "inputs": [
        {
          "internalType": "address",
          "name": "from",
          "type": "address"
        },
        {
          "internalType": "address",
          "name": "to",
          "type": "address"
        },
        {
          "internalType": "uint256",
          "name": "tokenId",
          "type": "uint256"
        }
      ],
      "name": "transferFrom",
      "outputs": [],
      "stateMutability": "nonpayable",
      "type": "function"
    },
    {
      "inputs": [
        {
          "internalType": "address",
          "name": "newOwner",
          "type": "address"
        }
      ],
      "name": "transferOwnership",
      "outputs": [],
      "stateMutability": "nonpayable",
      "type": "function"
    },
    {
      "inputs": [
        {
          "internalType": "uint256",
          "name": "",
          "type": "uint256"
        }
      ],
      "name": "vcData",
      "outputs": [
        {
          "internalType": "uint16",
          "name": "schemaVersion",
          "type": "uint16"
        },
        {
          "internalType": "uint16",
          "name": "achievementType",
          "type": "uint16"
        },
        {
          "internalType": "uint64",
          "name": "awardedDate",
          "type": "uint64"
        },
        {
          "internalType": "uint64",
          "name": "validFrom",
          "type": "uint64"
        },
        {
          "internalType": "uint64",
          "name": "validUtil",
          "type": "uint64"
        },
        {
          "internalType": "string",
          "name": "issuerDid",
          "type": "string"
        },
        {
          "internalType": "string",
          "name": "achievementId",
          "type": "string"
        }
      ],
      "stateMutability": "view",
      "type": "function"
    }
  ],
  "bytecode": "0x60c06040523480156200001157600080fd5b506040516200350138038062003501833981016040819052620000349162000478565b858585858585838062000046620000db565b888887620000638383836200005a620000ec565b92919062000122565b6200006d62000169565b5050506200008c81620000856200018b60201b60201c565b90620001bb565b506001600160a01b031660805250620000a46200022e565b6001600160a01b0390811660a052600080546001600160a01b0319169290911691909117905550620006e298505050505050505050565b6000620000e762000246565b905090565b6000806200011c60017f7ea68fd2dcf1c056b94db6a0a537aa80d26fa9ab1eacd85da1ba0b61b7e7a8a562000538565b92915050565b836200012f8482620005eb565b5060018401620001408382620005eb565b5060029390930180546001600160a01b0319166001600160a01b03909416939093179092555050565b62000189635b5e139f60e01b6001620001816200030a565b91906200033a565b565b6000806200011c60017fc9ed16f33ab3a66c84bfd83099ccb2a8845871e2e1c1928f63797152f0fd54cd62000538565b6001600160a01b03811615620002125781546001600160a01b0319166001600160a01b03821690811783556040516000907f8be0079c531659141344cd1fd0a4f28419497f9722a3daafe3b4186f6b6457e0908290a35b6200022a6307f5828d60e41b6001620001816200030a565b5050565b620001896380ac58cd60e01b6001620001816200030a565b600033321480620002575750601836105b156200026257503390565b60805136601319013560601c906001600160a01b0316331480620002f85750608051604051634494d46560e11b81526001600160a01b03838116600483015233602483015290911690638929a8ca90604401602060405180830381865afa158015620002d2573d6000803e3d6000fd5b505050506040513d601f19601f82011682018060405250810190620002f89190620006b7565b156200030357919050565b3391505090565b6000806200011c60017fca9d3e17f264b0f3984e2634e94adb37fa3e6a8103f06aeae6fa59e21c769f5e62000538565b600160e01b6001600160e01b031983160162000369576040516372c683bb60e01b815260040160405180910390fd5b6001600160e01b03199190911660009081526020929092526040909120805460ff1916911515919091179055565b634e487b7160e01b600052604160045260246000fd5b600082601f830112620003bf57600080fd5b81516001600160401b0380821115620003dc57620003dc62000397565b604051601f8301601f19908116603f0116810190828211818310171562000407576200040762000397565b81604052838152602092508660208588010111156200042557600080fd5b600091505b838210156200044957858201830151818301840152908201906200042a565b6000602085830101528094505050505092915050565b6001600160a01b03811681146200047557600080fd5b50565b60008060008060008060c087890312156200049257600080fd5b86516001600160401b0380821115620004aa57600080fd5b620004b88a838b01620003ad565b97506020890151915080821115620004cf57600080fd5b50620004de89828a01620003ad565b9550506040870151620004f1816200045f565b606088015190945062000504816200045f565b608088015190935062000517816200045f565b60a08801519092506200052a816200045f565b809150509295509295509295565b818103818111156200011c57634e487b7160e01b600052601160045260246000fd5b600181811c908216806200056f57607f821691505b6020821081036200059057634e487b7160e01b600052602260045260246000fd5b50919050565b601f821115620005e6576000816000526020600020601f850160051c81016020861015620005c15750805b601f850160051c820191505b81811015620005e257828155600101620005cd565b5050505b505050565b81516001600160401b0381111562000607576200060762000397565b6200061f816200061884546200055a565b8462000596565b602080601f8311600181146200065757600084156200063e5750858301515b600019600386901b1c1916600185901b178555620005e2565b600085815260208120601f198616915b82811015620006885788860151825594840194600190910190840162000667565b5085821015620006a75787850151600019600388901b60f8161c191681555b5050505050600190811b01905550565b600060208284031215620006ca57600080fd5b81518015158114620006db57600080fd5b9392505050565b60805160a051612dcf62000732600039600081816103bb01526111410152600081816102890152818161034501528181611f1701528181611f9f015281816120c701526121050152612dcf6000f3fe608060405234801561001057600080fd5b50600436106101e55760003560e01c806387b202a01161010f578063b88d4fde116100a2578063e0ca1b1411610071578063e0ca1b14146104a1578063e985e9c5146104c1578063f2fde38b146104d4578063f5b541a6146104e757600080fd5b8063b88d4fde14610441578063c87b56dd14610454578063d539139314610467578063d547741f1461048e57600080fd5b806395d89b41116100de57806395d89b411461040b57806395f94bc414610413578063a0c76f6214610426578063a22cb4651461042e57600080fd5b806387b202a0146103b65780638bb9c5bf146103dd5780638da5cb5b146103f057806391d14854146103f857600080fd5b806331e66e1e1161018757806354c7be061161015657806354c7be0614610322578063572b6c05146103355780636352211e1461038257806370a082311461039557600080fd5b806331e66e1e146102c057806342842e0e146102d657806342966c68146102e95780634bae2be8146102fc57600080fd5b8063095ea7b3116101c3578063095ea7b31461025f57806323b872dd146102745780632b4c9f16146102875780632f2ff15d146102ad57600080fd5b806301ffc9a7146101ea57806306fdde0314610212578063081812fc14610227575b600080fd5b6101fd6101f836600461237f565b61050e565b60405190151581526020015b60405180910390f35b61021a610528565b604051610209919061240a565b61023a61023536600461241d565b610537565b60405173ffffffffffffffffffffffffffffffffffffffff9091168152602001610209565b61027261026d366004612458565b61054b565b005b610272610282366004612484565b61056c565b7f000000000000000000000000000000000000000000000000000000000000000061023a565b6102726102bb3660046124c5565b6105a0565b6102c86105d9565b6040516102099291906124f5565b6102726102e4366004612484565b6105ec565b6102726102f736600461241d565b61061a565b61030f61030a36600461241d565b6107fe565b6040516102099796959493929190612542565b6102726103303660046125a9565b610985565b6101fd610343366004612609565b7f000000000000000000000000000000000000000000000000000000000000000073ffffffffffffffffffffffffffffffffffffffff90811691161490565b61023a61039036600461241d565b6109f5565b6103a86103a3366004612609565b610a03565b604051908152602001610209565b61023a7f000000000000000000000000000000000000000000000000000000000000000081565b6102726103eb36600461241d565b610a17565b61023a610a35565b6101fd6104063660046124c5565b610a5c565b61021a610aa7565b610272610421366004612609565b610ab1565b61023a610b0b565b61027261043c366004612634565b610b35565b61027261044f366004612662565b610b52565b61021a61046236600461241d565b610b8c565b6103a87f6d696e746572000000000000000000000000000000000000000000000000000081565b61027261049c3660046124c5565b610baf565b60005461023a9073ffffffffffffffffffffffffffffffffffffffff1681565b6101fd6104cf366004612701565b610bdd565b6102726104e2366004612609565b610c2b565b6103a87f6f70657261746f7200000000000000000000000000000000000000000000000081565b60006105228261051c610c46565b90610c74565b92915050565b6060610532610d4e565b905090565b600061052282610545610d60565b90610d8e565b610568610556610e42565b8383610560610d60565b929190610e4c565b5050565b6000610576610e42565b905061058281836110c7565b61059a81858585610591610d60565b939291906111dd565b50505050565b60006105aa610e42565b90506105be816105b86114bb565b906114e9565b6105d48383836105cc611554565b929190611582565b505050565b3660006105e4611658565b915091509091565b60006105f6610e42565b905061060281836110c7565b61059a81858585610611610d60565b93929190611663565b60006001600083815260200190815260200160002060010160405161063f9190612782565b60405180910390209050600061065d83610657610d60565b906116a9565b6000546040517fa3a2656a000000000000000000000000000000000000000000000000000000008152600481018590526024810186905291925073ffffffffffffffffffffffffffffffffffffffff169063a3a2656a90604401602060405180830381865afa1580156106d4573d6000803e3d6000fd5b505050506040513d601f19601f820116820180604052508101906106f89190612816565b156107bd577fdead000000000000000000000000000000000000000000000000000000000000610726610d60565b6000858152602091909152604090205561073e610d60565b73ffffffffffffffffffffffffffffffffffffffff82166000818152600192909201602052604080832080547fffffffffffffffffffffffffffffffffffffffffffffffffffffffffffffffff01905551859291907fddf252ad1be2c89b69c2b068fc378daa952ba7f163c4a11628f55a4df523b3ef908390a4505050565b6040517faca9487600000000000000000000000000000000000000000000000000000000815260048101839052602481018490526044015b60405180910390fd5b60016020819052600091825260409091208054918101805461ffff808516946201000081049091169367ffffffffffffffff64010000000083048116946c01000000000000000000000000840482169474010000000000000000000000000000000000000000909404909116926108749061272f565b80601f01602080910402602001604051908101604052809291908181526020018280546108a09061272f565b80156108ed5780601f106108c2576101008083540402835291602001916108ed565b820191906000526020600020905b8154815290600101906020018083116108d057829003601f168201915b5050505050908060020180546109029061272f565b80601f016020809104026020016040519081016040528092919081815260200182805461092e9061272f565b801561097b5780601f106109505761010080835404028352916020019161097b565b820191906000526020600020905b81548152906001019060200180831161095e57829003601f168201915b5050505050905087565b6109c07f6d696e74657200000000000000000000000000000000000000000000000000006109b1610e42565b6109b9611554565b9190611712565b6109d483836109cd610d60565b9190611798565b600082815260016020526040902081906109ee8282612a5e565b5050505050565b600061052282610657610d60565b600061052282610a11610d60565b906118b2565b610a32610a22610e42565b82610a2b611554565b919061192e565b50565b6000610532610a426114bb565b5473ffffffffffffffffffffffffffffffffffffffff1690565b6000610aa08383610a6b611554565b60009283526020908152604080842073ffffffffffffffffffffffffffffffffffffffff909316845291905290205460ff1690565b9392505050565b60606105326119d2565b610ac4610abc610e42565b6105b86114bb565b600080547fffffffffffffffffffffffff00000000000000000000000000000000000000001673ffffffffffffffffffffffffffffffffffffffff92909216919091179055565b6000610532610b186119e4565b6002015473ffffffffffffffffffffffffffffffffffffffff1690565b610568610b40610e42565b8383610b4a610d60565b929190611a12565b6000610b5c610e42565b9050610b6881856110c7565b610b84818787878787610b79610d60565b959493929190611b2a565b505050505050565b6060610b9a82610657610d60565b506105223083610ba86119e4565b9190611ba0565b6000610bb9610e42565b9050610bc7816105b86114bb565b6105d4838383610bd5611554565b929190611c60565b6000610aa08383610bec610d60565b919073ffffffffffffffffffffffffffffffffffffffff9182166000908152600393909301602090815260408085209290931684525290205460ff1690565b610a32610c36610e42565b82610c3f6114bb565b9190611d2a565b60008061052260017fca9d3e17f264b0f3984e2634e94adb37fa3e6a8103f06aeae6fa59e21c769f5e612c04565b60007c01000000000000000000000000000000000000000000000000000000007fffffffff00000000000000000000000000000000000000000000000000000000831601610cc457506000610522565b7ffe003659000000000000000000000000000000000000000000000000000000007fffffffff00000000000000000000000000000000000000000000000000000000831601610d1557506001610522565b507fffffffff00000000000000000000000000000000000000000000000000000000166000908152602091909152604090205460ff1690565b6060610532610d5b6119e4565b611e3e565b60008061052260017fddf3ee18ae6d688373c219468f8be446e7ae82215f4779d821c7ea5e8c13c0c1612c04565b60008181526020839052604081205473ffffffffffffffffffffffffffffffffffffffff8116610ded576040517fdd560475000000000000000000000000000000000000000000000000000000008152600481018490526024016107f5565b74010000000000000000000000000000000000000000811615610e38575050600081815260028301602052604090205473ffffffffffffffffffffffffffffffffffffffff16610522565b6000915050610522565b6000610532611ed4565b60008181526020859052604090205473ffffffffffffffffffffffffffffffffffffffff8116610eab576040517fdd560475000000000000000000000000000000000000000000000000000000008152600481018390526024016107f5565b8073ffffffffffffffffffffffffffffffffffffffff80821690851603610f16576040517fb7fdc01000000000000000000000000000000000000000000000000000000000815273ffffffffffffffffffffffffffffffffffffffff821660048201526024016107f5565b610f2186828761201b565b610f7e576040517fc7563a1800000000000000000000000000000000000000000000000000000000815273ffffffffffffffffffffffffffffffffffffffff808716600483015282166024820152604481018490526064016107f5565b73ffffffffffffffffffffffffffffffffffffffff8416610fe35774010000000000000000000000000000000000000000821615610fde57600083815260208790526040902073ffffffffffffffffffffffffffffffffffffffff821690555b611064565b7401000000000000000000000000000000000000000082178083146110145760008481526020889052604090208190555b506000838152600287016020526040902080547fffffffffffffffffffffffff00000000000000000000000000000000000000001673ffffffffffffffffffffffffffffffffffffffff86161790555b828473ffffffffffffffffffffffffffffffffffffffff168273ffffffffffffffffffffffffffffffffffffffff167f8c5be1e5ebec7d5bd14f71427d1e84f3dd0314c0f7b2291e5b200ac8c7c3b92560405160405180910390a4505050505050565b6000600160008381526020019081526020016000206001016040516110ec9190612782565b6040519081900381207ff9236a390000000000000000000000000000000000000000000000000000000082526004820181905273ffffffffffffffffffffffffffffffffffffffff85811660248401529092507f0000000000000000000000000000000000000000000000000000000000000000169063f9236a3990604401602060405180830381865afa158015611188573d6000803e3d6000fd5b505050506040513d601f19601f820116820180604052508101906111ac9190612816565b6105d4576105d47f6f70657261746f72000000000000000000000000000000000000000000000000846109b9611554565b73ffffffffffffffffffffffffffffffffffffffff821661122a576040517f86c8706700000000000000000000000000000000000000000000000000000000815260040160405180910390fd5b60008181526020869052604090205473ffffffffffffffffffffffffffffffffffffffff8116611289576040517fdd560475000000000000000000000000000000000000000000000000000000008152600481018390526024016107f5565b73ffffffffffffffffffffffffffffffffffffffff84168173ffffffffffffffffffffffffffffffffffffffff161461130d576040517f14dbb53600000000000000000000000000000000000000000000000000000000815273ffffffffffffffffffffffffffffffffffffffff85166004820152602481018390526044016107f5565b61131886858761201b565b6113c75774010000000000000000000000000000000000000000811615806113695750600082815260028701602052604090205473ffffffffffffffffffffffffffffffffffffffff868116911614155b156113c7576040517fa4a3018b00000000000000000000000000000000000000000000000000000000815273ffffffffffffffffffffffffffffffffffffffff808716600483015285166024820152604481018390526064016107f5565b600082815260208790526040902073ffffffffffffffffffffffffffffffffffffffff808516918290558516146114585773ffffffffffffffffffffffffffffffffffffffff80851660009081526001808901602052604080832080547fffffffffffffffffffffffffffffffffffffffffffffffffffffffffffffffff0190559286168252919020805490910190555b818373ffffffffffffffffffffffffffffffffffffffff168573ffffffffffffffffffffffffffffffffffffffff167fddf252ad1be2c89b69c2b068fc378daa952ba7f163c4a11628f55a4df523b3ef60405160405180910390a4505050505050565b60008061052260017fc9ed16f33ab3a66c84bfd83099ccb2a8845871e2e1c1928f63797152f0fd54cd612c04565b815473ffffffffffffffffffffffffffffffffffffffff828116911614610568576040517f2ef4875e00000000000000000000000000000000000000000000000000000000815273ffffffffffffffffffffffffffffffffffffffff821660048201526024016107f5565b60008061052260017fc8827d3282af6f37b64c3e9e6f3ac9df286ab0bb0fccd6f8661bf19adb368b23612c04565b60008381526020858152604080832073ffffffffffffffffffffffffffffffffffffffff8616845290915290205460ff1661059a5760008381526020858152604080832073ffffffffffffffffffffffffffffffffffffffff8681168086529184529382902080547fffffffffffffffffffffffffffffffffffffffffffffffffffffffffffffff00166001179055815187815292830152918316918101919091527f2f8788117e7eff1d82e926ec794901d17c78024a50270940304540a733656f0d906060015b60405180910390a150505050565b3660006105e4612090565b61167085858585856111dd565b73ffffffffffffffffffffffffffffffffffffffff82163b156109ee576109ee84848484604051806020016040528060008152506121fa565b60008181526020839052604081205473ffffffffffffffffffffffffffffffffffffffff8116611708576040517fdd560475000000000000000000000000000000000000000000000000000000008152600481018490526024016107f5565b805b949350505050565b60008281526020848152604080832073ffffffffffffffffffffffffffffffffffffffff8516845290915290205460ff166105d4576040517f7aa728820000000000000000000000000000000000000000000000000000000081526004810183905273ffffffffffffffffffffffffffffffffffffffff821660248201526044016107f5565b73ffffffffffffffffffffffffffffffffffffffff82166117e5576040517f7851b9cd00000000000000000000000000000000000000000000000000000000815260040160405180910390fd5b60008181526020849052604090205473ffffffffffffffffffffffffffffffffffffffff1615611844576040517f753eceac000000000000000000000000000000000000000000000000000000008152600481018290526024016107f5565b60008181526020848152604080832073ffffffffffffffffffffffffffffffffffffffff86169081905580845260018088019093528184208054909301909255518392907fddf252ad1be2c89b69c2b068fc378daa952ba7f163c4a11628f55a4df523b3ef908290a4505050565b600073ffffffffffffffffffffffffffffffffffffffff8216611901576040517faefbce4e00000000000000000000000000000000000000000000000000000000815260040160405180910390fd5b5073ffffffffffffffffffffffffffffffffffffffff166000908152600191909101602052604090205490565b611939838284611712565b60008181526020848152604080832073ffffffffffffffffffffffffffffffffffffffff86168085529083529281902080547fffffffffffffffffffffffffffffffffffffffffffffffffffffffffffffff0016905580518481529182018390528101919091527ff6391f5c32d9c69d2a47ea670b442974b53935d1edc7fd64eb21e047a839171b9060600160405180910390a1505050565b60606105326119df6119e4565b61230f565b60008061052260017f7ea68fd2dcf1c056b94db6a0a537aa80d26fa9ab1eacd85da1ba0b61b7e7a8a5612c04565b8273ffffffffffffffffffffffffffffffffffffffff168273ffffffffffffffffffffffffffffffffffffffff1603611a8f576040517fe4215c6a00000000000000000000000000000000000000000000000000000000815273ffffffffffffffffffffffffffffffffffffffff841660048201526024016107f5565b73ffffffffffffffffffffffffffffffffffffffff838116600081815260038701602090815260408083209487168084529482529182902080547fffffffffffffffffffffffffffffffffffffffffffffffffffffffffffffff001686151590811790915591519182527f17307eab39ab6107e8899845ad3d59bd9653f200f220920489ca2b5937696c31910160405180910390a350505050565b611b3787878787876111dd565b73ffffffffffffffffffffffffffffffffffffffff84163b15611b9757611b978686868686868080601f0160208091040260200160405190810160405280939291908181526020018383808284376000920191909152506121fa92505050565b50505050505050565b60028301546040517ff724dad700000000000000000000000000000000000000000000000000000000815273ffffffffffffffffffffffffffffffffffffffff848116600483015260248201849052606092169063f724dad790604401600060405180830381865afa158015611c1a573d6000803e3d6000fd5b505050506040513d6000823e601f3d9081017fffffffffffffffffffffffffffffffffffffffffffffffffffffffffffffffe016820160405261170a9190810190612c3e565b60008381526020858152604080832073ffffffffffffffffffffffffffffffffffffffff8616845290915290205460ff161561059a5760008381526020858152604080832073ffffffffffffffffffffffffffffffffffffffff8681168086529184529382902080547fffffffffffffffffffffffffffffffffffffffffffffffffffffffffffffff00169055815187815292830152918316918101919091527ff6391f5c32d9c69d2a47ea670b442974b53935d1edc7fd64eb21e047a839171b9060600161164a565b825473ffffffffffffffffffffffffffffffffffffffff9081169083168114611d97576040517f2ef4875e00000000000000000000000000000000000000000000000000000000815273ffffffffffffffffffffffffffffffffffffffff841660048201526024016107f5565b8173ffffffffffffffffffffffffffffffffffffffff168173ffffffffffffffffffffffffffffffffffffffff161461059a5783547fffffffffffffffffffffffff00000000000000000000000000000000000000001673ffffffffffffffffffffffffffffffffffffffff8381169182178655604051908316907f8be0079c531659141344cd1fd0a4f28419497f9722a3daafe3b4186f6b6457e090600090a350505050565b6060816000018054611e4f9061272f565b80601f0160208091040260200160405190810160405280929190818152602001828054611e7b9061272f565b8015611ec85780601f10611e9d57610100808354040283529160200191611ec8565b820191906000526020600020905b815481529060010190602001808311611eab57829003601f168201915b50505050509050919050565b600033321480611ee45750601836105b15611eee57503390565b7fffffffffffffffffffffffffffffffffffffffffffffffffffffffffffffffec36013560601c7f000000000000000000000000000000000000000000000000000000000000000073ffffffffffffffffffffffffffffffffffffffff1633148061200a57506040517f8929a8ca00000000000000000000000000000000000000000000000000000000815273ffffffffffffffffffffffffffffffffffffffff82811660048301523360248301527f00000000000000000000000000000000000000000000000000000000000000001690638929a8ca90604401602060405180830381865afa158015611fe6573d6000803e3d6000fd5b505050506040513d601f19601f8201168201806040525081019061200a9190612816565b1561201457919050565b3391505090565b60008173ffffffffffffffffffffffffffffffffffffffff168373ffffffffffffffffffffffffffffffffffffffff16148061170a57505073ffffffffffffffffffffffffffffffffffffffff9182166000908152600393909301602090815260408085209290931684525290205460ff1690565b366000333214806120a15750601836105b156120af5750600091369150565b3373ffffffffffffffffffffffffffffffffffffffff7f00000000000000000000000000000000000000000000000000000000000000001614806121e4575073ffffffffffffffffffffffffffffffffffffffff7f000000000000000000000000000000000000000000000000000000000000000016638929a8ca367fffffffffffffffffffffffffffffffffffffffffffffffffffffffffffffffec013560601c6040517fffffffff0000000000000000000000000000000000000000000000000000000060e084901b16815273ffffffffffffffffffffffffffffffffffffffff9091166004820152336024820152604401602060405180830381865afa1580156121c0573d6000803e3d6000fd5b505050506040513d601f19601f820116820180604052508101906121e49190612816565b156121f1576105e4612320565b50600091369150565b6040517f150b7a02000000000000000000000000000000000000000000000000000000008082529073ffffffffffffffffffffffffffffffffffffffff85169063150b7a0290612254908990899088908890600401612d09565b6020604051808303816000875af1158015612273573d6000803e3d6000fd5b505050506040513d601f19601f820116820180604052508101906122979190612d52565b7fffffffff0000000000000000000000000000000000000000000000000000000016146109ee576040517fc215a7a100000000000000000000000000000000000000000000000000000000815273ffffffffffffffffffffffffffffffffffffffff84166004820152602481018390526044016107f5565b6060816001018054611e4f9061272f565b3660006105e47fffffffffffffffffffffffffffffffffffffffffffffffffffffffffffffffec8301828481612d6f565b7fffffffff0000000000000000000000000000000000000000000000000000000081168114610a3257600080fd5b60006020828403121561239157600080fd5b8135610aa081612351565b60005b838110156123b757818101518382015260200161239f565b50506000910152565b600081518084526123d881602086016020860161239c565b601f017fffffffffffffffffffffffffffffffffffffffffffffffffffffffffffffffe0169290920160200192915050565b602081526000610aa060208301846123c0565b60006020828403121561242f57600080fd5b5035919050565b73ffffffffffffffffffffffffffffffffffffffff81168114610a3257600080fd5b6000806040838503121561246b57600080fd5b823561247681612436565b946020939093013593505050565b60008060006060848603121561249957600080fd5b83356124a481612436565b925060208401356124b481612436565b929592945050506040919091013590565b600080604083850312156124d857600080fd5b8235915060208301356124ea81612436565b809150509250929050565b60208152816020820152818360408301376000818301604090810191909152601f9092017fffffffffffffffffffffffffffffffffffffffffffffffffffffffffffffffe0160101919050565b61ffff88811682528716602082015267ffffffffffffffff868116604083015285811660608301528416608082015260e060a08201819052600090612589908301856123c0565b82810360c084015261259b81856123c0565b9a9950505050505050505050565b6000806000606084860312156125be57600080fd5b83356125c981612436565b925060208401359150604084013567ffffffffffffffff8111156125ec57600080fd5b840160e081870312156125fe57600080fd5b809150509250925092565b60006020828403121561261b57600080fd5b8135610aa081612436565b8015158114610a3257600080fd5b6000806040838503121561264757600080fd5b823561265281612436565b915060208301356124ea81612626565b60008060008060006080868803121561267a57600080fd5b853561268581612436565b9450602086013561269581612436565b935060408601359250606086013567ffffffffffffffff808211156126b957600080fd5b818801915088601f8301126126cd57600080fd5b8135818111156126dc57600080fd5b8960208285010111156126ee57600080fd5b9699959850939650602001949392505050565b6000806040838503121561271457600080fd5b823561271f81612436565b915060208301356124ea81612436565b600181811c9082168061274357607f821691505b60208210810361277c577f4e487b7100000000000000000000000000000000000000000000000000000000600052602260045260246000fd5b50919050565b60008083546127908161272f565b600182811680156127a857600181146127db5761280a565b7fffffffffffffffffffffffffffffffffffffffffffffffffffffffffffffff008416875282151583028701945061280a565b8760005260208060002060005b858110156128015781548a8201529084019082016127e8565b50505082870194505b50929695505050505050565b60006020828403121561282857600080fd5b8151610aa081612626565b6000813561ffff8116811461052257600080fd5b6000813567ffffffffffffffff8116811461052257600080fd5b60008083357fffffffffffffffffffffffffffffffffffffffffffffffffffffffffffffffe184360301811261289657600080fd5b83018035915067ffffffffffffffff8211156128b157600080fd5b6020019150368190038213156128c657600080fd5b9250929050565b7f4e487b7100000000000000000000000000000000000000000000000000000000600052604160045260246000fd5b601f8211156105d4576000816000526020600020601f850160051c810160208610156129255750805b601f850160051c820191505b81811015610b8457828155600101612931565b67ffffffffffffffff83111561295c5761295c6128cd565b6129708361296a835461272f565b836128fc565b6000601f8411600181146129c2576000851561298c5750838201355b7fffffffffffffffffffffffffffffffffffffffffffffffffffffffffffffffff600387901b1c1916600186901b1783556109ee565b6000838152602090207fffffffffffffffffffffffffffffffffffffffffffffffffffffffffffffffe0861690835b82811015612a1157868501358255602094850194600190920191016129f1565b5086821015612a4c577fffffffffffffffffffffffffffffffffffffffffffffffffffffffffffffffff60f88860031b161c19848701351681555b505060018560011b0183555050505050565b61ffff612a6a83612833565b168154817fffffffffffffffffffffffffffffffffffffffffffffffffffffffffffff0000821617835563ffff0000612aa560208601612833565b60101b1680837fffffffffffffffffffffffffffffffffffffffffffffffffffffffff000000008416171784556bffffffffffffffff00000000612aeb60408701612847565b60201b16837fffffffffffffffffffffffffffffffffffffffff0000000000000000000000008416178217178455505050612b70612b2b60608401612847565b82547fffffffffffffffffffffffff0000000000000000ffffffffffffffffffffffff1660609190911b73ffffffffffffffff00000000000000000000000016178255565b612bcc612b7f60808401612847565b82547fffffffff0000000000000000ffffffffffffffffffffffffffffffffffffffff1660a09190911b7bffffffffffffffff000000000000000000000000000000000000000016178255565b612bd960a0830183612861565b612be7818360018601612944565b5050612bf660c0830183612861565b61059a818360028601612944565b81810381811115610522577f4e487b7100000000000000000000000000000000000000000000000000000000600052601160045260246000fd5b600060208284031215612c5057600080fd5b815167ffffffffffffffff80821115612c6857600080fd5b818401915084601f830112612c7c57600080fd5b815181811115612c8e57612c8e6128cd565b604051601f82017fffffffffffffffffffffffffffffffffffffffffffffffffffffffffffffffe0908116603f01168101908382118183101715612cd457612cd46128cd565b81604052828152876020848701011115612ced57600080fd5b612cfe83602083016020880161239c565b979650505050505050565b600073ffffffffffffffffffffffffffffffffffffffff808716835280861660208401525083604083015260806060830152612d4860808301846123c0565b9695505050505050565b600060208284031215612d6457600080fd5b8151610aa081612351565b60008085851115612d7f57600080fd5b83861115612d8c57600080fd5b505082019391909203915056fea26469706673582212202fe6f5ff655f1212d54c70bd5e3fdaa5f5a75a0c381b102086f0cc8b7e868a5564736f6c63430008160033",
  "linkReferences": {},
  "deployedLinkReferences": {}
}