{
  "_format": "hh-sol-artifact-1",
  "contractName": "LimitedOCPointsMerkleClaim",
  "sourceName": "contracts/payment/LimitedOCPointsMerkleClaim.sol",
  "abi": [
    {
      "inputs": [
        {
          "internalType": "address",
          "name": "pointsContractAddress",
          "type": "address"
        },
        {
          "internalType": "contract IForwarderRegistry",
          "name": "forwarderRegistry",
          "type": "address"
        }
      ],
      "stateMutability": "nonpayable",
      "type": "constructor"
    },
    {
      "inputs": [
        {
          "internalType": "address",
          "name": "recipient",
          "type": "address"
        },
        {
          "internalType": "uint256",
          "name": "amount",
          "type": "uint256"
        },
        {
          "internalType": "bytes32",
          "name": "reasonCode",
          "type": "bytes32"
        },
        {
          "internalType": "bytes32",
          "name": "epochId",
          "type": "bytes32"
        }
      ],
      "name": "AlreadyClaimed",
      "type": "error"
    },
    {
      "inputs": [
        {
          "internalType": "bytes32",
          "name": "epochId",
          "type": "bytes32"
        }
      ],
      "name": "ClaimEpochNotFound",
      "type": "error"
    },
    {
      "inputs": [
        {
          "internalType": "uint256",
          "name": "currentTime",
          "type": "uint256"
        },
        {
          "internalType": "uint256",
          "name": "startTime",
          "type": "uint256"
        },
        {
          "internalType": "uint256",
          "name": "endTime",
          "type": "uint256"
        }
      ],
      "name": "ClaimingEpochNotActive",
      "type": "error"
    },
    {
      "inputs": [
        {
          "internalType": "bytes32",
          "name": "epochId",
          "type": "bytes32"
        }
      ],
      "name": "EpochIdAlreadyExists",
      "type": "error"
    },
    {
      "inputs": [],
      "name": "IllegalInterfaceId",
      "type": "error"
    },
    {
      "inputs": [],
      "name": "InconsistentArrayLengths",
      "type": "error"
    },
    {
      "inputs": [
        {
          "internalType": "uint256",
          "name": "amountRequested",
          "type": "uint256"
        },
        {
          "internalType": "uint256",
          "name": "amountAvailable",
          "type": "uint256"
        }
      ],
      "name": "InsufficientPoolAmount",
      "type": "error"
    },
    {
      "inputs": [
        {
          "internalType": "uint256",
          "name": "startTime",
          "type": "uint256"
        },
        {
          "internalType": "uint256",
          "name": "endTime",
          "type": "uint256"
        }
      ],
      "name": "InvalidClaimWindow",
      "type": "error"
    },
    {
      "inputs": [
        {
          "internalType": "address",
          "name": "InvalidPointsContractAddress",
          "type": "address"
        }
      ],
      "name": "InvalidPointsContractAddress",
      "type": "error"
    },
    {
      "inputs": [
        {
          "internalType": "address",
          "name": "recipient",
          "type": "address"
        },
        {
          "internalType": "uint256",
          "name": "amount",
          "type": "uint256"
        },
        {
          "internalType": "bytes32",
          "name": "reasonCode",
          "type": "bytes32"
        },
        {
          "internalType": "bytes32",
          "name": "epochId",
          "type": "bytes32"
        }
      ],
      "name": "InvalidProof",
      "type": "error"
    },
    {
      "inputs": [
        {
          "internalType": "address",
          "name": "account",
          "type": "address"
        }
      ],
      "name": "NotContractOwner",
      "type": "error"
    },
    {
      "anonymous": false,
      "inputs": [
        {
          "indexed": true,
          "internalType": "bytes32",
          "name": "epochId",
          "type": "bytes32"
        },
        {
          "indexed": true,
          "internalType": "bytes32",
          "name": "merkleRoot",
          "type": "bytes32"
        },
        {
          "indexed": false,
          "internalType": "uint256",
          "name": "totalAmount",
          "type": "uint256"
        },
        {
          "indexed": false,
          "internalType": "uint256",
          "name": "startTime",
          "type": "uint256"
        },
        {
          "indexed": false,
          "internalType": "uint256",
          "name": "endTime",
          "type": "uint256"
        }
      ],
      "name": "MerkleRootSet",
      "type": "event"
    },
    {
      "anonymous": false,
      "inputs": [
        {
          "indexed": true,
          "internalType": "address",
          "name": "previousOwner",
          "type": "address"
        },
        {
          "indexed": true,
          "internalType": "address",
          "name": "newOwner",
          "type": "address"
        }
      ],
      "name": "OwnershipTransferred",
      "type": "event"
    },
    {
      "anonymous": false,
      "inputs": [
        {
          "indexed": true,
          "internalType": "bytes32",
          "name": "epochId",
          "type": "bytes32"
        },
        {
          "indexed": true,
          "internalType": "bytes32",
          "name": "merkleRoot",
          "type": "bytes32"
        },
        {
          "indexed": true,
          "internalType": "address",
          "name": "recipient",
          "type": "address"
        },
        {
          "indexed": false,
          "internalType": "uint256",
          "name": "amount",
          "type": "uint256"
        },
        {
          "indexed": false,
          "internalType": "uint256",
          "name": "amountLeft",
          "type": "uint256"
        }
      ],
      "name": "PointsClaimed",
      "type": "event"
    },
    {
      "inputs": [],
      "name": "POINTS_CONTRACT",
      "outputs": [
        {
          "internalType": "contract IPoints",
          "name": "",
          "type": "address"
        }
      ],
      "stateMutability": "view",
      "type": "function"
    },
    {
      "inputs": [
        {
          "internalType": "bytes32",
          "name": "epochId",
          "type": "bytes32"
        },
        {
          "internalType": "address",
          "name": "recipient",
          "type": "address"
        },
        {
          "internalType": "uint256",
          "name": "amount",
          "type": "uint256"
        },
        {
          "internalType": "bytes32",
          "name": "reasonCode",
          "type": "bytes32"
        }
      ],
      "name": "canClaim",
      "outputs": [
        {
          "internalType": "enum LimitedOCPointsMerkleClaim.ClaimError",
          "name": "",
          "type": "uint8"
        }
      ],
      "stateMutability": "view",
      "type": "function"
    },
    {
      "inputs": [
        {
          "internalType": "bytes32",
          "name": "epochId",
          "type": "bytes32"
        },
        {
          "internalType": "address",
          "name": "recipient",
          "type": "address"
        },
        {
          "internalType": "uint256",
          "name": "amount",
          "type": "uint256"
        },
        {
          "internalType": "bytes32",
          "name": "reasonCode",
          "type": "bytes32"
        },
        {
          "internalType": "bytes32[]",
          "name": "proof",
          "type": "bytes32[]"
        }
      ],
      "name": "claim",
      "outputs": [],
      "stateMutability": "nonpayable",
      "type": "function"
    },
    {
      "inputs": [
        {
          "internalType": "bytes32",
          "name": "",
          "type": "bytes32"
        }
      ],
      "name": "claimEpochs",
      "outputs": [
        {
          "internalType": "bytes32",
          "name": "merkleRoot",
          "type": "bytes32"
        },
        {
          "internalType": "uint256",
          "name": "totalAmount",
          "type": "uint256"
        },
        {
          "internalType": "uint256",
          "name": "amountLeft",
          "type": "uint256"
        },
        {
          "internalType": "uint256",
          "name": "startTime",
          "type": "uint256"
        },
        {
          "internalType": "uint256",
          "name": "endTime",
          "type": "uint256"
        }
      ],
      "stateMutability": "view",
      "type": "function"
    },
    {
      "inputs": [
        {
          "internalType": "bytes32",
          "name": "",
          "type": "bytes32"
        }
      ],
      "name": "claimed",
      "outputs": [
        {
          "internalType": "bool",
          "name": "",
          "type": "bool"
        }
      ],
      "stateMutability": "view",
      "type": "function"
    },
    {
      "inputs": [],
      "name": "forwarderRegistry",
      "outputs": [
        {
          "internalType": "contract IForwarderRegistry",
          "name": "",
          "type": "address"
        }
      ],
      "stateMutability": "view",
      "type": "function"
    },
    {
      "inputs": [
        {
          "internalType": "address",
          "name": "forwarder",
          "type": "address"
        }
      ],
      "name": "isTrustedForwarder",
      "outputs": [
        {
          "internalType": "bool",
          "name": "",
          "type": "bool"
        }
      ],
      "stateMutability": "view",
      "type": "function"
    },
    {
      "inputs": [],
      "name": "owner",
      "outputs": [
        {
          "internalType": "address",
          "name": "",
          "type": "address"
        }
      ],
      "stateMutability": "view",
      "type": "function"
    },
    {
      "inputs": [
        {
          "internalType": "address[]",
          "name": "accounts",
          "type": "address[]"
        },
        {
          "internalType": "contract IERC20[]",
          "name": "tokens",
          "type": "address[]"
        },
        {
          "internalType": "uint256[]",
          "name": "amounts",
          "type": "uint256[]"
        }
      ],
      "name": "recoverERC20s",
      "outputs": [],
      "stateMutability": "nonpayable",
      "type": "function"
    },
    {
      "inputs": [
        {
          "internalType": "address[]",
          "name": "accounts",
          "type": "address[]"
        },
        {
          "internalType": "contract IERC721[]",
          "name": "contracts",
          "type": "address[]"
        },
        {
          "internalType": "uint256[]",
          "name": "tokenIds",
          "type": "uint256[]"
        }
      ],
      "name": "recoverERC721s",
      "outputs": [],
      "stateMutability": "nonpayable",
      "type": "function"
    },
    {
      "inputs": [
        {
          "internalType": "address payable[]",
          "name": "accounts",
          "type": "address[]"
        },
        {
          "internalType": "uint256[]",
          "name": "amounts",
          "type": "uint256[]"
        }
      ],
      "name": "recoverETH",
      "outputs": [],
      "stateMutability": "nonpayable",
      "type": "function"
    },
    {
      "inputs": [
        {
          "internalType": "bytes32",
          "name": "epochId",
          "type": "bytes32"
        },
        {
          "internalType": "bytes32",
          "name": "merkleRoot",
          "type": "bytes32"
        },
        {
          "internalType": "uint256",
          "name": "totalAmount",
          "type": "uint256"
        },
        {
          "internalType": "uint256",
          "name": "startTime",
          "type": "uint256"
        },
        {
          "internalType": "uint256",
          "name": "endTime",
          "type": "uint256"
        }
      ],
      "name": "setMerkleRoot",
      "outputs": [],
      "stateMutability": "nonpayable",
      "type": "function"
    },
    {
      "inputs": [
        {
          "internalType": "bytes4",
          "name": "interfaceId",
          "type": "bytes4"
        }
      ],
      "name": "supportsInterface",
      "outputs": [
        {
          "internalType": "bool",
          "name": "",
          "type": "bool"
        }
      ],
      "stateMutability": "view",
      "type": "function"
    },
    {
      "inputs": [
        {
          "internalType": "address",
          "name": "newOwner",
          "type": "address"
        }
      ],
      "name": "transferOwnership",
      "outputs": [],
      "stateMutability": "nonpayable",
      "type": "function"
    }
  ],
  "bytecode": "0x60c06040523480156200001157600080fd5b5060405162001cc238038062001cc28339810160408190526200003491620001f7565b8080336200004d8162000046620000a0565b90620000d6565b506001600160a01b03908116608052831690506200008d576040516302caf95f60e61b81526001600160a01b038316600482015260240160405180910390fd5b506001600160a01b031660a05262000258565b600080620000d060017fc9ed16f33ab3a66c84bfd83099ccb2a8845871e2e1c1928f63797152f0fd54cd62000236565b92915050565b6001600160a01b038116156200012d5781546001600160a01b0319166001600160a01b03821690811783556040516000907f8be0079c531659141344cd1fd0a4f28419497f9722a3daafe3b4186f6b6457e0908290a35b6200014d6307f5828d60e41b60016200014562000151565b919062000181565b5050565b600080620000d060017fca9d3e17f264b0f3984e2634e94adb37fa3e6a8103f06aeae6fa59e21c769f5e62000236565b600160e01b6001600160e01b0319831601620001b0576040516372c683bb60e01b815260040160405180910390fd5b6001600160e01b03199190911660009081526020929092526040909120805460ff1916911515919091179055565b6001600160a01b0381168114620001f457600080fd5b50565b600080604083850312156200020b57600080fd5b82516200021881620001de565b60208401519092506200022b81620001de565b809150509250929050565b81810381811115620000d057634e487b7160e01b600052601160045260246000fd5b60805160a051611a286200029a60003960008181610186015261088c01526000818161013c015281816101cd015281816111d801526112600152611a286000f3fe608060405234801561001057600080fd5b50600436106100e95760003560e01c806373c8a9581161008c578063cc3c0f0611610066578063cc3c0f061461024b578063e5ada41e1461026e578063f2fde38b146102d3578063f7ba94bd146102e657600080fd5b806373c8a9581461021d5780638da5cb5b14610230578063c3666c361461023857600080fd5b80632d4c2f93116100c85780632d4c2f93146101815780634488a6b8146101a8578063572b6c05146101bd57806365c6ca3d1461020a57600080fd5b8062de5116146100ee57806301ffc9a7146101175780632b4c9f161461013a575b600080fd5b6101016100fc3660046115f2565b6102f9565b60405161010e919061162f565b60405180910390f35b61012a610125366004611670565b61040a565b604051901515815260200161010e565b7f00000000000000000000000000000000000000000000000000000000000000005b60405173ffffffffffffffffffffffffffffffffffffffff909116815260200161010e565b61015c7f000000000000000000000000000000000000000000000000000000000000000081565b6101bb6101b63660046116b2565b610424565b005b61012a6101cb3660046116ed565b7f000000000000000000000000000000000000000000000000000000000000000073ffffffffffffffffffffffffffffffffffffffff90811691161490565b6101bb610218366004611756565b61057b565b6101bb61022b3660046117c9565b610956565b61015c610a4c565b6101bb6102463660046117c9565b610a78565b61012a610259366004611851565b60016020526000908152604090205460ff1681565b6102ab61027c366004611851565b600060208190529081526040902080546001820154600283015460038401546004909401549293919290919085565b604080519586526020860194909452928401919091526060830152608082015260a00161010e565b6101bb6102e13660046116ed565b610bf0565b6101bb6102f436600461186a565b610c0e565b60008481526020819052604081208054610317576001915050610402565b6003810154429081108061032e5750816004015481115b1561033e57600292505050610402565b6040517fffffffffffffffffffffffffffffffffffffffff000000000000000000000000606088901b166020820152603481018690526054810185905260748101889052600090609401604080517fffffffffffffffffffffffffffffffffffffffffffffffffffffffffffffffe081840301815291815281516020928301206000818152600190935291205490915060ff16156103e25760039350505050610402565b85836002015410156103fa5760049350505050610402565b600093505050505b949350505050565b600061041e82610418610ccd565b90610cfb565b92915050565b61043d61042f610dd5565b610437610ddf565b90610e0d565b6000858152602081905260409020541561048b576040517fed10979d000000000000000000000000000000000000000000000000000000008152600481018690526024015b60405180910390fd5b808210158061049a5750428111155b156104db576040517f779acdff0000000000000000000000000000000000000000000000000000000081526004810183905260248101829052604401610482565b6040805160a081018252858152602080820186815282840187815260608085018881526080860188815260008d81528087528890209651875593516001870155915160028601559051600385015590516004909301929092558251868152908101859052918201839052859187917fcc91ec9ab2c849ab9ed4203144656ae28b914032c6e761d1d35ed0421a783e6c910160405180910390a35050505050565b600086815260208190526040902080546105c4576040517f30a77e8c00000000000000000000000000000000000000000000000000000000815260048101889052602401610482565b600381015442908110806105db5750816004015481115b1561062f5760038201546004808401546040517fc06e9f3a00000000000000000000000000000000000000000000000000000000815291820184905260248201929092526044810191909152606401610482565b6040517fffffffffffffffffffffffffffffffffffffffff000000000000000000000000606089901b166020820152603481018790526054810186905260748101899052600090609401604080517fffffffffffffffffffffffffffffffffffffffffffffffffffffffffffffffe081840301815291815281516020928301206000818152600190935291205490915060ff1615610726576040517f46578bab00000000000000000000000000000000000000000000000000000000815273ffffffffffffffffffffffffffffffffffffffff891660048201526024810188905260448101879052606481018a9052608401610482565b86836002015410156107745760028301546040517f23090a31000000000000000000000000000000000000000000000000000000008152610482918991600401918252602082015260400190565b8254610784908690869084610e7c565b6107e7576040517f6f6b5e9900000000000000000000000000000000000000000000000000000000815273ffffffffffffffffffffffffffffffffffffffff891660048201526024810188905260448101879052606481018a9052608401610482565b6000818152600160208190526040822080547fffffffffffffffffffffffffffffffffffffffffffffffffffffffffffffff001690911790556002840180548992906108349084906118d6565b90915550506040517f26b3293f00000000000000000000000000000000000000000000000000000000815273ffffffffffffffffffffffffffffffffffffffff898116600483015260248201899052604482018890527f000000000000000000000000000000000000000000000000000000000000000016906326b3293f90606401600060405180830381600087803b1580156108d057600080fd5b505af11580156108e4573d6000803e3d6000fd5b505050508773ffffffffffffffffffffffffffffffffffffffff1683600001548a7f7a8a3a03f1a8f44d6b65d40675acf5adb01d7f9d2ebdeb499f624945ddd04b8f8a8760020154604051610943929190918252602082015260400190565b60405180910390a4505050505050505050565b61096161042f610dd5565b8483811415806109715750808214155b156109a8576040517f6582533600000000000000000000000000000000000000000000000000000000815260040160405180910390fd5b60005b81811015610a4257610a3a8888838181106109c8576109c8611910565b90506020020160208101906109dd91906116ed565b8585848181106109ef576109ef611910565b90506020020135888885818110610a0857610a08611910565b9050602002016020810190610a1d91906116ed565b73ffffffffffffffffffffffffffffffffffffffff169190610e94565b6001016109ab565b5050505050505050565b6000610a73610a59610ddf565b5473ffffffffffffffffffffffffffffffffffffffff1690565b905090565b610a8361042f610dd5565b848381141580610a935750808214155b15610aca576040517f6582533600000000000000000000000000000000000000000000000000000000815260040160405180910390fd5b60005b81811015610a4257858582818110610ae757610ae7611910565b9050602002016020810190610afc91906116ed565b73ffffffffffffffffffffffffffffffffffffffff166323b872dd308a8a85818110610b2a57610b2a611910565b9050602002016020810190610b3f91906116ed565b878786818110610b5157610b51611910565b6040517fffffffff0000000000000000000000000000000000000000000000000000000060e088901b16815273ffffffffffffffffffffffffffffffffffffffff958616600482015294909316602485015250602090910201356044820152606401600060405180830381600087803b158015610bcd57600080fd5b505af1158015610be1573d6000803e3d6000fd5b50505050806001019050610acd565b610c0b610bfb610dd5565b82610c04610ddf565b9190610f26565b50565b610c1961042f610dd5565b82818114610c53576040517f6582533600000000000000000000000000000000000000000000000000000000815260040160405180910390fd5b60005b81811015610cc557610cbd848483818110610c7357610c73611910565b90506020020135878784818110610c8c57610c8c611910565b9050602002016020810190610ca191906116ed565b73ffffffffffffffffffffffffffffffffffffffff169061103b565b600101610c56565b505050505050565b60008061041e60017fca9d3e17f264b0f3984e2634e94adb37fa3e6a8103f06aeae6fa59e21c769f5e6118d6565b60007c01000000000000000000000000000000000000000000000000000000007fffffffff00000000000000000000000000000000000000000000000000000000831601610d4b5750600061041e565b7ffe003659000000000000000000000000000000000000000000000000000000007fffffffff00000000000000000000000000000000000000000000000000000000831601610d9c5750600161041e565b507fffffffff00000000000000000000000000000000000000000000000000000000166000908152602091909152604090205460ff1690565b6000610a73611195565b60008061041e60017fc9ed16f33ab3a66c84bfd83099ccb2a8845871e2e1c1928f63797152f0fd54cd6118d6565b815473ffffffffffffffffffffffffffffffffffffffff828116911614610e78576040517f2ef4875e00000000000000000000000000000000000000000000000000000000815273ffffffffffffffffffffffffffffffffffffffff82166004820152602401610482565b5050565b600082610e8a8686856112dc565b1495945050505050565b6040805173ffffffffffffffffffffffffffffffffffffffff8416602482015260448082018490528251808303909101815260649091019091526020810180517bffffffffffffffffffffffffffffffffffffffffffffffffffffffff167fa9059cbb00000000000000000000000000000000000000000000000000000000179052610f2190849061131e565b505050565b825473ffffffffffffffffffffffffffffffffffffffff9081169083168114610f93576040517f2ef4875e00000000000000000000000000000000000000000000000000000000815273ffffffffffffffffffffffffffffffffffffffff84166004820152602401610482565b8173ffffffffffffffffffffffffffffffffffffffff168173ffffffffffffffffffffffffffffffffffffffff16146110355783547fffffffffffffffffffffffff00000000000000000000000000000000000000001673ffffffffffffffffffffffffffffffffffffffff8381169182178655604051908316907f8be0079c531659141344cd1fd0a4f28419497f9722a3daafe3b4186f6b6457e090600090a35b50505050565b804710156110a5576040517f08c379a000000000000000000000000000000000000000000000000000000000815260206004820152601d60248201527f416464726573733a20696e73756666696369656e742062616c616e63650000006044820152606401610482565b60008273ffffffffffffffffffffffffffffffffffffffff168260405160006040518083038185875af1925050503d80600081146110ff576040519150601f19603f3d011682016040523d82523d6000602084013e611104565b606091505b5050905080610f21576040517f08c379a000000000000000000000000000000000000000000000000000000000815260206004820152603a60248201527f416464726573733a20756e61626c6520746f2073656e642076616c75652c207260448201527f6563697069656e74206d617920686176652072657665727465640000000000006064820152608401610482565b6000333214806111a55750601836105b156111af57503390565b7fffffffffffffffffffffffffffffffffffffffffffffffffffffffffffffffec36013560601c7f000000000000000000000000000000000000000000000000000000000000000073ffffffffffffffffffffffffffffffffffffffff163314806112cb57506040517f8929a8ca00000000000000000000000000000000000000000000000000000000815273ffffffffffffffffffffffffffffffffffffffff82811660048301523360248301527f00000000000000000000000000000000000000000000000000000000000000001690638929a8ca90604401602060405180830381865afa1580156112a7573d6000803e3d6000fd5b505050506040513d601f19601f820116820180604052508101906112cb919061193f565b156112d557919050565b3391505090565b600081815b848110156113155761130b828787848181106112ff576112ff611910565b9050602002013561142d565b91506001016112e1565b50949350505050565b6000611380826040518060400160405280602081526020017f5361666545524332303a206c6f772d6c6576656c2063616c6c206661696c65648152508573ffffffffffffffffffffffffffffffffffffffff1661145f9092919063ffffffff16565b90508051600014806113a15750808060200190518101906113a1919061193f565b610f21576040517f08c379a000000000000000000000000000000000000000000000000000000000815260206004820152602a60248201527f5361666545524332303a204552433230206f7065726174696f6e20646964206e60448201527f6f742073756363656564000000000000000000000000000000000000000000006064820152608401610482565b6000818310611449576000828152602084905260409020611458565b60008381526020839052604090205b9392505050565b60606104028484600085856000808673ffffffffffffffffffffffffffffffffffffffff1685876040516114939190611985565b60006040518083038185875af1925050503d80600081146114d0576040519150601f19603f3d011682016040523d82523d6000602084013e6114d5565b606091505b50915091506114e6878383876114f1565b979650505050505050565b606083156115875782516000036115805773ffffffffffffffffffffffffffffffffffffffff85163b611580576040517f08c379a000000000000000000000000000000000000000000000000000000000815260206004820152601d60248201527f416464726573733a2063616c6c20746f206e6f6e2d636f6e74726163740000006044820152606401610482565b5081610402565b610402838381511561159c5781518083602001fd5b806040517f08c379a000000000000000000000000000000000000000000000000000000000815260040161048291906119a1565b73ffffffffffffffffffffffffffffffffffffffff81168114610c0b57600080fd5b6000806000806080858703121561160857600080fd5b84359350602085013561161a816115d0565b93969395505050506040820135916060013590565b602081016005831061166a577f4e487b7100000000000000000000000000000000000000000000000000000000600052602160045260246000fd5b91905290565b60006020828403121561168257600080fd5b81357fffffffff000000000000000000000000000000000000000000000000000000008116811461145857600080fd5b600080600080600060a086880312156116ca57600080fd5b505083359560208501359550604085013594606081013594506080013592509050565b6000602082840312156116ff57600080fd5b8135611458816115d0565b60008083601f84011261171c57600080fd5b50813567ffffffffffffffff81111561173457600080fd5b6020830191508360208260051b850101111561174f57600080fd5b9250929050565b60008060008060008060a0878903121561176f57600080fd5b863595506020870135611781816115d0565b94506040870135935060608701359250608087013567ffffffffffffffff8111156117ab57600080fd5b6117b789828a0161170a565b979a9699509497509295939492505050565b600080600080600080606087890312156117e257600080fd5b863567ffffffffffffffff808211156117fa57600080fd5b6118068a838b0161170a565b9098509650602089013591508082111561181f57600080fd5b61182b8a838b0161170a565b9096509450604089013591508082111561184457600080fd5b506117b789828a0161170a565b60006020828403121561186357600080fd5b5035919050565b6000806000806040858703121561188057600080fd5b843567ffffffffffffffff8082111561189857600080fd5b6118a48883890161170a565b909650945060208701359150808211156118bd57600080fd5b506118ca8782880161170a565b95989497509550505050565b8181038181111561041e577f4e487b7100000000000000000000000000000000000000000000000000000000600052601160045260246000fd5b7f4e487b7100000000000000000000000000000000000000000000000000000000600052603260045260246000fd5b60006020828403121561195157600080fd5b8151801515811461145857600080fd5b60005b8381101561197c578181015183820152602001611964565b50506000910152565b60008251611997818460208701611961565b9190910192915050565b60208152600082518060208401526119c0816040850160208701611961565b601f017fffffffffffffffffffffffffffffffffffffffffffffffffffffffffffffffe016919091016040019291505056fea26469706673582212206602e44f502d847450d0275664493561c1dd88198117a2bd9fc74890f866982864736f6c63430008160033",
  "linkReferences": {},
  "deployedLinkReferences": {}
}