{
  "_format": "hh-sol-artifact-1",
  "contractName": "EDULandPriceHelper",
  "sourceName": "contracts/land/EDULandPriceHelper.sol",
  "abi": [
    {
      "inputs": [
        {
          "internalType": "uint256",
          "name": "totalOngoingRentalTime",
          "type": "uint256"
        }
      ],
      "name": "calculatePrice",
      "outputs": [
        {
          "internalType": "uint256",
          "name": "",
          "type": "uint256"
        }
      ],
      "stateMutability": "pure",
      "type": "function"
    }
  ],
  "bytecode": "0x608060405234801561001057600080fd5b506101fb806100206000396000f3fe608060405234801561001057600080fd5b506004361061002b5760003560e01c8063ae10426514610030575b600080fd5b61004361003e366004610133565b610055565b60405190815260200160405180910390f35b600061008161138861007061006b60648661014c565b610087565b61007c9061012c610187565b61011b565b92915050565b600080608083901c1561009c57608092831c92015b604083901c156100ae57604092831c92015b602083901c156100c057602092831c92015b601083901c156100d257601092831c92015b600883901c156100e457600892831c92015b600483901c156100f657600492831c92015b600283901c1561010857600292831c92015b600183901c156100815760010192915050565b600081831161012a578161012c565b825b9392505050565b60006020828403121561014557600080fd5b5035919050565b600082610182577f4e487b7100000000000000000000000000000000000000000000000000000000600052601260045260246000fd5b500490565b8082028115828204841417610081577f4e487b7100000000000000000000000000000000000000000000000000000000600052601160045260246000fdfea26469706673582212200195d03d93e384a14580c985fc7307d3047d5bc19bc9b27f6928a54813fd63d764736f6c63430008160033",
  "linkReferences": {},
  "deployedLinkReferences": {}
}